{
  "_format": "hh-sol-artifact-1",
  "contractName": "TestFullMigration",
  "sourceName": "contracts/test/TestFullMigration.sol",
  "abi": [
    {
      "inputs": [
        {
          "internalType": "address payable",
          "name": "deployer",
          "type": "address"
        }
      ],
      "stateMutability": "nonpayable",
      "type": "constructor"
    },
    {
      "inputs": [
        {
          "internalType": "address payable",
          "name": "ethRecipient",
          "type": "address"
        }
      ],
      "name": "die",
      "outputs": [],
      "stateMutability": "nonpayable",
      "type": "function"
    },
    {
      "inputs": [],
      "name": "dieRecipient",
      "outputs": [
        {
          "internalType": "address",
          "name": "",
          "type": "address"
        }
      ],
      "stateMutability": "view",
      "type": "function"
    },
    {
      "inputs": [],
      "name": "getBootstrapper",
      "outputs": [
        {
          "internalType": "address",
          "name": "bootstrapper",
          "type": "address"
        }
      ],
      "stateMutability": "view",
      "type": "function"
    },
    {
      "inputs": [],
      "name": "initializeCaller",
      "outputs": [
        {
          "internalType": "address",
          "name": "",
          "type": "address"
        }
      ],
      "stateMutability": "view",
      "type": "function"
    },
    {
      "inputs": [
        {
          "internalType": "address payable",
          "name": "owner",
          "type": "address"
        },
        {
          "internalType": "contract ZeroEx",
          "name": "zeroEx",
          "type": "address"
        },
        {
          "components": [
            {
              "internalType": "contract SimpleFunctionRegistryFeature",
              "name": "registry",
              "type": "address"
            },
            {
              "internalType": "contract OwnableFeature",
              "name": "ownable",
              "type": "address"
            },
            {
              "internalType": "contract TransformERC20Feature",
              "name": "transformERC20",
              "type": "address"
            },
            {
              "internalType": "contract MetaTransactionsFeature",
              "name": "metaTransactions",
              "type": "address"
            },
            {
              "internalType": "contract NativeOrdersFeature",
              "name": "nativeOrders",
              "type": "address"
            },
            {
              "internalType": "contract OtcOrdersFeature",
              "name": "otcOrders",
              "type": "address"
            }
          ],
          "internalType": "struct FullMigration.Features",
          "name": "features",
          "type": "tuple"
        },
        {
          "components": [
            {
              "internalType": "address",
              "name": "transformerDeployer",
              "type": "address"
            }
          ],
          "internalType": "struct FullMigration.MigrateOpts",
          "name": "migrateOpts",
          "type": "tuple"
        }
      ],
      "name": "migrateZeroEx",
      "outputs": [
        {
          "internalType": "contract ZeroEx",
          "name": "_zeroEx",
          "type": "address"
        }
      ],
      "stateMutability": "nonpayable",
      "type": "function"
    }
  ],
  "bytecode": "0x60a060405234801561001057600080fd5b506040516120e83803806120e883398181016040528101906100329190610151565b808073ffffffffffffffffffffffffffffffffffffffff1660808173ffffffffffffffffffffffffffffffffffffffff168152505030604051610074906100e1565b61007e919061019f565b604051809103906000f08015801561009a573d6000803e3d6000fd5b506000806101000a81548173ffffffffffffffffffffffffffffffffffffffff021916908373ffffffffffffffffffffffffffffffffffffffff16021790555050506101ba565b610f8a8061115e83390190565b600080fd5b600073ffffffffffffffffffffffffffffffffffffffff82169050919050565b600061011e826100f3565b9050919050565b61012e81610113565b811461013957600080fd5b50565b60008151905061014b81610125565b92915050565b600060208284031215610167576101666100ee565b5b60006101758482850161013c565b91505092915050565b6000610189826100f3565b9050919050565b6101998161017e565b82525050565b60006020820190506101b46000830184610190565b92915050565b608051610f826101dc6000396000818161010601526103690152610f826000f3fe608060405234801561001057600080fd5b50600436106100575760003560e01c8063329798a41461005c5780635f136a4a1461008c5780639b7e25a9146100aa578063b3d31735146100c8578063c9353cb5146100e6575b600080fd5b61007660048036038101906100719190610b76565b610102565b6040516100839190610c3e565b60405180910390f35b610094610367565b6040516100a19190610c68565b60405180910390f35b6100b261038b565b6040516100bf9190610c68565b60405180910390f35b6100d06103b1565b6040516100dd9190610c68565b60405180910390f35b61010060048036038101906100fb9190610c83565b6103da565b005b60007f000000000000000000000000000000000000000000000000000000000000000073ffffffffffffffffffffffffffffffffffffffff163373ffffffffffffffffffffffffffffffffffffffff1614610192576040517f08c379a000000000000000000000000000000000000000000000000000000000815260040161018990610d0d565b60405180910390fd5b60008054906101000a900473ffffffffffffffffffffffffffffffffffffffff1673ffffffffffffffffffffffffffffffffffffffff1663a23ce6ce30866040518060400160405280886000015173ffffffffffffffffffffffffffffffffffffffff168152602001886020015173ffffffffffffffffffffffffffffffffffffffff168152506040518463ffffffff1660e01b815260040161023793929190610dbf565b6020604051808303816000875af1158015610256573d6000803e3d6000fd5b505050506040513d601f19601f8201168201806040525081019061027a9190610e0b565b5061028684848461041e565b8373ffffffffffffffffffffffffffffffffffffffff1663f2fde38b866040518263ffffffff1660e01b81526004016102bf9190610e59565b600060405180830381600087803b1580156102d957600080fd5b505af11580156102ed573d6000803e3d6000fd5b505050503073ffffffffffffffffffffffffffffffffffffffff1663c9353cb5866040518263ffffffff1660e01b815260040161032a9190610e74565b600060405180830381600087803b15801561034457600080fd5b505af1158015610358573d6000803e3d6000fd5b50505050839050949350505050565b7f000000000000000000000000000000000000000000000000000000000000000081565b600160009054906101000a900473ffffffffffffffffffffffffffffffffffffffff1681565b60008060009054906101000a900473ffffffffffffffffffffffffffffffffffffffff16905090565b80600160006101000a81548173ffffffffffffffffffffffffffffffffffffffff021916908373ffffffffffffffffffffffffffffffffffffffff16021790555050565b60008390508073ffffffffffffffffffffffffffffffffffffffff1663261fe679846040015163ce5494bb60e01b85600001516040516024016104619190610c68565b604051602081830303815290604052907bffffffffffffffffffffffffffffffffffffffffffffffffffffffff19166020820180517bffffffffffffffffffffffffffffffffffffffffffffffffffffffff8381831617835250505050306040518463ffffffff1660e01b81526004016104dd93929190610f0e565b600060405180830381600087803b1580156104f757600080fd5b505af115801561050b573d6000803e3d6000fd5b505050508073ffffffffffffffffffffffffffffffffffffffff1663261fe6798460600151638fd3ab8060e01b604051602401604051602081830303815290604052907bffffffffffffffffffffffffffffffffffffffffffffffffffffffff19166020820180517bffffffffffffffffffffffffffffffffffffffffffffffffffffffff8381831617835250505050306040518463ffffffff1660e01b81526004016105ba93929190610f0e565b600060405180830381600087803b1580156105d457600080fd5b505af11580156105e8573d6000803e3d6000fd5b505050508073ffffffffffffffffffffffffffffffffffffffff1663261fe6798460800151638fd3ab8060e01b604051602401604051602081830303815290604052907bffffffffffffffffffffffffffffffffffffffffffffffffffffffff19166020820180517bffffffffffffffffffffffffffffffffffffffffffffffffffffffff8381831617835250505050306040518463ffffffff1660e01b815260040161069793929190610f0e565b600060405180830381600087803b1580156106b157600080fd5b505af11580156106c5573d6000803e3d6000fd5b505050508073ffffffffffffffffffffffffffffffffffffffff1663261fe6798460a00151638fd3ab8060e01b604051602401604051602081830303815290604052907bffffffffffffffffffffffffffffffffffffffffffffffffffffffff19166020820180517bffffffffffffffffffffffffffffffffffffffffffffffffffffffff8381831617835250505050306040518463ffffffff1660e01b815260040161077493929190610f0e565b600060405180830381600087803b15801561078e57600080fd5b505af11580156107a2573d6000803e3d6000fd5b5050505050505050565b6000604051905090565b600080fd5b600073ffffffffffffffffffffffffffffffffffffffff82169050919050565b60006107e6826107bb565b9050919050565b6107f6816107db565b811461080157600080fd5b50565b600081359050610813816107ed565b92915050565b6000610824826107db565b9050919050565b61083481610819565b811461083f57600080fd5b50565b6000813590506108518161082b565b92915050565b600080fd5b6000601f19601f8301169050919050565b7f4e487b7100000000000000000000000000000000000000000000000000000000600052604160045260246000fd5b6108a58261085c565b810181811067ffffffffffffffff821117156108c4576108c361086d565b5b80604052505050565b60006108d76107ac565b90506108e3828261089c565b919050565b60006108f3826107bb565b9050919050565b6000610905826108e8565b9050919050565b610915816108fa565b811461092057600080fd5b50565b6000813590506109328161090c565b92915050565b6000610943826108e8565b9050919050565b61095381610938565b811461095e57600080fd5b50565b6000813590506109708161094a565b92915050565b6000610981826108e8565b9050919050565b61099181610976565b811461099c57600080fd5b50565b6000813590506109ae81610988565b92915050565b60006109bf826108e8565b9050919050565b6109cf816109b4565b81146109da57600080fd5b50565b6000813590506109ec816109c6565b92915050565b60006109fd826108e8565b9050919050565b610a0d816109f2565b8114610a1857600080fd5b50565b600081359050610a2a81610a04565b92915050565b6000610a3b826108e8565b9050919050565b610a4b81610a30565b8114610a5657600080fd5b50565b600081359050610a6881610a42565b92915050565b600060c08284031215610a8457610a83610857565b5b610a8e60c06108cd565b90506000610a9e84828501610923565b6000830152506020610ab284828501610961565b6020830152506040610ac68482850161099f565b6040830152506060610ada848285016109dd565b6060830152506080610aee84828501610a1b565b60808301525060a0610b0284828501610a59565b60a08301525092915050565b610b17816108e8565b8114610b2257600080fd5b50565b600081359050610b3481610b0e565b92915050565b600060208284031215610b5057610b4f610857565b5b610b5a60206108cd565b90506000610b6a84828501610b25565b60008301525092915050565b6000806000806101208587031215610b9157610b906107b6565b5b6000610b9f87828801610804565b9450506020610bb087828801610842565b9350506040610bc187828801610a6e565b925050610100610bd387828801610b3a565b91505092959194509250565b6000819050919050565b6000610c04610bff610bfa846107bb565b610bdf565b6107bb565b9050919050565b6000610c1682610be9565b9050919050565b6000610c2882610c0b565b9050919050565b610c3881610c1d565b82525050565b6000602082019050610c536000830184610c2f565b92915050565b610c62816108e8565b82525050565b6000602082019050610c7d6000830184610c59565b92915050565b600060208284031215610c9957610c986107b6565b5b6000610ca784828501610804565b91505092915050565b600082825260208201905092915050565b7f46756c6c4d6967726174696f6e2f494e56414c49445f53454e44455200000000600082015250565b6000610cf7601c83610cb0565b9150610d0282610cc1565b602082019050919050565b60006020820190508181036000830152610d2681610cea565b9050919050565b610d36816107db565b82525050565b6000610d4782610be9565b9050919050565b6000610d5982610d3c565b9050919050565b610d6981610d4e565b82525050565b6000610d7a82610d3c565b9050919050565b610d8a81610d6f565b82525050565b604082016000820151610da66000850182610d60565b506020820151610db96020850182610d81565b50505050565b6000608082019050610dd46000830186610d2d565b610de16020830185610c2f565b610dee6040830184610d90565b949350505050565b600081519050610e058161082b565b92915050565b600060208284031215610e2157610e206107b6565b5b6000610e2f84828501610df6565b91505092915050565b6000610e4382610d3c565b9050919050565b610e5381610e38565b82525050565b6000602082019050610e6e6000830184610e4a565b92915050565b6000602082019050610e896000830184610d2d565b92915050565b600081519050919050565b600082825260208201905092915050565b60005b83811015610ec9578082015181840152602081019050610eae565b60008484015250505050565b6000610ee082610e8f565b610eea8185610e9a565b9350610efa818560208601610eab565b610f038161085c565b840191505092915050565b6000606082019050610f236000830186610c59565b8181036020830152610f358185610ed5565b9050610f446040830184610c59565b94935050505056fea26469706673582212207527ef597e3860489bfe39fe7e45d4410983ea9cf683bde5490a8ce9994df3a364736f6c634300081c003360c060405234801561001057600080fd5b50604051610f8a380380610f8a83398181016040528101906100329190610103565b8073ffffffffffffffffffffffffffffffffffffffff1660808173ffffffffffffffffffffffffffffffffffffffff16815250503073ffffffffffffffffffffffffffffffffffffffff1660a08173ffffffffffffffffffffffffffffffffffffffff168152505050610130565b600080fd5b600073ffffffffffffffffffffffffffffffffffffffff82169050919050565b60006100d0826100a5565b9050919050565b6100e0816100c5565b81146100eb57600080fd5b50565b6000815190506100fd816100d7565b92915050565b600060208284031215610119576101186100a0565b5b6000610127848285016100ee565b91505092915050565b60805160a051610e2e61015c60003960006104dc0152600081816102cf01526102f50152610e2e6000f3fe608060405234801561001057600080fd5b506004361061004c5760003560e01c806308cf7934146100515780635f136a4a14610081578063a23ce6ce1461009f578063c9353cb5146100cf575b600080fd5b61006b600480360381019061006691906108eb565b6100eb565b6040516100789190610966565b60405180910390f35b6100896102cd565b6040516100969190610990565b60405180910390f35b6100b960048036038101906100b49190610a27565b6102f1565b6040516100c69190610ad9565b60405180910390f35b6100e960048036038101906100e49190610af4565b6104da565b005b6000610165826000015163fb969b0a60e01b604051602401604051602081830303815290604052907bffffffffffffffffffffffffffffffffffffffffffffffffffffffff19166020820180517bffffffffffffffffffffffffffffffffffffffffffffffffffffffff8381831617835250505050610581565b6101dd826020015163fb969b0a60e01b604051602401604051602081830303815290604052907bffffffffffffffffffffffffffffffffffffffffffffffffffffffff19166020820180517bffffffffffffffffffffffffffffffffffffffffffffffffffffffff8381831617835250505050610581565b3073ffffffffffffffffffffffffffffffffffffffff16639db64a40630ee8be1b60e01b60006040518363ffffffff1660e01b8152600401610220929190610b21565b600060405180830381600087803b15801561023a57600080fd5b505af115801561024e573d6000803e3d6000fd5b505050503073ffffffffffffffffffffffffffffffffffffffff1663f2fde38b846040518263ffffffff1660e01b815260040161028b9190610990565b600060405180830381600087803b1580156102a557600080fd5b505af11580156102b9573d6000803e3d6000fd5b5050505063d150751b60e01b905092915050565b7f000000000000000000000000000000000000000000000000000000000000000081565b60007f000000000000000000000000000000000000000000000000000000000000000073ffffffffffffffffffffffffffffffffffffffff163373ffffffffffffffffffffffffffffffffffffffff1614610381576040517f08c379a000000000000000000000000000000000000000000000000000000000815260040161037890610ba7565b60405180910390fd5b8273ffffffffffffffffffffffffffffffffffffffff166373f208d5306308cf793460e01b87866040516024016103b9929190610c59565b604051602081830303815290604052907bffffffffffffffffffffffffffffffffffffffffffffffffffffffff19166020820180517bffffffffffffffffffffffffffffffffffffffffffffffffffffffff83818316178352505050506040518363ffffffff1660e01b8152600401610433929190610d01565b600060405180830381600087803b15801561044d57600080fd5b505af1158015610461573d6000803e3d6000fd5b505050503073ffffffffffffffffffffffffffffffffffffffff1663c9353cb5856040518263ffffffff1660e01b815260040161049e9190610d31565b600060405180830381600087803b1580156104b857600080fd5b505af11580156104cc573d6000803e3d6000fd5b505050508290509392505050565b7f000000000000000000000000000000000000000000000000000000000000000073ffffffffffffffffffffffffffffffffffffffff163373ffffffffffffffffffffffffffffffffffffffff1614610568576040517f08c379a000000000000000000000000000000000000000000000000000000000815260040161055f90610ba7565b60405180910390fd5b8073ffffffffffffffffffffffffffffffffffffffff16ff5b6000808373ffffffffffffffffffffffffffffffffffffffff16836040516105a99190610d88565b600060405180830381855af49150503d80600081146105e4576040519150601f19603f3d011682016040523d82523d6000602084013e6105e9565b606091505b50915091508115806105fd57506020815114155b80610660575063d150751b60e01b7bffffffffffffffffffffffffffffffffffffffffffffffffffffffff19168180602001905181019061063e9190610dcb565b7bffffffffffffffffffffffffffffffffffffffffffffffffffffffff191614155b1561067857610677610672858361067e565b610719565b5b50505050565b60607fd19d65df6830e3cb0da1e12b8e9738e2dc473f830d8af813bcc031eb5a1675d183836040516024016106b4929190610d01565b604051602081830303815290604052907bffffffffffffffffffffffffffffffffffffffffffffffffffffffff19166020820180517bffffffffffffffffffffffffffffffffffffffffffffffffffffffff8381831617835250505050905092915050565b805160208201fd5b6000604051905090565b600080fd5b600073ffffffffffffffffffffffffffffffffffffffff82169050919050565b600061075b82610730565b9050919050565b61076b81610750565b811461077657600080fd5b50565b60008135905061078881610762565b92915050565b600080fd5b6000601f19601f8301169050919050565b7f4e487b7100000000000000000000000000000000000000000000000000000000600052604160045260246000fd5b6107dc82610793565b810181811067ffffffffffffffff821117156107fb576107fa6107a4565b5b80604052505050565b600061080e610721565b905061081a82826107d3565b919050565b600061082a82610750565b9050919050565b61083a8161081f565b811461084557600080fd5b50565b60008135905061085781610831565b92915050565b600061086882610750565b9050919050565b6108788161085d565b811461088357600080fd5b50565b6000813590506108958161086f565b92915050565b6000604082840312156108b1576108b061078e565b5b6108bb6040610804565b905060006108cb84828501610848565b60008301525060206108df84828501610886565b60208301525092915050565b600080606083850312156109025761090161072b565b5b600061091085828601610779565b92505060206109218582860161089b565b9150509250929050565b60007fffffffff0000000000000000000000000000000000000000000000000000000082169050919050565b6109608161092b565b82525050565b600060208201905061097b6000830184610957565b92915050565b61098a81610750565b82525050565b60006020820190506109a56000830184610981565b92915050565b60006109b682610730565b9050919050565b6109c6816109ab565b81146109d157600080fd5b50565b6000813590506109e3816109bd565b92915050565b60006109f4826109ab565b9050919050565b610a04816109e9565b8114610a0f57600080fd5b50565b600081359050610a21816109fb565b92915050565b600080600060808486031215610a4057610a3f61072b565b5b6000610a4e868287016109d4565b9350506020610a5f86828701610a12565b9250506040610a708682870161089b565b9150509250925092565b6000819050919050565b6000610a9f610a9a610a9584610730565b610a7a565b610730565b9050919050565b6000610ab182610a84565b9050919050565b6000610ac382610aa6565b9050919050565b610ad381610ab8565b82525050565b6000602082019050610aee6000830184610aca565b92915050565b600060208284031215610b0a57610b0961072b565b5b6000610b18848285016109d4565b91505092915050565b6000604082019050610b366000830185610957565b610b436020830184610981565b9392505050565b600082825260208201905092915050565b7f496e697469616c4d6967726174696f6e2f494e56414c49445f53454e44455200600082015250565b6000610b91601f83610b4a565b9150610b9c82610b5b565b602082019050919050565b60006020820190508181036000830152610bc081610b84565b9050919050565b610bd0816109ab565b82525050565b6000610be182610a84565b9050919050565b6000610bf382610bd6565b9050919050565b610c0381610be8565b82525050565b6000610c1482610bd6565b9050919050565b610c2481610c09565b82525050565b604082016000820151610c406000850182610bfa565b506020820151610c536020850182610c1b565b50505050565b6000606082019050610c6e6000830185610bc7565b610c7b6020830184610c2a565b9392505050565b600081519050919050565b600082825260208201905092915050565b60005b83811015610cbc578082015181840152602081019050610ca1565b60008484015250505050565b6000610cd382610c82565b610cdd8185610c8d565b9350610ced818560208601610c9e565b610cf681610793565b840191505092915050565b6000604082019050610d166000830185610981565b8181036020830152610d288184610cc8565b90509392505050565b6000602082019050610d466000830184610bc7565b92915050565b600081905092915050565b6000610d6282610c82565b610d6c8185610d4c565b9350610d7c818560208601610c9e565b80840191505092915050565b6000610d948284610d57565b915081905092915050565b610da88161092b565b8114610db357600080fd5b50565b600081519050610dc581610d9f565b92915050565b600060208284031215610de157610de061072b565b5b6000610def84828501610db6565b9150509291505056fea2646970667358221220110fb9feedc2df979b686eb4009b4b55459b7d152aaa37abfe90bc57dec7b1f764736f6c634300081c0033",
  "linkReferences": {},
  "deployedLinkReferences": {}
}