{
  "_format": "hh-sol-artifact-1",
  "contractName": "TestUniswapV3Feature",
  "sourceName": "contracts/test/TestUniswapV3Feature.sol",
  "abi": [
    {
      "inputs": [
        {
          "internalType": "contract IEtherToken",
          "name": "weth",
          "type": "address"
        },
        {
          "internalType": "address",
          "name": "uniFactory",
          "type": "address"
        },
        {
          "internalType": "bytes32",
          "name": "poolInitCodeHash",
          "type": "bytes32"
        }
      ],
      "stateMutability": "nonpayable",
      "type": "constructor"
    },
    {
      "inputs": [],
      "name": "FEATURE_NAME",
      "outputs": [
        {
          "internalType": "string",
          "name": "",
          "type": "string"
        }
      ],
      "stateMutability": "view",
      "type": "function"
    },
    {
      "inputs": [],
      "name": "FEATURE_VERSION",
      "outputs": [
        {
          "internalType": "uint256",
          "name": "",
          "type": "uint256"
        }
      ],
      "stateMutability": "view",
      "type": "function"
    },
    {
      "inputs": [
        {
          "internalType": "bytes",
          "name": "encodedPath",
          "type": "bytes"
        },
        {
          "internalType": "uint256",
          "name": "sellAmount",
          "type": "uint256"
        },
        {
          "internalType": "uint256",
          "name": "minBuyAmount",
          "type": "uint256"
        },
        {
          "internalType": "address",
          "name": "recipient",
          "type": "address"
        }
      ],
      "name": "_sellHeldTokenForTokenToUniswapV3",
      "outputs": [
        {
          "internalType": "uint256",
          "name": "buyAmount",
          "type": "uint256"
        }
      ],
      "stateMutability": "nonpayable",
      "type": "function"
    },
    {
      "inputs": [
        {
          "internalType": "bytes",
          "name": "encodedPath",
          "type": "bytes"
        },
        {
          "internalType": "uint256",
          "name": "sellAmount",
          "type": "uint256"
        },
        {
          "internalType": "uint256",
          "name": "minBuyAmount",
          "type": "uint256"
        },
        {
          "internalType": "address",
          "name": "recipient",
          "type": "address"
        },
        {
          "internalType": "address",
          "name": "payer",
          "type": "address"
        }
      ],
      "name": "_sellTokenForTokenToUniswapV3",
      "outputs": [
        {
          "internalType": "uint256",
          "name": "buyAmount",
          "type": "uint256"
        }
      ],
      "stateMutability": "nonpayable",
      "type": "function"
    },
    {
      "inputs": [],
      "name": "migrate",
      "outputs": [
        {
          "internalType": "bytes4",
          "name": "success",
          "type": "bytes4"
        }
      ],
      "stateMutability": "nonpayable",
      "type": "function"
    },
    {
      "inputs": [
        {
          "internalType": "bytes",
          "name": "encodedPath",
          "type": "bytes"
        },
        {
          "internalType": "uint256",
          "name": "minBuyAmount",
          "type": "uint256"
        },
        {
          "internalType": "address",
          "name": "recipient",
          "type": "address"
        }
      ],
      "name": "sellEthForTokenToUniswapV3",
      "outputs": [
        {
          "internalType": "uint256",
          "name": "buyAmount",
          "type": "uint256"
        }
      ],
      "stateMutability": "payable",
      "type": "function"
    },
    {
      "inputs": [
        {
          "internalType": "bytes",
          "name": "encodedPath",
          "type": "bytes"
        },
        {
          "internalType": "uint256",
          "name": "sellAmount",
          "type": "uint256"
        },
        {
          "internalType": "uint256",
          "name": "minBuyAmount",
          "type": "uint256"
        },
        {
          "internalType": "address payable",
          "name": "recipient",
          "type": "address"
        }
      ],
      "name": "sellTokenForEthToUniswapV3",
      "outputs": [
        {
          "internalType": "uint256",
          "name": "buyAmount",
          "type": "uint256"
        }
      ],
      "stateMutability": "nonpayable",
      "type": "function"
    },
    {
      "inputs": [
        {
          "internalType": "bytes",
          "name": "encodedPath",
          "type": "bytes"
        },
        {
          "internalType": "uint256",
          "name": "sellAmount",
          "type": "uint256"
        },
        {
          "internalType": "uint256",
          "name": "minBuyAmount",
          "type": "uint256"
        },
        {
          "internalType": "address",
          "name": "recipient",
          "type": "address"
        }
      ],
      "name": "sellTokenForTokenToUniswapV3",
      "outputs": [
        {
          "internalType": "uint256",
          "name": "buyAmount",
          "type": "uint256"
        }
      ],
      "stateMutability": "nonpayable",
      "type": "function"
    },
    {
      "inputs": [
        {
          "internalType": "int256",
          "name": "amount0Delta",
          "type": "int256"
        },
        {
          "internalType": "int256",
          "name": "amount1Delta",
          "type": "int256"
        },
        {
          "internalType": "bytes",
          "name": "data",
          "type": "bytes"
        }
      ],
      "name": "uniswapV3SwapCallback",
      "outputs": [],
      "stateMutability": "nonpayable",
      "type": "function"
    },
    {
      "stateMutability": "payable",
      "type": "receive"
    }
  ],
  "bytecode": "0x6101206040526801000000010000000060a05234801561001d575f5ffd5b506040516117c73803806117c783398101604081905261003c916100a3565b306080526001600160a01b039290921660c05260581b600160581b600160f81b03167fff000000000000000000000000000000000000000000000000000000000000001760e052610100526100e3565b6001600160a01b03811681146100a0575f5ffd5b50565b5f5f5f606084860312156100b5575f5ffd5b83516100c08161008c565b60208501519093506100d18161008c565b80925050604084015190509250925092565b60805160a05160c05160e051610100516116a16101265f395f610d3901525f610d1801525f81816102cd015261044301525f60b201525f610cb501526116a15ff3fe608060405260043610610096575f3560e01c80636ae4b4f711610066578063803ba26d1161004c578063803ba26d146101ac5780638fd3ab80146101cb578063fa461e3314610210575f5ffd5b80636ae4b4f7146101385780636af479b21461018d575f5ffd5b8063031b905c146100a1578063168a6432146100e75780633598d8ab146101065780634a931ba114610119575f5ffd5b3661009d57005b5f5ffd5b3480156100ac575f5ffd5b506100d47f000000000000000000000000000000000000000000000000000000000000000081565b6040519081526020015b60405180910390f35b3480156100f2575f5ffd5b506100d4610101366004611315565b610231565b6100d4610114366004611388565b6102ca565b348015610124575f5ffd5b506100d46101333660046113df565b610360565b348015610143575f5ffd5b506101806040518060400160405280601081526020017f556e69737761705633466561747572650000000000000000000000000000000081525081565b6040516100de919061148a565b348015610198575f5ffd5b506100d46101a73660046113df565b6103f2565b3480156101b7575f5ffd5b506100d46101c63660046113df565b610403565b3480156101d6575f5ffd5b506101df610530565b6040517fffffffff0000000000000000000000000000000000000000000000000000000090911681526020016100de565b34801561021b575f5ffd5b5061022f61022a36600461149c565b61064c565b005b5f3330146102aa5760408051336024808301919091528251808303909101815260449091019091526020810180517bffffffffffffffffffffffffffffffffffffffffffffffffffffffff167ff0ec779b000000000000000000000000000000000000000000000000000000001790526102aa906108b4565b6102c0868686856102bb88886108bc565b6108ea565b9695505050505050565b5f7f000000000000000000000000000000000000000000000000000000000000000073ffffffffffffffffffffffffffffffffffffffff1663d0e30db0346040518263ffffffff1660e01b81526004015f604051808303818588803b158015610331575f5ffd5b505af1158015610343573d5f5f3e3d5ffd5b5050505050610358843485306102bb87610c45565b949350505050565b5f3330146103d95760408051336024808301919091528251808303909101815260449091019091526020810180517bffffffffffffffffffffffffffffffffffffffffffffffffffffffff167ff0ec779b000000000000000000000000000000000000000000000000000000001790526103d9906108b4565b6103e9858585306102bb87610c45565b95945050505050565b5f6103e9858585336102bb87610c45565b5f61041185858533306108ea565b6040517f2e1a7d4d000000000000000000000000000000000000000000000000000000008152600481018290529091507f000000000000000000000000000000000000000000000000000000000000000073ffffffffffffffffffffffffffffffffffffffff1690632e1a7d4d906024015f604051808303815f87803b158015610499575f5ffd5b505af11580156104ab573d5f5f3e3d5ffd5b505050505f5f6104ba84610c45565b73ffffffffffffffffffffffffffffffffffffffff16836040515f6040518083038185875af1925050503d805f811461050e576040519150601f19603f3d011682016040523d82523d5f602084013e610513565b606091505b50915091508161052657610526816108b4565b5050949350505050565b5f61055a7f3598d8ab00000000000000000000000000000000000000000000000000000000610c50565b6105837f803ba26d00000000000000000000000000000000000000000000000000000000610c50565b6105ac7f6af479b200000000000000000000000000000000000000000000000000000000610c50565b6105d57f168a643200000000000000000000000000000000000000000000000000000000610c50565b6105fe7f4a931ba100000000000000000000000000000000000000000000000000000000610c50565b6106277ffa461e3300000000000000000000000000000000000000000000000000000000610c50565b507f2c64c5ef0000000000000000000000000000000000000000000000000000000090565b5f808080608085146106e5576040517f08c379a000000000000000000000000000000000000000000000000000000000815260206004820152602960248201527f556e6973776170466561747572652f494e56414c49445f535741505f43414c4c60448201527f4241434b5f44415441000000000000000000000000000000000000000000000060648201526084015b60405180910390fd5b5050505060448035602481013591810135906084810135906064013573ffffffffffffffffffffffffffffffffffffffff8084169085161061072857828461072b565b83835b909450925061073b848285610d15565b73ffffffffffffffffffffffffffffffffffffffff163373ffffffffffffffffffffffffffffffffffffffff16146107f5576040517f08c379a000000000000000000000000000000000000000000000000000000000815260206004820152602d60248201527f556e69737761705633466561747572652f494e56414c49445f535741505f434160448201527f4c4c4241434b5f43414c4c45520000000000000000000000000000000000000060648201526084016106dc565b505f87131561080f5761080a8382338a610dd4565b6108ab565b5f8613156108235761080a82823389610dd4565b6040517f08c379a000000000000000000000000000000000000000000000000000000000815260206004820152602560248201527f556e69737761705633466561747572652f494e56414c49445f535741505f414d60448201527f4f554e545300000000000000000000000000000000000000000000000000000060648201526084016106dc565b50505050505050565b805160208201fd5b5f73ffffffffffffffffffffffffffffffffffffffff8316156108df57826108e1565b815b90505b92915050565b5f8415610bdb577f7fffffffffffffffffffffffffffffffffffffffffffffffffffffffffffffff8511156109a1576040517f08c379a000000000000000000000000000000000000000000000000000000000815260206004820152602560248201527f556e69737761705633466561747572652f53454c4c5f414d4f554e545f4f564560448201527f52464c4f5700000000000000000000000000000000000000000000000000000060648201526084016106dc565b60408051608080825260a082019092525f916020820181803683370190505090505b5f6109cf8851602b1090565b90505f5f5f5f5f6109df8d610e13565b9250925092506109f0838383610d15565b602088018490526040880182905262ffffff8316606089015273ffffffffffffffffffffffffffffffffffffffff8b811660808a015280831690851610955093505050505f5f8273ffffffffffffffffffffffffffffffffffffffff1663128acb0886610a5d5789610a5f565b305b868e88610a8a57610a85600173fffd8963efd1fc6a506488495d951d5263988d26611545565b610a9a565b610a9a6401000276a36001611571565b8b6040518663ffffffff1660e01b8152600401610abb95949392919061159d565b60408051808303815f875af1158015610ad6573d5f5f3e3d5ffd5b505050506040513d601f19601f82011682018060405250810190610afa9190611600565b915091505f84610b1257610b0d83611622565b610b1b565b610b1b82611622565b90505f811215610bad576040517f08c379a000000000000000000000000000000000000000000000000000000000815260206004820152602360248201527f556e69737761705633466561747572652f494e56414c49445f4255595f414d4f60448201527f554e54000000000000000000000000000000000000000000000000000000000060648201526084016106dc565b965084610bbe575050505050610bd9565b309850869a50610bcd8c610ecd565b9b5050505050506109c3565b505b808411156103e9576040517f08c379a000000000000000000000000000000000000000000000000000000000815260206004820152601c60248201527f556e69737761705633466561747572652f554e444552424f554748540000000060448201526064016106dc565b5f6108e482336108bc565b6040517f6eb224cb0000000000000000000000000000000000000000000000000000000081527fffffffff000000000000000000000000000000000000000000000000000000008216600482015273ffffffffffffffffffffffffffffffffffffffff7f00000000000000000000000000000000000000000000000000000000000000001660248201523090636eb224cb906044015f604051808303815f87803b158015610cfc575f5ffd5b505af1158015610d0e573d5f5f3e3d5ffd5b5050505050565b5f7f00000000000000000000000000000000000000000000000000000000000000007f0000000000000000000000000000000000000000000000000000000000000000828073ffffffffffffffffffffffffffffffffffffffff80871690891610610d81578588610d84565b87865b604051958652601586019182526035860190815262ffffff909816605580870191909152606082209091529290965250902073ffffffffffffffffffffffffffffffffffffffff16949350505050565b73ffffffffffffffffffffffffffffffffffffffff83163014610e0257610dfd84848484610f80565b610e0d565b610e0d8483836110c8565b50505050565b5f5f5f602b84511015610ea8576040517f08c379a000000000000000000000000000000000000000000000000000000000815260206004820152602260248201527f556e69737761705633466561747572652f4241445f504154485f454e434f444960448201527f4e4700000000000000000000000000000000000000000000000000000000000060648201526084016106dc565b50505060208101516034820151603790920151606091821c9360e89390931c92911c90565b6060601782511015610f61576040517f08c379a000000000000000000000000000000000000000000000000000000000815260206004820152602260248201527f556e69737761705633466561747572652f4241445f504154485f454e434f444960448201527f4e4700000000000000000000000000000000000000000000000000000000000060648201526084016106dc565b81516017905f90610f73908390611658565b9190930190815292915050565b3073ffffffffffffffffffffffffffffffffffffffff851603611024576040517f08c379a0000000000000000000000000000000000000000000000000000000008152602060048201526024808201527f466978696e546f6b656e5370656e6465722f43414e4e4f545f494e564f4b455f60448201527f53454c460000000000000000000000000000000000000000000000000000000060648201526084016106dc565b6040517f23b872dd00000000000000000000000000000000000000000000000000000000815273ffffffffffffffffffffffffffffffffffffffff8416600482015273ffffffffffffffffffffffffffffffffffffffff831660248201528160448201526020816064835f73ffffffffffffffffffffffffffffffffffffffff8a165af13d600183511460208210151681151782169150816108ab57805f843e8083fd5b3073ffffffffffffffffffffffffffffffffffffffff84160361116c576040517f08c379a0000000000000000000000000000000000000000000000000000000008152602060048201526024808201527f466978696e546f6b656e5370656e6465722f43414e4e4f545f494e564f4b455f60448201527f53454c460000000000000000000000000000000000000000000000000000000060648201526084016106dc565b6040517fa9059cbb00000000000000000000000000000000000000000000000000000000815273ffffffffffffffffffffffffffffffffffffffff831660048201528160248201526020816044835f73ffffffffffffffffffffffffffffffffffffffff89165af13d600183511460208210151681151782169150816111f457805f843e8083fd5b505050505050565b7f4e487b71000000000000000000000000000000000000000000000000000000005f52604160045260245ffd5b5f82601f830112611238575f5ffd5b813567ffffffffffffffff811115611252576112526111fc565b6040517fffffffffffffffffffffffffffffffffffffffffffffffffffffffffffffffe0603f7fffffffffffffffffffffffffffffffffffffffffffffffffffffffffffffffe0601f8501160116810181811067ffffffffffffffff821117156112be576112be6111fc565b6040528181528382016020018510156112d5575f5ffd5b816020850160208301375f918101602001919091529392505050565b73ffffffffffffffffffffffffffffffffffffffff81168114611312575f5ffd5b50565b5f5f5f5f5f60a08688031215611329575f5ffd5b853567ffffffffffffffff81111561133f575f5ffd5b61134b88828901611229565b9550506020860135935060408601359250606086013561136a816112f1565b9150608086013561137a816112f1565b809150509295509295909350565b5f5f5f6060848603121561139a575f5ffd5b833567ffffffffffffffff8111156113b0575f5ffd5b6113bc86828701611229565b9350506020840135915060408401356113d4816112f1565b809150509250925092565b5f5f5f5f608085870312156113f2575f5ffd5b843567ffffffffffffffff811115611408575f5ffd5b61141487828801611229565b94505060208501359250604085013591506060850135611433816112f1565b939692955090935050565b5f81518084528060208401602086015e5f6020828601015260207fffffffffffffffffffffffffffffffffffffffffffffffffffffffffffffffe0601f83011685010191505092915050565b602081525f6108e1602083018461143e565b5f5f5f5f606085870312156114af575f5ffd5b8435935060208501359250604085013567ffffffffffffffff8111156114d3575f5ffd5b8501601f810187136114e3575f5ffd5b803567ffffffffffffffff8111156114f9575f5ffd5b87602082840101111561150a575f5ffd5b949793965060200194505050565b7f4e487b71000000000000000000000000000000000000000000000000000000005f52601160045260245ffd5b73ffffffffffffffffffffffffffffffffffffffff82811682821603908111156108e4576108e4611518565b73ffffffffffffffffffffffffffffffffffffffff81811683821601908111156108e4576108e4611518565b73ffffffffffffffffffffffffffffffffffffffff86168152841515602082015283604082015273ffffffffffffffffffffffffffffffffffffffff8316606082015260a060808201525f6115f560a083018461143e565b979650505050505050565b5f5f60408385031215611611575f5ffd5b505080516020909101519092909150565b5f7f8000000000000000000000000000000000000000000000000000000000000000820361165257611652611518565b505f0390565b818103818111156108e4576108e461151856fea264697066735822122095c8b575c29f635382b699fd7b06a0c0abf391d44adb588900eceddb1fe00e5e64736f6c634300081c0033",
  "linkReferences": {},
  "deployedLinkReferences": {}
}