{
  "_format": "hh-sol-artifact-1",
  "contractName": "TestUniswapV3Feature",
  "sourceName": "contracts/test/TestUniswapV3Feature.sol",
  "abi": [
    {
      "inputs": [
        {
          "internalType": "contract IEtherToken",
          "name": "weth",
          "type": "address"
        },
        {
          "internalType": "address",
          "name": "uniFactory",
          "type": "address"
        },
        {
          "internalType": "bytes32",
          "name": "poolInitCodeHash",
          "type": "bytes32"
        }
      ],
      "stateMutability": "nonpayable",
      "type": "constructor"
    },
    {
      "inputs": [],
      "name": "FEATURE_NAME",
      "outputs": [
        {
          "internalType": "string",
          "name": "",
          "type": "string"
        }
      ],
      "stateMutability": "view",
      "type": "function"
    },
    {
      "inputs": [],
      "name": "FEATURE_VERSION",
      "outputs": [
        {
          "internalType": "uint256",
          "name": "",
          "type": "uint256"
        }
      ],
      "stateMutability": "view",
      "type": "function"
    },
    {
      "inputs": [
        {
          "internalType": "bytes",
          "name": "encodedPath",
          "type": "bytes"
        },
        {
          "internalType": "uint256",
          "name": "sellAmount",
          "type": "uint256"
        },
        {
          "internalType": "uint256",
          "name": "minBuyAmount",
          "type": "uint256"
        },
        {
          "internalType": "address",
          "name": "recipient",
          "type": "address"
        }
      ],
      "name": "_sellHeldTokenForTokenToUniswapV3",
      "outputs": [
        {
          "internalType": "uint256",
          "name": "buyAmount",
          "type": "uint256"
        }
      ],
      "stateMutability": "nonpayable",
      "type": "function"
    },
    {
      "inputs": [
        {
          "internalType": "bytes",
          "name": "encodedPath",
          "type": "bytes"
        },
        {
          "internalType": "uint256",
          "name": "sellAmount",
          "type": "uint256"
        },
        {
          "internalType": "uint256",
          "name": "minBuyAmount",
          "type": "uint256"
        },
        {
          "internalType": "address",
          "name": "recipient",
          "type": "address"
        },
        {
          "internalType": "address",
          "name": "payer",
          "type": "address"
        }
      ],
      "name": "_sellTokenForTokenToUniswapV3",
      "outputs": [
        {
          "internalType": "uint256",
          "name": "buyAmount",
          "type": "uint256"
        }
      ],
      "stateMutability": "nonpayable",
      "type": "function"
    },
    {
      "inputs": [],
      "name": "migrate",
      "outputs": [
        {
          "internalType": "bytes4",
          "name": "success",
          "type": "bytes4"
        }
      ],
      "stateMutability": "nonpayable",
      "type": "function"
    },
    {
      "inputs": [
        {
          "internalType": "bytes",
          "name": "encodedPath",
          "type": "bytes"
        },
        {
          "internalType": "uint256",
          "name": "minBuyAmount",
          "type": "uint256"
        },
        {
          "internalType": "address",
          "name": "recipient",
          "type": "address"
        }
      ],
      "name": "sellEthForTokenToUniswapV3",
      "outputs": [
        {
          "internalType": "uint256",
          "name": "buyAmount",
          "type": "uint256"
        }
      ],
      "stateMutability": "payable",
      "type": "function"
    },
    {
      "inputs": [
        {
          "internalType": "bytes",
          "name": "encodedPath",
          "type": "bytes"
        },
        {
          "internalType": "uint256",
          "name": "sellAmount",
          "type": "uint256"
        },
        {
          "internalType": "uint256",
          "name": "minBuyAmount",
          "type": "uint256"
        },
        {
          "internalType": "address payable",
          "name": "recipient",
          "type": "address"
        }
      ],
      "name": "sellTokenForEthToUniswapV3",
      "outputs": [
        {
          "internalType": "uint256",
          "name": "buyAmount",
          "type": "uint256"
        }
      ],
      "stateMutability": "nonpayable",
      "type": "function"
    },
    {
      "inputs": [
        {
          "internalType": "bytes",
          "name": "encodedPath",
          "type": "bytes"
        },
        {
          "internalType": "uint256",
          "name": "sellAmount",
          "type": "uint256"
        },
        {
          "internalType": "uint256",
          "name": "minBuyAmount",
          "type": "uint256"
        },
        {
          "internalType": "address",
          "name": "recipient",
          "type": "address"
        }
      ],
      "name": "sellTokenForTokenToUniswapV3",
      "outputs": [
        {
          "internalType": "uint256",
          "name": "buyAmount",
          "type": "uint256"
        }
      ],
      "stateMutability": "nonpayable",
      "type": "function"
    },
    {
      "inputs": [
        {
          "internalType": "int256",
          "name": "amount0Delta",
          "type": "int256"
        },
        {
          "internalType": "int256",
          "name": "amount1Delta",
          "type": "int256"
        },
        {
          "internalType": "bytes",
          "name": "data",
          "type": "bytes"
        }
      ],
      "name": "uniswapV3SwapCallback",
      "outputs": [],
      "stateMutability": "nonpayable",
      "type": "function"
    },
    {
      "stateMutability": "payable",
      "type": "receive"
    }
  ],
  "bytecode": "0x6101206040526801000000010000000060a05234801561001d575f5ffd5b5060405161119d38038061119d83398101604081905261003c916100a3565b306080526001600160a01b039290921660c05260581b600160581b600160f81b03167fff000000000000000000000000000000000000000000000000000000000000001760e052610100526100e3565b6001600160a01b03811681146100a0575f5ffd5b50565b5f5f5f606084860312156100b5575f5ffd5b83516100c08161008c565b60208501519093506100d18161008c565b80925050604084015190509250925092565b60805160a05160c05160e051610100516110776101265f395f6109e901525f6109c801525f8181610239015261032401525f60a301525f61096501526110775ff3fe608060405260043610610087575f3560e01c80636ae4b4f7116100575780636ae4b4f7146101295780636af479b214610171578063803ba26d146101905780638fd3ab80146101af578063fa461e33146101dc575f5ffd5b8063031b905c14610092578063168a6432146100d85780633598d8ab146100f75780634a931ba11461010a575f5ffd5b3661008e57005b5f5ffd5b34801561009d575f5ffd5b506100c57f000000000000000000000000000000000000000000000000000000000000000081565b6040519081526020015b60405180910390f35b3480156100e3575f5ffd5b506100c56100f2366004610cf0565b6101fd565b6100c5610105366004610d63565b610236565b348015610115575f5ffd5b506100c5610124366004610dba565b6102bf565b348015610134575f5ffd5b506101646040518060400160405280601081526020016f556e697377617056334665617475726560801b81525081565b6040516100cf9190610e47565b34801561017c575f5ffd5b506100c561018b366004610dba565b6102ec565b34801561019b575f5ffd5b506100c56101aa366004610dba565b6102fd565b3480156101ba575f5ffd5b506101c36103f7565b6040516001600160e01b031990911681526020016100cf565b3480156101e7575f5ffd5b506101fb6101f6366004610e59565b610464565b005b5f333014610216576102166102113361061b565b610662565b61022c86868685610227888861066a565b61068b565b9695505050505050565b5f7f00000000000000000000000000000000000000000000000000000000000000006001600160a01b031663d0e30db0346040518263ffffffff1660e01b81526004015f604051808303818588803b158015610290575f5ffd5b505af11580156102a2573d5f5f3e3d5ffd5b50505050506102b78434853061022787610933565b949350505050565b5f3330146102d3576102d36102113361061b565b6102e38585853061022787610933565b95945050505050565b5f6102e38585853361022787610933565b5f61030b858585333061068b565b604051632e1a7d4d60e01b8152600481018290529091507f00000000000000000000000000000000000000000000000000000000000000006001600160a01b031690632e1a7d4d906024015f604051808303815f87803b15801561036d575f5ffd5b505af115801561037f573d5f5f3e3d5ffd5b505050505f5f61038e84610933565b6001600160a01b0316836040515f6040518083038185875af1925050503d805f81146103d5576040519150601f19603f3d011682016040523d82523d5f602084013e6103da565b606091505b5091509150816103ed576103ed81610662565b5050949350505050565b5f610408633598d8ab60e01b61093e565b61041863803ba26d60e01b61093e565b61042863357a3cd960e11b61093e565b610438630b45321960e11b61093e565b610448634a931ba160e01b61093e565b61045863fa461e3360e01b61093e565b50632c64c5ef60e01b90565b5f808080608085146104cf5760405162461bcd60e51b815260206004820152602960248201527f556e6973776170466561747572652f494e56414c49445f535741505f43414c4c6044820152684241434b5f4441544160b81b60648201526084015b60405180910390fd5b505050506044803560248101359181013590608481013590606401356001600160a01b0380841690851610610505578284610508565b83835b90945092506105188482856109c5565b6001600160a01b0316336001600160a01b03161461058e5760405162461bcd60e51b815260206004820152602d60248201527f556e69737761705633466561747572652f494e56414c49445f535741505f434160448201526c26262120a1a5afa1a0a62622a960991b60648201526084016104c6565b505f8713156105a8576105a38382338a610a6a565b610612565b5f8613156105bc576105a382823389610a6a565b60405162461bcd60e51b815260206004820152602560248201527f556e69737761705633466561747572652f494e56414c49445f535741505f414d6044820152644f554e545360d81b60648201526084016104c6565b50505050505050565b604080516001600160a01b039290921660248084019190915281518084039091018152604490920190526020810180516001600160e01b031663f0ec779b60e01b17905290565b805160208201fd5b5f6001600160a01b038316156106805782610682565b815b90505b92915050565b5f84156108e3576001600160ff1b038511156106f75760405162461bcd60e51b815260206004820152602560248201527f556e69737761705633466561747572652f53454c4c5f414d4f554e545f4f564560448201526452464c4f5760d81b60648201526084016104c6565b60408051608080825260a082019092525f916020820181803683370190505090505b5f6107258851602b1090565b90505f5f5f5f5f6107358d610a9c565b9250925092506107468383836109c5565b602088018490526040880182905262ffffff831660608901526001600160a01b038b811660808a015280831690851610955093505050505f5f826001600160a01b031663128acb0886610799578961079b565b305b868e886107c6576107c1600173fffd8963efd1fc6a506488495d951d5263988d26610ee9565b6107d6565b6107d66401000276a36001610f08565b8b6040518663ffffffff1660e01b81526004016107f7959493929190610f27565b60408051808303815f875af1158015610812573d5f5f3e3d5ffd5b505050506040513d601f19601f820116820180604052508101906108369190610f6c565b915091505f8461084e5761084983610f8e565b610857565b61085782610f8e565b90505f8112156108b55760405162461bcd60e51b815260206004820152602360248201527f556e69737761705633466561747572652f494e56414c49445f4255595f414d4f60448201526215539560ea1b60648201526084016104c6565b9650846108c65750505050506108e1565b309850869a506108d58c610ae6565b9b505050505050610719565b505b808411156102e35760405162461bcd60e51b815260206004820152601c60248201527f556e69737761705633466561747572652f554e444552424f554748540000000060448201526064016104c6565b5f610685823361066a565b604051636eb224cb60e01b81526001600160e01b0319821660048201526001600160a01b037f00000000000000000000000000000000000000000000000000000000000000001660248201523090636eb224cb906044015f604051808303815f87803b1580156109ac575f5ffd5b505af11580156109be573d5f5f3e3d5ffd5b5050505050565b5f7f00000000000000000000000000000000000000000000000000000000000000007f000000000000000000000000000000000000000000000000000000000000000082806001600160a01b0380871690891610610a24578588610a27565b87865b604051958652601586019182526035860190815262ffffff90981660558087019190915260608220909152929096525090206001600160a01b0316949350505050565b6001600160a01b0383163014610a8b57610a8684848484610b29565b610a96565b610a96848383610bb5565b50505050565b5f5f5f602b84511015610ac15760405162461bcd60e51b81526004016104c690610fa8565b50505060208101516034820151603790920151606091821c9360e89390931c92911c90565b6060601782511015610b0a5760405162461bcd60e51b81526004016104c690610fa8565b81516017905f90610b1c908390610fea565b9190930190815292915050565b306001600160a01b03851603610b515760405162461bcd60e51b81526004016104c690610ffd565b6040516323b872dd60e01b81526001600160a01b03841660048201526001600160a01b03831660248201528160448201526020816064835f6001600160a01b038a165af13d6001835114602082101516811517821691508161061257805f843e8083fd5b306001600160a01b03841603610bdd5760405162461bcd60e51b81526004016104c690610ffd565b60405163a9059cbb60e01b81526001600160a01b03831660048201528160248201526020816044835f6001600160a01b0389165af13d60018351146020821015168115178216915081610c3257805f843e8083fd5b505050505050565b634e487b7160e01b5f52604160045260245ffd5b5f82601f830112610c5d575f5ffd5b813567ffffffffffffffff811115610c7757610c77610c3a565b604051601f8201601f19908116603f0116810167ffffffffffffffff81118282101715610ca657610ca6610c3a565b604052818152838201602001851015610cbd575f5ffd5b816020850160208301375f918101602001919091529392505050565b6001600160a01b0381168114610ced575f5ffd5b50565b5f5f5f5f5f60a08688031215610d04575f5ffd5b853567ffffffffffffffff811115610d1a575f5ffd5b610d2688828901610c4e565b95505060208601359350604086013592506060860135610d4581610cd9565b91506080860135610d5581610cd9565b809150509295509295909350565b5f5f5f60608486031215610d75575f5ffd5b833567ffffffffffffffff811115610d8b575f5ffd5b610d9786828701610c4e565b935050602084013591506040840135610daf81610cd9565b809150509250925092565b5f5f5f5f60808587031215610dcd575f5ffd5b843567ffffffffffffffff811115610de3575f5ffd5b610def87828801610c4e565b94505060208501359250604085013591506060850135610e0e81610cd9565b939692955090935050565b5f81518084528060208401602086015e5f602082860101526020601f19601f83011685010191505092915050565b602081525f6106826020830184610e19565b5f5f5f5f60608587031215610e6c575f5ffd5b8435935060208501359250604085013567ffffffffffffffff811115610e90575f5ffd5b8501601f81018713610ea0575f5ffd5b803567ffffffffffffffff811115610eb6575f5ffd5b876020828401011115610ec7575f5ffd5b949793965060200194505050565b634e487b7160e01b5f52601160045260245ffd5b6001600160a01b03828116828216039081111561068557610685610ed5565b6001600160a01b03818116838216019081111561068557610685610ed5565b6001600160a01b0386811682528515156020830152604082018590528316606082015260a0608082018190525f90610f6190830184610e19565b979650505050505050565b5f5f60408385031215610f7d575f5ffd5b505080516020909101519092909150565b5f600160ff1b8201610fa257610fa2610ed5565b505f0390565b60208082526022908201527f556e69737761705633466561747572652f4241445f504154485f454e434f44496040820152614e4760f01b606082015260800190565b8181038181111561068557610685610ed5565b60208082526024908201527f466978696e546f6b656e5370656e6465722f43414e4e4f545f494e564f4b455f60408201526329a2a62360e11b60608201526080019056fea2646970667358221220a41b3b3a949bc2de887f441495b47db1294bde435ddfe962c8888ad1d0e464d364736f6c634300081c0033",
  "linkReferences": {},
  "deployedLinkReferences": {}
}