{
  "_format": "hh-sol-artifact-1",
  "contractName": "TestUniswapV2Pool",
  "sourceName": "contracts/test/integration/TestUniswapV2Pool.sol",
  "abi": [
    {
      "inputs": [],
      "stateMutability": "nonpayable",
      "type": "constructor"
    },
    {
      "anonymous": false,
      "inputs": [
        {
          "indexed": true,
          "internalType": "address",
          "name": "sender",
          "type": "address"
        },
        {
          "indexed": false,
          "internalType": "uint256",
          "name": "amount0In",
          "type": "uint256"
        },
        {
          "indexed": false,
          "internalType": "uint256",
          "name": "amount1In",
          "type": "uint256"
        },
        {
          "indexed": false,
          "internalType": "uint256",
          "name": "amount0Out",
          "type": "uint256"
        },
        {
          "indexed": false,
          "internalType": "uint256",
          "name": "amount1Out",
          "type": "uint256"
        },
        {
          "indexed": true,
          "internalType": "address",
          "name": "to",
          "type": "address"
        }
      ],
      "name": "Swap",
      "type": "event"
    },
    {
      "inputs": [],
      "name": "getReserves",
      "outputs": [
        {
          "internalType": "uint112",
          "name": "",
          "type": "uint112"
        },
        {
          "internalType": "uint112",
          "name": "",
          "type": "uint112"
        },
        {
          "internalType": "uint32",
          "name": "",
          "type": "uint32"
        }
      ],
      "stateMutability": "view",
      "type": "function"
    },
    {
      "inputs": [
        {
          "internalType": "uint112",
          "name": "reserve0_",
          "type": "uint112"
        },
        {
          "internalType": "uint112",
          "name": "reserve1_",
          "type": "uint112"
        },
        {
          "internalType": "uint32",
          "name": "blockTimestampLast_",
          "type": "uint32"
        }
      ],
      "name": "setReserves",
      "outputs": [],
      "stateMutability": "nonpayable",
      "type": "function"
    },
    {
      "inputs": [
        {
          "internalType": "uint256",
          "name": "amount0Out",
          "type": "uint256"
        },
        {
          "internalType": "uint256",
          "name": "amount1Out",
          "type": "uint256"
        },
        {
          "internalType": "address",
          "name": "to",
          "type": "address"
        },
        {
          "internalType": "bytes",
          "name": "",
          "type": "bytes"
        }
      ],
      "name": "swap",
      "outputs": [],
      "stateMutability": "nonpayable",
      "type": "function"
    },
    {
      "inputs": [],
      "name": "token0",
      "outputs": [
        {
          "internalType": "contract IERC20Token",
          "name": "",
          "type": "address"
        }
      ],
      "stateMutability": "view",
      "type": "function"
    },
    {
      "inputs": [],
      "name": "token1",
      "outputs": [
        {
          "internalType": "contract IERC20Token",
          "name": "",
          "type": "address"
        }
      ],
      "stateMutability": "view",
      "type": "function"
    }
  ],
  "bytecode": "0x60c060405234801561001057600080fd5b5060003373ffffffffffffffffffffffffffffffffffffffff16637ba6f2316040518163ffffffff1660e01b81526004016040805180830381865afa15801561005d573d6000803e3d6000fd5b505050506040513d601f19601f82011682018060405250810190610081919061025b565b9050806000015181602001518073ffffffffffffffffffffffffffffffffffffffff1660a09073ffffffffffffffffffffffffffffffffffffffff168152508173ffffffffffffffffffffffffffffffffffffffff1660809073ffffffffffffffffffffffffffffffffffffffff16815250505050610288565b6000604051905090565b600080fd5b600080fd5b6000601f19601f8301169050919050565b7f4e487b7100000000000000000000000000000000000000000000000000000000600052604160045260246000fd5b6101588261010f565b810181811067ffffffffffffffff8211171561017757610176610120565b5b80604052505050565b600061018a6100fb565b9050610196828261014f565b919050565b600073ffffffffffffffffffffffffffffffffffffffff82169050919050565b60006101c68261019b565b9050919050565b60006101d8826101bb565b9050919050565b6101e8816101cd565b81146101f357600080fd5b50565b600081519050610205816101df565b92915050565b6000604082840312156102215761022061010a565b5b61022b6040610180565b9050600061023b848285016101f6565b600083015250602061024f848285016101f6565b60208301525092915050565b60006040828403121561027157610270610105565b5b600061027f8482850161020b565b91505092915050565b60805160a05161078d6102ba600039600081816101a4015261035a01526000818160fb01526102a7015261078d6000f3fe608060405234801561001057600080fd5b50600436106100575760003560e01c8063022c0d9f1461005c5780630902f1ac146100785780630dfe16811461009857806318243296146100b6578063d21220a7146100d2575b600080fd5b6100766004803603810190610071919061047f565b6100f0565b005b610080610249565b60405161008f9392919061054f565b60405180910390f35b6100a06102a5565b6040516100ad91906105e5565b60405180910390f35b6100d060048036038101906100cb9190610658565b6102c9565b005b6100da610358565b6040516100e791906105e5565b60405180910390f35b6000851115610199577f000000000000000000000000000000000000000000000000000000000000000073ffffffffffffffffffffffffffffffffffffffff1663a9059cbb84876040518363ffffffff1660e01b81526004016101549291906106c9565b6020604051808303816000875af1158015610173573d6000803e3d6000fd5b505050506040513d601f19601f82011682018060405250810190610197919061072a565b505b6000841115610242577f000000000000000000000000000000000000000000000000000000000000000073ffffffffffffffffffffffffffffffffffffffff1663a9059cbb84866040518363ffffffff1660e01b81526004016101fd9291906106c9565b6020604051808303816000875af115801561021c573d6000803e3d6000fd5b505050506040513d601f19601f82011682018060405250810190610240919061072a565b505b5050505050565b60008060008060009054906101000a90046dffffffffffffffffffffffffffff166000600e9054906101000a90046dffffffffffffffffffffffffffff166000601c9054906101000a900463ffffffff16925092509250909192565b7f000000000000000000000000000000000000000000000000000000000000000081565b826000806101000a8154816dffffffffffffffffffffffffffff02191690836dffffffffffffffffffffffffffff160217905550816000600e6101000a8154816dffffffffffffffffffffffffffff02191690836dffffffffffffffffffffffffffff160217905550806000601c6101000a81548163ffffffff021916908363ffffffff160217905550505050565b7f000000000000000000000000000000000000000000000000000000000000000081565b600080fd5b600080fd5b6000819050919050565b61039981610386565b81146103a457600080fd5b50565b6000813590506103b681610390565b92915050565b600073ffffffffffffffffffffffffffffffffffffffff82169050919050565b60006103e7826103bc565b9050919050565b6103f7816103dc565b811461040257600080fd5b50565b600081359050610414816103ee565b92915050565b600080fd5b600080fd5b600080fd5b60008083601f84011261043f5761043e61041a565b5b8235905067ffffffffffffffff81111561045c5761045b61041f565b5b60208301915083600182028301111561047857610477610424565b5b9250929050565b60008060008060006080868803121561049b5761049a61037c565b5b60006104a9888289016103a7565b95505060206104ba888289016103a7565b94505060406104cb88828901610405565b935050606086013567ffffffffffffffff8111156104ec576104eb610381565b5b6104f888828901610429565b92509250509295509295909350565b60006dffffffffffffffffffffffffffff82169050919050565b61052a81610507565b82525050565b600063ffffffff82169050919050565b61054981610530565b82525050565b60006060820190506105646000830186610521565b6105716020830185610521565b61057e6040830184610540565b949350505050565b6000819050919050565b60006105ab6105a66105a1846103bc565b610586565b6103bc565b9050919050565b60006105bd82610590565b9050919050565b60006105cf826105b2565b9050919050565b6105df816105c4565b82525050565b60006020820190506105fa60008301846105d6565b92915050565b61060981610507565b811461061457600080fd5b50565b60008135905061062681610600565b92915050565b61063581610530565b811461064057600080fd5b50565b6000813590506106528161062c565b92915050565b6000806000606084860312156106715761067061037c565b5b600061067f86828701610617565b935050602061069086828701610617565b92505060406106a186828701610643565b9150509250925092565b6106b4816103dc565b82525050565b6106c381610386565b82525050565b60006040820190506106de60008301856106ab565b6106eb60208301846106ba565b9392505050565b60008115159050919050565b610707816106f2565b811461071257600080fd5b50565b600081519050610724816106fe565b92915050565b6000602082840312156107405761073f61037c565b5b600061074e84828501610715565b9150509291505056fea26469706673582212206e3cacda215b630fc2332ac3c4bc1ab89e4c7a68be7acf94e23fe8789a2ae36564736f6c634300081c0033",
  "linkReferences": {},
  "deployedLinkReferences": {}
}