{
  "_format": "hh-sol-artifact-1",
  "contractName": "TestUniswapV2Pool",
  "sourceName": "contracts/test/integration/TestUniswapV2Pool.sol",
  "abi": [
    {
      "inputs": [],
      "stateMutability": "nonpayable",
      "type": "constructor"
    },
    {
      "anonymous": false,
      "inputs": [
        {
          "indexed": true,
          "internalType": "address",
          "name": "sender",
          "type": "address"
        },
        {
          "indexed": false,
          "internalType": "uint256",
          "name": "amount0In",
          "type": "uint256"
        },
        {
          "indexed": false,
          "internalType": "uint256",
          "name": "amount1In",
          "type": "uint256"
        },
        {
          "indexed": false,
          "internalType": "uint256",
          "name": "amount0Out",
          "type": "uint256"
        },
        {
          "indexed": false,
          "internalType": "uint256",
          "name": "amount1Out",
          "type": "uint256"
        },
        {
          "indexed": true,
          "internalType": "address",
          "name": "to",
          "type": "address"
        }
      ],
      "name": "Swap",
      "type": "event"
    },
    {
      "inputs": [],
      "name": "getReserves",
      "outputs": [
        {
          "internalType": "uint112",
          "name": "",
          "type": "uint112"
        },
        {
          "internalType": "uint112",
          "name": "",
          "type": "uint112"
        },
        {
          "internalType": "uint32",
          "name": "",
          "type": "uint32"
        }
      ],
      "stateMutability": "view",
      "type": "function"
    },
    {
      "inputs": [
        {
          "internalType": "uint112",
          "name": "reserve0_",
          "type": "uint112"
        },
        {
          "internalType": "uint112",
          "name": "reserve1_",
          "type": "uint112"
        },
        {
          "internalType": "uint32",
          "name": "blockTimestampLast_",
          "type": "uint32"
        }
      ],
      "name": "setReserves",
      "outputs": [],
      "stateMutability": "nonpayable",
      "type": "function"
    },
    {
      "inputs": [
        {
          "internalType": "uint256",
          "name": "amount0Out",
          "type": "uint256"
        },
        {
          "internalType": "uint256",
          "name": "amount1Out",
          "type": "uint256"
        },
        {
          "internalType": "address",
          "name": "to",
          "type": "address"
        },
        {
          "internalType": "bytes",
          "name": "",
          "type": "bytes"
        }
      ],
      "name": "swap",
      "outputs": [],
      "stateMutability": "nonpayable",
      "type": "function"
    },
    {
      "inputs": [],
      "name": "token0",
      "outputs": [
        {
          "internalType": "contract IERC20Token",
          "name": "",
          "type": "address"
        }
      ],
      "stateMutability": "view",
      "type": "function"
    },
    {
      "inputs": [],
      "name": "token1",
      "outputs": [
        {
          "internalType": "contract IERC20Token",
          "name": "",
          "type": "address"
        }
      ],
      "stateMutability": "view",
      "type": "function"
    }
  ],
  "bytecode": "0x60c060405234801561000f575f5ffd5b505f336001600160a01b0316637ba6f2316040518163ffffffff1660e01b81526004016040805180830381865afa15801561004c573d5f5f3e3d5ffd5b505050506040513d601f19601f8201168201806040525081019061007091906100ab565b80516020909101516001600160a01b0390811660a0521660805250610111565b80516001600160a01b03811681146100a6575f5ffd5b919050565b5f60408284031280156100bc575f5ffd5b50604080519081016001600160401b03811182821017156100eb57634e487b7160e01b5f52604160045260245ffd5b6040526100f783610090565b815261010560208401610090565b60208201529392505050565b60805160a05161050061013f5f395f81816101e9015261031b01525f818160ec015261025d01526105005ff3fe608060405234801561000f575f5ffd5b5060043610610064575f3560e01c80630dfe16811161004d5780630dfe1681146100e75780631824329614610133578063d21220a7146101e4575f5ffd5b8063022c0d9f146100685780630902f1ac1461007d575b5f5ffd5b61007b61007636600461038e565b61020b565b005b5f54604080516dffffffffffffffffffffffffffff80841682526e01000000000000000000000000000084041660208201527c010000000000000000000000000000000000000000000000000000000090920463ffffffff16908201526060015b60405180910390f35b61010e7f000000000000000000000000000000000000000000000000000000000000000081565b60405173ffffffffffffffffffffffffffffffffffffffff90911681526020016100de565b61007b610141366004610458565b5f805463ffffffff9092167c0100000000000000000000000000000000000000000000000000000000027bffffffffffffffffffffffffffffffffffffffffffffffffffffffff6dffffffffffffffffffffffffffff9485166e010000000000000000000000000000027fffffffff0000000000000000000000000000000000000000000000000000000090941694909516939093179190911792909216179055565b61010e7f000000000000000000000000000000000000000000000000000000000000000081565b84156102c9576040517fa9059cbb00000000000000000000000000000000000000000000000000000000815273ffffffffffffffffffffffffffffffffffffffff8481166004830152602482018790527f0000000000000000000000000000000000000000000000000000000000000000169063a9059cbb906044016020604051808303815f875af11580156102a3573d5f5f3e3d5ffd5b505050506040513d601f19601f820116820180604052508101906102c791906104a4565b505b8315610387576040517fa9059cbb00000000000000000000000000000000000000000000000000000000815273ffffffffffffffffffffffffffffffffffffffff8481166004830152602482018690527f0000000000000000000000000000000000000000000000000000000000000000169063a9059cbb906044016020604051808303815f875af1158015610361573d5f5f3e3d5ffd5b505050506040513d601f19601f8201168201806040525081019061038591906104a4565b505b5050505050565b5f5f5f5f5f608086880312156103a2575f5ffd5b8535945060208601359350604086013573ffffffffffffffffffffffffffffffffffffffff811681146103d3575f5ffd5b9250606086013567ffffffffffffffff8111156103ee575f5ffd5b8601601f810188136103fe575f5ffd5b803567ffffffffffffffff811115610414575f5ffd5b886020828401011115610425575f5ffd5b959894975092955050506020019190565b80356dffffffffffffffffffffffffffff81168114610453575f5ffd5b919050565b5f5f5f6060848603121561046a575f5ffd5b61047384610436565b925061048160208501610436565b9150604084013563ffffffff81168114610499575f5ffd5b809150509250925092565b5f602082840312156104b4575f5ffd5b815180151581146104c3575f5ffd5b939250505056fea26469706673582212205ed4c54cc769364239ab2e9ded5628d9a7ffeb955f4c89eddc8c5ef6514d903864736f6c634300081c0033",
  "linkReferences": {},
  "deployedLinkReferences": {}
}