{"contracts/test/TestTransformerHost.sol":{"TestTransformerHost":{"abi":[{"inputs":[{"internalType":"contract IERC20Transformer","name":"transformer","type":"address"},{"components":[{"internalType":"address payable","name":"sender","type":"address"},{"internalType":"address payable","name":"recipient","type":"address"},{"internalType":"bytes","name":"data","type":"bytes"}],"internalType":"struct IERC20Transformer.TransformContext","name":"context","type":"tuple"}],"name":"rawExecuteTransform","outputs":[],"stateMutability":"nonpayable","type":"function"},{"stateMutability":"payable","type":"receive"}],"evm":{"bytecode":{"linkReferences":{},"object":"6080604052348015600e575f5ffd5b506103458061001c5f395ff3fe608060405260043610610020575f3560e01c8063844e7c5b1461002b575f5ffd5b3661002757005b5f5ffd5b348015610036575f5ffd5b5061004a6100453660046101b4565b61004c565b005b5f5f836001600160a01b031663832b24bb60e01b84604051602401610071919061022f565b60408051601f198184030181529181526020820180516001600160e01b03166001600160e01b03199094169390931790925290516100af91906102cb565b5f60405180830381855af49150503d805f81146100e7576040519150601f19603f3d011682016040523d82523d5f602084013e6100ec565b606091505b5091509150816100ff576100ff81610195565b80516309e4c94f60e11b9061011d90830160209081019084016102e1565b6001600160e01b0319161461018f5760405162461bcd60e51b815260206004820152602e60248201527f546573745472616e73666f726d6572486f73742f494e56414c49445f5452414e60448201526d14d193d493515497d49154d5531560921b606482015260840160405180910390fd5b50505050565b805160208201fd5b6001600160a01b03811681146101b1575f5ffd5b50565b5f5f604083850312156101c5575f5ffd5b82356101d08161019d565b9150602083013567ffffffffffffffff8111156101eb575f5ffd5b8301606081860312156101fc575f5ffd5b809150509250929050565b81835281816020850137505f828201602090810191909152601f909101601f19169091010190565b602081525f823561023f8161019d565b6001600160a01b031660208381019190915283013561025d8161019d565b6001600160a01b031660408381019190915283013536849003601e19018112610284575f5ffd5b830160208101903567ffffffffffffffff8111156102a0575f5ffd5b8036038213156102ae575f5ffd5b6060808501526102c2608085018284610207565b95945050505050565b5f82518060208501845e5f920191825250919050565b5f602082840312156102f1575f5ffd5b81516001600160e01b031981168114610308575f5ffd5b939250505056fea264697066735822122053644a9cc48cc591e778e646dc5742058c7688c947ffc2a9c332da6c053ea60d64736f6c634300081c0033","opcodes":"PUSH1 0x80 PUSH1 0x40 MSTORE CALLVALUE DUP1 ISZERO PUSH1 0xE JUMPI PUSH0 PUSH0 REVERT JUMPDEST POP PUSH2 0x345 DUP1 PUSH2 0x1C PUSH0 CODECOPY PUSH0 RETURN INVALID PUSH1 0x80 PUSH1 0x40 MSTORE PUSH1 0x4 CALLDATASIZE LT PUSH2 0x20 JUMPI PUSH0 CALLDATALOAD PUSH1 0xE0 SHR DUP1 PUSH4 0x844E7C5B EQ PUSH2 0x2B JUMPI PUSH0 PUSH0 REVERT JUMPDEST CALLDATASIZE PUSH2 0x27 JUMPI STOP JUMPDEST PUSH0 PUSH0 REVERT JUMPDEST CALLVALUE DUP1 ISZERO PUSH2 0x36 JUMPI PUSH0 PUSH0 REVERT JUMPDEST POP PUSH2 0x4A PUSH2 0x45 CALLDATASIZE PUSH1 0x4 PUSH2 0x1B4 JUMP JUMPDEST PUSH2 0x4C JUMP JUMPDEST STOP JUMPDEST PUSH0 PUSH0 DUP4 PUSH1 0x1 PUSH1 0x1 PUSH1 0xA0 SHL SUB AND PUSH4 0x832B24BB PUSH1 0xE0 SHL DUP5 PUSH1 0x40 MLOAD PUSH1 0x24 ADD PUSH2 0x71 SWAP2 SWAP1 PUSH2 0x22F JUMP JUMPDEST PUSH1 0x40 DUP1 MLOAD PUSH1 0x1F NOT DUP2 DUP5 SUB ADD DUP2 MSTORE SWAP2 DUP2 MSTORE PUSH1 0x20 DUP3 ADD DUP1 MLOAD PUSH1 0x1 PUSH1 0x1 PUSH1 0xE0 SHL SUB AND PUSH1 0x1 PUSH1 0x1 PUSH1 0xE0 SHL SUB NOT SWAP1 SWAP5 AND SWAP4 SWAP1 SWAP4 OR SWAP1 SWAP3 MSTORE SWAP1 MLOAD PUSH2 0xAF SWAP2 SWAP1 PUSH2 0x2CB JUMP JUMPDEST PUSH0 PUSH1 0x40 MLOAD DUP1 DUP4 SUB DUP2 DUP6 GAS DELEGATECALL SWAP2 POP POP RETURNDATASIZE DUP1 PUSH0 DUP2 EQ PUSH2 0xE7 JUMPI PUSH1 0x40 MLOAD SWAP2 POP PUSH1 0x1F NOT PUSH1 0x3F RETURNDATASIZE ADD AND DUP3 ADD PUSH1 0x40 MSTORE RETURNDATASIZE DUP3 MSTORE RETURNDATASIZE PUSH0 PUSH1 0x20 DUP5 ADD RETURNDATACOPY PUSH2 0xEC JUMP JUMPDEST PUSH1 0x60 SWAP2 POP JUMPDEST POP SWAP2 POP SWAP2 POP DUP2 PUSH2 0xFF JUMPI PUSH2 0xFF DUP2 PUSH2 0x195 JUMP JUMPDEST DUP1 MLOAD PUSH4 0x9E4C94F PUSH1 0xE1 SHL SWAP1 PUSH2 0x11D SWAP1 DUP4 ADD PUSH1 0x20 SWAP1 DUP2 ADD SWAP1 DUP5 ADD PUSH2 0x2E1 JUMP JUMPDEST PUSH1 0x1 PUSH1 0x1 PUSH1 0xE0 SHL SUB NOT AND EQ PUSH2 0x18F JUMPI PUSH1 0x40 MLOAD PUSH3 0x461BCD PUSH1 0xE5 SHL DUP2 MSTORE PUSH1 0x20 PUSH1 0x4 DUP3 ADD MSTORE PUSH1 0x2E PUSH1 0x24 DUP3 ADD MSTORE PUSH32 0x546573745472616E73666F726D6572486F73742F494E56414C49445F5452414E PUSH1 0x44 DUP3 ADD MSTORE PUSH14 0x14D193D493515497D49154D55315 PUSH1 0x92 SHL PUSH1 0x64 DUP3 ADD MSTORE PUSH1 0x84 ADD PUSH1 0x40 MLOAD DUP1 SWAP2 SUB SWAP1 REVERT JUMPDEST POP POP POP POP JUMP JUMPDEST DUP1 MLOAD PUSH1 0x20 DUP3 ADD REVERT JUMPDEST PUSH1 0x1 PUSH1 0x1 PUSH1 0xA0 SHL SUB DUP2 AND DUP2 EQ PUSH2 0x1B1 JUMPI PUSH0 PUSH0 REVERT JUMPDEST POP JUMP JUMPDEST PUSH0 PUSH0 PUSH1 0x40 DUP4 DUP6 SUB SLT ISZERO PUSH2 0x1C5 JUMPI PUSH0 PUSH0 REVERT JUMPDEST DUP3 CALLDATALOAD PUSH2 0x1D0 DUP2 PUSH2 0x19D JUMP JUMPDEST SWAP2 POP PUSH1 0x20 DUP4 ADD CALLDATALOAD PUSH8 0xFFFFFFFFFFFFFFFF DUP2 GT ISZERO PUSH2 0x1EB JUMPI PUSH0 PUSH0 REVERT JUMPDEST DUP4 ADD PUSH1 0x60 DUP2 DUP7 SUB SLT ISZERO PUSH2 0x1FC JUMPI PUSH0 PUSH0 REVERT JUMPDEST DUP1 SWAP2 POP POP SWAP3 POP SWAP3 SWAP1 POP JUMP JUMPDEST DUP2 DUP4 MSTORE DUP2 DUP2 PUSH1 0x20 DUP6 ADD CALLDATACOPY POP PUSH0 DUP3 DUP3 ADD PUSH1 0x20 SWAP1 DUP2 ADD SWAP2 SWAP1 SWAP2 MSTORE PUSH1 0x1F SWAP1 SWAP2 ADD PUSH1 0x1F NOT AND SWAP1 SWAP2 ADD ADD SWAP1 JUMP JUMPDEST PUSH1 0x20 DUP2 MSTORE PUSH0 DUP3 CALLDATALOAD PUSH2 0x23F DUP2 PUSH2 0x19D JUMP JUMPDEST PUSH1 0x1 PUSH1 0x1 PUSH1 0xA0 SHL SUB AND PUSH1 0x20 DUP4 DUP2 ADD SWAP2 SWAP1 SWAP2 MSTORE DUP4 ADD CALLDATALOAD PUSH2 0x25D DUP2 PUSH2 0x19D JUMP JUMPDEST PUSH1 0x1 PUSH1 0x1 PUSH1 0xA0 SHL SUB AND PUSH1 0x40 DUP4 DUP2 ADD SWAP2 SWAP1 SWAP2 MSTORE DUP4 ADD CALLDATALOAD CALLDATASIZE DUP5 SWAP1 SUB PUSH1 0x1E NOT ADD DUP2 SLT PUSH2 0x284 JUMPI PUSH0 PUSH0 REVERT JUMPDEST DUP4 ADD PUSH1 0x20 DUP2 ADD SWAP1 CALLDATALOAD PUSH8 0xFFFFFFFFFFFFFFFF DUP2 GT ISZERO PUSH2 0x2A0 JUMPI PUSH0 PUSH0 REVERT JUMPDEST DUP1 CALLDATASIZE SUB DUP3 SGT ISZERO PUSH2 0x2AE JUMPI PUSH0 PUSH0 REVERT JUMPDEST PUSH1 0x60 DUP1 DUP6 ADD MSTORE PUSH2 0x2C2 PUSH1 0x80 DUP6 ADD DUP3 DUP5 PUSH2 0x207 JUMP JUMPDEST SWAP6 SWAP5 POP POP POP POP POP JUMP JUMPDEST PUSH0 DUP3 MLOAD DUP1 PUSH1 0x20 DUP6 ADD DUP5 MCOPY PUSH0 SWAP3 ADD SWAP2 DUP3 MSTORE POP SWAP2 SWAP1 POP JUMP JUMPDEST PUSH0 PUSH1 0x20 DUP3 DUP5 SUB SLT ISZERO PUSH2 0x2F1 JUMPI PUSH0 PUSH0 REVERT JUMPDEST DUP2 MLOAD PUSH1 0x1 PUSH1 0x1 PUSH1 0xE0 SHL SUB NOT DUP2 AND DUP2 EQ PUSH2 0x308 JUMPI PUSH0 PUSH0 REVERT JUMPDEST SWAP4 SWAP3 POP POP POP JUMP INVALID LOG2 PUSH5 0x6970667358 0x22 SLT KECCAK256 MSTORE8 PUSH5 0x4A9CC48CC5 SWAP2 0xE7 PUSH25 0xE646DC5742058C7688C947FFC2A9C332DA6C053EA60D64736F PUSH13 0x634300081C0033000000000000 "},"methodIdentifiers":{"rawExecuteTransform(address,(address,address,bytes))":"844e7c5b"}}}}}