{
  "_format": "hh-sol-artifact-1",
  "contractName": "LibEIP1271",
  "sourceName": "contracts/src/LibEIP1271.sol",
  "abi": [
    {
      "inputs": [],
      "name": "EIP1271_MAGIC_VALUE",
      "outputs": [
        {
          "internalType": "bytes4",
          "name": "",
          "type": "bytes4"
        }
      ],
      "stateMutability": "view",
      "type": "function"
    }
  ],
  "bytecode": "0x6080604052348015600f57600080fd5b5060da80601d6000396000f3fe6080604052348015600f57600080fd5b506004361060285760003560e01c8063dd885e2d14602d575b600080fd5b60336047565b604051603e9190608b565b60405180910390f35b6320c13b0b60e01b81565b60007fffffffff0000000000000000000000000000000000000000000000000000000082169050919050565b6085816052565b82525050565b6000602082019050609e6000830184607e565b9291505056fea2646970667358221220137b6d78cfc18915ef3f2cb92ab507c1bd2dedcb414091f905140541963029b764736f6c634300081c0033",
  "linkReferences": {},
  "deployedLinkReferences": {}
}