{
  "_format": "hh-sol-artifact-1",
  "contractName": "SimpleFunctionRegistryFeature",
  "sourceName": "contracts/src/features/SimpleFunctionRegistryFeature.sol",
  "abi": [
    {
      "anonymous": false,
      "inputs": [
        {
          "indexed": true,
          "internalType": "bytes4",
          "name": "selector",
          "type": "bytes4"
        },
        {
          "indexed": false,
          "internalType": "address",
          "name": "oldImpl",
          "type": "address"
        },
        {
          "indexed": false,
          "internalType": "address",
          "name": "newImpl",
          "type": "address"
        }
      ],
      "name": "ProxyFunctionUpdated",
      "type": "event"
    },
    {
      "inputs": [],
      "name": "FEATURE_NAME",
      "outputs": [
        {
          "internalType": "string",
          "name": "",
          "type": "string"
        }
      ],
      "stateMutability": "view",
      "type": "function"
    },
    {
      "inputs": [],
      "name": "FEATURE_VERSION",
      "outputs": [
        {
          "internalType": "uint256",
          "name": "",
          "type": "uint256"
        }
      ],
      "stateMutability": "view",
      "type": "function"
    },
    {
      "inputs": [
        {
          "internalType": "bytes4",
          "name": "selector",
          "type": "bytes4"
        },
        {
          "internalType": "address",
          "name": "impl",
          "type": "address"
        }
      ],
      "name": "_extendSelf",
      "outputs": [],
      "stateMutability": "nonpayable",
      "type": "function"
    },
    {
      "inputs": [],
      "name": "bootstrap",
      "outputs": [
        {
          "internalType": "bytes4",
          "name": "success",
          "type": "bytes4"
        }
      ],
      "stateMutability": "nonpayable",
      "type": "function"
    },
    {
      "inputs": [
        {
          "internalType": "bytes4",
          "name": "selector",
          "type": "bytes4"
        },
        {
          "internalType": "address",
          "name": "impl",
          "type": "address"
        }
      ],
      "name": "extend",
      "outputs": [],
      "stateMutability": "nonpayable",
      "type": "function"
    },
    {
      "inputs": [
        {
          "internalType": "bytes4",
          "name": "selector",
          "type": "bytes4"
        },
        {
          "internalType": "uint256",
          "name": "idx",
          "type": "uint256"
        }
      ],
      "name": "getRollbackEntryAtIndex",
      "outputs": [
        {
          "internalType": "address",
          "name": "impl",
          "type": "address"
        }
      ],
      "stateMutability": "view",
      "type": "function"
    },
    {
      "inputs": [
        {
          "internalType": "bytes4",
          "name": "selector",
          "type": "bytes4"
        }
      ],
      "name": "getRollbackLength",
      "outputs": [
        {
          "internalType": "uint256",
          "name": "rollbackLength",
          "type": "uint256"
        }
      ],
      "stateMutability": "view",
      "type": "function"
    },
    {
      "inputs": [
        {
          "internalType": "bytes4",
          "name": "selector",
          "type": "bytes4"
        },
        {
          "internalType": "address",
          "name": "targetImpl",
          "type": "address"
        }
      ],
      "name": "rollback",
      "outputs": [],
      "stateMutability": "nonpayable",
      "type": "function"
    }
  ],
  "bytecode": "0x60c06040526801000000000000000060a05234801561001c575f5ffd5b503060805260805160a051610d5061005d5f395f608e01525f81816106bf01528181610709015281816107530152818161079d01526107e70152610d505ff3fe608060405234801561000f575f5ffd5b5060043610610085575f3560e01c80636eb224cb116100585780636eb224cb146101595780639db64a401461016c578063dfd007491461017f578063fb969b0a14610192575f5ffd5b8063031b905c146100895780630ee8be1b146100c35780636ae4b4f7146100d85780636ba6bbc214610121575b5f5ffd5b6100b07f000000000000000000000000000000000000000000000000000000000000000081565b6040519081526020015b60405180910390f35b6100d66100d1366004610b21565b6101cb565b005b6101146040518060400160405280601681526020017f53696d706c6546756e6374696f6e52656769737472790000000000000000000081525081565b6040516100ba9190610b56565b61013461012f366004610ba9565b610256565b60405173ffffffffffffffffffffffffffffffffffffffff90911681526020016100ba565b6100d6610167366004610b21565b6102cc565b6100d661017a366004610b21565b610371565b6100b061018d366004610bd1565b610658565b61019a610698565b6040517fffffffff0000000000000000000000000000000000000000000000000000000090911681526020016100ba565b3330146102485760408051336024808301919091528251808303909101815260449091019091526020810180517bffffffffffffffffffffffffffffffffffffffffffffffffffffffff167ff0ec779b0000000000000000000000000000000000000000000000000000000017905261024890610830565b610830565b6102528282610838565b5050565b5f61025f610927565b7fffffffff0000000000000000000000000000000000000000000000000000000084165f908152602091909152604090208054839081106102a2576102a2610bf1565b5f9182526020909120015473ffffffffffffffffffffffffffffffffffffffff1690505b92915050565b5f3073ffffffffffffffffffffffffffffffffffffffff16638da5cb5b6040518163ffffffff1660e01b8152600401602060405180830381865afa158015610316573d5f5f3e3d5ffd5b505050506040513d601f19601f8201168201806040525081019061033a9190610c1e565b90503373ffffffffffffffffffffffffffffffffffffffff821614610366576103666102433383610933565b506102528282610838565b5f3073ffffffffffffffffffffffffffffffffffffffff16638da5cb5b6040518163ffffffff1660e01b8152600401602060405180830381865afa1580156103bb573d5f5f3e3d5ffd5b505050506040513d601f19601f820116820180604052508101906103df9190610c1e565b90503373ffffffffffffffffffffffffffffffffffffffff82161461040b5761040b6102433383610933565b505f5f610416610a08565b7fffffffff0000000000000000000000000000000000000000000000000000000086165f90815260208290526040902054919350915073ffffffffffffffffffffffffffffffffffffffff9081169084168103610474575050505050565b7fffffffff0000000000000000000000000000000000000000000000000000000085165f90815260208490526040902080545b801561058e575f826104ba600184610c66565b815481106104ca576104ca610bf1565b5f91825260209091200154835473ffffffffffffffffffffffffffffffffffffffff909116915083908061050057610500610c79565b5f8281526020902081017fffffffffffffffffffffffffffffffffffffffffffffffffffffffffffffffff90810180547fffffffffffffffffffffffff000000000000000000000000000000000000000016905501905573ffffffffffffffffffffffffffffffffffffffff8781169082160361057d575061058e565b5061058781610ca6565b90506104a7565b805f036105a2576105a26102438888610a22565b7fffffffff0000000000000000000000000000000000000000000000000000000087165f818152602086815260409182902080547fffffffffffffffffffffffff00000000000000000000000000000000000000001673ffffffffffffffffffffffffffffffffffffffff8b811691821790925583519188168252918101919091527f2ae221083467de52078b0096696ab88d8d53a7ecb44bb65b56a2bab687598367910160405180910390a250505050505050565b5f610661610927565b7fffffffff000000000000000000000000000000000000000000000000000000009092165f90815260209290925250604090205490565b5f6106e37f6eb224cb000000000000000000000000000000000000000000000000000000007f0000000000000000000000000000000000000000000000000000000000000000610838565b61072d7f0ee8be1b000000000000000000000000000000000000000000000000000000007f0000000000000000000000000000000000000000000000000000000000000000610838565b6107777f9db64a40000000000000000000000000000000000000000000000000000000007f0000000000000000000000000000000000000000000000000000000000000000610838565b6107c17fdfd00749000000000000000000000000000000000000000000000000000000007f0000000000000000000000000000000000000000000000000000000000000000610838565b61080b7f6ba6bbc2000000000000000000000000000000000000000000000000000000007f0000000000000000000000000000000000000000000000000000000000000000610838565b507fd150751b0000000000000000000000000000000000000000000000000000000090565b805160208201fd5b5f5f610842610a08565b7fffffffff0000000000000000000000000000000000000000000000000000000086165f818152602083815260408083208054878452828520805460018101825581875285872001805473ffffffffffffffffffffffffffffffffffffffff9384167fffffffffffffffffffffffff00000000000000000000000000000000000000009182168117909255968890528886528354909616918c169182179092558251858152938401529597509395509093927f2ae221083467de52078b0096696ab88d8d53a7ecb44bb65b56a2bab687598367910160405180910390a2505050505050565b5f5f6102c66001610a96565b60405173ffffffffffffffffffffffffffffffffffffffff8084166024830152821660448201526060907f1de45ad100000000000000000000000000000000000000000000000000000000906064015b604080517fffffffffffffffffffffffffffffffffffffffffffffffffffffffffffffffe08184030181529190526020810180517bffffffffffffffffffffffffffffffffffffffffffffffffffffffff167fffffffff0000000000000000000000000000000000000000000000000000000090931692909217909152905092915050565b5f5f610a12610927565b610a1a610abe565b915091509091565b6040517fffffffff000000000000000000000000000000000000000000000000000000008316602482015273ffffffffffffffffffffffffffffffffffffffff821660448201526060907fa0425c2dc08feeb46e95a8e23b3c6d740f439b9610c5a973cad3b7eca6ccfe6390606401610983565b5f608082600b811115610aab57610aab610cda565b610ab6906001610d07565b901b92915050565b5f5f6102c65f610a96565b80357fffffffff0000000000000000000000000000000000000000000000000000000081168114610af8575f5ffd5b919050565b73ffffffffffffffffffffffffffffffffffffffff81168114610b1e575f5ffd5b50565b5f5f60408385031215610b32575f5ffd5b610b3b83610ac9565b91506020830135610b4b81610afd565b809150509250929050565b602081525f82518060208401528060208501604085015e5f6040828501015260407fffffffffffffffffffffffffffffffffffffffffffffffffffffffffffffffe0601f83011684010191505092915050565b5f5f60408385031215610bba575f5ffd5b610bc383610ac9565b946020939093013593505050565b5f60208284031215610be1575f5ffd5b610bea82610ac9565b9392505050565b7f4e487b71000000000000000000000000000000000000000000000000000000005f52603260045260245ffd5b5f60208284031215610c2e575f5ffd5b8151610bea81610afd565b7f4e487b71000000000000000000000000000000000000000000000000000000005f52601160045260245ffd5b818103818111156102c6576102c6610c39565b7f4e487b71000000000000000000000000000000000000000000000000000000005f52603160045260245ffd5b5f81610cb457610cb4610c39565b507fffffffffffffffffffffffffffffffffffffffffffffffffffffffffffffffff0190565b7f4e487b71000000000000000000000000000000000000000000000000000000005f52602160045260245ffd5b808201808211156102c6576102c6610c3956fea2646970667358221220038e2b8c67e87e90f3a489cf535a010d9c2dd75eb37522d0335a923b57921fae64736f6c634300081c0033",
  "linkReferences": {},
  "deployedLinkReferences": {}
}