{
  "_format": "hh-sol-artifact-1",
  "contractName": "TestOrderSignerRegistryWithContractWallet",
  "sourceName": "contracts/test/TestOrderSignerRegistryWithContractWallet.sol",
  "abi": [
    {
      "inputs": [
        {
          "internalType": "contract IZeroEx",
          "name": "_zeroex",
          "type": "address"
        }
      ],
      "stateMutability": "nonpayable",
      "type": "constructor"
    },
    {
      "anonymous": false,
      "inputs": [
        {
          "indexed": true,
          "internalType": "address",
          "name": "previousOwner",
          "type": "address"
        },
        {
          "indexed": true,
          "internalType": "address",
          "name": "newOwner",
          "type": "address"
        }
      ],
      "name": "OwnershipTransferred",
      "type": "event"
    },
    {
      "inputs": [
        {
          "internalType": "contract IERC20Token",
          "name": "token",
          "type": "address"
        },
        {
          "internalType": "address",
          "name": "spender",
          "type": "address"
        },
        {
          "internalType": "uint256",
          "name": "value",
          "type": "uint256"
        }
      ],
      "name": "approveERC20",
      "outputs": [],
      "stateMutability": "nonpayable",
      "type": "function"
    },
    {
      "inputs": [],
      "name": "owner",
      "outputs": [
        {
          "internalType": "address",
          "name": "",
          "type": "address"
        }
      ],
      "stateMutability": "view",
      "type": "function"
    },
    {
      "inputs": [
        {
          "internalType": "address",
          "name": "signer",
          "type": "address"
        },
        {
          "internalType": "bool",
          "name": "allowed",
          "type": "bool"
        }
      ],
      "name": "registerAllowedOrderSigner",
      "outputs": [],
      "stateMutability": "nonpayable",
      "type": "function"
    },
    {
      "inputs": [
        {
          "internalType": "address",
          "name": "newOwner",
          "type": "address"
        }
      ],
      "name": "transferOwnership",
      "outputs": [],
      "stateMutability": "nonpayable",
      "type": "function"
    }
  ],
  "bytecode": "0x60a0604052348015600e575f5ffd5b50604051610452380380610452833981016040819052602b91604c565b5f80546001600160a01b031916331790556001600160a01b03166080526077565b5f60208284031215605b575f5ffd5b81516001600160a01b03811681146070575f5ffd5b9392505050565b6080516103c361008f5f395f61016401526103c35ff3fe608060405234801561000f575f5ffd5b506004361061004a575f3560e01c80638da5cb5b1461004e578063a8e5e4aa1461007c578063ea7faa6114610091578063f2fde38b146100a4575b5f5ffd5b5f54610060906001600160a01b031681565b6040516001600160a01b03909116815260200160405180910390f35b61008f61008a3660046102ce565b6100b7565b005b61008f61009f366004610319565b610135565b61008f6100b2366004610350565b6101bf565b6100bf61024b565b60405163095ea7b360e01b81526001600160a01b0383811660048301526024820183905284169063095ea7b3906044016020604051808303815f875af115801561010b573d5f5f3e3d5ffd5b505050506040513d601f19601f8201168201806040525081019061012f9190610372565b50505050565b61013d61024b565b60405163ea7faa6160e01b81526001600160a01b03838116600483015282151560248301527f0000000000000000000000000000000000000000000000000000000000000000169063ea7faa61906044015f604051808303815f87803b1580156101a5575f5ffd5b505af11580156101b7573d5f5f3e3d5ffd5b505050505050565b6101c761024b565b6001600160a01b038116610201576101fe6101f9604080518082019091526004815263734f6e1f60e11b602082015290565b6102b2565b50565b5f80546001600160a01b0319166001600160a01b0383169081178255604051909133917f8be0079c531659141344cd1fd0a4f28419497f9722a3daafe3b4186f6b6457e09190a350565b5f546001600160a01b031633146102b0575f54604080513360248201526001600160a01b0390921660448084019190915281518084039091018152606490920190526020810180516001600160e01b0316631de45ad160e01b1790526102b0906102b2565b565b805160208201fd5b6001600160a01b03811681146101fe575f5ffd5b5f5f5f606084860312156102e0575f5ffd5b83356102eb816102ba565b925060208401356102fb816102ba565b929592945050506040919091013590565b80151581146101fe575f5ffd5b5f5f6040838503121561032a575f5ffd5b8235610335816102ba565b915060208301356103458161030c565b809150509250929050565b5f60208284031215610360575f5ffd5b813561036b816102ba565b9392505050565b5f60208284031215610382575f5ffd5b815161036b8161030c56fea26469706673582212204f87f703622e55e283fa0c7c870576e25f88db69327ad6ddac88a0d80548bed464736f6c634300081c0033",
  "linkReferences": {},
  "deployedLinkReferences": {}
}