{
  "_format": "hh-sol-artifact-1",
  "contractName": "TestOrderSignerRegistryWithContractWallet",
  "sourceName": "contracts/test/TestOrderSignerRegistryWithContractWallet.sol",
  "abi": [
    {
      "inputs": [
        {
          "internalType": "contract IZeroEx",
          "name": "_zeroex",
          "type": "address"
        }
      ],
      "stateMutability": "nonpayable",
      "type": "constructor"
    },
    {
      "anonymous": false,
      "inputs": [
        {
          "indexed": true,
          "internalType": "address",
          "name": "previousOwner",
          "type": "address"
        },
        {
          "indexed": true,
          "internalType": "address",
          "name": "newOwner",
          "type": "address"
        }
      ],
      "name": "OwnershipTransferred",
      "type": "event"
    },
    {
      "inputs": [
        {
          "internalType": "contract IERC20Token",
          "name": "token",
          "type": "address"
        },
        {
          "internalType": "address",
          "name": "spender",
          "type": "address"
        },
        {
          "internalType": "uint256",
          "name": "value",
          "type": "uint256"
        }
      ],
      "name": "approveERC20",
      "outputs": [],
      "stateMutability": "nonpayable",
      "type": "function"
    },
    {
      "inputs": [],
      "name": "owner",
      "outputs": [
        {
          "internalType": "address",
          "name": "",
          "type": "address"
        }
      ],
      "stateMutability": "view",
      "type": "function"
    },
    {
      "inputs": [
        {
          "internalType": "address",
          "name": "signer",
          "type": "address"
        },
        {
          "internalType": "bool",
          "name": "allowed",
          "type": "bool"
        }
      ],
      "name": "registerAllowedOrderSigner",
      "outputs": [],
      "stateMutability": "nonpayable",
      "type": "function"
    },
    {
      "inputs": [
        {
          "internalType": "address",
          "name": "newOwner",
          "type": "address"
        }
      ],
      "name": "transferOwnership",
      "outputs": [],
      "stateMutability": "nonpayable",
      "type": "function"
    }
  ],
  "bytecode": "0x60a060405234801561001057600080fd5b506040516108bd3803806108bd83398181016040528101906100329190610121565b336000806101000a81548173ffffffffffffffffffffffffffffffffffffffff021916908373ffffffffffffffffffffffffffffffffffffffff1602179055508073ffffffffffffffffffffffffffffffffffffffff1660808173ffffffffffffffffffffffffffffffffffffffff16815250505061014e565b600080fd5b600073ffffffffffffffffffffffffffffffffffffffff82169050919050565b60006100dc826100b1565b9050919050565b60006100ee826100d1565b9050919050565b6100fe816100e3565b811461010957600080fd5b50565b60008151905061011b816100f5565b92915050565b600060208284031215610137576101366100ac565b5b60006101458482850161010c565b91505092915050565b608051610754610169600039600061017d01526107546000f3fe608060405234801561001057600080fd5b506004361061004c5760003560e01c80638da5cb5b14610051578063a8e5e4aa1461006f578063ea7faa611461008b578063f2fde38b146100a7575b600080fd5b6100596100c3565b604051610066919061048b565b60405180910390f35b6100896004803603810190610084919061054b565b6100e7565b005b6100a560048036038101906100a091906105d6565b610173565b005b6100c160048036038101906100bc9190610616565b61020c565b005b60008054906101000a900473ffffffffffffffffffffffffffffffffffffffff1681565b6100ef6102fb565b8273ffffffffffffffffffffffffffffffffffffffff1663095ea7b383836040518363ffffffff1660e01b815260040161012a929190610652565b6020604051808303816000875af1158015610149573d6000803e3d6000fd5b505050506040513d601f19601f8201168201806040525081019061016d9190610690565b50505050565b61017b6102fb565b7f000000000000000000000000000000000000000000000000000000000000000073ffffffffffffffffffffffffffffffffffffffff1663ea7faa6183836040518363ffffffff1660e01b81526004016101d69291906106cc565b600060405180830381600087803b1580156101f057600080fd5b505af1158015610204573d6000803e3d6000fd5b505050505050565b6102146102fb565b600073ffffffffffffffffffffffffffffffffffffffff168173ffffffffffffffffffffffffffffffffffffffff160361025d57610258610253610383565b6103c0565b6102f8565b806000806101000a81548173ffffffffffffffffffffffffffffffffffffffff021916908373ffffffffffffffffffffffffffffffffffffffff1602179055508073ffffffffffffffffffffffffffffffffffffffff163373ffffffffffffffffffffffffffffffffffffffff167f8be0079c531659141344cd1fd0a4f28419497f9722a3daafe3b4186f6b6457e060405160405180910390a35b50565b60008054906101000a900473ffffffffffffffffffffffffffffffffffffffff1673ffffffffffffffffffffffffffffffffffffffff163373ffffffffffffffffffffffffffffffffffffffff16146103815761038061037b3360008054906101000a900473ffffffffffffffffffffffffffffffffffffffff166103c8565b6103c0565b5b565b60606040518060400160405280600481526020017fe69edc3e00000000000000000000000000000000000000000000000000000000815250905090565b805160208201fd5b6060631de45ad160e01b83836040516024016103e59291906106f5565b604051602081830303815290604052907bffffffffffffffffffffffffffffffffffffffffffffffffffffffff19166020820180517bffffffffffffffffffffffffffffffffffffffffffffffffffffffff8381831617835250505050905092915050565b600073ffffffffffffffffffffffffffffffffffffffff82169050919050565b60006104758261044a565b9050919050565b6104858161046a565b82525050565b60006020820190506104a0600083018461047c565b92915050565b600080fd5b60006104b68261046a565b9050919050565b6104c6816104ab565b81146104d157600080fd5b50565b6000813590506104e3816104bd565b92915050565b6104f28161046a565b81146104fd57600080fd5b50565b60008135905061050f816104e9565b92915050565b6000819050919050565b61052881610515565b811461053357600080fd5b50565b6000813590506105458161051f565b92915050565b600080600060608486031215610564576105636104a6565b5b6000610572868287016104d4565b935050602061058386828701610500565b925050604061059486828701610536565b9150509250925092565b60008115159050919050565b6105b38161059e565b81146105be57600080fd5b50565b6000813590506105d0816105aa565b92915050565b600080604083850312156105ed576105ec6104a6565b5b60006105fb85828601610500565b925050602061060c858286016105c1565b9150509250929050565b60006020828403121561062c5761062b6104a6565b5b600061063a84828501610500565b91505092915050565b61064c81610515565b82525050565b6000604082019050610667600083018561047c565b6106746020830184610643565b9392505050565b60008151905061068a816105aa565b92915050565b6000602082840312156106a6576106a56104a6565b5b60006106b48482850161067b565b91505092915050565b6106c68161059e565b82525050565b60006040820190506106e1600083018561047c565b6106ee60208301846106bd565b9392505050565b600060408201905061070a600083018561047c565b610717602083018461047c565b939250505056fea26469706673582212200f54db55d9914063914a5f9c24b98ea8ceb5b82ca5b1416d5e25088ec602414464736f6c634300081c0033",
  "linkReferences": {},
  "deployedLinkReferences": {}
}