{
  "_format": "hh-sol-artifact-1",
  "contractName": "TestSimpleFunctionRegistryFeatureImpl1",
  "sourceName": "contracts/test/TestSimpleFunctionRegistryFeatureImpl1.sol",
  "abi": [
    {
      "inputs": [],
      "name": "testFn",
      "outputs": [
        {
          "internalType": "uint256",
          "name": "id",
          "type": "uint256"
        }
      ],
      "stateMutability": "pure",
      "type": "function"
    }
  ],
  "bytecode": "0x60a0604052348015600f57600080fd5b503073ffffffffffffffffffffffffffffffffffffffff1660808173ffffffffffffffffffffffffffffffffffffffff168152505060805160b761005a6000396000505060b76000f3fe6080604052348015600f57600080fd5b506004361060285760003560e01c806381a1923314602d575b600080fd5b60336047565b604051603e91906068565b60405180910390f35b6000610539905090565b6000819050919050565b6062816051565b82525050565b6000602082019050607b6000830184605b565b9291505056fea2646970667358221220d150646cbb7a48c40cb59c87188d16c70dc4d67383fb0aac0b5ca9056c38baad64736f6c634300081c0033",
  "linkReferences": {},
  "deployedLinkReferences": {}
}