{
  "_format": "hh-sol-artifact-1",
  "contractName": "TestSimpleFunctionRegistryFeatureImpl1",
  "sourceName": "contracts/test/TestSimpleFunctionRegistryFeatureImpl1.sol",
  "abi": [
    {
      "inputs": [],
      "name": "testFn",
      "outputs": [
        {
          "internalType": "uint256",
          "name": "id",
          "type": "uint256"
        }
      ],
      "stateMutability": "pure",
      "type": "function"
    }
  ],
  "bytecode": "0x60a0604052348015600e575f5ffd5b5030608052608051607560255f395f505060755ff3fe6080604052348015600e575f5ffd5b50600436106026575f3560e01c806381a1923314602a575b5f5ffd5b61053960405190815260200160405180910390f3fea26469706673582212209b025bea8aa2b1139cb877261b0e3302578404841155031fbd819bc83235af3064736f6c634300081c0033",
  "linkReferences": {},
  "deployedLinkReferences": {}
}