{
  "_format": "hh-sol-artifact-1",
  "contractName": "UniswapFeature",
  "sourceName": "contracts/src/features/UniswapFeature.sol",
  "abi": [
    {
      "inputs": [
        {
          "internalType": "contract IEtherToken",
          "name": "weth",
          "type": "address"
        }
      ],
      "stateMutability": "nonpayable",
      "type": "constructor"
    },
    {
      "inputs": [],
      "name": "FEATURE_NAME",
      "outputs": [
        {
          "internalType": "string",
          "name": "",
          "type": "string"
        }
      ],
      "stateMutability": "view",
      "type": "function"
    },
    {
      "inputs": [],
      "name": "FEATURE_VERSION",
      "outputs": [
        {
          "internalType": "uint256",
          "name": "",
          "type": "uint256"
        }
      ],
      "stateMutability": "view",
      "type": "function"
    },
    {
      "inputs": [],
      "name": "migrate",
      "outputs": [
        {
          "internalType": "bytes4",
          "name": "success",
          "type": "bytes4"
        }
      ],
      "stateMutability": "nonpayable",
      "type": "function"
    },
    {
      "inputs": [
        {
          "internalType": "contract IERC20Token[]",
          "name": "tokens",
          "type": "address[]"
        },
        {
          "internalType": "uint256",
          "name": "sellAmount",
          "type": "uint256"
        },
        {
          "internalType": "uint256",
          "name": "minBuyAmount",
          "type": "uint256"
        },
        {
          "internalType": "bool",
          "name": "isSushi",
          "type": "bool"
        }
      ],
      "name": "sellToUniswap",
      "outputs": [
        {
          "internalType": "uint256",
          "name": "buyAmount",
          "type": "uint256"
        }
      ],
      "stateMutability": "payable",
      "type": "function"
    }
  ],
  "bytecode": "0x60e06040526801000000010000000260a05234801561001c575f5ffd5b50604051610a8f380380610a8f83398101604081905261003b91610050565b306080526001600160a01b031660c05261007d565b5f60208284031215610060575f5ffd5b81516001600160a01b0381168114610076575f5ffd5b9392505050565b60805160a05160c0516109e96100a65f395f61022f01525f605301525f61086701526109e95ff3fe60806040526004361061003e575f3560e01c8063031b905c146100425780636ae4b4f7146100885780638fd3ab80146100dd578063d9627aa414610122575b5f5ffd5b34801561004d575f5ffd5b506100757f000000000000000000000000000000000000000000000000000000000000000081565b6040519081526020015b60405180910390f35b348015610093575f5ffd5b506100d06040518060400160405280600e81526020017f556e69737761704665617475726500000000000000000000000000000000000081525081565b60405161007f91906108c0565b3480156100e8575f5ffd5b506100f1610135565b6040517fffffffff00000000000000000000000000000000000000000000000000000000909116815260200161007f565b610075610130366004610922565b610184565b5f61015f7fd9627aa400000000000000000000000000000000000000000000000000000000610802565b507f2c64c5ef0000000000000000000000000000000000000000000000000000000090565b5f6001851161021a576040517f08c379a000000000000000000000000000000000000000000000000000000000815260206004820152602260248201527f556e6973776170466561747572652f496e76616c6964546f6b656e734c656e6760448201527f746800000000000000000000000000000000000000000000000000000000000060648201526084015b60405180910390fd5b506004803560248101610a0052610a208390527f0000000000000000000000000000000000000000000000000000000000000000610a405284917fffffffffffffffffffffffffffffffffffffffffffffffffffffffffffffffff910135015f80805b8381101561055757610a005160208202013573ffffffffffffffffffffffffffffffffffffffff16610a005160206001840102013573ffffffffffffffffffffffffffffffffffffffff1693506102d3846105d5565b6102dc826105d5565b1083806102f3576102ed8684610608565b90505f94505b836103c45773eeeeeeeeeeeeeeeeeeeeeeeeeeeeeeeeeeeeeeee831480156103ad578b3414610320575f5ffd5b610a405193507fd0e30db000000000000000000000000000000000000000000000000000000000610b00525f5f6004610b008f885af16103625761036261071c565b7fa9059cbb00000000000000000000000000000000000000000000000000000000610b005281610b04528b610b24525f5f6044610b005f885af16103a8576103a861071c565b6103c2565b34156103b7575f5ffd5b6103c28c8386610724565b505b7f0902f1ac00000000000000000000000000000000000000000000000000000000610b00526040610c006004610b00845afa6104025761040261071c565b60403d101561040f575f5ffd5b8792505f808315801561042d57610c20519250610c0051915061043a565b610c00519250610c205191505b506e010000000000000000000000000000851115610456575f5ffd5b6103e585026103e883028101828202049a505050505f92508660018501145f81146104aa5773eeeeeeeeeeeeeeeeeeeeeeeeeeeeeeeeeeeeeeee871480156104a0573094506104a4565b3394505b506104dd565b610a00516104d79060206002880102013573ffffffffffffffffffffffffffffffffffffffff1688610608565b95508593505b507f022c0d9f00000000000000000000000000000000000000000000000000000000610b0052818015610519575f610b045288610b2452610524565b88610b04525f610b24525b5082610b44526080610b64525f610b84525f5f60a4610b005f855af161054c5761054c61071c565b50505060010161027d565b505073eeeeeeeeeeeeeeeeeeeeeeeeeeeeeeeeeeeeeeee81036105ce577f2e1a7d4d00000000000000000000000000000000000000000000000000000000610b005282610b04525f5f6024610b005f610a40515af16105b8576105b861071c565b5f5f5f610b0086335af16105ce576105ce61071c565b505061078f565b807fffffffffffffffffffffffff111111111111111111111111111111111111111281016106035750610a40515b919050565b610611816105d5565b905061061c826105d5565b91505f82821080156106375783610b145282610b0052610642565b82610b145283610b00525b506028610b0c20610a205180156106a7577fffc0aee478e3658e2610c5f7a4a2e1777ce9e4f2ac0000000000000000000000610b005281610b15527fe18a34eb0e04b04f7a0ac29a6e80748dca96319b42c54d679cb821dca90c6303610b35526106f7565b7fff5c69bee701ef814a2b6a3edd4b1652cb9cc5aa6f0000000000000000000000610b005281610b15527f96e8ac4277198ff8b6f785478aa9a39f403cb768dd02cbee326c3e7da348845f610b35525b50506055610b002073ffffffffffffffffffffffffffffffffffffffff169392505050565b3d5f5f3e3d5ffd5b7f23b872dd00000000000000000000000000000000000000000000000000000000610b005233610b045281610b245282610b44526020610c006064610b005f855af13d6001610c005114602082101516811517821691508161078857805f5f3e805ffd5b5050505050565b828110156107f9576040517f08c379a000000000000000000000000000000000000000000000000000000000815260206004820152601a60248201527f556e6973776170466561747572652f556e646572426f756768740000000000006044820152606401610211565b95945050505050565b6040517f6eb224cb0000000000000000000000000000000000000000000000000000000081527fffffffff000000000000000000000000000000000000000000000000000000008216600482015273ffffffffffffffffffffffffffffffffffffffff7f00000000000000000000000000000000000000000000000000000000000000001660248201523090636eb224cb906044015f604051808303815f87803b1580156108ae575f5ffd5b505af1158015610788573d5f5f3e3d5ffd5b602081525f82518060208401528060208501604085015e5f6040828501015260407fffffffffffffffffffffffffffffffffffffffffffffffffffffffffffffffe0601f83011684010191505092915050565b80358015158114610603575f5ffd5b5f5f5f5f5f60808688031215610936575f5ffd5b853567ffffffffffffffff81111561094c575f5ffd5b8601601f8101881361095c575f5ffd5b803567ffffffffffffffff811115610972575f5ffd5b8860208260051b8401011115610986575f5ffd5b6020918201965094508601359250604086013591506109a760608701610913565b9050929550929590935056fea2646970667358221220bbf602b100fbfe582c167b24d9574aea3fffc4f71d755e03697ae6ef19f77dd264736f6c634300081c0033",
  "linkReferences": {},
  "deployedLinkReferences": {}
}