{
  "_format": "hh-sol-artifact-1",
  "contractName": "TestLibERC20Token",
  "sourceName": "contracts/test/TestLibERC20Token.sol",
  "abi": [
    {
      "inputs": [],
      "stateMutability": "nonpayable",
      "type": "constructor"
    },
    {
      "inputs": [
        {
          "internalType": "bool",
          "name": "shouldRevert",
          "type": "bool"
        },
        {
          "internalType": "bytes",
          "name": "revertData",
          "type": "bytes"
        },
        {
          "internalType": "bytes",
          "name": "returnData",
          "type": "bytes"
        },
        {
          "internalType": "address",
          "name": "spender",
          "type": "address"
        },
        {
          "internalType": "uint256",
          "name": "allowance",
          "type": "uint256"
        }
      ],
      "name": "testApprove",
      "outputs": [],
      "stateMutability": "nonpayable",
      "type": "function"
    },
    {
      "inputs": [
        {
          "internalType": "bool",
          "name": "shouldRevert",
          "type": "bool"
        },
        {
          "internalType": "bytes",
          "name": "revertData",
          "type": "bytes"
        },
        {
          "internalType": "bytes",
          "name": "returnData",
          "type": "bytes"
        }
      ],
      "name": "testDecimals",
      "outputs": [
        {
          "internalType": "uint8",
          "name": "",
          "type": "uint8"
        }
      ],
      "stateMutability": "nonpayable",
      "type": "function"
    },
    {
      "inputs": [],
      "name": "testTarget",
      "outputs": [
        {
          "internalType": "contract TestLibERC20TokenTarget",
          "name": "",
          "type": "address"
        }
      ],
      "stateMutability": "view",
      "type": "function"
    },
    {
      "inputs": [
        {
          "internalType": "bool",
          "name": "shouldRevert",
          "type": "bool"
        },
        {
          "internalType": "bytes",
          "name": "revertData",
          "type": "bytes"
        },
        {
          "internalType": "bytes",
          "name": "returnData",
          "type": "bytes"
        },
        {
          "internalType": "address",
          "name": "to",
          "type": "address"
        },
        {
          "internalType": "uint256",
          "name": "amount",
          "type": "uint256"
        }
      ],
      "name": "testTransfer",
      "outputs": [],
      "stateMutability": "nonpayable",
      "type": "function"
    },
    {
      "inputs": [
        {
          "internalType": "bool",
          "name": "shouldRevert",
          "type": "bool"
        },
        {
          "internalType": "bytes",
          "name": "revertData",
          "type": "bytes"
        },
        {
          "internalType": "bytes",
          "name": "returnData",
          "type": "bytes"
        },
        {
          "internalType": "address",
          "name": "from",
          "type": "address"
        },
        {
          "internalType": "address",
          "name": "to",
          "type": "address"
        },
        {
          "internalType": "uint256",
          "name": "amount",
          "type": "uint256"
        }
      ],
      "name": "testTransferFrom",
      "outputs": [],
      "stateMutability": "nonpayable",
      "type": "function"
    }
  ],
  "bytecode": "0x6080604052348015600e575f5ffd5b506040516019906055565b604051809103905ff0801580156031573d5f5f3e3d5ffd5b505f80546001600160a01b0319166001600160a01b03929092169190911790556062565b61070f80610c4e83390190565b610bdf8061006f5f395ff3fe608060405234801561000f575f5ffd5b5060043610610064575f3560e01c8063bafcdf611161004d578063bafcdf61146100d6578063c183b9cc146100eb578063e6ba6ef6146100fe575f5ffd5b806327c25355146100685780635d27b2b914610092575b5f5ffd5b61007b61007636600461088d565b610111565b60405160ff90911681526020015b60405180910390f35b5f546100b19073ffffffffffffffffffffffffffffffffffffffff1681565b60405173ffffffffffffffffffffffffffffffffffffffff9091168152602001610089565b6100e96100e4366004610930565b6101c8565b005b6100e96100f93660046109cc565b61027f565b6100e961010c366004610930565b610338565b5f80546040517fd48d62ff00000000000000000000000000000000000000000000000000000000815273ffffffffffffffffffffffffffffffffffffffff9091169063d48d62ff9061016f9089908990899089908990600401610abe565b5f604051808303815f87803b158015610186575f5ffd5b505af1158015610198573d5f5f3e3d5ffd5b50505f546101be925073ffffffffffffffffffffffffffffffffffffffff1690506103e6565b9695505050505050565b5f546040517fd48d62ff00000000000000000000000000000000000000000000000000000000815273ffffffffffffffffffffffffffffffffffffffff9091169063d48d62ff90610225908a908a908a908a908a90600401610abe565b5f604051808303815f87803b15801561023c575f5ffd5b505af115801561024e573d5f5f3e3d5ffd5b50505f54610276925073ffffffffffffffffffffffffffffffffffffffff16905083836104b0565b50505050505050565b5f546040517fd48d62ff00000000000000000000000000000000000000000000000000000000815273ffffffffffffffffffffffffffffffffffffffff9091169063d48d62ff906102dc908b908b908b908b908b90600401610abe565b5f604051808303815f87803b1580156102f3575f5ffd5b505af1158015610305573d5f5f3e3d5ffd5b50505f5461032e925073ffffffffffffffffffffffffffffffffffffffff16905084848461058d565b5050505050505050565b5f546040517fd48d62ff00000000000000000000000000000000000000000000000000000000815273ffffffffffffffffffffffffffffffffffffffff9091169063d48d62ff90610395908a908a908a908a908a90600401610abe565b5f604051808303815f87803b1580156103ac575f5ffd5b505af11580156103be573d5f5f3e3d5ffd5b50505f54610276925073ffffffffffffffffffffffffffffffffffffffff1690508383610628565b5f601290505f5f8373ffffffffffffffffffffffffffffffffffffffff166040518060400160405280600481526020017f313ce567000000000000000000000000000000000000000000000000000000008152506040516104479190610af8565b5f60405180830381855afa9150503d805f811461047f576040519150601f19603f3d011682016040523d82523d5f602084013e610484565b606091505b5091509150818015610497575080516020145b156104a9576104a6815f61067a565b92505b5050919050565b60405173ffffffffffffffffffffffffffffffffffffffff83166024820152604481018290525f907fa9059cbb00000000000000000000000000000000000000000000000000000000906064015b604080517fffffffffffffffffffffffffffffffffffffffffffffffffffffffffffffffe08184030181529190526020810180517bffffffffffffffffffffffffffffffffffffffffffffffffffffffff167fffffffff00000000000000000000000000000000000000000000000000000000909316929092179091529050610587848261068e565b50505050565b6040805173ffffffffffffffffffffffffffffffffffffffff85811660248301528416604482015260648082018490528251808303909101815260849091019091526020810180517bffffffffffffffffffffffffffffffffffffffffffffffffffffffff167f23b872dd00000000000000000000000000000000000000000000000000000000179052610621858261068e565b5050505050565b60405173ffffffffffffffffffffffffffffffffffffffff83166024820152604481018290525f907f095ea7b300000000000000000000000000000000000000000000000000000000906064016104fe565b5f610685838361073c565b90505b92915050565b5f5f8373ffffffffffffffffffffffffffffffffffffffff16836040516106b59190610af8565b5f604051808303815f865af19150503d805f81146106ee576040519150601f19603f3d011682016040523d82523d5f602084013e6106f3565b606091505b509150915081156107335780515f0361070c5750505050565b8051602003610733575f610720825f61067a565b905080600103610731575050505050565b505b61058781610787565b5f610748826020610b24565b835110156107715761077161076c600585518560206107679190610b24565b61078f565b610787565b61077c602083610b24565b929092015192915050565b805160208201fd5b6060632800659560e01b8484846040516024016107ae93929190610b5c565b604080517fffffffffffffffffffffffffffffffffffffffffffffffffffffffffffffffe08184030181529190526020810180517bffffffffffffffffffffffffffffffffffffffffffffffffffffffff167fffffffff000000000000000000000000000000000000000000000000000000009093169290921790915290509392505050565b80358015158114610843575f5ffd5b919050565b5f5f83601f840112610858575f5ffd5b50813567ffffffffffffffff81111561086f575f5ffd5b602083019150836020828501011115610886575f5ffd5b9250929050565b5f5f5f5f5f606086880312156108a1575f5ffd5b6108aa86610834565b9450602086013567ffffffffffffffff8111156108c5575f5ffd5b6108d188828901610848565b909550935050604086013567ffffffffffffffff8111156108f0575f5ffd5b6108fc88828901610848565b969995985093965092949392505050565b803573ffffffffffffffffffffffffffffffffffffffff81168114610843575f5ffd5b5f5f5f5f5f5f5f60a0888a031215610946575f5ffd5b61094f88610834565b9650602088013567ffffffffffffffff81111561096a575f5ffd5b6109768a828b01610848565b909750955050604088013567ffffffffffffffff811115610995575f5ffd5b6109a18a828b01610848565b90955093506109b490506060890161090d565b96999598509396929591949193505060809091013590565b5f5f5f5f5f5f5f5f60c0898b0312156109e3575f5ffd5b6109ec89610834565b9750602089013567ffffffffffffffff811115610a07575f5ffd5b610a138b828c01610848565b909850965050604089013567ffffffffffffffff811115610a32575f5ffd5b610a3e8b828c01610848565b9096509450610a51905060608a0161090d565b9250610a5f60808a0161090d565b979a969950949793969295919450919260a001359150565b81835281816020850137505f602082840101525f60207fffffffffffffffffffffffffffffffffffffffffffffffffffffffffffffffe0601f840116840101905092915050565b8515158152606060208201525f610ad9606083018688610a77565b8281036040840152610aec818587610a77565b98975050505050505050565b5f82515f5b81811015610b175760208186018101518583015201610afd565b505f920191825250919050565b80820180821115610688577f4e487b71000000000000000000000000000000000000000000000000000000005f52601160045260245ffd5b6060810160088510610b95577f4e487b71000000000000000000000000000000000000000000000000000000005f52602160045260245ffd5b93815260208101929092526040909101529056fea26469706673582212205acfe6ac7eacf75788ba21adeca85ec431a72c77cfcc48ff978fc60c53c24b6f64736f6c634300081c00336080604052348015600e575f5ffd5b506106f38061001c5f395ff3fe608060405234801561000f575f5ffd5b5060043610610064575f3560e01c8063313ce5671161004d578063313ce567146100a3578063a9059cbb146100bd578063d48d62ff146100d0575f5ffd5b8063095ea7b31461006857806323b872dd14610090575b5f5ffd5b61007b6100763660046103b0565b6100e5565b60405190151581526020015b60405180910390f35b61007b61009e3660046103d8565b610145565b6100ab6101ae565b60405160ff9091168152602001610087565b61007b6100cb3660046103b0565b6101ba565b6100e36100de366004610457565b610208565b005b6040805173ffffffffffffffffffffffffffffffffffffffff84168152602081018390525f917fea0b2cdde7b8dc757afda74b9b45d44accc81dab1430ae86c9c6ade4c8266a7491015b60405180910390a161013f610256565b92915050565b6040805173ffffffffffffffffffffffffffffffffffffffff8086168252841660208201529081018290525f907f5a6fba7057bfcab4df7826f671557535c8430f576ea51d157eb2bf19b79589bb9060600160405180910390a16101a7610256565b9392505050565b5f6101b7610256565b90565b6040805173ffffffffffffffffffffffffffffffffffffffff84168152602081018390525f917fb1da920ef48d84956c4943c52077e88e92e275ea2a0a283b22c526ba60b3f546910161012f565b5f80547fffffffffffffffffffffffffffffffffffffffffffffffffffffffffffffff001686151517905560016102408486836105a7565b50600261024e8284836105a7565b505050505050565b5f5460ff16156102f4575f6001805461026e9061050a565b80601f016020809104026020016040519081016040528092919081815260200182805461029a9061050a565b80156102e55780601f106102bc576101008083540402835291602001916102e5565b820191905f5260205f20905b8154815290600101906020018083116102c857829003601f168201915b50505050509050805160208201fd5b5f600280546103029061050a565b80601f016020809104026020016040519081016040528092919081815260200182805461032e9061050a565b80156103795780601f1061035057610100808354040283529160200191610379565b820191905f5260205f20905b81548152906001019060200180831161035c57829003601f168201915b50505050509050805160208201f35b803573ffffffffffffffffffffffffffffffffffffffff811681146103ab575f5ffd5b919050565b5f5f604083850312156103c1575f5ffd5b6103ca83610388565b946020939093013593505050565b5f5f5f606084860312156103ea575f5ffd5b6103f384610388565b925061040160208501610388565b929592945050506040919091013590565b5f5f83601f840112610422575f5ffd5b50813567ffffffffffffffff811115610439575f5ffd5b602083019150836020828501011115610450575f5ffd5b9250929050565b5f5f5f5f5f6060868803121561046b575f5ffd5b8535801515811461047a575f5ffd5b9450602086013567ffffffffffffffff811115610495575f5ffd5b6104a188828901610412565b909550935050604086013567ffffffffffffffff8111156104c0575f5ffd5b6104cc88828901610412565b969995985093965092949392505050565b7f4e487b71000000000000000000000000000000000000000000000000000000005f52604160045260245ffd5b600181811c9082168061051e57607f821691505b602082108103610555577f4e487b71000000000000000000000000000000000000000000000000000000005f52602260045260245ffd5b50919050565b601f8211156105a257805f5260205f20601f840160051c810160208510156105805750805b601f840160051c820191505b8181101561059f575f815560010161058c565b50505b505050565b67ffffffffffffffff8311156105bf576105bf6104dd565b6105d3836105cd835461050a565b8361055b565b5f601f841160018114610623575f85156105ed5750838201355b7fffffffffffffffffffffffffffffffffffffffffffffffffffffffffffffffff600387901b1c1916600186901b17835561059f565b5f838152602081207fffffffffffffffffffffffffffffffffffffffffffffffffffffffffffffffe08716915b828110156106705786850135825560209485019460019092019101610650565b50868210156106ab577fffffffffffffffffffffffffffffffffffffffffffffffffffffffffffffffff60f88860031b161c19848701351681555b505060018560011b018355505050505056fea26469706673582212209f24b6a6a929b3f3802ac1224981ba610ec4c119793dc50f045d5a6d5d0d30e664736f6c634300081c0033",
  "linkReferences": {},
  "deployedLinkReferences": {}
}