{
  "_format": "hh-sol-artifact-1",
  "contractName": "TestPermissionlessTransformerDeployerTransformer",
  "sourceName": "contracts/test/TestPermissionlessTransformerDeployerTransformer.sol",
  "abi": [
    {
      "inputs": [],
      "stateMutability": "payable",
      "type": "constructor"
    },
    {
      "inputs": [],
      "name": "CONSTRUCTOR_FAIL_VALUE",
      "outputs": [
        {
          "internalType": "uint256",
          "name": "",
          "type": "uint256"
        }
      ],
      "stateMutability": "view",
      "type": "function"
    },
    {
      "inputs": [],
      "name": "deployer",
      "outputs": [
        {
          "internalType": "address payable",
          "name": "",
          "type": "address"
        }
      ],
      "stateMutability": "view",
      "type": "function"
    }
  ],
  "bytecode": "0x60a06040523373ffffffffffffffffffffffffffffffffffffffff1660808173ffffffffffffffffffffffffffffffffffffffff1681525050610d05340361007c576040517f08c379a000000000000000000000000000000000000000000000000000000000815260040161007390610104565b60405180910390fd5b610124565b600082825260208201905092915050565b7f546573745472616e73666f726d65724465706c6f7965725472616e73666f726d60008201527f65722f434f4e5354525543544f525f4641494c00000000000000000000000000602082015250565b60006100ee603383610081565b91506100f982610092565b604082019050919050565b6000602082019050818103600083015261011d816100e1565b9050919050565b60805161016761013e6000396000607f01526101676000f3fe608060405234801561001057600080fd5b50600436106100365760003560e01c80637c9bc5e21461003b578063d5f3948814610059575b600080fd5b610043610077565b60405161005091906100ba565b60405180910390f35b61006161007d565b60405161006e9190610116565b60405180910390f35b610d0581565b7f000000000000000000000000000000000000000000000000000000000000000081565b6000819050919050565b6100b4816100a1565b82525050565b60006020820190506100cf60008301846100ab565b92915050565b600073ffffffffffffffffffffffffffffffffffffffff82169050919050565b6000610100826100d5565b9050919050565b610110816100f5565b82525050565b600060208201905061012b6000830184610107565b9291505056fea2646970667358221220d5d226e5c46d2c7c4cc01a6670e5ef6e161c5cae80e5894524f1ee747d156ef064736f6c634300081c0033",
  "linkReferences": {},
  "deployedLinkReferences": {}
}