{
  "_format": "hh-sol-artifact-1",
  "contractName": "FeeCollectorController",
  "sourceName": "contracts/src/external/FeeCollectorController.sol",
  "abi": [
    {
      "inputs": [
        {
          "internalType": "contract IEtherToken",
          "name": "weth",
          "type": "address"
        },
        {
          "internalType": "contract IStaking",
          "name": "staking",
          "type": "address"
        }
      ],
      "stateMutability": "nonpayable",
      "type": "constructor"
    },
    {
      "inputs": [],
      "name": "FEE_COLLECTOR_INIT_CODE_HASH",
      "outputs": [
        {
          "internalType": "bytes32",
          "name": "",
          "type": "bytes32"
        }
      ],
      "stateMutability": "view",
      "type": "function"
    },
    {
      "inputs": [
        {
          "internalType": "bytes32",
          "name": "poolId",
          "type": "bytes32"
        }
      ],
      "name": "getFeeCollector",
      "outputs": [
        {
          "internalType": "contract FeeCollector",
          "name": "feeCollector",
          "type": "address"
        }
      ],
      "stateMutability": "view",
      "type": "function"
    },
    {
      "inputs": [
        {
          "internalType": "bytes32",
          "name": "poolId",
          "type": "bytes32"
        }
      ],
      "name": "prepareFeeCollectorToPayFees",
      "outputs": [
        {
          "internalType": "contract FeeCollector",
          "name": "feeCollector",
          "type": "address"
        }
      ],
      "stateMutability": "nonpayable",
      "type": "function"
    }
  ],
  "bytecode": "0x60e060405234801561000f575f5ffd5b506040516126e33803806126e383398101604081905261002e91610097565b60405161003d60208201610073565b601f1982820381018352601f909101166040528051602091909101206080526001600160a01b0391821660a0521660c0526100cf565b6110d78061160c83390190565b6001600160a01b0381168114610094575f5ffd5b50565b5f5f604083850312156100a8575f5ffd5b82516100b381610080565b60208401519092506100c481610080565b809150509250929050565b60805160a05160c0516114ff61010d5f395f6102a401525f818161027c015261036801525f818160f10152818161013801526101ca01526114ff5ff3fe608060405234801561000f575f5ffd5b506004361061003f575f3560e01c8063319bed9a14610043578063713192b414610080578063f2541a8c14610133575b5f5ffd5b6100566100513660046103db565b610168565b60405173ffffffffffffffffffffffffffffffffffffffff90911681526020015b60405180910390f35b61005661008e3660046103db565b604080517fff000000000000000000000000000000000000000000000000000000000000006020808301919091527fffffffffffffffffffffffffffffffffffffffff0000000000000000000000003060601b16602183015260358201939093527f0000000000000000000000000000000000000000000000000000000000000000605580830191909152825180830390910181526075909101909152805191012090565b61015a7f000000000000000000000000000000000000000000000000000000000000000081565b604051908152602001610077565b604080517fff000000000000000000000000000000000000000000000000000000000000006020808301919091523060601b7fffffffffffffffffffffffffffffffffffffffff000000000000000000000000166021830152603582018490527f00000000000000000000000000000000000000000000000000000000000000006055808401919091528351808403909101815260759092019092528051910120803b5f81900361030b5782604051610220906103ce565b8190604051809103905ff590508015801561023d573d5f5f3e3d5ffd5b50506040517f6133f98500000000000000000000000000000000000000000000000000000000815273ffffffffffffffffffffffffffffffffffffffff7f0000000000000000000000000000000000000000000000000000000000000000811660048301527f00000000000000000000000000000000000000000000000000000000000000008116602483015260448201859052831690636133f985906064015f604051808303815f87803b1580156102f4575f5ffd5b505af1158015610306573d5f5f3e3d5ffd5b505050505b60018273ffffffffffffffffffffffffffffffffffffffff163111156103c8576040517f4a9023a700000000000000000000000000000000000000000000000000000000815273ffffffffffffffffffffffffffffffffffffffff7f000000000000000000000000000000000000000000000000000000000000000081166004830152831690634a9023a7906024015f604051808303815f87803b1580156103b1575f5ffd5b505af11580156103c3573d5f5f3e3d5ffd5b505050505b50919050565b6110d7806103f383390190565b5f602082840312156103eb575f5ffd5b503591905056fe608060405234801561000f575f5ffd5b505f80546001600160a01b0319163390811790915561002d90610032565b61016c565b6001600160a01b0381166100695761006961006460408051808201909152600481526315d953f960e21b602082015290565b610164565b6001600160a01b0381165f9081526001602052604090205460ff16156100d7576100d761006482604080516001600160a01b039290921660248084019190915281518084039091018152604490920190526020810180516001600160e01b03166306f0b78d60e51b17905290565b6001600160a01b0381165f818152600160208190526040808320805460ff19168317905560028054928301815583527f405787fa12a823e0f2b7631cc41b3ba8828b3321ca811111fa75cd3aa3bb5ace90910180546001600160a01b03191684179055513392917f3147867c59d17e8fa9d522465651d44aae0a9e38f902f3475b97e58072f0ed4c91a350565b805160208201fd5b610f5e806101795f395ff3fe6080604052600436106100b0575f3560e01c80638da5cb5b11610066578063b91816111161004c578063b9181611146101cc578063d39de6e91461020a578063f2fde38b1461022b575f5ffd5b80638da5cb5b146101825780639ad26744146101ad575f5ffd5b80634a9023a7116100965780634a9023a7146101255780636133f985146101445780637071293914610163575f5ffd5b806342f1181e146100bb578063494503d4146100dc575f5ffd5b366100b757005b5f5ffd5b3480156100c6575f5ffd5b506100da6100d5366004610d7e565b61024a565b005b3480156100e7575f5ffd5b506100fb6100f6366004610da0565b61025e565b60405173ffffffffffffffffffffffffffffffffffffffff90911681526020015b60405180910390f35b348015610130575f5ffd5b506100da61013f366004610d7e565b610293565b34801561014f575f5ffd5b506100da61015e366004610db7565b610301565b34801561016e575f5ffd5b506100da61017d366004610d7e565b61043f565b34801561018d575f5ffd5b505f546100fb9073ffffffffffffffffffffffffffffffffffffffff1681565b3480156101b8575f5ffd5b506100da6101c7366004610df5565b6104f6565b3480156101d7575f5ffd5b506101fa6101e6366004610d7e565b60016020525f908152604090205460ff1681565b604051901515815260200161011c565b348015610215575f5ffd5b5061021e610508565b60405161011c9190610e1f565b348015610236575f5ffd5b506100da610245366004610d7e565b610575565b610252610644565b61025b8161068b565b50565b6002818154811061026d575f80fd5b5f9182526020909120015473ffffffffffffffffffffffffffffffffffffffff16905081565b61029b6107ec565b471561025b578073ffffffffffffffffffffffffffffffffffffffff1663d0e30db0476040518263ffffffff1660e01b81526004015f604051808303818588803b1580156102e7575f5ffd5b505af11580156102f9573d5f5f3e3d5ffd5b505050505050565b6103096107ec565b6040517f095ea7b300000000000000000000000000000000000000000000000000000000815273ffffffffffffffffffffffffffffffffffffffff83811660048301527fffffffffffffffffffffffffffffffffffffffffffffffffffffffffffffffff602483015284169063095ea7b3906044016020604051808303815f875af115801561039a573d5f5f3e3d5ffd5b505050506040513d601f19601f820116820180604052508101906103be9190610e77565b506040517fb3e333790000000000000000000000000000000000000000000000000000000081526004810182905273ffffffffffffffffffffffffffffffffffffffff83169063b3e33379906024015f604051808303815f87803b158015610424575f5ffd5b505af1158015610436573d5f5f3e3d5ffd5b50505050505050565b610447610644565b73ffffffffffffffffffffffffffffffffffffffff81165f9081526001602052604090205460ff166104845761048461047f8261080e565b6108d9565b5f5b6002548110156104ea578173ffffffffffffffffffffffffffffffffffffffff16600282815481106104ba576104ba610e96565b5f9182526020909120015473ffffffffffffffffffffffffffffffffffffffff16036104ee576104ea82826108e1565b5050565b600101610486565b6104fe610644565b6104ea82826108e1565b6060600280548060200260200160405190810160405280929190818152602001828054801561056b57602002820191905f5260205f20905b815473ffffffffffffffffffffffffffffffffffffffff168152600190910190602001808311610540575b5050505050905090565b61057d610644565b73ffffffffffffffffffffffffffffffffffffffff81166105d55761025b61047f60408051808201909152600481527fe69edc3e00000000000000000000000000000000000000000000000000000000602082015290565b5f80547fffffffffffffffffffffffff00000000000000000000000000000000000000001673ffffffffffffffffffffffffffffffffffffffff83169081178255604051909133917f8be0079c531659141344cd1fd0a4f28419497f9722a3daafe3b4186f6b6457e09190a350565b5f5473ffffffffffffffffffffffffffffffffffffffff163314610689575f546106899061047f90339073ffffffffffffffffffffffffffffffffffffffff16610b5d565b565b73ffffffffffffffffffffffffffffffffffffffff81166106e3576106e361047f60408051808201909152600481527f57654fe400000000000000000000000000000000000000000000000000000000602082015290565b73ffffffffffffffffffffffffffffffffffffffff81165f9081526001602052604090205460ff161561071c5761071c61047f82610c33565b73ffffffffffffffffffffffffffffffffffffffff81165f81815260016020819052604080832080547fffffffffffffffffffffffffffffffffffffffffffffffffffffffffffffff00168317905560028054928301815583527f405787fa12a823e0f2b7631cc41b3ba8828b3321ca811111fa75cd3aa3bb5ace90910180547fffffffffffffffffffffffff00000000000000000000000000000000000000001684179055513392917f3147867c59d17e8fa9d522465651d44aae0a9e38f902f3475b97e58072f0ed4c91a350565b335f9081526001602052604090205460ff166106895761068961047f33610c7f565b60405173ffffffffffffffffffffffffffffffffffffffff821660248201526060907feb5108a200000000000000000000000000000000000000000000000000000000906044015b604080517fffffffffffffffffffffffffffffffffffffffffffffffffffffffffffffffe08184030181529190526020810180517bffffffffffffffffffffffffffffffffffffffffffffffffffffffff167fffffffff000000000000000000000000000000000000000000000000000000009093169290921790915292915050565b805160208201fd5b73ffffffffffffffffffffffffffffffffffffffff82165f9081526001602052604090205460ff166109195761091961047f8361080e565b60025481106109345761093461047f82600280549050610ccb565b8173ffffffffffffffffffffffffffffffffffffffff166002828154811061095e5761095e610e96565b5f9182526020909120015473ffffffffffffffffffffffffffffffffffffffff16146109c4576109c461047f6002838154811061099d5761099d610e96565b5f9182526020909120015473ffffffffffffffffffffffffffffffffffffffff1684610d09565b73ffffffffffffffffffffffffffffffffffffffff82165f90815260016020819052604090912080547fffffffffffffffffffffffffffffffffffffffffffffffffffffffffffffff00169055600280549091610a2091610ec3565b81548110610a3057610a30610e96565b5f918252602090912001546002805473ffffffffffffffffffffffffffffffffffffffff9092169183908110610a6857610a68610e96565b905f5260205f20015f6101000a81548173ffffffffffffffffffffffffffffffffffffffff021916908373ffffffffffffffffffffffffffffffffffffffff1602179055506002805480610abe57610abe610efb565b5f8281526020812082017fffffffffffffffffffffffffffffffffffffffffffffffffffffffffffffffff90810180547fffffffffffffffffffffffff0000000000000000000000000000000000000000169055909101909155604051339173ffffffffffffffffffffffffffffffffffffffff8516917f1f32c1b084e2de0713b8fb16bd46bb9df710a3dbeae2f3ca93af46e016dcc6b09190a35050565b60405173ffffffffffffffffffffffffffffffffffffffff8084166024830152821660448201526060907f1de45ad100000000000000000000000000000000000000000000000000000000906064015b604080517fffffffffffffffffffffffffffffffffffffffffffffffffffffffffffffffe08184030181529190526020810180517bffffffffffffffffffffffffffffffffffffffffffffffffffffffff167fffffffff000000000000000000000000000000000000000000000000000000009093169290921790915290505b92915050565b60405173ffffffffffffffffffffffffffffffffffffffff821660248201526060907fde16f1a00000000000000000000000000000000000000000000000000000000090604401610856565b60405173ffffffffffffffffffffffffffffffffffffffff821660248201526060907fb65a25b90000000000000000000000000000000000000000000000000000000090604401610856565b60405160248101839052604481018290526060907fe9f837710000000000000000000000000000000000000000000000000000000090606401610bad565b60405173ffffffffffffffffffffffffffffffffffffffff8084166024830152821660448201526060907f140a84db0000000000000000000000000000000000000000000000000000000090606401610bad565b73ffffffffffffffffffffffffffffffffffffffff8116811461025b575f5ffd5b5f60208284031215610d8e575f5ffd5b8135610d9981610d5d565b9392505050565b5f60208284031215610db0575f5ffd5b5035919050565b5f5f5f60608486031215610dc9575f5ffd5b8335610dd481610d5d565b92506020840135610de481610d5d565b929592945050506040919091013590565b5f5f60408385031215610e06575f5ffd5b8235610e1181610d5d565b946020939093013593505050565b602080825282518282018190525f918401906040840190835b81811015610e6c57835173ffffffffffffffffffffffffffffffffffffffff16835260209384019390920191600101610e38565b509095945050505050565b5f60208284031215610e87575f5ffd5b81518015158114610d99575f5ffd5b7f4e487b71000000000000000000000000000000000000000000000000000000005f52603260045260245ffd5b81810381811115610c2d577f4e487b71000000000000000000000000000000000000000000000000000000005f52601160045260245ffd5b7f4e487b71000000000000000000000000000000000000000000000000000000005f52603160045260245ffdfea2646970667358221220fb3a69746fa1fdcff09fbe93c8e140a59c4c4b6b4b8a65683990f47907153ec164736f6c634300081c0033a2646970667358221220bb907e7158633785ab850a95cc2cba7413c69819f829b773d5cc7cc033a65dfd64736f6c634300081c0033608060405234801561000f575f5ffd5b505f80546001600160a01b0319163390811790915561002d90610032565b61016c565b6001600160a01b0381166100695761006961006460408051808201909152600481526315d953f960e21b602082015290565b610164565b6001600160a01b0381165f9081526001602052604090205460ff16156100d7576100d761006482604080516001600160a01b039290921660248084019190915281518084039091018152604490920190526020810180516001600160e01b03166306f0b78d60e51b17905290565b6001600160a01b0381165f818152600160208190526040808320805460ff19168317905560028054928301815583527f405787fa12a823e0f2b7631cc41b3ba8828b3321ca811111fa75cd3aa3bb5ace90910180546001600160a01b03191684179055513392917f3147867c59d17e8fa9d522465651d44aae0a9e38f902f3475b97e58072f0ed4c91a350565b805160208201fd5b610f5e806101795f395ff3fe6080604052600436106100b0575f3560e01c80638da5cb5b11610066578063b91816111161004c578063b9181611146101cc578063d39de6e91461020a578063f2fde38b1461022b575f5ffd5b80638da5cb5b146101825780639ad26744146101ad575f5ffd5b80634a9023a7116100965780634a9023a7146101255780636133f985146101445780637071293914610163575f5ffd5b806342f1181e146100bb578063494503d4146100dc575f5ffd5b366100b757005b5f5ffd5b3480156100c6575f5ffd5b506100da6100d5366004610d7e565b61024a565b005b3480156100e7575f5ffd5b506100fb6100f6366004610da0565b61025e565b60405173ffffffffffffffffffffffffffffffffffffffff90911681526020015b60405180910390f35b348015610130575f5ffd5b506100da61013f366004610d7e565b610293565b34801561014f575f5ffd5b506100da61015e366004610db7565b610301565b34801561016e575f5ffd5b506100da61017d366004610d7e565b61043f565b34801561018d575f5ffd5b505f546100fb9073ffffffffffffffffffffffffffffffffffffffff1681565b3480156101b8575f5ffd5b506100da6101c7366004610df5565b6104f6565b3480156101d7575f5ffd5b506101fa6101e6366004610d7e565b60016020525f908152604090205460ff1681565b604051901515815260200161011c565b348015610215575f5ffd5b5061021e610508565b60405161011c9190610e1f565b348015610236575f5ffd5b506100da610245366004610d7e565b610575565b610252610644565b61025b8161068b565b50565b6002818154811061026d575f80fd5b5f9182526020909120015473ffffffffffffffffffffffffffffffffffffffff16905081565b61029b6107ec565b471561025b578073ffffffffffffffffffffffffffffffffffffffff1663d0e30db0476040518263ffffffff1660e01b81526004015f604051808303818588803b1580156102e7575f5ffd5b505af11580156102f9573d5f5f3e3d5ffd5b505050505050565b6103096107ec565b6040517f095ea7b300000000000000000000000000000000000000000000000000000000815273ffffffffffffffffffffffffffffffffffffffff83811660048301527fffffffffffffffffffffffffffffffffffffffffffffffffffffffffffffffff602483015284169063095ea7b3906044016020604051808303815f875af115801561039a573d5f5f3e3d5ffd5b505050506040513d601f19601f820116820180604052508101906103be9190610e77565b506040517fb3e333790000000000000000000000000000000000000000000000000000000081526004810182905273ffffffffffffffffffffffffffffffffffffffff83169063b3e33379906024015f604051808303815f87803b158015610424575f5ffd5b505af1158015610436573d5f5f3e3d5ffd5b50505050505050565b610447610644565b73ffffffffffffffffffffffffffffffffffffffff81165f9081526001602052604090205460ff166104845761048461047f8261080e565b6108d9565b5f5b6002548110156104ea578173ffffffffffffffffffffffffffffffffffffffff16600282815481106104ba576104ba610e96565b5f9182526020909120015473ffffffffffffffffffffffffffffffffffffffff16036104ee576104ea82826108e1565b5050565b600101610486565b6104fe610644565b6104ea82826108e1565b6060600280548060200260200160405190810160405280929190818152602001828054801561056b57602002820191905f5260205f20905b815473ffffffffffffffffffffffffffffffffffffffff168152600190910190602001808311610540575b5050505050905090565b61057d610644565b73ffffffffffffffffffffffffffffffffffffffff81166105d55761025b61047f60408051808201909152600481527fe69edc3e00000000000000000000000000000000000000000000000000000000602082015290565b5f80547fffffffffffffffffffffffff00000000000000000000000000000000000000001673ffffffffffffffffffffffffffffffffffffffff83169081178255604051909133917f8be0079c531659141344cd1fd0a4f28419497f9722a3daafe3b4186f6b6457e09190a350565b5f5473ffffffffffffffffffffffffffffffffffffffff163314610689575f546106899061047f90339073ffffffffffffffffffffffffffffffffffffffff16610b5d565b565b73ffffffffffffffffffffffffffffffffffffffff81166106e3576106e361047f60408051808201909152600481527f57654fe400000000000000000000000000000000000000000000000000000000602082015290565b73ffffffffffffffffffffffffffffffffffffffff81165f9081526001602052604090205460ff161561071c5761071c61047f82610c33565b73ffffffffffffffffffffffffffffffffffffffff81165f81815260016020819052604080832080547fffffffffffffffffffffffffffffffffffffffffffffffffffffffffffffff00168317905560028054928301815583527f405787fa12a823e0f2b7631cc41b3ba8828b3321ca811111fa75cd3aa3bb5ace90910180547fffffffffffffffffffffffff00000000000000000000000000000000000000001684179055513392917f3147867c59d17e8fa9d522465651d44aae0a9e38f902f3475b97e58072f0ed4c91a350565b335f9081526001602052604090205460ff166106895761068961047f33610c7f565b60405173ffffffffffffffffffffffffffffffffffffffff821660248201526060907feb5108a200000000000000000000000000000000000000000000000000000000906044015b604080517fffffffffffffffffffffffffffffffffffffffffffffffffffffffffffffffe08184030181529190526020810180517bffffffffffffffffffffffffffffffffffffffffffffffffffffffff167fffffffff000000000000000000000000000000000000000000000000000000009093169290921790915292915050565b805160208201fd5b73ffffffffffffffffffffffffffffffffffffffff82165f9081526001602052604090205460ff166109195761091961047f8361080e565b60025481106109345761093461047f82600280549050610ccb565b8173ffffffffffffffffffffffffffffffffffffffff166002828154811061095e5761095e610e96565b5f9182526020909120015473ffffffffffffffffffffffffffffffffffffffff16146109c4576109c461047f6002838154811061099d5761099d610e96565b5f9182526020909120015473ffffffffffffffffffffffffffffffffffffffff1684610d09565b73ffffffffffffffffffffffffffffffffffffffff82165f90815260016020819052604090912080547fffffffffffffffffffffffffffffffffffffffffffffffffffffffffffffff00169055600280549091610a2091610ec3565b81548110610a3057610a30610e96565b5f918252602090912001546002805473ffffffffffffffffffffffffffffffffffffffff9092169183908110610a6857610a68610e96565b905f5260205f20015f6101000a81548173ffffffffffffffffffffffffffffffffffffffff021916908373ffffffffffffffffffffffffffffffffffffffff1602179055506002805480610abe57610abe610efb565b5f8281526020812082017fffffffffffffffffffffffffffffffffffffffffffffffffffffffffffffffff90810180547fffffffffffffffffffffffff0000000000000000000000000000000000000000169055909101909155604051339173ffffffffffffffffffffffffffffffffffffffff8516917f1f32c1b084e2de0713b8fb16bd46bb9df710a3dbeae2f3ca93af46e016dcc6b09190a35050565b60405173ffffffffffffffffffffffffffffffffffffffff8084166024830152821660448201526060907f1de45ad100000000000000000000000000000000000000000000000000000000906064015b604080517fffffffffffffffffffffffffffffffffffffffffffffffffffffffffffffffe08184030181529190526020810180517bffffffffffffffffffffffffffffffffffffffffffffffffffffffff167fffffffff000000000000000000000000000000000000000000000000000000009093169290921790915290505b92915050565b60405173ffffffffffffffffffffffffffffffffffffffff821660248201526060907fde16f1a00000000000000000000000000000000000000000000000000000000090604401610856565b60405173ffffffffffffffffffffffffffffffffffffffff821660248201526060907fb65a25b90000000000000000000000000000000000000000000000000000000090604401610856565b60405160248101839052604481018290526060907fe9f837710000000000000000000000000000000000000000000000000000000090606401610bad565b60405173ffffffffffffffffffffffffffffffffffffffff8084166024830152821660448201526060907f140a84db0000000000000000000000000000000000000000000000000000000090606401610bad565b73ffffffffffffffffffffffffffffffffffffffff8116811461025b575f5ffd5b5f60208284031215610d8e575f5ffd5b8135610d9981610d5d565b9392505050565b5f60208284031215610db0575f5ffd5b5035919050565b5f5f5f60608486031215610dc9575f5ffd5b8335610dd481610d5d565b92506020840135610de481610d5d565b929592945050506040919091013590565b5f5f60408385031215610e06575f5ffd5b8235610e1181610d5d565b946020939093013593505050565b602080825282518282018190525f918401906040840190835b81811015610e6c57835173ffffffffffffffffffffffffffffffffffffffff16835260209384019390920191600101610e38565b509095945050505050565b5f60208284031215610e87575f5ffd5b81518015158114610d99575f5ffd5b7f4e487b71000000000000000000000000000000000000000000000000000000005f52603260045260245ffd5b81810381811115610c2d577f4e487b71000000000000000000000000000000000000000000000000000000005f52601160045260245ffd5b7f4e487b71000000000000000000000000000000000000000000000000000000005f52603160045260245ffdfea2646970667358221220fb3a69746fa1fdcff09fbe93c8e140a59c4c4b6b4b8a65683990f47907153ec164736f6c634300081c0033",
  "linkReferences": {},
  "deployedLinkReferences": {}
}