{
  "_format": "hh-sol-artifact-1",
  "contractName": "TestFixinProtocolFees",
  "sourceName": "contracts/test/TestFixinProtocolFees.sol",
  "abi": [
    {
      "inputs": [
        {
          "internalType": "contract IEtherToken",
          "name": "weth",
          "type": "address"
        },
        {
          "internalType": "contract IStaking",
          "name": "staking",
          "type": "address"
        },
        {
          "internalType": "contract FeeCollectorController",
          "name": "feeCollectorController",
          "type": "address"
        },
        {
          "internalType": "uint32",
          "name": "protocolFeeMultiplier",
          "type": "uint32"
        }
      ],
      "stateMutability": "nonpayable",
      "type": "constructor"
    },
    {
      "inputs": [],
      "name": "PROTOCOL_FEE_MULTIPLIER",
      "outputs": [
        {
          "internalType": "uint32",
          "name": "",
          "type": "uint32"
        }
      ],
      "stateMutability": "view",
      "type": "function"
    },
    {
      "inputs": [
        {
          "internalType": "bytes32",
          "name": "poolId",
          "type": "bytes32"
        }
      ],
      "name": "collectProtocolFee",
      "outputs": [],
      "stateMutability": "payable",
      "type": "function"
    },
    {
      "inputs": [
        {
          "internalType": "bytes32",
          "name": "poolId",
          "type": "bytes32"
        }
      ],
      "name": "getFeeCollector",
      "outputs": [
        {
          "internalType": "contract FeeCollector",
          "name": "",
          "type": "address"
        }
      ],
      "stateMutability": "view",
      "type": "function"
    },
    {
      "inputs": [],
      "name": "getSingleProtocolFee",
      "outputs": [
        {
          "internalType": "uint256",
          "name": "protocolFeeAmount",
          "type": "uint256"
        }
      ],
      "stateMutability": "view",
      "type": "function"
    },
    {
      "inputs": [
        {
          "internalType": "bytes32",
          "name": "poolId",
          "type": "bytes32"
        }
      ],
      "name": "transferFeesForPool",
      "outputs": [],
      "stateMutability": "nonpayable",
      "type": "function"
    }
  ],
  "bytecode": "0x61012060405234801561001157600080fd5b50604051610e7c380380610e7c83398181016040528101906100339190610298565b838383838173ffffffffffffffffffffffffffffffffffffffff1660a08173ffffffffffffffffffffffffffffffffffffffff16815250508173ffffffffffffffffffffffffffffffffffffffff1663f2541a8c6040518163ffffffff1660e01b8152600401602060405180830381865afa1580156100b6573d6000803e3d6000fd5b505050506040513d601f19601f820116820180604052508101906100da9190610335565b60c081815250508373ffffffffffffffffffffffffffffffffffffffff1660e08173ffffffffffffffffffffffffffffffffffffffff16815250508273ffffffffffffffffffffffffffffffffffffffff166101008173ffffffffffffffffffffffffffffffffffffffff16815250508063ffffffff1660808163ffffffff16815250505050505050505050610362565b600080fd5b600073ffffffffffffffffffffffffffffffffffffffff82169050919050565b600061019b82610170565b9050919050565b60006101ad82610190565b9050919050565b6101bd816101a2565b81146101c857600080fd5b50565b6000815190506101da816101b4565b92915050565b60006101eb82610190565b9050919050565b6101fb816101e0565b811461020657600080fd5b50565b600081519050610218816101f2565b92915050565b600061022982610190565b9050919050565b6102398161021e565b811461024457600080fd5b50565b60008151905061025681610230565b92915050565b600063ffffffff82169050919050565b6102758161025c565b811461028057600080fd5b50565b6000815190506102928161026c565b92915050565b600080600080608085870312156102b2576102b161016b565b5b60006102c0878288016101cb565b94505060206102d187828801610209565b93505060406102e287828801610247565b92505060606102f387828801610283565b91505092959194509250565b6000819050919050565b610312816102ff565b811461031d57600080fd5b50565b60008151905061032f81610309565b92915050565b60006020828403121561034b5761034a61016b565b5b600061035984828501610320565b91505092915050565b60805160a05160c05160e05161010051610ac86103b4600039600061043f0152600061039a0152600061029101526000818161027001526102fa01526000818161014801526102c20152610ac86000f3fe60806040526004361061004a5760003560e01c80634900c02f1461004f578063713192b41461006b578063a0edcef5146100a8578063b7bf197b146100d3578063e707b1f7146100fe575b600080fd5b61006960048036038101906100649190610558565b610127565b005b34801561007757600080fd5b50610092600480360381019061008d9190610558565b610134565b60405161009f9190610604565b60405180910390f35b3480156100b457600080fd5b506100bd610146565b6040516100ca919061063e565b60405180910390f35b3480156100df57600080fd5b506100e861016a565b6040516100f59190610672565b60405180910390f35b34801561010a57600080fd5b5061012560048036038101906101209190610558565b610179565b005b61013081610185565b5050565b600061013f82610269565b9050919050565b7f000000000000000000000000000000000000000000000000000000000000000081565b60006101746102bd565b905090565b610182816102f6565b50565b6000806101906102bd565b9050600081036101a4576000915050610264565b60006101af84610269565b905060008173ffffffffffffffffffffffffffffffffffffffff16836040516101d7906106be565b60006040518083038185875af1925050503d8060008114610214576040519150601f19603f3d011682016040523d82523d6000602084013e610219565b606091505b505090508061025d576040517f08c379a000000000000000000000000000000000000000000000000000000000815260040161025490610756565b60405180910390fd5b8293505050505b919050565b60006102b67f00000000000000000000000000000000000000000000000000000000000000007f0000000000000000000000000000000000000000000000000000000000000000846104de565b9050919050565b60003a7f000000000000000000000000000000000000000000000000000000000000000063ffffffff166102f191906107a5565b905090565b60007f000000000000000000000000000000000000000000000000000000000000000073ffffffffffffffffffffffffffffffffffffffff1663319bed9a836040518263ffffffff1660e01b815260040161035191906107f6565b6020604051808303816000875af1158015610370573d6000803e3d6000fd5b505050506040513d601f19601f820116820180604052508101906103949190610861565b905060007f000000000000000000000000000000000000000000000000000000000000000073ffffffffffffffffffffffffffffffffffffffff166370a08231836040518263ffffffff1660e01b81526004016103f191906108af565b602060405180830381865afa15801561040e573d6000803e3d6000fd5b505050506040513d601f19601f8201168201806040525081019061043291906108f6565b905060018111156104d9577f000000000000000000000000000000000000000000000000000000000000000073ffffffffffffffffffffffffffffffffffffffff1663a3b4a32783846001856104889190610923565b6040518463ffffffff1660e01b81526004016104a693929190610957565b600060405180830381600087803b1580156104c057600080fd5b505af11580156104d4573d6000803e3d6000fd5b505050505b505050565b600060ff60f81b8483856040516020016104fb9493929190610a44565b6040516020818303038152906040528051906020012060001c90509392505050565b600080fd5b6000819050919050565b61053581610522565b811461054057600080fd5b50565b6000813590506105528161052c565b92915050565b60006020828403121561056e5761056d61051d565b5b600061057c84828501610543565b91505092915050565b600073ffffffffffffffffffffffffffffffffffffffff82169050919050565b6000819050919050565b60006105ca6105c56105c084610585565b6105a5565b610585565b9050919050565b60006105dc826105af565b9050919050565b60006105ee826105d1565b9050919050565b6105fe816105e3565b82525050565b600060208201905061061960008301846105f5565b92915050565b600063ffffffff82169050919050565b6106388161061f565b82525050565b6000602082019050610653600083018461062f565b92915050565b6000819050919050565b61066c81610659565b82525050565b60006020820190506106876000830184610663565b92915050565b600081905092915050565b50565b60006106a860008361068d565b91506106b382610698565b600082019050919050565b60006106c98261069b565b9150819050919050565b600082825260208201905092915050565b7f466978696e50726f746f636f6c466565732f45544845525f5452414e5346455260008201527f5f46414c49454400000000000000000000000000000000000000000000000000602082015250565b60006107406027836106d3565b915061074b826106e4565b604082019050919050565b6000602082019050818103600083015261076f81610733565b9050919050565b7f4e487b7100000000000000000000000000000000000000000000000000000000600052601160045260246000fd5b60006107b082610659565b91506107bb83610659565b92508282026107c981610659565b915082820484148315176107e0576107df610776565b5b5092915050565b6107f081610522565b82525050565b600060208201905061080b60008301846107e7565b92915050565b600061081c82610585565b9050919050565b600061082e82610811565b9050919050565b61083e81610823565b811461084957600080fd5b50565b60008151905061085b81610835565b92915050565b6000602082840312156108775761087661051d565b5b60006108858482850161084c565b91505092915050565b600061089982610585565b9050919050565b6108a98161088e565b82525050565b60006020820190506108c460008301846108a0565b92915050565b6108d381610659565b81146108de57600080fd5b50565b6000815190506108f0816108ca565b92915050565b60006020828403121561090c5761090b61051d565b5b600061091a848285016108e1565b91505092915050565b600061092e82610659565b915061093983610659565b925082820390508181111561095157610950610776565b5b92915050565b600060608201905061096c60008301866108a0565b61097960208301856108a0565b6109866040830184610663565b949350505050565b60007fff0000000000000000000000000000000000000000000000000000000000000082169050919050565b6000819050919050565b6109d56109d08261098e565b6109ba565b82525050565b60008160601b9050919050565b60006109f3826109db565b9050919050565b6000610a05826109e8565b9050919050565b610a1d610a188261088e565b6109fa565b82525050565b6000819050919050565b610a3e610a3982610522565b610a23565b82525050565b6000610a5082876109c4565b600182019150610a608286610a0c565b601482019150610a708285610a2d565b602082019150610a808284610a2d565b6020820191508190509594505050505056fea2646970667358221220ac6b21dde34d95011b1ade79c6a6720e53968cda469c9be08c7beaa7ee61c48264736f6c634300081c0033",
  "linkReferences": {},
  "deployedLinkReferences": {}
}