{
  "_format": "hh-sol-artifact-1",
  "contractName": "TestFixinProtocolFees",
  "sourceName": "contracts/test/TestFixinProtocolFees.sol",
  "abi": [
    {
      "inputs": [
        {
          "internalType": "contract IEtherToken",
          "name": "weth",
          "type": "address"
        },
        {
          "internalType": "contract IStaking",
          "name": "staking",
          "type": "address"
        },
        {
          "internalType": "contract FeeCollectorController",
          "name": "feeCollectorController",
          "type": "address"
        },
        {
          "internalType": "uint32",
          "name": "protocolFeeMultiplier",
          "type": "uint32"
        }
      ],
      "stateMutability": "nonpayable",
      "type": "constructor"
    },
    {
      "inputs": [],
      "name": "PROTOCOL_FEE_MULTIPLIER",
      "outputs": [
        {
          "internalType": "uint32",
          "name": "",
          "type": "uint32"
        }
      ],
      "stateMutability": "view",
      "type": "function"
    },
    {
      "inputs": [
        {
          "internalType": "bytes32",
          "name": "poolId",
          "type": "bytes32"
        }
      ],
      "name": "collectProtocolFee",
      "outputs": [],
      "stateMutability": "payable",
      "type": "function"
    },
    {
      "inputs": [
        {
          "internalType": "bytes32",
          "name": "poolId",
          "type": "bytes32"
        }
      ],
      "name": "getFeeCollector",
      "outputs": [
        {
          "internalType": "contract FeeCollector",
          "name": "",
          "type": "address"
        }
      ],
      "stateMutability": "view",
      "type": "function"
    },
    {
      "inputs": [],
      "name": "getSingleProtocolFee",
      "outputs": [
        {
          "internalType": "uint256",
          "name": "protocolFeeAmount",
          "type": "uint256"
        }
      ],
      "stateMutability": "view",
      "type": "function"
    },
    {
      "inputs": [
        {
          "internalType": "bytes32",
          "name": "poolId",
          "type": "bytes32"
        }
      ],
      "name": "transferFeesForPool",
      "outputs": [],
      "stateMutability": "nonpayable",
      "type": "function"
    }
  ],
  "bytecode": "0x610120604052348015610010575f5ffd5b5060405161075a38038061075a83398101604081905261002f916100f1565b83838383816001600160a01b031660a0816001600160a01b031681525050816001600160a01b031663f2541a8c6040518163ffffffff1660e01b8152600401602060405180830381865afa158015610089573d5f5f3e3d5ffd5b505050506040513d601f19601f820116820180604052508101906100ad9190610155565b60c0526001600160a01b0393841660e052919092166101005263ffffffff166080525061016c9350505050565b6001600160a01b03811681146100ee575f5ffd5b50565b5f5f5f5f60808587031215610104575f5ffd5b845161010f816100da565b6020860151909450610120816100da565b6040860151909350610131816100da565b606086015190925063ffffffff8116811461014a575f5ffd5b939692955090935050565b5f60208284031215610165575f5ffd5b5051919050565b60805160a05160c05160e051610100516105a46101b65f395f61043b01525f6103bd01525f61029801525f8181610259015261032701525f818160af01526102ea01526105a45ff3fe608060405260043610610049575f3560e01c80634900c02f1461004d578063713192b414610062578063a0edcef51461009e578063b7bf197b146100e6578063e707b1f714610108575b5f5ffd5b61006061005b3660046104d5565b610127565b005b34801561006d575f5ffd5b5061008161007c3660046104d5565b610134565b6040516001600160a01b0390911681526020015b60405180910390f35b3480156100a9575f5ffd5b506100d17f000000000000000000000000000000000000000000000000000000000000000081565b60405163ffffffff9091168152602001610095565b3480156100f1575f5ffd5b506100fa610144565b604051908152602001610095565b348015610113575f5ffd5b506100606101223660046104d5565b610152565b6101308161015e565b5050565b5f61013e82610241565b92915050565b5f61014d6102de565b905090565b61015b8161030f565b50565b5f5f6101686102de565b9050805f0361017957505f92915050565b5f61018384610241565b90505f816001600160a01b0316836040515f6040518083038185875af1925050503d805f81146101ce576040519150601f19603f3d011682016040523d82523d5f602084013e6101d3565b606091505b50509050806102385760405162461bcd60e51b815260206004820152602760248201527f466978696e50726f746f636f6c466565732f45544845525f5452414e5346455260448201526617d1905312515160ca1b606482015260840160405180910390fd5b50909392505050565b604080516001600160f81b03196020808301919091527f000000000000000000000000000000000000000000000000000000000000000060601b6bffffffffffffffffffffffff19166021830152603582018490527f000000000000000000000000000000000000000000000000000000000000000060558084019190915283518084039091018152607590920190925280519101205f9061013e565b5f61014d3a63ffffffff7f000000000000000000000000000000000000000000000000000000000000000016610500565b6040516318cdf6cd60e11b8152600481018290525f907f00000000000000000000000000000000000000000000000000000000000000006001600160a01b03169063319bed9a906024016020604051808303815f875af1158015610375573d5f5f3e3d5ffd5b505050506040513d601f19601f820116820180604052508101906103999190610517565b6040516370a0823160e01b81526001600160a01b0380831660048301529192505f917f000000000000000000000000000000000000000000000000000000000000000016906370a0823190602401602060405180830381865afa158015610402573d5f5f3e3d5ffd5b505050506040513d601f19601f820116820180604052508101906104269190610544565b905060018111156104d0576001600160a01b037f00000000000000000000000000000000000000000000000000000000000000001663a3b4a327838061046d60018661055b565b6040516001600160e01b031960e086901b1681526001600160a01b03938416600482015292909116602483015260448201526064015f604051808303815f87803b1580156104b9575f5ffd5b505af11580156104cb573d5f5f3e3d5ffd5b505050505b505050565b5f602082840312156104e5575f5ffd5b5035919050565b634e487b7160e01b5f52601160045260245ffd5b808202811582820484141761013e5761013e6104ec565b5f60208284031215610527575f5ffd5b81516001600160a01b038116811461053d575f5ffd5b9392505050565b5f60208284031215610554575f5ffd5b5051919050565b8181038181111561013e5761013e6104ec56fea2646970667358221220f18316e958eb32f8a45114d01960d056ec26564927a035a23b6b1111282a5e4a64736f6c634300081c0033",
  "linkReferences": {},
  "deployedLinkReferences": {}
}