{
  "_format": "hh-sol-artifact-1",
  "contractName": "ERC721OrdersFeature",
  "sourceName": "contracts/src/features/nft_orders/ERC721OrdersFeature.sol",
  "abi": [
    {
      "inputs": [
        {
          "internalType": "address",
          "name": "zeroExAddress",
          "type": "address"
        },
        {
          "internalType": "contract IEtherToken",
          "name": "weth",
          "type": "address"
        }
      ],
      "stateMutability": "nonpayable",
      "type": "constructor"
    },
    {
      "anonymous": false,
      "inputs": [
        {
          "indexed": false,
          "internalType": "address",
          "name": "maker",
          "type": "address"
        },
        {
          "indexed": false,
          "internalType": "uint256",
          "name": "nonce",
          "type": "uint256"
        }
      ],
      "name": "ERC721OrderCancelled",
      "type": "event"
    },
    {
      "anonymous": false,
      "inputs": [
        {
          "indexed": false,
          "internalType": "enum LibNFTOrder.TradeDirection",
          "name": "direction",
          "type": "uint8"
        },
        {
          "indexed": false,
          "internalType": "address",
          "name": "maker",
          "type": "address"
        },
        {
          "indexed": false,
          "internalType": "address",
          "name": "taker",
          "type": "address"
        },
        {
          "indexed": false,
          "internalType": "uint256",
          "name": "nonce",
          "type": "uint256"
        },
        {
          "indexed": false,
          "internalType": "contract IERC20Token",
          "name": "erc20Token",
          "type": "address"
        },
        {
          "indexed": false,
          "internalType": "uint256",
          "name": "erc20TokenAmount",
          "type": "uint256"
        },
        {
          "indexed": false,
          "internalType": "contract IERC721Token",
          "name": "erc721Token",
          "type": "address"
        },
        {
          "indexed": false,
          "internalType": "uint256",
          "name": "erc721TokenId",
          "type": "uint256"
        },
        {
          "indexed": false,
          "internalType": "address",
          "name": "matcher",
          "type": "address"
        }
      ],
      "name": "ERC721OrderFilled",
      "type": "event"
    },
    {
      "anonymous": false,
      "inputs": [
        {
          "indexed": false,
          "internalType": "enum LibNFTOrder.TradeDirection",
          "name": "direction",
          "type": "uint8"
        },
        {
          "indexed": false,
          "internalType": "address",
          "name": "maker",
          "type": "address"
        },
        {
          "indexed": false,
          "internalType": "address",
          "name": "taker",
          "type": "address"
        },
        {
          "indexed": false,
          "internalType": "uint256",
          "name": "expiry",
          "type": "uint256"
        },
        {
          "indexed": false,
          "internalType": "uint256",
          "name": "nonce",
          "type": "uint256"
        },
        {
          "indexed": false,
          "internalType": "contract IERC20Token",
          "name": "erc20Token",
          "type": "address"
        },
        {
          "indexed": false,
          "internalType": "uint256",
          "name": "erc20TokenAmount",
          "type": "uint256"
        },
        {
          "components": [
            {
              "internalType": "address",
              "name": "recipient",
              "type": "address"
            },
            {
              "internalType": "uint256",
              "name": "amount",
              "type": "uint256"
            },
            {
              "internalType": "bytes",
              "name": "feeData",
              "type": "bytes"
            }
          ],
          "indexed": false,
          "internalType": "struct LibNFTOrder.Fee[]",
          "name": "fees",
          "type": "tuple[]"
        },
        {
          "indexed": false,
          "internalType": "contract IERC721Token",
          "name": "erc721Token",
          "type": "address"
        },
        {
          "indexed": false,
          "internalType": "uint256",
          "name": "erc721TokenId",
          "type": "uint256"
        },
        {
          "components": [
            {
              "internalType": "contract IPropertyValidator",
              "name": "propertyValidator",
              "type": "address"
            },
            {
              "internalType": "bytes",
              "name": "propertyData",
              "type": "bytes"
            }
          ],
          "indexed": false,
          "internalType": "struct LibNFTOrder.Property[]",
          "name": "erc721TokenProperties",
          "type": "tuple[]"
        }
      ],
      "name": "ERC721OrderPreSigned",
      "type": "event"
    },
    {
      "inputs": [],
      "name": "EIP712_DOMAIN_SEPARATOR",
      "outputs": [
        {
          "internalType": "bytes32",
          "name": "",
          "type": "bytes32"
        }
      ],
      "stateMutability": "view",
      "type": "function"
    },
    {
      "inputs": [],
      "name": "FEATURE_NAME",
      "outputs": [
        {
          "internalType": "string",
          "name": "",
          "type": "string"
        }
      ],
      "stateMutability": "view",
      "type": "function"
    },
    {
      "inputs": [],
      "name": "FEATURE_VERSION",
      "outputs": [
        {
          "internalType": "uint256",
          "name": "",
          "type": "uint256"
        }
      ],
      "stateMutability": "view",
      "type": "function"
    },
    {
      "inputs": [
        {
          "components": [
            {
              "internalType": "enum LibNFTOrder.TradeDirection",
              "name": "direction",
              "type": "uint8"
            },
            {
              "internalType": "address",
              "name": "maker",
              "type": "address"
            },
            {
              "internalType": "address",
              "name": "taker",
              "type": "address"
            },
            {
              "internalType": "uint256",
              "name": "expiry",
              "type": "uint256"
            },
            {
              "internalType": "uint256",
              "name": "nonce",
              "type": "uint256"
            },
            {
              "internalType": "contract IERC20Token",
              "name": "erc20Token",
              "type": "address"
            },
            {
              "internalType": "uint256",
              "name": "erc20TokenAmount",
              "type": "uint256"
            },
            {
              "components": [
                {
                  "internalType": "address",
                  "name": "recipient",
                  "type": "address"
                },
                {
                  "internalType": "uint256",
                  "name": "amount",
                  "type": "uint256"
                },
                {
                  "internalType": "bytes",
                  "name": "feeData",
                  "type": "bytes"
                }
              ],
              "internalType": "struct LibNFTOrder.Fee[]",
              "name": "fees",
              "type": "tuple[]"
            },
            {
              "internalType": "contract IERC721Token",
              "name": "erc721Token",
              "type": "address"
            },
            {
              "internalType": "uint256",
              "name": "erc721TokenId",
              "type": "uint256"
            },
            {
              "components": [
                {
                  "internalType": "contract IPropertyValidator",
                  "name": "propertyValidator",
                  "type": "address"
                },
                {
                  "internalType": "bytes",
                  "name": "propertyData",
                  "type": "bytes"
                }
              ],
              "internalType": "struct LibNFTOrder.Property[]",
              "name": "erc721TokenProperties",
              "type": "tuple[]"
            }
          ],
          "internalType": "struct LibNFTOrder.ERC721Order",
          "name": "sellOrder",
          "type": "tuple"
        },
        {
          "components": [
            {
              "internalType": "enum LibSignature.SignatureType",
              "name": "signatureType",
              "type": "uint8"
            },
            {
              "internalType": "uint8",
              "name": "v",
              "type": "uint8"
            },
            {
              "internalType": "bytes32",
              "name": "r",
              "type": "bytes32"
            },
            {
              "internalType": "bytes32",
              "name": "s",
              "type": "bytes32"
            }
          ],
          "internalType": "struct LibSignature.Signature",
          "name": "signature",
          "type": "tuple"
        },
        {
          "internalType": "uint256",
          "name": "ethAvailable",
          "type": "uint256"
        },
        {
          "internalType": "bytes",
          "name": "takerCallbackData",
          "type": "bytes"
        }
      ],
      "name": "_buyERC721",
      "outputs": [],
      "stateMutability": "payable",
      "type": "function"
    },
    {
      "inputs": [
        {
          "components": [
            {
              "internalType": "enum LibNFTOrder.TradeDirection",
              "name": "direction",
              "type": "uint8"
            },
            {
              "internalType": "address",
              "name": "maker",
              "type": "address"
            },
            {
              "internalType": "address",
              "name": "taker",
              "type": "address"
            },
            {
              "internalType": "uint256",
              "name": "expiry",
              "type": "uint256"
            },
            {
              "internalType": "uint256",
              "name": "nonce",
              "type": "uint256"
            },
            {
              "internalType": "contract IERC20Token",
              "name": "erc20Token",
              "type": "address"
            },
            {
              "internalType": "uint256",
              "name": "erc20TokenAmount",
              "type": "uint256"
            },
            {
              "components": [
                {
                  "internalType": "address",
                  "name": "recipient",
                  "type": "address"
                },
                {
                  "internalType": "uint256",
                  "name": "amount",
                  "type": "uint256"
                },
                {
                  "internalType": "bytes",
                  "name": "feeData",
                  "type": "bytes"
                }
              ],
              "internalType": "struct LibNFTOrder.Fee[]",
              "name": "fees",
              "type": "tuple[]"
            },
            {
              "internalType": "contract IERC721Token",
              "name": "erc721Token",
              "type": "address"
            },
            {
              "internalType": "uint256",
              "name": "erc721TokenId",
              "type": "uint256"
            },
            {
              "components": [
                {
                  "internalType": "contract IPropertyValidator",
                  "name": "propertyValidator",
                  "type": "address"
                },
                {
                  "internalType": "bytes",
                  "name": "propertyData",
                  "type": "bytes"
                }
              ],
              "internalType": "struct LibNFTOrder.Property[]",
              "name": "erc721TokenProperties",
              "type": "tuple[]"
            }
          ],
          "internalType": "struct LibNFTOrder.ERC721Order[]",
          "name": "sellOrders",
          "type": "tuple[]"
        },
        {
          "components": [
            {
              "internalType": "enum LibSignature.SignatureType",
              "name": "signatureType",
              "type": "uint8"
            },
            {
              "internalType": "uint8",
              "name": "v",
              "type": "uint8"
            },
            {
              "internalType": "bytes32",
              "name": "r",
              "type": "bytes32"
            },
            {
              "internalType": "bytes32",
              "name": "s",
              "type": "bytes32"
            }
          ],
          "internalType": "struct LibSignature.Signature[]",
          "name": "signatures",
          "type": "tuple[]"
        },
        {
          "internalType": "bytes[]",
          "name": "callbackData",
          "type": "bytes[]"
        },
        {
          "internalType": "bool",
          "name": "revertIfIncomplete",
          "type": "bool"
        }
      ],
      "name": "batchBuyERC721s",
      "outputs": [
        {
          "internalType": "bool[]",
          "name": "successes",
          "type": "bool[]"
        }
      ],
      "stateMutability": "payable",
      "type": "function"
    },
    {
      "inputs": [
        {
          "internalType": "uint256[]",
          "name": "orderNonces",
          "type": "uint256[]"
        }
      ],
      "name": "batchCancelERC721Orders",
      "outputs": [],
      "stateMutability": "nonpayable",
      "type": "function"
    },
    {
      "inputs": [
        {
          "components": [
            {
              "internalType": "enum LibNFTOrder.TradeDirection",
              "name": "direction",
              "type": "uint8"
            },
            {
              "internalType": "address",
              "name": "maker",
              "type": "address"
            },
            {
              "internalType": "address",
              "name": "taker",
              "type": "address"
            },
            {
              "internalType": "uint256",
              "name": "expiry",
              "type": "uint256"
            },
            {
              "internalType": "uint256",
              "name": "nonce",
              "type": "uint256"
            },
            {
              "internalType": "contract IERC20Token",
              "name": "erc20Token",
              "type": "address"
            },
            {
              "internalType": "uint256",
              "name": "erc20TokenAmount",
              "type": "uint256"
            },
            {
              "components": [
                {
                  "internalType": "address",
                  "name": "recipient",
                  "type": "address"
                },
                {
                  "internalType": "uint256",
                  "name": "amount",
                  "type": "uint256"
                },
                {
                  "internalType": "bytes",
                  "name": "feeData",
                  "type": "bytes"
                }
              ],
              "internalType": "struct LibNFTOrder.Fee[]",
              "name": "fees",
              "type": "tuple[]"
            },
            {
              "internalType": "contract IERC721Token",
              "name": "erc721Token",
              "type": "address"
            },
            {
              "internalType": "uint256",
              "name": "erc721TokenId",
              "type": "uint256"
            },
            {
              "components": [
                {
                  "internalType": "contract IPropertyValidator",
                  "name": "propertyValidator",
                  "type": "address"
                },
                {
                  "internalType": "bytes",
                  "name": "propertyData",
                  "type": "bytes"
                }
              ],
              "internalType": "struct LibNFTOrder.Property[]",
              "name": "erc721TokenProperties",
              "type": "tuple[]"
            }
          ],
          "internalType": "struct LibNFTOrder.ERC721Order[]",
          "name": "sellOrders",
          "type": "tuple[]"
        },
        {
          "components": [
            {
              "internalType": "enum LibNFTOrder.TradeDirection",
              "name": "direction",
              "type": "uint8"
            },
            {
              "internalType": "address",
              "name": "maker",
              "type": "address"
            },
            {
              "internalType": "address",
              "name": "taker",
              "type": "address"
            },
            {
              "internalType": "uint256",
              "name": "expiry",
              "type": "uint256"
            },
            {
              "internalType": "uint256",
              "name": "nonce",
              "type": "uint256"
            },
            {
              "internalType": "contract IERC20Token",
              "name": "erc20Token",
              "type": "address"
            },
            {
              "internalType": "uint256",
              "name": "erc20TokenAmount",
              "type": "uint256"
            },
            {
              "components": [
                {
                  "internalType": "address",
                  "name": "recipient",
                  "type": "address"
                },
                {
                  "internalType": "uint256",
                  "name": "amount",
                  "type": "uint256"
                },
                {
                  "internalType": "bytes",
                  "name": "feeData",
                  "type": "bytes"
                }
              ],
              "internalType": "struct LibNFTOrder.Fee[]",
              "name": "fees",
              "type": "tuple[]"
            },
            {
              "internalType": "contract IERC721Token",
              "name": "erc721Token",
              "type": "address"
            },
            {
              "internalType": "uint256",
              "name": "erc721TokenId",
              "type": "uint256"
            },
            {
              "components": [
                {
                  "internalType": "contract IPropertyValidator",
                  "name": "propertyValidator",
                  "type": "address"
                },
                {
                  "internalType": "bytes",
                  "name": "propertyData",
                  "type": "bytes"
                }
              ],
              "internalType": "struct LibNFTOrder.Property[]",
              "name": "erc721TokenProperties",
              "type": "tuple[]"
            }
          ],
          "internalType": "struct LibNFTOrder.ERC721Order[]",
          "name": "buyOrders",
          "type": "tuple[]"
        },
        {
          "components": [
            {
              "internalType": "enum LibSignature.SignatureType",
              "name": "signatureType",
              "type": "uint8"
            },
            {
              "internalType": "uint8",
              "name": "v",
              "type": "uint8"
            },
            {
              "internalType": "bytes32",
              "name": "r",
              "type": "bytes32"
            },
            {
              "internalType": "bytes32",
              "name": "s",
              "type": "bytes32"
            }
          ],
          "internalType": "struct LibSignature.Signature[]",
          "name": "sellOrderSignatures",
          "type": "tuple[]"
        },
        {
          "components": [
            {
              "internalType": "enum LibSignature.SignatureType",
              "name": "signatureType",
              "type": "uint8"
            },
            {
              "internalType": "uint8",
              "name": "v",
              "type": "uint8"
            },
            {
              "internalType": "bytes32",
              "name": "r",
              "type": "bytes32"
            },
            {
              "internalType": "bytes32",
              "name": "s",
              "type": "bytes32"
            }
          ],
          "internalType": "struct LibSignature.Signature[]",
          "name": "buyOrderSignatures",
          "type": "tuple[]"
        }
      ],
      "name": "batchMatchERC721Orders",
      "outputs": [
        {
          "internalType": "uint256[]",
          "name": "profits",
          "type": "uint256[]"
        },
        {
          "internalType": "bool[]",
          "name": "successes",
          "type": "bool[]"
        }
      ],
      "stateMutability": "nonpayable",
      "type": "function"
    },
    {
      "inputs": [
        {
          "components": [
            {
              "internalType": "enum LibNFTOrder.TradeDirection",
              "name": "direction",
              "type": "uint8"
            },
            {
              "internalType": "address",
              "name": "maker",
              "type": "address"
            },
            {
              "internalType": "address",
              "name": "taker",
              "type": "address"
            },
            {
              "internalType": "uint256",
              "name": "expiry",
              "type": "uint256"
            },
            {
              "internalType": "uint256",
              "name": "nonce",
              "type": "uint256"
            },
            {
              "internalType": "contract IERC20Token",
              "name": "erc20Token",
              "type": "address"
            },
            {
              "internalType": "uint256",
              "name": "erc20TokenAmount",
              "type": "uint256"
            },
            {
              "components": [
                {
                  "internalType": "address",
                  "name": "recipient",
                  "type": "address"
                },
                {
                  "internalType": "uint256",
                  "name": "amount",
                  "type": "uint256"
                },
                {
                  "internalType": "bytes",
                  "name": "feeData",
                  "type": "bytes"
                }
              ],
              "internalType": "struct LibNFTOrder.Fee[]",
              "name": "fees",
              "type": "tuple[]"
            },
            {
              "internalType": "contract IERC721Token",
              "name": "erc721Token",
              "type": "address"
            },
            {
              "internalType": "uint256",
              "name": "erc721TokenId",
              "type": "uint256"
            },
            {
              "components": [
                {
                  "internalType": "contract IPropertyValidator",
                  "name": "propertyValidator",
                  "type": "address"
                },
                {
                  "internalType": "bytes",
                  "name": "propertyData",
                  "type": "bytes"
                }
              ],
              "internalType": "struct LibNFTOrder.Property[]",
              "name": "erc721TokenProperties",
              "type": "tuple[]"
            }
          ],
          "internalType": "struct LibNFTOrder.ERC721Order",
          "name": "sellOrder",
          "type": "tuple"
        },
        {
          "components": [
            {
              "internalType": "enum LibSignature.SignatureType",
              "name": "signatureType",
              "type": "uint8"
            },
            {
              "internalType": "uint8",
              "name": "v",
              "type": "uint8"
            },
            {
              "internalType": "bytes32",
              "name": "r",
              "type": "bytes32"
            },
            {
              "internalType": "bytes32",
              "name": "s",
              "type": "bytes32"
            }
          ],
          "internalType": "struct LibSignature.Signature",
          "name": "signature",
          "type": "tuple"
        },
        {
          "internalType": "bytes",
          "name": "callbackData",
          "type": "bytes"
        }
      ],
      "name": "buyERC721",
      "outputs": [],
      "stateMutability": "payable",
      "type": "function"
    },
    {
      "inputs": [
        {
          "internalType": "uint256",
          "name": "orderNonce",
          "type": "uint256"
        }
      ],
      "name": "cancelERC721Order",
      "outputs": [],
      "stateMutability": "nonpayable",
      "type": "function"
    },
    {
      "inputs": [
        {
          "components": [
            {
              "internalType": "enum LibNFTOrder.TradeDirection",
              "name": "direction",
              "type": "uint8"
            },
            {
              "internalType": "address",
              "name": "maker",
              "type": "address"
            },
            {
              "internalType": "address",
              "name": "taker",
              "type": "address"
            },
            {
              "internalType": "uint256",
              "name": "expiry",
              "type": "uint256"
            },
            {
              "internalType": "uint256",
              "name": "nonce",
              "type": "uint256"
            },
            {
              "internalType": "contract IERC20Token",
              "name": "erc20Token",
              "type": "address"
            },
            {
              "internalType": "uint256",
              "name": "erc20TokenAmount",
              "type": "uint256"
            },
            {
              "components": [
                {
                  "internalType": "address",
                  "name": "recipient",
                  "type": "address"
                },
                {
                  "internalType": "uint256",
                  "name": "amount",
                  "type": "uint256"
                },
                {
                  "internalType": "bytes",
                  "name": "feeData",
                  "type": "bytes"
                }
              ],
              "internalType": "struct LibNFTOrder.Fee[]",
              "name": "fees",
              "type": "tuple[]"
            },
            {
              "internalType": "contract IERC721Token",
              "name": "erc721Token",
              "type": "address"
            },
            {
              "internalType": "uint256",
              "name": "erc721TokenId",
              "type": "uint256"
            },
            {
              "components": [
                {
                  "internalType": "contract IPropertyValidator",
                  "name": "propertyValidator",
                  "type": "address"
                },
                {
                  "internalType": "bytes",
                  "name": "propertyData",
                  "type": "bytes"
                }
              ],
              "internalType": "struct LibNFTOrder.Property[]",
              "name": "erc721TokenProperties",
              "type": "tuple[]"
            }
          ],
          "internalType": "struct LibNFTOrder.ERC721Order",
          "name": "order",
          "type": "tuple"
        }
      ],
      "name": "getERC721OrderHash",
      "outputs": [
        {
          "internalType": "bytes32",
          "name": "orderHash",
          "type": "bytes32"
        }
      ],
      "stateMutability": "view",
      "type": "function"
    },
    {
      "inputs": [
        {
          "components": [
            {
              "internalType": "enum LibNFTOrder.TradeDirection",
              "name": "direction",
              "type": "uint8"
            },
            {
              "internalType": "address",
              "name": "maker",
              "type": "address"
            },
            {
              "internalType": "address",
              "name": "taker",
              "type": "address"
            },
            {
              "internalType": "uint256",
              "name": "expiry",
              "type": "uint256"
            },
            {
              "internalType": "uint256",
              "name": "nonce",
              "type": "uint256"
            },
            {
              "internalType": "contract IERC20Token",
              "name": "erc20Token",
              "type": "address"
            },
            {
              "internalType": "uint256",
              "name": "erc20TokenAmount",
              "type": "uint256"
            },
            {
              "components": [
                {
                  "internalType": "address",
                  "name": "recipient",
                  "type": "address"
                },
                {
                  "internalType": "uint256",
                  "name": "amount",
                  "type": "uint256"
                },
                {
                  "internalType": "bytes",
                  "name": "feeData",
                  "type": "bytes"
                }
              ],
              "internalType": "struct LibNFTOrder.Fee[]",
              "name": "fees",
              "type": "tuple[]"
            },
            {
              "internalType": "contract IERC721Token",
              "name": "erc721Token",
              "type": "address"
            },
            {
              "internalType": "uint256",
              "name": "erc721TokenId",
              "type": "uint256"
            },
            {
              "components": [
                {
                  "internalType": "contract IPropertyValidator",
                  "name": "propertyValidator",
                  "type": "address"
                },
                {
                  "internalType": "bytes",
                  "name": "propertyData",
                  "type": "bytes"
                }
              ],
              "internalType": "struct LibNFTOrder.Property[]",
              "name": "erc721TokenProperties",
              "type": "tuple[]"
            }
          ],
          "internalType": "struct LibNFTOrder.ERC721Order",
          "name": "order",
          "type": "tuple"
        }
      ],
      "name": "getERC721OrderStatus",
      "outputs": [
        {
          "internalType": "enum LibNFTOrder.OrderStatus",
          "name": "status",
          "type": "uint8"
        }
      ],
      "stateMutability": "view",
      "type": "function"
    },
    {
      "inputs": [
        {
          "internalType": "address",
          "name": "maker",
          "type": "address"
        },
        {
          "internalType": "uint248",
          "name": "nonceRange",
          "type": "uint248"
        }
      ],
      "name": "getERC721OrderStatusBitVector",
      "outputs": [
        {
          "internalType": "uint256",
          "name": "bitVector",
          "type": "uint256"
        }
      ],
      "stateMutability": "view",
      "type": "function"
    },
    {
      "inputs": [
        {
          "components": [
            {
              "internalType": "enum LibNFTOrder.TradeDirection",
              "name": "direction",
              "type": "uint8"
            },
            {
              "internalType": "address",
              "name": "maker",
              "type": "address"
            },
            {
              "internalType": "address",
              "name": "taker",
              "type": "address"
            },
            {
              "internalType": "uint256",
              "name": "expiry",
              "type": "uint256"
            },
            {
              "internalType": "uint256",
              "name": "nonce",
              "type": "uint256"
            },
            {
              "internalType": "contract IERC20Token",
              "name": "erc20Token",
              "type": "address"
            },
            {
              "internalType": "uint256",
              "name": "erc20TokenAmount",
              "type": "uint256"
            },
            {
              "components": [
                {
                  "internalType": "address",
                  "name": "recipient",
                  "type": "address"
                },
                {
                  "internalType": "uint256",
                  "name": "amount",
                  "type": "uint256"
                },
                {
                  "internalType": "bytes",
                  "name": "feeData",
                  "type": "bytes"
                }
              ],
              "internalType": "struct LibNFTOrder.Fee[]",
              "name": "fees",
              "type": "tuple[]"
            },
            {
              "internalType": "contract IERC721Token",
              "name": "erc721Token",
              "type": "address"
            },
            {
              "internalType": "uint256",
              "name": "erc721TokenId",
              "type": "uint256"
            },
            {
              "components": [
                {
                  "internalType": "contract IPropertyValidator",
                  "name": "propertyValidator",
                  "type": "address"
                },
                {
                  "internalType": "bytes",
                  "name": "propertyData",
                  "type": "bytes"
                }
              ],
              "internalType": "struct LibNFTOrder.Property[]",
              "name": "erc721TokenProperties",
              "type": "tuple[]"
            }
          ],
          "internalType": "struct LibNFTOrder.ERC721Order",
          "name": "sellOrder",
          "type": "tuple"
        },
        {
          "components": [
            {
              "internalType": "enum LibNFTOrder.TradeDirection",
              "name": "direction",
              "type": "uint8"
            },
            {
              "internalType": "address",
              "name": "maker",
              "type": "address"
            },
            {
              "internalType": "address",
              "name": "taker",
              "type": "address"
            },
            {
              "internalType": "uint256",
              "name": "expiry",
              "type": "uint256"
            },
            {
              "internalType": "uint256",
              "name": "nonce",
              "type": "uint256"
            },
            {
              "internalType": "contract IERC20Token",
              "name": "erc20Token",
              "type": "address"
            },
            {
              "internalType": "uint256",
              "name": "erc20TokenAmount",
              "type": "uint256"
            },
            {
              "components": [
                {
                  "internalType": "address",
                  "name": "recipient",
                  "type": "address"
                },
                {
                  "internalType": "uint256",
                  "name": "amount",
                  "type": "uint256"
                },
                {
                  "internalType": "bytes",
                  "name": "feeData",
                  "type": "bytes"
                }
              ],
              "internalType": "struct LibNFTOrder.Fee[]",
              "name": "fees",
              "type": "tuple[]"
            },
            {
              "internalType": "contract IERC721Token",
              "name": "erc721Token",
              "type": "address"
            },
            {
              "internalType": "uint256",
              "name": "erc721TokenId",
              "type": "uint256"
            },
            {
              "components": [
                {
                  "internalType": "contract IPropertyValidator",
                  "name": "propertyValidator",
                  "type": "address"
                },
                {
                  "internalType": "bytes",
                  "name": "propertyData",
                  "type": "bytes"
                }
              ],
              "internalType": "struct LibNFTOrder.Property[]",
              "name": "erc721TokenProperties",
              "type": "tuple[]"
            }
          ],
          "internalType": "struct LibNFTOrder.ERC721Order",
          "name": "buyOrder",
          "type": "tuple"
        },
        {
          "components": [
            {
              "internalType": "enum LibSignature.SignatureType",
              "name": "signatureType",
              "type": "uint8"
            },
            {
              "internalType": "uint8",
              "name": "v",
              "type": "uint8"
            },
            {
              "internalType": "bytes32",
              "name": "r",
              "type": "bytes32"
            },
            {
              "internalType": "bytes32",
              "name": "s",
              "type": "bytes32"
            }
          ],
          "internalType": "struct LibSignature.Signature",
          "name": "sellOrderSignature",
          "type": "tuple"
        },
        {
          "components": [
            {
              "internalType": "enum LibSignature.SignatureType",
              "name": "signatureType",
              "type": "uint8"
            },
            {
              "internalType": "uint8",
              "name": "v",
              "type": "uint8"
            },
            {
              "internalType": "bytes32",
              "name": "r",
              "type": "bytes32"
            },
            {
              "internalType": "bytes32",
              "name": "s",
              "type": "bytes32"
            }
          ],
          "internalType": "struct LibSignature.Signature",
          "name": "buyOrderSignature",
          "type": "tuple"
        }
      ],
      "name": "matchERC721Orders",
      "outputs": [
        {
          "internalType": "uint256",
          "name": "profit",
          "type": "uint256"
        }
      ],
      "stateMutability": "nonpayable",
      "type": "function"
    },
    {
      "inputs": [],
      "name": "migrate",
      "outputs": [
        {
          "internalType": "bytes4",
          "name": "success",
          "type": "bytes4"
        }
      ],
      "stateMutability": "nonpayable",
      "type": "function"
    },
    {
      "inputs": [
        {
          "internalType": "address",
          "name": "operator",
          "type": "address"
        },
        {
          "internalType": "address",
          "name": "",
          "type": "address"
        },
        {
          "internalType": "uint256",
          "name": "tokenId",
          "type": "uint256"
        },
        {
          "internalType": "bytes",
          "name": "data",
          "type": "bytes"
        }
      ],
      "name": "onERC721Received",
      "outputs": [
        {
          "internalType": "bytes4",
          "name": "success",
          "type": "bytes4"
        }
      ],
      "stateMutability": "nonpayable",
      "type": "function"
    },
    {
      "inputs": [
        {
          "components": [
            {
              "internalType": "enum LibNFTOrder.TradeDirection",
              "name": "direction",
              "type": "uint8"
            },
            {
              "internalType": "address",
              "name": "maker",
              "type": "address"
            },
            {
              "internalType": "address",
              "name": "taker",
              "type": "address"
            },
            {
              "internalType": "uint256",
              "name": "expiry",
              "type": "uint256"
            },
            {
              "internalType": "uint256",
              "name": "nonce",
              "type": "uint256"
            },
            {
              "internalType": "contract IERC20Token",
              "name": "erc20Token",
              "type": "address"
            },
            {
              "internalType": "uint256",
              "name": "erc20TokenAmount",
              "type": "uint256"
            },
            {
              "components": [
                {
                  "internalType": "address",
                  "name": "recipient",
                  "type": "address"
                },
                {
                  "internalType": "uint256",
                  "name": "amount",
                  "type": "uint256"
                },
                {
                  "internalType": "bytes",
                  "name": "feeData",
                  "type": "bytes"
                }
              ],
              "internalType": "struct LibNFTOrder.Fee[]",
              "name": "fees",
              "type": "tuple[]"
            },
            {
              "internalType": "contract IERC721Token",
              "name": "erc721Token",
              "type": "address"
            },
            {
              "internalType": "uint256",
              "name": "erc721TokenId",
              "type": "uint256"
            },
            {
              "components": [
                {
                  "internalType": "contract IPropertyValidator",
                  "name": "propertyValidator",
                  "type": "address"
                },
                {
                  "internalType": "bytes",
                  "name": "propertyData",
                  "type": "bytes"
                }
              ],
              "internalType": "struct LibNFTOrder.Property[]",
              "name": "erc721TokenProperties",
              "type": "tuple[]"
            }
          ],
          "internalType": "struct LibNFTOrder.ERC721Order",
          "name": "order",
          "type": "tuple"
        }
      ],
      "name": "preSignERC721Order",
      "outputs": [],
      "stateMutability": "nonpayable",
      "type": "function"
    },
    {
      "inputs": [
        {
          "components": [
            {
              "internalType": "enum LibNFTOrder.TradeDirection",
              "name": "direction",
              "type": "uint8"
            },
            {
              "internalType": "address",
              "name": "maker",
              "type": "address"
            },
            {
              "internalType": "address",
              "name": "taker",
              "type": "address"
            },
            {
              "internalType": "uint256",
              "name": "expiry",
              "type": "uint256"
            },
            {
              "internalType": "uint256",
              "name": "nonce",
              "type": "uint256"
            },
            {
              "internalType": "contract IERC20Token",
              "name": "erc20Token",
              "type": "address"
            },
            {
              "internalType": "uint256",
              "name": "erc20TokenAmount",
              "type": "uint256"
            },
            {
              "components": [
                {
                  "internalType": "address",
                  "name": "recipient",
                  "type": "address"
                },
                {
                  "internalType": "uint256",
                  "name": "amount",
                  "type": "uint256"
                },
                {
                  "internalType": "bytes",
                  "name": "feeData",
                  "type": "bytes"
                }
              ],
              "internalType": "struct LibNFTOrder.Fee[]",
              "name": "fees",
              "type": "tuple[]"
            },
            {
              "internalType": "contract IERC721Token",
              "name": "erc721Token",
              "type": "address"
            },
            {
              "internalType": "uint256",
              "name": "erc721TokenId",
              "type": "uint256"
            },
            {
              "components": [
                {
                  "internalType": "contract IPropertyValidator",
                  "name": "propertyValidator",
                  "type": "address"
                },
                {
                  "internalType": "bytes",
                  "name": "propertyData",
                  "type": "bytes"
                }
              ],
              "internalType": "struct LibNFTOrder.Property[]",
              "name": "erc721TokenProperties",
              "type": "tuple[]"
            }
          ],
          "internalType": "struct LibNFTOrder.ERC721Order",
          "name": "buyOrder",
          "type": "tuple"
        },
        {
          "components": [
            {
              "internalType": "enum LibSignature.SignatureType",
              "name": "signatureType",
              "type": "uint8"
            },
            {
              "internalType": "uint8",
              "name": "v",
              "type": "uint8"
            },
            {
              "internalType": "bytes32",
              "name": "r",
              "type": "bytes32"
            },
            {
              "internalType": "bytes32",
              "name": "s",
              "type": "bytes32"
            }
          ],
          "internalType": "struct LibSignature.Signature",
          "name": "signature",
          "type": "tuple"
        },
        {
          "internalType": "uint256",
          "name": "erc721TokenId",
          "type": "uint256"
        },
        {
          "internalType": "bool",
          "name": "unwrapNativeToken",
          "type": "bool"
        },
        {
          "internalType": "bytes",
          "name": "callbackData",
          "type": "bytes"
        }
      ],
      "name": "sellERC721",
      "outputs": [],
      "stateMutability": "nonpayable",
      "type": "function"
    },
    {
      "inputs": [
        {
          "components": [
            {
              "internalType": "enum LibNFTOrder.TradeDirection",
              "name": "direction",
              "type": "uint8"
            },
            {
              "internalType": "address",
              "name": "maker",
              "type": "address"
            },
            {
              "internalType": "address",
              "name": "taker",
              "type": "address"
            },
            {
              "internalType": "uint256",
              "name": "expiry",
              "type": "uint256"
            },
            {
              "internalType": "uint256",
              "name": "nonce",
              "type": "uint256"
            },
            {
              "internalType": "contract IERC20Token",
              "name": "erc20Token",
              "type": "address"
            },
            {
              "internalType": "uint256",
              "name": "erc20TokenAmount",
              "type": "uint256"
            },
            {
              "components": [
                {
                  "internalType": "address",
                  "name": "recipient",
                  "type": "address"
                },
                {
                  "internalType": "uint256",
                  "name": "amount",
                  "type": "uint256"
                },
                {
                  "internalType": "bytes",
                  "name": "feeData",
                  "type": "bytes"
                }
              ],
              "internalType": "struct LibNFTOrder.Fee[]",
              "name": "fees",
              "type": "tuple[]"
            },
            {
              "internalType": "contract IERC721Token",
              "name": "erc721Token",
              "type": "address"
            },
            {
              "internalType": "uint256",
              "name": "erc721TokenId",
              "type": "uint256"
            },
            {
              "components": [
                {
                  "internalType": "contract IPropertyValidator",
                  "name": "propertyValidator",
                  "type": "address"
                },
                {
                  "internalType": "bytes",
                  "name": "propertyData",
                  "type": "bytes"
                }
              ],
              "internalType": "struct LibNFTOrder.Property[]",
              "name": "erc721TokenProperties",
              "type": "tuple[]"
            }
          ],
          "internalType": "struct LibNFTOrder.ERC721Order",
          "name": "order",
          "type": "tuple"
        },
        {
          "internalType": "uint256",
          "name": "erc721TokenId",
          "type": "uint256"
        }
      ],
      "name": "validateERC721OrderProperties",
      "outputs": [],
      "stateMutability": "view",
      "type": "function"
    },
    {
      "inputs": [
        {
          "components": [
            {
              "internalType": "enum LibNFTOrder.TradeDirection",
              "name": "direction",
              "type": "uint8"
            },
            {
              "internalType": "address",
              "name": "maker",
              "type": "address"
            },
            {
              "internalType": "address",
              "name": "taker",
              "type": "address"
            },
            {
              "internalType": "uint256",
              "name": "expiry",
              "type": "uint256"
            },
            {
              "internalType": "uint256",
              "name": "nonce",
              "type": "uint256"
            },
            {
              "internalType": "contract IERC20Token",
              "name": "erc20Token",
              "type": "address"
            },
            {
              "internalType": "uint256",
              "name": "erc20TokenAmount",
              "type": "uint256"
            },
            {
              "components": [
                {
                  "internalType": "address",
                  "name": "recipient",
                  "type": "address"
                },
                {
                  "internalType": "uint256",
                  "name": "amount",
                  "type": "uint256"
                },
                {
                  "internalType": "bytes",
                  "name": "feeData",
                  "type": "bytes"
                }
              ],
              "internalType": "struct LibNFTOrder.Fee[]",
              "name": "fees",
              "type": "tuple[]"
            },
            {
              "internalType": "contract IERC721Token",
              "name": "erc721Token",
              "type": "address"
            },
            {
              "internalType": "uint256",
              "name": "erc721TokenId",
              "type": "uint256"
            },
            {
              "components": [
                {
                  "internalType": "contract IPropertyValidator",
                  "name": "propertyValidator",
                  "type": "address"
                },
                {
                  "internalType": "bytes",
                  "name": "propertyData",
                  "type": "bytes"
                }
              ],
              "internalType": "struct LibNFTOrder.Property[]",
              "name": "erc721TokenProperties",
              "type": "tuple[]"
            }
          ],
          "internalType": "struct LibNFTOrder.ERC721Order",
          "name": "order",
          "type": "tuple"
        },
        {
          "components": [
            {
              "internalType": "enum LibSignature.SignatureType",
              "name": "signatureType",
              "type": "uint8"
            },
            {
              "internalType": "uint8",
              "name": "v",
              "type": "uint8"
            },
            {
              "internalType": "bytes32",
              "name": "r",
              "type": "bytes32"
            },
            {
              "internalType": "bytes32",
              "name": "s",
              "type": "bytes32"
            }
          ],
          "internalType": "struct LibSignature.Signature",
          "name": "signature",
          "type": "tuple"
        }
      ],
      "name": "validateERC721OrderSignature",
      "outputs": [],
      "stateMutability": "view",
      "type": "function"
    }
  ],
  "bytecode": "0x6101006040526801000000000000000060e05234801561001d575f5ffd5b506040516157fc3803806157fc83398101604081905261003c91610115565b306080908152604080517f8b73c3c69bb8fe3d512ecc4cf759cc79239f7b179b0ffacaa9a75d522b39400f6020808301919091527f9e5dae0addaf20578aeb5d70341d092b53b4e14480ac5726438fd436df7ba427828401527f06c015bd22b4c69690933c1058878ebdfef31f9aaae40bbe86d8a09fe1b2972c606083015246938201939093526001600160a01b0394851660a08083019190915282518083038201815260c0928301909352825192909301919091209091529116905261014d565b6001600160a01b0381168114610112575f5ffd5b50565b5f5f60408385031215610126575f5ffd5b8251610131816100fe565b6020840151909250610142816100fe565b809150509250929050565b60805160a05160c05160e0516156216101db5f395f61018401525f81816105f10152818161064d015281816106b1015281816122a301528181612d9901528181612df701528181612e770152818161331b0152818161337d015281816133a6015261340001525f81816103aa015261126a01525f8181610d9a015281816114bd0152612f6701526156215ff3fe60806040526004361061013d575f3560e01c806386219940116100bb578063d1ca183b11610071578063eae93ee711610057578063eae93ee7146103cc578063fbc4a518146103ec578063fbee349d14610418575f5ffd5b8063d1ca183b1461037a578063dab400f314610399575f5ffd5b8063afde1b3c116100a1578063afde1b3c1461031d578063b73a60271461033c578063be167b9d1461035b575f5ffd5b806386219940146102ea5780638fd3ab8014610309575f5ffd5b8063462103af1161011057806360018b41116100f657806360018b41146102555780636ae4b4f7146102685780637da9e2cf146102bd575f5ffd5b8063462103af146102155780634a13d79714610236575f5ffd5b8063030b273014610141578063031b905c146101735780630d8261eb146101a6578063150b7a02146101c5575b5f5ffd5b34801561014c575f5ffd5b5061016061015b3660046141af565b61042b565b6040519081526020015b60405180910390f35b34801561017e575f5ffd5b506101607f000000000000000000000000000000000000000000000000000000000000000081565b3480156101b1575f5ffd5b506101606101c0366004614707565b61048d565b3480156101d0575f5ffd5b506101e46101df36600461478f565b610937565b6040517fffffffff00000000000000000000000000000000000000000000000000000000909116815260200161016a565b348015610220575f5ffd5b5061023461022f366004614828565b6109ea565b005b348015610241575f5ffd5b5061023461025036600461485a565b610b6a565b61023461026336600461489c565b610b80565b348015610273575f5ffd5b506102b06040518060400160405280600c81526020017f4552433732314f7264657273000000000000000000000000000000000000000081525081565b60405161016a9190614967565b3480156102c8575f5ffd5b506102dc6102d7366004614a64565b610c2b565b60405161016a929190614b4d565b3480156102f5575f5ffd5b50610234610304366004614ba4565b610fa9565b348015610314575f5ffd5b506101e4610fe1565b348015610328575f5ffd5b50610234610337366004614c24565b61121c565b348015610347575f5ffd5b50610160610356366004614828565b611232565b348015610366575f5ffd5b50610234610375366004614cb4565b6112b7565b348015610385575f5ffd5b50610234610394366004614ccb565b6112fd565b3480156103a4575f5ffd5b506101607f000000000000000000000000000000000000000000000000000000000000000081565b6103df6103da366004614d17565b611318565b60405161016a9190614e23565b3480156103f7575f5ffd5b5061040b610406366004614828565b6116a1565b60405161016a9190614e62565b610234610426366004614e7c565b6117bf565b5f5f6104356117ff565b73ffffffffffffffffffffffffffffffffffffffff85165f908152602091825260408082207effffffffffffffffffffffffffffffffffffffffffffffffffffffffffffff8716835290925220549150505b92915050565b5f83610100015173ffffffffffffffffffffffffffffffffffffffff1685610100015173ffffffffffffffffffffffffffffffffffffffff16146104e7576104e76104e286610100015186610100015161180b565b6118e0565b5f6104f1866118e8565b90505f6104fd866118e8565b90505f61050983611999565b90505f61051583611999565b90506105278488848b60200151611a42565b61053d8387838c602001518d6101200151611c3f565b61054c84835f01516001611e82565b61055b83825f01516001611e82565b50508660c001518660c001511015610582576105826104e28860c001518860c00151611eb6565b5f8760c001518760c001516105979190614f1e565b90506105b7886101000151896020015189602001518b6101200151611ef4565b60a088015173ffffffffffffffffffffffffffffffffffffffff1673eeeeeeeeeeeeeeeeeeeeeeeeeeeeeeeeeeeeeeee14801561064357507f000000000000000000000000000000000000000000000000000000000000000073ffffffffffffffffffffffffffffffffffffffff168760a0015173ffffffffffffffffffffffffffffffffffffffff16145b1561078b5761067c7f00000000000000000000000000000000000000000000000000000000000000008860200151308a60c00151612032565b60c08701516040517f2e1a7d4d00000000000000000000000000000000000000000000000000000000815260048101919091527f000000000000000000000000000000000000000000000000000000000000000073ffffffffffffffffffffffffffffffffffffffff1690632e1a7d4d906024015f604051808303815f87803b158015610707575f5ffd5b505af1158015610719573d5f5f3e3d5ffd5b5050505061072f88602001518960c00151612183565b6107418288602001516001805f612275565b505f61075284306001806001612275565b905080821015610769576107696104e28284612674565b6107738183614f1e565b94508415610785576107853386612183565b5061085c565b8660a0015173ffffffffffffffffffffffffffffffffffffffff168860a0015173ffffffffffffffffffffffffffffffffffffffff16146107db576107db6104e28960a001518960a001516126b2565b6107f78760a0015188602001518a602001518b60c00151612032565b6108098288602001516001805f612275565b505f61081d8489602001516001805f612275565b905080821015610834576108346104e28284612674565b61083e8183614f1e565b9450841561085a5761085a8860a0015189602001513388612032565b505b7f50273fa02273cceea9cf085b42de5c8af60624140168bd71357db833535877af885f0151896020015189602001518b608001518c60a001518d60c001518e61010001518f6101200151336040516108bc99989796959493929190614f45565b60405180910390a17f50273fa02273cceea9cf085b42de5c8af60624140168bd71357db833535877af875f015188602001518a602001518a608001518b60a001518c60c001518d61010001518f61012001513360405161092499989796959493929190614f45565b60405180910390a1505050949350505050565b5f80808061094785870187614faf565b92509250925082610100015173ffffffffffffffffffffffffffffffffffffffff163373ffffffffffffffffffffffffffffffffffffffff1614610997576109976104e23385610100015161180b565b604080515f8152602081019091526109ba90849084908a9085908e903090612706565b507f150b7a0200000000000000000000000000000000000000000000000000000000925050505b95945050505050565b602081015173ffffffffffffffffffffffffffffffffffffffff163314610a98576040517f08c379a000000000000000000000000000000000000000000000000000000000815260206004820152603260248201527f4552433732314f7264657273466561747572653a3a7072655369676e4552433760448201527f32314f726465722f4f4e4c595f4d414b4552000000000000000000000000000060648201526084015b60405180910390fd5b5f610aa282611232565b90506001610aae6117ff565b5f838152600191909101602090815260409182902080547fffffffffffffffffffffffffffffffffffffffffffffffffffffffffffffff001693151593909317909255835191840151848201516060860151608087015160a088015160c089015160e08a01516101008b01516101208c01516101408d015199517f8c5d0c41fb16a7317a6c55ff7ba93d9d74f79e434fefa694e50d6028afbfa3f09b610b5e9b909a999897969594939291615152565b60405180910390a15050565b610b7c610b76836118e8565b826127ef565b5050565b610bc0610b8c856118e8565b84604051806060016040528060016fffffffffffffffffffffffffffffffff168152602001868152602001858152506129f9565b507f50273fa02273cceea9cf085b42de5c8af60624140168bd71357db833535877af845f015185602001513387608001518860a001518960c001518a61010001518b61012001515f604051610c1d99989796959493929190614f45565b60405180910390a150505050565b60608084518651148015610c40575082518451145b8015610c4d575083518651145b610cff576040517f08c379a000000000000000000000000000000000000000000000000000000000815260206004820152604160248201527f4552433732314f7264657273466561747572653a3a62617463684d617463684560448201527f52433732314f72646572732f41525241595f4c454e4754485f4d49534d41544360648201527f4800000000000000000000000000000000000000000000000000000000000000608482015260a401610a8f565b855167ffffffffffffffff811115610d1957610d19614209565b604051908082528060200260200182016040528015610d42578160200160208202803683370190505b509150855167ffffffffffffffff811115610d5f57610d5f614209565b604051908082528060200260200182016040528015610d88578160200160208202803683370190505b5090505f5b8651811015610f9f5760607f000000000000000000000000000000000000000000000000000000000000000073ffffffffffffffffffffffffffffffffffffffff16630d8261eb60e01b898481518110610de957610de9615222565b6020026020010151898581518110610e0357610e03615222565b6020026020010151898681518110610e1d57610e1d615222565b6020026020010151898781518110610e3757610e37615222565b6020026020010151604051602401610e529493929190615393565b604080517fffffffffffffffffffffffffffffffffffffffffffffffffffffffffffffffe08184030181529181526020820180517bffffffffffffffffffffffffffffffffffffffffffffffffffffffff167fffffffff00000000000000000000000000000000000000000000000000000000909416939093179092529051610edb91906153d6565b5f60405180830381855af49150503d805f8114610f13576040519150601f19603f3d011682016040523d82523d5f602084013e610f18565b606091505b50848481518110610f2b57610f2b615222565b6020026020010181935082151515158152505050828281518110610f5157610f51615222565b602002602001015115610f96575f81806020019051810190610f7391906153ec565b905080858481518110610f8857610f88615222565b602002602001018181525050505b50600101610d8d565b5094509492505050565b5f5b81811015610fdc57610fd4838383818110610fc857610fc8615222565b905060200201356112b7565b600101610fab565b505050565b5f61100b7fafde1b3c00000000000000000000000000000000000000000000000000000000612f02565b6110347ffbee349d00000000000000000000000000000000000000000000000000000000612f02565b61105d7fbe167b9d00000000000000000000000000000000000000000000000000000000612f02565b6110867feae93ee700000000000000000000000000000000000000000000000000000000612f02565b6110af7f0d8261eb00000000000000000000000000000000000000000000000000000000612f02565b6110d87f7da9e2cf00000000000000000000000000000000000000000000000000000000612f02565b6111017f150b7a0200000000000000000000000000000000000000000000000000000000612f02565b61112a7f462103af00000000000000000000000000000000000000000000000000000000612f02565b6111537fd1ca183b00000000000000000000000000000000000000000000000000000000612f02565b61117c7f4a13d79700000000000000000000000000000000000000000000000000000000612f02565b6111a57ffbc4a51800000000000000000000000000000000000000000000000000000000612f02565b6111ce7fb73a602700000000000000000000000000000000000000000000000000000000612f02565b6111f77f030b273000000000000000000000000000000000000000000000000000000000612f02565b507f2c64c5ef0000000000000000000000000000000000000000000000000000000090565b61122b85858585333387612706565b5050505050565b5f61048761123f83612fc0565b6040517f190100000000000000000000000000000000000000000000000000000000000060208201527f00000000000000000000000000000000000000000000000000000000000000006022820152604281018290525f90606201604051602081830303815290604052805190602001209050919050565b6112c1338261305b565b60408051338152602081018390527fa015ad2dc32f266993958a0fd9884c746b971b254206f3478bc43e2f125c7b9e910160405180910390a150565b5f61130783611232565b9050610fdc818385602001516130ab565b60608351855114801561132c575082518551145b6113b8576040517f08c379a000000000000000000000000000000000000000000000000000000000815260206004820152603a60248201527f4552433732314f7264657273466561747572653a3a626174636842757945524360448201527f373231732f41525241595f4c454e4754485f4d49534d415443480000000000006064820152608401610a8f565b845167ffffffffffffffff8111156113d2576113d2614209565b6040519080825280602002602001820160405280156113fb578160200160208202803683370190505b5090505f6114093447614f1e565b905082156114b0575f5b86518110156114aa5761147e87828151811061143157611431615222565b602002602001015187838151811061144b5761144b615222565b6020026020010151844761145f9190614f1e565b88858151811061147157611471615222565b6020026020010151610b80565b600183828151811061149257611492615222565b91151560209283029190910190910152600101611413565b5061165b565b5f5b8651811015611659577f000000000000000000000000000000000000000000000000000000000000000073ffffffffffffffffffffffffffffffffffffffff166360018b4160e01b88838151811061150c5761150c615222565b602002602001015188848151811061152657611526615222565b6020026020010151854761153a9190614f1e565b89868151811061154c5761154c615222565b60200260200101516040516024016115679493929190615403565b604080517fffffffffffffffffffffffffffffffffffffffffffffffffffffffffffffffe08184030181529181526020820180517bffffffffffffffffffffffffffffffffffffffffffffffffffffffff167fffffffff000000000000000000000000000000000000000000000000000000009094169390931790925290516115f091906153d6565b5f60405180830381855af49150503d805f8114611628576040519150601f19603f3d011682016040523d82523d5f602084013e61162d565b606091505b505083828151811061164157611641615222565b911515602092830291909101909101526001016114b2565b505b4781811015611684576116846104e26116748385614f1e565b61167e9034615445565b34613144565b611697336116928484614f1e565b612183565b5050949350505050565b5f5f826101400151511180156116d857506001825160018111156116c7576116c7614e35565b1415806116d8575061012082015115155b156116e457505f919050565b6001825160018111156116f9576116f9614e35565b148015611733575060a082015173ffffffffffffffffffffffffffffffffffffffff1673eeeeeeeeeeeeeeeeeeeeeeeeeeeeeeeeeeeeeeee145b1561173f57505f919050565b4282606001511161175257506003919050565b5f61175b6117ff565b60208085015173ffffffffffffffffffffffffffffffffffffffff165f908152828252604080822060808801805160081c84529352902054905191925090600160ff9091161b808216156117b457506002949350505050565b506001949350505050565b5f6117ca3447614f1e565b90506117d884843485610b80565b47818110156117f1576117f16104e26116748385614f1e565b61122b336116928484614f1e565b5f5f6104876009613182565b60405173ffffffffffffffffffffffffffffffffffffffff8084166024830152821660448201526060907f21916d9c05d4d89fb4c8db2934603a48c5480a95f94dfd3a2cd9ac40b8615d15906064015b604080517fffffffffffffffffffffffffffffffffffffffffffffffffffffffffffffffe08184030181529190526020810180517bffffffffffffffffffffffffffffffffffffffffffffffffffffffff167fffffffff0000000000000000000000000000000000000000000000000000000090931692909217909152905092915050565b805160208201fd5b611995604080516101608101909152805f81526020015f73ffffffffffffffffffffffffffffffffffffffff1681526020015f73ffffffffffffffffffffffffffffffffffffffff1681526020015f81526020015f81526020015f73ffffffffffffffffffffffffffffffffffffffff1681526020015f8152602001606081526020015f73ffffffffffffffffffffffffffffffffffffffff1681526020015f8152602001606081525090565b5090565b604080516080810182525f8082526020820181905291810182905260608101829052906119c5836118e8565b90506119d081611232565b82526119db816116a1565b826020019060038111156119f1576119f1614e35565b90816003811115611a0457611a04614e35565b90525060016040830181905282602001516003811115611a2657611a26614e35565b14611a31575f611a34565b60015b60ff16606083015250919050565b5f84516001811115611a5657611a56614e35565b14611ae3576040517f08c379a000000000000000000000000000000000000000000000000000000000815260206004820152603360248201527f4e46544f72646572733a3a5f76616c696461746553656c6c4f726465722f575260448201527f4f4e475f54524144455f444952454354494f4e000000000000000000000000006064820152608401610a8f565b604084015173ffffffffffffffffffffffffffffffffffffffff1615801590611b3c57508073ffffffffffffffffffffffffffffffffffffffff16846040015173ffffffffffffffffffffffffffffffffffffffff1614155b15611b5257611b526104e28286604001516131aa565b600182602001516003811115611b6a57611b6a614e35565b14611c2757611c276104e28560200151866080015185602001516003811115611b9557611b95614e35565b6040805173ffffffffffffffffffffffffffffffffffffffff949094166024850152604484019290925260ff1660648084019190915281518084039091018152608490920190526020810180517bffffffffffffffffffffffffffffffffffffffffffffffffffffffff167f03174b9c0000000000000000000000000000000000000000000000000000000017905290565b611c39825f01518486602001516130ab565b50505050565b600185516001811115611c5457611c54614e35565b14611ce1576040517f08c379a000000000000000000000000000000000000000000000000000000000815260206004820152603260248201527f4e46544f72646572733a3a5f76616c69646174654275794f726465722f57524f60448201527f4e475f54524144455f444952454354494f4e00000000000000000000000000006064820152608401610a8f565b73eeeeeeeeeeeeeeeeeeeeeeeeeeeeeeeeeeeeeeee73ffffffffffffffffffffffffffffffffffffffff168560a0015173ffffffffffffffffffffffffffffffffffffffff1603611db4576040517f08c379a000000000000000000000000000000000000000000000000000000000815260206004820152603560248201527f4e46544f72646572733a3a5f76616c69646174654275794f726465722f4e415460448201527f4956455f544f4b454e5f4e4f545f414c4c4f57454400000000000000000000006064820152608401610a8f565b604085015173ffffffffffffffffffffffffffffffffffffffff1615801590611e0d57508173ffffffffffffffffffffffffffffffffffffffff16856040015173ffffffffffffffffffffffffffffffffffffffff1614155b15611e2357611e236104e28387604001516131aa565b600183602001516003811115611e3b57611e3b614e35565b14611e6657611e666104e28660200151876080015186602001516003811115611b9557611b95614e35565b611e7085826127ef565b61122b835f01518587602001516130ab565b806fffffffffffffffffffffffffffffffff16600114611ea457611ea4615458565b610fdc8360200151846080015161305b565b60405160248101839052604481018290526060907f2c837d7451f39ae9868ea7dacec7847412534d287da737ffde01c3c8b2f61c0a9060640161185b565b3073ffffffffffffffffffffffffffffffffffffffff851603611f99576040517f08c379a000000000000000000000000000000000000000000000000000000000815260206004820152602560248201527f466978696e4552433732315370656e6465722f43414e4e4f545f494e564f4b4560448201527f5f53454c460000000000000000000000000000000000000000000000000000006064820152608401610a8f565b6040517f23b872dd00000000000000000000000000000000000000000000000000000000815273ffffffffffffffffffffffffffffffffffffffff8416600482015273ffffffffffffffffffffffffffffffffffffffff831660248201528160448201525f5f6064835f73ffffffffffffffffffffffffffffffffffffffff8a165af18061202a573d805f843e8083fd5b505050505050565b3073ffffffffffffffffffffffffffffffffffffffff8516036120d6576040517f08c379a0000000000000000000000000000000000000000000000000000000008152602060048201526024808201527f466978696e546f6b656e5370656e6465722f43414e4e4f545f494e564f4b455f60448201527f53454c46000000000000000000000000000000000000000000000000000000006064820152608401610a8f565b6040517f23b872dd00000000000000000000000000000000000000000000000000000000815273ffffffffffffffffffffffffffffffffffffffff8416600482015273ffffffffffffffffffffffffffffffffffffffff831660248201528160448201526020816064835f73ffffffffffffffffffffffffffffffffffffffff8a165af13d6001835114602082101516811517821691508161217a57805f843e8083fd5b50505050505050565b8015610b7c575f8273ffffffffffffffffffffffffffffffffffffffff16826040515f6040518083038185875af1925050503d805f81146121df576040519150601f19603f3d011682016040523d82523d5f602084013e6121e4565b606091505b5050905080610fdc576040517f08c379a000000000000000000000000000000000000000000000000000000000815260206004820152602f60248201527f466978696e546f6b656e5370656e6465723a3a5f7472616e736665724574682f60448201527f5452414e534645525f4641494c454400000000000000000000000000000000006064820152608401610a8f565b5f81156123385773ffffffffffffffffffffffffffffffffffffffff851630146122a1576122a1615458565b7f000000000000000000000000000000000000000000000000000000000000000073ffffffffffffffffffffffffffffffffffffffff168660a0015173ffffffffffffffffffffffffffffffffffffffff16148061232c575060a086015173ffffffffffffffffffffffffffffffffffffffff1673eeeeeeeeeeeeeeeeeeeeeeeeeeeeeeeeeeeeeeee145b61233857612338615458565b5f5b8660e001515181101561266a575f8760e00151828151811061235e5761235e615222565b602002602001015190503073ffffffffffffffffffffffffffffffffffffffff16815f015173ffffffffffffffffffffffffffffffffffffffff1603612426576040517f08c379a000000000000000000000000000000000000000000000000000000000815260206004820152603660248201527f4e46544f72646572733a3a5f706179466565732f524543495049454e545f434160448201527f4e4e4f545f42455f45584348414e47455f50524f5859000000000000000000006064820152608401610a8f565b5f856fffffffffffffffffffffffffffffffff16876fffffffffffffffffffffffffffffffff160361245d57506020810151612493565b612490876fffffffffffffffffffffffffffffffff16876fffffffffffffffffffffffffffffffff1684602001516131fe565b90505b805f036124a1575050612662565b84156124b85781516124b39082612183565b6124cb565b6124cb8960a0015189845f015184612032565b604082015151156126535781515f9073ffffffffffffffffffffffffffffffffffffffff166330787dd187612504578b60a0015161251a565b73eeeeeeeeeeeeeeeeeeeeeeeeeeeeeeeeeeeeeeee5b8486604001516040518463ffffffff1660e01b815260040161253e93929190615485565b6020604051808303815f875af115801561255a573d5f5f3e3d5ffd5b505050506040513d601f19601f8201168201806040525081019061257e91906154b9565b90507fffffffff0000000000000000000000000000000000000000000000000000000081167f30787dd10000000000000000000000000000000000000000000000000000000014612651576040517f08c379a000000000000000000000000000000000000000000000000000000000815260206004820152602360248201527f4e46544f72646572733a3a5f706179466565732f43414c4c4241434b5f46414960448201527f4c454400000000000000000000000000000000000000000000000000000000006064820152608401610a8f565b505b61265d8185615445565b935050505b60010161233a565b5095945050505050565b60405160248101839052604481018290526060907fcc7617254e6a41fba90a903927c0528c50be1de6f67462ac6cad28a99b1fdf729060640161185b565b60405173ffffffffffffffffffffffffffffffffffffffff8084166024830152821660448201526060907f035a4cad8d6eddf7c418e1bf06082335925e99c1e1c08596b45ea79896833d739060640161185b565b612786612712886118e8565b876040518060c0016040528060016fffffffffffffffffffffffffffffffff16815260200189815260200188151581526020018773ffffffffffffffffffffffffffffffffffffffff1681526020018673ffffffffffffffffffffffffffffffffffffffff1681526020018581525061321c565b507f50273fa02273cceea9cf085b42de5c8af60624140168bd71357db833535877af875f01518860200151858a608001518b60a001518c60c001518d61010001518c5f6040516127de99989796959493929190614f45565b60405180910390a150505050505050565b60018251600181111561280457612804614e35565b14612891576040517f08c379a000000000000000000000000000000000000000000000000000000000815260206004820152603960248201527f4e46544f72646572733a3a5f76616c69646174654f7264657250726f7065727460448201527f6965732f57524f4e475f54524144455f444952454354494f4e000000000000006064820152608401610a8f565b816101400151515f036128bc578161012001518114610b7c57610b7c6104e28284610120015161371e565b5f5b82610140015151811015610fdc575f83610140015182815181106128e4576128e4615222565b6020908102919091010151805190915073ffffffffffffffffffffffffffffffffffffffff1661291457506129f1565b805161010085015160208301516040517f1395c0f300000000000000000000000000000000000000000000000000000000815273ffffffffffffffffffffffffffffffffffffffff90931692631395c0f392612977929091889190600401615485565b5f6040518083038186803b15801561298d575f5ffd5b505afa92505050801561299e575060015b6129ef573d8080156129cb576040519150601f19603f3d011682016040523d82523d5f602084013e6129d0565b606091505b506129ed6104e2835f01518761010001518786602001518661375c565b505b505b6001016128be565b5f5f612a0485611999565b9050612a1285858333611a42565b80606001516fffffffffffffffffffffffffffffffff16835f01516fffffffffffffffffffffffffffffffff161115612a5957612a596104e28260600151855f0151613820565b80518351612a68918791611e82565b80604001516fffffffffffffffffffffffffffffffff16835f01516fffffffffffffffffffffffffffffffff1603612aa6578460c001519150612ae3565b612ae0835f01516fffffffffffffffffffffffffffffffff1682604001516fffffffffffffffffffffffffffffffff168760c00151613870565b91505b612b13856101000151866020015133886101200151875f01516fffffffffffffffffffffffffffffffff16613891565b602083015160408401515115612d2557303303612bb2576040517f08c379a000000000000000000000000000000000000000000000000000000000815260206004820152602760248201527f4e46544f72646572733a3a5f6275794e46542f43414e4e4f545f43414c4c424160448201527f434b5f53454c46000000000000000000000000000000000000000000000000006064820152608401610a8f565b815160408086015190517ff2b45c6f00000000000000000000000000000000000000000000000000000000815247925f92339263f2b45c6f92612bf99290916004016154f8565b6020604051808303815f875af1158015612c15573d5f5f3e3d5ffd5b505050506040513d601f19601f82011682018060405250810190612c3991906154b9565b9050612c458247614f1e565b612c4f9084615445565b92507fffffffff0000000000000000000000000000000000000000000000000000000081167ff2b45c6f0000000000000000000000000000000000000000000000000000000014612d22576040517f08c379a000000000000000000000000000000000000000000000000000000000815260206004820152602260248201527f4e46544f72646572733a3a5f6275794e46542f43414c4c4241434b5f4641494c60448201527f45440000000000000000000000000000000000000000000000000000000000006064820152608401610a8f565b50505b73eeeeeeeeeeeeeeeeeeeeeeeeeeeeeeeeeeeeeeee73ffffffffffffffffffffffffffffffffffffffff168660a0015173ffffffffffffffffffffffffffffffffffffffff1603612d9757612d7e866020015184612183565b612d9286855f0151846040015186856138ad565b612ef9565b7f000000000000000000000000000000000000000000000000000000000000000073ffffffffffffffffffffffffffffffffffffffff168660a0015173ffffffffffffffffffffffffffffffffffffffff1603612ecf57828110612ea1577f000000000000000000000000000000000000000000000000000000000000000073ffffffffffffffffffffffffffffffffffffffff1663d0e30db0846040518263ffffffff1660e01b81526004015f604051808303818588803b158015612e5b575f5ffd5b505af1158015612e6d573d5f5f3e3d5ffd5b5050505050612d7e7f00000000000000000000000000000000000000000000000000000000000000008760200151856138df565b612eb58660a0015133886020015186612032565b612ec98633865f015185604001515f612275565b50612ef9565b612ee38660a0015133886020015186612032565b612ef78633865f015185604001515f612275565b505b50509392505050565b6040517f6eb224cb0000000000000000000000000000000000000000000000000000000081527fffffffff000000000000000000000000000000000000000000000000000000008216600482015273ffffffffffffffffffffffffffffffffffffffff7f00000000000000000000000000000000000000000000000000000000000000001660248201523090636eb224cb906044015f604051808303815f87803b158015612fae575f5ffd5b505af115801561122b573d5f5f3e3d5ffd5b5f5f612fd0836101400151613a0b565b90505f612fe08460e00151613c70565b90506020841015612fed57fe5b7fffffffffffffffffffffffffffffffffffffffffffffffffffffffffffffffe08401805160e08601805161014090970180517f2de32b2b090da7d8ab83ca4c85ba2eb6957bc7f6c50cb4ae1995e87560d808ed855294825294855261018083209190925294905290525090565b600160ff82161b8061306b6117ff565b73ffffffffffffffffffffffffffffffffffffffff9094165f9081526020948552604080822060089590951c825293909452919092208054909117905550565b6004825160048111156130c0576130c0614e35565b036130f7575f6130ce6117ff565b5f858152600191909101602052604090205460ff16905080611c3957611c396104e2835f613e89565b5f6131028484613edd565b90508173ffffffffffffffffffffffffffffffffffffffff168173ffffffffffffffffffffffffffffffffffffffff1614611c3957611c396104e28383613e89565b60405160248101839052604481018290526060907ff066156ec319f3a42c58bb7c010e11f5c3620c829e5770398578cb4afa69970f9060640161185b565b5f608082600b81111561319757613197614e35565b6131a2906001615445565b901b92915050565b60405173ffffffffffffffffffffffffffffffffffffffff8084166024830152821660448201526060907f95d9ecc19fc066a15ea87d62b14d6e6f74032bbb37cecf6f42cb5ae9e2b298209060640161185b565b5f8261320a8386615510565b6132149190615527565b949350505050565b5f5f61322785611999565b905061323e85858386606001518760200151611c3f565b80606001516fffffffffffffffffffffffffffffffff16835f01516fffffffffffffffffffffffffffffffff161115613285576132856104e28260600151855f0151613820565b80518351613294918791611e82565b80604001516fffffffffffffffffffffffffffffffff16835f01516fffffffffffffffffffffffffffffffff16036132d2578460c00151915061330f565b61330c835f01516fffffffffffffffffffffffffffffffff1682604001516fffffffffffffffffffffffffffffffff168760c001516131fe565b91505b82604001511561347f577f000000000000000000000000000000000000000000000000000000000000000073ffffffffffffffffffffffffffffffffffffffff168560a0015173ffffffffffffffffffffffffffffffffffffffff16146133a1576133a16104e28660a001517f00000000000000000000000000000000000000000000000000000000000000006126b2565b6133d17f000000000000000000000000000000000000000000000000000000000000000086602001513085612032565b6040517f2e1a7d4d000000000000000000000000000000000000000000000000000000008152600481018390527f000000000000000000000000000000000000000000000000000000000000000073ffffffffffffffffffffffffffffffffffffffff1690632e1a7d4d906024015f604051808303815f87803b158015613456575f5ffd5b505af1158015613468573d5f5f3e3d5ffd5b5050505061347a836060015183612183565b613497565b6134978560a001518660200151856060015185612032565b60a083015151156136d3573073ffffffffffffffffffffffffffffffffffffffff16836060015173ffffffffffffffffffffffffffffffffffffffff1603613561576040517f08c379a000000000000000000000000000000000000000000000000000000000815260206004820152602860248201527f4e46544f72646572733a3a5f73656c6c4e46542f43414e4e4f545f43414c4c4260448201527f41434b5f53454c460000000000000000000000000000000000000000000000006064820152608401610a8f565b6060830151815160a08501516040517ff2b45c6f0000000000000000000000000000000000000000000000000000000081525f9373ffffffffffffffffffffffffffffffffffffffff169263f2b45c6f926135be926004016154f8565b6020604051808303815f875af11580156135da573d5f5f3e3d5ffd5b505050506040513d601f19601f820116820180604052508101906135fe91906154b9565b90507fffffffff0000000000000000000000000000000000000000000000000000000081167ff2b45c6f00000000000000000000000000000000000000000000000000000000146136d1576040517f08c379a000000000000000000000000000000000000000000000000000000000815260206004820152602360248201527f4e46544f72646572733a3a5f73656c6c4e46542f43414c4c4241434b5f46414960448201527f4c454400000000000000000000000000000000000000000000000000000000006064820152608401610a8f565b505b613706856101000151846080015187602001518660200151875f01516fffffffffffffffffffffffffffffffff16613891565b612ef9858660200151855f015184604001515f612275565b60405160248101839052604481018290526060907f3a0e82ab33a6ded59a82e996d14f78373afacfa934ad72bb76427beb2c8abd409060640161185b565b60607f409690f4d9f5014a9e8b0bc8995bfa0621e9da9daa9cd07a7c17d83cd3c4b596868686868660405160240161379895949392919061555f565b604080517fffffffffffffffffffffffffffffffffffffffffffffffffffffffffffffffe08184030181529190526020810180517bffffffffffffffffffffffffffffffffffffffffffffffffffffffff167fffffffff0000000000000000000000000000000000000000000000000000000090931692909217909152905095945050505050565b6040516fffffffffffffffffffffffffffffffff8084166024830152821660448201526060907f4a5879850ad3b01848624d9559668b5a30a921c62ed2e7c3301591f9e7899a769060640161185b565b5f8261387d600182614f1e565b6138878487615510565b61320a9190615445565b806001146138a1576138a1615458565b61122b85858585611ef4565b5f6138bc863087876001612275565b90506138c88184615445565b92508183111561202a5761202a6104e28484613144565b3073ffffffffffffffffffffffffffffffffffffffff841603613983576040517f08c379a0000000000000000000000000000000000000000000000000000000008152602060048201526024808201527f466978696e546f6b656e5370656e6465722f43414e4e4f545f494e564f4b455f60448201527f53454c46000000000000000000000000000000000000000000000000000000006064820152608401610a8f565b6040517fa9059cbb00000000000000000000000000000000000000000000000000000000815273ffffffffffffffffffffffffffffffffffffffff831660048201528160248201526020816044835f73ffffffffffffffffffffffffffffffffffffffff89165af13d6001835114602082101516811517821691508161202a57805f843e8083fd5b80515f90808203613a3e577fc5d2460186f7233c927e7db2dcc703c0e500b653ca82273b7bfad8045d85a4709150613c6a565b80600103613b37575f835f81518110613a5957613a59615222565b602002602001015190505f73ffffffffffffffffffffffffffffffffffffffff16815f015173ffffffffffffffffffffffffffffffffffffffff16148015613aa45750602081015151155b15613ad1577f720ee400a9024f6a49768142c339bf09d2dd9056ab52d20fbe7165faba6e142d9250613b31565b602080820151805190820120604080517f6292cf854241cb36887e639065eca63b3af9f7f70270cebeda4c29b6d3bc65e88152845173ffffffffffffffffffffffffffffffffffffffff1681850152908101919091526060812081522092505b50613c6a565b5f8167ffffffffffffffff811115613b5157613b51614209565b604051908082528060200260200182016040528015613b7a578160200160208202803683370190505b5090505f5b82811015613c5e577f6292cf854241cb36887e639065eca63b3af9f7f70270cebeda4c29b6d3bc65e8858281518110613bba57613bba615222565b60200260200101515f0151868381518110613bd757613bd7615222565b60200260200101516020015180519060200120604051602001613c239392919092835273ffffffffffffffffffffffffffffffffffffffff919091166020830152604082015260600190565b60405160208183030381529060405280519060200120828281518110613c4b57613c4b615222565b6020908102919091010152600101613b7f565b50602082810291012091505b50919050565b80515f90808203613ca3577fc5d2460186f7233c927e7db2dcc703c0e500b653ca82273b7bfad8045d85a4709150613c6a565b80600103613d3e575f835f81518110613cbe57613cbe615222565b602002602001015190505f81604001518051906020012090506040517fe68c29f1b4e8cce0bbcac76eb1334bdc1dc1f293a517c90e9e532340e1e941158152825173ffffffffffffffffffffffffffffffffffffffff16602082015260208301516040820152816060820152608081208152602081209450505050613c6a565b5f8167ffffffffffffffff811115613d5857613d58614209565b604051908082528060200260200182016040528015613d81578160200160208202803683370190505b5090505f5b82811015613c5e577fe68c29f1b4e8cce0bbcac76eb1334bdc1dc1f293a517c90e9e532340e1e94115858281518110613dc157613dc1615222565b60200260200101515f0151868381518110613dde57613dde615222565b602002602001015160200151878481518110613dfc57613dfc615222565b60200260200101516040015180519060200120604051602001613e4e949392919093845273ffffffffffffffffffffffffffffffffffffffff9290921660208401526040830152606082015260800190565b60405160208183030381529060405280519060200120828281518110613e7657613e76615222565b6020908102919091010152600101613d86565b60405173ffffffffffffffffffffffffffffffffffffffff8084166024830152821660448201526060907f84356db366796dc6e2aeb1ad74b631fe4e5ec6a650464da6059e9f95c8810a109060640161185b565b5f613ee88383614054565b600282516004811115613efd57613efd614e35565b03613f6e5760208083015160408085015160608087015183515f815295860180855289905260ff9094169285019290925290830152608082015260019060a0016020604051602081039080840390855afa158015613f5d573d5f5f3e3d5ffd5b50505060206040510351905061402b565b600382516004811115613f8357613f83614e35565b0361402b575f7f19457468657265756d205369676e6564204d6573736167653a0a3332000000005f5283601c52603c5f2090506001818460200151856040015186606001516040515f8152602001604052604051613ffd949392919093845260ff9290921660208401526040830152606082015260800190565b6020604051602081039080840390855afa15801561401d573d5f5f3e3d5ffd5b505050602060405103519150505b73ffffffffffffffffffffffffffffffffffffffff8116610487576104876104e2600585614145565b60408101517ffffffffffffffffffffffffffffffffebaaedce6af48a03bbfd25e8cd03641411115806140c057506140ad60027ffffffffffffffffffffffffffffffffebaaedce6af48a03bbfd25e8cd0364141615527565b6140b8906001615445565b606082015110155b156140d3576140d36104e2600584614145565b5f815160048111156140e7576140e7614e35565b036140fa576140fa6104e2600384614145565b60018151600481111561410f5761410f614e35565b03614121576141216104e25f84614145565b60048151600481111561413657614136614e35565b03610b7c57610b7c6104e26002845b60607ff18f11f3027e735c758137924b262d4d3aff0037dcd785aca3c699fa05d960bd838360405160240161185b9291906155cd565b73ffffffffffffffffffffffffffffffffffffffff8116811461419c575f5ffd5b50565b80356141aa8161417b565b919050565b5f5f604083850312156141c0575f5ffd5b82356141cb8161417b565b915060208301357effffffffffffffffffffffffffffffffffffffffffffffffffffffffffffff811681146141fe575f5ffd5b809150509250929050565b7f4e487b71000000000000000000000000000000000000000000000000000000005f52604160045260245ffd5b6040516060810167ffffffffffffffff8111828210171561425957614259614209565b60405290565b6040805190810167ffffffffffffffff8111828210171561425957614259614209565b604051610160810167ffffffffffffffff8111828210171561425957614259614209565b604051601f82017fffffffffffffffffffffffffffffffffffffffffffffffffffffffffffffffe016810167ffffffffffffffff811182821017156142ed576142ed614209565b604052919050565b8035600281106141aa575f5ffd5b5f67ffffffffffffffff82111561431c5761431c614209565b5060051b60200190565b5f82601f830112614335575f5ffd5b813567ffffffffffffffff81111561434f5761434f614209565b61438060207fffffffffffffffffffffffffffffffffffffffffffffffffffffffffffffffe0601f840116016142a6565b818152846020838601011115614394575f5ffd5b816020850160208301375f918101602001919091529392505050565b5f82601f8301126143bf575f5ffd5b81356143d26143cd82614303565b6142a6565b8082825260208201915060208360051b8601019250858311156143f3575f5ffd5b602085015b8381101561266a57803567ffffffffffffffff811115614416575f5ffd5b860160608189037fffffffffffffffffffffffffffffffffffffffffffffffffffffffffffffffe0011215614449575f5ffd5b614451614236565b602082013561445f8161417b565b815260408201356020820152606082013567ffffffffffffffff811115614484575f5ffd5b6144938a602083860101614326565b604083015250845250602092830192016143f8565b5f82601f8301126144b7575f5ffd5b81356144c56143cd82614303565b8082825260208201915060208360051b8601019250858311156144e6575f5ffd5b602085015b8381101561266a57803567ffffffffffffffff811115614509575f5ffd5b860160408189037fffffffffffffffffffffffffffffffffffffffffffffffffffffffffffffffe001121561453c575f5ffd5b61454461425f565b60208201356145528161417b565b8152604082013567ffffffffffffffff81111561456d575f5ffd5b61457c8a602083860101614326565b60208301525080855250506020830192506020810190506144eb565b5f61016082840312156145a9575f5ffd5b6145b1614282565b90506145bc826142f5565b81526145ca6020830161419f565b60208201526145db6040830161419f565b6040820152606082810135908201526080808301359082015261460060a0830161419f565b60a082015260c0828101359082015260e082013567ffffffffffffffff811115614628575f5ffd5b614634848285016143b0565b60e083015250614647610100830161419f565b610100820152610120828101359082015261014082013567ffffffffffffffff811115614672575f5ffd5b61467e848285016144a8565b6101408301525092915050565b5f6080828403121561469b575f5ffd5b6040516080810167ffffffffffffffff811182821017156146be576146be614209565b6040529050808235600581106146d2575f5ffd5b8152602083013560ff811681146146e7575f5ffd5b602082015260408381013590820152606092830135920191909152919050565b5f5f5f5f610140858703121561471b575f5ffd5b843567ffffffffffffffff811115614731575f5ffd5b61473d87828801614598565b945050602085013567ffffffffffffffff811115614759575f5ffd5b61476587828801614598565b935050614775866040870161468b565b91506147848660c0870161468b565b905092959194509250565b5f5f5f5f5f608086880312156147a3575f5ffd5b85356147ae8161417b565b945060208601356147be8161417b565b935060408601359250606086013567ffffffffffffffff8111156147e0575f5ffd5b8601601f810188136147f0575f5ffd5b803567ffffffffffffffff811115614806575f5ffd5b886020828401011115614817575f5ffd5b959894975092955050506020019190565b5f60208284031215614838575f5ffd5b813567ffffffffffffffff81111561484e575f5ffd5b61321484828501614598565b5f5f6040838503121561486b575f5ffd5b823567ffffffffffffffff811115614881575f5ffd5b61488d85828601614598565b95602094909401359450505050565b5f5f5f5f60e085870312156148af575f5ffd5b843567ffffffffffffffff8111156148c5575f5ffd5b6148d187828801614598565b9450506148e1866020870161468b565b925060a0850135915060c085013567ffffffffffffffff811115614903575f5ffd5b61490f87828801614326565b91505092959194509250565b5f81518084528060208401602086015e5f6020828601015260207fffffffffffffffffffffffffffffffffffffffffffffffffffffffffffffffe0601f83011685010191505092915050565b602081525f614979602083018461491b565b9392505050565b5f82601f83011261498f575f5ffd5b813561499d6143cd82614303565b8082825260208201915060208360051b8601019250858311156149be575f5ffd5b602085015b8381101561266a57803567ffffffffffffffff8111156149e1575f5ffd5b6149f0886020838a0101614598565b845250602092830192016149c3565b5f82601f830112614a0e575f5ffd5b8135614a1c6143cd82614303565b8082825260208201915060208360071b860101925085831115614a3d575f5ffd5b602085015b8381101561266a57614a54878261468b565b8352602090920191608001614a42565b5f5f5f5f60808587031215614a77575f5ffd5b843567ffffffffffffffff811115614a8d575f5ffd5b614a9987828801614980565b945050602085013567ffffffffffffffff811115614ab5575f5ffd5b614ac187828801614980565b935050604085013567ffffffffffffffff811115614add575f5ffd5b614ae9878288016149ff565b925050606085013567ffffffffffffffff811115614b05575f5ffd5b61490f878288016149ff565b5f8151808452602084019350602083015f5b82811015614b435781511515865260209586019590910190600101614b23565b5093949350505050565b604080825283519082018190525f9060208501906060840190835b81811015614b86578351835260209384019390920191600101614b68565b50508381036020850152614b9a8186614b11565b9695505050505050565b5f5f60208385031215614bb5575f5ffd5b823567ffffffffffffffff811115614bcb575f5ffd5b8301601f81018513614bdb575f5ffd5b803567ffffffffffffffff811115614bf1575f5ffd5b8560208260051b8401011115614c05575f5ffd5b6020919091019590945092505050565b803580151581146141aa575f5ffd5b5f5f5f5f5f6101008688031215614c39575f5ffd5b853567ffffffffffffffff811115614c4f575f5ffd5b614c5b88828901614598565b955050614c6b876020880161468b565b935060a08601359250614c8060c08701614c15565b915060e086013567ffffffffffffffff811115614c9b575f5ffd5b614ca788828901614326565b9150509295509295909350565b5f60208284031215614cc4575f5ffd5b5035919050565b5f5f60a08385031215614cdc575f5ffd5b823567ffffffffffffffff811115614cf2575f5ffd5b614cfe85828601614598565b925050614d0e846020850161468b565b90509250929050565b5f5f5f5f60808587031215614d2a575f5ffd5b843567ffffffffffffffff811115614d40575f5ffd5b614d4c87828801614980565b945050602085013567ffffffffffffffff811115614d68575f5ffd5b614d74878288016149ff565b935050604085013567ffffffffffffffff811115614d90575f5ffd5b8501601f81018713614da0575f5ffd5b8035614dae6143cd82614303565b8082825260208201915060208360051b850101925089831115614dcf575f5ffd5b602084015b83811015614e1057803567ffffffffffffffff811115614df2575f5ffd5b614e018c602083890101614326565b84525060209283019201614dd4565b5094506147849250505060608601614c15565b602081525f6149796020830184614b11565b7f4e487b71000000000000000000000000000000000000000000000000000000005f52602160045260245ffd5b6020810160048310614e7657614e76614e35565b91905290565b5f5f5f60c08486031215614e8e575f5ffd5b833567ffffffffffffffff811115614ea4575f5ffd5b614eb086828701614598565b935050614ec0856020860161468b565b915060a084013567ffffffffffffffff811115614edb575f5ffd5b614ee786828701614326565b9150509250925092565b7f4e487b71000000000000000000000000000000000000000000000000000000005f52601160045260245ffd5b8181038181111561048757610487614ef1565b60028110614f4157614f41614e35565b9052565b6101208101614f54828c614f31565b73ffffffffffffffffffffffffffffffffffffffff998a16602083015297891660408201526060810196909652938716608086015260a0850192909252851660c084015260e083015290921661010090920191909152919050565b5f5f5f60c08486031215614fc1575f5ffd5b833567ffffffffffffffff811115614fd7575f5ffd5b614fe386828701614598565b935050614ff3856020860161468b565b915061500160a08501614c15565b90509250925092565b5f82825180855260208501945060208160051b830101602085015f5b838110156150ad577fffffffffffffffffffffffffffffffffffffffffffffffffffffffffffffffe0858403018852815173ffffffffffffffffffffffffffffffffffffffff8151168452602081015160208501526040810151905060606040850152615096606085018261491b565b6020998a0199909450929092019150600101615026565b50909695505050505050565b5f82825180855260208501945060208160051b830101602085015f5b838110156150ad577fffffffffffffffffffffffffffffffffffffffffffffffffffffffffffffffe0858403018852815173ffffffffffffffffffffffffffffffffffffffff8151168452602081015190506040602085015261513b604085018261491b565b6020998a01999094509290920191506001016150d5565b61515c818d614f31565b73ffffffffffffffffffffffffffffffffffffffff8b16602082015273ffffffffffffffffffffffffffffffffffffffff8a16604082015288606082015287608082015273ffffffffffffffffffffffffffffffffffffffff871660a08201528560c082015261016060e08201525f6151d961016083018761500a565b73ffffffffffffffffffffffffffffffffffffffff86166101008401528461012084015282810361014084015261521081856150b9565b9e9d5050505050505050505050505050565b7f4e487b71000000000000000000000000000000000000000000000000000000005f52603260045260245ffd5b61525a828251614f31565b5f6020820151615282602085018273ffffffffffffffffffffffffffffffffffffffff169052565b5060408201516152aa604085018273ffffffffffffffffffffffffffffffffffffffff169052565b50606082015160608401526080820151608084015260a08201516152e660a085018273ffffffffffffffffffffffffffffffffffffffff169052565b5060c082015160c084015260e082015161016060e085015261530c61016085018261500a565b905061010083015161533761010086018273ffffffffffffffffffffffffffffffffffffffff169052565b506101208301516101208501526101408301518482036101408601526109e182826150b9565b80516005811061536f5761536f614e35565b825260208181015160ff169083015260408082015190830152606090810151910152565b61014081525f6153a761014083018761524f565b82810360208401526153b9818761524f565b9150506153c9604083018561535d565b6109e160c083018461535d565b5f82518060208501845e5f920191825250919050565b5f602082840312156153fc575f5ffd5b5051919050565b60e081525f61541560e083018761524f565b615422602084018761535d565b8460a084015282810360c084015261543a818561491b565b979650505050505050565b8082018082111561048757610487614ef1565b7f4e487b71000000000000000000000000000000000000000000000000000000005f52600160045260245ffd5b73ffffffffffffffffffffffffffffffffffffffff84168152826020820152606060408201525f6109e1606083018461491b565b5f602082840312156154c9575f5ffd5b81517fffffffff0000000000000000000000000000000000000000000000000000000081168114614979575f5ffd5b828152604060208201525f613214604083018461491b565b808202811582820484141761048757610487614ef1565b5f8261555a577f4e487b71000000000000000000000000000000000000000000000000000000005f52601260045260245ffd5b500490565b73ffffffffffffffffffffffffffffffffffffffff8616815273ffffffffffffffffffffffffffffffffffffffff8516602082015283604082015260a060608201525f6155af60a083018561491b565b82810360808401526155c1818561491b565b98975050505050505050565b60408101600684106155e1576155e1614e35565b928152602001529056fea264697066735822122070d5a758566e88cdb9ae1401b22afca69749b0516f6c7e6d908bfe40c20eaebb64736f6c634300081c0033",
  "linkReferences": {},
  "deployedLinkReferences": {}
}