{
  "_format": "hh-sol-artifact-1",
  "contractName": "ERC721OrdersFeature",
  "sourceName": "contracts/src/features/nft_orders/ERC721OrdersFeature.sol",
  "abi": [
    {
      "inputs": [
        {
          "internalType": "address",
          "name": "zeroExAddress",
          "type": "address"
        },
        {
          "internalType": "contract IEtherToken",
          "name": "weth",
          "type": "address"
        }
      ],
      "stateMutability": "nonpayable",
      "type": "constructor"
    },
    {
      "anonymous": false,
      "inputs": [
        {
          "indexed": false,
          "internalType": "address",
          "name": "maker",
          "type": "address"
        },
        {
          "indexed": false,
          "internalType": "uint256",
          "name": "nonce",
          "type": "uint256"
        }
      ],
      "name": "ERC721OrderCancelled",
      "type": "event"
    },
    {
      "anonymous": false,
      "inputs": [
        {
          "indexed": false,
          "internalType": "enum LibNFTOrder.TradeDirection",
          "name": "direction",
          "type": "uint8"
        },
        {
          "indexed": false,
          "internalType": "address",
          "name": "maker",
          "type": "address"
        },
        {
          "indexed": false,
          "internalType": "address",
          "name": "taker",
          "type": "address"
        },
        {
          "indexed": false,
          "internalType": "uint256",
          "name": "nonce",
          "type": "uint256"
        },
        {
          "indexed": false,
          "internalType": "contract IERC20Token",
          "name": "erc20Token",
          "type": "address"
        },
        {
          "indexed": false,
          "internalType": "uint256",
          "name": "erc20TokenAmount",
          "type": "uint256"
        },
        {
          "indexed": false,
          "internalType": "contract IERC721Token",
          "name": "erc721Token",
          "type": "address"
        },
        {
          "indexed": false,
          "internalType": "uint256",
          "name": "erc721TokenId",
          "type": "uint256"
        },
        {
          "indexed": false,
          "internalType": "address",
          "name": "matcher",
          "type": "address"
        }
      ],
      "name": "ERC721OrderFilled",
      "type": "event"
    },
    {
      "anonymous": false,
      "inputs": [
        {
          "indexed": false,
          "internalType": "enum LibNFTOrder.TradeDirection",
          "name": "direction",
          "type": "uint8"
        },
        {
          "indexed": false,
          "internalType": "address",
          "name": "maker",
          "type": "address"
        },
        {
          "indexed": false,
          "internalType": "address",
          "name": "taker",
          "type": "address"
        },
        {
          "indexed": false,
          "internalType": "uint256",
          "name": "expiry",
          "type": "uint256"
        },
        {
          "indexed": false,
          "internalType": "uint256",
          "name": "nonce",
          "type": "uint256"
        },
        {
          "indexed": false,
          "internalType": "contract IERC20Token",
          "name": "erc20Token",
          "type": "address"
        },
        {
          "indexed": false,
          "internalType": "uint256",
          "name": "erc20TokenAmount",
          "type": "uint256"
        },
        {
          "components": [
            {
              "internalType": "address",
              "name": "recipient",
              "type": "address"
            },
            {
              "internalType": "uint256",
              "name": "amount",
              "type": "uint256"
            },
            {
              "internalType": "bytes",
              "name": "feeData",
              "type": "bytes"
            }
          ],
          "indexed": false,
          "internalType": "struct LibNFTOrder.Fee[]",
          "name": "fees",
          "type": "tuple[]"
        },
        {
          "indexed": false,
          "internalType": "contract IERC721Token",
          "name": "erc721Token",
          "type": "address"
        },
        {
          "indexed": false,
          "internalType": "uint256",
          "name": "erc721TokenId",
          "type": "uint256"
        },
        {
          "components": [
            {
              "internalType": "contract IPropertyValidator",
              "name": "propertyValidator",
              "type": "address"
            },
            {
              "internalType": "bytes",
              "name": "propertyData",
              "type": "bytes"
            }
          ],
          "indexed": false,
          "internalType": "struct LibNFTOrder.Property[]",
          "name": "erc721TokenProperties",
          "type": "tuple[]"
        }
      ],
      "name": "ERC721OrderPreSigned",
      "type": "event"
    },
    {
      "inputs": [],
      "name": "EIP712_DOMAIN_SEPARATOR",
      "outputs": [
        {
          "internalType": "bytes32",
          "name": "",
          "type": "bytes32"
        }
      ],
      "stateMutability": "view",
      "type": "function"
    },
    {
      "inputs": [],
      "name": "FEATURE_NAME",
      "outputs": [
        {
          "internalType": "string",
          "name": "",
          "type": "string"
        }
      ],
      "stateMutability": "view",
      "type": "function"
    },
    {
      "inputs": [],
      "name": "FEATURE_VERSION",
      "outputs": [
        {
          "internalType": "uint256",
          "name": "",
          "type": "uint256"
        }
      ],
      "stateMutability": "view",
      "type": "function"
    },
    {
      "inputs": [
        {
          "components": [
            {
              "internalType": "enum LibNFTOrder.TradeDirection",
              "name": "direction",
              "type": "uint8"
            },
            {
              "internalType": "address",
              "name": "maker",
              "type": "address"
            },
            {
              "internalType": "address",
              "name": "taker",
              "type": "address"
            },
            {
              "internalType": "uint256",
              "name": "expiry",
              "type": "uint256"
            },
            {
              "internalType": "uint256",
              "name": "nonce",
              "type": "uint256"
            },
            {
              "internalType": "contract IERC20Token",
              "name": "erc20Token",
              "type": "address"
            },
            {
              "internalType": "uint256",
              "name": "erc20TokenAmount",
              "type": "uint256"
            },
            {
              "components": [
                {
                  "internalType": "address",
                  "name": "recipient",
                  "type": "address"
                },
                {
                  "internalType": "uint256",
                  "name": "amount",
                  "type": "uint256"
                },
                {
                  "internalType": "bytes",
                  "name": "feeData",
                  "type": "bytes"
                }
              ],
              "internalType": "struct LibNFTOrder.Fee[]",
              "name": "fees",
              "type": "tuple[]"
            },
            {
              "internalType": "contract IERC721Token",
              "name": "erc721Token",
              "type": "address"
            },
            {
              "internalType": "uint256",
              "name": "erc721TokenId",
              "type": "uint256"
            },
            {
              "components": [
                {
                  "internalType": "contract IPropertyValidator",
                  "name": "propertyValidator",
                  "type": "address"
                },
                {
                  "internalType": "bytes",
                  "name": "propertyData",
                  "type": "bytes"
                }
              ],
              "internalType": "struct LibNFTOrder.Property[]",
              "name": "erc721TokenProperties",
              "type": "tuple[]"
            }
          ],
          "internalType": "struct LibNFTOrder.ERC721Order",
          "name": "sellOrder",
          "type": "tuple"
        },
        {
          "components": [
            {
              "internalType": "enum LibSignature.SignatureType",
              "name": "signatureType",
              "type": "uint8"
            },
            {
              "internalType": "uint8",
              "name": "v",
              "type": "uint8"
            },
            {
              "internalType": "bytes32",
              "name": "r",
              "type": "bytes32"
            },
            {
              "internalType": "bytes32",
              "name": "s",
              "type": "bytes32"
            }
          ],
          "internalType": "struct LibSignature.Signature",
          "name": "signature",
          "type": "tuple"
        },
        {
          "internalType": "uint256",
          "name": "ethAvailable",
          "type": "uint256"
        },
        {
          "internalType": "bytes",
          "name": "takerCallbackData",
          "type": "bytes"
        }
      ],
      "name": "_buyERC721",
      "outputs": [],
      "stateMutability": "payable",
      "type": "function"
    },
    {
      "inputs": [
        {
          "components": [
            {
              "internalType": "enum LibNFTOrder.TradeDirection",
              "name": "direction",
              "type": "uint8"
            },
            {
              "internalType": "address",
              "name": "maker",
              "type": "address"
            },
            {
              "internalType": "address",
              "name": "taker",
              "type": "address"
            },
            {
              "internalType": "uint256",
              "name": "expiry",
              "type": "uint256"
            },
            {
              "internalType": "uint256",
              "name": "nonce",
              "type": "uint256"
            },
            {
              "internalType": "contract IERC20Token",
              "name": "erc20Token",
              "type": "address"
            },
            {
              "internalType": "uint256",
              "name": "erc20TokenAmount",
              "type": "uint256"
            },
            {
              "components": [
                {
                  "internalType": "address",
                  "name": "recipient",
                  "type": "address"
                },
                {
                  "internalType": "uint256",
                  "name": "amount",
                  "type": "uint256"
                },
                {
                  "internalType": "bytes",
                  "name": "feeData",
                  "type": "bytes"
                }
              ],
              "internalType": "struct LibNFTOrder.Fee[]",
              "name": "fees",
              "type": "tuple[]"
            },
            {
              "internalType": "contract IERC721Token",
              "name": "erc721Token",
              "type": "address"
            },
            {
              "internalType": "uint256",
              "name": "erc721TokenId",
              "type": "uint256"
            },
            {
              "components": [
                {
                  "internalType": "contract IPropertyValidator",
                  "name": "propertyValidator",
                  "type": "address"
                },
                {
                  "internalType": "bytes",
                  "name": "propertyData",
                  "type": "bytes"
                }
              ],
              "internalType": "struct LibNFTOrder.Property[]",
              "name": "erc721TokenProperties",
              "type": "tuple[]"
            }
          ],
          "internalType": "struct LibNFTOrder.ERC721Order[]",
          "name": "sellOrders",
          "type": "tuple[]"
        },
        {
          "components": [
            {
              "internalType": "enum LibSignature.SignatureType",
              "name": "signatureType",
              "type": "uint8"
            },
            {
              "internalType": "uint8",
              "name": "v",
              "type": "uint8"
            },
            {
              "internalType": "bytes32",
              "name": "r",
              "type": "bytes32"
            },
            {
              "internalType": "bytes32",
              "name": "s",
              "type": "bytes32"
            }
          ],
          "internalType": "struct LibSignature.Signature[]",
          "name": "signatures",
          "type": "tuple[]"
        },
        {
          "internalType": "bytes[]",
          "name": "callbackData",
          "type": "bytes[]"
        },
        {
          "internalType": "bool",
          "name": "revertIfIncomplete",
          "type": "bool"
        }
      ],
      "name": "batchBuyERC721s",
      "outputs": [
        {
          "internalType": "bool[]",
          "name": "successes",
          "type": "bool[]"
        }
      ],
      "stateMutability": "payable",
      "type": "function"
    },
    {
      "inputs": [
        {
          "internalType": "uint256[]",
          "name": "orderNonces",
          "type": "uint256[]"
        }
      ],
      "name": "batchCancelERC721Orders",
      "outputs": [],
      "stateMutability": "nonpayable",
      "type": "function"
    },
    {
      "inputs": [
        {
          "components": [
            {
              "internalType": "enum LibNFTOrder.TradeDirection",
              "name": "direction",
              "type": "uint8"
            },
            {
              "internalType": "address",
              "name": "maker",
              "type": "address"
            },
            {
              "internalType": "address",
              "name": "taker",
              "type": "address"
            },
            {
              "internalType": "uint256",
              "name": "expiry",
              "type": "uint256"
            },
            {
              "internalType": "uint256",
              "name": "nonce",
              "type": "uint256"
            },
            {
              "internalType": "contract IERC20Token",
              "name": "erc20Token",
              "type": "address"
            },
            {
              "internalType": "uint256",
              "name": "erc20TokenAmount",
              "type": "uint256"
            },
            {
              "components": [
                {
                  "internalType": "address",
                  "name": "recipient",
                  "type": "address"
                },
                {
                  "internalType": "uint256",
                  "name": "amount",
                  "type": "uint256"
                },
                {
                  "internalType": "bytes",
                  "name": "feeData",
                  "type": "bytes"
                }
              ],
              "internalType": "struct LibNFTOrder.Fee[]",
              "name": "fees",
              "type": "tuple[]"
            },
            {
              "internalType": "contract IERC721Token",
              "name": "erc721Token",
              "type": "address"
            },
            {
              "internalType": "uint256",
              "name": "erc721TokenId",
              "type": "uint256"
            },
            {
              "components": [
                {
                  "internalType": "contract IPropertyValidator",
                  "name": "propertyValidator",
                  "type": "address"
                },
                {
                  "internalType": "bytes",
                  "name": "propertyData",
                  "type": "bytes"
                }
              ],
              "internalType": "struct LibNFTOrder.Property[]",
              "name": "erc721TokenProperties",
              "type": "tuple[]"
            }
          ],
          "internalType": "struct LibNFTOrder.ERC721Order[]",
          "name": "sellOrders",
          "type": "tuple[]"
        },
        {
          "components": [
            {
              "internalType": "enum LibNFTOrder.TradeDirection",
              "name": "direction",
              "type": "uint8"
            },
            {
              "internalType": "address",
              "name": "maker",
              "type": "address"
            },
            {
              "internalType": "address",
              "name": "taker",
              "type": "address"
            },
            {
              "internalType": "uint256",
              "name": "expiry",
              "type": "uint256"
            },
            {
              "internalType": "uint256",
              "name": "nonce",
              "type": "uint256"
            },
            {
              "internalType": "contract IERC20Token",
              "name": "erc20Token",
              "type": "address"
            },
            {
              "internalType": "uint256",
              "name": "erc20TokenAmount",
              "type": "uint256"
            },
            {
              "components": [
                {
                  "internalType": "address",
                  "name": "recipient",
                  "type": "address"
                },
                {
                  "internalType": "uint256",
                  "name": "amount",
                  "type": "uint256"
                },
                {
                  "internalType": "bytes",
                  "name": "feeData",
                  "type": "bytes"
                }
              ],
              "internalType": "struct LibNFTOrder.Fee[]",
              "name": "fees",
              "type": "tuple[]"
            },
            {
              "internalType": "contract IERC721Token",
              "name": "erc721Token",
              "type": "address"
            },
            {
              "internalType": "uint256",
              "name": "erc721TokenId",
              "type": "uint256"
            },
            {
              "components": [
                {
                  "internalType": "contract IPropertyValidator",
                  "name": "propertyValidator",
                  "type": "address"
                },
                {
                  "internalType": "bytes",
                  "name": "propertyData",
                  "type": "bytes"
                }
              ],
              "internalType": "struct LibNFTOrder.Property[]",
              "name": "erc721TokenProperties",
              "type": "tuple[]"
            }
          ],
          "internalType": "struct LibNFTOrder.ERC721Order[]",
          "name": "buyOrders",
          "type": "tuple[]"
        },
        {
          "components": [
            {
              "internalType": "enum LibSignature.SignatureType",
              "name": "signatureType",
              "type": "uint8"
            },
            {
              "internalType": "uint8",
              "name": "v",
              "type": "uint8"
            },
            {
              "internalType": "bytes32",
              "name": "r",
              "type": "bytes32"
            },
            {
              "internalType": "bytes32",
              "name": "s",
              "type": "bytes32"
            }
          ],
          "internalType": "struct LibSignature.Signature[]",
          "name": "sellOrderSignatures",
          "type": "tuple[]"
        },
        {
          "components": [
            {
              "internalType": "enum LibSignature.SignatureType",
              "name": "signatureType",
              "type": "uint8"
            },
            {
              "internalType": "uint8",
              "name": "v",
              "type": "uint8"
            },
            {
              "internalType": "bytes32",
              "name": "r",
              "type": "bytes32"
            },
            {
              "internalType": "bytes32",
              "name": "s",
              "type": "bytes32"
            }
          ],
          "internalType": "struct LibSignature.Signature[]",
          "name": "buyOrderSignatures",
          "type": "tuple[]"
        }
      ],
      "name": "batchMatchERC721Orders",
      "outputs": [
        {
          "internalType": "uint256[]",
          "name": "profits",
          "type": "uint256[]"
        },
        {
          "internalType": "bool[]",
          "name": "successes",
          "type": "bool[]"
        }
      ],
      "stateMutability": "nonpayable",
      "type": "function"
    },
    {
      "inputs": [
        {
          "components": [
            {
              "internalType": "enum LibNFTOrder.TradeDirection",
              "name": "direction",
              "type": "uint8"
            },
            {
              "internalType": "address",
              "name": "maker",
              "type": "address"
            },
            {
              "internalType": "address",
              "name": "taker",
              "type": "address"
            },
            {
              "internalType": "uint256",
              "name": "expiry",
              "type": "uint256"
            },
            {
              "internalType": "uint256",
              "name": "nonce",
              "type": "uint256"
            },
            {
              "internalType": "contract IERC20Token",
              "name": "erc20Token",
              "type": "address"
            },
            {
              "internalType": "uint256",
              "name": "erc20TokenAmount",
              "type": "uint256"
            },
            {
              "components": [
                {
                  "internalType": "address",
                  "name": "recipient",
                  "type": "address"
                },
                {
                  "internalType": "uint256",
                  "name": "amount",
                  "type": "uint256"
                },
                {
                  "internalType": "bytes",
                  "name": "feeData",
                  "type": "bytes"
                }
              ],
              "internalType": "struct LibNFTOrder.Fee[]",
              "name": "fees",
              "type": "tuple[]"
            },
            {
              "internalType": "contract IERC721Token",
              "name": "erc721Token",
              "type": "address"
            },
            {
              "internalType": "uint256",
              "name": "erc721TokenId",
              "type": "uint256"
            },
            {
              "components": [
                {
                  "internalType": "contract IPropertyValidator",
                  "name": "propertyValidator",
                  "type": "address"
                },
                {
                  "internalType": "bytes",
                  "name": "propertyData",
                  "type": "bytes"
                }
              ],
              "internalType": "struct LibNFTOrder.Property[]",
              "name": "erc721TokenProperties",
              "type": "tuple[]"
            }
          ],
          "internalType": "struct LibNFTOrder.ERC721Order",
          "name": "sellOrder",
          "type": "tuple"
        },
        {
          "components": [
            {
              "internalType": "enum LibSignature.SignatureType",
              "name": "signatureType",
              "type": "uint8"
            },
            {
              "internalType": "uint8",
              "name": "v",
              "type": "uint8"
            },
            {
              "internalType": "bytes32",
              "name": "r",
              "type": "bytes32"
            },
            {
              "internalType": "bytes32",
              "name": "s",
              "type": "bytes32"
            }
          ],
          "internalType": "struct LibSignature.Signature",
          "name": "signature",
          "type": "tuple"
        },
        {
          "internalType": "bytes",
          "name": "callbackData",
          "type": "bytes"
        }
      ],
      "name": "buyERC721",
      "outputs": [],
      "stateMutability": "payable",
      "type": "function"
    },
    {
      "inputs": [
        {
          "internalType": "uint256",
          "name": "orderNonce",
          "type": "uint256"
        }
      ],
      "name": "cancelERC721Order",
      "outputs": [],
      "stateMutability": "nonpayable",
      "type": "function"
    },
    {
      "inputs": [
        {
          "components": [
            {
              "internalType": "enum LibNFTOrder.TradeDirection",
              "name": "direction",
              "type": "uint8"
            },
            {
              "internalType": "address",
              "name": "maker",
              "type": "address"
            },
            {
              "internalType": "address",
              "name": "taker",
              "type": "address"
            },
            {
              "internalType": "uint256",
              "name": "expiry",
              "type": "uint256"
            },
            {
              "internalType": "uint256",
              "name": "nonce",
              "type": "uint256"
            },
            {
              "internalType": "contract IERC20Token",
              "name": "erc20Token",
              "type": "address"
            },
            {
              "internalType": "uint256",
              "name": "erc20TokenAmount",
              "type": "uint256"
            },
            {
              "components": [
                {
                  "internalType": "address",
                  "name": "recipient",
                  "type": "address"
                },
                {
                  "internalType": "uint256",
                  "name": "amount",
                  "type": "uint256"
                },
                {
                  "internalType": "bytes",
                  "name": "feeData",
                  "type": "bytes"
                }
              ],
              "internalType": "struct LibNFTOrder.Fee[]",
              "name": "fees",
              "type": "tuple[]"
            },
            {
              "internalType": "contract IERC721Token",
              "name": "erc721Token",
              "type": "address"
            },
            {
              "internalType": "uint256",
              "name": "erc721TokenId",
              "type": "uint256"
            },
            {
              "components": [
                {
                  "internalType": "contract IPropertyValidator",
                  "name": "propertyValidator",
                  "type": "address"
                },
                {
                  "internalType": "bytes",
                  "name": "propertyData",
                  "type": "bytes"
                }
              ],
              "internalType": "struct LibNFTOrder.Property[]",
              "name": "erc721TokenProperties",
              "type": "tuple[]"
            }
          ],
          "internalType": "struct LibNFTOrder.ERC721Order",
          "name": "order",
          "type": "tuple"
        }
      ],
      "name": "getERC721OrderHash",
      "outputs": [
        {
          "internalType": "bytes32",
          "name": "orderHash",
          "type": "bytes32"
        }
      ],
      "stateMutability": "view",
      "type": "function"
    },
    {
      "inputs": [
        {
          "components": [
            {
              "internalType": "enum LibNFTOrder.TradeDirection",
              "name": "direction",
              "type": "uint8"
            },
            {
              "internalType": "address",
              "name": "maker",
              "type": "address"
            },
            {
              "internalType": "address",
              "name": "taker",
              "type": "address"
            },
            {
              "internalType": "uint256",
              "name": "expiry",
              "type": "uint256"
            },
            {
              "internalType": "uint256",
              "name": "nonce",
              "type": "uint256"
            },
            {
              "internalType": "contract IERC20Token",
              "name": "erc20Token",
              "type": "address"
            },
            {
              "internalType": "uint256",
              "name": "erc20TokenAmount",
              "type": "uint256"
            },
            {
              "components": [
                {
                  "internalType": "address",
                  "name": "recipient",
                  "type": "address"
                },
                {
                  "internalType": "uint256",
                  "name": "amount",
                  "type": "uint256"
                },
                {
                  "internalType": "bytes",
                  "name": "feeData",
                  "type": "bytes"
                }
              ],
              "internalType": "struct LibNFTOrder.Fee[]",
              "name": "fees",
              "type": "tuple[]"
            },
            {
              "internalType": "contract IERC721Token",
              "name": "erc721Token",
              "type": "address"
            },
            {
              "internalType": "uint256",
              "name": "erc721TokenId",
              "type": "uint256"
            },
            {
              "components": [
                {
                  "internalType": "contract IPropertyValidator",
                  "name": "propertyValidator",
                  "type": "address"
                },
                {
                  "internalType": "bytes",
                  "name": "propertyData",
                  "type": "bytes"
                }
              ],
              "internalType": "struct LibNFTOrder.Property[]",
              "name": "erc721TokenProperties",
              "type": "tuple[]"
            }
          ],
          "internalType": "struct LibNFTOrder.ERC721Order",
          "name": "order",
          "type": "tuple"
        }
      ],
      "name": "getERC721OrderStatus",
      "outputs": [
        {
          "internalType": "enum LibNFTOrder.OrderStatus",
          "name": "status",
          "type": "uint8"
        }
      ],
      "stateMutability": "view",
      "type": "function"
    },
    {
      "inputs": [
        {
          "internalType": "address",
          "name": "maker",
          "type": "address"
        },
        {
          "internalType": "uint248",
          "name": "nonceRange",
          "type": "uint248"
        }
      ],
      "name": "getERC721OrderStatusBitVector",
      "outputs": [
        {
          "internalType": "uint256",
          "name": "bitVector",
          "type": "uint256"
        }
      ],
      "stateMutability": "view",
      "type": "function"
    },
    {
      "inputs": [
        {
          "components": [
            {
              "internalType": "enum LibNFTOrder.TradeDirection",
              "name": "direction",
              "type": "uint8"
            },
            {
              "internalType": "address",
              "name": "maker",
              "type": "address"
            },
            {
              "internalType": "address",
              "name": "taker",
              "type": "address"
            },
            {
              "internalType": "uint256",
              "name": "expiry",
              "type": "uint256"
            },
            {
              "internalType": "uint256",
              "name": "nonce",
              "type": "uint256"
            },
            {
              "internalType": "contract IERC20Token",
              "name": "erc20Token",
              "type": "address"
            },
            {
              "internalType": "uint256",
              "name": "erc20TokenAmount",
              "type": "uint256"
            },
            {
              "components": [
                {
                  "internalType": "address",
                  "name": "recipient",
                  "type": "address"
                },
                {
                  "internalType": "uint256",
                  "name": "amount",
                  "type": "uint256"
                },
                {
                  "internalType": "bytes",
                  "name": "feeData",
                  "type": "bytes"
                }
              ],
              "internalType": "struct LibNFTOrder.Fee[]",
              "name": "fees",
              "type": "tuple[]"
            },
            {
              "internalType": "contract IERC721Token",
              "name": "erc721Token",
              "type": "address"
            },
            {
              "internalType": "uint256",
              "name": "erc721TokenId",
              "type": "uint256"
            },
            {
              "components": [
                {
                  "internalType": "contract IPropertyValidator",
                  "name": "propertyValidator",
                  "type": "address"
                },
                {
                  "internalType": "bytes",
                  "name": "propertyData",
                  "type": "bytes"
                }
              ],
              "internalType": "struct LibNFTOrder.Property[]",
              "name": "erc721TokenProperties",
              "type": "tuple[]"
            }
          ],
          "internalType": "struct LibNFTOrder.ERC721Order",
          "name": "sellOrder",
          "type": "tuple"
        },
        {
          "components": [
            {
              "internalType": "enum LibNFTOrder.TradeDirection",
              "name": "direction",
              "type": "uint8"
            },
            {
              "internalType": "address",
              "name": "maker",
              "type": "address"
            },
            {
              "internalType": "address",
              "name": "taker",
              "type": "address"
            },
            {
              "internalType": "uint256",
              "name": "expiry",
              "type": "uint256"
            },
            {
              "internalType": "uint256",
              "name": "nonce",
              "type": "uint256"
            },
            {
              "internalType": "contract IERC20Token",
              "name": "erc20Token",
              "type": "address"
            },
            {
              "internalType": "uint256",
              "name": "erc20TokenAmount",
              "type": "uint256"
            },
            {
              "components": [
                {
                  "internalType": "address",
                  "name": "recipient",
                  "type": "address"
                },
                {
                  "internalType": "uint256",
                  "name": "amount",
                  "type": "uint256"
                },
                {
                  "internalType": "bytes",
                  "name": "feeData",
                  "type": "bytes"
                }
              ],
              "internalType": "struct LibNFTOrder.Fee[]",
              "name": "fees",
              "type": "tuple[]"
            },
            {
              "internalType": "contract IERC721Token",
              "name": "erc721Token",
              "type": "address"
            },
            {
              "internalType": "uint256",
              "name": "erc721TokenId",
              "type": "uint256"
            },
            {
              "components": [
                {
                  "internalType": "contract IPropertyValidator",
                  "name": "propertyValidator",
                  "type": "address"
                },
                {
                  "internalType": "bytes",
                  "name": "propertyData",
                  "type": "bytes"
                }
              ],
              "internalType": "struct LibNFTOrder.Property[]",
              "name": "erc721TokenProperties",
              "type": "tuple[]"
            }
          ],
          "internalType": "struct LibNFTOrder.ERC721Order",
          "name": "buyOrder",
          "type": "tuple"
        },
        {
          "components": [
            {
              "internalType": "enum LibSignature.SignatureType",
              "name": "signatureType",
              "type": "uint8"
            },
            {
              "internalType": "uint8",
              "name": "v",
              "type": "uint8"
            },
            {
              "internalType": "bytes32",
              "name": "r",
              "type": "bytes32"
            },
            {
              "internalType": "bytes32",
              "name": "s",
              "type": "bytes32"
            }
          ],
          "internalType": "struct LibSignature.Signature",
          "name": "sellOrderSignature",
          "type": "tuple"
        },
        {
          "components": [
            {
              "internalType": "enum LibSignature.SignatureType",
              "name": "signatureType",
              "type": "uint8"
            },
            {
              "internalType": "uint8",
              "name": "v",
              "type": "uint8"
            },
            {
              "internalType": "bytes32",
              "name": "r",
              "type": "bytes32"
            },
            {
              "internalType": "bytes32",
              "name": "s",
              "type": "bytes32"
            }
          ],
          "internalType": "struct LibSignature.Signature",
          "name": "buyOrderSignature",
          "type": "tuple"
        }
      ],
      "name": "matchERC721Orders",
      "outputs": [
        {
          "internalType": "uint256",
          "name": "profit",
          "type": "uint256"
        }
      ],
      "stateMutability": "nonpayable",
      "type": "function"
    },
    {
      "inputs": [],
      "name": "migrate",
      "outputs": [
        {
          "internalType": "bytes4",
          "name": "success",
          "type": "bytes4"
        }
      ],
      "stateMutability": "nonpayable",
      "type": "function"
    },
    {
      "inputs": [
        {
          "internalType": "address",
          "name": "operator",
          "type": "address"
        },
        {
          "internalType": "address",
          "name": "",
          "type": "address"
        },
        {
          "internalType": "uint256",
          "name": "tokenId",
          "type": "uint256"
        },
        {
          "internalType": "bytes",
          "name": "data",
          "type": "bytes"
        }
      ],
      "name": "onERC721Received",
      "outputs": [
        {
          "internalType": "bytes4",
          "name": "success",
          "type": "bytes4"
        }
      ],
      "stateMutability": "nonpayable",
      "type": "function"
    },
    {
      "inputs": [
        {
          "components": [
            {
              "internalType": "enum LibNFTOrder.TradeDirection",
              "name": "direction",
              "type": "uint8"
            },
            {
              "internalType": "address",
              "name": "maker",
              "type": "address"
            },
            {
              "internalType": "address",
              "name": "taker",
              "type": "address"
            },
            {
              "internalType": "uint256",
              "name": "expiry",
              "type": "uint256"
            },
            {
              "internalType": "uint256",
              "name": "nonce",
              "type": "uint256"
            },
            {
              "internalType": "contract IERC20Token",
              "name": "erc20Token",
              "type": "address"
            },
            {
              "internalType": "uint256",
              "name": "erc20TokenAmount",
              "type": "uint256"
            },
            {
              "components": [
                {
                  "internalType": "address",
                  "name": "recipient",
                  "type": "address"
                },
                {
                  "internalType": "uint256",
                  "name": "amount",
                  "type": "uint256"
                },
                {
                  "internalType": "bytes",
                  "name": "feeData",
                  "type": "bytes"
                }
              ],
              "internalType": "struct LibNFTOrder.Fee[]",
              "name": "fees",
              "type": "tuple[]"
            },
            {
              "internalType": "contract IERC721Token",
              "name": "erc721Token",
              "type": "address"
            },
            {
              "internalType": "uint256",
              "name": "erc721TokenId",
              "type": "uint256"
            },
            {
              "components": [
                {
                  "internalType": "contract IPropertyValidator",
                  "name": "propertyValidator",
                  "type": "address"
                },
                {
                  "internalType": "bytes",
                  "name": "propertyData",
                  "type": "bytes"
                }
              ],
              "internalType": "struct LibNFTOrder.Property[]",
              "name": "erc721TokenProperties",
              "type": "tuple[]"
            }
          ],
          "internalType": "struct LibNFTOrder.ERC721Order",
          "name": "order",
          "type": "tuple"
        }
      ],
      "name": "preSignERC721Order",
      "outputs": [],
      "stateMutability": "nonpayable",
      "type": "function"
    },
    {
      "inputs": [
        {
          "components": [
            {
              "internalType": "enum LibNFTOrder.TradeDirection",
              "name": "direction",
              "type": "uint8"
            },
            {
              "internalType": "address",
              "name": "maker",
              "type": "address"
            },
            {
              "internalType": "address",
              "name": "taker",
              "type": "address"
            },
            {
              "internalType": "uint256",
              "name": "expiry",
              "type": "uint256"
            },
            {
              "internalType": "uint256",
              "name": "nonce",
              "type": "uint256"
            },
            {
              "internalType": "contract IERC20Token",
              "name": "erc20Token",
              "type": "address"
            },
            {
              "internalType": "uint256",
              "name": "erc20TokenAmount",
              "type": "uint256"
            },
            {
              "components": [
                {
                  "internalType": "address",
                  "name": "recipient",
                  "type": "address"
                },
                {
                  "internalType": "uint256",
                  "name": "amount",
                  "type": "uint256"
                },
                {
                  "internalType": "bytes",
                  "name": "feeData",
                  "type": "bytes"
                }
              ],
              "internalType": "struct LibNFTOrder.Fee[]",
              "name": "fees",
              "type": "tuple[]"
            },
            {
              "internalType": "contract IERC721Token",
              "name": "erc721Token",
              "type": "address"
            },
            {
              "internalType": "uint256",
              "name": "erc721TokenId",
              "type": "uint256"
            },
            {
              "components": [
                {
                  "internalType": "contract IPropertyValidator",
                  "name": "propertyValidator",
                  "type": "address"
                },
                {
                  "internalType": "bytes",
                  "name": "propertyData",
                  "type": "bytes"
                }
              ],
              "internalType": "struct LibNFTOrder.Property[]",
              "name": "erc721TokenProperties",
              "type": "tuple[]"
            }
          ],
          "internalType": "struct LibNFTOrder.ERC721Order",
          "name": "buyOrder",
          "type": "tuple"
        },
        {
          "components": [
            {
              "internalType": "enum LibSignature.SignatureType",
              "name": "signatureType",
              "type": "uint8"
            },
            {
              "internalType": "uint8",
              "name": "v",
              "type": "uint8"
            },
            {
              "internalType": "bytes32",
              "name": "r",
              "type": "bytes32"
            },
            {
              "internalType": "bytes32",
              "name": "s",
              "type": "bytes32"
            }
          ],
          "internalType": "struct LibSignature.Signature",
          "name": "signature",
          "type": "tuple"
        },
        {
          "internalType": "uint256",
          "name": "erc721TokenId",
          "type": "uint256"
        },
        {
          "internalType": "bool",
          "name": "unwrapNativeToken",
          "type": "bool"
        },
        {
          "internalType": "bytes",
          "name": "callbackData",
          "type": "bytes"
        }
      ],
      "name": "sellERC721",
      "outputs": [],
      "stateMutability": "nonpayable",
      "type": "function"
    },
    {
      "inputs": [
        {
          "components": [
            {
              "internalType": "enum LibNFTOrder.TradeDirection",
              "name": "direction",
              "type": "uint8"
            },
            {
              "internalType": "address",
              "name": "maker",
              "type": "address"
            },
            {
              "internalType": "address",
              "name": "taker",
              "type": "address"
            },
            {
              "internalType": "uint256",
              "name": "expiry",
              "type": "uint256"
            },
            {
              "internalType": "uint256",
              "name": "nonce",
              "type": "uint256"
            },
            {
              "internalType": "contract IERC20Token",
              "name": "erc20Token",
              "type": "address"
            },
            {
              "internalType": "uint256",
              "name": "erc20TokenAmount",
              "type": "uint256"
            },
            {
              "components": [
                {
                  "internalType": "address",
                  "name": "recipient",
                  "type": "address"
                },
                {
                  "internalType": "uint256",
                  "name": "amount",
                  "type": "uint256"
                },
                {
                  "internalType": "bytes",
                  "name": "feeData",
                  "type": "bytes"
                }
              ],
              "internalType": "struct LibNFTOrder.Fee[]",
              "name": "fees",
              "type": "tuple[]"
            },
            {
              "internalType": "contract IERC721Token",
              "name": "erc721Token",
              "type": "address"
            },
            {
              "internalType": "uint256",
              "name": "erc721TokenId",
              "type": "uint256"
            },
            {
              "components": [
                {
                  "internalType": "contract IPropertyValidator",
                  "name": "propertyValidator",
                  "type": "address"
                },
                {
                  "internalType": "bytes",
                  "name": "propertyData",
                  "type": "bytes"
                }
              ],
              "internalType": "struct LibNFTOrder.Property[]",
              "name": "erc721TokenProperties",
              "type": "tuple[]"
            }
          ],
          "internalType": "struct LibNFTOrder.ERC721Order",
          "name": "order",
          "type": "tuple"
        },
        {
          "internalType": "uint256",
          "name": "erc721TokenId",
          "type": "uint256"
        }
      ],
      "name": "validateERC721OrderProperties",
      "outputs": [],
      "stateMutability": "view",
      "type": "function"
    },
    {
      "inputs": [
        {
          "components": [
            {
              "internalType": "enum LibNFTOrder.TradeDirection",
              "name": "direction",
              "type": "uint8"
            },
            {
              "internalType": "address",
              "name": "maker",
              "type": "address"
            },
            {
              "internalType": "address",
              "name": "taker",
              "type": "address"
            },
            {
              "internalType": "uint256",
              "name": "expiry",
              "type": "uint256"
            },
            {
              "internalType": "uint256",
              "name": "nonce",
              "type": "uint256"
            },
            {
              "internalType": "contract IERC20Token",
              "name": "erc20Token",
              "type": "address"
            },
            {
              "internalType": "uint256",
              "name": "erc20TokenAmount",
              "type": "uint256"
            },
            {
              "components": [
                {
                  "internalType": "address",
                  "name": "recipient",
                  "type": "address"
                },
                {
                  "internalType": "uint256",
                  "name": "amount",
                  "type": "uint256"
                },
                {
                  "internalType": "bytes",
                  "name": "feeData",
                  "type": "bytes"
                }
              ],
              "internalType": "struct LibNFTOrder.Fee[]",
              "name": "fees",
              "type": "tuple[]"
            },
            {
              "internalType": "contract IERC721Token",
              "name": "erc721Token",
              "type": "address"
            },
            {
              "internalType": "uint256",
              "name": "erc721TokenId",
              "type": "uint256"
            },
            {
              "components": [
                {
                  "internalType": "contract IPropertyValidator",
                  "name": "propertyValidator",
                  "type": "address"
                },
                {
                  "internalType": "bytes",
                  "name": "propertyData",
                  "type": "bytes"
                }
              ],
              "internalType": "struct LibNFTOrder.Property[]",
              "name": "erc721TokenProperties",
              "type": "tuple[]"
            }
          ],
          "internalType": "struct LibNFTOrder.ERC721Order",
          "name": "order",
          "type": "tuple"
        },
        {
          "components": [
            {
              "internalType": "enum LibSignature.SignatureType",
              "name": "signatureType",
              "type": "uint8"
            },
            {
              "internalType": "uint8",
              "name": "v",
              "type": "uint8"
            },
            {
              "internalType": "bytes32",
              "name": "r",
              "type": "bytes32"
            },
            {
              "internalType": "bytes32",
              "name": "s",
              "type": "bytes32"
            }
          ],
          "internalType": "struct LibSignature.Signature",
          "name": "signature",
          "type": "tuple"
        }
      ],
      "name": "validateERC721OrderSignature",
      "outputs": [],
      "stateMutability": "view",
      "type": "function"
    }
  ],
  "bytecode": "0x6101006040526801000000000000000060e05234801561001d575f5ffd5b5060405161483538038061483583398101604081905261003c91610115565b306080908152604080517f8b73c3c69bb8fe3d512ecc4cf759cc79239f7b179b0ffacaa9a75d522b39400f6020808301919091527f9e5dae0addaf20578aeb5d70341d092b53b4e14480ac5726438fd436df7ba427828401527f06c015bd22b4c69690933c1058878ebdfef31f9aaae40bbe86d8a09fe1b2972c606083015246938201939093526001600160a01b0394851660a08083019190915282518083038201815260c0928301909352825192909301919091209091529116905261014d565b6001600160a01b0381168114610112575f5ffd5b50565b5f5f60408385031215610126575f5ffd5b8251610131816100fe565b6020840151909250610142816100fe565b809150509250929050565b60805160a05160c05160e05161465a6101db5f395f61015701525f818161054f01528181610591015281816105dc01528181611b2a01528181612390015281816123d401528181612447015281816128250152818161286d0152818161289601526128d701525f81816103540152610e9f01525f8181610ba1015281816110d701526124f9015261465a5ff3fe608060405260043610610110575f3560e01c8063862199401161009d578063d1ca183b11610062578063d1ca183b14610324578063dab400f314610343578063eae93ee714610376578063fbc4a51814610396578063fbee349d146103c2575f5ffd5b806386219940146102945780638fd3ab80146102b3578063afde1b3c146102c7578063b73a6027146102e6578063be167b9d14610305575f5ffd5b8063462103af116100e3578063462103af146101d05780634a13d797146101f157806360018b41146102105780636ae4b4f7146102235780637da9e2cf14610267575f5ffd5b8063030b273014610114578063031b905c146101465780630d8261eb14610179578063150b7a0214610198575b5f5ffd5b34801561011f575f5ffd5b5061013361012e366004613406565b6103d5565b6040519081526020015b60405180910390f35b348015610151575f5ffd5b506101337f000000000000000000000000000000000000000000000000000000000000000081565b348015610184575f5ffd5b506101336101933660046138a8565b610412565b3480156101a3575f5ffd5b506101b76101b236600461392e565b610815565b6040516001600160e01b0319909116815260200161013d565b3480156101db575f5ffd5b506101ef6101ea3660046139c5565b610895565b005b3480156101fc575f5ffd5b506101ef61020b3660046139f6565b6109c5565b6101ef61021e366004613a37565b6109db565b34801561022e575f5ffd5b5061025a6040518060400160405280600c81526020016b4552433732314f726465727360a01b81525081565b60405161013d9190613ae2565b348015610272575f5ffd5b50610286610281366004613bde565b610a6a565b60405161013d929190613cc3565b34801561029f575f5ffd5b506101ef6102ae366004613d1a565b610d58565b3480156102be575f5ffd5b506101b7610d90565b3480156102d2575f5ffd5b506101ef6102e1366004613d98565b610e6c565b3480156102f1575f5ffd5b506101336103003660046139c5565b610e82565b348015610310575f5ffd5b506101ef61031f366004613e26565b610eec565b34801561032f575f5ffd5b506101ef61033e366004613e3d565b610f32565b34801561034e575f5ffd5b506101337f000000000000000000000000000000000000000000000000000000000000000081565b610389610384366004613e88565b610f4d565b60405161013d9190613f90565b3480156103a1575f5ffd5b506103b56103b03660046139c5565b611263565b60405161013d9190613fb6565b6101ef6103d0366004613fd0565b611367565b5f5f6103df6113a7565b6001600160a01b0385165f908152602091825260408082206001600160f81b038716835290925220549150505b92915050565b5f8361010001516001600160a01b03168561010001516001600160a01b0316146104525761045261044d8661010001518661010001516113b3565b611430565b5f61045c86611438565b90505f61046886611438565b90505f610474836114b5565b90505f610480836114b5565b90506104928488848b6020015161155e565b6104a88387838c602001518d61012001516116d4565b6104b784835f0151600161188f565b6104c683825f0151600161188f565b50508660c001518660c0015110156104ed576104ed61044d8860c001518860c001516118ba565b5f8760c001518760c001516105029190614057565b9050610522886101000151896020015189602001518b61012001516118f8565b60a08801516001600160a01b031673eeeeeeeeeeeeeeeeeeeeeeeeeeeeeeeeeeeeeeee14801561058757507f00000000000000000000000000000000000000000000000000000000000000006001600160a01b03168760a001516001600160a01b0316145b156106a9576105c07f00000000000000000000000000000000000000000000000000000000000000008860200151308a60c001516119b7565b60c0870151604051632e1a7d4d60e01b815260048101919091527f00000000000000000000000000000000000000000000000000000000000000006001600160a01b031690632e1a7d4d906024015f604051808303815f87803b158015610625575f5ffd5b505af1158015610637573d5f5f3e3d5ffd5b5050505061064d88602001518960c00151611a4c565b61065f8288602001516001805f611b09565b505f61067084306001806001611b09565b9050808210156106875761068761044d8284611e03565b6106918183614057565b945084156106a3576106a33386611a4c565b50610760565b8660a001516001600160a01b03168860a001516001600160a01b0316146106df576106df61044d8960a001518960a00151611e41565b6106fb8760a0015188602001518a602001518b60c001516119b7565b61070d8288602001516001805f611b09565b505f6107218489602001516001805f611b09565b9050808210156107385761073861044d8284611e03565b6107428183614057565b9450841561075e5761075e8860a00151896020015133886119b7565b505b5f5160206146055f395f51905f52885f0151896020015189602001518b608001518c60a001518d60c001518e61010001518f6101200151336040516107ad9998979695949392919061407e565b60405180910390a15f5160206146055f395f51905f52875f015188602001518a602001518a608001518b60a001518c60c001518d61010001518f6101200151336040516108029998979695949392919061407e565b60405180910390a1505050949350505050565b5f808080610825858701876140db565b9250925092508261010001516001600160a01b0316336001600160a01b03161461085b5761085b61044d338561010001516113b3565b604080515f81526020810190915261087e90849084908a9085908e903090611e88565b50630a85bd0160e11b925050505b95945050505050565b60208101516001600160a01b031633146109115760405162461bcd60e51b815260206004820152603260248201527f4552433732314f7264657273466561747572653a3a7072655369676e455243376044820152711918a7b93232b917a7a7262cafa6a0a5a2a960711b60648201526084015b60405180910390fd5b5f61091b82610e82565b905060016109276113a7565b5f8381526001919091016020908152604091829020805460ff191693151593909317909255835191840151848201516060860151608087015160a088015160c089015160e08a01516101008b01516101208c01516101408d015199517f8c5d0c41fb16a7317a6c55ff7ba93d9d74f79e434fefa694e50d6028afbfa3f09b6109b99b909a999897969594939291614227565b60405180910390a15050565b6109d76109d183611438565b82611f3b565b5050565b610a126109e785611438565b84604051806060016040528060016001600160801b03168152602001868152602001858152506120f8565b505f5160206146055f395f51905f52845f015185602001513387608001518860a001518960c001518a61010001518b61012001515f604051610a5c9998979695949392919061407e565b60405180910390a150505050565b60608084518651148015610a7f575082518451145b8015610a8c575083518651145b610b085760405162461bcd60e51b815260206004820152604160248201527f4552433732314f7264657273466561747572653a3a62617463684d617463684560448201527f52433732314f72646572732f41525241595f4c454e4754485f4d49534d4154436064820152600960fb1b608482015260a401610908565b85516001600160401b03811115610b2157610b21613448565b604051908082528060200260200182016040528015610b4a578160200160208202803683370190505b50915085516001600160401b03811115610b6657610b66613448565b604051908082528060200260200182016040528015610b8f578160200160208202803683370190505b5090505f5b8651811015610d4e5760607f00000000000000000000000000000000000000000000000000000000000000006001600160a01b0316630d8261eb60e01b898481518110610be357610be36142ba565b6020026020010151898581518110610bfd57610bfd6142ba565b6020026020010151898681518110610c1757610c176142ba565b6020026020010151898781518110610c3157610c316142ba565b6020026020010151604051602401610c4c94939291906143de565b60408051601f198184030181529181526020820180516001600160e01b03166001600160e01b0319909416939093179092529051610c8a9190614421565b5f60405180830381855af49150503d805f8114610cc2576040519150601f19603f3d011682016040523d82523d5f602084013e610cc7565b606091505b50848481518110610cda57610cda6142ba565b6020026020010181935082151515158152505050828281518110610d0057610d006142ba565b602002602001015115610d45575f81806020019051810190610d229190614437565b905080858481518110610d3757610d376142ba565b602002602001018181525050505b50600101610b94565b5094509492505050565b5f5b81811015610d8b57610d83838383818110610d7757610d776142ba565b90506020020135610eec565b600101610d5a565b505050565b5f610da1632bf786cf60e21b6124d2565b610db163fbee349d60e01b6124d2565b610dc163be167b9d60e01b6124d2565b610dd163eae93ee760e01b6124d2565b610de1630d8261eb60e01b6124d2565b610df1637da9e2cf60e01b6124d2565b610e01630a85bd0160e11b6124d2565b610e1163462103af60e01b6124d2565b610e2163d1ca183b60e01b6124d2565b610e31634a13d79760e01b6124d2565b610e41631f7894a360e31b6124d2565b610e5163b73a602760e01b6124d2565b610e606230b27360e41b6124d2565b50632c64c5ef60e01b90565b610e7b85858585333387611e88565b5050505050565b5f61040c610e8f83612552565b60405161190160f01b60208201527f00000000000000000000000000000000000000000000000000000000000000006022820152604281018290525f90606201604051602081830303815290604052805190602001209050919050565b610ef633826125cf565b60408051338152602081018390527fa015ad2dc32f266993958a0fd9884c746b971b254206f3478bc43e2f125c7b9e910160405180910390a150565b5f610f3c83610e82565b9050610d8b81838560200151612612565b606083518551148015610f61575082518551145b610fd35760405162461bcd60e51b815260206004820152603a60248201527f4552433732314f7264657273466561747572653a3a626174636842757945524360448201527f373231732f41525241595f4c454e4754485f4d49534d415443480000000000006064820152608401610908565b84516001600160401b03811115610fec57610fec613448565b604051908082528060200260200182016040528015611015578160200160208202803683370190505b5090505f6110233447614057565b905082156110ca575f5b86518110156110c45761109887828151811061104b5761104b6142ba565b6020026020010151878381518110611065576110656142ba565b602002602001015184476110799190614057565b88858151811061108b5761108b6142ba565b60200260200101516109db565b60018382815181106110ac576110ac6142ba565b9115156020928302919091019091015260010161102d565b5061121d565b5f5b865181101561121b577f00000000000000000000000000000000000000000000000000000000000000006001600160a01b03166360018b4160e01b888381518110611119576111196142ba565b6020026020010151888481518110611133576111336142ba565b602002602001015185476111479190614057565b898681518110611159576111596142ba565b6020026020010151604051602401611174949392919061444e565b60408051601f198184030181529181526020820180516001600160e01b03166001600160e01b03199094169390931790925290516111b29190614421565b5f60405180830381855af49150503d805f81146111ea576040519150601f19603f3d011682016040523d82523d5f602084013e6111ef565b606091505b5050838281518110611203576112036142ba565b911515602092830291909101909101526001016110cc565b505b47818110156112465761124661044d6112368385614057565b6112409034614490565b34612691565b611259336112548484614057565b611a4c565b5050949350505050565b5f5f8261014001515111801561129a575060018251600181111561128957611289613fa2565b14158061129a575061012082015115155b156112a657505f919050565b6001825160018111156112bb576112bb613fa2565b1480156112e8575060a08201516001600160a01b031673eeeeeeeeeeeeeeeeeeeeeeeeeeeeeeeeeeeeeeee145b156112f457505f919050565b4282606001511161130757506003919050565b5f6113106113a7565b6020808501516001600160a01b03165f908152828252604080822060808801805160081c84529352902054905191925090600160ff9091161b8082161561135c57506002949350505050565b506001949350505050565b5f6113723447614057565b9050611380848434856109db565b47818110156113995761139961044d6112368385614057565b610e7b336112548484614057565b5f5f61040c60096126cf565b6040516001600160a01b038084166024830152821660448201526060907f21916d9c05d4d89fb4c8db2934603a48c5480a95f94dfd3a2cd9ac40b8615d15906064015b60408051601f198184030181529190526020810180516001600160e01b03166001600160e01b031990931692909217909152905092915050565b805160208201fd5b6114b1604080516101608101909152805f81526020015f6001600160a01b031681526020015f6001600160a01b031681526020015f81526020015f81526020015f6001600160a01b031681526020015f8152602001606081526020015f6001600160a01b031681526020015f8152602001606081525090565b5090565b604080516080810182525f8082526020820181905291810182905260608101829052906114e183611438565b90506114ec81610e82565b82526114f781611263565b8260200190600381111561150d5761150d613fa2565b9081600381111561152057611520613fa2565b9052506001604083018190528260200151600381111561154257611542613fa2565b1461154d575f611550565b60015b60ff16606083015250919050565b5f8451600181111561157257611572613fa2565b146115db5760405162461bcd60e51b815260206004820152603360248201527f4e46544f72646572733a3a5f76616c696461746553656c6c4f726465722f575260448201527227a723afaa2920a222afa224a922a1aa24a7a760691b6064820152608401610908565b60408401516001600160a01b03161580159061160d5750806001600160a01b031684604001516001600160a01b031614155b156116235761162361044d8286604001516126f7565b60018260200151600381111561163b5761163b613fa2565b146116bc576116bc61044d856020015186608001518560200151600381111561166657611666613fa2565b604080516001600160a01b03949094166024850152604484019290925260ff1660648084019190915281518084039091018152608490920190526020810180516001600160e01b031662c5d2e760e21b17905290565b6116ce825f0151848660200151612612565b50505050565b6001855160018111156116e9576116e9613fa2565b146117515760405162461bcd60e51b815260206004820152603260248201527f4e46544f72646572733a3a5f76616c69646174654275794f726465722f57524f6044820152712723afaa2920a222afa224a922a1aa24a7a760711b6064820152608401610908565b73eeeeeeeeeeeeeeeeeeeeeeeeeeeeeeeeeeeeeeee6001600160a01b03168560a001516001600160a01b0316036117e85760405162461bcd60e51b815260206004820152603560248201527f4e46544f72646572733a3a5f76616c69646174654275794f726465722f4e415460448201527412559157d513d2d15397d393d517d0531313d5d151605a1b6064820152608401610908565b60408501516001600160a01b03161580159061181a5750816001600160a01b031685604001516001600160a01b031614155b156118305761183061044d8387604001516126f7565b60018360200151600381111561184857611848613fa2565b146118735761187361044d866020015187608001518660200151600381111561166657611666613fa2565b61187d8582611f3b565b610e7b835f0151858760200151612612565b806001600160801b03166001146118a8576118a86144a3565b610d8b836020015184608001516125cf565b60405160248101839052604481018290526060907f2c837d7451f39ae9868ea7dacec7847412534d287da737ffde01c3c8b2f61c0a906064016113f6565b306001600160a01b0385160361195e5760405162461bcd60e51b815260206004820152602560248201527f466978696e4552433732315370656e6465722f43414e4e4f545f494e564f4b456044820152642fa9a2a62360d91b6064820152608401610908565b6040516323b872dd60e01b81526001600160a01b03841660048201526001600160a01b03831660248201528160448201525f5f6064835f6001600160a01b038a165af1806119af573d805f843e8083fd5b505050505050565b306001600160a01b038516036119df5760405162461bcd60e51b8152600401610908906144b7565b6040516323b872dd60e01b81526001600160a01b03841660048201526001600160a01b03831660248201528160448201526020816064835f6001600160a01b038a165af13d60018351146020821015168115178216915081611a4357805f843e8083fd5b50505050505050565b80156109d7575f826001600160a01b0316826040515f6040518083038185875af1925050503d805f8114611a9b576040519150601f19603f3d011682016040523d82523d5f602084013e611aa0565b606091505b5050905080610d8b5760405162461bcd60e51b815260206004820152602f60248201527f466978696e546f6b656e5370656e6465723a3a5f7472616e736665724574682f60448201526e1514905394d1915497d19052531151608a1b6064820152608401610908565b5f8115611b98576001600160a01b0385163014611b2857611b286144a3565b7f00000000000000000000000000000000000000000000000000000000000000006001600160a01b03168660a001516001600160a01b03161480611b8c575060a08601516001600160a01b031673eeeeeeeeeeeeeeeeeeeeeeeeeeeeeeeeeeeeeeee145b611b9857611b986144a3565b5f5b8660e0015151811015611df9575f8760e001518281518110611bbe57611bbe6142ba565b60200260200101519050306001600160a01b0316815f01516001600160a01b031603611c4b5760405162461bcd60e51b815260206004820152603660248201527f4e46544f72646572733a3a5f706179466565732f524543495049454e545f43416044820152754e4e4f545f42455f45584348414e47455f50524f585960501b6064820152608401610908565b5f856001600160801b0316876001600160801b031603611c7057506020810151611c94565b611c91876001600160801b0316876001600160801b0316846020015161273e565b90505b805f03611ca2575050611df1565b8415611cb9578151611cb49082611a4c565b611ccc565b611ccc8960a0015189845f0151846119b7565b60408201515115611de25781515f906001600160a01b03166330787dd187611cf8578b60a00151611d0e565b73eeeeeeeeeeeeeeeeeeeeeeeeeeeeeeeeeeeeeeee5b8486604001516040518463ffffffff1660e01b8152600401611d32939291906144fb565b6020604051808303815f875af1158015611d4e573d5f5f3e3d5ffd5b505050506040513d601f19601f82011682018060405250810190611d729190614521565b90506001600160e01b031981166330787dd160e01b14611de05760405162461bcd60e51b815260206004820152602360248201527f4e46544f72646572733a3a5f706179466565732f43414c4c4241434b5f46414960448201526213115160ea1b6064820152608401610908565b505b611dec8185614490565b935050505b600101611b9a565b5095945050505050565b60405160248101839052604481018290526060907fcc7617254e6a41fba90a903927c0528c50be1de6f67462ac6cad28a99b1fdf72906064016113f6565b6040516001600160a01b038084166024830152821660448201526060907f035a4cad8d6eddf7c418e1bf06082335925e99c1e1c08596b45ea79896833d73906064016113f6565b611ee5611e9488611438565b876040518060c0016040528060016001600160801b031681526020018981526020018815158152602001876001600160a01b03168152602001866001600160a01b031681526020018581525061275c565b505f5160206146055f395f51905f52875f01518860200151858a608001518b60a001518c60c001518d61010001518c5f604051611f2a9998979695949392919061407e565b60405180910390a150505050505050565b600182516001811115611f5057611f50613fa2565b14611fc35760405162461bcd60e51b815260206004820152603960248201527f4e46544f72646572733a3a5f76616c69646174654f7264657250726f7065727460448201527f6965732f57524f4e475f54524144455f444952454354494f4e000000000000006064820152608401610908565b816101400151515f03611fee5781610120015181146109d7576109d761044d82846101200151612b0b565b5f5b82610140015151811015610d8b575f8361014001518281518110612016576120166142ba565b602090810291909101015180519091506001600160a01b031661203957506120f0565b80516101008501516020830151604051631395c0f360e01b81526001600160a01b0390931692631395c0f3926120769290918891906004016144fb565b5f6040518083038186803b15801561208c575f5ffd5b505afa92505050801561209d575060015b6120ee573d8080156120ca576040519150601f19603f3d011682016040523d82523d5f602084013e6120cf565b606091505b506120ec61044d835f015187610100015187866020015186612b49565b505b505b600101611ff0565b5f5f612103856114b5565b90506121118585833361155e565b80606001516001600160801b0316835f01516001600160801b031611156121465761214661044d8260600151855f0151612bc2565b8051835161215591879161188f565b80604001516001600160801b0316835f01516001600160801b031603612181578460c0015191506121ac565b6121a9835f01516001600160801b031682604001516001600160801b03168760c00151612c09565b91505b6121d3856101000151866020015133886101200151875f01516001600160801b0316612c2a565b602083015160408401515115612336573033036122425760405162461bcd60e51b815260206004820152602760248201527f4e46544f72646572733a3a5f6275794e46542f43414e4e4f545f43414c4c424160448201526621a5afa9a2a62360c91b6064820152608401610908565b8151604080860151905163f2b45c6f60e01b815247925f92339263f2b45c6f92612270929091600401614548565b6020604051808303815f875af115801561228c573d5f5f3e3d5ffd5b505050506040513d601f19601f820116820180604052508101906122b09190614521565b90506122bc8247614057565b6122c69084614490565b92506001600160e01b0319811663f2b45c6f60e01b146123335760405162461bcd60e51b815260206004820152602260248201527f4e46544f72646572733a3a5f6275794e46542f43414c4c4241434b5f4641494c604482015261115160f21b6064820152608401610908565b50505b73eeeeeeeeeeeeeeeeeeeeeeeeeeeeeeeeeeeeeeee6001600160a01b03168660a001516001600160a01b03160361238e57612375866020015184611a4c565b61238986855f015184604001518685612c46565b6124c9565b7f00000000000000000000000000000000000000000000000000000000000000006001600160a01b03168660a001516001600160a01b03160361249f57828110612471577f00000000000000000000000000000000000000000000000000000000000000006001600160a01b031663d0e30db0846040518263ffffffff1660e01b81526004015f604051808303818588803b15801561242b575f5ffd5b505af115801561243d573d5f5f3e3d5ffd5b50505050506123757f0000000000000000000000000000000000000000000000000000000000000000876020015185612c78565b6124858660a00151338860200151866119b7565b6124998633865f015185604001515f611b09565b506124c9565b6124b38660a00151338860200151866119b7565b6124c78633865f015185604001515f611b09565b505b50509392505050565b604051636eb224cb60e01b81526001600160e01b0319821660048201526001600160a01b037f00000000000000000000000000000000000000000000000000000000000000001660248201523090636eb224cb906044015f604051808303815f87803b158015612540575f5ffd5b505af1158015610e7b573d5f5f3e3d5ffd5b5f5f612562836101400151612cf5565b90505f6125728460e00151612f25565b9050602084101561257f57fe5b601f198401805160e08601805161014090970180517f2de32b2b090da7d8ab83ca4c85ba2eb6957bc7f6c50cb4ae1995e87560d808ed855294825294855261018083209190925294905290525090565b600160ff82161b806125df6113a7565b6001600160a01b039094165f9081526020948552604080822060089590951c825293909452919092208054909117905550565b60048251600481111561262757612627613fa2565b0361265e575f6126356113a7565b5f858152600191909101602052604090205460ff169050806116ce576116ce61044d835f613123565b5f612669848461316a565b9050816001600160a01b0316816001600160a01b0316146116ce576116ce61044d8383613123565b60405160248101839052604481018290526060907ff066156ec319f3a42c58bb7c010e11f5c3620c829e5770398578cb4afa69970f906064016113f6565b5f608082600b8111156126e4576126e4613fa2565b6126ef906001614490565b901b92915050565b6040516001600160a01b038084166024830152821660448201526060907f95d9ecc19fc066a15ea87d62b14d6e6f74032bbb37cecf6f42cb5ae9e2b29820906064016113f6565b5f8261274a8386614560565b6127549190614577565b949350505050565b5f5f612767856114b5565b905061277e858583866060015187602001516116d4565b80606001516001600160801b0316835f01516001600160801b031611156127b3576127b361044d8260600151855f0151612bc2565b805183516127c291879161188f565b80604001516001600160801b0316835f01516001600160801b0316036127ee578460c001519150612819565b612816835f01516001600160801b031682604001516001600160801b03168760c0015161273e565b91505b826040015115612949577f00000000000000000000000000000000000000000000000000000000000000006001600160a01b03168560a001516001600160a01b0316146128915761289161044d8660a001517f0000000000000000000000000000000000000000000000000000000000000000611e41565b6128c17f0000000000000000000000000000000000000000000000000000000000000000866020015130856119b7565b604051632e1a7d4d60e01b8152600481018390527f00000000000000000000000000000000000000000000000000000000000000006001600160a01b031690632e1a7d4d906024015f604051808303815f87803b158015612920575f5ffd5b505af1158015612932573d5f5f3e3d5ffd5b50505050612944836060015183611a4c565b612961565b6129618560a0015186602001518560600151856119b7565b60a08301515115612ac957306001600160a01b031683606001516001600160a01b0316036129e25760405162461bcd60e51b815260206004820152602860248201527f4e46544f72646572733a3a5f73656c6c4e46542f43414e4e4f545f43414c4c4260448201526720a1a5afa9a2a62360c11b6064820152608401610908565b6060830151815160a085015160405163f2b45c6f60e01b81525f936001600160a01b03169263f2b45c6f92612a1992600401614548565b6020604051808303815f875af1158015612a35573d5f5f3e3d5ffd5b505050506040513d601f19601f82011682018060405250810190612a599190614521565b90506001600160e01b0319811663f2b45c6f60e01b14612ac75760405162461bcd60e51b815260206004820152602360248201527f4e46544f72646572733a3a5f73656c6c4e46542f43414c4c4241434b5f46414960448201526213115160ea1b6064820152608401610908565b505b612af3856101000151846080015187602001518660200151875f01516001600160801b0316612c2a565b6124c9858660200151855f015184604001515f611b09565b60405160248101839052604481018290526060907f3a0e82ab33a6ded59a82e996d14f78373afacfa934ad72bb76427beb2c8abd40906064016113f6565b60607f409690f4d9f5014a9e8b0bc8995bfa0621e9da9daa9cd07a7c17d83cd3c4b5968686868686604051602401612b85959493929190614596565b60408051601f198184030181529190526020810180516001600160e01b03166001600160e01b031990931692909217909152905095945050505050565b6040516001600160801b038084166024830152821660448201526060907f4a5879850ad3b01848624d9559668b5a30a921c62ed2e7c3301591f9e7899a76906064016113f6565b5f82612c16600182614057565b612c208487614560565b61274a9190614490565b80600114612c3a57612c3a6144a3565b610e7b858585856118f8565b5f612c55863087876001611b09565b9050612c618184614490565b9250818311156119af576119af61044d8484612691565b306001600160a01b03841603612ca05760405162461bcd60e51b8152600401610908906144b7565b60405163a9059cbb60e01b81526001600160a01b03831660048201528160248201526020816044835f6001600160a01b0389165af13d600183511460208210151681151782169150816119af57805f843e8083fd5b80515f90808203612d28577fc5d2460186f7233c927e7db2dcc703c0e500b653ca82273b7bfad8045d85a4709150612f1f565b80600103612dfa575f835f81518110612d4357612d436142ba565b602002602001015190505f6001600160a01b0316815f01516001600160a01b0316148015612d745750602081015151155b15612da1577f720ee400a9024f6a49768142c339bf09d2dd9056ab52d20fbe7165faba6e142d9250612df4565b602080820151805190820120604080517f6292cf854241cb36887e639065eca63b3af9f7f70270cebeda4c29b6d3bc65e8815284516001600160a01b031681850152908101919091526060812081522092505b50612f1f565b5f816001600160401b03811115612e1357612e13613448565b604051908082528060200260200182016040528015612e3c578160200160208202803683370190505b5090505f5b82811015612f13577f6292cf854241cb36887e639065eca63b3af9f7f70270cebeda4c29b6d3bc65e8858281518110612e7c57612e7c6142ba565b60200260200101515f0151868381518110612e9957612e996142ba565b60200260200101516020015180519060200120604051602001612ed8939291909283526001600160a01b03919091166020830152604082015260600190565b60405160208183030381529060405280519060200120828281518110612f0057612f006142ba565b6020908102919091010152600101612e41565b50602082810291012091505b50919050565b80515f90808203612f58577fc5d2460186f7233c927e7db2dcc703c0e500b653ca82273b7bfad8045d85a4709150612f1f565b80600103612fe6575f835f81518110612f7357612f736142ba565b602002602001015190505f81604001518051906020012090506040517fe68c29f1b4e8cce0bbcac76eb1334bdc1dc1f293a517c90e9e532340e1e94115815282516001600160a01b0316602082015260208301516040820152816060820152608081208152602081209450505050612f1f565b5f816001600160401b03811115612fff57612fff613448565b604051908082528060200260200182016040528015613028578160200160208202803683370190505b5090505f5b82811015612f13577fe68c29f1b4e8cce0bbcac76eb1334bdc1dc1f293a517c90e9e532340e1e94115858281518110613068576130686142ba565b60200260200101515f0151868381518110613085576130856142ba565b6020026020010151602001518784815181106130a3576130a36142ba565b602002602001015160400151805190602001206040516020016130e894939291909384526001600160a01b039290921660208401526040830152606082015260800190565b60405160208183030381529060405280519060200120828281518110613110576131106142ba565b602090810291909101015260010161302d565b6040516001600160a01b038084166024830152821660448201526060907f84356db366796dc6e2aeb1ad74b631fe4e5ec6a650464da6059e9f95c8810a10906064016113f6565b5f61317583836132d4565b60028251600481111561318a5761318a613fa2565b036131fb5760208083015160408085015160608087015183515f815295860180855289905260ff9094169285019290925290830152608082015260019060a0016020604051602081039080840390855afa1580156131ea573d5f5f3e3d5ffd5b5050506020604051035190506132b8565b60038251600481111561321057613210613fa2565b036132b8575f7f19457468657265756d205369676e6564204d6573736167653a0a3332000000005f5283601c52603c5f2090506001818460200151856040015186606001516040515f815260200160405260405161328a949392919093845260ff9290921660208401526040830152606082015260800190565b6020604051602081039080840390855afa1580156132aa573d5f5f3e3d5ffd5b505050602060405103519150505b6001600160a01b03811661040c5761040c61044d6005856133a9565b604081015170014551231950b75fc4402da1732fc9bebe191115806133245750613311600270014551231950b75fc4402da1732fc9bebe19614577565b61331c906001614490565b606082015110155b156133375761333761044d6005846133a9565b5f8151600481111561334b5761334b613fa2565b0361335e5761335e61044d6003846133a9565b60018151600481111561337357613373613fa2565b036133855761338561044d5f846133a9565b60048151600481111561339a5761339a613fa2565b036109d7576109d761044d6002845b60607ff18f11f3027e735c758137924b262d4d3aff0037dcd785aca3c699fa05d960bd83836040516024016113f69291906145e6565b6001600160a01b03811681146133f3575f5ffd5b50565b8035613401816133df565b919050565b5f5f60408385031215613417575f5ffd5b8235613422816133df565b915060208301356001600160f81b038116811461343d575f5ffd5b809150509250929050565b634e487b7160e01b5f52604160045260245ffd5b604051606081016001600160401b038111828210171561347e5761347e613448565b60405290565b604080519081016001600160401b038111828210171561347e5761347e613448565b60405161016081016001600160401b038111828210171561347e5761347e613448565b604051601f8201601f191681016001600160401b03811182821017156134f1576134f1613448565b604052919050565b803560028110613401575f5ffd5b5f6001600160401b0382111561351f5761351f613448565b5060051b60200190565b5f82601f830112613538575f5ffd5b81356001600160401b0381111561355157613551613448565b613564601f8201601f19166020016134c9565b818152846020838601011115613578575f5ffd5b816020850160208301375f918101602001919091529392505050565b5f82601f8301126135a3575f5ffd5b81356135b66135b182613507565b6134c9565b8082825260208201915060208360051b8601019250858311156135d7575f5ffd5b602085015b83811015611df95780356001600160401b038111156135f9575f5ffd5b86016060818903601f1901121561360e575f5ffd5b61361661345c565b6020820135613624816133df565b81526040820135602082015260608201356001600160401b03811115613648575f5ffd5b6136578a602083860101613529565b604083015250845250602092830192016135dc565b5f82601f83011261367b575f5ffd5b81356136896135b182613507565b8082825260208201915060208360051b8601019250858311156136aa575f5ffd5b602085015b83811015611df95780356001600160401b038111156136cc575f5ffd5b86016040818903601f190112156136e1575f5ffd5b6136e9613484565b60208201356136f7816133df565b815260408201356001600160401b03811115613711575f5ffd5b6137208a602083860101613529565b60208301525080855250506020830192506020810190506136af565b5f610160828403121561374d575f5ffd5b6137556134a6565b9050613760826134f9565b815261376e602083016133f6565b602082015261377f604083016133f6565b604082015260608281013590820152608080830135908201526137a460a083016133f6565b60a082015260c0828101359082015260e08201356001600160401b038111156137cb575f5ffd5b6137d784828501613594565b60e0830152506137ea61010083016133f6565b61010082015261012082810135908201526101408201356001600160401b03811115613814575f5ffd5b6138208482850161366c565b6101408301525092915050565b5f6080828403121561383d575f5ffd5b604051608081016001600160401b038111828210171561385f5761385f613448565b604052905080823560058110613873575f5ffd5b8152602083013560ff81168114613888575f5ffd5b602082015260408381013590820152606092830135920191909152919050565b5f5f5f5f61014085870312156138bc575f5ffd5b84356001600160401b038111156138d1575f5ffd5b6138dd8782880161373c565b94505060208501356001600160401b038111156138f8575f5ffd5b6139048782880161373c565b935050613914866040870161382d565b91506139238660c0870161382d565b905092959194509250565b5f5f5f5f5f60808688031215613942575f5ffd5b853561394d816133df565b9450602086013561395d816133df565b93506040860135925060608601356001600160401b0381111561397e575f5ffd5b8601601f8101881361398e575f5ffd5b80356001600160401b038111156139a3575f5ffd5b8860208284010111156139b4575f5ffd5b959894975092955050506020019190565b5f602082840312156139d5575f5ffd5b81356001600160401b038111156139ea575f5ffd5b6127548482850161373c565b5f5f60408385031215613a07575f5ffd5b82356001600160401b03811115613a1c575f5ffd5b613a288582860161373c565b95602094909401359450505050565b5f5f5f5f60e08587031215613a4a575f5ffd5b84356001600160401b03811115613a5f575f5ffd5b613a6b8782880161373c565b945050613a7b866020870161382d565b925060a0850135915060c08501356001600160401b03811115613a9c575f5ffd5b613aa887828801613529565b91505092959194509250565b5f81518084528060208401602086015e5f602082860101526020601f19601f83011685010191505092915050565b602081525f613af46020830184613ab4565b9392505050565b5f82601f830112613b0a575f5ffd5b8135613b186135b182613507565b8082825260208201915060208360051b860101925085831115613b39575f5ffd5b602085015b83811015611df95780356001600160401b03811115613b5b575f5ffd5b613b6a886020838a010161373c565b84525060209283019201613b3e565b5f82601f830112613b88575f5ffd5b8135613b966135b182613507565b8082825260208201915060208360071b860101925085831115613bb7575f5ffd5b602085015b83811015611df957613bce878261382d565b8352602090920191608001613bbc565b5f5f5f5f60808587031215613bf1575f5ffd5b84356001600160401b03811115613c06575f5ffd5b613c1287828801613afb565b94505060208501356001600160401b03811115613c2d575f5ffd5b613c3987828801613afb565b93505060408501356001600160401b03811115613c54575f5ffd5b613c6087828801613b79565b92505060608501356001600160401b03811115613c7b575f5ffd5b613aa887828801613b79565b5f8151808452602084019350602083015f5b82811015613cb95781511515865260209586019590910190600101613c99565b5093949350505050565b604080825283519082018190525f9060208501906060840190835b81811015613cfc578351835260209384019390920191600101613cde565b50508381036020850152613d108186613c87565b9695505050505050565b5f5f60208385031215613d2b575f5ffd5b82356001600160401b03811115613d40575f5ffd5b8301601f81018513613d50575f5ffd5b80356001600160401b03811115613d65575f5ffd5b8560208260051b8401011115613d79575f5ffd5b6020919091019590945092505050565b80358015158114613401575f5ffd5b5f5f5f5f5f6101008688031215613dad575f5ffd5b85356001600160401b03811115613dc2575f5ffd5b613dce8882890161373c565b955050613dde876020880161382d565b935060a08601359250613df360c08701613d89565b915060e08601356001600160401b03811115613e0d575f5ffd5b613e1988828901613529565b9150509295509295909350565b5f60208284031215613e36575f5ffd5b5035919050565b5f5f60a08385031215613e4e575f5ffd5b82356001600160401b03811115613e63575f5ffd5b613e6f8582860161373c565b925050613e7f846020850161382d565b90509250929050565b5f5f5f5f60808587031215613e9b575f5ffd5b84356001600160401b03811115613eb0575f5ffd5b613ebc87828801613afb565b94505060208501356001600160401b03811115613ed7575f5ffd5b613ee387828801613b79565b93505060408501356001600160401b03811115613efe575f5ffd5b8501601f81018713613f0e575f5ffd5b8035613f1c6135b182613507565b8082825260208201915060208360051b850101925089831115613f3d575f5ffd5b602084015b83811015613f7d5780356001600160401b03811115613f5f575f5ffd5b613f6e8c602083890101613529565b84525060209283019201613f42565b5094506139239250505060608601613d89565b602081525f613af46020830184613c87565b634e487b7160e01b5f52602160045260245ffd5b6020810160048310613fca57613fca613fa2565b91905290565b5f5f5f60c08486031215613fe2575f5ffd5b83356001600160401b03811115613ff7575f5ffd5b6140038682870161373c565b935050614013856020860161382d565b915060a08401356001600160401b0381111561402d575f5ffd5b61403986828701613529565b9150509250925092565b634e487b7160e01b5f52601160045260245ffd5b8181038181111561040c5761040c614043565b6002811061407a5761407a613fa2565b9052565b610120810161408d828c61406a565b6001600160a01b03998a16602083015297891660408201526060810196909652938716608086015260a0850192909252851660c084015260e083015290921661010090920191909152919050565b5f5f5f60c084860312156140ed575f5ffd5b83356001600160401b03811115614102575f5ffd5b61410e8682870161373c565b93505061411e856020860161382d565b915061412c60a08501613d89565b90509250925092565b5f82825180855260208501945060208160051b830101602085015f5b838110156141ad57848303601f19018852815180516001600160a01b031684526020808201519085015260409081015160609185018290529061419690850182613ab4565b6020998a0199909450929092019150600101614151565b50909695505050505050565b5f82825180855260208501945060208160051b830101602085015f5b838110156141ad57848303601f19018852815180516001600160a01b0316845260209081015160409185018290529061421090850182613ab4565b6020998a01999094509290920191506001016141d5565b614231818d61406a565b6001600160a01b038b811660208301528a81166040830152606082018a905260808201899052871660a082015260c0810186905261016060e082018190525f9061427d90830187614135565b6001600160a01b03861661010084015261012083018590528281036101408401526142a881856141b9565b9e9d5050505050505050505050505050565b634e487b7160e01b5f52603260045260245ffd5b6142d982825161406a565b5f60208201516142f460208501826001600160a01b03169052565b50604082015161430f60408501826001600160a01b03169052565b50606082015160608401526080820151608084015260a082015161433e60a08501826001600160a01b03169052565b5060c082015160c084015260e082015161016060e0850152614364610160850182614135565b90506101008301516143826101008601826001600160a01b03169052565b5061012083015161012085015261014083015184820361014086015261088c82826141b9565b8051600581106143ba576143ba613fa2565b825260208181015160ff169083015260408082015190830152606090810151910152565b61014081525f6143f26101408301876142ce565b828103602084015261440481876142ce565b91505061441460408301856143a8565b61088c60c08301846143a8565b5f82518060208501845e5f920191825250919050565b5f60208284031215614447575f5ffd5b5051919050565b60e081525f61446060e08301876142ce565b61446d60208401876143a8565b8460a084015282810360c08401526144858185613ab4565b979650505050505050565b8082018082111561040c5761040c614043565b634e487b7160e01b5f52600160045260245ffd5b60208082526024908201527f466978696e546f6b656e5370656e6465722f43414e4e4f545f494e564f4b455f60408201526329a2a62360e11b606082015260800190565b60018060a01b0384168152826020820152606060408201525f61088c6060830184613ab4565b5f60208284031215614531575f5ffd5b81516001600160e01b031981168114613af4575f5ffd5b828152604060208201525f6127546040830184613ab4565b808202811582820484141761040c5761040c614043565b5f8261459157634e487b7160e01b5f52601260045260245ffd5b500490565b6001600160a01b038681168252851660208201526040810184905260a0606082018190525f906145c890830185613ab4565b82810360808401526145da8185613ab4565b98975050505050505050565b60408101600684106145fa576145fa613fa2565b928152602001529056fe50273fa02273cceea9cf085b42de5c8af60624140168bd71357db833535877afa264697066735822122075bf4e32f086d6445022a22e6a97713df0511a50631bf59faacace5264f4575664736f6c634300081c0033",
  "linkReferences": {},
  "deployedLinkReferences": {}
}