{
  "_format": "hh-sol-artifact-1",
  "contractName": "DummyMultipleReturnERC20Token",
  "sourceName": "contracts/test/DummyMultipleReturnERC20Token.sol",
  "abi": [
    {
      "inputs": [
        {
          "internalType": "string",
          "name": "_name",
          "type": "string"
        },
        {
          "internalType": "string",
          "name": "_symbol",
          "type": "string"
        },
        {
          "internalType": "uint256",
          "name": "_decimals",
          "type": "uint256"
        },
        {
          "internalType": "uint256",
          "name": "_totalSupply",
          "type": "uint256"
        }
      ],
      "stateMutability": "nonpayable",
      "type": "constructor"
    },
    {
      "anonymous": false,
      "inputs": [
        {
          "indexed": true,
          "internalType": "address",
          "name": "_owner",
          "type": "address"
        },
        {
          "indexed": true,
          "internalType": "address",
          "name": "_spender",
          "type": "address"
        },
        {
          "indexed": false,
          "internalType": "uint256",
          "name": "_value",
          "type": "uint256"
        }
      ],
      "name": "Approval",
      "type": "event"
    },
    {
      "anonymous": false,
      "inputs": [
        {
          "indexed": true,
          "internalType": "address",
          "name": "previousOwner",
          "type": "address"
        },
        {
          "indexed": true,
          "internalType": "address",
          "name": "newOwner",
          "type": "address"
        }
      ],
      "name": "OwnershipTransferred",
      "type": "event"
    },
    {
      "anonymous": false,
      "inputs": [
        {
          "indexed": true,
          "internalType": "address",
          "name": "_from",
          "type": "address"
        },
        {
          "indexed": true,
          "internalType": "address",
          "name": "_to",
          "type": "address"
        },
        {
          "indexed": false,
          "internalType": "uint256",
          "name": "_value",
          "type": "uint256"
        }
      ],
      "name": "Transfer",
      "type": "event"
    },
    {
      "inputs": [],
      "name": "MAX_MINT_AMOUNT",
      "outputs": [
        {
          "internalType": "uint256",
          "name": "",
          "type": "uint256"
        }
      ],
      "stateMutability": "view",
      "type": "function"
    },
    {
      "inputs": [
        {
          "internalType": "address",
          "name": "_owner",
          "type": "address"
        },
        {
          "internalType": "address",
          "name": "_spender",
          "type": "address"
        }
      ],
      "name": "allowance",
      "outputs": [
        {
          "internalType": "uint256",
          "name": "",
          "type": "uint256"
        }
      ],
      "stateMutability": "view",
      "type": "function"
    },
    {
      "inputs": [
        {
          "internalType": "address",
          "name": "_spender",
          "type": "address"
        },
        {
          "internalType": "uint256",
          "name": "_value",
          "type": "uint256"
        }
      ],
      "name": "approve",
      "outputs": [
        {
          "internalType": "bool",
          "name": "",
          "type": "bool"
        }
      ],
      "stateMutability": "nonpayable",
      "type": "function"
    },
    {
      "inputs": [
        {
          "internalType": "address",
          "name": "_owner",
          "type": "address"
        }
      ],
      "name": "balanceOf",
      "outputs": [
        {
          "internalType": "uint256",
          "name": "",
          "type": "uint256"
        }
      ],
      "stateMutability": "view",
      "type": "function"
    },
    {
      "inputs": [],
      "name": "decimals",
      "outputs": [
        {
          "internalType": "uint256",
          "name": "",
          "type": "uint256"
        }
      ],
      "stateMutability": "view",
      "type": "function"
    },
    {
      "inputs": [
        {
          "internalType": "uint256",
          "name": "_value",
          "type": "uint256"
        }
      ],
      "name": "mint",
      "outputs": [],
      "stateMutability": "nonpayable",
      "type": "function"
    },
    {
      "inputs": [],
      "name": "name",
      "outputs": [
        {
          "internalType": "string",
          "name": "",
          "type": "string"
        }
      ],
      "stateMutability": "view",
      "type": "function"
    },
    {
      "inputs": [],
      "name": "owner",
      "outputs": [
        {
          "internalType": "address",
          "name": "",
          "type": "address"
        }
      ],
      "stateMutability": "view",
      "type": "function"
    },
    {
      "inputs": [
        {
          "internalType": "address",
          "name": "_target",
          "type": "address"
        },
        {
          "internalType": "uint256",
          "name": "_value",
          "type": "uint256"
        }
      ],
      "name": "setBalance",
      "outputs": [],
      "stateMutability": "nonpayable",
      "type": "function"
    },
    {
      "inputs": [],
      "name": "symbol",
      "outputs": [
        {
          "internalType": "string",
          "name": "",
          "type": "string"
        }
      ],
      "stateMutability": "view",
      "type": "function"
    },
    {
      "inputs": [],
      "name": "totalSupply",
      "outputs": [
        {
          "internalType": "uint256",
          "name": "",
          "type": "uint256"
        }
      ],
      "stateMutability": "view",
      "type": "function"
    },
    {
      "inputs": [
        {
          "internalType": "address",
          "name": "_to",
          "type": "address"
        },
        {
          "internalType": "uint256",
          "name": "_value",
          "type": "uint256"
        }
      ],
      "name": "transfer",
      "outputs": [
        {
          "internalType": "bool",
          "name": "",
          "type": "bool"
        }
      ],
      "stateMutability": "nonpayable",
      "type": "function"
    },
    {
      "inputs": [
        {
          "internalType": "address",
          "name": "_from",
          "type": "address"
        },
        {
          "internalType": "address",
          "name": "_to",
          "type": "address"
        },
        {
          "internalType": "uint256",
          "name": "_value",
          "type": "uint256"
        }
      ],
      "name": "transferFrom",
      "outputs": [
        {
          "internalType": "bool",
          "name": "",
          "type": "bool"
        }
      ],
      "stateMutability": "nonpayable",
      "type": "function"
    },
    {
      "inputs": [
        {
          "internalType": "address",
          "name": "newOwner",
          "type": "address"
        }
      ],
      "name": "transferOwnership",
      "outputs": [],
      "stateMutability": "nonpayable",
      "type": "function"
    }
  ],
  "bytecode": "0x608060405234801561000f575f5ffd5b50604051610e3e380380610e3e83398101604081905261002e91610130565b5f80546001600160a01b0319163317905583838383600461004f8582610228565b50600561005c8482610228565b50600691909155335f90815260016020526040902055506102e2945050505050565b634e487b7160e01b5f52604160045260245ffd5b5f82601f8301126100a1575f5ffd5b81516001600160401b038111156100ba576100ba61007e565b604051601f8201601f19908116603f011681016001600160401b03811182821017156100e8576100e861007e565b6040528181528382016020018510156100ff575f5ffd5b5f5b8281101561011d57602081860181015183830182015201610101565b505f918101602001919091529392505050565b5f5f5f5f60808587031215610143575f5ffd5b84516001600160401b03811115610158575f5ffd5b61016487828801610092565b602087015190955090506001600160401b03811115610181575f5ffd5b61018d87828801610092565b604087015160609097015195989097509350505050565b600181811c908216806101b857607f821691505b6020821081036101d657634e487b7160e01b5f52602260045260245ffd5b50919050565b601f82111561022357805f5260205f20601f840160051c810160208510156102015750805b601f840160051c820191505b81811015610220575f815560010161020d565b50505b505050565b81516001600160401b038111156102415761024161007e565b6102558161024f84546101a4565b846101dc565b6020601f821160018114610287575f83156102705750848201515b5f19600385901b1c1916600184901b178455610220565b5f84815260208120601f198516915b828110156102b65787850151825560209485019460019092019101610296565b50848210156102d357868401515f19600387901b60f8161c191681555b50505050600190811b01905550565b610b4f806102ef5f395ff3fe608060405234801561000f575f5ffd5b50600436106100e5575f3560e01c806395d89b4111610088578063dd62ed3e11610063578063dd62ed3e14610201578063e30443bc14610246578063f2fde38b14610259578063fa9b70181461026c575f5ffd5b806395d89b41146101d1578063a0712d68146101d9578063a9059cbb146101ee575f5ffd5b806323b872dd116100c357806323b872dd1461013c578063313ce5671461014f57806370a08231146101585780638da5cb5b1461018d575f5ffd5b806306fdde03146100e9578063095ea7b31461010757806318160ddd1461012a575b5f5ffd5b6100f161027d565b6040516100fe919061091a565b60405180910390f35b61011a6101153660046109ab565b610309565b60405190151581526020016100fe565b6003545b6040519081526020016100fe565b61011a61014a3660046109d3565b610382565b61012e60065481565b61012e610166366004610a0d565b73ffffffffffffffffffffffffffffffffffffffff165f9081526001602052604090205490565b5f546101ac9073ffffffffffffffffffffffffffffffffffffffff1681565b60405173ffffffffffffffffffffffffffffffffffffffff90911681526020016100fe565b6100f16103f8565b6101ec6101e7366004610a2d565b610405565b005b61011a6101fc3660046109ab565b61048b565b61012e61020f366004610a44565b73ffffffffffffffffffffffffffffffffffffffff9182165f90815260026020908152604080832093909416825291909152205490565b6101ec6102543660046109ab565b610640565b6101ec610267366004610a0d565b6106d8565b61012e69021e19e0c9bab240000081565b6004805461028a90610a75565b80601f01602080910402602001604051908101604052809291908181526020018280546102b690610a75565b80156103015780601f106102d857610100808354040283529160200191610301565b820191905f5260205f20905b8154815290600101906020018083116102e457829003601f168201915b505050505081565b335f81815260026020908152604080832073ffffffffffffffffffffffffffffffffffffffff8716808552925280832085905551919290917f8c5be1e5ebec7d5bd14f71427d1e84f3dd0314c0f7b2291e5b200ac8c7c3b925906103709086815260200190565b60405180910390a35060015b92915050565b5f8273ffffffffffffffffffffffffffffffffffffffff168473ffffffffffffffffffffffffffffffffffffffff167fddf252ad1be2c89b69c2b068fc378daa952ba7f163c4a11628f55a4df523b3ef846040516103e291815260200190565b60405180910390a360015f52600160205260405ff35b6005805461028a90610a75565b69021e19e0c9bab240000081111561047e576040517f08c379a000000000000000000000000000000000000000000000000000000000815260206004820152600f60248201527f56414c55455f544f4f5f4c41524745000000000000000000000000000000000060448201526064015b60405180910390fd5b61048833826107ac565b50565b335f90815260016020526040812054821115610503576040517f08c379a000000000000000000000000000000000000000000000000000000000815260206004820152601a60248201527f45524332305f494e53554646494349454e545f42414c414e43450000000000006044820152606401610475565b73ffffffffffffffffffffffffffffffffffffffff83165f908152600160205260409020546105328382610af3565b101561059a576040517f08c379a000000000000000000000000000000000000000000000000000000000815260206004820152601060248201527f55494e543235365f4f564552464c4f57000000000000000000000000000000006044820152606401610475565b335f90815260016020526040812080548492906105b8908490610b06565b909155505073ffffffffffffffffffffffffffffffffffffffff83165f90815260016020526040812080548492906105f1908490610af3565b909155505060405182815273ffffffffffffffffffffffffffffffffffffffff84169033907fddf252ad1be2c89b69c2b068fc378daa952ba7f163c4a11628f55a4df523b3ef90602001610370565b610648610863565b73ffffffffffffffffffffffffffffffffffffffff82165f90815260016020526040902054808210156106945761067f8282610b06565b60035461068c9190610b06565b6003556106af565b61069e8183610b06565b6003546106ab9190610af3565b6003555b5073ffffffffffffffffffffffffffffffffffffffff9091165f90815260016020526040902055565b6106e0610863565b73ffffffffffffffffffffffffffffffffffffffff811661073d5761048861073860408051808201909152600481527fe69edc3e00000000000000000000000000000000000000000000000000000000602082015290565b610912565b5f80547fffffffffffffffffffffffff00000000000000000000000000000000000000001673ffffffffffffffffffffffffffffffffffffffff83169081178255604051909133917f8be0079c531659141344cd1fd0a4f28419497f9722a3daafe3b4186f6b6457e09190a350565b73ffffffffffffffffffffffffffffffffffffffff82165f908152600160205260409020546107dc908290610af3565b73ffffffffffffffffffffffffffffffffffffffff83165f9081526001602052604090205560035461080f908290610af3565b60035560405181815273ffffffffffffffffffffffffffffffffffffffff8316905f907fddf252ad1be2c89b69c2b068fc378daa952ba7f163c4a11628f55a4df523b3ef9060200160405180910390a35050565b5f5473ffffffffffffffffffffffffffffffffffffffff163314610910575f546040805133602482015273ffffffffffffffffffffffffffffffffffffffff90921660448084019190915281518084039091018152606490920190526020810180517bffffffffffffffffffffffffffffffffffffffffffffffffffffffff167f1de45ad10000000000000000000000000000000000000000000000000000000017905261091090610912565b565b805160208201fd5b602081525f82518060208401525f5b818110156109465760208186018101516040868401015201610929565b505f6040828501015260407fffffffffffffffffffffffffffffffffffffffffffffffffffffffffffffffe0601f83011684010191505092915050565b803573ffffffffffffffffffffffffffffffffffffffff811681146109a6575f5ffd5b919050565b5f5f604083850312156109bc575f5ffd5b6109c583610983565b946020939093013593505050565b5f5f5f606084860312156109e5575f5ffd5b6109ee84610983565b92506109fc60208501610983565b929592945050506040919091013590565b5f60208284031215610a1d575f5ffd5b610a2682610983565b9392505050565b5f60208284031215610a3d575f5ffd5b5035919050565b5f5f60408385031215610a55575f5ffd5b610a5e83610983565b9150610a6c60208401610983565b90509250929050565b600181811c90821680610a8957607f821691505b602082108103610ac0577f4e487b71000000000000000000000000000000000000000000000000000000005f52602260045260245ffd5b50919050565b7f4e487b71000000000000000000000000000000000000000000000000000000005f52601160045260245ffd5b8082018082111561037c5761037c610ac6565b8181038181111561037c5761037c610ac656fea2646970667358221220aa97de98903368a713d5e7cb513080ba145194e59868eeb701a078305a04289464736f6c634300081c0033",
  "linkReferences": {},
  "deployedLinkReferences": {}
}