{
  "_format": "hh-sol-artifact-1",
  "contractName": "CeloBridgeAdapter",
  "sourceName": "contracts/src/transformers/bridges/CeloBridgeAdapter.sol",
  "abi": [
    {
      "inputs": [
        {
          "internalType": "address",
          "name": "_weth",
          "type": "address"
        }
      ],
      "stateMutability": "nonpayable",
      "type": "constructor"
    },
    {
      "anonymous": false,
      "inputs": [
        {
          "indexed": false,
          "internalType": "bytes32",
          "name": "source",
          "type": "bytes32"
        },
        {
          "indexed": false,
          "internalType": "contract IERC20Token",
          "name": "inputToken",
          "type": "address"
        },
        {
          "indexed": false,
          "internalType": "contract IERC20Token",
          "name": "outputToken",
          "type": "address"
        },
        {
          "indexed": false,
          "internalType": "uint256",
          "name": "inputTokenAmount",
          "type": "uint256"
        },
        {
          "indexed": false,
          "internalType": "uint256",
          "name": "outputTokenAmount",
          "type": "uint256"
        }
      ],
      "name": "BridgeFill",
      "type": "event"
    },
    {
      "inputs": [
        {
          "internalType": "bytes32",
          "name": "source",
          "type": "bytes32"
        }
      ],
      "name": "isSupportedSource",
      "outputs": [
        {
          "internalType": "bool",
          "name": "isSupported",
          "type": "bool"
        }
      ],
      "stateMutability": "nonpayable",
      "type": "function"
    },
    {
      "inputs": [
        {
          "components": [
            {
              "internalType": "bytes32",
              "name": "source",
              "type": "bytes32"
            },
            {
              "internalType": "uint256",
              "name": "takerTokenAmount",
              "type": "uint256"
            },
            {
              "internalType": "uint256",
              "name": "makerTokenAmount",
              "type": "uint256"
            },
            {
              "internalType": "bytes",
              "name": "bridgeData",
              "type": "bytes"
            }
          ],
          "internalType": "struct IBridgeAdapter.BridgeOrder",
          "name": "order",
          "type": "tuple"
        },
        {
          "internalType": "contract IERC20Token",
          "name": "sellToken",
          "type": "address"
        },
        {
          "internalType": "contract IERC20Token",
          "name": "buyToken",
          "type": "address"
        },
        {
          "internalType": "uint256",
          "name": "sellAmount",
          "type": "uint256"
        }
      ],
      "name": "trade",
      "outputs": [
        {
          "internalType": "uint256",
          "name": "boughtAmount",
          "type": "uint256"
        }
      ],
      "stateMutability": "nonpayable",
      "type": "function"
    }
  ],
  "bytecode": "0x608060405234801561000f575f5ffd5b50604051610f78380380610f7883398101604081905261002e916100e4565b60408051808201909152600481526343656c6f60e01b602082015261a4ec90465f610539821480610060575081617a69145b8061006b5750816005145b8061007857508162013881145b8061008557508162014a33145b9050838214158015610095575080155b156100da57826040516020016100ab9190610111565b60408051601f198184030181529082905262461bcd60e51b82526100d19160040161015c565b60405180910390fd5b5050505050610191565b5f602082840312156100f4575f5ffd5b81516001600160a01b038116811461010a575f5ffd5b9392505050565b5f82518060208501845e7f427269646765416461707465722e636f6e7374727563746f723a2077726f6e67920191825250680818da185a5b88125160ba1b6020820152602901919050565b602081525f82518060208401528060208501604085015e5f604082850101526040601f19601f83011684010191505092915050565b610dda8061019e5f395ff3fe608060405234801561000f575f5ffd5b5060043610610034575f3560e01c806302d2734f14610038578063f712a14814610060575b5f5ffd5b61004b61004636600461080b565b610081565b60405190151581526020015b60405180910390f35b61007361006e3660046108de565b6100c5565b604051908152602001610057565b5f6100aa60405180608001604052805f81526020015f81526020015f8152602001606081525090565b8281525f6100bc8282808060016100dd565b95945050505050565b5f6100d3858585855f6100dd565b5095945050505050565b84515f90819060801c6001198101610118578315610102575f600192509250506101da565b61011186868a606001516101e4565b9250610180565b600e196001600160801b0382160161014c57831561013d575f600192509250506101da565b61011187868a60600151610405565b6001600160801b03811661018057831561016d575f600192509250506101da565b61017d8787878b60600151610530565b92505b8751604080519182526001600160a01b0389811660208401528816828201526060820187905260808201859052517fe59e71a14fe90157eedc866c4f8c767d3943d6b6b2e8cd64dddcc92ab4c55af89181900360a00190a1505b9550959350505050565b5f5f606080848060200190518101906101fd91906109f8565b805191945092506002111590506102735760405162461bcd60e51b815260206004820152602f60248201527f4d6978696e556e697377617056322f504154485f4c454e4754485f4d5553545f60448201526e42455f41545f4c454153545f54574f60881b60648201526084015b60405180910390fd5b856001600160a01b0316816001835161028c9190610aa8565b8151811061029c5761029c610acd565b60200260200101516001600160a01b0316146103205760405162461bcd60e51b815260206004820152603b60248201527f4d6978696e556e697377617056322f4c4153545f454c454d454e545f4f465f5060448201527f4154485f4d5553545f4d415443485f4f55545055545f544f4b454e0000000000606482015260840161026a565b6103578286835f8151811061033757610337610acd565b60200260200101516001600160a01b03166105d59092919063ffffffff16565b6040516338ed173960e01b81525f906001600160a01b038416906338ed17399061038e908990600190879030904290600401610ae1565b5f604051808303815f875af11580156103a9573d5f5f3e3d5ffd5b505050506040513d5f823e601f3d908101601f191682016040526103d09190810190610b51565b905080600182516103e19190610aa8565b815181106103f1576103f1610acd565b602002602001015193505050509392505050565b5f5f8280602001905181019061041b9190610bf3565b8051909150610435906001600160a01b03871690866105d5565b8051602082015160408084015160608501519151600f91820b602482015291900b604482015260648101879052600160848201524260a48201525f9283926001600160a01b039091169160c40160408051601f198184030181529181526020820180516001600160e01b03166001600160e01b03199094169390931790925290516104c09190610c62565b5f604051808303815f865af19150503d805f81146104f9576040519150601f19603f3d011682016040523d82523d5f602084013e6104fe565b606091505b509150915081610511576105118161065d565b808060200190518101906105259190610c78565b979650505050505050565b5f5f5f838060200190518101906105479190610c8f565b90925090506105606001600160a01b0388168387610665565b6040516319740ac160e21b81526001600160a01b038316906365d02b0490610595908a908a9030906001908890600401610d18565b6020604051808303815f875af11580156105b1573d5f5f3e3d5ffd5b505050506040513d601f19601f820116820180604052508101906105259190610c78565b604051636eb1769f60e11b81523060048201526001600160a01b03838116602483015282919085169063dd62ed3e90604401602060405180830381865afa158015610622573d5f5f3e3d5ffd5b505050506040513d601f19601f820116820180604052508101906106469190610c78565b10156106585761065883835f196106ce565b505050565b805160208201fd5b6040516001600160a01b038381166024830152604482018390525f919085169063a9059cbb906064015b604051602081830303815290604052915060e01b6020820180516001600160e01b03838183161783525050505090506106c884826106fc565b50505050565b6040516001600160a01b038381166024830152604482018390525f919085169063095ea7b39060640161068f565b5f5f836001600160a01b0316836040516107169190610c62565b5f604051808303815f865af19150503d805f811461074f576040519150601f19603f3d011682016040523d82523d5f602084013e610754565b606091505b509150915081610767576107678161065d565b80515f036107d8575f846001600160a01b03163b116106c85760405162461bcd60e51b815260206004820152602760248201527f696e76616c696420746f6b656e20616464726573732c20636f6e7461696e73206044820152666e6f20636f646560c81b606482015260840161026a565b602081511061080257808060200190518101906107f59190610d7e565b610802576108028161065d565b6106c88161065d565b5f6020828403121561081b575f5ffd5b5035919050565b634e487b7160e01b5f52604160045260245ffd5b6040516080810167ffffffffffffffff8111828210171561085957610859610822565b60405290565b604051601f8201601f1916810167ffffffffffffffff8111828210171561088857610888610822565b604052919050565b5f67ffffffffffffffff8211156108a9576108a9610822565b50601f01601f191660200190565b6001600160a01b03811681146108cb575f5ffd5b50565b80356108d9816108b7565b919050565b5f5f5f5f608085870312156108f1575f5ffd5b843567ffffffffffffffff811115610907575f5ffd5b850160808188031215610918575f5ffd5b610920610836565b813581526020808301359082015260408083013590820152606082013567ffffffffffffffff811115610951575f5ffd5b80830192505087601f830112610965575f5ffd5b813561097861097382610890565b61085f565b81815289602083860101111561098c575f5ffd5b816020850160208301375f60208383010152806060840152505080955050506109b7602086016108ce565b92506109c5604086016108ce565b9396929550929360600135925050565b5f67ffffffffffffffff8211156109ee576109ee610822565b5060051b60200190565b5f5f60408385031215610a09575f5ffd5b8251610a14816108b7565b602084015190925067ffffffffffffffff811115610a30575f5ffd5b8301601f81018513610a40575f5ffd5b8051610a4e610973826109d5565b8082825260208201915060208360051b850101925087831115610a6f575f5ffd5b6020840193505b82841015610a9a578351610a89816108b7565b825260209384019390910190610a76565b809450505050509250929050565b81810381811115610ac757634e487b7160e01b5f52601160045260245ffd5b92915050565b634e487b7160e01b5f52603260045260245ffd5b5f60a0820187835286602084015260a0604084015280865180835260c0850191506020880192505f5b81811015610b315783516001600160a01b0316835260209384019390920191600101610b0a565b50506001600160a01b039590951660608401525050608001529392505050565b5f60208284031215610b61575f5ffd5b815167ffffffffffffffff811115610b77575f5ffd5b8201601f81018413610b87575f5ffd5b8051610b95610973826109d5565b8082825260208201915060208360051b850101925086831115610bb6575f5ffd5b6020840193505b82841015610bd8578351825260209384019390910190610bbd565b9695505050505050565b8051600f81900b81146108d9575f5ffd5b5f6080828403128015610c04575f5ffd5b50610c0d610836565b8251610c18816108b7565b815260208301516001600160e01b031981168114610c34575f5ffd5b6020820152610c4560408401610be2565b6040820152610c5660608401610be2565b60608201529392505050565b5f82518060208501845e5f920191825250919050565b5f60208284031215610c88575f5ffd5b5051919050565b5f5f60408385031215610ca0575f5ffd5b8251610cab816108b7565b602084015190925067ffffffffffffffff811115610cc7575f5ffd5b8301601f81018513610cd7575f5ffd5b8051610ce561097382610890565b818152866020838501011115610cf9575f5ffd5b8160208401602083015e5f602083830101528093505050509250929050565b6001600160a01b03868116825285811660208084019190915290851660408301526060820184905260a06080830181905283519083018190525f918190850160c085015e5f60c0828501015260c0601f19601f8301168401019150509695505050505050565b5f60208284031215610d8e575f5ffd5b81518015158114610d9d575f5ffd5b939250505056fea26469706673582212209749e57d1d91829e129d65167ee790b049943b00c53ac2fff19b86be9af9291664736f6c634300081c0033",
  "linkReferences": {},
  "deployedLinkReferences": {}
}