{
  "_format": "hh-sol-artifact-1",
  "contractName": "TestFillQuoteTransformerBridge",
  "sourceName": "contracts/test/TestFillQuoteTransformerBridge.sol",
  "abi": [
    {
      "anonymous": false,
      "inputs": [
        {
          "indexed": false,
          "internalType": "address",
          "name": "takerToken",
          "type": "address"
        },
        {
          "indexed": false,
          "internalType": "address",
          "name": "makerToken",
          "type": "address"
        },
        {
          "indexed": false,
          "internalType": "address",
          "name": "recipient",
          "type": "address"
        },
        {
          "indexed": false,
          "internalType": "uint256",
          "name": "boughtAmount",
          "type": "uint256"
        }
      ],
      "name": "DebugBridgeCall",
      "type": "event"
    },
    {
      "inputs": [
        {
          "internalType": "address",
          "name": "takerToken",
          "type": "address"
        },
        {
          "internalType": "address",
          "name": "makerToken",
          "type": "address"
        },
        {
          "internalType": "address",
          "name": "recipient",
          "type": "address"
        },
        {
          "internalType": "uint256",
          "name": "",
          "type": "uint256"
        },
        {
          "internalType": "bytes",
          "name": "auxiliaryData",
          "type": "bytes"
        }
      ],
      "name": "sellTokenForToken",
      "outputs": [
        {
          "internalType": "uint256",
          "name": "boughtAmount",
          "type": "uint256"
        }
      ],
      "stateMutability": "nonpayable",
      "type": "function"
    }
  ],
  "bytecode": "0x6080604052348015600f57600080fd5b506105e48061001f6000396000f3fe608060405234801561001057600080fd5b506004361061002b5760003560e01c806365d02b0414610030575b600080fd5b61004a60048036038101906100459190610366565b610060565b604051610057919061040f565b60405180910390f35b60008282810190610071919061042a565b90508063deadbeef036100b9576040517f08c379a00000000000000000000000000000000000000000000000000000000081526004016100b0906104b4565b60405180910390fd5b7fee683dfada101a9335c21ccf23d9a0f470db6571ae0d2ddf654c08d21420eb16878787846040516100ee94939291906104e3565b60405180910390a160008773ffffffffffffffffffffffffffffffffffffffff166370a08231306040518263ffffffff1660e01b81526004016101319190610528565b602060405180830381865afa15801561014e573d6000803e3d6000fd5b505050506040513d601f19601f820116820180604052508101906101729190610558565b905060008111156101eb578773ffffffffffffffffffffffffffffffffffffffff16639dc29fac30836040518363ffffffff1660e01b81526004016101b8929190610585565b600060405180830381600087803b1580156101d257600080fd5b505af11580156101e6573d6000803e3d6000fd5b505050505b8673ffffffffffffffffffffffffffffffffffffffff166340c10f1987846040518363ffffffff1660e01b8152600401610226929190610585565b600060405180830381600087803b15801561024057600080fd5b505af1158015610254573d6000803e3d6000fd5b50505050509695505050505050565b600080fd5b600080fd5b600073ffffffffffffffffffffffffffffffffffffffff82169050919050565b60006102988261026d565b9050919050565b6102a88161028d565b81146102b357600080fd5b50565b6000813590506102c58161029f565b92915050565b6000819050919050565b6102de816102cb565b81146102e957600080fd5b50565b6000813590506102fb816102d5565b92915050565b600080fd5b600080fd5b600080fd5b60008083601f84011261032657610325610301565b5b8235905067ffffffffffffffff81111561034357610342610306565b5b60208301915083600182028301111561035f5761035e61030b565b5b9250929050565b60008060008060008060a0878903121561038357610382610263565b5b600061039189828a016102b6565b96505060206103a289828a016102b6565b95505060406103b389828a016102b6565b94505060606103c489828a016102ec565b935050608087013567ffffffffffffffff8111156103e5576103e4610268565b5b6103f189828a01610310565b92509250509295509295509295565b610409816102cb565b82525050565b60006020820190506104246000830184610400565b92915050565b6000602082840312156104405761043f610263565b5b600061044e848285016102ec565b91505092915050565b600082825260208201905092915050565b7f5245564552545f414d4f554e5400000000000000000000000000000000000000600082015250565b600061049e600d83610457565b91506104a982610468565b602082019050919050565b600060208201905081810360008301526104cd81610491565b9050919050565b6104dd8161028d565b82525050565b60006080820190506104f860008301876104d4565b61050560208301866104d4565b61051260408301856104d4565b61051f6060830184610400565b95945050505050565b600060208201905061053d60008301846104d4565b92915050565b600081519050610552816102d5565b92915050565b60006020828403121561056e5761056d610263565b5b600061057c84828501610543565b91505092915050565b600060408201905061059a60008301856104d4565b6105a76020830184610400565b939250505056fea2646970667358221220d63be76ec366eda074d3057d159e0242aded91e9d2301d663f55cf4f66829a8f64736f6c634300081c0033",
  "linkReferences": {},
  "deployedLinkReferences": {}
}