{
  "_format": "hh-sol-artifact-1",
  "contractName": "TestFillQuoteTransformerBridge",
  "sourceName": "contracts/test/TestFillQuoteTransformerBridge.sol",
  "abi": [
    {
      "inputs": [
        {
          "internalType": "address",
          "name": "",
          "type": "address"
        },
        {
          "internalType": "address",
          "name": "makerToken",
          "type": "address"
        },
        {
          "internalType": "address",
          "name": "recipient",
          "type": "address"
        },
        {
          "internalType": "uint256",
          "name": "",
          "type": "uint256"
        },
        {
          "internalType": "bytes",
          "name": "auxiliaryData",
          "type": "bytes"
        }
      ],
      "name": "sellTokenForToken",
      "outputs": [
        {
          "internalType": "uint256",
          "name": "boughtAmount",
          "type": "uint256"
        }
      ],
      "stateMutability": "nonpayable",
      "type": "function"
    }
  ],
  "bytecode": "0x6080604052348015600e575f5ffd5b5061027c8061001c5f395ff3fe608060405234801561000f575f5ffd5b5060043610610029575f3560e01c806365d02b041461002d575b5f5ffd5b61004061003b366004610187565b610052565b60405190815260200160405180910390f35b5f61005f8284018461022f565b90508063deadbeef036100d2576040517f08c379a000000000000000000000000000000000000000000000000000000000815260206004820152600d60248201527f5245564552545f414d4f554e5400000000000000000000000000000000000000604482015260640160405180910390fd5b6040517f40c10f1900000000000000000000000000000000000000000000000000000000815273ffffffffffffffffffffffffffffffffffffffff8681166004830152602482018390528716906340c10f19906044015f604051808303815f87803b15801561013f575f5ffd5b505af1158015610151573d5f5f3e3d5ffd5b505050509695505050505050565b803573ffffffffffffffffffffffffffffffffffffffff81168114610182575f5ffd5b919050565b5f5f5f5f5f5f60a0878903121561019c575f5ffd5b6101a58761015f565b95506101b36020880161015f565b94506101c16040880161015f565b935060608701359250608087013567ffffffffffffffff8111156101e3575f5ffd5b8701601f810189136101f3575f5ffd5b803567ffffffffffffffff811115610209575f5ffd5b89602082840101111561021a575f5ffd5b60208201935080925050509295509295509295565b5f6020828403121561023f575f5ffd5b503591905056fea2646970667358221220d95646a47d4c477bdf24301d6b1b258b326e913fc5ba769f39f559a0dc16421564736f6c634300081c0033",
  "linkReferences": {},
  "deployedLinkReferences": {}
}