{
  "_format": "hh-sol-artifact-1",
  "contractName": "FundRecoveryFeature",
  "sourceName": "contracts/src/features/FundRecoveryFeature.sol",
  "abi": [
    {
      "inputs": [],
      "name": "FEATURE_NAME",
      "outputs": [
        {
          "internalType": "string",
          "name": "",
          "type": "string"
        }
      ],
      "stateMutability": "view",
      "type": "function"
    },
    {
      "inputs": [],
      "name": "FEATURE_VERSION",
      "outputs": [
        {
          "internalType": "uint256",
          "name": "",
          "type": "uint256"
        }
      ],
      "stateMutability": "view",
      "type": "function"
    },
    {
      "inputs": [],
      "name": "migrate",
      "outputs": [
        {
          "internalType": "bytes4",
          "name": "success",
          "type": "bytes4"
        }
      ],
      "stateMutability": "nonpayable",
      "type": "function"
    },
    {
      "inputs": [
        {
          "internalType": "contract IERC20Token",
          "name": "erc20",
          "type": "address"
        },
        {
          "internalType": "uint256",
          "name": "amountOut",
          "type": "uint256"
        },
        {
          "internalType": "address payable",
          "name": "recipientWallet",
          "type": "address"
        }
      ],
      "name": "transferTrappedTokensTo",
      "outputs": [],
      "stateMutability": "nonpayable",
      "type": "function"
    }
  ],
  "bytecode": "0x60c060405260156001600080605f60201b60201c565b60a090815250348015602657600080fd5b503073ffffffffffffffffffffffffffffffffffffffff1660808173ffffffffffffffffffffffffffffffffffffffff16815250506089565b60008163ffffffff1660208463ffffffff16901b60408663ffffffff16901b171790509392505050565b60805160a0516109e06100ad600039600060c90152600061047b01526109e06000f3fe608060405234801561001057600080fd5b506004361061004c5760003560e01c8063031b905c146100515780630d3758841461006f5780636ae4b4f71461008b5780638fd3ab80146100a9575b600080fd5b6100596100c7565b6040516100669190610551565b60405180910390f35b6100896004803603810190610084919061064b565b6100eb565b005b6100936101e9565b6040516100a0919061072e565b60405180910390f35b6100b1610222565b6040516100be919061078b565b60405180910390f35b7f000000000000000000000000000000000000000000000000000000000000000081565b60003073ffffffffffffffffffffffffffffffffffffffff16638da5cb5b6040518163ffffffff1660e01b8152600401602060405180830381865afa158015610138573d6000803e3d6000fd5b505050506040513d601f19601f8201168201806040525081019061015c91906107d2565b90508073ffffffffffffffffffffffffffffffffffffffff163373ffffffffffffffffffffffffffffffffffffffff16146101a4576101a361019e3383610241565b6102c3565b5b507fffffffffffffffffffffffffffffffffffffffffffffffffffffffffffffffff82036101d9576101d683306102cb565b91505b6101e483828461037d565b505050565b6040518060400160405280601381526020017f46756e645265636f76657279466561747572650000000000000000000000000081525081565b6000610234630d37588460e01b61045c565b632c64c5ef60e01b905090565b6060631de45ad160e01b838360405160240161025e92919061080e565b604051602081830303815290604052907bffffffffffffffffffffffffffffffffffffffffffffffffffffffff19166020820180517bffffffffffffffffffffffffffffffffffffffffffffffffffffffff8381831617835250505050905092915050565b805160208201fd5b60006102d6836104ec565b156102fa578173ffffffffffffffffffffffffffffffffffffffff16319050610377565b8273ffffffffffffffffffffffffffffffffffffffff166370a08231836040518263ffffffff1660e01b81526004016103339190610837565b602060405180830381865afa158015610350573d6000803e3d6000fd5b505050506040513d601f19601f820116820180604052508101906103749190610867565b90505b92915050565b610386836104ec565b156103d7578173ffffffffffffffffffffffffffffffffffffffff166108fc829081150290604051600060405180830381858888f193505050501580156103d1573d6000803e3d6000fd5b50610457565b8273ffffffffffffffffffffffffffffffffffffffff1663a9059cbb83836040518363ffffffff1660e01b81526004016104129291906108f3565b6020604051808303816000875af1158015610431573d6000803e3d6000fd5b505050506040513d601f19601f820116820180604052508101906104559190610954565b505b505050565b3073ffffffffffffffffffffffffffffffffffffffff16636eb224cb827f00000000000000000000000000000000000000000000000000000000000000006040518363ffffffff1660e01b81526004016104b7929190610981565b600060405180830381600087803b1580156104d157600080fd5b505af11580156104e5573d6000803e3d6000fd5b5050505050565b600073eeeeeeeeeeeeeeeeeeeeeeeeeeeeeeeeeeeeeeee73ffffffffffffffffffffffffffffffffffffffff168273ffffffffffffffffffffffffffffffffffffffff16149050919050565b6000819050919050565b61054b81610538565b82525050565b60006020820190506105666000830184610542565b92915050565b600080fd5b600073ffffffffffffffffffffffffffffffffffffffff82169050919050565b600061059c82610571565b9050919050565b60006105ae82610591565b9050919050565b6105be816105a3565b81146105c957600080fd5b50565b6000813590506105db816105b5565b92915050565b6105ea81610538565b81146105f557600080fd5b50565b600081359050610607816105e1565b92915050565b600061061882610571565b9050919050565b6106288161060d565b811461063357600080fd5b50565b6000813590506106458161061f565b92915050565b6000806000606084860312156106645761066361056c565b5b6000610672868287016105cc565b9350506020610683868287016105f8565b925050604061069486828701610636565b9150509250925092565b600081519050919050565b600082825260208201905092915050565b60005b838110156106d85780820151818401526020810190506106bd565b60008484015250505050565b6000601f19601f8301169050919050565b60006107008261069e565b61070a81856106a9565b935061071a8185602086016106ba565b610723816106e4565b840191505092915050565b6000602082019050818103600083015261074881846106f5565b905092915050565b60007fffffffff0000000000000000000000000000000000000000000000000000000082169050919050565b61078581610750565b82525050565b60006020820190506107a0600083018461077c565b92915050565b6107af81610591565b81146107ba57600080fd5b50565b6000815190506107cc816107a6565b92915050565b6000602082840312156107e8576107e761056c565b5b60006107f6848285016107bd565b91505092915050565b61080881610591565b82525050565b600060408201905061082360008301856107ff565b61083060208301846107ff565b9392505050565b600060208201905061084c60008301846107ff565b92915050565b600081519050610861816105e1565b92915050565b60006020828403121561087d5761087c61056c565b5b600061088b84828501610852565b91505092915050565b6000819050919050565b60006108b96108b46108af84610571565b610894565b610571565b9050919050565b60006108cb8261089e565b9050919050565b60006108dd826108c0565b9050919050565b6108ed816108d2565b82525050565b600060408201905061090860008301856108e4565b6109156020830184610542565b9392505050565b60008115159050919050565b6109318161091c565b811461093c57600080fd5b50565b60008151905061094e81610928565b92915050565b60006020828403121561096a5761096961056c565b5b60006109788482850161093f565b91505092915050565b6000604082019050610996600083018561077c565b6109a360208301846107ff565b939250505056fea26469706673582212204f5542be1f577ca87cfb7cf8d598acd8f22e3e176a3a27fd8a40f597f31e70b264736f6c634300081c0033",
  "linkReferences": {},
  "deployedLinkReferences": {}
}