{
  "_format": "hh-sol-artifact-1",
  "contractName": "FundRecoveryFeature",
  "sourceName": "contracts/src/features/FundRecoveryFeature.sol",
  "abi": [
    {
      "inputs": [],
      "name": "FEATURE_NAME",
      "outputs": [
        {
          "internalType": "string",
          "name": "",
          "type": "string"
        }
      ],
      "stateMutability": "view",
      "type": "function"
    },
    {
      "inputs": [],
      "name": "FEATURE_VERSION",
      "outputs": [
        {
          "internalType": "uint256",
          "name": "",
          "type": "uint256"
        }
      ],
      "stateMutability": "view",
      "type": "function"
    },
    {
      "inputs": [],
      "name": "migrate",
      "outputs": [
        {
          "internalType": "bytes4",
          "name": "success",
          "type": "bytes4"
        }
      ],
      "stateMutability": "nonpayable",
      "type": "function"
    },
    {
      "inputs": [
        {
          "internalType": "contract IERC20Token",
          "name": "erc20",
          "type": "address"
        },
        {
          "internalType": "uint256",
          "name": "amountOut",
          "type": "uint256"
        },
        {
          "internalType": "address payable",
          "name": "recipientWallet",
          "type": "address"
        }
      ],
      "name": "transferTrappedTokensTo",
      "outputs": [],
      "stateMutability": "nonpayable",
      "type": "function"
    }
  ],
  "bytecode": "0x60c06040526801000000000000000060a052348015601b575f5ffd5b503060805260805160a0516108536100405f395f605301525f6104c901526108535ff3fe608060405234801561000f575f5ffd5b506004361061004a575f3560e01c8063031b905c1461004e5780630d375884146100885780636ae4b4f71461009d5780638fd3ab80146100e6575b5f5ffd5b6100757f000000000000000000000000000000000000000000000000000000000000000081565b6040519081526020015b60405180910390f35b61009b610096366004610724565b61011f565b005b6100d96040518060400160405280601381526020017f46756e645265636f76657279466561747572650000000000000000000000000081525081565b60405161007f9190610763565b6100ee610203565b6040517fffffffff00000000000000000000000000000000000000000000000000000000909116815260200161007f565b5f3073ffffffffffffffffffffffffffffffffffffffff16638da5cb5b6040518163ffffffff1660e01b8152600401602060405180830381865afa158015610169573d5f5f3e3d5ffd5b505050506040513d601f19601f8201168201806040525081019061018d91906107b6565b90503373ffffffffffffffffffffffffffffffffffffffff8216146101be576101be6101b93383610252565b6102df565b507fffffffffffffffffffffffffffffffffffffffffffffffffffffffffffffffff82036101f3576101f083306102e7565b91505b6101fe8382846103cc565b505050565b5f61022d7f0d37588400000000000000000000000000000000000000000000000000000000610464565b507f2c64c5ef0000000000000000000000000000000000000000000000000000000090565b6040805173ffffffffffffffffffffffffffffffffffffffff848116602483015283166044808301919091528251808303909101815260649091019091526020810180517bffffffffffffffffffffffffffffffffffffffffffffffffffffffff167f1de45ad1000000000000000000000000000000000000000000000000000000001790525b92915050565b805160208201fd5b5f73eeeeeeeeeeeeeeeeeeeeeeeeeeeeeeeeeeeeeeee73ffffffffffffffffffffffffffffffffffffffff841603610337575073ffffffffffffffffffffffffffffffffffffffff8116316102d9565b6040517f70a0823100000000000000000000000000000000000000000000000000000000815273ffffffffffffffffffffffffffffffffffffffff83811660048301528416906370a0823190602401602060405180830381865afa1580156103a1573d5f5f3e3d5ffd5b505050506040513d601f19601f820116820180604052508101906103c591906107d1565b9392505050565b73eeeeeeeeeeeeeeeeeeeeeeeeeeeeeeeeeeeeeeee73ffffffffffffffffffffffffffffffffffffffff8416036104435760405173ffffffffffffffffffffffffffffffffffffffff83169082156108fc029083905f818181858888f1935050505015801561043d573d5f5f3e3d5ffd5b50505050565b6101fe73ffffffffffffffffffffffffffffffffffffffff84168383610529565b6040517f6eb224cb0000000000000000000000000000000000000000000000000000000081527fffffffff000000000000000000000000000000000000000000000000000000008216600482015273ffffffffffffffffffffffffffffffffffffffff7f00000000000000000000000000000000000000000000000000000000000000001660248201523090636eb224cb906044015f604051808303815f87803b158015610510575f5ffd5b505af1158015610522573d5f5f3e3d5ffd5b5050505050565b6040805173ffffffffffffffffffffffffffffffffffffffff8481166024830152604480830185905283518084039091018152606490920183526020820180517bffffffffffffffffffffffffffffffffffffffffffffffffffffffff167fa9059cbb000000000000000000000000000000000000000000000000000000001790529151909161043d91869184915f918291908516906105ca9085906107e8565b5f604051808303815f865af19150503d805f8114610603576040519150601f19603f3d011682016040523d82523d5f602084013e610608565b606091505b50915091508161061b5761061b816102df565b80515f036106cd575f8473ffffffffffffffffffffffffffffffffffffffff163b1161043d576040517f08c379a000000000000000000000000000000000000000000000000000000000815260206004820152602760248201527f696e76616c696420746f6b656e20616464726573732c20636f6e7461696e732060448201527f6e6f20636f646500000000000000000000000000000000000000000000000000606482015260840160405180910390fd5b60208151106106f757808060200190518101906106ea91906107fe565b6106f7576106f7816102df565b61043d816102df565b73ffffffffffffffffffffffffffffffffffffffff81168114610721575f5ffd5b50565b5f5f5f60608486031215610736575f5ffd5b833561074181610700565b925060208401359150604084013561075881610700565b809150509250925092565b602081525f82518060208401528060208501604085015e5f6040828501015260407fffffffffffffffffffffffffffffffffffffffffffffffffffffffffffffffe0601f83011684010191505092915050565b5f602082840312156107c6575f5ffd5b81516103c581610700565b5f602082840312156107e1575f5ffd5b5051919050565b5f82518060208501845e5f920191825250919050565b5f6020828403121561080e575f5ffd5b815180151581146103c5575f5ffdfea26469706673582212205a9896e8f9b77c99fca8951390968fec3fab8f423b0d533887538297bb8a32aa64736f6c634300081c0033",
  "linkReferences": {},
  "deployedLinkReferences": {}
}