{
  "_format": "hh-sol-artifact-1",
  "contractName": "TestWethTransformerHost",
  "sourceName": "contracts/test/TestWethTransformerHost.sol",
  "abi": [
    {
      "inputs": [
        {
          "internalType": "contract TestWeth",
          "name": "weth",
          "type": "address"
        }
      ],
      "stateMutability": "nonpayable",
      "type": "constructor"
    },
    {
      "inputs": [
        {
          "internalType": "uint256",
          "name": "wethAmount",
          "type": "uint256"
        },
        {
          "internalType": "contract IERC20Transformer",
          "name": "transformer",
          "type": "address"
        },
        {
          "internalType": "bytes",
          "name": "data",
          "type": "bytes"
        }
      ],
      "name": "executeTransform",
      "outputs": [],
      "stateMutability": "payable",
      "type": "function"
    },
    {
      "inputs": [
        {
          "internalType": "contract IERC20Transformer",
          "name": "transformer",
          "type": "address"
        },
        {
          "components": [
            {
              "internalType": "address payable",
              "name": "sender",
              "type": "address"
            },
            {
              "internalType": "address payable",
              "name": "recipient",
              "type": "address"
            },
            {
              "internalType": "bytes",
              "name": "data",
              "type": "bytes"
            }
          ],
          "internalType": "struct IERC20Transformer.TransformContext",
          "name": "context",
          "type": "tuple"
        }
      ],
      "name": "rawExecuteTransform",
      "outputs": [],
      "stateMutability": "nonpayable",
      "type": "function"
    },
    {
      "stateMutability": "payable",
      "type": "receive"
    }
  ],
  "bytecode": "0x60a0604052348015600e575f5ffd5b506040516107d53803806107d5833981016040819052602b91603b565b6001600160a01b03166080526066565b5f60208284031215604a575f5ffd5b81516001600160a01b0381168114605f575f5ffd5b9392505050565b60805161075761007e5f395f61026d01526107575ff3fe60806040526004361061002b575f3560e01c8063844e7c5b14610036578063b294020f14610057575f5ffd5b3661003257005b5f5ffd5b348015610041575f5ffd5b50610055610050366004610419565b61006a565b005b61005561006536600461046c565b610265565b5f5f8373ffffffffffffffffffffffffffffffffffffffff1663832b24bb60e01b8460405160240161009c9190610538565b604080517fffffffffffffffffffffffffffffffffffffffffffffffffffffffffffffffe08184030181529181526020820180517bffffffffffffffffffffffffffffffffffffffffffffffffffffffff167fffffffff00000000000000000000000000000000000000000000000000000000909416939093179092529051610125919061060b565b5f60405180830381855af49150503d805f811461015d576040519150601f19603f3d011682016040523d82523d5f602084013e610162565b606091505b50915091508161017557610175816103ed565b80517f13c9929e00000000000000000000000000000000000000000000000000000000906101ac9083016020908101908401610621565b7fffffffff00000000000000000000000000000000000000000000000000000000161461025f576040517f08c379a000000000000000000000000000000000000000000000000000000000815260206004820152602e60248201527f546573745472616e73666f726d6572486f73742f494e56414c49445f5452414e60448201527f53464f524d45525f524553554c54000000000000000000000000000000000000606482015260840160405180910390fd5b50505050565b83156102e9577f000000000000000000000000000000000000000000000000000000000000000073ffffffffffffffffffffffffffffffffffffffff1663d0e30db0856040518263ffffffff1660e01b81526004015f604051808303818588803b1580156102d1575f5ffd5b505af11580156102e3573d5f5f3e3d5ffd5b50505050505b3073ffffffffffffffffffffffffffffffffffffffff1663844e7c5b8460405180606001604052803373ffffffffffffffffffffffffffffffffffffffff1681526020013373ffffffffffffffffffffffffffffffffffffffff16815260200186868080601f0160208091040260200160405190810160405280939291908181526020018383808284375f9201919091525050509152506040517fffffffff0000000000000000000000000000000000000000000000000000000060e085901b1681526103ba929190600401610667565b5f604051808303815f87803b1580156103d1575f5ffd5b505af11580156103e3573d5f5f3e3d5ffd5b5050505050505050565b805160208201fd5b73ffffffffffffffffffffffffffffffffffffffff81168114610416575f5ffd5b50565b5f5f6040838503121561042a575f5ffd5b8235610435816103f5565b9150602083013567ffffffffffffffff811115610450575f5ffd5b830160608186031215610461575f5ffd5b809150509250929050565b5f5f5f5f6060858703121561047f575f5ffd5b843593506020850135610491816103f5565b9250604085013567ffffffffffffffff8111156104ac575f5ffd5b8501601f810187136104bc575f5ffd5b803567ffffffffffffffff8111156104d2575f5ffd5b8760208284010111156104e3575f5ffd5b949793965060200194505050565b81835281816020850137505f602082840101525f60207fffffffffffffffffffffffffffffffffffffffffffffffffffffffffffffffe0601f840116840101905092915050565b602081525f8235610548816103f5565b73ffffffffffffffffffffffffffffffffffffffff81166020840152506020830135610573816103f5565b73ffffffffffffffffffffffffffffffffffffffff811660408401525060408301357fffffffffffffffffffffffffffffffffffffffffffffffffffffffffffffffe18436030181126105c4575f5ffd5b830160208101903567ffffffffffffffff8111156105e0575f5ffd5b8036038213156105ee575f5ffd5b6060808501526106026080850182846104f1565b95945050505050565b5f82518060208501845e5f920191825250919050565b5f60208284031215610631575f5ffd5b81517fffffffff0000000000000000000000000000000000000000000000000000000081168114610660575f5ffd5b9392505050565b73ffffffffffffffffffffffffffffffffffffffff831681526040602082015273ffffffffffffffffffffffffffffffffffffffff825116604082015273ffffffffffffffffffffffffffffffffffffffff60208301511660608201525f60408301516060608084015280518060a0850152806020830160c086015e5f60c0828601015260c07fffffffffffffffffffffffffffffffffffffffffffffffffffffffffffffffe0601f83011685010192505050939250505056fea264697066735822122092a9a6ba7d0f30ba44117735711758aacbe10782ea4139c1c2b81517e571bfca64736f6c634300081c0033",
  "linkReferences": {},
  "deployedLinkReferences": {}
}