{
  "_format": "hh-sol-artifact-1",
  "contractName": "TestWethTransformerHost",
  "sourceName": "contracts/test/TestWethTransformerHost.sol",
  "abi": [
    {
      "inputs": [
        {
          "internalType": "contract TestWeth",
          "name": "weth",
          "type": "address"
        }
      ],
      "stateMutability": "nonpayable",
      "type": "constructor"
    },
    {
      "inputs": [
        {
          "internalType": "uint256",
          "name": "wethAmount",
          "type": "uint256"
        },
        {
          "internalType": "contract IERC20Transformer",
          "name": "transformer",
          "type": "address"
        },
        {
          "internalType": "bytes",
          "name": "data",
          "type": "bytes"
        }
      ],
      "name": "executeTransform",
      "outputs": [],
      "stateMutability": "payable",
      "type": "function"
    },
    {
      "inputs": [
        {
          "internalType": "contract IERC20Transformer",
          "name": "transformer",
          "type": "address"
        },
        {
          "components": [
            {
              "internalType": "address payable",
              "name": "sender",
              "type": "address"
            },
            {
              "internalType": "address payable",
              "name": "recipient",
              "type": "address"
            },
            {
              "internalType": "bytes",
              "name": "data",
              "type": "bytes"
            }
          ],
          "internalType": "struct IERC20Transformer.TransformContext",
          "name": "context",
          "type": "tuple"
        }
      ],
      "name": "rawExecuteTransform",
      "outputs": [],
      "stateMutability": "nonpayable",
      "type": "function"
    },
    {
      "stateMutability": "payable",
      "type": "receive"
    }
  ],
  "bytecode": "0x60a060405234801561001057600080fd5b50604051610b8e380380610b8e833981810160405281019061003291906100e1565b8073ffffffffffffffffffffffffffffffffffffffff1660808173ffffffffffffffffffffffffffffffffffffffff16815250505061010e565b600080fd5b600073ffffffffffffffffffffffffffffffffffffffff82169050919050565b600061009c82610071565b9050919050565b60006100ae82610091565b9050919050565b6100be816100a3565b81146100c957600080fd5b50565b6000815190506100db816100b5565b92915050565b6000602082840312156100f7576100f661006c565b5b6000610105848285016100cc565b91505092915050565b608051610a6561012960003960006102190152610a656000f3fe60806040526004361061002d5760003560e01c8063844e7c5b14610039578063b294020f1461006257610034565b3661003457005b600080fd5b34801561004557600080fd5b50610060600480360381019061005b919061043c565b61007e565b005b61007c60048036038101906100779190610533565b61020f565b005b6000808373ffffffffffffffffffffffffffffffffffffffff1663832b24bb60e01b846040516024016100b19190610745565b604051602081830303815290604052907bffffffffffffffffffffffffffffffffffffffffffffffffffffffff19166020820180517bffffffffffffffffffffffffffffffffffffffffffffffffffffffff838183161783525050505060405161011b91906107d8565b600060405180830381855af49150503d8060008114610156576040519150601f19603f3d011682016040523d82523d6000602084013e61015b565b606091505b50915091508161016f5761016e81610396565b5b6313c9929e60e01b7bffffffffffffffffffffffffffffffffffffffffffffffffffffffff1916818060200190518101906101aa9190610847565b7bffffffffffffffffffffffffffffffffffffffffffffffffffffffff191614610209576040517f08c379a0000000000000000000000000000000000000000000000000000000008152600401610200906108f7565b60405180910390fd5b50505050565b60008414610299577f000000000000000000000000000000000000000000000000000000000000000073ffffffffffffffffffffffffffffffffffffffff1663d0e30db0856040518263ffffffff1660e01b81526004016000604051808303818588803b15801561027f57600080fd5b505af1158015610293573d6000803e3d6000fd5b50505050505b3073ffffffffffffffffffffffffffffffffffffffff1663844e7c5b8460405180606001604052803373ffffffffffffffffffffffffffffffffffffffff1681526020013373ffffffffffffffffffffffffffffffffffffffff16815260200186868080601f016020809104026020016040519081016040528093929190818152602001838380828437600081840152601f19601f820116905080830192505050505050508152506040518363ffffffff1660e01b815260040161035e9291906109ff565b600060405180830381600087803b15801561037857600080fd5b505af115801561038c573d6000803e3d6000fd5b5050505050505050565b805160208201fd5b600080fd5b600080fd5b600073ffffffffffffffffffffffffffffffffffffffff82169050919050565b60006103d3826103a8565b9050919050565b60006103e5826103c8565b9050919050565b6103f5816103da565b811461040057600080fd5b50565b600081359050610412816103ec565b92915050565b600080fd5b60006060828403121561043357610432610418565b5b81905092915050565b600080604083850312156104535761045261039e565b5b600061046185828601610403565b925050602083013567ffffffffffffffff811115610482576104816103a3565b5b61048e8582860161041d565b9150509250929050565b6000819050919050565b6104ab81610498565b81146104b657600080fd5b50565b6000813590506104c8816104a2565b92915050565b600080fd5b600080fd5b600080fd5b60008083601f8401126104f3576104f26104ce565b5b8235905067ffffffffffffffff8111156105105761050f6104d3565b5b60208301915083600182028301111561052c5761052b6104d8565b5b9250929050565b6000806000806060858703121561054d5761054c61039e565b5b600061055b878288016104b9565b945050602061056c87828801610403565b935050604085013567ffffffffffffffff81111561058d5761058c6103a3565b5b610599878288016104dd565b925092505092959194509250565b60006105b2826103a8565b9050919050565b6105c2816105a7565b81146105cd57600080fd5b50565b6000813590506105df816105b9565b92915050565b60006105f460208401846105d0565b905092915050565b610605816105a7565b82525050565b600080fd5b600080fd5b600080fd5b6000808335600160200384360303811261063757610636610615565b5b83810192508235915060208301925067ffffffffffffffff82111561065f5761065e61060b565b5b60018202360383131561067557610674610610565b5b509250929050565b600082825260208201905092915050565b82818337600083830152505050565b6000601f19601f8301169050919050565b60006106ba838561067d565b93506106c783858461068e565b6106d08361069d565b840190509392505050565b6000606083016106ee60008401846105e5565b6106fb60008601826105fc565b5061070960208401846105e5565b61071660208601826105fc565b50610724604084018461061a565b85830360408701526107378382846106ae565b925050508091505092915050565b6000602082019050818103600083015261075f81846106db565b905092915050565b600081519050919050565b600081905092915050565b60005b8381101561079b578082015181840152602081019050610780565b60008484015250505050565b60006107b282610767565b6107bc8185610772565b93506107cc81856020860161077d565b80840191505092915050565b60006107e482846107a7565b915081905092915050565b60007fffffffff0000000000000000000000000000000000000000000000000000000082169050919050565b610824816107ef565b811461082f57600080fd5b50565b6000815190506108418161081b565b92915050565b60006020828403121561085d5761085c61039e565b5b600061086b84828501610832565b91505092915050565b600082825260208201905092915050565b7f546573745472616e73666f726d6572486f73742f494e56414c49445f5452414e60008201527f53464f524d45525f524553554c54000000000000000000000000000000000000602082015250565b60006108e1602e83610874565b91506108ec82610885565b604082019050919050565b60006020820190508181036000830152610910816108d4565b9050919050565b6000819050919050565b600061093c610937610932846103a8565b610917565b6103a8565b9050919050565b600061094e82610921565b9050919050565b600061096082610943565b9050919050565b61097081610955565b82525050565b600061098182610767565b61098b818561067d565b935061099b81856020860161077d565b6109a48161069d565b840191505092915050565b60006060830160008301516109c760008601826105fc565b5060208301516109da60208601826105fc565b50604083015184820360408601526109f28282610976565b9150508091505092915050565b6000604082019050610a146000830185610967565b8181036020830152610a2681846109af565b9050939250505056fea264697066735822122086f38fdea5c34bb5ac1bae571b84ee15df636da8a1d00fd4192385eba2ad2ea564736f6c634300081c0033",
  "linkReferences": {},
  "deployedLinkReferences": {}
}