{
  "_format": "hh-sol-artifact-1",
  "contractName": "TestMintTokenERC20Transformer",
  "sourceName": "contracts/test/TestMintTokenERC20Transformer.sol",
  "abi": [
    {
      "anonymous": false,
      "inputs": [
        {
          "indexed": false,
          "internalType": "address",
          "name": "context",
          "type": "address"
        },
        {
          "indexed": false,
          "internalType": "address",
          "name": "caller",
          "type": "address"
        },
        {
          "indexed": false,
          "internalType": "address",
          "name": "sender",
          "type": "address"
        },
        {
          "indexed": false,
          "internalType": "address",
          "name": "taker",
          "type": "address"
        },
        {
          "indexed": false,
          "internalType": "bytes",
          "name": "data",
          "type": "bytes"
        },
        {
          "indexed": false,
          "internalType": "uint256",
          "name": "inputTokenBalance",
          "type": "uint256"
        },
        {
          "indexed": false,
          "internalType": "uint256",
          "name": "ethBalance",
          "type": "uint256"
        }
      ],
      "name": "MintTransform",
      "type": "event"
    },
    {
      "inputs": [
        {
          "components": [
            {
              "internalType": "address payable",
              "name": "sender",
              "type": "address"
            },
            {
              "internalType": "address payable",
              "name": "recipient",
              "type": "address"
            },
            {
              "internalType": "bytes",
              "name": "data",
              "type": "bytes"
            }
          ],
          "internalType": "struct IERC20Transformer.TransformContext",
          "name": "context",
          "type": "tuple"
        }
      ],
      "name": "transform",
      "outputs": [
        {
          "internalType": "bytes4",
          "name": "success",
          "type": "bytes4"
        }
      ],
      "stateMutability": "nonpayable",
      "type": "function"
    }
  ],
  "bytecode": "0x6080604052348015600f57600080fd5b50610b618061001f6000396000f3fe608060405234801561001057600080fd5b506004361061002b5760003560e01c8063832b24bb14610030575b600080fd5b61004a600480360381019061004591906104c8565b610060565b604051610057919061054c565b60405180910390f35b6000808280604001906100739190610576565b81019061008091906107da565b90507ff80919a60518fd23670a7f4bda005e75f5b9acf74a4130887693b500503a0b2330338560000160208101906100b89190610845565b8660200160208101906100cb9190610845565b8780604001906100db9190610576565b6100e88860000151610444565b61016f57876000015173ffffffffffffffffffffffffffffffffffffffff166370a08231306040518263ffffffff1660e01b81526004016101299190610881565b602060405180830381865afa158015610146573d6000803e3d6000fd5b505050506040513d601f19601f8201168201806040525081019061016a91906108b1565b610171565b475b47604051610186989796959493929190610999565b60405180910390a161019b8160000151610444565b156101f157600073ffffffffffffffffffffffffffffffffffffffff166108fc82604001519081150290604051600060405180830381858888f193505050501580156101eb573d6000803e3d6000fd5b5061027a565b806000015173ffffffffffffffffffffffffffffffffffffffff1663a9059cbb600083604001516040518363ffffffff1660e01b8152600401610235929190610a11565b6020604051808303816000875af1158015610254573d6000803e3d6000fd5b505050506040513d601f19601f820116820180604052508101906102789190610a72565b505b6102878160200151610444565b6104345780606001518160800151111561033657806020015173ffffffffffffffffffffffffffffffffffffffff16639dc29fac8460200160208101906102ce9190610845565b836060015184608001516102e29190610ace565b6040518363ffffffff1660e01b81526004016102ff929190610b02565b600060405180830381600087803b15801561031957600080fd5b505af115801561032d573d6000803e3d6000fd5b50505050610433565b806020015173ffffffffffffffffffffffffffffffffffffffff166340c10f193083606001516040518363ffffffff1660e01b8152600401610379929190610a11565b600060405180830381600087803b15801561039357600080fd5b505af11580156103a7573d6000803e3d6000fd5b50505050806020015173ffffffffffffffffffffffffffffffffffffffff16639dc29fac8460200160208101906103de9190610845565b83608001516040518363ffffffff1660e01b8152600401610400929190610b02565b600060405180830381600087803b15801561041a57600080fd5b505af115801561042e573d6000803e3d6000fd5b505050505b5b6313c9929e60e01b915050919050565b600073eeeeeeeeeeeeeeeeeeeeeeeeeeeeeeeeeeeeeeee73ffffffffffffffffffffffffffffffffffffffff168273ffffffffffffffffffffffffffffffffffffffff16149050919050565b6000604051905090565b600080fd5b600080fd5b600080fd5b6000606082840312156104bf576104be6104a4565b5b81905092915050565b6000602082840312156104de576104dd61049a565b5b600082013567ffffffffffffffff8111156104fc576104fb61049f565b5b610508848285016104a9565b91505092915050565b60007fffffffff0000000000000000000000000000000000000000000000000000000082169050919050565b61054681610511565b82525050565b6000602082019050610561600083018461053d565b92915050565b600080fd5b600080fd5b600080fd5b6000808335600160200384360303811261059357610592610567565b5b80840192508235915067ffffffffffffffff8211156105b5576105b461056c565b5b6020830192506001820236038313156105d1576105d0610571565b5b509250929050565b600080fd5b6000601f19601f8301169050919050565b7f4e487b7100000000000000000000000000000000000000000000000000000000600052604160045260246000fd5b610627826105de565b810181811067ffffffffffffffff82111715610646576106456105ef565b5b80604052505050565b6000610659610490565b9050610665828261061e565b919050565b600073ffffffffffffffffffffffffffffffffffffffff82169050919050565b60006106958261066a565b9050919050565b60006106a78261068a565b9050919050565b6106b78161069c565b81146106c257600080fd5b50565b6000813590506106d4816106ae565b92915050565b60006106e58261068a565b9050919050565b6106f5816106da565b811461070057600080fd5b50565b600081359050610712816106ec565b92915050565b6000819050919050565b61072b81610718565b811461073657600080fd5b50565b60008135905061074881610722565b92915050565b600060a08284031215610764576107636105d9565b5b61076e60a061064f565b9050600061077e848285016106c5565b600083015250602061079284828501610703565b60208301525060406107a684828501610739565b60408301525060606107ba84828501610739565b60608301525060806107ce84828501610739565b60808301525092915050565b600060a082840312156107f0576107ef61049a565b5b60006107fe8482850161074e565b91505092915050565b60006108128261066a565b9050919050565b61082281610807565b811461082d57600080fd5b50565b60008135905061083f81610819565b92915050565b60006020828403121561085b5761085a61049a565b5b600061086984828501610830565b91505092915050565b61087b8161068a565b82525050565b60006020820190506108966000830184610872565b92915050565b6000815190506108ab81610722565b92915050565b6000602082840312156108c7576108c661049a565b5b60006108d58482850161089c565b91505092915050565b6000819050919050565b60006109036108fe6108f98461066a565b6108de565b61066a565b9050919050565b6000610915826108e8565b9050919050565b60006109278261090a565b9050919050565b6109378161091c565b82525050565b600082825260208201905092915050565b82818337600083830152505050565b6000610969838561093d565b935061097683858461094e565b61097f836105de565b840190509392505050565b61099381610718565b82525050565b600060e0820190506109ae600083018b610872565b6109bb602083018a610872565b6109c8604083018961092e565b6109d5606083018861092e565b81810360808301526109e881868861095d565b90506109f760a083018561098a565b610a0460c083018461098a565b9998505050505050505050565b6000604082019050610a266000830185610872565b610a33602083018461098a565b9392505050565b60008115159050919050565b610a4f81610a3a565b8114610a5a57600080fd5b50565b600081519050610a6c81610a46565b92915050565b600060208284031215610a8857610a8761049a565b5b6000610a9684828501610a5d565b91505092915050565b7f4e487b7100000000000000000000000000000000000000000000000000000000600052601160045260246000fd5b6000610ad982610718565b9150610ae483610718565b9250828203905081811115610afc57610afb610a9f565b5b92915050565b6000604082019050610b17600083018561092e565b610b24602083018461098a565b939250505056fea264697066735822122077293761dc0eec5ad9878bb5a8de857378097f9d66eb07a4cec4529f79c1584264736f6c634300081c0033",
  "linkReferences": {},
  "deployedLinkReferences": {}
}