{
  "_format": "hh-sol-artifact-1",
  "contractName": "TestMintTokenERC20Transformer",
  "sourceName": "contracts/test/TestMintTokenERC20Transformer.sol",
  "abi": [
    {
      "anonymous": false,
      "inputs": [
        {
          "indexed": false,
          "internalType": "address",
          "name": "context",
          "type": "address"
        },
        {
          "indexed": false,
          "internalType": "address",
          "name": "caller",
          "type": "address"
        },
        {
          "indexed": false,
          "internalType": "address",
          "name": "sender",
          "type": "address"
        },
        {
          "indexed": false,
          "internalType": "address",
          "name": "taker",
          "type": "address"
        },
        {
          "indexed": false,
          "internalType": "bytes",
          "name": "data",
          "type": "bytes"
        },
        {
          "indexed": false,
          "internalType": "uint256",
          "name": "inputTokenBalance",
          "type": "uint256"
        },
        {
          "indexed": false,
          "internalType": "uint256",
          "name": "ethBalance",
          "type": "uint256"
        }
      ],
      "name": "MintTransform",
      "type": "event"
    },
    {
      "inputs": [
        {
          "components": [
            {
              "internalType": "address payable",
              "name": "sender",
              "type": "address"
            },
            {
              "internalType": "address payable",
              "name": "recipient",
              "type": "address"
            },
            {
              "internalType": "bytes",
              "name": "data",
              "type": "bytes"
            }
          ],
          "internalType": "struct IERC20Transformer.TransformContext",
          "name": "context",
          "type": "tuple"
        }
      ],
      "name": "transform",
      "outputs": [
        {
          "internalType": "bytes4",
          "name": "success",
          "type": "bytes4"
        }
      ],
      "stateMutability": "nonpayable",
      "type": "function"
    }
  ],
  "bytecode": "0x6080604052348015600e575f5ffd5b5061067a8061001c5f395ff3fe608060405234801561000f575f5ffd5b5060043610610029575f3560e01c8063832b24bb1461002d575b5f5ffd5b61004061003b36600461042b565b61005d565b6040516001600160e01b0319909116815260200160405180910390f35b5f8061006c6040840184610469565b81019061007991906104da565b90507ff80919a60518fd23670a7f4bda005e75f5b9acf74a4130887693b500503a0b2330336100ab6020870187610561565b6100bb6040880160208901610561565b6100c86040890189610469565b87516100f0906001600160a01b031673eeeeeeeeeeeeeeeeeeeeeeeeeeeeeeeeeeeeeeee1490565b6101625787516040516370a0823160e01b81523060048201526001600160a01b03909116906370a0823190602401602060405180830381865afa158015610139573d5f5f3e3d5ffd5b505050506040513d601f19601f8201168201806040525081019061015d919061057c565b610164565b475b47604051610179989796959493929190610593565b60405180910390a180516101a9906001600160a01b031673eeeeeeeeeeeeeeeeeeeeeeeeeeeeeeeeeeeeeeee1490565b156101e15760408082015190515f9180156108fc029183818181858288f193505050501580156101db573d5f5f3e3d5ffd5b5061025a565b8051604080830151905163a9059cbb60e01b81525f600482015260248101919091526001600160a01b039091169063a9059cbb906044016020604051808303815f875af1158015610234573d5f5f3e3d5ffd5b505050506040513d601f19601f820116820180604052508101906102589190610600565b505b61028481602001516001600160a01b031673eeeeeeeeeeeeeeeeeeeeeeeeeeeeeeeeeeeeeeee1490565b61041c578060600151816080015111156103305780602001516001600160a01b0316639dc29fac8460200160208101906102be9190610561565b836060015184608001516102d2919061061f565b6040516001600160e01b031960e085901b1681526001600160a01b03909216600483015260248201526044015f604051808303815f87803b158015610315575f5ffd5b505af1158015610327573d5f5f3e3d5ffd5b5050505061041c565b602081015160608201516040516340c10f1960e01b815230600482015260248101919091526001600160a01b03909116906340c10f19906044015f604051808303815f87803b158015610381575f5ffd5b505af1158015610393573d5f5f3e3d5ffd5b5050505080602001516001600160a01b0316639dc29fac8460200160208101906103bd9190610561565b60808401516040516001600160e01b031960e085901b1681526001600160a01b03909216600483015260248201526044015f604051808303815f87803b158015610405575f5ffd5b505af1158015610417573d5f5f3e3d5ffd5b505050505b506309e4c94f60e11b92915050565b5f6020828403121561043b575f5ffd5b813567ffffffffffffffff811115610451575f5ffd5b820160608185031215610462575f5ffd5b9392505050565b5f5f8335601e1984360301811261047e575f5ffd5b83018035915067ffffffffffffffff821115610498575f5ffd5b6020019150368190038213156104ac575f5ffd5b9250929050565b6001600160a01b03811681146104c7575f5ffd5b50565b80356104d5816104b3565b919050565b5f60a08284031280156104eb575f5ffd5b5060405160a0810167ffffffffffffffff8111828210171561051b57634e487b7160e01b5f52604160045260245ffd5b604052610527836104ca565b8152610535602084016104ca565b602082015260408381013590820152606080840135908201526080928301359281019290925250919050565b5f60208284031215610571575f5ffd5b8135610462816104b3565b5f6020828403121561058c575f5ffd5b5051919050565b6001600160a01b038981168252888116602083015287811660408301528616606082015260e060808201819052810184905283856101008301375f61010085830101525f610100601f19601f87011683010190508360a08301528260c08301529998505050505050505050565b5f60208284031215610610575f5ffd5b81518015158114610462575f5ffd5b8181038181111561063e57634e487b7160e01b5f52601160045260245ffd5b9291505056fea2646970667358221220545b84c520ef0b5beff03581ecdb0ffb07c93b175f88b752fbd456e8b8cd760664736f6c634300081c0033",
  "linkReferences": {},
  "deployedLinkReferences": {}
}