{
  "_format": "hh-sol-artifact-1",
  "contractName": "LiquidityProviderFeature",
  "sourceName": "contracts/src/features/LiquidityProviderFeature.sol",
  "abi": [
    {
      "inputs": [
        {
          "internalType": "contract LiquidityProviderSandbox",
          "name": "sandbox_",
          "type": "address"
        }
      ],
      "stateMutability": "nonpayable",
      "type": "constructor"
    },
    {
      "anonymous": false,
      "inputs": [
        {
          "indexed": false,
          "internalType": "contract IERC20Token",
          "name": "inputToken",
          "type": "address"
        },
        {
          "indexed": false,
          "internalType": "contract IERC20Token",
          "name": "outputToken",
          "type": "address"
        },
        {
          "indexed": false,
          "internalType": "uint256",
          "name": "inputTokenAmount",
          "type": "uint256"
        },
        {
          "indexed": false,
          "internalType": "uint256",
          "name": "outputTokenAmount",
          "type": "uint256"
        },
        {
          "indexed": false,
          "internalType": "contract ILiquidityProvider",
          "name": "provider",
          "type": "address"
        },
        {
          "indexed": false,
          "internalType": "address",
          "name": "recipient",
          "type": "address"
        }
      ],
      "name": "LiquidityProviderSwap",
      "type": "event"
    },
    {
      "inputs": [],
      "name": "FEATURE_NAME",
      "outputs": [
        {
          "internalType": "string",
          "name": "",
          "type": "string"
        }
      ],
      "stateMutability": "view",
      "type": "function"
    },
    {
      "inputs": [],
      "name": "FEATURE_VERSION",
      "outputs": [
        {
          "internalType": "uint256",
          "name": "",
          "type": "uint256"
        }
      ],
      "stateMutability": "view",
      "type": "function"
    },
    {
      "inputs": [],
      "name": "migrate",
      "outputs": [
        {
          "internalType": "bytes4",
          "name": "success",
          "type": "bytes4"
        }
      ],
      "stateMutability": "nonpayable",
      "type": "function"
    },
    {
      "inputs": [],
      "name": "sandbox",
      "outputs": [
        {
          "internalType": "contract ILiquidityProviderSandbox",
          "name": "",
          "type": "address"
        }
      ],
      "stateMutability": "view",
      "type": "function"
    },
    {
      "inputs": [
        {
          "internalType": "contract IERC20Token",
          "name": "inputToken",
          "type": "address"
        },
        {
          "internalType": "contract IERC20Token",
          "name": "outputToken",
          "type": "address"
        },
        {
          "internalType": "contract ILiquidityProvider",
          "name": "provider",
          "type": "address"
        },
        {
          "internalType": "address",
          "name": "recipient",
          "type": "address"
        },
        {
          "internalType": "uint256",
          "name": "sellAmount",
          "type": "uint256"
        },
        {
          "internalType": "uint256",
          "name": "minBuyAmount",
          "type": "uint256"
        },
        {
          "internalType": "bytes",
          "name": "auxiliaryData",
          "type": "bytes"
        }
      ],
      "name": "sellToLiquidityProvider",
      "outputs": [
        {
          "internalType": "uint256",
          "name": "boughtAmount",
          "type": "uint256"
        }
      ],
      "stateMutability": "payable",
      "type": "function"
    }
  ],
  "bytecode": "0x60e06040526801000000000000000460a05234801561001c575f5ffd5b50604051610eb2380380610eb283398101604081905261003b91610050565b306080526001600160a01b031660c05261007d565b5f60208284031215610060575f5ffd5b81516001600160a01b0381168114610076575f5ffd5b9392505050565b60805160a05160c051610df86100ba5f395f818160b30152818161039c0152818161051d015261067f01525f606d01525f61091b0152610df85ff3fe608060405260043610610058575f3560e01c80636ae4b4f7116100415780636ae4b4f7146100fa5780638fd3ab801461014f578063f7fcd38414610194575f5ffd5b8063031b905c1461005c5780631984916f146100a2575b5f5ffd5b348015610067575f5ffd5b5061008f7f000000000000000000000000000000000000000000000000000000000000000081565b6040519081526020015b60405180910390f35b3480156100ad575f5ffd5b506100d57f000000000000000000000000000000000000000000000000000000000000000081565b60405173ffffffffffffffffffffffffffffffffffffffff9091168152602001610099565b348015610105575f5ffd5b506101426040518060400160405280601881526020017f4c697175696469747950726f766964657246656174757265000000000000000081525081565b6040516100999190610ad8565b34801561015a575f5ffd5b506101636101a7565b6040517fffffffff000000000000000000000000000000000000000000000000000000009091168152602001610099565b61008f6101a2366004610b4f565b6101f6565b5f6101d17ff7fcd384000000000000000000000000000000000000000000000000000000006108b6565b507f2c64c5ef0000000000000000000000000000000000000000000000000000000090565b5f73ffffffffffffffffffffffffffffffffffffffff8616610216573395505b341561025d5760405173ffffffffffffffffffffffffffffffffffffffff8816903480156108fc02915f818181858888f1935050505015801561025b573d5f5f3e3d5ffd5b505b73eeeeeeeeeeeeeeeeeeeeeeeeeeeeeeeeeeeeeeee73ffffffffffffffffffffffffffffffffffffffff8a161461029a5761029a8933898861097b565b73eeeeeeeeeeeeeeeeeeeeeeeeeeeeeeeeeeeeeeee73ffffffffffffffffffffffffffffffffffffffff8a16036104aa576040517f70a0823100000000000000000000000000000000000000000000000000000000815273ffffffffffffffffffffffffffffffffffffffff87811660048301525f91908a16906370a0823190602401602060405180830381865afa158015610338573d5f5f3e3d5ffd5b505050506040513d601f19601f8201168201806040525081019061035c9190610c17565b6040517f6f025ee600000000000000000000000000000000000000000000000000000000815290915073ffffffffffffffffffffffffffffffffffffffff7f00000000000000000000000000000000000000000000000000000000000000001690636f025ee6906103db908b908d908c908b908b908b90600401610c75565b5f604051808303815f87803b1580156103f2575f5ffd5b505af1158015610404573d5f5f3e3d5ffd5b50506040517f70a0823100000000000000000000000000000000000000000000000000000000815273ffffffffffffffffffffffffffffffffffffffff8a811660048301528493508c1691506370a0823190602401602060405180830381865afa158015610474573d5f5f3e3d5ffd5b505050506040513d601f19601f820116820180604052508101906104989190610c17565b6104a29190610cee565b91505061078b565b73eeeeeeeeeeeeeeeeeeeeeeeeeeeeeeeeeeeeeeee73ffffffffffffffffffffffffffffffffffffffff8916036105ae576040517f1454913700000000000000000000000000000000000000000000000000000000815273ffffffffffffffffffffffffffffffffffffffff80881631917f00000000000000000000000000000000000000000000000000000000000000009091169063145491379061055e908b908e908c908b908b908b90600401610c75565b5f604051808303815f87803b158015610575575f5ffd5b505af1158015610587573d5f5f3e3d5ffd5b50505050808773ffffffffffffffffffffffffffffffffffffffff16316104a29190610cee565b6040517f70a0823100000000000000000000000000000000000000000000000000000000815273ffffffffffffffffffffffffffffffffffffffff87811660048301525f91908a16906370a0823190602401602060405180830381865afa15801561061b573d5f5f3e3d5ffd5b505050506040513d601f19601f8201168201806040525081019061063f9190610c17565b6040517fbb503e2100000000000000000000000000000000000000000000000000000000815290915073ffffffffffffffffffffffffffffffffffffffff7f0000000000000000000000000000000000000000000000000000000000000000169063bb503e21906106c0908b908e908e908d908c908c908c90600401610d2c565b5f604051808303815f87803b1580156106d7575f5ffd5b505af11580156106e9573d5f5f3e3d5ffd5b50506040517f70a0823100000000000000000000000000000000000000000000000000000000815273ffffffffffffffffffffffffffffffffffffffff8a811660048301528493508c1691506370a0823190602401602060405180830381865afa158015610759573d5f5f3e3d5ffd5b505050506040513d601f19601f8201168201806040525081019061077d9190610c17565b6107879190610cee565b9150505b8381101561083c576040805173ffffffffffffffffffffffffffffffffffffffff808a166024830152808b1660448301528b1660648201526084810187905260a4810183905260c48082018790528251808303909101815260e49091019091526020810180517bffffffffffffffffffffffffffffffffffffffffffffffffffffffff167f35bad87d0000000000000000000000000000000000000000000000000000000017905261083c90610ad0565b6040805173ffffffffffffffffffffffffffffffffffffffff8b811682528a81166020830152818301889052606082018490528981166080830152881660a082015290517f40a6ba9513d09e3488135e0e0d10e2d4382b792720155b144cbea89ac9db6d349181900360c00190a198975050505050505050565b6040517f6eb224cb0000000000000000000000000000000000000000000000000000000081527fffffffff000000000000000000000000000000000000000000000000000000008216600482015273ffffffffffffffffffffffffffffffffffffffff7f00000000000000000000000000000000000000000000000000000000000000001660248201523090636eb224cb906044015f604051808303815f87803b158015610962575f5ffd5b505af1158015610974573d5f5f3e3d5ffd5b5050505050565b3073ffffffffffffffffffffffffffffffffffffffff851603610a23576040517f08c379a0000000000000000000000000000000000000000000000000000000008152602060048201526024808201527f466978696e546f6b656e5370656e6465722f43414e4e4f545f494e564f4b455f60448201527f53454c4600000000000000000000000000000000000000000000000000000000606482015260840160405180910390fd5b6040517f23b872dd00000000000000000000000000000000000000000000000000000000815273ffffffffffffffffffffffffffffffffffffffff8416600482015273ffffffffffffffffffffffffffffffffffffffff831660248201528160448201526020816064835f73ffffffffffffffffffffffffffffffffffffffff8a165af13d60018351146020821015168115178216915081610ac757805f843e8083fd5b50505050505050565b805160208201fd5b602081525f82518060208401528060208501604085015e5f6040828501015260407fffffffffffffffffffffffffffffffffffffffffffffffffffffffffffffffe0601f83011684010191505092915050565b73ffffffffffffffffffffffffffffffffffffffff81168114610b4c575f5ffd5b50565b5f5f5f5f5f5f5f5f60e0898b031215610b66575f5ffd5b8835610b7181610b2b565b97506020890135610b8181610b2b565b96506040890135610b9181610b2b565b95506060890135610ba181610b2b565b94506080890135935060a0890135925060c089013567ffffffffffffffff811115610bca575f5ffd5b8901601f81018b13610bda575f5ffd5b803567ffffffffffffffff811115610bf0575f5ffd5b8b6020828401011115610c01575f5ffd5b989b979a50959850939692959194602001935050565b5f60208284031215610c27575f5ffd5b5051919050565b81835281816020850137505f602082840101525f60207fffffffffffffffffffffffffffffffffffffffffffffffffffffffffffffffe0601f840116840101905092915050565b73ffffffffffffffffffffffffffffffffffffffff8716815273ffffffffffffffffffffffffffffffffffffffff8616602082015273ffffffffffffffffffffffffffffffffffffffff8516604082015283606082015260a060808201525f610ce260a083018486610c2e565b98975050505050505050565b81810381811115610d26577f4e487b71000000000000000000000000000000000000000000000000000000005f52601160045260245ffd5b92915050565b73ffffffffffffffffffffffffffffffffffffffff8816815273ffffffffffffffffffffffffffffffffffffffff8716602082015273ffffffffffffffffffffffffffffffffffffffff8616604082015273ffffffffffffffffffffffffffffffffffffffff8516606082015283608082015260c060a08201525f610db560c083018486610c2e565b999850505050505050505056fea2646970667358221220463e8b1cca9211ff942457f2436bdb04a89d501800040b7db4868a7ba38ef0dc64736f6c634300081c0033",
  "linkReferences": {},
  "deployedLinkReferences": {}
}