{
  "_format": "hh-sol-artifact-1",
  "contractName": "ArbitrumBridgeAdapter",
  "sourceName": "contracts/src/transformers/bridges/ArbitrumBridgeAdapter.sol",
  "abi": [
    {
      "inputs": [
        {
          "internalType": "contract IEtherToken",
          "name": "weth",
          "type": "address"
        }
      ],
      "stateMutability": "nonpayable",
      "type": "constructor"
    },
    {
      "anonymous": false,
      "inputs": [
        {
          "indexed": false,
          "internalType": "bytes32",
          "name": "source",
          "type": "bytes32"
        },
        {
          "indexed": false,
          "internalType": "contract IERC20Token",
          "name": "inputToken",
          "type": "address"
        },
        {
          "indexed": false,
          "internalType": "contract IERC20Token",
          "name": "outputToken",
          "type": "address"
        },
        {
          "indexed": false,
          "internalType": "uint256",
          "name": "inputTokenAmount",
          "type": "uint256"
        },
        {
          "indexed": false,
          "internalType": "uint256",
          "name": "outputTokenAmount",
          "type": "uint256"
        }
      ],
      "name": "BridgeFill",
      "type": "event"
    },
    {
      "inputs": [
        {
          "internalType": "contract IERC20Token",
          "name": "buyToken",
          "type": "address"
        },
        {
          "internalType": "uint256",
          "name": "sellAmount",
          "type": "uint256"
        },
        {
          "internalType": "bytes",
          "name": "bridgeData",
          "type": "bytes"
        }
      ],
      "name": "_tradeGMX",
      "outputs": [
        {
          "internalType": "uint256",
          "name": "boughtAmount",
          "type": "uint256"
        }
      ],
      "stateMutability": "nonpayable",
      "type": "function"
    },
    {
      "inputs": [
        {
          "internalType": "contract IERC20Token",
          "name": "sellToken",
          "type": "address"
        },
        {
          "internalType": "contract IERC20Token",
          "name": "buyToken",
          "type": "address"
        },
        {
          "internalType": "uint256",
          "name": "sellAmount",
          "type": "uint256"
        },
        {
          "internalType": "bytes",
          "name": "bridgeData",
          "type": "bytes"
        }
      ],
      "name": "_tradeWOOFi",
      "outputs": [
        {
          "internalType": "uint256",
          "name": "boughtAmount",
          "type": "uint256"
        }
      ],
      "stateMutability": "nonpayable",
      "type": "function"
    },
    {
      "inputs": [
        {
          "internalType": "bytes32",
          "name": "source",
          "type": "bytes32"
        }
      ],
      "name": "isSupportedSource",
      "outputs": [
        {
          "internalType": "bool",
          "name": "isSupported",
          "type": "bool"
        }
      ],
      "stateMutability": "nonpayable",
      "type": "function"
    },
    {
      "inputs": [
        {
          "components": [
            {
              "internalType": "bytes32",
              "name": "source",
              "type": "bytes32"
            },
            {
              "internalType": "uint256",
              "name": "takerTokenAmount",
              "type": "uint256"
            },
            {
              "internalType": "uint256",
              "name": "makerTokenAmount",
              "type": "uint256"
            },
            {
              "internalType": "bytes",
              "name": "bridgeData",
              "type": "bytes"
            }
          ],
          "internalType": "struct IBridgeAdapter.BridgeOrder",
          "name": "order",
          "type": "tuple"
        },
        {
          "internalType": "contract IERC20Token",
          "name": "sellToken",
          "type": "address"
        },
        {
          "internalType": "contract IERC20Token",
          "name": "buyToken",
          "type": "address"
        },
        {
          "internalType": "uint256",
          "name": "sellAmount",
          "type": "uint256"
        }
      ],
      "name": "trade",
      "outputs": [
        {
          "internalType": "uint256",
          "name": "boughtAmount",
          "type": "uint256"
        }
      ],
      "stateMutability": "nonpayable",
      "type": "function"
    }
  ],
  "bytecode": "0x60a060405234801561001057600080fd5b506040516158a93803806158a9833981810160405281019061003291906101ce565b8061a4b16040518060400160405280600881526020017f417262697472756d000000000000000000000000000000000000000000000000815250600046905060006105398214806100845750617a6982145b8061008f5750600582145b8061009c57506201388182145b806100a9575062014a3382145b90508382141580156100b9575080155b1561011a57826040516020016100cf91906102de565b6040516020818303038152906040526040517f08c379a0000000000000000000000000000000000000000000000000000000008152600401610111919061035b565b60405180910390fd5b505050508073ffffffffffffffffffffffffffffffffffffffff1660808173ffffffffffffffffffffffffffffffffffffffff1681525050505061037d565b600080fd5b600073ffffffffffffffffffffffffffffffffffffffff82169050919050565b60006101898261015e565b9050919050565b600061019b8261017e565b9050919050565b6101ab81610190565b81146101b657600080fd5b50565b6000815190506101c8816101a2565b92915050565b6000602082840312156101e4576101e3610159565b5b60006101f2848285016101b9565b91505092915050565b600081519050919050565b600081905092915050565b60005b8381101561022f578082015181840152602081019050610214565b60008484015250505050565b6000610246826101fb565b6102508185610206565b9350610260818560208601610211565b80840191505092915050565b7f427269646765416461707465722e636f6e7374727563746f723a2077726f6e6760008201527f20636861696e2049440000000000000000000000000000000000000000000000602082015250565b60006102c8602983610206565b91506102d38261026c565b602982019050919050565b60006102ea828461023b565b91506102f5826102bb565b915081905092915050565b600082825260208201905092915050565b6000601f19601f8301169050919050565b600061032d826101fb565b6103378185610300565b9350610347818560208601610211565b61035081610311565b840191505092915050565b600060208201905081810360008301526103758184610322565b905092915050565b6080516154fc6103ad60003960008181610e8801528181610ede01528181611120015261117601526154fc6000f3fe608060405234801561001057600080fd5b506004361061004c5760003560e01c806302d2734f1461005157806360574bd214610081578063e8275c82146100b1578063f712a148146100e1575b600080fd5b61006b600480360381019061006691906126fc565b610111565b6040516100789190612744565b60405180910390f35b61009b6004803603810190610096919061294b565b610143565b6040516100a891906129c9565b60405180910390f35b6100cb60048036038101906100c691906129e4565b61041e565b6040516100d891906129c9565b60405180910390f35b6100fb60048036038101906100f69190612b05565b610587565b60405161010891906129c9565b60405180910390f35b600061011b612687565b828160000181815250506000610136828283600060016105a4565b9050809350505050919050565b600080600080606060006060878060200190518101906101639190612cba565b809650819750829850839950505050508290506002815110156101bb576040517f08c379a00000000000000000000000000000000000000000000000000000000081526004016101b290612dc0565b60405180910390fd5b8973ffffffffffffffffffffffffffffffffffffffff1681600183516101e19190612e0f565b815181106101f2576101f1612e43565b5b602002602001015173ffffffffffffffffffffffffffffffffffffffff1614610250576040517f08c379a000000000000000000000000000000000000000000000000000000000815260040161024790612ee4565b60405180910390fd5b859150610299828a8360008151811061026c5761026b612e43565b5b602002602001015173ffffffffffffffffffffffffffffffffffffffff16610ac79092919063ffffffff16565b60008a73ffffffffffffffffffffffffffffffffffffffff166370a08231306040518263ffffffff1660e01b81526004016102d49190612f13565b602060405180830381865afa1580156102f1573d6000803e3d6000fd5b505050506040513d601f19601f820116820180604052508101906103159190612f43565b90508273ffffffffffffffffffffffffffffffffffffffff16636023e966858c6000306040518563ffffffff1660e01b81526004016103579493929190613073565b600060405180830381600087803b15801561037157600080fd5b505af1158015610385573d6000803e3d6000fd5b50505050808b73ffffffffffffffffffffffffffffffffffffffff166370a08231306040518263ffffffff1660e01b81526004016103c39190612f13565b602060405180830381865afa1580156103e0573d6000803e3d6000fd5b505050506040513d601f19601f820116820180604052508101906104049190612f43565b61040e9190612e0f565b9750505050505050509392505050565b6000808280602001905181019061043591906130fd565b905060008573ffffffffffffffffffffffffffffffffffffffff166370a08231306040518263ffffffff1660e01b81526004016104729190612f13565b602060405180830381865afa15801561048f573d6000803e3d6000fd5b505050506040513d601f19601f820116820180604052508101906104b39190612f43565b90506104e082868973ffffffffffffffffffffffffffffffffffffffff16610ac79092919063ffffffff16565b8173ffffffffffffffffffffffffffffffffffffffff16637dc2038288888860003073bfdcbb4c05843163f491c24f9c0019c5107863046040518763ffffffff1660e01b81526004016105389695949392919061312a565b6020604051808303816000875af1158015610557573d6000803e3d6000fd5b505050506040513d601f19601f8201168201806040525081019061057b9190612f43565b92505050949350505050565b60006105978585858560006105a4565b5080915050949350505050565b60008060006080886000015160001c901c905060196fffffffffffffffffffffffffffffffff16816fffffffffffffffffffffffffffffffff160361060c5783156105f757600060019250925050610abd565b610605858960600151610b7b565b9250610a78565b60016fffffffffffffffffffffffffffffffff16816fffffffffffffffffffffffffffffffff160361066357831561064c57600060019250925050610abd565b61065c8787878b60600151610e6b565b9250610a77565b60146fffffffffffffffffffffffffffffffff16816fffffffffffffffffffffffffffffffff16036106ba5783156106a357600060019250925050610abd565b6106b38787878b6060015161128a565b9250610a76565b600b6fffffffffffffffffffffffffffffffff16816fffffffffffffffffffffffffffffffff16036107105783156106fa57600060019250925050610abd565b61070987868a606001516114e6565b9250610a75565b60136fffffffffffffffffffffffffffffffff16816fffffffffffffffffffffffffffffffff160361076657831561075057600060019250925050610abd565b61075f86868a6060015161163c565b9250610a74565b60216fffffffffffffffffffffffffffffffff16816fffffffffffffffffffffffffffffffff16036107bc5783156107a657600060019250925050610abd565b6107b587868a60600151611897565b9250610a73565b60126fffffffffffffffffffffffffffffffff16816fffffffffffffffffffffffffffffffff16036108125783156107fc57600060019250925050610abd565b61080b87868a606001516119a3565b9250610a72565b60026fffffffffffffffffffffffffffffffff16816fffffffffffffffffffffffffffffffff160361086857831561085257600060019250925050610abd565b61086186868a60600151611b76565b9250610a71565b60236fffffffffffffffffffffffffffffffff16816fffffffffffffffffffffffffffffffff16036108be5783156108a857600060019250925050610abd565b6108b786868a60600151611d7e565b9250610a70565b601a6fffffffffffffffffffffffffffffffff16816fffffffffffffffffffffffffffffffff16036109145783156108fe57600060019250925050610abd565b61090d86868a60600151610143565b9250610a6f565b600f6fffffffffffffffffffffffffffffffff16816fffffffffffffffffffffffffffffffff160361096a57831561095457600060019250925050610abd565b61096387868a60600151612015565b9250610a6e565b60006fffffffffffffffffffffffffffffffff16816fffffffffffffffffffffffffffffffff16036109c15783156109aa57600060019250925050610abd565b6109ba8787878b60600151612182565b9250610a6d565b60206fffffffffffffffffffffffffffffffff16816fffffffffffffffffffffffffffffffff1603610a18578315610a0157600060019250925050610abd565b610a118787878b6060015161225b565b9250610a6c565b601f6fffffffffffffffffffffffffffffffff16816fffffffffffffffffffffffffffffffff1603610a6b578315610a5857600060019250925050610abd565b610a688787878b6060015161041e565b92505b5b5b5b5b5b5b5b5b5b5b5b5b5b7fe59e71a14fe90157eedc866c4f8c767d3943d6b6b2e8cd64dddcc92ab4c55af8886000015188888887604051610ab39594939291906131ef565b60405180910390a1505b9550959350505050565b808373ffffffffffffffffffffffffffffffffffffffff1663dd62ed3e30856040518363ffffffff1660e01b8152600401610b03929190613242565b602060405180830381865afa158015610b20573d6000803e3d6000fd5b505050506040513d601f19601f82011682018060405250810190610b449190612f43565b1015610b7657610b7583837fffffffffffffffffffffffffffffffffffffffffffffffffffffffffffffffff612451565b5b505050565b60008060008084806020019051810190610b9591906134e1565b9250925092506060819050610be6848883600081518110610bb957610bb8612e43565b5b602002602001015173ffffffffffffffffffffffffffffffffffffffff16610ac79092919063ffffffff16565b8683600081518110610bfb57610bfa612e43565b5b602002602001015160600181815250506000815167ffffffffffffffff811115610c2857610c27612820565b5b604051908082528060200260200182016040528015610c565781602001602082028036833780820191505090505b50905060005b8151811015610cb0577f7fffffffffffffffffffffffffffffffffffffffffffffffffffffffffffffff828281518110610c9957610c98612e43565b5b602002602001018181525050806001019050610c5c565b5060008573ffffffffffffffffffffffffffffffffffffffff1663945bcec96000878660405180608001604052803073ffffffffffffffffffffffffffffffffffffffff1681526020016000151581526020013073ffffffffffffffffffffffffffffffffffffffff1681526020016000151581525087600142610d34919061356c565b6040518763ffffffff1660e01b8152600401610d55969594939291906139aa565b6000604051808303816000875af1158015610d74573d6000803e3d6000fd5b505050506040513d6000823e3d601f19601f82011682018060405250810190610d9d9190613b11565b905060008160018351610db09190612e0f565b81518110610dc157610dc0612e43565b5b60200260200101511315610e0a576040517f08c379a0000000000000000000000000000000000000000000000000000000008152600401610e0190613bcc565b60405180910390fd5b7fffffffffffffffffffffffffffffffffffffffffffffffffffffffffffffffff8160018351610e3a9190612e0f565b81518110610e4b57610e4a612e43565b5b6020026020010151610e5d9190613bec565b965050505050505092915050565b60008082806020019051810190610e829190613d6d565b905060007f000000000000000000000000000000000000000000000000000000000000000073ffffffffffffffffffffffffffffffffffffffff168773ffffffffffffffffffffffffffffffffffffffff1603610f6c578490507f000000000000000000000000000000000000000000000000000000000000000073ffffffffffffffffffffffffffffffffffffffff16632e1a7d4d866040518263ffffffff1660e01b8152600401610f3591906129c9565b600060405180830381600087803b158015610f4f57600080fd5b505af1158015610f63573d6000803e3d6000fd5b50505050610f9c565b610f9b8260000151868973ffffffffffffffffffffffffffffffffffffffff16610ac79092919063ffffffff16565b5b60008673ffffffffffffffffffffffffffffffffffffffff166370a08231306040518263ffffffff1660e01b8152600401610fd79190612f13565b602060405180830381865afa158015610ff4573d6000803e3d6000fd5b505050506040513d601f19601f820116820180604052508101906110189190612f43565b9050600080846000015173ffffffffffffffffffffffffffffffffffffffff16848660200151876040015188606001518c600160405160240161105e9493929190613df1565b604051602081830303815290604052907bffffffffffffffffffffffffffffffffffffffffffffffffffffffff19166020820180517bffffffffffffffffffffffffffffffffffffffffffffffffffffffff83818316178352505050506040516110c89190613e72565b60006040518083038185875af1925050503d8060008114611105576040519150601f19603f3d011682016040523d82523d6000602084013e61110a565b606091505b50915091508161111e5761111d816124d6565b5b7f000000000000000000000000000000000000000000000000000000000000000073ffffffffffffffffffffffffffffffffffffffff168973ffffffffffffffffffffffffffffffffffffffff16036111f6574795507f000000000000000000000000000000000000000000000000000000000000000073ffffffffffffffffffffffffffffffffffffffff1663d0e30db0876040518263ffffffff1660e01b81526004016000604051808303818588803b1580156111dc57600080fd5b505af11580156111f0573d6000803e3d6000fd5b50505050505b828973ffffffffffffffffffffffffffffffffffffffff166370a08231306040518263ffffffff1660e01b81526004016112309190612f13565b602060405180830381865afa15801561124d573d6000803e3d6000fd5b505050506040513d601f19601f820116820180604052508101906112719190612f43565b61127b9190612e0f565b95505050505050949350505050565b600080828060200190518101906112a19190613f01565b90506112d28160000151858873ffffffffffffffffffffffffffffffffffffffff16610ac79092919063ffffffff16565b60008573ffffffffffffffffffffffffffffffffffffffff166370a08231306040518263ffffffff1660e01b815260040161130d9190612f13565b602060405180830381865afa15801561132a573d6000803e3d6000fd5b505050506040513d601f19601f8201168201806040525081019061134e9190612f43565b9050600080836000015173ffffffffffffffffffffffffffffffffffffffff168460200151856040015186606001518a60016040516024016113939493929190613df1565b604051602081830303815290604052907bffffffffffffffffffffffffffffffffffffffffffffffffffffffff19166020820180517bffffffffffffffffffffffffffffffffffffffffffffffffffffffff83818316178352505050506040516113fd9190613e72565b6000604051808303816000865af19150503d806000811461143a576040519150601f19603f3d011682016040523d82523d6000602084013e61143f565b606091505b50915091508161145357611452816124d6565b5b828873ffffffffffffffffffffffffffffffffffffffff166370a08231306040518263ffffffff1660e01b815260040161148d9190612f13565b602060405180830381865afa1580156114aa573d6000803e3d6000fd5b505050506040513d601f19601f820116820180604052508101906114ce9190612f43565b6114d89190612e0f565b945050505050949350505050565b6000806000838060200190518101906114ff9190613f98565b9150915061152e82868873ffffffffffffffffffffffffffffffffffffffff166124de9092919063ffffffff16565b806115b4578173ffffffffffffffffffffffffffffffffffffffff1663dd93f59a306040518263ffffffff1660e01b815260040161156c9190612f13565b6020604051808303816000875af115801561158b573d6000803e3d6000fd5b505050506040513d601f19601f820116820180604052508101906115af9190612f43565b611631565b8173ffffffffffffffffffffffffffffffffffffffff1663bd6015b4306040518263ffffffff1660e01b81526004016115ed9190612f13565b6020604051808303816000875af115801561160c573d6000803e3d6000fd5b505050506040513d601f19601f820116820180604052508101906116309190612f43565b5b925050509392505050565b600080606080848060200190518101906116569190613fd8565b8093508194508295505050506001825110156116a7576040517f08c379a000000000000000000000000000000000000000000000000000000000815260040161169e906140d5565b60405180910390fd5b600182516116b5919061356c565b8151146116f7576040517f08c379a00000000000000000000000000000000000000000000000000000000081526004016116ee90614167565b60405180910390fd5b8673ffffffffffffffffffffffffffffffffffffffff16816001835161171d9190612e0f565b8151811061172e5761172d612e43565b5b602002602001015173ffffffffffffffffffffffffffffffffffffffff161461178c576040517f08c379a0000000000000000000000000000000000000000000000000000000008152600401611783906141f9565b60405180910390fd5b6117d28387836000815181106117a5576117a4612e43565b5b602002602001015173ffffffffffffffffffffffffffffffffffffffff16610ac79092919063ffffffff16565b60008373ffffffffffffffffffffffffffffffffffffffff1663ceb757d5886001868630426040518763ffffffff1660e01b81526004016118189695949392919061424a565b6000604051808303816000875af1158015611837573d6000803e3d6000fd5b505050506040513d6000823e3d601f19601f82011682018060405250810190611860919061437c565b905080600182516118719190612e0f565b8151811061188257611881612e43565b5b60200260200101519450505050509392505050565b6000806000838060200190518101906118b09190614403565b915091506118df82868873ffffffffffffffffffffffffffffffffffffffff16610ac79092919063ffffffff16565b8173ffffffffffffffffffffffffffffffffffffffff16635d946c256040518060a001604052808481526020013073ffffffffffffffffffffffffffffffffffffffff16815260200142815260200188815260200160018152506040518263ffffffff1660e01b815260040161195591906144d5565b6020604051808303816000875af1158015611974573d6000803e3d6000fd5b505050506040513d601f19601f820116820180604052508101906119989190612f43565b925050509392505050565b600080600080848060200190518101906119bd91906144f7565b9250925092506119ee83878973ffffffffffffffffffffffffffffffffffffffff16610ac79092919063ffffffff16565b60028114611ab6578273ffffffffffffffffffffffffffffffffffffffff1663c04b8d596040518060a001604052808581526020013073ffffffffffffffffffffffffffffffffffffffff16815260200142815260200189815260200160018152506040518263ffffffff1660e01b8152600401611a6c91906145dc565b6020604051808303816000875af1158015611a8b573d6000803e3d6000fd5b505050506040513d601f19601f82011682018060405250810190611aaf9190612f43565b9350611b6c565b8273ffffffffffffffffffffffffffffffffffffffff1663b858183f60405180608001604052808581526020013073ffffffffffffffffffffffffffffffffffffffff16815260200189815260200160018152506040518263ffffffff1660e01b8152600401611b269190614661565b6020604051808303816000875af1158015611b45573d6000803e3d6000fd5b505050506040513d601f19601f82011682018060405250810190611b699190612f43565b93505b5050509392505050565b60008060608084806020019051810190611b9091906146c1565b809250819450505080915050600281511015611be1576040517f08c379a0000000000000000000000000000000000000000000000000000000008152600401611bd89061478f565b60405180910390fd5b8573ffffffffffffffffffffffffffffffffffffffff168160018351611c079190612e0f565b81518110611c1857611c17612e43565b5b602002602001015173ffffffffffffffffffffffffffffffffffffffff1614611c76576040517f08c379a0000000000000000000000000000000000000000000000000000000008152600401611c6d90614821565b60405180910390fd5b611cbc828683600081518110611c8f57611c8e612e43565b5b602002602001015173ffffffffffffffffffffffffffffffffffffffff16610ac79092919063ffffffff16565b60008273ffffffffffffffffffffffffffffffffffffffff166338ed17398760018530426040518663ffffffff1660e01b8152600401611d00959493929190614841565b6000604051808303816000875af1158015611d1f573d6000803e3d6000fd5b505050506040513d6000823e3d601f19601f82011682018060405250810190611d48919061437c565b90508060018251611d599190612e0f565b81518110611d6a57611d69612e43565b5b602002602001015193505050509392505050565b60008060608060608086806020019051810190611d9b91906149c1565b8095508196508294508398505050505080935050600283511015611df4576040517f08c379a0000000000000000000000000000000000000000000000000000000008152600401611deb90614aee565b60405180910390fd5b60018251611e02919061356c565b835114611e44576040517f08c379a0000000000000000000000000000000000000000000000000000000008152600401611e3b90614ba6565b60405180910390fd5b8151815114611e88576040517f08c379a0000000000000000000000000000000000000000000000000000000008152600401611e7f90614c5e565b60405180910390fd5b8773ffffffffffffffffffffffffffffffffffffffff168360018551611eae9190612e0f565b81518110611ebf57611ebe612e43565b5b602002602001015173ffffffffffffffffffffffffffffffffffffffff1614611f1d576040517f08c379a0000000000000000000000000000000000000000000000000000000008152600401611f1490614cf0565b60405180910390fd5b611f63848885600081518110611f3657611f35612e43565b5b602002602001015173ffffffffffffffffffffffffffffffffffffffff16610ac79092919063ffffffff16565b600060405180606001604052808481526020018381526020018581525090508473ffffffffffffffffffffffffffffffffffffffff16632a443fae8960018430426040518663ffffffff1660e01b8152600401611fc4959493929190614f83565b6020604051808303816000875af1158015611fe3573d6000803e3d6000fd5b505050506040513d601f19601f820116820180604052508101906120079190612f43565b955050505050509392505050565b6000808280602001905181019061202c9190615055565b905061205d8160000151858773ffffffffffffffffffffffffffffffffffffffff16610ac79092919063ffffffff16565b600080826000015173ffffffffffffffffffffffffffffffffffffffff16836020015184604001518560600151896001426040516024016120a2959493929190615082565b604051602081830303815290604052907bffffffffffffffffffffffffffffffffffffffffffffffffffffffff19166020820180517bffffffffffffffffffffffffffffffffffffffffffffffffffffffff838183161783525050505060405161210c9190613e72565b6000604051808303816000865af19150503d8060008114612149576040519150601f19603f3d011682016040523d82523d6000602084013e61214e565b606091505b50915091508161216257612161816124d6565b5b808060200190518101906121769190612f43565b93505050509392505050565b60008060008380602001905181019061219b9190615113565b915091506121ca82868973ffffffffffffffffffffffffffffffffffffffff166124de9092919063ffffffff16565b8173ffffffffffffffffffffffffffffffffffffffff166365d02b048888306001866040518663ffffffff1660e01b815260040161220c9594939291906151b9565b6020604051808303816000875af115801561222b573d6000803e3d6000fd5b505050506040513d601f19601f8201168201806040525081019061224f9190612f43565b92505050949350505050565b6000806000838060200190518101906122749190615251565b915091506122a382868973ffffffffffffffffffffffffffffffffffffffff16610ac79092919063ffffffff16565b8073ffffffffffffffffffffffffffffffffffffffff168673ffffffffffffffffffffffffffffffffffffffff1603612352578173ffffffffffffffffffffffffffffffffffffffff1663617ba03788873060006040518563ffffffff1660e01b815260040161231694939291906152d0565b600060405180830381600087803b15801561233057600080fd5b505af1158015612344573d6000803e3d6000fd5b505050508492505050612449565b8073ffffffffffffffffffffffffffffffffffffffff168773ffffffffffffffffffffffffffffffffffffffff160361240e578173ffffffffffffffffffffffffffffffffffffffff166369328dec8787306040518463ffffffff1660e01b81526004016123c293929190615315565b6020604051808303816000875af11580156123e1573d6000803e3d6000fd5b505050506040513d601f19601f820116820180604052508101906124059190612f43565b92505050612449565b6040517f08c379a0000000000000000000000000000000000000000000000000000000008152600401612440906153be565b60405180910390fd5b949350505050565b60008373ffffffffffffffffffffffffffffffffffffffff1663095ea7b384846040516024016124829291906153de565b604051602081830303815290604052915060e01b6020820180517bffffffffffffffffffffffffffffffffffffffffffffffffffffffff838183161783525050505090506124d08482612563565b50505050565b805160208201fd5b60008373ffffffffffffffffffffffffffffffffffffffff1663a9059cbb848460405160240161250f9291906153de565b604051602081830303815290604052915060e01b6020820180517bffffffffffffffffffffffffffffffffffffffffffffffffffffffff8381831617835250505050905061255d8482612563565b50505050565b6000808373ffffffffffffffffffffffffffffffffffffffff168360405161258b9190613e72565b6000604051808303816000865af19150503d80600081146125c8576040519150601f19603f3d011682016040523d82523d6000602084013e6125cd565b606091505b5091509150816125e1576125e0816124d6565b5b600081510361264b5760008473ffffffffffffffffffffffffffffffffffffffff163b11612644576040517f08c379a000000000000000000000000000000000000000000000000000000000815260040161263b90615479565b60405180910390fd5b5050612683565b602081511061267757808060200190518101906126689190615499565b61267657612675816124d6565b5b5b612680816124d6565b50505b5050565b6040518060800160405280600080191681526020016000815260200160008152602001606081525090565b6000604051905090565b600080fd5b600080fd5b6000819050919050565b6126d9816126c6565b81146126e457600080fd5b50565b6000813590506126f6816126d0565b92915050565b600060208284031215612712576127116126bc565b5b6000612720848285016126e7565b91505092915050565b60008115159050919050565b61273e81612729565b82525050565b60006020820190506127596000830184612735565b92915050565b600073ffffffffffffffffffffffffffffffffffffffff82169050919050565b600061278a8261275f565b9050919050565b600061279c8261277f565b9050919050565b6127ac81612791565b81146127b757600080fd5b50565b6000813590506127c9816127a3565b92915050565b6000819050919050565b6127e2816127cf565b81146127ed57600080fd5b50565b6000813590506127ff816127d9565b92915050565b600080fd5b600080fd5b6000601f19601f8301169050919050565b7f4e487b7100000000000000000000000000000000000000000000000000000000600052604160045260246000fd5b6128588261280f565b810181811067ffffffffffffffff8211171561287757612876612820565b5b80604052505050565b600061288a6126b2565b9050612896828261284f565b919050565b600067ffffffffffffffff8211156128b6576128b5612820565b5b6128bf8261280f565b9050602081019050919050565b82818337600083830152505050565b60006128ee6128e98461289b565b612880565b90508281526020810184848401111561290a5761290961280a565b5b6129158482856128cc565b509392505050565b600082601f83011261293257612931612805565b5b81356129428482602086016128db565b91505092915050565b600080600060608486031215612964576129636126bc565b5b6000612972868287016127ba565b9350506020612983868287016127f0565b925050604084013567ffffffffffffffff8111156129a4576129a36126c1565b5b6129b08682870161291d565b9150509250925092565b6129c3816127cf565b82525050565b60006020820190506129de60008301846129ba565b92915050565b600080600080608085870312156129fe576129fd6126bc565b5b6000612a0c878288016127ba565b9450506020612a1d878288016127ba565b9350506040612a2e878288016127f0565b925050606085013567ffffffffffffffff811115612a4f57612a4e6126c1565b5b612a5b8782880161291d565b91505092959194509250565b600080fd5b600080fd5b600060808284031215612a8757612a86612a67565b5b612a916080612880565b90506000612aa1848285016126e7565b6000830152506020612ab5848285016127f0565b6020830152506040612ac9848285016127f0565b604083015250606082013567ffffffffffffffff811115612aed57612aec612a6c565b5b612af98482850161291d565b60608301525092915050565b60008060008060808587031215612b1f57612b1e6126bc565b5b600085013567ffffffffffffffff811115612b3d57612b3c6126c1565b5b612b4987828801612a71565b9450506020612b5a878288016127ba565b9350506040612b6b878288016127ba565b9250506060612b7c878288016127f0565b91505092959194509250565b6000612b938261275f565b9050919050565b612ba381612b88565b8114612bae57600080fd5b50565b600081519050612bc081612b9a565b92915050565b600067ffffffffffffffff821115612be157612be0612820565b5b602082029050602081019050919050565b600080fd5b612c008161277f565b8114612c0b57600080fd5b50565b600081519050612c1d81612bf7565b92915050565b6000612c36612c3184612bc6565b612880565b90508083825260208201905060208402830185811115612c5957612c58612bf2565b5b835b81811015612c825780612c6e8882612c0e565b845260208401935050602081019050612c5b565b5050509392505050565b600082601f830112612ca157612ca0612805565b5b8151612cb1848260208601612c23565b91505092915050565b60008060008060808587031215612cd457612cd36126bc565b5b6000612ce287828801612bb1565b9450506020612cf387828801612bb1565b9350506040612d0487828801612bb1565b925050606085015167ffffffffffffffff811115612d2557612d246126c1565b5b612d3187828801612c8c565b91505092959194509250565b600082825260208201905092915050565b7f4d6978696e474d582f504154485f4c454e4754485f4d5553545f42455f41545f60008201527f4c454153545f54574f0000000000000000000000000000000000000000000000602082015250565b6000612daa602983612d3d565b9150612db582612d4e565b604082019050919050565b60006020820190508181036000830152612dd981612d9d565b9050919050565b7f4e487b7100000000000000000000000000000000000000000000000000000000600052601160045260246000fd5b6000612e1a826127cf565b9150612e25836127cf565b9250828203905081811115612e3d57612e3c612de0565b5b92915050565b7f4e487b7100000000000000000000000000000000000000000000000000000000600052603260045260246000fd5b7f4d6978696e474d582f4c4153545f454c454d454e545f4f465f504154485f4d5560008201527f53545f4d415443485f4f55545055545f544f4b454e0000000000000000000000602082015250565b6000612ece603583612d3d565b9150612ed982612e72565b604082019050919050565b60006020820190508181036000830152612efd81612ec1565b9050919050565b612f0d8161277f565b82525050565b6000602082019050612f286000830184612f04565b92915050565b600081519050612f3d816127d9565b92915050565b600060208284031215612f5957612f586126bc565b5b6000612f6784828501612f2e565b91505092915050565b600081519050919050565b600082825260208201905092915050565b6000819050602082019050919050565b612fa58161277f565b82525050565b6000612fb78383612f9c565b60208301905092915050565b6000602082019050919050565b6000612fdb82612f70565b612fe58185612f7b565b9350612ff083612f8c565b8060005b838110156130215781516130088882612fab565b975061301383612fc3565b925050600181019050612ff4565b5085935050505092915050565b6000819050919050565b6000819050919050565b600061305d6130586130538461302e565b613038565b6127cf565b9050919050565b61306d81613042565b82525050565b6000608082019050818103600083015261308d8187612fd0565b905061309c60208301866129ba565b6130a96040830185613064565b6130b66060830184612f04565b95945050505050565b60006130ca8261277f565b9050919050565b6130da816130bf565b81146130e557600080fd5b50565b6000815190506130f7816130d1565b92915050565b600060208284031215613113576131126126bc565b5b6000613121848285016130e8565b91505092915050565b600060c08201905061313f6000830189612f04565b61314c6020830188612f04565b61315960408301876129ba565b6131666060830186613064565b6131736080830185612f04565b61318060a0830184612f04565b979650505050505050565b613194816126c6565b82525050565b60006131b56131b06131ab8461275f565b613038565b61275f565b9050919050565b60006131c78261319a565b9050919050565b60006131d9826131bc565b9050919050565b6131e9816131ce565b82525050565b600060a082019050613204600083018861318b565b61321160208301876131e0565b61321e60408301866131e0565b61322b60608301856129ba565b61323860808301846129ba565b9695505050505050565b60006040820190506132576000830185612f04565b6132646020830184612f04565b9392505050565b60006132768261277f565b9050919050565b6132868161326b565b811461329157600080fd5b50565b6000815190506132a38161327d565b92915050565b600067ffffffffffffffff8211156132c4576132c3612820565b5b602082029050602081019050919050565b6000815190506132e4816126d0565b92915050565b60005b838110156133085780820151818401526020810190506132ed565b60008484015250505050565b60006133276133228461289b565b612880565b9050828152602081018484840111156133435761334261280a565b5b61334e8482856132ea565b509392505050565b600082601f83011261336b5761336a612805565b5b815161337b848260208601613314565b91505092915050565b600060a0828403121561339a57613399612a67565b5b6133a460a0612880565b905060006133b4848285016132d5565b60008301525060206133c884828501612f2e565b60208301525060406133dc84828501612f2e565b60408301525060606133f084828501612f2e565b606083015250608082015167ffffffffffffffff81111561341457613413612a6c565b5b61342084828501613356565b60808301525092915050565b600061343f61343a846132a9565b612880565b9050808382526020820190506020840283018581111561346257613461612bf2565b5b835b818110156134a957805167ffffffffffffffff81111561348757613486612805565b5b8086016134948982613384565b85526020850194505050602081019050613464565b5050509392505050565b600082601f8301126134c8576134c7612805565b5b81516134d884826020860161342c565b91505092915050565b6000806000606084860312156134fa576134f96126bc565b5b600061350886828701613294565b935050602084015167ffffffffffffffff811115613529576135286126c1565b5b613535868287016134b3565b925050604084015167ffffffffffffffff811115613556576135556126c1565b5b61356286828701612c8c565b9150509250925092565b6000613577826127cf565b9150613582836127cf565b925082820190508082111561359a57613599612de0565b5b92915050565b7f4e487b7100000000000000000000000000000000000000000000000000000000600052602160045260246000fd5b600281106135e0576135df6135a0565b5b50565b60008190506135f1826135cf565b919050565b6000613601826135e3565b9050919050565b613611816135f6565b82525050565b600081519050919050565b600082825260208201905092915050565b6000819050602082019050919050565b61364c816126c6565b82525050565b61365b816127cf565b82525050565b600081519050919050565b600082825260208201905092915050565b600061368882613661565b613692818561366c565b93506136a28185602086016132ea565b6136ab8161280f565b840191505092915050565b600060a0830160008301516136ce6000860182613643565b5060208301516136e16020860182613652565b5060408301516136f46040860182613652565b5060608301516137076060860182613652565b506080830151848203608086015261371f828261367d565b9150508091505092915050565b600061373883836136b6565b905092915050565b6000602082019050919050565b600061375882613617565b6137628185613622565b93508360208202850161377485613633565b8060005b858110156137b05784840389528151613791858261372c565b945061379c83613740565b925060208a01995050600181019050613778565b50829750879550505050505092915050565b600081519050919050565b6000819050602082019050919050565b6137e6816131ce565b82525050565b60006137f883836137dd565b60208301905092915050565b6000602082019050919050565b600061381c826137c2565b6138268185612f7b565b9350613831836137cd565b8060005b8381101561386257815161384988826137ec565b975061385483613804565b925050600181019050613835565b5085935050505092915050565b61387881612729565b82525050565b61388781612b88565b82525050565b6080820160008201516138a36000850182612f9c565b5060208201516138b6602085018261386f565b5060408201516138c9604085018261387e565b5060608201516138dc606085018261386f565b50505050565b600081519050919050565b600082825260208201905092915050565b6000819050602082019050919050565b6000819050919050565b6139218161390e565b82525050565b60006139338383613918565b60208301905092915050565b6000602082019050919050565b6000613957826138e2565b61396181856138ed565b935061396c836138fe565b8060005b8381101561399d5781516139848882613927565b975061398f8361393f565b925050600181019050613970565b5085935050505092915050565b6000610120820190506139c06000830189613608565b81810360208301526139d2818861374d565b905081810360408301526139e68187613811565b90506139f5606083018661388d565b81810360e0830152613a07818561394c565b9050613a176101008301846129ba565b979650505050505050565b600067ffffffffffffffff821115613a3d57613a3c612820565b5b602082029050602081019050919050565b613a578161390e565b8114613a6257600080fd5b50565b600081519050613a7481613a4e565b92915050565b6000613a8d613a8884613a22565b612880565b90508083825260208201905060208402830185811115613ab057613aaf612bf2565b5b835b81811015613ad95780613ac58882613a65565b845260208401935050602081019050613ab2565b5050509392505050565b600082601f830112613af857613af7612805565b5b8151613b08848260208601613a7a565b91505092915050565b600060208284031215613b2757613b266126bc565b5b600082015167ffffffffffffffff811115613b4557613b446126c1565b5b613b5184828501613ae3565b91505092915050565b7f556e65787065637465642042616c616e63657256324261746368206f7574707560008201527f7400000000000000000000000000000000000000000000000000000000000000602082015250565b6000613bb6602183612d3d565b9150613bc182613b5a565b604082019050919050565b60006020820190508181036000830152613be581613ba9565b9050919050565b6000613bf78261390e565b9150613c028361390e565b9250828202613c108161390e565b91507f80000000000000000000000000000000000000000000000000000000000000008414600084121615613c4857613c47612de0565b5b8282058414831517613c5d57613c5c612de0565b5b5092915050565b60007fffffffff0000000000000000000000000000000000000000000000000000000082169050919050565b613c9981613c64565b8114613ca457600080fd5b50565b600081519050613cb681613c90565b92915050565b600081600f0b9050919050565b613cd281613cbc565b8114613cdd57600080fd5b50565b600081519050613cef81613cc9565b92915050565b600060808284031215613d0b57613d0a612a67565b5b613d156080612880565b90506000613d2584828501612c0e565b6000830152506020613d3984828501613ca7565b6020830152506040613d4d84828501613ce0565b6040830152506060613d6184828501613ce0565b60608301525092915050565b600060808284031215613d8357613d826126bc565b5b6000613d9184828501613cf5565b91505092915050565b613da381613cbc565b82525050565b6000819050919050565b600060ff82169050919050565b6000613ddb613dd6613dd184613da9565b613038565b613db3565b9050919050565b613deb81613dc0565b82525050565b6000608082019050613e066000830187613d9a565b613e136020830186613d9a565b613e2060408301856129ba565b613e2d6060830184613de2565b95945050505050565b600081905092915050565b6000613e4c82613661565b613e568185613e36565b9350613e668185602086016132ea565b80840191505092915050565b6000613e7e8284613e41565b915081905092915050565b600060808284031215613e9f57613e9e612a67565b5b613ea96080612880565b90506000613eb984828501612c0e565b6000830152506020613ecd84828501613ca7565b6020830152506040613ee184828501613ce0565b6040830152506060613ef584828501613ce0565b60608301525092915050565b600060808284031215613f1757613f166126bc565b5b6000613f2584828501613e89565b91505092915050565b6000613f398261277f565b9050919050565b613f4981613f2e565b8114613f5457600080fd5b50565b600081519050613f6681613f40565b92915050565b613f7581612729565b8114613f8057600080fd5b50565b600081519050613f9281613f6c565b92915050565b60008060408385031215613faf57613fae6126bc565b5b6000613fbd85828601613f57565b9250506020613fce85828601613f83565b9150509250929050565b600080600060608486031215613ff157613ff06126bc565b5b6000613fff86828701612bb1565b935050602084015167ffffffffffffffff8111156140205761401f6126c1565b5b61402c86828701612c8c565b925050604084015167ffffffffffffffff81111561404d5761404c6126c1565b5b61405986828701612c8c565b9150509250925092565b7f4d6978696e4b79626572446d6d2f504f4f4c535f4c454e4754485f4d5553545f60008201527f42455f41545f4c454153545f4f4e450000000000000000000000000000000000602082015250565b60006140bf602f83612d3d565b91506140ca82614063565b604082019050919050565b600060208201905081810360008301526140ee816140b2565b9050919050565b7f4d6978696e4b79626572446d6d2f41525241595f4c454e4754485f4d49534d4160008201527f5443480000000000000000000000000000000000000000000000000000000000602082015250565b6000614151602383612d3d565b915061415c826140f5565b604082019050919050565b6000602082019050818103600083015261418081614144565b9050919050565b7f4d6978696e4b79626572446d6d2f4c4153545f454c454d454e545f4f465f504160008201527f54485f4d5553545f4d415443485f4f55545055545f544f4b454e000000000000602082015250565b60006141e3603a83612d3d565b91506141ee82614187565b604082019050919050565b60006020820190508181036000830152614212816141d6565b9050919050565b600061423461422f61422a84613da9565b613038565b6127cf565b9050919050565b61424481614219565b82525050565b600060c08201905061425f60008301896129ba565b61426c602083018861423b565b818103604083015261427e8187612fd0565b905081810360608301526142928186612fd0565b90506142a16080830185612f04565b6142ae60a08301846129ba565b979650505050505050565b600067ffffffffffffffff8211156142d4576142d3612820565b5b602082029050602081019050919050565b60006142f86142f3846142b9565b612880565b9050808382526020820190506020840283018581111561431b5761431a612bf2565b5b835b8181101561434457806143308882612f2e565b84526020840193505060208101905061431d565b5050509392505050565b600082601f83011261436357614362612805565b5b81516143738482602086016142e5565b91505092915050565b600060208284031215614392576143916126bc565b5b600082015167ffffffffffffffff8111156143b0576143af6126c1565b5b6143bc8482850161434e565b91505092915050565b60006143d08261277f565b9050919050565b6143e0816143c5565b81146143eb57600080fd5b50565b6000815190506143fd816143d7565b92915050565b6000806040838503121561441a576144196126bc565b5b6000614428858286016143ee565b925050602083015167ffffffffffffffff811115614449576144486126c1565b5b61445585828601613356565b9150509250929050565b600060a083016000830151848203600086015261447c828261367d565b91505060208301516144916020860182612f9c565b5060408301516144a46040860182613652565b5060608301516144b76060860182613652565b5060808301516144ca6080860182613652565b508091505092915050565b600060208201905081810360008301526144ef818461445f565b905092915050565b6000806000606084860312156145105761450f6126bc565b5b600061451e86828701612bb1565b935050602084015167ffffffffffffffff81111561453f5761453e6126c1565b5b61454b86828701613356565b925050604061455c86828701612f2e565b9150509250925092565b600060a0830160008301518482036000860152614583828261367d565b91505060208301516145986020860182612f9c565b5060408301516145ab6040860182613652565b5060608301516145be6060860182613652565b5060808301516145d16080860182613652565b508091505092915050565b600060208201905081810360008301526145f68184614566565b905092915050565b6000608083016000830151848203600086015261461b828261367d565b91505060208301516146306020860182612f9c565b5060408301516146436040860182613652565b5060608301516146566060860182613652565b508091505092915050565b6000602082019050818103600083015261467b81846145fe565b905092915050565b600061468e8261277f565b9050919050565b61469e81614683565b81146146a957600080fd5b50565b6000815190506146bb81614695565b92915050565b600080604083850312156146d8576146d76126bc565b5b60006146e6858286016146ac565b925050602083015167ffffffffffffffff811115614707576147066126c1565b5b61471385828601612c8c565b9150509250929050565b7f4d6978696e556e697377617056322f504154485f4c454e4754485f4d5553545f60008201527f42455f41545f4c454153545f54574f0000000000000000000000000000000000602082015250565b6000614779602f83612d3d565b91506147848261471d565b604082019050919050565b600060208201905081810360008301526147a88161476c565b9050919050565b7f4d6978696e556e697377617056322f4c4153545f454c454d454e545f4f465f5060008201527f4154485f4d5553545f4d415443485f4f55545055545f544f4b454e0000000000602082015250565b600061480b603b83612d3d565b9150614816826147af565b604082019050919050565b6000602082019050818103600083015261483a816147fe565b9050919050565b600060a08201905061485660008301886129ba565b614863602083018761423b565b81810360408301526148758186613811565b90506148846060830185612f04565b61489160808301846129ba565b9695505050505050565b60006148a68261277f565b9050919050565b6148b68161489b565b81146148c157600080fd5b50565b6000815190506148d3816148ad565b92915050565b600067ffffffffffffffff8211156148f4576148f3612820565b5b602082029050602081019050919050565b6003811061491257600080fd5b50565b60008151905061492481614905565b92915050565b600061493d614938846148d9565b612880565b905080838252602082019050602084028301858111156149605761495f612bf2565b5b835b8181101561498957806149758882614915565b845260208401935050602081019050614962565b5050509392505050565b600082601f8301126149a8576149a7612805565b5b81516149b884826020860161492a565b91505092915050565b600080600080608085870312156149db576149da6126bc565b5b60006149e9878288016148c4565b945050602085015167ffffffffffffffff811115614a0a57614a096126c1565b5b614a1687828801612c8c565b935050604085015167ffffffffffffffff811115614a3757614a366126c1565b5b614a438782880161434e565b925050606085015167ffffffffffffffff811115614a6457614a636126c1565b5b614a7087828801614993565b91505092959194509250565b7f4d6978696e5472616465724a6f6556322f504154485f4c454e4754485f4d555360008201527f545f42455f41545f4c454153545f54574f000000000000000000000000000000602082015250565b6000614ad8603183612d3d565b9150614ae382614a7c565b604082019050919050565b60006020820190508181036000830152614b0781614acb565b9050919050565b7f4d6978696e5472616465724a6f6556322f504149525f42494e5f53544550535f60008201527f4c454e4754485f4d5553545f42455f4f4e455f4c4553535f5448414e5f544f4b60208201527f454e5f504154485f4c454e475448000000000000000000000000000000000000604082015250565b6000614b90604e83612d3d565b9150614b9b82614b0e565b606082019050919050565b60006020820190508181036000830152614bbf81614b83565b9050919050565b7f4d6978696e5472616465724a6f6556322f56455253494f4e535f4c454e47544860008201527f5f4d5553545f42455f455155414c5f544f5f504149525f42494e5f535445505360208201527f5f4c454e47544800000000000000000000000000000000000000000000000000604082015250565b6000614c48604783612d3d565b9150614c5382614bc6565b606082019050919050565b60006020820190508181036000830152614c7781614c3b565b9050919050565b7f4d6978696e5472616465724a6f6556322f4c4153545f454c454d454e545f4f4660008201527f5f504154485f4d5553545f4d415443485f4f55545055545f544f4b454e000000602082015250565b6000614cda603d83612d3d565b9150614ce582614c7e565b604082019050919050565b60006020820190508181036000830152614d0981614ccd565b9050919050565b600081519050919050565b600082825260208201905092915050565b6000819050602082019050919050565b6000614d488383613652565b60208301905092915050565b6000602082019050919050565b6000614d6c82614d10565b614d768185614d1b565b9350614d8183614d2c565b8060005b83811015614db2578151614d998882614d3c565b9750614da483614d54565b925050600181019050614d85565b5085935050505092915050565b600081519050919050565b600082825260208201905092915050565b6000819050602082019050919050565b60038110614dfc57614dfb6135a0565b5b50565b6000819050614e0d82614deb565b919050565b6000614e1d82614dff565b9050919050565b614e2d81614e12565b82525050565b6000614e3f8383614e24565b60208301905092915050565b6000602082019050919050565b6000614e6382614dbf565b614e6d8185614dca565b9350614e7883614ddb565b8060005b83811015614ea9578151614e908882614e33565b9750614e9b83614e4b565b925050600181019050614e7c565b5085935050505092915050565b600082825260208201905092915050565b6000614ed2826137c2565b614edc8185614eb6565b9350614ee7836137cd565b8060005b83811015614f18578151614eff88826137ec565b9750614f0a83613804565b925050600181019050614eeb565b5085935050505092915050565b60006060830160008301518482036000860152614f428282614d61565b91505060208301518482036020860152614f5c8282614e58565b91505060408301518482036040860152614f768282614ec7565b9150508091505092915050565b600060a082019050614f9860008301886129ba565b614fa5602083018761423b565b8181036040830152614fb78186614f25565b9050614fc66060830185612f04565b614fd360808301846129ba565b9695505050505050565b600060808284031215614ff357614ff2612a67565b5b614ffd6080612880565b9050600061500d84828501612c0e565b600083015250602061502184828501613ca7565b602083015250604061503584828501613ce0565b604083015250606061504984828501613ce0565b60608301525092915050565b60006080828403121561506b5761506a6126bc565b5b600061507984828501614fdd565b91505092915050565b600060a0820190506150976000830188613d9a565b6150a46020830187613d9a565b6150b160408301866129ba565b6150be6060830185613de2565b6150cb60808301846129ba565b9695505050505050565b60006150e08261277f565b9050919050565b6150f0816150d5565b81146150fb57600080fd5b50565b60008151905061510d816150e7565b92915050565b6000806040838503121561512a576151296126bc565b5b6000615138858286016150fe565b925050602083015167ffffffffffffffff811115615159576151586126c1565b5b61516585828601613356565b9150509250929050565b600082825260208201905092915050565b600061518b82613661565b615195818561516f565b93506151a58185602086016132ea565b6151ae8161280f565b840191505092915050565b600060a0820190506151ce60008301886131e0565b6151db60208301876131e0565b6151e86040830186612f04565b6151f5606083018561423b565b81810360808301526152078184615180565b90509695505050505050565b600061521e8261277f565b9050919050565b61522e81615213565b811461523957600080fd5b50565b60008151905061524b81615225565b92915050565b60008060408385031215615268576152676126bc565b5b60006152768582860161523c565b925050602061528785828601612bb1565b9150509250929050565b600061ffff82169050919050565b60006152ba6152b56152b08461302e565b613038565b615291565b9050919050565b6152ca8161529f565b82525050565b60006080820190506152e56000830187612f04565b6152f260208301866129ba565b6152ff6040830185612f04565b61530c60608301846152c1565b95945050505050565b600060608201905061532a6000830186612f04565b61533760208301856129ba565b6153446040830184612f04565b949350505050565b7f4d6978696e4161766556332f554e535550504f525445445f544f4b454e5f504160008201527f4952000000000000000000000000000000000000000000000000000000000000602082015250565b60006153a8602283612d3d565b91506153b38261534c565b604082019050919050565b600060208201905081810360008301526153d78161539b565b9050919050565b60006040820190506153f36000830185612f04565b61540060208301846129ba565b9392505050565b7f696e76616c696420746f6b656e20616464726573732c20636f6e7461696e732060008201527f6e6f20636f646500000000000000000000000000000000000000000000000000602082015250565b6000615463602783612d3d565b915061546e82615407565b604082019050919050565b6000602082019050818103600083015261549281615456565b9050919050565b6000602082840312156154af576154ae6126bc565b5b60006154bd84828501613f83565b9150509291505056fea26469706673582212207038042822b31c72598fb1277abbafd291e4002c1d82793e0b72b9e51a797a6364736f6c634300081c0033",
  "linkReferences": {},
  "deployedLinkReferences": {}
}