{
  "_format": "hh-sol-artifact-1",
  "contractName": "ERC1155OrdersFeature",
  "sourceName": "contracts/src/features/nft_orders/ERC1155OrdersFeature.sol",
  "abi": [
    {
      "inputs": [
        {
          "internalType": "address",
          "name": "zeroExAddress",
          "type": "address"
        },
        {
          "internalType": "contract IEtherToken",
          "name": "weth",
          "type": "address"
        }
      ],
      "stateMutability": "nonpayable",
      "type": "constructor"
    },
    {
      "anonymous": false,
      "inputs": [
        {
          "indexed": false,
          "internalType": "address",
          "name": "maker",
          "type": "address"
        },
        {
          "indexed": false,
          "internalType": "uint256",
          "name": "nonce",
          "type": "uint256"
        }
      ],
      "name": "ERC1155OrderCancelled",
      "type": "event"
    },
    {
      "anonymous": false,
      "inputs": [
        {
          "indexed": false,
          "internalType": "enum LibNFTOrder.TradeDirection",
          "name": "direction",
          "type": "uint8"
        },
        {
          "indexed": false,
          "internalType": "address",
          "name": "maker",
          "type": "address"
        },
        {
          "indexed": false,
          "internalType": "address",
          "name": "taker",
          "type": "address"
        },
        {
          "indexed": false,
          "internalType": "uint256",
          "name": "nonce",
          "type": "uint256"
        },
        {
          "indexed": false,
          "internalType": "contract IERC20Token",
          "name": "erc20Token",
          "type": "address"
        },
        {
          "indexed": false,
          "internalType": "uint256",
          "name": "erc20FillAmount",
          "type": "uint256"
        },
        {
          "indexed": false,
          "internalType": "contract IERC1155Token",
          "name": "erc1155Token",
          "type": "address"
        },
        {
          "indexed": false,
          "internalType": "uint256",
          "name": "erc1155TokenId",
          "type": "uint256"
        },
        {
          "indexed": false,
          "internalType": "uint128",
          "name": "erc1155FillAmount",
          "type": "uint128"
        },
        {
          "indexed": false,
          "internalType": "address",
          "name": "matcher",
          "type": "address"
        }
      ],
      "name": "ERC1155OrderFilled",
      "type": "event"
    },
    {
      "anonymous": false,
      "inputs": [
        {
          "indexed": false,
          "internalType": "enum LibNFTOrder.TradeDirection",
          "name": "direction",
          "type": "uint8"
        },
        {
          "indexed": false,
          "internalType": "address",
          "name": "maker",
          "type": "address"
        },
        {
          "indexed": false,
          "internalType": "address",
          "name": "taker",
          "type": "address"
        },
        {
          "indexed": false,
          "internalType": "uint256",
          "name": "expiry",
          "type": "uint256"
        },
        {
          "indexed": false,
          "internalType": "uint256",
          "name": "nonce",
          "type": "uint256"
        },
        {
          "indexed": false,
          "internalType": "contract IERC20Token",
          "name": "erc20Token",
          "type": "address"
        },
        {
          "indexed": false,
          "internalType": "uint256",
          "name": "erc20TokenAmount",
          "type": "uint256"
        },
        {
          "components": [
            {
              "internalType": "address",
              "name": "recipient",
              "type": "address"
            },
            {
              "internalType": "uint256",
              "name": "amount",
              "type": "uint256"
            },
            {
              "internalType": "bytes",
              "name": "feeData",
              "type": "bytes"
            }
          ],
          "indexed": false,
          "internalType": "struct LibNFTOrder.Fee[]",
          "name": "fees",
          "type": "tuple[]"
        },
        {
          "indexed": false,
          "internalType": "contract IERC1155Token",
          "name": "erc1155Token",
          "type": "address"
        },
        {
          "indexed": false,
          "internalType": "uint256",
          "name": "erc1155TokenId",
          "type": "uint256"
        },
        {
          "components": [
            {
              "internalType": "contract IPropertyValidator",
              "name": "propertyValidator",
              "type": "address"
            },
            {
              "internalType": "bytes",
              "name": "propertyData",
              "type": "bytes"
            }
          ],
          "indexed": false,
          "internalType": "struct LibNFTOrder.Property[]",
          "name": "erc1155TokenProperties",
          "type": "tuple[]"
        },
        {
          "indexed": false,
          "internalType": "uint128",
          "name": "erc1155TokenAmount",
          "type": "uint128"
        }
      ],
      "name": "ERC1155OrderPreSigned",
      "type": "event"
    },
    {
      "inputs": [],
      "name": "EIP712_DOMAIN_SEPARATOR",
      "outputs": [
        {
          "internalType": "bytes32",
          "name": "",
          "type": "bytes32"
        }
      ],
      "stateMutability": "view",
      "type": "function"
    },
    {
      "inputs": [],
      "name": "FEATURE_NAME",
      "outputs": [
        {
          "internalType": "string",
          "name": "",
          "type": "string"
        }
      ],
      "stateMutability": "view",
      "type": "function"
    },
    {
      "inputs": [],
      "name": "FEATURE_VERSION",
      "outputs": [
        {
          "internalType": "uint256",
          "name": "",
          "type": "uint256"
        }
      ],
      "stateMutability": "view",
      "type": "function"
    },
    {
      "inputs": [
        {
          "components": [
            {
              "internalType": "enum LibNFTOrder.TradeDirection",
              "name": "direction",
              "type": "uint8"
            },
            {
              "internalType": "address",
              "name": "maker",
              "type": "address"
            },
            {
              "internalType": "address",
              "name": "taker",
              "type": "address"
            },
            {
              "internalType": "uint256",
              "name": "expiry",
              "type": "uint256"
            },
            {
              "internalType": "uint256",
              "name": "nonce",
              "type": "uint256"
            },
            {
              "internalType": "contract IERC20Token",
              "name": "erc20Token",
              "type": "address"
            },
            {
              "internalType": "uint256",
              "name": "erc20TokenAmount",
              "type": "uint256"
            },
            {
              "components": [
                {
                  "internalType": "address",
                  "name": "recipient",
                  "type": "address"
                },
                {
                  "internalType": "uint256",
                  "name": "amount",
                  "type": "uint256"
                },
                {
                  "internalType": "bytes",
                  "name": "feeData",
                  "type": "bytes"
                }
              ],
              "internalType": "struct LibNFTOrder.Fee[]",
              "name": "fees",
              "type": "tuple[]"
            },
            {
              "internalType": "contract IERC1155Token",
              "name": "erc1155Token",
              "type": "address"
            },
            {
              "internalType": "uint256",
              "name": "erc1155TokenId",
              "type": "uint256"
            },
            {
              "components": [
                {
                  "internalType": "contract IPropertyValidator",
                  "name": "propertyValidator",
                  "type": "address"
                },
                {
                  "internalType": "bytes",
                  "name": "propertyData",
                  "type": "bytes"
                }
              ],
              "internalType": "struct LibNFTOrder.Property[]",
              "name": "erc1155TokenProperties",
              "type": "tuple[]"
            },
            {
              "internalType": "uint128",
              "name": "erc1155TokenAmount",
              "type": "uint128"
            }
          ],
          "internalType": "struct LibNFTOrder.ERC1155Order",
          "name": "sellOrder",
          "type": "tuple"
        },
        {
          "components": [
            {
              "internalType": "enum LibSignature.SignatureType",
              "name": "signatureType",
              "type": "uint8"
            },
            {
              "internalType": "uint8",
              "name": "v",
              "type": "uint8"
            },
            {
              "internalType": "bytes32",
              "name": "r",
              "type": "bytes32"
            },
            {
              "internalType": "bytes32",
              "name": "s",
              "type": "bytes32"
            }
          ],
          "internalType": "struct LibSignature.Signature",
          "name": "signature",
          "type": "tuple"
        },
        {
          "components": [
            {
              "internalType": "uint128",
              "name": "buyAmount",
              "type": "uint128"
            },
            {
              "internalType": "uint256",
              "name": "ethAvailable",
              "type": "uint256"
            },
            {
              "internalType": "bytes",
              "name": "takerCallbackData",
              "type": "bytes"
            }
          ],
          "internalType": "struct NFTOrders.BuyParams",
          "name": "params",
          "type": "tuple"
        }
      ],
      "name": "_buyERC1155",
      "outputs": [],
      "stateMutability": "payable",
      "type": "function"
    },
    {
      "inputs": [
        {
          "components": [
            {
              "internalType": "enum LibNFTOrder.TradeDirection",
              "name": "direction",
              "type": "uint8"
            },
            {
              "internalType": "address",
              "name": "maker",
              "type": "address"
            },
            {
              "internalType": "address",
              "name": "taker",
              "type": "address"
            },
            {
              "internalType": "uint256",
              "name": "expiry",
              "type": "uint256"
            },
            {
              "internalType": "uint256",
              "name": "nonce",
              "type": "uint256"
            },
            {
              "internalType": "contract IERC20Token",
              "name": "erc20Token",
              "type": "address"
            },
            {
              "internalType": "uint256",
              "name": "erc20TokenAmount",
              "type": "uint256"
            },
            {
              "components": [
                {
                  "internalType": "address",
                  "name": "recipient",
                  "type": "address"
                },
                {
                  "internalType": "uint256",
                  "name": "amount",
                  "type": "uint256"
                },
                {
                  "internalType": "bytes",
                  "name": "feeData",
                  "type": "bytes"
                }
              ],
              "internalType": "struct LibNFTOrder.Fee[]",
              "name": "fees",
              "type": "tuple[]"
            },
            {
              "internalType": "contract IERC1155Token",
              "name": "erc1155Token",
              "type": "address"
            },
            {
              "internalType": "uint256",
              "name": "erc1155TokenId",
              "type": "uint256"
            },
            {
              "components": [
                {
                  "internalType": "contract IPropertyValidator",
                  "name": "propertyValidator",
                  "type": "address"
                },
                {
                  "internalType": "bytes",
                  "name": "propertyData",
                  "type": "bytes"
                }
              ],
              "internalType": "struct LibNFTOrder.Property[]",
              "name": "erc1155TokenProperties",
              "type": "tuple[]"
            },
            {
              "internalType": "uint128",
              "name": "erc1155TokenAmount",
              "type": "uint128"
            }
          ],
          "internalType": "struct LibNFTOrder.ERC1155Order[]",
          "name": "sellOrders",
          "type": "tuple[]"
        },
        {
          "components": [
            {
              "internalType": "enum LibSignature.SignatureType",
              "name": "signatureType",
              "type": "uint8"
            },
            {
              "internalType": "uint8",
              "name": "v",
              "type": "uint8"
            },
            {
              "internalType": "bytes32",
              "name": "r",
              "type": "bytes32"
            },
            {
              "internalType": "bytes32",
              "name": "s",
              "type": "bytes32"
            }
          ],
          "internalType": "struct LibSignature.Signature[]",
          "name": "signatures",
          "type": "tuple[]"
        },
        {
          "internalType": "uint128[]",
          "name": "erc1155FillAmounts",
          "type": "uint128[]"
        },
        {
          "internalType": "bytes[]",
          "name": "callbackData",
          "type": "bytes[]"
        },
        {
          "internalType": "bool",
          "name": "revertIfIncomplete",
          "type": "bool"
        }
      ],
      "name": "batchBuyERC1155s",
      "outputs": [
        {
          "internalType": "bool[]",
          "name": "successes",
          "type": "bool[]"
        }
      ],
      "stateMutability": "payable",
      "type": "function"
    },
    {
      "inputs": [
        {
          "internalType": "uint256[]",
          "name": "orderNonces",
          "type": "uint256[]"
        }
      ],
      "name": "batchCancelERC1155Orders",
      "outputs": [],
      "stateMutability": "nonpayable",
      "type": "function"
    },
    {
      "inputs": [
        {
          "components": [
            {
              "internalType": "enum LibNFTOrder.TradeDirection",
              "name": "direction",
              "type": "uint8"
            },
            {
              "internalType": "address",
              "name": "maker",
              "type": "address"
            },
            {
              "internalType": "address",
              "name": "taker",
              "type": "address"
            },
            {
              "internalType": "uint256",
              "name": "expiry",
              "type": "uint256"
            },
            {
              "internalType": "uint256",
              "name": "nonce",
              "type": "uint256"
            },
            {
              "internalType": "contract IERC20Token",
              "name": "erc20Token",
              "type": "address"
            },
            {
              "internalType": "uint256",
              "name": "erc20TokenAmount",
              "type": "uint256"
            },
            {
              "components": [
                {
                  "internalType": "address",
                  "name": "recipient",
                  "type": "address"
                },
                {
                  "internalType": "uint256",
                  "name": "amount",
                  "type": "uint256"
                },
                {
                  "internalType": "bytes",
                  "name": "feeData",
                  "type": "bytes"
                }
              ],
              "internalType": "struct LibNFTOrder.Fee[]",
              "name": "fees",
              "type": "tuple[]"
            },
            {
              "internalType": "contract IERC1155Token",
              "name": "erc1155Token",
              "type": "address"
            },
            {
              "internalType": "uint256",
              "name": "erc1155TokenId",
              "type": "uint256"
            },
            {
              "components": [
                {
                  "internalType": "contract IPropertyValidator",
                  "name": "propertyValidator",
                  "type": "address"
                },
                {
                  "internalType": "bytes",
                  "name": "propertyData",
                  "type": "bytes"
                }
              ],
              "internalType": "struct LibNFTOrder.Property[]",
              "name": "erc1155TokenProperties",
              "type": "tuple[]"
            },
            {
              "internalType": "uint128",
              "name": "erc1155TokenAmount",
              "type": "uint128"
            }
          ],
          "internalType": "struct LibNFTOrder.ERC1155Order",
          "name": "sellOrder",
          "type": "tuple"
        },
        {
          "components": [
            {
              "internalType": "enum LibSignature.SignatureType",
              "name": "signatureType",
              "type": "uint8"
            },
            {
              "internalType": "uint8",
              "name": "v",
              "type": "uint8"
            },
            {
              "internalType": "bytes32",
              "name": "r",
              "type": "bytes32"
            },
            {
              "internalType": "bytes32",
              "name": "s",
              "type": "bytes32"
            }
          ],
          "internalType": "struct LibSignature.Signature",
          "name": "signature",
          "type": "tuple"
        },
        {
          "internalType": "uint128",
          "name": "erc1155BuyAmount",
          "type": "uint128"
        },
        {
          "internalType": "bytes",
          "name": "callbackData",
          "type": "bytes"
        }
      ],
      "name": "buyERC1155",
      "outputs": [],
      "stateMutability": "payable",
      "type": "function"
    },
    {
      "inputs": [
        {
          "internalType": "uint256",
          "name": "orderNonce",
          "type": "uint256"
        }
      ],
      "name": "cancelERC1155Order",
      "outputs": [],
      "stateMutability": "nonpayable",
      "type": "function"
    },
    {
      "inputs": [
        {
          "components": [
            {
              "internalType": "enum LibNFTOrder.TradeDirection",
              "name": "direction",
              "type": "uint8"
            },
            {
              "internalType": "address",
              "name": "maker",
              "type": "address"
            },
            {
              "internalType": "address",
              "name": "taker",
              "type": "address"
            },
            {
              "internalType": "uint256",
              "name": "expiry",
              "type": "uint256"
            },
            {
              "internalType": "uint256",
              "name": "nonce",
              "type": "uint256"
            },
            {
              "internalType": "contract IERC20Token",
              "name": "erc20Token",
              "type": "address"
            },
            {
              "internalType": "uint256",
              "name": "erc20TokenAmount",
              "type": "uint256"
            },
            {
              "components": [
                {
                  "internalType": "address",
                  "name": "recipient",
                  "type": "address"
                },
                {
                  "internalType": "uint256",
                  "name": "amount",
                  "type": "uint256"
                },
                {
                  "internalType": "bytes",
                  "name": "feeData",
                  "type": "bytes"
                }
              ],
              "internalType": "struct LibNFTOrder.Fee[]",
              "name": "fees",
              "type": "tuple[]"
            },
            {
              "internalType": "contract IERC1155Token",
              "name": "erc1155Token",
              "type": "address"
            },
            {
              "internalType": "uint256",
              "name": "erc1155TokenId",
              "type": "uint256"
            },
            {
              "components": [
                {
                  "internalType": "contract IPropertyValidator",
                  "name": "propertyValidator",
                  "type": "address"
                },
                {
                  "internalType": "bytes",
                  "name": "propertyData",
                  "type": "bytes"
                }
              ],
              "internalType": "struct LibNFTOrder.Property[]",
              "name": "erc1155TokenProperties",
              "type": "tuple[]"
            },
            {
              "internalType": "uint128",
              "name": "erc1155TokenAmount",
              "type": "uint128"
            }
          ],
          "internalType": "struct LibNFTOrder.ERC1155Order",
          "name": "order",
          "type": "tuple"
        }
      ],
      "name": "getERC1155OrderHash",
      "outputs": [
        {
          "internalType": "bytes32",
          "name": "orderHash",
          "type": "bytes32"
        }
      ],
      "stateMutability": "view",
      "type": "function"
    },
    {
      "inputs": [
        {
          "components": [
            {
              "internalType": "enum LibNFTOrder.TradeDirection",
              "name": "direction",
              "type": "uint8"
            },
            {
              "internalType": "address",
              "name": "maker",
              "type": "address"
            },
            {
              "internalType": "address",
              "name": "taker",
              "type": "address"
            },
            {
              "internalType": "uint256",
              "name": "expiry",
              "type": "uint256"
            },
            {
              "internalType": "uint256",
              "name": "nonce",
              "type": "uint256"
            },
            {
              "internalType": "contract IERC20Token",
              "name": "erc20Token",
              "type": "address"
            },
            {
              "internalType": "uint256",
              "name": "erc20TokenAmount",
              "type": "uint256"
            },
            {
              "components": [
                {
                  "internalType": "address",
                  "name": "recipient",
                  "type": "address"
                },
                {
                  "internalType": "uint256",
                  "name": "amount",
                  "type": "uint256"
                },
                {
                  "internalType": "bytes",
                  "name": "feeData",
                  "type": "bytes"
                }
              ],
              "internalType": "struct LibNFTOrder.Fee[]",
              "name": "fees",
              "type": "tuple[]"
            },
            {
              "internalType": "contract IERC1155Token",
              "name": "erc1155Token",
              "type": "address"
            },
            {
              "internalType": "uint256",
              "name": "erc1155TokenId",
              "type": "uint256"
            },
            {
              "components": [
                {
                  "internalType": "contract IPropertyValidator",
                  "name": "propertyValidator",
                  "type": "address"
                },
                {
                  "internalType": "bytes",
                  "name": "propertyData",
                  "type": "bytes"
                }
              ],
              "internalType": "struct LibNFTOrder.Property[]",
              "name": "erc1155TokenProperties",
              "type": "tuple[]"
            },
            {
              "internalType": "uint128",
              "name": "erc1155TokenAmount",
              "type": "uint128"
            }
          ],
          "internalType": "struct LibNFTOrder.ERC1155Order",
          "name": "order",
          "type": "tuple"
        }
      ],
      "name": "getERC1155OrderInfo",
      "outputs": [
        {
          "components": [
            {
              "internalType": "bytes32",
              "name": "orderHash",
              "type": "bytes32"
            },
            {
              "internalType": "enum LibNFTOrder.OrderStatus",
              "name": "status",
              "type": "uint8"
            },
            {
              "internalType": "uint128",
              "name": "orderAmount",
              "type": "uint128"
            },
            {
              "internalType": "uint128",
              "name": "remainingAmount",
              "type": "uint128"
            }
          ],
          "internalType": "struct LibNFTOrder.OrderInfo",
          "name": "orderInfo",
          "type": "tuple"
        }
      ],
      "stateMutability": "view",
      "type": "function"
    },
    {
      "inputs": [],
      "name": "migrate",
      "outputs": [
        {
          "internalType": "bytes4",
          "name": "success",
          "type": "bytes4"
        }
      ],
      "stateMutability": "nonpayable",
      "type": "function"
    },
    {
      "inputs": [
        {
          "internalType": "address",
          "name": "operator",
          "type": "address"
        },
        {
          "internalType": "address",
          "name": "",
          "type": "address"
        },
        {
          "internalType": "uint256",
          "name": "tokenId",
          "type": "uint256"
        },
        {
          "internalType": "uint256",
          "name": "value",
          "type": "uint256"
        },
        {
          "internalType": "bytes",
          "name": "data",
          "type": "bytes"
        }
      ],
      "name": "onERC1155Received",
      "outputs": [
        {
          "internalType": "bytes4",
          "name": "success",
          "type": "bytes4"
        }
      ],
      "stateMutability": "nonpayable",
      "type": "function"
    },
    {
      "inputs": [
        {
          "components": [
            {
              "internalType": "enum LibNFTOrder.TradeDirection",
              "name": "direction",
              "type": "uint8"
            },
            {
              "internalType": "address",
              "name": "maker",
              "type": "address"
            },
            {
              "internalType": "address",
              "name": "taker",
              "type": "address"
            },
            {
              "internalType": "uint256",
              "name": "expiry",
              "type": "uint256"
            },
            {
              "internalType": "uint256",
              "name": "nonce",
              "type": "uint256"
            },
            {
              "internalType": "contract IERC20Token",
              "name": "erc20Token",
              "type": "address"
            },
            {
              "internalType": "uint256",
              "name": "erc20TokenAmount",
              "type": "uint256"
            },
            {
              "components": [
                {
                  "internalType": "address",
                  "name": "recipient",
                  "type": "address"
                },
                {
                  "internalType": "uint256",
                  "name": "amount",
                  "type": "uint256"
                },
                {
                  "internalType": "bytes",
                  "name": "feeData",
                  "type": "bytes"
                }
              ],
              "internalType": "struct LibNFTOrder.Fee[]",
              "name": "fees",
              "type": "tuple[]"
            },
            {
              "internalType": "contract IERC1155Token",
              "name": "erc1155Token",
              "type": "address"
            },
            {
              "internalType": "uint256",
              "name": "erc1155TokenId",
              "type": "uint256"
            },
            {
              "components": [
                {
                  "internalType": "contract IPropertyValidator",
                  "name": "propertyValidator",
                  "type": "address"
                },
                {
                  "internalType": "bytes",
                  "name": "propertyData",
                  "type": "bytes"
                }
              ],
              "internalType": "struct LibNFTOrder.Property[]",
              "name": "erc1155TokenProperties",
              "type": "tuple[]"
            },
            {
              "internalType": "uint128",
              "name": "erc1155TokenAmount",
              "type": "uint128"
            }
          ],
          "internalType": "struct LibNFTOrder.ERC1155Order",
          "name": "order",
          "type": "tuple"
        }
      ],
      "name": "preSignERC1155Order",
      "outputs": [],
      "stateMutability": "nonpayable",
      "type": "function"
    },
    {
      "inputs": [
        {
          "components": [
            {
              "internalType": "enum LibNFTOrder.TradeDirection",
              "name": "direction",
              "type": "uint8"
            },
            {
              "internalType": "address",
              "name": "maker",
              "type": "address"
            },
            {
              "internalType": "address",
              "name": "taker",
              "type": "address"
            },
            {
              "internalType": "uint256",
              "name": "expiry",
              "type": "uint256"
            },
            {
              "internalType": "uint256",
              "name": "nonce",
              "type": "uint256"
            },
            {
              "internalType": "contract IERC20Token",
              "name": "erc20Token",
              "type": "address"
            },
            {
              "internalType": "uint256",
              "name": "erc20TokenAmount",
              "type": "uint256"
            },
            {
              "components": [
                {
                  "internalType": "address",
                  "name": "recipient",
                  "type": "address"
                },
                {
                  "internalType": "uint256",
                  "name": "amount",
                  "type": "uint256"
                },
                {
                  "internalType": "bytes",
                  "name": "feeData",
                  "type": "bytes"
                }
              ],
              "internalType": "struct LibNFTOrder.Fee[]",
              "name": "fees",
              "type": "tuple[]"
            },
            {
              "internalType": "contract IERC1155Token",
              "name": "erc1155Token",
              "type": "address"
            },
            {
              "internalType": "uint256",
              "name": "erc1155TokenId",
              "type": "uint256"
            },
            {
              "components": [
                {
                  "internalType": "contract IPropertyValidator",
                  "name": "propertyValidator",
                  "type": "address"
                },
                {
                  "internalType": "bytes",
                  "name": "propertyData",
                  "type": "bytes"
                }
              ],
              "internalType": "struct LibNFTOrder.Property[]",
              "name": "erc1155TokenProperties",
              "type": "tuple[]"
            },
            {
              "internalType": "uint128",
              "name": "erc1155TokenAmount",
              "type": "uint128"
            }
          ],
          "internalType": "struct LibNFTOrder.ERC1155Order",
          "name": "buyOrder",
          "type": "tuple"
        },
        {
          "components": [
            {
              "internalType": "enum LibSignature.SignatureType",
              "name": "signatureType",
              "type": "uint8"
            },
            {
              "internalType": "uint8",
              "name": "v",
              "type": "uint8"
            },
            {
              "internalType": "bytes32",
              "name": "r",
              "type": "bytes32"
            },
            {
              "internalType": "bytes32",
              "name": "s",
              "type": "bytes32"
            }
          ],
          "internalType": "struct LibSignature.Signature",
          "name": "signature",
          "type": "tuple"
        },
        {
          "internalType": "uint256",
          "name": "erc1155TokenId",
          "type": "uint256"
        },
        {
          "internalType": "uint128",
          "name": "erc1155SellAmount",
          "type": "uint128"
        },
        {
          "internalType": "bool",
          "name": "unwrapNativeToken",
          "type": "bool"
        },
        {
          "internalType": "bytes",
          "name": "callbackData",
          "type": "bytes"
        }
      ],
      "name": "sellERC1155",
      "outputs": [],
      "stateMutability": "nonpayable",
      "type": "function"
    },
    {
      "inputs": [
        {
          "components": [
            {
              "internalType": "enum LibNFTOrder.TradeDirection",
              "name": "direction",
              "type": "uint8"
            },
            {
              "internalType": "address",
              "name": "maker",
              "type": "address"
            },
            {
              "internalType": "address",
              "name": "taker",
              "type": "address"
            },
            {
              "internalType": "uint256",
              "name": "expiry",
              "type": "uint256"
            },
            {
              "internalType": "uint256",
              "name": "nonce",
              "type": "uint256"
            },
            {
              "internalType": "contract IERC20Token",
              "name": "erc20Token",
              "type": "address"
            },
            {
              "internalType": "uint256",
              "name": "erc20TokenAmount",
              "type": "uint256"
            },
            {
              "components": [
                {
                  "internalType": "address",
                  "name": "recipient",
                  "type": "address"
                },
                {
                  "internalType": "uint256",
                  "name": "amount",
                  "type": "uint256"
                },
                {
                  "internalType": "bytes",
                  "name": "feeData",
                  "type": "bytes"
                }
              ],
              "internalType": "struct LibNFTOrder.Fee[]",
              "name": "fees",
              "type": "tuple[]"
            },
            {
              "internalType": "contract IERC1155Token",
              "name": "erc1155Token",
              "type": "address"
            },
            {
              "internalType": "uint256",
              "name": "erc1155TokenId",
              "type": "uint256"
            },
            {
              "components": [
                {
                  "internalType": "contract IPropertyValidator",
                  "name": "propertyValidator",
                  "type": "address"
                },
                {
                  "internalType": "bytes",
                  "name": "propertyData",
                  "type": "bytes"
                }
              ],
              "internalType": "struct LibNFTOrder.Property[]",
              "name": "erc1155TokenProperties",
              "type": "tuple[]"
            },
            {
              "internalType": "uint128",
              "name": "erc1155TokenAmount",
              "type": "uint128"
            }
          ],
          "internalType": "struct LibNFTOrder.ERC1155Order",
          "name": "order",
          "type": "tuple"
        },
        {
          "internalType": "uint256",
          "name": "erc1155TokenId",
          "type": "uint256"
        }
      ],
      "name": "validateERC1155OrderProperties",
      "outputs": [],
      "stateMutability": "view",
      "type": "function"
    },
    {
      "inputs": [
        {
          "components": [
            {
              "internalType": "enum LibNFTOrder.TradeDirection",
              "name": "direction",
              "type": "uint8"
            },
            {
              "internalType": "address",
              "name": "maker",
              "type": "address"
            },
            {
              "internalType": "address",
              "name": "taker",
              "type": "address"
            },
            {
              "internalType": "uint256",
              "name": "expiry",
              "type": "uint256"
            },
            {
              "internalType": "uint256",
              "name": "nonce",
              "type": "uint256"
            },
            {
              "internalType": "contract IERC20Token",
              "name": "erc20Token",
              "type": "address"
            },
            {
              "internalType": "uint256",
              "name": "erc20TokenAmount",
              "type": "uint256"
            },
            {
              "components": [
                {
                  "internalType": "address",
                  "name": "recipient",
                  "type": "address"
                },
                {
                  "internalType": "uint256",
                  "name": "amount",
                  "type": "uint256"
                },
                {
                  "internalType": "bytes",
                  "name": "feeData",
                  "type": "bytes"
                }
              ],
              "internalType": "struct LibNFTOrder.Fee[]",
              "name": "fees",
              "type": "tuple[]"
            },
            {
              "internalType": "contract IERC1155Token",
              "name": "erc1155Token",
              "type": "address"
            },
            {
              "internalType": "uint256",
              "name": "erc1155TokenId",
              "type": "uint256"
            },
            {
              "components": [
                {
                  "internalType": "contract IPropertyValidator",
                  "name": "propertyValidator",
                  "type": "address"
                },
                {
                  "internalType": "bytes",
                  "name": "propertyData",
                  "type": "bytes"
                }
              ],
              "internalType": "struct LibNFTOrder.Property[]",
              "name": "erc1155TokenProperties",
              "type": "tuple[]"
            },
            {
              "internalType": "uint128",
              "name": "erc1155TokenAmount",
              "type": "uint128"
            }
          ],
          "internalType": "struct LibNFTOrder.ERC1155Order",
          "name": "order",
          "type": "tuple"
        },
        {
          "components": [
            {
              "internalType": "enum LibSignature.SignatureType",
              "name": "signatureType",
              "type": "uint8"
            },
            {
              "internalType": "uint8",
              "name": "v",
              "type": "uint8"
            },
            {
              "internalType": "bytes32",
              "name": "r",
              "type": "bytes32"
            },
            {
              "internalType": "bytes32",
              "name": "s",
              "type": "bytes32"
            }
          ],
          "internalType": "struct LibSignature.Signature",
          "name": "signature",
          "type": "tuple"
        }
      ],
      "name": "validateERC1155OrderSignature",
      "outputs": [],
      "stateMutability": "view",
      "type": "function"
    }
  ],
  "bytecode": "0x6101006040526801000000000000000060e05234801561001d575f5ffd5b506040516141c83803806141c883398101604081905261003c91610115565b306080908152604080517f8b73c3c69bb8fe3d512ecc4cf759cc79239f7b179b0ffacaa9a75d522b39400f6020808301919091527f9e5dae0addaf20578aeb5d70341d092b53b4e14480ac5726438fd436df7ba427828401527f06c015bd22b4c69690933c1058878ebdfef31f9aaae40bbe86d8a09fe1b2972c606083015246938201939093526001600160a01b0394851660a08083019190915282518083038201815260c0928301909352825192909301919091209091529116905261014d565b6001600160a01b0381168114610112575f5ffd5b50565b5f5f60408385031215610126575f5ffd5b8251610131816100fe565b6020840151909250610142816100fe565b809150509250929050565b60805160a05160c05160e0516140096101bf5f395f61010401525f818161164001528181611684015281816116f701528181611f6e01528181611fb601528181611fdf0152818161202001526126c101525f818161030901526103fc01525f8181610a28015261134801526140095ff3fe6080604052600436106100ef575f3560e01c80637b757d9711610087578063a1865d6f11610057578063a1865d6f146102c6578063a4f4d30d146102e5578063dab400f3146102f8578063f23a6e611461032b575f5ffd5b80637b757d97146102475780637cdb54d81461026657806384680615146102795780638fd3ab8014610299575f5ffd5b80632ac6f62a116100c25780632ac6f62a146101985780634991fd72146101b75780636ae4b4f7146101e35780636e2eec9e14610228575f5ffd5b8063031b905c146100f357806306d2596b146101395780630d32a5311461015a5780631de3a7ac14610179575b5f5ffd5b3480156100fe575f5ffd5b506101267f000000000000000000000000000000000000000000000000000000000000000081565b6040519081526020015b60405180910390f35b348015610144575f5ffd5b50610158610153366004612de2565b61034a565b005b348015610165575f5ffd5b506101586101743660046132a9565b6103bf565b348015610184575f5ffd5b506101266101933660046132f4565b6103df565b3480156101a3575f5ffd5b506101586101b2366004613325565b61044f565b3480156101c2575f5ffd5b506101d66101d13660046132f4565b610465565b604051610130919061338a565b3480156101ee575f5ffd5b5061021b6040518060400160405280600d81526020016c455243313135354f726465727360981b81525081565b6040516101309190613402565b348015610233575f5ffd5b5061015861024236600461342a565b610623565b348015610252575f5ffd5b506101586102613660046132f4565b61067f565b6101586102743660046134c8565b6107cf565b61028c610287366004613676565b61084c565b60405161013091906137b5565b3480156102a4575f5ffd5b506102ad610bf0565b6040516001600160e01b03199091168152602001610130565b3480156102d1575f5ffd5b506101586102e03660046137f9565b610c9d565b6101586102f3366004613837565b610cd0565b348015610303575f5ffd5b506101267f000000000000000000000000000000000000000000000000000000000000000081565b348015610336575f5ffd5b506102ad6103453660046138f8565b610d51565b600160ff82161b8061035a610e2b565b335f81815260019290920160209081526040808420600888901c855282529283902080549490941790935581519081529182018490527f4d5ea7da64f50a4a329921b8d2cab52dff4ebcc58b61d10ff839e28e91445684910160405180910390a15050565b5f6103c9836103df565b90506103da81838560200151610e37565b505050565b5f6104496103ec83610ec0565b60405161190160f01b60208201527f00000000000000000000000000000000000000000000000000000000000000006022820152604281018290525f90606201604051602081830303815290604052805190602001209050919050565b92915050565b61046161045b83610f3d565b82610fba565b5050565b604080516080810182525f8082526020820181905291810182815260608201929092526101608301516001600160801b03169091526104a3826103df565b815261014082015151158015906104db57506001825160018111156104ca576104ca613366565b1415806104db575061012082015115155b1561050157602081015f5b908160038111156104f9576104f9613366565b905250919050565b60018251600181111561051657610516613366565b148015610543575060a08201516001600160a01b031673eeeeeeeeeeeeeeeeeeeeeeeeeeeeeeeeeeeeeeee145b1561055257602081015f6104e6565b42826060015111610568576020810160036104e6565b5f610571610e2b565b82515f908152602082905260409020805461016086015192935090916105a0916001600160801b0316906139af565b6001600160801b03908116606085019081526020808701516001600160a01b03165f90815260018087018352604080832060808b01805160081c855294529091205491519251919360ff9093161b911615806105fd575081811615155b1561061357505060026020840152509092915050565b50505060208201905060016104e6565b61067786866040518060c00160405280876001600160801b031681526020018881526020018615158152602001336001600160a01b03168152602001336001600160a01b0316815260200185815250611177565b505050505050565b60208101516001600160a01b031633146107065760405162461bcd60e51b815260206004820152603860248201527f455243313135354f7264657273466561747572653a3a7072655369676e45524360448201527f313135354f726465722f4d414b45525f4d49534d41544348000000000000000060648201526084015b60405180910390fd5b5f610710826103df565b90505f61071b610e2b565b90506001815f015f8481526020019081526020015f205f0160106101000a81548160ff0219169083151502179055507f5e91ddfeb7bf2e12f7e8ab017d2b63a9217f004a15a53346ad90353ec63d14e4835f015184602001518560400151866060015187608001518860a001518960c001518a60e001518b61010001518c61012001518d61014001518e61016001516040516107c29c9b9a99989796959493929190613ad4565b60405180910390a1505050565b5f6107da3447613b7e565b905061080a85856040518060600160405280876001600160801b0316815260200134815260200186815250610cd0565b478181101561083957610839610834346108248486613b7e565b61082e9190613b91565b346111e8565b61125c565b610677336108478484613b7e565b611264565b60608551875114801561085f5750865184145b801561086c575082518751145b6108de5760405162461bcd60e51b815260206004820152603c60248201527f455243313135354f7264657273466561747572653a3a6261746368427579455260448201527f4331313535732f41525241595f4c454e4754485f4d49534d415443480000000060648201526084016106fd565b86516001600160401b038111156108f7576108f7612df9565b604051908082528060200260200182016040528015610920578160200160208202803683370190505b5090505f61092e3447613b7e565b90508215610a1b575f5b8851811015610a15576109e989828151811061095657610956613ba4565b602002602001015189838151811061097057610970613ba4565b602002602001015160405180606001604052808b8b8781811061099557610995613ba4565b90506020020160208101906109aa9190613bb8565b6001600160801b031681526020016109c28747613b7e565b81526020018986815181106109d9576109d9613ba4565b6020026020010151815250610cd0565b60018382815181106109fd576109fd613ba4565b91151560209283029190910190910152600101610938565b50610bb3565b5f5b8851811015610bb1577f00000000000000000000000000000000000000000000000000000000000000006001600160a01b031663a4f4d30d60e01b8a8381518110610a6a57610a6a613ba4565b60200260200101518a8481518110610a8457610a84613ba4565b602002602001015160405180606001604052808c8c88818110610aa957610aa9613ba4565b9050602002016020810190610abe9190613bb8565b6001600160801b03168152602001610ad68847613b7e565b81526020018a8781518110610aed57610aed613ba4565b6020026020010151815250604051602401610b0a93929190613c38565b60408051601f198184030181529181526020820180516001600160e01b03166001600160e01b0319909416939093179092529051610b489190613d60565b5f60405180830381855af49150503d805f8114610b80576040519150601f19603f3d011682016040523d82523d5f602084013e610b85565b606091505b5050838281518110610b9957610b99613ba4565b91151560209283029190910190910152600101610a1d565b505b4781811015610bd657610bd6610834610bcc8385613b7e565b61082e9034613b91565b610be4336108478484613b7e565b50509695505050505050565b5f610c01633717764f60e11b611321565b610c11630f9b6a9b60e31b611321565b610c216306d2596b60e01b611321565b610c31638468061560e01b611321565b610c4163f23a6e6160e01b611321565b610c51637b757d9760e01b611321565b610c61630d32a53160e01b611321565b610c716315637b1560e11b611321565b610c816324c8feb960e11b611321565b610c91630778e9eb60e21b611321565b50632c64c5ef60e01b90565b5f5b818110156103da57610cc8838383818110610cbc57610cbc613ba4565b9050602002013561034a565b600101610c9f565b5f610ce4610cdd85610f3d565b84846113a8565b90507f20cca81b0e269b265b3229d6b537da91ef475ca0ef55caed7dd30731700ba98d845f015185602001513387608001518860a00151868a61010001518b61012001518a5f01515f604051610d439a99989796959493929190613d76565b60405180910390a150505050565b5f808080610d6185870187613de3565b9250925092508261010001516001600160a01b0316336001600160a01b031614610d9757610d9761083433856101000151611782565b610e1583836040518060c00160405280610db08c6117c9565b6001600160801b03168152602081018d905285151560408201526001600160a01b038f16606082015230608082015260a0015f6040519080825280601f01601f191660200182016040528015610e0d576020820181803683370190505b509052611177565b5063f23a6e6160e01b9998505050505050505050565b5f5f610449600a6117e7565b600482516004811115610e4c57610e4c613366565b03610e8d575f610e5a610e2b565b5f8581526020919091526040902054600160801b900460ff16905080610e8757610e87610834835f61180f565b50505050565b5f610e988484611856565b9050816001600160a01b0316816001600160a01b031614610e8757610e87610834838361180f565b5f5f610ed08361014001516119c0565b90505f610ee08460e00151611bf0565b90506020841015610eed57fe5b601f198401805160e08601805161014090970180517f930490b1bcedd2e5139e22c761fafd52e533960197c2283f3922c7fd8c880be985529482529485526101a083209190925294905290525090565b610fb6604080516101608101909152805f81526020015f6001600160a01b031681526020015f6001600160a01b031681526020015f81526020015f81526020015f6001600160a01b031681526020015f8152602001606081526020015f6001600160a01b031681526020015f8152602001606081525090565b5090565b600182516001811115610fcf57610fcf613366565b146110425760405162461bcd60e51b815260206004820152603960248201527f4e46544f72646572733a3a5f76616c69646174654f7264657250726f7065727460448201527f6965732f57524f4e475f54524144455f444952454354494f4e0000000000000060648201526084016106fd565b816101400151515f0361106d5781610120015181146104615761046161083482846101200151611dee565b5f5b826101400151518110156103da575f836101400151828151811061109557611095613ba4565b602090810291909101015180519091506001600160a01b03166110b8575061116f565b80516101008501516020830151604051631395c0f360e01b81526001600160a01b0390931692631395c0f3926110f5929091889190600401613e3d565b5f6040518083038186803b15801561110b575f5ffd5b505afa92505050801561111c575060015b61116d573d808015611149576040519150601f19603f3d011682016040523d82523d5f602084013e61114e565b606091505b5061116b610834835f015187610100015187866020015186611e2c565b505b505b60010161106f565b5f61118b61118485610f3d565b8484611ea5565b84516020808701516060860151608089015160a08a01516101008b01519489015189516040519899507f20cca81b0e269b265b3229d6b537da91ef475ca0ef55caed7dd30731700ba98d98610d4398978b93909290915f90613d76565b60405160248101839052604481018290526060907ff066156ec319f3a42c58bb7c010e11f5c3620c829e5770398578cb4afa69970f906064015b60408051601f198184030181529190526020810180516001600160e01b03166001600160e01b031990931692909217909152905092915050565b805160208201fd5b8015610461575f826001600160a01b0316826040515f6040518083038185875af1925050503d805f81146112b3576040519150601f19603f3d011682016040523d82523d5f602084013e6112b8565b606091505b50509050806103da5760405162461bcd60e51b815260206004820152602f60248201527f466978696e546f6b656e5370656e6465723a3a5f7472616e736665724574682f60448201526e1514905394d1915497d19052531151608a1b60648201526084016106fd565b604051636eb224cb60e01b81526001600160e01b0319821660048201526001600160a01b037f00000000000000000000000000000000000000000000000000000000000000001660248201523090636eb224cb906044015f604051808303815f87803b15801561138f575f5ffd5b505af11580156113a1573d5f5f3e3d5ffd5b5050505050565b5f5f6113b385612254565b90506113c1858583336122dc565b80606001516001600160801b0316835f01516001600160801b031611156113f6576113f66108348260600151855f015161244c565b80518351611405918791612493565b80604001516001600160801b0316835f01516001600160801b031603611431578460c00151915061145c565b611459835f01516001600160801b031682604001516001600160801b03168760c0015161251c565b91505b611483856101000151866020015133886101200151875f01516001600160801b031661254f565b6020830151604084015151156115e6573033036114f25760405162461bcd60e51b815260206004820152602760248201527f4e46544f72646572733a3a5f6275794e46542f43414e4e4f545f43414c4c424160448201526621a5afa9a2a62360c91b60648201526084016106fd565b8151604080860151905163f2b45c6f60e01b815247925f92339263f2b45c6f92611520929091600401613e6c565b6020604051808303815f875af115801561153c573d5f5f3e3d5ffd5b505050506040513d601f19601f820116820180604052508101906115609190613e84565b905061156c8247613b7e565b6115769084613b91565b92506001600160e01b0319811663f2b45c6f60e01b146115e35760405162461bcd60e51b815260206004820152602260248201527f4e46544f72646572733a3a5f6275794e46542f43414c4c4241434b5f4641494c604482015261115160f21b60648201526084016106fd565b50505b73eeeeeeeeeeeeeeeeeeeeeeeeeeeeeeeeeeeeeeee6001600160a01b03168660a001516001600160a01b03160361163e57611625866020015184611264565b61163986855f01518460400151868561255c565b611779565b7f00000000000000000000000000000000000000000000000000000000000000006001600160a01b03168660a001516001600160a01b03160361174f57828110611721577f00000000000000000000000000000000000000000000000000000000000000006001600160a01b031663d0e30db0846040518263ffffffff1660e01b81526004015f604051808303818588803b1580156116db575f5ffd5b505af11580156116ed573d5f5f3e3d5ffd5b50505050506116257f000000000000000000000000000000000000000000000000000000000000000087602001518561258e565b6117358660a001513388602001518661260b565b6117498633865f015185604001515f6126a0565b50611779565b6117638660a001513388602001518661260b565b6117778633865f015185604001515f6126a0565b505b50509392505050565b6040516001600160a01b038084166024830152821660448201526060907f9b0ee6d140042ea5f964d6cd0802e048ed0934dbf00d63f58640309c235d6ce190606401611222565b5f6001600160801b03821115610fb657610fb661083460038461299a565b5f608082600b8111156117fc576117fc613366565b611807906001613b91565b901b92915050565b6040516001600160a01b038084166024830152821660448201526060907f84356db366796dc6e2aeb1ad74b631fe4e5ec6a650464da6059e9f95c8810a1090606401611222565b5f61186183836129b7565b60028251600481111561187657611876613366565b036118e75760208083015160408085015160608087015183515f815295860180855289905260ff9094169285019290925290830152608082015260019060a0016020604051602081039080840390855afa1580156118d6573d5f5f3e3d5ffd5b5050506020604051035190506119a4565b6003825160048111156118fc576118fc613366565b036119a4575f7f19457468657265756d205369676e6564204d6573736167653a0a3332000000005f5283601c52603c5f2090506001818460200151856040015186606001516040515f8152602001604052604051611976949392919093845260ff9290921660208401526040830152606082015260800190565b6020604051602081039080840390855afa158015611996573d5f5f3e3d5ffd5b505050602060405103519150505b6001600160a01b03811661044957610449610834600585612a8c565b80515f908082036119f3577fc5d2460186f7233c927e7db2dcc703c0e500b653ca82273b7bfad8045d85a4709150611bea565b80600103611ac5575f835f81518110611a0e57611a0e613ba4565b602002602001015190505f6001600160a01b0316815f01516001600160a01b0316148015611a3f5750602081015151155b15611a6c577f720ee400a9024f6a49768142c339bf09d2dd9056ab52d20fbe7165faba6e142d9250611abf565b602080820151805190820120604080517f6292cf854241cb36887e639065eca63b3af9f7f70270cebeda4c29b6d3bc65e8815284516001600160a01b031681850152908101919091526060812081522092505b50611bea565b5f816001600160401b03811115611ade57611ade612df9565b604051908082528060200260200182016040528015611b07578160200160208202803683370190505b5090505f5b82811015611bde577f6292cf854241cb36887e639065eca63b3af9f7f70270cebeda4c29b6d3bc65e8858281518110611b4757611b47613ba4565b60200260200101515f0151868381518110611b6457611b64613ba4565b60200260200101516020015180519060200120604051602001611ba3939291909283526001600160a01b03919091166020830152604082015260600190565b60405160208183030381529060405280519060200120828281518110611bcb57611bcb613ba4565b6020908102919091010152600101611b0c565b50602082810291012091505b50919050565b80515f90808203611c23577fc5d2460186f7233c927e7db2dcc703c0e500b653ca82273b7bfad8045d85a4709150611bea565b80600103611cb1575f835f81518110611c3e57611c3e613ba4565b602002602001015190505f81604001518051906020012090506040517fe68c29f1b4e8cce0bbcac76eb1334bdc1dc1f293a517c90e9e532340e1e94115815282516001600160a01b0316602082015260208301516040820152816060820152608081208152602081209450505050611bea565b5f816001600160401b03811115611cca57611cca612df9565b604051908082528060200260200182016040528015611cf3578160200160208202803683370190505b5090505f5b82811015611bde577fe68c29f1b4e8cce0bbcac76eb1334bdc1dc1f293a517c90e9e532340e1e94115858281518110611d3357611d33613ba4565b60200260200101515f0151868381518110611d5057611d50613ba4565b602002602001015160200151878481518110611d6e57611d6e613ba4565b60200260200101516040015180519060200120604051602001611db394939291909384526001600160a01b039290921660208401526040830152606082015260800190565b60405160208183030381529060405280519060200120828281518110611ddb57611ddb613ba4565b6020908102919091010152600101611cf8565b60405160248101839052604481018290526060907f3a0e82ab33a6ded59a82e996d14f78373afacfa934ad72bb76427beb2c8abd4090606401611222565b60607f409690f4d9f5014a9e8b0bc8995bfa0621e9da9daa9cd07a7c17d83cd3c4b5968686868686604051602401611e68959493929190613eab565b60408051601f198184030181529190526020810180516001600160e01b03166001600160e01b031990931692909217909152905095945050505050565b5f5f611eb085612254565b9050611ec785858386606001518760200151612ac2565b80606001516001600160801b0316835f01516001600160801b03161115611efc57611efc6108348260600151855f015161244c565b80518351611f0b918791612493565b80604001516001600160801b0316835f01516001600160801b031603611f37578460c001519150611f62565b611f5f835f01516001600160801b031682604001516001600160801b03168760c00151612c7d565b91505b826040015115612092577f00000000000000000000000000000000000000000000000000000000000000006001600160a01b03168560a001516001600160a01b031614611fda57611fda6108348660a001517f0000000000000000000000000000000000000000000000000000000000000000612c89565b61200a7f00000000000000000000000000000000000000000000000000000000000000008660200151308561260b565b604051632e1a7d4d60e01b8152600481018390527f00000000000000000000000000000000000000000000000000000000000000006001600160a01b031690632e1a7d4d906024015f604051808303815f87803b158015612069575f5ffd5b505af115801561207b573d5f5f3e3d5ffd5b5050505061208d836060015183611264565b6120aa565b6120aa8560a00151866020015185606001518561260b565b60a0830151511561221257306001600160a01b031683606001516001600160a01b03160361212b5760405162461bcd60e51b815260206004820152602860248201527f4e46544f72646572733a3a5f73656c6c4e46542f43414e4e4f545f43414c4c4260448201526720a1a5afa9a2a62360c11b60648201526084016106fd565b6060830151815160a085015160405163f2b45c6f60e01b81525f936001600160a01b03169263f2b45c6f9261216292600401613e6c565b6020604051808303815f875af115801561217e573d5f5f3e3d5ffd5b505050506040513d601f19601f820116820180604052508101906121a29190613e84565b90506001600160e01b0319811663f2b45c6f60e01b146122105760405162461bcd60e51b815260206004820152602360248201527f4e46544f72646572733a3a5f73656c6c4e46542f43414c4c4241434b5f46414960448201526213115160ea1b60648201526084016106fd565b505b61223c856101000151846080015187602001518660200151875f01516001600160801b031661254f565b611779858660200151855f015184604001515f6126a0565b604080516080810182525f8082526020820181905291810182905260608101919091526104496101d18360408051610180810182525f8082526020820181905291810182905260608082018390526080820183905260a0820183905260c0820183905260e0820181905261010082018390526101208201839052610140820152610160015290565b5f845160018111156122f0576122f0613366565b146123595760405162461bcd60e51b815260206004820152603360248201527f4e46544f72646572733a3a5f76616c696461746553656c6c4f726465722f575260448201527227a723afaa2920a222afa224a922a1aa24a7a760691b60648201526084016106fd565b60408401516001600160a01b03161580159061238b5750806001600160a01b031684604001516001600160a01b031614155b156123a1576123a1610834828660400151612cd0565b6001826020015160038111156123b9576123b9613366565b1461243a5761243a61083485602001518660800151856020015160038111156123e4576123e4613366565b604080516001600160a01b03949094166024850152604484019290925260ff1660648084019190915281518084039091018152608490920190526020810180516001600160e01b031662c5d2e760e21b17905290565b610e87825f0151848660200151610e37565b6040516001600160801b038084166024830152821660448201526060907f4a5879850ad3b01848624d9559668b5a30a921c62ed2e7c3301591f9e7899a7690606401611222565b5f61249c610e2b565b5f848152602082905260409020549091506001600160801b0316806124c18482613efb565b6001600160801b0316116124d7576124d7613f1a565b6124e18382613efb565b5f94855260209290925250604090922080546fffffffffffffffffffffffffffffffff19166001600160801b03909316929092179091555050565b5f82612529600182613b7e565b6125338487613f2e565b61253d9190613b91565b6125479190613f45565b949350505050565b6113a18585858585612d17565b5f61256b8630878760016126a0565b90506125778184613b91565b9250818311156106775761067761083484846111e8565b306001600160a01b038416036125b65760405162461bcd60e51b81526004016106fd90613f64565b60405163a9059cbb60e01b81526001600160a01b03831660048201528160248201526020816044835f6001600160a01b0389165af13d6001835114602082101516811517821691508161067757805f843e8083fd5b306001600160a01b038516036126335760405162461bcd60e51b81526004016106fd90613f64565b6040516323b872dd60e01b81526001600160a01b03841660048201526001600160a01b03831660248201528160448201526020816064835f6001600160a01b038a165af13d6001835114602082101516811517821691508161269757805f843e8083fd5b50505050505050565b5f811561272f576001600160a01b03851630146126bf576126bf613f1a565b7f00000000000000000000000000000000000000000000000000000000000000006001600160a01b03168660a001516001600160a01b03161480612723575060a08601516001600160a01b031673eeeeeeeeeeeeeeeeeeeeeeeeeeeeeeeeeeeeeeee145b61272f5761272f613f1a565b5f5b8660e0015151811015612990575f8760e00151828151811061275557612755613ba4565b60200260200101519050306001600160a01b0316815f01516001600160a01b0316036127e25760405162461bcd60e51b815260206004820152603660248201527f4e46544f72646572733a3a5f706179466565732f524543495049454e545f43416044820152754e4e4f545f42455f45584348414e47455f50524f585960501b60648201526084016106fd565b5f856001600160801b0316876001600160801b0316036128075750602081015161282b565b612828876001600160801b0316876001600160801b03168460200151612c7d565b90505b805f03612839575050612988565b841561285057815161284b9082611264565b612863565b6128638960a0015189845f01518461260b565b604082015151156129795781515f906001600160a01b03166330787dd18761288f578b60a001516128a5565b73eeeeeeeeeeeeeeeeeeeeeeeeeeeeeeeeeeeeeeee5b8486604001516040518463ffffffff1660e01b81526004016128c993929190613e3d565b6020604051808303815f875af11580156128e5573d5f5f3e3d5ffd5b505050506040513d601f19601f820116820180604052508101906129099190613e84565b90506001600160e01b031981166330787dd160e01b146129775760405162461bcd60e51b815260206004820152602360248201527f4e46544f72646572733a3a5f706179466565732f43414c4c4241434b5f46414960448201526213115160ea1b60648201526084016106fd565b505b6129838185613b91565b935050505b600101612731565b5095945050505050565b606063c996af7b60e01b8383604051602401611222929190613fa8565b604081015170014551231950b75fc4402da1732fc9bebe19111580612a0757506129f4600270014551231950b75fc4402da1732fc9bebe19613f45565b6129ff906001613b91565b606082015110155b15612a1a57612a1a610834600584612a8c565b5f81516004811115612a2e57612a2e613366565b03612a4157612a41610834600384612a8c565b600181516004811115612a5657612a56613366565b03612a6857612a686108345f84612a8c565b600481516004811115612a7d57612a7d613366565b03610461576104616108346002845b60607ff18f11f3027e735c758137924b262d4d3aff0037dcd785aca3c699fa05d960bd8383604051602401611222929190613fbf565b600185516001811115612ad757612ad7613366565b14612b3f5760405162461bcd60e51b815260206004820152603260248201527f4e46544f72646572733a3a5f76616c69646174654275794f726465722f57524f6044820152712723afaa2920a222afa224a922a1aa24a7a760711b60648201526084016106fd565b73eeeeeeeeeeeeeeeeeeeeeeeeeeeeeeeeeeeeeeee6001600160a01b03168560a001516001600160a01b031603612bd65760405162461bcd60e51b815260206004820152603560248201527f4e46544f72646572733a3a5f76616c69646174654275794f726465722f4e415460448201527412559157d513d2d15397d393d517d0531313d5d151605a1b60648201526084016106fd565b60408501516001600160a01b031615801590612c085750816001600160a01b031685604001516001600160a01b031614155b15612c1e57612c1e610834838760400151612cd0565b600183602001516003811115612c3657612c36613366565b14612c6157612c6161083486602001518760800151866020015160038111156123e4576123e4613366565b612c6b8582610fba565b6113a1835f0151858760200151610e37565b5f8261253d8386613f2e565b6040516001600160a01b038084166024830152821660448201526060907f035a4cad8d6eddf7c418e1bf06082335925e99c1e1c08596b45ea79896833d7390606401611222565b6040516001600160a01b038084166024830152821660448201526060907f95d9ecc19fc066a15ea87d62b14d6e6f74032bbb37cecf6f42cb5ae9e2b2982090606401611222565b306001600160a01b03861603612d7e5760405162461bcd60e51b815260206004820152602660248201527f466978696e455243313135355370656e6465722f43414e4e4f545f494e564f4b60448201526522afa9a2a62360d11b60648201526084016106fd565b604051637921219560e11b81526001600160a01b03851660048201526001600160a01b038416602482015282604482015281606482015260a060848201525f60a48201525f5f60c4835f6001600160a01b038b165af180612697573d805f843e8083fd5b5f60208284031215612df2575f5ffd5b5035919050565b634e487b7160e01b5f52604160045260245ffd5b604051606081016001600160401b0381118282101715612e2f57612e2f612df9565b60405290565b604080519081016001600160401b0381118282101715612e2f57612e2f612df9565b60405161018081016001600160401b0381118282101715612e2f57612e2f612df9565b604051601f8201601f191681016001600160401b0381118282101715612ea257612ea2612df9565b604052919050565b803560028110612eb8575f5ffd5b919050565b6001600160a01b0381168114612ed1575f5ffd5b50565b8035612eb881612ebd565b5f6001600160401b03821115612ef757612ef7612df9565b5060051b60200190565b5f82601f830112612f10575f5ffd5b81356001600160401b03811115612f2957612f29612df9565b612f3c601f8201601f1916602001612e7a565b818152846020838601011115612f50575f5ffd5b816020850160208301375f918101602001919091529392505050565b5f82601f830112612f7b575f5ffd5b8135612f8e612f8982612edf565b612e7a565b8082825260208201915060208360051b860101925085831115612faf575f5ffd5b602085015b838110156129905780356001600160401b03811115612fd1575f5ffd5b86016060818903601f19011215612fe6575f5ffd5b612fee612e0d565b6020820135612ffc81612ebd565b81526040820135602082015260608201356001600160401b03811115613020575f5ffd5b61302f8a602083860101612f01565b60408301525084525060209283019201612fb4565b5f82601f830112613053575f5ffd5b8135613061612f8982612edf565b8082825260208201915060208360051b860101925085831115613082575f5ffd5b602085015b838110156129905780356001600160401b038111156130a4575f5ffd5b86016040818903601f190112156130b9575f5ffd5b6130c1612e35565b60208201356130cf81612ebd565b815260408201356001600160401b038111156130e9575f5ffd5b6130f88a602083860101612f01565b6020830152508085525050602083019250602081019050613087565b80356001600160801b0381168114612eb8575f5ffd5b5f610180828403121561313b575f5ffd5b613143612e57565b905061314e82612eaa565b815261315c60208301612ed4565b602082015261316d60408301612ed4565b6040820152606082810135908201526080808301359082015261319260a08301612ed4565b60a082015260c0828101359082015260e08201356001600160401b038111156131b9575f5ffd5b6131c584828501612f6c565b60e0830152506131d86101008301612ed4565b61010082015261012082810135908201526101408201356001600160401b03811115613202575f5ffd5b61320e84828501613044565b610140830152506132226101608301613114565b61016082015292915050565b5f6080828403121561323e575f5ffd5b604051608081016001600160401b038111828210171561326057613260612df9565b604052905080823560058110613274575f5ffd5b8152602083013560ff81168114613289575f5ffd5b602082015260408381013590820152606092830135920191909152919050565b5f5f60a083850312156132ba575f5ffd5b82356001600160401b038111156132cf575f5ffd5b6132db8582860161312a565b9250506132eb846020850161322e565b90509250929050565b5f60208284031215613304575f5ffd5b81356001600160401b03811115613319575f5ffd5b6125478482850161312a565b5f5f60408385031215613336575f5ffd5b82356001600160401b0381111561334b575f5ffd5b6133578582860161312a565b95602094909401359450505050565b634e487b7160e01b5f52602160045260245ffd5b60048110612ed157612ed1613366565b81518152602082015160808201906133a18161337a565b806020840152506001600160801b0360408401511660408301526001600160801b03606084015116606083015292915050565b5f81518084528060208401602086015e5f602082860101526020601f19601f83011685010191505092915050565b602081525f61341460208301846133d4565b9392505050565b80358015158114612eb8575f5ffd5b5f5f5f5f5f5f6101208789031215613440575f5ffd5b86356001600160401b03811115613455575f5ffd5b61346189828a0161312a565b965050613471886020890161322e565b945060a0870135935061348660c08801613114565b925061349460e0880161341b565b91506101008701356001600160401b038111156134af575f5ffd5b6134bb89828a01612f01565b9150509295509295509295565b5f5f5f5f60e085870312156134db575f5ffd5b84356001600160401b038111156134f0575f5ffd5b6134fc8782880161312a565b94505061350c866020870161322e565b925061351a60a08601613114565b915060c08501356001600160401b03811115613534575f5ffd5b61354087828801612f01565b91505092959194509250565b5f82601f83011261355b575f5ffd5b8135613569612f8982612edf565b8082825260208201915060208360071b86010192508583111561358a575f5ffd5b602085015b83811015612990576135a1878261322e565b835260209092019160800161358f565b5f5f83601f8401126135c1575f5ffd5b5081356001600160401b038111156135d7575f5ffd5b6020830191508360208260051b85010111156135f1575f5ffd5b9250929050565b5f82601f830112613607575f5ffd5b8135613615612f8982612edf565b8082825260208201915060208360051b860101925085831115613636575f5ffd5b602085015b838110156129905780356001600160401b03811115613658575f5ffd5b613667886020838a0101612f01565b8452506020928301920161363b565b5f5f5f5f5f5f60a0878903121561368b575f5ffd5b86356001600160401b038111156136a0575f5ffd5b8701601f810189136136b0575f5ffd5b80356136be612f8982612edf565b8082825260208201915060208360051b85010192508b8311156136df575f5ffd5b602084015b8381101561371f5780356001600160401b03811115613701575f5ffd5b6137108e60208389010161312a565b845250602092830192016136e4565b50985050505060208701356001600160401b0381111561373d575f5ffd5b61374989828a0161354c565b95505060408701356001600160401b03811115613764575f5ffd5b61377089828a016135b1565b90955093505060608701356001600160401b0381111561378e575f5ffd5b61379a89828a016135f8565b9250506137a96080880161341b565b90509295509295509295565b602080825282518282018190525f918401906040840190835b818110156137ee57835115158352602093840193909201916001016137ce565b509095945050505050565b5f5f6020838503121561380a575f5ffd5b82356001600160401b0381111561381f575f5ffd5b61382b858286016135b1565b90969095509350505050565b5f5f5f60c08486031215613849575f5ffd5b83356001600160401b0381111561385e575f5ffd5b61386a8682870161312a565b93505061387a856020860161322e565b915060a08401356001600160401b03811115613894575f5ffd5b8401606081870312156138a5575f5ffd5b6138ad612e0d565b6138b682613114565b81526020828101359082015260408201356001600160401b038111156138da575f5ffd5b6138e688828501612f01565b60408301525080925050509250925092565b5f5f5f5f5f5f60a0878903121561390d575f5ffd5b863561391881612ebd565b9550602087013561392881612ebd565b9450604087013593506060870135925060808701356001600160401b03811115613950575f5ffd5b8701601f81018913613960575f5ffd5b80356001600160401b03811115613975575f5ffd5b896020828401011115613986575f5ffd5b60208201935080925050509295509295509295565b634e487b7160e01b5f52601160045260245ffd5b6001600160801b0382811682821603908111156104495761044961399b565b600281106139de576139de613366565b9052565b5f82825180855260208501945060208160051b830101602085015f5b83811015613a5a57848303601f19018852815180516001600160a01b0316845260208082015190850152604090810151606091850182905290613a43908501826133d4565b6020998a01999094509290920191506001016139fe565b50909695505050505050565b5f82825180855260208501945060208160051b830101602085015f5b83811015613a5a57848303601f19018852815180516001600160a01b03168452602090810151604091850182905290613abd908501826133d4565b6020998a0199909450929092019150600101613a82565b613ade818e6139ce565b6001600160a01b038c811660208301528b81166040830152606082018b9052608082018a9052881660a082015260c0810187905261018060e082018190525f90613b2a908301886139e2565b6001600160a01b03871661010084015285610120840152828103610140840152613b548186613a66565b915050613b6d6101608301846001600160801b03169052565b9d9c50505050505050505050505050565b818103818111156104495761044961399b565b808201808211156104495761044961399b565b634e487b7160e01b5f52603260045260245ffd5b5f60208284031215613bc8575f5ffd5b61341482613114565b805160058110613be357613be3613366565b825260208181015160ff169083015260408082015190830152606090810151910152565b6001600160801b038151168252602081015160208301525f60408201516060604085015261254760608501826133d4565b60c08152613c4a60c0820185516139ce565b5f6020850151613c6560e08401826001600160a01b03169052565b5060408501516001600160a01b038116610100840152506060850151610120830152608085015161014083015260a08501516001600160a01b0381166101608401525060c085015161018083015260e08501516101806101a0840152613ccf6102408401826139e2565b9050610100860151613ced6101c08501826001600160a01b03169052565b506101208601516101e084015261014086015183820360bf1901610200850152613d178282613a66565b915050610160860151613d366102208501826001600160801b03169052565b50613d446020840186613bd1565b82810360a0840152613d568185613c07565b9695505050505050565b5f82518060208501845e5f920191825250919050565b6101408101613d85828d6139ce565b6001600160a01b039a8b166020830152988a1660408201526060810197909752948816608087015260a086019390935290861660c085015260e08401526001600160801b031661010083015290921661012090920191909152919050565b5f5f5f60c08486031215613df5575f5ffd5b83356001600160401b03811115613e0a575f5ffd5b613e168682870161312a565b935050613e26856020860161322e565b9150613e3460a0850161341b565b90509250925092565b60018060a01b0384168152826020820152606060408201525f613e6360608301846133d4565b95945050505050565b828152604060208201525f61254760408301846133d4565b5f60208284031215613e94575f5ffd5b81516001600160e01b031981168114613414575f5ffd5b6001600160a01b038681168252851660208201526040810184905260a0606082018190525f90613edd908301856133d4565b8281036080840152613eef81856133d4565b98975050505050505050565b6001600160801b0381811683821601908111156104495761044961399b565b634e487b7160e01b5f52600160045260245ffd5b80820281158282048414176104495761044961399b565b5f82613f5f57634e487b7160e01b5f52601260045260245ffd5b500490565b60208082526024908201527f466978696e546f6b656e5370656e6465722f43414e4e4f545f494e564f4b455f60408201526329a2a62360e11b606082015260800190565b60408101613fb58461337a565b9281526020015290565b6040810160068410613fb557613fb561336656fea26469706673582212208d3b5b7f1b5b8421a866be25d4b2ac7018d440802a1b581a30985d1f5d270c9d64736f6c634300081c0033",
  "linkReferences": {},
  "deployedLinkReferences": {}
}