{
  "_format": "hh-sol-artifact-1",
  "contractName": "TestMintableERC1155Token",
  "sourceName": "contracts/test/tokens/TestMintableERC1155Token.sol",
  "abi": [
    {
      "anonymous": false,
      "inputs": [
        {
          "indexed": true,
          "internalType": "address",
          "name": "owner",
          "type": "address"
        },
        {
          "indexed": true,
          "internalType": "address",
          "name": "operator",
          "type": "address"
        },
        {
          "indexed": false,
          "internalType": "bool",
          "name": "approved",
          "type": "bool"
        }
      ],
      "name": "ApprovalForAll",
      "type": "event"
    },
    {
      "anonymous": false,
      "inputs": [
        {
          "indexed": true,
          "internalType": "address",
          "name": "operator",
          "type": "address"
        },
        {
          "indexed": true,
          "internalType": "address",
          "name": "from",
          "type": "address"
        },
        {
          "indexed": true,
          "internalType": "address",
          "name": "to",
          "type": "address"
        },
        {
          "indexed": false,
          "internalType": "uint256[]",
          "name": "ids",
          "type": "uint256[]"
        },
        {
          "indexed": false,
          "internalType": "uint256[]",
          "name": "values",
          "type": "uint256[]"
        }
      ],
      "name": "TransferBatch",
      "type": "event"
    },
    {
      "anonymous": false,
      "inputs": [
        {
          "indexed": true,
          "internalType": "address",
          "name": "operator",
          "type": "address"
        },
        {
          "indexed": true,
          "internalType": "address",
          "name": "from",
          "type": "address"
        },
        {
          "indexed": true,
          "internalType": "address",
          "name": "to",
          "type": "address"
        },
        {
          "indexed": false,
          "internalType": "uint256",
          "name": "id",
          "type": "uint256"
        },
        {
          "indexed": false,
          "internalType": "uint256",
          "name": "value",
          "type": "uint256"
        }
      ],
      "name": "TransferSingle",
      "type": "event"
    },
    {
      "inputs": [],
      "name": "ERC1155_BATCH_RECEIVED",
      "outputs": [
        {
          "internalType": "bytes4",
          "name": "",
          "type": "bytes4"
        }
      ],
      "stateMutability": "view",
      "type": "function"
    },
    {
      "inputs": [],
      "name": "ERC1155_RECEIVED",
      "outputs": [
        {
          "internalType": "bytes4",
          "name": "",
          "type": "bytes4"
        }
      ],
      "stateMutability": "view",
      "type": "function"
    },
    {
      "inputs": [
        {
          "internalType": "address",
          "name": "owner",
          "type": "address"
        },
        {
          "internalType": "uint256",
          "name": "id",
          "type": "uint256"
        }
      ],
      "name": "balanceOf",
      "outputs": [
        {
          "internalType": "uint256",
          "name": "balance",
          "type": "uint256"
        }
      ],
      "stateMutability": "view",
      "type": "function"
    },
    {
      "inputs": [
        {
          "internalType": "address[]",
          "name": "owners",
          "type": "address[]"
        },
        {
          "internalType": "uint256[]",
          "name": "ids",
          "type": "uint256[]"
        }
      ],
      "name": "balanceOfBatch",
      "outputs": [
        {
          "internalType": "uint256[]",
          "name": "balances_",
          "type": "uint256[]"
        }
      ],
      "stateMutability": "view",
      "type": "function"
    },
    {
      "inputs": [
        {
          "internalType": "address",
          "name": "owner",
          "type": "address"
        },
        {
          "internalType": "address",
          "name": "operator",
          "type": "address"
        }
      ],
      "name": "isApprovedForAll",
      "outputs": [
        {
          "internalType": "bool",
          "name": "isApproved",
          "type": "bool"
        }
      ],
      "stateMutability": "view",
      "type": "function"
    },
    {
      "inputs": [
        {
          "internalType": "address",
          "name": "to",
          "type": "address"
        },
        {
          "internalType": "uint256",
          "name": "id",
          "type": "uint256"
        },
        {
          "internalType": "uint256",
          "name": "quantity",
          "type": "uint256"
        }
      ],
      "name": "mint",
      "outputs": [],
      "stateMutability": "nonpayable",
      "type": "function"
    },
    {
      "inputs": [
        {
          "internalType": "address",
          "name": "from",
          "type": "address"
        },
        {
          "internalType": "address",
          "name": "to",
          "type": "address"
        },
        {
          "internalType": "uint256[]",
          "name": "ids",
          "type": "uint256[]"
        },
        {
          "internalType": "uint256[]",
          "name": "values",
          "type": "uint256[]"
        },
        {
          "internalType": "bytes",
          "name": "data",
          "type": "bytes"
        }
      ],
      "name": "safeBatchTransferFrom",
      "outputs": [],
      "stateMutability": "nonpayable",
      "type": "function"
    },
    {
      "inputs": [
        {
          "internalType": "address",
          "name": "from",
          "type": "address"
        },
        {
          "internalType": "address",
          "name": "to",
          "type": "address"
        },
        {
          "internalType": "uint256",
          "name": "id",
          "type": "uint256"
        },
        {
          "internalType": "uint256",
          "name": "value",
          "type": "uint256"
        },
        {
          "internalType": "bytes",
          "name": "data",
          "type": "bytes"
        }
      ],
      "name": "safeTransferFrom",
      "outputs": [],
      "stateMutability": "nonpayable",
      "type": "function"
    },
    {
      "inputs": [
        {
          "internalType": "address",
          "name": "operator",
          "type": "address"
        },
        {
          "internalType": "bool",
          "name": "approved",
          "type": "bool"
        }
      ],
      "name": "setApprovalForAll",
      "outputs": [],
      "stateMutability": "nonpayable",
      "type": "function"
    }
  ],
  "bytecode": "0x6080604052348015600e575f5ffd5b5061102d8061001c5f395ff3fe608060405234801561000f575f5ffd5b506004361061008f575f3560e01c8063a22cb46511610063578063a22cb46514610101578063e0a5c94914610114578063e985e9c51461013b578063f242432a14610186578063fc67bf1c14610199575f5ffd5b8062fdd58e14610093578063156e29f6146100b95780632eb2c2d6146100ce5780634e1273f4146100e1575b5f5ffd5b6100a66100a1366004610abd565b6101a7565b6040519081526020015b60405180910390f35b6100cc6100c7366004610ae5565b6101ce565b005b6100cc6100dc366004610b9b565b61032c565b6100f46100ef366004610c5a565b610690565b6040516100b09190610cc6565b6100cc61010f366004610d08565b6107df565b61012263f23a6e6160e01b81565b6040516001600160e01b031990911681526020016100b0565b610176610149366004610d41565b6001600160a01b039182165f90815260016020908152604080832093909416825291909152205460ff1690565b60405190151581526020016100b0565b6100cc610194366004610d72565b61084a565b61012263bc197c8160e01b81565b5f818152602081815260408083206001600160a01b03861684529091529020545b92915050565b5f828152602081815260408083206001600160a01b03871684529091529020546101f89082610df9565b5f838152602081815260408083206001600160a01b03881680855290835281842094909455805186815291820185905233917fc3d58168c5ae7397731d063d5bbf3d657854427343f4c083240f7aacaa2d0f62910160405180910390a4823b80156103265760405163f23a6e6160e01b815233600482018190526024820152604481018490526064810183905260a060848201525f60a48201819052906001600160a01b0386169063f23a6e619060c4016020604051808303815f875af11580156102c5573d5f5f3e3d5ffd5b505050506040513d601f19601f820116820180604052508101906102e99190610e0c565b90506001600160e01b0319811663f23a6e6160e01b146103245760405162461bcd60e51b815260040161031b90610e3a565b60405180910390fd5b505b50505050565b6001600160a01b0387166103825760405162461bcd60e51b815260206004820152601f60248201527f43414e4e4f545f5452414e534645525f544f5f414444524553535f5a45524f00604482015260640161031b565b8483146103d15760405162461bcd60e51b815260206004820181905260248201527f544f4b454e5f414e445f56414c5545535f4c454e4754485f4d49534d41544348604482015260640161031b565b6001600160a01b03881633148061040e57506001600160a01b0388165f9081526001602081815260408084203385529091529091205460ff161515145b6104535760405162461bcd60e51b8152602060048201526016602482015275494e53554646494349454e545f414c4c4f57414e434560501b604482015260640161031b565b5f5b85811015610571575f87878381811061047057610470610e71565b9050602002013590505f86868481811061048c5761048c610e71565b905060200201359050805f5f8481526020019081526020015f205f8d6001600160a01b03166001600160a01b031681526020019081526020015f20546104d29190610e85565b5f5f8481526020019081526020015f205f8d6001600160a01b03166001600160a01b031681526020019081526020015f2081905550805f5f8481526020019081526020015f205f8c6001600160a01b03166001600160a01b031681526020019081526020015f20546105449190610df9565b5f928352602083815260408085206001600160a01b038e1686529091529092209190915550600101610455565b50866001600160a01b0316886001600160a01b0316336001600160a01b03167f4a39dc06d4c0dbc64b70af90fd698a233a518aa5d07e595d983b8c0526c8f7fb898989896040516105c59493929190610ec8565b60405180910390a4863b80156106855760405163bc197c8160e01b81525f906001600160a01b038a169063bc197c81906106119033908e908d908d908d908d908d908d90600401610f21565b6020604051808303815f875af115801561062d573d5f5f3e3d5ffd5b505050506040513d601f19601f820116820180604052508101906106519190610e0c565b90506001600160e01b0319811663bc197c8160e01b146106835760405162461bcd60e51b815260040161031b90610e3a565b505b505050505050505050565b60608382146106ed5760405162461bcd60e51b8152602060048201526024808201527f4f574e4552535f414e445f4944535f4d5553545f484156455f53414d455f4c4560448201526309c8ea8960e31b606482015260840161031b565b8367ffffffffffffffff81111561070657610706610f84565b60405190808252806020026020018201604052801561072f578160200160208202803683370190505b5090505f5b848110156107d6575f84848381811061074f5761074f610e71565b9050602002013590505f5f8281526020019081526020015f205f88888581811061077b5761077b610e71565b90506020020160208101906107909190610f98565b6001600160a01b03166001600160a01b031681526020019081526020015f20548383815181106107c2576107c2610e71565b602090810291909101015250600101610734565b50949350505050565b335f8181526001602090815260408083206001600160a01b03871680855290835292819020805460ff191686151590811790915590519081529192917f17307eab39ab6107e8899845ad3d59bd9653f200f220920489ca2b5937696c31910160405180910390a35050565b6001600160a01b0385166108a05760405162461bcd60e51b815260206004820152601f60248201527f43414e4e4f545f5452414e534645525f544f5f414444524553535f5a45524f00604482015260640161031b565b6001600160a01b0386163314806108dd57506001600160a01b0386165f9081526001602081815260408084203385529091529091205460ff161515145b6109225760405162461bcd60e51b8152602060048201526016602482015275494e53554646494349454e545f414c4c4f57414e434560501b604482015260640161031b565b5f848152602081815260408083206001600160a01b038a16845290915290205461094d908490610e85565b5f858152602081815260408083206001600160a01b038b81168552925280832093909355871681522054610982908490610df9565b5f858152602081815260408083206001600160a01b038a8116808652918452938290209490945580518881529182018790529189169133917fc3d58168c5ae7397731d063d5bbf3d657854427343f4c083240f7aacaa2d0f62910160405180910390a4843b8015610a995760405163f23a6e6160e01b81525f906001600160a01b0388169063f23a6e6190610a259033908c908b908b908b908b90600401610fb1565b6020604051808303815f875af1158015610a41573d5f5f3e3d5ffd5b505050506040513d601f19601f82011682018060405250810190610a659190610e0c565b90506001600160e01b0319811663f23a6e6160e01b14610a975760405162461bcd60e51b815260040161031b90610e3a565b505b50505050505050565b80356001600160a01b0381168114610ab8575f5ffd5b919050565b5f5f60408385031215610ace575f5ffd5b610ad783610aa2565b946020939093013593505050565b5f5f5f60608486031215610af7575f5ffd5b610b0084610aa2565b95602085013595506040909401359392505050565b5f5f83601f840112610b25575f5ffd5b50813567ffffffffffffffff811115610b3c575f5ffd5b6020830191508360208260051b8501011115610b56575f5ffd5b9250929050565b5f5f83601f840112610b6d575f5ffd5b50813567ffffffffffffffff811115610b84575f5ffd5b602083019150836020828501011115610b56575f5ffd5b5f5f5f5f5f5f5f5f60a0898b031215610bb2575f5ffd5b610bbb89610aa2565b9750610bc960208a01610aa2565b9650604089013567ffffffffffffffff811115610be4575f5ffd5b610bf08b828c01610b15565b909750955050606089013567ffffffffffffffff811115610c0f575f5ffd5b610c1b8b828c01610b15565b909550935050608089013567ffffffffffffffff811115610c3a575f5ffd5b610c468b828c01610b5d565b999c989b5096995094979396929594505050565b5f5f5f5f60408587031215610c6d575f5ffd5b843567ffffffffffffffff811115610c83575f5ffd5b610c8f87828801610b15565b909550935050602085013567ffffffffffffffff811115610cae575f5ffd5b610cba87828801610b15565b95989497509550505050565b602080825282518282018190525f918401906040840190835b81811015610cfd578351835260209384019390920191600101610cdf565b509095945050505050565b5f5f60408385031215610d19575f5ffd5b610d2283610aa2565b915060208301358015158114610d36575f5ffd5b809150509250929050565b5f5f60408385031215610d52575f5ffd5b610d5b83610aa2565b9150610d6960208401610aa2565b90509250929050565b5f5f5f5f5f5f60a08789031215610d87575f5ffd5b610d9087610aa2565b9550610d9e60208801610aa2565b94506040870135935060608701359250608087013567ffffffffffffffff811115610dc7575f5ffd5b610dd389828a01610b5d565b979a9699509497509295939492505050565b634e487b7160e01b5f52601160045260245ffd5b808201808211156101c8576101c8610de5565b5f60208284031215610e1c575f5ffd5b81516001600160e01b031981168114610e33575f5ffd5b9392505050565b60208082526019908201527f4241445f52454345495645525f52455455524e5f56414c554500000000000000604082015260600190565b634e487b7160e01b5f52603260045260245ffd5b818103818111156101c8576101c8610de5565b8183525f6001600160fb1b03831115610eaf575f5ffd5b8260051b80836020870137939093016020019392505050565b604081525f610edb604083018688610e98565b8281036020840152610eee818587610e98565b979650505050505050565b81835281816020850137505f828201602090810191909152601f909101601f19169091010190565b6001600160a01b0389811682528816602082015260a0604082018190525f90610f4d908301888a610e98565b8281036060840152610f60818789610e98565b90508281036080840152610f75818587610ef9565b9b9a5050505050505050505050565b634e487b7160e01b5f52604160045260245ffd5b5f60208284031215610fa8575f5ffd5b610e3382610aa2565b6001600160a01b03878116825286166020820152604081018590526060810184905260a0608082018190525f90610feb9083018486610ef9565b9897505050505050505056fea26469706673582212206619e2d35b59cc5f66b38eb926789d3172367858874d44c9955f14d10d103a0b64736f6c634300081c0033",
  "linkReferences": {},
  "deployedLinkReferences": {}
}