{
  "_format": "hh-sol-artifact-1",
  "contractName": "TestMintableERC1155Token",
  "sourceName": "contracts/test/tokens/TestMintableERC1155Token.sol",
  "abi": [
    {
      "anonymous": false,
      "inputs": [
        {
          "indexed": true,
          "internalType": "address",
          "name": "owner",
          "type": "address"
        },
        {
          "indexed": true,
          "internalType": "address",
          "name": "operator",
          "type": "address"
        },
        {
          "indexed": false,
          "internalType": "bool",
          "name": "approved",
          "type": "bool"
        }
      ],
      "name": "ApprovalForAll",
      "type": "event"
    },
    {
      "anonymous": false,
      "inputs": [
        {
          "indexed": true,
          "internalType": "address",
          "name": "operator",
          "type": "address"
        },
        {
          "indexed": true,
          "internalType": "address",
          "name": "from",
          "type": "address"
        },
        {
          "indexed": true,
          "internalType": "address",
          "name": "to",
          "type": "address"
        },
        {
          "indexed": false,
          "internalType": "uint256[]",
          "name": "ids",
          "type": "uint256[]"
        },
        {
          "indexed": false,
          "internalType": "uint256[]",
          "name": "values",
          "type": "uint256[]"
        }
      ],
      "name": "TransferBatch",
      "type": "event"
    },
    {
      "anonymous": false,
      "inputs": [
        {
          "indexed": true,
          "internalType": "address",
          "name": "operator",
          "type": "address"
        },
        {
          "indexed": true,
          "internalType": "address",
          "name": "from",
          "type": "address"
        },
        {
          "indexed": true,
          "internalType": "address",
          "name": "to",
          "type": "address"
        },
        {
          "indexed": false,
          "internalType": "uint256",
          "name": "id",
          "type": "uint256"
        },
        {
          "indexed": false,
          "internalType": "uint256",
          "name": "value",
          "type": "uint256"
        }
      ],
      "name": "TransferSingle",
      "type": "event"
    },
    {
      "inputs": [],
      "name": "ERC1155_BATCH_RECEIVED",
      "outputs": [
        {
          "internalType": "bytes4",
          "name": "",
          "type": "bytes4"
        }
      ],
      "stateMutability": "view",
      "type": "function"
    },
    {
      "inputs": [],
      "name": "ERC1155_RECEIVED",
      "outputs": [
        {
          "internalType": "bytes4",
          "name": "",
          "type": "bytes4"
        }
      ],
      "stateMutability": "view",
      "type": "function"
    },
    {
      "inputs": [
        {
          "internalType": "address",
          "name": "owner",
          "type": "address"
        },
        {
          "internalType": "uint256",
          "name": "id",
          "type": "uint256"
        }
      ],
      "name": "balanceOf",
      "outputs": [
        {
          "internalType": "uint256",
          "name": "balance",
          "type": "uint256"
        }
      ],
      "stateMutability": "view",
      "type": "function"
    },
    {
      "inputs": [
        {
          "internalType": "address[]",
          "name": "owners",
          "type": "address[]"
        },
        {
          "internalType": "uint256[]",
          "name": "ids",
          "type": "uint256[]"
        }
      ],
      "name": "balanceOfBatch",
      "outputs": [
        {
          "internalType": "uint256[]",
          "name": "balances_",
          "type": "uint256[]"
        }
      ],
      "stateMutability": "view",
      "type": "function"
    },
    {
      "inputs": [
        {
          "internalType": "address",
          "name": "owner",
          "type": "address"
        },
        {
          "internalType": "address",
          "name": "operator",
          "type": "address"
        }
      ],
      "name": "isApprovedForAll",
      "outputs": [
        {
          "internalType": "bool",
          "name": "isApproved",
          "type": "bool"
        }
      ],
      "stateMutability": "view",
      "type": "function"
    },
    {
      "inputs": [
        {
          "internalType": "address",
          "name": "to",
          "type": "address"
        },
        {
          "internalType": "uint256",
          "name": "id",
          "type": "uint256"
        },
        {
          "internalType": "uint256",
          "name": "quantity",
          "type": "uint256"
        }
      ],
      "name": "mint",
      "outputs": [],
      "stateMutability": "nonpayable",
      "type": "function"
    },
    {
      "inputs": [
        {
          "internalType": "address",
          "name": "from",
          "type": "address"
        },
        {
          "internalType": "address",
          "name": "to",
          "type": "address"
        },
        {
          "internalType": "uint256[]",
          "name": "ids",
          "type": "uint256[]"
        },
        {
          "internalType": "uint256[]",
          "name": "values",
          "type": "uint256[]"
        },
        {
          "internalType": "bytes",
          "name": "data",
          "type": "bytes"
        }
      ],
      "name": "safeBatchTransferFrom",
      "outputs": [],
      "stateMutability": "nonpayable",
      "type": "function"
    },
    {
      "inputs": [
        {
          "internalType": "address",
          "name": "from",
          "type": "address"
        },
        {
          "internalType": "address",
          "name": "to",
          "type": "address"
        },
        {
          "internalType": "uint256",
          "name": "id",
          "type": "uint256"
        },
        {
          "internalType": "uint256",
          "name": "value",
          "type": "uint256"
        },
        {
          "internalType": "bytes",
          "name": "data",
          "type": "bytes"
        }
      ],
      "name": "safeTransferFrom",
      "outputs": [],
      "stateMutability": "nonpayable",
      "type": "function"
    },
    {
      "inputs": [
        {
          "internalType": "address",
          "name": "operator",
          "type": "address"
        },
        {
          "internalType": "bool",
          "name": "approved",
          "type": "bool"
        }
      ],
      "name": "setApprovalForAll",
      "outputs": [],
      "stateMutability": "nonpayable",
      "type": "function"
    }
  ],
  "bytecode": "0x6080604052348015600e575f5ffd5b506115458061001c5f395ff3fe608060405234801561000f575f5ffd5b506004361061009e575f3560e01c8063a22cb46511610072578063e985e9c511610058578063e985e9c51461017b578063f242432a146101d3578063fc67bf1c146101e6575f5ffd5b8063a22cb46514610110578063e0a5c94914610123575f5ffd5b8062fdd58e146100a2578063156e29f6146100c85780632eb2c2d6146100dd5780634e1273f4146100f0575b5f5ffd5b6100b56100b0366004610f35565b61020d565b6040519081526020015b60405180910390f35b6100db6100d6366004610f5d565b610241565b005b6100db6100eb366004611013565b610456565b6101036100fe3660046110d2565b610959565b6040516100bf919061113e565b6100db61011e366004611180565b610af5565b61014a7ff23a6e610000000000000000000000000000000000000000000000000000000081565b6040517fffffffff0000000000000000000000000000000000000000000000000000000090911681526020016100bf565b6101c36101893660046111b9565b73ffffffffffffffffffffffffffffffffffffffff9182165f90815260016020908152604080832093909416825291909152205460ff1690565b60405190151581526020016100bf565b6100db6101e13660046111ea565b610b8b565b61014a7fbc197c810000000000000000000000000000000000000000000000000000000081565b5f8181526020818152604080832073ffffffffffffffffffffffffffffffffffffffff861684529091529020545b92915050565b5f8281526020818152604080832073ffffffffffffffffffffffffffffffffffffffff87168452909152902054610278908261128a565b5f8381526020818152604080832073ffffffffffffffffffffffffffffffffffffffff881680855290835281842094909455805186815291820185905233917fc3d58168c5ae7397731d063d5bbf3d657854427343f4c083240f7aacaa2d0f62910160405180910390a4823b8015610450576040517ff23a6e6100000000000000000000000000000000000000000000000000000000815233600482018190526024820152604481018490526064810183905260a060848201525f60a482018190529073ffffffffffffffffffffffffffffffffffffffff86169063f23a6e619060c4016020604051808303815f875af1158015610378573d5f5f3e3d5ffd5b505050506040513d601f19601f8201168201806040525081019061039c919061129d565b90507fffffffff0000000000000000000000000000000000000000000000000000000081167ff23a6e61000000000000000000000000000000000000000000000000000000001461044e576040517f08c379a000000000000000000000000000000000000000000000000000000000815260206004820152601960248201527f4241445f52454345495645525f52455455524e5f56414c55450000000000000060448201526064015b60405180910390fd5b505b50505050565b73ffffffffffffffffffffffffffffffffffffffff87166104d3576040517f08c379a000000000000000000000000000000000000000000000000000000000815260206004820152601f60248201527f43414e4e4f545f5452414e534645525f544f5f414444524553535f5a45524f006044820152606401610445565b84831461053c576040517f08c379a000000000000000000000000000000000000000000000000000000000815260206004820181905260248201527f544f4b454e5f414e445f56414c5545535f4c454e4754485f4d49534d415443486044820152606401610445565b73ffffffffffffffffffffffffffffffffffffffff8816331480610593575073ffffffffffffffffffffffffffffffffffffffff88165f9081526001602081815260408084203385529091529091205460ff161515145b6105f9576040517f08c379a000000000000000000000000000000000000000000000000000000000815260206004820152601660248201527f494e53554646494349454e545f414c4c4f57414e4345000000000000000000006044820152606401610445565b5f5b85811015610772575f878783818110610616576106166112e3565b9050602002013590505f868684818110610632576106326112e3565b905060200201359050805f5f8481526020019081526020015f205f8d73ffffffffffffffffffffffffffffffffffffffff1673ffffffffffffffffffffffffffffffffffffffff1681526020019081526020015f20546106929190611310565b5f5f8481526020019081526020015f205f8d73ffffffffffffffffffffffffffffffffffffffff1673ffffffffffffffffffffffffffffffffffffffff1681526020019081526020015f2081905550805f5f8481526020019081526020015f205f8c73ffffffffffffffffffffffffffffffffffffffff1673ffffffffffffffffffffffffffffffffffffffff1681526020019081526020015f2054610738919061128a565b5f9283526020838152604080852073ffffffffffffffffffffffffffffffffffffffff8e16865290915290922091909155506001016105fb565b508673ffffffffffffffffffffffffffffffffffffffff168873ffffffffffffffffffffffffffffffffffffffff163373ffffffffffffffffffffffffffffffffffffffff167f4a39dc06d4c0dbc64b70af90fd698a233a518aa5d07e595d983b8c0526c8f7fb898989896040516107ed949392919061136c565b60405180910390a4863b801561094e576040517fbc197c810000000000000000000000000000000000000000000000000000000081525f9073ffffffffffffffffffffffffffffffffffffffff8a169063bc197c819061085f9033908e908d908d908d908d908d908d906004016113e4565b6020604051808303815f875af115801561087b573d5f5f3e3d5ffd5b505050506040513d601f19601f8201168201806040525081019061089f919061129d565b90507fffffffff0000000000000000000000000000000000000000000000000000000081167fbc197c81000000000000000000000000000000000000000000000000000000001461094c576040517f08c379a000000000000000000000000000000000000000000000000000000000815260206004820152601960248201527f4241445f52454345495645525f52455455524e5f56414c5545000000000000006044820152606401610445565b505b505050505050505050565b60608382146109e9576040517f08c379a0000000000000000000000000000000000000000000000000000000008152602060048201526024808201527f4f574e4552535f414e445f4944535f4d5553545f484156455f53414d455f4c4560448201527f4e475448000000000000000000000000000000000000000000000000000000006064820152608401610445565b8367ffffffffffffffff811115610a0257610a02611466565b604051908082528060200260200182016040528015610a2b578160200160208202803683370190505b5090505f5b84811015610aec575f848483818110610a4b57610a4b6112e3565b9050602002013590505f5f8281526020019081526020015f205f888885818110610a7757610a776112e3565b9050602002016020810190610a8c9190611493565b73ffffffffffffffffffffffffffffffffffffffff1673ffffffffffffffffffffffffffffffffffffffff1681526020019081526020015f2054838381518110610ad857610ad86112e3565b602090810291909101015250600101610a30565b50949350505050565b335f81815260016020908152604080832073ffffffffffffffffffffffffffffffffffffffff87168085529083529281902080547fffffffffffffffffffffffffffffffffffffffffffffffffffffffffffffff001686151590811790915590519081529192917f17307eab39ab6107e8899845ad3d59bd9653f200f220920489ca2b5937696c31910160405180910390a35050565b73ffffffffffffffffffffffffffffffffffffffff8516610c08576040517f08c379a000000000000000000000000000000000000000000000000000000000815260206004820152601f60248201527f43414e4e4f545f5452414e534645525f544f5f414444524553535f5a45524f006044820152606401610445565b73ffffffffffffffffffffffffffffffffffffffff8616331480610c5f575073ffffffffffffffffffffffffffffffffffffffff86165f9081526001602081815260408084203385529091529091205460ff161515145b610cc5576040517f08c379a000000000000000000000000000000000000000000000000000000000815260206004820152601660248201527f494e53554646494349454e545f414c4c4f57414e4345000000000000000000006044820152606401610445565b5f8481526020818152604080832073ffffffffffffffffffffffffffffffffffffffff8a168452909152902054610cfd908490611310565b5f8581526020818152604080832073ffffffffffffffffffffffffffffffffffffffff8b81168552925280832093909355871681522054610d3f90849061128a565b5f8581526020818152604080832073ffffffffffffffffffffffffffffffffffffffff8a8116808652918452938290209490945580518881529182018790529189169133917fc3d58168c5ae7397731d063d5bbf3d657854427343f4c083240f7aacaa2d0f62910160405180910390a4843b8015610f04576040517ff23a6e610000000000000000000000000000000000000000000000000000000081525f9073ffffffffffffffffffffffffffffffffffffffff88169063f23a6e6190610e159033908c908b908b908b908b906004016114ac565b6020604051808303815f875af1158015610e31573d5f5f3e3d5ffd5b505050506040513d601f19601f82011682018060405250810190610e55919061129d565b90507fffffffff0000000000000000000000000000000000000000000000000000000081167ff23a6e610000000000000000000000000000000000000000000000000000000014610f02576040517f08c379a000000000000000000000000000000000000000000000000000000000815260206004820152601960248201527f4241445f52454345495645525f52455455524e5f56414c5545000000000000006044820152606401610445565b505b50505050505050565b803573ffffffffffffffffffffffffffffffffffffffff81168114610f30575f5ffd5b919050565b5f5f60408385031215610f46575f5ffd5b610f4f83610f0d565b946020939093013593505050565b5f5f5f60608486031215610f6f575f5ffd5b610f7884610f0d565b95602085013595506040909401359392505050565b5f5f83601f840112610f9d575f5ffd5b50813567ffffffffffffffff811115610fb4575f5ffd5b6020830191508360208260051b8501011115610fce575f5ffd5b9250929050565b5f5f83601f840112610fe5575f5ffd5b50813567ffffffffffffffff811115610ffc575f5ffd5b602083019150836020828501011115610fce575f5ffd5b5f5f5f5f5f5f5f5f60a0898b03121561102a575f5ffd5b61103389610f0d565b975061104160208a01610f0d565b9650604089013567ffffffffffffffff81111561105c575f5ffd5b6110688b828c01610f8d565b909750955050606089013567ffffffffffffffff811115611087575f5ffd5b6110938b828c01610f8d565b909550935050608089013567ffffffffffffffff8111156110b2575f5ffd5b6110be8b828c01610fd5565b999c989b5096995094979396929594505050565b5f5f5f5f604085870312156110e5575f5ffd5b843567ffffffffffffffff8111156110fb575f5ffd5b61110787828801610f8d565b909550935050602085013567ffffffffffffffff811115611126575f5ffd5b61113287828801610f8d565b95989497509550505050565b602080825282518282018190525f918401906040840190835b81811015611175578351835260209384019390920191600101611157565b509095945050505050565b5f5f60408385031215611191575f5ffd5b61119a83610f0d565b9150602083013580151581146111ae575f5ffd5b809150509250929050565b5f5f604083850312156111ca575f5ffd5b6111d383610f0d565b91506111e160208401610f0d565b90509250929050565b5f5f5f5f5f5f60a087890312156111ff575f5ffd5b61120887610f0d565b955061121660208801610f0d565b94506040870135935060608701359250608087013567ffffffffffffffff81111561123f575f5ffd5b61124b89828a01610fd5565b979a9699509497509295939492505050565b7f4e487b71000000000000000000000000000000000000000000000000000000005f52601160045260245ffd5b8082018082111561023b5761023b61125d565b5f602082840312156112ad575f5ffd5b81517fffffffff00000000000000000000000000000000000000000000000000000000811681146112dc575f5ffd5b9392505050565b7f4e487b71000000000000000000000000000000000000000000000000000000005f52603260045260245ffd5b8181038181111561023b5761023b61125d565b8183525f7f07ffffffffffffffffffffffffffffffffffffffffffffffffffffffffffffff831115611353575f5ffd5b8260051b80836020870137939093016020019392505050565b604081525f61137f604083018688611323565b8281036020840152611392818587611323565b979650505050505050565b81835281816020850137505f602082840101525f60207fffffffffffffffffffffffffffffffffffffffffffffffffffffffffffffffe0601f840116840101905092915050565b73ffffffffffffffffffffffffffffffffffffffff8916815273ffffffffffffffffffffffffffffffffffffffff8816602082015260a060408201525f61142f60a08301888a611323565b8281036060840152611442818789611323565b9050828103608084015261145781858761139d565b9b9a5050505050505050505050565b7f4e487b71000000000000000000000000000000000000000000000000000000005f52604160045260245ffd5b5f602082840312156114a3575f5ffd5b6112dc82610f0d565b73ffffffffffffffffffffffffffffffffffffffff8716815273ffffffffffffffffffffffffffffffffffffffff8616602082015284604082015283606082015260a060808201525f61150360a08301848661139d565b9897505050505050505056fea2646970667358221220c8f3982931ae2274e4ba3e5df7d11182ce041e4e51dbfb681234ae99963ea2ec64736f6c634300081c0033",
  "linkReferences": {},
  "deployedLinkReferences": {}
}