{
  "_format": "hh-sol-artifact-1",
  "contractName": "TestPropertyValidator",
  "sourceName": "contracts/test/TestPropertyValidator.sol",
  "abi": [
    {
      "inputs": [
        {
          "internalType": "address",
          "name": "tokenAddress",
          "type": "address"
        },
        {
          "internalType": "uint256",
          "name": "tokenId",
          "type": "uint256"
        },
        {
          "internalType": "bytes",
          "name": "propertyData",
          "type": "bytes"
        }
      ],
      "name": "validateProperty",
      "outputs": [],
      "stateMutability": "view",
      "type": "function"
    }
  ],
  "bytecode": "0x6080604052348015600f57600080fd5b506102e88061001f6000396000f3fe608060405234801561001057600080fd5b506004361061002b5760003560e01c80631395c0f314610030575b600080fd5b61004a6004803603810190610045919061019b565b61004c565b005b60008282905011610092576040517f08c379a000000000000000000000000000000000000000000000000000000000815260040161008990610292565b60405180910390fd5b50505050565b600080fd5b600080fd5b600073ffffffffffffffffffffffffffffffffffffffff82169050919050565b60006100cd826100a2565b9050919050565b6100dd816100c2565b81146100e857600080fd5b50565b6000813590506100fa816100d4565b92915050565b6000819050919050565b61011381610100565b811461011e57600080fd5b50565b6000813590506101308161010a565b92915050565b600080fd5b600080fd5b600080fd5b60008083601f84011261015b5761015a610136565b5b8235905067ffffffffffffffff8111156101785761017761013b565b5b60208301915083600182028301111561019457610193610140565b5b9250929050565b600080600080606085870312156101b5576101b4610098565b5b60006101c3878288016100eb565b94505060206101d487828801610121565b935050604085013567ffffffffffffffff8111156101f5576101f461009d565b5b61020187828801610145565b925092505092959194509250565b600082825260208201905092915050565b7f5465737450726f706572747956616c696461746f723a3a76616c69646174655060008201527f726f70657274792f524556455254000000000000000000000000000000000000602082015250565b600061027c602e8361020f565b915061028782610220565b604082019050919050565b600060208201905081810360008301526102ab8161026f565b905091905056fea264697066735822122099a5a5ecb0307b19b6961f96bf7bb24bc3533df0107f1e566bf10cd51d07266464736f6c634300081c0033",
  "linkReferences": {},
  "deployedLinkReferences": {}
}