{
  "_format": "hh-sol-artifact-1",
  "contractName": "MixinPlatypus",
  "sourceName": "contracts/src/transformers/bridges/mixins/MixinPlatypus.sol",
  "abi": [
    {
      "inputs": [
        {
          "internalType": "contract IERC20Token",
          "name": "buyToken",
          "type": "address"
        },
        {
          "internalType": "uint256",
          "name": "sellAmount",
          "type": "uint256"
        },
        {
          "internalType": "bytes",
          "name": "bridgeData",
          "type": "bytes"
        }
      ],
      "name": "_tradePlatypus",
      "outputs": [
        {
          "internalType": "uint256",
          "name": "boughtAmount",
          "type": "uint256"
        }
      ],
      "stateMutability": "nonpayable",
      "type": "function"
    }
  ],
  "bytecode": "0x6080604052348015600f57600080fd5b50610cdd8061001f6000396000f3fe608060405234801561001057600080fd5b506004361061002b5760003560e01c8063ca0dfe8914610030575b600080fd5b61004a600480360381019061004591906105aa565b610060565b6040516100579190610628565b60405180910390f35b600080600060608060608680602001905181019061007e9190610775565b8093508195508296505050508091508394506002825110156100d5576040517f08c379a00000000000000000000000000000000000000000000000000000000081526004016100cc90610883565b60405180910390fd5b8873ffffffffffffffffffffffffffffffffffffffff1682600184516100fb91906108d2565b8151811061010c5761010b610906565b5b602002602001015173ffffffffffffffffffffffffffffffffffffffff161461016a576040517f08c379a0000000000000000000000000000000000000000000000000000000008152600401610161906109a7565b60405180910390fd5b8160008151811061017e5761017d610906565b5b602002602001015173ffffffffffffffffffffffffffffffffffffffff1663095ea7b3868a6040518363ffffffff1660e01b81526004016101c09291906109d6565b6020604051808303816000875af11580156101df573d6000803e3d6000fd5b505050506040513d601f19601f820116820180604052508101906102039190610a37565b5060008973ffffffffffffffffffffffffffffffffffffffff166370a08231306040518263ffffffff1660e01b815260040161023f9190610a64565b602060405180830381865afa15801561025c573d6000803e3d6000fd5b505050506040513d601f19601f820116820180604052508101906102809190610a94565b90508573ffffffffffffffffffffffffffffffffffffffff166321579b7983868c6000306001426102b19190610ac1565b6040518763ffffffff1660e01b81526004016102d296959493929190610bf8565b60408051808303816000875af11580156102f0573d6000803e3d6000fd5b505050506040513d601f19601f820116820180604052508101906103149190610c67565b5050808a73ffffffffffffffffffffffffffffffffffffffff166370a08231306040518263ffffffff1660e01b81526004016103509190610a64565b602060405180830381865afa15801561036d573d6000803e3d6000fd5b505050506040513d601f19601f820116820180604052508101906103919190610a94565b61039b91906108d2565b96505050505050509392505050565b6000604051905090565b600080fd5b600080fd5b600073ffffffffffffffffffffffffffffffffffffffff82169050919050565b60006103e9826103be565b9050919050565b60006103fb826103de565b9050919050565b61040b816103f0565b811461041657600080fd5b50565b60008135905061042881610402565b92915050565b6000819050919050565b6104418161042e565b811461044c57600080fd5b50565b60008135905061045e81610438565b92915050565b600080fd5b600080fd5b6000601f19601f8301169050919050565b7f4e487b7100000000000000000000000000000000000000000000000000000000600052604160045260246000fd5b6104b78261046e565b810181811067ffffffffffffffff821117156104d6576104d561047f565b5b80604052505050565b60006104e96103aa565b90506104f582826104ae565b919050565b600067ffffffffffffffff8211156105155761051461047f565b5b61051e8261046e565b9050602081019050919050565b82818337600083830152505050565b600061054d610548846104fa565b6104df565b90508281526020810184848401111561056957610568610469565b5b61057484828561052b565b509392505050565b600082601f83011261059157610590610464565b5b81356105a184826020860161053a565b91505092915050565b6000806000606084860312156105c3576105c26103b4565b5b60006105d186828701610419565b93505060206105e28682870161044f565b925050604084013567ffffffffffffffff811115610603576106026103b9565b5b61060f8682870161057c565b9150509250925092565b6106228161042e565b82525050565b600060208201905061063d6000830184610619565b92915050565b600061064e826103be565b9050919050565b61065e81610643565b811461066957600080fd5b50565b60008151905061067b81610655565b92915050565b600067ffffffffffffffff82111561069c5761069b61047f565b5b602082029050602081019050919050565b600080fd5b6106bb816103de565b81146106c657600080fd5b50565b6000815190506106d8816106b2565b92915050565b60006106f16106ec84610681565b6104df565b90508083825260208201905060208402830185811115610714576107136106ad565b5b835b8181101561073d578061072988826106c9565b845260208401935050602081019050610716565b5050509392505050565b600082601f83011261075c5761075b610464565b5b815161076c8482602086016106de565b91505092915050565b60008060006060848603121561078e5761078d6103b4565b5b600061079c8682870161066c565b935050602084015167ffffffffffffffff8111156107bd576107bc6103b9565b5b6107c986828701610747565b925050604084015167ffffffffffffffff8111156107ea576107e96103b9565b5b6107f686828701610747565b9150509250925092565b600082825260208201905092915050565b7f4d6978696e506c6174797075732f504154485f4c454e4754485f4d5553545f4260008201527f455f41545f4c454153545f54574f000000000000000000000000000000000000602082015250565b600061086d602e83610800565b915061087882610811565b604082019050919050565b6000602082019050818103600083015261089c81610860565b9050919050565b7f4e487b7100000000000000000000000000000000000000000000000000000000600052601160045260246000fd5b60006108dd8261042e565b91506108e88361042e565b9250828203905081811115610900576108ff6108a3565b5b92915050565b7f4e487b7100000000000000000000000000000000000000000000000000000000600052603260045260246000fd5b7f4d6978696e506c6174797075732f4c4153545f454c454d454e545f4f465f504160008201527f54485f4d5553545f4d415443485f4f55545055545f544f4b454e000000000000602082015250565b6000610991603a83610800565b915061099c82610935565b604082019050919050565b600060208201905081810360008301526109c081610984565b9050919050565b6109d0816103de565b82525050565b60006040820190506109eb60008301856109c7565b6109f86020830184610619565b9392505050565b60008115159050919050565b610a14816109ff565b8114610a1f57600080fd5b50565b600081519050610a3181610a0b565b92915050565b600060208284031215610a4d57610a4c6103b4565b5b6000610a5b84828501610a22565b91505092915050565b6000602082019050610a7960008301846109c7565b92915050565b600081519050610a8e81610438565b92915050565b600060208284031215610aaa57610aa96103b4565b5b6000610ab884828501610a7f565b91505092915050565b6000610acc8261042e565b9150610ad78361042e565b9250828201905080821115610aef57610aee6108a3565b5b92915050565b600081519050919050565b600082825260208201905092915050565b6000819050602082019050919050565b610b2a816103de565b82525050565b6000610b3c8383610b21565b60208301905092915050565b6000602082019050919050565b6000610b6082610af5565b610b6a8185610b00565b9350610b7583610b11565b8060005b83811015610ba6578151610b8d8882610b30565b9750610b9883610b48565b925050600181019050610b79565b5085935050505092915050565b6000819050919050565b6000819050919050565b6000610be2610bdd610bd884610bb3565b610bbd565b61042e565b9050919050565b610bf281610bc7565b82525050565b600060c0820190508181036000830152610c128189610b55565b90508181036020830152610c268188610b55565b9050610c356040830187610619565b610c426060830186610be9565b610c4f60808301856109c7565b610c5c60a0830184610619565b979650505050505050565b60008060408385031215610c7e57610c7d6103b4565b5b6000610c8c85828601610a7f565b9250506020610c9d85828601610a7f565b915050925092905056fea26469706673582212201d644df90a9a0a6a897a1e6f462284b4b0aa65a3f4fb45a0aa5093795cbb906264736f6c634300081c0033",
  "linkReferences": {},
  "deployedLinkReferences": {}
}