{
  "_format": "hh-sol-artifact-1",
  "contractName": "MixinPlatypus",
  "sourceName": "contracts/src/transformers/bridges/mixins/MixinPlatypus.sol",
  "abi": [
    {
      "inputs": [
        {
          "internalType": "contract IERC20Token",
          "name": "buyToken",
          "type": "address"
        },
        {
          "internalType": "uint256",
          "name": "sellAmount",
          "type": "uint256"
        },
        {
          "internalType": "bytes",
          "name": "bridgeData",
          "type": "bytes"
        }
      ],
      "name": "_tradePlatypus",
      "outputs": [
        {
          "internalType": "uint256",
          "name": "boughtAmount",
          "type": "uint256"
        }
      ],
      "stateMutability": "nonpayable",
      "type": "function"
    }
  ],
  "bytecode": "0x6080604052348015600f57600080fd5b506110318061001f6000396000f3fe608060405234801561001057600080fd5b506004361061002b5760003560e01c8063ca0dfe8914610030575b600080fd5b61004a600480360381019061004591906107bb565b610060565b6040516100579190610839565b60405180910390f35b600080600060608060608680602001905181019061007e9190610986565b8093508195508296505050508091508394506002825110156100d5576040517f08c379a00000000000000000000000000000000000000000000000000000000081526004016100cc90610a94565b60405180910390fd5b8873ffffffffffffffffffffffffffffffffffffffff1682600184516100fb9190610ae3565b8151811061010c5761010b610b17565b5b602002602001015173ffffffffffffffffffffffffffffffffffffffff161461016a576040517f08c379a000000000000000000000000000000000000000000000000000000000815260040161016190610bb8565b60405180910390fd5b6101b085898460008151811061018357610182610b17565b5b602002602001015173ffffffffffffffffffffffffffffffffffffffff166103569092919063ffffffff16565b60008973ffffffffffffffffffffffffffffffffffffffff166370a08231306040518263ffffffff1660e01b81526004016101eb9190610be7565b602060405180830381865afa158015610208573d6000803e3d6000fd5b505050506040513d601f19601f8201168201806040525081019061022c9190610c17565b90508573ffffffffffffffffffffffffffffffffffffffff166321579b7983868c60003060014261025d9190610c44565b6040518763ffffffff1660e01b815260040161027e96959493929190610d7b565b60408051808303816000875af115801561029c573d6000803e3d6000fd5b505050506040513d601f19601f820116820180604052508101906102c09190610dea565b5050808a73ffffffffffffffffffffffffffffffffffffffff166370a08231306040518263ffffffff1660e01b81526004016102fc9190610be7565b602060405180830381865afa158015610319573d6000803e3d6000fd5b505050506040513d601f19601f8201168201806040525081019061033d9190610c17565b6103479190610ae3565b96505050505050509392505050565b808373ffffffffffffffffffffffffffffffffffffffff1663dd62ed3e30856040518363ffffffff1660e01b8152600401610392929190610e2a565b602060405180830381865afa1580156103af573d6000803e3d6000fd5b505050506040513d601f19601f820116820180604052508101906103d39190610c17565b10156104055761040483837fffffffffffffffffffffffffffffffffffffffffffffffffffffffffffffffff61040a565b5b505050565b60008373ffffffffffffffffffffffffffffffffffffffff1663095ea7b3848460405160240161043b929190610e53565b604051602081830303815290604052915060e01b6020820180517bffffffffffffffffffffffffffffffffffffffffffffffffffffffff83818316178352505050509050610489848261048f565b50505050565b6000808373ffffffffffffffffffffffffffffffffffffffff16836040516104b79190610eed565b6000604051808303816000865af19150503d80600081146104f4576040519150601f19603f3d011682016040523d82523d6000602084013e6104f9565b606091505b50915091508161050d5761050c816105b3565b5b60008151036105775760008473ffffffffffffffffffffffffffffffffffffffff163b11610570576040517f08c379a000000000000000000000000000000000000000000000000000000000815260040161056790610f76565b60405180910390fd5b50506105af565b60208151106105a357808060200190518101906105949190610fce565b6105a2576105a1816105b3565b5b5b6105ac816105b3565b50505b5050565b805160208201fd5b6000604051905090565b600080fd5b600080fd5b600073ffffffffffffffffffffffffffffffffffffffff82169050919050565b60006105fa826105cf565b9050919050565b600061060c826105ef565b9050919050565b61061c81610601565b811461062757600080fd5b50565b60008135905061063981610613565b92915050565b6000819050919050565b6106528161063f565b811461065d57600080fd5b50565b60008135905061066f81610649565b92915050565b600080fd5b600080fd5b6000601f19601f8301169050919050565b7f4e487b7100000000000000000000000000000000000000000000000000000000600052604160045260246000fd5b6106c88261067f565b810181811067ffffffffffffffff821117156106e7576106e6610690565b5b80604052505050565b60006106fa6105bb565b905061070682826106bf565b919050565b600067ffffffffffffffff82111561072657610725610690565b5b61072f8261067f565b9050602081019050919050565b82818337600083830152505050565b600061075e6107598461070b565b6106f0565b90508281526020810184848401111561077a5761077961067a565b5b61078584828561073c565b509392505050565b600082601f8301126107a2576107a1610675565b5b81356107b284826020860161074b565b91505092915050565b6000806000606084860312156107d4576107d36105c5565b5b60006107e28682870161062a565b93505060206107f386828701610660565b925050604084013567ffffffffffffffff811115610814576108136105ca565b5b6108208682870161078d565b9150509250925092565b6108338161063f565b82525050565b600060208201905061084e600083018461082a565b92915050565b600061085f826105cf565b9050919050565b61086f81610854565b811461087a57600080fd5b50565b60008151905061088c81610866565b92915050565b600067ffffffffffffffff8211156108ad576108ac610690565b5b602082029050602081019050919050565b600080fd5b6108cc816105ef565b81146108d757600080fd5b50565b6000815190506108e9816108c3565b92915050565b60006109026108fd84610892565b6106f0565b90508083825260208201905060208402830185811115610925576109246108be565b5b835b8181101561094e578061093a88826108da565b845260208401935050602081019050610927565b5050509392505050565b600082601f83011261096d5761096c610675565b5b815161097d8482602086016108ef565b91505092915050565b60008060006060848603121561099f5761099e6105c5565b5b60006109ad8682870161087d565b935050602084015167ffffffffffffffff8111156109ce576109cd6105ca565b5b6109da86828701610958565b925050604084015167ffffffffffffffff8111156109fb576109fa6105ca565b5b610a0786828701610958565b9150509250925092565b600082825260208201905092915050565b7f4d6978696e506c6174797075732f504154485f4c454e4754485f4d5553545f4260008201527f455f41545f4c454153545f54574f000000000000000000000000000000000000602082015250565b6000610a7e602e83610a11565b9150610a8982610a22565b604082019050919050565b60006020820190508181036000830152610aad81610a71565b9050919050565b7f4e487b7100000000000000000000000000000000000000000000000000000000600052601160045260246000fd5b6000610aee8261063f565b9150610af98361063f565b9250828203905081811115610b1157610b10610ab4565b5b92915050565b7f4e487b7100000000000000000000000000000000000000000000000000000000600052603260045260246000fd5b7f4d6978696e506c6174797075732f4c4153545f454c454d454e545f4f465f504160008201527f54485f4d5553545f4d415443485f4f55545055545f544f4b454e000000000000602082015250565b6000610ba2603a83610a11565b9150610bad82610b46565b604082019050919050565b60006020820190508181036000830152610bd181610b95565b9050919050565b610be1816105ef565b82525050565b6000602082019050610bfc6000830184610bd8565b92915050565b600081519050610c1181610649565b92915050565b600060208284031215610c2d57610c2c6105c5565b5b6000610c3b84828501610c02565b91505092915050565b6000610c4f8261063f565b9150610c5a8361063f565b9250828201905080821115610c7257610c71610ab4565b5b92915050565b600081519050919050565b600082825260208201905092915050565b6000819050602082019050919050565b610cad816105ef565b82525050565b6000610cbf8383610ca4565b60208301905092915050565b6000602082019050919050565b6000610ce382610c78565b610ced8185610c83565b9350610cf883610c94565b8060005b83811015610d29578151610d108882610cb3565b9750610d1b83610ccb565b925050600181019050610cfc565b5085935050505092915050565b6000819050919050565b6000819050919050565b6000610d65610d60610d5b84610d36565b610d40565b61063f565b9050919050565b610d7581610d4a565b82525050565b600060c0820190508181036000830152610d958189610cd8565b90508181036020830152610da98188610cd8565b9050610db8604083018761082a565b610dc56060830186610d6c565b610dd26080830185610bd8565b610ddf60a083018461082a565b979650505050505050565b60008060408385031215610e0157610e006105c5565b5b6000610e0f85828601610c02565b9250506020610e2085828601610c02565b9150509250929050565b6000604082019050610e3f6000830185610bd8565b610e4c6020830184610bd8565b9392505050565b6000604082019050610e686000830185610bd8565b610e75602083018461082a565b9392505050565b600081519050919050565b600081905092915050565b60005b83811015610eb0578082015181840152602081019050610e95565b60008484015250505050565b6000610ec782610e7c565b610ed18185610e87565b9350610ee1818560208601610e92565b80840191505092915050565b6000610ef98284610ebc565b915081905092915050565b7f696e76616c696420746f6b656e20616464726573732c20636f6e7461696e732060008201527f6e6f20636f646500000000000000000000000000000000000000000000000000602082015250565b6000610f60602783610a11565b9150610f6b82610f04565b604082019050919050565b60006020820190508181036000830152610f8f81610f53565b9050919050565b60008115159050919050565b610fab81610f96565b8114610fb657600080fd5b50565b600081519050610fc881610fa2565b92915050565b600060208284031215610fe457610fe36105c5565b5b6000610ff284828501610fb9565b9150509291505056fea2646970667358221220648ef0204208403244a630ba0389c941b6a78c89e0d62750eecddcc5debfd3e564736f6c634300081c0033",
  "linkReferences": {},
  "deployedLinkReferences": {}
}