{
  "_format": "hh-sol-artifact-1",
  "contractName": "TestRfqOriginRegistration",
  "sourceName": "contracts/test/TestRfqOriginRegistration.sol",
  "abi": [
    {
      "inputs": [
        {
          "internalType": "contract INativeOrdersFeature",
          "name": "feature",
          "type": "address"
        },
        {
          "internalType": "address[]",
          "name": "origins",
          "type": "address[]"
        },
        {
          "internalType": "bool",
          "name": "allowed",
          "type": "bool"
        }
      ],
      "name": "registerAllowedRfqOrigins",
      "outputs": [],
      "stateMutability": "nonpayable",
      "type": "function"
    }
  ],
  "bytecode": "0x6080604052348015600e575f5ffd5b506102df8061001c5f395ff3fe608060405234801561000f575f5ffd5b5060043610610029575f3560e01c8063564fc1191461002d575b5f5ffd5b61004061003b366004610138565b610042565b005b6040517fb09f1fb100000000000000000000000000000000000000000000000000000000815273ffffffffffffffffffffffffffffffffffffffff84169063b09f1fb1906100969085908590600401610244565b5f604051808303815f87803b1580156100ad575f5ffd5b505af11580156100bf573d5f5f3e3d5ffd5b50505050505050565b73ffffffffffffffffffffffffffffffffffffffff811681146100e9575f5ffd5b50565b7f4e487b71000000000000000000000000000000000000000000000000000000005f52604160045260245ffd5b8035610124816100c8565b919050565b80358015158114610124575f5ffd5b5f5f5f6060848603121561014a575f5ffd5b8335610155816100c8565b9250602084013567ffffffffffffffff811115610170575f5ffd5b8401601f81018613610180575f5ffd5b803567ffffffffffffffff81111561019a5761019a6100ec565b8060051b6040517fffffffffffffffffffffffffffffffffffffffffffffffffffffffffffffffe0603f830116810181811067ffffffffffffffff821117156101e5576101e56100ec565b604052918252602081840181019290810189841115610202575f5ffd5b6020850194505b838510156102285761021a85610119565b815260209485019401610209565b50945061023b9250505060408501610129565b90509250925092565b604080825283519082018190525f9060208501906060840190835b8181101561029357835173ffffffffffffffffffffffffffffffffffffffff1683526020938401939092019160010161025f565b505080925050508215156020830152939250505056fea2646970667358221220db33da577420d93f7e14e63556872eaf9b1bd52b1b96904feed6b6fea8e8ea8264736f6c634300081c0033",
  "linkReferences": {},
  "deployedLinkReferences": {}
}