{
  "_format": "hh-sol-artifact-1",
  "contractName": "TestRfqOriginRegistration",
  "sourceName": "contracts/test/TestRfqOriginRegistration.sol",
  "abi": [
    {
      "inputs": [
        {
          "internalType": "contract INativeOrdersFeature",
          "name": "feature",
          "type": "address"
        },
        {
          "internalType": "address[]",
          "name": "origins",
          "type": "address[]"
        },
        {
          "internalType": "bool",
          "name": "allowed",
          "type": "bool"
        }
      ],
      "name": "registerAllowedRfqOrigins",
      "outputs": [],
      "stateMutability": "nonpayable",
      "type": "function"
    }
  ],
  "bytecode": "0x6080604052348015600e575f5ffd5b506102688061001c5f395ff3fe608060405234801561000f575f5ffd5b5060043610610029575f3560e01c8063564fc1191461002d575b5f5ffd5b61004061003b3660046100ec565b610042565b005b60405163b09f1fb160e01b81526001600160a01b0384169063b09f1fb19061007090859085906004016101da565b5f604051808303815f87803b158015610087575f5ffd5b505af1158015610099573d5f5f3e3d5ffd5b50505050505050565b6001600160a01b03811681146100b6575f5ffd5b50565b634e487b7160e01b5f52604160045260245ffd5b80356100d8816100a2565b919050565b803580151581146100d8575f5ffd5b5f5f5f606084860312156100fe575f5ffd5b8335610109816100a2565b9250602084013567ffffffffffffffff811115610124575f5ffd5b8401601f81018613610134575f5ffd5b803567ffffffffffffffff81111561014e5761014e6100b9565b8060051b604051601f19603f830116810181811067ffffffffffffffff8211171561017b5761017b6100b9565b604052918252602081840181019290810189841115610198575f5ffd5b6020850194505b838510156101be576101b0856100cd565b81526020948501940161019f565b5094506101d192505050604085016100dd565b90509250925092565b604080825283519082018190525f9060208501906060840190835b8181101561021c5783516001600160a01b03168352602093840193909201916001016101f5565b505080925050508215156020830152939250505056fea2646970667358221220401a096b6f5be1bc49bea65ef775e2f0cf317056fc1bfb65e9a90d0805c4fb2264736f6c634300081c0033",
  "linkReferences": {},
  "deployedLinkReferences": {}
}