{
  "_format": "hh-sol-artifact-1",
  "contractName": "TestTransformerHost",
  "sourceName": "contracts/test/TestTransformerHost.sol",
  "abi": [
    {
      "inputs": [
        {
          "internalType": "contract IERC20Transformer",
          "name": "transformer",
          "type": "address"
        },
        {
          "components": [
            {
              "internalType": "address payable",
              "name": "sender",
              "type": "address"
            },
            {
              "internalType": "address payable",
              "name": "recipient",
              "type": "address"
            },
            {
              "internalType": "bytes",
              "name": "data",
              "type": "bytes"
            }
          ],
          "internalType": "struct IERC20Transformer.TransformContext",
          "name": "context",
          "type": "tuple"
        }
      ],
      "name": "rawExecuteTransform",
      "outputs": [],
      "stateMutability": "nonpayable",
      "type": "function"
    },
    {
      "stateMutability": "payable",
      "type": "receive"
    }
  ],
  "bytecode": "0x6080604052348015600f57600080fd5b506106908061001f6000396000f3fe6080604052600436106100225760003560e01c8063844e7c5b1461002e57610029565b3661002957005b600080fd5b34801561003a57600080fd5b506100556004803603810190610050919061028e565b610057565b005b6000808373ffffffffffffffffffffffffffffffffffffffff1663832b24bb60e01b8460405160240161008a9190610488565b604051602081830303815290604052907bffffffffffffffffffffffffffffffffffffffffffffffffffffffff19166020820180517bffffffffffffffffffffffffffffffffffffffffffffffffffffffff83818316178352505050506040516100f4919061051b565b600060405180830381855af49150503d806000811461012f576040519150601f19603f3d011682016040523d82523d6000602084013e610134565b606091505b50915091508161014857610147816101e8565b5b6313c9929e60e01b7bffffffffffffffffffffffffffffffffffffffffffffffffffffffff191681806020019051810190610183919061058a565b7bffffffffffffffffffffffffffffffffffffffffffffffffffffffff1916146101e2576040517f08c379a00000000000000000000000000000000000000000000000000000000081526004016101d99061063a565b60405180910390fd5b50505050565b805160208201fd5b600080fd5b600080fd5b600073ffffffffffffffffffffffffffffffffffffffff82169050919050565b6000610225826101fa565b9050919050565b60006102378261021a565b9050919050565b6102478161022c565b811461025257600080fd5b50565b6000813590506102648161023e565b92915050565b600080fd5b6000606082840312156102855761028461026a565b5b81905092915050565b600080604083850312156102a5576102a46101f0565b5b60006102b385828601610255565b925050602083013567ffffffffffffffff8111156102d4576102d36101f5565b5b6102e08582860161026f565b9150509250929050565b60006102f5826101fa565b9050919050565b610305816102ea565b811461031057600080fd5b50565b600081359050610322816102fc565b92915050565b60006103376020840184610313565b905092915050565b610348816102ea565b82525050565b600080fd5b600080fd5b600080fd5b6000808335600160200384360303811261037a57610379610358565b5b83810192508235915060208301925067ffffffffffffffff8211156103a2576103a161034e565b5b6001820236038313156103b8576103b7610353565b5b509250929050565b600082825260208201905092915050565b82818337600083830152505050565b6000601f19601f8301169050919050565b60006103fd83856103c0565b935061040a8385846103d1565b610413836103e0565b840190509392505050565b6000606083016104316000840184610328565b61043e600086018261033f565b5061044c6020840184610328565b610459602086018261033f565b50610467604084018461035d565b858303604087015261047a8382846103f1565b925050508091505092915050565b600060208201905081810360008301526104a2818461041e565b905092915050565b600081519050919050565b600081905092915050565b60005b838110156104de5780820151818401526020810190506104c3565b60008484015250505050565b60006104f5826104aa565b6104ff81856104b5565b935061050f8185602086016104c0565b80840191505092915050565b600061052782846104ea565b915081905092915050565b60007fffffffff0000000000000000000000000000000000000000000000000000000082169050919050565b61056781610532565b811461057257600080fd5b50565b6000815190506105848161055e565b92915050565b6000602082840312156105a05761059f6101f0565b5b60006105ae84828501610575565b91505092915050565b600082825260208201905092915050565b7f546573745472616e73666f726d6572486f73742f494e56414c49445f5452414e60008201527f53464f524d45525f524553554c54000000000000000000000000000000000000602082015250565b6000610624602e836105b7565b915061062f826105c8565b604082019050919050565b6000602082019050818103600083015261065381610617565b905091905056fea26469706673582212203c014355518b8e56fd68052e6b8230a5406fadc40ad91555ef499706e3f3407b64736f6c634300081c0033",
  "linkReferences": {},
  "deployedLinkReferences": {}
}