{
  "_format": "hh-sol-artifact-1",
  "contractName": "ArbitrumBridgeAdapter",
  "sourceName": "contracts/src/transformers/bridges/ArbitrumBridgeAdapter.sol",
  "abi": [
    {
      "inputs": [
        {
          "internalType": "contract IEtherToken",
          "name": "weth",
          "type": "address"
        }
      ],
      "stateMutability": "nonpayable",
      "type": "constructor"
    },
    {
      "anonymous": false,
      "inputs": [
        {
          "indexed": false,
          "internalType": "bytes32",
          "name": "source",
          "type": "bytes32"
        },
        {
          "indexed": false,
          "internalType": "contract IERC20Token",
          "name": "inputToken",
          "type": "address"
        },
        {
          "indexed": false,
          "internalType": "contract IERC20Token",
          "name": "outputToken",
          "type": "address"
        },
        {
          "indexed": false,
          "internalType": "uint256",
          "name": "inputTokenAmount",
          "type": "uint256"
        },
        {
          "indexed": false,
          "internalType": "uint256",
          "name": "outputTokenAmount",
          "type": "uint256"
        }
      ],
      "name": "BridgeFill",
      "type": "event"
    },
    {
      "inputs": [
        {
          "internalType": "contract IERC20Token",
          "name": "buyToken",
          "type": "address"
        },
        {
          "internalType": "uint256",
          "name": "sellAmount",
          "type": "uint256"
        },
        {
          "internalType": "bytes",
          "name": "bridgeData",
          "type": "bytes"
        }
      ],
      "name": "_tradeGMX",
      "outputs": [
        {
          "internalType": "uint256",
          "name": "boughtAmount",
          "type": "uint256"
        }
      ],
      "stateMutability": "nonpayable",
      "type": "function"
    },
    {
      "inputs": [
        {
          "internalType": "contract IERC20Token",
          "name": "sellToken",
          "type": "address"
        },
        {
          "internalType": "contract IERC20Token",
          "name": "buyToken",
          "type": "address"
        },
        {
          "internalType": "uint256",
          "name": "sellAmount",
          "type": "uint256"
        },
        {
          "internalType": "bytes",
          "name": "bridgeData",
          "type": "bytes"
        }
      ],
      "name": "_tradeWOOFi",
      "outputs": [
        {
          "internalType": "uint256",
          "name": "boughtAmount",
          "type": "uint256"
        }
      ],
      "stateMutability": "nonpayable",
      "type": "function"
    },
    {
      "inputs": [
        {
          "internalType": "bytes32",
          "name": "source",
          "type": "bytes32"
        }
      ],
      "name": "isSupportedSource",
      "outputs": [
        {
          "internalType": "bool",
          "name": "isSupported",
          "type": "bool"
        }
      ],
      "stateMutability": "nonpayable",
      "type": "function"
    },
    {
      "inputs": [
        {
          "components": [
            {
              "internalType": "bytes32",
              "name": "source",
              "type": "bytes32"
            },
            {
              "internalType": "uint256",
              "name": "takerTokenAmount",
              "type": "uint256"
            },
            {
              "internalType": "uint256",
              "name": "makerTokenAmount",
              "type": "uint256"
            },
            {
              "internalType": "bytes",
              "name": "bridgeData",
              "type": "bytes"
            }
          ],
          "internalType": "struct IBridgeAdapter.BridgeOrder",
          "name": "order",
          "type": "tuple"
        },
        {
          "internalType": "contract IERC20Token",
          "name": "sellToken",
          "type": "address"
        },
        {
          "internalType": "contract IERC20Token",
          "name": "buyToken",
          "type": "address"
        },
        {
          "internalType": "uint256",
          "name": "sellAmount",
          "type": "uint256"
        }
      ],
      "name": "trade",
      "outputs": [
        {
          "internalType": "uint256",
          "name": "boughtAmount",
          "type": "uint256"
        }
      ],
      "stateMutability": "nonpayable",
      "type": "function"
    }
  ],
  "bytecode": "0x60a060405234801561000f575f5ffd5b506040516130b23803806130b283398101604081905261002e916100f6565b604080518082019091526008815267417262697472756d60c01b6020820152819061a4b190465f610539821480610066575081617a69145b806100715750816005145b8061007e57508162013881145b8061008b57508162014a33145b905083821415801561009b575080155b156100e057826040516020016100b19190610123565b60408051601f198184030181529082905262461bcd60e51b82526100d79160040161016e565b60405180910390fd5b505050506001600160a01b0316608052506101a3565b5f60208284031215610106575f5ffd5b81516001600160a01b038116811461011c575f5ffd5b9392505050565b5f82518060208501845e7f427269646765416461707465722e636f6e7374727563746f723a2077726f6e67920191825250680818da185a5b88125160ba1b6020820152602901919050565b602081525f82518060208401528060208501604085015e5f604082850101526040601f19601f83011684010191505092915050565b608051612ee26101d05f395f8181610b4601528181610b9601528181610d550152610d910152612ee25ff3fe608060405234801561000f575f5ffd5b506004361061004a575f3560e01c806302d2734f1461004e57806360574bd214610076578063e8275c8214610097578063f712a148146100aa575b5f5ffd5b61006161005c366004611fb1565b6100bd565b60405190151581526020015b60405180910390f35b6100896100843660046120f5565b610101565b60405190815260200161006d565b6100896100a5366004612149565b6103be565b6100896100b83660046121b0565b6104ff565b5f6100e660405180608001604052805f81526020015f81526020015f8152602001606081525090565b8281525f6100f8828280806001610517565b95945050505050565b5f5f5f5f60605f60608780602001905181019061011e91906122e7565b805193995091975095509350839150600211156101945760405162461bcd60e51b815260206004820152602960248201527f4d6978696e474d582f504154485f4c454e4754485f4d5553545f42455f41545f6044820152684c454153545f54574f60b81b60648201526084015b60405180910390fd5b896001600160a01b031681600183516101ad9190612362565b815181106101bd576101bd612375565b60200260200101516001600160a01b0316146102395760405162461bcd60e51b815260206004820152603560248201527f4d6978696e474d582f4c4153545f454c454d454e545f4f465f504154485f4d5560448201527429aa2fa6a0aa21a42fa7aaaa282aaa2faa27a5a2a760591b606482015260840161018b565b859150610273828a835f8151811061025357610253612375565b60200260200101516001600160a01b031661085c9092919063ffffffff16565b6040516370a0823160e01b81523060048201525f906001600160a01b038c16906370a0823190602401602060405180830381865afa1580156102b7573d5f5f3e3d5ffd5b505050506040513d601f19601f820116820180604052508101906102db9190612389565b604051633011f4b360e11b81529091506001600160a01b03841690636023e966906103109087908e905f9030906004016123e3565b5f604051808303815f87803b158015610327575f5ffd5b505af1158015610339573d5f5f3e3d5ffd5b50506040516370a0823160e01b81523060048201528392506001600160a01b038e1691506370a0823190602401602060405180830381865afa158015610381573d5f5f3e3d5ffd5b505050506040513d601f19601f820116820180604052508101906103a59190612389565b6103af9190612362565b9b9a5050505050505050505050565b5f5f828060200190518101906103d4919061241a565b6040516370a0823160e01b81523060048201529091505f906001600160a01b038716906370a0823190602401602060405180830381865afa15801561041b573d5f5f3e3d5ffd5b505050506040513d601f19601f8201168201806040525081019061043f9190612389565b90506104556001600160a01b038816838761085c565b604051633ee101c160e11b81526001600160a01b0388811660048301528781166024830152604482018790525f606483015230608483015273bfdcbb4c05843163f491c24f9c0019c51078630460a4830152831690637dc203829060c4015b6020604051808303815f875af11580156104d0573d5f5f3e3d5ffd5b505050506040513d601f19601f820116820180604052508101906104f49190612389565b979650505050505050565b5f61050d858585855f610517565b5095945050505050565b84515f90819060801c601819810161055157831561053c575f60019250925050610852565b61054a8589606001516108e4565b92506107f8565b5f196001600160801b03821601610585578315610575575f60019250925050610852565b61054a8787878b60600151610b2b565b6013196001600160801b038216016105ba5783156105aa575f60019250925050610852565b61054a8787878b60600151610e82565b600a196001600160801b038216016105ee5783156105df575f60019250925050610852565b61054a87868a60600151611071565b6012196001600160801b03821601610622578315610613575f60019250925050610852565b61054a86868a60600151611184565b6020196001600160801b03821601610656578315610647575f60019250925050610852565b61054a87868a606001516113ec565b6011196001600160801b0382160161068a57831561067b575f60019250925050610852565b61054a87868a6060015161146c565b6001196001600160801b038216016106be5783156106af575f60019250925050610852565b61054a86868a606001516115d5565b6022196001600160801b038216016106f25783156106e3575f60019250925050610852565b61054a86868a606001516117d1565b6019196001600160801b03821601610726578315610717575f60019250925050610852565b61054a86868a60600151610101565b600e196001600160801b0382160161075a57831561074b575f60019250925050610852565b61054a87868a60600151611ad7565b6001600160801b03811661078b57831561077b575f60019250925050610852565b61054a8787878b60600151611bf7565b601f196001600160801b038216016107c05783156107b0575f60019250925050610852565b61054a8787878b60600151611c5c565b601e196001600160801b038216016107f85783156107e5575f60019250925050610852565b6107f58787878b606001516103be565b92505b8751604080519182526001600160a01b0389811660208401528816828201526060820187905260808201859052517fe59e71a14fe90157eedc866c4f8c767d3943d6b6b2e8cd64dddcc92ab4c55af89181900360a00190a1505b9550959350505050565b604051636eb1769f60e11b81523060048201526001600160a01b03838116602483015282919085169063dd62ed3e90604401602060405180830381865afa1580156108a9573d5f5f3e3d5ffd5b505050506040513d601f19601f820116820180604052508101906108cd9190612389565b10156108df576108df83835f19611e03565b505050565b5f5f5f5f848060200190518101906108fc9190612489565b925092509250606081905061091e8488835f8151811061025357610253612375565b86835f8151811061093157610931612375565b602002602001015160600181815250505f81516001600160401b0381111561095b5761095b611fef565b604051908082528060200260200182016040528015610984578160200160208202803683370190505b5090505f5b81518110156109bf576001600160ff1b038282815181106109ac576109ac612375565b6020908102919091010152600101610989565b5060408051608081018252308082525f6020830181905292820152606081018290526001600160a01b0387169063945bcec99083908890879087610a044260016125d2565b6040518763ffffffff1660e01b8152600401610a2596959493929190612657565b5f604051808303815f875af1158015610a40573d5f5f3e3d5ffd5b505050506040513d5f823e601f3d908101601f19168201604052610a679190810190612776565b90505f8160018351610a799190612362565b81518110610a8957610a89612375565b60200260200101511315610ae95760405162461bcd60e51b815260206004820152602160248201527f556e65787065637465642042616c616e63657256324261746368206f757470756044820152601d60fa1b606482015260840161018b565b8060018251610af89190612362565b81518110610b0857610b08612375565b60200260200101515f19610b1c91906127fc565b96505050505050505b92915050565b5f5f82806020019051810190610b4191906128aa565b90505f7f00000000000000000000000000000000000000000000000000000000000000006001600160a01b0316876001600160a01b031603610bfa5750604051632e1a7d4d60e01b81526004810185905284907f00000000000000000000000000000000000000000000000000000000000000006001600160a01b031690632e1a7d4d906024015f604051808303815f87803b158015610bdf575f5ffd5b505af1158015610bf1573d5f5f3e3d5ffd5b50505050610c11565b8151610c11906001600160a01b038916908761085c565b6040516370a0823160e01b81523060048201525f906001600160a01b038816906370a0823190602401602060405180830381865afa158015610c55573d5f5f3e3d5ffd5b505050506040513d601f19601f82011682018060405250810190610c799190612389565b8351602085015160408087015160608801519151600f91820b602482015291900b6044820152606481018a9052600160848201529293505f9283926001600160a01b031691869160a40160408051601f198184030181529181526020820180516001600160e01b03166001600160e01b0319909416939093179092529051610d0191906128c4565b5f6040518083038185875af1925050503d805f8114610d3b576040519150601f19603f3d011682016040523d82523d5f602084013e610d40565b606091505b509150915081610d5357610d5381611e6c565b7f00000000000000000000000000000000000000000000000000000000000000006001600160a01b0316896001600160a01b031603610e00574795507f00000000000000000000000000000000000000000000000000000000000000006001600160a01b031663d0e30db0876040518263ffffffff1660e01b81526004015f604051808303818588803b158015610de8575f5ffd5b505af1158015610dfa573d5f5f3e3d5ffd5b50505050505b6040516370a0823160e01b815230600482015283906001600160a01b038b16906370a0823190602401602060405180830381865afa158015610e44573d5f5f3e3d5ffd5b505050506040513d601f19601f82011682018060405250810190610e689190612389565b610e729190612362565b955050505050505b949350505050565b5f5f82806020019051810190610e9891906128aa565b8051909150610eb2906001600160a01b038816908661085c565b6040516370a0823160e01b81523060048201525f906001600160a01b038716906370a0823190602401602060405180830381865afa158015610ef6573d5f5f3e3d5ffd5b505050506040513d601f19601f82011682018060405250810190610f1a9190612389565b8251602084015160408086015160608701519151600f91820b602482015291900b604482015260648101899052600160848201529293505f9283926001600160a01b0316919060a40160408051601f198184030181529181526020820180516001600160e01b03166001600160e01b0319909416939093179092529051610fa191906128c4565b5f604051808303815f865af19150503d805f8114610fda576040519150601f19603f3d011682016040523d82523d5f602084013e610fdf565b606091505b509150915081610ff257610ff281611e6c565b6040516370a0823160e01b815230600482015283906001600160a01b038a16906370a0823190602401602060405180830381865afa158015611036573d5f5f3e3d5ffd5b505050506040513d601f19601f8201168201806040525081019061105a9190612389565b6110649190612362565b9998505050505050505050565b5f5f5f8380602001905181019061108891906128e9565b90925090506110a16001600160a01b0387168387611e74565b8061111257604051636ec9facd60e11b81523060048201526001600160a01b0383169063dd93f59a906024016020604051808303815f875af11580156110e9573d5f5f3e3d5ffd5b505050506040513d601f19601f8201168201806040525081019061110d9190612389565b61117a565b604051632f58056d60e21b81523060048201526001600160a01b0383169063bd6015b4906024015b6020604051808303815f875af1158015611156573d5f5f3e3d5ffd5b505050506040513d601f19601f8201168201806040525081019061117a9190612389565b9695505050505050565b5f5f6060808480602001905181019061119d919061291c565b815192955090935091506001111561120f5760405162461bcd60e51b815260206004820152602f60248201527f4d6978696e4b79626572446d6d2f504f4f4c535f4c454e4754485f4d5553545f60448201526e42455f41545f4c454153545f4f4e4560881b606482015260840161018b565b815161121c9060016125d2565b8151146112775760405162461bcd60e51b815260206004820152602360248201527f4d6978696e4b79626572446d6d2f41525241595f4c454e4754485f4d49534d416044820152620a886960eb1b606482015260840161018b565b866001600160a01b031681600183516112909190612362565b815181106112a0576112a0612375565b60200260200101516001600160a01b0316146113245760405162461bcd60e51b815260206004820152603a60248201527f4d6978696e4b79626572446d6d2f4c4153545f454c454d454e545f4f465f504160448201527f54485f4d5553545f4d415443485f4f55545055545f544f4b454e000000000000606482015260840161018b565b61133b8387835f8151811061025357610253612375565b60405163ceb757d560e01b81525f906001600160a01b0385169063ceb757d590611374908a90600190889088903090429060040161297b565b5f604051808303815f875af115801561138f573d5f5f3e3d5ffd5b505050506040513d5f823e601f3d908101601f191682016040526113b69190810190612a25565b905080600182516113c79190612362565b815181106113d7576113d7612375565b60200260200101519450505050509392505050565b5f5f5f838060200190518101906114039190612a56565b909250905061141c6001600160a01b038716838761085c565b6040805160a081018252828152306020820152428183015260608101879052600160808201529051635d946c2560e01b81526001600160a01b03841691635d946c259161113a9190600401612af3565b5f5f5f5f848060200190518101906114849190612b05565b9194509250905061149f6001600160a01b038816848861085c565b8060021461153e576040805160a08101825283815230602082015242818301526060810188905260016080820152905163c04b8d5960e01b81526001600160a01b0385169163c04b8d59916114f79190600401612af3565b6020604051808303815f875af1158015611513573d5f5f3e3d5ffd5b505050506040513d601f19601f820116820180604052508101906115379190612389565b93506115cb565b6040805160808101825283815230602082015280820188905260016060820152905163b858183f60e01b81526001600160a01b0385169163b858183f916115889190600401612b5d565b6020604051808303815f875af11580156115a4573d5f5f3e3d5ffd5b505050506040513d601f19601f820116820180604052508101906115c89190612389565b93505b5050509392505050565b5f5f606080848060200190518101906115ee9190612baa565b8051919450925060021115905061165f5760405162461bcd60e51b815260206004820152602f60248201527f4d6978696e556e697377617056322f504154485f4c454e4754485f4d5553545f60448201526e42455f41545f4c454153545f54574f60881b606482015260840161018b565b856001600160a01b031681600183516116789190612362565b8151811061168857611688612375565b60200260200101516001600160a01b03161461170c5760405162461bcd60e51b815260206004820152603b60248201527f4d6978696e556e697377617056322f4c4153545f454c454d454e545f4f465f5060448201527f4154485f4d5553545f4d415443485f4f55545055545f544f4b454e0000000000606482015260840161018b565b6117238286835f8151811061025357610253612375565b6040516338ed173960e01b81525f906001600160a01b038416906338ed17399061175a908990600190879030904290600401612bed565b5f604051808303815f875af1158015611775573d5f5f3e3d5ffd5b505050506040513d5f823e601f3d908101601f1916820160405261179c9190810190612a25565b905080600182516117ad9190612362565b815181106117bd576117bd612375565b602002602001015193505050509392505050565b5f5f606080606080868060200190518101906117ed9190612c28565b8251939850919650945092506002111590506118655760405162461bcd60e51b815260206004820152603160248201527f4d6978696e5472616465724a6f6556322f504154485f4c454e4754485f4d5553604482015270545f42455f41545f4c454153545f54574f60781b606482015260840161018b565b81516118729060016125d2565b8351146118fe5760405162461bcd60e51b815260206004820152604e60248201527f4d6978696e5472616465724a6f6556322f504149525f42494e5f53544550535f60448201527f4c454e4754485f4d5553545f42455f4f4e455f4c4553535f5448414e5f544f4b60648201526d08a9cbea082a890be988a9c8ea8960931b608482015260a40161018b565b81518151146119855760405162461bcd60e51b815260206004820152604760248201527f4d6978696e5472616465724a6f6556322f56455253494f4e535f4c454e47544860448201527f5f4d5553545f42455f455155414c5f544f5f504149525f42494e5f53544550536064820152660be988a9c8ea8960cb1b608482015260a40161018b565b876001600160a01b0316836001855161199e9190612362565b815181106119ae576119ae612375565b60200260200101516001600160a01b031614611a325760405162461bcd60e51b815260206004820152603d60248201527f4d6978696e5472616465724a6f6556322f4c4153545f454c454d454e545f4f4660448201527f5f504154485f4d5553545f4d415443485f4f55545055545f544f4b454e000000606482015260840161018b565b611a498488855f8151811061025357610253612375565b604080516060810182528381526020810183905280820185905290516315221fd760e11b81526001600160a01b03861690632a443fae90611a97908b90600190869030904290600401612d2a565b6020604051808303815f875af1158015611ab3573d5f5f3e3d5ffd5b505050506040513d601f19601f820116820180604052508101906110649190612389565b5f5f82806020019051810190611aed91906128aa565b8051909150611b07906001600160a01b038716908661085c565b8051602082015160408084015160608501519151600f91820b602482015291900b604482015260648101879052600160848201524260a48201525f9283926001600160a01b039091169160c40160408051601f198184030181529181526020820180516001600160e01b03166001600160e01b0319909416939093179092529051611b9291906128c4565b5f604051808303815f865af19150503d805f8114611bcb576040519150601f19603f3d011682016040523d82523d5f602084013e611bd0565b606091505b509150915081611be357611be381611e6c565b808060200190518101906115c89190612389565b5f5f5f83806020019051810190611c0e9190612a56565b9092509050611c276001600160a01b0388168387611e74565b6040516319740ac160e21b81526001600160a01b038316906365d02b04906104b4908a908a9030906001908890600401612e21565b5f5f5f83806020019051810190611c739190612e5b565b9092509050611c8c6001600160a01b038816838761085c565b806001600160a01b0316866001600160a01b031603611d185760405163617ba03760e01b81526001600160a01b038881166004830152602482018790523060448301525f606483015283169063617ba037906084015f604051808303815f87803b158015611cf8575f5ffd5b505af1158015611d0a573d5f5f3e3d5ffd5b505050508492505050610e7a565b806001600160a01b0316876001600160a01b031603611db057604051631a4ca37b60e21b81526001600160a01b038781166004830152602482018790523060448301528316906369328dec906064016020604051808303815f875af1158015611d83573d5f5f3e3d5ffd5b505050506040513d601f19601f82011682018060405250810190611da79190612389565b92505050610e7a565b60405162461bcd60e51b815260206004820152602260248201527f4d6978696e4161766556332f554e535550504f525445445f544f4b454e5f504160448201526124a960f11b606482015260840161018b565b6040516001600160a01b038381166024830152604482018390525f919085169063095ea7b3906064015b604051602081830303815290604052915060e01b6020820180516001600160e01b0383818316178352505050509050611e668482611ea2565b50505050565b805160208201fd5b6040516001600160a01b038381166024830152604482018390525f919085169063a9059cbb90606401611e2d565b5f5f836001600160a01b031683604051611ebc91906128c4565b5f604051808303815f865af19150503d805f8114611ef5576040519150601f19603f3d011682016040523d82523d5f602084013e611efa565b606091505b509150915081611f0d57611f0d81611e6c565b80515f03611f7e575f846001600160a01b03163b11611e665760405162461bcd60e51b815260206004820152602760248201527f696e76616c696420746f6b656e20616464726573732c20636f6e7461696e73206044820152666e6f20636f646560c81b606482015260840161018b565b6020815110611fa85780806020019051810190611f9b9190612e93565b611fa857611fa881611e6c565b611e6681611e6c565b5f60208284031215611fc1575f5ffd5b5035919050565b6001600160a01b0381168114611fdc575f5ffd5b50565b8035611fea81611fc8565b919050565b634e487b7160e01b5f52604160045260245ffd5b604051608081016001600160401b038111828210171561202557612025611fef565b60405290565b60405160a081016001600160401b038111828210171561202557612025611fef565b604051601f8201601f191681016001600160401b038111828210171561207557612075611fef565b604052919050565b5f6001600160401b0382111561209557612095611fef565b50601f01601f191660200190565b5f82601f8301126120b2575f5ffd5b81356120c56120c08261207d565b61204d565b8181528460208386010111156120d9575f5ffd5b816020850160208301375f918101602001919091529392505050565b5f5f5f60608486031215612107575f5ffd5b833561211281611fc8565b92506020840135915060408401356001600160401b03811115612133575f5ffd5b61213f868287016120a3565b9150509250925092565b5f5f5f5f6080858703121561215c575f5ffd5b843561216781611fc8565b9350602085013561217781611fc8565b92506040850135915060608501356001600160401b03811115612198575f5ffd5b6121a4878288016120a3565b91505092959194509250565b5f5f5f5f608085870312156121c3575f5ffd5b84356001600160401b038111156121d8575f5ffd5b8501608081880312156121e9575f5ffd5b6121f1612003565b81358152602080830135908201526040808301359082015260608201356001600160401b03811115612221575f5ffd5b61222d898285016120a3565b6060830152509450612243905060208601611fdf565b925061225160408601611fdf565b9396929550929360600135925050565b5f6001600160401b0382111561227957612279611fef565b5060051b60200190565b5f82601f830112612292575f5ffd5b81516122a06120c082612261565b8082825260208201915060208360051b8601019250858311156122c1575f5ffd5b602085015b8381101561050d5780516122d981611fc8565b8352602092830192016122c6565b5f5f5f5f608085870312156122fa575f5ffd5b845161230581611fc8565b602086015190945061231681611fc8565b604086015190935061232781611fc8565b60608601519092506001600160401b03811115612342575f5ffd5b6121a487828801612283565b634e487b7160e01b5f52601160045260245ffd5b81810381811115610b2557610b2561234e565b634e487b7160e01b5f52603260045260245ffd5b5f60208284031215612399575f5ffd5b5051919050565b5f8151808452602084019350602083015f5b828110156123d95781516001600160a01b03168652602095860195909101906001016123b2565b5093949350505050565b608081525f6123f560808301876123a0565b60208301959095525060408101929092526001600160a01b0316606090910152919050565b5f6020828403121561242a575f5ffd5b815161243581611fc8565b9392505050565b5f82601f83011261244b575f5ffd5b81516124596120c08261207d565b81815284602083860101111561246d575f5ffd5b8160208501602083015e5f918101602001919091529392505050565b5f5f5f6060848603121561249b575f5ffd5b83516124a681611fc8565b60208501519093506001600160401b038111156124c1575f5ffd5b8401601f810186136124d1575f5ffd5b80516124df6120c082612261565b8082825260208201915060208360051b850101925088831115612500575f5ffd5b602084015b838110156125a65780516001600160401b03811115612522575f5ffd5b850160a0818c03601f19011215612537575f5ffd5b61253f61202b565b6020828101518252604080840151918301919091526060808401519183019190915260808301519082015260a08201516001600160401b03811115612582575f5ffd5b6125918d60208386010161243c565b60808301525084525060209283019201612505565b508095505050505060408401516001600160401b038111156125c6575f5ffd5b61213f86828701612283565b80820180821115610b2557610b2561234e565b634e487b7160e01b5f52602160045260245ffd5b5f81518084528060208401602086015e5f602082860101526020601f19601f83011685010191505092915050565b5f8151808452602084019350602083015f5b828110156123d9578151865260209586019590910190600101612639565b5f61012082016002891061266d5761266d6125e5565b8883526101206020840152808851808352610140850191506101408160051b860101925060208a015f5b828110156126fe5761013f198786030184528151805186526020810151602087015260408101516040870152606081015160608701526080810151905060a060808701526126e860a08701826125f9565b9550506020938401939190910190600101612697565b50505050828103604084015261271481886123a0565b86516001600160a01b03908116606086810191909152602089015115156080870152604089015190911660a0860152870151151560c0850152905082810360e08401526127618186612627565b91505082610100830152979650505050505050565b5f60208284031215612786575f5ffd5b81516001600160401b0381111561279b575f5ffd5b8201601f810184136127ab575f5ffd5b80516127b96120c082612261565b8082825260208201915060208360051b8501019250868311156127da575f5ffd5b6020840193505b8284101561117a5783518252602093840193909101906127e1565b8082025f8212600160ff1b841416156128175761281761234e565b8181058314821517610b2557610b2561234e565b8051600f81900b8114611fea575f5ffd5b5f6080828403121561284c575f5ffd5b612854612003565b9050815161286181611fc8565b815260208201516001600160e01b03198116811461287d575f5ffd5b602082015261288e6040830161282b565b604082015261289f6060830161282b565b606082015292915050565b5f608082840312156128ba575f5ffd5b612435838361283c565b5f82518060208501845e5f920191825250919050565b80518015158114611fea575f5ffd5b5f5f604083850312156128fa575f5ffd5b825161290581611fc8565b9150612913602084016128da565b90509250929050565b5f5f5f6060848603121561292e575f5ffd5b835161293981611fc8565b60208501519093506001600160401b03811115612954575f5ffd5b61296086828701612283565b92505060408401516001600160401b038111156125c6575f5ffd5b86815285602082015260c060408201525f61299960c08301876123a0565b82810360608401526129ab81876123a0565b6001600160a01b03959095166080840152505060a00152949350505050565b5f82601f8301126129d9575f5ffd5b81516129e76120c082612261565b8082825260208201915060208360051b860101925085831115612a08575f5ffd5b602085015b8381101561050d578051835260209283019201612a0d565b5f60208284031215612a35575f5ffd5b81516001600160401b03811115612a4a575f5ffd5b610e7a848285016129ca565b5f5f60408385031215612a67575f5ffd5b8251612a7281611fc8565b60208401519092506001600160401b03811115612a8d575f5ffd5b612a998582860161243c565b9150509250929050565b5f815160a08452612ab760a08501826125f9565b6020848101516001600160a01b031690860152604080850151908601526060808501519086015260809384015193909401929092525090919050565b602081525f6124356020830184612aa3565b5f5f5f60608486031215612b17575f5ffd5b8351612b2281611fc8565b60208501519093506001600160401b03811115612b3d575f5ffd5b612b498682870161243c565b604095909501519396949550929392505050565b602081525f825160806020840152612b7860a08401826125f9565b905060018060a01b03602085015116604084015260408401516060840152606084015160808401528091505092915050565b5f5f60408385031215612bbb575f5ffd5b8251612bc681611fc8565b60208401519092506001600160401b03811115612be1575f5ffd5b612a9985828601612283565b85815284602082015260a060408201525f612c0b60a08301866123a0565b6001600160a01b0394909416606083015250608001529392505050565b5f5f5f5f60808587031215612c3b575f5ffd5b8451612c4681611fc8565b60208601519094506001600160401b03811115612c61575f5ffd5b612c6d87828801612283565b93505060408501516001600160401b03811115612c88575f5ffd5b612c94878288016129ca565b92505060608501516001600160401b03811115612caf575f5ffd5b8501601f81018713612cbf575f5ffd5b8051612ccd6120c082612261565b8082825260208201915060208360051b850101925089831115612cee575f5ffd5b6020840193505b82841015612d1c57835160038110612d0b575f5ffd5b825260209384019390910190612cf5565b969995985093965050505050565b85815284602082015260a060408201525f61010082018551606060a0850152818151808452610120860191506020830193505f92505b80831015612d835783518252602082019150602084019350600183019250612d60565b50602088810151868303609f190160c088015280518084529082019450910191505f905b80821015612dd957835160038110612dc157612dc16125e5565b83526020938401939092019160019190910190612da7565b50506040870151848203609f190160e08601529150612df881836123a0565b92505050612e1160608301856001600160a01b03169052565b8260808301529695505050505050565b6001600160a01b0386811682528581166020830152841660408201526060810183905260a0608082018190525f906104f4908301846125f9565b5f5f60408385031215612e6c575f5ffd5b8251612e7781611fc8565b6020840151909250612e8881611fc8565b809150509250929050565b5f60208284031215612ea3575f5ffd5b612435826128da56fea2646970667358221220c91ef09999a06f1904c26e01f252f5dc804d32522ee39c66d1a4cfbedc8da3fb64736f6c634300081c0033",
  "linkReferences": {},
  "deployedLinkReferences": {}
}