{
  "_format": "hh-sol-artifact-1",
  "contractName": "BSCBridgeAdapter",
  "sourceName": "contracts/src/transformers/bridges/BSCBridgeAdapter.sol",
  "abi": [
    {
      "inputs": [
        {
          "internalType": "contract IEtherToken",
          "name": "weth",
          "type": "address"
        }
      ],
      "stateMutability": "nonpayable",
      "type": "constructor"
    },
    {
      "anonymous": false,
      "inputs": [
        {
          "indexed": false,
          "internalType": "bytes32",
          "name": "source",
          "type": "bytes32"
        },
        {
          "indexed": false,
          "internalType": "contract IERC20Token",
          "name": "inputToken",
          "type": "address"
        },
        {
          "indexed": false,
          "internalType": "contract IERC20Token",
          "name": "outputToken",
          "type": "address"
        },
        {
          "indexed": false,
          "internalType": "uint256",
          "name": "inputTokenAmount",
          "type": "uint256"
        },
        {
          "indexed": false,
          "internalType": "uint256",
          "name": "outputTokenAmount",
          "type": "uint256"
        }
      ],
      "name": "BridgeFill",
      "type": "event"
    },
    {
      "inputs": [
        {
          "internalType": "contract IERC20Token",
          "name": "sellToken",
          "type": "address"
        },
        {
          "internalType": "contract IERC20Token",
          "name": "buyToken",
          "type": "address"
        },
        {
          "internalType": "uint256",
          "name": "sellAmount",
          "type": "uint256"
        },
        {
          "internalType": "bytes",
          "name": "bridgeData",
          "type": "bytes"
        }
      ],
      "name": "_tradeWOOFi",
      "outputs": [
        {
          "internalType": "uint256",
          "name": "boughtAmount",
          "type": "uint256"
        }
      ],
      "stateMutability": "nonpayable",
      "type": "function"
    },
    {
      "inputs": [
        {
          "internalType": "bytes32",
          "name": "source",
          "type": "bytes32"
        }
      ],
      "name": "isSupportedSource",
      "outputs": [
        {
          "internalType": "bool",
          "name": "isSupported",
          "type": "bool"
        }
      ],
      "stateMutability": "nonpayable",
      "type": "function"
    },
    {
      "inputs": [
        {
          "components": [
            {
              "internalType": "bytes32",
              "name": "source",
              "type": "bytes32"
            },
            {
              "internalType": "uint256",
              "name": "takerTokenAmount",
              "type": "uint256"
            },
            {
              "internalType": "uint256",
              "name": "makerTokenAmount",
              "type": "uint256"
            },
            {
              "internalType": "bytes",
              "name": "bridgeData",
              "type": "bytes"
            }
          ],
          "internalType": "struct IBridgeAdapter.BridgeOrder",
          "name": "order",
          "type": "tuple"
        },
        {
          "internalType": "contract IERC20Token",
          "name": "sellToken",
          "type": "address"
        },
        {
          "internalType": "contract IERC20Token",
          "name": "buyToken",
          "type": "address"
        },
        {
          "internalType": "uint256",
          "name": "sellAmount",
          "type": "uint256"
        }
      ],
      "name": "trade",
      "outputs": [
        {
          "internalType": "uint256",
          "name": "boughtAmount",
          "type": "uint256"
        }
      ],
      "stateMutability": "nonpayable",
      "type": "function"
    }
  ],
  "bytecode": "0x60c060405234801561000f575f5ffd5b5060405161241638038061241683398101604081905261002e916100fa565b808160386040518060400160405280600381526020016242534360e81b8152505f4690505f816105391480610064575081617a69145b8061006f5750816005145b8061007c57508162013881145b8061008957508162014a33145b9050838214158015610099575080155b156100de57826040516020016100af9190610127565b60408051601f198184030181529082905262461bcd60e51b82526100d591600401610172565b60405180910390fd5b5050506001600160a01b03918216608052501660a052506101a7565b5f6020828403121561010a575f5ffd5b81516001600160a01b0381168114610120575f5ffd5b9392505050565b5f82518060208501845e7f427269646765416461707465722e636f6e7374727563746f723a2077726f6e67920191825250680818da185a5b88125160ba1b6020820152602901919050565b602081525f82518060208401528060208501604085015e5f604082850101526040601f19601f83011684010191505092915050565b60805160a0516122166102005f395f8181610ca401528181610ce301528181610d7001528181610db101528181610e770152610eb001525f81816105bd0152818161060d015281816107cc015261080801526122165ff3fe608060405234801561000f575f5ffd5b506004361061003f575f3560e01c806302d2734f14610043578063e8275c821461006b578063f712a1481461008c575b5f5ffd5b6100566100513660046118a5565b61009f565b60405190151581526020015b60405180910390f35b61007e6100793660046119c7565b6100e3565b604051908152602001610062565b61007e61009a366004611a2e565b610224565b5f6100c860405180608001604052805f81526020015f81526020015f8152602001606081525090565b8281525f6100da82828080600161023c565b95945050505050565b5f5f828060200190518101906100f99190611adf565b6040516370a0823160e01b81523060048201529091505f906001600160a01b038716906370a0823190602401602060405180830381865afa158015610140573d5f5f3e3d5ffd5b505050506040513d601f19601f820116820180604052508101906101649190611b01565b905061017a6001600160a01b038816838761051a565b604051633ee101c160e11b81526001600160a01b0388811660048301528781166024830152604482018790525f606483015230608483015273bfdcbb4c05843163f491c24f9c0019c51078630460a4830152831690637dc203829060c4015b6020604051808303815f875af11580156101f5573d5f5f3e3d5ffd5b505050506040513d601f19601f820116820180604052508101906102199190611b01565b979650505050505050565b5f610232858585855f61023c565b5095945050505050565b84515f90819060801c5f198101610277578315610260575f60019250925050610510565b6102708787878b606001516105a2565b92506104b6565b6001196001600160801b038216016102ab57831561029c575f60019250925050610510565b61027086868a606001516108f7565b6011196001600160801b038216016102df5783156102d0575f60019250925050610510565b61027087868a60600151610b18565b6005196001600160801b03821601610314578315610304575f60019250925050610510565b6102708787878b60600151610c81565b6009196001600160801b03821601610348578315610339575f60019250925050610510565b61027087868a60600151610f29565b600a196001600160801b0382160161037c57831561036d575f60019250925050610510565b61027087868a60600151611098565b600e196001600160801b038216016103b05783156103a1575f60019250925050610510565b61027087868a606001516111ab565b6012196001600160801b038216016103e45783156103d5575f60019250925050610510565b61027086868a606001516112cb565b6020196001600160801b03821601610418578315610409575f60019250925050610510565b61027087868a60600151611533565b601e196001600160801b0382160161044d57831561043d575f60019250925050610510565b6102708787878b606001516100e3565b6024196001600160801b03821601610482578315610472575f60019250925050610510565b6102708787878b606001516115b3565b6001600160801b0381166104b65783156104a3575f60019250925050610510565b6104b38787878b60600151611692565b92505b8751604080519182526001600160a01b0389811660208401528816828201526060820187905260808201859052517fe59e71a14fe90157eedc866c4f8c767d3943d6b6b2e8cd64dddcc92ab4c55af89181900360a00190a1505b9550959350505050565b604051636eb1769f60e11b81523060048201526001600160a01b03838116602483015282919085169063dd62ed3e90604401602060405180830381865afa158015610567573d5f5f3e3d5ffd5b505050506040513d601f19601f8201168201806040525081019061058b9190611b01565b101561059d5761059d83835f196116f7565b505050565b5f5f828060200190518101906105b89190611b97565b90505f7f00000000000000000000000000000000000000000000000000000000000000006001600160a01b0316876001600160a01b0316036106715750604051632e1a7d4d60e01b81526004810185905284907f00000000000000000000000000000000000000000000000000000000000000006001600160a01b031690632e1a7d4d906024015f604051808303815f87803b158015610656575f5ffd5b505af1158015610668573d5f5f3e3d5ffd5b50505050610688565b8151610688906001600160a01b038916908761051a565b6040516370a0823160e01b81523060048201525f906001600160a01b038816906370a0823190602401602060405180830381865afa1580156106cc573d5f5f3e3d5ffd5b505050506040513d601f19601f820116820180604052508101906106f09190611b01565b8351602085015160408087015160608801519151600f91820b602482015291900b6044820152606481018a9052600160848201529293505f9283926001600160a01b031691869160a40160408051601f198184030181529181526020820180516001600160e01b03166001600160e01b03199094169390931790925290516107789190611bb1565b5f6040518083038185875af1925050503d805f81146107b2576040519150601f19603f3d011682016040523d82523d5f602084013e6107b7565b606091505b5091509150816107ca576107ca81611760565b7f00000000000000000000000000000000000000000000000000000000000000006001600160a01b0316896001600160a01b031603610877574795507f00000000000000000000000000000000000000000000000000000000000000006001600160a01b031663d0e30db0876040518263ffffffff1660e01b81526004015f604051808303818588803b15801561085f575f5ffd5b505af1158015610871573d5f5f3e3d5ffd5b50505050505b6040516370a0823160e01b815230600482015283906001600160a01b038b16906370a0823190602401602060405180830381865afa1580156108bb573d5f5f3e3d5ffd5b505050506040513d601f19601f820116820180604052508101906108df9190611b01565b6108e99190611bdb565b9a9950505050505050505050565b5f5f606080848060200190518101906109109190611c7a565b805191945092506002111590506109865760405162461bcd60e51b815260206004820152602f60248201527f4d6978696e556e697377617056322f504154485f4c454e4754485f4d5553545f60448201526e42455f41545f4c454153545f54574f60881b60648201526084015b60405180910390fd5b856001600160a01b0316816001835161099f9190611bdb565b815181106109af576109af611cc7565b60200260200101516001600160a01b031614610a335760405162461bcd60e51b815260206004820152603b60248201527f4d6978696e556e697377617056322f4c4153545f454c454d454e545f4f465f5060448201527f4154485f4d5553545f4d415443485f4f55545055545f544f4b454e0000000000606482015260840161097d565b610a6a8286835f81518110610a4a57610a4a611cc7565b60200260200101516001600160a01b031661051a9092919063ffffffff16565b6040516338ed173960e01b81525f906001600160a01b038416906338ed173990610aa1908990600190879030904290600401611cdb565b5f604051808303815f875af1158015610abc573d5f5f3e3d5ffd5b505050506040513d5f823e601f3d908101601f19168201604052610ae39190810190611d4b565b90508060018251610af49190611bdb565b81518110610b0457610b04611cc7565b602002602001015193505050509392505050565b5f5f5f5f84806020019051810190610b309190611e1e565b91945092509050610b4b6001600160a01b038816848861051a565b80600214610bea576040805160a08101825283815230602082015242818301526060810188905260016080820152905163c04b8d5960e01b81526001600160a01b0385169163c04b8d5991610ba39190600401611ef4565b6020604051808303815f875af1158015610bbf573d5f5f3e3d5ffd5b505050506040513d601f19601f82011682018060405250810190610be39190611b01565b9350610c77565b6040805160808101825283815230602082015280820188905260016060820152905163b858183f60e01b81526001600160a01b0385169163b858183f91610c349190600401611f06565b6020604051808303815f875af1158015610c50573d5f5f3e3d5ffd5b505050506040513d601f19601f82011682018060405250810190610c749190611b01565b93505b5050509392505050565b5f5f82806020019051810190610c979190611adf565b90505f6001600160a01b037f0000000000000000000000000000000000000000000000000000000000000000811690881603610d4a57604051632e1a7d4d60e01b8152600481018690527f00000000000000000000000000000000000000000000000000000000000000006001600160a01b031690632e1a7d4d906024015f604051808303815f87803b158015610d2c575f5ffd5b505af1158015610d3e573d5f5f3e3d5ffd5b50505050849050610d5e565b610d5e6001600160a01b038816838761051a565b816001600160a01b031663d5bcb9b5827f00000000000000000000000000000000000000000000000000000000000000006001600160a01b03168a6001600160a01b031614610dad5789610daf565b5f5b7f00000000000000000000000000000000000000000000000000000000000000006001600160a01b03168a6001600160a01b031614610dee5789610df0565b5f5b6040516001600160e01b031960e086901b1681526001600160a01b0392831660048201529116602482015260448101899052600160648201525f608482015260a40160206040518083038185885af1158015610e4e573d5f5f3e3d5ffd5b50505050506040513d601f19601f82011682018060405250810190610e739190611b01565b92507f00000000000000000000000000000000000000000000000000000000000000006001600160a01b0316866001600160a01b031603610f1f577f00000000000000000000000000000000000000000000000000000000000000006001600160a01b031663d0e30db0846040518263ffffffff1660e01b81526004015f604051808303818588803b158015610f07575f5ffd5b505af1158015610f19573d5f5f3e3d5ffd5b50505050505b5050949350505050565b5f5f5f5f84806020019051810190610f419190611f62565b91945092509050610f5c6001600160a01b038816838861051a565b8015610f9f57604080515f81526020810191829052638dae733360e01b9091526001600160a01b03831690638dae733390610ba390899060019060248101611fa7565b60405163ca19ebd960e01b81526001600160a01b0383811660048301526024820188905284169063ca19ebd990604401602060405180830381865afa158015610fea573d5f5f3e3d5ffd5b505050506040513d601f19601f8201168201806040525081019061100e9190611b01565b604080515f8152602081019182905263733e738360e11b9091529094506001600160a01b0383169063e67ce7069061104d9087908a9060248101611fa7565b6020604051808303815f875af1158015611069573d5f5f3e3d5ffd5b505050506040513d601f19601f8201168201806040525081019061108d9190611b01565b505050509392505050565b5f5f5f838060200190518101906110af9190611fc5565b90925090506110c86001600160a01b0387168387611768565b8061113957604051636ec9facd60e11b81523060048201526001600160a01b0383169063dd93f59a906024016020604051808303815f875af1158015611110573d5f5f3e3d5ffd5b505050506040513d601f19601f820116820180604052508101906111349190611b01565b6111a1565b604051632f58056d60e21b81523060048201526001600160a01b0383169063bd6015b4906024015b6020604051808303815f875af115801561117d573d5f5f3e3d5ffd5b505050506040513d601f19601f820116820180604052508101906111a19190611b01565b9695505050505050565b5f5f828060200190518101906111c19190611b97565b80519091506111db906001600160a01b038716908661051a565b8051602082015160408084015160608501519151600f91820b602482015291900b604482015260648101879052600160848201524260a48201525f9283926001600160a01b039091169160c40160408051601f198184030181529181526020820180516001600160e01b03166001600160e01b03199094169390931790925290516112669190611bb1565b5f604051808303815f865af19150503d805f811461129f576040519150601f19603f3d011682016040523d82523d5f602084013e6112a4565b606091505b5091509150816112b7576112b781611760565b80806020019051810190610c749190611b01565b5f5f606080848060200190518101906112e49190611ff8565b81519295509093509150600111156113565760405162461bcd60e51b815260206004820152602f60248201527f4d6978696e4b79626572446d6d2f504f4f4c535f4c454e4754485f4d5553545f60448201526e42455f41545f4c454153545f4f4e4560881b606482015260840161097d565b815161136390600161206d565b8151146113be5760405162461bcd60e51b815260206004820152602360248201527f4d6978696e4b79626572446d6d2f41525241595f4c454e4754485f4d49534d416044820152620a886960eb1b606482015260840161097d565b866001600160a01b031681600183516113d79190611bdb565b815181106113e7576113e7611cc7565b60200260200101516001600160a01b03161461146b5760405162461bcd60e51b815260206004820152603a60248201527f4d6978696e4b79626572446d6d2f4c4153545f454c454d454e545f4f465f504160448201527f54485f4d5553545f4d415443485f4f55545055545f544f4b454e000000000000606482015260840161097d565b6114828387835f81518110610a4a57610a4a611cc7565b60405163ceb757d560e01b81525f906001600160a01b0385169063ceb757d5906114bb908a9060019088908890309042906004016120c3565b5f604051808303815f875af11580156114d6573d5f5f3e3d5ffd5b505050506040513d5f823e601f3d908101601f191682016040526114fd9190810190611d4b565b9050806001825161150e9190611bdb565b8151811061151e5761151e611cc7565b60200260200101519450505050509392505050565b5f5f5f8380602001905181019061154a9190612112565b90925090506115636001600160a01b038716838761051a565b6040805160a081018252828152306020820152428183015260608101879052600160808201529051635d946c2560e01b81526001600160a01b03841691635d946c25916111619190600401611ef4565b5f5f5f838060200190518101906115ca9190612155565b90925090506115e36001600160a01b038816838761051a565b60408051610100810182526001600160a01b038981168252888116602083019081528482168385019081523060608501908152426080860190815260a086018c8152600160c088019081525f60e08901908152985163a5dcbcdf60e01b81529751871660048901529451861660248801529251851660448701529051841660648601525160848501525160a48401525160c4830152915160e48201529083169063a5dcbcdf90610104016101d9565b5f5f5f838060200190518101906116a99190612112565b90925090506116c26001600160a01b0388168387611768565b6040516319740ac160e21b81526001600160a01b038316906365d02b04906101d9908a908a903090600190889060040161218d565b6040516001600160a01b038381166024830152604482018390525f919085169063095ea7b3906064015b604051602081830303815290604052915060e01b6020820180516001600160e01b038381831617835250505050905061175a8482611796565b50505050565b805160208201fd5b6040516001600160a01b038381166024830152604482018390525f919085169063a9059cbb90606401611721565b5f5f836001600160a01b0316836040516117b09190611bb1565b5f604051808303815f865af19150503d805f81146117e9576040519150601f19603f3d011682016040523d82523d5f602084013e6117ee565b606091505b5091509150816118015761180181611760565b80515f03611872575f846001600160a01b03163b1161175a5760405162461bcd60e51b815260206004820152602760248201527f696e76616c696420746f6b656e20616464726573732c20636f6e7461696e73206044820152666e6f20636f646560c81b606482015260840161097d565b602081511061189c578080602001905181019061188f91906121c7565b61189c5761189c81611760565b61175a81611760565b5f602082840312156118b5575f5ffd5b5035919050565b6001600160a01b03811681146118d0575f5ffd5b50565b80356118de816118bc565b919050565b634e487b7160e01b5f52604160045260245ffd5b604051608081016001600160401b0381118282101715611919576119196118e3565b60405290565b604051601f8201601f191681016001600160401b0381118282101715611947576119476118e3565b604052919050565b5f6001600160401b03821115611967576119676118e3565b50601f01601f191660200190565b5f82601f830112611984575f5ffd5b81356119976119928261194f565b61191f565b8181528460208386010111156119ab575f5ffd5b816020850160208301375f918101602001919091529392505050565b5f5f5f5f608085870312156119da575f5ffd5b84356119e5816118bc565b935060208501356119f5816118bc565b92506040850135915060608501356001600160401b03811115611a16575f5ffd5b611a2287828801611975565b91505092959194509250565b5f5f5f5f60808587031215611a41575f5ffd5b84356001600160401b03811115611a56575f5ffd5b850160808188031215611a67575f5ffd5b611a6f6118f7565b81358152602080830135908201526040808301359082015260608201356001600160401b03811115611a9f575f5ffd5b611aab89828501611975565b6060830152509450611ac19050602086016118d3565b9250611acf604086016118d3565b9396929550929360600135925050565b5f60208284031215611aef575f5ffd5b8151611afa816118bc565b9392505050565b5f60208284031215611b11575f5ffd5b5051919050565b8051600f81900b81146118de575f5ffd5b5f60808284031215611b39575f5ffd5b611b416118f7565b90508151611b4e816118bc565b815260208201516001600160e01b031981168114611b6a575f5ffd5b6020820152611b7b60408301611b18565b6040820152611b8c60608301611b18565b606082015292915050565b5f60808284031215611ba7575f5ffd5b611afa8383611b29565b5f82518060208501845e5f920191825250919050565b634e487b7160e01b5f52601160045260245ffd5b81810381811115611bee57611bee611bc7565b92915050565b5f6001600160401b03821115611c0c57611c0c6118e3565b5060051b60200190565b5f82601f830112611c25575f5ffd5b8151611c3361199282611bf4565b8082825260208201915060208360051b860101925085831115611c54575f5ffd5b602085015b83811015610232578051611c6c816118bc565b835260209283019201611c59565b5f5f60408385031215611c8b575f5ffd5b8251611c96816118bc565b60208401519092506001600160401b03811115611cb1575f5ffd5b611cbd85828601611c16565b9150509250929050565b634e487b7160e01b5f52603260045260245ffd5b5f60a0820187835286602084015260a0604084015280865180835260c0850191506020880192505f5b81811015611d2b5783516001600160a01b0316835260209384019390920191600101611d04565b50506001600160a01b039590951660608401525050608001529392505050565b5f60208284031215611d5b575f5ffd5b81516001600160401b03811115611d70575f5ffd5b8201601f81018413611d80575f5ffd5b8051611d8e61199282611bf4565b8082825260208201915060208360051b850101925086831115611daf575f5ffd5b6020840193505b828410156111a1578351825260209384019390910190611db6565b5f82601f830112611de0575f5ffd5b8151611dee6119928261194f565b818152846020838601011115611e02575f5ffd5b8160208501602083015e5f918101602001919091529392505050565b5f5f5f60608486031215611e30575f5ffd5b8351611e3b816118bc565b60208501519093506001600160401b03811115611e56575f5ffd5b611e6286828701611dd1565b604095909501519396949550929392505050565b5f81518084528060208401602086015e5f602082860101526020601f19601f83011685010191505092915050565b5f815160a08452611eb860a0850182611e76565b6020848101516001600160a01b031690860152604080850151908601526060808501519086015260809384015193909401929092525090919050565b602081525f611afa6020830184611ea4565b602081525f825160806020840152611f2160a0840182611e76565b905060018060a01b03602085015116604084015260408401516060840152606084015160808401528091505092915050565b805180151581146118de575f5ffd5b5f5f5f60608486031215611f74575f5ffd5b8351611f7f816118bc565b6020850151909350611f90816118bc565b9150611f9e60408501611f53565b90509250925092565b838152826020820152606060408201525f6100da6060830184611e76565b5f5f60408385031215611fd6575f5ffd5b8251611fe1816118bc565b9150611fef60208401611f53565b90509250929050565b5f5f5f6060848603121561200a575f5ffd5b8351612015816118bc565b60208501519093506001600160401b03811115612030575f5ffd5b61203c86828701611c16565b92505060408401516001600160401b03811115612057575f5ffd5b61206386828701611c16565b9150509250925092565b80820180821115611bee57611bee611bc7565b5f8151808452602084019350602083015f5b828110156120b95781516001600160a01b0316865260209586019590910190600101612092565b5093949350505050565b86815285602082015260c060408201525f6120e160c0830187612080565b82810360608401526120f38187612080565b6001600160a01b03959095166080840152505060a00152949350505050565b5f5f60408385031215612123575f5ffd5b825161212e816118bc565b60208401519092506001600160401b03811115612149575f5ffd5b611cbd85828601611dd1565b5f5f60408385031215612166575f5ffd5b8251612171816118bc565b6020840151909250612182816118bc565b809150509250929050565b6001600160a01b0386811682528581166020830152841660408201526060810183905260a0608082018190525f9061021990830184611e76565b5f602082840312156121d7575f5ffd5b611afa82611f5356fea26469706673582212208b3f4816d8c75760841e94a4b382da25f142cc8a653d535e0ce951eec103baa664736f6c634300081c0033",
  "linkReferences": {},
  "deployedLinkReferences": {}
}