{
  "_format": "hh-sol-artifact-1",
  "contractName": "ERC165Feature",
  "sourceName": "contracts/src/features/ERC165Feature.sol",
  "abi": [
    {
      "inputs": [],
      "name": "FEATURE_NAME",
      "outputs": [
        {
          "internalType": "string",
          "name": "",
          "type": "string"
        }
      ],
      "stateMutability": "view",
      "type": "function"
    },
    {
      "inputs": [],
      "name": "FEATURE_VERSION",
      "outputs": [
        {
          "internalType": "uint256",
          "name": "",
          "type": "uint256"
        }
      ],
      "stateMutability": "view",
      "type": "function"
    },
    {
      "inputs": [
        {
          "internalType": "bytes4",
          "name": "interfaceId",
          "type": "bytes4"
        }
      ],
      "name": "supportInterface",
      "outputs": [
        {
          "internalType": "bool",
          "name": "isSupported",
          "type": "bool"
        }
      ],
      "stateMutability": "pure",
      "type": "function"
    }
  ],
  "bytecode": "0x60c06040526801000000000000000060a052348015601b575f5ffd5b503060805260805160a0516101bc61003d5f395f604801525f50506101bc5ff3fe608060405234801561000f575f5ffd5b506004361061003f575f3560e01c8063031b905c146100435780636ae4b4f71461007d57806375e79be6146100af575b5f5ffd5b61006a7f000000000000000000000000000000000000000000000000000000000000000081565b6040519081526020015b60405180910390f35b6100a26040518060400160405280600681526020016545524331363560d01b81525081565b6040516100749190610123565b6100c26100bd366004610158565b6100d2565b6040519015158152602001610074565b5f6301ffc9a760e01b6001600160e01b0319831614806101025750630a85bd0160e11b6001600160e01b03198316145b8061011d5750630271189760e51b6001600160e01b03198316145b92915050565b602081525f82518060208401528060208501604085015e5f604082850101526040601f19601f83011684010191505092915050565b5f60208284031215610168575f5ffd5b81356001600160e01b03198116811461017f575f5ffd5b939250505056fea264697066735822122062c7778efc4c60e40481129b6db97d5eab1c755b3a469cf6357f2c1844c9a2a664736f6c634300081c0033",
  "linkReferences": {},
  "deployedLinkReferences": {}
}