{
  "_format": "hh-sol-artifact-1",
  "contractName": "MultiplexFeature",
  "sourceName": "contracts/src/features/multiplex/MultiplexFeature.sol",
  "abi": [
    {
      "inputs": [
        {
          "internalType": "address",
          "name": "zeroExAddress",
          "type": "address"
        },
        {
          "internalType": "contract IEtherToken",
          "name": "weth",
          "type": "address"
        },
        {
          "internalType": "contract ILiquidityProviderSandbox",
          "name": "sandbox",
          "type": "address"
        },
        {
          "internalType": "address",
          "name": "uniswapFactory",
          "type": "address"
        },
        {
          "internalType": "address",
          "name": "sushiswapFactory",
          "type": "address"
        },
        {
          "internalType": "bytes32",
          "name": "uniswapPairInitCodeHash",
          "type": "bytes32"
        },
        {
          "internalType": "bytes32",
          "name": "sushiswapPairInitCodeHash",
          "type": "bytes32"
        }
      ],
      "stateMutability": "nonpayable",
      "type": "constructor"
    },
    {
      "anonymous": false,
      "inputs": [
        {
          "indexed": false,
          "internalType": "bytes32",
          "name": "orderHash",
          "type": "bytes32"
        },
        {
          "indexed": false,
          "internalType": "address",
          "name": "maker",
          "type": "address"
        },
        {
          "indexed": false,
          "internalType": "uint64",
          "name": "expiry",
          "type": "uint64"
        }
      ],
      "name": "ExpiredOtcOrder",
      "type": "event"
    },
    {
      "anonymous": false,
      "inputs": [
        {
          "indexed": false,
          "internalType": "bytes32",
          "name": "orderHash",
          "type": "bytes32"
        },
        {
          "indexed": false,
          "internalType": "address",
          "name": "maker",
          "type": "address"
        },
        {
          "indexed": false,
          "internalType": "uint64",
          "name": "expiry",
          "type": "uint64"
        }
      ],
      "name": "ExpiredRfqOrder",
      "type": "event"
    },
    {
      "anonymous": false,
      "inputs": [
        {
          "indexed": false,
          "internalType": "address",
          "name": "inputToken",
          "type": "address"
        },
        {
          "indexed": false,
          "internalType": "address",
          "name": "outputToken",
          "type": "address"
        },
        {
          "indexed": false,
          "internalType": "uint256",
          "name": "inputTokenAmount",
          "type": "uint256"
        },
        {
          "indexed": false,
          "internalType": "uint256",
          "name": "outputTokenAmount",
          "type": "uint256"
        },
        {
          "indexed": false,
          "internalType": "address",
          "name": "provider",
          "type": "address"
        },
        {
          "indexed": false,
          "internalType": "address",
          "name": "recipient",
          "type": "address"
        }
      ],
      "name": "LiquidityProviderSwap",
      "type": "event"
    },
    {
      "inputs": [],
      "name": "EIP712_DOMAIN_SEPARATOR",
      "outputs": [
        {
          "internalType": "bytes32",
          "name": "",
          "type": "bytes32"
        }
      ],
      "stateMutability": "view",
      "type": "function"
    },
    {
      "inputs": [],
      "name": "FEATURE_NAME",
      "outputs": [
        {
          "internalType": "string",
          "name": "",
          "type": "string"
        }
      ],
      "stateMutability": "view",
      "type": "function"
    },
    {
      "inputs": [],
      "name": "FEATURE_VERSION",
      "outputs": [
        {
          "internalType": "uint256",
          "name": "",
          "type": "uint256"
        }
      ],
      "stateMutability": "view",
      "type": "function"
    },
    {
      "inputs": [
        {
          "components": [
            {
              "internalType": "contract IERC20Token",
              "name": "inputToken",
              "type": "address"
            },
            {
              "internalType": "contract IERC20Token",
              "name": "outputToken",
              "type": "address"
            },
            {
              "internalType": "uint256",
              "name": "sellAmount",
              "type": "uint256"
            },
            {
              "components": [
                {
                  "internalType": "enum IMultiplexFeature.MultiplexSubcall",
                  "name": "id",
                  "type": "uint8"
                },
                {
                  "internalType": "uint256",
                  "name": "sellAmount",
                  "type": "uint256"
                },
                {
                  "internalType": "bytes",
                  "name": "data",
                  "type": "bytes"
                }
              ],
              "internalType": "struct IMultiplexFeature.BatchSellSubcall[]",
              "name": "calls",
              "type": "tuple[]"
            },
            {
              "internalType": "bool",
              "name": "useSelfBalance",
              "type": "bool"
            },
            {
              "internalType": "address",
              "name": "recipient",
              "type": "address"
            },
            {
              "internalType": "address",
              "name": "payer",
              "type": "address"
            }
          ],
          "internalType": "struct IMultiplexFeature.BatchSellParams",
          "name": "params",
          "type": "tuple"
        },
        {
          "internalType": "bytes",
          "name": "wrappedCallData",
          "type": "bytes"
        },
        {
          "internalType": "uint256",
          "name": "sellAmount",
          "type": "uint256"
        }
      ],
      "name": "_batchSellLiquidityProviderExternal",
      "outputs": [
        {
          "internalType": "uint256",
          "name": "boughtAmount",
          "type": "uint256"
        }
      ],
      "stateMutability": "payable",
      "type": "function"
    },
    {
      "inputs": [
        {
          "components": [
            {
              "internalType": "contract IERC20Token",
              "name": "inputToken",
              "type": "address"
            },
            {
              "internalType": "contract IERC20Token",
              "name": "outputToken",
              "type": "address"
            },
            {
              "internalType": "uint256",
              "name": "sellAmount",
              "type": "uint256"
            },
            {
              "components": [
                {
                  "internalType": "enum IMultiplexFeature.MultiplexSubcall",
                  "name": "id",
                  "type": "uint8"
                },
                {
                  "internalType": "uint256",
                  "name": "sellAmount",
                  "type": "uint256"
                },
                {
                  "internalType": "bytes",
                  "name": "data",
                  "type": "bytes"
                }
              ],
              "internalType": "struct IMultiplexFeature.BatchSellSubcall[]",
              "name": "calls",
              "type": "tuple[]"
            },
            {
              "internalType": "bool",
              "name": "useSelfBalance",
              "type": "bool"
            },
            {
              "internalType": "address",
              "name": "recipient",
              "type": "address"
            },
            {
              "internalType": "address",
              "name": "payer",
              "type": "address"
            }
          ],
          "internalType": "struct IMultiplexFeature.BatchSellParams",
          "name": "params",
          "type": "tuple"
        },
        {
          "internalType": "bytes",
          "name": "wrappedCallData",
          "type": "bytes"
        },
        {
          "internalType": "uint256",
          "name": "sellAmount",
          "type": "uint256"
        }
      ],
      "name": "_batchSellUniswapV2External",
      "outputs": [
        {
          "internalType": "uint256",
          "name": "boughtAmount",
          "type": "uint256"
        }
      ],
      "stateMutability": "payable",
      "type": "function"
    },
    {
      "inputs": [
        {
          "components": [
            {
              "internalType": "contract IERC20Token",
              "name": "inputToken",
              "type": "address"
            },
            {
              "internalType": "contract IERC20Token",
              "name": "outputToken",
              "type": "address"
            },
            {
              "internalType": "uint256",
              "name": "sellAmount",
              "type": "uint256"
            },
            {
              "components": [
                {
                  "internalType": "enum IMultiplexFeature.MultiplexSubcall",
                  "name": "id",
                  "type": "uint8"
                },
                {
                  "internalType": "uint256",
                  "name": "sellAmount",
                  "type": "uint256"
                },
                {
                  "internalType": "bytes",
                  "name": "data",
                  "type": "bytes"
                }
              ],
              "internalType": "struct IMultiplexFeature.BatchSellSubcall[]",
              "name": "calls",
              "type": "tuple[]"
            },
            {
              "internalType": "bool",
              "name": "useSelfBalance",
              "type": "bool"
            },
            {
              "internalType": "address",
              "name": "recipient",
              "type": "address"
            },
            {
              "internalType": "address",
              "name": "payer",
              "type": "address"
            }
          ],
          "internalType": "struct IMultiplexFeature.BatchSellParams",
          "name": "params",
          "type": "tuple"
        },
        {
          "internalType": "uint256",
          "name": "minBuyAmount",
          "type": "uint256"
        }
      ],
      "name": "_multiplexBatchSell",
      "outputs": [
        {
          "internalType": "uint256",
          "name": "boughtAmount",
          "type": "uint256"
        }
      ],
      "stateMutability": "nonpayable",
      "type": "function"
    },
    {
      "inputs": [
        {
          "components": [
            {
              "internalType": "address[]",
              "name": "tokens",
              "type": "address[]"
            },
            {
              "internalType": "uint256",
              "name": "sellAmount",
              "type": "uint256"
            },
            {
              "components": [
                {
                  "internalType": "enum IMultiplexFeature.MultiplexSubcall",
                  "name": "id",
                  "type": "uint8"
                },
                {
                  "internalType": "bytes",
                  "name": "data",
                  "type": "bytes"
                }
              ],
              "internalType": "struct IMultiplexFeature.MultiHopSellSubcall[]",
              "name": "calls",
              "type": "tuple[]"
            },
            {
              "internalType": "bool",
              "name": "useSelfBalance",
              "type": "bool"
            },
            {
              "internalType": "address",
              "name": "recipient",
              "type": "address"
            },
            {
              "internalType": "address",
              "name": "payer",
              "type": "address"
            }
          ],
          "internalType": "struct IMultiplexFeature.MultiHopSellParams",
          "name": "params",
          "type": "tuple"
        },
        {
          "internalType": "uint256",
          "name": "minBuyAmount",
          "type": "uint256"
        }
      ],
      "name": "_multiplexMultiHopSell",
      "outputs": [
        {
          "internalType": "uint256",
          "name": "boughtAmount",
          "type": "uint256"
        }
      ],
      "stateMutability": "nonpayable",
      "type": "function"
    },
    {
      "inputs": [],
      "name": "migrate",
      "outputs": [
        {
          "internalType": "bytes4",
          "name": "success",
          "type": "bytes4"
        }
      ],
      "stateMutability": "nonpayable",
      "type": "function"
    },
    {
      "inputs": [
        {
          "internalType": "contract IERC20Token",
          "name": "outputToken",
          "type": "address"
        },
        {
          "components": [
            {
              "internalType": "enum IMultiplexFeature.MultiplexSubcall",
              "name": "id",
              "type": "uint8"
            },
            {
              "internalType": "uint256",
              "name": "sellAmount",
              "type": "uint256"
            },
            {
              "internalType": "bytes",
              "name": "data",
              "type": "bytes"
            }
          ],
          "internalType": "struct IMultiplexFeature.BatchSellSubcall[]",
          "name": "calls",
          "type": "tuple[]"
        },
        {
          "internalType": "uint256",
          "name": "minBuyAmount",
          "type": "uint256"
        }
      ],
      "name": "multiplexBatchSellEthForToken",
      "outputs": [
        {
          "internalType": "uint256",
          "name": "boughtAmount",
          "type": "uint256"
        }
      ],
      "stateMutability": "payable",
      "type": "function"
    },
    {
      "inputs": [
        {
          "internalType": "contract IERC20Token",
          "name": "inputToken",
          "type": "address"
        },
        {
          "components": [
            {
              "internalType": "enum IMultiplexFeature.MultiplexSubcall",
              "name": "id",
              "type": "uint8"
            },
            {
              "internalType": "uint256",
              "name": "sellAmount",
              "type": "uint256"
            },
            {
              "internalType": "bytes",
              "name": "data",
              "type": "bytes"
            }
          ],
          "internalType": "struct IMultiplexFeature.BatchSellSubcall[]",
          "name": "calls",
          "type": "tuple[]"
        },
        {
          "internalType": "uint256",
          "name": "sellAmount",
          "type": "uint256"
        },
        {
          "internalType": "uint256",
          "name": "minBuyAmount",
          "type": "uint256"
        }
      ],
      "name": "multiplexBatchSellTokenForEth",
      "outputs": [
        {
          "internalType": "uint256",
          "name": "boughtAmount",
          "type": "uint256"
        }
      ],
      "stateMutability": "nonpayable",
      "type": "function"
    },
    {
      "inputs": [
        {
          "internalType": "contract IERC20Token",
          "name": "inputToken",
          "type": "address"
        },
        {
          "internalType": "contract IERC20Token",
          "name": "outputToken",
          "type": "address"
        },
        {
          "components": [
            {
              "internalType": "enum IMultiplexFeature.MultiplexSubcall",
              "name": "id",
              "type": "uint8"
            },
            {
              "internalType": "uint256",
              "name": "sellAmount",
              "type": "uint256"
            },
            {
              "internalType": "bytes",
              "name": "data",
              "type": "bytes"
            }
          ],
          "internalType": "struct IMultiplexFeature.BatchSellSubcall[]",
          "name": "calls",
          "type": "tuple[]"
        },
        {
          "internalType": "uint256",
          "name": "sellAmount",
          "type": "uint256"
        },
        {
          "internalType": "uint256",
          "name": "minBuyAmount",
          "type": "uint256"
        }
      ],
      "name": "multiplexBatchSellTokenForToken",
      "outputs": [
        {
          "internalType": "uint256",
          "name": "boughtAmount",
          "type": "uint256"
        }
      ],
      "stateMutability": "nonpayable",
      "type": "function"
    },
    {
      "inputs": [
        {
          "internalType": "address[]",
          "name": "tokens",
          "type": "address[]"
        },
        {
          "components": [
            {
              "internalType": "enum IMultiplexFeature.MultiplexSubcall",
              "name": "id",
              "type": "uint8"
            },
            {
              "internalType": "bytes",
              "name": "data",
              "type": "bytes"
            }
          ],
          "internalType": "struct IMultiplexFeature.MultiHopSellSubcall[]",
          "name": "calls",
          "type": "tuple[]"
        },
        {
          "internalType": "uint256",
          "name": "minBuyAmount",
          "type": "uint256"
        }
      ],
      "name": "multiplexMultiHopSellEthForToken",
      "outputs": [
        {
          "internalType": "uint256",
          "name": "boughtAmount",
          "type": "uint256"
        }
      ],
      "stateMutability": "payable",
      "type": "function"
    },
    {
      "inputs": [
        {
          "internalType": "address[]",
          "name": "tokens",
          "type": "address[]"
        },
        {
          "components": [
            {
              "internalType": "enum IMultiplexFeature.MultiplexSubcall",
              "name": "id",
              "type": "uint8"
            },
            {
              "internalType": "bytes",
              "name": "data",
              "type": "bytes"
            }
          ],
          "internalType": "struct IMultiplexFeature.MultiHopSellSubcall[]",
          "name": "calls",
          "type": "tuple[]"
        },
        {
          "internalType": "uint256",
          "name": "sellAmount",
          "type": "uint256"
        },
        {
          "internalType": "uint256",
          "name": "minBuyAmount",
          "type": "uint256"
        }
      ],
      "name": "multiplexMultiHopSellTokenForEth",
      "outputs": [
        {
          "internalType": "uint256",
          "name": "boughtAmount",
          "type": "uint256"
        }
      ],
      "stateMutability": "nonpayable",
      "type": "function"
    },
    {
      "inputs": [
        {
          "internalType": "address[]",
          "name": "tokens",
          "type": "address[]"
        },
        {
          "components": [
            {
              "internalType": "enum IMultiplexFeature.MultiplexSubcall",
              "name": "id",
              "type": "uint8"
            },
            {
              "internalType": "bytes",
              "name": "data",
              "type": "bytes"
            }
          ],
          "internalType": "struct IMultiplexFeature.MultiHopSellSubcall[]",
          "name": "calls",
          "type": "tuple[]"
        },
        {
          "internalType": "uint256",
          "name": "sellAmount",
          "type": "uint256"
        },
        {
          "internalType": "uint256",
          "name": "minBuyAmount",
          "type": "uint256"
        }
      ],
      "name": "multiplexMultiHopSellTokenForToken",
      "outputs": [
        {
          "internalType": "uint256",
          "name": "boughtAmount",
          "type": "uint256"
        }
      ],
      "stateMutability": "nonpayable",
      "type": "function"
    }
  ],
  "bytecode": "0x6101a0604052680200000000000000006101605234801561001e575f5ffd5b5060405161504a38038061504a83398101604081905261003d9161012c565b3060809081526001600160a01b0395861660a0908152604080517f8b73c3c69bb8fe3d512ecc4cf759cc79239f7b179b0ffacaa9a75d522b39400f6020808301919091527f9e5dae0addaf20578aeb5d70341d092b53b4e14480ac5726438fd436df7ba427828401527f06c015bd22b4c69690933c1058878ebdfef31f9aaae40bbe86d8a09fe1b2972c606083015246948201949094529988168a8301528051808b03909201825260c0998a019052805191012090965291831660e052821661010052610120526101409290925216610180526101b0565b6001600160a01b0381168114610129575f5ffd5b50565b5f5f5f5f5f5f5f60e0888a031215610142575f5ffd5b875161014d81610115565b602089015190975061015e81610115565b604089015190965061016f81610115565b606089015190955061018081610115565b608089015190945061019181610115565b60a089015160c090990151979a96995094979396949593949392505050565b60805160a05160c05160e0516101005161012051610140516101605161018051614de26102685f395f81816105f0015281816106b001528181610798015281816108020152818161095001528181610dd80152610e5601525f60ee01525f6111a801525f61125801525f61116d01525f61121d01525f818161029c0152612c1201525f8181610c16015261265401525f818161032101528181610a5c015281816117d50152818161310e01526133a30152614de25ff3fe6080604052600436106100d9575f3560e01c806377725df61161007c5780639a2967d2116100575780639a2967d214610259578063ca35159a14610278578063dab400f31461028b578063f35b4733146102be575f5ffd5b806377725df6146101ee5780637a1eb1b91461020d5780638fd3ab801461022c575f5ffd5b806343475db9116100b757806343475db9146101555780635161b9661461017457806359517361146101875780636ae4b4f7146101a6575f5ffd5b8063031b905c146100dd5780630f3b31b2146101235780632450eb0f14610142575b5f5ffd5b3480156100e8575f5ffd5b506101107f000000000000000000000000000000000000000000000000000000000000000081565b6040519081526020015b60405180910390f35b34801561012e575f5ffd5b5061011061013d366004613935565b6102d1565b6101106101503660046139a7565b610316565b348015610160575f5ffd5b5061011061016f366004613b32565b6105c1565b610110610182366004613c03565b6105ed565b348015610192575f5ffd5b506101106101a1366004613c6f565b610761565b3480156101b1575f5ffd5b506101e16040518060400160405280601081526020016f4d756c7469706c65784665617475726560801b81525081565b60405161011a9190613d76565b3480156101f9575f5ffd5b50610110610208366004613d88565b61077f565b348015610218575f5ffd5b50610110610227366004613dcc565b61086b565b348015610237575f5ffd5b506102406108c0565b6040516001600160e01b0319909116815260200161011a565b348015610264575f5ffd5b50610110610273366004613935565b61094d565b6101106102863660046139a7565b610a51565b348015610296575f5ffd5b506101107f000000000000000000000000000000000000000000000000000000000000000081565b6101106102cc366004613e3a565b610dd5565b6040805160c081018252858152602081018490529081018490525f60608201819052336080830181905260a08301529061030b9083610ec9565b90505b949350505050565b5f6001600160a01b037f00000000000000000000000000000000000000000000000000000000000000001630036103cc5760405162461bcd60e51b815260206004820152604960248201527f4d756c7469706c65784c697175696469747950726f76696465723a3a5f62617460448201527f636853656c6c556e6973776170563245787465726e616c2f4f4e4c595f44454c6064820152681151d0551150d0531360ba1b608482015260a4015b60405180910390fd5b5f806103da85870187613e7d565b91509150600282511015801561042657506103f86020880188613ecb565b6001600160a01b0316825f8151811061041357610413613ee6565b60200260200101516001600160a01b0316145b8015610478575061043d6040880160208901613ecb565b6001600160a01b031682600184516104559190613f0e565b8151811061046557610465613ee6565b60200260200101516001600160a01b0316145b6104e35760405162461bcd60e51b815260206004820152603660248201527f4d756c7469706c6578556e697377617056323a3a5f626174636853656c6c556e604482015275697377617056322f494e56414c49445f544f4b454e5360501b60648201526084016103c3565b5f610522835f815181106104f9576104f9613ee6565b60200260200101518460018151811061051457610514613ee6565b60200260200101518461111a565b905061053460a0890160808a01613f21565b156105625761055d835f8151811061054e5761054e613ee6565b60200260200101518287611289565b610599565b610599835f8151811061057757610577613ee6565b60200260200101518960c00160208101906105929190613ecb565b838861130e565b6105b5838684846105b060c08e0160a08f01613ecb565b6113a3565b98975050505050505050565b5f3330146105da576105da6105d533611511565b611558565b6105e48383611560565b90505b92915050565b5f7f00000000000000000000000000000000000000000000000000000000000000006001600160a01b0316845f8151811061062a5761062a613ee6565b60200260200101516001600160a01b0316146106ae5760405162461bcd60e51b815260206004820152603b60248201527f4d756c7469706c6578466561747572653a3a6d756c7469706c65784d756c746960448201527f486f7053656c6c457468466f72546f6b656e2f4e4f545f57455448000000000060648201526084016103c3565b7f00000000000000000000000000000000000000000000000000000000000000006001600160a01b031663d0e30db0346040518263ffffffff1660e01b81526004015f604051808303818588803b158015610707575f5ffd5b505af1158015610719573d5f5f3e3d5ffd5b50506040805160c08101825288815234602082015290810187905260016060820152336080820181905260a082015261075793509150849050610ec9565b90505b9392505050565b5f333014610775576107756105d533611511565b6105e48383610ec9565b6040805160e0810182526001600160a01b0380871682527f0000000000000000000000000000000000000000000000000000000000000000166020820152908101839052606081018490525f608082018190523060a08301523360c0830152906107e99083611560565b604051632e1a7d4d60e01b8152600481018290529091507f00000000000000000000000000000000000000000000000000000000000000006001600160a01b031690632e1a7d4d906024015f604051808303815f87803b15801561084b575f5ffd5b505af115801561085d573d5f5f3e3d5ffd5b5050505061030e33826116eb565b6040805160e0810182526001600160a01b03808816825286166020820152908101839052606081018490525f608082018190523360a0830181905260c0830152906108b69083611560565b9695505050505050565b5f6108d163f35b473360e01b6117ae565b6108e1633bb92efb60e11b6117ae565b6108f1637a1eb1b960e01b6117ae565b6109016343475db960e01b6117ae565b6109116328b0dcb360e11b6117ae565b610921634d14b3e960e11b6117ae565b61093163079d98d960e11b6117ae565b610941635951736160e01b6117ae565b50632c64c5ef60e01b90565b5f7f00000000000000000000000000000000000000000000000000000000000000006001600160a01b031685600187516109879190613f0e565b8151811061099757610997613ee6565b60200260200101516001600160a01b031614610a1b5760405162461bcd60e51b815260206004820152603b60248201527f4d756c7469706c6578466561747572653a3a6d756c7469706c65784d756c746960448201527f486f7053656c6c546f6b656e466f724574682f4e4f545f57455448000000000060648201526084016103c3565b6040805160c081018252868152602081018590529081018590525f60608201523060808201523360a08201526107e99083610ec9565b5f6001600160a01b037f0000000000000000000000000000000000000000000000000000000000000000163003610b0a5760405162461bcd60e51b815260206004820152605160248201527f4d756c7469706c65784c697175696469747950726f76696465723a3a5f62617460448201527f636853656c6c4c697175696469747950726f766964657245787465726e616c2f60648201527013d3931657d111531151d0551150d05313607a1b608482015260a4016103c3565b5f80610b1885870187613f3c565b9092509050610b2d60a0880160808901613f21565b15610b4e57610b49610b426020890189613ecb565b8386611289565b610b75565b610b75610b5e6020890189613ecb565b610b6e60e08a0160c08b01613ecb565b848761130e565b5f610b866040890160208a01613ecb565b6001600160a01b03166370a08231610ba460c08b0160a08c01613ecb565b6040516001600160e01b031960e084901b1681526001600160a01b039091166004820152602401602060405180830381865afa158015610be6573d5f5f3e3d5ffd5b505050506040513d601f19601f82011682018060405250810190610c0a9190613f88565b90506001600160a01b037f00000000000000000000000000000000000000000000000000000000000000001663bb503e2184610c4960208c018c613ecb565b610c5960408d0160208e01613ecb565b610c6960c08e0160a08f01613ecb565b5f886040518763ffffffff1660e01b8152600401610c8c96959493929190613f9f565b5f604051808303815f87803b158015610ca3575f5ffd5b505af1158015610cb5573d5f5f3e3d5ffd5b50839250610ccc91505060408a0160208b01613ecb565b6001600160a01b03166370a08231610cea60c08c0160a08d01613ecb565b6040516001600160e01b031960e084901b1681526001600160a01b039091166004820152602401602060405180830381865afa158015610d2c573d5f5f3e3d5ffd5b505050506040513d601f19601f82011682018060405250810190610d509190613f88565b610d5a9190613f0e565b93507f40a6ba9513d09e3488135e0e0d10e2d4382b792720155b144cbea89ac9db6d34610d8a60208a018a613ecb565b610d9a60408b0160208c01613ecb565b8787878d60a0016020810190610db09190613ecb565b604051610dc296959493929190613fe1565b60405180910390a1505050949350505050565b5f7f00000000000000000000000000000000000000000000000000000000000000006001600160a01b031663d0e30db0346040518263ffffffff1660e01b81526004015f604051808303818588803b158015610e2f575f5ffd5b505af1158015610e41573d5f5f3e3d5ffd5b50505050506107576040518060e001604052807f00000000000000000000000000000000000000000000000000000000000000006001600160a01b03168152602001866001600160a01b03168152602001348152602001858152602001600115158152602001336001600160a01b03168152602001336001600160a01b031681525083611560565b5f8260400151516001610edc919061401b565b83515114610f5c5760405162461bcd60e51b815260206004820152604160248201527f4d756c7469706c6578466561747572653a3a5f6d756c7469706c65784d756c7460448201527f69486f7053656c6c2f4d49534d4154434845445f41525241595f4c454e4754486064820152605360f81b608482015260a4016103c3565b825180515f9190610f6f90600190613f0e565b81518110610f7f57610f7f613ee6565b602002602001015190505f816001600160a01b03166370a0823186608001516040518263ffffffff1660e01b8152600401610fc991906001600160a01b0391909116815260200190565b602060405180830381865afa158015610fe4573d5f5f3e3d5ffd5b505050506040513d601f19601f820116820180604052508101906110089190613f88565b90505f61101486611835565b60808701516040516370a0823160e01b81526001600160a01b0391821660048201529192505f9184918616906370a0823190602401602060405180830381865afa158015611064573d5f5f3e3d5ffd5b505050506040513d601f19601f820116820180604052508101906110889190613f88565b6110929190613f0e565b90506110a181835f0151611afc565b9450858510156111105760405162461bcd60e51b815260206004820152603460248201527f4d756c7469706c6578466561747572653a3a5f6d756c7469706c65784d756c746044820152731a521bdc14d95b1b0bd5539111549093d551d21560621b60648201526084016103c3565b5050505092915050565b5f5f5f846001600160a01b0316866001600160a01b03161061113d578486611140565b85855b9150915083156111fa576040516001600160601b0319606084811b8216602084015283901b1660348201527f000000000000000000000000000000000000000000000000000000000000000090604801604051602081830303815290604052805190602001207f00000000000000000000000000000000000000000000000000000000000000006040516020016111d99392919061402e565b604051602081830303815290604052805190602001205f1c9250505061075a565b6040516001600160601b0319606084811b8216602084015283901b1660348201527f000000000000000000000000000000000000000000000000000000000000000090604801604051602081830303815290604052805190602001207f00000000000000000000000000000000000000000000000000000000000000006040516020016111d99392919061402e565b306001600160a01b038416036112b15760405162461bcd60e51b81526004016103c390614061565b60405163a9059cbb60e01b81526001600160a01b03831660048201528160248201526020816044835f6001600160a01b0389165af13d6001835114602082101516811517821691508161130657805f843e8083fd5b505050505050565b306001600160a01b038516036113365760405162461bcd60e51b81526004016103c390614061565b6040516323b872dd60e01b81526001600160a01b03841660048201526001600160a01b03831660248201528160448201526020816064835f6001600160a01b038a165af13d6001835114602082101516811517821691508161139a57805f843e8083fd5b50505050505050565b5f805b600187516113b49190613f0e565b811015611507575f5f8883815181106113cf576113cf613ee6565b6020026020010151898460016113e5919061401b565b815181106113f5576113f5613ee6565b60200260200101519150915061140d8683838b611b11565b93505f5f826001600160a01b0316846001600160a01b03161061143157855f611434565b5f865b915091505f60028c516114479190613f0e565b86106114535787611481565b611481848d61146389600261401b565b8151811061147357611473613ee6565b60200260200101518c61111a565b604080515f8152602081019182905263022c0d9f60e01b9091529091506001600160a01b038a169063022c0d9f906114c290869086908690602481016140a5565b5f604051808303815f87803b1580156114d9575f5ffd5b505af11580156114eb573d5f5f3e3d5ffd5b50505050809850869a50505050505080806001019150506113a6565b5095945050505050565b604080516001600160a01b039290921660248084019190915281518084039091018152604490920190526020810180516001600160e01b031663f0ec779b60e01b17905290565b805160208201fd5b602082015160a08301516040516370a0823160e01b81526001600160a01b0391821660048201525f92839216906370a0823190602401602060405180830381865afa1580156115b1573d5f5f3e3d5ffd5b505050506040513d601f19601f820116820180604052508101906115d59190613f88565b90505f6115e185611d1b565b602086015160a08701516040516370a0823160e01b81526001600160a01b0391821660048201529293505f92859291909116906370a0823190602401602060405180830381865afa158015611638573d5f5f3e3d5ffd5b505050506040513d601f19601f8201168201806040525081019061165c9190613f88565b6116669190613f0e565b9050611676818360200151611afc565b9350848410156116e25760405162461bcd60e51b815260206004820152603160248201527f4d756c7469706c6578466561747572653a3a5f6d756c7469706c6578426174636044820152701a14d95b1b0bd5539111549093d551d215607a1b60648201526084016103c3565b50505092915050565b80156117aa575f826001600160a01b0316826040515f6040518083038185875af1925050503d805f811461173a576040519150601f19603f3d011682016040523d82523d5f602084013e61173f565b606091505b50509050806117a85760405162461bcd60e51b815260206004820152602f60248201527f466978696e546f6b656e5370656e6465723a3a5f7472616e736665724574682f60448201526e1514905394d1915497d19052531151608a1b60648201526084016103c3565b505b5050565b604051636eb224cb60e01b81526001600160e01b0319821660048201526001600160a01b037f00000000000000000000000000000000000000000000000000000000000000001660248201523090636eb224cb906044015f604051808303815f87803b15801561181c575f5ffd5b505af115801561182e573d5f5f3e3d5ffd5b5050505050565b604080516080810182525f80825260208201819052918101829052606081019190915260208201518152611869825f611fa2565b6001600160a01b0316602082015260608201511580156118a357508160a001516001600160a01b031681602001516001600160a01b031614155b156118dc576118dc825f01515f815181106118c0576118c0613ee6565b60200260200101518360a001518360200151856020015161130e565b816060015180156118fa575060208101516001600160a01b03163014155b1561192e5761192e825f01515f8151811061191757611917613ee6565b602002602001015182602001518460200151611289565b5f60608201525b816040015151816060015114611af7575f826040015182606001518151811061196057611960613ee6565b60200260200101519050611984838360600151600161197f919061401b565b611fa2565b6001600160a01b031660408301526003815160088111156119a7576119a76140d1565b036119c0576119bb828483602001516121fa565b611acb565b6004815160088111156119d5576119d56140d1565b036119e9576119bb8284836020015161236d565b6005815160088111156119fe576119fe6140d1565b03611a12576119bb82848360200151612570565b600781516008811115611a2757611a276140d1565b03611a3b576119bb828483602001516127aa565b600281516008811115611a5057611a506140d1565b03611a64576119bb828483602001516128bb565b60405162461bcd60e51b815260206004820152603660248201527f4d756c7469706c6578466561747572653a3a5f657865637574654d756c7469486044820152751bdc14d95b1b0bd253959053125117d4d55090d0531360521b60648201526084016103c3565b5060408101516001600160a01b0316602082015260608101805190611aef826140e5565b905250611935565b919050565b5f818310611b0a57816105e4565b5090919050565b5f5f8211611b995760405162461bcd60e51b815260206004820152604960248201527f4d756c7469706c6578556e697377617056323a3a5f636f6d70757465556e697360448201527f7761704f7574707574416d6f756e742f494e53554646494349454e545f494e50606482015268155517d05353d5539560ba1b608482015260a4016103c3565b5f5f866001600160a01b0316630902f1ac6040518163ffffffff1660e01b8152600401606060405180830381865afa158015611bd7573d5f5f3e3d5ffd5b505050506040513d601f19601f82011682018060405250810190611bfb9190614126565b506001600160701b031691506001600160701b031691505f82118015611c2057505f81115b611ca15760405162461bcd60e51b815260206004820152604660248201527f4d756c7469706c6578556e697377617056323a3a5f636f6d70757465556e697360448201527f7761704f7574707574416d6f756e742f494e53554646494349454e545f4c495160648201526555494449545960d01b608482015260a4016103c3565b5f5f866001600160a01b0316886001600160a01b031610611cc3578284611cc6565b83835b90925090505f611cd8876103e5614166565b90505f611ce58383614166565b90505f82611cf5866103e8614166565b611cff919061401b565b9050611d0b818361417d565b9c9b505050505050505050505050565b604080518082019091525f80825260208201525f5b8260600151518114611f2757604083015182511015611f27575f83606001518281518110611d6057611d60613ee6565b602002602001015190505f611d8182602001518660400151865f0151612a6c565b9050600182516008811115611d9857611d986140d1565b03611db257611dad8486846040015184612ae0565b611f12565b600282516008811115611dc757611dc76140d1565b03611ddc57611dad8486846040015184612e3a565b600382516008811115611df157611df16140d1565b03611e0657611dad848684604001518461310a565b600482516008811115611e1b57611e1b6140d1565b03611e3057611dad848684604001518461321e565b600582516008811115611e4557611e456140d1565b03611e5a57611dad848684604001518461339f565b600682516008811115611e6f57611e6f6140d1565b03611e8457611dad84868460400151846133e8565b600882516008811115611e9957611e996140d1565b03611eae57611dad8486846040015184613509565b60405162461bcd60e51b815260206004820152603360248201527f4d756c7469706c6578466561747572653a3a5f65786563757465426174636853604482015272195b1b0bd253959053125117d4d55090d05313606a1b60648201526084016103c3565b50508080611f1f906140e5565b915050611d30565b506040820151815114611af75760405162461bcd60e51b815260206004820152603960248201527f4d756c7469706c6578466561747572653a3a5f6578656375746542617463685360448201527f656c6c2f494e434f52524543545f414d4f554e545f534f4c440000000000000060648201526084016103c3565b5f8260400151518203611fba57506080820151612189565b5f83604001518381518110611fd157611fd1613ee6565b6020026020010151905060036008811115611fee57611fee6140d1565b81516008811115612001576120016140d1565b0361206b575f5f8260200151806020019051810190612020919061420b565b91509150612062825f8151811061203957612039613ee6565b60200260200101518360018151811061205457612054613ee6565b60200260200101518361111a565b93505050612187565b600581516008811115612080576120806140d1565b036120a557806020015180602001905181019061209d919061429b565b509150612187565b6004815160088111156120ba576120ba6140d1565b14806120d857506007815160088111156120d6576120d66140d1565b145b806120f557506002815160088111156120f3576120f36140d1565b145b15612123578215801561210a57508360600151155b1561211b578360a001519150612187565b309150612187565b60405162461bcd60e51b815260206004820152603360248201527f4d756c7469706c6578466561747572653a3a5f636f6d70757465486f7054617260448201527219d95d0bd253959053125117d4d55090d05313606a1b60648201526084016103c3565b505b6001600160a01b0381166105e75760405162461bcd60e51b815260206004820152603260248201527f4d756c7469706c6578466561747572653a3a5f636f6d70757465486f7054617260448201527119d95d0bd5105491d15517d254d7d395531360721b60648201526084016103c3565b5f5f82806020019051810190612210919061420b565b91509150600282511015801561226e5750835160608601518151811061223857612238613ee6565b60200260200101516001600160a01b0316825f8151811061225b5761225b613ee6565b60200260200101516001600160a01b0316145b80156122da57508351606086015161228790600161401b565b8151811061229757612297613ee6565b60200260200101516001600160a01b031682600184516122b79190613f0e565b815181106122c7576122c7613ee6565b60200260200101516001600160a01b0316145b61234c5760405162461bcd60e51b815260206004820152603960248201527f4d756c7469706c6578556e697377617056323a3a5f6d756c7469486f7053656c60448201527f6c556e697377617056322f494e56414c49445f544f4b454e530000000000000060648201526084016103c3565b61236482865f015183886020015189604001516113a3565b90945250505050565b5f6060306001600160a01b031685602001516001600160a01b03160361243a57845160408087015190513092634a931ba160e01b926123b3928892915f916024016142de565b60408051601f198184030181529181526020820180516001600160e01b03166001600160e01b03199094169390931790925290516123f19190614318565b5f604051808303815f865af19150503d805f811461242a576040519150601f19603f3d011682016040523d82523d5f602084013e61242f565b606091505b5090925090506124e8565b845160408087015160a087015191513093630b45321960e11b936124659389935f929060240161432e565b60408051601f198184030181529181526020820180516001600160e01b03166001600160e01b03199094169390931790925290516124a39190614318565b5f604051808303815f865af19150503d805f81146124dc576040519150601f19603f3d011682016040523d82523d5f602084013e6124e1565b606091505b5090925090505b811561250957808060200190518101906125029190613f88565b855261182e565b60405162461bcd60e51b815260206004820152603660248201527f4d756c7469706c6578556e697377617056333a3a5f6d756c7469486f7053656c6044820152751b155b9a5cddd85c158ccbd4d5d05417d1905253115160521b60648201526084016103c3565b5f825f015184606001518151811061258a5761258a613ee6565b602002602001015190505f835f0151856060015160016125aa919061401b565b815181106125ba576125ba613ee6565b602002602001015190505f5f848060200190518101906125da919061429b565b6040808a015190516370a0823160e01b81526001600160a01b0391821660048201529294509092505f91908516906370a0823190602401602060405180830381865afa15801561262c573d5f5f3e3d5ffd5b505050506040513d601f19601f820116820180604052508101906126509190613f88565b90507f00000000000000000000000000000000000000000000000000000000000000006001600160a01b031663bb503e218487878c604001515f886040518763ffffffff1660e01b81526004016126ac96959493929190613f9f565b5f604051808303815f87803b1580156126c3575f5ffd5b505af11580156126d5573d5f5f3e3d5ffd5b505089516040808c015190516370a0823160e01b81526001600160a01b0391821660048201529193508492508716906370a0823190602401602060405180830381865afa158015612728573d5f5f3e3d5ffd5b505050506040513d601f19601f8201168201806040525081019061274c9190613f88565b6127569190613f0e565b808a526040808b015190517f40a6ba9513d09e3488135e0e0d10e2d4382b792720155b144cbea89ac9db6d3492612797928a928a92879290918b9190613fe1565b60405180910390a1505050505050505050565b6040805160e0810182525f80825260208083018290529282018190526060808301526080820181905260a0820181905260c0820152825190916127f39184018101908401614370565b6060808301919091528351908501518151811061281257612812613ee6565b60209081029190910101516001600160a01b031681528251606085015161283a90600161401b565b8151811061284a5761284a613ee6565b6020908102919091018101516001600160a01b03169082015283516040820152606084015115158061287d575082606001515b1515608082015260408401516001600160a01b0390811660a0808401919091528401511660c08201526128af81611d1b565b60200151909352505050565b5f5f828060200190518101906128d19190614507565b91509150835f01518560600151815181106128ee576128ee613ee6565b60200260200101516001600160a01b031682602001516001600160a01b031614801561295757508351606086015161292790600161401b565b8151811061293757612937613ee6565b60200260200101516001600160a01b0316825f01516001600160a01b0316145b6129c95760405162461bcd60e51b815260206004820152603760248201527f4d756c7469706c65784f74634f726465723a3a5f6d756c7469486f7053656c6c60448201527f4f74634f726465722f494e56414c49445f544f4b454e5300000000000000000060648201526084016103c3565b5f5f306001600160a01b031663e4ba843985856129e88b5f01516135a8565b8b602001518b606001518d604001516040518763ffffffff1660e01b8152600401612a18969594939291906145fd565b60408051808303815f875af1158015612a33573d5f5f3e3d5ffd5b505050506040513d601f19601f82011682018060405250810190612a5791906146fb565b6001600160801b031690975250505050505050565b5f600160ff1b80851603612ad257612acb670de0b6b3a7640000612aa8612a986001600160ff1b613f0e565b8716670de0b6b3a7640000611afc565b612ab29086614166565b612abc919061417d565b612ac68486613f0e565b611afc565b905061075a565b612acb84612ac68486613f0e565b5f5f83806020019051810190612af69190614739565b91509150426001600160401b03168261010001516001600160401b031611612cc8575f612c5f612c02845f6040517fe593d3fdfa8b60e5e17a1b2204662ecbe15c23f2084b9ad5bae40359540a7da9815282516001600160a01b0316602082015260208301516001600160a01b0316604082015260408301516001600160801b0316606082015260608301516001600160801b0316608082015260808301516001600160a01b031660a082015260a08301516001600160a01b031660c082015260c08301516001600160a01b031660e082015260e08301516101008201526101008301516001600160401b03166101208201526101208301516101408201526101608120915050919050565b60405161190160f01b60208201527f00000000000000000000000000000000000000000000000000000000000000006022820152604281018290525f90606201604051602081830303815290604052805190602001209050919050565b6080840151610100850151604080518481526001600160a01b0390931660208401526001600160401b03909116908201529091507fd9ee00a67daf7d99c37893015dc900862c9a02650ef2d318697e502e5fb8bbe29060600160405180910390a1505050612e34565b845f01516001600160a01b031682602001516001600160a01b0316148015612d08575084602001516001600160a01b0316825f01516001600160a01b0316145b612d7a5760405162461bcd60e51b815260206004820152603960248201527f4d756c7469706c65785266713a3a5f626174636853656c6c5266714f7264657260448201527f2f5246515f4f524445525f494e56414c49445f544f4b454e530000000000000060648201526084016103c3565b3063aa6b21cd8383612d8b876135a8565b8960c001518a608001518b60a001516040518763ffffffff1660e01b8152600401612dbb9695949392919061480c565b60408051808303815f875af1925050508015612df4575060408051601f3d908101601f19168201909252612df1918101906146fb565b60015b15611306578751612e0f906001600160801b0384169061401b565b88526020880151612e2a906001600160801b0383169061401b565b6020890152505050505b50505050565b5f5f83806020019051810190612e509190614507565b91509150845f01516001600160a01b031682602001516001600160a01b0316148015612e94575084602001516001600160a01b0316825f01516001600160a01b0316145b612f065760405162461bcd60e51b815260206004820152603960248201527f4d756c7469706c65784f74633a3a5f626174636853656c6c4f74634f7264657260448201527f2f4f54435f4f524445525f494e56414c49445f544f4b454e530000000000000060648201526084016103c3565b60e082015160c01c6001600160401b034216811161304a575f612fe7612c02855f6040517f2f754524de756ae72459efbe1ec88c19a745639821de528ac3fb88f9e65e35c8815282516001600160a01b0316602082015260208301516001600160a01b0316604082015260408301516001600160801b0316606082015260608301516001600160801b0316608082015260808301516001600160a01b031660a082015260a08301516001600160a01b031660c082015260c08301516001600160a01b031660e082015260e08301516101008201526101208120915050919050565b6080850151604080518381526001600160a01b0390921660208301526001600160401b038516908201529091507f5574c085411e1dce1414a21a43f286a7bc07de97b0aa6b9143fd5dca66faa5839060600160405180910390a150505050612e34565b3063e4ba8439848461305b886135a8565b8a60c001518b608001518c60a001516040518763ffffffff1660e01b815260040161308b969594939291906145fd565b60408051808303815f875af19250505080156130c4575060408051601f3d908101601f191682019092526130c1918101906146fb565b60015b1561139a5788516130df906001600160801b0384169061401b565b895260208901516130fa906001600160801b0383169061401b565b60208a0152505050505050505050565b5f5f7f00000000000000000000000000000000000000000000000000000000000000006001600160a01b0316632450eb0f60e01b8686866040516024016131539392919061493f565b60408051601f198184030181529181526020820180516001600160e01b03166001600160e01b03199094169390931790925290516131919190614318565b5f60405180830381855af49150503d805f81146131c9576040519150601f19603f3d011682016040523d82523d5f602084013e6131ce565b606091505b50915091508115611306575f818060200190518101906131ee9190613f88565b87519091506131fe90859061401b565b8752602087015161321090829061401b565b602088015250505050505050565b5f60608460800151156132d75760a08501516040513091634a931ba160e01b9161325091889188915f916024016142de565b60408051601f198184030181529181526020820180516001600160e01b03166001600160e01b031990941693909317909252905161328e9190614318565b5f604051808303815f865af19150503d805f81146132c7576040519150601f19603f3d011682016040523d82523d5f602084013e6132cc565b606091505b509092509050613384565b60a085015160c08601516040513092630b45321960e11b9261330192899289925f9260240161432e565b60408051601f198184030181529181526020820180516001600160e01b03166001600160e01b031990941693909317909252905161333f9190614318565b5f604051808303815f865af19150503d805f8114613378576040519150601f19603f3d011682016040523d82523d5f602084013e61337d565b606091505b5090925090505b8115611306575f818060200190518101906131ee9190613f88565b5f5f7f00000000000000000000000000000000000000000000000000000000000000006001600160a01b031663ca35159a60e01b8686866040516024016131539392919061493f565b60408051610100810182525f80825260208083018281529383018281526060808501848152608080870186905260a08088019390935260c080880187815260e08901978852908c01516001600160a01b0390811689528c5181169099528b86015189169094529088905289015115159091528701519093169052835190916134769185018101908501614a55565b60a0820152604051638aa6539b60e01b81523090638aa6539b9061349e908490600401614bc0565b6020604051808303815f875af19250505080156134d8575060408051601f3d908101601f191682019092526134d591810190613f88565b60015b1561182e5785516134ea90849061401b565b865260208601516134fc90829061401b565b6020870152505050505050565b6040805160c08101825260608082525f6020830181905292820181905281018290526080810182905260a08101919091528280602001905181019061354e9190614c61565b60408301528152602081018290526080808501511515606083015260a0808601516001600160a01b039081169284019290925260c0860151909116908201525f61359782611835565b5186519091506134ea90849061401b565b5f6001600160801b038211156135c6576135c66105d56003846135ca565b5090565b606063c996af7b60e01b83836040516024016135e7929190614d8e565b60408051601f198184030181529190526020810180516001600160e01b03166001600160e01b031990931692909217909152905092915050565b634e487b7160e01b5f52604160045260245ffd5b604080519081016001600160401b038111828210171561365757613657613621565b60405290565b604051606081016001600160401b038111828210171561365757613657613621565b60405160e081016001600160401b038111828210171561365757613657613621565b60405160c081016001600160401b038111828210171561365757613657613621565b60405161010081016001600160401b038111828210171561365757613657613621565b60405161014081016001600160401b038111828210171561365757613657613621565b604051601f8201601f191681016001600160401b038111828210171561373157613731613621565b604052919050565b5f6001600160401b0382111561375157613751613621565b5060051b60200190565b6001600160a01b038116811461376f575f5ffd5b50565b8035611af78161375b565b5f82601f83011261378c575f5ffd5b813561379f61379a82613739565b613709565b8082825260208201915060208360051b8601019250858311156137c0575f5ffd5b602085015b838110156115075780356137d88161375b565b8352602092830192016137c5565b6009811061376f575f5ffd5b5f6001600160401b0382111561380a5761380a613621565b50601f01601f191660200190565b5f82601f830112613827575f5ffd5b813561383561379a826137f2565b818152846020838601011115613849575f5ffd5b816020850160208301375f918101602001919091529392505050565b5f82601f830112613874575f5ffd5b813561388261379a82613739565b8082825260208201915060208360051b8601019250858311156138a3575f5ffd5b602085015b838110156115075780356001600160401b038111156138c5575f5ffd5b86016040818903601f190112156138da575f5ffd5b6138e2613635565b60208201356138f0816137e6565b815260408201356001600160401b0381111561390a575f5ffd5b6139198a602083860101613818565b60208301525080855250506020830192506020810190506138a8565b5f5f5f5f60808587031215613948575f5ffd5b84356001600160401b0381111561395d575f5ffd5b6139698782880161377d565b94505060208501356001600160401b03811115613984575f5ffd5b61399087828801613865565b949794965050505060408301359260600135919050565b5f5f5f5f606085870312156139ba575f5ffd5b84356001600160401b038111156139cf575f5ffd5b850160e081880312156139e0575f5ffd5b935060208501356001600160401b038111156139fa575f5ffd5b8501601f81018713613a0a575f5ffd5b80356001600160401b03811115613a1f575f5ffd5b876020828401011115613a30575f5ffd5b949760209190910196509394604001359392505050565b5f82601f830112613a56575f5ffd5b8135613a6461379a82613739565b8082825260208201915060208360051b860101925085831115613a85575f5ffd5b602085015b838110156115075780356001600160401b03811115613aa7575f5ffd5b86016060818903601f19011215613abc575f5ffd5b613ac461365d565b6020820135613ad2816137e6565b81526040820135602082015260608201356001600160401b03811115613af6575f5ffd5b613b058a602083860101613818565b60408301525084525060209283019201613a8a565b801515811461376f575f5ffd5b8035611af781613b1a565b5f5f60408385031215613b43575f5ffd5b82356001600160401b03811115613b58575f5ffd5b830160e08186031215613b69575f5ffd5b613b7161367f565b613b7a82613772565b8152613b8860208301613772565b60208201526040828101359082015260608201356001600160401b03811115613baf575f5ffd5b613bbb87828501613a47565b606083015250613bcd60808301613b27565b6080820152613bde60a08301613772565b60a0820152613bef60c08301613772565b60c082015295602094909401359450505050565b5f5f5f60608486031215613c15575f5ffd5b83356001600160401b03811115613c2a575f5ffd5b613c368682870161377d565b93505060208401356001600160401b03811115613c51575f5ffd5b613c5d86828701613865565b93969395505050506040919091013590565b5f5f60408385031215613c80575f5ffd5b82356001600160401b03811115613c95575f5ffd5b830160c08186031215613ca6575f5ffd5b613cae6136a1565b81356001600160401b03811115613cc3575f5ffd5b613ccf8782850161377d565b8252506020828101359082015260408201356001600160401b03811115613cf4575f5ffd5b613d0087828501613865565b604083015250613d1260608301613b27565b6060820152613d2360808301613772565b6080820152613d3460a08301613772565b60a082015295602094909401359450505050565b5f81518084528060208401602086015e5f602082860101526020601f19601f83011685010191505092915050565b602081525f6105e46020830184613d48565b5f5f5f5f60808587031215613d9b575f5ffd5b8435613da68161375b565b935060208501356001600160401b03811115613dc0575f5ffd5b61399087828801613a47565b5f5f5f5f5f60a08688031215613de0575f5ffd5b8535613deb8161375b565b94506020860135613dfb8161375b565b935060408601356001600160401b03811115613e15575f5ffd5b613e2188828901613a47565b9598949750949560608101359550608001359392505050565b5f5f5f60608486031215613e4c575f5ffd5b8335613e578161375b565b925060208401356001600160401b03811115613e71575f5ffd5b613c5d86828701613a47565b5f5f60408385031215613e8e575f5ffd5b82356001600160401b03811115613ea3575f5ffd5b613eaf8582860161377d565b9250506020830135613ec081613b1a565b809150509250929050565b5f60208284031215613edb575f5ffd5b813561075a8161375b565b634e487b7160e01b5f52603260045260245ffd5b634e487b7160e01b5f52601160045260245ffd5b818103818111156105e7576105e7613efa565b5f60208284031215613f31575f5ffd5b813561075a81613b1a565b5f5f60408385031215613f4d575f5ffd5b8235613f588161375b565b915060208301356001600160401b03811115613f72575f5ffd5b613f7e85828601613818565b9150509250929050565b5f60208284031215613f98575f5ffd5b5051919050565b6001600160a01b03878116825286811660208301528581166040830152841660608201526080810183905260c060a082018190525f906105b590830184613d48565b6001600160a01b0396871681529486166020860152604085019390935260608401919091528316608083015290911660a082015260c00190565b808201808211156105e7576105e7613efa565b6001600160f81b0319815260609390931b6001600160601b03191660018401526015830191909152603582015260550190565b60208082526024908201527f466978696e546f6b656e5370656e6465722f43414e4e4f545f494e564f4b455f60408201526329a2a62360e11b606082015260800190565b84815283602082015260018060a01b0383166040820152608060608201525f6108b66080830184613d48565b634e487b7160e01b5f52602160045260245ffd5b5f600182016140f6576140f6613efa565b5060010190565b80516001600160701b0381168114611af7575f5ffd5b805163ffffffff81168114611af7575f5ffd5b5f5f5f60608486031215614138575f5ffd5b614141846140fd565b925061414f602085016140fd565b915061415d60408501614113565b90509250925092565b80820281158282048414176105e7576105e7613efa565b5f8261419757634e487b7160e01b5f52601260045260245ffd5b500490565b8051611af78161375b565b5f82601f8301126141b6575f5ffd5b81516141c461379a82613739565b8082825260208201915060208360051b8601019250858311156141e5575f5ffd5b602085015b838110156115075780516141fd8161375b565b8352602092830192016141ea565b5f5f6040838503121561421c575f5ffd5b82516001600160401b03811115614231575f5ffd5b61423d858286016141a7565b9250506020830151613ec081613b1a565b5f82601f83011261425d575f5ffd5b815161426b61379a826137f2565b81815284602083860101111561427f575f5ffd5b8160208501602083015e5f918101602001919091529392505050565b5f5f604083850312156142ac575f5ffd5b82516142b78161375b565b60208401519092506001600160401b038111156142d2575f5ffd5b613f7e8582860161424e565b608081525f6142f06080830187613d48565b60208301959095525060ff9290921660408301526001600160a01b0316606090910152919050565b5f82518060208501845e5f920191825250919050565b60a081525f61434060a0830188613d48565b60208301969096525060ff9390931660408401526001600160a01b03918216606084015216608090910152919050565b5f60208284031215614380575f5ffd5b81516001600160401b03811115614395575f5ffd5b8201601f810184136143a5575f5ffd5b80516143b361379a82613739565b8082825260208201915060208360051b8501019250868311156143d4575f5ffd5b602084015b838110156144695780516001600160401b038111156143f6575f5ffd5b85016060818a03601f1901121561440b575f5ffd5b61441361365d565b6020820151614421816137e6565b81526040820151602082015260608201516001600160401b03811115614445575f5ffd5b6144548b60208386010161424e565b604083015250845250602092830192016143d9565b509695505050505050565b80516001600160801b0381168114611af7575f5ffd5b5f6080828403121561449a575f5ffd5b604051608081016001600160401b03811182821017156144bc576144bc613621565b80604052508091508251600581106144d2575f5ffd5b8152602083015160ff811681146144e7575f5ffd5b602082015260408381015190820152606092830151920191909152919050565b5f5f82840361018081121561451a575f5ffd5b610100811215614528575f5ffd5b506145316136c3565b835161453c8161375b565b815261454a6020850161419c565b602082015261455b60408501614474565b604082015261456c60608501614474565b606082015261457d6080850161419c565b608082015261458e60a0850161419c565b60a082015261459f60c0850161419c565b60c082015260e0848101519082015291506145be84610100850161448a565b90509250929050565b8051600581106145d9576145d96140d1565b825260208181015160ff169083015260408082015190830152606090810151910152565b86516001600160a01b039081168252602080890151909116908201526040808801516001600160801b03169082015260608088015161020083019161464c908401826001600160801b03169052565b50608088015161466760808401826001600160a01b03169052565b5060a088015161468260a08401826001600160a01b03169052565b5060c088015161469d60c08401826001600160a01b03169052565b5060e088015160e08301526146b66101008301886145c7565b6001600160801b0386166101808301526001600160a01b0385166101a08301528315156101c08301526001600160a01b0383166101e08301525b979650505050505050565b5f5f6040838503121561470c575f5ffd5b61471583614474565b91506145be60208401614474565b80516001600160401b0381168114611af7575f5ffd5b5f5f8284036101c081121561474c575f5ffd5b61014081121561475a575f5ffd5b506147636136e6565b61476c8461419c565b815261477a6020850161419c565b602082015261478b60408501614474565b604082015261479c60608501614474565b60608201526147ad6080850161419c565b60808201526147be60a0850161419c565b60a08201526147cf60c0850161419c565b60c082015260e084810151908201526147eb6101008501614723565b610100820152610120848101519082015291506145be84610140850161448a565b86516001600160a01b031681526102408101602088015161483860208401826001600160a01b03169052565b50604088015161485360408401826001600160801b03169052565b50606088015161486e60608401826001600160801b03169052565b50608088015161488960808401826001600160a01b03169052565b5060a08801516148a460a08401826001600160a01b03169052565b5060c08801516148bf60c08401826001600160a01b03169052565b5060e088015160e08301526101008801516148e66101008401826001600160401b03169052565b506101208801516101208301526149016101408301886145c7565b6001600160801b0386166101c08301526001600160a01b0385166101e08301528315156102008301526001600160a01b0383166102208301526146f0565b606080825284516001600160a01b03908116838301526020808701519091166080840152604086015160a08401529085015160e060c0840152805161014084018190525f92610160600583901b86018101939091019190850190845b81811015614a005786850361015f1901835283518051600981106149c1576149c16140d1565b808752506020810151602087015260408101519050606060408701526149ea6060870182613d48565b955050602093840193929092019160010161499b565b505050506080860151151560e084015260a08601516001600160a01b0390811661010085015260c0870151166101208401528281036020840152614a448186613d48565b915050826040830152949350505050565b5f60208284031215614a65575f5ffd5b81516001600160401b03811115614a7a575f5ffd5b8201601f81018413614a8a575f5ffd5b8051614a9861379a82613739565b8082825260208201915060208360051b850101925086831115614ab9575f5ffd5b602084015b838110156144695780516001600160401b03811115614adb575f5ffd5b85016040818a03601f19011215614af0575f5ffd5b614af8613635565b614b0460208301614113565b815260408201516001600160401b03811115614b1e575f5ffd5b614b2d8b60208386010161424e565b6020830152508085525050602083019250602081019050614abe565b5f82825180855260208501945060208160051b830101602085015f5b83811015614bb457601f19858403018852815163ffffffff81511684526020810151905060406020850152614b9d6040850182613d48565b6020998a0199909450929092019150600101614b65565b50909695505050505050565b602080825282516001600160a01b039081168383015290830151166040808301919091528201515f90614bfe60608401826001600160a01b03169052565b5060608301516080830152608083015160a083015260a083015161010060c0840152614c2e610120840182614b49565b905060c0840151614c4360e085018215159052565b5060e08401516001600160a01b038116610100850152509392505050565b5f5f60408385031215614c72575f5ffd5b82516001600160401b03811115614c87575f5ffd5b614c93858286016141a7565b92505060208301516001600160401b03811115614cae575f5ffd5b8301601f81018513614cbe575f5ffd5b8051614ccc61379a82613739565b8082825260208201915060208360051b850101925087831115614ced575f5ffd5b602084015b83811015614d7f5780516001600160401b03811115614d0f575f5ffd5b85016040818b03601f19011215614d24575f5ffd5b614d2c613635565b6020820151614d3a816137e6565b815260408201516001600160401b03811115614d54575f5ffd5b614d638c60208386010161424e565b6020830152508085525050602083019250602081019050614cf2565b50809450505050509250929050565b6040810160048410614da257614da26140d1565b928152602001529056fea2646970667358221220f4074e26b50163db774c3679062f4db0438410b6a94451ebb8853fb1571fb66764736f6c634300081c0033",
  "linkReferences": {},
  "deployedLinkReferences": {}
}