{
  "_format": "hh-sol-artifact-1",
  "contractName": "OptimismBridgeAdapter",
  "sourceName": "contracts/src/transformers/bridges/OptimismBridgeAdapter.sol",
  "abi": [
    {
      "inputs": [
        {
          "internalType": "contract IEtherToken",
          "name": "weth",
          "type": "address"
        }
      ],
      "stateMutability": "nonpayable",
      "type": "constructor"
    },
    {
      "anonymous": false,
      "inputs": [
        {
          "indexed": false,
          "internalType": "bytes32",
          "name": "source",
          "type": "bytes32"
        },
        {
          "indexed": false,
          "internalType": "contract IERC20Token",
          "name": "inputToken",
          "type": "address"
        },
        {
          "indexed": false,
          "internalType": "contract IERC20Token",
          "name": "outputToken",
          "type": "address"
        },
        {
          "indexed": false,
          "internalType": "uint256",
          "name": "inputTokenAmount",
          "type": "uint256"
        },
        {
          "indexed": false,
          "internalType": "uint256",
          "name": "outputTokenAmount",
          "type": "uint256"
        }
      ],
      "name": "BridgeFill",
      "type": "event"
    },
    {
      "inputs": [
        {
          "internalType": "uint256",
          "name": "sellAmount",
          "type": "uint256"
        },
        {
          "internalType": "bytes",
          "name": "bridgeData",
          "type": "bytes"
        }
      ],
      "name": "_tradeSynthetix",
      "outputs": [
        {
          "internalType": "uint256",
          "name": "boughtAmount",
          "type": "uint256"
        }
      ],
      "stateMutability": "nonpayable",
      "type": "function"
    },
    {
      "inputs": [
        {
          "internalType": "contract IERC20Token",
          "name": "sellToken",
          "type": "address"
        },
        {
          "internalType": "contract IERC20Token",
          "name": "buyToken",
          "type": "address"
        },
        {
          "internalType": "uint256",
          "name": "sellAmount",
          "type": "uint256"
        },
        {
          "internalType": "bytes",
          "name": "bridgeData",
          "type": "bytes"
        }
      ],
      "name": "_tradeWOOFi",
      "outputs": [
        {
          "internalType": "uint256",
          "name": "boughtAmount",
          "type": "uint256"
        }
      ],
      "stateMutability": "nonpayable",
      "type": "function"
    },
    {
      "inputs": [
        {
          "internalType": "bytes32",
          "name": "source",
          "type": "bytes32"
        }
      ],
      "name": "isSupportedSource",
      "outputs": [
        {
          "internalType": "bool",
          "name": "isSupported",
          "type": "bool"
        }
      ],
      "stateMutability": "nonpayable",
      "type": "function"
    },
    {
      "inputs": [
        {
          "components": [
            {
              "internalType": "bytes32",
              "name": "source",
              "type": "bytes32"
            },
            {
              "internalType": "uint256",
              "name": "takerTokenAmount",
              "type": "uint256"
            },
            {
              "internalType": "uint256",
              "name": "makerTokenAmount",
              "type": "uint256"
            },
            {
              "internalType": "bytes",
              "name": "bridgeData",
              "type": "bytes"
            }
          ],
          "internalType": "struct IBridgeAdapter.BridgeOrder",
          "name": "order",
          "type": "tuple"
        },
        {
          "internalType": "contract IERC20Token",
          "name": "sellToken",
          "type": "address"
        },
        {
          "internalType": "contract IERC20Token",
          "name": "buyToken",
          "type": "address"
        },
        {
          "internalType": "uint256",
          "name": "sellAmount",
          "type": "uint256"
        }
      ],
      "name": "trade",
      "outputs": [
        {
          "internalType": "uint256",
          "name": "boughtAmount",
          "type": "uint256"
        }
      ],
      "stateMutability": "nonpayable",
      "type": "function"
    }
  ],
  "bytecode": "0x60a060405234801561000f575f5ffd5b5060405161264b38038061264b83398101604081905261002e916100f5565b6040805180820190915260088152674f7074696d69736d60c01b60208201528190600a90465f610539821480610065575081617a69145b806100705750816005145b8061007d57508162013881145b8061008a57508162014a33145b905083821415801561009a575080155b156100df57826040516020016100b09190610122565b60408051601f198184030181529082905262461bcd60e51b82526100d69160040161016d565b60405180910390fd5b505050506001600160a01b0316608052506101a2565b5f60208284031215610105575f5ffd5b81516001600160a01b038116811461011b575f5ffd5b9392505050565b5f82518060208501845e7f427269646765416461707465722e636f6e7374727563746f723a2077726f6e67920191825250680818da185a5b88125160ba1b6020820152602901919050565b602081525f82518060208401528060208501604085015e5f604082850101526040601f19601f83011684010191505092915050565b60805161247c6101cf5f395f818161074e0152818161079e0152818161095d0152610999015261247c5ff3fe608060405234801561000f575f5ffd5b506004361061004a575f3560e01c806302d2734f1461004e57806399a4d2d014610076578063e8275c8214610097578063f712a148146100aa575b5f5ffd5b61006161005c3660046117d7565b6100bd565b60405190151581526020015b60405180910390f35b6100896100843660046118f4565b610101565b60405190815260200161006d565b6100896100a536600461195e565b610135565b6100896100b83660046119c5565b610276565b5f6100e660405180608001604052805f81526020015f81526020015f8152602001606081525090565b8281525f6100f882828080600161028e565b95945050505050565b5f5f5f5f848060200190518101906101199190611a76565b92509250925061012b8383838961056b565b9695505050505050565b5f5f8280602001905181019061014b9190611aaa565b6040516370a0823160e01b81523060048201529091505f906001600160a01b038716906370a0823190602401602060405180830381865afa158015610192573d5f5f3e3d5ffd5b505050506040513d601f19601f820116820180604052508101906101b69190611acc565b90506101cc6001600160a01b03881683876106ab565b604051633ee101c160e11b81526001600160a01b0388811660048301528781166024830152604482018790525f606483015230608483015273bfdcbb4c05843163f491c24f9c0019c51078630460a4830152831690637dc203829060c4015b6020604051808303815f875af1158015610247573d5f5f3e3d5ffd5b505050506040513d601f19601f8201168201806040525081019061026b9190611acc565b979650505050505050565b5f610284858585855f61028e565b5095945050505050565b84515f90819060801c5f1981016102c95783156102b2575f60019250925050610561565b6102c28787878b60600151610733565b9250610507565b6013196001600160801b038216016102fe5783156102ee575f60019250925050610561565b6102c28787878b60600151610a8a565b6011196001600160801b03821601610332578315610323575f60019250925050610561565b6102c287868a60600151610c79565b600e196001600160801b03821601610366578315610357575f60019250925050610561565b6102c287868a60600151610de2565b601c196001600160801b0382160161039b57831561038b575f60019250925050610561565b6102c28787878b60600151610f02565b601d196001600160801b038216016103ce5783156103c0575f60019250925050610561565b6102c2858960600151610101565b6001600160801b0381166103ff5783156103ef575f60019250925050610561565b6102c28787878b6060015161100b565b6018196001600160801b03821601610432578315610424575f60019250925050610561565b6102c2858960600151611070565b601f196001600160801b03821601610467578315610457575f60019250925050610561565b6102c28787878b606001516112dc565b601e196001600160801b0382160161049c57831561048c575f60019250925050610561565b6102c28787878b60600151610135565b6020196001600160801b038216016104d05783156104c1575f60019250925050610561565b6102c287868a60600151611483565b6023196001600160801b038216016105075783156104f5575f60019250925050610561565b61050487868a60600151611543565b92505b8751604080519182526001600160a01b0389811660208401528816828201526060820187905260808201859052517fe59e71a14fe90157eedc866c4f8c767d3943d6b6b2e8cd64dddcc92ab4c55af89181900360a00190a1505b9550959350505050565b5f466001819003610604576040516344b3e92360e01b815260048101869052602481018490526044810185905261060b60f31b60648201525f60848201526001600160a01b038716906344b3e9239060a4016020604051808303815f875af11580156105d9573d5f5f3e3d5ffd5b505050506040513d601f19601f820116820180604052508101906105fd9190611acc565b91506106a2565b60405163018756bb60e51b8152600481018690526024810184905260448101859052735c80239d97e1eb216b5c3d8fba5de5be5d38e4c9606482015261060b60f31b60848201526001600160a01b038716906330ead7609060a4016020604051808303815f875af115801561067b573d5f5f3e3d5ffd5b505050506040513d601f19601f8201168201806040525081019061069f9190611acc565b91505b50949350505050565b604051636eb1769f60e11b81523060048201526001600160a01b03838116602483015282919085169063dd62ed3e90604401602060405180830381865afa1580156106f8573d5f5f3e3d5ffd5b505050506040513d601f19601f8201168201806040525081019061071c9190611acc565b101561072e5761072e83835f19611629565b505050565b5f5f828060200190518101906107499190611b62565b90505f7f00000000000000000000000000000000000000000000000000000000000000006001600160a01b0316876001600160a01b0316036108025750604051632e1a7d4d60e01b81526004810185905284907f00000000000000000000000000000000000000000000000000000000000000006001600160a01b031690632e1a7d4d906024015f604051808303815f87803b1580156107e7575f5ffd5b505af11580156107f9573d5f5f3e3d5ffd5b50505050610819565b8151610819906001600160a01b03891690876106ab565b6040516370a0823160e01b81523060048201525f906001600160a01b038816906370a0823190602401602060405180830381865afa15801561085d573d5f5f3e3d5ffd5b505050506040513d601f19601f820116820180604052508101906108819190611acc565b8351602085015160408087015160608801519151600f91820b602482015291900b6044820152606481018a9052600160848201529293505f9283926001600160a01b031691869160a40160408051601f198184030181529181526020820180516001600160e01b03166001600160e01b03199094169390931790925290516109099190611b7c565b5f6040518083038185875af1925050503d805f8114610943576040519150601f19603f3d011682016040523d82523d5f602084013e610948565b606091505b50915091508161095b5761095b81611692565b7f00000000000000000000000000000000000000000000000000000000000000006001600160a01b0316896001600160a01b031603610a08574795507f00000000000000000000000000000000000000000000000000000000000000006001600160a01b031663d0e30db0876040518263ffffffff1660e01b81526004015f604051808303818588803b1580156109f0575f5ffd5b505af1158015610a02573d5f5f3e3d5ffd5b50505050505b6040516370a0823160e01b815230600482015283906001600160a01b038b16906370a0823190602401602060405180830381865afa158015610a4c573d5f5f3e3d5ffd5b505050506040513d601f19601f82011682018060405250810190610a709190611acc565b610a7a9190611ba6565b955050505050505b949350505050565b5f5f82806020019051810190610aa09190611b62565b8051909150610aba906001600160a01b03881690866106ab565b6040516370a0823160e01b81523060048201525f906001600160a01b038716906370a0823190602401602060405180830381865afa158015610afe573d5f5f3e3d5ffd5b505050506040513d601f19601f82011682018060405250810190610b229190611acc565b8251602084015160408086015160608701519151600f91820b602482015291900b604482015260648101899052600160848201529293505f9283926001600160a01b0316919060a40160408051601f198184030181529181526020820180516001600160e01b03166001600160e01b0319909416939093179092529051610ba99190611b7c565b5f604051808303815f865af19150503d805f8114610be2576040519150601f19603f3d011682016040523d82523d5f602084013e610be7565b606091505b509150915081610bfa57610bfa81611692565b6040516370a0823160e01b815230600482015283906001600160a01b038a16906370a0823190602401602060405180830381865afa158015610c3e573d5f5f3e3d5ffd5b505050506040513d601f19601f82011682018060405250810190610c629190611acc565b610c6c9190611ba6565b9998505050505050505050565b5f5f5f5f84806020019051810190610c919190611c06565b91945092509050610cac6001600160a01b03881684886106ab565b80600214610d4b576040805160a08101825283815230602082015242818301526060810188905260016080820152905163c04b8d5960e01b81526001600160a01b0385169163c04b8d5991610d049190600401611cdc565b6020604051808303815f875af1158015610d20573d5f5f3e3d5ffd5b505050506040513d601f19601f82011682018060405250810190610d449190611acc565b9350610dd8565b6040805160808101825283815230602082015280820188905260016060820152905163b858183f60e01b81526001600160a01b0385169163b858183f91610d959190600401611cee565b6020604051808303815f875af1158015610db1573d5f5f3e3d5ffd5b505050506040513d601f19601f82011682018060405250810190610dd59190611acc565b93505b5050509392505050565b5f5f82806020019051810190610df89190611b62565b8051909150610e12906001600160a01b03871690866106ab565b8051602082015160408084015160608501519151600f91820b602482015291900b604482015260648101879052600160848201524260a48201525f9283926001600160a01b039091169160c40160408051601f198184030181529181526020820180516001600160e01b03166001600160e01b0319909416939093179092529051610e9d9190611b7c565b5f604051808303815f865af19150503d805f8114610ed6576040519150601f19603f3d011682016040523d82523d5f602084013e610edb565b606091505b509150915081610eee57610eee81611692565b80806020019051810190610dd59190611acc565b5f5f5f83806020019051810190610f199190611d4a565b9092509050610f326001600160a01b03881683876106ab565b6001600160a01b0382166313dcfc59865f8a8a8630610f52426001611d7d565b6040516001600160e01b031960e08a901b168152600481019790975260248701959095526001600160a01b0393841660448701529183166064860152151560848501521660a483015260c482015260e4015f604051808303815f875af1158015610fbe573d5f5f3e3d5ffd5b505050506040513d5f823e601f3d908101601f19168201604052610fe59190810190611db2565b600181518110610ff757610ff7611e38565b602002602001015192505050949350505050565b5f5f5f838060200190518101906110229190611e4c565b909250905061103b6001600160a01b038816838761169a565b6040516319740ac160e21b81526001600160a01b038316906365d02b049061022b908a908a9030906001908890600401611e8f565b5f5f5f5f848060200190518101906110889190611f2d565b92509250925060608190506110ca8488835f815181106110aa576110aa611e38565b60200260200101516001600160a01b03166106ab9092919063ffffffff16565b86835f815181106110dd576110dd611e38565b602002602001015160600181815250505f81516001600160401b03811115611107576111076117ee565b604051908082528060200260200182016040528015611130578160200160208202803683370190505b5090505f5b815181101561116b576001600160ff1b0382828151811061115857611158611e38565b6020908102919091010152600101611135565b5060408051608081018252308082525f6020830181905292820152606081018290526001600160a01b0387169063945bcec990839088908790876111b0426001611d7d565b6040518763ffffffff1660e01b81526004016111d1969594939291906120f3565b5f604051808303815f875af11580156111ec573d5f5f3e3d5ffd5b505050506040513d5f823e601f3d908101601f191682016040526112139190810190611db2565b90505f81600183516112259190611ba6565b8151811061123557611235611e38565b6020026020010151131561129a5760405162461bcd60e51b815260206004820152602160248201527f556e65787065637465642042616c616e63657256324261746368206f757470756044820152601d60fa1b60648201526084015b60405180910390fd5b80600182516112a99190611ba6565b815181106112b9576112b9611e38565b60200260200101515f196112cd919061221e565b96505050505050505b92915050565b5f5f5f838060200190518101906112f3919061224d565b909250905061130c6001600160a01b03881683876106ab565b806001600160a01b0316866001600160a01b0316036113985760405163617ba03760e01b81526001600160a01b038881166004830152602482018790523060448301525f606483015283169063617ba037906084015f604051808303815f87803b158015611378575f5ffd5b505af115801561138a573d5f5f3e3d5ffd5b505050508492505050610a82565b806001600160a01b0316876001600160a01b03160361143057604051631a4ca37b60e21b81526001600160a01b038781166004830152602482018790523060448301528316906369328dec906064016020604051808303815f875af1158015611403573d5f5f3e3d5ffd5b505050506040513d601f19601f820116820180604052508101906114279190611acc565b92505050610a82565b60405162461bcd60e51b815260206004820152602260248201527f4d6978696e4161766556332f554e535550504f525445445f544f4b454e5f504160448201526124a960f11b6064820152608401611291565b5f5f5f8380602001905181019061149a9190611e4c565b90925090506114b36001600160a01b03871683876106ab565b6040805160a081018252828152306020820152428183015260608101879052600160808201529051635d946c2560e01b81526001600160a01b03841691635d946c25916115039190600401611cdc565b6020604051808303815f875af115801561151f573d5f5f3e3d5ffd5b505050506040513d601f19601f8201168201806040525081019061012b9190611acc565b5f5f5f8380602001905181019061155a9190612285565b90925090506115736001600160a01b03871683876106ab565b5f6001600160a01b03831663cac88ea987600185306115924284611d7d565b6040518663ffffffff1660e01b81526004016115b2959493929190612387565b5f604051808303815f875af11580156115cd573d5f5f3e3d5ffd5b505050506040513d5f823e601f3d908101601f191682016040526115f49190810190611db2565b905080600182516116059190611ba6565b8151811061161557611615611e38565b602002602001015193505050509392505050565b6040516001600160a01b038381166024830152604482018390525f919085169063095ea7b3906064015b604051602081830303815290604052915060e01b6020820180516001600160e01b038381831617835250505050905061168c84826116c8565b50505050565b805160208201fd5b6040516001600160a01b038381166024830152604482018390525f919085169063a9059cbb90606401611653565b5f5f836001600160a01b0316836040516116e29190611b7c565b5f604051808303815f865af19150503d805f811461171b576040519150601f19603f3d011682016040523d82523d5f602084013e611720565b606091505b5091509150816117335761173381611692565b80515f036117a4575f846001600160a01b03163b1161168c5760405162461bcd60e51b815260206004820152602760248201527f696e76616c696420746f6b656e20616464726573732c20636f6e7461696e73206044820152666e6f20636f646560c81b6064820152608401611291565b60208151106117ce57808060200190518101906117c1919061242d565b6117ce576117ce81611692565b61168c81611692565b5f602082840312156117e7575f5ffd5b5035919050565b634e487b7160e01b5f52604160045260245ffd5b604051608081016001600160401b0381118282101715611824576118246117ee565b60405290565b60405160a081016001600160401b0381118282101715611824576118246117ee565b604051601f8201601f191681016001600160401b0381118282101715611874576118746117ee565b604052919050565b5f6001600160401b03821115611894576118946117ee565b50601f01601f191660200190565b5f82601f8301126118b1575f5ffd5b81356118c46118bf8261187c565b61184c565b8181528460208386010111156118d8575f5ffd5b816020850160208301375f918101602001919091529392505050565b5f5f60408385031215611905575f5ffd5b8235915060208301356001600160401b03811115611921575f5ffd5b61192d858286016118a2565b9150509250929050565b6001600160a01b038116811461194b575f5ffd5b50565b803561195981611937565b919050565b5f5f5f5f60808587031215611971575f5ffd5b843561197c81611937565b9350602085013561198c81611937565b92506040850135915060608501356001600160401b038111156119ad575f5ffd5b6119b9878288016118a2565b91505092959194509250565b5f5f5f5f608085870312156119d8575f5ffd5b84356001600160401b038111156119ed575f5ffd5b8501608081880312156119fe575f5ffd5b611a06611802565b81358152602080830135908201526040808301359082015260608201356001600160401b03811115611a36575f5ffd5b611a42898285016118a2565b6060830152509450611a5890506020860161194e565b9250611a666040860161194e565b9396929550929360600135925050565b5f5f5f60608486031215611a88575f5ffd5b8351611a9381611937565b602085015160409095015190969495509392505050565b5f60208284031215611aba575f5ffd5b8151611ac581611937565b9392505050565b5f60208284031215611adc575f5ffd5b5051919050565b8051600f81900b8114611959575f5ffd5b5f60808284031215611b04575f5ffd5b611b0c611802565b90508151611b1981611937565b815260208201516001600160e01b031981168114611b35575f5ffd5b6020820152611b4660408301611ae3565b6040820152611b5760608301611ae3565b606082015292915050565b5f60808284031215611b72575f5ffd5b611ac58383611af4565b5f82518060208501845e5f920191825250919050565b634e487b7160e01b5f52601160045260245ffd5b818103818111156112d6576112d6611b92565b5f82601f830112611bc8575f5ffd5b8151611bd66118bf8261187c565b818152846020838601011115611bea575f5ffd5b8160208501602083015e5f918101602001919091529392505050565b5f5f5f60608486031215611c18575f5ffd5b8351611c2381611937565b60208501519093506001600160401b03811115611c3e575f5ffd5b611c4a86828701611bb9565b604095909501519396949550929392505050565b5f81518084528060208401602086015e5f602082860101526020601f19601f83011685010191505092915050565b5f815160a08452611ca060a0850182611c5e565b6020848101516001600160a01b031690860152604080850151908601526060808501519086015260809384015193909401929092525090919050565b602081525f611ac56020830184611c8c565b602081525f825160806020840152611d0960a0840182611c5e565b905060018060a01b03602085015116604084015260408401516060840152606084015160808401528091505092915050565b80518015158114611959575f5ffd5b5f5f60408385031215611d5b575f5ffd5b8251611d6681611937565b9150611d7460208401611d3b565b90509250929050565b808201808211156112d6576112d6611b92565b5f6001600160401b03821115611da857611da86117ee565b5060051b60200190565b5f60208284031215611dc2575f5ffd5b81516001600160401b03811115611dd7575f5ffd5b8201601f81018413611de7575f5ffd5b8051611df56118bf82611d90565b8082825260208201915060208360051b850101925086831115611e16575f5ffd5b6020840193505b8284101561012b578351825260209384019390910190611e1d565b634e487b7160e01b5f52603260045260245ffd5b5f5f60408385031215611e5d575f5ffd5b8251611e6881611937565b60208401519092506001600160401b03811115611e83575f5ffd5b61192d85828601611bb9565b6001600160a01b0386811682528581166020830152841660408201526060810183905260a0608082018190525f9061026b90830184611c5e565b5f82601f830112611ed8575f5ffd5b8151611ee66118bf82611d90565b8082825260208201915060208360051b860101925085831115611f07575f5ffd5b602085015b83811015610284578051611f1f81611937565b835260209283019201611f0c565b5f5f5f60608486031215611f3f575f5ffd5b8351611f4a81611937565b60208501519093506001600160401b03811115611f65575f5ffd5b8401601f81018613611f75575f5ffd5b8051611f836118bf82611d90565b8082825260208201915060208360051b850101925088831115611fa4575f5ffd5b602084015b8381101561204a5780516001600160401b03811115611fc6575f5ffd5b850160a0818c03601f19011215611fdb575f5ffd5b611fe361182a565b6020828101518252604080840151918301919091526060808401519183019190915260808301519082015260a08201516001600160401b03811115612026575f5ffd5b6120358d602083860101611bb9565b60808301525084525060209283019201611fa9565b508095505050505060408401516001600160401b0381111561206a575f5ffd5b61207686828701611ec9565b9150509250925092565b5f8151808452602084019350602083015f5b828110156120b95781516001600160a01b0316865260209586019590910190600101612092565b5093949350505050565b5f8151808452602084019350602083015f5b828110156120b95781518652602095860195909101906001016120d5565b5f61012082016002891061211557634e487b7160e01b5f52602160045260245ffd5b8883526101206020840152808851808352610140850191506101408160051b860101925060208a015f5b828110156121a65761013f198786030184528151805186526020810151602087015260408101516040870152606081015160608701526080810151905060a0608087015261219060a0870182611c5e565b955050602093840193919091019060010161213f565b5050505082810360408401526121bc8188612080565b86516001600160a01b03908116606086810191909152602089015115156080870152604089015190911660a0860152870151151560c0850152905082810360e084015261220981866120c3565b91505082610100830152979650505050505050565b8082025f8212600160ff1b8414161561223957612239611b92565b81810583148215176112d6576112d6611b92565b5f5f6040838503121561225e575f5ffd5b825161226981611937565b602084015190925061227a81611937565b809150509250929050565b5f5f60408385031215612296575f5ffd5b82516122a181611937565b60208401519092506001600160401b038111156122bc575f5ffd5b8301601f810185136122cc575f5ffd5b80516122da6118bf82611d90565b8082825260208201915060208360071b8501019250878311156122fb575f5ffd5b6020840193505b828410156123795760808489031215612319575f5ffd5b612321611802565b845161232c81611937565b8152602085015161233c81611937565b602082015261234d60408601611d3b565b6040820152606085015161236081611937565b6060820152825260809390930192602090910190612302565b809450505050509250929050565b5f60a0820187835286602084015260a0604084015280865180835260c0850191506020880192505f5b8181101561240357835180516001600160a01b03908116855260208083015182168187015260408084015115159087015260609283015190911691850191909152909301926080909201916001016123b0565b50506001600160a01b0386166060850152915061241d9050565b8260808301529695505050505050565b5f6020828403121561243d575f5ffd5b611ac582611d3b56fea264697066735822122050de5707173fde9cbb3b5f444829c74d2bbc3cb6f1196ede4b0c577caea7428564736f6c634300081c0033",
  "linkReferences": {},
  "deployedLinkReferences": {}
}