{
  "_format": "hh-sol-artifact-1",
  "contractName": "UniswapFeature",
  "sourceName": "contracts/src/features/UniswapFeature.sol",
  "abi": [
    {
      "inputs": [
        {
          "internalType": "contract IEtherToken",
          "name": "weth",
          "type": "address"
        }
      ],
      "stateMutability": "nonpayable",
      "type": "constructor"
    },
    {
      "inputs": [],
      "name": "FEATURE_NAME",
      "outputs": [
        {
          "internalType": "string",
          "name": "",
          "type": "string"
        }
      ],
      "stateMutability": "view",
      "type": "function"
    },
    {
      "inputs": [],
      "name": "FEATURE_VERSION",
      "outputs": [
        {
          "internalType": "uint256",
          "name": "",
          "type": "uint256"
        }
      ],
      "stateMutability": "view",
      "type": "function"
    },
    {
      "inputs": [],
      "name": "migrate",
      "outputs": [
        {
          "internalType": "bytes4",
          "name": "success",
          "type": "bytes4"
        }
      ],
      "stateMutability": "nonpayable",
      "type": "function"
    },
    {
      "inputs": [
        {
          "internalType": "contract IERC20Token[]",
          "name": "tokens",
          "type": "address[]"
        },
        {
          "internalType": "uint256",
          "name": "sellAmount",
          "type": "uint256"
        },
        {
          "internalType": "uint256",
          "name": "minBuyAmount",
          "type": "uint256"
        },
        {
          "internalType": "bool",
          "name": "isSushi",
          "type": "bool"
        }
      ],
      "name": "sellToUniswap",
      "outputs": [
        {
          "internalType": "uint256",
          "name": "buyAmount",
          "type": "uint256"
        }
      ],
      "stateMutability": "payable",
      "type": "function"
    }
  ],
  "bytecode": "0x60e06040526801000000010000000260a05234801561001c575f5ffd5b5060405161088c38038061088c83398101604081905261003b91610050565b306080526001600160a01b031660c05261007d565b5f60208284031215610060575f5ffd5b81516001600160a01b0381168114610076575f5ffd5b9392505050565b60805160a05160c0516107e66100a65f395f6101a101525f605301525f61068201526107e65ff3fe60806040526004361061003e575f3560e01c8063031b905c146100425780636ae4b4f7146100885780638fd3ab80146100ce578063d9627aa4146100fb575b5f5ffd5b34801561004d575f5ffd5b506100757f000000000000000000000000000000000000000000000000000000000000000081565b6040519081526020015b60405180910390f35b348015610093575f5ffd5b506100c16040518060400160405280600e81526020016d556e69737761704665617475726560901b81525081565b60405161007f91906106db565b3480156100d9575f5ffd5b506100e261010e565b6040516001600160e01b0319909116815260200161007f565b61007561010936600461071f565b61012b565b5f61011f6336589ea960e21b61065b565b50632c64c5ef60e01b90565b5f6001851161018c5760405162461bcd60e51b815260206004820152602260248201527f556e6973776170466561747572652f496e76616c6964546f6b656e734c656e676044820152610e8d60f31b60648201526084015b60405180910390fd5b506004803560248101610a0052610a208390527f0000000000000000000000000000000000000000000000000000000000000000610a405284915f19910135015f80805b8381101561041457610a00516020820201356001600160a01b0316610a00516020600184010201356001600160a01b0316935061020c84610479565b61021582610479565b10838061022c5761022686846104a1565b90505f94505b836102cb5773eeeeeeeeeeeeeeeeeeeeeeeeeeeeeeeeeeeeeeee831480156102b4578b3414610259575f5ffd5b610a40519350630d0e30db60e41b610b00525f5f6004610b008f885af1610282576102826105a8565b63a9059cbb60e01b610b005281610b04528b610b24525f5f6044610b005f885af16102af576102af6105a8565b6102c9565b34156102be575f5ffd5b6102c98c83866105b0565b505b630240bc6b60e21b610b00526040610c006004610b00845afa6102f0576102f06105a8565b60403d10156102fd575f5ffd5b8792505f808315801561031b57610c20519250610c00519150610328565b610c00519250610c205191505b50600160701b851115610339575f5ffd5b6103e585026103e883028101828202049a505050505f92508660018501145f811461038d5773eeeeeeeeeeeeeeeeeeeeeeeeeeeeeeeeeeeeeeee8714801561038357309450610387565b3394505b506103b3565b610a00516103ad906020600288010201356001600160a01b0316886104a1565b95508593505b5063022c0d9f60e01b610b00528180156103d6575f610b045288610b24526103e1565b88610b04525f610b24525b5082610b44526080610b64525f610b84525f5f60a4610b005f855af1610409576104096105a8565b5050506001016101d0565b505073eeeeeeeeeeeeeeeeeeeeeeeeeeeeeeeeeeeeeeee810361047257632e1a7d4d60e01b610b005282610b04525f5f6024610b005f610a40515af161045c5761045c6105a8565b5f5f5f610b0086335af1610472576104726105a8565b5050610602565b8073eeeeeeeeeeeeeeeeeeeeeeeeeeeeeeeeeeeeeeed19810161049c5750610a40515b919050565b6104aa81610479565b90506104b582610479565b91505f82821080156104d05783610b145282610b00526104db565b82610b145283610b00525b506028610b0c20610a20518015610540577fffc0aee478e3658e2610c5f7a4a2e1777ce9e4f2ac0000000000000000000000610b005281610b15527fe18a34eb0e04b04f7a0ac29a6e80748dca96319b42c54d679cb821dca90c6303610b3552610590565b7fff5c69bee701ef814a2b6a3edd4b1652cb9cc5aa6f0000000000000000000000610b005281610b15527f96e8ac4277198ff8b6f785478aa9a39f403cb768dd02cbee326c3e7da348845f610b35525b50506055610b00206001600160a01b03169392505050565b3d5f5f3e3d5ffd5b6323b872dd60e01b610b005233610b045281610b245282610b44526020610c006064610b005f855af13d6001610c00511460208210151681151782169150816105fb57805f5f3e805ffd5b5050505050565b828110156106525760405162461bcd60e51b815260206004820152601a60248201527f556e6973776170466561747572652f556e646572426f756768740000000000006044820152606401610183565b95945050505050565b604051636eb224cb60e01b81526001600160e01b0319821660048201526001600160a01b037f00000000000000000000000000000000000000000000000000000000000000001660248201523090636eb224cb906044015f604051808303815f87803b1580156106c9575f5ffd5b505af11580156105fb573d5f5f3e3d5ffd5b602081525f82518060208401528060208501604085015e5f604082850101526040601f19601f83011684010191505092915050565b8035801515811461049c575f5ffd5b5f5f5f5f5f60808688031215610733575f5ffd5b853567ffffffffffffffff811115610749575f5ffd5b8601601f81018813610759575f5ffd5b803567ffffffffffffffff81111561076f575f5ffd5b8860208260051b8401011115610783575f5ffd5b6020918201965094508601359250604086013591506107a460608701610710565b9050929550929590935056fea26469706673582212205ca29ec0b0cac8c6d1c8f597488172f18ff1098992ce2ca111446f5f7cb75ec064736f6c634300081c0033",
  "linkReferences": {},
  "deployedLinkReferences": {}
}