{
  "_format": "hh-sol-artifact-1",
  "contractName": "InitialMigration",
  "sourceName": "contracts/src/migrations/InitialMigration.sol",
  "abi": [
    {
      "inputs": [
        {
          "internalType": "address",
          "name": "initializeCaller_",
          "type": "address"
        }
      ],
      "stateMutability": "nonpayable",
      "type": "constructor"
    },
    {
      "inputs": [
        {
          "internalType": "address",
          "name": "owner",
          "type": "address"
        },
        {
          "components": [
            {
              "internalType": "contract SimpleFunctionRegistryFeature",
              "name": "registry",
              "type": "address"
            },
            {
              "internalType": "contract OwnableFeature",
              "name": "ownable",
              "type": "address"
            }
          ],
          "internalType": "struct InitialMigration.BootstrapFeatures",
          "name": "features",
          "type": "tuple"
        }
      ],
      "name": "bootstrap",
      "outputs": [
        {
          "internalType": "bytes4",
          "name": "success",
          "type": "bytes4"
        }
      ],
      "stateMutability": "nonpayable",
      "type": "function"
    },
    {
      "inputs": [
        {
          "internalType": "address payable",
          "name": "ethRecipient",
          "type": "address"
        }
      ],
      "name": "die",
      "outputs": [],
      "stateMutability": "nonpayable",
      "type": "function"
    },
    {
      "inputs": [],
      "name": "initializeCaller",
      "outputs": [
        {
          "internalType": "address",
          "name": "",
          "type": "address"
        }
      ],
      "stateMutability": "view",
      "type": "function"
    },
    {
      "inputs": [
        {
          "internalType": "address payable",
          "name": "owner",
          "type": "address"
        },
        {
          "internalType": "contract ZeroEx",
          "name": "zeroEx",
          "type": "address"
        },
        {
          "components": [
            {
              "internalType": "contract SimpleFunctionRegistryFeature",
              "name": "registry",
              "type": "address"
            },
            {
              "internalType": "contract OwnableFeature",
              "name": "ownable",
              "type": "address"
            }
          ],
          "internalType": "struct InitialMigration.BootstrapFeatures",
          "name": "features",
          "type": "tuple"
        }
      ],
      "name": "initializeZeroEx",
      "outputs": [
        {
          "internalType": "contract ZeroEx",
          "name": "_zeroEx",
          "type": "address"
        }
      ],
      "stateMutability": "nonpayable",
      "type": "function"
    }
  ],
  "bytecode": "0x60c0604052348015600e575f5ffd5b50604051610a67380380610a67833981016040819052602b91603f565b6001600160a01b03166080523060a052606a565b5f60208284031215604e575f5ffd5b81516001600160a01b03811681146063575f5ffd5b9392505050565b60805160a0516109d66100915f395f61053c01525f8181609c015261031901526109d65ff3fe608060405234801561000f575f5ffd5b506004361061004a575f3560e01c806308cf79341461004e5780635f136a4a14610097578063a23ce6ce146100e3578063c9353cb5146100f6575b5f5ffd5b61006161005c366004610840565b61010b565b6040517fffffffff0000000000000000000000000000000000000000000000000000000090911681526020015b60405180910390f35b6100be7f000000000000000000000000000000000000000000000000000000000000000081565b60405173ffffffffffffffffffffffffffffffffffffffff909116815260200161008e565b6100be6100f1366004610874565b610300565b6101096101043660046108b9565b610524565b005b80516040805160048152602481019091526020810180517bffffffffffffffffffffffffffffffffffffffffffffffffffffffff167ffb969b0a000000000000000000000000000000000000000000000000000000001790525f9161016f916105dc565b60208083015160408051600481526024810190915291820180517bffffffffffffffffffffffffffffffffffffffffffffffffffffffff167ffb969b0a000000000000000000000000000000000000000000000000000000001790526101d4916105dc565b6040517f9db64a400000000000000000000000000000000000000000000000000000000081527f0ee8be1b0000000000000000000000000000000000000000000000000000000060048201525f60248201523090639db64a40906044015f604051808303815f87803b158015610248575f5ffd5b505af115801561025a573d5f5f3e3d5ffd5b50506040517ff2fde38b00000000000000000000000000000000000000000000000000000000815273ffffffffffffffffffffffffffffffffffffffff8616600482015230925063f2fde38b91506024015f604051808303815f87803b1580156102c2575f5ffd5b505af11580156102d4573d5f5f3e3d5ffd5b507fd150751b000000000000000000000000000000000000000000000000000000009695505050505050565b5f3373ffffffffffffffffffffffffffffffffffffffff7f000000000000000000000000000000000000000000000000000000000000000016146103a5576040517f08c379a000000000000000000000000000000000000000000000000000000000815260206004820152601f60248201527f496e697469616c4d6967726174696f6e2f494e56414c49445f53454e4445520060448201526064015b60405180910390fd5b6040805173ffffffffffffffffffffffffffffffffffffffff868116602483015284518116604483015260208086015182166064808501919091528451808503909101815260849093018452820180517bffffffffffffffffffffffffffffffffffffffffffffffffffffffff167f08cf79340000000000000000000000000000000000000000000000000000000017905291517f73f208d5000000000000000000000000000000000000000000000000000000008152918516916373f208d591610475913091906004016108db565b5f604051808303815f87803b15801561048c575f5ffd5b505af115801561049e573d5f5f3e3d5ffd5b50506040517fc9353cb500000000000000000000000000000000000000000000000000000000815273ffffffffffffffffffffffffffffffffffffffff8716600482015230925063c9353cb591506024015f604051808303815f87803b158015610506575f5ffd5b505af1158015610518573d5f5f3e3d5ffd5b50949695505050505050565b3373ffffffffffffffffffffffffffffffffffffffff7f000000000000000000000000000000000000000000000000000000000000000016146105c3576040517f08c379a000000000000000000000000000000000000000000000000000000000815260206004820152601f60248201527f496e697469616c4d6967726174696f6e2f494e56414c49445f53454e44455200604482015260640161039c565b8073ffffffffffffffffffffffffffffffffffffffff16ff5b5f5f8373ffffffffffffffffffffffffffffffffffffffff1683604051610603919061094b565b5f60405180830381855af49150503d805f811461063b576040519150601f19603f3d011682016040523d82523d5f602084013e610640565b606091505b509150915081158061065457508051602014155b806106b6575080517fd150751b00000000000000000000000000000000000000000000000000000000906106919083016020908101908401610961565b7fffffffff000000000000000000000000000000000000000000000000000000001614155b156106cd576106cd6106c885836106d3565b61078e565b50505050565b60607fd19d65df6830e3cb0da1e12b8e9738e2dc473f830d8af813bcc031eb5a1675d183836040516024016107099291906108db565b604080517fffffffffffffffffffffffffffffffffffffffffffffffffffffffffffffffe08184030181529190526020810180517bffffffffffffffffffffffffffffffffffffffffffffffffffffffff167fffffffff0000000000000000000000000000000000000000000000000000000090931692909217909152905092915050565b805160208201fd5b73ffffffffffffffffffffffffffffffffffffffff811681146107b7575f5ffd5b50565b5f604082840312156107ca575f5ffd5b6040516040810181811067ffffffffffffffff82111715610812577f4e487b71000000000000000000000000000000000000000000000000000000005f52604160045260245ffd5b604052905080823561082381610796565b8152602083013561083381610796565b6020919091015292915050565b5f5f60608385031215610851575f5ffd5b823561085c81610796565b915061086b84602085016107ba565b90509250929050565b5f5f5f60808486031215610886575f5ffd5b833561089181610796565b925060208401356108a181610796565b91506108b085604086016107ba565b90509250925092565b5f602082840312156108c9575f5ffd5b81356108d481610796565b9392505050565b73ffffffffffffffffffffffffffffffffffffffff83168152604060208201525f82518060408401528060208501606085015e5f6060828501015260607fffffffffffffffffffffffffffffffffffffffffffffffffffffffffffffffe0601f8301168401019150509392505050565b5f82518060208501845e5f920191825250919050565b5f60208284031215610971575f5ffd5b81517fffffffff00000000000000000000000000000000000000000000000000000000811681146108d4575f5ffdfea2646970667358221220306abac59cb057cca7709dcb125138821d74b2801f393b6ec607fba1c9a09c5964736f6c634300081c0033",
  "linkReferences": {},
  "deployedLinkReferences": {}
}