{
  "_format": "hh-sol-artifact-1",
  "contractName": "WethTransformer",
  "sourceName": "contracts/src/transformers/WethTransformer.sol",
  "abi": [
    {
      "inputs": [
        {
          "internalType": "contract IEtherToken",
          "name": "weth_",
          "type": "address"
        }
      ],
      "stateMutability": "nonpayable",
      "type": "constructor"
    },
    {
      "inputs": [],
      "name": "deployer",
      "outputs": [
        {
          "internalType": "address",
          "name": "",
          "type": "address"
        }
      ],
      "stateMutability": "view",
      "type": "function"
    },
    {
      "inputs": [
        {
          "internalType": "address payable",
          "name": "ethRecipient",
          "type": "address"
        }
      ],
      "name": "die",
      "outputs": [],
      "stateMutability": "nonpayable",
      "type": "function"
    },
    {
      "inputs": [
        {
          "components": [
            {
              "internalType": "address payable",
              "name": "sender",
              "type": "address"
            },
            {
              "internalType": "address payable",
              "name": "recipient",
              "type": "address"
            },
            {
              "internalType": "bytes",
              "name": "data",
              "type": "bytes"
            }
          ],
          "internalType": "struct IERC20Transformer.TransformContext",
          "name": "context",
          "type": "tuple"
        }
      ],
      "name": "transform",
      "outputs": [
        {
          "internalType": "bytes4",
          "name": "success",
          "type": "bytes4"
        }
      ],
      "stateMutability": "nonpayable",
      "type": "function"
    },
    {
      "inputs": [],
      "name": "weth",
      "outputs": [
        {
          "internalType": "contract IEtherToken",
          "name": "",
          "type": "address"
        }
      ],
      "stateMutability": "view",
      "type": "function"
    }
  ],
  "bytecode": "0x60e060405234801561000f575f5ffd5b50604051610a0b380380610a0b83398101604081905261002e91610047565b336080523060a0526001600160a01b031660c052610074565b5f60208284031215610057575f5ffd5b81516001600160a01b038116811461006d575f5ffd5b9392505050565b60805160a05160c0516109456100c65f395f81816053015281816101760152818161028b015261033a01525f8181610452015261048001525f818160fd015281816103e8015261041601526109455ff3fe608060405234801561000f575f5ffd5b506004361061004a575f3560e01c80633fc8cef31461004e578063832b24bb1461009f578063c9353cb5146100e3578063d5f39488146100f8575b5f5ffd5b6100757f000000000000000000000000000000000000000000000000000000000000000081565b60405173ffffffffffffffffffffffffffffffffffffffff90911681526020015b60405180910390f35b6100b26100ad36600461070e565b61011f565b6040517fffffffff000000000000000000000000000000000000000000000000000000009091168152602001610096565b6100f66100f1366004610769565b6103d0565b005b6100757f000000000000000000000000000000000000000000000000000000000000000081565b5f8061012e6040840184610784565b81019061013b91906107ec565b805190915073ffffffffffffffffffffffffffffffffffffffff1673eeeeeeeeeeeeeeeeeeeeeeeeeeeeeeeeeeeeeeee141580156101c857507f000000000000000000000000000000000000000000000000000000000000000073ffffffffffffffffffffffffffffffffffffffff16815f015173ffffffffffffffffffffffffffffffffffffffff1614155b1561021f5761021f61021a5f6101e16040870187610784565b8080601f0160208091040260200160405190810160405280939291908181526020018383808284375f920191909152506104bd92505050565b610579565b60208101516001810161025157815161024e9073ffffffffffffffffffffffffffffffffffffffff1630610581565b90505b80156103a757815173ffffffffffffffffffffffffffffffffffffffff1673eeeeeeeeeeeeeeeeeeeeeeeeeeeeeeeeeeeeeeee0361030b577f000000000000000000000000000000000000000000000000000000000000000073ffffffffffffffffffffffffffffffffffffffff1663d0e30db0826040518263ffffffff1660e01b81526004015f604051808303818588803b1580156102ef575f5ffd5b505af1158015610301573d5f5f3e3d5ffd5b50505050506103a7565b6040517f2e1a7d4d000000000000000000000000000000000000000000000000000000008152600481018290527f000000000000000000000000000000000000000000000000000000000000000073ffffffffffffffffffffffffffffffffffffffff1690632e1a7d4d906024015f604051808303815f87803b158015610390575f5ffd5b505af11580156103a2573d5f5f3e3d5ffd5b505050505b507f13c9929e000000000000000000000000000000000000000000000000000000009392505050565b3373ffffffffffffffffffffffffffffffffffffffff7f0000000000000000000000000000000000000000000000000000000000000000161461043a5761043a61021a337f0000000000000000000000000000000000000000000000000000000000000000610666565b3073ffffffffffffffffffffffffffffffffffffffff7f000000000000000000000000000000000000000000000000000000000000000016146104a4576104a461021a307f00000000000000000000000000000000000000000000000000000000000000006106ba565b8073ffffffffffffffffffffffffffffffffffffffff16ff5b60607f505ff6a4f24a0aa989a95ffe4c8d435d76fb30dea162a3e3022e749867722deb83836040516024016104f3929190610869565b604080517fffffffffffffffffffffffffffffffffffffffffffffffffffffffffffffffe08184030181529190526020810180517bffffffffffffffffffffffffffffffffffffffffffffffffffffffff167fffffffff000000000000000000000000000000000000000000000000000000009093169290921790915290505b92915050565b805160208201fd5b5f73eeeeeeeeeeeeeeeeeeeeeeeeeeeeeeeeeeeeeeee73ffffffffffffffffffffffffffffffffffffffff8416036105d1575073ffffffffffffffffffffffffffffffffffffffff811631610573565b6040517f70a0823100000000000000000000000000000000000000000000000000000000815273ffffffffffffffffffffffffffffffffffffffff83811660048301528416906370a0823190602401602060405180830381865afa15801561063b573d5f5f3e3d5ffd5b505050506040513d601f19601f8201168201806040525081019061065f91906108f8565b9392505050565b60405173ffffffffffffffffffffffffffffffffffffffff8084166024830152821660448201526060907f5cec653b364cca3880afa73ceff506d0651d11d26abbbe4a56460aa933b21b08906064016104f3565b60405173ffffffffffffffffffffffffffffffffffffffff8084166024830152821660448201526060907fb5cf2cd09307d6c717473134badbb9761c2c97d7565566c2a71eba6cd6fc514d906064016104f3565b5f6020828403121561071e575f5ffd5b813567ffffffffffffffff811115610734575f5ffd5b82016060818503121561065f575f5ffd5b73ffffffffffffffffffffffffffffffffffffffff81168114610766575f5ffd5b50565b5f60208284031215610779575f5ffd5b813561065f81610745565b5f5f83357fffffffffffffffffffffffffffffffffffffffffffffffffffffffffffffffe18436030181126107b7575f5ffd5b83018035915067ffffffffffffffff8211156107d1575f5ffd5b6020019150368190038213156107e5575f5ffd5b9250929050565b5f60408284031280156107fd575f5ffd5b506040805190810167ffffffffffffffff81118282101715610846577f4e487b71000000000000000000000000000000000000000000000000000000005f52604160045260245ffd5b604052823561085481610745565b81526020928301359281019290925250919050565b5f6002841061089f577f4e487b71000000000000000000000000000000000000000000000000000000005f52602160045260245ffd5b8382526040602083015282518060408401528060208501606085015e5f6060828501015260607fffffffffffffffffffffffffffffffffffffffffffffffffffffffffffffffe0601f8301168401019150509392505050565b5f60208284031215610908575f5ffd5b505191905056fea26469706673582212208ca8d8ea854e077761d934ff617102a546ebe6bc7103cbe577c5d498424e216c64736f6c634300081c0033",
  "linkReferences": {},
  "deployedLinkReferences": {}
}