{
  "_format": "hh-sol-artifact-1",
  "contractName": "WethTransformer",
  "sourceName": "contracts/src/transformers/WethTransformer.sol",
  "abi": [
    {
      "inputs": [
        {
          "internalType": "contract IEtherToken",
          "name": "weth_",
          "type": "address"
        }
      ],
      "stateMutability": "nonpayable",
      "type": "constructor"
    },
    {
      "inputs": [],
      "name": "deployer",
      "outputs": [
        {
          "internalType": "address",
          "name": "",
          "type": "address"
        }
      ],
      "stateMutability": "view",
      "type": "function"
    },
    {
      "inputs": [
        {
          "internalType": "address payable",
          "name": "ethRecipient",
          "type": "address"
        }
      ],
      "name": "die",
      "outputs": [],
      "stateMutability": "nonpayable",
      "type": "function"
    },
    {
      "inputs": [
        {
          "components": [
            {
              "internalType": "address payable",
              "name": "sender",
              "type": "address"
            },
            {
              "internalType": "address payable",
              "name": "recipient",
              "type": "address"
            },
            {
              "internalType": "bytes",
              "name": "data",
              "type": "bytes"
            }
          ],
          "internalType": "struct IERC20Transformer.TransformContext",
          "name": "context",
          "type": "tuple"
        }
      ],
      "name": "transform",
      "outputs": [
        {
          "internalType": "bytes4",
          "name": "success",
          "type": "bytes4"
        }
      ],
      "stateMutability": "nonpayable",
      "type": "function"
    },
    {
      "inputs": [],
      "name": "weth",
      "outputs": [
        {
          "internalType": "contract IEtherToken",
          "name": "",
          "type": "address"
        }
      ],
      "stateMutability": "view",
      "type": "function"
    }
  ],
  "bytecode": "0x60e060405234801561000f575f5ffd5b5060405161081238038061081283398101604081905261002e91610047565b336080523060a0526001600160a01b031660c052610074565b5f60208284031215610057575f5ffd5b81516001600160a01b038116811461006d575f5ffd5b9392505050565b60805160a05160c05161074c6100c65f395f81816053015281816101440152818161022501526102ae01525f818161038601526103b401525f818160d8015281816103290152610357015261074c5ff3fe608060405234801561000f575f5ffd5b506004361061004a575f3560e01c80633fc8cef31461004e578063832b24bb14610092578063c9353cb5146100be578063d5f39488146100d3575b5f5ffd5b6100757f000000000000000000000000000000000000000000000000000000000000000081565b6040516001600160a01b0390911681526020015b60405180910390f35b6100a56100a0366004610590565b6100fa565b6040516001600160e01b03199091168152602001610089565b6100d16100cc3660046105de565b61031e565b005b6100757f000000000000000000000000000000000000000000000000000000000000000081565b5f8061010960408401846105f9565b8101906101169190610643565b80519091506001600160a01b031673eeeeeeeeeeeeeeeeeeeeeeeeeeeeeeeeeeeeeeee1415801561017c57507f00000000000000000000000000000000000000000000000000000000000000006001600160a01b0316815f01516001600160a01b031614155b156101d3576101d36101ce5f61019560408701876105f9565b8080601f0160208091040260200160405190810160405280939291908181526020018383808284375f920191909152506103e492505050565b610455565b6020810151600181016101f85781516101f5906001600160a01b03163061045d565b90505b801561030e5781516001600160a01b031673eeeeeeeeeeeeeeeeeeeeeeeeeeeeeeeeeeeeeeee03610298577f00000000000000000000000000000000000000000000000000000000000000006001600160a01b031663d0e30db0826040518263ffffffff1660e01b81526004015f604051808303818588803b15801561027c575f5ffd5b505af115801561028e573d5f5f3e3d5ffd5b505050505061030e565b604051632e1a7d4d60e01b8152600481018290527f00000000000000000000000000000000000000000000000000000000000000006001600160a01b031690632e1a7d4d906024015f604051808303815f87803b1580156102f7575f5ffd5b505af1158015610309573d5f5f3e3d5ffd5b505050505b506309e4c94f60e11b9392505050565b336001600160a01b037f0000000000000000000000000000000000000000000000000000000000000000161461037b5761037b6101ce337f0000000000000000000000000000000000000000000000000000000000000000610502565b306001600160a01b037f000000000000000000000000000000000000000000000000000000000000000016146103d8576103d86101ce307f0000000000000000000000000000000000000000000000000000000000000000610549565b806001600160a01b0316ff5b60607f505ff6a4f24a0aa989a95ffe4c8d435d76fb30dea162a3e3022e749867722deb838360405160240161041a9291906106a7565b60408051601f198184030181529190526020810180516001600160e01b03166001600160e01b03199093169290921790915290505b92915050565b805160208201fd5b5f73eeeeeeeeeeeeeeeeeeeeeeeeeeeeeeeeeeeeeeee6001600160a01b0384160361049357506001600160a01b0381163161044f565b6040516370a0823160e01b81526001600160a01b0383811660048301528416906370a0823190602401602060405180830381865afa1580156104d7573d5f5f3e3d5ffd5b505050506040513d601f19601f820116820180604052508101906104fb91906106ff565b9392505050565b6040516001600160a01b038084166024830152821660448201526060907f5cec653b364cca3880afa73ceff506d0651d11d26abbbe4a56460aa933b21b089060640161041a565b6040516001600160a01b038084166024830152821660448201526060907fb5cf2cd09307d6c717473134badbb9761c2c97d7565566c2a71eba6cd6fc514d9060640161041a565b5f602082840312156105a0575f5ffd5b813567ffffffffffffffff8111156105b6575f5ffd5b8201606081850312156104fb575f5ffd5b6001600160a01b03811681146105db575f5ffd5b50565b5f602082840312156105ee575f5ffd5b81356104fb816105c7565b5f5f8335601e1984360301811261060e575f5ffd5b83018035915067ffffffffffffffff821115610628575f5ffd5b60200191503681900382131561063c575f5ffd5b9250929050565b5f6040828403128015610654575f5ffd5b506040805190810167ffffffffffffffff8111828210171561068457634e487b7160e01b5f52604160045260245ffd5b6040528235610692816105c7565b81526020928301359281019290925250919050565b5f600284106106c457634e487b7160e01b5f52602160045260245ffd5b8382526040602083015282518060408401528060208501606085015e5f606082850101526060601f19601f8301168401019150509392505050565b5f6020828403121561070f575f5ffd5b505191905056fea2646970667358221220e5dbc01c94ecbd03be68505783f4118c3da6c59e9e0194e873aac39e54971bd364736f6c634300081c0033",
  "linkReferences": {},
  "deployedLinkReferences": {}
}