{
  "_format": "hh-sol-artifact-1",
  "contractName": "BSCBridgeAdapter",
  "sourceName": "contracts/src/transformers/bridges/BSCBridgeAdapter.sol",
  "abi": [
    {
      "inputs": [
        {
          "internalType": "contract IEtherToken",
          "name": "weth",
          "type": "address"
        }
      ],
      "stateMutability": "nonpayable",
      "type": "constructor"
    },
    {
      "anonymous": false,
      "inputs": [
        {
          "indexed": false,
          "internalType": "bytes32",
          "name": "source",
          "type": "bytes32"
        },
        {
          "indexed": false,
          "internalType": "contract IERC20Token",
          "name": "inputToken",
          "type": "address"
        },
        {
          "indexed": false,
          "internalType": "contract IERC20Token",
          "name": "outputToken",
          "type": "address"
        },
        {
          "indexed": false,
          "internalType": "uint256",
          "name": "inputTokenAmount",
          "type": "uint256"
        },
        {
          "indexed": false,
          "internalType": "uint256",
          "name": "outputTokenAmount",
          "type": "uint256"
        }
      ],
      "name": "BridgeFill",
      "type": "event"
    },
    {
      "inputs": [
        {
          "internalType": "contract IERC20Token",
          "name": "sellToken",
          "type": "address"
        },
        {
          "internalType": "contract IERC20Token",
          "name": "buyToken",
          "type": "address"
        },
        {
          "internalType": "uint256",
          "name": "sellAmount",
          "type": "uint256"
        },
        {
          "internalType": "bytes",
          "name": "bridgeData",
          "type": "bytes"
        }
      ],
      "name": "_tradeWOOFi",
      "outputs": [
        {
          "internalType": "uint256",
          "name": "boughtAmount",
          "type": "uint256"
        }
      ],
      "stateMutability": "nonpayable",
      "type": "function"
    },
    {
      "inputs": [
        {
          "internalType": "bytes32",
          "name": "source",
          "type": "bytes32"
        }
      ],
      "name": "isSupportedSource",
      "outputs": [
        {
          "internalType": "bool",
          "name": "isSupported",
          "type": "bool"
        }
      ],
      "stateMutability": "nonpayable",
      "type": "function"
    },
    {
      "inputs": [
        {
          "components": [
            {
              "internalType": "bytes32",
              "name": "source",
              "type": "bytes32"
            },
            {
              "internalType": "uint256",
              "name": "takerTokenAmount",
              "type": "uint256"
            },
            {
              "internalType": "uint256",
              "name": "makerTokenAmount",
              "type": "uint256"
            },
            {
              "internalType": "bytes",
              "name": "bridgeData",
              "type": "bytes"
            }
          ],
          "internalType": "struct IBridgeAdapter.BridgeOrder",
          "name": "order",
          "type": "tuple"
        },
        {
          "internalType": "contract IERC20Token",
          "name": "sellToken",
          "type": "address"
        },
        {
          "internalType": "contract IERC20Token",
          "name": "buyToken",
          "type": "address"
        },
        {
          "internalType": "uint256",
          "name": "sellAmount",
          "type": "uint256"
        }
      ],
      "name": "trade",
      "outputs": [
        {
          "internalType": "uint256",
          "name": "boughtAmount",
          "type": "uint256"
        }
      ],
      "stateMutability": "nonpayable",
      "type": "function"
    }
  ],
  "bytecode": "0x60c060405234801561001057600080fd5b5060405161424e38038061424e83398181016040528101906100329190610203565b808160386040518060400160405280600381526020017f4253430000000000000000000000000000000000000000000000000000000000815250600046905060006105398214806100845750617a6982145b8061008f5750600582145b8061009c57506201388182145b806100a9575062014a3382145b90508382141580156100b9575080155b1561011a57826040516020016100cf9190610313565b6040516020818303038152906040526040517f08c379a00000000000000000000000000000000000000000000000000000000081526004016101119190610390565b60405180910390fd5b505050508073ffffffffffffffffffffffffffffffffffffffff1660808173ffffffffffffffffffffffffffffffffffffffff1681525050508073ffffffffffffffffffffffffffffffffffffffff1660a08173ffffffffffffffffffffffffffffffffffffffff168152505050506103b2565b600080fd5b600073ffffffffffffffffffffffffffffffffffffffff82169050919050565b60006101be82610193565b9050919050565b60006101d0826101b3565b9050919050565b6101e0816101c5565b81146101eb57600080fd5b50565b6000815190506101fd816101d7565b92915050565b6000602082840312156102195761021861018e565b5b6000610227848285016101ee565b91505092915050565b600081519050919050565b600081905092915050565b60005b83811015610264578082015181840152602081019050610249565b60008484015250505050565b600061027b82610230565b610285818561023b565b9350610295818560208601610246565b80840191505092915050565b7f427269646765416461707465722e636f6e7374727563746f723a2077726f6e6760008201527f20636861696e2049440000000000000000000000000000000000000000000000602082015250565b60006102fd60298361023b565b9150610308826102a1565b602982019050919050565b600061031f8284610270565b915061032a826102f0565b915081905092915050565b600082825260208201905092915050565b6000601f19601f8301169050919050565b600061036282610230565b61036c8185610335565b935061037c818560208601610246565b61038581610346565b840191505092915050565b600060208201905081810360008301526103aa8184610357565b905092915050565b60805160a051613e3f61040f6000396000818161106b015281816110be015281816111ee0152818161124a015281816113100152611363015260008181610775015281816107cb01528181610a610152610ab70152613e3f6000f3fe608060405234801561001057600080fd5b50600436106100415760003560e01c806302d2734f14610046578063e8275c8214610076578063f712a148146100a6575b600080fd5b610060600480360381019061005b9190612199565b6100d6565b60405161006d91906121e1565b60405180910390f35b610090600480360381019061008b91906123e8565b610108565b60405161009d919061247a565b60405180910390f35b6100c060048036038101906100bb9190612533565b6102c5565b6040516100cd919061247a565b60405180910390f35b60006100e0612124565b8281600001818152505060006100fb828283600060016102e2565b9050809350505050919050565b6000808280602001905181019061011f91906125f4565b905060008573ffffffffffffffffffffffffffffffffffffffff166370a08231306040518263ffffffff1660e01b815260040161015c9190612630565b602060405180830381865afa158015610179573d6000803e3d6000fd5b505050506040513d601f19601f8201168201806040525081019061019d9190612660565b90508673ffffffffffffffffffffffffffffffffffffffff1663095ea7b383876040518363ffffffff1660e01b81526004016101da92919061268d565b6020604051808303816000875af11580156101f9573d6000803e3d6000fd5b505050506040513d601f19601f8201168201806040525081019061021d91906126e2565b508173ffffffffffffffffffffffffffffffffffffffff16637dc2038288888860003073bfdcbb4c05843163f491c24f9c0019c5107863046040518763ffffffff1660e01b815260040161027696959493929190612754565b6020604051808303816000875af1158015610295573d6000803e3d6000fd5b505050506040513d601f19601f820116820180604052508101906102b99190612660565b92505050949350505050565b60006102d58585858560006102e2565b5080915050949350505050565b60008060006080886000015160001c901c905060016fffffffffffffffffffffffffffffffff16816fffffffffffffffffffffffffffffffff160361034c5783156103355760006001925092505061074e565b6103458787878b60600151610758565b9250610709565b60026fffffffffffffffffffffffffffffffff16816fffffffffffffffffffffffffffffffff16036103a257831561038c5760006001925092505061074e565b61039b86868a60600151610bcb565b9250610708565b60126fffffffffffffffffffffffffffffffff16816fffffffffffffffffffffffffffffffff16036103f85783156103e25760006001925092505061074e565b6103f187868a60600151610e27565b9250610707565b60066fffffffffffffffffffffffffffffffff16816fffffffffffffffffffffffffffffffff160361044f5783156104385760006001925092505061074e565b6104488787878b6060015161104e565b9250610706565b600a6fffffffffffffffffffffffffffffffff16816fffffffffffffffffffffffffffffffff16036104a557831561048f5760006001925092505061074e565b61049e87868a606001516113ed565b9250610705565b600b6fffffffffffffffffffffffffffffffff16816fffffffffffffffffffffffffffffffff16036104fb5783156104e55760006001925092505061074e565b6104f487868a606001516116be565b9250610704565b600f6fffffffffffffffffffffffffffffffff16816fffffffffffffffffffffffffffffffff160361055157831561053b5760006001925092505061074e565b61054a87868a60600151611868565b9250610703565b60136fffffffffffffffffffffffffffffffff16816fffffffffffffffffffffffffffffffff16036105a75783156105915760006001925092505061074e565b6105a086868a60600151611a29565b9250610702565b60216fffffffffffffffffffffffffffffffff16816fffffffffffffffffffffffffffffffff16036105fd5783156105e75760006001925092505061074e565b6105f687868a60600151611cd8565b9250610701565b601f6fffffffffffffffffffffffffffffffff16816fffffffffffffffffffffffffffffffff160361065457831561063d5760006001925092505061074e565b61064d8787878b60600151610108565b9250610700565b60256fffffffffffffffffffffffffffffffff16816fffffffffffffffffffffffffffffffff16036106ab5783156106945760006001925092505061074e565b6106a48787878b60600151611e38565b92506106ff565b60006fffffffffffffffffffffffffffffffff16816fffffffffffffffffffffffffffffffff16036106fe5783156106eb5760006001925092505061074e565b6106fb8787878b60600151611fef565b92505b5b5b5b5b5b5b5b5b5b5b5b7fe59e71a14fe90157eedc866c4f8c767d3943d6b6b2e8cd64dddcc92ab4c55af8886000015188888887604051610744959493929190612819565b60405180910390a1505b9550959350505050565b6000808280602001905181019061076f91906129a1565b905060007f000000000000000000000000000000000000000000000000000000000000000073ffffffffffffffffffffffffffffffffffffffff168773ffffffffffffffffffffffffffffffffffffffff1603610859578490507f000000000000000000000000000000000000000000000000000000000000000073ffffffffffffffffffffffffffffffffffffffff16632e1a7d4d866040518263ffffffff1660e01b8152600401610822919061247a565b600060405180830381600087803b15801561083c57600080fd5b505af1158015610850573d6000803e3d6000fd5b505050506108dd565b8673ffffffffffffffffffffffffffffffffffffffff1663095ea7b38360000151876040518363ffffffff1660e01b815260040161089892919061268d565b6020604051808303816000875af11580156108b7573d6000803e3d6000fd5b505050506040513d601f19601f820116820180604052508101906108db91906126e2565b505b60008673ffffffffffffffffffffffffffffffffffffffff166370a08231306040518263ffffffff1660e01b81526004016109189190612630565b602060405180830381865afa158015610935573d6000803e3d6000fd5b505050506040513d601f19601f820116820180604052508101906109599190612660565b9050600080846000015173ffffffffffffffffffffffffffffffffffffffff16848660200151876040015188606001518c600160405160240161099f9493929190612a25565b604051602081830303815290604052907bffffffffffffffffffffffffffffffffffffffffffffffffffffffff19166020820180517bffffffffffffffffffffffffffffffffffffffffffffffffffffffff8381831617835250505050604051610a099190612adb565b60006040518083038185875af1925050503d8060008114610a46576040519150601f19603f3d011682016040523d82523d6000602084013e610a4b565b606091505b509150915081610a5f57610a5e8161211c565b5b7f000000000000000000000000000000000000000000000000000000000000000073ffffffffffffffffffffffffffffffffffffffff168973ffffffffffffffffffffffffffffffffffffffff1603610b37574795507f000000000000000000000000000000000000000000000000000000000000000073ffffffffffffffffffffffffffffffffffffffff1663d0e30db0876040518263ffffffff1660e01b81526004016000604051808303818588803b158015610b1d57600080fd5b505af1158015610b31573d6000803e3d6000fd5b50505050505b828973ffffffffffffffffffffffffffffffffffffffff166370a08231306040518263ffffffff1660e01b8152600401610b719190612630565b602060405180830381865afa158015610b8e573d6000803e3d6000fd5b505050506040513d601f19601f82011682018060405250810190610bb29190612660565b610bbc9190612b21565b95505050505050949350505050565b60008060608084806020019051810190610be59190612c5b565b809250819450505080915050600281511015610c36576040517f08c379a0000000000000000000000000000000000000000000000000000000008152600401610c2d90612d3a565b60405180910390fd5b8573ffffffffffffffffffffffffffffffffffffffff168160018351610c5c9190612b21565b81518110610c6d57610c6c612d5a565b5b602002602001015173ffffffffffffffffffffffffffffffffffffffff1614610ccb576040517f08c379a0000000000000000000000000000000000000000000000000000000008152600401610cc290612dfb565b60405180910390fd5b80600081518110610cdf57610cde612d5a565b5b602002602001015173ffffffffffffffffffffffffffffffffffffffff1663095ea7b383876040518363ffffffff1660e01b8152600401610d2192919061268d565b6020604051808303816000875af1158015610d40573d6000803e3d6000fd5b505050506040513d601f19601f82011682018060405250810190610d6491906126e2565b5060008273ffffffffffffffffffffffffffffffffffffffff166338ed17398760018530426040518663ffffffff1660e01b8152600401610da9959493929190612f0a565b6000604051808303816000875af1158015610dc8573d6000803e3d6000fd5b505050506040513d6000823e3d601f19601f82011682018060405250810190610df19190613027565b90508060018251610e029190612b21565b81518110610e1357610e12612d5a565b5b602002602001015193505050509392505050565b60008060008084806020019051810190610e41919061311e565b9250925092508673ffffffffffffffffffffffffffffffffffffffff1663095ea7b384886040518363ffffffff1660e01b8152600401610e8292919061268d565b6020604051808303816000875af1158015610ea1573d6000803e3d6000fd5b505050506040513d601f19601f82011682018060405250810190610ec591906126e2565b5060028114610f8e578273ffffffffffffffffffffffffffffffffffffffff1663c04b8d596040518060a001604052808581526020013073ffffffffffffffffffffffffffffffffffffffff16815260200142815260200189815260200160018152506040518263ffffffff1660e01b8152600401610f44919061326b565b6020604051808303816000875af1158015610f63573d6000803e3d6000fd5b505050506040513d601f19601f82011682018060405250810190610f879190612660565b9350611044565b8273ffffffffffffffffffffffffffffffffffffffff1663b858183f60405180608001604052808581526020013073ffffffffffffffffffffffffffffffffffffffff16815260200189815260200160018152506040518263ffffffff1660e01b8152600401610ffe91906132f0565b6020604051808303816000875af115801561101d573d6000803e3d6000fd5b505050506040513d601f19601f820116820180604052508101906110419190612660565b93505b5050509392505050565b600080828060200190518101906110659190613350565b905060007f000000000000000000000000000000000000000000000000000000000000000073ffffffffffffffffffffffffffffffffffffffff168773ffffffffffffffffffffffffffffffffffffffff160361114f577f000000000000000000000000000000000000000000000000000000000000000073ffffffffffffffffffffffffffffffffffffffff16632e1a7d4d866040518263ffffffff1660e01b8152600401611115919061247a565b600060405180830381600087803b15801561112f57600080fd5b505af1158015611143573d6000803e3d6000fd5b505050508490506111cf565b8673ffffffffffffffffffffffffffffffffffffffff1663095ea7b383876040518363ffffffff1660e01b815260040161118a92919061268d565b6020604051808303816000875af11580156111a9573d6000803e3d6000fd5b505050506040513d601f19601f820116820180604052508101906111cd91906126e2565b505b8173ffffffffffffffffffffffffffffffffffffffff1663d5bcb9b5827f000000000000000000000000000000000000000000000000000000000000000073ffffffffffffffffffffffffffffffffffffffff168a73ffffffffffffffffffffffffffffffffffffffff16146112455789611248565b60005b7f000000000000000000000000000000000000000000000000000000000000000073ffffffffffffffffffffffffffffffffffffffff168a73ffffffffffffffffffffffffffffffffffffffff16146112a157896112a4565b60005b89600160006040518763ffffffff1660e01b81526004016112c995949392919061337d565b60206040518083038185885af11580156112e7573d6000803e3d6000fd5b50505050506040513d601f19601f8201168201806040525081019061130c9190612660565b92507f000000000000000000000000000000000000000000000000000000000000000073ffffffffffffffffffffffffffffffffffffffff168673ffffffffffffffffffffffffffffffffffffffff16036113e3577f000000000000000000000000000000000000000000000000000000000000000073ffffffffffffffffffffffffffffffffffffffff1663d0e30db0846040518263ffffffff1660e01b81526004016000604051808303818588803b1580156113c957600080fd5b505af11580156113dd573d6000803e3d6000fd5b50505050505b5050949350505050565b60008060008084806020019051810190611407919061344c565b9250925092508673ffffffffffffffffffffffffffffffffffffffff1663095ea7b383886040518363ffffffff1660e01b815260040161144892919061268d565b6020604051808303816000875af1158015611467573d6000803e3d6000fd5b505050506040513d601f19601f8201168201806040525081019061148b91906126e2565b508015611567578173ffffffffffffffffffffffffffffffffffffffff16638dae7333876001600067ffffffffffffffff8111156114cc576114cb6122bd565b5b6040519080825280601f01601f1916602001820160405280156114fe5781602001600182028036833780820191505090505b506040518463ffffffff1660e01b815260040161151d939291906134e9565b6020604051808303816000875af115801561153c573d6000803e3d6000fd5b505050506040513d601f19601f820116820180604052508101906115609190612660565b93506116b4565b8273ffffffffffffffffffffffffffffffffffffffff1663ca19ebd983886040518363ffffffff1660e01b81526004016115a2929190613548565b602060405180830381865afa1580156115bf573d6000803e3d6000fd5b505050506040513d601f19601f820116820180604052508101906115e39190612660565b93508173ffffffffffffffffffffffffffffffffffffffff1663e67ce7068588600067ffffffffffffffff81111561161e5761161d6122bd565b5b6040519080825280601f01601f1916602001820160405280156116505781602001600182028036833780820191505090505b506040518463ffffffff1660e01b815260040161166f93929190613571565b6020604051808303816000875af115801561168e573d6000803e3d6000fd5b505050506040513d601f19601f820116820180604052508101906116b29190612660565b505b5050509392505050565b6000806000838060200190518101906116d791906135ed565b915091508573ffffffffffffffffffffffffffffffffffffffff1663a9059cbb83876040518363ffffffff1660e01b815260040161171692919061268d565b6020604051808303816000875af1158015611735573d6000803e3d6000fd5b505050506040513d601f19601f8201168201806040525081019061175991906126e2565b50806117e0578173ffffffffffffffffffffffffffffffffffffffff1663dd93f59a306040518263ffffffff1660e01b81526004016117989190612630565b6020604051808303816000875af11580156117b7573d6000803e3d6000fd5b505050506040513d601f19601f820116820180604052508101906117db9190612660565b61185d565b8173ffffffffffffffffffffffffffffffffffffffff1663bd6015b4306040518263ffffffff1660e01b81526004016118199190612630565b6020604051808303816000875af1158015611838573d6000803e3d6000fd5b505050506040513d601f19601f8201168201806040525081019061185c9190612660565b5b925050509392505050565b6000808280602001905181019061187f91906136a5565b90508473ffffffffffffffffffffffffffffffffffffffff1663095ea7b38260000151866040518363ffffffff1660e01b81526004016118c092919061268d565b6020604051808303816000875af11580156118df573d6000803e3d6000fd5b505050506040513d601f19601f8201168201806040525081019061190391906126e2565b50600080826000015173ffffffffffffffffffffffffffffffffffffffff16836020015184604001518560600151896001426040516024016119499594939291906136d2565b604051602081830303815290604052907bffffffffffffffffffffffffffffffffffffffffffffffffffffffff19166020820180517bffffffffffffffffffffffffffffffffffffffffffffffffffffffff83818316178352505050506040516119b39190612adb565b6000604051808303816000865af19150503d80600081146119f0576040519150601f19603f3d011682016040523d82523d6000602084013e6119f5565b606091505b509150915081611a0957611a088161211c565b5b80806020019051810190611a1d9190612660565b93505050509392505050565b60008060608084806020019051810190611a439190613725565b809350819450829550505050600182511015611a94576040517f08c379a0000000000000000000000000000000000000000000000000000000008152600401611a8b90613822565b60405180910390fd5b60018251611aa29190613842565b815114611ae4576040517f08c379a0000000000000000000000000000000000000000000000000000000008152600401611adb906138e8565b60405180910390fd5b8673ffffffffffffffffffffffffffffffffffffffff168160018351611b0a9190612b21565b81518110611b1b57611b1a612d5a565b5b602002602001015173ffffffffffffffffffffffffffffffffffffffff1614611b79576040517f08c379a0000000000000000000000000000000000000000000000000000000008152600401611b709061397a565b60405180910390fd5b80600081518110611b8d57611b8c612d5a565b5b602002602001015173ffffffffffffffffffffffffffffffffffffffff1663095ea7b384886040518363ffffffff1660e01b8152600401611bcf92919061268d565b6020604051808303816000875af1158015611bee573d6000803e3d6000fd5b505050506040513d601f19601f82011682018060405250810190611c1291906126e2565b5060008373ffffffffffffffffffffffffffffffffffffffff1663ceb757d5886001868630426040518763ffffffff1660e01b8152600401611c5996959493929190613a38565b6000604051808303816000875af1158015611c78573d6000803e3d6000fd5b505050506040513d6000823e3d601f19601f82011682018060405250810190611ca19190613027565b90508060018251611cb29190612b21565b81518110611cc357611cc2612d5a565b5b60200260200101519450505050509392505050565b600080600083806020019051810190611cf19190613ae5565b915091508573ffffffffffffffffffffffffffffffffffffffff1663095ea7b383876040518363ffffffff1660e01b8152600401611d3092919061268d565b6020604051808303816000875af1158015611d4f573d6000803e3d6000fd5b505050506040513d601f19601f82011682018060405250810190611d7391906126e2565b508173ffffffffffffffffffffffffffffffffffffffff16635d946c256040518060a001604052808481526020013073ffffffffffffffffffffffffffffffffffffffff16815260200142815260200188815260200160018152506040518263ffffffff1660e01b8152600401611dea9190613bb7565b6020604051808303816000875af1158015611e09573d6000803e3d6000fd5b505050506040513d601f19601f82011682018060405250810190611e2d9190612660565b925050509392505050565b600080600083806020019051810190611e519190613c17565b915091508673ffffffffffffffffffffffffffffffffffffffff1663095ea7b383876040518363ffffffff1660e01b8152600401611e9092919061268d565b6020604051808303816000875af1158015611eaf573d6000803e3d6000fd5b505050506040513d601f19601f82011682018060405250810190611ed391906126e2565b508173ffffffffffffffffffffffffffffffffffffffff1663a5dcbcdf6040518061010001604052808a73ffffffffffffffffffffffffffffffffffffffff1681526020018973ffffffffffffffffffffffffffffffffffffffff1681526020018473ffffffffffffffffffffffffffffffffffffffff1681526020013073ffffffffffffffffffffffffffffffffffffffff1681526020014281526020018881526020016001815260200160008152506040518263ffffffff1660e01b8152600401611fa09190613cf9565b6020604051808303816000875af1158015611fbf573d6000803e3d6000fd5b505050506040513d601f19601f82011682018060405250810190611fe39190612660565b92505050949350505050565b6000806000838060200190518101906120089190613d53565b915091508673ffffffffffffffffffffffffffffffffffffffff1663a9059cbb83876040518363ffffffff1660e01b815260040161204792919061268d565b6020604051808303816000875af1158015612066573d6000803e3d6000fd5b505050506040513d601f19601f8201168201806040525081019061208a91906126e2565b508173ffffffffffffffffffffffffffffffffffffffff166365d02b048888306001866040518663ffffffff1660e01b81526004016120cd959493929190613daf565b6020604051808303816000875af11580156120ec573d6000803e3d6000fd5b505050506040513d601f19601f820116820180604052508101906121109190612660565b92505050949350505050565b805160208201fd5b6040518060800160405280600080191681526020016000815260200160008152602001606081525090565b6000604051905090565b600080fd5b600080fd5b6000819050919050565b61217681612163565b811461218157600080fd5b50565b6000813590506121938161216d565b92915050565b6000602082840312156121af576121ae612159565b5b60006121bd84828501612184565b91505092915050565b60008115159050919050565b6121db816121c6565b82525050565b60006020820190506121f660008301846121d2565b92915050565b600073ffffffffffffffffffffffffffffffffffffffff82169050919050565b6000612227826121fc565b9050919050565b60006122398261221c565b9050919050565b6122498161222e565b811461225457600080fd5b50565b60008135905061226681612240565b92915050565b6000819050919050565b61227f8161226c565b811461228a57600080fd5b50565b60008135905061229c81612276565b92915050565b600080fd5b600080fd5b6000601f19601f8301169050919050565b7f4e487b7100000000000000000000000000000000000000000000000000000000600052604160045260246000fd5b6122f5826122ac565b810181811067ffffffffffffffff82111715612314576123136122bd565b5b80604052505050565b600061232761214f565b905061233382826122ec565b919050565b600067ffffffffffffffff821115612353576123526122bd565b5b61235c826122ac565b9050602081019050919050565b82818337600083830152505050565b600061238b61238684612338565b61231d565b9050828152602081018484840111156123a7576123a66122a7565b5b6123b2848285612369565b509392505050565b600082601f8301126123cf576123ce6122a2565b5b81356123df848260208601612378565b91505092915050565b6000806000806080858703121561240257612401612159565b5b600061241087828801612257565b945050602061242187828801612257565b93505060406124328782880161228d565b925050606085013567ffffffffffffffff8111156124535761245261215e565b5b61245f878288016123ba565b91505092959194509250565b6124748161226c565b82525050565b600060208201905061248f600083018461246b565b92915050565b600080fd5b600080fd5b6000608082840312156124b5576124b4612495565b5b6124bf608061231d565b905060006124cf84828501612184565b60008301525060206124e38482850161228d565b60208301525060406124f78482850161228d565b604083015250606082013567ffffffffffffffff81111561251b5761251a61249a565b5b612527848285016123ba565b60608301525092915050565b6000806000806080858703121561254d5761254c612159565b5b600085013567ffffffffffffffff81111561256b5761256a61215e565b5b6125778782880161249f565b945050602061258887828801612257565b935050604061259987828801612257565b92505060606125aa8782880161228d565b91505092959194509250565b60006125c18261221c565b9050919050565b6125d1816125b6565b81146125dc57600080fd5b50565b6000815190506125ee816125c8565b92915050565b60006020828403121561260a57612609612159565b5b6000612618848285016125df565b91505092915050565b61262a8161221c565b82525050565b60006020820190506126456000830184612621565b92915050565b60008151905061265a81612276565b92915050565b60006020828403121561267657612675612159565b5b60006126848482850161264b565b91505092915050565b60006040820190506126a26000830185612621565b6126af602083018461246b565b9392505050565b6126bf816121c6565b81146126ca57600080fd5b50565b6000815190506126dc816126b6565b92915050565b6000602082840312156126f8576126f7612159565b5b6000612706848285016126cd565b91505092915050565b6000819050919050565b6000819050919050565b600061273e6127396127348461270f565b612719565b61226c565b9050919050565b61274e81612723565b82525050565b600060c0820190506127696000830189612621565b6127766020830188612621565b612783604083018761246b565b6127906060830186612745565b61279d6080830185612621565b6127aa60a0830184612621565b979650505050505050565b6127be81612163565b82525050565b60006127df6127da6127d5846121fc565b612719565b6121fc565b9050919050565b60006127f1826127c4565b9050919050565b6000612803826127e6565b9050919050565b612813816127f8565b82525050565b600060a08201905061282e60008301886127b5565b61283b602083018761280a565b612848604083018661280a565b612855606083018561246b565b612862608083018461246b565b9695505050505050565b6128758161221c565b811461288057600080fd5b50565b6000815190506128928161286c565b92915050565b60007fffffffff0000000000000000000000000000000000000000000000000000000082169050919050565b6128cd81612898565b81146128d857600080fd5b50565b6000815190506128ea816128c4565b92915050565b600081600f0b9050919050565b612906816128f0565b811461291157600080fd5b50565b600081519050612923816128fd565b92915050565b60006080828403121561293f5761293e612495565b5b612949608061231d565b9050600061295984828501612883565b600083015250602061296d848285016128db565b602083015250604061298184828501612914565b604083015250606061299584828501612914565b60608301525092915050565b6000608082840312156129b7576129b6612159565b5b60006129c584828501612929565b91505092915050565b6129d7816128f0565b82525050565b6000819050919050565b600060ff82169050919050565b6000612a0f612a0a612a05846129dd565b612719565b6129e7565b9050919050565b612a1f816129f4565b82525050565b6000608082019050612a3a60008301876129ce565b612a4760208301866129ce565b612a54604083018561246b565b612a616060830184612a16565b95945050505050565b600081519050919050565b600081905092915050565b60005b83811015612a9e578082015181840152602081019050612a83565b60008484015250505050565b6000612ab582612a6a565b612abf8185612a75565b9350612acf818560208601612a80565b80840191505092915050565b6000612ae78284612aaa565b915081905092915050565b7f4e487b7100000000000000000000000000000000000000000000000000000000600052601160045260246000fd5b6000612b2c8261226c565b9150612b378361226c565b9250828203905081811115612b4f57612b4e612af2565b5b92915050565b6000612b608261221c565b9050919050565b612b7081612b55565b8114612b7b57600080fd5b50565b600081519050612b8d81612b67565b92915050565b600067ffffffffffffffff821115612bae57612bad6122bd565b5b602082029050602081019050919050565b600080fd5b6000612bd7612bd284612b93565b61231d565b90508083825260208201905060208402830185811115612bfa57612bf9612bbf565b5b835b81811015612c235780612c0f8882612883565b845260208401935050602081019050612bfc565b5050509392505050565b600082601f830112612c4257612c416122a2565b5b8151612c52848260208601612bc4565b91505092915050565b60008060408385031215612c7257612c71612159565b5b6000612c8085828601612b7e565b925050602083015167ffffffffffffffff811115612ca157612ca061215e565b5b612cad85828601612c2d565b9150509250929050565b600082825260208201905092915050565b7f4d6978696e556e697377617056322f504154485f4c454e4754485f4d5553545f60008201527f42455f41545f4c454153545f54574f0000000000000000000000000000000000602082015250565b6000612d24602f83612cb7565b9150612d2f82612cc8565b604082019050919050565b60006020820190508181036000830152612d5381612d17565b9050919050565b7f4e487b7100000000000000000000000000000000000000000000000000000000600052603260045260246000fd5b7f4d6978696e556e697377617056322f4c4153545f454c454d454e545f4f465f5060008201527f4154485f4d5553545f4d415443485f4f55545055545f544f4b454e0000000000602082015250565b6000612de5603b83612cb7565b9150612df082612d89565b604082019050919050565b60006020820190508181036000830152612e1481612dd8565b9050919050565b6000612e36612e31612e2c846129dd565b612719565b61226c565b9050919050565b612e4681612e1b565b82525050565b600081519050919050565b600082825260208201905092915050565b6000819050602082019050919050565b612e81816127f8565b82525050565b6000612e938383612e78565b60208301905092915050565b6000602082019050919050565b6000612eb782612e4c565b612ec18185612e57565b9350612ecc83612e68565b8060005b83811015612efd578151612ee48882612e87565b9750612eef83612e9f565b925050600181019050612ed0565b5085935050505092915050565b600060a082019050612f1f600083018861246b565b612f2c6020830187612e3d565b8181036040830152612f3e8186612eac565b9050612f4d6060830185612621565b612f5a608083018461246b565b9695505050505050565b600067ffffffffffffffff821115612f7f57612f7e6122bd565b5b602082029050602081019050919050565b6000612fa3612f9e84612f64565b61231d565b90508083825260208201905060208402830185811115612fc657612fc5612bbf565b5b835b81811015612fef5780612fdb888261264b565b845260208401935050602081019050612fc8565b5050509392505050565b600082601f83011261300e5761300d6122a2565b5b815161301e848260208601612f90565b91505092915050565b60006020828403121561303d5761303c612159565b5b600082015167ffffffffffffffff81111561305b5761305a61215e565b5b61306784828501612ff9565b91505092915050565b600061307b826121fc565b9050919050565b61308b81613070565b811461309657600080fd5b50565b6000815190506130a881613082565b92915050565b60006130c16130bc84612338565b61231d565b9050828152602081018484840111156130dd576130dc6122a7565b5b6130e8848285612a80565b509392505050565b600082601f830112613105576131046122a2565b5b81516131158482602086016130ae565b91505092915050565b60008060006060848603121561313757613136612159565b5b600061314586828701613099565b935050602084015167ffffffffffffffff8111156131665761316561215e565b5b613172868287016130f0565b92505060406131838682870161264b565b9150509250925092565b600082825260208201905092915050565b60006131a982612a6a565b6131b3818561318d565b93506131c3818560208601612a80565b6131cc816122ac565b840191505092915050565b6131e08161221c565b82525050565b6131ef8161226c565b82525050565b600060a0830160008301518482036000860152613212828261319e565b915050602083015161322760208601826131d7565b50604083015161323a60408601826131e6565b50606083015161324d60608601826131e6565b50608083015161326060808601826131e6565b508091505092915050565b6000602082019050818103600083015261328581846131f5565b905092915050565b600060808301600083015184820360008601526132aa828261319e565b91505060208301516132bf60208601826131d7565b5060408301516132d260408601826131e6565b5060608301516132e560608601826131e6565b508091505092915050565b6000602082019050818103600083015261330a818461328d565b905092915050565b600061331d8261221c565b9050919050565b61332d81613312565b811461333857600080fd5b50565b60008151905061334a81613324565b92915050565b60006020828403121561336657613365612159565b5b60006133748482850161333b565b91505092915050565b600060a082019050613392600083018861280a565b61339f602083018761280a565b6133ac604083018661246b565b6133b96060830185612e3d565b6133c66080830184612621565b9695505050505050565b60006133db8261221c565b9050919050565b6133eb816133d0565b81146133f657600080fd5b50565b600081519050613408816133e2565b92915050565b60006134198261221c565b9050919050565b6134298161340e565b811461343457600080fd5b50565b60008151905061344681613420565b92915050565b60008060006060848603121561346557613464612159565b5b6000613473868287016133f9565b935050602061348486828701613437565b9250506040613495868287016126cd565b9150509250925092565b600082825260208201905092915050565b60006134bb82612a6a565b6134c5818561349f565b93506134d5818560208601612a80565b6134de816122ac565b840191505092915050565b60006060820190506134fe600083018661246b565b61350b6020830185612e3d565b818103604083015261351d81846134b0565b9050949350505050565b6000613532826127e6565b9050919050565b61354281613527565b82525050565b600060408201905061355d6000830185613539565b61356a602083018461246b565b9392505050565b6000606082019050613586600083018661246b565b613593602083018561246b565b81810360408301526135a581846134b0565b9050949350505050565b60006135ba8261221c565b9050919050565b6135ca816135af565b81146135d557600080fd5b50565b6000815190506135e7816135c1565b92915050565b6000806040838503121561360457613603612159565b5b6000613612858286016135d8565b9250506020613623858286016126cd565b9150509250929050565b60006080828403121561364357613642612495565b5b61364d608061231d565b9050600061365d84828501612883565b6000830152506020613671848285016128db565b602083015250604061368584828501612914565b604083015250606061369984828501612914565b60608301525092915050565b6000608082840312156136bb576136ba612159565b5b60006136c98482850161362d565b91505092915050565b600060a0820190506136e760008301886129ce565b6136f460208301876129ce565b613701604083018661246b565b61370e6060830185612a16565b61371b608083018461246b565b9695505050505050565b60008060006060848603121561373e5761373d612159565b5b600061374c86828701613099565b935050602084015167ffffffffffffffff81111561376d5761376c61215e565b5b61377986828701612c2d565b925050604084015167ffffffffffffffff81111561379a5761379961215e565b5b6137a686828701612c2d565b9150509250925092565b7f4d6978696e4b79626572446d6d2f504f4f4c535f4c454e4754485f4d5553545f60008201527f42455f41545f4c454153545f4f4e450000000000000000000000000000000000602082015250565b600061380c602f83612cb7565b9150613817826137b0565b604082019050919050565b6000602082019050818103600083015261383b816137ff565b9050919050565b600061384d8261226c565b91506138588361226c565b92508282019050808211156138705761386f612af2565b5b92915050565b7f4d6978696e4b79626572446d6d2f41525241595f4c454e4754485f4d49534d4160008201527f5443480000000000000000000000000000000000000000000000000000000000602082015250565b60006138d2602383612cb7565b91506138dd82613876565b604082019050919050565b60006020820190508181036000830152613901816138c5565b9050919050565b7f4d6978696e4b79626572446d6d2f4c4153545f454c454d454e545f4f465f504160008201527f54485f4d5553545f4d415443485f4f55545055545f544f4b454e000000000000602082015250565b6000613964603a83612cb7565b915061396f82613908565b604082019050919050565b6000602082019050818103600083015261399381613957565b9050919050565b600081519050919050565b6000819050602082019050919050565b60006139c183836131d7565b60208301905092915050565b6000602082019050919050565b60006139e58261399a565b6139ef8185612e57565b93506139fa836139a5565b8060005b83811015613a2b578151613a1288826139b5565b9750613a1d836139cd565b9250506001810190506139fe565b5085935050505092915050565b600060c082019050613a4d600083018961246b565b613a5a6020830188612e3d565b8181036040830152613a6c81876139da565b90508181036060830152613a8081866139da565b9050613a8f6080830185612621565b613a9c60a083018461246b565b979650505050505050565b6000613ab28261221c565b9050919050565b613ac281613aa7565b8114613acd57600080fd5b50565b600081519050613adf81613ab9565b92915050565b60008060408385031215613afc57613afb612159565b5b6000613b0a85828601613ad0565b925050602083015167ffffffffffffffff811115613b2b57613b2a61215e565b5b613b37858286016130f0565b9150509250929050565b600060a0830160008301518482036000860152613b5e828261319e565b9150506020830151613b7360208601826131d7565b506040830151613b8660408601826131e6565b506060830151613b9960608601826131e6565b506080830151613bac60808601826131e6565b508091505092915050565b60006020820190508181036000830152613bd18184613b41565b905092915050565b6000613be48261221c565b9050919050565b613bf481613bd9565b8114613bff57600080fd5b50565b600081519050613c1181613beb565b92915050565b60008060408385031215613c2e57613c2d612159565b5b6000613c3c85828601613c02565b9250506020613c4d85828601613099565b9150509250929050565b61010082016000820151613c6e60008501826131d7565b506020820151613c8160208501826131d7565b506040820151613c9460408501826131d7565b506060820151613ca760608501826131d7565b506080820151613cba60808501826131e6565b5060a0820151613ccd60a08501826131e6565b5060c0820151613ce060c08501826131e6565b5060e0820151613cf360e08501826131e6565b50505050565b600061010082019050613d0f6000830184613c57565b92915050565b6000613d208261221c565b9050919050565b613d3081613d15565b8114613d3b57600080fd5b50565b600081519050613d4d81613d27565b92915050565b60008060408385031215613d6a57613d69612159565b5b6000613d7885828601613d3e565b925050602083015167ffffffffffffffff811115613d9957613d9861215e565b5b613da5858286016130f0565b9150509250929050565b600060a082019050613dc4600083018861280a565b613dd1602083018761280a565b613dde6040830186612621565b613deb6060830185612e3d565b8181036080830152613dfd81846134b0565b9050969550505050505056fea26469706673582212201b9751662863e677c4500d1bf7b7789ac79629bfa17cff181197b3d9204d506e64736f6c634300081c0033",
  "linkReferences": {},
  "deployedLinkReferences": {}
}