{
  "_format": "hh-sol-artifact-1",
  "contractName": "TestTransformerBase",
  "sourceName": "contracts/test/TestTransformerBase.sol",
  "abi": [
    {
      "inputs": [],
      "name": "deployer",
      "outputs": [
        {
          "internalType": "address",
          "name": "",
          "type": "address"
        }
      ],
      "stateMutability": "view",
      "type": "function"
    },
    {
      "inputs": [
        {
          "internalType": "address payable",
          "name": "ethRecipient",
          "type": "address"
        }
      ],
      "name": "die",
      "outputs": [],
      "stateMutability": "nonpayable",
      "type": "function"
    },
    {
      "inputs": [
        {
          "components": [
            {
              "internalType": "address payable",
              "name": "sender",
              "type": "address"
            },
            {
              "internalType": "address payable",
              "name": "recipient",
              "type": "address"
            },
            {
              "internalType": "bytes",
              "name": "data",
              "type": "bytes"
            }
          ],
          "internalType": "struct IERC20Transformer.TransformContext",
          "name": "",
          "type": "tuple"
        }
      ],
      "name": "transform",
      "outputs": [
        {
          "internalType": "bytes4",
          "name": "success",
          "type": "bytes4"
        }
      ],
      "stateMutability": "nonpayable",
      "type": "function"
    }
  ],
  "bytecode": "0x60c0604052348015600e575f5ffd5b50336080523060a05260805160a0516103d761004c5f395f818161019401526101c201525f818160c601528181610125015261015301526103d75ff3fe608060405234801561000f575f5ffd5b506004361061003f575f3560e01c8063832b24bb14610043578063c9353cb5146100ac578063d5f39488146100c1575b5f5ffd5b610076610051366004610330565b507f13c9929e0000000000000000000000000000000000000000000000000000000090565b6040517fffffffff0000000000000000000000000000000000000000000000000000000090911681526020015b60405180910390f35b6100bf6100ba36600461036e565b61010d565b005b6100e87f000000000000000000000000000000000000000000000000000000000000000081565b60405173ffffffffffffffffffffffffffffffffffffffff90911681526020016100a3565b3373ffffffffffffffffffffffffffffffffffffffff7f0000000000000000000000000000000000000000000000000000000000000000161461017c5761017c610177337f00000000000000000000000000000000000000000000000000000000000000006101ff565b6102d4565b3073ffffffffffffffffffffffffffffffffffffffff7f000000000000000000000000000000000000000000000000000000000000000016146101e6576101e6610177307f00000000000000000000000000000000000000000000000000000000000000006102dc565b8073ffffffffffffffffffffffffffffffffffffffff16ff5b60405173ffffffffffffffffffffffffffffffffffffffff8084166024830152821660448201526060907f5cec653b364cca3880afa73ceff506d0651d11d26abbbe4a56460aa933b21b08906064015b604080517fffffffffffffffffffffffffffffffffffffffffffffffffffffffffffffffe08184030181529190526020810180517bffffffffffffffffffffffffffffffffffffffffffffffffffffffff167fffffffff0000000000000000000000000000000000000000000000000000000090931692909217909152905092915050565b805160208201fd5b60405173ffffffffffffffffffffffffffffffffffffffff8084166024830152821660448201526060907fb5cf2cd09307d6c717473134badbb9761c2c97d7565566c2a71eba6cd6fc514d9060640161024f565b5f60208284031215610340575f5ffd5b813567ffffffffffffffff811115610356575f5ffd5b820160608185031215610367575f5ffd5b9392505050565b5f6020828403121561037e575f5ffd5b813573ffffffffffffffffffffffffffffffffffffffff81168114610367575f5ffdfea2646970667358221220dc3bc20b378a5168af06b7d57846c9c958a9234115ea3d7c4360d3844f80819c64736f6c634300081c0033",
  "linkReferences": {},
  "deployedLinkReferences": {}
}