{
  "_format": "hh-sol-artifact-1",
  "contractName": "OptimismBridgeAdapter",
  "sourceName": "contracts/src/transformers/bridges/OptimismBridgeAdapter.sol",
  "abi": [
    {
      "inputs": [
        {
          "internalType": "contract IEtherToken",
          "name": "weth",
          "type": "address"
        }
      ],
      "stateMutability": "nonpayable",
      "type": "constructor"
    },
    {
      "anonymous": false,
      "inputs": [
        {
          "indexed": false,
          "internalType": "bytes32",
          "name": "source",
          "type": "bytes32"
        },
        {
          "indexed": false,
          "internalType": "contract IERC20Token",
          "name": "inputToken",
          "type": "address"
        },
        {
          "indexed": false,
          "internalType": "contract IERC20Token",
          "name": "outputToken",
          "type": "address"
        },
        {
          "indexed": false,
          "internalType": "uint256",
          "name": "inputTokenAmount",
          "type": "uint256"
        },
        {
          "indexed": false,
          "internalType": "uint256",
          "name": "outputTokenAmount",
          "type": "uint256"
        }
      ],
      "name": "BridgeFill",
      "type": "event"
    },
    {
      "inputs": [
        {
          "internalType": "uint256",
          "name": "sellAmount",
          "type": "uint256"
        },
        {
          "internalType": "bytes",
          "name": "bridgeData",
          "type": "bytes"
        }
      ],
      "name": "_tradeSynthetix",
      "outputs": [
        {
          "internalType": "uint256",
          "name": "boughtAmount",
          "type": "uint256"
        }
      ],
      "stateMutability": "nonpayable",
      "type": "function"
    },
    {
      "inputs": [
        {
          "internalType": "contract IERC20Token",
          "name": "sellToken",
          "type": "address"
        },
        {
          "internalType": "contract IERC20Token",
          "name": "buyToken",
          "type": "address"
        },
        {
          "internalType": "uint256",
          "name": "sellAmount",
          "type": "uint256"
        },
        {
          "internalType": "bytes",
          "name": "bridgeData",
          "type": "bytes"
        }
      ],
      "name": "_tradeWOOFi",
      "outputs": [
        {
          "internalType": "uint256",
          "name": "boughtAmount",
          "type": "uint256"
        }
      ],
      "stateMutability": "nonpayable",
      "type": "function"
    },
    {
      "inputs": [
        {
          "internalType": "bytes32",
          "name": "source",
          "type": "bytes32"
        }
      ],
      "name": "isSupportedSource",
      "outputs": [
        {
          "internalType": "bool",
          "name": "isSupported",
          "type": "bool"
        }
      ],
      "stateMutability": "nonpayable",
      "type": "function"
    },
    {
      "inputs": [
        {
          "components": [
            {
              "internalType": "bytes32",
              "name": "source",
              "type": "bytes32"
            },
            {
              "internalType": "uint256",
              "name": "takerTokenAmount",
              "type": "uint256"
            },
            {
              "internalType": "uint256",
              "name": "makerTokenAmount",
              "type": "uint256"
            },
            {
              "internalType": "bytes",
              "name": "bridgeData",
              "type": "bytes"
            }
          ],
          "internalType": "struct IBridgeAdapter.BridgeOrder",
          "name": "order",
          "type": "tuple"
        },
        {
          "internalType": "contract IERC20Token",
          "name": "sellToken",
          "type": "address"
        },
        {
          "internalType": "contract IERC20Token",
          "name": "buyToken",
          "type": "address"
        },
        {
          "internalType": "uint256",
          "name": "sellAmount",
          "type": "uint256"
        }
      ],
      "name": "trade",
      "outputs": [
        {
          "internalType": "uint256",
          "name": "boughtAmount",
          "type": "uint256"
        }
      ],
      "stateMutability": "nonpayable",
      "type": "function"
    }
  ],
  "bytecode": "0x60a060405234801561001057600080fd5b506040516146d43803806146d4833981810160405281019061003291906101cd565b80600a6040518060400160405280600881526020017f4f7074696d69736d000000000000000000000000000000000000000000000000815250600046905060006105398214806100835750617a6982145b8061008e5750600582145b8061009b57506201388182145b806100a8575062014a3382145b90508382141580156100b8575080155b1561011957826040516020016100ce91906102dd565b6040516020818303038152906040526040517f08c379a0000000000000000000000000000000000000000000000000000000008152600401610110919061035a565b60405180910390fd5b505050508073ffffffffffffffffffffffffffffffffffffffff1660808173ffffffffffffffffffffffffffffffffffffffff1681525050505061037c565b600080fd5b600073ffffffffffffffffffffffffffffffffffffffff82169050919050565b60006101888261015d565b9050919050565b600061019a8261017d565b9050919050565b6101aa8161018f565b81146101b557600080fd5b50565b6000815190506101c7816101a1565b92915050565b6000602082840312156101e3576101e2610158565b5b60006101f1848285016101b8565b91505092915050565b600081519050919050565b600081905092915050565b60005b8381101561022e578082015181840152602081019050610213565b60008484015250505050565b6000610245826101fa565b61024f8185610205565b935061025f818560208601610210565b80840191505092915050565b7f427269646765416461707465722e636f6e7374727563746f723a2077726f6e6760008201527f20636861696e2049440000000000000000000000000000000000000000000000602082015250565b60006102c7602983610205565b91506102d28261026b565b602982019050919050565b60006102e9828461023a565b91506102f4826102ba565b915081905092915050565b600082825260208201905092915050565b6000601f19601f8301169050919050565b600061032c826101fa565b61033681856102ff565b9350610346818560208601610210565b61034f81610310565b840191505092915050565b600060208201905081810360008301526103748184610321565b905092915050565b6080516143286103ac600039600081816109ca01528181610a2001528181610c620152610cb801526143286000f3fe608060405234801561001057600080fd5b506004361061004c5760003560e01c806302d2734f1461005157806399a4d2d014610081578063e8275c82146100b1578063f712a148146100e1575b600080fd5b61006b60048036038101906100669190611efd565b610111565b6040516100789190611f45565b60405180910390f35b61009b600480360381019061009691906120dc565b610143565b6040516100a89190612147565b60405180910390f35b6100cb60048036038101906100c691906121d2565b61017a565b6040516100d89190612147565b60405180910390f35b6100fb60048036038101906100f691906122f3565b6102e3565b6040516101089190612147565b60405180910390f35b600061011b611e88565b82816000018181525050600061013682828360006001610300565b9050809350505050919050565b6000806000808480602001905181019061015d91906123c9565b92509250925061016f83838389610775565b935050505092915050565b60008082806020019051810190610191919061245a565b905060008573ffffffffffffffffffffffffffffffffffffffff166370a08231306040518263ffffffff1660e01b81526004016101ce9190612496565b602060405180830381865afa1580156101eb573d6000803e3d6000fd5b505050506040513d601f19601f8201168201806040525081019061020f91906124c6565b905061023c82868973ffffffffffffffffffffffffffffffffffffffff166108f99092919063ffffffff16565b8173ffffffffffffffffffffffffffffffffffffffff16637dc2038288888860003073bfdcbb4c05843163f491c24f9c0019c5107863046040518763ffffffff1660e01b815260040161029496959493929190612538565b6020604051808303816000875af11580156102b3573d6000803e3d6000fd5b505050506040513d601f19601f820116820180604052508101906102d791906124c6565b92505050949350505050565b60006102f3858585856000610300565b5080915050949350505050565b60008060006080886000015160001c901c905060016fffffffffffffffffffffffffffffffff16816fffffffffffffffffffffffffffffffff160361036a5783156103535760006001925092505061076b565b6103638787878b606001516109ad565b9250610726565b60146fffffffffffffffffffffffffffffffff16816fffffffffffffffffffffffffffffffff16036103c15783156103aa5760006001925092505061076b565b6103ba8787878b60600151610dcc565b9250610725565b60126fffffffffffffffffffffffffffffffff16816fffffffffffffffffffffffffffffffff16036104175783156104015760006001925092505061076b565b61041087868a60600151611028565b9250610724565b600f6fffffffffffffffffffffffffffffffff16816fffffffffffffffffffffffffffffffff160361046d5783156104575760006001925092505061076b565b61046687868a606001516111fb565b9250610723565b601d6fffffffffffffffffffffffffffffffff16816fffffffffffffffffffffffffffffffff16036104c45783156104ad5760006001925092505061076b565b6104bd8787878b60600151611368565b9250610722565b601e6fffffffffffffffffffffffffffffffff16816fffffffffffffffffffffffffffffffff16036105195783156105045760006001925092505061076b565b610512858960600151610143565b9250610721565b60006fffffffffffffffffffffffffffffffff16816fffffffffffffffffffffffffffffffff16036105705783156105595760006001925092505061076b565b6105698787878b60600151611471565b9250610720565b60196fffffffffffffffffffffffffffffffff16816fffffffffffffffffffffffffffffffff16036105c55783156105b05760006001925092505061076b565b6105be85896060015161154a565b925061071f565b60206fffffffffffffffffffffffffffffffff16816fffffffffffffffffffffffffffffffff160361061c5783156106055760006001925092505061076b565b6106158787878b6060015161183a565b925061071e565b601f6fffffffffffffffffffffffffffffffff16816fffffffffffffffffffffffffffffffff160361067357831561065c5760006001925092505061076b565b61066c8787878b6060015161017a565b925061071d565b60216fffffffffffffffffffffffffffffffff16816fffffffffffffffffffffffffffffffff16036106c95783156106b35760006001925092505061076b565b6106c287868a60600151611a30565b925061071c565b60246fffffffffffffffffffffffffffffffff16816fffffffffffffffffffffffffffffffff160361071b5783156107095760006001925092505061076b565b61071887868a60600151611b3c565b92505b5b5b5b5b5b5b5b5b5b5b5b7fe59e71a14fe90157eedc866c4f8c767d3943d6b6b2e8cd64dddcc92ab4c55af88860000151888888876040516107619594939291906125fd565b60405180910390a1505b9550959350505050565b60008046905060018103610832578573ffffffffffffffffffffffffffffffffffffffff166344b3e9238685877f305800000000000000000000000000000000000000000000000000000000000060001b60006040518663ffffffff1660e01b81526004016107e8959493929190612650565b6020604051808303816000875af1158015610807573d6000803e3d6000fd5b505050506040513d601f19601f8201168201806040525081019061082b91906124c6565b91506108f0565b8573ffffffffffffffffffffffffffffffffffffffff166330ead760868587735c80239d97e1eb216b5c3d8fba5de5be5d38e4c97f305800000000000000000000000000000000000000000000000000000000000060001b6040518663ffffffff1660e01b81526004016108aa9594939291906126a3565b6020604051808303816000875af11580156108c9573d6000803e3d6000fd5b505050506040513d601f19601f820116820180604052508101906108ed91906124c6565b91505b50949350505050565b808373ffffffffffffffffffffffffffffffffffffffff1663dd62ed3e30856040518363ffffffff1660e01b81526004016109359291906126f6565b602060405180830381865afa158015610952573d6000803e3d6000fd5b505050506040513d601f19601f8201168201806040525081019061097691906124c6565b10156109a8576109a783837fffffffffffffffffffffffffffffffffffffffffffffffffffffffffffffffff611c52565b5b505050565b600080828060200190518101906109c49190612854565b905060007f000000000000000000000000000000000000000000000000000000000000000073ffffffffffffffffffffffffffffffffffffffff168773ffffffffffffffffffffffffffffffffffffffff1603610aae578490507f000000000000000000000000000000000000000000000000000000000000000073ffffffffffffffffffffffffffffffffffffffff16632e1a7d4d866040518263ffffffff1660e01b8152600401610a779190612147565b600060405180830381600087803b158015610a9157600080fd5b505af1158015610aa5573d6000803e3d6000fd5b50505050610ade565b610add8260000151868973ffffffffffffffffffffffffffffffffffffffff166108f99092919063ffffffff16565b5b60008673ffffffffffffffffffffffffffffffffffffffff166370a08231306040518263ffffffff1660e01b8152600401610b199190612496565b602060405180830381865afa158015610b36573d6000803e3d6000fd5b505050506040513d601f19601f82011682018060405250810190610b5a91906124c6565b9050600080846000015173ffffffffffffffffffffffffffffffffffffffff16848660200151876040015188606001518c6001604051602401610ba094939291906128d8565b604051602081830303815290604052907bffffffffffffffffffffffffffffffffffffffffffffffffffffffff19166020820180517bffffffffffffffffffffffffffffffffffffffffffffffffffffffff8381831617835250505050604051610c0a919061298e565b60006040518083038185875af1925050503d8060008114610c47576040519150601f19603f3d011682016040523d82523d6000602084013e610c4c565b606091505b509150915081610c6057610c5f81611cd7565b5b7f000000000000000000000000000000000000000000000000000000000000000073ffffffffffffffffffffffffffffffffffffffff168973ffffffffffffffffffffffffffffffffffffffff1603610d38574795507f000000000000000000000000000000000000000000000000000000000000000073ffffffffffffffffffffffffffffffffffffffff1663d0e30db0876040518263ffffffff1660e01b81526004016000604051808303818588803b158015610d1e57600080fd5b505af1158015610d32573d6000803e3d6000fd5b50505050505b828973ffffffffffffffffffffffffffffffffffffffff166370a08231306040518263ffffffff1660e01b8152600401610d729190612496565b602060405180830381865afa158015610d8f573d6000803e3d6000fd5b505050506040513d601f19601f82011682018060405250810190610db391906124c6565b610dbd91906129d4565b95505050505050949350505050565b60008082806020019051810190610de39190612a80565b9050610e148160000151858873ffffffffffffffffffffffffffffffffffffffff166108f99092919063ffffffff16565b60008573ffffffffffffffffffffffffffffffffffffffff166370a08231306040518263ffffffff1660e01b8152600401610e4f9190612496565b602060405180830381865afa158015610e6c573d6000803e3d6000fd5b505050506040513d601f19601f82011682018060405250810190610e9091906124c6565b9050600080836000015173ffffffffffffffffffffffffffffffffffffffff168460200151856040015186606001518a6001604051602401610ed594939291906128d8565b604051602081830303815290604052907bffffffffffffffffffffffffffffffffffffffffffffffffffffffff19166020820180517bffffffffffffffffffffffffffffffffffffffffffffffffffffffff8381831617835250505050604051610f3f919061298e565b6000604051808303816000865af19150503d8060008114610f7c576040519150601f19603f3d011682016040523d82523d6000602084013e610f81565b606091505b509150915081610f9557610f9481611cd7565b5b828873ffffffffffffffffffffffffffffffffffffffff166370a08231306040518263ffffffff1660e01b8152600401610fcf9190612496565b602060405180830381865afa158015610fec573d6000803e3d6000fd5b505050506040513d601f19601f8201168201806040525081019061101091906124c6565b61101a91906129d4565b945050505050949350505050565b600080600080848060200190518101906110429190612b5b565b92509250925061107383878973ffffffffffffffffffffffffffffffffffffffff166108f99092919063ffffffff16565b6002811461113b578273ffffffffffffffffffffffffffffffffffffffff1663c04b8d596040518060a001604052808581526020013073ffffffffffffffffffffffffffffffffffffffff16815260200142815260200189815260200160018152506040518263ffffffff1660e01b81526004016110f19190612ca8565b6020604051808303816000875af1158015611110573d6000803e3d6000fd5b505050506040513d601f19601f8201168201806040525081019061113491906124c6565b93506111f1565b8273ffffffffffffffffffffffffffffffffffffffff1663b858183f60405180608001604052808581526020013073ffffffffffffffffffffffffffffffffffffffff16815260200189815260200160018152506040518263ffffffff1660e01b81526004016111ab9190612d2d565b6020604051808303816000875af11580156111ca573d6000803e3d6000fd5b505050506040513d601f19601f820116820180604052508101906111ee91906124c6565b93505b5050509392505050565b600080828060200190518101906112129190612dc7565b90506112438160000151858773ffffffffffffffffffffffffffffffffffffffff166108f99092919063ffffffff16565b600080826000015173ffffffffffffffffffffffffffffffffffffffff1683602001518460400151856060015189600142604051602401611288959493929190612df4565b604051602081830303815290604052907bffffffffffffffffffffffffffffffffffffffffffffffffffffffff19166020820180517bffffffffffffffffffffffffffffffffffffffffffffffffffffffff83818316178352505050506040516112f2919061298e565b6000604051808303816000865af19150503d806000811461132f576040519150601f19603f3d011682016040523d82523d6000602084013e611334565b606091505b5091509150816113485761134781611cd7565b5b8080602001905181019061135c91906124c6565b93505050509392505050565b6000806000838060200190518101906113819190612eb1565b915091506113b082868973ffffffffffffffffffffffffffffffffffffffff166108f99092919063ffffffff16565b8173ffffffffffffffffffffffffffffffffffffffff166313dcfc598660008a8a86306001426113e09190612ef1565b6040518863ffffffff1660e01b81526004016114029796959493929190612f25565b6000604051808303816000875af1158015611421573d6000803e3d6000fd5b505050506040513d6000823e3d601f19601f8201168201806040525081019061144a919061305c565b60018151811061145d5761145c6130a5565b5b602002602001015192505050949350505050565b60008060008380602001905181019061148a9190613112565b915091506114b982868973ffffffffffffffffffffffffffffffffffffffff16611cdf9092919063ffffffff16565b8173ffffffffffffffffffffffffffffffffffffffff166365d02b048888306001866040518663ffffffff1660e01b81526004016114fb9594939291906131e9565b6020604051808303816000875af115801561151a573d6000803e3d6000fd5b505050506040513d601f19601f8201168201806040525081019061153e91906124c6565b92505050949350505050565b6000806000808480602001905181019061156491906134cd565b92509250925060608190506115b5848883600081518110611588576115876130a5565b5b602002602001015173ffffffffffffffffffffffffffffffffffffffff166108f99092919063ffffffff16565b86836000815181106115ca576115c96130a5565b5b602002602001015160600181815250506000815167ffffffffffffffff8111156115f7576115f6611fb1565b5b6040519080825280602002602001820160405280156116255781602001602082028036833780820191505090505b50905060005b815181101561167f577f7fffffffffffffffffffffffffffffffffffffffffffffffffffffffffffffff828281518110611668576116676130a5565b5b60200260200101818152505080600101905061162b565b5060008573ffffffffffffffffffffffffffffffffffffffff1663945bcec96000878660405180608001604052803073ffffffffffffffffffffffffffffffffffffffff1681526020016000151581526020013073ffffffffffffffffffffffffffffffffffffffff16815260200160001515815250876001426117039190612ef1565b6040518763ffffffff1660e01b81526004016117249695949392919061390f565b6000604051808303816000875af1158015611743573d6000803e3d6000fd5b505050506040513d6000823e3d601f19601f8201168201806040525081019061176c9190613a76565b90506000816001835161177f91906129d4565b815181106117905761178f6130a5565b5b602002602001015113156117d9576040517f08c379a00000000000000000000000000000000000000000000000000000000081526004016117d090613b42565b60405180910390fd5b7fffffffffffffffffffffffffffffffffffffffffffffffffffffffffffffffff816001835161180991906129d4565b8151811061181a576118196130a5565b5b602002602001015161182c9190613b62565b965050505050505092915050565b6000806000838060200190518101906118539190613c18565b9150915061188282868973ffffffffffffffffffffffffffffffffffffffff166108f99092919063ffffffff16565b8073ffffffffffffffffffffffffffffffffffffffff168673ffffffffffffffffffffffffffffffffffffffff1603611931578173ffffffffffffffffffffffffffffffffffffffff1663617ba03788873060006040518563ffffffff1660e01b81526004016118f59493929190613c97565b600060405180830381600087803b15801561190f57600080fd5b505af1158015611923573d6000803e3d6000fd5b505050508492505050611a28565b8073ffffffffffffffffffffffffffffffffffffffff168773ffffffffffffffffffffffffffffffffffffffff16036119ed578173ffffffffffffffffffffffffffffffffffffffff166369328dec8787306040518463ffffffff1660e01b81526004016119a193929190613cdc565b6020604051808303816000875af11580156119c0573d6000803e3d6000fd5b505050506040513d601f19601f820116820180604052508101906119e491906124c6565b92505050611a28565b6040517f08c379a0000000000000000000000000000000000000000000000000000000008152600401611a1f90613d85565b60405180910390fd5b949350505050565b600080600083806020019051810190611a499190613de3565b91509150611a7882868873ffffffffffffffffffffffffffffffffffffffff166108f99092919063ffffffff16565b8173ffffffffffffffffffffffffffffffffffffffff16635d946c256040518060a001604052808481526020013073ffffffffffffffffffffffffffffffffffffffff16815260200142815260200188815260200160018152506040518263ffffffff1660e01b8152600401611aee9190613eb5565b6020604051808303816000875af1158015611b0d573d6000803e3d6000fd5b505050506040513d601f19601f82011682018060405250810190611b3191906124c6565b925050509392505050565b600080600083806020019051810190611b559190614050565b91509150611b8482868873ffffffffffffffffffffffffffffffffffffffff166108f99092919063ffffffff16565b60008273ffffffffffffffffffffffffffffffffffffffff1663cac88ea98760018530600142611bb49190612ef1565b6040518663ffffffff1660e01b8152600401611bd49594939291906141b0565b6000604051808303816000875af1158015611bf3573d6000803e3d6000fd5b505050506040513d6000823e3d601f19601f82011682018060405250810190611c1c919061305c565b90508060018251611c2d91906129d4565b81518110611c3e57611c3d6130a5565b5b602002602001015193505050509392505050565b60008373ffffffffffffffffffffffffffffffffffffffff1663095ea7b38484604051602401611c8392919061420a565b604051602081830303815290604052915060e01b6020820180517bffffffffffffffffffffffffffffffffffffffffffffffffffffffff83818316178352505050509050611cd18482611d64565b50505050565b805160208201fd5b60008373ffffffffffffffffffffffffffffffffffffffff1663a9059cbb8484604051602401611d1092919061420a565b604051602081830303815290604052915060e01b6020820180517bffffffffffffffffffffffffffffffffffffffffffffffffffffffff83818316178352505050509050611d5e8482611d64565b50505050565b6000808373ffffffffffffffffffffffffffffffffffffffff1683604051611d8c919061298e565b6000604051808303816000865af19150503d8060008114611dc9576040519150601f19603f3d011682016040523d82523d6000602084013e611dce565b606091505b509150915081611de257611de181611cd7565b5b6000815103611e4c5760008473ffffffffffffffffffffffffffffffffffffffff163b11611e45576040517f08c379a0000000000000000000000000000000000000000000000000000000008152600401611e3c906142a5565b60405180910390fd5b5050611e84565b6020815110611e785780806020019051810190611e6991906142c5565b611e7757611e7681611cd7565b5b5b611e8181611cd7565b50505b5050565b6040518060800160405280600080191681526020016000815260200160008152602001606081525090565b6000604051905090565b600080fd5b600080fd5b6000819050919050565b611eda81611ec7565b8114611ee557600080fd5b50565b600081359050611ef781611ed1565b92915050565b600060208284031215611f1357611f12611ebd565b5b6000611f2184828501611ee8565b91505092915050565b60008115159050919050565b611f3f81611f2a565b82525050565b6000602082019050611f5a6000830184611f36565b92915050565b6000819050919050565b611f7381611f60565b8114611f7e57600080fd5b50565b600081359050611f9081611f6a565b92915050565b600080fd5b600080fd5b6000601f19601f8301169050919050565b7f4e487b7100000000000000000000000000000000000000000000000000000000600052604160045260246000fd5b611fe982611fa0565b810181811067ffffffffffffffff8211171561200857612007611fb1565b5b80604052505050565b600061201b611eb3565b90506120278282611fe0565b919050565b600067ffffffffffffffff82111561204757612046611fb1565b5b61205082611fa0565b9050602081019050919050565b82818337600083830152505050565b600061207f61207a8461202c565b612011565b90508281526020810184848401111561209b5761209a611f9b565b5b6120a684828561205d565b509392505050565b600082601f8301126120c3576120c2611f96565b5b81356120d384826020860161206c565b91505092915050565b600080604083850312156120f3576120f2611ebd565b5b600061210185828601611f81565b925050602083013567ffffffffffffffff81111561212257612121611ec2565b5b61212e858286016120ae565b9150509250929050565b61214181611f60565b82525050565b600060208201905061215c6000830184612138565b92915050565b600073ffffffffffffffffffffffffffffffffffffffff82169050919050565b600061218d82612162565b9050919050565b600061219f82612182565b9050919050565b6121af81612194565b81146121ba57600080fd5b50565b6000813590506121cc816121a6565b92915050565b600080600080608085870312156121ec576121eb611ebd565b5b60006121fa878288016121bd565b945050602061220b878288016121bd565b935050604061221c87828801611f81565b925050606085013567ffffffffffffffff81111561223d5761223c611ec2565b5b612249878288016120ae565b91505092959194509250565b600080fd5b600080fd5b60006080828403121561227557612274612255565b5b61227f6080612011565b9050600061228f84828501611ee8565b60008301525060206122a384828501611f81565b60208301525060406122b784828501611f81565b604083015250606082013567ffffffffffffffff8111156122db576122da61225a565b5b6122e7848285016120ae565b60608301525092915050565b6000806000806080858703121561230d5761230c611ebd565b5b600085013567ffffffffffffffff81111561232b5761232a611ec2565b5b6123378782880161225f565b9450506020612348878288016121bd565b9350506040612359878288016121bd565b925050606061236a87828801611f81565b91505092959194509250565b600061238182612182565b9050919050565b61239181612376565b811461239c57600080fd5b50565b6000815190506123ae81612388565b92915050565b6000815190506123c381611ed1565b92915050565b6000806000606084860312156123e2576123e1611ebd565b5b60006123f08682870161239f565b9350506020612401868287016123b4565b9250506040612412868287016123b4565b9150509250925092565b600061242782612182565b9050919050565b6124378161241c565b811461244257600080fd5b50565b6000815190506124548161242e565b92915050565b6000602082840312156124705761246f611ebd565b5b600061247e84828501612445565b91505092915050565b61249081612182565b82525050565b60006020820190506124ab6000830184612487565b92915050565b6000815190506124c081611f6a565b92915050565b6000602082840312156124dc576124db611ebd565b5b60006124ea848285016124b1565b91505092915050565b6000819050919050565b6000819050919050565b600061252261251d612518846124f3565b6124fd565b611f60565b9050919050565b61253281612507565b82525050565b600060c08201905061254d6000830189612487565b61255a6020830188612487565b6125676040830187612138565b6125746060830186612529565b6125816080830185612487565b61258e60a0830184612487565b979650505050505050565b6125a281611ec7565b82525050565b60006125c36125be6125b984612162565b6124fd565b612162565b9050919050565b60006125d5826125a8565b9050919050565b60006125e7826125ca565b9050919050565b6125f7816125dc565b82525050565b600060a0820190506126126000830188612599565b61261f60208301876125ee565b61262c60408301866125ee565b6126396060830185612138565b6126466080830184612138565b9695505050505050565b600060a0820190506126656000830188612599565b6126726020830187612138565b61267f6040830186612599565b61268c6060830185612599565b6126996080830184612529565b9695505050505050565b600060a0820190506126b86000830188612599565b6126c56020830187612138565b6126d26040830186612599565b6126df6060830185612487565b6126ec6080830184612599565b9695505050505050565b600060408201905061270b6000830185612487565b6127186020830184612487565b9392505050565b61272881612182565b811461273357600080fd5b50565b6000815190506127458161271f565b92915050565b60007fffffffff0000000000000000000000000000000000000000000000000000000082169050919050565b6127808161274b565b811461278b57600080fd5b50565b60008151905061279d81612777565b92915050565b600081600f0b9050919050565b6127b9816127a3565b81146127c457600080fd5b50565b6000815190506127d6816127b0565b92915050565b6000608082840312156127f2576127f1612255565b5b6127fc6080612011565b9050600061280c84828501612736565b60008301525060206128208482850161278e565b6020830152506040612834848285016127c7565b6040830152506060612848848285016127c7565b60608301525092915050565b60006080828403121561286a57612869611ebd565b5b6000612878848285016127dc565b91505092915050565b61288a816127a3565b82525050565b6000819050919050565b600060ff82169050919050565b60006128c26128bd6128b884612890565b6124fd565b61289a565b9050919050565b6128d2816128a7565b82525050565b60006080820190506128ed6000830187612881565b6128fa6020830186612881565b6129076040830185612138565b61291460608301846128c9565b95945050505050565b600081519050919050565b600081905092915050565b60005b83811015612951578082015181840152602081019050612936565b60008484015250505050565b60006129688261291d565b6129728185612928565b9350612982818560208601612933565b80840191505092915050565b600061299a828461295d565b915081905092915050565b7f4e487b7100000000000000000000000000000000000000000000000000000000600052601160045260246000fd5b60006129df82611f60565b91506129ea83611f60565b9250828203905081811115612a0257612a016129a5565b5b92915050565b600060808284031215612a1e57612a1d612255565b5b612a286080612011565b90506000612a3884828501612736565b6000830152506020612a4c8482850161278e565b6020830152506040612a60848285016127c7565b6040830152506060612a74848285016127c7565b60608301525092915050565b600060808284031215612a9657612a95611ebd565b5b6000612aa484828501612a08565b91505092915050565b6000612ab882612162565b9050919050565b612ac881612aad565b8114612ad357600080fd5b50565b600081519050612ae581612abf565b92915050565b6000612afe612af98461202c565b612011565b905082815260208101848484011115612b1a57612b19611f9b565b5b612b25848285612933565b509392505050565b600082601f830112612b4257612b41611f96565b5b8151612b52848260208601612aeb565b91505092915050565b600080600060608486031215612b7457612b73611ebd565b5b6000612b8286828701612ad6565b935050602084015167ffffffffffffffff811115612ba357612ba2611ec2565b5b612baf86828701612b2d565b9250506040612bc0868287016124b1565b9150509250925092565b600082825260208201905092915050565b6000612be68261291d565b612bf08185612bca565b9350612c00818560208601612933565b612c0981611fa0565b840191505092915050565b612c1d81612182565b82525050565b612c2c81611f60565b82525050565b600060a0830160008301518482036000860152612c4f8282612bdb565b9150506020830151612c646020860182612c14565b506040830151612c776040860182612c23565b506060830151612c8a6060860182612c23565b506080830151612c9d6080860182612c23565b508091505092915050565b60006020820190508181036000830152612cc28184612c32565b905092915050565b60006080830160008301518482036000860152612ce78282612bdb565b9150506020830151612cfc6020860182612c14565b506040830151612d0f6040860182612c23565b506060830151612d226060860182612c23565b508091505092915050565b60006020820190508181036000830152612d478184612cca565b905092915050565b600060808284031215612d6557612d64612255565b5b612d6f6080612011565b90506000612d7f84828501612736565b6000830152506020612d938482850161278e565b6020830152506040612da7848285016127c7565b6040830152506060612dbb848285016127c7565b60608301525092915050565b600060808284031215612ddd57612ddc611ebd565b5b6000612deb84828501612d4f565b91505092915050565b600060a082019050612e096000830188612881565b612e166020830187612881565b612e236040830186612138565b612e3060608301856128c9565b612e3d6080830184612138565b9695505050505050565b6000612e5282612182565b9050919050565b612e6281612e47565b8114612e6d57600080fd5b50565b600081519050612e7f81612e59565b92915050565b612e8e81611f2a565b8114612e9957600080fd5b50565b600081519050612eab81612e85565b92915050565b60008060408385031215612ec857612ec7611ebd565b5b6000612ed685828601612e70565b9250506020612ee785828601612e9c565b9150509250929050565b6000612efc82611f60565b9150612f0783611f60565b9250828201905080821115612f1f57612f1e6129a5565b5b92915050565b600060e082019050612f3a600083018a612138565b612f476020830189612529565b612f546040830188612487565b612f616060830187612487565b612f6e6080830186611f36565b612f7b60a0830185612487565b612f8860c0830184612138565b98975050505050505050565b600067ffffffffffffffff821115612faf57612fae611fb1565b5b602082029050602081019050919050565b600080fd5b6000612fd8612fd384612f94565b612011565b90508083825260208201905060208402830185811115612ffb57612ffa612fc0565b5b835b81811015613024578061301088826124b1565b845260208401935050602081019050612ffd565b5050509392505050565b600082601f83011261304357613042611f96565b5b8151613053848260208601612fc5565b91505092915050565b60006020828403121561307257613071611ebd565b5b600082015167ffffffffffffffff8111156130905761308f611ec2565b5b61309c8482850161302e565b91505092915050565b7f4e487b7100000000000000000000000000000000000000000000000000000000600052603260045260246000fd5b60006130df82612182565b9050919050565b6130ef816130d4565b81146130fa57600080fd5b50565b60008151905061310c816130e6565b92915050565b6000806040838503121561312957613128611ebd565b5b6000613137858286016130fd565b925050602083015167ffffffffffffffff81111561315857613157611ec2565b5b61316485828601612b2d565b9150509250929050565b600061318961318461317f84612890565b6124fd565b611f60565b9050919050565b6131998161316e565b82525050565b600082825260208201905092915050565b60006131bb8261291d565b6131c5818561319f565b93506131d5818560208601612933565b6131de81611fa0565b840191505092915050565b600060a0820190506131fe60008301886125ee565b61320b60208301876125ee565b6132186040830186612487565b6132256060830185613190565b818103608083015261323781846131b0565b90509695505050505050565b600061324e82612182565b9050919050565b61325e81613243565b811461326957600080fd5b50565b60008151905061327b81613255565b92915050565b600067ffffffffffffffff82111561329c5761329b611fb1565b5b602082029050602081019050919050565b600060a082840312156132c3576132c2612255565b5b6132cd60a0612011565b905060006132dd848285016123b4565b60008301525060206132f1848285016124b1565b6020830152506040613305848285016124b1565b6040830152506060613319848285016124b1565b606083015250608082015167ffffffffffffffff81111561333d5761333c61225a565b5b61334984828501612b2d565b60808301525092915050565b600061336861336384613281565b612011565b9050808382526020820190506020840283018581111561338b5761338a612fc0565b5b835b818110156133d257805167ffffffffffffffff8111156133b0576133af611f96565b5b8086016133bd89826132ad565b8552602085019450505060208101905061338d565b5050509392505050565b600082601f8301126133f1576133f0611f96565b5b8151613401848260208601613355565b91505092915050565b600067ffffffffffffffff82111561342557613424611fb1565b5b602082029050602081019050919050565b60006134496134448461340a565b612011565b9050808382526020820190506020840283018581111561346c5761346b612fc0565b5b835b8181101561349557806134818882612736565b84526020840193505060208101905061346e565b5050509392505050565b600082601f8301126134b4576134b3611f96565b5b81516134c4848260208601613436565b91505092915050565b6000806000606084860312156134e6576134e5611ebd565b5b60006134f48682870161326c565b935050602084015167ffffffffffffffff81111561351557613514611ec2565b5b613521868287016133dc565b925050604084015167ffffffffffffffff81111561354257613541611ec2565b5b61354e8682870161349f565b9150509250925092565b7f4e487b7100000000000000000000000000000000000000000000000000000000600052602160045260246000fd5b6002811061359857613597613558565b5b50565b60008190506135a982613587565b919050565b60006135b98261359b565b9050919050565b6135c9816135ae565b82525050565b600081519050919050565b600082825260208201905092915050565b6000819050602082019050919050565b61360481611ec7565b82525050565b600060a08301600083015161362260008601826135fb565b5060208301516136356020860182612c23565b5060408301516136486040860182612c23565b50606083015161365b6060860182612c23565b50608083015184820360808601526136738282612bdb565b9150508091505092915050565b600061368c838361360a565b905092915050565b6000602082019050919050565b60006136ac826135cf565b6136b681856135da565b9350836020820285016136c8856135eb565b8060005b8581101561370457848403895281516136e58582613680565b94506136f083613694565b925060208a019950506001810190506136cc565b50829750879550505050505092915050565b600081519050919050565b600082825260208201905092915050565b6000819050602082019050919050565b61374b816125dc565b82525050565b600061375d8383613742565b60208301905092915050565b6000602082019050919050565b600061378182613716565b61378b8185613721565b935061379683613732565b8060005b838110156137c75781516137ae8882613751565b97506137b983613769565b92505060018101905061379a565b5085935050505092915050565b6137dd81611f2a565b82525050565b6137ec81612aad565b82525050565b6080820160008201516138086000850182612c14565b50602082015161381b60208501826137d4565b50604082015161382e60408501826137e3565b50606082015161384160608501826137d4565b50505050565b600081519050919050565b600082825260208201905092915050565b6000819050602082019050919050565b6000819050919050565b61388681613873565b82525050565b6000613898838361387d565b60208301905092915050565b6000602082019050919050565b60006138bc82613847565b6138c68185613852565b93506138d183613863565b8060005b838110156139025781516138e9888261388c565b97506138f4836138a4565b9250506001810190506138d5565b5085935050505092915050565b60006101208201905061392560008301896135c0565b818103602083015261393781886136a1565b9050818103604083015261394b8187613776565b905061395a60608301866137f2565b81810360e083015261396c81856138b1565b905061397c610100830184612138565b979650505050505050565b600067ffffffffffffffff8211156139a2576139a1611fb1565b5b602082029050602081019050919050565b6139bc81613873565b81146139c757600080fd5b50565b6000815190506139d9816139b3565b92915050565b60006139f26139ed84613987565b612011565b90508083825260208201905060208402830185811115613a1557613a14612fc0565b5b835b81811015613a3e5780613a2a88826139ca565b845260208401935050602081019050613a17565b5050509392505050565b600082601f830112613a5d57613a5c611f96565b5b8151613a6d8482602086016139df565b91505092915050565b600060208284031215613a8c57613a8b611ebd565b5b600082015167ffffffffffffffff811115613aaa57613aa9611ec2565b5b613ab684828501613a48565b91505092915050565b600082825260208201905092915050565b7f556e65787065637465642042616c616e63657256324261746368206f7574707560008201527f7400000000000000000000000000000000000000000000000000000000000000602082015250565b6000613b2c602183613abf565b9150613b3782613ad0565b604082019050919050565b60006020820190508181036000830152613b5b81613b1f565b9050919050565b6000613b6d82613873565b9150613b7883613873565b9250828202613b8681613873565b91507f80000000000000000000000000000000000000000000000000000000000000008414600084121615613bbe57613bbd6129a5565b5b8282058414831517613bd357613bd26129a5565b5b5092915050565b6000613be582612182565b9050919050565b613bf581613bda565b8114613c0057600080fd5b50565b600081519050613c1281613bec565b92915050565b60008060408385031215613c2f57613c2e611ebd565b5b6000613c3d85828601613c03565b9250506020613c4e85828601612ad6565b9150509250929050565b600061ffff82169050919050565b6000613c81613c7c613c77846124f3565b6124fd565b613c58565b9050919050565b613c9181613c66565b82525050565b6000608082019050613cac6000830187612487565b613cb96020830186612138565b613cc66040830185612487565b613cd36060830184613c88565b95945050505050565b6000606082019050613cf16000830186612487565b613cfe6020830185612138565b613d0b6040830184612487565b949350505050565b7f4d6978696e4161766556332f554e535550504f525445445f544f4b454e5f504160008201527f4952000000000000000000000000000000000000000000000000000000000000602082015250565b6000613d6f602283613abf565b9150613d7a82613d13565b604082019050919050565b60006020820190508181036000830152613d9e81613d62565b9050919050565b6000613db082612182565b9050919050565b613dc081613da5565b8114613dcb57600080fd5b50565b600081519050613ddd81613db7565b92915050565b60008060408385031215613dfa57613df9611ebd565b5b6000613e0885828601613dce565b925050602083015167ffffffffffffffff811115613e2957613e28611ec2565b5b613e3585828601612b2d565b9150509250929050565b600060a0830160008301518482036000860152613e5c8282612bdb565b9150506020830151613e716020860182612c14565b506040830151613e846040860182612c23565b506060830151613e976060860182612c23565b506080830151613eaa6080860182612c23565b508091505092915050565b60006020820190508181036000830152613ecf8184613e3f565b905092915050565b6000613ee282612182565b9050919050565b613ef281613ed7565b8114613efd57600080fd5b50565b600081519050613f0f81613ee9565b92915050565b600067ffffffffffffffff821115613f3057613f2f611fb1565b5b602082029050602081019050919050565b600060808284031215613f5757613f56612255565b5b613f616080612011565b90506000613f7184828501612736565b6000830152506020613f8584828501612736565b6020830152506040613f9984828501612e9c565b6040830152506060613fad84828501612736565b60608301525092915050565b6000613fcc613fc784613f15565b612011565b90508083825260208201905060808402830185811115613fef57613fee612fc0565b5b835b8181101561401857806140048882613f41565b845260208401935050608081019050613ff1565b5050509392505050565b600082601f83011261403757614036611f96565b5b8151614047848260208601613fb9565b91505092915050565b6000806040838503121561406757614066611ebd565b5b600061407585828601613f00565b925050602083015167ffffffffffffffff81111561409657614095611ec2565b5b6140a285828601614022565b9150509250929050565b600081519050919050565b600082825260208201905092915050565b6000819050602082019050919050565b6080820160008201516140ee6000850182612c14565b5060208201516141016020850182612c14565b50604082015161411460408501826137d4565b5060608201516141276060850182612c14565b50505050565b600061413983836140d8565b60808301905092915050565b6000602082019050919050565b600061415d826140ac565b61416781856140b7565b9350614172836140c8565b8060005b838110156141a357815161418a888261412d565b975061419583614145565b925050600181019050614176565b5085935050505092915050565b600060a0820190506141c56000830188612138565b6141d26020830187613190565b81810360408301526141e48186614152565b90506141f36060830185612487565b6142006080830184612138565b9695505050505050565b600060408201905061421f6000830185612487565b61422c6020830184612138565b9392505050565b7f696e76616c696420746f6b656e20616464726573732c20636f6e7461696e732060008201527f6e6f20636f646500000000000000000000000000000000000000000000000000602082015250565b600061428f602783613abf565b915061429a82614233565b604082019050919050565b600060208201905081810360008301526142be81614282565b9050919050565b6000602082840312156142db576142da611ebd565b5b60006142e984828501612e9c565b9150509291505056fea2646970667358221220571106709aa728a5be804610b2492921f3238e2e2f96214cc22f1eda072b447364736f6c634300081c0033",
  "linkReferences": {},
  "deployedLinkReferences": {}
}