{
  "_format": "hh-sol-artifact-1",
  "contractName": "TestNFTOrderPresigner",
  "sourceName": "contracts/test/TestNFTOrderPresigner.sol",
  "abi": [
    {
      "inputs": [
        {
          "internalType": "contract IZeroEx",
          "name": "_zeroEx",
          "type": "address"
        }
      ],
      "stateMutability": "nonpayable",
      "type": "constructor"
    },
    {
      "inputs": [
        {
          "internalType": "contract IERC1155Token",
          "name": "token",
          "type": "address"
        }
      ],
      "name": "approveERC1155",
      "outputs": [],
      "stateMutability": "nonpayable",
      "type": "function"
    },
    {
      "inputs": [
        {
          "internalType": "contract IERC20Token",
          "name": "token",
          "type": "address"
        }
      ],
      "name": "approveERC20",
      "outputs": [],
      "stateMutability": "nonpayable",
      "type": "function"
    },
    {
      "inputs": [
        {
          "internalType": "contract IERC721Token",
          "name": "token",
          "type": "address"
        }
      ],
      "name": "approveERC721",
      "outputs": [],
      "stateMutability": "nonpayable",
      "type": "function"
    },
    {
      "inputs": [
        {
          "internalType": "uint256",
          "name": "orderNonce",
          "type": "uint256"
        }
      ],
      "name": "cancelERC1155Order",
      "outputs": [],
      "stateMutability": "nonpayable",
      "type": "function"
    },
    {
      "inputs": [
        {
          "internalType": "uint256",
          "name": "orderNonce",
          "type": "uint256"
        }
      ],
      "name": "cancelERC721Order",
      "outputs": [],
      "stateMutability": "nonpayable",
      "type": "function"
    },
    {
      "inputs": [
        {
          "internalType": "address",
          "name": "operator",
          "type": "address"
        },
        {
          "internalType": "address",
          "name": "from",
          "type": "address"
        },
        {
          "internalType": "uint256",
          "name": "id",
          "type": "uint256"
        },
        {
          "internalType": "uint256",
          "name": "value",
          "type": "uint256"
        },
        {
          "internalType": "bytes",
          "name": "data",
          "type": "bytes"
        }
      ],
      "name": "onERC1155Received",
      "outputs": [
        {
          "internalType": "bytes4",
          "name": "success",
          "type": "bytes4"
        }
      ],
      "stateMutability": "nonpayable",
      "type": "function"
    },
    {
      "inputs": [
        {
          "components": [
            {
              "internalType": "enum LibNFTOrder.TradeDirection",
              "name": "direction",
              "type": "uint8"
            },
            {
              "internalType": "address",
              "name": "maker",
              "type": "address"
            },
            {
              "internalType": "address",
              "name": "taker",
              "type": "address"
            },
            {
              "internalType": "uint256",
              "name": "expiry",
              "type": "uint256"
            },
            {
              "internalType": "uint256",
              "name": "nonce",
              "type": "uint256"
            },
            {
              "internalType": "contract IERC20Token",
              "name": "erc20Token",
              "type": "address"
            },
            {
              "internalType": "uint256",
              "name": "erc20TokenAmount",
              "type": "uint256"
            },
            {
              "components": [
                {
                  "internalType": "address",
                  "name": "recipient",
                  "type": "address"
                },
                {
                  "internalType": "uint256",
                  "name": "amount",
                  "type": "uint256"
                },
                {
                  "internalType": "bytes",
                  "name": "feeData",
                  "type": "bytes"
                }
              ],
              "internalType": "struct LibNFTOrder.Fee[]",
              "name": "fees",
              "type": "tuple[]"
            },
            {
              "internalType": "contract IERC1155Token",
              "name": "erc1155Token",
              "type": "address"
            },
            {
              "internalType": "uint256",
              "name": "erc1155TokenId",
              "type": "uint256"
            },
            {
              "components": [
                {
                  "internalType": "contract IPropertyValidator",
                  "name": "propertyValidator",
                  "type": "address"
                },
                {
                  "internalType": "bytes",
                  "name": "propertyData",
                  "type": "bytes"
                }
              ],
              "internalType": "struct LibNFTOrder.Property[]",
              "name": "erc1155TokenProperties",
              "type": "tuple[]"
            },
            {
              "internalType": "uint128",
              "name": "erc1155TokenAmount",
              "type": "uint128"
            }
          ],
          "internalType": "struct LibNFTOrder.ERC1155Order",
          "name": "order",
          "type": "tuple"
        }
      ],
      "name": "preSignERC1155Order",
      "outputs": [],
      "stateMutability": "nonpayable",
      "type": "function"
    },
    {
      "inputs": [
        {
          "components": [
            {
              "internalType": "enum LibNFTOrder.TradeDirection",
              "name": "direction",
              "type": "uint8"
            },
            {
              "internalType": "address",
              "name": "maker",
              "type": "address"
            },
            {
              "internalType": "address",
              "name": "taker",
              "type": "address"
            },
            {
              "internalType": "uint256",
              "name": "expiry",
              "type": "uint256"
            },
            {
              "internalType": "uint256",
              "name": "nonce",
              "type": "uint256"
            },
            {
              "internalType": "contract IERC20Token",
              "name": "erc20Token",
              "type": "address"
            },
            {
              "internalType": "uint256",
              "name": "erc20TokenAmount",
              "type": "uint256"
            },
            {
              "components": [
                {
                  "internalType": "address",
                  "name": "recipient",
                  "type": "address"
                },
                {
                  "internalType": "uint256",
                  "name": "amount",
                  "type": "uint256"
                },
                {
                  "internalType": "bytes",
                  "name": "feeData",
                  "type": "bytes"
                }
              ],
              "internalType": "struct LibNFTOrder.Fee[]",
              "name": "fees",
              "type": "tuple[]"
            },
            {
              "internalType": "contract IERC721Token",
              "name": "erc721Token",
              "type": "address"
            },
            {
              "internalType": "uint256",
              "name": "erc721TokenId",
              "type": "uint256"
            },
            {
              "components": [
                {
                  "internalType": "contract IPropertyValidator",
                  "name": "propertyValidator",
                  "type": "address"
                },
                {
                  "internalType": "bytes",
                  "name": "propertyData",
                  "type": "bytes"
                }
              ],
              "internalType": "struct LibNFTOrder.Property[]",
              "name": "erc721TokenProperties",
              "type": "tuple[]"
            }
          ],
          "internalType": "struct LibNFTOrder.ERC721Order",
          "name": "order",
          "type": "tuple"
        }
      ],
      "name": "preSignERC721Order",
      "outputs": [],
      "stateMutability": "nonpayable",
      "type": "function"
    }
  ],
  "bytecode": "0x60a060405234801561000f575f5ffd5b50604051610d67380380610d6783398101604081905261002e9161003f565b6001600160a01b031660805261006c565b5f6020828403121561004f575f5ffd5b81516001600160a01b0381168114610065575f5ffd5b9392505050565b608051610cc06100a75f395f818161019a01528181610247015281816103200152818161039b0152818161040d01526104710152610cc05ff3fe608060405234801561000f575f5ffd5b5060043610610085575f3560e01c80637b757d97116100585780637b757d97146100d7578063be167b9d146100ea578063c6b72a1f146100b1578063f23a6e61146100fd575f5ffd5b806306d2596b1461008957806311e8701c1461009e57806346195c12146100b1578063462103af146100c4575b5f5ffd5b61009c6100973660046104b5565b61016b565b005b61009c6100ac366004610500565b61020a565b61009c6100bf366004610500565b6102e3565b61009c6100d2366004610522565b61035e565b61009c6100e536600461055a565b6103d0565b61009c6100f83660046104b5565b610442565b61013661010b366004610592565b7ff23a6e61000000000000000000000000000000000000000000000000000000009695505050505050565b6040517fffffffff00000000000000000000000000000000000000000000000000000000909116815260200160405180910390f35b6040517f06d2596b000000000000000000000000000000000000000000000000000000008152600481018290527f000000000000000000000000000000000000000000000000000000000000000073ffffffffffffffffffffffffffffffffffffffff16906306d2596b906024015b5f604051808303815f87803b1580156101f1575f5ffd5b505af1158015610203573d5f5f3e3d5ffd5b5050505050565b6040517f095ea7b300000000000000000000000000000000000000000000000000000000815273ffffffffffffffffffffffffffffffffffffffff7f0000000000000000000000000000000000000000000000000000000000000000811660048301527fffffffffffffffffffffffffffffffffffffffffffffffffffffffffffffffff602483015282169063095ea7b3906044016020604051808303815f875af11580156102bb573d5f5f3e3d5ffd5b505050506040513d601f19601f820116820180604052508101906102df9190610637565b5050565b6040517fa22cb46500000000000000000000000000000000000000000000000000000000815273ffffffffffffffffffffffffffffffffffffffff7f0000000000000000000000000000000000000000000000000000000000000000811660048301526001602483015282169063a22cb465906044016101da565b6040517f462103af00000000000000000000000000000000000000000000000000000000815273ffffffffffffffffffffffffffffffffffffffff7f0000000000000000000000000000000000000000000000000000000000000000169063462103af906101da908490600401610974565b6040517f7b757d9700000000000000000000000000000000000000000000000000000000815273ffffffffffffffffffffffffffffffffffffffff7f00000000000000000000000000000000000000000000000000000000000000001690637b757d97906101da908490600401610afd565b6040517fbe167b9d000000000000000000000000000000000000000000000000000000008152600481018290527f000000000000000000000000000000000000000000000000000000000000000073ffffffffffffffffffffffffffffffffffffffff169063be167b9d906024016101da565b5f602082840312156104c5575f5ffd5b5035919050565b73ffffffffffffffffffffffffffffffffffffffff811681146104ed575f5ffd5b50565b80356104fb816104cc565b919050565b5f60208284031215610510575f5ffd5b813561051b816104cc565b9392505050565b5f60208284031215610532575f5ffd5b813567ffffffffffffffff811115610548575f5ffd5b8201610160818503121561051b575f5ffd5b5f6020828403121561056a575f5ffd5b813567ffffffffffffffff811115610580575f5ffd5b8201610180818503121561051b575f5ffd5b5f5f5f5f5f5f60a087890312156105a7575f5ffd5b86356105b2816104cc565b955060208701356105c2816104cc565b94506040870135935060608701359250608087013567ffffffffffffffff8111156105eb575f5ffd5b8701601f810189136105fb575f5ffd5b803567ffffffffffffffff811115610611575f5ffd5b896020828401011115610622575f5ffd5b60208201935080925050509295509295509295565b5f60208284031215610647575f5ffd5b8151801515811461051b575f5ffd5b8035600281106104fb575f5ffd5b60028110610699577f4e487b71000000000000000000000000000000000000000000000000000000005f52602160045260245ffd5b9052565b5f5f83357fffffffffffffffffffffffffffffffffffffffffffffffffffffffffffffffe18436030181126106d0575f5ffd5b830160208101925035905067ffffffffffffffff8111156106ef575f5ffd5b8060051b3603821315610700575f5ffd5b9250929050565b5f5f83357fffffffffffffffffffffffffffffffffffffffffffffffffffffffffffffffe184360301811261073a575f5ffd5b830160208101925035905067ffffffffffffffff811115610759575f5ffd5b803603821315610700575f5ffd5b81835281816020850137505f602082840101525f60207fffffffffffffffffffffffffffffffffffffffffffffffffffffffffffffffe0601f840116840101905092915050565b5f8383855260208501945060208460051b820101835f5b86811015610890577fffffffffffffffffffffffffffffffffffffffffffffffffffffffffffffffe084840301885281357fffffffffffffffffffffffffffffffffffffffffffffffffffffffffffffffa1873603018112610825575f5ffd5b86018035610832816104cc565b73ffffffffffffffffffffffffffffffffffffffff168452602081810135908501526108616040820182610707565b915060606040860152610878606086018383610767565b60209a8b019a909550939093019250506001016107c5565b50909695505050505050565b5f8383855260208501945060208460051b820101835f5b86811015610890577fffffffffffffffffffffffffffffffffffffffffffffffffffffffffffffffe084840301885281357fffffffffffffffffffffffffffffffffffffffffffffffffffffffffffffffc1873603018112610913575f5ffd5b86018035610920816104cc565b73ffffffffffffffffffffffffffffffffffffffff1684526109456020820182610707565b91506040602086015261095c604086018383610767565b60209a8b019a909550939093019250506001016108b3565b6020815261098d6020820161098884610656565b610664565b5f61099a602084016104f0565b73ffffffffffffffffffffffffffffffffffffffff81166040840152506109c3604084016104f0565b73ffffffffffffffffffffffffffffffffffffffff8116606084015250606083013560808381019190915283013560a080840191909152610a059084016104f0565b73ffffffffffffffffffffffffffffffffffffffff811660c08401525060c083013560e083810191909152610a3c9084018461069d565b610160610100850152610a54610180850182846107ae565b915050610a6461010085016104f0565b73ffffffffffffffffffffffffffffffffffffffff81166101208501525061012084013561014084810191909152610a9e9085018561069d565b7fffffffffffffffffffffffffffffffffffffffffffffffffffffffffffffffe085840301610160860152610ad483828461089c565b9695505050505050565b80356fffffffffffffffffffffffffffffffff811681146104fb575f5ffd5b60208152610b116020820161098884610656565b5f610b1e602084016104f0565b73ffffffffffffffffffffffffffffffffffffffff8116604084015250610b47604084016104f0565b73ffffffffffffffffffffffffffffffffffffffff8116606084015250606083013560808381019190915283013560a080840191909152610b899084016104f0565b73ffffffffffffffffffffffffffffffffffffffff811660c08401525060c083013560e083810191909152610bc09084018461069d565b610180610100850152610bd86101a0850182846107ae565b915050610be861010085016104f0565b73ffffffffffffffffffffffffffffffffffffffff81166101208501525061012084013561014084810191909152610c229085018561069d565b7fffffffffffffffffffffffffffffffffffffffffffffffffffffffffffffffe085840301610160860152610c5883828461089c565b92505050610c696101608501610ade565b6fffffffffffffffffffffffffffffffff811661018085015250939250505056fea2646970667358221220e368c09e93487bc1562e0884219dd430879b2ac303a2f513dd16e7b7ba65b71664736f6c634300081c0033",
  "linkReferences": {},
  "deployedLinkReferences": {}
}