{
  "_format": "hh-sol-artifact-1",
  "contractName": "TestNFTOrderPresigner",
  "sourceName": "contracts/test/TestNFTOrderPresigner.sol",
  "abi": [
    {
      "inputs": [
        {
          "internalType": "contract IZeroEx",
          "name": "_zeroEx",
          "type": "address"
        }
      ],
      "stateMutability": "nonpayable",
      "type": "constructor"
    },
    {
      "inputs": [
        {
          "internalType": "contract IERC1155Token",
          "name": "token",
          "type": "address"
        }
      ],
      "name": "approveERC1155",
      "outputs": [],
      "stateMutability": "nonpayable",
      "type": "function"
    },
    {
      "inputs": [
        {
          "internalType": "contract IERC20Token",
          "name": "token",
          "type": "address"
        }
      ],
      "name": "approveERC20",
      "outputs": [],
      "stateMutability": "nonpayable",
      "type": "function"
    },
    {
      "inputs": [
        {
          "internalType": "contract IERC721Token",
          "name": "token",
          "type": "address"
        }
      ],
      "name": "approveERC721",
      "outputs": [],
      "stateMutability": "nonpayable",
      "type": "function"
    },
    {
      "inputs": [
        {
          "internalType": "uint256",
          "name": "orderNonce",
          "type": "uint256"
        }
      ],
      "name": "cancelERC1155Order",
      "outputs": [],
      "stateMutability": "nonpayable",
      "type": "function"
    },
    {
      "inputs": [
        {
          "internalType": "uint256",
          "name": "orderNonce",
          "type": "uint256"
        }
      ],
      "name": "cancelERC721Order",
      "outputs": [],
      "stateMutability": "nonpayable",
      "type": "function"
    },
    {
      "inputs": [
        {
          "internalType": "address",
          "name": "operator",
          "type": "address"
        },
        {
          "internalType": "address",
          "name": "from",
          "type": "address"
        },
        {
          "internalType": "uint256",
          "name": "id",
          "type": "uint256"
        },
        {
          "internalType": "uint256",
          "name": "value",
          "type": "uint256"
        },
        {
          "internalType": "bytes",
          "name": "data",
          "type": "bytes"
        }
      ],
      "name": "onERC1155Received",
      "outputs": [
        {
          "internalType": "bytes4",
          "name": "success",
          "type": "bytes4"
        }
      ],
      "stateMutability": "nonpayable",
      "type": "function"
    },
    {
      "inputs": [
        {
          "components": [
            {
              "internalType": "enum LibNFTOrder.TradeDirection",
              "name": "direction",
              "type": "uint8"
            },
            {
              "internalType": "address",
              "name": "maker",
              "type": "address"
            },
            {
              "internalType": "address",
              "name": "taker",
              "type": "address"
            },
            {
              "internalType": "uint256",
              "name": "expiry",
              "type": "uint256"
            },
            {
              "internalType": "uint256",
              "name": "nonce",
              "type": "uint256"
            },
            {
              "internalType": "contract IERC20Token",
              "name": "erc20Token",
              "type": "address"
            },
            {
              "internalType": "uint256",
              "name": "erc20TokenAmount",
              "type": "uint256"
            },
            {
              "components": [
                {
                  "internalType": "address",
                  "name": "recipient",
                  "type": "address"
                },
                {
                  "internalType": "uint256",
                  "name": "amount",
                  "type": "uint256"
                },
                {
                  "internalType": "bytes",
                  "name": "feeData",
                  "type": "bytes"
                }
              ],
              "internalType": "struct LibNFTOrder.Fee[]",
              "name": "fees",
              "type": "tuple[]"
            },
            {
              "internalType": "contract IERC1155Token",
              "name": "erc1155Token",
              "type": "address"
            },
            {
              "internalType": "uint256",
              "name": "erc1155TokenId",
              "type": "uint256"
            },
            {
              "components": [
                {
                  "internalType": "contract IPropertyValidator",
                  "name": "propertyValidator",
                  "type": "address"
                },
                {
                  "internalType": "bytes",
                  "name": "propertyData",
                  "type": "bytes"
                }
              ],
              "internalType": "struct LibNFTOrder.Property[]",
              "name": "erc1155TokenProperties",
              "type": "tuple[]"
            },
            {
              "internalType": "uint128",
              "name": "erc1155TokenAmount",
              "type": "uint128"
            }
          ],
          "internalType": "struct LibNFTOrder.ERC1155Order",
          "name": "order",
          "type": "tuple"
        }
      ],
      "name": "preSignERC1155Order",
      "outputs": [],
      "stateMutability": "nonpayable",
      "type": "function"
    },
    {
      "inputs": [
        {
          "components": [
            {
              "internalType": "enum LibNFTOrder.TradeDirection",
              "name": "direction",
              "type": "uint8"
            },
            {
              "internalType": "address",
              "name": "maker",
              "type": "address"
            },
            {
              "internalType": "address",
              "name": "taker",
              "type": "address"
            },
            {
              "internalType": "uint256",
              "name": "expiry",
              "type": "uint256"
            },
            {
              "internalType": "uint256",
              "name": "nonce",
              "type": "uint256"
            },
            {
              "internalType": "contract IERC20Token",
              "name": "erc20Token",
              "type": "address"
            },
            {
              "internalType": "uint256",
              "name": "erc20TokenAmount",
              "type": "uint256"
            },
            {
              "components": [
                {
                  "internalType": "address",
                  "name": "recipient",
                  "type": "address"
                },
                {
                  "internalType": "uint256",
                  "name": "amount",
                  "type": "uint256"
                },
                {
                  "internalType": "bytes",
                  "name": "feeData",
                  "type": "bytes"
                }
              ],
              "internalType": "struct LibNFTOrder.Fee[]",
              "name": "fees",
              "type": "tuple[]"
            },
            {
              "internalType": "contract IERC721Token",
              "name": "erc721Token",
              "type": "address"
            },
            {
              "internalType": "uint256",
              "name": "erc721TokenId",
              "type": "uint256"
            },
            {
              "components": [
                {
                  "internalType": "contract IPropertyValidator",
                  "name": "propertyValidator",
                  "type": "address"
                },
                {
                  "internalType": "bytes",
                  "name": "propertyData",
                  "type": "bytes"
                }
              ],
              "internalType": "struct LibNFTOrder.Property[]",
              "name": "erc721TokenProperties",
              "type": "tuple[]"
            }
          ],
          "internalType": "struct LibNFTOrder.ERC721Order",
          "name": "order",
          "type": "tuple"
        }
      ],
      "name": "preSignERC721Order",
      "outputs": [],
      "stateMutability": "nonpayable",
      "type": "function"
    }
  ],
  "bytecode": "0x60a060405234801561000f575f5ffd5b50604051610a6c380380610a6c83398101604081905261002e9161003f565b6001600160a01b031660805261006c565b5f6020828403121561004f575f5ffd5b81516001600160a01b0381168114610065575f5ffd5b9392505050565b6080516109c56100a75f395f8181610150015281816101ca0152818161025e015281816102b3015281816102ff015261034a01526109c55ff3fe608060405234801561000f575f5ffd5b5060043610610085575f3560e01c80637b757d97116100585780637b757d97146100d7578063be167b9d146100ea578063c6b72a1f146100b1578063f23a6e61146100fd575f5ffd5b806306d2596b1461008957806311e8701c1461009e57806346195c12146100b1578063462103af146100c4575b5f5ffd5b61009c610097366004610381565b61013a565b005b61009c6100ac3660046103bf565b6101b3565b61009c6100bf3660046103bf565b610247565b61009c6100d23660046103e1565b61029c565b61009c6100e5366004610419565b6102e8565b61009c6100f8366004610381565b610334565b61011d61010b366004610451565b63f23a6e6160e01b9695505050505050565b6040516001600160e01b0319909116815260200160405180910390f35b6040516306d2596b60e01b8152600481018290527f00000000000000000000000000000000000000000000000000000000000000006001600160a01b0316906306d2596b906024015b5f604051808303815f87803b15801561019a575f5ffd5b505af11580156101ac573d5f5f3e3d5ffd5b5050505050565b60405163095ea7b360e01b81526001600160a01b037f0000000000000000000000000000000000000000000000000000000000000000811660048301525f19602483015282169063095ea7b3906044016020604051808303815f875af115801561021f573d5f5f3e3d5ffd5b505050506040513d601f19601f8201168201806040525081019061024391906104f6565b5050565b60405163a22cb46560e01b81526001600160a01b037f0000000000000000000000000000000000000000000000000000000000000000811660048301526001602483015282169063a22cb46590604401610183565b60405163462103af60e01b81526001600160a01b037f0000000000000000000000000000000000000000000000000000000000000000169063462103af9061018390849060040161072f565b604051637b757d9760e01b81526001600160a01b037f00000000000000000000000000000000000000000000000000000000000000001690637b757d979061018390849060040161085d565b60405163be167b9d60e01b8152600481018290527f00000000000000000000000000000000000000000000000000000000000000006001600160a01b03169063be167b9d90602401610183565b5f60208284031215610391575f5ffd5b5035919050565b6001600160a01b03811681146103ac575f5ffd5b50565b80356103ba81610398565b919050565b5f602082840312156103cf575f5ffd5b81356103da81610398565b9392505050565b5f602082840312156103f1575f5ffd5b813567ffffffffffffffff811115610407575f5ffd5b820161016081850312156103da575f5ffd5b5f60208284031215610429575f5ffd5b813567ffffffffffffffff81111561043f575f5ffd5b820161018081850312156103da575f5ffd5b5f5f5f5f5f5f60a08789031215610466575f5ffd5b863561047181610398565b9550602087013561048181610398565b94506040870135935060608701359250608087013567ffffffffffffffff8111156104aa575f5ffd5b8701601f810189136104ba575f5ffd5b803567ffffffffffffffff8111156104d0575f5ffd5b8960208284010111156104e1575f5ffd5b60208201935080925050509295509295509295565b5f60208284031215610506575f5ffd5b815180151581146103da575f5ffd5b8035600281106103ba575f5ffd5b6002811061053f57634e487b7160e01b5f52602160045260245ffd5b9052565b5f5f8335601e19843603018112610558575f5ffd5b830160208101925035905067ffffffffffffffff811115610577575f5ffd5b8060051b3603821315610588575f5ffd5b9250929050565b5f5f8335601e198436030181126105a4575f5ffd5b830160208101925035905067ffffffffffffffff8111156105c3575f5ffd5b803603821315610588575f5ffd5b81835281816020850137505f828201602090810191909152601f909101601f19169091010190565b5f8383855260208501945060208460051b820101835f5b8681101561069357838303601f19018852813536879003605e19018112610635575f5ffd5b8601803561064281610398565b6001600160a01b0316845260208181013590850152610664604082018261058f565b91506060604086015261067b6060860183836105d1565b60209a8b019a90955093909301925050600101610610565b50909695505050505050565b5f8383855260208501945060208460051b820101835f5b8681101561069357838303601f19018852813536879003603e190181126106db575f5ffd5b860180356106e881610398565b6001600160a01b03168452610700602082018261058f565b9150604060208601526107176040860183836105d1565b60209a8b019a909550939093019250506001016106b6565b602081526107486020820161074384610515565b610523565b5f610755602084016103af565b6001600160a01b038116604084015250610771604084016103af565b6001600160a01b038116606084015250606083013560808381019190915283013560a0808401919091526107a69084016103af565b6001600160a01b03811660c08401525060c083013560e0838101919091526107d090840184610543565b6101606101008501526107e8610180850182846105f9565b9150506107f861010085016103af565b6001600160a01b038116610120850152506101208401356101408481019190915261082590850185610543565b848303601f190161016086015261083d83828461069f565b9695505050505050565b80356001600160801b03811681146103ba575f5ffd5b602081526108716020820161074384610515565b5f61087e602084016103af565b6001600160a01b03811660408401525061089a604084016103af565b6001600160a01b038116606084015250606083013560808381019190915283013560a0808401919091526108cf9084016103af565b6001600160a01b03811660c08401525060c083013560e0838101919091526108f990840184610543565b6101806101008501526109116101a0850182846105f9565b91505061092161010085016103af565b6001600160a01b038116610120850152506101208401356101408481019190915261094e90850185610543565b848303601f190161016086015261096683828461069f565b925050506109776101608501610847565b6001600160801b03811661018085015250939250505056fea2646970667358221220bdb6218c69ffef8622921df2d4c0d8a913e8e25a22937f5fec8288b3b3e105cd64736f6c634300081c0033",
  "linkReferences": {},
  "deployedLinkReferences": {}
}