{
  "_format": "hh-sol-artifact-1",
  "contractName": "TestTokenSpenderERC20Token",
  "sourceName": "contracts/test/tokens/TestTokenSpenderERC20Token.sol",
  "abi": [
    {
      "anonymous": false,
      "inputs": [
        {
          "indexed": false,
          "internalType": "address",
          "name": "token",
          "type": "address"
        },
        {
          "indexed": false,
          "internalType": "address",
          "name": "from",
          "type": "address"
        },
        {
          "indexed": false,
          "internalType": "address",
          "name": "to",
          "type": "address"
        },
        {
          "indexed": false,
          "internalType": "uint256",
          "name": "value",
          "type": "uint256"
        }
      ],
      "name": "Transfer",
      "type": "event"
    },
    {
      "anonymous": false,
      "inputs": [
        {
          "indexed": false,
          "internalType": "address",
          "name": "sender",
          "type": "address"
        },
        {
          "indexed": false,
          "internalType": "address",
          "name": "from",
          "type": "address"
        },
        {
          "indexed": false,
          "internalType": "address",
          "name": "to",
          "type": "address"
        },
        {
          "indexed": false,
          "internalType": "uint256",
          "name": "amount",
          "type": "uint256"
        }
      ],
      "name": "TransferFromCalled",
      "type": "event"
    },
    {
      "inputs": [
        {
          "internalType": "address",
          "name": "",
          "type": "address"
        },
        {
          "internalType": "address",
          "name": "",
          "type": "address"
        }
      ],
      "name": "allowance",
      "outputs": [
        {
          "internalType": "uint256",
          "name": "",
          "type": "uint256"
        }
      ],
      "stateMutability": "view",
      "type": "function"
    },
    {
      "inputs": [
        {
          "internalType": "address",
          "name": "spender",
          "type": "address"
        },
        {
          "internalType": "uint256",
          "name": "amount",
          "type": "uint256"
        }
      ],
      "name": "approve",
      "outputs": [
        {
          "internalType": "bool",
          "name": "",
          "type": "bool"
        }
      ],
      "stateMutability": "nonpayable",
      "type": "function"
    },
    {
      "inputs": [
        {
          "internalType": "address",
          "name": "owner",
          "type": "address"
        },
        {
          "internalType": "address",
          "name": "spender",
          "type": "address"
        },
        {
          "internalType": "uint256",
          "name": "amount",
          "type": "uint256"
        }
      ],
      "name": "approveAs",
      "outputs": [
        {
          "internalType": "bool",
          "name": "",
          "type": "bool"
        }
      ],
      "stateMutability": "nonpayable",
      "type": "function"
    },
    {
      "inputs": [
        {
          "internalType": "address",
          "name": "",
          "type": "address"
        }
      ],
      "name": "balanceOf",
      "outputs": [
        {
          "internalType": "uint256",
          "name": "",
          "type": "uint256"
        }
      ],
      "stateMutability": "view",
      "type": "function"
    },
    {
      "inputs": [
        {
          "internalType": "address",
          "name": "owner",
          "type": "address"
        },
        {
          "internalType": "uint256",
          "name": "amount",
          "type": "uint256"
        }
      ],
      "name": "burn",
      "outputs": [],
      "stateMutability": "nonpayable",
      "type": "function"
    },
    {
      "inputs": [
        {
          "internalType": "address",
          "name": "owner",
          "type": "address"
        },
        {
          "internalType": "address",
          "name": "spender",
          "type": "address"
        }
      ],
      "name": "getSpendableAmount",
      "outputs": [
        {
          "internalType": "uint256",
          "name": "",
          "type": "uint256"
        }
      ],
      "stateMutability": "view",
      "type": "function"
    },
    {
      "inputs": [
        {
          "internalType": "address",
          "name": "owner",
          "type": "address"
        },
        {
          "internalType": "uint256",
          "name": "amount",
          "type": "uint256"
        }
      ],
      "name": "mint",
      "outputs": [],
      "stateMutability": "nonpayable",
      "type": "function"
    },
    {
      "inputs": [
        {
          "internalType": "address",
          "name": "owner",
          "type": "address"
        },
        {
          "internalType": "uint256",
          "name": "balance",
          "type": "uint256"
        },
        {
          "internalType": "address",
          "name": "spender",
          "type": "address"
        },
        {
          "internalType": "uint256",
          "name": "allowance_",
          "type": "uint256"
        }
      ],
      "name": "setBalanceAndAllowanceOf",
      "outputs": [],
      "stateMutability": "nonpayable",
      "type": "function"
    },
    {
      "inputs": [
        {
          "internalType": "bool",
          "name": "isGreedy",
          "type": "bool"
        }
      ],
      "name": "setGreedyRevert",
      "outputs": [],
      "stateMutability": "nonpayable",
      "type": "function"
    },
    {
      "inputs": [
        {
          "internalType": "address",
          "name": "to",
          "type": "address"
        },
        {
          "internalType": "uint256",
          "name": "amount",
          "type": "uint256"
        }
      ],
      "name": "transfer",
      "outputs": [
        {
          "internalType": "bool",
          "name": "",
          "type": "bool"
        }
      ],
      "stateMutability": "nonpayable",
      "type": "function"
    },
    {
      "inputs": [
        {
          "internalType": "address",
          "name": "from",
          "type": "address"
        },
        {
          "internalType": "address",
          "name": "to",
          "type": "address"
        },
        {
          "internalType": "uint256",
          "name": "amount",
          "type": "uint256"
        }
      ],
      "name": "transferFrom",
      "outputs": [
        {
          "internalType": "bool",
          "name": "",
          "type": "bool"
        }
      ],
      "stateMutability": "nonpayable",
      "type": "function"
    }
  ],
  "bytecode": "0x6080604052348015600e575f5ffd5b506106968061001c5f395ff3fe608060405234801561000f575f5ffd5b50600436106100a6575f3560e01c80633a73bf271161006e5780633a73bf271461013c57806340c10f191461017c57806370a082311461018f5780639dc29fac146101ae578063a9059cbb146101c1578063dd62ed3e146101d4575f5ffd5b8063095ea7b3146100aa578063111c4724146100d25780631decf162146100e557806323b872dd146101085780632724ed4b1461011b575b5f5ffd5b6100bd6100b8366004610506565b6101fe565b60405190151581526020015b60405180910390f35b6100bd6100e036600461052e565b61022b565b6101066100f3366004610568565b6002805460ff1916911515919091179055565b005b6100bd61011636600461052e565b61025c565b61012e610129366004610587565b610393565b6040519081526020016100c9565b61010661014a3660046105b8565b6001600160a01b039384165f908152602081815260408083209590955560018152848220939095168152919093522055565b61010661018a366004610506565b61040f565b61012e61019d3660046105f9565b5f6020819052908152604090205481565b6101066101bc366004610506565b61043f565b6100bd6101cf366004610506565b6104df565b61012e6101e2366004610587565b600160209081525f928352604080842090915290825290205481565b335f9081526001602081815260408084206001600160a01b03871685529091529091208290555b92915050565b6001600160a01b038084165f90815260016020818152604080842094871684529390529190208290555b9392505050565b604080513381526001600160a01b0385811660208301528416818301526060810183905290515f917ff50c935f8b94f9688106353b0b0d3e83df3859504445a159e212dfbf936aa433919081900360800190a161053982036102ba57005b61053a82036102ca57505f610255565b61053b820361033d5760025460ff16156102e6576102e6610612565b60405162461bcd60e51b815260206004820152602160248201527f54657374546f6b656e5370656e6465724552433230546f6b656e2f52657665726044820152601d60fa1b60648201526084015b60405180910390fd5b61053c82036103605760025460ff161561035957610359610612565b505f610255565b61053d821480610371575061053e82145b156103895761053d82145f8181526020849052604090f35b5060019392505050565b6001600160a01b038083165f81815260016020908152604080832094861683529381528382205492825281905291822054106103f3576001600160a01b038084165f90815260016020908152604080832093861683529290522054610255565b50506001600160a01b03165f9081526020819052604090205490565b6001600160a01b0382165f908152602081905260408120805483929061043690849061063a565b90915550505050565b6001600160a01b0382165f908152602081905260409020548111156104b85760405162461bcd60e51b815260206004820152602960248201527f546573744d696e7461626c654552433230546f6b656e2f494e53554646494349604482015268454e545f46554e445360b81b6064820152608401610334565b6001600160a01b0382165f908152602081905260408120805483929061043690849061064d565b5f61025533848461025c565b80356001600160a01b0381168114610501575f5ffd5b919050565b5f5f60408385031215610517575f5ffd5b610520836104eb565b946020939093013593505050565b5f5f5f60608486031215610540575f5ffd5b610549846104eb565b9250610557602085016104eb565b929592945050506040919091013590565b5f60208284031215610578575f5ffd5b81358015158114610255575f5ffd5b5f5f60408385031215610598575f5ffd5b6105a1836104eb565b91506105af602084016104eb565b90509250929050565b5f5f5f5f608085870312156105cb575f5ffd5b6105d4856104eb565b9350602085013592506105e9604086016104eb565b9396929550929360600135925050565b5f60208284031215610609575f5ffd5b610255826104eb565b634e487b7160e01b5f52600160045260245ffd5b634e487b7160e01b5f52601160045260245ffd5b8082018082111561022557610225610626565b818103818111156102255761022561062656fea2646970667358221220e4d0bebb61fb5fee4beac332696203739ad8540ddc20d81a6e6d6a24d4f31ad164736f6c634300081c0033",
  "linkReferences": {},
  "deployedLinkReferences": {}
}