{
  "_format": "hh-sol-artifact-1",
  "contractName": "TestFillQuoteTransformerHost",
  "sourceName": "contracts/test/TestFillQuoteTransformerHost.sol",
  "abi": [
    {
      "inputs": [
        {
          "internalType": "contract IERC20Transformer",
          "name": "transformer",
          "type": "address"
        },
        {
          "internalType": "contract TestMintableERC20Token",
          "name": "inputToken",
          "type": "address"
        },
        {
          "internalType": "uint256",
          "name": "inputTokenAmount",
          "type": "uint256"
        },
        {
          "internalType": "address payable",
          "name": "sender",
          "type": "address"
        },
        {
          "internalType": "address payable",
          "name": "recipient",
          "type": "address"
        },
        {
          "internalType": "bytes",
          "name": "data",
          "type": "bytes"
        }
      ],
      "name": "executeTransform",
      "outputs": [],
      "stateMutability": "payable",
      "type": "function"
    },
    {
      "inputs": [
        {
          "internalType": "contract IERC20Transformer",
          "name": "transformer",
          "type": "address"
        },
        {
          "components": [
            {
              "internalType": "address payable",
              "name": "sender",
              "type": "address"
            },
            {
              "internalType": "address payable",
              "name": "recipient",
              "type": "address"
            },
            {
              "internalType": "bytes",
              "name": "data",
              "type": "bytes"
            }
          ],
          "internalType": "struct IERC20Transformer.TransformContext",
          "name": "context",
          "type": "tuple"
        }
      ],
      "name": "rawExecuteTransform",
      "outputs": [],
      "stateMutability": "nonpayable",
      "type": "function"
    },
    {
      "stateMutability": "payable",
      "type": "receive"
    }
  ],
  "bytecode": "0x6080604052348015600e575f5ffd5b506105c28061001c5f395ff3fe60806040526004361061002b575f3560e01c8063844e7c5b14610036578063a22ad39e14610057575f5ffd5b3661003257005b5f5ffd5b348015610041575f5ffd5b506100556100503660046102fe565b61006a565b005b610055610065366004610351565b6101b3565b5f5f836001600160a01b031663832b24bb60e01b8460405160240161008f919061043a565b60408051601f198184030181529181526020820180516001600160e01b03166001600160e01b03199094169390931790925290516100cd91906104d6565b5f60405180830381855af49150503d805f8114610105576040519150601f19603f3d011682016040523d82523d5f602084013e61010a565b606091505b50915091508161011d5761011d816102df565b80516309e4c94f60e11b9061013b90830160209081019084016104ec565b6001600160e01b031916146101ad5760405162461bcd60e51b815260206004820152602e60248201527f546573745472616e73666f726d6572486f73742f494e56414c49445f5452414e60448201526d14d193d493515497d49154d5531560921b606482015260840160405180910390fd5b50505050565b8415610217576040516340c10f1960e01b81526001600160a01b038881166004830152602482018790528716906340c10f19906044015f604051808303815f87803b158015610200575f5ffd5b505af1158015610212573d5f5f3e3d5ffd5b505050505b306001600160a01b031663844e7c5b886040518060600160405280886001600160a01b03168152602001876001600160a01b0316815260200186868080601f0160208091040260200160405190810160405280939291908181526020018383808284375f9201919091525050509152506040516001600160e01b031960e085901b1681526102a992919060040161051a565b5f604051808303815f87803b1580156102c0575f5ffd5b505af11580156102d2573d5f5f3e3d5ffd5b5050505050505050505050565b805160208201fd5b6001600160a01b03811681146102fb575f5ffd5b50565b5f5f6040838503121561030f575f5ffd5b823561031a816102e7565b9150602083013567ffffffffffffffff811115610335575f5ffd5b830160608186031215610346575f5ffd5b809150509250929050565b5f5f5f5f5f5f5f60c0888a031215610367575f5ffd5b8735610372816102e7565b96506020880135610382816102e7565b9550604088013594506060880135610399816102e7565b935060808801356103a9816102e7565b925060a088013567ffffffffffffffff8111156103c4575f5ffd5b8801601f81018a136103d4575f5ffd5b803567ffffffffffffffff8111156103ea575f5ffd5b8a60208284010111156103fb575f5ffd5b602082019350809250505092959891949750929550565b81835281816020850137505f828201602090810191909152601f909101601f19169091010190565b602081525f823561044a816102e7565b6001600160a01b0316602083810191909152830135610468816102e7565b6001600160a01b031660408381019190915283013536849003601e1901811261048f575f5ffd5b830160208101903567ffffffffffffffff8111156104ab575f5ffd5b8036038213156104b9575f5ffd5b6060808501526104cd608085018284610412565b95945050505050565b5f82518060208501845e5f920191825250919050565b5f602082840312156104fc575f5ffd5b81516001600160e01b031981168114610513575f5ffd5b9392505050565b60018060a01b03831681526040602082015260018060a01b03825116604082015260018060a01b0360208301511660608201525f60408301516060608084015280518060a0850152806020830160c086015e5f60c0828601015260c0601f19601f83011685010192505050939250505056fea26469706673582212208b61e25db107e83e434e7bcf6d72606e0acdd2733b73e5a8e6f7b802a275932b64736f6c634300081c0033",
  "linkReferences": {},
  "deployedLinkReferences": {}
}