{
  "_format": "hh-sol-artifact-1",
  "contractName": "TestFillQuoteTransformerHost",
  "sourceName": "contracts/test/TestFillQuoteTransformerHost.sol",
  "abi": [
    {
      "inputs": [
        {
          "internalType": "contract IERC20Transformer",
          "name": "transformer",
          "type": "address"
        },
        {
          "internalType": "contract TestMintableERC20Token",
          "name": "inputToken",
          "type": "address"
        },
        {
          "internalType": "uint256",
          "name": "inputTokenAmount",
          "type": "uint256"
        },
        {
          "internalType": "address payable",
          "name": "sender",
          "type": "address"
        },
        {
          "internalType": "address payable",
          "name": "recipient",
          "type": "address"
        },
        {
          "internalType": "bytes",
          "name": "data",
          "type": "bytes"
        }
      ],
      "name": "executeTransform",
      "outputs": [],
      "stateMutability": "payable",
      "type": "function"
    },
    {
      "inputs": [
        {
          "internalType": "contract IERC20Transformer",
          "name": "transformer",
          "type": "address"
        },
        {
          "components": [
            {
              "internalType": "address payable",
              "name": "sender",
              "type": "address"
            },
            {
              "internalType": "address payable",
              "name": "recipient",
              "type": "address"
            },
            {
              "internalType": "bytes",
              "name": "data",
              "type": "bytes"
            }
          ],
          "internalType": "struct IERC20Transformer.TransformContext",
          "name": "context",
          "type": "tuple"
        }
      ],
      "name": "rawExecuteTransform",
      "outputs": [],
      "stateMutability": "nonpayable",
      "type": "function"
    },
    {
      "stateMutability": "payable",
      "type": "receive"
    }
  ],
  "bytecode": "0x6080604052348015600e575f5ffd5b5061079a8061001c5f395ff3fe60806040526004361061002b575f3560e01c8063844e7c5b14610036578063a22ad39e14610057575f5ffd5b3661003257005b5f5ffd5b348015610041575f5ffd5b50610055610050366004610420565b61006a565b005b610055610065366004610473565b610265565b5f5f8373ffffffffffffffffffffffffffffffffffffffff1663832b24bb60e01b8460405160240161009c919061057b565b604080517fffffffffffffffffffffffffffffffffffffffffffffffffffffffffffffffe08184030181529181526020820180517bffffffffffffffffffffffffffffffffffffffffffffffffffffffff167fffffffff00000000000000000000000000000000000000000000000000000000909416939093179092529051610125919061064e565b5f60405180830381855af49150503d805f811461015d576040519150601f19603f3d011682016040523d82523d5f602084013e610162565b606091505b50915091508161017557610175816103f4565b80517f13c9929e00000000000000000000000000000000000000000000000000000000906101ac9083016020908101908401610664565b7fffffffff00000000000000000000000000000000000000000000000000000000161461025f576040517f08c379a000000000000000000000000000000000000000000000000000000000815260206004820152602e60248201527f546573745472616e73666f726d6572486f73742f494e56414c49445f5452414e60448201527f53464f524d45525f524553554c54000000000000000000000000000000000000606482015260840160405180910390fd5b50505050565b84156102ed576040517f40c10f190000000000000000000000000000000000000000000000000000000081523060048201526024810186905273ffffffffffffffffffffffffffffffffffffffff8716906340c10f19906044015f604051808303815f87803b1580156102d6575f5ffd5b505af11580156102e8573d5f5f3e3d5ffd5b505050505b3073ffffffffffffffffffffffffffffffffffffffff1663844e7c5b8860405180606001604052808873ffffffffffffffffffffffffffffffffffffffff1681526020018773ffffffffffffffffffffffffffffffffffffffff16815260200186868080601f0160208091040260200160405190810160405280939291908181526020018383808284375f9201919091525050509152506040517fffffffff0000000000000000000000000000000000000000000000000000000060e085901b1681526103be9291906004016106aa565b5f604051808303815f87803b1580156103d5575f5ffd5b505af11580156103e7573d5f5f3e3d5ffd5b5050505050505050505050565b805160208201fd5b73ffffffffffffffffffffffffffffffffffffffff8116811461041d575f5ffd5b50565b5f5f60408385031215610431575f5ffd5b823561043c816103fc565b9150602083013567ffffffffffffffff811115610457575f5ffd5b830160608186031215610468575f5ffd5b809150509250929050565b5f5f5f5f5f5f5f60c0888a031215610489575f5ffd5b8735610494816103fc565b965060208801356104a4816103fc565b95506040880135945060608801356104bb816103fc565b935060808801356104cb816103fc565b925060a088013567ffffffffffffffff8111156104e6575f5ffd5b8801601f81018a136104f6575f5ffd5b803567ffffffffffffffff81111561050c575f5ffd5b8a602082840101111561051d575f5ffd5b602082019350809250505092959891949750929550565b81835281816020850137505f602082840101525f60207fffffffffffffffffffffffffffffffffffffffffffffffffffffffffffffffe0601f840116840101905092915050565b602081525f823561058b816103fc565b73ffffffffffffffffffffffffffffffffffffffff811660208401525060208301356105b6816103fc565b73ffffffffffffffffffffffffffffffffffffffff811660408401525060408301357fffffffffffffffffffffffffffffffffffffffffffffffffffffffffffffffe1843603018112610607575f5ffd5b830160208101903567ffffffffffffffff811115610623575f5ffd5b803603821315610631575f5ffd5b606080850152610645608085018284610534565b95945050505050565b5f82518060208501845e5f920191825250919050565b5f60208284031215610674575f5ffd5b81517fffffffff00000000000000000000000000000000000000000000000000000000811681146106a3575f5ffd5b9392505050565b73ffffffffffffffffffffffffffffffffffffffff831681526040602082015273ffffffffffffffffffffffffffffffffffffffff825116604082015273ffffffffffffffffffffffffffffffffffffffff60208301511660608201525f60408301516060608084015280518060a0850152806020830160c086015e5f60c0828601015260c07fffffffffffffffffffffffffffffffffffffffffffffffffffffffffffffffe0601f83011685010192505050939250505056fea26469706673582212209349a4a97504a47d5d08f0ccd659472b7bfdb0b04ef6c3378a13031e7a8c839664736f6c634300081c0033",
  "linkReferences": {},
  "deployedLinkReferences": {}
}