{
  "_format": "hh-sol-artifact-1",
  "contractName": "ZeroExVotes",
  "sourceName": "src/ZeroExVotes.sol",
  "abi": [
    {
      "inputs": [
        {
          "internalType": "address",
          "name": "_token",
          "type": "address"
        },
        {
          "internalType": "uint256",
          "name": "_quadraticThreshold",
          "type": "uint256"
        }
      ],
      "stateMutability": "nonpayable",
      "type": "constructor"
    },
    {
      "anonymous": false,
      "inputs": [
        {
          "indexed": false,
          "internalType": "address",
          "name": "previousAdmin",
          "type": "address"
        },
        {
          "indexed": false,
          "internalType": "address",
          "name": "newAdmin",
          "type": "address"
        }
      ],
      "name": "AdminChanged",
      "type": "event"
    },
    {
      "anonymous": false,
      "inputs": [
        {
          "indexed": true,
          "internalType": "address",
          "name": "beacon",
          "type": "address"
        }
      ],
      "name": "BeaconUpgraded",
      "type": "event"
    },
    {
      "anonymous": false,
      "inputs": [
        {
          "indexed": true,
          "internalType": "address",
          "name": "delegate",
          "type": "address"
        },
        {
          "indexed": false,
          "internalType": "uint256",
          "name": "previousQuadraticBalance",
          "type": "uint256"
        },
        {
          "indexed": false,
          "internalType": "uint256",
          "name": "newQuadraticBalance",
          "type": "uint256"
        }
      ],
      "name": "DelegateQuadraticVotesChanged",
      "type": "event"
    },
    {
      "anonymous": false,
      "inputs": [
        {
          "indexed": true,
          "internalType": "address",
          "name": "delegate",
          "type": "address"
        },
        {
          "indexed": false,
          "internalType": "uint256",
          "name": "previousBalance",
          "type": "uint256"
        },
        {
          "indexed": false,
          "internalType": "uint256",
          "name": "newBalance",
          "type": "uint256"
        }
      ],
      "name": "DelegateVotesChanged",
      "type": "event"
    },
    {
      "anonymous": false,
      "inputs": [
        {
          "indexed": false,
          "internalType": "uint8",
          "name": "version",
          "type": "uint8"
        }
      ],
      "name": "Initialized",
      "type": "event"
    },
    {
      "anonymous": false,
      "inputs": [
        {
          "indexed": true,
          "internalType": "address",
          "name": "previousOwner",
          "type": "address"
        },
        {
          "indexed": true,
          "internalType": "address",
          "name": "newOwner",
          "type": "address"
        }
      ],
      "name": "OwnershipTransferred",
      "type": "event"
    },
    {
      "anonymous": false,
      "inputs": [
        {
          "indexed": false,
          "internalType": "uint256",
          "name": "totalSupplyVotes",
          "type": "uint256"
        },
        {
          "indexed": false,
          "internalType": "uint256",
          "name": "totalSupplyQuadraticVotes",
          "type": "uint256"
        }
      ],
      "name": "TotalSupplyChanged",
      "type": "event"
    },
    {
      "anonymous": false,
      "inputs": [
        {
          "indexed": true,
          "internalType": "address",
          "name": "implementation",
          "type": "address"
        }
      ],
      "name": "Upgraded",
      "type": "event"
    },
    {
      "inputs": [
        {
          "internalType": "address",
          "name": "account",
          "type": "address"
        },
        {
          "internalType": "uint32",
          "name": "pos",
          "type": "uint32"
        }
      ],
      "name": "checkpoints",
      "outputs": [
        {
          "components": [
            {
              "internalType": "uint32",
              "name": "fromBlock",
              "type": "uint32"
            },
            {
              "internalType": "uint96",
              "name": "votes",
              "type": "uint96"
            },
            {
              "internalType": "uint96",
              "name": "quadraticVotes",
              "type": "uint96"
            }
          ],
          "internalType": "struct IZeroExVotes.Checkpoint",
          "name": "",
          "type": "tuple"
        }
      ],
      "stateMutability": "view",
      "type": "function"
    },
    {
      "inputs": [
        {
          "internalType": "uint256",
          "name": "blockNumber",
          "type": "uint256"
        }
      ],
      "name": "getPastQuadraticTotalSupply",
      "outputs": [
        {
          "internalType": "uint256",
          "name": "",
          "type": "uint256"
        }
      ],
      "stateMutability": "view",
      "type": "function"
    },
    {
      "inputs": [
        {
          "internalType": "address",
          "name": "account",
          "type": "address"
        },
        {
          "internalType": "uint256",
          "name": "blockNumber",
          "type": "uint256"
        }
      ],
      "name": "getPastQuadraticVotes",
      "outputs": [
        {
          "internalType": "uint256",
          "name": "",
          "type": "uint256"
        }
      ],
      "stateMutability": "view",
      "type": "function"
    },
    {
      "inputs": [
        {
          "internalType": "uint256",
          "name": "blockNumber",
          "type": "uint256"
        }
      ],
      "name": "getPastTotalSupply",
      "outputs": [
        {
          "internalType": "uint256",
          "name": "",
          "type": "uint256"
        }
      ],
      "stateMutability": "view",
      "type": "function"
    },
    {
      "inputs": [
        {
          "internalType": "address",
          "name": "account",
          "type": "address"
        },
        {
          "internalType": "uint256",
          "name": "blockNumber",
          "type": "uint256"
        }
      ],
      "name": "getPastVotes",
      "outputs": [
        {
          "internalType": "uint256",
          "name": "",
          "type": "uint256"
        }
      ],
      "stateMutability": "view",
      "type": "function"
    },
    {
      "inputs": [
        {
          "internalType": "address",
          "name": "account",
          "type": "address"
        }
      ],
      "name": "getQuadraticVotes",
      "outputs": [
        {
          "internalType": "uint256",
          "name": "",
          "type": "uint256"
        }
      ],
      "stateMutability": "view",
      "type": "function"
    },
    {
      "inputs": [
        {
          "internalType": "address",
          "name": "account",
          "type": "address"
        }
      ],
      "name": "getVotes",
      "outputs": [
        {
          "internalType": "uint256",
          "name": "",
          "type": "uint256"
        }
      ],
      "stateMutability": "view",
      "type": "function"
    },
    {
      "inputs": [],
      "name": "initialize",
      "outputs": [],
      "stateMutability": "nonpayable",
      "type": "function"
    },
    {
      "inputs": [
        {
          "internalType": "address",
          "name": "src",
          "type": "address"
        },
        {
          "internalType": "address",
          "name": "dst",
          "type": "address"
        },
        {
          "internalType": "uint256",
          "name": "srcBalance",
          "type": "uint256"
        },
        {
          "internalType": "uint256",
          "name": "dstBalance",
          "type": "uint256"
        },
        {
          "internalType": "uint96",
          "name": "srcBalanceLastUpdated",
          "type": "uint96"
        },
        {
          "internalType": "uint96",
          "name": "dstBalanceLastUpdated",
          "type": "uint96"
        },
        {
          "internalType": "uint256",
          "name": "amount",
          "type": "uint256"
        }
      ],
      "name": "moveVotingPower",
      "outputs": [
        {
          "internalType": "bool",
          "name": "",
          "type": "bool"
        }
      ],
      "stateMutability": "nonpayable",
      "type": "function"
    },
    {
      "inputs": [
        {
          "internalType": "address",
          "name": "account",
          "type": "address"
        }
      ],
      "name": "numCheckpoints",
      "outputs": [
        {
          "internalType": "uint32",
          "name": "",
          "type": "uint32"
        }
      ],
      "stateMutability": "view",
      "type": "function"
    },
    {
      "inputs": [],
      "name": "owner",
      "outputs": [
        {
          "internalType": "address",
          "name": "",
          "type": "address"
        }
      ],
      "stateMutability": "view",
      "type": "function"
    },
    {
      "inputs": [],
      "name": "proxiableUUID",
      "outputs": [
        {
          "internalType": "bytes32",
          "name": "",
          "type": "bytes32"
        }
      ],
      "stateMutability": "view",
      "type": "function"
    },
    {
      "inputs": [],
      "name": "quadraticThreshold",
      "outputs": [
        {
          "internalType": "uint256",
          "name": "",
          "type": "uint256"
        }
      ],
      "stateMutability": "view",
      "type": "function"
    },
    {
      "inputs": [],
      "name": "renounceOwnership",
      "outputs": [],
      "stateMutability": "nonpayable",
      "type": "function"
    },
    {
      "inputs": [],
      "name": "token",
      "outputs": [
        {
          "internalType": "address",
          "name": "",
          "type": "address"
        }
      ],
      "stateMutability": "view",
      "type": "function"
    },
    {
      "inputs": [
        {
          "internalType": "address",
          "name": "newOwner",
          "type": "address"
        }
      ],
      "name": "transferOwnership",
      "outputs": [],
      "stateMutability": "nonpayable",
      "type": "function"
    },
    {
      "inputs": [
        {
          "internalType": "address",
          "name": "newImplementation",
          "type": "address"
        }
      ],
      "name": "upgradeTo",
      "outputs": [],
      "stateMutability": "nonpayable",
      "type": "function"
    },
    {
      "inputs": [
        {
          "internalType": "address",
          "name": "newImplementation",
          "type": "address"
        },
        {
          "internalType": "bytes",
          "name": "data",
          "type": "bytes"
        }
      ],
      "name": "upgradeToAndCall",
      "outputs": [],
      "stateMutability": "payable",
      "type": "function"
    },
    {
      "inputs": [
        {
          "internalType": "uint256",
          "name": "accountBalance",
          "type": "uint256"
        },
        {
          "internalType": "uint256",
          "name": "amount",
          "type": "uint256"
        }
      ],
      "name": "writeCheckpointTotalSupplyBurn",
      "outputs": [
        {
          "internalType": "bool",
          "name": "",
          "type": "bool"
        }
      ],
      "stateMutability": "nonpayable",
      "type": "function"
    },
    {
      "inputs": [
        {
          "internalType": "uint256",
          "name": "accountBalance",
          "type": "uint256"
        },
        {
          "internalType": "uint256",
          "name": "amount",
          "type": "uint256"
        }
      ],
      "name": "writeCheckpointTotalSupplyMint",
      "outputs": [
        {
          "internalType": "bool",
          "name": "",
          "type": "bool"
        }
      ],
      "stateMutability": "nonpayable",
      "type": "function"
    }
  ],
  "bytecode": "0x60e060405230608052348015610013575f5ffd5b50604051612cc3380380612cc383398101604081905261003291610167565b6001600160a01b03821661008d5760405162461bcd60e51b815260206004820152601e60248201527f5a65726f4578566f7465733a20746f6b656e2063616e6e6f742062652030000060448201526064015b60405180910390fd5b6001600160a01b03821660a05260c08190526100a76100ae565b505061019e565b5f54610100900460ff16156101155760405162461bcd60e51b815260206004820152602760248201527f496e697469616c697a61626c653a20636f6e747261637420697320696e697469604482015266616c697a696e6760c81b6064820152608401610084565b5f5460ff9081161015610165575f805460ff191660ff9081179091556040519081527f7f26b83ff96e1f2b6a682f133852f6798a09c465da95921460cefb38474024989060200160405180910390a15b565b5f5f60408385031215610178575f5ffd5b82516001600160a01b038116811461018e575f5ffd5b6020939093015192949293505050565b60805160a05160c051612aa06102235f395f8181610376015281816117e20152818161181001528181611852015281816118c0015281816118ee015261191901525f8181610444015261167601525f81816107730152818161082301528181610a2b01528181610adb01528181610c2301528181610e8e0152610f3e0152612aa05ff3fe608060405260043610610157575f3560e01c80637e93e6d8116100bb5780639f43948f11610071578063f12fcb1a11610057578063f12fcb1a146103f5578063f2fde38b14610414578063fc0c546a14610433575f5ffd5b80639f43948f14610365578063f1127ed814610398575f5ffd5b80638da5cb5b116100a15780638da5cb5b146102dc5780638e539e8c146103275780639ab24eb014610346575f5ffd5b80637e93e6d8146102a95780638129fc1c146102c8575f5ffd5b806352d1902d116101105780636fcfff45116100f65780636fcfff4514610242578063715018a61461027657806371839a8b1461028a575f5ffd5b806352d1902d1461020f5780636fb74d3014610223575f5ffd5b80633659cfe6116101405780633659cfe6146101bc5780633a46b1a8146101dd5780634f1ef286146101fc575f5ffd5b80631213a2d81461015b578063235eea3e1461018d575b5f5ffd5b348015610166575f5ffd5b5061017a61017536600461260e565b610466565b6040519081526020015b60405180910390f35b348015610198575f5ffd5b506101ac6101a7366004612668565b6104fa565b6040519015158152602001610184565b3480156101c7575f5ffd5b506101db6101d63660046126d7565b61075c565b005b3480156101e8575f5ffd5b5061017a6101f73660046126f0565b610960565b6101db61020a366004612745565b610a14565b34801561021a575f5ffd5b5061017a610c0a565b34801561022e575f5ffd5b506101ac61023d366004612846565b610cf5565b34801561024d575f5ffd5b5061026161025c3660046126d7565b610d63565b60405163ffffffff9091168152602001610184565b348015610281575f5ffd5b506101db610d91565b348015610295575f5ffd5b5061017a6102a43660046126d7565b610da4565b3480156102b4575f5ffd5b506101ac6102c3366004612846565b610e5c565b3480156102d3575f5ffd5b506101db610e77565b3480156102e7575f5ffd5b5060335473ffffffffffffffffffffffffffffffffffffffff165b60405173ffffffffffffffffffffffffffffffffffffffff9091168152602001610184565b348015610332575f5ffd5b5061017a61034136600461260e565b6111e7565b348015610351575f5ffd5b5061017a6103603660046126d7565b611276565b348015610370575f5ffd5b5061017a7f000000000000000000000000000000000000000000000000000000000000000081565b3480156103a3575f5ffd5b506103b76103b2366004612866565b61130b565b60408051825163ffffffff1681526020808401516bffffffffffffffffffffffff908116918301919091529282015190921690820152606001610184565b348015610400575f5ffd5b5061017a61040f3660046126f0565b6113c3565b34801561041f575f5ffd5b506101db61042e3660046126d7565b611475565b34801561043e575f5ffd5b506103027f000000000000000000000000000000000000000000000000000000000000000081565b5f4382106104d5576040517f08c379a000000000000000000000000000000000000000000000000000000000815260206004820181905260248201527f5a65726f4578566f7465733a20626c6f636b206e6f7420796574206d696e656460448201526064015b60405180910390fd5b5f6104e160ca84611529565b604001516bffffffffffffffffffffffff169392505050565b5f61050361165e565b8673ffffffffffffffffffffffffffffffffffffffff168873ffffffffffffffffffffffffffffffffffffffff161461074e5773ffffffffffffffffffffffffffffffffffffffff8816156106425773ffffffffffffffffffffffffffffffffffffffff88165f90815260c96020526040812081908190819061058b906116fd8c8b8a61170f565b93509350935093508b73ffffffffffffffffffffffffffffffffffffffff167fdec2bacdd2f05b59de34da9b523dff8be42e5e38e818c82fdb0bae774387a72485856040516105e4929190918252602082015260400190565b60405180910390a2604080518381526020810183905273ffffffffffffffffffffffffffffffffffffffff8e16917f44b181d4ce1aafdd99e8b2f815b23362a4e353fe49decb0ad4e08a3f1816cf8b910160405180910390a2505050505b73ffffffffffffffffffffffffffffffffffffffff87161561074e5773ffffffffffffffffffffffffffffffffffffffff87165f90815260c96020526040812081908190819061069790611b3e8b8a8a61170f565b93509350935093508a73ffffffffffffffffffffffffffffffffffffffff167fdec2bacdd2f05b59de34da9b523dff8be42e5e38e818c82fdb0bae774387a72485856040516106f0929190918252602082015260400190565b60405180910390a2604080518381526020810183905273ffffffffffffffffffffffffffffffffffffffff8d16917f44b181d4ce1aafdd99e8b2f815b23362a4e353fe49decb0ad4e08a3f1816cf8b910160405180910390a2505050505b506001979650505050505050565b73ffffffffffffffffffffffffffffffffffffffff7f0000000000000000000000000000000000000000000000000000000000000000163003610821576040517f08c379a000000000000000000000000000000000000000000000000000000000815260206004820152602c60248201527f46756e6374696f6e206d7573742062652063616c6c6564207468726f7567682060448201527f64656c656761746563616c6c000000000000000000000000000000000000000060648201526084016104cc565b7f000000000000000000000000000000000000000000000000000000000000000073ffffffffffffffffffffffffffffffffffffffff166108967f360894a13ba1a3210667c828492db98dca3e2076cc3735a920a3ca505d382bbc5473ffffffffffffffffffffffffffffffffffffffff1690565b73ffffffffffffffffffffffffffffffffffffffff1614610939576040517f08c379a000000000000000000000000000000000000000000000000000000000815260206004820152602c60248201527f46756e6374696f6e206d7573742062652063616c6c6564207468726f7567682060448201527f6163746976652070726f7879000000000000000000000000000000000000000060648201526084016104cc565b61094281611b49565b604080515f8082526020820190925261095d91839190611b51565b50565b5f4382106109ca576040517f08c379a000000000000000000000000000000000000000000000000000000000815260206004820181905260248201527f5a65726f4578566f7465733a20626c6f636b206e6f7420796574206d696e656460448201526064016104cc565b73ffffffffffffffffffffffffffffffffffffffff83165f90815260c9602052604081206109f89084611529565b602001516bffffffffffffffffffffffff169150505b92915050565b73ffffffffffffffffffffffffffffffffffffffff7f0000000000000000000000000000000000000000000000000000000000000000163003610ad9576040517f08c379a000000000000000000000000000000000000000000000000000000000815260206004820152602c60248201527f46756e6374696f6e206d7573742062652063616c6c6564207468726f7567682060448201527f64656c656761746563616c6c000000000000000000000000000000000000000060648201526084016104cc565b7f000000000000000000000000000000000000000000000000000000000000000073ffffffffffffffffffffffffffffffffffffffff16610b4e7f360894a13ba1a3210667c828492db98dca3e2076cc3735a920a3ca505d382bbc5473ffffffffffffffffffffffffffffffffffffffff1690565b73ffffffffffffffffffffffffffffffffffffffff1614610bf1576040517f08c379a000000000000000000000000000000000000000000000000000000000815260206004820152602c60248201527f46756e6374696f6e206d7573742062652063616c6c6564207468726f7567682060448201527f6163746976652070726f7879000000000000000000000000000000000000000060648201526084016104cc565b610bfa82611b49565b610c0682826001611b51565b5050565b5f3073ffffffffffffffffffffffffffffffffffffffff7f00000000000000000000000000000000000000000000000000000000000000001614610cd0576040517f08c379a000000000000000000000000000000000000000000000000000000000815260206004820152603860248201527f555550535570677261646561626c653a206d757374206e6f742062652063616c60448201527f6c6564207468726f7567682064656c656761746563616c6c000000000000000060648201526084016104cc565b507f360894a13ba1a3210667c828492db98dca3e2076cc3735a920a3ca505d382bbc90565b5f610cfe61165e565b5f5f610d1060ca611b3e875f8861170f565b9350509250507fc16e0656e8c02e8cf4339f9e9d1c69f3ee797425ca30c7fc6692bbdaab5292038282604051610d50929190918252602082015260400190565b60405180910390a1506001949350505050565b73ffffffffffffffffffffffffffffffffffffffff81165f90815260c96020526040812054610a0e90611d55565b610d99611dee565b610da25f611e6f565b565b73ffffffffffffffffffffffffffffffffffffffff81165f90815260c960205260408120548015610e455773ffffffffffffffffffffffffffffffffffffffff83165f90815260c96020908152604082208252902081017fffffffffffffffffffffffffffffffffffffffffffffffffffffffffffffffff015470010000000000000000000000000000000090046bffffffffffffffffffffffff16610e47565b5f5b6bffffffffffffffffffffffff169392505050565b5f610e6561165e565b5f5f610d1060ca6116fd875f8861170f565b73ffffffffffffffffffffffffffffffffffffffff7f0000000000000000000000000000000000000000000000000000000000000000163003610f3c576040517f08c379a000000000000000000000000000000000000000000000000000000000815260206004820152602c60248201527f46756e6374696f6e206d7573742062652063616c6c6564207468726f7567682060448201527f64656c656761746563616c6c000000000000000000000000000000000000000060648201526084016104cc565b7f000000000000000000000000000000000000000000000000000000000000000073ffffffffffffffffffffffffffffffffffffffff16610fb17f360894a13ba1a3210667c828492db98dca3e2076cc3735a920a3ca505d382bbc5473ffffffffffffffffffffffffffffffffffffffff1690565b73ffffffffffffffffffffffffffffffffffffffff1614611054576040517f08c379a000000000000000000000000000000000000000000000000000000000815260206004820152602c60248201527f46756e6374696f6e206d7573742062652063616c6c6564207468726f7567682060448201527f6163746976652070726f7879000000000000000000000000000000000000000060648201526084016104cc565b5f54610100900460ff161580801561107257505f54600160ff909116105b8061108b5750303b15801561108b57505f5460ff166001145b611117576040517f08c379a000000000000000000000000000000000000000000000000000000000815260206004820152602e60248201527f496e697469616c697a61626c653a20636f6e747261637420697320616c72656160448201527f647920696e697469616c697a656400000000000000000000000000000000000060648201526084016104cc565b5f80547fffffffffffffffffffffffffffffffffffffffffffffffffffffffffffffff001660011790558015611173575f80547fffffffffffffffffffffffffffffffffffffffffffffffffffffffffffff00ff166101001790555b61117b611ee5565b611183611f83565b801561095d575f80547fffffffffffffffffffffffffffffffffffffffffffffffffffffffffffff00ff169055604051600181527f7f26b83ff96e1f2b6a682f133852f6798a09c465da95921460cefb38474024989060200160405180910390a150565b5f438210611251576040517f08c379a000000000000000000000000000000000000000000000000000000000815260206004820181905260248201527f5a65726f4578566f7465733a20626c6f636b206e6f7420796574206d696e656460448201526064016104cc565b5f61125d60ca84611529565b602001516bffffffffffffffffffffffff169392505050565b73ffffffffffffffffffffffffffffffffffffffff81165f90815260c960205260408120548015610e455773ffffffffffffffffffffffffffffffffffffffff83165f90815260c96020908152604082208252902081017fffffffffffffffffffffffffffffffffffffffffffffffffffffffffffffffff015464010000000090046bffffffffffffffffffffffff16610e47565b604080516060810182525f808252602080830182905282840182905273ffffffffffffffffffffffffffffffffffffffff8616825260c9905291909120805463ffffffff8416908110611360576113606128a3565b5f91825260209182902060408051606081018252919092015463ffffffff811682526bffffffffffffffffffffffff6401000000008204811694830194909452700100000000000000000000000000000000900490921690820152905092915050565b5f43821061142d576040517f08c379a000000000000000000000000000000000000000000000000000000000815260206004820181905260248201527f5a65726f4578566f7465733a20626c6f636b206e6f7420796574206d696e656460448201526064016104cc565b73ffffffffffffffffffffffffffffffffffffffff83165f90815260c96020526040812061145b9084611529565b604001516bffffffffffffffffffffffff16949350505050565b61147d611dee565b73ffffffffffffffffffffffffffffffffffffffff8116611520576040517f08c379a000000000000000000000000000000000000000000000000000000000815260206004820152602660248201527f4f776e61626c653a206e6577206f776e657220697320746865207a65726f206160448201527f646472657373000000000000000000000000000000000000000000000000000060648201526084016104cc565b61095d81611e6f565b604080516060810182525f808252602082018190529181019190915282545f81600581111561159a575f61155c84612019565b61156690856128fd565b5f88815260209020909150869082015463ffffffff16111561158a57809150611598565b611595816001612910565b92505b505b808210156115e5575f6115ad83836120fd565b5f88815260209020909150869082015463ffffffff1611156115d1578091506115df565b6115dc816001612910565b92505b5061159a565b801561165557611607866115fa6001846128fd565b5f91825260209091200190565b60408051606081018252915463ffffffff811683526bffffffffffffffffffffffff640100000000820481166020850152700100000000000000000000000000000000909104169082015293505b50505092915050565b3373ffffffffffffffffffffffffffffffffffffffff7f00000000000000000000000000000000000000000000000000000000000000001614610da2576040517f08c379a000000000000000000000000000000000000000000000000000000000815260206004820152601f60248201527f5a65726f4578566f7465733a206f6e6c7920746f6b656e20616c6c6f7765640060448201526064016104cc565b5f61170882846128fd565b9392505050565b84545f9081908190819081811561177f5761172f8b6115fa6001856128fd565b60408051606081018252915463ffffffff811683526bffffffffffffffffffffffff640100000000820481166020850152700100000000000000000000000000000000909104169082015261179c565b604080516060810182525f80825260208201819052918101919091525b905080602001516bffffffffffffffffffffffff1695506117c186888c63ffffffff16565b60408201519095506bffffffffffffffffffffffff16935081156118ac575f7f00000000000000000000000000000000000000000000000000000000000000008a111561187b5761184c6118357f00000000000000000000000000000000000000000000000000000000000000008c6128fd565b61184790670de0b6b3a7640000612923565b612019565b611876907f0000000000000000000000000000000000000000000000000000000000000000612910565b61187d565b895b905061188881612117565b82604001818151611899919061293a565b6bffffffffffffffffffffffff16905250505b5f6118bb8a898d63ffffffff16565b90505f7f0000000000000000000000000000000000000000000000000000000000000000821115611942576119136118357f0000000000000000000000000000000000000000000000000000000000000000846128fd565b61193d907f0000000000000000000000000000000000000000000000000000000000000000612910565b611944565b815b90508083604001516bffffffffffffffffffffffff166119649190612910565b94505f8411801561197b5750825163ffffffff1643145b15611a37575f6119908e6115fa6001886128fd565b905061199b88612117565b81546bffffffffffffffffffffffff91909116640100000000027fffffffffffffffffffffffffffffffff000000000000000000000000ffffffff9091161781556119e586612117565b81546bffffffffffffffffffffffff91909116700100000000000000000000000000000000027fffffffff000000000000000000000000ffffffffffffffffffffffffffffffff909116179055611b2e565b8c6040518060600160405280611a4c43611d55565b63ffffffff168152602001611a608a612117565b6bffffffffffffffffffffffff168152602001611a7c88612117565b6bffffffffffffffffffffffff90811690915282546001810184555f938452602093849020835191018054948401516040909401518316700100000000000000000000000000000000027fffffffff000000000000000000000000ffffffffffffffffffffffffffffffff94909316640100000000027fffffffffffffffffffffffffffffffff0000000000000000000000000000000090951663ffffffff9092169190911793909317919091161790555b5050505095509550955095915050565b5f6117088284612910565b61095d611dee565b7f4910fdfa16fed3260ed0e7147f7cc6da11a60208b5b9406d12a635614ffd91435460ff1615611b8957611b84836121b4565b505050565b8273ffffffffffffffffffffffffffffffffffffffff166352d1902d6040518163ffffffff1660e01b8152600401602060405180830381865afa925050508015611c0e575060408051601f3d9081017fffffffffffffffffffffffffffffffffffffffffffffffffffffffffffffffe0168201909252611c0b9181019061295e565b60015b611c9a576040517f08c379a000000000000000000000000000000000000000000000000000000000815260206004820152602e60248201527f45524331393637557067726164653a206e657720696d706c656d656e7461746960448201527f6f6e206973206e6f74205555505300000000000000000000000000000000000060648201526084016104cc565b7f360894a13ba1a3210667c828492db98dca3e2076cc3735a920a3ca505d382bbc8114611d49576040517f08c379a000000000000000000000000000000000000000000000000000000000815260206004820152602960248201527f45524331393637557067726164653a20756e737570706f727465642070726f7860448201527f6961626c6555554944000000000000000000000000000000000000000000000060648201526084016104cc565b50611b848383836122be565b5f63ffffffff821115611dea576040517f08c379a000000000000000000000000000000000000000000000000000000000815260206004820152602660248201527f53616665436173743a2076616c756520646f65736e27742066697420696e203360448201527f322062697473000000000000000000000000000000000000000000000000000060648201526084016104cc565b5090565b60335473ffffffffffffffffffffffffffffffffffffffff163314610da2576040517f08c379a000000000000000000000000000000000000000000000000000000000815260206004820181905260248201527f4f776e61626c653a2063616c6c6572206973206e6f7420746865206f776e657260448201526064016104cc565b6033805473ffffffffffffffffffffffffffffffffffffffff8381167fffffffffffffffffffffffff0000000000000000000000000000000000000000831681179093556040519116919082907f8be0079c531659141344cd1fd0a4f28419497f9722a3daafe3b4186f6b6457e0905f90a35050565b5f54610100900460ff16611f7b576040517f08c379a000000000000000000000000000000000000000000000000000000000815260206004820152602b60248201527f496e697469616c697a61626c653a20636f6e7472616374206973206e6f74206960448201527f6e697469616c697a696e6700000000000000000000000000000000000000000060648201526084016104cc565b610da26122e8565b5f54610100900460ff16610da2576040517f08c379a000000000000000000000000000000000000000000000000000000000815260206004820152602b60248201527f496e697469616c697a61626c653a20636f6e7472616374206973206e6f74206960448201527f6e697469616c697a696e6700000000000000000000000000000000000000000060648201526084016104cc565b5f815f0361202857505f919050565b5f600161203484612387565b901c6001901b9050600181848161204d5761204d612975565b048201901c9050600181848161206557612065612975565b048201901c9050600181848161207d5761207d612975565b048201901c9050600181848161209557612095612975565b048201901c905060018184816120ad576120ad612975565b048201901c905060018184816120c5576120c5612975565b048201901c905060018184816120dd576120dd612975565b048201901c9050611708818285816120f7576120f7612975565b0461241a565b5f61210b60028484186129a2565b61170890848416612910565b5f6bffffffffffffffffffffffff821115611dea576040517f08c379a000000000000000000000000000000000000000000000000000000000815260206004820152602660248201527f53616665436173743a2076616c756520646f65736e27742066697420696e203960448201527f362062697473000000000000000000000000000000000000000000000000000060648201526084016104cc565b73ffffffffffffffffffffffffffffffffffffffff81163b612258576040517f08c379a000000000000000000000000000000000000000000000000000000000815260206004820152602d60248201527f455243313936373a206e657720696d706c656d656e746174696f6e206973206e60448201527f6f74206120636f6e74726163740000000000000000000000000000000000000060648201526084016104cc565b7f360894a13ba1a3210667c828492db98dca3e2076cc3735a920a3ca505d382bbc80547fffffffffffffffffffffffff00000000000000000000000000000000000000001673ffffffffffffffffffffffffffffffffffffffff92909216919091179055565b6122c78361242f565b5f825111806122d35750805b15611b84576122e2838361247b565b50505050565b5f54610100900460ff1661237e576040517f08c379a000000000000000000000000000000000000000000000000000000000815260206004820152602b60248201527f496e697469616c697a61626c653a20636f6e7472616374206973206e6f74206960448201527f6e697469616c697a696e6700000000000000000000000000000000000000000060648201526084016104cc565b610da233611e6f565b5f80608083901c1561239b57608092831c92015b604083901c156123ad57604092831c92015b602083901c156123bf57602092831c92015b601083901c156123d157601092831c92015b600883901c156123e357600892831c92015b600483901c156123f557600492831c92015b600283901c1561240757600292831c92015b600183901c15610a0e5760010192915050565b5f8183106124285781611708565b5090919050565b612438816121b4565b60405173ffffffffffffffffffffffffffffffffffffffff8216907fbc7cd75a20ee27fd9adebab32041f755214dbc6bffa90cc0225b39da2e5c2d3b905f90a250565b606073ffffffffffffffffffffffffffffffffffffffff83163b612521576040517f08c379a000000000000000000000000000000000000000000000000000000000815260206004820152602660248201527f416464726573733a2064656c65676174652063616c6c20746f206e6f6e2d636f60448201527f6e7472616374000000000000000000000000000000000000000000000000000060648201526084016104cc565b5f5f8473ffffffffffffffffffffffffffffffffffffffff168460405161254891906129da565b5f60405180830381855af49150503d805f8114612580576040519150601f19603f3d011682016040523d82523d5f602084013e612585565b606091505b50915091506125ad8282604051806060016040528060278152602001612a44602791396125b6565b95945050505050565b606083156125c5575081611708565b61170883838151156125da5781518083602001fd5b806040517f08c379a00000000000000000000000000000000000000000000000000000000081526004016104cc91906129f0565b5f6020828403121561261e575f5ffd5b5035919050565b803573ffffffffffffffffffffffffffffffffffffffff81168114612648575f5ffd5b919050565b80356bffffffffffffffffffffffff81168114612648575f5ffd5b5f5f5f5f5f5f5f60e0888a03121561267e575f5ffd5b61268788612625565b965061269560208901612625565b955060408801359450606088013593506126b16080890161264d565b92506126bf60a0890161264d565b96999598509396929591949193505060c09091013590565b5f602082840312156126e7575f5ffd5b61170882612625565b5f5f60408385031215612701575f5ffd5b61270a83612625565b946020939093013593505050565b7f4e487b71000000000000000000000000000000000000000000000000000000005f52604160045260245ffd5b5f5f60408385031215612756575f5ffd5b61275f83612625565b9150602083013567ffffffffffffffff81111561277a575f5ffd5b8301601f8101851361278a575f5ffd5b803567ffffffffffffffff8111156127a4576127a4612718565b6040517fffffffffffffffffffffffffffffffffffffffffffffffffffffffffffffffe0603f7fffffffffffffffffffffffffffffffffffffffffffffffffffffffffffffffe0601f8501160116810181811067ffffffffffffffff8211171561281057612810612718565b604052818152828201602001871015612827575f5ffd5b816020840160208301375f602083830101528093505050509250929050565b5f5f60408385031215612857575f5ffd5b50508035926020909101359150565b5f5f60408385031215612877575f5ffd5b61288083612625565b9150602083013563ffffffff81168114612898575f5ffd5b809150509250929050565b7f4e487b71000000000000000000000000000000000000000000000000000000005f52603260045260245ffd5b7f4e487b71000000000000000000000000000000000000000000000000000000005f52601160045260245ffd5b81810381811115610a0e57610a0e6128d0565b80820180821115610a0e57610a0e6128d0565b8082028115828204841417610a0e57610a0e6128d0565b6bffffffffffffffffffffffff8281168282160390811115610a0e57610a0e6128d0565b5f6020828403121561296e575f5ffd5b5051919050565b7f4e487b71000000000000000000000000000000000000000000000000000000005f52601260045260245ffd5b5f826129d5577f4e487b71000000000000000000000000000000000000000000000000000000005f52601260045260245ffd5b500490565b5f82518060208501845e5f920191825250919050565b602081525f82518060208401528060208501604085015e5f6040828501015260407fffffffffffffffffffffffffffffffffffffffffffffffffffffffffffffffe0601f8301168401019150509291505056fe416464726573733a206c6f772d6c6576656c2064656c65676174652063616c6c206661696c6564a2646970667358221220c14391f73e43c3d210f85310039e72557d49fd935ce8d1c9106cad370b7b91f164736f6c634300081c0033",
  "linkReferences": {},
  "deployedLinkReferences": {}
}