{
  "_format": "hh-sol-artifact-1",
  "contractName": "PancakeSwapFeature",
  "sourceName": "contracts/src/features/PancakeSwapFeature.sol",
  "abi": [
    {
      "inputs": [
        {
          "internalType": "contract IEtherToken",
          "name": "wbnb",
          "type": "address"
        }
      ],
      "stateMutability": "nonpayable",
      "type": "constructor"
    },
    {
      "inputs": [],
      "name": "FEATURE_NAME",
      "outputs": [
        {
          "internalType": "string",
          "name": "",
          "type": "string"
        }
      ],
      "stateMutability": "view",
      "type": "function"
    },
    {
      "inputs": [],
      "name": "FEATURE_VERSION",
      "outputs": [
        {
          "internalType": "uint256",
          "name": "",
          "type": "uint256"
        }
      ],
      "stateMutability": "view",
      "type": "function"
    },
    {
      "inputs": [],
      "name": "migrate",
      "outputs": [
        {
          "internalType": "bytes4",
          "name": "success",
          "type": "bytes4"
        }
      ],
      "stateMutability": "nonpayable",
      "type": "function"
    },
    {
      "inputs": [
        {
          "internalType": "contract IERC20Token[]",
          "name": "tokens",
          "type": "address[]"
        },
        {
          "internalType": "uint256",
          "name": "sellAmount",
          "type": "uint256"
        },
        {
          "internalType": "uint256",
          "name": "minBuyAmount",
          "type": "uint256"
        },
        {
          "internalType": "enum IPancakeSwapFeature.ProtocolFork",
          "name": "fork",
          "type": "uint8"
        }
      ],
      "name": "sellToPancakeSwap",
      "outputs": [
        {
          "internalType": "uint256",
          "name": "buyAmount",
          "type": "uint256"
        }
      ],
      "stateMutability": "payable",
      "type": "function"
    }
  ],
  "bytecode": "0x60e06040526801000000000000000260a05234801561001c575f5ffd5b50604051610cf1380380610cf183398101604081905261003b91610050565b306080526001600160a01b031660c05261007d565b5f60208284031215610060575f5ffd5b81516001600160a01b0381168114610076575f5ffd5b9392505050565b60805160a05160c051610c4b6100a65f395f61022f01525f605301525f610aca0152610c4b5ff3fe60806040526004361061003e575f3560e01c8063031b905c146100425780636ae4b4f7146100885780638fd3ab80146100dd578063c43c9ef614610122575b5f5ffd5b34801561004d575f5ffd5b506100757f000000000000000000000000000000000000000000000000000000000000000081565b6040519081526020015b60405180910390f35b348015610093575f5ffd5b506100d06040518060400160405280601281526020017f50616e63616b655377617046656174757265000000000000000000000000000081525081565b60405161007f9190610b23565b3480156100e8575f5ffd5b506100f1610135565b6040517fffffffff00000000000000000000000000000000000000000000000000000000909116815260200161007f565b610075610130366004610b84565b610184565b5f61015f7fc43c9ef600000000000000000000000000000000000000000000000000000000610a65565b507f2c64c5ef0000000000000000000000000000000000000000000000000000000090565b5f6001851161021a576040517f08c379a000000000000000000000000000000000000000000000000000000000815260206004820152602660248201527f50616e63616b6553776170466561747572652f496e76616c6964546f6b656e7360448201527f4c656e677468000000000000000000000000000000000000000000000000000060648201526084015b60405180910390fd5b506004803560248101610a0052610a208390527f0000000000000000000000000000000000000000000000000000000000000000610a405284917fffffffffffffffffffffffffffffffffffffffffffffffffffffffffffffffff910135015f80805b8381101561059357610a005160208202013573ffffffffffffffffffffffffffffffffffffffff16610a005160206001840102013573ffffffffffffffffffffffffffffffffffffffff1693506102d384610611565b6102dc82610611565b1083806102f3576102ed8684610644565b90505f94505b836103c45773eeeeeeeeeeeeeeeeeeeeeeeeeeeeeeeeeeeeeeee831480156103ad578b3414610320575f5ffd5b610a405193507fd0e30db000000000000000000000000000000000000000000000000000000000610b00525f5f6004610b008f885af16103625761036261097f565b7fa9059cbb00000000000000000000000000000000000000000000000000000000610b005281610b04528b610b24525f5f6044610b005f885af16103a8576103a861097f565b6103c2565b34156103b7575f5ffd5b6103c28c8386610987565b505b7f0902f1ac00000000000000000000000000000000000000000000000000000000610b00526040610c006004610b00845afa6104025761040261097f565b60403d101561041357805f5260205ffd5b8792505f808315801561043157610c20519250610c0051915061043e565b610c00519250610c205191505b506e01000000000000000000000000000085111561045a575f5ffd5b6103e585026103e883028101828202049a505050505f92508660018501145f81146104ae5773eeeeeeeeeeeeeeeeeeeeeeeeeeeeeeeeeeeeeeee871480156104a4573094506104a8565b3394505b506104e1565b610a00516104db9060206002880102013573ffffffffffffffffffffffffffffffffffffffff1688610644565b95508593505b50610a205160028114610518577f022c0d9f00000000000000000000000000000000000000000000000000000000610b005261053e565b7f6d9a640a00000000000000000000000000000000000000000000000000000000610b00525b50818015610555575f610b045288610b2452610560565b88610b04525f610b24525b5082610b44526080610b64525f610b84525f5f60a4610b005f855af16105885761058861097f565b50505060010161027d565b505073eeeeeeeeeeeeeeeeeeeeeeeeeeeeeeeeeeeeeeee810361060a577f2e1a7d4d00000000000000000000000000000000000000000000000000000000610b005282610b04525f5f6024610b005f610a40515af16105f4576105f461097f565b5f5f5f610b0086335af161060a5761060a61097f565b50506109f2565b807fffffffffffffffffffffffff1111111111111111111111111111111111111112810161063f5750610a40515b919050565b61064d81610611565b905061065882610611565b91505f82821080156106735783610b145282610b005261067e565b82610b145283610b00525b506028610b0c20610a20518015610713576001811461076757600281146107ba576003811461080e576004811461086257600581146108b6576006811461090a577fff553990f2cba90272390f62c5bdb1681ffc8996750000000000000000000000610b005281610b15527fb1e98e21a5335633815a8cfb3b580071c2e4561c50afd57a8746def9ed890b18610b355261095a565b7fffbcfccbde45ce874adcb698cc183debcf179528120000000000000000000000610b005281610b15527fd0d4c4cd0848c93cb4fd1f498d7013ee6bfb25783ea21593d5834f5d250ece66610b355261095a565b7fffca143ce32fe78f1f7019d7d551a6402fc5350c730000000000000000000000610b005281610b15527efb7f630766e6a796048ea87d01acd3068e8ff67d078148a3fa3f4a84f69bd5610b355261095a565b7fff01bf7c66c6bd861915cdaae475042d3c4bae16a70000000000000000000000610b005281610b15527fe2e87433120e32c4738a7d8f3271f3d872cbe16241d67537139158d90bac61d3610b355261095a565b7fffc35dadb65012ec5796536bd9864ed8773abc74c40000000000000000000000610b005281610b15527fe18a34eb0e04b04f7a0ac29a6e80748dca96319b42c54d679cb821dca90c6303610b355261095a565b7fff0841bd0b734e4f5853f0dd8d7ea041c241fb0da60000000000000000000000610b005281610b15527ff4ccce374816856d11f00e4069e7cada164065686fbef53c6167a63ec2fd8c5b610b355261095a565b7fff3e708fdbe3ada63fc94f8f61811196f1302137ad0000000000000000000000610b005281610b15527f90bcdb5d0bf0e8db3852b0b7d7e05cc8f7c6eb6d511213c5ba02d1d1dbeda8d3610b355261095a565b7fffdd538e4fd1b69b7863e1f741213276a6cf1efb3b0000000000000000000000610b005281610b15527ff52c5189a89e7ca2ef4f19f2798e3900fba7a316de7cef6c5a9446621ba86286610b35525b50506055610b002073ffffffffffffffffffffffffffffffffffffffff169392505050565b3d5f5f3e3d5ffd5b7f23b872dd00000000000000000000000000000000000000000000000000000000610b005233610b045281610b245282610b44526020610c006064610b005f855af13d6001610c00511460208210151681151782169150816109eb57805f5f3e805ffd5b5050505050565b82811015610a5c576040517f08c379a000000000000000000000000000000000000000000000000000000000815260206004820152601e60248201527f50616e63616b6553776170466561747572652f556e646572426f7567687400006044820152606401610211565b95945050505050565b6040517f6eb224cb0000000000000000000000000000000000000000000000000000000081527fffffffff000000000000000000000000000000000000000000000000000000008216600482015273ffffffffffffffffffffffffffffffffffffffff7f00000000000000000000000000000000000000000000000000000000000000001660248201523090636eb224cb906044015f604051808303815f87803b158015610b11575f5ffd5b505af11580156109eb573d5f5f3e3d5ffd5b602081525f82518060208401528060208501604085015e5f6040828501015260407fffffffffffffffffffffffffffffffffffffffffffffffffffffffffffffffe0601f83011684010191505092915050565b80356008811061063f575f5ffd5b5f5f5f5f5f60808688031215610b98575f5ffd5b853567ffffffffffffffff811115610bae575f5ffd5b8601601f81018813610bbe575f5ffd5b803567ffffffffffffffff811115610bd4575f5ffd5b8860208260051b8401011115610be8575f5ffd5b602091820196509450860135925060408601359150610c0960608701610b76565b9050929550929590935056fea2646970667358221220d09d061f2793c983fa7f6be2f8c4042c809c837dfede9f3daf9355d34b68ffed64736f6c634300081c0033",
  "linkReferences": {},
  "deployedLinkReferences": {}
}