{
  "_format": "hh-sol-artifact-1",
  "contractName": "PancakeSwapFeature",
  "sourceName": "contracts/src/features/PancakeSwapFeature.sol",
  "abi": [
    {
      "inputs": [
        {
          "internalType": "contract IEtherToken",
          "name": "wbnb",
          "type": "address"
        }
      ],
      "stateMutability": "nonpayable",
      "type": "constructor"
    },
    {
      "inputs": [],
      "name": "FEATURE_NAME",
      "outputs": [
        {
          "internalType": "string",
          "name": "",
          "type": "string"
        }
      ],
      "stateMutability": "view",
      "type": "function"
    },
    {
      "inputs": [],
      "name": "FEATURE_VERSION",
      "outputs": [
        {
          "internalType": "uint256",
          "name": "",
          "type": "uint256"
        }
      ],
      "stateMutability": "view",
      "type": "function"
    },
    {
      "inputs": [],
      "name": "migrate",
      "outputs": [
        {
          "internalType": "bytes4",
          "name": "success",
          "type": "bytes4"
        }
      ],
      "stateMutability": "nonpayable",
      "type": "function"
    },
    {
      "inputs": [
        {
          "internalType": "contract IERC20Token[]",
          "name": "tokens",
          "type": "address[]"
        },
        {
          "internalType": "uint256",
          "name": "sellAmount",
          "type": "uint256"
        },
        {
          "internalType": "uint256",
          "name": "minBuyAmount",
          "type": "uint256"
        },
        {
          "internalType": "enum IPancakeSwapFeature.ProtocolFork",
          "name": "fork",
          "type": "uint8"
        }
      ],
      "name": "sellToPancakeSwap",
      "outputs": [
        {
          "internalType": "uint256",
          "name": "buyAmount",
          "type": "uint256"
        }
      ],
      "stateMutability": "payable",
      "type": "function"
    }
  ],
  "bytecode": "0x60e06040526100186001600060026100ba60201b60201c565b60a09081525034801561002a57600080fd5b5060405161103c38038061103c833981810160405281019061004c9190610159565b3073ffffffffffffffffffffffffffffffffffffffff1660808173ffffffffffffffffffffffffffffffffffffffff16815250508073ffffffffffffffffffffffffffffffffffffffff1660c08173ffffffffffffffffffffffffffffffffffffffff168152505050610186565b60008163ffffffff1660208463ffffffff16901b60408663ffffffff16901b171790509392505050565b600080fd5b600073ffffffffffffffffffffffffffffffffffffffff82169050919050565b6000610114826100e9565b9050919050565b600061012682610109565b9050919050565b6101368161011b565b811461014157600080fd5b50565b6000815190506101538161012d565b92915050565b60006020828403121561016f5761016e6100e4565b5b600061017d84828501610144565b91505092915050565b60805160a05160c051610e886101b460003960006101bd0152600060f7015260006109f50152610e886000f3fe60806040526004361061003f5760003560e01c8063031b905c146100445780636ae4b4f71461006f5780638fd3ab801461009a578063c43c9ef6146100c5575b600080fd5b34801561005057600080fd5b506100596100f5565b6040516100669190610a7f565b60405180910390f35b34801561007b57600080fd5b50610084610119565b6040516100919190610b2a565b60405180910390f35b3480156100a657600080fd5b506100af610152565b6040516100bc9190610b87565b60405180910390f35b6100df60048036038101906100da9190610c62565b610171565b6040516100ec9190610a7f565b60405180910390f35b7f000000000000000000000000000000000000000000000000000000000000000081565b6040518060400160405280601281526020017f50616e63616b655377617046656174757265000000000000000000000000000081525081565b600061016463c43c9ef660e01b6109d6565b632c64c5ef60e01b905090565b6000600186869050116101b9576040517f08c379a00000000000000000000000000000000000000000000000000000000081526004016101b090610d5c565b60405180910390fd5b60007f00000000000000000000000000000000000000000000000000000000000000009050602460043501610a005282610a205280610a40525060016004803501350384915060008060005b838110156104f75761021681610579565b61022260018301610579565b935061022d846105a2565b610236826105a2565b10838061024e5761024786846105ce565b9050600094505b8361032c5773eeeeeeeeeeeeeeeeeeeeeeeeeeeeeeeeeeeeeeee831460008114610310578b341461027e57600080fd5b610a405193507fd0e30db000000000000000000000000000000000000000000000000000000000610b00526000806004610b008f885af16102c2576102c161090f565b5b7fa9059cbb00000000000000000000000000000000000000000000000000000000610b005281610b04528b610b24526000806044610b006000885af161030b5761030a61090f565b5b61032a565b600034111561031e57600080fd5b6103298c8386610919565b5b505b7f0902f1ac00000000000000000000000000000000000000000000000000000000610b00526040610c006004610b00845afa61036b5761036a61090f565b5b60403d101561037e578060005260206000fd5b8760008084156000811461039d57610c20519250610c005191506103aa565b610c00519250610c205191505b506e0100000000000000000000000000008311156103c757600080fd5b6103e583026103e883028101828202049b5050505060008860018701146000811461041d5773eeeeeeeeeeeeeeeeeeeeeeeeeeeeeeeeeeeeeeee89146000811461041357309250610417565b3392505b50610438565b61043261042c60028901610579565b8a6105ce565b97508791505b50610a20516002811461046f577f022c0d9f00000000000000000000000000000000000000000000000000000000610b0052610495565b7f6d9a640a00000000000000000000000000000000000000000000000000000000610b00525b5083600081146104af576000610b04528a610b24526104bb565b8a610b04526000610b24525b5080610b44526080610b64526000610b845260008060a4610b006000875af16104e7576104e661090f565b5b5050505050600181019050610205565b5073eeeeeeeeeeeeeeeeeeeeeeeeeeeeeeeeeeeeeeee8203610574577f2e1a7d4d00000000000000000000000000000000000000000000000000000000610b005283610b04526000806024610b006000610a40515af161055a5761055961090f565b5b6000806000610b0087335af16105735761057261090f565b5b5b610987565b600060208202610a0051013573ffffffffffffffffffffffffffffffffffffffff169050919050565b600081905073eeeeeeeeeeeeeeeeeeeeeeeeeeeeeeeeeeeeeeee82036105c957610a405190505b919050565b60006105d9826105a2565b91506105e4836105a2565b9250828210600081146106005783610b145282610b005261060b565b82610b145283610b00525b506028610b0c20610a2051600081146106a257600181146106f65760028114610749576003811461079d57600481146107f157600581146108455760068114610899577fff553990f2cba90272390f62c5bdb1681ffc8996750000000000000000000000610b005281610b15527fb1e98e21a5335633815a8cfb3b580071c2e4561c50afd57a8746def9ed890b18610b35526108e9565b7fffbcfccbde45ce874adcb698cc183debcf179528120000000000000000000000610b005281610b15527fd0d4c4cd0848c93cb4fd1f498d7013ee6bfb25783ea21593d5834f5d250ece66610b35526108e9565b7fffca143ce32fe78f1f7019d7d551a6402fc5350c730000000000000000000000610b005281610b15527efb7f630766e6a796048ea87d01acd3068e8ff67d078148a3fa3f4a84f69bd5610b35526108e9565b7fff01bf7c66c6bd861915cdaae475042d3c4bae16a70000000000000000000000610b005281610b15527fe2e87433120e32c4738a7d8f3271f3d872cbe16241d67537139158d90bac61d3610b35526108e9565b7fffc35dadb65012ec5796536bd9864ed8773abc74c40000000000000000000000610b005281610b15527fe18a34eb0e04b04f7a0ac29a6e80748dca96319b42c54d679cb821dca90c6303610b35526108e9565b7fff0841bd0b734e4f5853f0dd8d7ea041c241fb0da60000000000000000000000610b005281610b15527ff4ccce374816856d11f00e4069e7cada164065686fbef53c6167a63ec2fd8c5b610b35526108e9565b7fff3e708fdbe3ada63fc94f8f61811196f1302137ad0000000000000000000000610b005281610b15527f90bcdb5d0bf0e8db3852b0b7d7e05cc8f7c6eb6d511213c5ba02d1d1dbeda8d3610b35526108e9565b7fffdd538e4fd1b69b7863e1f741213276a6cf1efb3b0000000000000000000000610b005281610b15527ff52c5189a89e7ca2ef4f19f2798e3900fba7a316de7cef6c5a9446621ba86286610b35525b506055610b002073ffffffffffffffffffffffffffffffffffffffff1691505092915050565b3d6000803e3d6000fd5b7f23b872dd00000000000000000000000000000000000000000000000000000000610b005233610b045281610b245282610b44526020610c006064610b006000855af13d6001610c005114602082101516811517821691508161098057806000803e806000fd5b5050505050565b505050828110156109cd576040517f08c379a00000000000000000000000000000000000000000000000000000000081526004016109c490610dc8565b60405180910390fd5b95945050505050565b3073ffffffffffffffffffffffffffffffffffffffff16636eb224cb827f00000000000000000000000000000000000000000000000000000000000000006040518363ffffffff1660e01b8152600401610a31929190610e29565b600060405180830381600087803b158015610a4b57600080fd5b505af1158015610a5f573d6000803e3d6000fd5b5050505050565b6000819050919050565b610a7981610a66565b82525050565b6000602082019050610a946000830184610a70565b92915050565b600081519050919050565b600082825260208201905092915050565b60005b83811015610ad4578082015181840152602081019050610ab9565b60008484015250505050565b6000601f19601f8301169050919050565b6000610afc82610a9a565b610b068185610aa5565b9350610b16818560208601610ab6565b610b1f81610ae0565b840191505092915050565b60006020820190508181036000830152610b448184610af1565b905092915050565b60007fffffffff0000000000000000000000000000000000000000000000000000000082169050919050565b610b8181610b4c565b82525050565b6000602082019050610b9c6000830184610b78565b92915050565b600080fd5b600080fd5b600080fd5b600080fd5b600080fd5b60008083601f840112610bd157610bd0610bac565b5b8235905067ffffffffffffffff811115610bee57610bed610bb1565b5b602083019150836020820283011115610c0a57610c09610bb6565b5b9250929050565b610c1a81610a66565b8114610c2557600080fd5b50565b600081359050610c3781610c11565b92915050565b60088110610c4a57600080fd5b50565b600081359050610c5c81610c3d565b92915050565b600080600080600060808688031215610c7e57610c7d610ba2565b5b600086013567ffffffffffffffff811115610c9c57610c9b610ba7565b5b610ca888828901610bbb565b95509550506020610cbb88828901610c28565b9350506040610ccc88828901610c28565b9250506060610cdd88828901610c4d565b9150509295509295909350565b7f50616e63616b6553776170466561747572652f496e76616c6964546f6b656e7360008201527f4c656e6774680000000000000000000000000000000000000000000000000000602082015250565b6000610d46602683610aa5565b9150610d5182610cea565b604082019050919050565b60006020820190508181036000830152610d7581610d39565b9050919050565b7f50616e63616b6553776170466561747572652f556e646572426f756768740000600082015250565b6000610db2601e83610aa5565b9150610dbd82610d7c565b602082019050919050565b60006020820190508181036000830152610de181610da5565b9050919050565b600073ffffffffffffffffffffffffffffffffffffffff82169050919050565b6000610e1382610de8565b9050919050565b610e2381610e08565b82525050565b6000604082019050610e3e6000830185610b78565b610e4b6020830184610e1a565b939250505056fea2646970667358221220270d2e54dd50797b7cf9b168938f141fe71262d9ff63ec2da795337d9542795a64736f6c634300081c0033",
  "linkReferences": {},
  "deployedLinkReferences": {}
}