{
  "_format": "hh-sol-artifact-1",
  "contractName": "FillQuoteTransformer",
  "sourceName": "contracts/src/transformers/FillQuoteTransformer.sol",
  "abi": [
    {
      "inputs": [
        {
          "internalType": "contract IBridgeAdapter",
          "name": "bridgeAdapter_",
          "type": "address"
        },
        {
          "internalType": "contract IZeroEx",
          "name": "zeroEx_",
          "type": "address"
        }
      ],
      "stateMutability": "nonpayable",
      "type": "constructor"
    },
    {
      "anonymous": false,
      "inputs": [
        {
          "indexed": false,
          "internalType": "bytes32",
          "name": "orderHash",
          "type": "bytes32"
        }
      ],
      "name": "ProtocolFeeUnfunded",
      "type": "event"
    },
    {
      "inputs": [],
      "name": "bridgeAdapter",
      "outputs": [
        {
          "internalType": "contract IBridgeAdapter",
          "name": "",
          "type": "address"
        }
      ],
      "stateMutability": "view",
      "type": "function"
    },
    {
      "inputs": [],
      "name": "deployer",
      "outputs": [
        {
          "internalType": "address",
          "name": "",
          "type": "address"
        }
      ],
      "stateMutability": "view",
      "type": "function"
    },
    {
      "inputs": [
        {
          "internalType": "address payable",
          "name": "ethRecipient",
          "type": "address"
        }
      ],
      "name": "die",
      "outputs": [],
      "stateMutability": "nonpayable",
      "type": "function"
    },
    {
      "inputs": [
        {
          "components": [
            {
              "internalType": "address payable",
              "name": "sender",
              "type": "address"
            },
            {
              "internalType": "address payable",
              "name": "recipient",
              "type": "address"
            },
            {
              "internalType": "bytes",
              "name": "data",
              "type": "bytes"
            }
          ],
          "internalType": "struct IERC20Transformer.TransformContext",
          "name": "context",
          "type": "tuple"
        }
      ],
      "name": "transform",
      "outputs": [
        {
          "internalType": "bytes4",
          "name": "magicBytes",
          "type": "bytes4"
        }
      ],
      "stateMutability": "nonpayable",
      "type": "function"
    },
    {
      "inputs": [],
      "name": "zeroEx",
      "outputs": [
        {
          "internalType": "contract IZeroEx",
          "name": "",
          "type": "address"
        }
      ],
      "stateMutability": "view",
      "type": "function"
    }
  ],
  "bytecode": "0x610100604052348015610010575f5ffd5b50604051612e02380380612e0283398101604081905261002f91610065565b336080523060a0526001600160a01b0391821660c0521660e05261009d565b6001600160a01b0381168114610062575f5ffd5b50565b5f5f60408385031215610076575f5ffd5b82516100818161004e565b60208401519092506100928161004e565b809150509250929050565b60805160a05160c05160e051612ced6101155f395f8181606d0152818161032901528181610385015281816110550152818161110b015281816112ef015261144201525f81816101020152610e2801525f8181610a6e0152610a9c01525f818161013e01528181610a040152610a320152612ced5ff3fe608060405234801561000f575f5ffd5b5060043610610064575f3560e01c8063be7dc09b1161004d578063be7dc09b146100fd578063c9353cb514610124578063d5f3948814610139575f5ffd5b806352ab413b14610068578063832b24bb146100b9575b5f5ffd5b61008f7f000000000000000000000000000000000000000000000000000000000000000081565b60405173ffffffffffffffffffffffffffffffffffffffff90911681526020015b60405180910390f35b6100cc6100c7366004611adb565b610160565b6040517fffffffff0000000000000000000000000000000000000000000000000000000090911681526020016100b0565b61008f7f000000000000000000000000000000000000000000000000000000000000000081565b610137610132366004611b46565b6109ec565b005b61008f7f000000000000000000000000000000000000000000000000000000000000000081565b5f8061016f6040840184611b61565b81019061017c91906123aa565b9050610186611a81565b602082015173ffffffffffffffffffffffffffffffffffffffff1673eeeeeeeeeeeeeeeeeeeeeeeeeeeeeeeeeeeeeeee14806101ef5750604082015173ffffffffffffffffffffffffffffffffffffffff1673eeeeeeeeeeeeeeeeeeeeeeeeeeeeeeeeeeeeeeee145b15610246576102466102415f6102086040880188611b61565b8080601f0160208091040260200160405190810160405280939291908181526020018383808284375f92019190915250610ad992505050565b610b95565b8160c0015151826101200151518360a001515184608001515185606001515161026f9190612542565b6102799190612542565b6102839190612542565b1461029d5761029d61024160016102086040880188611b61565b60208201516102c29073ffffffffffffffffffffffffffffffffffffffff1630610b9d565b60808201525f825160018111156102db576102db612555565b036102f8576102f28260e001518260800151610c82565b60e08301525b816101200151518260a00151518360800151516103159190612542565b61031f9190612542565b15610426576103777f00000000000000000000000000000000000000000000000000000000000000008360e00151846020015173ffffffffffffffffffffffffffffffffffffffff16610d1e9092919063ffffffff16565b60808201515115610426573a7f000000000000000000000000000000000000000000000000000000000000000073ffffffffffffffffffffffffffffffffffffffff1663487b5c206040518163ffffffff1660e01b8152600401602060405180830381865afa1580156103ec573d5f5f3e3d5ffd5b505050506040513d601f19601f820116820180604052508101906104109190612582565b63ffffffff1661042091906125a5565b60608201525b4781525f5b8260c0015151811015610738575f8351600181111561044c5761044c612555565b03610466578260e001518260400151101561073857610477565b8260e0015182602001511015610738575b8260c00151818151811061048d5761048d6125bc565b60200260200101518260c0019060038111156104ab576104ab612555565b908160038111156104be576104be612555565b815250505f8260a001518360c0015160038111156104de576104de612555565b600481106104ee576104ee6125bc565b6020020151905061051660405180606001604052805f81526020015f81526020015f81525090565b5f8460c00151600381111561052d5761052d612555565b036105615761055a8560600151838151811061054b5761054b6125bc565b60200260200101518686610deb565b9050610698565b60018460c00151600381111561057957610579612555565b036105a65761055a85608001518381518110610597576105976125bc565b60200260200101518686610f7c565b60028460c0015160038111156105be576105be612555565b036105eb5761055a8560a0015183815181106105dc576105dc6125bc565b60200260200101518686611287565b60038460c00151600381111561060357610603612555565b036106315761055a8561012001518381518110610622576106226125bc565b602002602001015186866113da565b6040517f08c379a000000000000000000000000000000000000000000000000000000000815260206004820152601260248201527f494e56414c49445f4f524445525f54595045000000000000000000000000000060448201526064015b60405180910390fd5b805160408501516106a99190612542565b6040850152602080820151908501516106c29190612542565b6020850152604081015184516106d891906125e9565b8452805160808501516106eb91906125e9565b608085015260a084015160c0850151600381111561070b5761070b612555565b6004811061071b5761071b6125bc565b6020020180519061072b826125fc565b905250505060010161042b565b505f8251600181111561074d5761074d612555565b03610781578160e001518160400151101561077c5761077c610241836020015183604001518560e0015161158f565b6107ab565b8160e00151816020015110156107ab576107ab610241836040015183602001518560e0015161166b565b8051158015906107d5575061010082015173ffffffffffffffffffffffffffffffffffffffff1615155b156109c3575f600173ffffffffffffffffffffffffffffffffffffffff1683610100015173ffffffffffffffffffffffffffffffffffffffff1603610889576108246040860160208701611b46565b825160405173ffffffffffffffffffffffffffffffffffffffff92909216915f81818185875af1925050503d805f8114610879576040519150601f19603f3d011682016040523d82523d5f602084013e61087e565b606091505b505080915050610934565b600273ffffffffffffffffffffffffffffffffffffffff1683610100015173ffffffffffffffffffffffffffffffffffffffff16036108cf576108246020860186611b46565b610100830151825160405173ffffffffffffffffffffffffffffffffffffffff909216915f81818185875af1925050503d805f8114610929576040519150601f19603f3d011682016040523d82523d5f602084013e61092e565b606091505b50909150505b806109c1576040517f08c379a000000000000000000000000000000000000000000000000000000000815260206004820152602a60248201527f46696c6c51756f74655472616e73666f726d65722f45544845525f5452414e5360448201527f4645525f46414c49454400000000000000000000000000000000000000000000606482015260840161068f565b505b507f13c9929e000000000000000000000000000000000000000000000000000000009392505050565b3373ffffffffffffffffffffffffffffffffffffffff7f00000000000000000000000000000000000000000000000000000000000000001614610a5657610a56610241337f00000000000000000000000000000000000000000000000000000000000000006116c5565b3073ffffffffffffffffffffffffffffffffffffffff7f00000000000000000000000000000000000000000000000000000000000000001614610ac057610ac0610241307f0000000000000000000000000000000000000000000000000000000000000000611719565b8073ffffffffffffffffffffffffffffffffffffffff16ff5b60607f505ff6a4f24a0aa989a95ffe4c8d435d76fb30dea162a3e3022e749867722deb8383604051602401610b0f92919061267f565b604080517fffffffffffffffffffffffffffffffffffffffffffffffffffffffffffffffe08184030181529190526020810180517bffffffffffffffffffffffffffffffffffffffffffffffffffffffff167fffffffff000000000000000000000000000000000000000000000000000000009093169290921790915290505b92915050565b805160208201fd5b5f73eeeeeeeeeeeeeeeeeeeeeeeeeeeeeeeeeeeeeeee73ffffffffffffffffffffffffffffffffffffffff841603610bed575073ffffffffffffffffffffffffffffffffffffffff811631610b8f565b6040517f70a0823100000000000000000000000000000000000000000000000000000000815273ffffffffffffffffffffffffffffffffffffffff83811660048301528416906370a0823190602401602060405180830381865afa158015610c57573d5f5f3e3d5ffd5b505050506040513d601f19601f82011682018060405250810190610c7b91906126a7565b9392505050565b5f7f800000000000000000000000000000000000000000000000000000000000000080841603610d1757610d10670de0b6b3a7640000610cf6610ce660017f80000000000000000000000000000000000000000000000000000000000000006125e9565b8616670de0b6b3a764000061176d565b610d0090856125a5565b610d0a91906126be565b8361176d565b9050610b8f565b5090919050565b6040517fdd62ed3e00000000000000000000000000000000000000000000000000000000815230600482015273ffffffffffffffffffffffffffffffffffffffff838116602483015282919085169063dd62ed3e90604401602060405180830381865afa158015610d91573d5f5f3e3d5ffd5b505050506040513d601f19601f82011682018060405250810190610db591906126a7565b1015610de657610de683837fffffffffffffffffffffffffffffffffffffffffffffffffffffffffffffffff61177b565b505050565b610e0c60405180606001604052805f81526020015f81526020015f81525090565b5f610e228484876020015188604001515f61180d565b90505f5f7f000000000000000000000000000000000000000000000000000000000000000073ffffffffffffffffffffffffffffffffffffffff1663f712a14860e01b888860200151896040015187604051602401610e8494939291906126f6565b604080517fffffffffffffffffffffffffffffffffffffffffffffffffffffffffffffffe08184030181529181526020820180517bffffffffffffffffffffffffffffffffffffffffffffffffffffffff167fffffffff00000000000000000000000000000000000000000000000000000000909416939093179092529051610f0d9190612761565b5f60405180830381855af49150503d805f8114610f45576040519150601f19603f3d011682016040523d82523d5f602084013e610f4a565b606091505b50915091508115610f725780806020019051810190610f6991906126a7565b60208501528284525b5050509392505050565b610f9d60405180606001604052805f81526020015f81526020015f81525090565b5f611003610ff98585885f0151606001516fffffffffffffffffffffffffffffffff16895f0151604001516fffffffffffffffffffffffffffffffff168a5f0151608001516fffffffffffffffffffffffffffffffff1661180d565b866040015161176d565b90508260600151835f015110156111095784516040517fdd11d2250000000000000000000000000000000000000000000000000000000081525f9173ffffffffffffffffffffffffffffffffffffffff7f0000000000000000000000000000000000000000000000000000000000000000169163dd11d22591611088916004016128fd565b602060405180830381865afa1580156110a3573d5f5f3e3d5ffd5b505050506040513d601f19601f820116820180604052508101906110c791906126a7565b90507fb5d7e18f9bad5b40d7cf6bb45142dfbaef62527179ff5c249c6d6cc00176224d816040516110fa91815260200190565b60405180910390a15050610c7b565b7f000000000000000000000000000000000000000000000000000000000000000073ffffffffffffffffffffffffffffffffffffffff1663f6274f668460600151875f0151886020015161115c866118a1565b6040518563ffffffff1660e01b815260040161117a93929190612942565b604080518083038185885af1935050505080156111d2575060408051601f3d9081017fffffffffffffffffffffffffffffffffffffffffffffffffffffffffffffffe01682019092526111cf91810190612980565b60015b1561127f578651608001516fffffffffffffffffffffffffffffffff16156112585761124b611246836fffffffffffffffffffffffffffffffff16895f0151606001516fffffffffffffffffffffffffffffffff168a5f0151608001516fffffffffffffffffffffffffffffffff166118cc565b6118a1565b61125590836129b8565b91505b6fffffffffffffffffffffffffffffffff9182168452166020830152606083015160408301525b509392505050565b6112a860405180606001604052805f81526020015f81526020015f81525090565b5f6112eb610ff98585885f0151606001516fffffffffffffffffffffffffffffffff16895f0151604001516fffffffffffffffffffffffffffffffff165f61180d565b90507f000000000000000000000000000000000000000000000000000000000000000073ffffffffffffffffffffffffffffffffffffffff1663aa77476c865f0151876020015161133b856118a1565b6040518463ffffffff1660e01b8152600401611359939291906129e0565b60408051808303815f875af19250505080156113b0575060408051601f3d9081017fffffffffffffffffffffffffffffffffffffffffffffffffffffffffffffffe01682019092526113ad91810190612980565b60015b1561127f575b6fffffffffffffffffffffffffffffffff9182168452166020830152509392505050565b6113fb60405180606001604052805f81526020015f81526020015f81525090565b5f61143e610ff98585885f0151606001516fffffffffffffffffffffffffffffffff16895f0151604001516fffffffffffffffffffffffffffffffff165f61180d565b90507f000000000000000000000000000000000000000000000000000000000000000073ffffffffffffffffffffffffffffffffffffffff1663dac748d4865f0151876020015161148e856118a1565b6040518463ffffffff1660e01b81526004016114ac93929190612b4a565b60408051808303815f875af1925050508015611503575060408051601f3d9081017fffffffffffffffffffffffffffffffffffffffffffffffffffffffffffffffe016820190925261150091810190612980565b60015b6113b6576040517f08c379a000000000000000000000000000000000000000000000000000000000815260206004820152602a60248201527f46696c6c51756f74655472616e73666f726d65722f4f54435f4f524445525f4660448201527f494c4c5f4641494c454400000000000000000000000000000000000000000000606482015260840161068f565b60405173ffffffffffffffffffffffffffffffffffffffff8416602482015260448101839052606481018290526060907fadc35ca636cd9f46b974d5bec4df8af095d0ae177ec6043620af588c03bdc616906084015b604080517fffffffffffffffffffffffffffffffffffffffffffffffffffffffffffffffe08184030181529190526020810180517bffffffffffffffffffffffffffffffffffffffffffffffffffffffff167fffffffff000000000000000000000000000000000000000000000000000000009093169290921790915290509392505050565b60405173ffffffffffffffffffffffffffffffffffffffff8416602482015260448101839052606481018290526060907f498df3ae522acadbf67e6aa5fde156a5b74336950cd271175e7336907df120e3906084016115e5565b60405173ffffffffffffffffffffffffffffffffffffffff8084166024830152821660448201526060907f5cec653b364cca3880afa73ceff506d0651d11d26abbbe4a56460aa933b21b0890606401610b0f565b60405173ffffffffffffffffffffffffffffffffffffffff8084166024830152821660448201526060907fb5cf2cd09307d6c717473134badbb9761c2c97d7565566c2a71eba6cd6fc514d90606401610b0f565b5f818310610d175781610c7b565b6040805173ffffffffffffffffffffffffffffffffffffffff8416602482015260448082018490528251808303909101815260649091019091526020810180517bffffffffffffffffffffffffffffffffffffffffffffffffffffffff167f095ea7b30000000000000000000000000000000000000000000000000000000017905261180784826118ea565b50505050565b5f808651600181111561182257611822612555565b0361185f5784604001518660e0015161183b91906125e9565b9050811561185a57611857816118518487612542565b86611a43565b90505b611880565b61187d85602001518760e0015161187691906125e9565b8486611a43565b90505b61189761188d828661176d565b866080015161176d565b9695505050505050565b5f6fffffffffffffffffffffffffffffffff8211156118c8576118c8610241600384611a64565b5090565b5f826118d883866125a5565b6118e291906126be565b949350505050565b5f5f8373ffffffffffffffffffffffffffffffffffffffff16836040516119119190612761565b5f604051808303815f865af19150503d805f811461194a576040519150601f19603f3d011682016040523d82523d5f602084013e61194f565b606091505b5091509150816119625761196281610b95565b80515f03611a10575f8473ffffffffffffffffffffffffffffffffffffffff163b11611807576040517f08c379a000000000000000000000000000000000000000000000000000000000815260206004820152602760248201527f696e76616c696420746f6b656e20616464726573732c20636f6e7461696e732060448201527f6e6f20636f646500000000000000000000000000000000000000000000000000606482015260840161068f565b6020815110611a3a5780806020019051810190611a2d9190612c7a565b611a3a57611a3a81610b95565b61180781610b95565b5f82611a506001826125e9565b611a5a84876125a5565b6118d89190612542565b606063c996af7b60e01b8383604051602401610b0f929190612c99565b6040518060e001604052805f81526020015f81526020015f81526020015f81526020015f8152602001611ab2611abd565b81526020015f905290565b60405180608001604052806004906020820280368337509192915050565b5f60208284031215611aeb575f5ffd5b813567ffffffffffffffff811115611b01575f5ffd5b820160608185031215610c7b575f5ffd5b73ffffffffffffffffffffffffffffffffffffffff81168114611b33575f5ffd5b50565b8035611b4181611b12565b919050565b5f60208284031215611b56575f5ffd5b8135610c7b81611b12565b5f5f83357fffffffffffffffffffffffffffffffffffffffffffffffffffffffffffffffe1843603018112611b94575f5ffd5b83018035915067ffffffffffffffff821115611bae575f5ffd5b602001915036819003821315611bc2575f5ffd5b9250929050565b7f4e487b71000000000000000000000000000000000000000000000000000000005f52604160045260245ffd5b6040516080810167ffffffffffffffff81118282101715611c1957611c19611bc9565b60405290565b6040516060810167ffffffffffffffff81118282101715611c1957611c19611bc9565b604051610180810167ffffffffffffffff81118282101715611c1957611c19611bc9565b604051610140810167ffffffffffffffff81118282101715611c1957611c19611bc9565b604051610100810167ffffffffffffffff81118282101715611c1957611c19611bc9565b604051601f82017fffffffffffffffffffffffffffffffffffffffffffffffffffffffffffffffe016810167ffffffffffffffff81118282101715611cf557611cf5611bc9565b604052919050565b803560028110611b41575f5ffd5b5f67ffffffffffffffff821115611d2457611d24611bc9565b5060051b60200190565b5f82601f830112611d3d575f5ffd5b8135611d50611d4b82611d0b565b611cae565b8082825260208201915060208360051b860101925085831115611d71575f5ffd5b602085015b83811015611eac57803567ffffffffffffffff811115611d94575f5ffd5b860160808189037fffffffffffffffffffffffffffffffffffffffffffffffffffffffffffffffe0011215611dc7575f5ffd5b611dcf611bf6565b602082810135825260408084013591830191909152606083013590820152608082013567ffffffffffffffff811115611e06575f5ffd5b60208184010192505088601f830112611e1d575f5ffd5b813567ffffffffffffffff811115611e3757611e37611bc9565b611e6860207fffffffffffffffffffffffffffffffffffffffffffffffffffffffffffffffe0601f84011601611cae565b8181528a6020838601011115611e7c575f5ffd5b816020850160208301375f6020838301015280606084015250508085525050602083019250602081019050611d76565b5095945050505050565b6fffffffffffffffffffffffffffffffff81168114611b33575f5ffd5b8035611b4181611eb6565b803567ffffffffffffffff81168114611b41575f5ffd5b5f60808284031215611f05575f5ffd5b611f0d611bf6565b9050813560058110611f1d575f5ffd5b8152602082013560ff81168114611f32575f5ffd5b60208201526040828101359082015260609182013591810191909152919050565b5f82601f830112611f62575f5ffd5b8135611f70611d4b82611d0b565b8082825260208201915060206102208402860101925085831115611f92575f5ffd5b602085015b83811015611eac57808703610220811215611fb0575f5ffd5b611fb8611c1f565b610180821215611fc6575f5ffd5b611fce611c42565b9150611fd983611b36565b8252611fe760208401611b36565b6020830152611ff860408401611ed3565b604083015261200960608401611ed3565b606083015261201a60808401611ed3565b608083015261202b60a08401611b36565b60a083015261203c60c08401611b36565b60c083015261204d60e08401611b36565b60e083015261205f6101008401611b36565b610100830152610120838101359083015261207d6101408401611ede565b610140830152610160838101359083015281815261209f896101808501611ef5565b602082810191909152610200840135604083015290855293909301925061022001611f97565b5f82601f8301126120d4575f5ffd5b81356120e2611d4b82611d0b565b8082825260208201915060206101e08402860101925085831115612104575f5ffd5b602085015b83811015611eac578087036101e0811215612122575f5ffd5b61212a611c1f565b610140821215612138575f5ffd5b612140611c66565b915061214b83611b36565b825261215960208401611b36565b602083015261216a60408401611ed3565b604083015261217b60608401611ed3565b606083015261218c60808401611b36565b608083015261219d60a08401611b36565b60a08301526121ae60c08401611b36565b60c083015260e083810135908301526121ca6101008401611ede565b61010083015261012083810135908301528181526121ec896101408501611ef5565b6020828101919091526101c084013560408301529085529390930192506101e001612109565b5f82601f830112612221575f5ffd5b813561222f611d4b82611d0b565b8082825260208201915060208360051b860101925085831115612250575f5ffd5b602085015b83811015611eac5780356004811061226b575f5ffd5b835260209283019201612255565b5f82601f830112612288575f5ffd5b8135612296611d4b82611d0b565b8082825260208201915060206101a084028601019250858311156122b8575f5ffd5b602085015b83811015611eac578087036101a08112156122d6575f5ffd5b6122de611c1f565b6101008212156122ec575f5ffd5b6122f4611c8a565b9150823561230181611b12565b825261230f60208401611b36565b602083015261232060408401611ed3565b604083015261233160608401611ed3565b606083015261234260808401611b36565b608083015261235360a08401611b36565b60a083015261236460c08401611b36565b60c083015260e08381013590830152818152612384896101008501611ef5565b60208281019190915261018084013560408301529085529390930192506101a0016122bd565b5f602082840312156123ba575f5ffd5b813567ffffffffffffffff8111156123d0575f5ffd5b820161014081850312156123e2575f5ffd5b6123ea611c66565b6123f382611cfd565b815261240160208301611b36565b602082015261241260408301611b36565b6040820152606082013567ffffffffffffffff811115612430575f5ffd5b61243c86828501611d2e565b606083015250608082013567ffffffffffffffff81111561245b575f5ffd5b61246786828501611f53565b60808301525060a082013567ffffffffffffffff811115612486575f5ffd5b612492868285016120c5565b60a08301525060c082013567ffffffffffffffff8111156124b1575f5ffd5b6124bd86828501612212565b60c08301525060e082810135908201526124da6101008301611b36565b61010082015261012082013567ffffffffffffffff8111156124fa575f5ffd5b61250686828501612279565b61012083015250949350505050565b7f4e487b71000000000000000000000000000000000000000000000000000000005f52601160045260245ffd5b80820180821115610b8f57610b8f612515565b7f4e487b71000000000000000000000000000000000000000000000000000000005f52602160045260245ffd5b5f60208284031215612592575f5ffd5b815163ffffffff81168114610c7b575f5ffd5b8082028115828204841417610b8f57610b8f612515565b7f4e487b71000000000000000000000000000000000000000000000000000000005f52603260045260245ffd5b81810381811115610b8f57610b8f612515565b5f7fffffffffffffffffffffffffffffffffffffffffffffffffffffffffffffffff820361262c5761262c612515565b5060010190565b5f81518084528060208401602086015e5f6020828601015260207fffffffffffffffffffffffffffffffffffffffffffffffffffffffffffffffe0601f83011685010191505092915050565b5f6002841061269057612690612555565b838252604060208301526118e26040830184612633565b5f602082840312156126b7575f5ffd5b5051919050565b5f826126f1577f4e487b71000000000000000000000000000000000000000000000000000000005f52601260045260245ffd5b500490565b6080815284516080820152602085015160a0820152604085015160c08201525f6060860151608060e0840152612730610100840182612633565b73ffffffffffffffffffffffffffffffffffffffff9687166020850152949095166040830152506060015292915050565b5f82518060208501845e5f920191825250919050565b805173ffffffffffffffffffffffffffffffffffffffff16825260208101516127b8602084018273ffffffffffffffffffffffffffffffffffffffff169052565b5060408101516127dc60408401826fffffffffffffffffffffffffffffffff169052565b50606081015161280060608401826fffffffffffffffffffffffffffffffff169052565b50608081015161282460808401826fffffffffffffffffffffffffffffffff169052565b5060a081015161284c60a084018273ffffffffffffffffffffffffffffffffffffffff169052565b5060c081015161287460c084018273ffffffffffffffffffffffffffffffffffffffff169052565b5060e081015161289c60e084018273ffffffffffffffffffffffffffffffffffffffff169052565b506101008101516128c661010084018273ffffffffffffffffffffffffffffffffffffffff169052565b506101208101516101208301526101408101516128f061014084018267ffffffffffffffff169052565b5061016090810151910152565b6101808101610b8f8284612777565b80516005811061291e5761291e612555565b825260208181015160ff169083015260408082015190830152606090810151910152565b61022081016129518286612777565b61295f61018083018561290c565b6fffffffffffffffffffffffffffffffff8316610200830152949350505050565b5f5f60408385031215612991575f5ffd5b825161299c81611eb6565b60208401519092506129ad81611eb6565b809150509250929050565b6fffffffffffffffffffffffffffffffff8181168382160190811115610b8f57610b8f612515565b835173ffffffffffffffffffffffffffffffffffffffff1681526101e081016020850151612a26602084018273ffffffffffffffffffffffffffffffffffffffff169052565b506040850151612a4a60408401826fffffffffffffffffffffffffffffffff169052565b506060850151612a6e60608401826fffffffffffffffffffffffffffffffff169052565b506080850151612a96608084018273ffffffffffffffffffffffffffffffffffffffff169052565b5060a0850151612abe60a084018273ffffffffffffffffffffffffffffffffffffffff169052565b5060c0850151612ae660c084018273ffffffffffffffffffffffffffffffffffffffff169052565b5060e085015160e0830152610100850151612b0e61010084018267ffffffffffffffff169052565b50610120850151610120830152612b2961014083018561290c565b6fffffffffffffffffffffffffffffffff83166101c0830152949350505050565b5f6101a08201905073ffffffffffffffffffffffffffffffffffffffff855116825273ffffffffffffffffffffffffffffffffffffffff60208601511660208301526fffffffffffffffffffffffffffffffff60408601511660408301526060850151612bcb60608401826fffffffffffffffffffffffffffffffff169052565b506080850151612bf3608084018273ffffffffffffffffffffffffffffffffffffffff169052565b5060a0850151612c1b60a084018273ffffffffffffffffffffffffffffffffffffffff169052565b5060c0850151612c4360c084018273ffffffffffffffffffffffffffffffffffffffff169052565b5060e085015160e0830152612c5c61010083018561290c565b6fffffffffffffffffffffffffffffffff83166101808301526118e2565b5f60208284031215612c8a575f5ffd5b81518015158114610c7b575f5ffd5b6040810160048410612cad57612cad612555565b928152602001529056fea2646970667358221220e9928f520b7c2f27ad37aab83760d2b5e10fde5269d8ad93819b981d8a0dc36064736f6c634300081c0033",
  "linkReferences": {},
  "deployedLinkReferences": {}
}