{"src/ZRXToken.sol":{"Token":{"abi":[{"anonymous":false,"inputs":[{"indexed":true,"internalType":"address","name":"_owner","type":"address"},{"indexed":true,"internalType":"address","name":"_spender","type":"address"},{"indexed":false,"internalType":"uint256","name":"_value","type":"uint256"}],"name":"Approval","type":"event"},{"anonymous":false,"inputs":[{"indexed":true,"internalType":"address","name":"_from","type":"address"},{"indexed":true,"internalType":"address","name":"_to","type":"address"},{"indexed":false,"internalType":"uint256","name":"_value","type":"uint256"}],"name":"Transfer","type":"event"},{"inputs":[{"internalType":"address","name":"_owner","type":"address"},{"internalType":"address","name":"_spender","type":"address"}],"name":"allowance","outputs":[{"internalType":"uint256","name":"remaining","type":"uint256"}],"stateMutability":"view","type":"function"},{"inputs":[{"internalType":"address","name":"_spender","type":"address"},{"internalType":"uint256","name":"_value","type":"uint256"}],"name":"approve","outputs":[{"internalType":"bool","name":"success","type":"bool"}],"stateMutability":"nonpayable","type":"function"},{"inputs":[{"internalType":"address","name":"_owner","type":"address"}],"name":"balanceOf","outputs":[{"internalType":"uint256","name":"balance","type":"uint256"}],"stateMutability":"view","type":"function"},{"inputs":[{"internalType":"address","name":"_to","type":"address"},{"internalType":"uint256","name":"_value","type":"uint256"}],"name":"transfer","outputs":[{"internalType":"bool","name":"success","type":"bool"}],"stateMutability":"nonpayable","type":"function"},{"inputs":[{"internalType":"address","name":"_from","type":"address"},{"internalType":"address","name":"_to","type":"address"},{"internalType":"uint256","name":"_value","type":"uint256"}],"name":"transferFrom","outputs":[{"internalType":"bool","name":"success","type":"bool"}],"stateMutability":"nonpayable","type":"function"}],"evm":{"bytecode":{"linkReferences":{},"object":"6080604052348015600e575f5ffd5b506101e88061001c5f395ff3fe608060405234801561000f575f5ffd5b5060043610610064575f3560e01c806370a082311161004d57806370a08231146100a8578063a9059cbb14610068578063dd62ed3e146100c9575f5ffd5b8063095ea7b31461006857806323b872dd14610092575b5f5ffd5b61007d6100763660046100ff565b5f92915050565b60405190151581526020015b60405180910390f35b61007d6100a0366004610127565b5f9392505050565b6100bb6100b6366004610161565b505f90565b604051908152602001610089565b6100bb610076366004610181565b803573ffffffffffffffffffffffffffffffffffffffff811681146100fa575f5ffd5b919050565b5f5f60408385031215610110575f5ffd5b610119836100d7565b946020939093013593505050565b5f5f5f60608486031215610139575f5ffd5b610142846100d7565b9250610150602085016100d7565b929592945050506040919091013590565b5f60208284031215610171575f5ffd5b61017a826100d7565b9392505050565b5f5f60408385031215610192575f5ffd5b61019b836100d7565b91506101a9602084016100d7565b9050925092905056fea264697066735822122060b8292699af9646bd60094c65be0501de32bf2289432fa72fb9337844bb05fb64736f6c634300081c0033","opcodes":"PUSH1 0x80 PUSH1 0x40 MSTORE CALLVALUE DUP1 ISZERO PUSH1 0xE JUMPI PUSH0 PUSH0 REVERT JUMPDEST POP PUSH2 0x1E8 DUP1 PUSH2 0x1C PUSH0 CODECOPY PUSH0 RETURN INVALID PUSH1 0x80 PUSH1 0x40 MSTORE CALLVALUE DUP1 ISZERO PUSH2 0xF JUMPI PUSH0 PUSH0 REVERT JUMPDEST POP PUSH1 0x4 CALLDATASIZE LT PUSH2 0x64 JUMPI PUSH0 CALLDATALOAD PUSH1 0xE0 SHR DUP1 PUSH4 0x70A08231 GT PUSH2 0x4D JUMPI DUP1 PUSH4 0x70A08231 EQ PUSH2 0xA8 JUMPI DUP1 PUSH4 0xA9059CBB EQ PUSH2 0x68 JUMPI DUP1 PUSH4 0xDD62ED3E EQ PUSH2 0xC9 JUMPI PUSH0 PUSH0 REVERT JUMPDEST DUP1 PUSH4 0x95EA7B3 EQ PUSH2 0x68 JUMPI DUP1 PUSH4 0x23B872DD EQ PUSH2 0x92 JUMPI JUMPDEST PUSH0 PUSH0 REVERT JUMPDEST PUSH2 0x7D PUSH2 0x76 CALLDATASIZE PUSH1 0x4 PUSH2 0xFF JUMP JUMPDEST PUSH0 SWAP3 SWAP2 POP POP JUMP JUMPDEST PUSH1 0x40 MLOAD SWAP1 ISZERO ISZERO DUP2 MSTORE PUSH1 0x20 ADD JUMPDEST PUSH1 0x40 MLOAD DUP1 SWAP2 SUB SWAP1 RETURN JUMPDEST PUSH2 0x7D PUSH2 0xA0 CALLDATASIZE PUSH1 0x4 PUSH2 0x127 JUMP JUMPDEST PUSH0 SWAP4 SWAP3 POP POP POP JUMP JUMPDEST PUSH2 0xBB PUSH2 0xB6 CALLDATASIZE PUSH1 0x4 PUSH2 0x161 JUMP JUMPDEST POP PUSH0 SWAP1 JUMP JUMPDEST PUSH1 0x40 MLOAD SWAP1 DUP2 MSTORE PUSH1 0x20 ADD PUSH2 0x89 JUMP JUMPDEST PUSH2 0xBB PUSH2 0x76 CALLDATASIZE PUSH1 0x4 PUSH2 0x181 JUMP JUMPDEST DUP1 CALLDATALOAD PUSH20 0xFFFFFFFFFFFFFFFFFFFFFFFFFFFFFFFFFFFFFFFF DUP2 AND DUP2 EQ PUSH2 0xFA JUMPI PUSH0 PUSH0 REVERT JUMPDEST SWAP2 SWAP1 POP JUMP JUMPDEST PUSH0 PUSH0 PUSH1 0x40 DUP4 DUP6 SUB SLT ISZERO PUSH2 0x110 JUMPI PUSH0 PUSH0 REVERT JUMPDEST PUSH2 0x119 DUP4 PUSH2 0xD7 JUMP JUMPDEST SWAP5 PUSH1 0x20 SWAP4 SWAP1 SWAP4 ADD CALLDATALOAD SWAP4 POP POP POP JUMP JUMPDEST PUSH0 PUSH0 PUSH0 PUSH1 0x60 DUP5 DUP7 SUB SLT ISZERO PUSH2 0x139 JUMPI PUSH0 PUSH0 REVERT JUMPDEST PUSH2 0x142 DUP5 PUSH2 0xD7 JUMP JUMPDEST SWAP3 POP PUSH2 0x150 PUSH1 0x20 DUP6 ADD PUSH2 0xD7 JUMP JUMPDEST SWAP3 SWAP6 SWAP3 SWAP5 POP POP POP PUSH1 0x40 SWAP2 SWAP1 SWAP2 ADD CALLDATALOAD SWAP1 JUMP JUMPDEST PUSH0 PUSH1 0x20 DUP3 DUP5 SUB SLT ISZERO PUSH2 0x171 JUMPI PUSH0 PUSH0 REVERT JUMPDEST PUSH2 0x17A DUP3 PUSH2 0xD7 JUMP JUMPDEST SWAP4 SWAP3 POP POP POP JUMP JUMPDEST PUSH0 PUSH0 PUSH1 0x40 DUP4 DUP6 SUB SLT ISZERO PUSH2 0x192 JUMPI PUSH0 PUSH0 REVERT JUMPDEST PUSH2 0x19B DUP4 PUSH2 0xD7 JUMP JUMPDEST SWAP2 POP PUSH2 0x1A9 PUSH1 0x20 DUP5 ADD PUSH2 0xD7 JUMP JUMPDEST SWAP1 POP SWAP3 POP SWAP3 SWAP1 POP JUMP INVALID LOG2 PUSH5 0x6970667358 0x22 SLT KECCAK256 PUSH1 0xB8 0x29 0x26 SWAP10 0xAF SWAP7 CHAINID 0xBD PUSH1 0x9 0x4C PUSH6 0xBE0501DE32BF 0x22 DUP10 NUMBER 0x2F 0xA7 0x2F 0xB9 CALLER PUSH25 0x44BB05FB64736F6C634300081C003300000000000000000000 "},"methodIdentifiers":{"allowance(address,address)":"dd62ed3e","approve(address,uint256)":"095ea7b3","balanceOf(address)":"70a08231","transfer(address,uint256)":"a9059cbb","transferFrom(address,address,uint256)":"23b872dd"}}}}}