{
  "_format": "hh-sol-artifact-1",
  "contractName": "TestReentrancyGuard",
  "sourceName": "contracts/test/TestReentrancyGuard.sol",
  "abi": [
    {
      "inputs": [],
      "name": "exploitive",
      "outputs": [
        {
          "internalType": "bool",
          "name": "",
          "type": "bool"
        }
      ],
      "stateMutability": "nonpayable",
      "type": "function"
    },
    {
      "inputs": [
        {
          "internalType": "bool",
          "name": "shouldBeAttacked",
          "type": "bool"
        }
      ],
      "name": "guarded",
      "outputs": [
        {
          "internalType": "bool",
          "name": "",
          "type": "bool"
        }
      ],
      "stateMutability": "nonpayable",
      "type": "function"
    },
    {
      "inputs": [],
      "name": "nonExploitive",
      "outputs": [
        {
          "internalType": "bool",
          "name": "",
          "type": "bool"
        }
      ],
      "stateMutability": "pure",
      "type": "function"
    }
  ],
  "bytecode": "0x608060405260008060006101000a81548160ff021916908315150217905550348015602957600080fd5b506103f3806100396000396000f3fe608060405234801561001057600080fd5b50600436106100415760003560e01c80637d45cb4714610046578063ea68ad3814610076578063eb8c8d4014610094575b600080fd5b610060600480360381019061005b9190610324565b6100b2565b60405161006d9190610360565b60405180910390f35b61007e6101b9565b60405161008b9190610360565b60405180910390f35b61009c61023d565b6040516100a99190610360565b60405180910390f35b60006100bc610246565b811561013a573073ffffffffffffffffffffffffffffffffffffffff1663ea68ad386040518163ffffffff1660e01b81526004016020604051808303816000875af115801561010f573d6000803e3d6000fd5b505050506040513d601f19601f820116820180604052508101906101339190610390565b90506101ac565b3073ffffffffffffffffffffffffffffffffffffffff1663eb8c8d406040518163ffffffff1660e01b8152600401602060405180830381865afa158015610185573d6000803e3d6000fd5b505050506040513d601f19601f820116820180604052508101906101a99190610390565b90505b6101b4610286565b919050565b60003073ffffffffffffffffffffffffffffffffffffffff16637d45cb4760016040518263ffffffff1660e01b81526004016101f59190610360565b6020604051808303816000875af1158015610214573d6000803e3d6000fd5b505050506040513d601f19601f820116820180604052508101906102389190610390565b905090565b60006001905090565b60008054906101000a900460ff161561026a576102696102646102a2565b6102df565b5b60016000806101000a81548160ff021916908315150217905550565b60008060006101000a81548160ff021916908315150217905550565b60606040518060400160405280600481526020017f0c3b823f00000000000000000000000000000000000000000000000000000000815250905090565b805160208201fd5b600080fd5b60008115159050919050565b610301816102ec565b811461030c57600080fd5b50565b60008135905061031e816102f8565b92915050565b60006020828403121561033a576103396102e7565b5b60006103488482850161030f565b91505092915050565b61035a816102ec565b82525050565b60006020820190506103756000830184610351565b92915050565b60008151905061038a816102f8565b92915050565b6000602082840312156103a6576103a56102e7565b5b60006103b48482850161037b565b9150509291505056fea26469706673582212208562d6c6e12480b58da476cb2921a22d670cf2a7dde86abb5642737c8a581e0464736f6c634300081c0033",
  "linkReferences": {},
  "deployedLinkReferences": {}
}