{
  "_format": "hh-sol-artifact-1",
  "contractName": "TestReentrancyGuard",
  "sourceName": "contracts/test/TestReentrancyGuard.sol",
  "abi": [
    {
      "inputs": [],
      "name": "exploitive",
      "outputs": [
        {
          "internalType": "bool",
          "name": "",
          "type": "bool"
        }
      ],
      "stateMutability": "nonpayable",
      "type": "function"
    },
    {
      "inputs": [
        {
          "internalType": "bool",
          "name": "shouldBeAttacked",
          "type": "bool"
        }
      ],
      "name": "guarded",
      "outputs": [
        {
          "internalType": "bool",
          "name": "",
          "type": "bool"
        }
      ],
      "stateMutability": "nonpayable",
      "type": "function"
    },
    {
      "inputs": [],
      "name": "nonExploitive",
      "outputs": [
        {
          "internalType": "bool",
          "name": "",
          "type": "bool"
        }
      ],
      "stateMutability": "pure",
      "type": "function"
    }
  ],
  "bytecode": "0x60806040525f805460ff191690553480156017575f5ffd5b506102f9806100255f395ff3fe608060405234801561000f575f5ffd5b506004361061003f575f3560e01c80637d45cb4714610043578063ea68ad381461006a578063eb8c8d4014610072575b5f5ffd5b610056610051366004610286565b610079565b604051901515815260200160405180910390f35b610056610177565b6001610056565b5f6100826101f6565b81156100fd573073ffffffffffffffffffffffffffffffffffffffff1663ea68ad386040518163ffffffff1660e01b81526004016020604051808303815f875af11580156100d2573d5f5f3e3d5ffd5b505050506040513d601f19601f820116820180604052508101906100f691906102a8565b9050610146565b3073ffffffffffffffffffffffffffffffffffffffff1663eb8c8d406040518163ffffffff1660e01b8152600401602060405180830381865afa1580156100d2573d5f5f3e3d5ffd5b6101725f80547fffffffffffffffffffffffffffffffffffffffffffffffffffffffffffffff00169055565b919050565b6040517f7d45cb47000000000000000000000000000000000000000000000000000000008152600160048201525f903090637d45cb47906024016020604051808303815f875af11580156101cd573d5f5f3e3d5ffd5b505050506040513d601f19601f820116820180604052508101906101f191906102a8565b905090565b5f5460ff16156102425761024261023d60408051808201909152600481527f0c3b823f00000000000000000000000000000000000000000000000000000000602082015290565b61026e565b5f80547fffffffffffffffffffffffffffffffffffffffffffffffffffffffffffffff00166001179055565b805160208201fd5b8015158114610283575f5ffd5b50565b5f60208284031215610296575f5ffd5b81356102a181610276565b9392505050565b5f602082840312156102b8575f5ffd5b81516102a18161027656fea26469706673582212207c9511676a4490b9ea3668abaad58d0087fa7bf9be56f54c68f7a8e6f944977f64736f6c634300081c0033",
  "linkReferences": {},
  "deployedLinkReferences": {}
}