{
  "_format": "hh-sol-artifact-1",
  "contractName": "TestFixinTokenSpender",
  "sourceName": "contracts/test/TestFixinTokenSpender.sol",
  "abi": [
    {
      "inputs": [],
      "stateMutability": "nonpayable",
      "type": "constructor"
    },
    {
      "anonymous": false,
      "inputs": [
        {
          "indexed": false,
          "internalType": "address",
          "name": "token",
          "type": "address"
        },
        {
          "indexed": false,
          "internalType": "address",
          "name": "owner",
          "type": "address"
        },
        {
          "indexed": false,
          "internalType": "address",
          "name": "to",
          "type": "address"
        },
        {
          "indexed": false,
          "internalType": "uint256",
          "name": "amount",
          "type": "uint256"
        }
      ],
      "name": "FallbackCalled",
      "type": "event"
    },
    {
      "inputs": [
        {
          "internalType": "contract IERC20Token",
          "name": "token",
          "type": "address"
        },
        {
          "internalType": "address",
          "name": "owner",
          "type": "address"
        }
      ],
      "name": "getSpendableERC20BalanceOf",
      "outputs": [
        {
          "internalType": "uint256",
          "name": "",
          "type": "uint256"
        }
      ],
      "stateMutability": "view",
      "type": "function"
    },
    {
      "inputs": [
        {
          "internalType": "contract IERC20Token",
          "name": "token",
          "type": "address"
        },
        {
          "internalType": "address",
          "name": "owner",
          "type": "address"
        },
        {
          "internalType": "address",
          "name": "to",
          "type": "address"
        },
        {
          "internalType": "uint256",
          "name": "amount",
          "type": "uint256"
        }
      ],
      "name": "transferERC20TokensFrom",
      "outputs": [],
      "stateMutability": "nonpayable",
      "type": "function"
    }
  ],
  "bytecode": "0x6080604052348015600e575f5ffd5b506104238061001c5f395ff3fe608060405234801561000f575f5ffd5b5060043610610034575f3560e01c8063496f471e14610038578063f5ce2c991461005d575b5f5ffd5b61004b610046366004610351565b610072565b60405190815260200160405180910390f35b61007061006b366004610388565b610084565b005b5f61007d8383610096565b9392505050565b610090848484846101c3565b50505050565b6040517fdd62ed3e00000000000000000000000000000000000000000000000000000000815273ffffffffffffffffffffffffffffffffffffffff82811660048301523060248301525f9161007d9185169063dd62ed3e90604401602060405180830381865afa15801561010c573d5f5f3e3d5ffd5b505050506040513d601f19601f8201168201806040525081019061013091906103d6565b6040517f70a0823100000000000000000000000000000000000000000000000000000000815273ffffffffffffffffffffffffffffffffffffffff85811660048301528616906370a0823190602401602060405180830381865afa15801561019a573d5f5f3e3d5ffd5b505050506040513d601f19601f820116820180604052508101906101be91906103d6565b610318565b3073ffffffffffffffffffffffffffffffffffffffff85160361026b576040517f08c379a0000000000000000000000000000000000000000000000000000000008152602060048201526024808201527f466978696e546f6b656e5370656e6465722f43414e4e4f545f494e564f4b455f60448201527f53454c4600000000000000000000000000000000000000000000000000000000606482015260840160405180910390fd5b6040517f23b872dd00000000000000000000000000000000000000000000000000000000815273ffffffffffffffffffffffffffffffffffffffff8416600482015273ffffffffffffffffffffffffffffffffffffffff831660248201528160448201526020816064835f73ffffffffffffffffffffffffffffffffffffffff8a165af13d6001835114602082101516811517821691508161030f57805f843e8083fd5b50505050505050565b5f818310610326578161007d565b5090919050565b73ffffffffffffffffffffffffffffffffffffffff8116811461034e575f5ffd5b50565b5f5f60408385031215610362575f5ffd5b823561036d8161032d565b9150602083013561037d8161032d565b809150509250929050565b5f5f5f5f6080858703121561039b575f5ffd5b84356103a68161032d565b935060208501356103b68161032d565b925060408501356103c68161032d565b9396929550929360600135925050565b5f602082840312156103e6575f5ffd5b505191905056fea264697066735822122074b1c82d8d543d974959de17b19e6d5e9454f7bbcdddfb568a5a5289f936a9a964736f6c634300081c0033",
  "linkReferences": {},
  "deployedLinkReferences": {}
}