{
  "_format": "hh-sol-artifact-1",
  "contractName": "TestFixinTokenSpender",
  "sourceName": "contracts/test/TestFixinTokenSpender.sol",
  "abi": [
    {
      "inputs": [],
      "stateMutability": "nonpayable",
      "type": "constructor"
    },
    {
      "anonymous": false,
      "inputs": [
        {
          "indexed": false,
          "internalType": "address",
          "name": "token",
          "type": "address"
        },
        {
          "indexed": false,
          "internalType": "address",
          "name": "owner",
          "type": "address"
        },
        {
          "indexed": false,
          "internalType": "address",
          "name": "to",
          "type": "address"
        },
        {
          "indexed": false,
          "internalType": "uint256",
          "name": "amount",
          "type": "uint256"
        }
      ],
      "name": "FallbackCalled",
      "type": "event"
    },
    {
      "inputs": [
        {
          "internalType": "contract IERC20Token",
          "name": "token",
          "type": "address"
        },
        {
          "internalType": "address",
          "name": "owner",
          "type": "address"
        }
      ],
      "name": "getSpendableERC20BalanceOf",
      "outputs": [
        {
          "internalType": "uint256",
          "name": "",
          "type": "uint256"
        }
      ],
      "stateMutability": "view",
      "type": "function"
    },
    {
      "inputs": [
        {
          "internalType": "contract IERC20Token",
          "name": "token",
          "type": "address"
        },
        {
          "internalType": "address",
          "name": "owner",
          "type": "address"
        },
        {
          "internalType": "address",
          "name": "to",
          "type": "address"
        },
        {
          "internalType": "uint256",
          "name": "amount",
          "type": "uint256"
        }
      ],
      "name": "transferERC20TokensFrom",
      "outputs": [],
      "stateMutability": "nonpayable",
      "type": "function"
    }
  ],
  "bytecode": "0x6080604052348015600e575f5ffd5b5061034a8061001c5f395ff3fe608060405234801561000f575f5ffd5b5060043610610034575f3560e01c8063496f471e14610038578063f5ce2c991461005d575b5f5ffd5b61004b610046366004610278565b610072565b60405190815260200160405180910390f35b61007061006b3660046102af565b610084565b005b5f61007d8383610096565b9392505050565b61009084848484610177565b50505050565b604051636eb1769f60e11b81526001600160a01b0382811660048301523060248301525f9161007d9185169063dd62ed3e90604401602060405180830381865afa1580156100e6573d5f5f3e3d5ffd5b505050506040513d601f19601f8201168201806040525081019061010a91906102fd565b6040516370a0823160e01b81526001600160a01b0385811660048301528616906370a0823190602401602060405180830381865afa15801561014e573d5f5f3e3d5ffd5b505050506040513d601f19601f8201168201806040525081019061017291906102fd565b61024c565b306001600160a01b038516036101df5760405162461bcd60e51b8152602060048201526024808201527f466978696e546f6b656e5370656e6465722f43414e4e4f545f494e564f4b455f60448201526329a2a62360e11b606482015260840160405180910390fd5b6040516323b872dd60e01b81526001600160a01b03841660048201526001600160a01b03831660248201528160448201526020816064835f6001600160a01b038a165af13d6001835114602082101516811517821691508161024357805f843e8083fd5b50505050505050565b5f81831061025a578161007d565b5090919050565b6001600160a01b0381168114610275575f5ffd5b50565b5f5f60408385031215610289575f5ffd5b823561029481610261565b915060208301356102a481610261565b809150509250929050565b5f5f5f5f608085870312156102c2575f5ffd5b84356102cd81610261565b935060208501356102dd81610261565b925060408501356102ed81610261565b9396929550929360600135925050565b5f6020828403121561030d575f5ffd5b505191905056fea26469706673582212207ec699491eeaa9006fccd4d9682dc9c06fc3fea1fb00d7ab2290f7ded22980d664736f6c634300081c0033",
  "linkReferences": {},
  "deployedLinkReferences": {}
}