{
  "_format": "hh-sol-artifact-1",
  "contractName": "FlashWallet",
  "sourceName": "contracts/src/external/FlashWallet.sol",
  "abi": [
    {
      "inputs": [],
      "stateMutability": "nonpayable",
      "type": "constructor"
    },
    {
      "inputs": [
        {
          "internalType": "address payable",
          "name": "target",
          "type": "address"
        },
        {
          "internalType": "bytes",
          "name": "callData",
          "type": "bytes"
        },
        {
          "internalType": "uint256",
          "name": "value",
          "type": "uint256"
        }
      ],
      "name": "executeCall",
      "outputs": [
        {
          "internalType": "bytes",
          "name": "resultData",
          "type": "bytes"
        }
      ],
      "stateMutability": "payable",
      "type": "function"
    },
    {
      "inputs": [
        {
          "internalType": "address payable",
          "name": "target",
          "type": "address"
        },
        {
          "internalType": "bytes",
          "name": "callData",
          "type": "bytes"
        }
      ],
      "name": "executeDelegateCall",
      "outputs": [
        {
          "internalType": "bytes",
          "name": "resultData",
          "type": "bytes"
        }
      ],
      "stateMutability": "payable",
      "type": "function"
    },
    {
      "inputs": [
        {
          "internalType": "address",
          "name": "",
          "type": "address"
        },
        {
          "internalType": "address",
          "name": "",
          "type": "address"
        },
        {
          "internalType": "uint256[]",
          "name": "",
          "type": "uint256[]"
        },
        {
          "internalType": "uint256[]",
          "name": "",
          "type": "uint256[]"
        },
        {
          "internalType": "bytes",
          "name": "",
          "type": "bytes"
        }
      ],
      "name": "onERC1155BatchReceived",
      "outputs": [
        {
          "internalType": "bytes4",
          "name": "success",
          "type": "bytes4"
        }
      ],
      "stateMutability": "pure",
      "type": "function"
    },
    {
      "inputs": [
        {
          "internalType": "address",
          "name": "",
          "type": "address"
        },
        {
          "internalType": "address",
          "name": "",
          "type": "address"
        },
        {
          "internalType": "uint256",
          "name": "",
          "type": "uint256"
        },
        {
          "internalType": "uint256",
          "name": "",
          "type": "uint256"
        },
        {
          "internalType": "bytes",
          "name": "",
          "type": "bytes"
        }
      ],
      "name": "onERC1155Received",
      "outputs": [
        {
          "internalType": "bytes4",
          "name": "success",
          "type": "bytes4"
        }
      ],
      "stateMutability": "pure",
      "type": "function"
    },
    {
      "inputs": [],
      "name": "owner",
      "outputs": [
        {
          "internalType": "address",
          "name": "",
          "type": "address"
        }
      ],
      "stateMutability": "view",
      "type": "function"
    },
    {
      "inputs": [
        {
          "internalType": "bytes4",
          "name": "interfaceID",
          "type": "bytes4"
        }
      ],
      "name": "supportsInterface",
      "outputs": [
        {
          "internalType": "bool",
          "name": "hasSupport",
          "type": "bool"
        }
      ],
      "stateMutability": "pure",
      "type": "function"
    },
    {
      "inputs": [
        {
          "internalType": "address",
          "name": "",
          "type": "address"
        },
        {
          "internalType": "uint256",
          "name": "",
          "type": "uint256"
        },
        {
          "internalType": "bytes",
          "name": "",
          "type": "bytes"
        }
      ],
      "name": "tokenFallback",
      "outputs": [],
      "stateMutability": "pure",
      "type": "function"
    },
    {
      "stateMutability": "payable",
      "type": "receive"
    }
  ],
  "bytecode": "0x60a0604052348015600e575f5ffd5b5033608052608051610c896100465f395f818160e10152818161031801528181610349015281816104cb01526104fc0152610c895ff3fe608060405260043610610071575f3560e01c8063b68df16d1161004c578063b68df16d14610128578063bc197c811461013b578063c0ee0b8a146101b3578063f23a6e61146101d5575f5ffd5b806301ffc9a71461007c57806354132d78146100b05780638da5cb5b146100d0575f5ffd5b3661007857005b5f5ffd5b348015610087575f5ffd5b5061009b6100963660046107e6565b61021a565b60405190151581526020015b60405180910390f35b6100c36100be366004610895565b6102fe565b6040516100a79190610939565b3480156100db575f5ffd5b506101037f000000000000000000000000000000000000000000000000000000000000000081565b60405173ffffffffffffffffffffffffffffffffffffffff90911681526020016100a7565b6100c361013636600461094b565b6104b1565b348015610146575f5ffd5b506101826101553660046109dd565b7fbc197c810000000000000000000000000000000000000000000000000000000098975050505050505050565b6040517fffffffff0000000000000000000000000000000000000000000000000000000090911681526020016100a7565b3480156101be575f5ffd5b506101d36101cd366004610aa0565b50505050565b005b3480156101e0575f5ffd5b506101826101ef366004610af8565b7ff23a6e61000000000000000000000000000000000000000000000000000000009695505050505050565b5f7fffffffff0000000000000000000000000000000000000000000000000000000082167f01ffc9a70000000000000000000000000000000000000000000000000000000014806102ac57507fffffffff0000000000000000000000000000000000000000000000000000000082167f4e2312e000000000000000000000000000000000000000000000000000000000145b806102f857507fffffffff0000000000000000000000000000000000000000000000000000000082167fc0ee0b8a00000000000000000000000000000000000000000000000000000000145b92915050565b60603373ffffffffffffffffffffffffffffffffffffffff7f000000000000000000000000000000000000000000000000000000000000000016146103ef57604080513360248201527f000000000000000000000000000000000000000000000000000000000000000073ffffffffffffffffffffffffffffffffffffffff166044808301919091528251808303909101815260649091019091526020810180517bffffffffffffffffffffffffffffffffffffffffffffffffffffffff167f1de45ad1000000000000000000000000000000000000000000000000000000001790526103ef90610659565b610659565b5f8573ffffffffffffffffffffffffffffffffffffffff16838686604051610418929190610b6f565b5f6040518083038185875af1925050503d805f8114610452576040519150601f19603f3d011682016040523d82523d5f602084013e610457565b606091505b5092509050806104a8576104a86103ea308888888080601f0160208091040260200160405190810160405280939291908181526020018383808284375f920191909152508a92508991506106619050565b50949350505050565b60603373ffffffffffffffffffffffffffffffffffffffff7f0000000000000000000000000000000000000000000000000000000000000000161461059d57604080513360248201527f000000000000000000000000000000000000000000000000000000000000000073ffffffffffffffffffffffffffffffffffffffff166044808301919091528251808303909101815260649091019091526020810180517bffffffffffffffffffffffffffffffffffffffffffffffffffffffff167f1de45ad10000000000000000000000000000000000000000000000000000000017905261059d90610659565b5f8473ffffffffffffffffffffffffffffffffffffffff1684846040516105c5929190610b6f565b5f60405180830381855af49150503d805f81146105fd576040519150601f19603f3d011682016040523d82523d5f602084013e610602565b606091505b509250905080610651576106516103ea308787878080601f0160208091040260200160405190810160405280939291908181526020018383808284375f92019190915250899250610725915050565b509392505050565b805160208201fd5b60607f86945816f737646db7f2d6df01602a2212e8c75829f6940913724c13a83a8178868686868660405160240161069d959493929190610b7e565b604080517fffffffffffffffffffffffffffffffffffffffffffffffffffffffffffffffe08184030181529190526020810180517bffffffffffffffffffffffffffffffffffffffffffffffffffffffff167fffffffff0000000000000000000000000000000000000000000000000000000090931692909217909152905095945050505050565b60607f61e5a7320b4cf56a2980a427f39e3071c967bf2f77fffcaae20e4467e160afcc8585858560405160240161075f9493929190610bec565b604080517fffffffffffffffffffffffffffffffffffffffffffffffffffffffffffffffe08184030181529190526020810180517bffffffffffffffffffffffffffffffffffffffffffffffffffffffff167fffffffff00000000000000000000000000000000000000000000000000000000909316929092179091529050949350505050565b5f602082840312156107f6575f5ffd5b81357fffffffff0000000000000000000000000000000000000000000000000000000081168114610825575f5ffd5b9392505050565b73ffffffffffffffffffffffffffffffffffffffff8116811461084d575f5ffd5b50565b5f5f83601f840112610860575f5ffd5b50813567ffffffffffffffff811115610877575f5ffd5b60208301915083602082850101111561088e575f5ffd5b9250929050565b5f5f5f5f606085870312156108a8575f5ffd5b84356108b38161082c565b9350602085013567ffffffffffffffff8111156108ce575f5ffd5b6108da87828801610850565b9598909750949560400135949350505050565b5f81518084528060208401602086015e5f6020828601015260207fffffffffffffffffffffffffffffffffffffffffffffffffffffffffffffffe0601f83011685010191505092915050565b602081525f61082560208301846108ed565b5f5f5f6040848603121561095d575f5ffd5b83356109688161082c565b9250602084013567ffffffffffffffff811115610983575f5ffd5b61098f86828701610850565b9497909650939450505050565b5f5f83601f8401126109ac575f5ffd5b50813567ffffffffffffffff8111156109c3575f5ffd5b6020830191508360208260051b850101111561088e575f5ffd5b5f5f5f5f5f5f5f5f60a0898b0312156109f4575f5ffd5b88356109ff8161082c565b97506020890135610a0f8161082c565b9650604089013567ffffffffffffffff811115610a2a575f5ffd5b610a368b828c0161099c565b909750955050606089013567ffffffffffffffff811115610a55575f5ffd5b610a618b828c0161099c565b909550935050608089013567ffffffffffffffff811115610a80575f5ffd5b610a8c8b828c01610850565b999c989b5096995094979396929594505050565b5f5f5f5f60608587031215610ab3575f5ffd5b8435610abe8161082c565b935060208501359250604085013567ffffffffffffffff811115610ae0575f5ffd5b610aec87828801610850565b95989497509550505050565b5f5f5f5f5f5f60a08789031215610b0d575f5ffd5b8635610b188161082c565b95506020870135610b288161082c565b94506040870135935060608701359250608087013567ffffffffffffffff811115610b51575f5ffd5b610b5d89828a01610850565b979a9699509497509295939492505050565b818382375f9101908152919050565b73ffffffffffffffffffffffffffffffffffffffff8616815273ffffffffffffffffffffffffffffffffffffffff8516602082015260a060408201525f610bc860a08301866108ed565b8460608401528281036080840152610be081856108ed565b98975050505050505050565b73ffffffffffffffffffffffffffffffffffffffff8516815273ffffffffffffffffffffffffffffffffffffffff84166020820152608060408201525f610c3660808301856108ed565b8281036060840152610c4881856108ed565b97965050505050505056fea2646970667358221220c368d99a266429e086f8739b1fa5c17b3c90a85e5a4372fce18b5f992395c23e64736f6c634300081c0033",
  "linkReferences": {},
  "deployedLinkReferences": {}
}