{
  "_format": "hh-sol-artifact-1",
  "contractName": "FlashWallet",
  "sourceName": "contracts/src/external/FlashWallet.sol",
  "abi": [
    {
      "inputs": [],
      "stateMutability": "nonpayable",
      "type": "constructor"
    },
    {
      "inputs": [
        {
          "internalType": "address payable",
          "name": "target",
          "type": "address"
        },
        {
          "internalType": "bytes",
          "name": "callData",
          "type": "bytes"
        },
        {
          "internalType": "uint256",
          "name": "value",
          "type": "uint256"
        }
      ],
      "name": "executeCall",
      "outputs": [
        {
          "internalType": "bytes",
          "name": "resultData",
          "type": "bytes"
        }
      ],
      "stateMutability": "payable",
      "type": "function"
    },
    {
      "inputs": [
        {
          "internalType": "address payable",
          "name": "target",
          "type": "address"
        },
        {
          "internalType": "bytes",
          "name": "callData",
          "type": "bytes"
        }
      ],
      "name": "executeDelegateCall",
      "outputs": [
        {
          "internalType": "bytes",
          "name": "resultData",
          "type": "bytes"
        }
      ],
      "stateMutability": "payable",
      "type": "function"
    },
    {
      "inputs": [
        {
          "internalType": "address",
          "name": "",
          "type": "address"
        },
        {
          "internalType": "address",
          "name": "",
          "type": "address"
        },
        {
          "internalType": "uint256[]",
          "name": "",
          "type": "uint256[]"
        },
        {
          "internalType": "uint256[]",
          "name": "",
          "type": "uint256[]"
        },
        {
          "internalType": "bytes",
          "name": "",
          "type": "bytes"
        }
      ],
      "name": "onERC1155BatchReceived",
      "outputs": [
        {
          "internalType": "bytes4",
          "name": "success",
          "type": "bytes4"
        }
      ],
      "stateMutability": "pure",
      "type": "function"
    },
    {
      "inputs": [
        {
          "internalType": "address",
          "name": "",
          "type": "address"
        },
        {
          "internalType": "address",
          "name": "",
          "type": "address"
        },
        {
          "internalType": "uint256",
          "name": "",
          "type": "uint256"
        },
        {
          "internalType": "uint256",
          "name": "",
          "type": "uint256"
        },
        {
          "internalType": "bytes",
          "name": "",
          "type": "bytes"
        }
      ],
      "name": "onERC1155Received",
      "outputs": [
        {
          "internalType": "bytes4",
          "name": "success",
          "type": "bytes4"
        }
      ],
      "stateMutability": "pure",
      "type": "function"
    },
    {
      "inputs": [],
      "name": "owner",
      "outputs": [
        {
          "internalType": "address",
          "name": "",
          "type": "address"
        }
      ],
      "stateMutability": "view",
      "type": "function"
    },
    {
      "inputs": [
        {
          "internalType": "bytes4",
          "name": "interfaceID",
          "type": "bytes4"
        }
      ],
      "name": "supportsInterface",
      "outputs": [
        {
          "internalType": "bool",
          "name": "hasSupport",
          "type": "bool"
        }
      ],
      "stateMutability": "pure",
      "type": "function"
    },
    {
      "inputs": [
        {
          "internalType": "address",
          "name": "",
          "type": "address"
        },
        {
          "internalType": "uint256",
          "name": "",
          "type": "uint256"
        },
        {
          "internalType": "bytes",
          "name": "",
          "type": "bytes"
        }
      ],
      "name": "tokenFallback",
      "outputs": [],
      "stateMutability": "pure",
      "type": "function"
    },
    {
      "stateMutability": "payable",
      "type": "receive"
    }
  ],
  "bytecode": "0x60a060405234801561001057600080fd5b503373ffffffffffffffffffffffffffffffffffffffff1660808173ffffffffffffffffffffffffffffffffffffffff1681525050608051610f5f61007c600039600081816102e7015281816103410152818161044a0152818161047001526104ca0152610f5f6000f3fe6080604052600436106100745760003560e01c8063b68df16d1161004e578063b68df16d14610118578063bc197c8114610148578063c0ee0b8a14610185578063f23a6e61146101ae5761007b565b806301ffc9a71461008057806354132d78146100bd5780638da5cb5b146100ed5761007b565b3661007b57005b600080fd5b34801561008c57600080fd5b506100a760048036038101906100a29190610831565b6101eb565b6040516100b49190610879565b60405180910390f35b6100d760048036038101906100d2919061098d565b6102e3565b6040516100e49190610a91565b60405180910390f35b3480156100f957600080fd5b50610102610448565b60405161010f9190610ad4565b60405180910390f35b610132600480360381019061012d9190610aef565b61046c565b60405161013f9190610a91565b60405180910390f35b34801561015457600080fd5b5061016f600480360381019061016a9190610bd1565b6105cc565b60405161017c9190610cbc565b60405180910390f35b34801561019157600080fd5b506101ac60048036038101906101a79190610cd7565b6105e4565b005b3480156101ba57600080fd5b506101d560048036038101906101d09190610d4b565b6105ea565b6040516101e29190610cbc565b60405180910390f35b60006301ffc9a760e01b7bffffffffffffffffffffffffffffffffffffffffffffffffffffffff1916827bffffffffffffffffffffffffffffffffffffffffffffffffffffffff1916148061028d575063bc197c8160e01b63f23a6e6160e01b187bffffffffffffffffffffffffffffffffffffffffffffffffffffffff1916827bffffffffffffffffffffffffffffffffffffffffffffffffffffffff1916145b806102dc575063c0ee0b8a60e01b7bffffffffffffffffffffffffffffffffffffffffffffffffffffffff1916827bffffffffffffffffffffffffffffffffffffffffffffffffffffffff1916145b9050919050565b60607f000000000000000000000000000000000000000000000000000000000000000073ffffffffffffffffffffffffffffffffffffffff163373ffffffffffffffffffffffffffffffffffffffff161461036b5761036a610365337f0000000000000000000000000000000000000000000000000000000000000000610600565b610682565b5b60008573ffffffffffffffffffffffffffffffffffffffff16838686604051610395929190610e24565b60006040518083038185875af1925050503d80600081146103d2576040519150601f19603f3d011682016040523d82523d6000602084013e6103d7565b606091505b5080935081925050508061043f5761043e610439308888888080601f016020809104026020016040519081016040528093929190818152602001838380828437600081840152601f19601f82011690508083019250505050505050878761068a565b610682565b5b50949350505050565b7f000000000000000000000000000000000000000000000000000000000000000081565b60607f000000000000000000000000000000000000000000000000000000000000000073ffffffffffffffffffffffffffffffffffffffff163373ffffffffffffffffffffffffffffffffffffffff16146104f4576104f36104ee337f0000000000000000000000000000000000000000000000000000000000000000610600565b610682565b5b60008473ffffffffffffffffffffffffffffffffffffffff16848460405161051d929190610e24565b600060405180830381855af49150503d8060008114610558576040519150601f19603f3d011682016040523d82523d6000602084013e61055d565b606091505b508093508192505050806105c4576105c36105be308787878080601f016020809104026020016040519081016040528093929190818152602001838380828437600081840152601f19601f820116905080830192505050505050508661072e565b610682565b5b509392505050565b600063bc197c8160e01b905098975050505050505050565b50505050565b600063f23a6e6160e01b90509695505050505050565b6060631de45ad160e01b838360405160240161061d929190610e3d565b604051602081830303815290604052907bffffffffffffffffffffffffffffffffffffffffffffffffffffffff19166020820180517bffffffffffffffffffffffffffffffffffffffffffffffffffffffff8381831617835250505050905092915050565b805160208201fd5b60607f86945816f737646db7f2d6df01602a2212e8c75829f6940913724c13a83a817886868686866040516024016106c6959493929190610e75565b604051602081830303815290604052907bffffffffffffffffffffffffffffffffffffffffffffffffffffffff19166020820180517bffffffffffffffffffffffffffffffffffffffffffffffffffffffff8381831617835250505050905095945050505050565b60607f61e5a7320b4cf56a2980a427f39e3071c967bf2f77fffcaae20e4467e160afcc858585856040516024016107689493929190610ed6565b604051602081830303815290604052907bffffffffffffffffffffffffffffffffffffffffffffffffffffffff19166020820180517bffffffffffffffffffffffffffffffffffffffffffffffffffffffff83818316178352505050509050949350505050565b600080fd5b600080fd5b60007fffffffff0000000000000000000000000000000000000000000000000000000082169050919050565b61080e816107d9565b811461081957600080fd5b50565b60008135905061082b81610805565b92915050565b600060208284031215610847576108466107cf565b5b60006108558482850161081c565b91505092915050565b60008115159050919050565b6108738161085e565b82525050565b600060208201905061088e600083018461086a565b92915050565b600073ffffffffffffffffffffffffffffffffffffffff82169050919050565b60006108bf82610894565b9050919050565b6108cf816108b4565b81146108da57600080fd5b50565b6000813590506108ec816108c6565b92915050565b600080fd5b600080fd5b600080fd5b60008083601f840112610917576109166108f2565b5b8235905067ffffffffffffffff811115610934576109336108f7565b5b6020830191508360018202830111156109505761094f6108fc565b5b9250929050565b6000819050919050565b61096a81610957565b811461097557600080fd5b50565b60008135905061098781610961565b92915050565b600080600080606085870312156109a7576109a66107cf565b5b60006109b5878288016108dd565b945050602085013567ffffffffffffffff8111156109d6576109d56107d4565b5b6109e287828801610901565b935093505060406109f587828801610978565b91505092959194509250565b600081519050919050565b600082825260208201905092915050565b60005b83811015610a3b578082015181840152602081019050610a20565b60008484015250505050565b6000601f19601f8301169050919050565b6000610a6382610a01565b610a6d8185610a0c565b9350610a7d818560208601610a1d565b610a8681610a47565b840191505092915050565b60006020820190508181036000830152610aab8184610a58565b905092915050565b6000610abe82610894565b9050919050565b610ace81610ab3565b82525050565b6000602082019050610ae96000830184610ac5565b92915050565b600080600060408486031215610b0857610b076107cf565b5b6000610b16868287016108dd565b935050602084013567ffffffffffffffff811115610b3757610b366107d4565b5b610b4386828701610901565b92509250509250925092565b610b5881610ab3565b8114610b6357600080fd5b50565b600081359050610b7581610b4f565b92915050565b60008083601f840112610b9157610b906108f2565b5b8235905067ffffffffffffffff811115610bae57610bad6108f7565b5b602083019150836020820283011115610bca57610bc96108fc565b5b9250929050565b60008060008060008060008060a0898b031215610bf157610bf06107cf565b5b6000610bff8b828c01610b66565b9850506020610c108b828c01610b66565b975050604089013567ffffffffffffffff811115610c3157610c306107d4565b5b610c3d8b828c01610b7b565b9650965050606089013567ffffffffffffffff811115610c6057610c5f6107d4565b5b610c6c8b828c01610b7b565b9450945050608089013567ffffffffffffffff811115610c8f57610c8e6107d4565b5b610c9b8b828c01610901565b92509250509295985092959890939650565b610cb6816107d9565b82525050565b6000602082019050610cd16000830184610cad565b92915050565b60008060008060608587031215610cf157610cf06107cf565b5b6000610cff87828801610b66565b9450506020610d1087828801610978565b935050604085013567ffffffffffffffff811115610d3157610d306107d4565b5b610d3d87828801610901565b925092505092959194509250565b60008060008060008060a08789031215610d6857610d676107cf565b5b6000610d7689828a01610b66565b9650506020610d8789828a01610b66565b9550506040610d9889828a01610978565b9450506060610da989828a01610978565b935050608087013567ffffffffffffffff811115610dca57610dc96107d4565b5b610dd689828a01610901565b92509250509295509295509295565b600081905092915050565b82818337600083830152505050565b6000610e0b8385610de5565b9350610e18838584610df0565b82840190509392505050565b6000610e31828486610dff565b91508190509392505050565b6000604082019050610e526000830185610ac5565b610e5f6020830184610ac5565b9392505050565b610e6f81610957565b82525050565b600060a082019050610e8a6000830188610ac5565b610e976020830187610ac5565b8181036040830152610ea98186610a58565b9050610eb86060830185610e66565b8181036080830152610eca8184610a58565b90509695505050505050565b6000608082019050610eeb6000830187610ac5565b610ef86020830186610ac5565b8181036040830152610f0a8185610a58565b90508181036060830152610f1e8184610a58565b90509594505050505056fea2646970667358221220526fcc560e1366841a272c47f5fd01cbbbd7199917119f9918f420af7868ca6e64736f6c634300081c0033",
  "linkReferences": {},
  "deployedLinkReferences": {}
}