{
  "_format": "hh-sol-artifact-1",
  "contractName": "MixinWOOFi",
  "sourceName": "contracts/src/transformers/bridges/mixins/MixinWOOFi.sol",
  "abi": [
    {
      "inputs": [
        {
          "internalType": "contract IERC20Token",
          "name": "sellToken",
          "type": "address"
        },
        {
          "internalType": "contract IERC20Token",
          "name": "buyToken",
          "type": "address"
        },
        {
          "internalType": "uint256",
          "name": "sellAmount",
          "type": "uint256"
        },
        {
          "internalType": "bytes",
          "name": "bridgeData",
          "type": "bytes"
        }
      ],
      "name": "_tradeWOOFi",
      "outputs": [
        {
          "internalType": "uint256",
          "name": "boughtAmount",
          "type": "uint256"
        }
      ],
      "stateMutability": "nonpayable",
      "type": "function"
    }
  ],
  "bytecode": "0x6080604052348015600e575f5ffd5b506105388061001c5f395ff3fe608060405234801561000f575f5ffd5b5060043610610029575f3560e01c8063e8275c821461002d575b5f5ffd5b61004061003b3660046103b3565b610052565b60405190815260200160405180910390f35b5f5f828060200190518101906100689190610494565b6040516370a0823160e01b81523060048201529091505f906001600160a01b038716906370a0823190602401602060405180830381865afa1580156100af573d5f5f3e3d5ffd5b505050506040513d601f19601f820116820180604052508101906100d391906104b6565b90506100e96001600160a01b0388168387610192565b604051633ee101c160e11b81526001600160a01b0388811660048301528781166024830152604482018790525f606483015230608483015273bfdcbb4c05843163f491c24f9c0019c51078630460a4830152831690637dc203829060c4016020604051808303815f875af1158015610163573d5f5f3e3d5ffd5b505050506040513d601f19601f8201168201806040525081019061018791906104b6565b979650505050505050565b604051636eb1769f60e11b81523060048201526001600160a01b03838116602483015282919085169063dd62ed3e90604401602060405180830381865afa1580156101df573d5f5f3e3d5ffd5b505050506040513d601f19601f8201168201806040525081019061020391906104b6565b10156102155761021583835f1961021a565b505050565b604080516001600160a01b038416602482015260448082018490528251808303909101815260649091019091526020810180516001600160e01b031663095ea7b360e01b17905261026b8482610271565b50505050565b5f5f836001600160a01b03168360405161028b91906104cd565b5f604051808303815f865af19150503d805f81146102c4576040519150601f19603f3d011682016040523d82523d5f602084013e6102c9565b606091505b5091509150816102dc576102dc81610380565b80515f03610351575f846001600160a01b03163b1161026b5760405162461bcd60e51b815260206004820152602760248201527f696e76616c696420746f6b656e20616464726573732c20636f6e7461696e73206044820152666e6f20636f646560c81b606482015260840160405180910390fd5b602081511061037b578080602001905181019061036e91906104e3565b61037b5761037b81610380565b61026b815b805160208201fd5b6001600160a01b038116811461039c575f5ffd5b50565b634e487b7160e01b5f52604160045260245ffd5b5f5f5f5f608085870312156103c6575f5ffd5b84356103d181610388565b935060208501356103e181610388565b925060408501359150606085013567ffffffffffffffff811115610403575f5ffd5b8501601f81018713610413575f5ffd5b803567ffffffffffffffff81111561042d5761042d61039f565b604051601f8201601f19908116603f0116810167ffffffffffffffff8111828210171561045c5761045c61039f565b604052818152828201602001891015610473575f5ffd5b816020840160208301375f6020838301015280935050505092959194509250565b5f602082840312156104a4575f5ffd5b81516104af81610388565b9392505050565b5f602082840312156104c6575f5ffd5b5051919050565b5f82518060208501845e5f920191825250919050565b5f602082840312156104f3575f5ffd5b815180151581146104af575f5ffdfea2646970667358221220b9006a88509fb1ac19d68b43fe580539d9f90aa38fd349a3fba2fc69e429e03764736f6c634300081c0033",
  "linkReferences": {},
  "deployedLinkReferences": {}
}