{
  "_format": "hh-sol-artifact-1",
  "contractName": "MixinWOOFi",
  "sourceName": "contracts/src/transformers/bridges/mixins/MixinWOOFi.sol",
  "abi": [
    {
      "inputs": [
        {
          "internalType": "contract IERC20Token",
          "name": "sellToken",
          "type": "address"
        },
        {
          "internalType": "contract IERC20Token",
          "name": "buyToken",
          "type": "address"
        },
        {
          "internalType": "uint256",
          "name": "sellAmount",
          "type": "uint256"
        },
        {
          "internalType": "bytes",
          "name": "bridgeData",
          "type": "bytes"
        }
      ],
      "name": "_tradeWOOFi",
      "outputs": [
        {
          "internalType": "uint256",
          "name": "boughtAmount",
          "type": "uint256"
        }
      ],
      "stateMutability": "nonpayable",
      "type": "function"
    }
  ],
  "bytecode": "0x6080604052348015600f57600080fd5b5061070b8061001f6000396000f3fe608060405234801561001057600080fd5b506004361061002b5760003560e01c8063e8275c8214610030575b600080fd5b61004a6004803603810190610045919061041d565b610060565b60405161005791906104af565b60405180910390f35b600080828060200190518101906100779190610508565b905060008573ffffffffffffffffffffffffffffffffffffffff166370a08231306040518263ffffffff1660e01b81526004016100b49190610544565b602060405180830381865afa1580156100d1573d6000803e3d6000fd5b505050506040513d601f19601f820116820180604052508101906100f59190610574565b90508673ffffffffffffffffffffffffffffffffffffffff1663095ea7b383876040518363ffffffff1660e01b81526004016101329291906105a1565b6020604051808303816000875af1158015610151573d6000803e3d6000fd5b505050506040513d601f19601f820116820180604052508101906101759190610602565b508173ffffffffffffffffffffffffffffffffffffffff16637dc2038288888860003073bfdcbb4c05843163f491c24f9c0019c5107863046040518763ffffffff1660e01b81526004016101ce96959493929190610674565b6020604051808303816000875af11580156101ed573d6000803e3d6000fd5b505050506040513d601f19601f820116820180604052508101906102119190610574565b92505050949350505050565b6000604051905090565b600080fd5b600080fd5b600073ffffffffffffffffffffffffffffffffffffffff82169050919050565b600061025c82610231565b9050919050565b600061026e82610251565b9050919050565b61027e81610263565b811461028957600080fd5b50565b60008135905061029b81610275565b92915050565b6000819050919050565b6102b4816102a1565b81146102bf57600080fd5b50565b6000813590506102d1816102ab565b92915050565b600080fd5b600080fd5b6000601f19601f8301169050919050565b7f4e487b7100000000000000000000000000000000000000000000000000000000600052604160045260246000fd5b61032a826102e1565b810181811067ffffffffffffffff82111715610349576103486102f2565b5b80604052505050565b600061035c61021d565b90506103688282610321565b919050565b600067ffffffffffffffff821115610388576103876102f2565b5b610391826102e1565b9050602081019050919050565b82818337600083830152505050565b60006103c06103bb8461036d565b610352565b9050828152602081018484840111156103dc576103db6102dc565b5b6103e784828561039e565b509392505050565b600082601f830112610404576104036102d7565b5b81356104148482602086016103ad565b91505092915050565b6000806000806080858703121561043757610436610227565b5b60006104458782880161028c565b94505060206104568782880161028c565b9350506040610467878288016102c2565b925050606085013567ffffffffffffffff8111156104885761048761022c565b5b610494878288016103ef565b91505092959194509250565b6104a9816102a1565b82525050565b60006020820190506104c460008301846104a0565b92915050565b60006104d582610251565b9050919050565b6104e5816104ca565b81146104f057600080fd5b50565b600081519050610502816104dc565b92915050565b60006020828403121561051e5761051d610227565b5b600061052c848285016104f3565b91505092915050565b61053e81610251565b82525050565b60006020820190506105596000830184610535565b92915050565b60008151905061056e816102ab565b92915050565b60006020828403121561058a57610589610227565b5b60006105988482850161055f565b91505092915050565b60006040820190506105b66000830185610535565b6105c360208301846104a0565b9392505050565b60008115159050919050565b6105df816105ca565b81146105ea57600080fd5b50565b6000815190506105fc816105d6565b92915050565b60006020828403121561061857610617610227565b5b6000610626848285016105ed565b91505092915050565b6000819050919050565b6000819050919050565b600061065e6106596106548461062f565b610639565b6102a1565b9050919050565b61066e81610643565b82525050565b600060c0820190506106896000830189610535565b6106966020830188610535565b6106a360408301876104a0565b6106b06060830186610665565b6106bd6080830185610535565b6106ca60a0830184610535565b97965050505050505056fea2646970667358221220b49e73a2cc175012411e528ab0257dcb3075b9218eaf8a8e8709e1e6c7a5988a64736f6c634300081c0033",
  "linkReferences": {},
  "deployedLinkReferences": {}
}