{
  "_format": "hh-sol-artifact-1",
  "contractName": "TestFillQuoteTransformerExchange",
  "sourceName": "contracts/test/TestFillQuoteTransformerExchange.sol",
  "abi": [
    {
      "inputs": [],
      "name": "EIP712_EXCHANGE_DOMAIN_HASH",
      "outputs": [
        {
          "internalType": "bytes32",
          "name": "",
          "type": "bytes32"
        }
      ],
      "stateMutability": "view",
      "type": "function"
    },
    {
      "inputs": [
        {
          "components": [
            {
              "internalType": "contract IERC20Token",
              "name": "makerToken",
              "type": "address"
            },
            {
              "internalType": "contract IERC20Token",
              "name": "takerToken",
              "type": "address"
            },
            {
              "internalType": "uint128",
              "name": "makerAmount",
              "type": "uint128"
            },
            {
              "internalType": "uint128",
              "name": "takerAmount",
              "type": "uint128"
            },
            {
              "internalType": "uint128",
              "name": "takerTokenFeeAmount",
              "type": "uint128"
            },
            {
              "internalType": "address",
              "name": "maker",
              "type": "address"
            },
            {
              "internalType": "address",
              "name": "taker",
              "type": "address"
            },
            {
              "internalType": "address",
              "name": "sender",
              "type": "address"
            },
            {
              "internalType": "address",
              "name": "feeRecipient",
              "type": "address"
            },
            {
              "internalType": "bytes32",
              "name": "pool",
              "type": "bytes32"
            },
            {
              "internalType": "uint64",
              "name": "expiry",
              "type": "uint64"
            },
            {
              "internalType": "uint256",
              "name": "salt",
              "type": "uint256"
            }
          ],
          "internalType": "struct LibNativeOrder.LimitOrder",
          "name": "order",
          "type": "tuple"
        },
        {
          "components": [
            {
              "internalType": "enum LibSignature.SignatureType",
              "name": "signatureType",
              "type": "uint8"
            },
            {
              "internalType": "uint8",
              "name": "v",
              "type": "uint8"
            },
            {
              "internalType": "bytes32",
              "name": "r",
              "type": "bytes32"
            },
            {
              "internalType": "bytes32",
              "name": "s",
              "type": "bytes32"
            }
          ],
          "internalType": "struct LibSignature.Signature",
          "name": "signature",
          "type": "tuple"
        },
        {
          "internalType": "uint128",
          "name": "takerTokenFillAmount",
          "type": "uint128"
        }
      ],
      "name": "fillLimitOrder",
      "outputs": [
        {
          "internalType": "uint128",
          "name": "takerTokenFilledAmount",
          "type": "uint128"
        },
        {
          "internalType": "uint128",
          "name": "makerTokenFilledAmount",
          "type": "uint128"
        }
      ],
      "stateMutability": "payable",
      "type": "function"
    },
    {
      "inputs": [
        {
          "components": [
            {
              "internalType": "contract IERC20Token",
              "name": "makerToken",
              "type": "address"
            },
            {
              "internalType": "contract IERC20Token",
              "name": "takerToken",
              "type": "address"
            },
            {
              "internalType": "uint128",
              "name": "makerAmount",
              "type": "uint128"
            },
            {
              "internalType": "uint128",
              "name": "takerAmount",
              "type": "uint128"
            },
            {
              "internalType": "address",
              "name": "maker",
              "type": "address"
            },
            {
              "internalType": "address",
              "name": "taker",
              "type": "address"
            },
            {
              "internalType": "address",
              "name": "txOrigin",
              "type": "address"
            },
            {
              "internalType": "bytes32",
              "name": "pool",
              "type": "bytes32"
            },
            {
              "internalType": "uint64",
              "name": "expiry",
              "type": "uint64"
            },
            {
              "internalType": "uint256",
              "name": "salt",
              "type": "uint256"
            }
          ],
          "internalType": "struct LibNativeOrder.RfqOrder",
          "name": "order",
          "type": "tuple"
        },
        {
          "components": [
            {
              "internalType": "enum LibSignature.SignatureType",
              "name": "signatureType",
              "type": "uint8"
            },
            {
              "internalType": "uint8",
              "name": "v",
              "type": "uint8"
            },
            {
              "internalType": "bytes32",
              "name": "r",
              "type": "bytes32"
            },
            {
              "internalType": "bytes32",
              "name": "s",
              "type": "bytes32"
            }
          ],
          "internalType": "struct LibSignature.Signature",
          "name": "signature",
          "type": "tuple"
        },
        {
          "internalType": "uint128",
          "name": "takerTokenFillAmount",
          "type": "uint128"
        }
      ],
      "name": "fillRfqOrder",
      "outputs": [
        {
          "internalType": "uint128",
          "name": "takerTokenFilledAmount",
          "type": "uint128"
        },
        {
          "internalType": "uint128",
          "name": "makerTokenFilledAmount",
          "type": "uint128"
        }
      ],
      "stateMutability": "payable",
      "type": "function"
    },
    {
      "inputs": [
        {
          "components": [
            {
              "internalType": "contract IERC20Token",
              "name": "makerToken",
              "type": "address"
            },
            {
              "internalType": "contract IERC20Token",
              "name": "takerToken",
              "type": "address"
            },
            {
              "internalType": "uint128",
              "name": "makerAmount",
              "type": "uint128"
            },
            {
              "internalType": "uint128",
              "name": "takerAmount",
              "type": "uint128"
            },
            {
              "internalType": "uint128",
              "name": "takerTokenFeeAmount",
              "type": "uint128"
            },
            {
              "internalType": "address",
              "name": "maker",
              "type": "address"
            },
            {
              "internalType": "address",
              "name": "taker",
              "type": "address"
            },
            {
              "internalType": "address",
              "name": "sender",
              "type": "address"
            },
            {
              "internalType": "address",
              "name": "feeRecipient",
              "type": "address"
            },
            {
              "internalType": "bytes32",
              "name": "pool",
              "type": "bytes32"
            },
            {
              "internalType": "uint64",
              "name": "expiry",
              "type": "uint64"
            },
            {
              "internalType": "uint256",
              "name": "salt",
              "type": "uint256"
            }
          ],
          "internalType": "struct LibNativeOrder.LimitOrder",
          "name": "order",
          "type": "tuple"
        }
      ],
      "name": "getLimitOrderHash",
      "outputs": [
        {
          "internalType": "bytes32",
          "name": "",
          "type": "bytes32"
        }
      ],
      "stateMutability": "pure",
      "type": "function"
    },
    {
      "inputs": [],
      "name": "getProtocolFeeMultiplier",
      "outputs": [
        {
          "internalType": "uint256",
          "name": "",
          "type": "uint256"
        }
      ],
      "stateMutability": "pure",
      "type": "function"
    }
  ],
  "bytecode": "0x6080604052348015600e575f5ffd5b50610d038061001c5f395ff3fe608060405260043610610058575f3560e01c8063c26cfecd11610041578063c26cfecd146100bb578063dd11d225146100ee578063f6274f6614610110575f5ffd5b8063487b5c201461005c578063aa77476c1461007f575b5f5ffd5b348015610067575f5ffd5b506105395b6040519081526020015b60405180910390f35b61009261008d366004610aa1565b610123565b604080516fffffffffffffffffffffffffffffffff938416815292909116602083015201610076565b3480156100c6575f5ffd5b5061006c7faa81d881b1adbbf115e15b849cb9cdc643cad3c6a90f30eb505954af943247e681565b3480156100f9575f5ffd5b5061006c610108366004610afe565b610160013590565b61009261011e366004610b19565b610477565b5f8060408401356fffffffffffffffffffffffffffffffff811663deadbeef036101ae576040517f08c379a000000000000000000000000000000000000000000000000000000000815260206004820152600d60248201527f5245564552545f414d4f554e540000000000000000000000000000000000000060448201526064015b60405180910390fd5b6101be6080870160608801610b55565b6fffffffffffffffffffffffffffffffff16816fffffffffffffffffffffffffffffffff161061024a576040517f08c379a000000000000000000000000000000000000000000000000000000000815260206004820152600660248201527f46494c4c4544000000000000000000000000000000000000000000000000000060448201526064016101a5565b61026e8161025e6080890160608a01610b55565b6102689190610b9b565b85610950565b92506102806040870160208801610be7565b73ffffffffffffffffffffffffffffffffffffffff166323b872dd336102ac60a08a0160808b01610be7565b6040517fffffffff0000000000000000000000000000000000000000000000000000000060e085901b16815273ffffffffffffffffffffffffffffffffffffffff9283166004820152911660248201526fffffffffffffffffffffffffffffffff861660448201526064016020604051808303815f875af1158015610333573d5f5f3e3d5ffd5b505050506040513d601f19601f820116820180604052508101906103579190610c09565b506103cb61036b6080880160608901610b55565b6fffffffffffffffffffffffffffffffff1661038d6060890160408a01610b55565b6fffffffffffffffffffffffffffffffff16856fffffffffffffffffffffffffffffffff166103bc9190610c28565b6103c69190610c3f565b61098d565b91506103da6020870187610be7565b6040517f40c10f190000000000000000000000000000000000000000000000000000000081523360048201526fffffffffffffffffffffffffffffffff8416602482015273ffffffffffffffffffffffffffffffffffffffff91909116906340c10f19906044015f604051808303815f87803b158015610458575f5ffd5b505af115801561046a573d5f5f3e3d5ffd5b5050505050935093915050565b5f8060408401356fffffffffffffffffffffffffffffffff811663deadbeef036104fd576040517f08c379a000000000000000000000000000000000000000000000000000000000815260206004820152600d60248201527f5245564552545f414d4f554e540000000000000000000000000000000000000060448201526064016101a5565b61050d6080870160608801610b55565b6fffffffffffffffffffffffffffffffff16816fffffffffffffffffffffffffffffffff1610610599576040517f08c379a000000000000000000000000000000000000000000000000000000000815260206004820152600660248201527f46494c4c4544000000000000000000000000000000000000000000000000000060448201526064016101a5565b5f6105a63a610539610c28565b9050336108fc6105b68334610c77565b6040518115909202915f818181858888f193505050501580156105db573d5f5f3e3d5ffd5b50610600826105f060808a0160608b01610b55565b6105fa9190610b9b565b86610950565b93506106126040880160208901610be7565b73ffffffffffffffffffffffffffffffffffffffff166323b872dd3361063e60c08b0160a08c01610be7565b6040517fffffffff0000000000000000000000000000000000000000000000000000000060e085901b16815273ffffffffffffffffffffffffffffffffffffffff9283166004820152911660248201526fffffffffffffffffffffffffffffffff871660448201526064016020604051808303815f875af11580156106c5573d5f5f3e3d5ffd5b505050506040513d601f19601f820116820180604052508101906106e99190610c09565b5061074e6106fd6080890160608a01610b55565b6fffffffffffffffffffffffffffffffff1661071f60608a0160408b01610b55565b6fffffffffffffffffffffffffffffffff16866fffffffffffffffffffffffffffffffff166103bc9190610c28565b925061075d6020880188610be7565b6040517f40c10f190000000000000000000000000000000000000000000000000000000081523360048201526fffffffffffffffffffffffffffffffff8516602482015273ffffffffffffffffffffffffffffffffffffffff91909116906340c10f19906044015f604051808303815f87803b1580156107db575f5ffd5b505af11580156107ed573d5f5f3e3d5ffd5b505050505f6108598860600160208101906108089190610b55565b6fffffffffffffffffffffffffffffffff1661082a60a08b0160808c01610b55565b6fffffffffffffffffffffffffffffffff16876fffffffffffffffffffffffffffffffff166103bc9190610c28565b905061086b6040890160208a01610be7565b73ffffffffffffffffffffffffffffffffffffffff166323b872dd336108996101208c016101008d01610be7565b6040517fffffffff0000000000000000000000000000000000000000000000000000000060e085901b16815273ffffffffffffffffffffffffffffffffffffffff9283166004820152911660248201526fffffffffffffffffffffffffffffffff841660448201526064016020604051808303815f875af1158015610920573d5f5f3e3d5ffd5b505050506040513d601f19601f820116820180604052508101906109449190610c09565b50505050935093915050565b5f816fffffffffffffffffffffffffffffffff16836fffffffffffffffffffffffffffffffff16106109825781610984565b825b90505b92915050565b5f6fffffffffffffffffffffffffffffffff8211156109b9576109b96109b46003846109bd565b610a5f565b5090565b606063c996af7b60e01b83836040516024016109da929190610c8a565b604080517fffffffffffffffffffffffffffffffffffffffffffffffffffffffffffffffe08184030181529190526020810180517bffffffffffffffffffffffffffffffffffffffffffffffffffffffff167fffffffff0000000000000000000000000000000000000000000000000000000090931692909217909152905092915050565b805160208201fd5b5f60808284031215610a77575f5ffd5b50919050565b80356fffffffffffffffffffffffffffffffff81168114610a9c575f5ffd5b919050565b5f5f5f8385036101e0811215610ab5575f5ffd5b610140811215610ac3575f5ffd5b50839250610ad5856101408601610a67565b9150610ae46101c08501610a7d565b90509250925092565b5f6101808284031215610a77575f5ffd5b5f6101808284031215610b0f575f5ffd5b6109848383610aed565b5f5f5f6102208486031215610b2c575f5ffd5b610b368585610aed565b9250610b46856101808601610a67565b9150610ae46102008501610a7d565b5f60208284031215610b65575f5ffd5b61098482610a7d565b7f4e487b71000000000000000000000000000000000000000000000000000000005f52601160045260245ffd5b6fffffffffffffffffffffffffffffffff828116828216039081111561098757610987610b6e565b73ffffffffffffffffffffffffffffffffffffffff81168114610be4575f5ffd5b50565b5f60208284031215610bf7575f5ffd5b8135610c0281610bc3565b9392505050565b5f60208284031215610c19575f5ffd5b81518015158114610c02575f5ffd5b808202811582820484141761098757610987610b6e565b5f82610c72577f4e487b71000000000000000000000000000000000000000000000000000000005f52601260045260245ffd5b500490565b8181038181111561098757610987610b6e565b6040810160048410610cc3577f4e487b71000000000000000000000000000000000000000000000000000000005f52602160045260245ffd5b928152602001529056fea26469706673582212205da36d88028ccc170969e66c6b0b9d2910cd2d3417997e8558a8f279a4a53fcd64736f6c634300081c0033",
  "linkReferences": {},
  "deployedLinkReferences": {}
}