{
  "_format": "hh-sol-artifact-1",
  "contractName": "TestFillQuoteTransformerExchange",
  "sourceName": "contracts/test/TestFillQuoteTransformerExchange.sol",
  "abi": [
    {
      "inputs": [],
      "name": "EIP712_EXCHANGE_DOMAIN_HASH",
      "outputs": [
        {
          "internalType": "bytes32",
          "name": "",
          "type": "bytes32"
        }
      ],
      "stateMutability": "view",
      "type": "function"
    },
    {
      "inputs": [
        {
          "components": [
            {
              "internalType": "contract IERC20Token",
              "name": "makerToken",
              "type": "address"
            },
            {
              "internalType": "contract IERC20Token",
              "name": "takerToken",
              "type": "address"
            },
            {
              "internalType": "uint128",
              "name": "makerAmount",
              "type": "uint128"
            },
            {
              "internalType": "uint128",
              "name": "takerAmount",
              "type": "uint128"
            },
            {
              "internalType": "uint128",
              "name": "takerTokenFeeAmount",
              "type": "uint128"
            },
            {
              "internalType": "address",
              "name": "maker",
              "type": "address"
            },
            {
              "internalType": "address",
              "name": "taker",
              "type": "address"
            },
            {
              "internalType": "address",
              "name": "sender",
              "type": "address"
            },
            {
              "internalType": "address",
              "name": "feeRecipient",
              "type": "address"
            },
            {
              "internalType": "bytes32",
              "name": "pool",
              "type": "bytes32"
            },
            {
              "internalType": "uint64",
              "name": "expiry",
              "type": "uint64"
            },
            {
              "internalType": "uint256",
              "name": "salt",
              "type": "uint256"
            }
          ],
          "internalType": "struct LibNativeOrder.LimitOrder",
          "name": "order",
          "type": "tuple"
        },
        {
          "components": [
            {
              "internalType": "enum LibSignature.SignatureType",
              "name": "signatureType",
              "type": "uint8"
            },
            {
              "internalType": "uint8",
              "name": "v",
              "type": "uint8"
            },
            {
              "internalType": "bytes32",
              "name": "r",
              "type": "bytes32"
            },
            {
              "internalType": "bytes32",
              "name": "s",
              "type": "bytes32"
            }
          ],
          "internalType": "struct LibSignature.Signature",
          "name": "signature",
          "type": "tuple"
        },
        {
          "internalType": "uint128",
          "name": "takerTokenFillAmount",
          "type": "uint128"
        }
      ],
      "name": "fillLimitOrder",
      "outputs": [
        {
          "internalType": "uint128",
          "name": "takerTokenFilledAmount",
          "type": "uint128"
        },
        {
          "internalType": "uint128",
          "name": "makerTokenFilledAmount",
          "type": "uint128"
        }
      ],
      "stateMutability": "payable",
      "type": "function"
    },
    {
      "inputs": [
        {
          "components": [
            {
              "internalType": "contract IERC20Token",
              "name": "makerToken",
              "type": "address"
            },
            {
              "internalType": "contract IERC20Token",
              "name": "takerToken",
              "type": "address"
            },
            {
              "internalType": "uint128",
              "name": "makerAmount",
              "type": "uint128"
            },
            {
              "internalType": "uint128",
              "name": "takerAmount",
              "type": "uint128"
            },
            {
              "internalType": "address",
              "name": "maker",
              "type": "address"
            },
            {
              "internalType": "address",
              "name": "taker",
              "type": "address"
            },
            {
              "internalType": "address",
              "name": "txOrigin",
              "type": "address"
            },
            {
              "internalType": "bytes32",
              "name": "pool",
              "type": "bytes32"
            },
            {
              "internalType": "uint64",
              "name": "expiry",
              "type": "uint64"
            },
            {
              "internalType": "uint256",
              "name": "salt",
              "type": "uint256"
            }
          ],
          "internalType": "struct LibNativeOrder.RfqOrder",
          "name": "order",
          "type": "tuple"
        },
        {
          "components": [
            {
              "internalType": "enum LibSignature.SignatureType",
              "name": "signatureType",
              "type": "uint8"
            },
            {
              "internalType": "uint8",
              "name": "v",
              "type": "uint8"
            },
            {
              "internalType": "bytes32",
              "name": "r",
              "type": "bytes32"
            },
            {
              "internalType": "bytes32",
              "name": "s",
              "type": "bytes32"
            }
          ],
          "internalType": "struct LibSignature.Signature",
          "name": "signature",
          "type": "tuple"
        },
        {
          "internalType": "uint128",
          "name": "takerTokenFillAmount",
          "type": "uint128"
        }
      ],
      "name": "fillRfqOrder",
      "outputs": [
        {
          "internalType": "uint128",
          "name": "takerTokenFilledAmount",
          "type": "uint128"
        },
        {
          "internalType": "uint128",
          "name": "makerTokenFilledAmount",
          "type": "uint128"
        }
      ],
      "stateMutability": "payable",
      "type": "function"
    },
    {
      "inputs": [
        {
          "components": [
            {
              "internalType": "contract IERC20Token",
              "name": "makerToken",
              "type": "address"
            },
            {
              "internalType": "contract IERC20Token",
              "name": "takerToken",
              "type": "address"
            },
            {
              "internalType": "uint128",
              "name": "makerAmount",
              "type": "uint128"
            },
            {
              "internalType": "uint128",
              "name": "takerAmount",
              "type": "uint128"
            },
            {
              "internalType": "uint128",
              "name": "takerTokenFeeAmount",
              "type": "uint128"
            },
            {
              "internalType": "address",
              "name": "maker",
              "type": "address"
            },
            {
              "internalType": "address",
              "name": "taker",
              "type": "address"
            },
            {
              "internalType": "address",
              "name": "sender",
              "type": "address"
            },
            {
              "internalType": "address",
              "name": "feeRecipient",
              "type": "address"
            },
            {
              "internalType": "bytes32",
              "name": "pool",
              "type": "bytes32"
            },
            {
              "internalType": "uint64",
              "name": "expiry",
              "type": "uint64"
            },
            {
              "internalType": "uint256",
              "name": "salt",
              "type": "uint256"
            }
          ],
          "internalType": "struct LibNativeOrder.LimitOrder",
          "name": "order",
          "type": "tuple"
        }
      ],
      "name": "getLimitOrderHash",
      "outputs": [
        {
          "internalType": "bytes32",
          "name": "",
          "type": "bytes32"
        }
      ],
      "stateMutability": "pure",
      "type": "function"
    },
    {
      "inputs": [],
      "name": "getProtocolFeeMultiplier",
      "outputs": [
        {
          "internalType": "uint256",
          "name": "",
          "type": "uint256"
        }
      ],
      "stateMutability": "pure",
      "type": "function"
    }
  ],
  "bytecode": "0x6080604052348015600f57600080fd5b506110d48061001f6000396000f3fe60806040526004361061004a5760003560e01c8063487b5c201461004f578063aa77476c1461007a578063c26cfecd146100ab578063dd11d225146100d6578063f6274f6614610113575b600080fd5b34801561005b57600080fd5b50610064610144565b6040516100719190610988565b60405180910390f35b610094600480360381019061008f9190610a34565b61014e565b6040516100a2929190610a99565b60405180910390f35b3480156100b757600080fd5b506100c06103fe565b6040516100cd9190610adb565b60405180910390f35b3480156100e257600080fd5b506100fd60048036038101906100f89190610b16565b610425565b60405161010a9190610adb565b60405180910390f35b61012d60048036038101906101289190610b44565b610437565b60405161013b929190610a99565b60405180910390f35b6000610539905090565b6000806000846040013560001c9050806fffffffffffffffffffffffffffffffff1663deadbeef036101b5576040517f08c379a00000000000000000000000000000000000000000000000000000000081526004016101ac90610bf7565b60405180910390fd5b8560600160208101906101c89190610c17565b6fffffffffffffffffffffffffffffffff16816fffffffffffffffffffffffffffffffff161061022d576040517f08c379a000000000000000000000000000000000000000000000000000000000815260040161022490610c90565b60405180910390fd5b610254818760600160208101906102449190610c17565b61024e9190610cdf565b85610870565b92508560200160208101906102699190610d93565b73ffffffffffffffffffffffffffffffffffffffff166323b872dd338860800160208101906102989190610dec565b866040518463ffffffff1660e01b81526004016102b793929190610e63565b6020604051808303816000875af11580156102d6573d6000803e3d6000fd5b505050506040513d601f19601f820116820180604052508101906102fa9190610ed2565b506103748660600160208101906103119190610c17565b6fffffffffffffffffffffffffffffffff168760400160208101906103369190610c17565b6fffffffffffffffffffffffffffffffff16856fffffffffffffffffffffffffffffffff166103659190610eff565b61036f9190610f70565b6108ad565b91508560000160208101906103899190610d93565b73ffffffffffffffffffffffffffffffffffffffff166340c10f1933846040518363ffffffff1660e01b81526004016103c3929190610fa1565b600060405180830381600087803b1580156103dd57600080fd5b505af11580156103f1573d6000803e3d6000fd5b5050505050935093915050565b7faa81d881b1adbbf115e15b849cb9cdc643cad3c6a90f30eb505954af943247e660001b81565b600081610160013560001b9050919050565b6000806000846040013560001c9050806fffffffffffffffffffffffffffffffff1663deadbeef0361049e576040517f08c379a000000000000000000000000000000000000000000000000000000000815260040161049590610bf7565b60405180910390fd5b8560600160208101906104b19190610c17565b6fffffffffffffffffffffffffffffffff16816fffffffffffffffffffffffffffffffff1610610516576040517f08c379a000000000000000000000000000000000000000000000000000000000815260040161050d90610c90565b60405180910390fd5b60003a6105396105269190610eff565b90503373ffffffffffffffffffffffffffffffffffffffff166108fc823461054e9190610fca565b9081150290604051600060405180830381858888f19350505050158015610579573d6000803e3d6000fd5b506105a1828860600160208101906105919190610c17565b61059b9190610cdf565b86610870565b93508660200160208101906105b69190610d93565b73ffffffffffffffffffffffffffffffffffffffff166323b872dd338960a00160208101906105e59190610dec565b876040518463ffffffff1660e01b815260040161060493929190610e63565b6020604051808303816000875af1158015610623573d6000803e3d6000fd5b505050506040513d601f19601f820116820180604052508101906106479190610ed2565b506106c187606001602081019061065e9190610c17565b6fffffffffffffffffffffffffffffffff168860400160208101906106839190610c17565b6fffffffffffffffffffffffffffffffff16866fffffffffffffffffffffffffffffffff166106b29190610eff565b6106bc9190610f70565b6108ad565b92508660000160208101906106d69190610d93565b73ffffffffffffffffffffffffffffffffffffffff166340c10f1933856040518363ffffffff1660e01b8152600401610710929190610fa1565b600060405180830381600087803b15801561072a57600080fd5b505af115801561073e573d6000803e3d6000fd5b5050505060006107bd88606001602081019061075a9190610c17565b6fffffffffffffffffffffffffffffffff1689608001602081019061077f9190610c17565b6fffffffffffffffffffffffffffffffff16876fffffffffffffffffffffffffffffffff166107ae9190610eff565b6107b89190610f70565b6108ad565b90508760200160208101906107d29190610d93565b73ffffffffffffffffffffffffffffffffffffffff166323b872dd338a6101000160208101906108029190610dec565b846040518463ffffffff1660e01b815260040161082193929190610e63565b6020604051808303816000875af1158015610840573d6000803e3d6000fd5b505050506040513d601f19601f820116820180604052508101906108649190610ed2565b50505050935093915050565b6000816fffffffffffffffffffffffffffffffff16836fffffffffffffffffffffffffffffffff16106108a357816108a5565b825b905092915050565b60006fffffffffffffffffffffffffffffffff80168211156108dd576108dc6108d76003846108e5565b610967565b5b819050919050565b606063c996af7b60e01b8383604051602401610902929190611075565b604051602081830303815290604052907bffffffffffffffffffffffffffffffffffffffffffffffffffffffff19166020820180517bffffffffffffffffffffffffffffffffffffffffffffffffffffffff8381831617835250505050905092915050565b805160208201fd5b6000819050919050565b6109828161096f565b82525050565b600060208201905061099d6000830184610979565b92915050565b600080fd5b600080fd5b600061014082840312156109c4576109c36109a8565b5b81905092915050565b6000608082840312156109e3576109e26109a8565b5b81905092915050565b60006fffffffffffffffffffffffffffffffff82169050919050565b610a11816109ec565b8114610a1c57600080fd5b50565b600081359050610a2e81610a08565b92915050565b60008060006101e08486031215610a4e57610a4d6109a3565b5b6000610a5c868287016109ad565b935050610140610a6e868287016109cd565b9250506101c0610a8086828701610a1f565b9150509250925092565b610a93816109ec565b82525050565b6000604082019050610aae6000830185610a8a565b610abb6020830184610a8a565b9392505050565b6000819050919050565b610ad581610ac2565b82525050565b6000602082019050610af06000830184610acc565b92915050565b60006101808284031215610b0d57610b0c6109a8565b5b81905092915050565b60006101808284031215610b2d57610b2c6109a3565b5b6000610b3b84828501610af6565b91505092915050565b60008060006102208486031215610b5e57610b5d6109a3565b5b6000610b6c86828701610af6565b935050610180610b7e868287016109cd565b925050610200610b9086828701610a1f565b9150509250925092565b600082825260208201905092915050565b7f5245564552545f414d4f554e5400000000000000000000000000000000000000600082015250565b6000610be1600d83610b9a565b9150610bec82610bab565b602082019050919050565b60006020820190508181036000830152610c1081610bd4565b9050919050565b600060208284031215610c2d57610c2c6109a3565b5b6000610c3b84828501610a1f565b91505092915050565b7f46494c4c45440000000000000000000000000000000000000000000000000000600082015250565b6000610c7a600683610b9a565b9150610c8582610c44565b602082019050919050565b60006020820190508181036000830152610ca981610c6d565b9050919050565b7f4e487b7100000000000000000000000000000000000000000000000000000000600052601160045260246000fd5b6000610cea826109ec565b9150610cf5836109ec565b925082820390506fffffffffffffffffffffffffffffffff811115610d1d57610d1c610cb0565b5b92915050565b600073ffffffffffffffffffffffffffffffffffffffff82169050919050565b6000610d4e82610d23565b9050919050565b6000610d6082610d43565b9050919050565b610d7081610d55565b8114610d7b57600080fd5b50565b600081359050610d8d81610d67565b92915050565b600060208284031215610da957610da86109a3565b5b6000610db784828501610d7e565b91505092915050565b610dc981610d43565b8114610dd457600080fd5b50565b600081359050610de681610dc0565b92915050565b600060208284031215610e0257610e016109a3565b5b6000610e1084828501610dd7565b91505092915050565b610e2281610d43565b82525050565b6000819050919050565b6000610e4d610e48610e43846109ec565b610e28565b61096f565b9050919050565b610e5d81610e32565b82525050565b6000606082019050610e786000830186610e19565b610e856020830185610e19565b610e926040830184610e54565b949350505050565b60008115159050919050565b610eaf81610e9a565b8114610eba57600080fd5b50565b600081519050610ecc81610ea6565b92915050565b600060208284031215610ee857610ee76109a3565b5b6000610ef684828501610ebd565b91505092915050565b6000610f0a8261096f565b9150610f158361096f565b9250828202610f238161096f565b91508282048414831517610f3a57610f39610cb0565b5b5092915050565b7f4e487b7100000000000000000000000000000000000000000000000000000000600052601260045260246000fd5b6000610f7b8261096f565b9150610f868361096f565b925082610f9657610f95610f41565b5b828204905092915050565b6000604082019050610fb66000830185610e19565b610fc36020830184610e54565b9392505050565b6000610fd58261096f565b9150610fe08361096f565b9250828203905081811115610ff857610ff7610cb0565b5b92915050565b7f4e487b7100000000000000000000000000000000000000000000000000000000600052602160045260246000fd5b6004811061103e5761103d610ffe565b5b50565b600081905061104f8261102d565b919050565b600061105f82611041565b9050919050565b61106f81611054565b82525050565b600060408201905061108a6000830185611066565b6110976020830184610979565b939250505056fea26469706673582212200d49553076a51839a2848e26abd80aa816b184bc90c10c6f6f4e891c0e63131c64736f6c634300081c0033",
  "linkReferences": {},
  "deployedLinkReferences": {}
}