{
  "_format": "hh-sol-artifact-1",
  "contractName": "BatchFillNativeOrdersFeature",
  "sourceName": "contracts/src/features/BatchFillNativeOrdersFeature.sol",
  "abi": [
    {
      "inputs": [
        {
          "internalType": "address",
          "name": "zeroExAddress",
          "type": "address"
        }
      ],
      "stateMutability": "nonpayable",
      "type": "constructor"
    },
    {
      "inputs": [],
      "name": "EIP712_DOMAIN_SEPARATOR",
      "outputs": [
        {
          "internalType": "bytes32",
          "name": "",
          "type": "bytes32"
        }
      ],
      "stateMutability": "view",
      "type": "function"
    },
    {
      "inputs": [],
      "name": "FEATURE_NAME",
      "outputs": [
        {
          "internalType": "string",
          "name": "",
          "type": "string"
        }
      ],
      "stateMutability": "view",
      "type": "function"
    },
    {
      "inputs": [],
      "name": "FEATURE_VERSION",
      "outputs": [
        {
          "internalType": "uint256",
          "name": "",
          "type": "uint256"
        }
      ],
      "stateMutability": "view",
      "type": "function"
    },
    {
      "inputs": [
        {
          "components": [
            {
              "internalType": "contract IERC20Token",
              "name": "makerToken",
              "type": "address"
            },
            {
              "internalType": "contract IERC20Token",
              "name": "takerToken",
              "type": "address"
            },
            {
              "internalType": "uint128",
              "name": "makerAmount",
              "type": "uint128"
            },
            {
              "internalType": "uint128",
              "name": "takerAmount",
              "type": "uint128"
            },
            {
              "internalType": "uint128",
              "name": "takerTokenFeeAmount",
              "type": "uint128"
            },
            {
              "internalType": "address",
              "name": "maker",
              "type": "address"
            },
            {
              "internalType": "address",
              "name": "taker",
              "type": "address"
            },
            {
              "internalType": "address",
              "name": "sender",
              "type": "address"
            },
            {
              "internalType": "address",
              "name": "feeRecipient",
              "type": "address"
            },
            {
              "internalType": "bytes32",
              "name": "pool",
              "type": "bytes32"
            },
            {
              "internalType": "uint64",
              "name": "expiry",
              "type": "uint64"
            },
            {
              "internalType": "uint256",
              "name": "salt",
              "type": "uint256"
            }
          ],
          "internalType": "struct LibNativeOrder.LimitOrder[]",
          "name": "orders",
          "type": "tuple[]"
        },
        {
          "components": [
            {
              "internalType": "enum LibSignature.SignatureType",
              "name": "signatureType",
              "type": "uint8"
            },
            {
              "internalType": "uint8",
              "name": "v",
              "type": "uint8"
            },
            {
              "internalType": "bytes32",
              "name": "r",
              "type": "bytes32"
            },
            {
              "internalType": "bytes32",
              "name": "s",
              "type": "bytes32"
            }
          ],
          "internalType": "struct LibSignature.Signature[]",
          "name": "signatures",
          "type": "tuple[]"
        },
        {
          "internalType": "uint128[]",
          "name": "takerTokenFillAmounts",
          "type": "uint128[]"
        },
        {
          "internalType": "bool",
          "name": "revertIfIncomplete",
          "type": "bool"
        }
      ],
      "name": "batchFillLimitOrders",
      "outputs": [
        {
          "internalType": "uint128[]",
          "name": "takerTokenFilledAmounts",
          "type": "uint128[]"
        },
        {
          "internalType": "uint128[]",
          "name": "makerTokenFilledAmounts",
          "type": "uint128[]"
        }
      ],
      "stateMutability": "payable",
      "type": "function"
    },
    {
      "inputs": [
        {
          "components": [
            {
              "internalType": "contract IERC20Token",
              "name": "makerToken",
              "type": "address"
            },
            {
              "internalType": "contract IERC20Token",
              "name": "takerToken",
              "type": "address"
            },
            {
              "internalType": "uint128",
              "name": "makerAmount",
              "type": "uint128"
            },
            {
              "internalType": "uint128",
              "name": "takerAmount",
              "type": "uint128"
            },
            {
              "internalType": "address",
              "name": "maker",
              "type": "address"
            },
            {
              "internalType": "address",
              "name": "taker",
              "type": "address"
            },
            {
              "internalType": "address",
              "name": "txOrigin",
              "type": "address"
            },
            {
              "internalType": "bytes32",
              "name": "pool",
              "type": "bytes32"
            },
            {
              "internalType": "uint64",
              "name": "expiry",
              "type": "uint64"
            },
            {
              "internalType": "uint256",
              "name": "salt",
              "type": "uint256"
            }
          ],
          "internalType": "struct LibNativeOrder.RfqOrder[]",
          "name": "orders",
          "type": "tuple[]"
        },
        {
          "components": [
            {
              "internalType": "enum LibSignature.SignatureType",
              "name": "signatureType",
              "type": "uint8"
            },
            {
              "internalType": "uint8",
              "name": "v",
              "type": "uint8"
            },
            {
              "internalType": "bytes32",
              "name": "r",
              "type": "bytes32"
            },
            {
              "internalType": "bytes32",
              "name": "s",
              "type": "bytes32"
            }
          ],
          "internalType": "struct LibSignature.Signature[]",
          "name": "signatures",
          "type": "tuple[]"
        },
        {
          "internalType": "uint128[]",
          "name": "takerTokenFillAmounts",
          "type": "uint128[]"
        },
        {
          "internalType": "bool",
          "name": "revertIfIncomplete",
          "type": "bool"
        }
      ],
      "name": "batchFillRfqOrders",
      "outputs": [
        {
          "internalType": "uint128[]",
          "name": "takerTokenFilledAmounts",
          "type": "uint128[]"
        },
        {
          "internalType": "uint128[]",
          "name": "makerTokenFilledAmounts",
          "type": "uint128[]"
        }
      ],
      "stateMutability": "nonpayable",
      "type": "function"
    },
    {
      "inputs": [],
      "name": "migrate",
      "outputs": [
        {
          "internalType": "bytes4",
          "name": "success",
          "type": "bytes4"
        }
      ],
      "stateMutability": "nonpayable",
      "type": "function"
    }
  ],
  "bytecode": "0x60e06040526801000000010000000060c05234801561001c575f5ffd5b50604051611b8d380380611b8d83398101604081905261003b916100f9565b306080908152604080517f8b73c3c69bb8fe3d512ecc4cf759cc79239f7b179b0ffacaa9a75d522b39400f60208201527f9e5dae0addaf20578aeb5d70341d092b53b4e14480ac5726438fd436df7ba427918101919091527f06c015bd22b4c69690933c1058878ebdfef31f9aaae40bbe86d8a09fe1b2972c6060820152469181018290526001600160a01b03831660a082015282919060c00160408051601f19818403018152919052805160209091012060a05250610126915050565b5f60208284031215610109575f5ffd5b81516001600160a01b038116811461011f575f5ffd5b9392505050565b60805160a05160c051611a376101565f395f607801525f8181610198015261071701525f610eac0152611a375ff3fe608060405260043610610063575f3560e01c806375103cb91161004157806375103cb9146101235780638fd3ab8014610142578063dab400f314610187575f5ffd5b8063031b905c146100675780631baaa00b146100ad5780636ae4b4f7146100ce575b5f5ffd5b348015610072575f5ffd5b5061009a7f000000000000000000000000000000000000000000000000000000000000000081565b6040519081526020015b60405180910390f35b6100c06100bb366004611032565b6101ba565b6040516100a492919061115d565b3480156100d9575f5ffd5b506101166040518060400160405280600981526020017f426174636846696c6c000000000000000000000000000000000000000000000081525081565b6040516100a4919061118a565b34801561012e575f5ffd5b506100c061013d3660046111dd565b61087c565b34801561014d575f5ffd5b50610156610d45565b6040517fffffffff0000000000000000000000000000000000000000000000000000000090911681526020016100a4565b348015610192575f5ffd5b5061009a7f000000000000000000000000000000000000000000000000000000000000000081565b60608087861480156101cb57508784145b610282576040517f08c379a000000000000000000000000000000000000000000000000000000000815260206004820152604b60248201527f426174636846696c6c4e61746976654f7264657273466561747572653a3a626160448201527f74636846696c6c4c696d69744f72646572732f4d49534d4154434845445f415260648201527f5241595f4c454e47544853000000000000000000000000000000000000000000608482015260a4015b60405180910390fd5b8767ffffffffffffffff81111561029b5761029b611244565b6040519080825280602002602001820160405280156102c4578160200160208202803683370190505b5091508767ffffffffffffffff8111156102e0576102e0611244565b604051908082528060200260200182016040528015610309578160200160208202803683370190505b5090505f3a3073ffffffffffffffffffffffffffffffffffffffff1663487b5c206040518163ffffffff1660e01b8152600401602060405180830381865afa158015610357573d5f5f3e3d5ffd5b505050506040513d601f19601f8201168201806040525081019061037b9190611271565b63ffffffff1661038b91906112c8565b90505f805b808b14610864573063414e4ccf8d8d848181106103af576103af6112df565b905061018002018c8c858181106103c8576103c86112df565b9050608002018b8b868181106103e0576103e06112df565b90506020020160208101906103f59190611334565b33336040518663ffffffff1660e01b81526004016104179594939291906113cc565b60408051808303815f875af192505050801561046e575060408051601f3d9081017fffffffffffffffffffffffffffffffffffffffffffffffffffffffffffffffe016820190925261046b918101906115af565b60015b156104d2578181888581518110610487576104876112df565b602002602001018886815181106104a0576104a06112df565b6fffffffffffffffffffffffffffffffff9384166020918202929092010152911690526104cd85856115e7565b935050505b85801561054157508787828181106104ec576104ec6112df565b90506020020160208101906105019190611334565b6fffffffffffffffffffffffffffffffff16858281518110610525576105256112df565b60200260200101516fffffffffffffffffffffffffffffffff16105b15610852575f6107646106ec8e8e8581811061055f5761055f6112df565b905061018002018036038101906105769190611692565b5f6040517fce918627cb55462ddbb85e73de69a8b322f2bc88f4507c52fcad6d4c33c29d498152825173ffffffffffffffffffffffffffffffffffffffff166020820152602083015173ffffffffffffffffffffffffffffffffffffffff16604082015260408301516fffffffffffffffffffffffffffffffff16606082015260608301516fffffffffffffffffffffffffffffffff16608082015260808301516fffffffffffffffffffffffffffffffff1660a082015260a083015173ffffffffffffffffffffffffffffffffffffffff1660c082015260c083015173ffffffffffffffffffffffffffffffffffffffff1660e082015260e083015173ffffffffffffffffffffffffffffffffffffffff1661010082015261010083015173ffffffffffffffffffffffffffffffffffffffff1661012082015261012083015161014082015261014083015167ffffffffffffffff166101608201526101608301516101808201526101a08120915050919050565b6040517f190100000000000000000000000000000000000000000000000000000000000060208201527f00000000000000000000000000000000000000000000000000000000000000006022820152604281018290525f90606201604051602081830303815290604052805190602001209050919050565b905061085061084b8288858151811061077f5761077f6112df565b60200260200101516fffffffffffffffffffffffffffffffff168c8c878181106107ab576107ab6112df565b90506020020160208101906107c09190611334565b60408051602481019490945260448401929092526fffffffffffffffffffffffffffffffff1660648084019190915281518084039091018152608490920190526020810180517bffffffffffffffffffffffffffffffffffffffffffffffffffffffff167f1d44aa5d0000000000000000000000000000000000000000000000000000000017905290565b610dbd565b505b8061085c81611774565b915050610390565b5061086e81610dc5565b505097509795505050505050565b606080878614801561088d57508784145b61093f576040517f08c379a000000000000000000000000000000000000000000000000000000000815260206004820152604960248201527f426174636846696c6c4e61746976654f7264657273466561747572653a3a626160448201527f74636846696c6c5266714f72646572732f4d49534d4154434845445f4152524160648201527f595f4c454e475448530000000000000000000000000000000000000000000000608482015260a401610279565b8767ffffffffffffffff81111561095857610958611244565b604051908082528060200260200182016040528015610981578160200160208202803683370190505b5091508767ffffffffffffffff81111561099d5761099d611244565b6040519080825280602002602001820160405280156109c6578160200160208202803683370190505b5090505f5b808914610d38573063aa6b21cd8b8b848181106109ea576109ea6112df565b905061014002018a8a85818110610a0357610a036112df565b905060800201898986818110610a1b57610a1b6112df565b9050602002016020810190610a309190611334565b335f336040518763ffffffff1660e01b8152600401610a54969594939291906117ab565b60408051808303815f875af1925050508015610aab575060408051601f3d9081017fffffffffffffffffffffffffffffffffffffffffffffffffffffffffffffffe0168201909252610aa8918101906115af565b60015b15610b03578181868581518110610ac457610ac46112df565b60200260200101868681518110610add57610add6112df565b6fffffffffffffffffffffffffffffffff93841660209182029290920101529116905250505b838015610b725750858582818110610b1d57610b1d6112df565b9050602002016020810190610b329190611334565b6fffffffffffffffffffffffffffffffff16838281518110610b5657610b566112df565b60200260200101516fffffffffffffffffffffffffffffffff16105b15610d26575f610cdd6106ec8c8c85818110610b9057610b906112df565b90506101400201803603810190610ba79190611931565b5f6040517fe593d3fdfa8b60e5e17a1b2204662ecbe15c23f2084b9ad5bae40359540a7da98152825173ffffffffffffffffffffffffffffffffffffffff166020820152602083015173ffffffffffffffffffffffffffffffffffffffff16604082015260408301516fffffffffffffffffffffffffffffffff16606082015260608301516fffffffffffffffffffffffffffffffff166080820152608083015173ffffffffffffffffffffffffffffffffffffffff1660a082015260a083015173ffffffffffffffffffffffffffffffffffffffff1660c082015260c083015173ffffffffffffffffffffffffffffffffffffffff1660e082015260e083015161010082015261010083015167ffffffffffffffff166101208201526101208301516101408201526101608120915050919050565b9050610d2461084b82868581518110610cf857610cf86112df565b60200260200101516fffffffffffffffffffffffffffffffff168a8a878181106107ab576107ab6112df565b505b80610d3081611774565b9150506109cb565b5097509795505050505050565b5f610d6f7f1baaa00b00000000000000000000000000000000000000000000000000000000610e47565b610d987f75103cb900000000000000000000000000000000000000000000000000000000610e47565b507f2c64c5ef0000000000000000000000000000000000000000000000000000000090565b805160208201fd5b8034118015610dd45750333014155b15610e44575f610de482346119ee565b6040519091505f90339083908381818185875af1925050503d805f8114610e26576040519150601f19603f3d011682016040523d82523d5f602084013e610e2b565b606091505b5050905080610e4157610e4161084b3384610f0c565b50505b50565b6040517f6eb224cb0000000000000000000000000000000000000000000000000000000081527fffffffff000000000000000000000000000000000000000000000000000000008216600482015273ffffffffffffffffffffffffffffffffffffffff7f00000000000000000000000000000000000000000000000000000000000000001660248201523090636eb224cb906044015f604051808303815f87803b158015610ef3575f5ffd5b505af1158015610f05573d5f5f3e3d5ffd5b5050505050565b6040805173ffffffffffffffffffffffffffffffffffffffff8416602482015260448082018490528251808303909101815260649091019091526020810180517bffffffffffffffffffffffffffffffffffffffffffffffffffffffff167fbde95cc2000000000000000000000000000000000000000000000000000000001790525b92915050565b5f5f83601f840112610fa5575f5ffd5b50813567ffffffffffffffff811115610fbc575f5ffd5b6020830191508360208260071b8501011115610fd6575f5ffd5b9250929050565b5f5f83601f840112610fed575f5ffd5b50813567ffffffffffffffff811115611004575f5ffd5b6020830191508360208260051b8501011115610fd6575f5ffd5b8035801515811461102d575f5ffd5b919050565b5f5f5f5f5f5f5f6080888a031215611048575f5ffd5b873567ffffffffffffffff81111561105e575f5ffd5b8801601f81018a1361106e575f5ffd5b803567ffffffffffffffff811115611084575f5ffd5b8a602061018083028401011115611099575f5ffd5b60209182019850965088013567ffffffffffffffff8111156110b9575f5ffd5b6110c58a828b01610f95565b909650945050604088013567ffffffffffffffff8111156110e4575f5ffd5b6110f08a828b01610fdd565b909450925061110390506060890161101e565b905092959891949750929550565b5f8151808452602084019350602083015f5b828110156111535781516fffffffffffffffffffffffffffffffff16865260209586019590910190600101611123565b5093949350505050565b604081525f61116f6040830185611111565b82810360208401526111818185611111565b95945050505050565b602081525f82518060208401528060208501604085015e5f6040828501015260407fffffffffffffffffffffffffffffffffffffffffffffffffffffffffffffffe0601f83011684010191505092915050565b5f5f5f5f5f5f5f6080888a0312156111f3575f5ffd5b873567ffffffffffffffff811115611209575f5ffd5b8801601f81018a13611219575f5ffd5b803567ffffffffffffffff81111561122f575f5ffd5b8a602061014083028401011115611099575f5ffd5b7f4e487b71000000000000000000000000000000000000000000000000000000005f52604160045260245ffd5b5f60208284031215611281575f5ffd5b815163ffffffff81168114611294575f5ffd5b9392505050565b7f4e487b71000000000000000000000000000000000000000000000000000000005f52601160045260245ffd5b8082028115828204841417610f8f57610f8f61129b565b7f4e487b71000000000000000000000000000000000000000000000000000000005f52603260045260245ffd5b6fffffffffffffffffffffffffffffffff81168114610e44575f5ffd5b803561102d8161130c565b5f60208284031215611344575f5ffd5b81356112948161130c565b803573ffffffffffffffffffffffffffffffffffffffff8116811461102d575f5ffd5b803567ffffffffffffffff8116811461102d575f5ffd5b80356005811015801561139a575f5ffd5b508252602081013560ff81168082146113b1575f5ffd5b60208401525060408181013590830152606090810135910152565b61026081016113f8826113de8961134f565b73ffffffffffffffffffffffffffffffffffffffff169052565b6114046020880161134f565b73ffffffffffffffffffffffffffffffffffffffff16602083015261142b60408801611329565b6fffffffffffffffffffffffffffffffff16604083015261144e60608801611329565b6fffffffffffffffffffffffffffffffff16606083015261147160808801611329565b6fffffffffffffffffffffffffffffffff16608083015261149460a0880161134f565b73ffffffffffffffffffffffffffffffffffffffff1660a08301526114bb60c0880161134f565b73ffffffffffffffffffffffffffffffffffffffff1660c08301526114e260e0880161134f565b73ffffffffffffffffffffffffffffffffffffffff1660e083015261150a610100880161134f565b73ffffffffffffffffffffffffffffffffffffffff16610100830152610120878101359083015261153e6101408801611372565b67ffffffffffffffff166101408301526101608781013590830152611567610180830187611389565b6fffffffffffffffffffffffffffffffff9490941661020082015273ffffffffffffffffffffffffffffffffffffffff92831661022082015291166102409091015292915050565b5f5f604083850312156115c0575f5ffd5b82516115cb8161130c565b60208401519092506115dc8161130c565b809150509250929050565b80820180821115610f8f57610f8f61129b565b604051610180810167ffffffffffffffff81118282101715611643577f4e487b71000000000000000000000000000000000000000000000000000000005f52604160045260245ffd5b60405290565b604051610140810167ffffffffffffffff81118282101715611643577f4e487b71000000000000000000000000000000000000000000000000000000005f52604160045260245ffd5b5f6101808284031280156116a4575f5ffd5b506116ad6115fa565b6116b68361134f565b81526116c46020840161134f565b60208201526116d560408401611329565b60408201526116e660608401611329565b60608201526116f760808401611329565b608082015261170860a0840161134f565b60a082015261171960c0840161134f565b60c082015261172a60e0840161134f565b60e082015261173c610100840161134f565b610100820152610120838101359082015261175a6101408401611372565b610140820152610160928301359281019290925250919050565b5f7fffffffffffffffffffffffffffffffffffffffffffffffffffffffffffffffff82036117a4576117a461129b565b5060010190565b61024081016117bd826113de8a61134f565b6117c96020890161134f565b73ffffffffffffffffffffffffffffffffffffffff1660208301526117f060408901611329565b6fffffffffffffffffffffffffffffffff16604083015261181360608901611329565b6fffffffffffffffffffffffffffffffff1660608301526118366080890161134f565b73ffffffffffffffffffffffffffffffffffffffff16608083015261185d60a0890161134f565b73ffffffffffffffffffffffffffffffffffffffff1660a083015261188460c0890161134f565b73ffffffffffffffffffffffffffffffffffffffff1660c083015260e088810135908301526118b66101008901611372565b67ffffffffffffffff1661010083015261012088810135908301526118df610140830188611389565b6fffffffffffffffffffffffffffffffff959095166101c082015273ffffffffffffffffffffffffffffffffffffffff9384166101e08201529115156102008301529091166102209091015292915050565b5f610140828403128015611943575f5ffd5b5061194c611649565b6119558361134f565b81526119636020840161134f565b602082015261197460408401611329565b604082015261198560608401611329565b60608201526119966080840161134f565b60808201526119a760a0840161134f565b60a08201526119b860c0840161134f565b60c082015260e083810135908201526119d46101008401611372565b610100820152610120928301359281019290925250919050565b81810381811115610f8f57610f8f61129b56fea26469706673582212204c9aec207765d90c355703fab46718c19acc7b0deb6cee22de5cde91296853f364736f6c634300081c0033",
  "linkReferences": {},
  "deployedLinkReferences": {}
}