{
  "_format": "hh-sol-artifact-1",
  "contractName": "EthereumBridgeAdapter",
  "sourceName": "contracts/src/transformers/bridges/EthereumBridgeAdapter.sol",
  "abi": [
    {
      "inputs": [
        {
          "internalType": "contract IEtherToken",
          "name": "weth",
          "type": "address"
        }
      ],
      "stateMutability": "nonpayable",
      "type": "constructor"
    },
    {
      "anonymous": false,
      "inputs": [
        {
          "indexed": false,
          "internalType": "bytes32",
          "name": "source",
          "type": "bytes32"
        },
        {
          "indexed": false,
          "internalType": "contract IERC20Token",
          "name": "inputToken",
          "type": "address"
        },
        {
          "indexed": false,
          "internalType": "contract IERC20Token",
          "name": "outputToken",
          "type": "address"
        },
        {
          "indexed": false,
          "internalType": "uint256",
          "name": "inputTokenAmount",
          "type": "uint256"
        },
        {
          "indexed": false,
          "internalType": "uint256",
          "name": "outputTokenAmount",
          "type": "uint256"
        }
      ],
      "name": "BridgeFill",
      "type": "event"
    },
    {
      "inputs": [],
      "name": "BANCORV3_ETH_ADDRESS",
      "outputs": [
        {
          "internalType": "contract IERC20Token",
          "name": "",
          "type": "address"
        }
      ],
      "stateMutability": "view",
      "type": "function"
    },
    {
      "inputs": [
        {
          "internalType": "uint256",
          "name": "sellAmount",
          "type": "uint256"
        },
        {
          "internalType": "bytes",
          "name": "bridgeData",
          "type": "bytes"
        }
      ],
      "name": "_tradeSynthetix",
      "outputs": [
        {
          "internalType": "uint256",
          "name": "boughtAmount",
          "type": "uint256"
        }
      ],
      "stateMutability": "nonpayable",
      "type": "function"
    },
    {
      "inputs": [
        {
          "internalType": "bytes32",
          "name": "source",
          "type": "bytes32"
        }
      ],
      "name": "isSupportedSource",
      "outputs": [
        {
          "internalType": "bool",
          "name": "isSupported",
          "type": "bool"
        }
      ],
      "stateMutability": "nonpayable",
      "type": "function"
    },
    {
      "inputs": [
        {
          "components": [
            {
              "internalType": "bytes32",
              "name": "source",
              "type": "bytes32"
            },
            {
              "internalType": "uint256",
              "name": "takerTokenAmount",
              "type": "uint256"
            },
            {
              "internalType": "uint256",
              "name": "makerTokenAmount",
              "type": "uint256"
            },
            {
              "internalType": "bytes",
              "name": "bridgeData",
              "type": "bytes"
            }
          ],
          "internalType": "struct IBridgeAdapter.BridgeOrder",
          "name": "order",
          "type": "tuple"
        },
        {
          "internalType": "contract IERC20Token",
          "name": "sellToken",
          "type": "address"
        },
        {
          "internalType": "contract IERC20Token",
          "name": "buyToken",
          "type": "address"
        },
        {
          "internalType": "uint256",
          "name": "sellAmount",
          "type": "uint256"
        }
      ],
      "name": "trade",
      "outputs": [
        {
          "internalType": "uint256",
          "name": "boughtAmount",
          "type": "uint256"
        }
      ],
      "stateMutability": "nonpayable",
      "type": "function"
    }
  ],
  "bytecode": "0x610120604052348015610010575f5ffd5b5060405161466f38038061466f83398101604081905261002f91610116565b8081828384600160405180604001604052806008815260200167457468657265756d60c01b8152505f4690505f81610539148061006d575081617a69145b806100785750816005145b8061008557508162013881145b8061009257508162014a33145b90508382141580156100a2575080155b156100e757826040516020016100b89190610143565b60408051601f198184030181529082905262461bcd60e51b82526100de9160040161018e565b60405180910390fd5b5050506001600160a01b039182166080525090811660a05290811660c05290811660e0521661010052506101c3565b5f60208284031215610126575f5ffd5b81516001600160a01b038116811461013c575f5ffd5b9392505050565b5f82518060208501845e7f427269646765416461707465722e636f6e7374727563746f723a2077726f6e67920191825250680818da185a5b88125160ba1b6020820152602901919050565b602081525f82518060208401528060208501604085015e5f604082850101526040601f19601f83011684010191505092915050565b60805160a05160c05160e051610100516144066102695f395f818161108f015281816110dc015281816111bb0152818161127f015261305301525f81816121d8015261326701525f81816107b101528181610801015281816109c001526109fc01525f8181612473015281816124c201528181612671015261278101525f8181612a7001528181612ad601528181612b9d01528181612d1a0152612d5301526144065ff3fe608060405234801561000f575f5ffd5b506004361061004a575f3560e01c806302d2734f1461004e57806365f53ee61461007657806399a4d2d0146100a9578063f712a148146100ca575b5f5ffd5b61006161005c366004613619565b6100dd565b60405190151581526020015b60405180910390f35b61009173eeeeeeeeeeeeeeeeeeeeeeeeeeeeeeeeeeeeeeee81565b6040516001600160a01b03909116815260200161006d565b6100bc6100b7366004613736565b610121565b60405190815260200161006d565b6100bc6100d83660046137a0565b610155565b5f61010660405180608001604052805f81526020015f81526020015f8152602001606081525090565b8281525f61011882828080600161016d565b95945050505050565b5f5f5f5f848060200190518101906101399190613851565b92509250925061014b83838389610656565b9695505050505050565b5f610163858585855f61016d565b5095945050505050565b84515f90819060801c5f1981016101a8578315610191575f6001925092505061064c565b6101a18787878b60600151610796565b92506105f2565b6013196001600160801b038216016101dd5783156101cd575f6001925092505061064c565b6101a18787878b60600151610aed565b6011196001600160801b03821601610211578315610202575f6001925092505061064c565b6101a187868a60600151610cdc565b6001196001600160801b03821601610245578315610236575f6001925092505061064c565b6101a186868a60600151610e45565b6002196001600160801b0382160161027a57831561026a575f6001925092505061064c565b6101a18787878b60600151611067565b6003196001600160801b038216016102af57831561029f575f6001925092505061064c565b6101a18787878b60600151611398565b6018196001600160801b038216016102e25783156102d4575f6001925092505061064c565b6101a1858960600151611454565b600f196001600160801b03821601610317578315610307575f6001925092505061064c565b6101a18787878b6060015161169b565b6009196001600160801b0382160161034b57831561033c575f6001925092505061064c565b6101a187868a60600151611a1e565b600a196001600160801b0382160161037f578315610370575f6001925092505061064c565b6101a187868a60600151611b8d565b600b196001600160801b038216016103b35783156103a4575f6001925092505061064c565b6101a186868a60600151611c96565b600e196001600160801b038216016103e75783156103d8575f6001925092505061064c565b6101a187868a60600151611dcd565b6012196001600160801b0382160161041b57831561040c575f6001925092505061064c565b6101a186868a60600151611eed565b6020196001600160801b0382160161044f578315610440575f6001925092505061064c565b6101a187868a60600151612155565b6014196001600160801b03821601610484578315610474575f6001925092505061064c565b6101a18787878b606001516121d5565b6016196001600160801b038216016104b95783156104a9575f6001925092505061064c565b6101a18787878b6060015161222d565b6017196001600160801b038216016104ee5783156104de575f6001925092505061064c565b6101a18787878b606001516123d5565b601b196001600160801b03821601610522578315610513575f6001925092505061064c565b6101a186868a60600151612933565b601d196001600160801b03821601610555578315610547575f6001925092505061064c565b6101a1858960600151610121565b6021196001600160801b0382160161058957831561057a575f6001925092505061064c565b6101a187868a60600151612dcd565b6024196001600160801b038216016105be5783156105ae575f6001925092505061064c565b6101a18787878b60600151612e7c565b6001600160801b0381166105f25783156105df575f6001925092505061064c565b6105ef8787878b60600151612f5b565b92505b8751604080519182526001600160a01b0389811660208401528816828201526060820187905260808201859052517fe59e71a14fe90157eedc866c4f8c767d3943d6b6b2e8cd64dddcc92ab4c55af89181900360a00190a1505b9550959350505050565b5f4660018190036106ef576040516344b3e92360e01b815260048101869052602481018490526044810185905261060b60f31b60648201525f60848201526001600160a01b038716906344b3e9239060a4016020604051808303815f875af11580156106c4573d5f5f3e3d5ffd5b505050506040513d601f19601f820116820180604052508101906106e89190613885565b915061078d565b60405163018756bb60e51b8152600481018690526024810184905260448101859052735c80239d97e1eb216b5c3d8fba5de5be5d38e4c9606482015261060b60f31b60848201526001600160a01b038716906330ead7609060a4016020604051808303815f875af1158015610766573d5f5f3e3d5ffd5b505050506040513d601f19601f8201168201806040525081019061078a9190613885565b91505b50949350505050565b5f5f828060200190518101906107ac919061391b565b90505f7f00000000000000000000000000000000000000000000000000000000000000006001600160a01b0316876001600160a01b0316036108655750604051632e1a7d4d60e01b81526004810185905284907f00000000000000000000000000000000000000000000000000000000000000006001600160a01b031690632e1a7d4d906024015f604051808303815f87803b15801561084a575f5ffd5b505af115801561085c573d5f5f3e3d5ffd5b5050505061087c565b815161087c906001600160a01b0389169087612fc0565b6040516370a0823160e01b81523060048201525f906001600160a01b038816906370a0823190602401602060405180830381865afa1580156108c0573d5f5f3e3d5ffd5b505050506040513d601f19601f820116820180604052508101906108e49190613885565b8351602085015160408087015160608801519151600f91820b602482015291900b6044820152606481018a9052600160848201529293505f9283926001600160a01b031691869160a40160408051601f198184030181529181526020820180516001600160e01b03166001600160e01b031990941693909317909252905161096c9190613935565b5f6040518083038185875af1925050503d805f81146109a6576040519150601f19603f3d011682016040523d82523d5f602084013e6109ab565b606091505b5091509150816109be576109be81613048565b7f00000000000000000000000000000000000000000000000000000000000000006001600160a01b0316896001600160a01b031603610a6b574795507f00000000000000000000000000000000000000000000000000000000000000006001600160a01b031663d0e30db0876040518263ffffffff1660e01b81526004015f604051808303818588803b158015610a53575f5ffd5b505af1158015610a65573d5f5f3e3d5ffd5b50505050505b6040516370a0823160e01b815230600482015283906001600160a01b038b16906370a0823190602401602060405180830381865afa158015610aaf573d5f5f3e3d5ffd5b505050506040513d601f19601f82011682018060405250810190610ad39190613885565b610add919061395f565b955050505050505b949350505050565b5f5f82806020019051810190610b03919061391b565b8051909150610b1d906001600160a01b0388169086612fc0565b6040516370a0823160e01b81523060048201525f906001600160a01b038716906370a0823190602401602060405180830381865afa158015610b61573d5f5f3e3d5ffd5b505050506040513d601f19601f82011682018060405250810190610b859190613885565b8251602084015160408086015160608701519151600f91820b602482015291900b604482015260648101899052600160848201529293505f9283926001600160a01b0316919060a40160408051601f198184030181529181526020820180516001600160e01b03166001600160e01b0319909416939093179092529051610c0c9190613935565b5f604051808303815f865af19150503d805f8114610c45576040519150601f19603f3d011682016040523d82523d5f602084013e610c4a565b606091505b509150915081610c5d57610c5d81613048565b6040516370a0823160e01b815230600482015283906001600160a01b038a16906370a0823190602401602060405180830381865afa158015610ca1573d5f5f3e3d5ffd5b505050506040513d601f19601f82011682018060405250810190610cc59190613885565b610ccf919061395f565b9998505050505050505050565b5f5f5f5f84806020019051810190610cf491906139bf565b91945092509050610d0f6001600160a01b0388168488612fc0565b80600214610dae576040805160a08101825283815230602082015242818301526060810188905260016080820152905163c04b8d5960e01b81526001600160a01b0385169163c04b8d5991610d679190600401613a95565b6020604051808303815f875af1158015610d83573d5f5f3e3d5ffd5b505050506040513d601f19601f82011682018060405250810190610da79190613885565b9350610e3b565b6040805160808101825283815230602082015280820188905260016060820152905163b858183f60e01b81526001600160a01b0385169163b858183f91610df89190600401613aa7565b6020604051808303815f875af1158015610e14573d5f5f3e3d5ffd5b505050506040513d601f19601f82011682018060405250810190610e389190613885565b93505b5050509392505050565b5f5f60608084806020019051810190610e5e9190613b7a565b80519194509250600211159050610ed45760405162461bcd60e51b815260206004820152602f60248201527f4d6978696e556e697377617056322f504154485f4c454e4754485f4d5553545f60448201526e42455f41545f4c454153545f54574f60881b60648201526084015b60405180910390fd5b856001600160a01b03168160018351610eed919061395f565b81518110610efd57610efd613bbd565b60200260200101516001600160a01b031614610f815760405162461bcd60e51b815260206004820152603b60248201527f4d6978696e556e697377617056322f4c4153545f454c454d454e545f4f465f5060448201527f4154485f4d5553545f4d415443485f4f55545055545f544f4b454e00000000006064820152608401610ecb565b610fb88286835f81518110610f9857610f98613bbd565b60200260200101516001600160a01b0316612fc09092919063ffffffff16565b6040516338ed173960e01b81525f906001600160a01b038416906338ed173990610fef908990600190879030904290600401613c14565b5f604051808303815f875af115801561100a573d5f5f3e3d5ffd5b505050506040513d5f823e601f3d908101601f191682016040526110319190810190613c4f565b90508060018251611042919061395f565b8151811061105257611052613bbd565b602002602001015193505050505b9392505050565b5f5f8280602001905181019061107d9190613cd5565b90505f61108b828888613050565b90507f00000000000000000000000000000000000000000000000000000000000000006001600160a01b0316876001600160a01b0316036111b957604051632e1a7d4d60e01b8152600481018690527f00000000000000000000000000000000000000000000000000000000000000006001600160a01b031690632e1a7d4d906024015f604051808303815f87803b158015611125575f5ffd5b505af1158015611137573d5f5f3e3d5ffd5b505060405163ad65d76d60e01b8152600160048201524260248201523060448201526001600160a01b038416925063ad65d76d9150879060640160206040518083038185885af115801561118d573d5f5f3e3d5ffd5b50505050506040513d601f19601f820116820180604052508101906111b29190613885565b925061138e565b7f00000000000000000000000000000000000000000000000000000000000000006001600160a01b0316866001600160a01b0316036112f2576112066001600160a01b0388168287612fc0565b6040516395e3c50b60e01b815260048101869052600160248201524260448201526001600160a01b038216906395e3c50b906064016020604051808303815f875af1158015611257573d5f5f3e3d5ffd5b505050506040513d601f19601f8201168201806040525081019061127b9190613885565b92507f00000000000000000000000000000000000000000000000000000000000000006001600160a01b031663d0e30db0846040518263ffffffff1660e01b81526004015f604051808303818588803b1580156112d6575f5ffd5b505af11580156112e8573d5f5f3e3d5ffd5b505050505061138e565b6113066001600160a01b0388168287612fc0565b60405163ddf7e1a760e01b81526004810186905260016024820181905260448201524260648201526001600160a01b03878116608483015282169063ddf7e1a79060a4015b6020604051808303815f875af1158015611367573d5f5f3e3d5ffd5b505050506040513d601f19601f8201168201806040525081019061138b9190613885565b92505b5050949350505050565b5f5f828060200190518101906113ae9190613cd5565b90506113c46001600160a01b0387168286612fc0565b604051638201aa3f60e01b81526001600160a01b038781166004830152602482018690528681166044830152600160648301525f196084830152821690638201aa3f9060a40160408051808303815f875af1158015611425573d5f5f3e3d5ffd5b505050506040513d601f19601f820116820180604052508101906114499190613cf0565b509695505050505050565b5f5f5f5f8480602001905181019061146c9190613d12565b925092509250606081905061148e8488835f81518110610f9857610f98613bbd565b86835f815181106114a1576114a1613bbd565b602002602001015160600181815250505f81516001600160401b038111156114cb576114cb613630565b6040519080825280602002602001820160405280156114f4578160200160208202803683370190505b5090505f5b815181101561152f576001600160ff1b0382828151811061151c5761151c613bbd565b60209081029190910101526001016114f9565b5060408051608081018252308082525f6020830181905292820152606081018290526001600160a01b0387169063945bcec99083908890879087611574426001613e65565b6040518763ffffffff1660e01b815260040161159596959493929190613ea8565b5f604051808303815f875af11580156115b0573d5f5f3e3d5ffd5b505050506040513d5f823e601f3d908101601f191682016040526115d79190810190613c4f565b90505f81600183516115e9919061395f565b815181106115f9576115f9613bbd565b602002602001015113156116595760405162461bcd60e51b815260206004820152602160248201527f556e65787065637465642042616c616e63657256324261746368206f757470756044820152601d60fa1b6064820152608401610ecb565b8060018251611668919061395f565b8151811061167857611678613bbd565b60200260200101515f1961168c9190613fd3565b96505050505050505b92915050565b5f5f828060200190518101906116b19190614002565b6040516370a0823160e01b81523060048201529091505f906001600160a01b038716906370a0823190602401602060405180830381865afa1580156116f8573d5f5f3e3d5ffd5b505050506040513d601f19601f8201168201806040525081019061171c9190613885565b82516020840151919250906001600160a01b039081169089160361180e576117ae816001600160a01b03166301664f666040518163ffffffff1660e01b8152600401602060405180830381865afa158015611779573d5f5f3e3d5ffd5b505050506040513d601f19601f8201168201806040525081019061179d9190613cd5565b6001600160a01b038a169088612fc0565b604051634acc893b60e11b8152306004820152602481018790526001600160a01b038216906395991276906044015f604051808303815f87803b1580156117f3575f5ffd5b505af1158015611805573d5f5f3e3d5ffd5b505050506119a0565b82602001516001600160a01b0316876001600160a01b0316036119a0575f816001600160a01b031663fae036d56040518163ffffffff1660e01b8152600401602060405180830381865afa158015611868573d5f5f3e3d5ffd5b505050506040513d601f19601f8201168201806040525081019061188c9190613885565b61189e90670de0b6b3a7640000613e65565b90505f886001600160a01b031663313ce5676040518163ffffffff1660e01b8152600401602060405180830381865afa1580156118dd573d5f5f3e3d5ffd5b505050506040513d601f19601f820116820180604052508101906119019190614060565b61190f9060ff16600a614163565b90505f8261191d838b61416e565b6119279190614185565b8651909150611941906001600160a01b038d16908b612fc0565b604051638d7ef9bb60e01b8152306004820152602481018290526001600160a01b03851690638d7ef9bb906044015f604051808303815f87803b158015611986575f5ffd5b505af1158015611998573d5f5f3e3d5ffd5b505050505050505b6040516370a0823160e01b815230600482015282906001600160a01b038916906370a0823190602401602060405180830381865afa1580156119e4573d5f5f3e3d5ffd5b505050506040513d601f19601f82011682018060405250810190611a089190613885565b611a12919061395f565b98975050505050505050565b5f5f5f5f84806020019051810190611a3691906141b3565b91945092509050611a516001600160a01b0388168388612fc0565b8015611a9457604080515f81526020810191829052638dae733360e01b9091526001600160a01b03831690638dae733390610d67908990600190602481016141f8565b60405163ca19ebd960e01b81526001600160a01b0383811660048301526024820188905284169063ca19ebd990604401602060405180830381865afa158015611adf573d5f5f3e3d5ffd5b505050506040513d601f19601f82011682018060405250810190611b039190613885565b604080515f8152602081019182905263733e738360e11b9091529094506001600160a01b0383169063e67ce70690611b429087908a90602481016141f8565b6020604051808303815f875af1158015611b5e573d5f5f3e3d5ffd5b505050506040513d601f19601f82011682018060405250810190611b829190613885565b505050509392505050565b5f5f5f83806020019051810190611ba49190614216565b9092509050611bbd6001600160a01b03871683876131b7565b80611c2e57604051636ec9facd60e11b81523060048201526001600160a01b0383169063dd93f59a906024016020604051808303815f875af1158015611c05573d5f5f3e3d5ffd5b505050506040513d601f19601f82011682018060405250810190611c299190613885565b61014b565b604051632f58056d60e21b81523060048201526001600160a01b0383169063bd6015b4906024015b6020604051808303815f875af1158015611c72573d5f5f3e3d5ffd5b505050506040513d601f19601f8201168201806040525081019061014b9190613885565b5f5f60608084806020019051810190611caf9190613b7a565b80519194509250600211159050611d205760405162461bcd60e51b815260206004820152602f60248201527f4d6978696e43727970746f436f6d2f504154485f4c454e4754485f4d5553545f60448201526e42455f41545f4c454153545f54574f60881b6064820152608401610ecb565b856001600160a01b03168160018351611d39919061395f565b81518110611d4957611d49613bbd565b60200260200101516001600160a01b031614610f815760405162461bcd60e51b815260206004820152603b60248201527f4d6978696e43727970746f436f6d2f4c4153545f454c454d454e545f4f465f5060448201527f4154485f4d5553545f4d415443485f4f55545055545f544f4b454e00000000006064820152608401610ecb565b5f5f82806020019051810190611de3919061391b565b8051909150611dfd906001600160a01b0387169086612fc0565b8051602082015160408084015160608501519151600f91820b602482015291900b604482015260648101879052600160848201524260a48201525f9283926001600160a01b039091169160c40160408051601f198184030181529181526020820180516001600160e01b03166001600160e01b0319909416939093179092529051611e889190613935565b5f604051808303815f865af19150503d805f8114611ec1576040519150601f19603f3d011682016040523d82523d5f602084013e611ec6565b606091505b509150915081611ed957611ed981613048565b80806020019051810190610e389190613885565b5f5f60608084806020019051810190611f069190614249565b8151929550909350915060011115611f785760405162461bcd60e51b815260206004820152602f60248201527f4d6978696e4b79626572446d6d2f504f4f4c535f4c454e4754485f4d5553545f60448201526e42455f41545f4c454153545f4f4e4560881b6064820152608401610ecb565b8151611f85906001613e65565b815114611fe05760405162461bcd60e51b815260206004820152602360248201527f4d6978696e4b79626572446d6d2f41525241595f4c454e4754485f4d49534d416044820152620a886960eb1b6064820152608401610ecb565b866001600160a01b03168160018351611ff9919061395f565b8151811061200957612009613bbd565b60200260200101516001600160a01b03161461208d5760405162461bcd60e51b815260206004820152603a60248201527f4d6978696e4b79626572446d6d2f4c4153545f454c454d454e545f4f465f504160448201527f54485f4d5553545f4d415443485f4f55545055545f544f4b454e0000000000006064820152608401610ecb565b6120a48387835f81518110610f9857610f98613bbd565b60405163ceb757d560e01b81525f906001600160a01b0385169063ceb757d5906120dd908a9060019088908890309042906004016142a8565b5f604051808303815f875af11580156120f8573d5f5f3e3d5ffd5b505050506040513d5f823e601f3d908101601f1916820160405261211f9190810190613c4f565b90508060018251612130919061395f565b8151811061214057612140613bbd565b60200260200101519450505050509392505050565b5f5f5f8380602001905181019061216c91906142f7565b90925090506121856001600160a01b0387168387612fc0565b6040805160a081018252828152306020820152428183015260608101879052600160808201529051635d946c2560e01b81526001600160a01b03841691635d946c2591611c569190600401613a95565b5f7f00000000000000000000000000000000000000000000000000000000000000006001600160a01b0316856001600160a01b0316036122215761221a848484613220565b9050610ae5565b610118858585856133e5565b5f5f5f83806020019051810190612244919061433a565b909250905061225d6001600160a01b0388168387612fc0565b806001600160a01b0316866001600160a01b0316036122e95760405163e8eda9df60e01b81526001600160a01b038881166004830152602482018790523060448301525f606483015283169063e8eda9df906084015f604051808303815f87803b1580156122c9575f5ffd5b505af11580156122db573d5f5f3e3d5ffd5b505050508492505050610ae5565b806001600160a01b0316876001600160a01b03160361238257604051631a4ca37b60e21b81526001600160a01b038781166004830152602482018790523060448301528316906369328dec906064015b6020604051808303815f875af1158015612355573d5f5f3e3d5ffd5b505050506040513d601f19601f820116820180604052508101906123799190613885565b92505050610ae5565b60405162461bcd60e51b815260206004820152602260248201527f4d6978696e4161766556322f554e535550504f525445445f544f4b454e5f504160448201526124a960f11b6064820152608401610ecb565b5f5f828060200190518101906123eb9190613cd5565b6040516370a0823160e01b81523060048201529091505f906001600160a01b038716906370a0823190602401602060405180830381865afa158015612432573d5f5f3e3d5ffd5b505050506040513d601f19601f820116820180604052508101906124569190613885565b9050816001600160a01b0316866001600160a01b031603612656577f00000000000000000000000000000000000000000000000000000000000000006001600160a01b0316876001600160a01b03160361257757604051632e1a7d4d60e01b81526004810186905282907f00000000000000000000000000000000000000000000000000000000000000006001600160a01b031690632e1a7d4d906024015f604051808303815f87803b15801561250b575f5ffd5b505af115801561251d573d5f5f3e3d5ffd5b50505050806001600160a01b0316631249c58b876040518263ffffffff1660e01b81526004015f604051808303818588803b15801561255a575f5ffd5b505af115801561256c573d5f5f3e3d5ffd5b5050505050506128c1565b61258b6001600160a01b0388168387612fc0565b60405163140e25ad60e31b81526004810186905282905f906001600160a01b0383169063a0712d68906024016020604051808303815f875af11580156125d3573d5f5f3e3d5ffd5b505050506040513d601f19601f820116820180604052508101906125f79190613885565b146126505760405162461bcd60e51b815260206004820152602360248201527f4d6978696e436f6d706f756e642f4641494c45445f544f5f4d494e545f43544f60448201526225a2a760e91b6064820152608401610ecb565b506128c1565b816001600160a01b0316876001600160a01b0316036128c1577f00000000000000000000000000000000000000000000000000000000000000006001600160a01b0316866001600160a01b0316036127f85760405163db006a7560e01b815260048101869052479083905f906001600160a01b0383169063db006a75906024016020604051808303815f875af11580156126f2573d5f5f3e3d5ffd5b505050506040513d601f19601f820116820180604052508101906127169190613885565b146127715760405162461bcd60e51b815260206004820152602560248201527f4d6978696e436f6d706f756e642f4641494c45445f544f5f52454445454d5f4360448201526422aa2422a960d91b6064820152608401610ecb565b475f61277d848361395f565b90507f00000000000000000000000000000000000000000000000000000000000000006001600160a01b031663d0e30db0826040518263ffffffff1660e01b81526004015f604051808303818588803b1580156127d8575f5ffd5b505af11580156127ea573d5f5f3e3d5ffd5b5050505050505050506128c1565b60405163db006a7560e01b81526004810186905282905f906001600160a01b0383169063db006a75906024016020604051808303815f875af1158015612840573d5f5f3e3d5ffd5b505050506040513d601f19601f820116820180604052508101906128649190613885565b146128bf5760405162461bcd60e51b815260206004820152602560248201527f4d6978696e436f6d706f756e642f4641494c45445f544f5f52454445454d5f436044820152642a27a5a2a760d91b6064820152608401610ecb565b505b6040516370a0823160e01b815230600482015281906001600160a01b038816906370a0823190602401602060405180830381865afa158015612905573d5f5f3e3d5ffd5b505050506040513d601f19601f820116820180604052508101906129299190613885565b61138b919061395f565b5f5f6060805f5f9050858060200190518101906129509190613b7a565b80519195509350839250600211156129c15760405162461bcd60e51b815260206004820152602e60248201527f4d6978696e42616e636f7256332f504154485f4c454e4754485f4d5553545f4260448201526d455f41545f4c454153545f54574f60901b6064820152608401610ecb565b876001600160a01b031683600185516129da919061395f565b815181106129ea576129ea613bbd565b60200260200101516001600160a01b031614612a6e5760405162461bcd60e51b815260206004820152603a60248201527f4d6978696e42616e636f7256332f4c4153545f454c454d454e545f4f465f504160448201527f54485f4d5553545f4d415443485f4f55545055545f544f4b454e0000000000006064820152608401610ecb565b7f00000000000000000000000000000000000000000000000000000000000000006001600160a01b0316825f81518110612aaa57612aaa613bbd565b60200260200101516001600160a01b031603612b8457604051632e1a7d4d60e01b8152600481018890527f00000000000000000000000000000000000000000000000000000000000000006001600160a01b031690632e1a7d4d906024015f604051808303815f87803b158015612b1f575f5ffd5b505af1158015612b31573d5f5f3e3d5ffd5b5050505086905073eeeeeeeeeeeeeeeeeeeeeeeeeeeeeeeeeeeeeeee825f81518110612b5f57612b5f613bbd565b60200260200101906001600160a01b031690816001600160a01b031681525050612b9b565b612b9b8488855f81518110610f9857610f98613bbd565b7f00000000000000000000000000000000000000000000000000000000000000006001600160a01b031682600181518110612bd857612bd8613bbd565b60200260200101516001600160a01b031603612c375773eeeeeeeeeeeeeeeeeeeeeeeeeeeeeeeeeeeeeeee82600181518110612c1657612c16613bbd565b60200260200101906001600160a01b031690816001600160a01b0316815250505b5f846001600160a01b031663d3a4acd383855f81518110612c5a57612c5a613bbd565b602002602001015186600181518110612c7557612c75613bbd565b60200260200101518c6001426001612c8d9190613e65565b6040516001600160e01b031960e089901b1681526001600160a01b0395861660048201529490931660248501526044840191909152606483015260848201523060a482015260c40160206040518083038185885af1158015612cf1573d5f5f3e3d5ffd5b50505050506040513d601f19601f82011682018060405250810190612d169190613885565b90507f00000000000000000000000000000000000000000000000000000000000000006001600160a01b0316896001600160a01b031603611a12577f00000000000000000000000000000000000000000000000000000000000000006001600160a01b031663d0e30db0826040518263ffffffff1660e01b81526004015f604051808303818588803b158015612daa575f5ffd5b505af1158015612dbc573d5f5f3e3d5ffd5b505050505098975050505050505050565b5f5f5f83806020019051810190612de491906142f7565b9092509050612dfd6001600160a01b0387168387612fc0565b5f5f836001600160a01b031683604051612e179190613935565b5f604051808303815f865af19150503d805f8114612e50576040519150601f19603f3d011682016040523d82523d5f602084013e612e55565b606091505b509150915081612e6857612e6881613048565b80806020019051810190611a129190613885565b5f5f5f83806020019051810190612e93919061433a565b9092509050612eac6001600160a01b0388168387612fc0565b60408051610100810182526001600160a01b038981168252888116602083019081528482168385019081523060608501908152426080860190815260a086018c8152600160c088019081525f60e08901908152985163a5dcbcdf60e01b81529751871660048901529451861660248801529251851660448701529051841660648601525160848501525160a48401525160c4830152915160e48201529083169063a5dcbcdf906101040161134b565b5f5f5f83806020019051810190612f7291906142f7565b9092509050612f8b6001600160a01b03881683876131b7565b6040516319740ac160e21b81526001600160a01b038316906365d02b049061134b908a908a9030906001908890600401614372565b604051636eb1769f60e11b81523060048201526001600160a01b03838116602483015282919085169063dd62ed3e90604401602060405180830381865afa15801561300d573d5f5f3e3d5ffd5b505050506040513d601f19601f820116820180604052508101906130319190613885565b10156130435761304383835f196134dc565b505050565b805160208201fd5b5f7f00000000000000000000000000000000000000000000000000000000000000006001600160a01b0316836001600160a01b0316146130f7576040516303795fb160e11b81526001600160a01b0384811660048301528516906306f2bf6290602401602060405180830381865afa1580156130ce573d5f5f3e3d5ffd5b505050506040513d601f19601f820116820180604052508101906130f29190613cd5565b61315f565b6040516303795fb160e11b81526001600160a01b0383811660048301528516906306f2bf6290602401602060405180830381865afa15801561313b573d5f5f3e3d5ffd5b505050506040513d601f19601f8201168201806040525081019061315f9190613cd5565b90506001600160a01b0381166110605760405162461bcd60e51b815260206004820152601860248201527f4d6978696e556e69737761702f4e4f5f45584348414e474500000000000000006044820152606401610ecb565b6040516001600160a01b038381166024830152604482018390525f919085169063a9059cbb906064015b604051602081830303815290604052915060e01b6020820180516001600160e01b038381831617835250505050905061321a848261350a565b50505050565b5f5f828060200190518101906132369190613cd5565b9050806001600160a01b0316856001600160a01b03160361339d57604051632e1a7d4d60e01b8152600481018590527f00000000000000000000000000000000000000000000000000000000000000006001600160a01b031690632e1a7d4d906024015f604051808303815f87803b1580156132b0575f5ffd5b505af11580156132c2573d5f5f3e3d5ffd5b505060405163a1903eab60e01b81525f60048201526001600160a01b0384169250637a28fb889150829063a1903eab90889060240160206040518083038185885af1158015613313573d5f5f3e3d5ffd5b50505050506040513d601f19601f820116820180604052508101906133389190613885565b6040518263ffffffff1660e01b815260040161335691815260200190565b602060405180830381865afa158015613371573d5f5f3e3d5ffd5b505050506040513d601f19601f820116820180604052508101906133959190613885565b915050611060565b60405162461bcd60e51b815260206004820181905260248201527f4d6978696e4c69646f2f554e535550504f525445445f544f4b454e5f504149526044820152606401610ecb565b5f5f5f838060200190518101906133fc919061433a565b91509150816001600160a01b0316876001600160a01b03161480156134325750806001600160a01b0316866001600160a01b0316145b156134785761344b6001600160a01b0388168287612fc0565b604051630ea598cb60e41b8152600481018690526001600160a01b0382169063ea598cb090602401612339565b806001600160a01b0316876001600160a01b03161480156134aa5750816001600160a01b0316866001600160a01b0316145b1561339d57604051636f074d1f60e11b8152600481018690526001600160a01b0382169063de0e9a3e90602401612339565b6040516001600160a01b038381166024830152604482018390525f919085169063095ea7b3906064016131e1565b5f5f836001600160a01b0316836040516135249190613935565b5f604051808303815f865af19150503d805f811461355d576040519150601f19603f3d011682016040523d82523d5f602084013e613562565b606091505b5091509150816135755761357581613048565b80515f036135e6575f846001600160a01b03163b1161321a5760405162461bcd60e51b815260206004820152602760248201527f696e76616c696420746f6b656e20616464726573732c20636f6e7461696e73206044820152666e6f20636f646560c81b6064820152608401610ecb565b6020815110613610578080602001905181019061360391906143b7565b6136105761361081613048565b61321a81613048565b5f60208284031215613629575f5ffd5b5035919050565b634e487b7160e01b5f52604160045260245ffd5b604051608081016001600160401b038111828210171561366657613666613630565b60405290565b60405160a081016001600160401b038111828210171561366657613666613630565b604051601f8201601f191681016001600160401b03811182821017156136b6576136b6613630565b604052919050565b5f6001600160401b038211156136d6576136d6613630565b50601f01601f191660200190565b5f82601f8301126136f3575f5ffd5b8135613706613701826136be565b61368e565b81815284602083860101111561371a575f5ffd5b816020850160208301375f918101602001919091529392505050565b5f5f60408385031215613747575f5ffd5b8235915060208301356001600160401b03811115613763575f5ffd5b61376f858286016136e4565b9150509250929050565b6001600160a01b038116811461378d575f5ffd5b50565b803561379b81613779565b919050565b5f5f5f5f608085870312156137b3575f5ffd5b84356001600160401b038111156137c8575f5ffd5b8501608081880312156137d9575f5ffd5b6137e1613644565b81358152602080830135908201526040808301359082015260608201356001600160401b03811115613811575f5ffd5b61381d898285016136e4565b6060830152509450613833905060208601613790565b925061384160408601613790565b9396929550929360600135925050565b5f5f5f60608486031215613863575f5ffd5b835161386e81613779565b602085015160409095015190969495509392505050565b5f60208284031215613895575f5ffd5b5051919050565b8051600f81900b811461379b575f5ffd5b5f608082840312156138bd575f5ffd5b6138c5613644565b905081516138d281613779565b815260208201516001600160e01b0319811681146138ee575f5ffd5b60208201526138ff6040830161389c565b60408201526139106060830161389c565b606082015292915050565b5f6080828403121561392b575f5ffd5b61106083836138ad565b5f82518060208501845e5f920191825250919050565b634e487b7160e01b5f52601160045260245ffd5b818103818111156116955761169561394b565b5f82601f830112613981575f5ffd5b815161398f613701826136be565b8181528460208386010111156139a3575f5ffd5b8160208501602083015e5f918101602001919091529392505050565b5f5f5f606084860312156139d1575f5ffd5b83516139dc81613779565b60208501519093506001600160401b038111156139f7575f5ffd5b613a0386828701613972565b604095909501519396949550929392505050565b5f81518084528060208401602086015e5f602082860101526020601f19601f83011685010191505092915050565b5f815160a08452613a5960a0850182613a17565b6020848101516001600160a01b031690860152604080850151908601526060808501519086015260809384015193909401929092525090919050565b602081525f6110606020830184613a45565b602081525f825160806020840152613ac260a0840182613a17565b905060018060a01b03602085015116604084015260408401516060840152606084015160808401528091505092915050565b5f6001600160401b03821115613b0c57613b0c613630565b5060051b60200190565b5f82601f830112613b25575f5ffd5b8151613b3361370182613af4565b8082825260208201915060208360051b860101925085831115613b54575f5ffd5b602085015b83811015610163578051613b6c81613779565b835260209283019201613b59565b5f5f60408385031215613b8b575f5ffd5b8251613b9681613779565b60208401519092506001600160401b03811115613bb1575f5ffd5b61376f85828601613b16565b634e487b7160e01b5f52603260045260245ffd5b5f8151808452602084019350602083015f5b82811015613c0a5781516001600160a01b0316865260209586019590910190600101613be3565b5093949350505050565b85815284602082015260a060408201525f613c3260a0830186613bd1565b6001600160a01b0394909416606083015250608001529392505050565b5f60208284031215613c5f575f5ffd5b81516001600160401b03811115613c74575f5ffd5b8201601f81018413613c84575f5ffd5b8051613c9261370182613af4565b8082825260208201915060208360051b850101925086831115613cb3575f5ffd5b6020840193505b8284101561014b578351825260209384019390910190613cba565b5f60208284031215613ce5575f5ffd5b815161106081613779565b5f5f60408385031215613d01575f5ffd5b505080516020909101519092909150565b5f5f5f60608486031215613d24575f5ffd5b8351613d2f81613779565b60208501519093506001600160401b03811115613d4a575f5ffd5b8401601f81018613613d5a575f5ffd5b8051613d6861370182613af4565b8082825260208201915060208360051b850101925088831115613d89575f5ffd5b602084015b83811015613e2f5780516001600160401b03811115613dab575f5ffd5b850160a0818c03601f19011215613dc0575f5ffd5b613dc861366c565b6020828101518252604080840151918301919091526060808401519183019190915260808301519082015260a08201516001600160401b03811115613e0b575f5ffd5b613e1a8d602083860101613972565b60808301525084525060209283019201613d8e565b508095505050505060408401516001600160401b03811115613e4f575f5ffd5b613e5b86828701613b16565b9150509250925092565b808201808211156116955761169561394b565b5f8151808452602084019350602083015f5b82811015613c0a578151865260209586019590910190600101613e8a565b5f610120820160028910613eca57634e487b7160e01b5f52602160045260245ffd5b8883526101206020840152808851808352610140850191506101408160051b860101925060208a015f5b82811015613f5b5761013f198786030184528151805186526020810151602087015260408101516040870152606081015160608701526080810151905060a06080870152613f4560a0870182613a17565b9550506020938401939190910190600101613ef4565b505050508281036040840152613f718188613bd1565b86516001600160a01b03908116606086810191909152602089015115156080870152604089015190911660a0860152870151151560c0850152905082810360e0840152613fbe8186613e78565b91505082610100830152979650505050505050565b8082025f8212600160ff1b84141615613fee57613fee61394b565b81810583148215176116955761169561394b565b5f6040828403128015614013575f5ffd5b50604080519081016001600160401b038111828210171561403657614036613630565b604052825161404481613779565b8152602083015161405481613779565b60208201529392505050565b5f60208284031215614070575f5ffd5b815160ff81168114611060575f5ffd5b6001815b60018411156140bb5780850481111561409f5761409f61394b565b60018416156140ad57908102905b60019390931c928002614084565b935093915050565b5f826140d157506001611695565b816140dd57505f611695565b81600181146140f357600281146140fd57614119565b6001915050611695565b60ff84111561410e5761410e61394b565b50506001821b611695565b5060208310610133831016604e8410600b841016171561413c575081810a611695565b6141485f198484614080565b805f190482111561415b5761415b61394b565b029392505050565b5f61106083836140c3565b80820281158282048414176116955761169561394b565b5f8261419f57634e487b7160e01b5f52601260045260245ffd5b500490565b8051801515811461379b575f5ffd5b5f5f5f606084860312156141c5575f5ffd5b83516141d081613779565b60208501519093506141e181613779565b91506141ef604085016141a4565b90509250925092565b838152826020820152606060408201525f6101186060830184613a17565b5f5f60408385031215614227575f5ffd5b825161423281613779565b9150614240602084016141a4565b90509250929050565b5f5f5f6060848603121561425b575f5ffd5b835161426681613779565b60208501519093506001600160401b03811115614281575f5ffd5b61428d86828701613b16565b92505060408401516001600160401b03811115613e4f575f5ffd5b86815285602082015260c060408201525f6142c660c0830187613bd1565b82810360608401526142d88187613bd1565b6001600160a01b03959095166080840152505060a00152949350505050565b5f5f60408385031215614308575f5ffd5b825161431381613779565b60208401519092506001600160401b0381111561432e575f5ffd5b61376f85828601613972565b5f5f6040838503121561434b575f5ffd5b825161435681613779565b602084015190925061436781613779565b809150509250929050565b6001600160a01b0386811682528581166020830152841660408201526060810183905260a0608082018190525f906143ac90830184613a17565b979650505050505050565b5f602082840312156143c7575f5ffd5b611060826141a456fea264697066735822122062361c9c6b320588f988371a3871a0490459799b70605d4fdccfdcfa672996a664736f6c634300081c0033",
  "linkReferences": {},
  "deployedLinkReferences": {}
}