{
  "_format": "hh-sol-artifact-1",
  "contractName": "AvalancheBridgeAdapter",
  "sourceName": "contracts/src/transformers/bridges/AvalancheBridgeAdapter.sol",
  "abi": [
    {
      "inputs": [
        {
          "internalType": "contract IEtherToken",
          "name": "weth",
          "type": "address"
        }
      ],
      "stateMutability": "nonpayable",
      "type": "constructor"
    },
    {
      "anonymous": false,
      "inputs": [
        {
          "indexed": false,
          "internalType": "bytes32",
          "name": "source",
          "type": "bytes32"
        },
        {
          "indexed": false,
          "internalType": "contract IERC20Token",
          "name": "inputToken",
          "type": "address"
        },
        {
          "indexed": false,
          "internalType": "contract IERC20Token",
          "name": "outputToken",
          "type": "address"
        },
        {
          "indexed": false,
          "internalType": "uint256",
          "name": "inputTokenAmount",
          "type": "uint256"
        },
        {
          "indexed": false,
          "internalType": "uint256",
          "name": "outputTokenAmount",
          "type": "uint256"
        }
      ],
      "name": "BridgeFill",
      "type": "event"
    },
    {
      "inputs": [
        {
          "internalType": "contract IERC20Token",
          "name": "buyToken",
          "type": "address"
        },
        {
          "internalType": "uint256",
          "name": "sellAmount",
          "type": "uint256"
        },
        {
          "internalType": "bytes",
          "name": "bridgeData",
          "type": "bytes"
        }
      ],
      "name": "_tradeGMX",
      "outputs": [
        {
          "internalType": "uint256",
          "name": "boughtAmount",
          "type": "uint256"
        }
      ],
      "stateMutability": "nonpayable",
      "type": "function"
    },
    {
      "inputs": [
        {
          "internalType": "contract IERC20Token",
          "name": "buyToken",
          "type": "address"
        },
        {
          "internalType": "uint256",
          "name": "sellAmount",
          "type": "uint256"
        },
        {
          "internalType": "bytes",
          "name": "bridgeData",
          "type": "bytes"
        }
      ],
      "name": "_tradePlatypus",
      "outputs": [
        {
          "internalType": "uint256",
          "name": "boughtAmount",
          "type": "uint256"
        }
      ],
      "stateMutability": "nonpayable",
      "type": "function"
    },
    {
      "inputs": [
        {
          "internalType": "contract IERC20Token",
          "name": "sellToken",
          "type": "address"
        },
        {
          "internalType": "contract IERC20Token",
          "name": "buyToken",
          "type": "address"
        },
        {
          "internalType": "uint256",
          "name": "sellAmount",
          "type": "uint256"
        },
        {
          "internalType": "bytes",
          "name": "bridgeData",
          "type": "bytes"
        }
      ],
      "name": "_tradeWOOFi",
      "outputs": [
        {
          "internalType": "uint256",
          "name": "boughtAmount",
          "type": "uint256"
        }
      ],
      "stateMutability": "nonpayable",
      "type": "function"
    },
    {
      "inputs": [
        {
          "internalType": "bytes32",
          "name": "source",
          "type": "bytes32"
        }
      ],
      "name": "isSupportedSource",
      "outputs": [
        {
          "internalType": "bool",
          "name": "isSupported",
          "type": "bool"
        }
      ],
      "stateMutability": "nonpayable",
      "type": "function"
    },
    {
      "inputs": [
        {
          "components": [
            {
              "internalType": "bytes32",
              "name": "source",
              "type": "bytes32"
            },
            {
              "internalType": "uint256",
              "name": "takerTokenAmount",
              "type": "uint256"
            },
            {
              "internalType": "uint256",
              "name": "makerTokenAmount",
              "type": "uint256"
            },
            {
              "internalType": "bytes",
              "name": "bridgeData",
              "type": "bytes"
            }
          ],
          "internalType": "struct IBridgeAdapter.BridgeOrder",
          "name": "order",
          "type": "tuple"
        },
        {
          "internalType": "contract IERC20Token",
          "name": "sellToken",
          "type": "address"
        },
        {
          "internalType": "contract IERC20Token",
          "name": "buyToken",
          "type": "address"
        },
        {
          "internalType": "uint256",
          "name": "sellAmount",
          "type": "uint256"
        }
      ],
      "name": "trade",
      "outputs": [
        {
          "internalType": "uint256",
          "name": "boughtAmount",
          "type": "uint256"
        }
      ],
      "stateMutability": "nonpayable",
      "type": "function"
    }
  ],
  "bytecode": "0x60a060405234801561000f575f5ffd5b50604051613be5380380613be583398101604081905261002e916100f7565b6040805180820190915260098152684176616c616e63686560b81b6020820152819061a86a90465f610539821480610067575081617a69145b806100725750816005145b8061007f57508162013881145b8061008c57508162014a33145b905083821415801561009c575080155b156100e157826040516020016100b29190610124565b60408051601f198184030181529082905262461bcd60e51b82526100d89160040161016f565b60405180910390fd5b505050506001600160a01b0316608052506101a4565b5f60208284031215610107575f5ffd5b81516001600160a01b038116811461011d575f5ffd5b9392505050565b5f82518060208501845e7f427269646765416461707465722e636f6e7374727563746f723a2077726f6e67920191825250680818da185a5b88125160ba1b6020820152602901919050565b602081525f82518060208401528060208501604085015e5f604082850101526040601f19601f83011684010191505092915050565b608051613a146101d15f395f8181611036015281816110b90152818161131001526113660152613a145ff3fe608060405234801561000f575f5ffd5b5060043610610064575f3560e01c8063ca0dfe891161004d578063ca0dfe89146100b1578063e8275c82146100c4578063f712a148146100d7575f5ffd5b806302d2734f1461006857806360574bd214610090575b5f5ffd5b61007b610076366004612c42565b6100ea565b60405190151581526020015b60405180910390f35b6100a361009e366004612dc9565b61012e565b604051908152602001610087565b6100a36100bf366004612dc9565b6104d4565b6100a36100d2366004612e1e565b61084c565b6100a36100e5366004612e86565b6109e6565b5f61011360405180608001604052805f81526020015f81526020015f8152602001606081525090565b8281525f6101258282808060016109fe565b95945050505050565b5f5f5f5f60605f60608780602001905181019061014b9190612fc0565b805193995091975095509350839150600211156101ef576040517f08c379a000000000000000000000000000000000000000000000000000000000815260206004820152602960248201527f4d6978696e474d582f504154485f4c454e4754485f4d5553545f42455f41545f60448201527f4c454153545f54574f000000000000000000000000000000000000000000000060648201526084015b60405180910390fd5b8973ffffffffffffffffffffffffffffffffffffffff1681600183516102159190613055565b815181106102255761022561306e565b602002602001015173ffffffffffffffffffffffffffffffffffffffff16146102d0576040517f08c379a000000000000000000000000000000000000000000000000000000000815260206004820152603560248201527f4d6978696e474d582f4c4153545f454c454d454e545f4f465f504154485f4d5560448201527f53545f4d415443485f4f55545055545f544f4b454e000000000000000000000060648201526084016101e6565b859150610317828a835f815181106102ea576102ea61306e565b602002602001015173ffffffffffffffffffffffffffffffffffffffff16610f4e9092919063ffffffff16565b6040517f70a082310000000000000000000000000000000000000000000000000000000081523060048201525f9073ffffffffffffffffffffffffffffffffffffffff8c16906370a0823190602401602060405180830381865afa158015610381573d5f5f3e3d5ffd5b505050506040513d601f19601f820116820180604052508101906103a5919061309b565b6040517f6023e96600000000000000000000000000000000000000000000000000000000815290915073ffffffffffffffffffffffffffffffffffffffff841690636023e966906104009087908e905f903090600401613102565b5f604051808303815f87803b158015610417575f5ffd5b505af1158015610429573d5f5f3e3d5ffd5b50506040517f70a0823100000000000000000000000000000000000000000000000000000000815230600482015283925073ffffffffffffffffffffffffffffffffffffffff8e1691506370a0823190602401602060405180830381865afa158015610497573d5f5f3e3d5ffd5b505050506040513d601f19601f820116820180604052508101906104bb919061309b565b6104c59190613055565b9b9a5050505050505050505050565b5f5f5f6060806060868060200190518101906104f09190613146565b8051929750879650909450925082915060021115610590576040517f08c379a000000000000000000000000000000000000000000000000000000000815260206004820152602e60248201527f4d6978696e506c6174797075732f504154485f4c454e4754485f4d5553545f4260448201527f455f41545f4c454153545f54574f00000000000000000000000000000000000060648201526084016101e6565b8873ffffffffffffffffffffffffffffffffffffffff1682600184516105b69190613055565b815181106105c6576105c661306e565b602002602001015173ffffffffffffffffffffffffffffffffffffffff1614610671576040517f08c379a000000000000000000000000000000000000000000000000000000000815260206004820152603a60248201527f4d6978696e506c6174797075732f4c4153545f454c454d454e545f4f465f504160448201527f54485f4d5553545f4d415443485f4f55545055545f544f4b454e00000000000060648201526084016101e6565b6106888589845f815181106102ea576102ea61306e565b6040517f70a082310000000000000000000000000000000000000000000000000000000081523060048201525f9073ffffffffffffffffffffffffffffffffffffffff8b16906370a0823190602401602060405180830381865afa1580156106f2573d5f5f3e3d5ffd5b505050506040513d601f19601f82011682018060405250810190610716919061309b565b905073ffffffffffffffffffffffffffffffffffffffff86166321579b7983868c5f306107444260016131b3565b6040518763ffffffff1660e01b8152600401610765969594939291906131c6565b60408051808303815f875af1158015610780573d5f5f3e3d5ffd5b505050506040513d601f19601f820116820180604052508101906107a49190613226565b50506040517f70a08231000000000000000000000000000000000000000000000000000000008152306004820152819073ffffffffffffffffffffffffffffffffffffffff8c16906370a0823190602401602060405180830381865afa158015610810573d5f5f3e3d5ffd5b505050506040513d601f19601f82011682018060405250810190610834919061309b565b61083e9190613055565b9a9950505050505050505050565b5f5f828060200190518101906108629190613248565b6040517f70a082310000000000000000000000000000000000000000000000000000000081523060048201529091505f9073ffffffffffffffffffffffffffffffffffffffff8716906370a0823190602401602060405180830381865afa1580156108cf573d5f5f3e3d5ffd5b505050506040513d601f19601f820116820180604052508101906108f3919061309b565b905061091673ffffffffffffffffffffffffffffffffffffffff88168387610f4e565b6040517f7dc2038200000000000000000000000000000000000000000000000000000000815273ffffffffffffffffffffffffffffffffffffffff88811660048301528781166024830152604482018790525f606483015230608483015273bfdcbb4c05843163f491c24f9c0019c51078630460a4830152831690637dc203829060c4015b6020604051808303815f875af11580156109b7573d5f5f3e3d5ffd5b505050506040513d601f19601f820116820180604052508101906109db919061309b565b979650505050505050565b5f6109f4858585855f6109fe565b5095945050505050565b84515f90819060801c7fffffffffffffffffffffffffffffffffffffffffffffffffffffffffffffffff8101610a58578315610a41575f60019250925050610f44565b610a518787878b6060015161101b565b9250610edd565b7fffffffffffffffffffffffffffffffffffffffffffffffffffffffffffffffec6fffffffffffffffffffffffffffffffff821601610ab4578315610aa4575f60019250925050610f44565b610a518787878b6060015161148a565b7ffffffffffffffffffffffffffffffffffffffffffffffffffffffffffffffffe6fffffffffffffffffffffffffffffffff821601610b0f578315610b00575f60019250925050610f44565b610a5186868a6060015161172a565b7fffffffffffffffffffffffffffffffffffffffffffffffffffffffffffffffee6fffffffffffffffffffffffffffffffff821601610b6a578315610b5b575f60019250925050610f44565b610a5187868a606001516119c6565b7ffffffffffffffffffffffffffffffffffffffffffffffffffffffffffffffff16fffffffffffffffffffffffffffffffff821601610bc5578315610bb6575f60019250925050610f44565b610a5187868a60600151611b88565b7fffffffffffffffffffffffffffffffffffffffffffffffffffffffffffffffed6fffffffffffffffffffffffffffffffff821601610c20578315610c11575f60019250925050610f44565b610a5186868a60600151611d0d565b7fffffffffffffffffffffffffffffffffffffffffffffffffffffffffffffffdf6fffffffffffffffffffffffffffffffff821601610c7b578315610c6c575f60019250925050610f44565b610a5187868a60600151612049565b7fffffffffffffffffffffffffffffffffffffffffffffffffffffffffffffffe96fffffffffffffffffffffffffffffffff821601610cd7578315610cc7575f60019250925050610f44565b610a518787878b60600151612146565b7fffffffffffffffffffffffffffffffffffffffffffffffffffffffffffffffe66fffffffffffffffffffffffffffffffff821601610d32578315610d23575f60019250925050610f44565b610a5186868a6060015161012e565b7fffffffffffffffffffffffffffffffffffffffffffffffffffffffffffffffe56fffffffffffffffffffffffffffffffff821601610d8d578315610d7e575f60019250925050610f44565b610a5186868a606001516104d4565b7fffffffffffffffffffffffffffffffffffffffffffffffffffffffffffffffdd6fffffffffffffffffffffffffffffffff821601610de8578315610dd9575f60019250925050610f44565b610a5186868a606001516123b1565b7fffffffffffffffffffffffffffffffffffffffffffffffffffffffffffffffe16fffffffffffffffffffffffffffffffff821601610e44578315610e34575f60019250925050610f44565b610a518787878b6060015161084c565b6fffffffffffffffffffffffffffffffff8116610e7e578315610e6e575f60019250925050610f44565b610a518787878b60600151612790565b7fffffffffffffffffffffffffffffffffffffffffffffffffffffffffffffffe06fffffffffffffffffffffffffffffffff821601610edd578315610eca575f60019250925050610f44565b610eda8787878b60600151612828565b92505b87516040805191825273ffffffffffffffffffffffffffffffffffffffff89811660208401528816828201526060820187905260808201859052517fe59e71a14fe90157eedc866c4f8c767d3943d6b6b2e8cd64dddcc92ab4c55af89181900360a00190a1505b9550959350505050565b6040517fdd62ed3e00000000000000000000000000000000000000000000000000000000815230600482015273ffffffffffffffffffffffffffffffffffffffff838116602483015282919085169063dd62ed3e90604401602060405180830381865afa158015610fc1573d5f5f3e3d5ffd5b505050506040513d601f19601f82011682018060405250810190610fe5919061309b565b10156110165761101683837fffffffffffffffffffffffffffffffffffffffffffffffffffffffffffffffff612a1b565b505050565b5f5f828060200190518101906110319190613301565b90505f7f000000000000000000000000000000000000000000000000000000000000000073ffffffffffffffffffffffffffffffffffffffff168773ffffffffffffffffffffffffffffffffffffffff160361112a57506040517f2e1a7d4d0000000000000000000000000000000000000000000000000000000081526004810185905284907f000000000000000000000000000000000000000000000000000000000000000073ffffffffffffffffffffffffffffffffffffffff1690632e1a7d4d906024015f604051808303815f87803b15801561110f575f5ffd5b505af1158015611121573d5f5f3e3d5ffd5b5050505061114e565b815161114e9073ffffffffffffffffffffffffffffffffffffffff89169087610f4e565b6040517f70a082310000000000000000000000000000000000000000000000000000000081523060048201525f9073ffffffffffffffffffffffffffffffffffffffff8816906370a0823190602401602060405180830381865afa1580156111b8573d5f5f3e3d5ffd5b505050506040513d601f19601f820116820180604052508101906111dc919061309b565b8351602085015160408087015160608801519151600f91820b602482015291900b6044820152606481018a9052600160848201529293505f92839273ffffffffffffffffffffffffffffffffffffffff1691869160a401604080517fffffffffffffffffffffffffffffffffffffffffffffffffffffffffffffffe08184030181529181526020820180517bffffffffffffffffffffffffffffffffffffffffffffffffffffffff167fffffffff000000000000000000000000000000000000000000000000000000009094169390931790925290516112bc919061331b565b5f6040518083038185875af1925050503d805f81146112f6576040519150601f19603f3d011682016040523d82523d5f602084013e6112fb565b606091505b50915091508161130e5761130e81612aa6565b7f000000000000000000000000000000000000000000000000000000000000000073ffffffffffffffffffffffffffffffffffffffff168973ffffffffffffffffffffffffffffffffffffffff16036113e2574795507f000000000000000000000000000000000000000000000000000000000000000073ffffffffffffffffffffffffffffffffffffffff1663d0e30db0876040518263ffffffff1660e01b81526004015f604051808303818588803b1580156113ca575f5ffd5b505af11580156113dc573d5f5f3e3d5ffd5b50505050505b6040517f70a08231000000000000000000000000000000000000000000000000000000008152306004820152839073ffffffffffffffffffffffffffffffffffffffff8b16906370a0823190602401602060405180830381865afa15801561144c573d5f5f3e3d5ffd5b505050506040513d601f19601f82011682018060405250810190611470919061309b565b61147a9190613055565b955050505050505b949350505050565b5f5f828060200190518101906114a09190613301565b80519091506114c79073ffffffffffffffffffffffffffffffffffffffff88169086610f4e565b6040517f70a082310000000000000000000000000000000000000000000000000000000081523060048201525f9073ffffffffffffffffffffffffffffffffffffffff8716906370a0823190602401602060405180830381865afa158015611531573d5f5f3e3d5ffd5b505050506040513d601f19601f82011682018060405250810190611555919061309b565b8251602084015160408086015160608701519151600f91820b602482015291900b604482015260648101899052600160848201529293505f92839273ffffffffffffffffffffffffffffffffffffffff16919060a401604080517fffffffffffffffffffffffffffffffffffffffffffffffffffffffffffffffe08184030181529181526020820180517bffffffffffffffffffffffffffffffffffffffffffffffffffffffff167fffffffff00000000000000000000000000000000000000000000000000000000909416939093179092529051611634919061331b565b5f604051808303815f865af19150503d805f811461166d576040519150601f19603f3d011682016040523d82523d5f602084013e611672565b606091505b5091509150816116855761168581612aa6565b6040517f70a08231000000000000000000000000000000000000000000000000000000008152306004820152839073ffffffffffffffffffffffffffffffffffffffff8a16906370a0823190602401602060405180830381865afa1580156116ef573d5f5f3e3d5ffd5b505050506040513d601f19601f82011682018060405250810190611713919061309b565b61171d9190613055565b9998505050505050505050565b5f5f606080848060200190518101906117439190613331565b805191945092506002111590506117dc576040517f08c379a000000000000000000000000000000000000000000000000000000000815260206004820152602f60248201527f4d6978696e556e697377617056322f504154485f4c454e4754485f4d5553545f60448201527f42455f41545f4c454153545f54574f000000000000000000000000000000000060648201526084016101e6565b8573ffffffffffffffffffffffffffffffffffffffff1681600183516118029190613055565b815181106118125761181261306e565b602002602001015173ffffffffffffffffffffffffffffffffffffffff16146118bd576040517f08c379a000000000000000000000000000000000000000000000000000000000815260206004820152603b60248201527f4d6978696e556e697377617056322f4c4153545f454c454d454e545f4f465f5060448201527f4154485f4d5553545f4d415443485f4f55545055545f544f4b454e000000000060648201526084016101e6565b6118d48286835f815181106102ea576102ea61306e565b6040517f38ed17390000000000000000000000000000000000000000000000000000000081525f9073ffffffffffffffffffffffffffffffffffffffff8416906338ed17399061193190899060019087903090429060040161337f565b5f604051808303815f875af115801561194c573d5f5f3e3d5ffd5b505050506040513d5f823e601f3d9081017fffffffffffffffffffffffffffffffffffffffffffffffffffffffffffffffe01682016040526119919190810190613422565b905080600182516119a29190613055565b815181106119b2576119b261306e565b602002602001015193505050509392505050565b5f5f5f5f848060200190518101906119de91906134a1565b91945092509050611a0673ffffffffffffffffffffffffffffffffffffffff88168488610f4e565b80600214611acb576040805160a0810182528381523060208201524281830152606081018890526001608082015290517fc04b8d5900000000000000000000000000000000000000000000000000000000815273ffffffffffffffffffffffffffffffffffffffff85169163c04b8d5991611a8491906004016135a4565b6020604051808303815f875af1158015611aa0573d5f5f3e3d5ffd5b505050506040513d601f19601f82011682018060405250810190611ac4919061309b565b9350611b7e565b604080516080810182528381523060208201528082018890526001606082015290517fb858183f00000000000000000000000000000000000000000000000000000000815273ffffffffffffffffffffffffffffffffffffffff85169163b858183f91611b3b91906004016135b6565b6020604051808303815f875af1158015611b57573d5f5f3e3d5ffd5b505050506040513d601f19601f82011682018060405250810190611b7b919061309b565b93505b5050509392505050565b5f5f82806020019051810190611b9e9190613301565b8051909150611bc59073ffffffffffffffffffffffffffffffffffffffff87169086610f4e565b8051602082015160408084015160608501519151600f91820b602482015291900b604482015260648101879052600160848201524260a48201525f92839273ffffffffffffffffffffffffffffffffffffffff9091169160c401604080517fffffffffffffffffffffffffffffffffffffffffffffffffffffffffffffffe08184030181529181526020820180517bffffffffffffffffffffffffffffffffffffffffffffffffffffffff167fffffffff00000000000000000000000000000000000000000000000000000000909416939093179092529051611ca8919061331b565b5f604051808303815f865af19150503d805f8114611ce1576040519150601f19603f3d011682016040523d82523d5f602084013e611ce6565b606091505b509150915081611cf957611cf981612aa6565b80806020019051810190611b7b919061309b565b5f5f60608084806020019051810190611d269190613146565b8151929550909350915060011115611dc0576040517f08c379a000000000000000000000000000000000000000000000000000000000815260206004820152602f60248201527f4d6978696e4b79626572446d6d2f504f4f4c535f4c454e4754485f4d5553545f60448201527f42455f41545f4c454153545f4f4e45000000000000000000000000000000000060648201526084016101e6565b8151611dcd9060016131b3565b815114611e5c576040517f08c379a000000000000000000000000000000000000000000000000000000000815260206004820152602360248201527f4d6978696e4b79626572446d6d2f41525241595f4c454e4754485f4d49534d4160448201527f544348000000000000000000000000000000000000000000000000000000000060648201526084016101e6565b8673ffffffffffffffffffffffffffffffffffffffff168160018351611e829190613055565b81518110611e9257611e9261306e565b602002602001015173ffffffffffffffffffffffffffffffffffffffff1614611f3d576040517f08c379a000000000000000000000000000000000000000000000000000000000815260206004820152603a60248201527f4d6978696e4b79626572446d6d2f4c4153545f454c454d454e545f4f465f504160448201527f54485f4d5553545f4d415443485f4f55545055545f544f4b454e00000000000060648201526084016101e6565b611f548387835f815181106102ea576102ea61306e565b6040517fceb757d50000000000000000000000000000000000000000000000000000000081525f9073ffffffffffffffffffffffffffffffffffffffff85169063ceb757d590611fb3908a906001908890889030904290600401613611565b5f604051808303815f875af1158015611fce573d5f5f3e3d5ffd5b505050506040513d5f823e601f3d9081017fffffffffffffffffffffffffffffffffffffffffffffffffffffffffffffffe01682016040526120139190810190613422565b905080600182516120249190613055565b815181106120345761203461306e565b60200260200101519450505050509392505050565b5f5f5f83806020019051810190612060919061366d565b909250905061208673ffffffffffffffffffffffffffffffffffffffff87168387610f4e565b6040805160a0810182528281523060208201524281830152606081018790526001608082015290517f5d946c2500000000000000000000000000000000000000000000000000000000815273ffffffffffffffffffffffffffffffffffffffff841691635d946c25916120fc91906004016135a4565b6020604051808303815f875af1158015612118573d5f5f3e3d5ffd5b505050506040513d601f19601f8201168201806040525081019061213c919061309b565b9695505050505050565b5f5f5f8380602001905181019061215d91906136b1565b909250905061218373ffffffffffffffffffffffffffffffffffffffff88168387610f4e565b8073ffffffffffffffffffffffffffffffffffffffff168673ffffffffffffffffffffffffffffffffffffffff1603612250576040517fe8eda9df00000000000000000000000000000000000000000000000000000000815273ffffffffffffffffffffffffffffffffffffffff8881166004830152602482018790523060448301525f606483015283169063e8eda9df906084015b5f604051808303815f87803b158015612230575f5ffd5b505af1158015612242573d5f5f3e3d5ffd5b505050508492505050611482565b8073ffffffffffffffffffffffffffffffffffffffff168773ffffffffffffffffffffffffffffffffffffffff1603612329576040517f69328dec00000000000000000000000000000000000000000000000000000000815273ffffffffffffffffffffffffffffffffffffffff8781166004830152602482018790523060448301528316906369328dec906064015b6020604051808303815f875af11580156122fc573d5f5f3e3d5ffd5b505050506040513d601f19601f82011682018060405250810190612320919061309b565b92505050611482565b6040517f08c379a000000000000000000000000000000000000000000000000000000000815260206004820152602260248201527f4d6978696e4161766556322f554e535550504f525445445f544f4b454e5f504160448201527f495200000000000000000000000000000000000000000000000000000000000060648201526084016101e6565b5f5f606080606080868060200190518101906123cd91906136e9565b82519398509196509450925060021115905061246b576040517f08c379a000000000000000000000000000000000000000000000000000000000815260206004820152603160248201527f4d6978696e5472616465724a6f6556322f504154485f4c454e4754485f4d555360448201527f545f42455f41545f4c454153545f54574f00000000000000000000000000000060648201526084016101e6565b81516124789060016131b3565b83511461252d576040517f08c379a000000000000000000000000000000000000000000000000000000000815260206004820152604e60248201527f4d6978696e5472616465724a6f6556322f504149525f42494e5f53544550535f60448201527f4c454e4754485f4d5553545f42455f4f4e455f4c4553535f5448414e5f544f4b60648201527f454e5f504154485f4c454e475448000000000000000000000000000000000000608482015260a4016101e6565b81518151146125e4576040517f08c379a000000000000000000000000000000000000000000000000000000000815260206004820152604760248201527f4d6978696e5472616465724a6f6556322f56455253494f4e535f4c454e47544860448201527f5f4d5553545f42455f455155414c5f544f5f504149525f42494e5f535445505360648201527f5f4c454e47544800000000000000000000000000000000000000000000000000608482015260a4016101e6565b8773ffffffffffffffffffffffffffffffffffffffff16836001855161260a9190613055565b8151811061261a5761261a61306e565b602002602001015173ffffffffffffffffffffffffffffffffffffffff16146126c5576040517f08c379a000000000000000000000000000000000000000000000000000000000815260206004820152603d60248201527f4d6978696e5472616465724a6f6556322f4c4153545f454c454d454e545f4f4660448201527f5f504154485f4d5553545f4d415443485f4f55545055545f544f4b454e00000060648201526084016101e6565b6126dc8488855f815181106102ea576102ea61306e565b604080516060810182528381526020810183905280820185905290517f2a443fae00000000000000000000000000000000000000000000000000000000815273ffffffffffffffffffffffffffffffffffffffff861690632a443fae90612750908b906001908690309042906004016137ee565b6020604051808303815f875af115801561276c573d5f5f3e3d5ffd5b505050506040513d601f19601f8201168201806040525081019061171d919061309b565b5f5f5f838060200190518101906127a7919061366d565b90925090506127cd73ffffffffffffffffffffffffffffffffffffffff88168387612aae565b6040517f65d02b0400000000000000000000000000000000000000000000000000000000815273ffffffffffffffffffffffffffffffffffffffff8316906365d02b049061099b908a908a9030906001908890600401613953565b5f5f5f8380602001905181019061283f91906136b1565b909250905061286573ffffffffffffffffffffffffffffffffffffffff88168387610f4e565b8073ffffffffffffffffffffffffffffffffffffffff168673ffffffffffffffffffffffffffffffffffffffff16036128ff576040517f617ba03700000000000000000000000000000000000000000000000000000000815273ffffffffffffffffffffffffffffffffffffffff8881166004830152602482018790523060448301525f606483015283169063617ba03790608401612219565b8073ffffffffffffffffffffffffffffffffffffffff168773ffffffffffffffffffffffffffffffffffffffff1603612993576040517f69328dec00000000000000000000000000000000000000000000000000000000815273ffffffffffffffffffffffffffffffffffffffff8781166004830152602482018790523060448301528316906369328dec906064016122e0565b6040517f08c379a000000000000000000000000000000000000000000000000000000000815260206004820152602260248201527f4d6978696e4161766556332f554e535550504f525445445f544f4b454e5f504160448201527f495200000000000000000000000000000000000000000000000000000000000060648201526084016101e6565b60405173ffffffffffffffffffffffffffffffffffffffff8381166024830152604482018390525f919085169063095ea7b3906064015b604051602081830303815290604052915060e01b6020820180517bffffffffffffffffffffffffffffffffffffffffffffffffffffffff83818316178352505050509050612aa08482612ae9565b50505050565b805160208201fd5b60405173ffffffffffffffffffffffffffffffffffffffff8381166024830152604482018390525f919085169063a9059cbb90606401612a52565b5f5f8373ffffffffffffffffffffffffffffffffffffffff1683604051612b10919061331b565b5f604051808303815f865af19150503d805f8114612b49576040519150601f19603f3d011682016040523d82523d5f602084013e612b4e565b606091505b509150915081612b6157612b6181612aa6565b80515f03612c0f575f8473ffffffffffffffffffffffffffffffffffffffff163b11612aa0576040517f08c379a000000000000000000000000000000000000000000000000000000000815260206004820152602760248201527f696e76616c696420746f6b656e20616464726573732c20636f6e7461696e732060448201527f6e6f20636f64650000000000000000000000000000000000000000000000000060648201526084016101e6565b6020815110612c395780806020019051810190612c2c91906139bf565b612c3957612c3981612aa6565b612aa081612aa6565b5f60208284031215612c52575f5ffd5b5035919050565b73ffffffffffffffffffffffffffffffffffffffff81168114612c7a575f5ffd5b50565b8035612c8881612c59565b919050565b7f4e487b71000000000000000000000000000000000000000000000000000000005f52604160045260245ffd5b6040516080810167ffffffffffffffff81118282101715612cdd57612cdd612c8d565b60405290565b604051601f82017fffffffffffffffffffffffffffffffffffffffffffffffffffffffffffffffe016810167ffffffffffffffff81118282101715612d2a57612d2a612c8d565b604052919050565b5f67ffffffffffffffff821115612d4b57612d4b612c8d565b50601f017fffffffffffffffffffffffffffffffffffffffffffffffffffffffffffffffe01660200190565b5f82601f830112612d86575f5ffd5b8135612d99612d9482612d32565b612ce3565b818152846020838601011115612dad575f5ffd5b816020850160208301375f918101602001919091529392505050565b5f5f5f60608486031215612ddb575f5ffd5b8335612de681612c59565b925060208401359150604084013567ffffffffffffffff811115612e08575f5ffd5b612e1486828701612d77565b9150509250925092565b5f5f5f5f60808587031215612e31575f5ffd5b8435612e3c81612c59565b93506020850135612e4c81612c59565b925060408501359150606085013567ffffffffffffffff811115612e6e575f5ffd5b612e7a87828801612d77565b91505092959194509250565b5f5f5f5f60808587031215612e99575f5ffd5b843567ffffffffffffffff811115612eaf575f5ffd5b850160808188031215612ec0575f5ffd5b612ec8612cba565b813581526020808301359082015260408083013590820152606082013567ffffffffffffffff811115612ef9575f5ffd5b612f0589828501612d77565b6060830152509450612f1b905060208601612c7d565b9250612f2960408601612c7d565b9396929550929360600135925050565b5f67ffffffffffffffff821115612f5257612f52612c8d565b5060051b60200190565b5f82601f830112612f6b575f5ffd5b8151612f79612d9482612f39565b8082825260208201915060208360051b860101925085831115612f9a575f5ffd5b602085015b838110156109f4578051612fb281612c59565b835260209283019201612f9f565b5f5f5f5f60808587031215612fd3575f5ffd5b8451612fde81612c59565b6020860151909450612fef81612c59565b604086015190935061300081612c59565b606086015190925067ffffffffffffffff81111561301c575f5ffd5b612e7a87828801612f5c565b7f4e487b71000000000000000000000000000000000000000000000000000000005f52601160045260245ffd5b8181038181111561306857613068613028565b92915050565b7f4e487b71000000000000000000000000000000000000000000000000000000005f52603260045260245ffd5b5f602082840312156130ab575f5ffd5b5051919050565b5f8151808452602084019350602083015f5b828110156130f857815173ffffffffffffffffffffffffffffffffffffffff168652602095860195909101906001016130c4565b5093949350505050565b608081525f61311460808301876130b2565b602083019590955250604081019290925273ffffffffffffffffffffffffffffffffffffffff16606090910152919050565b5f5f5f60608486031215613158575f5ffd5b835161316381612c59565b602085015190935067ffffffffffffffff81111561317f575f5ffd5b61318b86828701612f5c565b925050604084015167ffffffffffffffff8111156131a7575f5ffd5b612e1486828701612f5c565b8082018082111561306857613068613028565b60c081525f6131d860c08301896130b2565b82810360208401526131ea81896130b2565b91505085604083015284606083015273ffffffffffffffffffffffffffffffffffffffff841660808301528260a0830152979650505050505050565b5f5f60408385031215613237575f5ffd5b505080516020909101519092909150565b5f60208284031215613258575f5ffd5b815161326381612c59565b9392505050565b8051600f81900b8114612c88575f5ffd5b5f6080828403121561328b575f5ffd5b613293612cba565b905081516132a081612c59565b815260208201517fffffffff00000000000000000000000000000000000000000000000000000000811681146132d4575f5ffd5b60208201526132e56040830161326a565b60408201526132f66060830161326a565b606082015292915050565b5f60808284031215613311575f5ffd5b613263838361327b565b5f82518060208501845e5f920191825250919050565b5f5f60408385031215613342575f5ffd5b825161334d81612c59565b602084015190925067ffffffffffffffff811115613369575f5ffd5b61337585828601612f5c565b9150509250929050565b85815284602082015260a060408201525f61339d60a08301866130b2565b73ffffffffffffffffffffffffffffffffffffffff94909416606083015250608001529392505050565b5f82601f8301126133d6575f5ffd5b81516133e4612d9482612f39565b8082825260208201915060208360051b860101925085831115613405575f5ffd5b602085015b838110156109f457805183526020928301920161340a565b5f60208284031215613432575f5ffd5b815167ffffffffffffffff811115613448575f5ffd5b611482848285016133c7565b5f82601f830112613463575f5ffd5b8151613471612d9482612d32565b818152846020838601011115613485575f5ffd5b8160208501602083015e5f918101602001919091529392505050565b5f5f5f606084860312156134b3575f5ffd5b83516134be81612c59565b602085015190935067ffffffffffffffff8111156134da575f5ffd5b6134e686828701613454565b604095909501519396949550929392505050565b5f81518084528060208401602086015e5f6020828601015260207fffffffffffffffffffffffffffffffffffffffffffffffffffffffffffffffe0601f83011685010191505092915050565b5f815160a0845261355a60a08501826134fa565b905073ffffffffffffffffffffffffffffffffffffffff60208401511660208501526040830151604085015260608301516060850152608083015160808501528091505092915050565b602081525f6132636020830184613546565b602081525f8251608060208401526135d160a08401826134fa565b905073ffffffffffffffffffffffffffffffffffffffff602085015116604084015260408401516060840152606084015160808401528091505092915050565b86815285602082015260c060408201525f61362f60c08301876130b2565b828103606084015261364181876130b2565b73ffffffffffffffffffffffffffffffffffffffff959095166080840152505060a00152949350505050565b5f5f6040838503121561367e575f5ffd5b825161368981612c59565b602084015190925067ffffffffffffffff8111156136a5575f5ffd5b61337585828601613454565b5f5f604083850312156136c2575f5ffd5b82516136cd81612c59565b60208401519092506136de81612c59565b809150509250929050565b5f5f5f5f608085870312156136fc575f5ffd5b845161370781612c59565b602086015190945067ffffffffffffffff811115613723575f5ffd5b61372f87828801612f5c565b935050604085015167ffffffffffffffff81111561374b575f5ffd5b613757878288016133c7565b925050606085015167ffffffffffffffff811115613773575f5ffd5b8501601f81018713613783575f5ffd5b8051613791612d9482612f39565b8082825260208201915060208360051b8501019250898311156137b2575f5ffd5b6020840193505b828410156137e0578351600381106137cf575f5ffd5b8252602093840193909101906137b9565b969995985093965050505050565b85815284602082015260a060408201525f61010082018551606060a0850152818151808452610120860191506020830193505f92505b808310156138475783518252602082019150602084019350600183019250613824565b506020888101518683037fffffffffffffffffffffffffffffffffffffffffffffffffffffffffffffff600160c088015280518084529082019450910191505f905b808210156138e0578351600381106138c8577f4e487b71000000000000000000000000000000000000000000000000000000005f52602160045260245ffd5b83526020938401939092019160019190910190613889565b5050604087015191507fffffffffffffffffffffffffffffffffffffffffffffffffffffffffffffff608482030160e085015261391d81836130b2565b92505050613943606083018573ffffffffffffffffffffffffffffffffffffffff169052565b8260808301529695505050505050565b73ffffffffffffffffffffffffffffffffffffffff8616815273ffffffffffffffffffffffffffffffffffffffff8516602082015273ffffffffffffffffffffffffffffffffffffffff8416604082015282606082015260a060808201525f6109db60a08301846134fa565b5f602082840312156139cf575f5ffd5b81518015158114613263575f5ffdfea264697066735822122036d19ff3ba56b73e3b87eeb98da1823d6780f71f27a655d8b761073caec272fc64736f6c634300081c0033",
  "linkReferences": {},
  "deployedLinkReferences": {}
}