{
  "_format": "hh-sol-artifact-1",
  "contractName": "AvalancheBridgeAdapter",
  "sourceName": "contracts/src/transformers/bridges/AvalancheBridgeAdapter.sol",
  "abi": [
    {
      "inputs": [
        {
          "internalType": "contract IEtherToken",
          "name": "weth",
          "type": "address"
        }
      ],
      "stateMutability": "nonpayable",
      "type": "constructor"
    },
    {
      "anonymous": false,
      "inputs": [
        {
          "indexed": false,
          "internalType": "bytes32",
          "name": "source",
          "type": "bytes32"
        },
        {
          "indexed": false,
          "internalType": "contract IERC20Token",
          "name": "inputToken",
          "type": "address"
        },
        {
          "indexed": false,
          "internalType": "contract IERC20Token",
          "name": "outputToken",
          "type": "address"
        },
        {
          "indexed": false,
          "internalType": "uint256",
          "name": "inputTokenAmount",
          "type": "uint256"
        },
        {
          "indexed": false,
          "internalType": "uint256",
          "name": "outputTokenAmount",
          "type": "uint256"
        }
      ],
      "name": "BridgeFill",
      "type": "event"
    },
    {
      "inputs": [
        {
          "internalType": "contract IERC20Token",
          "name": "buyToken",
          "type": "address"
        },
        {
          "internalType": "uint256",
          "name": "sellAmount",
          "type": "uint256"
        },
        {
          "internalType": "bytes",
          "name": "bridgeData",
          "type": "bytes"
        }
      ],
      "name": "_tradeGMX",
      "outputs": [
        {
          "internalType": "uint256",
          "name": "boughtAmount",
          "type": "uint256"
        }
      ],
      "stateMutability": "nonpayable",
      "type": "function"
    },
    {
      "inputs": [
        {
          "internalType": "contract IERC20Token",
          "name": "buyToken",
          "type": "address"
        },
        {
          "internalType": "uint256",
          "name": "sellAmount",
          "type": "uint256"
        },
        {
          "internalType": "bytes",
          "name": "bridgeData",
          "type": "bytes"
        }
      ],
      "name": "_tradePlatypus",
      "outputs": [
        {
          "internalType": "uint256",
          "name": "boughtAmount",
          "type": "uint256"
        }
      ],
      "stateMutability": "nonpayable",
      "type": "function"
    },
    {
      "inputs": [
        {
          "internalType": "contract IERC20Token",
          "name": "sellToken",
          "type": "address"
        },
        {
          "internalType": "contract IERC20Token",
          "name": "buyToken",
          "type": "address"
        },
        {
          "internalType": "uint256",
          "name": "sellAmount",
          "type": "uint256"
        },
        {
          "internalType": "bytes",
          "name": "bridgeData",
          "type": "bytes"
        }
      ],
      "name": "_tradeWOOFi",
      "outputs": [
        {
          "internalType": "uint256",
          "name": "boughtAmount",
          "type": "uint256"
        }
      ],
      "stateMutability": "nonpayable",
      "type": "function"
    },
    {
      "inputs": [
        {
          "internalType": "bytes32",
          "name": "source",
          "type": "bytes32"
        }
      ],
      "name": "isSupportedSource",
      "outputs": [
        {
          "internalType": "bool",
          "name": "isSupported",
          "type": "bool"
        }
      ],
      "stateMutability": "nonpayable",
      "type": "function"
    },
    {
      "inputs": [
        {
          "components": [
            {
              "internalType": "bytes32",
              "name": "source",
              "type": "bytes32"
            },
            {
              "internalType": "uint256",
              "name": "takerTokenAmount",
              "type": "uint256"
            },
            {
              "internalType": "uint256",
              "name": "makerTokenAmount",
              "type": "uint256"
            },
            {
              "internalType": "bytes",
              "name": "bridgeData",
              "type": "bytes"
            }
          ],
          "internalType": "struct IBridgeAdapter.BridgeOrder",
          "name": "order",
          "type": "tuple"
        },
        {
          "internalType": "contract IERC20Token",
          "name": "sellToken",
          "type": "address"
        },
        {
          "internalType": "contract IERC20Token",
          "name": "buyToken",
          "type": "address"
        },
        {
          "internalType": "uint256",
          "name": "sellAmount",
          "type": "uint256"
        }
      ],
      "name": "trade",
      "outputs": [
        {
          "internalType": "uint256",
          "name": "boughtAmount",
          "type": "uint256"
        }
      ],
      "stateMutability": "nonpayable",
      "type": "function"
    }
  ],
  "bytecode": "0x60a060405234801561000f575f5ffd5b50604051612e8c380380612e8c83398101604081905261002e916100f7565b6040805180820190915260098152684176616c616e63686560b81b6020820152819061a86a90465f610539821480610067575081617a69145b806100725750816005145b8061007f57508162013881145b8061008c57508162014a33145b905083821415801561009c575080155b156100e157826040516020016100b29190610124565b60408051601f198184030181529082905262461bcd60e51b82526100d89160040161016f565b60405180910390fd5b505050506001600160a01b0316608052506101a4565b5f60208284031215610107575f5ffd5b81516001600160a01b038116811461011d575f5ffd5b9392505050565b5f82518060208501845e7f427269646765416461707465722e636f6e7374727563746f723a2077726f6e67920191825250680818da185a5b88125160ba1b6020820152602901919050565b602081525f82518060208401528060208501604085015e5f604082850101526040601f19601f83011684010191505092915050565b608051612cbb6101d15f395f8181610be101528181610c3101528181610df00152610e2c0152612cbb5ff3fe608060405234801561000f575f5ffd5b5060043610610055575f3560e01c806302d2734f1461005957806360574bd214610081578063ca0dfe89146100a2578063e8275c82146100b5578063f712a148146100c8575b5f5ffd5b61006c6100673660046120b6565b6100db565b60405190151581526020015b60405180910390f35b61009461008f3660046121d8565b61011f565b604051908152602001610078565b6100946100b03660046121d8565b6103dc565b6100946100c336600461222c565b61069e565b6100946100d6366004612293565b6107df565b5f61010460405180608001604052805f81526020015f81526020015f8152602001606081525090565b8281525f6101168282808060016107f7565b95945050505050565b5f5f5f5f60605f60608780602001905181019061013c91906123ca565b805193995091975095509350839150600211156101b25760405162461bcd60e51b815260206004820152602960248201527f4d6978696e474d582f504154485f4c454e4754485f4d5553545f42455f41545f6044820152684c454153545f54574f60b81b60648201526084015b60405180910390fd5b896001600160a01b031681600183516101cb9190612445565b815181106101db576101db61245e565b60200260200101516001600160a01b0316146102575760405162461bcd60e51b815260206004820152603560248201527f4d6978696e474d582f4c4153545f454c454d454e545f4f465f504154485f4d5560448201527429aa2fa6a0aa21a42fa7aaaa282aaa2faa27a5a2a760591b60648201526084016101a9565b859150610291828a835f815181106102715761027161245e565b60200260200101516001600160a01b0316610b3e9092919063ffffffff16565b6040516370a0823160e01b81523060048201525f906001600160a01b038c16906370a0823190602401602060405180830381865afa1580156102d5573d5f5f3e3d5ffd5b505050506040513d601f19601f820116820180604052508101906102f99190612472565b604051633011f4b360e11b81529091506001600160a01b03841690636023e9669061032e9087908e905f9030906004016124cc565b5f604051808303815f87803b158015610345575f5ffd5b505af1158015610357573d5f5f3e3d5ffd5b50506040516370a0823160e01b81523060048201528392506001600160a01b038e1691506370a0823190602401602060405180830381865afa15801561039f573d5f5f3e3d5ffd5b505050506040513d601f19601f820116820180604052508101906103c39190612472565b6103cd9190612445565b9b9a5050505050505050505050565b5f5f5f6060806060868060200190518101906103f89190612503565b805192975087965090945092508291506002111561046f5760405162461bcd60e51b815260206004820152602e60248201527f4d6978696e506c6174797075732f504154485f4c454e4754485f4d5553545f4260448201526d455f41545f4c454153545f54574f60901b60648201526084016101a9565b886001600160a01b031682600184516104889190612445565b815181106104985761049861245e565b60200260200101516001600160a01b03161461051c5760405162461bcd60e51b815260206004820152603a60248201527f4d6978696e506c6174797075732f4c4153545f454c454d454e545f4f465f504160448201527f54485f4d5553545f4d415443485f4f55545055545f544f4b454e00000000000060648201526084016101a9565b6105338589845f815181106102715761027161245e565b6040516370a0823160e01b81523060048201525f906001600160a01b038b16906370a0823190602401602060405180830381865afa158015610577573d5f5f3e3d5ffd5b505050506040513d601f19601f8201168201806040525081019061059b9190612472565b90506001600160a01b0386166321579b7983868c5f306105bc42600161256e565b6040518763ffffffff1660e01b81526004016105dd96959493929190612581565b60408051808303815f875af11580156105f8573d5f5f3e3d5ffd5b505050506040513d601f19601f8201168201806040525081019061061c91906125d4565b50506040516370a0823160e01b815230600482015281906001600160a01b038c16906370a0823190602401602060405180830381865afa158015610662573d5f5f3e3d5ffd5b505050506040513d601f19601f820116820180604052508101906106869190612472565b6106909190612445565b9a9950505050505050505050565b5f5f828060200190518101906106b491906125f6565b6040516370a0823160e01b81523060048201529091505f906001600160a01b038716906370a0823190602401602060405180830381865afa1580156106fb573d5f5f3e3d5ffd5b505050506040513d601f19601f8201168201806040525081019061071f9190612472565b90506107356001600160a01b0388168387610b3e565b604051633ee101c160e11b81526001600160a01b0388811660048301528781166024830152604482018790525f606483015230608483015273bfdcbb4c05843163f491c24f9c0019c51078630460a4830152831690637dc203829060c4015b6020604051808303815f875af11580156107b0573d5f5f3e3d5ffd5b505050506040513d601f19601f820116820180604052508101906107d49190612472565b979650505050505050565b5f6107ed858585855f6107f7565b5095945050505050565b84515f90819060801c5f19810161083257831561081b575f60019250925050610b34565b61082b8787878b60600151610bc6565b9250610ada565b6013196001600160801b03821601610867578315610857575f60019250925050610b34565b61082b8787878b60600151610f1d565b6001196001600160801b0382160161089b57831561088c575f60019250925050610b34565b61082b86868a6060015161110c565b6011196001600160801b038216016108cf5783156108c0575f60019250925050610b34565b61082b87868a60600151611308565b600e196001600160801b038216016109035783156108f4575f60019250925050610b34565b61082b87868a60600151611471565b6012196001600160801b03821601610937578315610928575f60019250925050610b34565b61082b86868a60600151611591565b6020196001600160801b0382160161096b57831561095c575f60019250925050610b34565b61082b87868a606001516117f9565b6016196001600160801b038216016109a0578315610990575f60019250925050610b34565b61082b8787878b606001516118c3565b6019196001600160801b038216016109d45783156109c5575f60019250925050610b34565b61082b86868a6060015161011f565b601a196001600160801b03821601610a085783156109f9575f60019250925050610b34565b61082b86868a606001516103dc565b6022196001600160801b03821601610a3c578315610a2d575f60019250925050610b34565b61082b86868a60600151611a6c565b601e196001600160801b03821601610a71578315610a61575f60019250925050610b34565b61082b8787878b6060015161069e565b6001600160801b038116610aa2578315610a92575f60019250925050610b34565b61082b8787878b60600151611d72565b601f196001600160801b03821601610ada578315610ac7575f60019250925050610b34565b610ad78787878b60600151611dd7565b92505b8751604080519182526001600160a01b0389811660208401528816828201526060820187905260808201859052517fe59e71a14fe90157eedc866c4f8c767d3943d6b6b2e8cd64dddcc92ab4c55af89181900360a00190a1505b9550959350505050565b604051636eb1769f60e11b81523060048201526001600160a01b03838116602483015282919085169063dd62ed3e90604401602060405180830381865afa158015610b8b573d5f5f3e3d5ffd5b505050506040513d601f19601f82011682018060405250810190610baf9190612472565b1015610bc157610bc183835f19611f08565b505050565b5f5f82806020019051810190610bdc9190612697565b90505f7f00000000000000000000000000000000000000000000000000000000000000006001600160a01b0316876001600160a01b031603610c955750604051632e1a7d4d60e01b81526004810185905284907f00000000000000000000000000000000000000000000000000000000000000006001600160a01b031690632e1a7d4d906024015f604051808303815f87803b158015610c7a575f5ffd5b505af1158015610c8c573d5f5f3e3d5ffd5b50505050610cac565b8151610cac906001600160a01b0389169087610b3e565b6040516370a0823160e01b81523060048201525f906001600160a01b038816906370a0823190602401602060405180830381865afa158015610cf0573d5f5f3e3d5ffd5b505050506040513d601f19601f82011682018060405250810190610d149190612472565b8351602085015160408087015160608801519151600f91820b602482015291900b6044820152606481018a9052600160848201529293505f9283926001600160a01b031691869160a40160408051601f198184030181529181526020820180516001600160e01b03166001600160e01b0319909416939093179092529051610d9c91906126b1565b5f6040518083038185875af1925050503d805f8114610dd6576040519150601f19603f3d011682016040523d82523d5f602084013e610ddb565b606091505b509150915081610dee57610dee81611f71565b7f00000000000000000000000000000000000000000000000000000000000000006001600160a01b0316896001600160a01b031603610e9b574795507f00000000000000000000000000000000000000000000000000000000000000006001600160a01b031663d0e30db0876040518263ffffffff1660e01b81526004015f604051808303818588803b158015610e83575f5ffd5b505af1158015610e95573d5f5f3e3d5ffd5b50505050505b6040516370a0823160e01b815230600482015283906001600160a01b038b16906370a0823190602401602060405180830381865afa158015610edf573d5f5f3e3d5ffd5b505050506040513d601f19601f82011682018060405250810190610f039190612472565b610f0d9190612445565b955050505050505b949350505050565b5f5f82806020019051810190610f339190612697565b8051909150610f4d906001600160a01b0388169086610b3e565b6040516370a0823160e01b81523060048201525f906001600160a01b038716906370a0823190602401602060405180830381865afa158015610f91573d5f5f3e3d5ffd5b505050506040513d601f19601f82011682018060405250810190610fb59190612472565b8251602084015160408086015160608701519151600f91820b602482015291900b604482015260648101899052600160848201529293505f9283926001600160a01b0316919060a40160408051601f198184030181529181526020820180516001600160e01b03166001600160e01b031990941693909317909252905161103c91906126b1565b5f604051808303815f865af19150503d805f8114611075576040519150601f19603f3d011682016040523d82523d5f602084013e61107a565b606091505b50915091508161108d5761108d81611f71565b6040516370a0823160e01b815230600482015283906001600160a01b038a16906370a0823190602401602060405180830381865afa1580156110d1573d5f5f3e3d5ffd5b505050506040513d601f19601f820116820180604052508101906110f59190612472565b6110ff9190612445565b9998505050505050505050565b5f5f6060808480602001905181019061112591906126c7565b805191945092506002111590506111965760405162461bcd60e51b815260206004820152602f60248201527f4d6978696e556e697377617056322f504154485f4c454e4754485f4d5553545f60448201526e42455f41545f4c454153545f54574f60881b60648201526084016101a9565b856001600160a01b031681600183516111af9190612445565b815181106111bf576111bf61245e565b60200260200101516001600160a01b0316146112435760405162461bcd60e51b815260206004820152603b60248201527f4d6978696e556e697377617056322f4c4153545f454c454d454e545f4f465f5060448201527f4154485f4d5553545f4d415443485f4f55545055545f544f4b454e000000000060648201526084016101a9565b61125a8286835f815181106102715761027161245e565b6040516338ed173960e01b81525f906001600160a01b038416906338ed173990611291908990600190879030904290600401612714565b5f604051808303815f875af11580156112ac573d5f5f3e3d5ffd5b505050506040513d5f823e601f3d908101601f191682016040526112d391908101906127aa565b905080600182516112e49190612445565b815181106112f4576112f461245e565b602002602001015193505050509392505050565b5f5f5f5f848060200190518101906113209190612828565b9194509250905061133b6001600160a01b0388168488610b3e565b806002146113da576040805160a08101825283815230602082015242818301526060810188905260016080820152905163c04b8d5960e01b81526001600160a01b0385169163c04b8d599161139391906004016128fe565b6020604051808303815f875af11580156113af573d5f5f3e3d5ffd5b505050506040513d601f19601f820116820180604052508101906113d39190612472565b9350611467565b6040805160808101825283815230602082015280820188905260016060820152905163b858183f60e01b81526001600160a01b0385169163b858183f916114249190600401612910565b6020604051808303815f875af1158015611440573d5f5f3e3d5ffd5b505050506040513d601f19601f820116820180604052508101906114649190612472565b93505b5050509392505050565b5f5f828060200190518101906114879190612697565b80519091506114a1906001600160a01b0387169086610b3e565b8051602082015160408084015160608501519151600f91820b602482015291900b604482015260648101879052600160848201524260a48201525f9283926001600160a01b039091169160c40160408051601f198184030181529181526020820180516001600160e01b03166001600160e01b031990941693909317909252905161152c91906126b1565b5f604051808303815f865af19150503d805f8114611565576040519150601f19603f3d011682016040523d82523d5f602084013e61156a565b606091505b50915091508161157d5761157d81611f71565b808060200190518101906114649190612472565b5f5f606080848060200190518101906115aa9190612503565b815192955090935091506001111561161c5760405162461bcd60e51b815260206004820152602f60248201527f4d6978696e4b79626572446d6d2f504f4f4c535f4c454e4754485f4d5553545f60448201526e42455f41545f4c454153545f4f4e4560881b60648201526084016101a9565b815161162990600161256e565b8151146116845760405162461bcd60e51b815260206004820152602360248201527f4d6978696e4b79626572446d6d2f41525241595f4c454e4754485f4d49534d416044820152620a886960eb1b60648201526084016101a9565b866001600160a01b0316816001835161169d9190612445565b815181106116ad576116ad61245e565b60200260200101516001600160a01b0316146117315760405162461bcd60e51b815260206004820152603a60248201527f4d6978696e4b79626572446d6d2f4c4153545f454c454d454e545f4f465f504160448201527f54485f4d5553545f4d415443485f4f55545055545f544f4b454e00000000000060648201526084016101a9565b6117488387835f815181106102715761027161245e565b60405163ceb757d560e01b81525f906001600160a01b0385169063ceb757d590611781908a90600190889088903090429060040161295d565b5f604051808303815f875af115801561179c573d5f5f3e3d5ffd5b505050506040513d5f823e601f3d908101601f191682016040526117c391908101906127aa565b905080600182516117d49190612445565b815181106117e4576117e461245e565b60200260200101519450505050509392505050565b5f5f5f8380602001905181019061181091906129ac565b90925090506118296001600160a01b0387168387610b3e565b6040805160a081018252828152306020820152428183015260608101879052600160808201529051635d946c2560e01b81526001600160a01b03841691635d946c259161187991906004016128fe565b6020604051808303815f875af1158015611895573d5f5f3e3d5ffd5b505050506040513d601f19601f820116820180604052508101906118b99190612472565b9695505050505050565b5f5f5f838060200190518101906118da91906129ef565b90925090506118f36001600160a01b0388168387610b3e565b806001600160a01b0316866001600160a01b0316036119805760405163e8eda9df60e01b81526001600160a01b038881166004830152602482018790523060448301525f606483015283169063e8eda9df906084015b5f604051808303815f87803b158015611960575f5ffd5b505af1158015611972573d5f5f3e3d5ffd5b505050508492505050610f15565b806001600160a01b0316876001600160a01b031603611a1957604051631a4ca37b60e21b81526001600160a01b038781166004830152602482018790523060448301528316906369328dec906064015b6020604051808303815f875af11580156119ec573d5f5f3e3d5ffd5b505050506040513d601f19601f82011682018060405250810190611a109190612472565b92505050610f15565b60405162461bcd60e51b815260206004820152602260248201527f4d6978696e4161766556322f554e535550504f525445445f544f4b454e5f504160448201526124a960f11b60648201526084016101a9565b5f5f60608060608086806020019051810190611a889190612a27565b825193985091965094509250600211159050611b005760405162461bcd60e51b815260206004820152603160248201527f4d6978696e5472616465724a6f6556322f504154485f4c454e4754485f4d5553604482015270545f42455f41545f4c454153545f54574f60781b60648201526084016101a9565b8151611b0d90600161256e565b835114611b995760405162461bcd60e51b815260206004820152604e60248201527f4d6978696e5472616465724a6f6556322f504149525f42494e5f53544550535f60448201527f4c454e4754485f4d5553545f42455f4f4e455f4c4553535f5448414e5f544f4b60648201526d08a9cbea082a890be988a9c8ea8960931b608482015260a4016101a9565b8151815114611c205760405162461bcd60e51b815260206004820152604760248201527f4d6978696e5472616465724a6f6556322f56455253494f4e535f4c454e47544860448201527f5f4d5553545f42455f455155414c5f544f5f504149525f42494e5f53544550536064820152660be988a9c8ea8960cb1b608482015260a4016101a9565b876001600160a01b03168360018551611c399190612445565b81518110611c4957611c4961245e565b60200260200101516001600160a01b031614611ccd5760405162461bcd60e51b815260206004820152603d60248201527f4d6978696e5472616465724a6f6556322f4c4153545f454c454d454e545f4f4660448201527f5f504154485f4d5553545f4d415443485f4f55545055545f544f4b454e00000060648201526084016101a9565b611ce48488855f815181106102715761027161245e565b604080516060810182528381526020810183905280820185905290516315221fd760e11b81526001600160a01b03861690632a443fae90611d32908b90600190869030904290600401612b29565b6020604051808303815f875af1158015611d4e573d5f5f3e3d5ffd5b505050506040513d601f19601f820116820180604052508101906110ff9190612472565b5f5f5f83806020019051810190611d8991906129ac565b9092509050611da26001600160a01b0388168387611f79565b6040516319740ac160e21b81526001600160a01b038316906365d02b0490610794908a908a9030906001908890600401612c2c565b5f5f5f83806020019051810190611dee91906129ef565b9092509050611e076001600160a01b0388168387610b3e565b806001600160a01b0316866001600160a01b031603611e615760405163617ba03760e01b81526001600160a01b038881166004830152602482018790523060448301525f606483015283169063617ba03790608401611949565b806001600160a01b0316876001600160a01b031603611eb557604051631a4ca37b60e21b81526001600160a01b038781166004830152602482018790523060448301528316906369328dec906064016119d0565b60405162461bcd60e51b815260206004820152602260248201527f4d6978696e4161766556332f554e535550504f525445445f544f4b454e5f504160448201526124a960f11b60648201526084016101a9565b6040516001600160a01b038381166024830152604482018390525f919085169063095ea7b3906064015b604051602081830303815290604052915060e01b6020820180516001600160e01b0383818316178352505050509050611f6b8482611fa7565b50505050565b805160208201fd5b6040516001600160a01b038381166024830152604482018390525f919085169063a9059cbb90606401611f32565b5f5f836001600160a01b031683604051611fc191906126b1565b5f604051808303815f865af19150503d805f8114611ffa576040519150601f19603f3d011682016040523d82523d5f602084013e611fff565b606091505b5091509150816120125761201281611f71565b80515f03612083575f846001600160a01b03163b11611f6b5760405162461bcd60e51b815260206004820152602760248201527f696e76616c696420746f6b656e20616464726573732c20636f6e7461696e73206044820152666e6f20636f646560c81b60648201526084016101a9565b60208151106120ad57808060200190518101906120a09190612c66565b6120ad576120ad81611f71565b611f6b81611f71565b5f602082840312156120c6575f5ffd5b5035919050565b6001600160a01b03811681146120e1575f5ffd5b50565b80356120ef816120cd565b919050565b634e487b7160e01b5f52604160045260245ffd5b604051608081016001600160401b038111828210171561212a5761212a6120f4565b60405290565b604051601f8201601f191681016001600160401b0381118282101715612158576121586120f4565b604052919050565b5f6001600160401b03821115612178576121786120f4565b50601f01601f191660200190565b5f82601f830112612195575f5ffd5b81356121a86121a382612160565b612130565b8181528460208386010111156121bc575f5ffd5b816020850160208301375f918101602001919091529392505050565b5f5f5f606084860312156121ea575f5ffd5b83356121f5816120cd565b92506020840135915060408401356001600160401b03811115612216575f5ffd5b61222286828701612186565b9150509250925092565b5f5f5f5f6080858703121561223f575f5ffd5b843561224a816120cd565b9350602085013561225a816120cd565b92506040850135915060608501356001600160401b0381111561227b575f5ffd5b61228787828801612186565b91505092959194509250565b5f5f5f5f608085870312156122a6575f5ffd5b84356001600160401b038111156122bb575f5ffd5b8501608081880312156122cc575f5ffd5b6122d4612108565b81358152602080830135908201526040808301359082015260608201356001600160401b03811115612304575f5ffd5b61231089828501612186565b60608301525094506123269050602086016120e4565b9250612334604086016120e4565b9396929550929360600135925050565b5f6001600160401b0382111561235c5761235c6120f4565b5060051b60200190565b5f82601f830112612375575f5ffd5b81516123836121a382612344565b8082825260208201915060208360051b8601019250858311156123a4575f5ffd5b602085015b838110156107ed5780516123bc816120cd565b8352602092830192016123a9565b5f5f5f5f608085870312156123dd575f5ffd5b84516123e8816120cd565b60208601519094506123f9816120cd565b604086015190935061240a816120cd565b60608601519092506001600160401b03811115612425575f5ffd5b61228787828801612366565b634e487b7160e01b5f52601160045260245ffd5b8181038181111561245857612458612431565b92915050565b634e487b7160e01b5f52603260045260245ffd5b5f60208284031215612482575f5ffd5b5051919050565b5f8151808452602084019350602083015f5b828110156124c25781516001600160a01b031686526020958601959091019060010161249b565b5093949350505050565b608081525f6124de6080830187612489565b60208301959095525060408101929092526001600160a01b0316606090910152919050565b5f5f5f60608486031215612515575f5ffd5b8351612520816120cd565b60208501519093506001600160401b0381111561253b575f5ffd5b61254786828701612366565b92505060408401516001600160401b03811115612562575f5ffd5b61222286828701612366565b8082018082111561245857612458612431565b60c081525f61259360c0830189612489565b82810360208401526125a58189612489565b6040840197909752505060608101939093526001600160a01b0391909116608083015260a09091015292915050565b5f5f604083850312156125e5575f5ffd5b505080516020909101519092909150565b5f60208284031215612606575f5ffd5b8151612611816120cd565b9392505050565b8051600f81900b81146120ef575f5ffd5b5f60808284031215612639575f5ffd5b612641612108565b9050815161264e816120cd565b815260208201516001600160e01b03198116811461266a575f5ffd5b602082015261267b60408301612618565b604082015261268c60608301612618565b606082015292915050565b5f608082840312156126a7575f5ffd5b6126118383612629565b5f82518060208501845e5f920191825250919050565b5f5f604083850312156126d8575f5ffd5b82516126e3816120cd565b60208401519092506001600160401b038111156126fe575f5ffd5b61270a85828601612366565b9150509250929050565b85815284602082015260a060408201525f61273260a0830186612489565b6001600160a01b0394909416606083015250608001529392505050565b5f82601f83011261275e575f5ffd5b815161276c6121a382612344565b8082825260208201915060208360051b86010192508583111561278d575f5ffd5b602085015b838110156107ed578051835260209283019201612792565b5f602082840312156127ba575f5ffd5b81516001600160401b038111156127cf575f5ffd5b610f158482850161274f565b5f82601f8301126127ea575f5ffd5b81516127f86121a382612160565b81815284602083860101111561280c575f5ffd5b8160208501602083015e5f918101602001919091529392505050565b5f5f5f6060848603121561283a575f5ffd5b8351612845816120cd565b60208501519093506001600160401b03811115612860575f5ffd5b61286c868287016127db565b604095909501519396949550929392505050565b5f81518084528060208401602086015e5f602082860101526020601f19601f83011685010191505092915050565b5f815160a084526128c260a0850182612880565b6020848101516001600160a01b031690860152604080850151908601526060808501519086015260809384015193909401929092525090919050565b602081525f61261160208301846128ae565b602081525f82516080602084015261292b60a0840182612880565b905060018060a01b03602085015116604084015260408401516060840152606084015160808401528091505092915050565b86815285602082015260c060408201525f61297b60c0830187612489565b828103606084015261298d8187612489565b6001600160a01b03959095166080840152505060a00152949350505050565b5f5f604083850312156129bd575f5ffd5b82516129c8816120cd565b60208401519092506001600160401b038111156129e3575f5ffd5b61270a858286016127db565b5f5f60408385031215612a00575f5ffd5b8251612a0b816120cd565b6020840151909250612a1c816120cd565b809150509250929050565b5f5f5f5f60808587031215612a3a575f5ffd5b8451612a45816120cd565b60208601519094506001600160401b03811115612a60575f5ffd5b612a6c87828801612366565b93505060408501516001600160401b03811115612a87575f5ffd5b612a938782880161274f565b92505060608501516001600160401b03811115612aae575f5ffd5b8501601f81018713612abe575f5ffd5b8051612acc6121a382612344565b8082825260208201915060208360051b850101925089831115612aed575f5ffd5b6020840193505b82841015612b1b57835160038110612b0a575f5ffd5b825260209384019390910190612af4565b969995985093965050505050565b85815284602082015260a060408201525f61010082018551606060a0850152818151808452610120860191506020830193505f92505b80831015612b825783518252602082019150602084019350600183019250612b5f565b50602088810151868303609f190160c088015280518084529082019450910191505f905b80821015612be457835160038110612bcc57634e487b7160e01b5f52602160045260245ffd5b83526020938401939092019160019190910190612ba6565b50506040870151848203609f190160e08601529150612c038183612489565b92505050612c1c60608301856001600160a01b03169052565b8260808301529695505050505050565b6001600160a01b0386811682528581166020830152841660408201526060810183905260a0608082018190525f906107d490830184612880565b5f60208284031215612c76575f5ffd5b81518015158114612611575f5ffdfea2646970667358221220257b6dfbb91ebebe7b6efefee8c2dcca0c04f4a76f7b994a22d082696d1d6b7764736f6c634300081c0033",
  "linkReferences": {},
  "deployedLinkReferences": {}
}