{
  "_format": "hh-sol-artifact-1",
  "contractName": "TestStaking",
  "sourceName": "contracts/test/TestStaking.sol",
  "abi": [
    {
      "inputs": [
        {
          "internalType": "contract IEtherToken",
          "name": "_weth",
          "type": "address"
        }
      ],
      "stateMutability": "nonpayable",
      "type": "constructor"
    },
    {
      "inputs": [
        {
          "internalType": "bytes32",
          "name": "",
          "type": "bytes32"
        }
      ],
      "name": "balanceForPool",
      "outputs": [
        {
          "internalType": "uint256",
          "name": "",
          "type": "uint256"
        }
      ],
      "stateMutability": "view",
      "type": "function"
    },
    {
      "inputs": [
        {
          "internalType": "bytes32",
          "name": "poolId",
          "type": "bytes32"
        }
      ],
      "name": "joinStakingPoolAsMaker",
      "outputs": [],
      "stateMutability": "nonpayable",
      "type": "function"
    },
    {
      "inputs": [
        {
          "internalType": "address",
          "name": "makerAddress",
          "type": "address"
        },
        {
          "internalType": "address",
          "name": "payerAddress",
          "type": "address"
        },
        {
          "internalType": "uint256",
          "name": "amount",
          "type": "uint256"
        }
      ],
      "name": "payProtocolFee",
      "outputs": [],
      "stateMutability": "payable",
      "type": "function"
    },
    {
      "inputs": [
        {
          "internalType": "address",
          "name": "",
          "type": "address"
        }
      ],
      "name": "poolForMaker",
      "outputs": [
        {
          "internalType": "bytes32",
          "name": "",
          "type": "bytes32"
        }
      ],
      "stateMutability": "view",
      "type": "function"
    }
  ],
  "bytecode": "0x60a0604052348015600e575f5ffd5b506040516103a03803806103a0833981016040819052602b91603b565b6001600160a01b03166080526066565b5f60208284031215604a575f5ffd5b81516001600160a01b0381168114605f575f5ffd5b9392505050565b60805161032261007e5f395f61013c01526103225ff3fe60806040526004361061003e575f3560e01c80632cc7d62614610042578063307aa86a1461007f578063a3b4a327146100aa578063b3e33379146100bf575b5f5ffd5b34801561004d575f5ffd5b5061006d61005c3660046101f7565b60016020525f908152604090205481565b60405190815260200160405180910390f35b34801561008a575f5ffd5b5061006d610099366004610236565b5f6020819052908152604090205481565b6100bd6100b8366004610256565b6100ea565b005b3480156100ca575f5ffd5b506100bd6100d93660046101f7565b335f90815260208190526040902055565b6040517f23b872dd00000000000000000000000000000000000000000000000000000000815273ffffffffffffffffffffffffffffffffffffffff8381166004830152306024830152604482018390527f000000000000000000000000000000000000000000000000000000000000000016906323b872dd906064016020604051808303815f875af1158015610182573d5f5f3e3d5ffd5b505050506040513d601f19601f820116820180604052508101906101a6919061028f565b6101ae575f5ffd5b73ffffffffffffffffffffffffffffffffffffffff83165f908152602081815260408083205483526001909152812080548392906101ed9084906102ae565b9091555050505050565b5f60208284031215610207575f5ffd5b5035919050565b803573ffffffffffffffffffffffffffffffffffffffff81168114610231575f5ffd5b919050565b5f60208284031215610246575f5ffd5b61024f8261020e565b9392505050565b5f5f5f60608486031215610268575f5ffd5b6102718461020e565b925061027f6020850161020e565b9150604084013590509250925092565b5f6020828403121561029f575f5ffd5b8151801515811461024f575f5ffd5b808201808211156102e6577f4e487b71000000000000000000000000000000000000000000000000000000005f52601160045260245ffd5b9291505056fea264697066735822122097f72729cce634c6f5a5003e5a085c3156832e363e629a8ee423200e3f8f05e064736f6c634300081c0033",
  "linkReferences": {},
  "deployedLinkReferences": {}
}