{
  "_format": "hh-sol-artifact-1",
  "contractName": "TestStaking",
  "sourceName": "contracts/test/TestStaking.sol",
  "abi": [
    {
      "inputs": [
        {
          "internalType": "contract IEtherToken",
          "name": "_weth",
          "type": "address"
        }
      ],
      "stateMutability": "nonpayable",
      "type": "constructor"
    },
    {
      "inputs": [
        {
          "internalType": "bytes32",
          "name": "",
          "type": "bytes32"
        }
      ],
      "name": "balanceForPool",
      "outputs": [
        {
          "internalType": "uint256",
          "name": "",
          "type": "uint256"
        }
      ],
      "stateMutability": "view",
      "type": "function"
    },
    {
      "inputs": [
        {
          "internalType": "bytes32",
          "name": "poolId",
          "type": "bytes32"
        }
      ],
      "name": "joinStakingPoolAsMaker",
      "outputs": [],
      "stateMutability": "nonpayable",
      "type": "function"
    },
    {
      "inputs": [
        {
          "internalType": "address",
          "name": "makerAddress",
          "type": "address"
        },
        {
          "internalType": "address",
          "name": "payerAddress",
          "type": "address"
        },
        {
          "internalType": "uint256",
          "name": "amount",
          "type": "uint256"
        }
      ],
      "name": "payProtocolFee",
      "outputs": [],
      "stateMutability": "payable",
      "type": "function"
    },
    {
      "inputs": [
        {
          "internalType": "address",
          "name": "",
          "type": "address"
        }
      ],
      "name": "poolForMaker",
      "outputs": [
        {
          "internalType": "bytes32",
          "name": "",
          "type": "bytes32"
        }
      ],
      "stateMutability": "view",
      "type": "function"
    }
  ],
  "bytecode": "0x60a060405234801561001057600080fd5b506040516106cc3803806106cc833981810160405281019061003291906100e1565b8073ffffffffffffffffffffffffffffffffffffffff1660808173ffffffffffffffffffffffffffffffffffffffff16815250505061010e565b600080fd5b600073ffffffffffffffffffffffffffffffffffffffff82169050919050565b600061009c82610071565b9050919050565b60006100ae82610091565b9050919050565b6100be816100a3565b81146100c957600080fd5b50565b6000815190506100db816100b5565b92915050565b6000602082840312156100f7576100f661006c565b5b6000610105848285016100cc565b91505092915050565b6080516105a3610129600039600061013501526105a36000f3fe60806040526004361061003f5760003560e01c80632cc7d62614610044578063307aa86a14610081578063a3b4a327146100be578063b3e33379146100da575b600080fd5b34801561005057600080fd5b5061006b600480360381019061006691906102ca565b610103565b6040516100789190610310565b60405180910390f35b34801561008d57600080fd5b506100a860048036038101906100a39190610389565b61011b565b6040516100b591906103c5565b60405180910390f35b6100d860048036038101906100d3919061040c565b610133565b005b3480156100e657600080fd5b5061010160048036038101906100fc91906102ca565b610249565b005b60016020528060005260406000206000915090505481565b60006020528060005260406000206000915090505481565b7f000000000000000000000000000000000000000000000000000000000000000073ffffffffffffffffffffffffffffffffffffffff166323b872dd8330846040518463ffffffff1660e01b81526004016101909392919061046e565b6020604051808303816000875af11580156101af573d6000803e3d6000fd5b505050506040513d601f19601f820116820180604052508101906101d391906104dd565b6101dc57600080fd5b80600160008060008773ffffffffffffffffffffffffffffffffffffffff1673ffffffffffffffffffffffffffffffffffffffff168152602001908152602001600020548152602001908152602001600020600082825461023d9190610539565b92505081905550505050565b806000803373ffffffffffffffffffffffffffffffffffffffff1673ffffffffffffffffffffffffffffffffffffffff1681526020019081526020016000208190555050565b600080fd5b6000819050919050565b6102a781610294565b81146102b257600080fd5b50565b6000813590506102c48161029e565b92915050565b6000602082840312156102e0576102df61028f565b5b60006102ee848285016102b5565b91505092915050565b6000819050919050565b61030a816102f7565b82525050565b60006020820190506103256000830184610301565b92915050565b600073ffffffffffffffffffffffffffffffffffffffff82169050919050565b60006103568261032b565b9050919050565b6103668161034b565b811461037157600080fd5b50565b6000813590506103838161035d565b92915050565b60006020828403121561039f5761039e61028f565b5b60006103ad84828501610374565b91505092915050565b6103bf81610294565b82525050565b60006020820190506103da60008301846103b6565b92915050565b6103e9816102f7565b81146103f457600080fd5b50565b600081359050610406816103e0565b92915050565b6000806000606084860312156104255761042461028f565b5b600061043386828701610374565b935050602061044486828701610374565b9250506040610455868287016103f7565b9150509250925092565b6104688161034b565b82525050565b6000606082019050610483600083018661045f565b610490602083018561045f565b61049d6040830184610301565b949350505050565b60008115159050919050565b6104ba816104a5565b81146104c557600080fd5b50565b6000815190506104d7816104b1565b92915050565b6000602082840312156104f3576104f261028f565b5b6000610501848285016104c8565b91505092915050565b7f4e487b7100000000000000000000000000000000000000000000000000000000600052601160045260246000fd5b6000610544826102f7565b915061054f836102f7565b92508282019050808211156105675761056661050a565b5b9291505056fea26469706673582212203846deaba2d5fae4d9e500a9d0f41a8628722c8b4dedf8071c70132eb22b03fd64736f6c634300081c0033",
  "linkReferences": {},
  "deployedLinkReferences": {}
}