{
  "_format": "hh-sol-artifact-1",
  "contractName": "TestMetaTransactionsTransformERC20Feature",
  "sourceName": "contracts/test/TestMetaTransactionsTransformERC20Feature.sol",
  "abi": [
    {
      "inputs": [],
      "stateMutability": "nonpayable",
      "type": "constructor"
    },
    {
      "anonymous": false,
      "inputs": [
        {
          "indexed": false,
          "internalType": "address",
          "name": "quoteSigner",
          "type": "address"
        }
      ],
      "name": "QuoteSignerUpdated",
      "type": "event"
    },
    {
      "anonymous": false,
      "inputs": [
        {
          "indexed": false,
          "internalType": "address",
          "name": "sender",
          "type": "address"
        },
        {
          "indexed": false,
          "internalType": "uint256",
          "name": "value",
          "type": "uint256"
        },
        {
          "indexed": false,
          "internalType": "address",
          "name": "taker",
          "type": "address"
        },
        {
          "indexed": false,
          "internalType": "contract IERC20Token",
          "name": "inputToken",
          "type": "address"
        },
        {
          "indexed": false,
          "internalType": "contract IERC20Token",
          "name": "outputToken",
          "type": "address"
        },
        {
          "indexed": false,
          "internalType": "uint256",
          "name": "inputTokenAmount",
          "type": "uint256"
        },
        {
          "indexed": false,
          "internalType": "uint256",
          "name": "minOutputTokenAmount",
          "type": "uint256"
        },
        {
          "components": [
            {
              "internalType": "uint32",
              "name": "deploymentNonce",
              "type": "uint32"
            },
            {
              "internalType": "bytes",
              "name": "data",
              "type": "bytes"
            }
          ],
          "indexed": false,
          "internalType": "struct ITransformERC20Feature.Transformation[]",
          "name": "transformations",
          "type": "tuple[]"
        }
      ],
      "name": "TransformERC20Called",
      "type": "event"
    },
    {
      "anonymous": false,
      "inputs": [
        {
          "indexed": true,
          "internalType": "address",
          "name": "taker",
          "type": "address"
        },
        {
          "indexed": false,
          "internalType": "address",
          "name": "inputToken",
          "type": "address"
        },
        {
          "indexed": false,
          "internalType": "address",
          "name": "outputToken",
          "type": "address"
        },
        {
          "indexed": false,
          "internalType": "uint256",
          "name": "inputTokenAmount",
          "type": "uint256"
        },
        {
          "indexed": false,
          "internalType": "uint256",
          "name": "outputTokenAmount",
          "type": "uint256"
        }
      ],
      "name": "TransformedERC20",
      "type": "event"
    },
    {
      "anonymous": false,
      "inputs": [
        {
          "indexed": false,
          "internalType": "address",
          "name": "transformerDeployer",
          "type": "address"
        }
      ],
      "name": "TransformerDeployerUpdated",
      "type": "event"
    },
    {
      "inputs": [],
      "name": "FEATURE_NAME",
      "outputs": [
        {
          "internalType": "string",
          "name": "",
          "type": "string"
        }
      ],
      "stateMutability": "view",
      "type": "function"
    },
    {
      "inputs": [],
      "name": "FEATURE_VERSION",
      "outputs": [
        {
          "internalType": "uint256",
          "name": "",
          "type": "uint256"
        }
      ],
      "stateMutability": "view",
      "type": "function"
    },
    {
      "inputs": [
        {
          "components": [
            {
              "internalType": "address payable",
              "name": "taker",
              "type": "address"
            },
            {
              "internalType": "contract IERC20Token",
              "name": "inputToken",
              "type": "address"
            },
            {
              "internalType": "contract IERC20Token",
              "name": "outputToken",
              "type": "address"
            },
            {
              "internalType": "uint256",
              "name": "inputTokenAmount",
              "type": "uint256"
            },
            {
              "internalType": "uint256",
              "name": "minOutputTokenAmount",
              "type": "uint256"
            },
            {
              "components": [
                {
                  "internalType": "uint32",
                  "name": "deploymentNonce",
                  "type": "uint32"
                },
                {
                  "internalType": "bytes",
                  "name": "data",
                  "type": "bytes"
                }
              ],
              "internalType": "struct ITransformERC20Feature.Transformation[]",
              "name": "transformations",
              "type": "tuple[]"
            },
            {
              "internalType": "bool",
              "name": "useSelfBalance",
              "type": "bool"
            },
            {
              "internalType": "address payable",
              "name": "recipient",
              "type": "address"
            }
          ],
          "internalType": "struct ITransformERC20Feature.TransformERC20Args",
          "name": "args",
          "type": "tuple"
        }
      ],
      "name": "_transformERC20",
      "outputs": [
        {
          "internalType": "uint256",
          "name": "outputTokenAmount",
          "type": "uint256"
        }
      ],
      "stateMutability": "payable",
      "type": "function"
    },
    {
      "inputs": [],
      "name": "createTransformWallet",
      "outputs": [
        {
          "internalType": "contract IFlashWallet",
          "name": "wallet",
          "type": "address"
        }
      ],
      "stateMutability": "nonpayable",
      "type": "function"
    },
    {
      "inputs": [],
      "name": "getQuoteSigner",
      "outputs": [
        {
          "internalType": "address",
          "name": "signer",
          "type": "address"
        }
      ],
      "stateMutability": "view",
      "type": "function"
    },
    {
      "inputs": [],
      "name": "getTransformWallet",
      "outputs": [
        {
          "internalType": "contract IFlashWallet",
          "name": "wallet",
          "type": "address"
        }
      ],
      "stateMutability": "view",
      "type": "function"
    },
    {
      "inputs": [],
      "name": "getTransformerDeployer",
      "outputs": [
        {
          "internalType": "address",
          "name": "deployer",
          "type": "address"
        }
      ],
      "stateMutability": "view",
      "type": "function"
    },
    {
      "inputs": [
        {
          "internalType": "address",
          "name": "transformerDeployer",
          "type": "address"
        }
      ],
      "name": "migrate",
      "outputs": [
        {
          "internalType": "bytes4",
          "name": "success",
          "type": "bytes4"
        }
      ],
      "stateMutability": "nonpayable",
      "type": "function"
    },
    {
      "inputs": [
        {
          "internalType": "address",
          "name": "quoteSigner",
          "type": "address"
        }
      ],
      "name": "setQuoteSigner",
      "outputs": [],
      "stateMutability": "nonpayable",
      "type": "function"
    },
    {
      "inputs": [
        {
          "internalType": "address",
          "name": "transformerDeployer",
          "type": "address"
        }
      ],
      "name": "setTransformerDeployer",
      "outputs": [],
      "stateMutability": "nonpayable",
      "type": "function"
    },
    {
      "inputs": [
        {
          "internalType": "contract IERC20Token",
          "name": "inputToken",
          "type": "address"
        },
        {
          "internalType": "contract IERC20Token",
          "name": "outputToken",
          "type": "address"
        },
        {
          "internalType": "uint256",
          "name": "inputTokenAmount",
          "type": "uint256"
        },
        {
          "internalType": "uint256",
          "name": "minOutputTokenAmount",
          "type": "uint256"
        },
        {
          "components": [
            {
              "internalType": "uint32",
              "name": "deploymentNonce",
              "type": "uint32"
            },
            {
              "internalType": "bytes",
              "name": "data",
              "type": "bytes"
            }
          ],
          "internalType": "struct ITransformERC20Feature.Transformation[]",
          "name": "transformations",
          "type": "tuple[]"
        }
      ],
      "name": "transformERC20",
      "outputs": [
        {
          "internalType": "uint256",
          "name": "outputTokenAmount",
          "type": "uint256"
        }
      ],
      "stateMutability": "payable",
      "type": "function"
    }
  ],
  "bytecode": "0x60c06040526801000000040000000060a052348015601b575f5ffd5b503060805260805160a051612e646100405f395f60af01525f610d880152612e645ff3fe60806040526004361061009a575f3560e01c80636ae4b4f7116100625780636ae4b4f71461015857806387c964191461019e5780638aa6539b146101bd5780639f1ec78b146101d0578063ce5494bb146101e4578063f028e9be1461021c575f5ffd5b8063031b905c1461009e578063287b071b146100e4578063415565b0146101105780634d54cdb61461012357806356ce180a14610137575b5f5ffd5b3480156100a9575f5ffd5b506100d17f000000000000000000000000000000000000000000000000000000000000000081565b6040519081526020015b60405180910390f35b3480156100ef575f5ffd5b506100f8610230565b6040516001600160a01b0390911681526020016100db565b6100d161011e366004611cb1565b610309565b34801561012e575f5ffd5b506100f861037c565b348015610142575f5ffd5b50610156610151366004611d21565b610397565b005b348015610163575f5ffd5b506101916040518060400160405280600e81526020016d05472616e73666f726d45524332360941b81525081565b6040516100db9190611d6a565b3480156101a9575f5ffd5b506101566101b8366004611d21565b610477565b6100d16101cb366004611d8b565b610550565b3480156101db575f5ffd5b506100f86108f2565b3480156101ef575f5ffd5b506102036101fe366004611d21565b61090d565b6040516001600160e01b031990911681526020016100db565b348015610227575f5ffd5b506100f8610aa1565b5f5f306001600160a01b0316638da5cb5b6040518163ffffffff1660e01b8152600401602060405180830381865afa15801561026e573d5f5f3e3d5ffd5b505050506040513d601f19601f820116820180604052508101906102929190611e5f565b9050336001600160a01b038216146102b6576102b66102b13383610ab9565b610b1e565b506040516102c390611a86565b604051809103905ff0801580156102dc573d5f5f3e3d5ffd5b509050806102e8610b26565b80546001600160a01b0319166001600160a01b039290921691909117905590565b5f610372604051806101000160405280336001600160a01b03168152602001886001600160a01b03168152602001876001600160a01b031681526020018681526020018581526020018481526020015f15158152602001336001600160a01b0316815250610b32565b9695505050505050565b5f610385610b26565b600101546001600160a01b0316919050565b5f306001600160a01b0316638da5cb5b6040518163ffffffff1660e01b8152600401602060405180830381865afa1580156103d4573d5f5f3e3d5ffd5b505050506040513d601f19601f820116820180604052508101906103f89190611e5f565b9050336001600160a01b03821614610417576104176102b13383610ab9565b5080610421610b26565b60020180546001600160a01b0319166001600160a01b0392831617905560405190821681527ff5550c5eea19b48ac6eb5f03abdc4f59c0a60697abb3d973cd68669703b5c8b9906020015b60405180910390a150565b5f306001600160a01b0316638da5cb5b6040518163ffffffff1660e01b8152600401602060405180830381865afa1580156104b4573d5f5f3e3d5ffd5b505050506040513d601f19601f820116820180604052508101906104d89190611e5f565b9050336001600160a01b038216146104f7576104f76102b13383610ab9565b5080610501610b26565b60010180546001600160a01b0319166001600160a01b0392831617905560405190821681527ffd45604abad79c16e23348a137ed8292661be1b8eba6e4806ebed6833b1c046a9060200161046c565b5f3461022b036105825760405132905f9060019082818181858883f19350505050158015610580573d5f5f3e3d5ffd5b505b3461029a036105c55760405162461bcd60e51b81526004016105bc906020808252600490820152631190525360e21b604082015260600190565b60405180910390fd5b34610309036106af57604080516080810182525f80825260208201819052918101829052606081019190915260408051610140810182525f8082526020808301829052828401829052606083018290526080830182905260a083018290528351908101845281815260c083015260e0820181905261010082018190526101208201529051631eb0f69f60e11b81523091633d61ed3e9161066a91908590600401611f6f565b5f604051808303815f875af1158015610685573d5f5f3e3d5ffd5b505050506040513d5f823e601f3d908101601f191682016040526106ac9190810190611fdd565b50505b346103780361088d576040805160018082528183019092525f91816020015b6107366040518061014001604052805f6001600160a01b031681526020015f6001600160a01b031681526020015f81526020015f81526020015f81526020015f8152602001606081526020015f81526020015f6001600160a01b031681526020015f81525090565b8152602001906001900390816106ce5750506040805160018082528183019092529192505f9190602082015b604080516080810182525f8082526020808301829052928201819052606082015282525f199092019101816107625790505090506040518061014001604052805f6001600160a01b031681526020015f6001600160a01b031681526020015f81526020015f81526020015f81526020015f815260200160405180602001604052805f81525081526020015f81526020015f6001600160a01b031681526020015f815250825f8151811061081757610817612016565b60209081029190910101526040516318aaf3d960e31b8152309063c5579ec890610847908590859060040161202a565b5f604051808303815f875af1158015610862573d5f5f3e3d5ffd5b505050506040513d5f823e601f3d908101601f1916820160405261088991908101906120d6565b5050505b7f45d92223980a6c54c87b2b3ff57399c27dba235318f01a5ff1c9a8788114e7593334845f015185602001518660400151876060015188608001518960a001516040516108e1989796959493929190612185565b60405180910390a150610539919050565b5f6108fb610b26565b600201546001600160a01b0316919050565b5f61091e6326aa66db60e11b610d61565b61092e63287b071b60e01b610d61565b61093e63781474df60e11b610d61565b61094e6387c9641960e01b610d61565b61095e632b670c0560e11b610d61565b61096e639f1ec78b60e01b610d61565b61097e630415565b60e41b610d61565b61098e638aa6539b60e01b610d61565b5f6001600160a01b0316306001600160a01b031663f028e9be6040518163ffffffff1660e01b8152600401602060405180830381865afa1580156109d4573d5f5f3e3d5ffd5b505050506040513d601f19601f820116820180604052508101906109f89190611e5f565b6001600160a01b031603610a6957306001600160a01b031663287b071b6040518163ffffffff1660e01b81526004016020604051808303815f875af1158015610a43573d5f5f3e3d5ffd5b505050506040513d601f19601f82011682018060405250810190610a679190611e5f565b505b81610a72610b26565b60010180546001600160a01b0319166001600160a01b039290921691909117905550632c64c5ef60e01b919050565b5f610aaa610b26565b546001600160a01b0316919050565b6040516001600160a01b03808416602483015282166044820152606090631de45ad160e01b906064015b60408051601f198184030181529190526020810180516001600160e01b03166001600160e01b03199093169290921790915290505b92915050565b805160208201fd5b5f5f610b186004610de8565b5f8160c00151158015610b4957505f198260600151145b15610b8257610b5b8260200151610e10565b15610b6b57346060830152610b82565b610b7c8260200151835f0151610e32565b60608301525b604080516080810182525f808252602082018190529181018290526060810191909152610bad610aa1565b6001600160a01b03168152610bc061037c565b6001600160a01b03166020820152604083015160e0840151610be29190610f15565b60408201528051610bf4908490610f9d565b5f5b8360a0015151811015610c3f57610c37825f01518560a001518381518110610c2057610c20612016565b602002602001015184602001518760e00151611052565b600101610bf6565b50610c568360400151825f01518560e0015161119c565b9150610c6a83604001518460e00151610f15565b6060820181905260408201511115610ca057610ca06102b1846040015183606001518460400151610c9b919061225f565b611393565b610cbd8282604001518360600151610cb8919061225f565b6113d9565b91508260800151821015610ce157610ce16102b184604001518486608001516113ee565b825f01516001600160a01b03167f0f6672f78a59ba8e5e5b5d38df3ebc67f3c792e2c9259b8d97d7f00dd78ba1b384602001518560400151866060015186604051610d5394939291906001600160a01b0394851681529290931660208301526040820152606081019190915260800190565b60405180910390a250919050565b604051636eb224cb60e01b81526001600160e01b0319821660048201526001600160a01b037f00000000000000000000000000000000000000000000000000000000000000001660248201523090636eb224cb906044015f604051808303815f87803b158015610dcf575f5ffd5b505af1158015610de1573d5f5f3e3d5ffd5b5050505050565b5f608082600b811115610dfd57610dfd611f25565b610e08906001612272565b901b92915050565b6001600160a01b031673eeeeeeeeeeeeeeeeeeeeeeeeeeeeeeeeeeeeeeee1490565b604051636eb1769f60e11b81526001600160a01b0382811660048301523060248301525f91610f0e9185169063dd62ed3e90604401602060405180830381865afa158015610e82573d5f5f3e3d5ffd5b505050506040513d601f19601f82011682018060405250810190610ea69190612285565b6040516370a0823160e01b81526001600160a01b0385811660048301528616906370a0823190602401602060405180830381865afa158015610eea573d5f5f3e3d5ffd5b505050506040513d601f19601f82011682018060405250810190610cb89190612285565b9392505050565b5f610f1f83610e10565b15610f3557506001600160a01b03811631610b18565b6040516370a0823160e01b81526001600160a01b0383811660048301528416906370a0823190602401602060405180830381865afa158015610f79573d5f5f3e3d5ffd5b505050506040513d601f19601f82011682018060405250810190610f0e9190612285565b610faa8260200151610e10565b8015610fb95750816060015134105b15610fcf57610fcf6102b1348460600151611472565b3415611009576040516001600160a01b038216903480156108fc02915f818181858888f19350505050158015611007573d5f5f3e3d5ffd5b505b6110168260200151610e10565b611037578160c001511561103b5761103782602001518284606001516114b0565b5050565b6110378260200151835f015183856060015161152d565b5f61106083855f01516115c2565b90505f856001600160a01b031663b68df16d8363832b24bb60e01b6040518060600160405280336001600160a01b03168152602001886001600160a01b031681526020018a602001518152506040516024016110bc919061229c565b60408051601f198184030181529181526020820180516001600160e01b03166001600160e01b03199485161790525160e085901b909216825261110292916004016122d8565b5f604051808303815f875af115801561111d573d5f5f3e3d5ffd5b505050506040513d5f823e601f3d908101601f191682016040526111449190810190611fdd565b90508051602014158061117d575080516309e4c94f60e11b9061117090830160209081019084016122fb565b6001600160e01b03191614155b15611194576111946102b18387602001518461161a565b505050505050565b5f6111a78484610f15565b90506111b284610e10565b1561123c57604051630a8265af60e31b81526001600160a01b038381166004830152606060248301525f6064830152604482018390528416906354132d78906084015f604051808303815f875af115801561120f573d5f5f3e3d5ffd5b505050506040513d5f823e601f3d908101601f191682016040526112369190810190611fdd565b50610f0e565b604080516001600160a01b038481166024830152604480830185905283518084039091018152606490920183526020820180516001600160e01b031663a9059cbb60e01b1790529151630a8265af60e31b81525f928616916354132d78916112aa9189918690600401612322565b5f604051808303815f875af11580156112c5573d5f5f3e3d5ffd5b505050506040513d5f823e601f3d908101601f191682016040526112ec9190810190611fdd565b905080515f0361135b57843b806113555760405162461bcd60e51b815260206004820152602760248201527f696e76616c696420746f6b656e20616464726573732c20636f6e7461696e73206044820152666e6f20636f646560c81b60648201526084016105bc565b5061138b565b6020815110611382575f61136f825f611652565b9050806001146113555761135582610b1e565b61138b81610b1e565b509392505050565b6040516001600160a01b0383166024820152604481018290526060907f3ea25a3cae94e681748e39876b75ce362a9159c4618787bc1250e3d9f9c4391090606401610ae3565b5f8183106113e75781610f0e565b5090919050565b6040516001600160a01b038416602482015260448101839052606481018290526060907f990174d2378c7614a3e4722867cea0a803c0cc16ef92c4f5466ed5bc1d3496da906084015b60408051601f198184030181529190526020810180516001600160e01b03166001600160e01b03199093169290921790915290509392505050565b60405160248101839052604481018290526060907f96660ab143a5c6a946233c268494b1026bfca53373c9715e0fe96b3c59c8504490606401610ae3565b306001600160a01b038416036114d85760405162461bcd60e51b81526004016105bc90612355565b60405163a9059cbb60e01b81526001600160a01b03831660048201528160248201526020816044835f6001600160a01b0389165af13d6001835114602082101516811517821691508161119457805f843e8083fd5b306001600160a01b038516036115555760405162461bcd60e51b81526004016105bc90612355565b6040516323b872dd60e01b81526001600160a01b03841660048201526001600160a01b03831660248201528160448201526020816064835f6001600160a01b038a165af13d600183511460208210151681151782169150816115b957805f843e8083fd5b50505050505050565b5f5f6115cd8361165d565b9050805160d56115dd9190612272565b6040516115fa9160f81b90602560fa1b9087908590602001612399565b60408051601f198184030181529190528051602090910120949350505050565b60607ff21e5cb42b911ca6b3898f8618760aa7d84fe5d43a7a5ad89aa791c66cafe413848484604051602401611437939291906123e7565b5f610f0e8383611a21565b60608163ffffffff165f036116bd5760408051600180825281830190925290602082018180368337019050509050608060f81b815f815181106116a2576116a2612016565b60200101906001600160f81b03191690815f1a905350919050565b60808263ffffffff16101561170157604080516001808252818301909252906020820181803683370190505090508160f81b815f815181106116a2576116a2612016565b60ff8263ffffffff16116117725760408051600280825281830190925290602082018180368337019050509050608160f81b815f8151811061174557611745612016565b60200101906001600160f81b03191690815f1a9053508160f81b816001815181106116a2576116a2612016565b61ffff8263ffffffff161161181f5760408051600380825281830190925290602082018180368337019050509050608260f81b815f815181106117b7576117b7612016565b60200101906001600160f81b03191690815f1a90535080516001600160f81b031960f084901b1690829060019081106117f2576117f2612016565b60200101906001600160f81b03191690815f1a9053508160f81b816002815181106116a2576116a2612016565b62ffffff8263ffffffff16116119085760408051600480825281830190925290602082018180368337019050509050608360f81b815f8151811061186557611865612016565b60200101906001600160f81b03191690815f1a90535080516001600160f81b031960e884901b1690829060019081106118a0576118a0612016565b60200101906001600160f81b03191690815f1a90535080516001600160f81b031960f084901b1690829060029081106118db576118db612016565b60200101906001600160f81b03191690815f1a9053508160f81b816003815181106116a2576116a2612016565b60408051600580825281830190925290602082018180368337019050509050608460f81b815f8151811061193e5761193e612016565b60200101906001600160f81b03191690815f1a90535080516001600160f81b031960e084901b16908290600190811061197957611979612016565b60200101906001600160f81b03191690815f1a90535080516001600160f81b031960e884901b1690829060029081106119b4576119b4612016565b60200101906001600160f81b03191690815f1a90535080516001600160f81b031960f084901b1690829060039081106119ef576119ef612016565b60200101906001600160f81b03191690815f1a9053508160f81b816004815181106116a2576116a2612016565b919050565b5f611a2d826020612272565b83511015611a5157611a516102b160058551856020611a4c9190612272565b611a67565b611a5c602083612272565b929092015192915050565b6060632800659560e01b8484846040516024016114379392919061241c565b6109ea8061244583390190565b6001600160a01b0381168114611aa7575f5ffd5b50565b8035611a1c81611a93565b634e487b7160e01b5f52604160045260245ffd5b604080519081016001600160401b0381118282101715611aeb57611aeb611ab5565b60405290565b60405161010081016001600160401b0381118282101715611aeb57611aeb611ab5565b604051601f8201601f191681016001600160401b0381118282101715611b3c57611b3c611ab5565b604052919050565b5f6001600160401b03821115611b5c57611b5c611ab5565b5060051b60200190565b5f6001600160401b03821115611b7e57611b7e611ab5565b50601f01601f191660200190565b5f82601f830112611b9b575f5ffd5b8135611bae611ba982611b44565b611b14565b8082825260208201915060208360051b860101925085831115611bcf575f5ffd5b602085015b83811015611ca75780356001600160401b03811115611bf1575f5ffd5b86016040818903601f19011215611c06575f5ffd5b611c0e611ac9565b602082013563ffffffff81168114611c24575f5ffd5b815260408201356001600160401b03811115611c3e575f5ffd5b60208184010192505088601f830112611c55575f5ffd5b8135611c63611ba982611b66565b8181528a6020838601011115611c77575f5ffd5b816020850160208301375f6020838301015280602084015250508085525050602083019250602081019050611bd4565b5095945050505050565b5f5f5f5f5f60a08688031215611cc5575f5ffd5b8535611cd081611a93565b94506020860135611ce081611a93565b9350604086013592506060860135915060808601356001600160401b03811115611d08575f5ffd5b611d1488828901611b8c565b9150509295509295909350565b5f60208284031215611d31575f5ffd5b8135610f0e81611a93565b5f81518084528060208401602086015e5f602082860101526020601f19601f83011685010191505092915050565b602081525f610f0e6020830184611d3c565b80358015158114611a1c575f5ffd5b5f60208284031215611d9b575f5ffd5b81356001600160401b03811115611db0575f5ffd5b82016101008185031215611dc2575f5ffd5b611dca611af1565b611dd382611aaa565b8152611de160208301611aaa565b6020820152611df260408301611aaa565b6040820152606082810135908201526080808301359082015260a08201356001600160401b03811115611e23575f5ffd5b611e2f86828501611b8c565b60a083015250611e4160c08301611d7c565b60c0820152611e5260e08301611aaa565b60e0820152949350505050565b5f60208284031215611e6f575f5ffd5b8151610f0e81611a93565b80516001600160a01b031682525f6020820151611ea260208501826001600160a01b03169052565b5060408201516040840152606082015160608401526080820151608084015260a082015160a084015260c082015161014060c0850152611ee6610140850182611d3c565b905060e083015160e0850152610100830151611f0e6101008601826001600160a01b03169052565b506101208301516101208501528091505092915050565b634e487b7160e01b5f52602160045260245ffd5b805160058110611f4b57611f4b611f25565b825260208181015160ff169083015260408082015190830152606090810151910152565b60a081525f611f8160a0830185611e7a565b9050610f0e6020830184611f39565b5f82601f830112611f9f575f5ffd5b8151611fad611ba982611b66565b818152846020838601011115611fc1575f5ffd5b8160208501602083015e5f918101602001919091529392505050565b5f60208284031215611fed575f5ffd5b81516001600160401b03811115612002575f5ffd5b61200e84828501611f90565b949350505050565b634e487b7160e01b5f52603260045260245ffd5b5f604082016040835280855180835260608501915060608160051b8601019250602087015f5b8281101561208157605f1987860301845261206c858351611e7a565b94506020938401939190910190600101612050565b5050505082810360208401528084518083526020830191506020860192505f5b818110156120ca576120b4838551611f39565b60209390930192608092909201916001016120a1565b50909695505050505050565b5f602082840312156120e6575f5ffd5b81516001600160401b038111156120fb575f5ffd5b8201601f8101841361210b575f5ffd5b8051612119611ba982611b44565b8082825260208201915060208360051b85010192508683111561213a575f5ffd5b602084015b8381101561217a5780516001600160401b0381111561215c575f5ffd5b61216b89602083890101611f90565b8452506020928301920161213f565b509695505050505050565b6001600160a01b03898116825260208083018a905288821660408401528782166060840152908616608083015260a0820185905260c0820184905261010060e0830181905283519083018190525f91610120600583901b8501810192908501918601845b828110156122385761011f19878603018452815163ffffffff815116865260208101519050604060208701526122226040870182611d3c565b95505060209384019391909101906001016121e9565b50929d9c50505050505050505050505050565b634e487b7160e01b5f52601160045260245ffd5b81810381811115610b1857610b1861224b565b80820180821115610b1857610b1861224b565b5f60208284031215612295575f5ffd5b5051919050565b602080825282516001600160a01b039081168383015290830151166040808301919091528201516060808301525f9061200e6080840182611d3c565b6001600160a01b03831681526040602082018190525f9061200e90830184611d3c565b5f6020828403121561230b575f5ffd5b81516001600160e01b031981168114610f0e575f5ffd5b6001600160a01b03841681526060602082018190525f9061234590830185611d3c565b9050826040830152949350505050565b60208082526024908201527f466978696e546f6b656e5370656e6465722f43414e4e4f545f494e564f4b455f60408201526329a2a62360e11b606082015260800190565b6001600160f81b0319858116825284166001820152606083901b6bffffffffffffffffffffffff1916600282015281515f908060208501601685015e5f920160160191825250949350505050565b6001600160a01b03841681526060602082018190525f9061240a90830185611d3c565b82810360408401526103728185611d3c565b606081016008851061243057612430611f25565b93815260208101929092526040909101529056fe60a0604052348015600e575f5ffd5b50336080526080516109a46100465f395f818160e1015281816102210152818161024f0152818161033a015261036801526109a45ff3fe608060405260043610610071575f3560e01c8063b68df16d1161004c578063b68df16d1461011b578063bc197c811461012e578063c0ee0b8a14610175578063f23a6e6114610197575f5ffd5b806301ffc9a71461007c57806354132d78146100b05780638da5cb5b146100d0575f5ffd5b3661007857005b5f5ffd5b348015610087575f5ffd5b5061009b610096366004610582565b6101c3565b60405190151581526020015b60405180910390f35b6100c36100be36600461060c565b610214565b6040516100a79190610692565b3480156100db575f5ffd5b506101037f000000000000000000000000000000000000000000000000000000000000000081565b6040516001600160a01b0390911681526020016100a7565b6100c36101293660046106a4565b61032d565b348015610139575f5ffd5b5061015c610148366004610736565b63bc197c8160e01b98975050505050505050565b6040516001600160e01b031990911681526020016100a7565b348015610180575f5ffd5b5061019561018f3660046107f9565b50505050565b005b3480156101a2575f5ffd5b5061015c6101b1366004610851565b63f23a6e6160e01b9695505050505050565b5f6001600160e01b031982166301ffc9a760e01b14806101f357506001600160e01b03198216630271189760e51b145b8061020e57506001600160e01b0319821663607705c560e11b145b92915050565b6060336001600160a01b037f0000000000000000000000000000000000000000000000000000000000000000161461027857610278610273337f000000000000000000000000000000000000000000000000000000000000000061043b565b61048b565b5f856001600160a01b03168386866040516102949291906108c8565b5f6040518083038185875af1925050503d805f81146102ce576040519150601f19603f3d011682016040523d82523d5f602084013e6102d3565b606091505b50925090508061032457610324610273308888888080601f0160208091040260200160405190810160405280939291908181526020018383808284375f920191909152508a92508991506104939050565b50949350505050565b6060336001600160a01b037f0000000000000000000000000000000000000000000000000000000000000000161461038c5761038c610273337f000000000000000000000000000000000000000000000000000000000000000061043b565b5f846001600160a01b031684846040516103a79291906108c8565b5f60405180830381855af49150503d805f81146103df576040519150601f19603f3d011682016040523d82523d5f602084013e6103e4565b606091505b50925090508061043357610433610273308787878080601f0160208091040260200160405190810160405280939291908181526020018383808284375f9201919091525089925061050c915050565b509392505050565b604080516001600160a01b039384166024820152919092166044808301919091528251808303909101815260649091019091526020810180516001600160e01b0316631de45ad160e01b17905290565b805160208201fd5b60607f86945816f737646db7f2d6df01602a2212e8c75829f6940913724c13a83a817886868686866040516024016104cf9594939291906108d7565b60408051601f198184030181529190526020810180516001600160e01b03166001600160e01b031990931692909217909152905095945050505050565b60607f61e5a7320b4cf56a2980a427f39e3071c967bf2f77fffcaae20e4467e160afcc858585856040516024016105469493929190610926565b60408051601f198184030181529190526020810180516001600160e01b03166001600160e01b0319909316929092179091529050949350505050565b5f60208284031215610592575f5ffd5b81356001600160e01b0319811681146105a9575f5ffd5b9392505050565b6001600160a01b03811681146105c4575f5ffd5b50565b5f5f83601f8401126105d7575f5ffd5b50813567ffffffffffffffff8111156105ee575f5ffd5b602083019150836020828501011115610605575f5ffd5b9250929050565b5f5f5f5f6060858703121561061f575f5ffd5b843561062a816105b0565b9350602085013567ffffffffffffffff811115610645575f5ffd5b610651878288016105c7565b9598909750949560400135949350505050565b5f81518084528060208401602086015e5f602082860101526020601f19601f83011685010191505092915050565b602081525f6105a96020830184610664565b5f5f5f604084860312156106b6575f5ffd5b83356106c1816105b0565b9250602084013567ffffffffffffffff8111156106dc575f5ffd5b6106e8868287016105c7565b9497909650939450505050565b5f5f83601f840112610705575f5ffd5b50813567ffffffffffffffff81111561071c575f5ffd5b6020830191508360208260051b8501011115610605575f5ffd5b5f5f5f5f5f5f5f5f60a0898b03121561074d575f5ffd5b8835610758816105b0565b97506020890135610768816105b0565b9650604089013567ffffffffffffffff811115610783575f5ffd5b61078f8b828c016106f5565b909750955050606089013567ffffffffffffffff8111156107ae575f5ffd5b6107ba8b828c016106f5565b909550935050608089013567ffffffffffffffff8111156107d9575f5ffd5b6107e58b828c016105c7565b999c989b5096995094979396929594505050565b5f5f5f5f6060858703121561080c575f5ffd5b8435610817816105b0565b935060208501359250604085013567ffffffffffffffff811115610839575f5ffd5b610845878288016105c7565b95989497509550505050565b5f5f5f5f5f5f60a08789031215610866575f5ffd5b8635610871816105b0565b95506020870135610881816105b0565b94506040870135935060608701359250608087013567ffffffffffffffff8111156108aa575f5ffd5b6108b689828a016105c7565b979a9699509497509295939492505050565b818382375f9101908152919050565b6001600160a01b0386811682528516602082015260a0604082018190525f9061090290830186610664565b846060840152828103608084015261091a8185610664565b98975050505050505050565b6001600160a01b038581168252841660208201526080604082018190525f9061095190830185610664565b82810360608401526109638185610664565b97965050505050505056fea2646970667358221220c8b89492f15391be9506b45c3b7f0e9e0776732e1554d22b8199e4e539f7abf364736f6c634300081c0033a264697066735822122093f3f55a6edb2aaf72d94896c51cb86e247ff7b8acbbb30ae5a0d611519bd4ca64736f6c634300081c0033",
  "linkReferences": {},
  "deployedLinkReferences": {}
}