{
  "_format": "hh-sol-artifact-1",
  "contractName": "TestLiquidityProvider",
  "sourceName": "contracts/test/integration/TestLiquidityProvider.sol",
  "abi": [
    {
      "anonymous": false,
      "inputs": [
        {
          "indexed": false,
          "internalType": "address",
          "name": "outputToken",
          "type": "address"
        },
        {
          "indexed": false,
          "internalType": "address",
          "name": "recipient",
          "type": "address"
        },
        {
          "indexed": false,
          "internalType": "uint256",
          "name": "minBuyAmount",
          "type": "uint256"
        },
        {
          "indexed": false,
          "internalType": "uint256",
          "name": "ethBalance",
          "type": "uint256"
        }
      ],
      "name": "SellEthForToken",
      "type": "event"
    },
    {
      "anonymous": false,
      "inputs": [
        {
          "indexed": false,
          "internalType": "address",
          "name": "inputToken",
          "type": "address"
        },
        {
          "indexed": false,
          "internalType": "address",
          "name": "recipient",
          "type": "address"
        },
        {
          "indexed": false,
          "internalType": "uint256",
          "name": "minBuyAmount",
          "type": "uint256"
        },
        {
          "indexed": false,
          "internalType": "uint256",
          "name": "inputTokenBalance",
          "type": "uint256"
        }
      ],
      "name": "SellTokenForEth",
      "type": "event"
    },
    {
      "anonymous": false,
      "inputs": [
        {
          "indexed": false,
          "internalType": "address",
          "name": "inputToken",
          "type": "address"
        },
        {
          "indexed": false,
          "internalType": "address",
          "name": "outputToken",
          "type": "address"
        },
        {
          "indexed": false,
          "internalType": "address",
          "name": "recipient",
          "type": "address"
        },
        {
          "indexed": false,
          "internalType": "uint256",
          "name": "minBuyAmount",
          "type": "uint256"
        },
        {
          "indexed": false,
          "internalType": "uint256",
          "name": "inputTokenBalance",
          "type": "uint256"
        }
      ],
      "name": "SellTokenForToken",
      "type": "event"
    },
    {
      "inputs": [
        {
          "internalType": "address",
          "name": "outputToken",
          "type": "address"
        },
        {
          "internalType": "address",
          "name": "recipient",
          "type": "address"
        },
        {
          "internalType": "uint256",
          "name": "minBuyAmount",
          "type": "uint256"
        },
        {
          "internalType": "bytes",
          "name": "",
          "type": "bytes"
        }
      ],
      "name": "sellEthForToken",
      "outputs": [
        {
          "internalType": "uint256",
          "name": "",
          "type": "uint256"
        }
      ],
      "stateMutability": "nonpayable",
      "type": "function"
    },
    {
      "inputs": [
        {
          "internalType": "address",
          "name": "inputToken",
          "type": "address"
        },
        {
          "internalType": "address payable",
          "name": "recipient",
          "type": "address"
        },
        {
          "internalType": "uint256",
          "name": "minBuyAmount",
          "type": "uint256"
        },
        {
          "internalType": "bytes",
          "name": "",
          "type": "bytes"
        }
      ],
      "name": "sellTokenForEth",
      "outputs": [
        {
          "internalType": "uint256",
          "name": "",
          "type": "uint256"
        }
      ],
      "stateMutability": "nonpayable",
      "type": "function"
    },
    {
      "inputs": [
        {
          "internalType": "address",
          "name": "inputToken",
          "type": "address"
        },
        {
          "internalType": "address",
          "name": "outputToken",
          "type": "address"
        },
        {
          "internalType": "address",
          "name": "recipient",
          "type": "address"
        },
        {
          "internalType": "uint256",
          "name": "minBuyAmount",
          "type": "uint256"
        },
        {
          "internalType": "bytes",
          "name": "",
          "type": "bytes"
        }
      ],
      "name": "sellTokenForToken",
      "outputs": [
        {
          "internalType": "uint256",
          "name": "",
          "type": "uint256"
        }
      ],
      "stateMutability": "nonpayable",
      "type": "function"
    },
    {
      "stateMutability": "payable",
      "type": "receive"
    }
  ],
  "bytecode": "0x6080604052348015600f57600080fd5b50610a8c8061001f6000396000f3fe6080604052600436106100385760003560e01c806365d02b041461004457806369be90ec14610081578063b52e8458146100be5761003f565b3661003f57005b600080fd5b34801561005057600080fd5b5061006b6004803603810190610066919061060e565b6100fb565b60405161007891906106b7565b60405180910390f35b34801561008d57600080fd5b506100a860048036038101906100a39190610710565b6102bd565b6040516100b591906106b7565b60405180910390f35b3480156100ca57600080fd5b506100e560048036038101906100e09190610798565b6103c5565b6040516100f291906106b7565b60405180910390f35b60007f72e1b68f223f767f8f4e75471718f528e74c571e73cb3e7d4620e1c5daa44488878787878b73ffffffffffffffffffffffffffffffffffffffff166370a08231306040518263ffffffff1660e01b815260040161015b919061082f565b602060405180830381865afa158015610178573d6000803e3d6000fd5b505050506040513d601f19601f8201168201806040525081019061019c919061085f565b6040516101ad95949392919061088c565b60405180910390a160008673ffffffffffffffffffffffffffffffffffffffff166370a08231306040518263ffffffff1660e01b81526004016101f0919061082f565b602060405180830381865afa15801561020d573d6000803e3d6000fd5b505050506040513d601f19601f82011682018060405250810190610231919061085f565b90508673ffffffffffffffffffffffffffffffffffffffff1663a9059cbb87836040518363ffffffff1660e01b815260040161026e9291906108df565b6020604051808303816000875af115801561028d573d6000803e3d6000fd5b505050506040513d601f19601f820116820180604052508101906102b19190610940565b50509695505050505050565b60007ff19658c26bb755dbf08298ecedda00e49e9d6b5d26968a394637c30849d2427f8686868973ffffffffffffffffffffffffffffffffffffffff166370a08231306040518263ffffffff1660e01b815260040161031c919061082f565b602060405180830381865afa158015610339573d6000803e3d6000fd5b505050506040513d601f19601f8201168201806040525081019061035d919061085f565b60405161036d94939291906109cc565b60405180910390a18473ffffffffffffffffffffffffffffffffffffffff166108fc479081150290604051600060405180830381858888f193505050501580156103bb573d6000803e3d6000fd5b5095945050505050565b60007f678ad43a49f074542215575fe2203b2d03f61a461d1cca15922445e58f2a9ca2868686476040516103fc9493929190610a11565b60405180910390a160008673ffffffffffffffffffffffffffffffffffffffff166370a08231306040518263ffffffff1660e01b815260040161043f919061082f565b602060405180830381865afa15801561045c573d6000803e3d6000fd5b505050506040513d601f19601f82011682018060405250810190610480919061085f565b90508673ffffffffffffffffffffffffffffffffffffffff1663a9059cbb87836040518363ffffffff1660e01b81526004016104bd9291906108df565b6020604051808303816000875af11580156104dc573d6000803e3d6000fd5b505050506040513d601f19601f820116820180604052508101906105009190610940565b505095945050505050565b600080fd5b600080fd5b600073ffffffffffffffffffffffffffffffffffffffff82169050919050565b600061054082610515565b9050919050565b61055081610535565b811461055b57600080fd5b50565b60008135905061056d81610547565b92915050565b6000819050919050565b61058681610573565b811461059157600080fd5b50565b6000813590506105a38161057d565b92915050565b600080fd5b600080fd5b600080fd5b60008083601f8401126105ce576105cd6105a9565b5b8235905067ffffffffffffffff8111156105eb576105ea6105ae565b5b602083019150836001820283011115610607576106066105b3565b5b9250929050565b60008060008060008060a0878903121561062b5761062a61050b565b5b600061063989828a0161055e565b965050602061064a89828a0161055e565b955050604061065b89828a0161055e565b945050606061066c89828a01610594565b935050608087013567ffffffffffffffff81111561068d5761068c610510565b5b61069989828a016105b8565b92509250509295509295509295565b6106b181610573565b82525050565b60006020820190506106cc60008301846106a8565b92915050565b60006106dd82610515565b9050919050565b6106ed816106d2565b81146106f857600080fd5b50565b60008135905061070a816106e4565b92915050565b60008060008060006080868803121561072c5761072b61050b565b5b600061073a8882890161055e565b955050602061074b888289016106fb565b945050604061075c88828901610594565b935050606086013567ffffffffffffffff81111561077d5761077c610510565b5b610789888289016105b8565b92509250509295509295909350565b6000806000806000608086880312156107b4576107b361050b565b5b60006107c28882890161055e565b95505060206107d38882890161055e565b94505060406107e488828901610594565b935050606086013567ffffffffffffffff81111561080557610804610510565b5b610811888289016105b8565b92509250509295509295909350565b61082981610535565b82525050565b60006020820190506108446000830184610820565b92915050565b6000815190506108598161057d565b92915050565b6000602082840312156108755761087461050b565b5b60006108838482850161084a565b91505092915050565b600060a0820190506108a16000830188610820565b6108ae6020830187610820565b6108bb6040830186610820565b6108c860608301856106a8565b6108d560808301846106a8565b9695505050505050565b60006040820190506108f46000830185610820565b61090160208301846106a8565b9392505050565b60008115159050919050565b61091d81610908565b811461092857600080fd5b50565b60008151905061093a81610914565b92915050565b6000602082840312156109565761095561050b565b5b60006109648482850161092b565b91505092915050565b6000819050919050565b600061099261098d61098884610515565b61096d565b610515565b9050919050565b60006109a482610977565b9050919050565b60006109b682610999565b9050919050565b6109c6816109ab565b82525050565b60006080820190506109e16000830187610820565b6109ee60208301866109bd565b6109fb60408301856106a8565b610a0860608301846106a8565b95945050505050565b6000608082019050610a266000830187610820565b610a336020830186610820565b610a4060408301856106a8565b610a4d60608301846106a8565b9594505050505056fea264697066735822122015cd6d8b03c181e4562dcd24ae4de649cbe22af305a92f5c259710ede4f6565164736f6c634300081c0033",
  "linkReferences": {},
  "deployedLinkReferences": {}
}