{
  "_format": "hh-sol-artifact-1",
  "contractName": "TestLiquidityProvider",
  "sourceName": "contracts/test/integration/TestLiquidityProvider.sol",
  "abi": [
    {
      "anonymous": false,
      "inputs": [
        {
          "indexed": false,
          "internalType": "address",
          "name": "outputToken",
          "type": "address"
        },
        {
          "indexed": false,
          "internalType": "address",
          "name": "recipient",
          "type": "address"
        },
        {
          "indexed": false,
          "internalType": "uint256",
          "name": "minBuyAmount",
          "type": "uint256"
        },
        {
          "indexed": false,
          "internalType": "uint256",
          "name": "ethBalance",
          "type": "uint256"
        }
      ],
      "name": "SellEthForToken",
      "type": "event"
    },
    {
      "anonymous": false,
      "inputs": [
        {
          "indexed": false,
          "internalType": "address",
          "name": "inputToken",
          "type": "address"
        },
        {
          "indexed": false,
          "internalType": "address",
          "name": "recipient",
          "type": "address"
        },
        {
          "indexed": false,
          "internalType": "uint256",
          "name": "minBuyAmount",
          "type": "uint256"
        },
        {
          "indexed": false,
          "internalType": "uint256",
          "name": "inputTokenBalance",
          "type": "uint256"
        }
      ],
      "name": "SellTokenForEth",
      "type": "event"
    },
    {
      "anonymous": false,
      "inputs": [
        {
          "indexed": false,
          "internalType": "address",
          "name": "inputToken",
          "type": "address"
        },
        {
          "indexed": false,
          "internalType": "address",
          "name": "outputToken",
          "type": "address"
        },
        {
          "indexed": false,
          "internalType": "address",
          "name": "recipient",
          "type": "address"
        },
        {
          "indexed": false,
          "internalType": "uint256",
          "name": "minBuyAmount",
          "type": "uint256"
        },
        {
          "indexed": false,
          "internalType": "uint256",
          "name": "inputTokenBalance",
          "type": "uint256"
        }
      ],
      "name": "SellTokenForToken",
      "type": "event"
    },
    {
      "inputs": [
        {
          "internalType": "address",
          "name": "outputToken",
          "type": "address"
        },
        {
          "internalType": "address",
          "name": "recipient",
          "type": "address"
        },
        {
          "internalType": "uint256",
          "name": "minBuyAmount",
          "type": "uint256"
        },
        {
          "internalType": "bytes",
          "name": "",
          "type": "bytes"
        }
      ],
      "name": "sellEthForToken",
      "outputs": [
        {
          "internalType": "uint256",
          "name": "",
          "type": "uint256"
        }
      ],
      "stateMutability": "nonpayable",
      "type": "function"
    },
    {
      "inputs": [
        {
          "internalType": "address",
          "name": "inputToken",
          "type": "address"
        },
        {
          "internalType": "address payable",
          "name": "recipient",
          "type": "address"
        },
        {
          "internalType": "uint256",
          "name": "minBuyAmount",
          "type": "uint256"
        },
        {
          "internalType": "bytes",
          "name": "",
          "type": "bytes"
        }
      ],
      "name": "sellTokenForEth",
      "outputs": [
        {
          "internalType": "uint256",
          "name": "",
          "type": "uint256"
        }
      ],
      "stateMutability": "nonpayable",
      "type": "function"
    },
    {
      "inputs": [
        {
          "internalType": "address",
          "name": "inputToken",
          "type": "address"
        },
        {
          "internalType": "address",
          "name": "outputToken",
          "type": "address"
        },
        {
          "internalType": "address",
          "name": "recipient",
          "type": "address"
        },
        {
          "internalType": "uint256",
          "name": "minBuyAmount",
          "type": "uint256"
        },
        {
          "internalType": "bytes",
          "name": "",
          "type": "bytes"
        }
      ],
      "name": "sellTokenForToken",
      "outputs": [
        {
          "internalType": "uint256",
          "name": "",
          "type": "uint256"
        }
      ],
      "stateMutability": "nonpayable",
      "type": "function"
    },
    {
      "stateMutability": "payable",
      "type": "receive"
    }
  ],
  "bytecode": "0x6080604052348015600e575f5ffd5b506107798061001c5f395ff3fe608060405260043610610036575f3560e01c806365d02b041461004157806369be90ec14610072578063b52e845814610091575f5ffd5b3661003d57005b5f5ffd5b34801561004c575f5ffd5b5061006061005b366004610618565b6100b0565b60405190815260200160405180910390f35b34801561007d575f5ffd5b5061006061008c366004610698565b6102e2565b34801561009c575f5ffd5b506100606100ab366004610698565b61041c565b6040517f70a082310000000000000000000000000000000000000000000000000000000081523060048201525f907f72e1b68f223f767f8f4e75471718f528e74c571e73cb3e7d4620e1c5daa4448890889088908890889073ffffffffffffffffffffffffffffffffffffffff8516906370a0823190602401602060405180830381865afa158015610144573d5f5f3e3d5ffd5b505050506040513d601f19601f820116820180604052508101906101689190610706565b6040805173ffffffffffffffffffffffffffffffffffffffff9687168152948616602086015292909416838301526060830152608082019290925290519081900360a00190a16040517f70a082310000000000000000000000000000000000000000000000000000000081523060048201525f9073ffffffffffffffffffffffffffffffffffffffff8816906370a0823190602401602060405180830381865afa158015610218573d5f5f3e3d5ffd5b505050506040513d601f19601f8201168201806040525081019061023c9190610706565b6040517fa9059cbb00000000000000000000000000000000000000000000000000000000815273ffffffffffffffffffffffffffffffffffffffff8881166004830152602482018390529192509088169063a9059cbb906044016020604051808303815f875af11580156102b2573d5f5f3e3d5ffd5b505050506040513d601f19601f820116820180604052508101906102d6919061071d565b50509695505050505050565b6040517f70a082310000000000000000000000000000000000000000000000000000000081523060048201525f907ff19658c26bb755dbf08298ecedda00e49e9d6b5d26968a394637c30849d2427f9087908790879073ffffffffffffffffffffffffffffffffffffffff8416906370a0823190602401602060405180830381865afa158015610374573d5f5f3e3d5ffd5b505050506040513d601f19601f820116820180604052508101906103989190610706565b6040805173ffffffffffffffffffffffffffffffffffffffff958616815294909316602085015291830152606082015260800160405180910390a160405173ffffffffffffffffffffffffffffffffffffffff8616904780156108fc02915f818181858888f19350505050158015610412573d5f5f3e3d5ffd5b5095945050505050565b6040805173ffffffffffffffffffffffffffffffffffffffff8088168252861660208201529081018490524760608201525f907f678ad43a49f074542215575fe2203b2d03f61a461d1cca15922445e58f2a9ca29060800160405180910390a16040517f70a082310000000000000000000000000000000000000000000000000000000081523060048201525f9073ffffffffffffffffffffffffffffffffffffffff8816906370a0823190602401602060405180830381865afa1580156104e6573d5f5f3e3d5ffd5b505050506040513d601f19601f8201168201806040525081019061050a9190610706565b6040517fa9059cbb00000000000000000000000000000000000000000000000000000000815273ffffffffffffffffffffffffffffffffffffffff8881166004830152602482018390529192509088169063a9059cbb906044016020604051808303815f875af1158015610580573d5f5f3e3d5ffd5b505050506040513d601f19601f820116820180604052508101906105a4919061071d565b505095945050505050565b73ffffffffffffffffffffffffffffffffffffffff811681146105d0575f5ffd5b50565b5f5f83601f8401126105e3575f5ffd5b50813567ffffffffffffffff8111156105fa575f5ffd5b602083019150836020828501011115610611575f5ffd5b9250929050565b5f5f5f5f5f5f60a0878903121561062d575f5ffd5b8635610638816105af565b95506020870135610648816105af565b94506040870135610658816105af565b935060608701359250608087013567ffffffffffffffff81111561067a575f5ffd5b61068689828a016105d3565b979a9699509497509295939492505050565b5f5f5f5f5f608086880312156106ac575f5ffd5b85356106b7816105af565b945060208601356106c7816105af565b935060408601359250606086013567ffffffffffffffff8111156106e9575f5ffd5b6106f5888289016105d3565b969995985093965092949392505050565b5f60208284031215610716575f5ffd5b5051919050565b5f6020828403121561072d575f5ffd5b8151801515811461073c575f5ffd5b939250505056fea26469706673582212209733b3a0c1de4057693565c267bb1121f8145bcaf237e04a8acdaf9a10ff9c8464736f6c634300081c0033",
  "linkReferences": {},
  "deployedLinkReferences": {}
}