{
  "_format": "hh-sol-artifact-1",
  "contractName": "TestMigrator",
  "sourceName": "contracts/test/TestMigrator.sol",
  "abi": [
    {
      "anonymous": false,
      "inputs": [
        {
          "indexed": false,
          "internalType": "bytes",
          "name": "callData",
          "type": "bytes"
        },
        {
          "indexed": false,
          "internalType": "address",
          "name": "owner",
          "type": "address"
        }
      ],
      "name": "TestMigrateCalled",
      "type": "event"
    },
    {
      "inputs": [],
      "name": "failingMigrate",
      "outputs": [
        {
          "internalType": "bytes4",
          "name": "success",
          "type": "bytes4"
        }
      ],
      "stateMutability": "nonpayable",
      "type": "function"
    },
    {
      "inputs": [],
      "name": "revertingMigrate",
      "outputs": [],
      "stateMutability": "pure",
      "type": "function"
    },
    {
      "inputs": [],
      "name": "succeedingMigrate",
      "outputs": [
        {
          "internalType": "bytes4",
          "name": "success",
          "type": "bytes4"
        }
      ],
      "stateMutability": "nonpayable",
      "type": "function"
    }
  ],
  "bytecode": "0x6080604052348015600f57600080fd5b506104718061001f6000396000f3fe608060405234801561001057600080fd5b50600436106100415760003560e01c80637bed0d4614610046578063d3a80e0014610064578063e9dd3b5e14610082575b600080fd5b61004e61008c565b60405161005b9190610274565b60405180910390f35b61006c610145565b6040516100799190610274565b60405180910390f35b61008a6101fe565b005b60007fe47925e33e8d756f6e7b37949af1b9aa319f06d1e2a77e9975c524eb2dfc62946000363073ffffffffffffffffffffffffffffffffffffffff16638da5cb5b6040518163ffffffff1660e01b8152600401602060405180830381865afa1580156100fd573d6000803e3d6000fd5b505050506040513d601f19601f8201168201806040525081019061012191906102f2565b6040516101309392919061038c565b60405180910390a163deadbeef60e01b905090565b60007fe47925e33e8d756f6e7b37949af1b9aa319f06d1e2a77e9975c524eb2dfc62946000363073ffffffffffffffffffffffffffffffffffffffff16638da5cb5b6040518163ffffffff1660e01b8152600401602060405180830381865afa1580156101b6573d6000803e3d6000fd5b505050506040513d601f19601f820116820180604052508101906101da91906102f2565b6040516101e99392919061038c565b60405180910390a1632c64c5ef60e01b905090565b6040517f08c379a00000000000000000000000000000000000000000000000000000000081526004016102309061041b565b60405180910390fd5b60007fffffffff0000000000000000000000000000000000000000000000000000000082169050919050565b61026e81610239565b82525050565b60006020820190506102896000830184610265565b92915050565b600080fd5b600073ffffffffffffffffffffffffffffffffffffffff82169050919050565b60006102bf82610294565b9050919050565b6102cf816102b4565b81146102da57600080fd5b50565b6000815190506102ec816102c6565b92915050565b6000602082840312156103085761030761028f565b5b6000610316848285016102dd565b91505092915050565b600082825260208201905092915050565b82818337600083830152505050565b6000601f19601f8301169050919050565b600061035c838561031f565b9350610369838584610330565b6103728361033f565b840190509392505050565b610386816102b4565b82525050565b600060408201905081810360008301526103a7818587610350565b90506103b6602083018461037d565b949350505050565b600082825260208201905092915050565b7f4f4f505349450000000000000000000000000000000000000000000000000000600082015250565b60006104056006836103be565b9150610410826103cf565b602082019050919050565b60006020820190508181036000830152610434816103f8565b905091905056fea26469706673582212202b64477f543f801d795e7efa9b254c2cbd25ad6b73cd37711f603f3a468c6a6764736f6c634300081c0033",
  "linkReferences": {},
  "deployedLinkReferences": {}
}