{
  "_format": "hh-sol-artifact-1",
  "contractName": "TestMigrator",
  "sourceName": "contracts/test/TestMigrator.sol",
  "abi": [
    {
      "anonymous": false,
      "inputs": [
        {
          "indexed": false,
          "internalType": "bytes",
          "name": "callData",
          "type": "bytes"
        },
        {
          "indexed": false,
          "internalType": "address",
          "name": "owner",
          "type": "address"
        }
      ],
      "name": "TestMigrateCalled",
      "type": "event"
    },
    {
      "inputs": [],
      "name": "failingMigrate",
      "outputs": [
        {
          "internalType": "bytes4",
          "name": "success",
          "type": "bytes4"
        }
      ],
      "stateMutability": "nonpayable",
      "type": "function"
    },
    {
      "inputs": [],
      "name": "revertingMigrate",
      "outputs": [],
      "stateMutability": "pure",
      "type": "function"
    },
    {
      "inputs": [],
      "name": "succeedingMigrate",
      "outputs": [
        {
          "internalType": "bytes4",
          "name": "success",
          "type": "bytes4"
        }
      ],
      "stateMutability": "nonpayable",
      "type": "function"
    }
  ],
  "bytecode": "0x6080604052348015600e575f5ffd5b5061036d8061001c5f395ff3fe608060405234801561000f575f5ffd5b506004361061003f575f3560e01c80637bed0d4614610043578063d3a80e0014610080578063e9dd3b5e14610088575b5f5ffd5b61004b610092565b6040517fffffffff00000000000000000000000000000000000000000000000000000000909116815260200160405180910390f35b61004b61015f565b61009061022c565b005b5f7fe47925e33e8d756f6e7b37949af1b9aa319f06d1e2a77e9975c524eb2dfc62945f363073ffffffffffffffffffffffffffffffffffffffff16638da5cb5b6040518163ffffffff1660e01b8152600401602060405180830381865afa1580156100ff573d5f5f3e3d5ffd5b505050506040513d601f19601f820116820180604052508101906101239190610292565b604051610132939291906102cc565b60405180910390a1507fdeadbeef0000000000000000000000000000000000000000000000000000000090565b5f7fe47925e33e8d756f6e7b37949af1b9aa319f06d1e2a77e9975c524eb2dfc62945f363073ffffffffffffffffffffffffffffffffffffffff16638da5cb5b6040518163ffffffff1660e01b8152600401602060405180830381865afa1580156101cc573d5f5f3e3d5ffd5b505050506040513d601f19601f820116820180604052508101906101f09190610292565b6040516101ff939291906102cc565b60405180910390a1507f2c64c5ef0000000000000000000000000000000000000000000000000000000090565b6040517f08c379a000000000000000000000000000000000000000000000000000000000815260206004820152600660248201527f4f4f505349450000000000000000000000000000000000000000000000000000604482015260640160405180910390fd5b5f602082840312156102a2575f5ffd5b815173ffffffffffffffffffffffffffffffffffffffff811681146102c5575f5ffd5b9392505050565b60408152826040820152828460608301375f606084830101525f60607fffffffffffffffffffffffffffffffffffffffffffffffffffffffffffffffe0601f860116830101905073ffffffffffffffffffffffffffffffffffffffff8316602083015294935050505056fea26469706673582212200a478d5a8802302a3516ddc5c6396f2211be22aacd3a65875154e93362825d5964736f6c634300081c0033",
  "linkReferences": {},
  "deployedLinkReferences": {}
}