{
  "_format": "hh-sol-artifact-1",
  "contractName": "TransformerDeployer",
  "sourceName": "contracts/src/external/TransformerDeployer.sol",
  "abi": [
    {
      "inputs": [
        {
          "internalType": "address[]",
          "name": "initialAuthorities",
          "type": "address[]"
        }
      ],
      "stateMutability": "nonpayable",
      "type": "constructor"
    },
    {
      "anonymous": false,
      "inputs": [
        {
          "indexed": true,
          "internalType": "address",
          "name": "target",
          "type": "address"
        },
        {
          "indexed": true,
          "internalType": "address",
          "name": "caller",
          "type": "address"
        }
      ],
      "name": "AuthorizedAddressAdded",
      "type": "event"
    },
    {
      "anonymous": false,
      "inputs": [
        {
          "indexed": true,
          "internalType": "address",
          "name": "target",
          "type": "address"
        },
        {
          "indexed": true,
          "internalType": "address",
          "name": "caller",
          "type": "address"
        }
      ],
      "name": "AuthorizedAddressRemoved",
      "type": "event"
    },
    {
      "anonymous": false,
      "inputs": [
        {
          "indexed": false,
          "internalType": "address",
          "name": "deployedAddress",
          "type": "address"
        },
        {
          "indexed": false,
          "internalType": "uint256",
          "name": "nonce",
          "type": "uint256"
        },
        {
          "indexed": false,
          "internalType": "address",
          "name": "sender",
          "type": "address"
        }
      ],
      "name": "Deployed",
      "type": "event"
    },
    {
      "anonymous": false,
      "inputs": [
        {
          "indexed": false,
          "internalType": "address",
          "name": "target",
          "type": "address"
        },
        {
          "indexed": false,
          "internalType": "address",
          "name": "sender",
          "type": "address"
        }
      ],
      "name": "Killed",
      "type": "event"
    },
    {
      "anonymous": false,
      "inputs": [
        {
          "indexed": true,
          "internalType": "address",
          "name": "previousOwner",
          "type": "address"
        },
        {
          "indexed": true,
          "internalType": "address",
          "name": "newOwner",
          "type": "address"
        }
      ],
      "name": "OwnershipTransferred",
      "type": "event"
    },
    {
      "inputs": [
        {
          "internalType": "address",
          "name": "target",
          "type": "address"
        }
      ],
      "name": "addAuthorizedAddress",
      "outputs": [],
      "stateMutability": "nonpayable",
      "type": "function"
    },
    {
      "inputs": [
        {
          "internalType": "uint256",
          "name": "",
          "type": "uint256"
        }
      ],
      "name": "authorities",
      "outputs": [
        {
          "internalType": "address",
          "name": "",
          "type": "address"
        }
      ],
      "stateMutability": "view",
      "type": "function"
    },
    {
      "inputs": [
        {
          "internalType": "address",
          "name": "",
          "type": "address"
        }
      ],
      "name": "authorized",
      "outputs": [
        {
          "internalType": "bool",
          "name": "",
          "type": "bool"
        }
      ],
      "stateMutability": "view",
      "type": "function"
    },
    {
      "inputs": [
        {
          "internalType": "bytes",
          "name": "bytecode",
          "type": "bytes"
        }
      ],
      "name": "deploy",
      "outputs": [
        {
          "internalType": "address",
          "name": "deployedAddress",
          "type": "address"
        }
      ],
      "stateMutability": "payable",
      "type": "function"
    },
    {
      "inputs": [],
      "name": "getAuthorizedAddresses",
      "outputs": [
        {
          "internalType": "address[]",
          "name": "",
          "type": "address[]"
        }
      ],
      "stateMutability": "view",
      "type": "function"
    },
    {
      "inputs": [
        {
          "internalType": "contract IKillable",
          "name": "target",
          "type": "address"
        },
        {
          "internalType": "address payable",
          "name": "ethRecipient",
          "type": "address"
        }
      ],
      "name": "kill",
      "outputs": [],
      "stateMutability": "nonpayable",
      "type": "function"
    },
    {
      "inputs": [],
      "name": "nonce",
      "outputs": [
        {
          "internalType": "uint256",
          "name": "",
          "type": "uint256"
        }
      ],
      "stateMutability": "view",
      "type": "function"
    },
    {
      "inputs": [],
      "name": "owner",
      "outputs": [
        {
          "internalType": "address",
          "name": "",
          "type": "address"
        }
      ],
      "stateMutability": "view",
      "type": "function"
    },
    {
      "inputs": [
        {
          "internalType": "address",
          "name": "target",
          "type": "address"
        }
      ],
      "name": "removeAuthorizedAddress",
      "outputs": [],
      "stateMutability": "nonpayable",
      "type": "function"
    },
    {
      "inputs": [
        {
          "internalType": "address",
          "name": "target",
          "type": "address"
        },
        {
          "internalType": "uint256",
          "name": "index",
          "type": "uint256"
        }
      ],
      "name": "removeAuthorizedAddressAtIndex",
      "outputs": [],
      "stateMutability": "nonpayable",
      "type": "function"
    },
    {
      "inputs": [
        {
          "internalType": "address",
          "name": "",
          "type": "address"
        }
      ],
      "name": "toDeploymentNonce",
      "outputs": [
        {
          "internalType": "uint256",
          "name": "",
          "type": "uint256"
        }
      ],
      "stateMutability": "view",
      "type": "function"
    },
    {
      "inputs": [
        {
          "internalType": "address",
          "name": "newOwner",
          "type": "address"
        }
      ],
      "name": "transferOwnership",
      "outputs": [],
      "stateMutability": "nonpayable",
      "type": "function"
    }
  ],
  "bytecode": "0x6080604052600160035534801561001557600080fd5b50604051611e76380380611e7683398181016040528101906100379190610525565b336000806101000a81548173ffffffffffffffffffffffffffffffffffffffff021916908373ffffffffffffffffffffffffffffffffffffffff16021790555060005b81518110156100b7576100ac8282815181106100995761009861056e565b5b60200260200101516100be60201b60201c565b80600101905061007a565b50506105c7565b600073ffffffffffffffffffffffffffffffffffffffff168173ffffffffffffffffffffffffffffffffffffffff160361010f5761010e61010361029660201b60201c565b6102d360201b60201c565b5b600160008273ffffffffffffffffffffffffffffffffffffffff1673ffffffffffffffffffffffffffffffffffffffff16815260200190815260200160002060009054906101000a900460ff161561017f5761017e610173826102db60201b60201c565b6102d360201b60201c565b5b60018060008373ffffffffffffffffffffffffffffffffffffffff1673ffffffffffffffffffffffffffffffffffffffff16815260200190815260200160002060006101000a81548160ff0219169083151502179055506002819080600181540180825580915050600190039060005260206000200160009091909190916101000a81548173ffffffffffffffffffffffffffffffffffffffff021916908373ffffffffffffffffffffffffffffffffffffffff1602179055503373ffffffffffffffffffffffffffffffffffffffff168173ffffffffffffffffffffffffffffffffffffffff167f3147867c59d17e8fa9d522465651d44aae0a9e38f902f3475b97e58072f0ed4c60405160405180910390a350565b60606040518060400160405280600481526020017f57654fe400000000000000000000000000000000000000000000000000000000815250905090565b805160208201fd5b606063de16f1a060e01b826040516024016102f691906105ac565b604051602081830303815290604052907bffffffffffffffffffffffffffffffffffffffffffffffffffffffff19166020820180517bffffffffffffffffffffffffffffffffffffffffffffffffffffffff83818316178352505050509050919050565b6000604051905090565b600080fd5b600080fd5b600080fd5b6000601f19601f8301169050919050565b7f4e487b7100000000000000000000000000000000000000000000000000000000600052604160045260246000fd5b6103bc82610373565b810181811067ffffffffffffffff821117156103db576103da610384565b5b80604052505050565b60006103ee61035a565b90506103fa82826103b3565b919050565b600067ffffffffffffffff82111561041a57610419610384565b5b602082029050602081019050919050565b600080fd5b600073ffffffffffffffffffffffffffffffffffffffff82169050919050565b600061045b82610430565b9050919050565b61046b81610450565b811461047657600080fd5b50565b60008151905061048881610462565b92915050565b60006104a161049c846103ff565b6103e4565b905080838252602082019050602084028301858111156104c4576104c361042b565b5b835b818110156104ed57806104d98882610479565b8452602084019350506020810190506104c6565b5050509392505050565b600082601f83011261050c5761050b61036e565b5b815161051c84826020860161048e565b91505092915050565b60006020828403121561053b5761053a610364565b5b600082015167ffffffffffffffff81111561055957610558610369565b5b610565848285016104f7565b91505092915050565b7f4e487b7100000000000000000000000000000000000000000000000000000000600052603260045260246000fd5b6105a681610450565b82525050565b60006020820190506105c1600083018461059d565b92915050565b6118a0806105d66000396000f3fe6080604052600436106100a65760003560e01c80638da5cb5b116100645780638da5cb5b146101d05780639ad26744146101fb578063affed0e014610224578063b91816111461024f578063d39de6e91461028c578063f2fde38b146102b7576100a6565b8062774360146100ab5780630567e83e146100db57806342f1181e14610104578063494503d41461012d57806367b043681461016a57806370712939146101a7575b600080fd5b6100c560048036038101906100c09190611282565b6102e0565b6040516100d2919061130c565b60405180910390f35b3480156100e757600080fd5b5061010260048036038101906100fd91906113a3565b610409565b005b34801561011057600080fd5b5061012b6004803603810190610126919061140f565b6104b9565b005b34801561013957600080fd5b50610154600480360381019061014f9190611472565b6104cd565b604051610161919061130c565b60405180910390f35b34801561017657600080fd5b50610191600480360381019061018c919061140f565b61050c565b60405161019e91906114ae565b60405180910390f35b3480156101b357600080fd5b506101ce60048036038101906101c9919061140f565b610524565b005b3480156101dc57600080fd5b506101e5610630565b6040516101f2919061130c565b60405180910390f35b34801561020757600080fd5b50610222600480360381019061021d91906114c9565b610654565b005b34801561023057600080fd5b5061023961066a565b60405161024691906114ae565b60405180910390f35b34801561025b57600080fd5b506102766004803603810190610271919061140f565b610670565b6040516102839190611524565b60405180910390f35b34801561029857600080fd5b506102a1610690565b6040516102ae91906115fd565b60405180910390f35b3480156102c357600080fd5b506102de60048036038101906102d9919061140f565b61071e565b005b60006102ea61080d565b60006003549050600160036000828254610304919061164e565b9250508190555082516020840134f09150600073ffffffffffffffffffffffffffffffffffffffff168273ffffffffffffffffffffffffffffffffffffffff1603610384576040517f08c379a000000000000000000000000000000000000000000000000000000000815260040161037b90611705565b60405180910390fd5b80600460008473ffffffffffffffffffffffffffffffffffffffff1673ffffffffffffffffffffffffffffffffffffffff168152602001908152602001600020819055507f0f7cceb5b8900763db0b46908960abf22a5d055a4a7395b6b83862d93f241d218282336040516103fb93929190611725565b60405180910390a150919050565b61041161080d565b8173ffffffffffffffffffffffffffffffffffffffff1663c9353cb5826040518263ffffffff1660e01b815260040161044a919061176b565b600060405180830381600087803b15801561046457600080fd5b505af1158015610478573d6000803e3d6000fd5b505050507fdfbd6241378f1ad47e76019eac61d2c245fdd5709e3fc2cd36641ee506db169382336040516104ad929190611786565b60405180910390a15050565b6104c1610872565b6104ca816108fa565b50565b600281815481106104dd57600080fd5b906000526020600020016000915054906101000a900473ffffffffffffffffffffffffffffffffffffffff1681565b60046020528060005260406000206000915090505481565b61052c610872565b600160008273ffffffffffffffffffffffffffffffffffffffff1673ffffffffffffffffffffffffffffffffffffffff16815260200190815260200160002060009054906101000a900460ff1661058f5761058e61058982610aba565b610b39565b5b60005b60028054905081101561062c578173ffffffffffffffffffffffffffffffffffffffff16600282815481106105ca576105c96117af565b5b9060005260206000200160009054906101000a900473ffffffffffffffffffffffffffffffffffffffff1673ffffffffffffffffffffffffffffffffffffffff160361061f5761061a8282610b41565b61062c565b8080600101915050610592565b5050565b60008054906101000a900473ffffffffffffffffffffffffffffffffffffffff1681565b61065c610872565b6106668282610b41565b5050565b60035481565b60016020528060005260406000206000915054906101000a900460ff1681565b6060600280548060200260200160405190810160405280929190818152602001828054801561071457602002820191906000526020600020905b8160009054906101000a900473ffffffffffffffffffffffffffffffffffffffff1673ffffffffffffffffffffffffffffffffffffffff16815260200190600101908083116106ca575b5050505050905090565b610726610872565b600073ffffffffffffffffffffffffffffffffffffffff168173ffffffffffffffffffffffffffffffffffffffff160361076f5761076a610765610e2a565b610b39565b61080a565b806000806101000a81548173ffffffffffffffffffffffffffffffffffffffff021916908373ffffffffffffffffffffffffffffffffffffffff1602179055508073ffffffffffffffffffffffffffffffffffffffff163373ffffffffffffffffffffffffffffffffffffffff167f8be0079c531659141344cd1fd0a4f28419497f9722a3daafe3b4186f6b6457e060405160405180910390a35b50565b600160003373ffffffffffffffffffffffffffffffffffffffff1673ffffffffffffffffffffffffffffffffffffffff16815260200190815260200160002060009054906101000a900460ff166108705761086f61086a33610e67565b610b39565b5b565b60008054906101000a900473ffffffffffffffffffffffffffffffffffffffff1673ffffffffffffffffffffffffffffffffffffffff163373ffffffffffffffffffffffffffffffffffffffff16146108f8576108f76108f23360008054906101000a900473ffffffffffffffffffffffffffffffffffffffff16610ee6565b610b39565b5b565b600073ffffffffffffffffffffffffffffffffffffffff168173ffffffffffffffffffffffffffffffffffffffff160361093f5761093e610939610f68565b610b39565b5b600160008273ffffffffffffffffffffffffffffffffffffffff1673ffffffffffffffffffffffffffffffffffffffff16815260200190815260200160002060009054906101000a900460ff16156109a3576109a261099d82610fa5565b610b39565b5b60018060008373ffffffffffffffffffffffffffffffffffffffff1673ffffffffffffffffffffffffffffffffffffffff16815260200190815260200160002060006101000a81548160ff0219169083151502179055506002819080600181540180825580915050600190039060005260206000200160009091909190916101000a81548173ffffffffffffffffffffffffffffffffffffffff021916908373ffffffffffffffffffffffffffffffffffffffff1602179055503373ffffffffffffffffffffffffffffffffffffffff168173ffffffffffffffffffffffffffffffffffffffff167f3147867c59d17e8fa9d522465651d44aae0a9e38f902f3475b97e58072f0ed4c60405160405180910390a350565b606063eb5108a260e01b82604051602401610ad5919061130c565b604051602081830303815290604052907bffffffffffffffffffffffffffffffffffffffffffffffffffffffff19166020820180517bffffffffffffffffffffffffffffffffffffffffffffffffffffffff83818316178352505050509050919050565b805160208201fd5b600160008373ffffffffffffffffffffffffffffffffffffffff1673ffffffffffffffffffffffffffffffffffffffff16815260200190815260200160002060009054906101000a900460ff16610ba457610ba3610b9e83610aba565b610b39565b5b6002805490508110610bc857610bc7610bc282600280549050611024565b610b39565b5b8173ffffffffffffffffffffffffffffffffffffffff1660028281548110610bf357610bf26117af565b5b9060005260206000200160009054906101000a900473ffffffffffffffffffffffffffffffffffffffff1673ffffffffffffffffffffffffffffffffffffffff1614610c8a57610c89610c8460028381548110610c5357610c526117af565b5b9060005260206000200160009054906101000a900473ffffffffffffffffffffffffffffffffffffffff16846110a6565b610b39565b5b600160008373ffffffffffffffffffffffffffffffffffffffff1673ffffffffffffffffffffffffffffffffffffffff16815260200190815260200160002060006101000a81549060ff021916905560026001600280549050610ced91906117de565b81548110610cfe57610cfd6117af565b5b9060005260206000200160009054906101000a900473ffffffffffffffffffffffffffffffffffffffff1660028281548110610d3d57610d3c6117af565b5b9060005260206000200160006101000a81548173ffffffffffffffffffffffffffffffffffffffff021916908373ffffffffffffffffffffffffffffffffffffffff1602179055506002805480610d9757610d96611812565b5b6001900381819060005260206000200160006101000a81549073ffffffffffffffffffffffffffffffffffffffff021916905590553373ffffffffffffffffffffffffffffffffffffffff168273ffffffffffffffffffffffffffffffffffffffff167f1f32c1b084e2de0713b8fb16bd46bb9df710a3dbeae2f3ca93af46e016dcc6b060405160405180910390a35050565b60606040518060400160405280600481526020017fe69edc3e00000000000000000000000000000000000000000000000000000000815250905090565b606063b65a25b960e01b82604051602401610e82919061130c565b604051602081830303815290604052907bffffffffffffffffffffffffffffffffffffffffffffffffffffffff19166020820180517bffffffffffffffffffffffffffffffffffffffffffffffffffffffff83818316178352505050509050919050565b6060631de45ad160e01b8383604051602401610f03929190611786565b604051602081830303815290604052907bffffffffffffffffffffffffffffffffffffffffffffffffffffffff19166020820180517bffffffffffffffffffffffffffffffffffffffffffffffffffffffff8381831617835250505050905092915050565b60606040518060400160405280600481526020017f57654fe400000000000000000000000000000000000000000000000000000000815250905090565b606063de16f1a060e01b82604051602401610fc0919061130c565b604051602081830303815290604052907bffffffffffffffffffffffffffffffffffffffffffffffffffffffff19166020820180517bffffffffffffffffffffffffffffffffffffffffffffffffffffffff83818316178352505050509050919050565b606063e9f8377160e01b8383604051602401611041929190611841565b604051602081830303815290604052907bffffffffffffffffffffffffffffffffffffffffffffffffffffffff19166020820180517bffffffffffffffffffffffffffffffffffffffffffffffffffffffff8381831617835250505050905092915050565b606063140a84db60e01b83836040516024016110c3929190611786565b604051602081830303815290604052907bffffffffffffffffffffffffffffffffffffffffffffffffffffffff19166020820180517bffffffffffffffffffffffffffffffffffffffffffffffffffffffff8381831617835250505050905092915050565b6000604051905090565b600080fd5b600080fd5b600080fd5b600080fd5b6000601f19601f8301169050919050565b7f4e487b7100000000000000000000000000000000000000000000000000000000600052604160045260246000fd5b61118f82611146565b810181811067ffffffffffffffff821117156111ae576111ad611157565b5b80604052505050565b60006111c1611128565b90506111cd8282611186565b919050565b600067ffffffffffffffff8211156111ed576111ec611157565b5b6111f682611146565b9050602081019050919050565b82818337600083830152505050565b6000611225611220846111d2565b6111b7565b90508281526020810184848401111561124157611240611141565b5b61124c848285611203565b509392505050565b600082601f8301126112695761126861113c565b5b8135611279848260208601611212565b91505092915050565b60006020828403121561129857611297611132565b5b600082013567ffffffffffffffff8111156112b6576112b5611137565b5b6112c284828501611254565b91505092915050565b600073ffffffffffffffffffffffffffffffffffffffff82169050919050565b60006112f6826112cb565b9050919050565b611306816112eb565b82525050565b600060208201905061132160008301846112fd565b92915050565b6000611332826112eb565b9050919050565b61134281611327565b811461134d57600080fd5b50565b60008135905061135f81611339565b92915050565b6000611370826112cb565b9050919050565b61138081611365565b811461138b57600080fd5b50565b60008135905061139d81611377565b92915050565b600080604083850312156113ba576113b9611132565b5b60006113c885828601611350565b92505060206113d98582860161138e565b9150509250929050565b6113ec816112eb565b81146113f757600080fd5b50565b600081359050611409816113e3565b92915050565b60006020828403121561142557611424611132565b5b6000611433848285016113fa565b91505092915050565b6000819050919050565b61144f8161143c565b811461145a57600080fd5b50565b60008135905061146c81611446565b92915050565b60006020828403121561148857611487611132565b5b60006114968482850161145d565b91505092915050565b6114a88161143c565b82525050565b60006020820190506114c3600083018461149f565b92915050565b600080604083850312156114e0576114df611132565b5b60006114ee858286016113fa565b92505060206114ff8582860161145d565b9150509250929050565b60008115159050919050565b61151e81611509565b82525050565b60006020820190506115396000830184611515565b92915050565b600081519050919050565b600082825260208201905092915050565b6000819050602082019050919050565b611574816112eb565b82525050565b6000611586838361156b565b60208301905092915050565b6000602082019050919050565b60006115aa8261153f565b6115b4818561154a565b93506115bf8361155b565b8060005b838110156115f05781516115d7888261157a565b97506115e283611592565b9250506001810190506115c3565b5085935050505092915050565b60006020820190508181036000830152611617818461159f565b905092915050565b7f4e487b7100000000000000000000000000000000000000000000000000000000600052601160045260246000fd5b60006116598261143c565b91506116648361143c565b925082820190508082111561167c5761167b61161f565b5b92915050565b600082825260208201905092915050565b7f5472616e73666f726d65724465706c6f7965722f4445504c4f595f4641494c4560008201527f4400000000000000000000000000000000000000000000000000000000000000602082015250565b60006116ef602183611682565b91506116fa82611693565b604082019050919050565b6000602082019050818103600083015261171e816116e2565b9050919050565b600060608201905061173a60008301866112fd565b611747602083018561149f565b61175460408301846112fd565b949350505050565b61176581611365565b82525050565b6000602082019050611780600083018461175c565b92915050565b600060408201905061179b60008301856112fd565b6117a860208301846112fd565b9392505050565b7f4e487b7100000000000000000000000000000000000000000000000000000000600052603260045260246000fd5b60006117e98261143c565b91506117f48361143c565b925082820390508181111561180c5761180b61161f565b5b92915050565b7f4e487b7100000000000000000000000000000000000000000000000000000000600052603160045260246000fd5b6000604082019050611856600083018561149f565b611863602083018461149f565b939250505056fea264697066735822122010718672faf47c1179817484dc9bddbea19826049e4595f538b6a7ee6326505064736f6c634300081c0033",
  "linkReferences": {},
  "deployedLinkReferences": {}
}