{
  "_format": "hh-sol-artifact-1",
  "contractName": "TransformerDeployer",
  "sourceName": "contracts/src/external/TransformerDeployer.sol",
  "abi": [
    {
      "inputs": [
        {
          "internalType": "address[]",
          "name": "initialAuthorities",
          "type": "address[]"
        }
      ],
      "stateMutability": "nonpayable",
      "type": "constructor"
    },
    {
      "anonymous": false,
      "inputs": [
        {
          "indexed": true,
          "internalType": "address",
          "name": "target",
          "type": "address"
        },
        {
          "indexed": true,
          "internalType": "address",
          "name": "caller",
          "type": "address"
        }
      ],
      "name": "AuthorizedAddressAdded",
      "type": "event"
    },
    {
      "anonymous": false,
      "inputs": [
        {
          "indexed": true,
          "internalType": "address",
          "name": "target",
          "type": "address"
        },
        {
          "indexed": true,
          "internalType": "address",
          "name": "caller",
          "type": "address"
        }
      ],
      "name": "AuthorizedAddressRemoved",
      "type": "event"
    },
    {
      "anonymous": false,
      "inputs": [
        {
          "indexed": false,
          "internalType": "address",
          "name": "deployedAddress",
          "type": "address"
        },
        {
          "indexed": false,
          "internalType": "uint256",
          "name": "nonce",
          "type": "uint256"
        },
        {
          "indexed": false,
          "internalType": "address",
          "name": "sender",
          "type": "address"
        }
      ],
      "name": "Deployed",
      "type": "event"
    },
    {
      "anonymous": false,
      "inputs": [
        {
          "indexed": false,
          "internalType": "address",
          "name": "target",
          "type": "address"
        },
        {
          "indexed": false,
          "internalType": "address",
          "name": "sender",
          "type": "address"
        }
      ],
      "name": "Killed",
      "type": "event"
    },
    {
      "anonymous": false,
      "inputs": [
        {
          "indexed": true,
          "internalType": "address",
          "name": "previousOwner",
          "type": "address"
        },
        {
          "indexed": true,
          "internalType": "address",
          "name": "newOwner",
          "type": "address"
        }
      ],
      "name": "OwnershipTransferred",
      "type": "event"
    },
    {
      "inputs": [
        {
          "internalType": "address",
          "name": "target",
          "type": "address"
        }
      ],
      "name": "addAuthorizedAddress",
      "outputs": [],
      "stateMutability": "nonpayable",
      "type": "function"
    },
    {
      "inputs": [
        {
          "internalType": "uint256",
          "name": "",
          "type": "uint256"
        }
      ],
      "name": "authorities",
      "outputs": [
        {
          "internalType": "address",
          "name": "",
          "type": "address"
        }
      ],
      "stateMutability": "view",
      "type": "function"
    },
    {
      "inputs": [
        {
          "internalType": "address",
          "name": "",
          "type": "address"
        }
      ],
      "name": "authorized",
      "outputs": [
        {
          "internalType": "bool",
          "name": "",
          "type": "bool"
        }
      ],
      "stateMutability": "view",
      "type": "function"
    },
    {
      "inputs": [
        {
          "internalType": "bytes",
          "name": "bytecode",
          "type": "bytes"
        }
      ],
      "name": "deploy",
      "outputs": [
        {
          "internalType": "address",
          "name": "deployedAddress",
          "type": "address"
        }
      ],
      "stateMutability": "payable",
      "type": "function"
    },
    {
      "inputs": [],
      "name": "getAuthorizedAddresses",
      "outputs": [
        {
          "internalType": "address[]",
          "name": "",
          "type": "address[]"
        }
      ],
      "stateMutability": "view",
      "type": "function"
    },
    {
      "inputs": [
        {
          "internalType": "contract IKillable",
          "name": "target",
          "type": "address"
        },
        {
          "internalType": "address payable",
          "name": "ethRecipient",
          "type": "address"
        }
      ],
      "name": "kill",
      "outputs": [],
      "stateMutability": "nonpayable",
      "type": "function"
    },
    {
      "inputs": [],
      "name": "nonce",
      "outputs": [
        {
          "internalType": "uint256",
          "name": "",
          "type": "uint256"
        }
      ],
      "stateMutability": "view",
      "type": "function"
    },
    {
      "inputs": [],
      "name": "owner",
      "outputs": [
        {
          "internalType": "address",
          "name": "",
          "type": "address"
        }
      ],
      "stateMutability": "view",
      "type": "function"
    },
    {
      "inputs": [
        {
          "internalType": "address",
          "name": "target",
          "type": "address"
        }
      ],
      "name": "removeAuthorizedAddress",
      "outputs": [],
      "stateMutability": "nonpayable",
      "type": "function"
    },
    {
      "inputs": [
        {
          "internalType": "address",
          "name": "target",
          "type": "address"
        },
        {
          "internalType": "uint256",
          "name": "index",
          "type": "uint256"
        }
      ],
      "name": "removeAuthorizedAddressAtIndex",
      "outputs": [],
      "stateMutability": "nonpayable",
      "type": "function"
    },
    {
      "inputs": [
        {
          "internalType": "address",
          "name": "",
          "type": "address"
        }
      ],
      "name": "toDeploymentNonce",
      "outputs": [
        {
          "internalType": "uint256",
          "name": "",
          "type": "uint256"
        }
      ],
      "stateMutability": "view",
      "type": "function"
    },
    {
      "inputs": [
        {
          "internalType": "address",
          "name": "newOwner",
          "type": "address"
        }
      ],
      "name": "transferOwnership",
      "outputs": [],
      "stateMutability": "nonpayable",
      "type": "function"
    }
  ],
  "bytecode": "0x60806040526001600355348015610014575f5ffd5b506040516113fe3803806113fe833981016040819052610033916101ee565b5f80546001600160a01b031916331781555b815181101561007e57610076828281518110610063576100636102b8565b602002602001015161008560201b60201c565b600101610045565b50506102cc565b6001600160a01b0381166100bc576100bc6100b760408051808201909152600481526315d953f960e21b602082015290565b6101b7565b6001600160a01b0381165f9081526001602052604090205460ff161561012a5761012a6100b782604080516001600160a01b039290921660248084019190915281518084039091018152604490920190526020810180516001600160e01b03166306f0b78d60e51b17905290565b6001600160a01b0381165f818152600160208190526040808320805460ff19168317905560028054928301815583527f405787fa12a823e0f2b7631cc41b3ba8828b3321ca811111fa75cd3aa3bb5ace90910180546001600160a01b03191684179055513392917f3147867c59d17e8fa9d522465651d44aae0a9e38f902f3475b97e58072f0ed4c91a350565b805160208201fd5b634e487b7160e01b5f52604160045260245ffd5b80516001600160a01b03811681146101e9575f5ffd5b919050565b5f602082840312156101fe575f5ffd5b81516001600160401b03811115610213575f5ffd5b8201601f81018413610223575f5ffd5b80516001600160401b0381111561023c5761023c6101bf565b604051600582901b90603f8201601f191681016001600160401b038111828210171561026a5761026a6101bf565b604052918252602081840181019290810187841115610287575f5ffd5b6020850194505b838510156102ad5761029f856101d3565b81526020948501940161028e565b509695505050505050565b634e487b7160e01b5f52603260045260245ffd5b611125806102d95f395ff3fe6080604052600436106100c2575f3560e01c80638da5cb5b11610071578063b91816111161004c578063b918161114610219578063d39de6e914610257578063f2fde38b14610278575f5ffd5b80638da5cb5b146101ba5780639ad26744146101e5578063affed0e014610204575f5ffd5b8063494503d4116100a1578063494503d41461014357806367b0436814610162578063707129391461019b575f5ffd5b8062774360146100c65780630567e83e1461010357806342f1181e14610124575b5f5ffd5b6100d96100d4366004610e3f565b610297565b60405173ffffffffffffffffffffffffffffffffffffffff90911681526020015b60405180910390f35b34801561010e575f5ffd5b5061012261011d366004610f50565b6103d4565b005b34801561012f575f5ffd5b5061012261013e366004610f87565b6104ab565b34801561014e575f5ffd5b506100d961015d366004610fa9565b6104bf565b34801561016d575f5ffd5b5061018d61017c366004610f87565b60046020525f908152604090205481565b6040519081526020016100fa565b3480156101a6575f5ffd5b506101226101b5366004610f87565b6104f4565b3480156101c5575f5ffd5b505f546100d99073ffffffffffffffffffffffffffffffffffffffff1681565b3480156101f0575f5ffd5b506101226101ff366004610fc0565b6105ab565b34801561020f575f5ffd5b5061018d60035481565b348015610224575f5ffd5b50610247610233366004610f87565b60016020525f908152604090205460ff1681565b60405190151581526020016100fa565b348015610262575f5ffd5b5061026b6105bd565b6040516100fa9190610fea565b348015610283575f5ffd5b50610122610292366004610f87565b61062a565b5f6102a06106f9565b60038054906001905f6102b3838561106f565b909155505082516020840134f0915073ffffffffffffffffffffffffffffffffffffffff8216610369576040517f08c379a000000000000000000000000000000000000000000000000000000000815260206004820152602160248201527f5472616e73666f726d65724465706c6f7965722f4445504c4f595f4641494c4560448201527f4400000000000000000000000000000000000000000000000000000000000000606482015260840160405180910390fd5b73ffffffffffffffffffffffffffffffffffffffff82165f81815260046020908152604091829020849055815192835282018390523382820152517f0f7cceb5b8900763db0b46908960abf22a5d055a4a7395b6b83862d93f241d219181900360600190a150919050565b6103dc6106f9565b6040517fc9353cb500000000000000000000000000000000000000000000000000000000815273ffffffffffffffffffffffffffffffffffffffff828116600483015283169063c9353cb5906024015f604051808303815f87803b158015610442575f5ffd5b505af1158015610454573d5f5f3e3d5ffd5b50506040805173ffffffffffffffffffffffffffffffffffffffff861681523360208201527fdfbd6241378f1ad47e76019eac61d2c245fdd5709e3fc2cd36641ee506db1693935001905060405180910390a15050565b6104b361071d565b6104bc81610762565b50565b600281815481106104ce575f80fd5b5f9182526020909120015473ffffffffffffffffffffffffffffffffffffffff16905081565b6104fc61071d565b73ffffffffffffffffffffffffffffffffffffffff81165f9081526001602052604090205460ff1661053957610539610534826108c3565b61098e565b5f5b60025481101561059f578173ffffffffffffffffffffffffffffffffffffffff166002828154811061056f5761056f611082565b5f9182526020909120015473ffffffffffffffffffffffffffffffffffffffff16036105a35761059f8282610996565b5050565b60010161053b565b6105b361071d565b61059f8282610996565b6060600280548060200260200160405190810160405280929190818152602001828054801561062057602002820191905f5260205f20905b815473ffffffffffffffffffffffffffffffffffffffff1681526001909101906020018083116105f5575b5050505050905090565b61063261071d565b73ffffffffffffffffffffffffffffffffffffffff811661068a576104bc61053460408051808201909152600481527fe69edc3e00000000000000000000000000000000000000000000000000000000602082015290565b5f80547fffffffffffffffffffffffff00000000000000000000000000000000000000001673ffffffffffffffffffffffffffffffffffffffff83169081178255604051909133917f8be0079c531659141344cd1fd0a4f28419497f9722a3daafe3b4186f6b6457e09190a350565b335f9081526001602052604090205460ff1661071b5761071b61053433610c12565b565b5f5473ffffffffffffffffffffffffffffffffffffffff16331461071b575f5461071b9061053490339073ffffffffffffffffffffffffffffffffffffffff16610c5e565b73ffffffffffffffffffffffffffffffffffffffff81166107ba576107ba61053460408051808201909152600481527f57654fe400000000000000000000000000000000000000000000000000000000602082015290565b73ffffffffffffffffffffffffffffffffffffffff81165f9081526001602052604090205460ff16156107f3576107f361053482610d34565b73ffffffffffffffffffffffffffffffffffffffff81165f81815260016020819052604080832080547fffffffffffffffffffffffffffffffffffffffffffffffffffffffffffffff00168317905560028054928301815583527f405787fa12a823e0f2b7631cc41b3ba8828b3321ca811111fa75cd3aa3bb5ace90910180547fffffffffffffffffffffffff00000000000000000000000000000000000000001684179055513392917f3147867c59d17e8fa9d522465651d44aae0a9e38f902f3475b97e58072f0ed4c91a350565b60405173ffffffffffffffffffffffffffffffffffffffff821660248201526060907feb5108a200000000000000000000000000000000000000000000000000000000906044015b604080517fffffffffffffffffffffffffffffffffffffffffffffffffffffffffffffffe08184030181529190526020810180517bffffffffffffffffffffffffffffffffffffffffffffffffffffffff167fffffffff000000000000000000000000000000000000000000000000000000009093169290921790915292915050565b805160208201fd5b73ffffffffffffffffffffffffffffffffffffffff82165f9081526001602052604090205460ff166109ce576109ce610534836108c3565b60025481106109e9576109e961053482600280549050610d80565b8173ffffffffffffffffffffffffffffffffffffffff1660028281548110610a1357610a13611082565b5f9182526020909120015473ffffffffffffffffffffffffffffffffffffffff1614610a7957610a7961053460028381548110610a5257610a52611082565b5f9182526020909120015473ffffffffffffffffffffffffffffffffffffffff1684610dbe565b73ffffffffffffffffffffffffffffffffffffffff82165f90815260016020819052604090912080547fffffffffffffffffffffffffffffffffffffffffffffffffffffffffffffff00169055600280549091610ad5916110af565b81548110610ae557610ae5611082565b5f918252602090912001546002805473ffffffffffffffffffffffffffffffffffffffff9092169183908110610b1d57610b1d611082565b905f5260205f20015f6101000a81548173ffffffffffffffffffffffffffffffffffffffff021916908373ffffffffffffffffffffffffffffffffffffffff1602179055506002805480610b7357610b736110c2565b5f8281526020812082017fffffffffffffffffffffffffffffffffffffffffffffffffffffffffffffffff90810180547fffffffffffffffffffffffff0000000000000000000000000000000000000000169055909101909155604051339173ffffffffffffffffffffffffffffffffffffffff8516917f1f32c1b084e2de0713b8fb16bd46bb9df710a3dbeae2f3ca93af46e016dcc6b09190a35050565b60405173ffffffffffffffffffffffffffffffffffffffff821660248201526060907fb65a25b9000000000000000000000000000000000000000000000000000000009060440161090b565b60405173ffffffffffffffffffffffffffffffffffffffff8084166024830152821660448201526060907f1de45ad100000000000000000000000000000000000000000000000000000000906064015b604080517fffffffffffffffffffffffffffffffffffffffffffffffffffffffffffffffe08184030181529190526020810180517bffffffffffffffffffffffffffffffffffffffffffffffffffffffff167fffffffff000000000000000000000000000000000000000000000000000000009093169290921790915290505b92915050565b60405173ffffffffffffffffffffffffffffffffffffffff821660248201526060907fde16f1a0000000000000000000000000000000000000000000000000000000009060440161090b565b60405160248101839052604481018290526060907fe9f837710000000000000000000000000000000000000000000000000000000090606401610cae565b60405173ffffffffffffffffffffffffffffffffffffffff8084166024830152821660448201526060907f140a84db0000000000000000000000000000000000000000000000000000000090606401610cae565b7f4e487b71000000000000000000000000000000000000000000000000000000005f52604160045260245ffd5b5f60208284031215610e4f575f5ffd5b813567ffffffffffffffff811115610e65575f5ffd5b8201601f81018413610e75575f5ffd5b803567ffffffffffffffff811115610e8f57610e8f610e12565b6040517fffffffffffffffffffffffffffffffffffffffffffffffffffffffffffffffe0603f7fffffffffffffffffffffffffffffffffffffffffffffffffffffffffffffffe0601f8501160116810181811067ffffffffffffffff82111715610efb57610efb610e12565b604052818152828201602001861015610f12575f5ffd5b816020840160208301375f91810160200191909152949350505050565b73ffffffffffffffffffffffffffffffffffffffff811681146104bc575f5ffd5b5f5f60408385031215610f61575f5ffd5b8235610f6c81610f2f565b91506020830135610f7c81610f2f565b809150509250929050565b5f60208284031215610f97575f5ffd5b8135610fa281610f2f565b9392505050565b5f60208284031215610fb9575f5ffd5b5035919050565b5f5f60408385031215610fd1575f5ffd5b8235610fdc81610f2f565b946020939093013593505050565b602080825282518282018190525f918401906040840190835b8181101561103757835173ffffffffffffffffffffffffffffffffffffffff16835260209384019390920191600101611003565b509095945050505050565b7f4e487b71000000000000000000000000000000000000000000000000000000005f52601160045260245ffd5b80820180821115610d2e57610d2e611042565b7f4e487b71000000000000000000000000000000000000000000000000000000005f52603260045260245ffd5b81810381811115610d2e57610d2e611042565b7f4e487b71000000000000000000000000000000000000000000000000000000005f52603160045260245ffdfea2646970667358221220714ad6e0b773bba54f053a46d2ea9992b62d84525538b53a710b6ff2dbef9c4264736f6c634300081c0033",
  "linkReferences": {},
  "deployedLinkReferences": {}
}