{
  "_format": "hh-sol-artifact-1",
  "contractName": "TestLibNativeOrder",
  "sourceName": "contracts/test/TestLibNativeOrder.sol",
  "abi": [
    {
      "inputs": [
        {
          "components": [
            {
              "internalType": "contract IERC20Token",
              "name": "makerToken",
              "type": "address"
            },
            {
              "internalType": "contract IERC20Token",
              "name": "takerToken",
              "type": "address"
            },
            {
              "internalType": "uint128",
              "name": "makerAmount",
              "type": "uint128"
            },
            {
              "internalType": "uint128",
              "name": "takerAmount",
              "type": "uint128"
            },
            {
              "internalType": "uint128",
              "name": "takerTokenFeeAmount",
              "type": "uint128"
            },
            {
              "internalType": "address",
              "name": "maker",
              "type": "address"
            },
            {
              "internalType": "address",
              "name": "taker",
              "type": "address"
            },
            {
              "internalType": "address",
              "name": "sender",
              "type": "address"
            },
            {
              "internalType": "address",
              "name": "feeRecipient",
              "type": "address"
            },
            {
              "internalType": "bytes32",
              "name": "pool",
              "type": "bytes32"
            },
            {
              "internalType": "uint64",
              "name": "expiry",
              "type": "uint64"
            },
            {
              "internalType": "uint256",
              "name": "salt",
              "type": "uint256"
            }
          ],
          "internalType": "struct LibNativeOrder.LimitOrder",
          "name": "order",
          "type": "tuple"
        }
      ],
      "name": "getLimitOrderStructHash",
      "outputs": [
        {
          "internalType": "bytes32",
          "name": "structHash",
          "type": "bytes32"
        }
      ],
      "stateMutability": "pure",
      "type": "function"
    },
    {
      "inputs": [
        {
          "components": [
            {
              "internalType": "contract IERC20Token",
              "name": "makerToken",
              "type": "address"
            },
            {
              "internalType": "contract IERC20Token",
              "name": "takerToken",
              "type": "address"
            },
            {
              "internalType": "uint128",
              "name": "makerAmount",
              "type": "uint128"
            },
            {
              "internalType": "uint128",
              "name": "takerAmount",
              "type": "uint128"
            },
            {
              "internalType": "address",
              "name": "maker",
              "type": "address"
            },
            {
              "internalType": "address",
              "name": "taker",
              "type": "address"
            },
            {
              "internalType": "address",
              "name": "txOrigin",
              "type": "address"
            },
            {
              "internalType": "bytes32",
              "name": "pool",
              "type": "bytes32"
            },
            {
              "internalType": "uint64",
              "name": "expiry",
              "type": "uint64"
            },
            {
              "internalType": "uint256",
              "name": "salt",
              "type": "uint256"
            }
          ],
          "internalType": "struct LibNativeOrder.RfqOrder",
          "name": "order",
          "type": "tuple"
        }
      ],
      "name": "getRfqOrderStructHash",
      "outputs": [
        {
          "internalType": "bytes32",
          "name": "structHash",
          "type": "bytes32"
        }
      ],
      "stateMutability": "pure",
      "type": "function"
    }
  ],
  "bytecode": "0x6080604052348015600f57600080fd5b506109328061001f6000396000f3fe608060405234801561001057600080fd5b50600436106100365760003560e01c8063548279151461003b578063ad54a5981461006b575b600080fd5b610055600480360381019061005091906103c1565b61009b565b6040516100629190610408565b60405180910390f35b61008560048036038101906100809190610443565b6100bd565b6040516100929190610408565b60405180910390f35b60006100b6828036038101906100b1919061077e565b6100df565b9050919050565b60006100d8828036038101906100d391906108ce565b610216565b9050919050565b60006040517fe593d3fdfa8b60e5e17a1b2204662ecbe15c23f2084b9ad5bae40359540a7da98152825173ffffffffffffffffffffffffffffffffffffffff166020820152602083015173ffffffffffffffffffffffffffffffffffffffff16604082015260408301516fffffffffffffffffffffffffffffffff16606082015260608301516fffffffffffffffffffffffffffffffff166080820152608083015173ffffffffffffffffffffffffffffffffffffffff1660a082015260a083015173ffffffffffffffffffffffffffffffffffffffff1660c082015260c083015173ffffffffffffffffffffffffffffffffffffffff1660e082015260e083015161010082015261010083015167ffffffffffffffff166101208201526101208301516101408201526101608120915050919050565b60006040517fce918627cb55462ddbb85e73de69a8b322f2bc88f4507c52fcad6d4c33c29d498152825173ffffffffffffffffffffffffffffffffffffffff166020820152602083015173ffffffffffffffffffffffffffffffffffffffff16604082015260408301516fffffffffffffffffffffffffffffffff16606082015260608301516fffffffffffffffffffffffffffffffff16608082015260808301516fffffffffffffffffffffffffffffffff1660a082015260a083015173ffffffffffffffffffffffffffffffffffffffff1660c082015260c083015173ffffffffffffffffffffffffffffffffffffffff1660e082015260e083015173ffffffffffffffffffffffffffffffffffffffff1661010082015261010083015173ffffffffffffffffffffffffffffffffffffffff1661012082015261012083015161014082015261014083015167ffffffffffffffff166101608201526101608301516101808201526101a08120915050919050565b6000604051905090565b600080fd5b600080fd5b600061014082840312156103b8576103b761039c565b5b81905092915050565b600061014082840312156103d8576103d7610397565b5b60006103e6848285016103a1565b91505092915050565b6000819050919050565b610402816103ef565b82525050565b600060208201905061041d60008301846103f9565b92915050565b6000610180828403121561043a5761043961039c565b5b81905092915050565b6000610180828403121561045a57610459610397565b5b600061046884828501610423565b91505092915050565b600080fd5b6000601f19601f8301169050919050565b7f4e487b7100000000000000000000000000000000000000000000000000000000600052604160045260246000fd5b6104bf82610476565b810181811067ffffffffffffffff821117156104de576104dd610487565b5b80604052505050565b60006104f161038d565b90506104fd82826104b6565b919050565b600073ffffffffffffffffffffffffffffffffffffffff82169050919050565b600061052d82610502565b9050919050565b600061053f82610522565b9050919050565b61054f81610534565b811461055a57600080fd5b50565b60008135905061056c81610546565b92915050565b60006fffffffffffffffffffffffffffffffff82169050919050565b61059781610572565b81146105a257600080fd5b50565b6000813590506105b48161058e565b92915050565b6105c381610522565b81146105ce57600080fd5b50565b6000813590506105e0816105ba565b92915050565b6105ef816103ef565b81146105fa57600080fd5b50565b60008135905061060c816105e6565b92915050565b600067ffffffffffffffff82169050919050565b61062f81610612565b811461063a57600080fd5b50565b60008135905061064c81610626565b92915050565b6000819050919050565b61066581610652565b811461067057600080fd5b50565b6000813590506106828161065c565b92915050565b6000610140828403121561069f5761069e610471565b5b6106aa6101406104e7565b905060006106ba8482850161055d565b60008301525060206106ce8482850161055d565b60208301525060406106e2848285016105a5565b60408301525060606106f6848285016105a5565b606083015250608061070a848285016105d1565b60808301525060a061071e848285016105d1565b60a08301525060c0610732848285016105d1565b60c08301525060e0610746848285016105fd565b60e08301525061010061075b8482850161063d565b6101008301525061012061077184828501610673565b6101208301525092915050565b6000610140828403121561079557610794610397565b5b60006107a384828501610688565b91505092915050565b600061018082840312156107c3576107c2610471565b5b6107ce6101806104e7565b905060006107de8482850161055d565b60008301525060206107f28482850161055d565b6020830152506040610806848285016105a5565b604083015250606061081a848285016105a5565b606083015250608061082e848285016105a5565b60808301525060a0610842848285016105d1565b60a08301525060c0610856848285016105d1565b60c08301525060e061086a848285016105d1565b60e08301525061010061087f848285016105d1565b61010083015250610120610895848285016105fd565b610120830152506101406108ab8482850161063d565b610140830152506101606108c184828501610673565b6101608301525092915050565b600061018082840312156108e5576108e4610397565b5b60006108f3848285016107ac565b9150509291505056fea2646970667358221220527960ed14d078d16446b1380ef288fb6dfe76f160a6a788743e0f3079acb56064736f6c634300081c0033",
  "linkReferences": {},
  "deployedLinkReferences": {}
}