{
  "_format": "hh-sol-artifact-1",
  "contractName": "TestLibNativeOrder",
  "sourceName": "contracts/test/TestLibNativeOrder.sol",
  "abi": [
    {
      "inputs": [
        {
          "components": [
            {
              "internalType": "contract IERC20Token",
              "name": "makerToken",
              "type": "address"
            },
            {
              "internalType": "contract IERC20Token",
              "name": "takerToken",
              "type": "address"
            },
            {
              "internalType": "uint128",
              "name": "makerAmount",
              "type": "uint128"
            },
            {
              "internalType": "uint128",
              "name": "takerAmount",
              "type": "uint128"
            },
            {
              "internalType": "uint128",
              "name": "takerTokenFeeAmount",
              "type": "uint128"
            },
            {
              "internalType": "address",
              "name": "maker",
              "type": "address"
            },
            {
              "internalType": "address",
              "name": "taker",
              "type": "address"
            },
            {
              "internalType": "address",
              "name": "sender",
              "type": "address"
            },
            {
              "internalType": "address",
              "name": "feeRecipient",
              "type": "address"
            },
            {
              "internalType": "bytes32",
              "name": "pool",
              "type": "bytes32"
            },
            {
              "internalType": "uint64",
              "name": "expiry",
              "type": "uint64"
            },
            {
              "internalType": "uint256",
              "name": "salt",
              "type": "uint256"
            }
          ],
          "internalType": "struct LibNativeOrder.LimitOrder",
          "name": "order",
          "type": "tuple"
        }
      ],
      "name": "getLimitOrderStructHash",
      "outputs": [
        {
          "internalType": "bytes32",
          "name": "structHash",
          "type": "bytes32"
        }
      ],
      "stateMutability": "pure",
      "type": "function"
    },
    {
      "inputs": [
        {
          "components": [
            {
              "internalType": "contract IERC20Token",
              "name": "makerToken",
              "type": "address"
            },
            {
              "internalType": "contract IERC20Token",
              "name": "takerToken",
              "type": "address"
            },
            {
              "internalType": "uint128",
              "name": "makerAmount",
              "type": "uint128"
            },
            {
              "internalType": "uint128",
              "name": "takerAmount",
              "type": "uint128"
            },
            {
              "internalType": "address",
              "name": "maker",
              "type": "address"
            },
            {
              "internalType": "address",
              "name": "taker",
              "type": "address"
            },
            {
              "internalType": "address",
              "name": "txOrigin",
              "type": "address"
            },
            {
              "internalType": "bytes32",
              "name": "pool",
              "type": "bytes32"
            },
            {
              "internalType": "uint64",
              "name": "expiry",
              "type": "uint64"
            },
            {
              "internalType": "uint256",
              "name": "salt",
              "type": "uint256"
            }
          ],
          "internalType": "struct LibNativeOrder.RfqOrder",
          "name": "order",
          "type": "tuple"
        }
      ],
      "name": "getRfqOrderStructHash",
      "outputs": [
        {
          "internalType": "bytes32",
          "name": "structHash",
          "type": "bytes32"
        }
      ],
      "stateMutability": "pure",
      "type": "function"
    }
  ],
  "bytecode": "0x6080604052348015600e575f5ffd5b5061053b8061001c5f395ff3fe608060405234801561000f575f5ffd5b5060043610610034575f3560e01c80635482791514610038578063ad54a5981461005d575b5f5ffd5b61004b61004636600461028c565b610070565b60405190815260200160405180910390f35b61004b61006b3660046102a6565b61016c565b5f61016661008336849003840184610366565b5f6040517fe593d3fdfa8b60e5e17a1b2204662ecbe15c23f2084b9ad5bae40359540a7da9815282516001600160a01b0316602082015260208301516001600160a01b0316604082015260408301516001600160801b0316606082015260608301516001600160801b0316608082015260808301516001600160a01b031660a082015260a08301516001600160a01b031660c082015260c08301516001600160a01b031660e082015260e083015161010082015261010083015167ffffffffffffffff166101208201526101208301516101408201526101608120915050919050565b92915050565b5f61016661017f36849003840184610423565b5f6040517fce918627cb55462ddbb85e73de69a8b322f2bc88f4507c52fcad6d4c33c29d49815282516001600160a01b0316602082015260208301516001600160a01b0316604082015260408301516001600160801b0316606082015260608301516001600160801b0316608082015260808301516001600160801b031660a082015260a08301516001600160a01b031660c082015260c08301516001600160a01b031660e082015260e08301516001600160a01b03166101008201526101008301516001600160a01b031661012082015261012083015161014082015261014083015167ffffffffffffffff166101608201526101608301516101808201526101a08120915050919050565b5f61014082840312801561029e575f5ffd5b509092915050565b5f61018082840312801561029e575f5ffd5b604051610140810167ffffffffffffffff811182821017156102e857634e487b7160e01b5f52604160045260245ffd5b60405290565b604051610180810167ffffffffffffffff811182821017156102e857634e487b7160e01b5f52604160045260245ffd5b80356001600160a01b0381168114610334575f5ffd5b919050565b80356001600160801b0381168114610334575f5ffd5b803567ffffffffffffffff81168114610334575f5ffd5b5f610140828403128015610378575f5ffd5b506103816102b8565b61038a8361031e565b81526103986020840161031e565b60208201526103a960408401610339565b60408201526103ba60608401610339565b60608201526103cb6080840161031e565b60808201526103dc60a0840161031e565b60a08201526103ed60c0840161031e565b60c082015260e08381013590820152610409610100840161034f565b610100820152610120928301359281019290925250919050565b5f610180828403128015610435575f5ffd5b5061043e6102ee565b6104478361031e565b81526104556020840161031e565b602082015261046660408401610339565b604082015261047760608401610339565b606082015261048860808401610339565b608082015261049960a0840161031e565b60a08201526104aa60c0840161031e565b60c08201526104bb60e0840161031e565b60e08201526104cd610100840161031e565b61010082015261012083810135908201526104eb610140840161034f565b61014082015261016092830135928101929092525091905056fea264697066735822122058a612f72b3c5cea9325148df2052f3160e91cb73b56e2f39eebc30acde43a3464736f6c634300081c0033",
  "linkReferences": {},
  "deployedLinkReferences": {}
}