{
  "_format": "hh-sol-artifact-1",
  "contractName": "TestDelegateCaller",
  "sourceName": "contracts/test/TestDelegateCaller.sol",
  "abi": [
    {
      "inputs": [
        {
          "internalType": "address",
          "name": "target",
          "type": "address"
        },
        {
          "internalType": "bytes",
          "name": "callData",
          "type": "bytes"
        }
      ],
      "name": "executeDelegateCall",
      "outputs": [],
      "stateMutability": "nonpayable",
      "type": "function"
    }
  ],
  "bytecode": "0x6080604052348015600f57600080fd5b5061028b8061001f6000396000f3fe608060405234801561001057600080fd5b506004361061002b5760003560e01c8063b68df16d14610030575b600080fd5b61004a6004803603810190610045919061019d565b61004c565b005b6000808473ffffffffffffffffffffffffffffffffffffffff16848460405161007692919061023c565b600060405180830381855af49150503d80600081146100b1576040519150601f19603f3d011682016040523d82523d6000602084013e6100b6565b606091505b5091509150816100c857805160208201fd5b805160208201f35b600080fd5b600080fd5b600073ffffffffffffffffffffffffffffffffffffffff82169050919050565b6000610105826100da565b9050919050565b610115816100fa565b811461012057600080fd5b50565b6000813590506101328161010c565b92915050565b600080fd5b600080fd5b600080fd5b60008083601f84011261015d5761015c610138565b5b8235905067ffffffffffffffff81111561017a5761017961013d565b5b60208301915083600182028301111561019657610195610142565b5b9250929050565b6000806000604084860312156101b6576101b56100d0565b5b60006101c486828701610123565b935050602084013567ffffffffffffffff8111156101e5576101e46100d5565b5b6101f186828701610147565b92509250509250925092565b600081905092915050565b82818337600083830152505050565b600061022383856101fd565b9350610230838584610208565b82840190509392505050565b6000610249828486610217565b9150819050939250505056fea2646970667358221220339984022d52cd262772caed4584532a8c7ef2ac22a8a42215f37175ab24bf9b64736f6c634300081c0033",
  "linkReferences": {},
  "deployedLinkReferences": {}
}