{
  "_format": "hh-sol-artifact-1",
  "contractName": "TestDelegateCaller",
  "sourceName": "contracts/test/TestDelegateCaller.sol",
  "abi": [
    {
      "inputs": [
        {
          "internalType": "address",
          "name": "target",
          "type": "address"
        },
        {
          "internalType": "bytes",
          "name": "callData",
          "type": "bytes"
        }
      ],
      "name": "executeDelegateCall",
      "outputs": [],
      "stateMutability": "nonpayable",
      "type": "function"
    }
  ],
  "bytecode": "0x6080604052348015600e575f5ffd5b506101858061001c5f395ff3fe608060405234801561000f575f5ffd5b5060043610610029575f3560e01c8063b68df16d1461002d575b5f5ffd5b61004061003b3660046100b5565b610042565b005b5f5f846001600160a01b0316848460405161005e929190610140565b5f60405180830381855af49150503d805f8114610096576040519150601f19603f3d011682016040523d82523d5f602084013e61009b565b606091505b5091509150816100ad57805160208201fd5b805160208201f35b5f5f5f604084860312156100c7575f5ffd5b83356001600160a01b03811681146100dd575f5ffd5b9250602084013567ffffffffffffffff8111156100f8575f5ffd5b8401601f81018613610108575f5ffd5b803567ffffffffffffffff81111561011e575f5ffd5b86602082840101111561012f575f5ffd5b939660209190910195509293505050565b818382375f910190815291905056fea2646970667358221220f79ad5b143c437f98d3e9bad281f7dd77d2e61f8c778e2b84cf5635a7dda81b664736f6c634300081c0033",
  "linkReferences": {},
  "deployedLinkReferences": {}
}