{
  "_format": "hh-sol-artifact-1",
  "contractName": "TestUniswapV3Factory",
  "sourceName": "contracts/test/integration/TestUniswapV3Factory.sol",
  "abi": [
    {
      "inputs": [],
      "stateMutability": "nonpayable",
      "type": "constructor"
    },
    {
      "anonymous": false,
      "inputs": [
        {
          "indexed": false,
          "internalType": "contract TestUniswapV3Pool",
          "name": "pool",
          "type": "address"
        }
      ],
      "name": "PoolCreated",
      "type": "event"
    },
    {
      "inputs": [],
      "name": "POOL_INIT_CODE_HASH",
      "outputs": [
        {
          "internalType": "bytes32",
          "name": "",
          "type": "bytes32"
        }
      ],
      "stateMutability": "view",
      "type": "function"
    },
    {
      "inputs": [
        {
          "internalType": "contract IERC20Token",
          "name": "tokenA",
          "type": "address"
        },
        {
          "internalType": "contract IERC20Token",
          "name": "tokenB",
          "type": "address"
        },
        {
          "internalType": "uint24",
          "name": "fee",
          "type": "uint24"
        }
      ],
      "name": "createPool",
      "outputs": [
        {
          "internalType": "contract TestUniswapV3Pool",
          "name": "pool",
          "type": "address"
        }
      ],
      "stateMutability": "nonpayable",
      "type": "function"
    },
    {
      "inputs": [],
      "name": "creationParameters",
      "outputs": [
        {
          "internalType": "contract IERC20Token",
          "name": "token0",
          "type": "address"
        },
        {
          "internalType": "contract IERC20Token",
          "name": "token1",
          "type": "address"
        },
        {
          "internalType": "uint24",
          "name": "fee",
          "type": "uint24"
        }
      ],
      "stateMutability": "view",
      "type": "function"
    },
    {
      "inputs": [
        {
          "internalType": "contract IERC20Token",
          "name": "",
          "type": "address"
        },
        {
          "internalType": "contract IERC20Token",
          "name": "",
          "type": "address"
        },
        {
          "internalType": "uint24",
          "name": "",
          "type": "uint24"
        }
      ],
      "name": "getPool",
      "outputs": [
        {
          "internalType": "contract TestUniswapV3Pool",
          "name": "",
          "type": "address"
        }
      ],
      "stateMutability": "view",
      "type": "function"
    }
  ],
  "bytecode": "0x60a0604052348015600e575f5ffd5b50604051601c60208201603f565b601f1982820381018352601f90910116604052805160209190910120608052604c565b610a5680610fda83390190565b608051610f766100645f395f6101540152610f765ff3fe608060405234801561000f575f5ffd5b506004361061004a575f3560e01c80631698ee821461004e5780637ba6f231146100bd578063a16712951461013c578063dc6fd8ab1461014f575b5f5ffd5b61009361005c36600461049f565b5f602081815293815260408082208552928152828120909352825290205473ffffffffffffffffffffffffffffffffffffffff1681565b60405173ffffffffffffffffffffffffffffffffffffffff90911681526020015b60405180910390f35b6001546002546101049173ffffffffffffffffffffffffffffffffffffffff908116919081169074010000000000000000000000000000000000000000900462ffffff1683565b6040805173ffffffffffffffffffffffffffffffffffffffff948516815293909216602084015262ffffff16908201526060016100b4565b61009361014a36600461049f565b610184565b6101767f000000000000000000000000000000000000000000000000000000000000000081565b6040519081526020016100b4565b5f5f5f8473ffffffffffffffffffffffffffffffffffffffff168673ffffffffffffffffffffffffffffffffffffffff16106101c15784866101c4565b85855b73ffffffffffffffffffffffffffffffffffffffff8083165f908152602081815260408083208486168452825280832062ffffff8b168452909152902054929450909250161561029a576040517f08c379a000000000000000000000000000000000000000000000000000000000815260206004820152602860248201527f54657374556e69737761705633466163746f72792f504f4f4c5f414c5245414460448201527f595f455849535453000000000000000000000000000000000000000000000000606482015260840160405180910390fd5b604080516060808201835273ffffffffffffffffffffffffffffffffffffffff858116808452908516602080850182905262ffffff8a16948601859052600180547fffffffffffffffffffffffff00000000000000000000000000000000000000001684179055600280547fffffffffffffffffff0000000000000000000000000000000000000000000000168317740100000000000000000000000000000000000000008702179055855190810192909252938101939093528201526080016040516020818303038152906040528051906020012060405161037c9061046a565b8190604051809103905ff5905080158015610399573d5f5f3e3d5ffd5b5073ffffffffffffffffffffffffffffffffffffffff8381165f8181526020818152604080832087861680855290835281842062ffffff8c1680865290845282852080549789167fffffffffffffffffffffffff000000000000000000000000000000000000000098891681179091559185528484528285209585529483528184209484529382529182902080549094168317909355519081529194507f83a48fbcfc991335314e74d0496aab6a1987e992ddc85dddbcc4d6dd6ef2e9fc910160405180910390a150509392505050565b610a56806104eb83390190565b803573ffffffffffffffffffffffffffffffffffffffff8116811461049a575f5ffd5b919050565b5f5f5f606084860312156104b1575f5ffd5b6104ba84610477565b92506104c860208501610477565b9150604084013562ffffff811681146104df575f5ffd5b80915050925092509256fe60e060405234801561000f575f5ffd5b505f336001600160a01b0316637ba6f2316040518163ffffffff1660e01b8152600401606060405180830381865afa15801561004d573d5f5f3e3d5ffd5b505050506040513d601f19601f8201168201806040525081019061007191906100b9565b8051602082015160409092015162ffffff1660c0526001600160a01b0391821660a0521660805250610139565b80516001600160a01b03811681146100b4575f5ffd5b919050565b5f60608284031280156100ca575f5ffd5b50604051606081016001600160401b03811182821017156100f957634e487b7160e01b5f52604160045260245ffd5b6040526101058361009e565b81526101136020840161009e565b6020820152604083015162ffffff8116811461012d575f5ffd5b60408201529392505050565b60805160a05160c0516108cc61018a5f395f60f301525f818160cc01528181610223015281816102ef015261059d01525f8181605301528181610172015281816103bc01526104e001526108cc5ff3fe608060405234801561000f575f5ffd5b506004361061004a575f3560e01c80630dfe16811461004e578063128acb081461009f578063d21220a7146100c7578063ddca3f43146100ee575b5f5ffd5b6100757f000000000000000000000000000000000000000000000000000000000000000081565b60405173ffffffffffffffffffffffffffffffffffffffff90911681526020015b60405180910390f35b6100b26100ad3660046106cc565b610129565b60408051928352602083019190915201610096565b6100757f000000000000000000000000000000000000000000000000000000000000000081565b6101157f000000000000000000000000000000000000000000000000000000000000000081565b60405162ffffff9091168152602001610096565b6040517f70a082310000000000000000000000000000000000000000000000000000000081523060048201525f908190819073ffffffffffffffffffffffffffffffffffffffff7f000000000000000000000000000000000000000000000000000000000000000016906370a0823190602401602060405180830381865afa1580156101b7573d5f5f3e3d5ffd5b505050506040513d601f19601f820116820180604052508101906101db919061077a565b6040517f70a082310000000000000000000000000000000000000000000000000000000081523060048201529091505f9073ffffffffffffffffffffffffffffffffffffffff7f000000000000000000000000000000000000000000000000000000000000000016906370a0823190602401602060405180830381865afa158015610268573d5f5f3e3d5ffd5b505050506040513d601f19601f8201168201806040525081019061028c919061077a565b90508815610361578793506102a0816107be565b6040517fa9059cbb00000000000000000000000000000000000000000000000000000000815273ffffffffffffffffffffffffffffffffffffffff8c81166004830152602482018490529194507f00000000000000000000000000000000000000000000000000000000000000009091169063a9059cbb906044016020604051808303815f875af1158015610337573d5f5f3e3d5ffd5b505050506040513d601f19601f8201168201806040525081019061035b91906107f4565b5061042a565b61036a826107be565b6040517fa9059cbb00000000000000000000000000000000000000000000000000000000815273ffffffffffffffffffffffffffffffffffffffff8c81166004830152602482018590529195508994507f00000000000000000000000000000000000000000000000000000000000000009091169063a9059cbb906044016020604051808303815f875af1158015610404573d5f5f3e3d5ffd5b505050506040513d601f19601f8201168201806040525081019061042891906107f4565b505b6040517ffa461e33000000000000000000000000000000000000000000000000000000008152339063fa461e339061046c90879087908b908b90600401610816565b5f604051808303815f87803b158015610483575f5ffd5b505af1158015610495573d5f5f3e3d5ffd5b50506040517f70a082310000000000000000000000000000000000000000000000000000000081523060048201525f925084915073ffffffffffffffffffffffffffffffffffffffff7f000000000000000000000000000000000000000000000000000000000000000016906370a0823190602401602060405180830381865afa158015610525573d5f5f3e3d5ffd5b505050506040513d601f19601f82011682018060405250810190610549919061077a565b6105539190610870565b6040517f70a082310000000000000000000000000000000000000000000000000000000081523060048201529091505f90839073ffffffffffffffffffffffffffffffffffffffff7f000000000000000000000000000000000000000000000000000000000000000016906370a0823190602401602060405180830381865afa1580156105e2573d5f5f3e3d5ffd5b505050506040513d601f19601f82011682018060405250810190610606919061077a565b6106109190610870565b90508582121580156106225750848112155b61068c576040517f08c379a000000000000000000000000000000000000000000000000000000000815260206004820152601f60248201527f54657374556e69737761705633506f6f6c2f535741505f4e4f545f5041494400604482015260640160405180910390fd5b50505050965096945050505050565b73ffffffffffffffffffffffffffffffffffffffff811681146106bc575f5ffd5b50565b80151581146106bc575f5ffd5b5f5f5f5f5f5f60a087890312156106e1575f5ffd5b86356106ec8161069b565b955060208701356106fc816106bf565b94506040870135935060608701356107138161069b565b9250608087013567ffffffffffffffff81111561072e575f5ffd5b8701601f8101891361073e575f5ffd5b803567ffffffffffffffff811115610754575f5ffd5b896020828401011115610765575f5ffd5b60208201935080925050509295509295509295565b5f6020828403121561078a575f5ffd5b5051919050565b7f4e487b71000000000000000000000000000000000000000000000000000000005f52601160045260245ffd5b5f7f800000000000000000000000000000000000000000000000000000000000000082036107ee576107ee610791565b505f0390565b5f60208284031215610804575f5ffd5b815161080f816106bf565b9392505050565b84815283602082015260606040820152816060820152818360808301375f818301608090810191909152601f9092017fffffffffffffffffffffffffffffffffffffffffffffffffffffffffffffffe01601019392505050565b8181035f83128015838313168383128216171561088f5761088f610791565b509291505056fea2646970667358221220ebb0b4978542f115e0c39a48f8c701671befeca00c67945d3463a4a7a1df0bb664736f6c634300081c0033a264697066735822122003b1c1025a8d28a3d26fc5b9bb94c2ed9032120491aa01ce21f273a0c3503fdb64736f6c634300081c003360e060405234801561000f575f5ffd5b505f336001600160a01b0316637ba6f2316040518163ffffffff1660e01b8152600401606060405180830381865afa15801561004d573d5f5f3e3d5ffd5b505050506040513d601f19601f8201168201806040525081019061007191906100b9565b8051602082015160409092015162ffffff1660c0526001600160a01b0391821660a0521660805250610139565b80516001600160a01b03811681146100b4575f5ffd5b919050565b5f60608284031280156100ca575f5ffd5b50604051606081016001600160401b03811182821017156100f957634e487b7160e01b5f52604160045260245ffd5b6040526101058361009e565b81526101136020840161009e565b6020820152604083015162ffffff8116811461012d575f5ffd5b60408201529392505050565b60805160a05160c0516108cc61018a5f395f60f301525f818160cc01528181610223015281816102ef015261059d01525f8181605301528181610172015281816103bc01526104e001526108cc5ff3fe608060405234801561000f575f5ffd5b506004361061004a575f3560e01c80630dfe16811461004e578063128acb081461009f578063d21220a7146100c7578063ddca3f43146100ee575b5f5ffd5b6100757f000000000000000000000000000000000000000000000000000000000000000081565b60405173ffffffffffffffffffffffffffffffffffffffff90911681526020015b60405180910390f35b6100b26100ad3660046106cc565b610129565b60408051928352602083019190915201610096565b6100757f000000000000000000000000000000000000000000000000000000000000000081565b6101157f000000000000000000000000000000000000000000000000000000000000000081565b60405162ffffff9091168152602001610096565b6040517f70a082310000000000000000000000000000000000000000000000000000000081523060048201525f908190819073ffffffffffffffffffffffffffffffffffffffff7f000000000000000000000000000000000000000000000000000000000000000016906370a0823190602401602060405180830381865afa1580156101b7573d5f5f3e3d5ffd5b505050506040513d601f19601f820116820180604052508101906101db919061077a565b6040517f70a082310000000000000000000000000000000000000000000000000000000081523060048201529091505f9073ffffffffffffffffffffffffffffffffffffffff7f000000000000000000000000000000000000000000000000000000000000000016906370a0823190602401602060405180830381865afa158015610268573d5f5f3e3d5ffd5b505050506040513d601f19601f8201168201806040525081019061028c919061077a565b90508815610361578793506102a0816107be565b6040517fa9059cbb00000000000000000000000000000000000000000000000000000000815273ffffffffffffffffffffffffffffffffffffffff8c81166004830152602482018490529194507f00000000000000000000000000000000000000000000000000000000000000009091169063a9059cbb906044016020604051808303815f875af1158015610337573d5f5f3e3d5ffd5b505050506040513d601f19601f8201168201806040525081019061035b91906107f4565b5061042a565b61036a826107be565b6040517fa9059cbb00000000000000000000000000000000000000000000000000000000815273ffffffffffffffffffffffffffffffffffffffff8c81166004830152602482018590529195508994507f00000000000000000000000000000000000000000000000000000000000000009091169063a9059cbb906044016020604051808303815f875af1158015610404573d5f5f3e3d5ffd5b505050506040513d601f19601f8201168201806040525081019061042891906107f4565b505b6040517ffa461e33000000000000000000000000000000000000000000000000000000008152339063fa461e339061046c90879087908b908b90600401610816565b5f604051808303815f87803b158015610483575f5ffd5b505af1158015610495573d5f5f3e3d5ffd5b50506040517f70a082310000000000000000000000000000000000000000000000000000000081523060048201525f925084915073ffffffffffffffffffffffffffffffffffffffff7f000000000000000000000000000000000000000000000000000000000000000016906370a0823190602401602060405180830381865afa158015610525573d5f5f3e3d5ffd5b505050506040513d601f19601f82011682018060405250810190610549919061077a565b6105539190610870565b6040517f70a082310000000000000000000000000000000000000000000000000000000081523060048201529091505f90839073ffffffffffffffffffffffffffffffffffffffff7f000000000000000000000000000000000000000000000000000000000000000016906370a0823190602401602060405180830381865afa1580156105e2573d5f5f3e3d5ffd5b505050506040513d601f19601f82011682018060405250810190610606919061077a565b6106109190610870565b90508582121580156106225750848112155b61068c576040517f08c379a000000000000000000000000000000000000000000000000000000000815260206004820152601f60248201527f54657374556e69737761705633506f6f6c2f535741505f4e4f545f5041494400604482015260640160405180910390fd5b50505050965096945050505050565b73ffffffffffffffffffffffffffffffffffffffff811681146106bc575f5ffd5b50565b80151581146106bc575f5ffd5b5f5f5f5f5f5f60a087890312156106e1575f5ffd5b86356106ec8161069b565b955060208701356106fc816106bf565b94506040870135935060608701356107138161069b565b9250608087013567ffffffffffffffff81111561072e575f5ffd5b8701601f8101891361073e575f5ffd5b803567ffffffffffffffff811115610754575f5ffd5b896020828401011115610765575f5ffd5b60208201935080925050509295509295509295565b5f6020828403121561078a575f5ffd5b5051919050565b7f4e487b71000000000000000000000000000000000000000000000000000000005f52601160045260245ffd5b5f7f800000000000000000000000000000000000000000000000000000000000000082036107ee576107ee610791565b505f0390565b5f60208284031215610804575f5ffd5b815161080f816106bf565b9392505050565b84815283602082015260606040820152816060820152818360808301375f818301608090810191909152601f9092017fffffffffffffffffffffffffffffffffffffffffffffffffffffffffffffffe01601019392505050565b8181035f83128015838313168383128216171561088f5761088f610791565b509291505056fea2646970667358221220ebb0b4978542f115e0c39a48f8c701671befeca00c67945d3463a4a7a1df0bb664736f6c634300081c0033",
  "linkReferences": {},
  "deployedLinkReferences": {}
}