{
  "_format": "hh-sol-artifact-1",
  "contractName": "TestUniswapV3Pool",
  "sourceName": "contracts/test/integration/TestUniswapV3Pool.sol",
  "abi": [
    {
      "inputs": [],
      "stateMutability": "nonpayable",
      "type": "constructor"
    },
    {
      "inputs": [],
      "name": "fee",
      "outputs": [
        {
          "internalType": "uint24",
          "name": "",
          "type": "uint24"
        }
      ],
      "stateMutability": "view",
      "type": "function"
    },
    {
      "inputs": [
        {
          "internalType": "address",
          "name": "recipient",
          "type": "address"
        },
        {
          "internalType": "bool",
          "name": "zeroForOne",
          "type": "bool"
        },
        {
          "internalType": "int256",
          "name": "amountSpecified",
          "type": "int256"
        },
        {
          "internalType": "uint160",
          "name": "",
          "type": "uint160"
        },
        {
          "internalType": "bytes",
          "name": "data",
          "type": "bytes"
        }
      ],
      "name": "swap",
      "outputs": [
        {
          "internalType": "int256",
          "name": "amount0",
          "type": "int256"
        },
        {
          "internalType": "int256",
          "name": "amount1",
          "type": "int256"
        }
      ],
      "stateMutability": "nonpayable",
      "type": "function"
    },
    {
      "inputs": [],
      "name": "token0",
      "outputs": [
        {
          "internalType": "contract IERC20Token",
          "name": "",
          "type": "address"
        }
      ],
      "stateMutability": "view",
      "type": "function"
    },
    {
      "inputs": [],
      "name": "token1",
      "outputs": [
        {
          "internalType": "contract IERC20Token",
          "name": "",
          "type": "address"
        }
      ],
      "stateMutability": "view",
      "type": "function"
    }
  ],
  "bytecode": "0x60e060405234801561000f575f5ffd5b505f336001600160a01b0316637ba6f2316040518163ffffffff1660e01b8152600401606060405180830381865afa15801561004d573d5f5f3e3d5ffd5b505050506040513d601f19601f8201168201806040525081019061007191906100b9565b8051602082015160409092015162ffffff1660c0526001600160a01b0391821660a0521660805250610139565b80516001600160a01b03811681146100b4575f5ffd5b919050565b5f60608284031280156100ca575f5ffd5b50604051606081016001600160401b03811182821017156100f957634e487b7160e01b5f52604160045260245ffd5b6040526101058361009e565b81526101136020840161009e565b6020820152604083015162ffffff8116811461012d575f5ffd5b60408201529392505050565b60805160a05160c05161074861018a5f395f60e601525f818160bf015281816101ca01528181610270015261049301525f818160530152818161013f0152818161031701526103fc01526107485ff3fe608060405234801561000f575f5ffd5b506004361061004a575f3560e01c80630dfe16811461004e578063128acb0814610092578063d21220a7146100ba578063ddca3f43146100e1575b5f5ffd5b6100757f000000000000000000000000000000000000000000000000000000000000000081565b6040516001600160a01b0390911681526020015b60405180910390f35b6100a56100a036600461059b565b61011c565b60408051928352602083019190915201610089565b6100757f000000000000000000000000000000000000000000000000000000000000000081565b6101087f000000000000000000000000000000000000000000000000000000000000000081565b60405162ffffff9091168152602001610089565b6040516370a0823160e01b81523060048201525f90819081906001600160a01b037f000000000000000000000000000000000000000000000000000000000000000016906370a0823190602401602060405180830381865afa158015610184573d5f5f3e3d5ffd5b505050506040513d601f19601f820116820180604052508101906101a89190610649565b6040516370a0823160e01b81523060048201529091505f906001600160a01b037f000000000000000000000000000000000000000000000000000000000000000016906370a0823190602401602060405180830381865afa15801561020f573d5f5f3e3d5ffd5b505050506040513d601f19601f820116820180604052508101906102339190610649565b905088156102e25787935061024781610674565b60405163a9059cbb60e01b81526001600160a01b038c81166004830152602482018490529194507f00000000000000000000000000000000000000000000000000000000000000009091169063a9059cbb906044016020604051808303815f875af11580156102b8573d5f5f3e3d5ffd5b505050506040513d601f19601f820116820180604052508101906102dc919061068e565b50610385565b6102eb82610674565b60405163a9059cbb60e01b81526001600160a01b038c81166004830152602482018590529195508994507f00000000000000000000000000000000000000000000000000000000000000009091169063a9059cbb906044016020604051808303815f875af115801561035f573d5f5f3e3d5ffd5b505050506040513d601f19601f82011682018060405250810190610383919061068e565b505b60405163fa461e3360e01b8152339063fa461e33906103ae90879087908b908b906004016106b0565b5f604051808303815f87803b1580156103c5575f5ffd5b505af11580156103d7573d5f5f3e3d5ffd5b50506040516370a0823160e01b81523060048201525f92508491506001600160a01b037f000000000000000000000000000000000000000000000000000000000000000016906370a0823190602401602060405180830381865afa158015610441573d5f5f3e3d5ffd5b505050506040513d601f19601f820116820180604052508101906104659190610649565b61046f91906106ec565b6040516370a0823160e01b81523060048201529091505f9083906001600160a01b037f000000000000000000000000000000000000000000000000000000000000000016906370a0823190602401602060405180830381865afa1580156104d8573d5f5f3e3d5ffd5b505050506040513d601f19601f820116820180604052508101906104fc9190610649565b61050691906106ec565b90508582121580156105185750848112155b6105685760405162461bcd60e51b815260206004820152601f60248201527f54657374556e69737761705633506f6f6c2f535741505f4e4f545f5041494400604482015260640160405180910390fd5b50505050965096945050505050565b6001600160a01b038116811461058b575f5ffd5b50565b801515811461058b575f5ffd5b5f5f5f5f5f5f60a087890312156105b0575f5ffd5b86356105bb81610577565b955060208701356105cb8161058e565b94506040870135935060608701356105e281610577565b9250608087013567ffffffffffffffff8111156105fd575f5ffd5b8701601f8101891361060d575f5ffd5b803567ffffffffffffffff811115610623575f5ffd5b896020828401011115610634575f5ffd5b60208201935080925050509295509295509295565b5f60208284031215610659575f5ffd5b5051919050565b634e487b7160e01b5f52601160045260245ffd5b5f600160ff1b820161068857610688610660565b505f0390565b5f6020828403121561069e575f5ffd5b81516106a98161058e565b9392505050565b84815283602082015260606040820152816060820152818360808301375f818301608090810191909152601f909201601f191601019392505050565b8181035f83128015838313168383128216171561070b5761070b610660565b509291505056fea26469706673582212208ab7e5c4352879a9684256029b49d9af63c0a408db96572a3fb1784cd6c314e764736f6c634300081c0033",
  "linkReferences": {},
  "deployedLinkReferences": {}
}