{
  "_format": "hh-sol-artifact-1",
  "contractName": "MixinGMX",
  "sourceName": "contracts/src/transformers/bridges/mixins/MixinGMX.sol",
  "abi": [
    {
      "inputs": [
        {
          "internalType": "contract IERC20Token",
          "name": "buyToken",
          "type": "address"
        },
        {
          "internalType": "uint256",
          "name": "sellAmount",
          "type": "uint256"
        },
        {
          "internalType": "bytes",
          "name": "bridgeData",
          "type": "bytes"
        }
      ],
      "name": "_tradeGMX",
      "outputs": [
        {
          "internalType": "uint256",
          "name": "boughtAmount",
          "type": "uint256"
        }
      ],
      "stateMutability": "nonpayable",
      "type": "function"
    }
  ],
  "bytecode": "0x6080604052348015600e575f5ffd5b506108268061001c5f395ff3fe608060405234801561000f575f5ffd5b5060043610610029575f3560e01c806360574bd21461002d575b5f5ffd5b61004061003b36600461055d565b610052565b60405190815260200160405180910390f35b5f5f5f5f60605f60608780602001905181019061006f919061060c565b805193995091975095509350839150600211156100e55760405162461bcd60e51b815260206004820152602960248201527f4d6978696e474d582f504154485f4c454e4754485f4d5553545f42455f41545f6044820152684c454153545f54574f60b81b60648201526084015b60405180910390fd5b896001600160a01b031681600183516100fe91906106fa565b8151811061010e5761010e61071f565b60200260200101516001600160a01b03161461018a5760405162461bcd60e51b815260206004820152603560248201527f4d6978696e474d582f4c4153545f454c454d454e545f4f465f504154485f4d5560448201527429aa2fa6a0aa21a42fa7aaaa282aaa2faa27a5a2a760591b60648201526084016100dc565b8591506101c4828a835f815181106101a4576101a461071f565b60200260200101516001600160a01b031661030f9092919063ffffffff16565b6040516370a0823160e01b81523060048201525f906001600160a01b038c16906370a0823190602401602060405180830381865afa158015610208573d5f5f3e3d5ffd5b505050506040513d601f19601f8201168201806040525081019061022c9190610733565b604051633011f4b360e11b81529091506001600160a01b03841690636023e966906102619087908e905f90309060040161074a565b5f604051808303815f87803b158015610278575f5ffd5b505af115801561028a573d5f5f3e3d5ffd5b50506040516370a0823160e01b81523060048201528392506001600160a01b038e1691506370a0823190602401602060405180830381865afa1580156102d2573d5f5f3e3d5ffd5b505050506040513d601f19601f820116820180604052508101906102f69190610733565b61030091906106fa565b9b9a5050505050505050505050565b604051636eb1769f60e11b81523060048201526001600160a01b03838116602483015282919085169063dd62ed3e90604401602060405180830381865afa15801561035c573d5f5f3e3d5ffd5b505050506040513d601f19601f820116820180604052508101906103809190610733565b10156103925761039283835f19610397565b505050565b604080516001600160a01b038416602482015260448082018490528251808303909101815260649091019091526020810180516001600160e01b031663095ea7b360e01b1790526103e884826103ee565b50505050565b5f5f836001600160a01b03168360405161040891906107b4565b5f604051808303815f865af19150503d805f8114610441576040519150601f19603f3d011682016040523d82523d5f602084013e610446565b606091505b50915091508161045957610459816104f9565b80515f036104ca575f846001600160a01b03163b116103e85760405162461bcd60e51b815260206004820152602760248201527f696e76616c696420746f6b656e20616464726573732c20636f6e7461696e73206044820152666e6f20636f646560c81b60648201526084016100dc565b60208151106104f457808060200190518101906104e791906107ca565b6104f4576104f4816104f9565b6103e8815b805160208201fd5b6001600160a01b0381168114610515575f5ffd5b50565b634e487b7160e01b5f52604160045260245ffd5b604051601f8201601f1916810167ffffffffffffffff8111828210171561055557610555610518565b604052919050565b5f5f5f6060848603121561056f575f5ffd5b833561057a81610501565b925060208401359150604084013567ffffffffffffffff81111561059c575f5ffd5b8401601f810186136105ac575f5ffd5b803567ffffffffffffffff8111156105c6576105c6610518565b6105d9601f8201601f191660200161052c565b8181528760208385010111156105ed575f5ffd5b816020840160208301375f602083830101528093505050509250925092565b5f5f5f5f6080858703121561061f575f5ffd5b845161062a81610501565b602086015190945061063b81610501565b604086015190935061064c81610501565b606086015190925067ffffffffffffffff811115610668575f5ffd5b8501601f81018713610678575f5ffd5b805167ffffffffffffffff81111561069257610692610518565b8060051b6106a26020820161052c565b9182526020818401810192908101908a8411156106bd575f5ffd5b6020850194505b838510156106eb57845192506106d983610501565b828252602094850194909101906106c4565b979a9699509497505050505050565b8181038181111561071957634e487b7160e01b5f52601160045260245ffd5b92915050565b634e487b7160e01b5f52603260045260245ffd5b5f60208284031215610743575f5ffd5b5051919050565b608080825285519082018190525f90602087019060a0840190835b8181101561078c5783516001600160a01b0316835260209384019390920191600101610765565b50506020840196909652505060408101929092526001600160a01b0316606090910152919050565b5f82518060208501845e5f920191825250919050565b5f602082840312156107da575f5ffd5b815180151581146107e9575f5ffd5b939250505056fea26469706673582212203d7b267c3e774307270d09c82d6b6057856724c0f76c0590c0150d8dc0f9118e64736f6c634300081c0033",
  "linkReferences": {},
  "deployedLinkReferences": {}
}