{
  "_format": "hh-sol-artifact-1",
  "contractName": "MixinGMX",
  "sourceName": "contracts/src/transformers/bridges/mixins/MixinGMX.sol",
  "abi": [
    {
      "inputs": [
        {
          "internalType": "contract IERC20Token",
          "name": "buyToken",
          "type": "address"
        },
        {
          "internalType": "uint256",
          "name": "sellAmount",
          "type": "uint256"
        },
        {
          "internalType": "bytes",
          "name": "bridgeData",
          "type": "bytes"
        }
      ],
      "name": "_tradeGMX",
      "outputs": [
        {
          "internalType": "uint256",
          "name": "boughtAmount",
          "type": "uint256"
        }
      ],
      "stateMutability": "nonpayable",
      "type": "function"
    }
  ],
  "bytecode": "0x6080604052348015600e575f5ffd5b50610a878061001c5f395ff3fe608060405234801561000f575f5ffd5b5060043610610029575f3560e01c806360574bd21461002d575b5f5ffd5b61004061003b366004610754565b610052565b60405190815260200160405180910390f35b5f5f5f5f60605f60608780602001905181019061006f9190610821565b80519399509197509550935083915060021115610113576040517f08c379a000000000000000000000000000000000000000000000000000000000815260206004820152602960248201527f4d6978696e474d582f504154485f4c454e4754485f4d5553545f42455f41545f60448201527f4c454153545f54574f000000000000000000000000000000000000000000000060648201526084015b60405180910390fd5b8973ffffffffffffffffffffffffffffffffffffffff168160018351610139919061090f565b815181106101495761014961094d565b602002602001015173ffffffffffffffffffffffffffffffffffffffff16146101f4576040517f08c379a000000000000000000000000000000000000000000000000000000000815260206004820152603560248201527f4d6978696e474d582f4c4153545f454c454d454e545f4f465f504154485f4d5560448201527f53545f4d415443485f4f55545055545f544f4b454e0000000000000000000000606482015260840161010a565b85915061023b828a835f8151811061020e5761020e61094d565b602002602001015173ffffffffffffffffffffffffffffffffffffffff166103f89092919063ffffffff16565b6040517f70a082310000000000000000000000000000000000000000000000000000000081523060048201525f9073ffffffffffffffffffffffffffffffffffffffff8c16906370a0823190602401602060405180830381865afa1580156102a5573d5f5f3e3d5ffd5b505050506040513d601f19601f820116820180604052508101906102c9919061097a565b6040517f6023e96600000000000000000000000000000000000000000000000000000000815290915073ffffffffffffffffffffffffffffffffffffffff841690636023e966906103249087908e905f903090600401610991565b5f604051808303815f87803b15801561033b575f5ffd5b505af115801561034d573d5f5f3e3d5ffd5b50506040517f70a0823100000000000000000000000000000000000000000000000000000000815230600482015283925073ffffffffffffffffffffffffffffffffffffffff8e1691506370a0823190602401602060405180830381865afa1580156103bb573d5f5f3e3d5ffd5b505050506040513d601f19601f820116820180604052508101906103df919061097a565b6103e9919061090f565b9b9a5050505050505050505050565b6040517fdd62ed3e00000000000000000000000000000000000000000000000000000000815230600482015273ffffffffffffffffffffffffffffffffffffffff838116602483015282919085169063dd62ed3e90604401602060405180830381865afa15801561046b573d5f5f3e3d5ffd5b505050506040513d601f19601f8201168201806040525081019061048f919061097a565b10156104c0576104c083837fffffffffffffffffffffffffffffffffffffffffffffffffffffffffffffffff6104c5565b505050565b6040805173ffffffffffffffffffffffffffffffffffffffff8416602482015260448082018490528251808303909101815260649091019091526020810180517bffffffffffffffffffffffffffffffffffffffffffffffffffffffff167f095ea7b3000000000000000000000000000000000000000000000000000000001790526105518482610557565b50505050565b5f5f8373ffffffffffffffffffffffffffffffffffffffff168360405161057e9190610a15565b5f604051808303815f865af19150503d805f81146105b7576040519150601f19603f3d011682016040523d82523d5f602084013e6105bc565b606091505b5091509150816105cf576105cf816106ac565b80515f0361067d575f8473ffffffffffffffffffffffffffffffffffffffff163b11610551576040517f08c379a000000000000000000000000000000000000000000000000000000000815260206004820152602760248201527f696e76616c696420746f6b656e20616464726573732c20636f6e7461696e732060448201527f6e6f20636f646500000000000000000000000000000000000000000000000000606482015260840161010a565b60208151106106a7578080602001905181019061069a9190610a2b565b6106a7576106a7816106ac565b610551815b805160208201fd5b73ffffffffffffffffffffffffffffffffffffffff811681146106d5575f5ffd5b50565b7f4e487b71000000000000000000000000000000000000000000000000000000005f52604160045260245ffd5b604051601f82017fffffffffffffffffffffffffffffffffffffffffffffffffffffffffffffffe016810167ffffffffffffffff8111828210171561074c5761074c6106d8565b604052919050565b5f5f5f60608486031215610766575f5ffd5b8335610771816106b4565b925060208401359150604084013567ffffffffffffffff811115610793575f5ffd5b8401601f810186136107a3575f5ffd5b803567ffffffffffffffff8111156107bd576107bd6106d8565b6107ee60207fffffffffffffffffffffffffffffffffffffffffffffffffffffffffffffffe0601f84011601610705565b818152876020838501011115610802575f5ffd5b816020840160208301375f602083830101528093505050509250925092565b5f5f5f5f60808587031215610834575f5ffd5b845161083f816106b4565b6020860151909450610850816106b4565b6040860151909350610861816106b4565b606086015190925067ffffffffffffffff81111561087d575f5ffd5b8501601f8101871361088d575f5ffd5b805167ffffffffffffffff8111156108a7576108a76106d8565b8060051b6108b760208201610705565b9182526020818401810192908101908a8411156108d2575f5ffd5b6020850194505b8385101561090057845192506108ee836106b4565b828252602094850194909101906108d9565b979a9699509497505050505050565b81810381811115610947577f4e487b71000000000000000000000000000000000000000000000000000000005f52601160045260245ffd5b92915050565b7f4e487b71000000000000000000000000000000000000000000000000000000005f52603260045260245ffd5b5f6020828403121561098a575f5ffd5b5051919050565b608080825285519082018190525f90602087019060a0840190835b818110156109e057835173ffffffffffffffffffffffffffffffffffffffff168352602093840193909201916001016109ac565b505060208401969096525050604081019290925273ffffffffffffffffffffffffffffffffffffffff16606090910152919050565b5f82518060208501845e5f920191825250919050565b5f60208284031215610a3b575f5ffd5b81518015158114610a4a575f5ffd5b939250505056fea26469706673582212201af234eaab7bdf642ec8de760d075e02360442bfc742343320d24e210fe528a564736f6c634300081c0033",
  "linkReferences": {},
  "deployedLinkReferences": {}
}