{
  "_format": "hh-sol-artifact-1",
  "contractName": "BatchFillNativeOrdersFeature",
  "sourceName": "contracts/src/features/BatchFillNativeOrdersFeature.sol",
  "abi": [
    {
      "inputs": [
        {
          "internalType": "address",
          "name": "zeroExAddress",
          "type": "address"
        }
      ],
      "stateMutability": "nonpayable",
      "type": "constructor"
    },
    {
      "inputs": [],
      "name": "EIP712_DOMAIN_SEPARATOR",
      "outputs": [
        {
          "internalType": "bytes32",
          "name": "",
          "type": "bytes32"
        }
      ],
      "stateMutability": "view",
      "type": "function"
    },
    {
      "inputs": [],
      "name": "FEATURE_NAME",
      "outputs": [
        {
          "internalType": "string",
          "name": "",
          "type": "string"
        }
      ],
      "stateMutability": "view",
      "type": "function"
    },
    {
      "inputs": [],
      "name": "FEATURE_VERSION",
      "outputs": [
        {
          "internalType": "uint256",
          "name": "",
          "type": "uint256"
        }
      ],
      "stateMutability": "view",
      "type": "function"
    },
    {
      "inputs": [
        {
          "components": [
            {
              "internalType": "contract IERC20Token",
              "name": "makerToken",
              "type": "address"
            },
            {
              "internalType": "contract IERC20Token",
              "name": "takerToken",
              "type": "address"
            },
            {
              "internalType": "uint128",
              "name": "makerAmount",
              "type": "uint128"
            },
            {
              "internalType": "uint128",
              "name": "takerAmount",
              "type": "uint128"
            },
            {
              "internalType": "uint128",
              "name": "takerTokenFeeAmount",
              "type": "uint128"
            },
            {
              "internalType": "address",
              "name": "maker",
              "type": "address"
            },
            {
              "internalType": "address",
              "name": "taker",
              "type": "address"
            },
            {
              "internalType": "address",
              "name": "sender",
              "type": "address"
            },
            {
              "internalType": "address",
              "name": "feeRecipient",
              "type": "address"
            },
            {
              "internalType": "bytes32",
              "name": "pool",
              "type": "bytes32"
            },
            {
              "internalType": "uint64",
              "name": "expiry",
              "type": "uint64"
            },
            {
              "internalType": "uint256",
              "name": "salt",
              "type": "uint256"
            }
          ],
          "internalType": "struct LibNativeOrder.LimitOrder[]",
          "name": "orders",
          "type": "tuple[]"
        },
        {
          "components": [
            {
              "internalType": "enum LibSignature.SignatureType",
              "name": "signatureType",
              "type": "uint8"
            },
            {
              "internalType": "uint8",
              "name": "v",
              "type": "uint8"
            },
            {
              "internalType": "bytes32",
              "name": "r",
              "type": "bytes32"
            },
            {
              "internalType": "bytes32",
              "name": "s",
              "type": "bytes32"
            }
          ],
          "internalType": "struct LibSignature.Signature[]",
          "name": "signatures",
          "type": "tuple[]"
        },
        {
          "internalType": "uint128[]",
          "name": "takerTokenFillAmounts",
          "type": "uint128[]"
        },
        {
          "internalType": "bool",
          "name": "revertIfIncomplete",
          "type": "bool"
        }
      ],
      "name": "batchFillLimitOrders",
      "outputs": [
        {
          "internalType": "uint128[]",
          "name": "takerTokenFilledAmounts",
          "type": "uint128[]"
        },
        {
          "internalType": "uint128[]",
          "name": "makerTokenFilledAmounts",
          "type": "uint128[]"
        }
      ],
      "stateMutability": "payable",
      "type": "function"
    },
    {
      "inputs": [
        {
          "components": [
            {
              "internalType": "contract IERC20Token",
              "name": "makerToken",
              "type": "address"
            },
            {
              "internalType": "contract IERC20Token",
              "name": "takerToken",
              "type": "address"
            },
            {
              "internalType": "uint128",
              "name": "makerAmount",
              "type": "uint128"
            },
            {
              "internalType": "uint128",
              "name": "takerAmount",
              "type": "uint128"
            },
            {
              "internalType": "address",
              "name": "maker",
              "type": "address"
            },
            {
              "internalType": "address",
              "name": "taker",
              "type": "address"
            },
            {
              "internalType": "address",
              "name": "txOrigin",
              "type": "address"
            },
            {
              "internalType": "bytes32",
              "name": "pool",
              "type": "bytes32"
            },
            {
              "internalType": "uint64",
              "name": "expiry",
              "type": "uint64"
            },
            {
              "internalType": "uint256",
              "name": "salt",
              "type": "uint256"
            }
          ],
          "internalType": "struct LibNativeOrder.RfqOrder[]",
          "name": "orders",
          "type": "tuple[]"
        },
        {
          "components": [
            {
              "internalType": "enum LibSignature.SignatureType",
              "name": "signatureType",
              "type": "uint8"
            },
            {
              "internalType": "uint8",
              "name": "v",
              "type": "uint8"
            },
            {
              "internalType": "bytes32",
              "name": "r",
              "type": "bytes32"
            },
            {
              "internalType": "bytes32",
              "name": "s",
              "type": "bytes32"
            }
          ],
          "internalType": "struct LibSignature.Signature[]",
          "name": "signatures",
          "type": "tuple[]"
        },
        {
          "internalType": "uint128[]",
          "name": "takerTokenFillAmounts",
          "type": "uint128[]"
        },
        {
          "internalType": "bool",
          "name": "revertIfIncomplete",
          "type": "bool"
        }
      ],
      "name": "batchFillRfqOrders",
      "outputs": [
        {
          "internalType": "uint128[]",
          "name": "takerTokenFilledAmounts",
          "type": "uint128[]"
        },
        {
          "internalType": "uint128[]",
          "name": "makerTokenFilledAmounts",
          "type": "uint128[]"
        }
      ],
      "stateMutability": "nonpayable",
      "type": "function"
    },
    {
      "inputs": [],
      "name": "migrate",
      "outputs": [
        {
          "internalType": "bytes4",
          "name": "success",
          "type": "bytes4"
        }
      ],
      "stateMutability": "nonpayable",
      "type": "function"
    }
  ],
  "bytecode": "0x60e0604052610017600180600061012360201b60201c565b60c09081525034801561002957600080fd5b5060405161280f38038061280f833981810160405281019061004b91906101b0565b803073ffffffffffffffffffffffffffffffffffffffff1660808173ffffffffffffffffffffffffffffffffffffffff168152505060004690507f8b73c3c69bb8fe3d512ecc4cf759cc79239f7b179b0ffacaa9a75d522b39400f7f9e5dae0addaf20578aeb5d70341d092b53b4e14480ac5726438fd436df7ba4277f06c015bd22b4c69690933c1058878ebdfef31f9aaae40bbe86d8a09fe1b2972c83856040516020016100fe95949392919061021e565b6040516020818303038152906040528051906020012060a08181525050505050610271565b60008163ffffffff1660208463ffffffff16901b60408663ffffffff16901b171790509392505050565b600080fd5b600073ffffffffffffffffffffffffffffffffffffffff82169050919050565b600061017d82610152565b9050919050565b61018d81610172565b811461019857600080fd5b50565b6000815190506101aa81610184565b92915050565b6000602082840312156101c6576101c561014d565b5b60006101d48482850161019b565b91505092915050565b6000819050919050565b6101f0816101dd565b82525050565b6000819050919050565b610209816101f6565b82525050565b61021881610172565b82525050565b600060a08201905061023360008301886101e7565b61024060208301876101e7565b61024d60408301866101e7565b61025a6060830185610200565b610267608083018461020f565b9695505050505050565b60805160a05160c0516125686102a76000396000610177015260008181610a160152610bb301526000610ed701526125686000f3fe6080604052600436106100555760003560e01c8063031b905c1461005a5780631baaa00b146100855780636ae4b4f7146100b657806375103cb9146100e15780638fd3ab801461011f578063dab400f31461014a575b600080fd5b34801561006657600080fd5b5061006f610175565b60405161007c9190610ffc565b60405180910390f35b61009f600480360381019061009a9190611175565b610199565b6040516100ad929190611318565b60405180910390f35b3480156100c257600080fd5b506100cb6105f2565b6040516100d891906113df565b60405180910390f35b3480156100ed57600080fd5b5061010860048036038101906101039190611458565b61062b565b604051610116929190611318565b60405180910390f35b34801561012b57600080fd5b506101346109e5565b604051610141919061155c565b60405180910390f35b34801561015657600080fd5b5061015f610a14565b60405161016c9190611590565b60405180910390f35b7f000000000000000000000000000000000000000000000000000000000000000081565b60608086869050898990501480156101b657508484905089899050145b6101f5576040517f08c379a00000000000000000000000000000000000000000000000000000000081526004016101ec90611643565b60405180910390fd5b8888905067ffffffffffffffff81111561021257610211611663565b5b6040519080825280602002602001820160405280156102405781602001602082028036833780820191505090505b5091508888905067ffffffffffffffff8111156102605761025f611663565b5b60405190808252806020026020018201604052801561028e5781602001602082028036833780820191505090505b50905060003a3073ffffffffffffffffffffffffffffffffffffffff1663487b5c206040518163ffffffff1660e01b8152600401602060405180830381865afa1580156102df573d6000803e3d6000fd5b505050506040513d601f19601f8201168201806040525081019061030391906116ce565b63ffffffff16610313919061172a565b9050600080600090505b8b8b905081146105da573073ffffffffffffffffffffffffffffffffffffffff1663414e4ccf8d8d848181106103565761035561176c565b5b905061018002018c8c858181106103705761036f61176c565b5b9050608002018b8b868181106103895761038861176c565b5b905060200201602081019061039e91906117c7565b33336040518663ffffffff1660e01b81526004016103c0959493929190611d48565b60408051808303816000875af19250505080156103fb57506040513d601f19601f820116820180604052508101906103f89190611db5565b60015b156104995781818885815181106104155761041461176c565b5b6020026020010188868151811061042f5761042e61176c565b5b60200260200101826fffffffffffffffffffffffffffffffff166fffffffffffffffffffffffffffffffff16815250826fffffffffffffffffffffffffffffffff166fffffffffffffffffffffffffffffffff16815250505084846104949190611df5565b935050505b85801561050a57508787828181106104b4576104b361176c565b5b90506020020160208101906104c991906117c7565b6fffffffffffffffffffffffffffffffff168582815181106104ee576104ed61176c565b5b60200260200101516fffffffffffffffffffffffffffffffff16105b156105c757600061054b6105468e8e8581811061052a5761052961176c565b5b905061018002018036038101906105419190611f9c565b610a38565b610baf565b90506105c56105c0828885815181106105675761056661176c565b5b60200260200101516fffffffffffffffffffffffffffffffff168c8c878181106105945761059361176c565b5b90506020020160208101906105a991906117c7565b6fffffffffffffffffffffffffffffffff16610c01565b610c9f565b505b80806105d290611fca565b91505061031d565b506105e481610ca7565b505097509795505050505050565b6040518060400160405280600981526020017f426174636846696c6c000000000000000000000000000000000000000000000081525081565b606080868690508989905014801561064857508484905089899050145b610687576040517f08c379a000000000000000000000000000000000000000000000000000000000815260040161067e906120aa565b60405180910390fd5b8888905067ffffffffffffffff8111156106a4576106a3611663565b5b6040519080825280602002602001820160405280156106d25781602001602082028036833780820191505090505b5091508888905067ffffffffffffffff8111156106f2576106f1611663565b5b6040519080825280602002602001820160405280156107205781602001602082028036833780820191505090505b50905060005b8989905081146109d8573073ffffffffffffffffffffffffffffffffffffffff1663aa6b21cd8b8b8481811061075f5761075e61176c565b5b905061014002018a8a858181106107795761077861176c565b5b9050608002018989868181106107925761079161176c565b5b90506020020160208101906107a791906117c7565b336000336040518763ffffffff1660e01b81526004016107cc969594939291906121f5565b60408051808303816000875af192505050801561080757506040513d601f19601f820116820180604052508101906108049190611db5565b60015b156108975781818685815181106108215761082061176c565b5b6020026020010186868151811061083b5761083a61176c565b5b60200260200101826fffffffffffffffffffffffffffffffff166fffffffffffffffffffffffffffffffff16815250826fffffffffffffffffffffffffffffffff166fffffffffffffffffffffffffffffffff16815250505050505b83801561090857508585828181106108b2576108b161176c565b5b90506020020160208101906108c791906117c7565b6fffffffffffffffffffffffffffffffff168382815181106108ec576108eb61176c565b5b60200260200101516fffffffffffffffffffffffffffffffff16105b156109c55760006109496109448c8c858181106109285761092761176c565b5b9050610140020180360381019061093f9190612352565b610d81565b610baf565b90506109c36109be828685815181106109655761096461176c565b5b60200260200101516fffffffffffffffffffffffffffffffff168a8a878181106109925761099161176c565b5b90506020020160208101906109a791906117c7565b6fffffffffffffffffffffffffffffffff16610c01565b610c9f565b505b80806109d090611fca565b915050610726565b5097509795505050505050565b60006109f7631baaa00b60e01b610eb8565b610a076375103cb960e01b610eb8565b632c64c5ef60e01b905090565b7f000000000000000000000000000000000000000000000000000000000000000081565b60006040517fce918627cb55462ddbb85e73de69a8b322f2bc88f4507c52fcad6d4c33c29d498152825173ffffffffffffffffffffffffffffffffffffffff166020820152602083015173ffffffffffffffffffffffffffffffffffffffff16604082015260408301516fffffffffffffffffffffffffffffffff16606082015260608301516fffffffffffffffffffffffffffffffff16608082015260808301516fffffffffffffffffffffffffffffffff1660a082015260a083015173ffffffffffffffffffffffffffffffffffffffff1660c082015260c083015173ffffffffffffffffffffffffffffffffffffffff1660e082015260e083015173ffffffffffffffffffffffffffffffffffffffff1661010082015261010083015173ffffffffffffffffffffffffffffffffffffffff1661012082015261012083015161014082015261014083015167ffffffffffffffff166101608201526101608301516101808201526101a08120915050919050565b60007f000000000000000000000000000000000000000000000000000000000000000082604051602001610be49291906123f8565b604051602081830303815290604052805190602001209050919050565b60607f1d44aa5d44fd7162f13b456f3c7766598d02f56029c083df67a6f11a6edd3c3e848484604051602401610c399392919061242f565b604051602081830303815290604052907bffffffffffffffffffffffffffffffffffffffffffffffffffffffff19166020820180517bffffffffffffffffffffffffffffffffffffffffffffffffffffffff838183161783525050505090509392505050565b805160208201fd5b8034118015610ce257503073ffffffffffffffffffffffffffffffffffffffff163373ffffffffffffffffffffffffffffffffffffffff1614155b15610d7e5760008134610cf59190612466565b905060003373ffffffffffffffffffffffffffffffffffffffff1682604051610d1d906124cb565b60006040518083038185875af1925050503d8060008114610d5a576040519150601f19603f3d011682016040523d82523d6000602084013e610d5f565b606091505b5050905080610d7b57610d7a610d753384610f48565b610c9f565b5b50505b50565b60006040517fe593d3fdfa8b60e5e17a1b2204662ecbe15c23f2084b9ad5bae40359540a7da98152825173ffffffffffffffffffffffffffffffffffffffff166020820152602083015173ffffffffffffffffffffffffffffffffffffffff16604082015260408301516fffffffffffffffffffffffffffffffff16606082015260608301516fffffffffffffffffffffffffffffffff166080820152608083015173ffffffffffffffffffffffffffffffffffffffff1660a082015260a083015173ffffffffffffffffffffffffffffffffffffffff1660c082015260c083015173ffffffffffffffffffffffffffffffffffffffff1660e082015260e083015161010082015261010083015167ffffffffffffffff166101208201526101208301516101408201526101608120915050919050565b3073ffffffffffffffffffffffffffffffffffffffff16636eb224cb827f00000000000000000000000000000000000000000000000000000000000000006040518363ffffffff1660e01b8152600401610f139291906124e0565b600060405180830381600087803b158015610f2d57600080fd5b505af1158015610f41573d6000803e3d6000fd5b5050505050565b60607fbde95cc2119e0200d80642397198abfcf98e6e4dddd0de9c6320d86252ad40ab8383604051602401610f7e929190612509565b604051602081830303815290604052907bffffffffffffffffffffffffffffffffffffffffffffffffffffffff19166020820180517bffffffffffffffffffffffffffffffffffffffffffffffffffffffff8381831617835250505050905092915050565b6000819050919050565b610ff681610fe3565b82525050565b60006020820190506110116000830184610fed565b92915050565b6000604051905090565b600080fd5b600080fd5b600080fd5b600080fd5b600080fd5b60008083601f8401126110505761104f61102b565b5b8235905067ffffffffffffffff81111561106d5761106c611030565b5b6020830191508361018082028301111561108a57611089611035565b5b9250929050565b60008083601f8401126110a7576110a661102b565b5b8235905067ffffffffffffffff8111156110c4576110c3611030565b5b6020830191508360808202830111156110e0576110df611035565b5b9250929050565b60008083601f8401126110fd576110fc61102b565b5b8235905067ffffffffffffffff81111561111a57611119611030565b5b60208301915083602082028301111561113657611135611035565b5b9250929050565b60008115159050919050565b6111528161113d565b811461115d57600080fd5b50565b60008135905061116f81611149565b92915050565b60008060008060008060006080888a03121561119457611193611021565b5b600088013567ffffffffffffffff8111156111b2576111b1611026565b5b6111be8a828b0161103a565b9750975050602088013567ffffffffffffffff8111156111e1576111e0611026565b5b6111ed8a828b01611091565b9550955050604088013567ffffffffffffffff8111156112105761120f611026565b5b61121c8a828b016110e7565b9350935050606061122f8a828b01611160565b91505092959891949750929550565b600081519050919050565b600082825260208201905092915050565b6000819050602082019050919050565b60006fffffffffffffffffffffffffffffffff82169050919050565b61128f8161126a565b82525050565b60006112a18383611286565b60208301905092915050565b6000602082019050919050565b60006112c58261123e565b6112cf8185611249565b93506112da8361125a565b8060005b8381101561130b5781516112f28882611295565b97506112fd836112ad565b9250506001810190506112de565b5085935050505092915050565b6000604082019050818103600083015261133281856112ba565b9050818103602083015261134681846112ba565b90509392505050565b600081519050919050565b600082825260208201905092915050565b60005b8381101561138957808201518184015260208101905061136e565b60008484015250505050565b6000601f19601f8301169050919050565b60006113b18261134f565b6113bb818561135a565b93506113cb81856020860161136b565b6113d481611395565b840191505092915050565b600060208201905081810360008301526113f981846113a6565b905092915050565b60008083601f8401126114175761141661102b565b5b8235905067ffffffffffffffff81111561143457611433611030565b5b6020830191508361014082028301111561145157611450611035565b5b9250929050565b60008060008060008060006080888a03121561147757611476611021565b5b600088013567ffffffffffffffff81111561149557611494611026565b5b6114a18a828b01611401565b9750975050602088013567ffffffffffffffff8111156114c4576114c3611026565b5b6114d08a828b01611091565b9550955050604088013567ffffffffffffffff8111156114f3576114f2611026565b5b6114ff8a828b016110e7565b935093505060606115128a828b01611160565b91505092959891949750929550565b60007fffffffff0000000000000000000000000000000000000000000000000000000082169050919050565b61155681611521565b82525050565b6000602082019050611571600083018461154d565b92915050565b6000819050919050565b61158a81611577565b82525050565b60006020820190506115a56000830184611581565b92915050565b7f426174636846696c6c4e61746976654f7264657273466561747572653a3a626160008201527f74636846696c6c4c696d69744f72646572732f4d49534d4154434845445f415260208201527f5241595f4c454e47544853000000000000000000000000000000000000000000604082015250565b600061162d604b8361135a565b9150611638826115ab565b606082019050919050565b6000602082019050818103600083015261165c81611620565b9050919050565b7f4e487b7100000000000000000000000000000000000000000000000000000000600052604160045260246000fd5b600063ffffffff82169050919050565b6116ab81611692565b81146116b657600080fd5b50565b6000815190506116c8816116a2565b92915050565b6000602082840312156116e4576116e3611021565b5b60006116f2848285016116b9565b91505092915050565b7f4e487b7100000000000000000000000000000000000000000000000000000000600052601160045260246000fd5b600061173582610fe3565b915061174083610fe3565b925082820261174e81610fe3565b91508282048414831517611765576117646116fb565b5b5092915050565b7f4e487b7100000000000000000000000000000000000000000000000000000000600052603260045260246000fd5b6117a48161126a565b81146117af57600080fd5b50565b6000813590506117c18161179b565b92915050565b6000602082840312156117dd576117dc611021565b5b60006117eb848285016117b2565b91505092915050565b600073ffffffffffffffffffffffffffffffffffffffff82169050919050565b600061181f826117f4565b9050919050565b600061183182611814565b9050919050565b61184181611826565b811461184c57600080fd5b50565b60008135905061185e81611838565b92915050565b6000611873602084018461184f565b905092915050565b6000819050919050565b60006118a061189b611896846117f4565b61187b565b6117f4565b9050919050565b60006118b282611885565b9050919050565b60006118c4826118a7565b9050919050565b6118d4816118b9565b82525050565b60006118e960208401846117b2565b905092915050565b6118fa81611814565b811461190557600080fd5b50565b600081359050611917816118f1565b92915050565b600061192c6020840184611908565b905092915050565b61193d81611814565b82525050565b61194c81611577565b811461195757600080fd5b50565b60008135905061196981611943565b92915050565b600061197e602084018461195a565b905092915050565b61198f81611577565b82525050565b600067ffffffffffffffff82169050919050565b6119b281611995565b81146119bd57600080fd5b50565b6000813590506119cf816119a9565b92915050565b60006119e460208401846119c0565b905092915050565b6119f581611995565b82525050565b611a0481610fe3565b8114611a0f57600080fd5b50565b600081359050611a21816119fb565b92915050565b6000611a366020840184611a12565b905092915050565b611a4781610fe3565b82525050565b6101808201611a5f6000830183611864565b611a6c60008501826118cb565b50611a7a6020830183611864565b611a8760208501826118cb565b50611a9560408301836118da565b611aa26040850182611286565b50611ab060608301836118da565b611abd6060850182611286565b50611acb60808301836118da565b611ad86080850182611286565b50611ae660a083018361191d565b611af360a0850182611934565b50611b0160c083018361191d565b611b0e60c0850182611934565b50611b1c60e083018361191d565b611b2960e0850182611934565b50611b3861010083018361191d565b611b46610100850182611934565b50611b5561012083018361196f565b611b63610120850182611986565b50611b726101408301836119d5565b611b806101408501826119ec565b50611b8f610160830183611a27565b611b9d610160850182611a3e565b50505050565b60058110611bb057600080fd5b50565b600081359050611bc281611ba3565b92915050565b6000611bd76020840184611bb3565b905092915050565b7f4e487b7100000000000000000000000000000000000000000000000000000000600052602160045260246000fd5b60058110611c1f57611c1e611bdf565b5b50565b6000819050611c3082611c0e565b919050565b6000611c4082611c22565b9050919050565b611c5081611c35565b82525050565b600060ff82169050919050565b611c6c81611c56565b8114611c7757600080fd5b50565b600081359050611c8981611c63565b92915050565b6000611c9e6020840184611c7a565b905092915050565b611caf81611c56565b82525050565b60808201611cc66000830183611bc8565b611cd36000850182611c47565b50611ce16020830183611c8f565b611cee6020850182611ca6565b50611cfc604083018361196f565b611d096040850182611986565b50611d17606083018361196f565b611d246060850182611986565b50505050565b611d338161126a565b82525050565b611d4281611814565b82525050565b600061026082019050611d5e6000830188611a4d565b611d6c610180830187611cb5565b611d7a610200830186611d2a565b611d88610220830185611d39565b611d96610240830184611d39565b9695505050505050565b600081519050611daf8161179b565b92915050565b60008060408385031215611dcc57611dcb611021565b5b6000611dda85828601611da0565b9250506020611deb85828601611da0565b9150509250929050565b6000611e0082610fe3565b9150611e0b83610fe3565b9250828201905080821115611e2357611e226116fb565b5b92915050565b600080fd5b611e3782611395565b810181811067ffffffffffffffff82111715611e5657611e55611663565b5b80604052505050565b6000611e69611017565b9050611e758282611e2e565b919050565b60006101808284031215611e9157611e90611e29565b5b611e9c610180611e5f565b90506000611eac8482850161184f565b6000830152506020611ec08482850161184f565b6020830152506040611ed4848285016117b2565b6040830152506060611ee8848285016117b2565b6060830152506080611efc848285016117b2565b60808301525060a0611f1084828501611908565b60a08301525060c0611f2484828501611908565b60c08301525060e0611f3884828501611908565b60e083015250610100611f4d84828501611908565b61010083015250610120611f638482850161195a565b61012083015250610140611f79848285016119c0565b61014083015250610160611f8f84828501611a12565b6101608301525092915050565b60006101808284031215611fb357611fb2611021565b5b6000611fc184828501611e7a565b91505092915050565b6000611fd582610fe3565b91507fffffffffffffffffffffffffffffffffffffffffffffffffffffffffffffffff8203612007576120066116fb565b5b600182019050919050565b7f426174636846696c6c4e61746976654f7264657273466561747572653a3a626160008201527f74636846696c6c5266714f72646572732f4d49534d4154434845445f4152524160208201527f595f4c454e475448530000000000000000000000000000000000000000000000604082015250565b600061209460498361135a565b915061209f82612012565b606082019050919050565b600060208201905081810360008301526120c381612087565b9050919050565b61014082016120dc6000830183611864565b6120e960008501826118cb565b506120f76020830183611864565b61210460208501826118cb565b5061211260408301836118da565b61211f6040850182611286565b5061212d60608301836118da565b61213a6060850182611286565b50612148608083018361191d565b6121556080850182611934565b5061216360a083018361191d565b61217060a0850182611934565b5061217e60c083018361191d565b61218b60c0850182611934565b5061219960e083018361196f565b6121a660e0850182611986565b506121b56101008301836119d5565b6121c36101008501826119ec565b506121d2610120830183611a27565b6121e0610120850182611a3e565b50505050565b6121ef8161113d565b82525050565b60006102408201905061220b60008301896120ca565b612219610140830188611cb5565b6122276101c0830187611d2a565b6122356101e0830186611d39565b6122436102008301856121e6565b612251610220830184611d39565b979650505050505050565b6000610140828403121561227357612272611e29565b5b61227e610140611e5f565b9050600061228e8482850161184f565b60008301525060206122a28482850161184f565b60208301525060406122b6848285016117b2565b60408301525060606122ca848285016117b2565b60608301525060806122de84828501611908565b60808301525060a06122f284828501611908565b60a08301525060c061230684828501611908565b60c08301525060e061231a8482850161195a565b60e08301525061010061232f848285016119c0565b6101008301525061012061234584828501611a12565b6101208301525092915050565b6000610140828403121561236957612368611021565b5b60006123778482850161225c565b91505092915050565b600081905092915050565b7f1901000000000000000000000000000000000000000000000000000000000000600082015250565b60006123c1600283612380565b91506123cc8261238b565b600282019050919050565b6000819050919050565b6123f26123ed82611577565b6123d7565b82525050565b6000612403826123b4565b915061240f82856123e1565b60208201915061241f82846123e1565b6020820191508190509392505050565b60006060820190506124446000830186611581565b6124516020830185610fed565b61245e6040830184610fed565b949350505050565b600061247182610fe3565b915061247c83610fe3565b9250828203905081811115612494576124936116fb565b5b92915050565b600081905092915050565b50565b60006124b560008361249a565b91506124c0826124a5565b600082019050919050565b60006124d6826124a8565b9150819050919050565b60006040820190506124f5600083018561154d565b6125026020830184611d39565b9392505050565b600060408201905061251e6000830185611d39565b61252b6020830184610fed565b939250505056fea2646970667358221220f4d15778502c34d8d9f2404462576357240232e1f5f67a10d11b2ed21963c4c364736f6c634300081c0033",
  "linkReferences": {},
  "deployedLinkReferences": {}
}