{
  "_format": "hh-sol-artifact-1",
  "contractName": "CurveLiquidityProvider",
  "sourceName": "contracts/src/liquidity-providers/CurveLiquidityProvider.sol",
  "abi": [
    {
      "anonymous": false,
      "inputs": [
        {
          "indexed": false,
          "internalType": "contract IERC20Token",
          "name": "inputToken",
          "type": "address"
        },
        {
          "indexed": false,
          "internalType": "contract IERC20Token",
          "name": "outputToken",
          "type": "address"
        },
        {
          "indexed": false,
          "internalType": "uint256",
          "name": "inputTokenAmount",
          "type": "uint256"
        },
        {
          "indexed": false,
          "internalType": "uint256",
          "name": "outputTokenAmount",
          "type": "uint256"
        },
        {
          "indexed": false,
          "internalType": "bytes32",
          "name": "sourceId",
          "type": "bytes32"
        },
        {
          "indexed": false,
          "internalType": "address",
          "name": "sourceAddress",
          "type": "address"
        },
        {
          "indexed": false,
          "internalType": "address",
          "name": "sender",
          "type": "address"
        },
        {
          "indexed": false,
          "internalType": "address",
          "name": "recipient",
          "type": "address"
        }
      ],
      "name": "LiquidityProviderFill",
      "type": "event"
    },
    {
      "inputs": [
        {
          "internalType": "contract IERC20Token",
          "name": "",
          "type": "address"
        },
        {
          "internalType": "contract IERC20Token",
          "name": "",
          "type": "address"
        },
        {
          "internalType": "uint256",
          "name": "",
          "type": "uint256"
        }
      ],
      "name": "getSellQuote",
      "outputs": [
        {
          "internalType": "uint256",
          "name": "",
          "type": "uint256"
        }
      ],
      "stateMutability": "view",
      "type": "function"
    },
    {
      "inputs": [
        {
          "internalType": "contract IERC20Token",
          "name": "outputToken",
          "type": "address"
        },
        {
          "internalType": "address",
          "name": "recipient",
          "type": "address"
        },
        {
          "internalType": "uint256",
          "name": "minBuyAmount",
          "type": "uint256"
        },
        {
          "internalType": "bytes",
          "name": "auxiliaryData",
          "type": "bytes"
        }
      ],
      "name": "sellEthForToken",
      "outputs": [
        {
          "internalType": "uint256",
          "name": "boughtAmount",
          "type": "uint256"
        }
      ],
      "stateMutability": "payable",
      "type": "function"
    },
    {
      "inputs": [
        {
          "internalType": "contract IERC20Token",
          "name": "inputToken",
          "type": "address"
        },
        {
          "internalType": "address payable",
          "name": "recipient",
          "type": "address"
        },
        {
          "internalType": "uint256",
          "name": "minBuyAmount",
          "type": "uint256"
        },
        {
          "internalType": "bytes",
          "name": "auxiliaryData",
          "type": "bytes"
        }
      ],
      "name": "sellTokenForEth",
      "outputs": [
        {
          "internalType": "uint256",
          "name": "boughtAmount",
          "type": "uint256"
        }
      ],
      "stateMutability": "nonpayable",
      "type": "function"
    },
    {
      "inputs": [
        {
          "internalType": "contract IERC20Token",
          "name": "inputToken",
          "type": "address"
        },
        {
          "internalType": "contract IERC20Token",
          "name": "outputToken",
          "type": "address"
        },
        {
          "internalType": "address",
          "name": "recipient",
          "type": "address"
        },
        {
          "internalType": "uint256",
          "name": "minBuyAmount",
          "type": "uint256"
        },
        {
          "internalType": "bytes",
          "name": "auxiliaryData",
          "type": "bytes"
        }
      ],
      "name": "sellTokenForToken",
      "outputs": [
        {
          "internalType": "uint256",
          "name": "boughtAmount",
          "type": "uint256"
        }
      ],
      "stateMutability": "nonpayable",
      "type": "function"
    },
    {
      "stateMutability": "payable",
      "type": "receive"
    }
  ],
  "bytecode": "0x6080604052348015600f57600080fd5b506112b38061001f6000396000f3fe6080604052600436106100435760003560e01c8063343fbcdd1461004f57806365d02b041461008c57806369be90ec146100c9578063b52e8458146101065761004a565b3661004a57005b600080fd5b34801561005b57600080fd5b506100766004803603810190610071919061092d565b610136565b604051610083919061098f565b60405180910390f35b34801561009857600080fd5b506100b360048036038101906100ae9190610a3b565b610173565b6040516100c0919061098f565b60405180910390f35b3480156100d557600080fd5b506100f060048036038101906100eb9190610b13565b6102b9565b6040516100fd919061098f565b60405180910390f35b610120600480360381019061011b9190610b9b565b6103c8565b60405161012d919061098f565b60405180910390f35b60006040517f08c379a000000000000000000000000000000000000000000000000000000000815260040161016a90610ca6565b60405180910390fd5b600061017e8761050f565b158015610191575061018f8661050f565b155b6101d0576040517f08c379a00000000000000000000000000000000000000000000000000000000081526004016101c790610d38565b60405180910390fd5b6101eb87878686868101906101e59190610ef2565b8961055b565b905083811015610230576040517f08c379a000000000000000000000000000000000000000000000000000000000815260040161022790610f91565b60405180910390fd5b8573ffffffffffffffffffffffffffffffffffffffff1663a9059cbb86836040518363ffffffff1660e01b815260040161026b929190610fc0565b6020604051808303816000875af115801561028a573d6000803e3d6000fd5b505050506040513d601f19601f820116820180604052508101906102ae9190611021565b509695505050505050565b60006102c48661050f565b15610304576040517f08c379a00000000000000000000000000000000000000000000000000000000081526004016102fb90610d38565b60405180910390fd5b6103338673eeeeeeeeeeeeeeeeeeeeeeeeeeeeeeeeeeeeeeee86868681019061032d9190610ef2565b8961055b565b905083811015610378576040517f08c379a000000000000000000000000000000000000000000000000000000000815260040161036f90610f91565b60405180910390fd5b8473ffffffffffffffffffffffffffffffffffffffff166108fc829081150290604051600060405180830381858888f193505050501580156103be573d6000803e3d6000fd5b5095945050505050565b60006103d38661050f565b15610413576040517f08c379a000000000000000000000000000000000000000000000000000000000815260040161040a90610d38565b60405180910390fd5b61044273eeeeeeeeeeeeeeeeeeeeeeeeeeeeeeeeeeeeeeee8786868681019061043c9190610ef2565b8961055b565b905083811015610487576040517f08c379a000000000000000000000000000000000000000000000000000000000815260040161047e90610f91565b60405180910390fd5b8573ffffffffffffffffffffffffffffffffffffffff1663a9059cbb86836040518363ffffffff1660e01b81526004016104c2929190610fc0565b6020604051808303816000875af11580156104e1573d6000803e3d6000fd5b505050506040513d601f19601f820116820180604052508101906105059190611021565b5095945050505050565b600073eeeeeeeeeeeeeeeeeeeeeeeeeeeeeeeeeeeeeeee73ffffffffffffffffffffffffffffffffffffffff168273ffffffffffffffffffffffffffffffffffffffff16149050919050565b60008061056887306107b9565b90506105738761050f565b6105fb578673ffffffffffffffffffffffffffffffffffffffff1663095ea7b38560000151836040518363ffffffff1660e01b81526004016105b6929190610fc0565b6020604051808303816000875af11580156105d5573d6000803e3d6000fd5b505050506040513d601f19601f820116820180604052508101906105f99190611021565b505b600080856000015173ffffffffffffffffffffffffffffffffffffffff166106228a61050f565b61062d57600061062f565b835b876020015188604001518960600151878c604051602401610653949392919061105d565b604051602081830303815290604052907bffffffffffffffffffffffffffffffffffffffffffffffffffffffff19166020820180517bffffffffffffffffffffffffffffffffffffffffffffffffffffffff83818316178352505050506040516106bd9190611113565b60006040518083038185875af1925050503d80600081146106fa576040519150601f19603f3d011682016040523d82523d6000602084013e6106ff565b606091505b509150915081610713576107128161086b565b5b60208151036107375780806020019051810190610730919061113f565b9350610744565b61074188306107b9565b93505b7f83dc79d57dbf7f65897db5b817ef3c45ebb363086f52ba01bb57d0cdef08dace898985877f43757276650000000000000000000000000000000000000000000000000000008b60000151338c6040516107a59897969594939291906111e4565b60405180910390a150505095945050505050565b60006107c48361050f565b156107e8578173ffffffffffffffffffffffffffffffffffffffff16319050610865565b8273ffffffffffffffffffffffffffffffffffffffff166370a08231836040518263ffffffff1660e01b81526004016108219190611262565b602060405180830381865afa15801561083e573d6000803e3d6000fd5b505050506040513d601f19601f82011682018060405250810190610862919061113f565b90505b92915050565b805160208201fd5b6000604051905090565b600080fd5b600080fd5b600073ffffffffffffffffffffffffffffffffffffffff82169050919050565b60006108b282610887565b9050919050565b60006108c4826108a7565b9050919050565b6108d4816108b9565b81146108df57600080fd5b50565b6000813590506108f1816108cb565b92915050565b6000819050919050565b61090a816108f7565b811461091557600080fd5b50565b60008135905061092781610901565b92915050565b6000806000606084860312156109465761094561087d565b5b6000610954868287016108e2565b9350506020610965868287016108e2565b925050604061097686828701610918565b9150509250925092565b610989816108f7565b82525050565b60006020820190506109a46000830184610980565b92915050565b6109b3816108a7565b81146109be57600080fd5b50565b6000813590506109d0816109aa565b92915050565b600080fd5b600080fd5b600080fd5b60008083601f8401126109fb576109fa6109d6565b5b8235905067ffffffffffffffff811115610a1857610a176109db565b5b602083019150836001820283011115610a3457610a336109e0565b5b9250929050565b60008060008060008060a08789031215610a5857610a5761087d565b5b6000610a6689828a016108e2565b9650506020610a7789828a016108e2565b9550506040610a8889828a016109c1565b9450506060610a9989828a01610918565b935050608087013567ffffffffffffffff811115610aba57610ab9610882565b5b610ac689828a016109e5565b92509250509295509295509295565b6000610ae082610887565b9050919050565b610af081610ad5565b8114610afb57600080fd5b50565b600081359050610b0d81610ae7565b92915050565b600080600080600060808688031215610b2f57610b2e61087d565b5b6000610b3d888289016108e2565b9550506020610b4e88828901610afe565b9450506040610b5f88828901610918565b935050606086013567ffffffffffffffff811115610b8057610b7f610882565b5b610b8c888289016109e5565b92509250509295509295909350565b600080600080600060808688031215610bb757610bb661087d565b5b6000610bc5888289016108e2565b9550506020610bd6888289016109c1565b9450506040610be788828901610918565b935050606086013567ffffffffffffffff811115610c0857610c07610882565b5b610c14888289016109e5565b92509250509295509295909350565b600082825260208201905092915050565b7f43757276654c697175696469747950726f76696465722f4e4f545f494d504c4560008201527f4d454e5445440000000000000000000000000000000000000000000000000000602082015250565b6000610c90602683610c23565b9150610c9b82610c34565b604082019050919050565b60006020820190508181036000830152610cbf81610c83565b9050919050565b7f43757276654c697175696469747950726f76696465722f494e56414c49445f4160008201527f5247530000000000000000000000000000000000000000000000000000000000602082015250565b6000610d22602383610c23565b9150610d2d82610cc6565b604082019050919050565b60006020820190508181036000830152610d5181610d15565b9050919050565b600080fd5b6000601f19601f8301169050919050565b7f4e487b7100000000000000000000000000000000000000000000000000000000600052604160045260246000fd5b610da682610d5d565b810181811067ffffffffffffffff82111715610dc557610dc4610d6e565b5b80604052505050565b6000610dd8610873565b9050610de48282610d9d565b919050565b60007fffffffff0000000000000000000000000000000000000000000000000000000082169050919050565b610e1e81610de9565b8114610e2957600080fd5b50565b600081359050610e3b81610e15565b92915050565b600081600f0b9050919050565b610e5781610e41565b8114610e6257600080fd5b50565b600081359050610e7481610e4e565b92915050565b600060808284031215610e9057610e8f610d58565b5b610e9a6080610dce565b90506000610eaa848285016109c1565b6000830152506020610ebe84828501610e2c565b6020830152506040610ed284828501610e65565b6040830152506060610ee684828501610e65565b60608301525092915050565b600060808284031215610f0857610f0761087d565b5b6000610f1684828501610e7a565b91505092915050565b7f43757276654c697175696469747950726f76696465722f554e444552424f554760008201527f4854000000000000000000000000000000000000000000000000000000000000602082015250565b6000610f7b602283610c23565b9150610f8682610f1f565b604082019050919050565b60006020820190508181036000830152610faa81610f6e565b9050919050565b610fba816108a7565b82525050565b6000604082019050610fd56000830185610fb1565b610fe26020830184610980565b9392505050565b60008115159050919050565b610ffe81610fe9565b811461100957600080fd5b50565b60008151905061101b81610ff5565b92915050565b6000602082840312156110375761103661087d565b5b60006110458482850161100c565b91505092915050565b61105781610e41565b82525050565b6000608082019050611072600083018761104e565b61107f602083018661104e565b61108c6040830185610980565b6110996060830184610980565b95945050505050565b600081519050919050565b600081905092915050565b60005b838110156110d65780820151818401526020810190506110bb565b60008484015250505050565b60006110ed826110a2565b6110f781856110ad565b93506111078185602086016110b8565b80840191505092915050565b600061111f82846110e2565b915081905092915050565b60008151905061113981610901565b92915050565b6000602082840312156111555761115461087d565b5b60006111638482850161112a565b91505092915050565b6000819050919050565b600061119161118c61118784610887565b61116c565b610887565b9050919050565b60006111a382611176565b9050919050565b60006111b582611198565b9050919050565b6111c5816111aa565b82525050565b6000819050919050565b6111de816111cb565b82525050565b6000610100820190506111fa600083018b6111bc565b611207602083018a6111bc565b6112146040830189610980565b6112216060830188610980565b61122e60808301876111d5565b61123b60a0830186610fb1565b61124860c0830185610fb1565b61125560e0830184610fb1565b9998505050505050505050565b60006020820190506112776000830184610fb1565b9291505056fea264697066735822122099bd08d25228c39c4e0c3718f6f960568ab426a6ee21bfc052040f0e52f87e5864736f6c634300081c0033",
  "linkReferences": {},
  "deployedLinkReferences": {}
}