{
  "_format": "hh-sol-artifact-1",
  "contractName": "CurveLiquidityProvider",
  "sourceName": "contracts/src/liquidity-providers/CurveLiquidityProvider.sol",
  "abi": [
    {
      "anonymous": false,
      "inputs": [
        {
          "indexed": false,
          "internalType": "contract IERC20Token",
          "name": "inputToken",
          "type": "address"
        },
        {
          "indexed": false,
          "internalType": "contract IERC20Token",
          "name": "outputToken",
          "type": "address"
        },
        {
          "indexed": false,
          "internalType": "uint256",
          "name": "inputTokenAmount",
          "type": "uint256"
        },
        {
          "indexed": false,
          "internalType": "uint256",
          "name": "outputTokenAmount",
          "type": "uint256"
        },
        {
          "indexed": false,
          "internalType": "bytes32",
          "name": "sourceId",
          "type": "bytes32"
        },
        {
          "indexed": false,
          "internalType": "address",
          "name": "sourceAddress",
          "type": "address"
        },
        {
          "indexed": false,
          "internalType": "address",
          "name": "sender",
          "type": "address"
        },
        {
          "indexed": false,
          "internalType": "address",
          "name": "recipient",
          "type": "address"
        }
      ],
      "name": "LiquidityProviderFill",
      "type": "event"
    },
    {
      "inputs": [
        {
          "internalType": "contract IERC20Token",
          "name": "",
          "type": "address"
        },
        {
          "internalType": "contract IERC20Token",
          "name": "",
          "type": "address"
        },
        {
          "internalType": "uint256",
          "name": "",
          "type": "uint256"
        }
      ],
      "name": "getSellQuote",
      "outputs": [
        {
          "internalType": "uint256",
          "name": "",
          "type": "uint256"
        }
      ],
      "stateMutability": "view",
      "type": "function"
    },
    {
      "inputs": [
        {
          "internalType": "contract IERC20Token",
          "name": "outputToken",
          "type": "address"
        },
        {
          "internalType": "address",
          "name": "recipient",
          "type": "address"
        },
        {
          "internalType": "uint256",
          "name": "minBuyAmount",
          "type": "uint256"
        },
        {
          "internalType": "bytes",
          "name": "auxiliaryData",
          "type": "bytes"
        }
      ],
      "name": "sellEthForToken",
      "outputs": [
        {
          "internalType": "uint256",
          "name": "boughtAmount",
          "type": "uint256"
        }
      ],
      "stateMutability": "payable",
      "type": "function"
    },
    {
      "inputs": [
        {
          "internalType": "contract IERC20Token",
          "name": "inputToken",
          "type": "address"
        },
        {
          "internalType": "address payable",
          "name": "recipient",
          "type": "address"
        },
        {
          "internalType": "uint256",
          "name": "minBuyAmount",
          "type": "uint256"
        },
        {
          "internalType": "bytes",
          "name": "auxiliaryData",
          "type": "bytes"
        }
      ],
      "name": "sellTokenForEth",
      "outputs": [
        {
          "internalType": "uint256",
          "name": "boughtAmount",
          "type": "uint256"
        }
      ],
      "stateMutability": "nonpayable",
      "type": "function"
    },
    {
      "inputs": [
        {
          "internalType": "contract IERC20Token",
          "name": "inputToken",
          "type": "address"
        },
        {
          "internalType": "contract IERC20Token",
          "name": "outputToken",
          "type": "address"
        },
        {
          "internalType": "address",
          "name": "recipient",
          "type": "address"
        },
        {
          "internalType": "uint256",
          "name": "minBuyAmount",
          "type": "uint256"
        },
        {
          "internalType": "bytes",
          "name": "auxiliaryData",
          "type": "bytes"
        }
      ],
      "name": "sellTokenForToken",
      "outputs": [
        {
          "internalType": "uint256",
          "name": "boughtAmount",
          "type": "uint256"
        }
      ],
      "stateMutability": "nonpayable",
      "type": "function"
    },
    {
      "stateMutability": "payable",
      "type": "receive"
    }
  ],
  "bytecode": "0x6080604052348015600f57600080fd5b506115548061001f6000396000f3fe6080604052600436106100435760003560e01c8063343fbcdd1461004f57806365d02b041461008c57806369be90ec146100c9578063b52e8458146101065761004a565b3661004a57005b600080fd5b34801561005b57600080fd5b5061007660048036038101906100719190610b13565b610136565b6040516100839190610b75565b60405180910390f35b34801561009857600080fd5b506100b360048036038101906100ae9190610c21565b610173565b6040516100c09190610b75565b60405180910390f35b3480156100d557600080fd5b506100f060048036038101906100eb9190610cf9565b610265565b6040516100fd9190610b75565b60405180910390f35b610120600480360381019061011b9190610d81565b610374565b60405161012d9190610b75565b60405180910390f35b60006040517f08c379a000000000000000000000000000000000000000000000000000000000815260040161016a90610e8c565b60405180910390fd5b600061017e87610467565b158015610191575061018f86610467565b155b6101d0576040517f08c379a00000000000000000000000000000000000000000000000000000000081526004016101c790610f1e565b60405180910390fd5b6101eb87878686868101906101e591906110d8565b896104b3565b905083811015610230576040517f08c379a000000000000000000000000000000000000000000000000000000000815260040161022790611177565b60405180910390fd5b61025b85828873ffffffffffffffffffffffffffffffffffffffff166106bd9092919063ffffffff16565b9695505050505050565b600061027086610467565b156102b0576040517f08c379a00000000000000000000000000000000000000000000000000000000081526004016102a790610f1e565b60405180910390fd5b6102df8673eeeeeeeeeeeeeeeeeeeeeeeeeeeeeeeeeeeeeeee8686868101906102d991906110d8565b896104b3565b905083811015610324576040517f08c379a000000000000000000000000000000000000000000000000000000000815260040161031b90611177565b60405180910390fd5b8473ffffffffffffffffffffffffffffffffffffffff166108fc829081150290604051600060405180830381858888f1935050505015801561036a573d6000803e3d6000fd5b5095945050505050565b600061037f86610467565b156103bf576040517f08c379a00000000000000000000000000000000000000000000000000000000081526004016103b690610f1e565b60405180910390fd5b6103ee73eeeeeeeeeeeeeeeeeeeeeeeeeeeeeeeeeeeeeeee878686868101906103e891906110d8565b896104b3565b905083811015610433576040517f08c379a000000000000000000000000000000000000000000000000000000000815260040161042a90611177565b60405180910390fd5b61045e85828873ffffffffffffffffffffffffffffffffffffffff166106bd9092919063ffffffff16565b95945050505050565b600073eeeeeeeeeeeeeeeeeeeeeeeeeeeeeeeeeeeeeeee73ffffffffffffffffffffffffffffffffffffffff168273ffffffffffffffffffffffffffffffffffffffff16149050919050565b6000806104c08730610742565b90506104cb87610467565b6104ff576104fe8460000151828973ffffffffffffffffffffffffffffffffffffffff166107f49092919063ffffffff16565b5b600080856000015173ffffffffffffffffffffffffffffffffffffffff166105268a610467565b610531576000610533565b835b876020015188604001518960600151878c60405160240161055794939291906111a6565b604051602081830303815290604052907bffffffffffffffffffffffffffffffffffffffffffffffffffffffff19166020820180517bffffffffffffffffffffffffffffffffffffffffffffffffffffffff83818316178352505050506040516105c1919061125c565b60006040518083038185875af1925050503d80600081146105fe576040519150601f19603f3d011682016040523d82523d6000602084013e610603565b606091505b50915091508161061757610616816108a8565b5b602081510361063b57808060200190518101906106349190611288565b9350610648565b6106458830610742565b93505b7f83dc79d57dbf7f65897db5b817ef3c45ebb363086f52ba01bb57d0cdef08dace898985877f43757276650000000000000000000000000000000000000000000000000000008b60000151338c6040516106a998979695949392919061133c565b60405180910390a150505095945050505050565b60008373ffffffffffffffffffffffffffffffffffffffff1663a9059cbb84846040516024016106ee9291906113ba565b604051602081830303815290604052915060e01b6020820180517bffffffffffffffffffffffffffffffffffffffffffffffffffffffff8381831617835250505050905061073c84826108b0565b50505050565b600061074d83610467565b15610771578173ffffffffffffffffffffffffffffffffffffffff163190506107ee565b8273ffffffffffffffffffffffffffffffffffffffff166370a08231836040518263ffffffff1660e01b81526004016107aa91906113e3565b602060405180830381865afa1580156107c7573d6000803e3d6000fd5b505050506040513d601f19601f820116820180604052508101906107eb9190611288565b90505b92915050565b808373ffffffffffffffffffffffffffffffffffffffff1663dd62ed3e30856040518363ffffffff1660e01b81526004016108309291906113fe565b602060405180830381865afa15801561084d573d6000803e3d6000fd5b505050506040513d601f19601f820116820180604052508101906108719190611288565b10156108a3576108a283837fffffffffffffffffffffffffffffffffffffffffffffffffffffffffffffffff6109d4565b5b505050565b805160208201fd5b6000808373ffffffffffffffffffffffffffffffffffffffff16836040516108d8919061125c565b6000604051808303816000865af19150503d8060008114610915576040519150601f19603f3d011682016040523d82523d6000602084013e61091a565b606091505b50915091508161092e5761092d816108a8565b5b60008151036109985760008473ffffffffffffffffffffffffffffffffffffffff163b11610991576040517f08c379a000000000000000000000000000000000000000000000000000000000815260040161098890611499565b60405180910390fd5b50506109d0565b60208151106109c457808060200190518101906109b591906114f1565b6109c3576109c2816108a8565b5b5b6109cd816108a8565b50505b5050565b60008373ffffffffffffffffffffffffffffffffffffffff1663095ea7b38484604051602401610a059291906113ba565b604051602081830303815290604052915060e01b6020820180517bffffffffffffffffffffffffffffffffffffffffffffffffffffffff83818316178352505050509050610a5384826108b0565b50505050565b6000604051905090565b600080fd5b600080fd5b600073ffffffffffffffffffffffffffffffffffffffff82169050919050565b6000610a9882610a6d565b9050919050565b6000610aaa82610a8d565b9050919050565b610aba81610a9f565b8114610ac557600080fd5b50565b600081359050610ad781610ab1565b92915050565b6000819050919050565b610af081610add565b8114610afb57600080fd5b50565b600081359050610b0d81610ae7565b92915050565b600080600060608486031215610b2c57610b2b610a63565b5b6000610b3a86828701610ac8565b9350506020610b4b86828701610ac8565b9250506040610b5c86828701610afe565b9150509250925092565b610b6f81610add565b82525050565b6000602082019050610b8a6000830184610b66565b92915050565b610b9981610a8d565b8114610ba457600080fd5b50565b600081359050610bb681610b90565b92915050565b600080fd5b600080fd5b600080fd5b60008083601f840112610be157610be0610bbc565b5b8235905067ffffffffffffffff811115610bfe57610bfd610bc1565b5b602083019150836001820283011115610c1a57610c19610bc6565b5b9250929050565b60008060008060008060a08789031215610c3e57610c3d610a63565b5b6000610c4c89828a01610ac8565b9650506020610c5d89828a01610ac8565b9550506040610c6e89828a01610ba7565b9450506060610c7f89828a01610afe565b935050608087013567ffffffffffffffff811115610ca057610c9f610a68565b5b610cac89828a01610bcb565b92509250509295509295509295565b6000610cc682610a6d565b9050919050565b610cd681610cbb565b8114610ce157600080fd5b50565b600081359050610cf381610ccd565b92915050565b600080600080600060808688031215610d1557610d14610a63565b5b6000610d2388828901610ac8565b9550506020610d3488828901610ce4565b9450506040610d4588828901610afe565b935050606086013567ffffffffffffffff811115610d6657610d65610a68565b5b610d7288828901610bcb565b92509250509295509295909350565b600080600080600060808688031215610d9d57610d9c610a63565b5b6000610dab88828901610ac8565b9550506020610dbc88828901610ba7565b9450506040610dcd88828901610afe565b935050606086013567ffffffffffffffff811115610dee57610ded610a68565b5b610dfa88828901610bcb565b92509250509295509295909350565b600082825260208201905092915050565b7f43757276654c697175696469747950726f76696465722f4e4f545f494d504c4560008201527f4d454e5445440000000000000000000000000000000000000000000000000000602082015250565b6000610e76602683610e09565b9150610e8182610e1a565b604082019050919050565b60006020820190508181036000830152610ea581610e69565b9050919050565b7f43757276654c697175696469747950726f76696465722f494e56414c49445f4160008201527f5247530000000000000000000000000000000000000000000000000000000000602082015250565b6000610f08602383610e09565b9150610f1382610eac565b604082019050919050565b60006020820190508181036000830152610f3781610efb565b9050919050565b600080fd5b6000601f19601f8301169050919050565b7f4e487b7100000000000000000000000000000000000000000000000000000000600052604160045260246000fd5b610f8c82610f43565b810181811067ffffffffffffffff82111715610fab57610faa610f54565b5b80604052505050565b6000610fbe610a59565b9050610fca8282610f83565b919050565b60007fffffffff0000000000000000000000000000000000000000000000000000000082169050919050565b61100481610fcf565b811461100f57600080fd5b50565b60008135905061102181610ffb565b92915050565b600081600f0b9050919050565b61103d81611027565b811461104857600080fd5b50565b60008135905061105a81611034565b92915050565b60006080828403121561107657611075610f3e565b5b6110806080610fb4565b9050600061109084828501610ba7565b60008301525060206110a484828501611012565b60208301525060406110b88482850161104b565b60408301525060606110cc8482850161104b565b60608301525092915050565b6000608082840312156110ee576110ed610a63565b5b60006110fc84828501611060565b91505092915050565b7f43757276654c697175696469747950726f76696465722f554e444552424f554760008201527f4854000000000000000000000000000000000000000000000000000000000000602082015250565b6000611161602283610e09565b915061116c82611105565b604082019050919050565b6000602082019050818103600083015261119081611154565b9050919050565b6111a081611027565b82525050565b60006080820190506111bb6000830187611197565b6111c86020830186611197565b6111d56040830185610b66565b6111e26060830184610b66565b95945050505050565b600081519050919050565b600081905092915050565b60005b8381101561121f578082015181840152602081019050611204565b60008484015250505050565b6000611236826111eb565b61124081856111f6565b9350611250818560208601611201565b80840191505092915050565b6000611268828461122b565b915081905092915050565b60008151905061128281610ae7565b92915050565b60006020828403121561129e5761129d610a63565b5b60006112ac84828501611273565b91505092915050565b6000819050919050565b60006112da6112d56112d084610a6d565b6112b5565b610a6d565b9050919050565b60006112ec826112bf565b9050919050565b60006112fe826112e1565b9050919050565b61130e816112f3565b82525050565b6000819050919050565b61132781611314565b82525050565b61133681610a8d565b82525050565b600061010082019050611352600083018b611305565b61135f602083018a611305565b61136c6040830189610b66565b6113796060830188610b66565b611386608083018761131e565b61139360a083018661132d565b6113a060c083018561132d565b6113ad60e083018461132d565b9998505050505050505050565b60006040820190506113cf600083018561132d565b6113dc6020830184610b66565b9392505050565b60006020820190506113f8600083018461132d565b92915050565b6000604082019050611413600083018561132d565b611420602083018461132d565b9392505050565b7f696e76616c696420746f6b656e20616464726573732c20636f6e7461696e732060008201527f6e6f20636f646500000000000000000000000000000000000000000000000000602082015250565b6000611483602783610e09565b915061148e82611427565b604082019050919050565b600060208201905081810360008301526114b281611476565b9050919050565b60008115159050919050565b6114ce816114b9565b81146114d957600080fd5b50565b6000815190506114eb816114c5565b92915050565b60006020828403121561150757611506610a63565b5b6000611515848285016114dc565b9150509291505056fea264697066735822122039128cdc456a4d43fc86ef20bc6e0b6fbdcf330b273f01a249308e299f997a1864736f6c634300081c0033",
  "linkReferences": {},
  "deployedLinkReferences": {}
}