{
  "_format": "hh-sol-artifact-1",
  "contractName": "ERC20Token",
  "sourceName": "contracts/src/ZRXToken.sol",
  "abi": [
    {
      "anonymous": false,
      "inputs": [
        {
          "indexed": true,
          "internalType": "address",
          "name": "_owner",
          "type": "address"
        },
        {
          "indexed": true,
          "internalType": "address",
          "name": "_spender",
          "type": "address"
        },
        {
          "indexed": false,
          "internalType": "uint256",
          "name": "_value",
          "type": "uint256"
        }
      ],
      "name": "Approval",
      "type": "event"
    },
    {
      "anonymous": false,
      "inputs": [
        {
          "indexed": true,
          "internalType": "address",
          "name": "_from",
          "type": "address"
        },
        {
          "indexed": true,
          "internalType": "address",
          "name": "_to",
          "type": "address"
        },
        {
          "indexed": false,
          "internalType": "uint256",
          "name": "_value",
          "type": "uint256"
        }
      ],
      "name": "Transfer",
      "type": "event"
    },
    {
      "inputs": [
        {
          "internalType": "address",
          "name": "_owner",
          "type": "address"
        },
        {
          "internalType": "address",
          "name": "_spender",
          "type": "address"
        }
      ],
      "name": "allowance",
      "outputs": [
        {
          "internalType": "uint256",
          "name": "",
          "type": "uint256"
        }
      ],
      "stateMutability": "view",
      "type": "function"
    },
    {
      "inputs": [
        {
          "internalType": "address",
          "name": "",
          "type": "address"
        },
        {
          "internalType": "address",
          "name": "",
          "type": "address"
        }
      ],
      "name": "allowed",
      "outputs": [
        {
          "internalType": "uint256",
          "name": "",
          "type": "uint256"
        }
      ],
      "stateMutability": "view",
      "type": "function"
    },
    {
      "inputs": [
        {
          "internalType": "address",
          "name": "_spender",
          "type": "address"
        },
        {
          "internalType": "uint256",
          "name": "_value",
          "type": "uint256"
        }
      ],
      "name": "approve",
      "outputs": [
        {
          "internalType": "bool",
          "name": "",
          "type": "bool"
        }
      ],
      "stateMutability": "nonpayable",
      "type": "function"
    },
    {
      "inputs": [
        {
          "internalType": "address",
          "name": "_owner",
          "type": "address"
        }
      ],
      "name": "balanceOf",
      "outputs": [
        {
          "internalType": "uint256",
          "name": "",
          "type": "uint256"
        }
      ],
      "stateMutability": "view",
      "type": "function"
    },
    {
      "inputs": [
        {
          "internalType": "address",
          "name": "",
          "type": "address"
        }
      ],
      "name": "balances",
      "outputs": [
        {
          "internalType": "uint256",
          "name": "",
          "type": "uint256"
        }
      ],
      "stateMutability": "view",
      "type": "function"
    },
    {
      "inputs": [],
      "name": "totalSupply",
      "outputs": [
        {
          "internalType": "uint256",
          "name": "",
          "type": "uint256"
        }
      ],
      "stateMutability": "view",
      "type": "function"
    },
    {
      "inputs": [
        {
          "internalType": "address",
          "name": "_to",
          "type": "address"
        },
        {
          "internalType": "uint256",
          "name": "_value",
          "type": "uint256"
        }
      ],
      "name": "transfer",
      "outputs": [
        {
          "internalType": "bool",
          "name": "",
          "type": "bool"
        }
      ],
      "stateMutability": "nonpayable",
      "type": "function"
    },
    {
      "inputs": [
        {
          "internalType": "address",
          "name": "_from",
          "type": "address"
        },
        {
          "internalType": "address",
          "name": "_to",
          "type": "address"
        },
        {
          "internalType": "uint256",
          "name": "_value",
          "type": "uint256"
        }
      ],
      "name": "transferFrom",
      "outputs": [
        {
          "internalType": "bool",
          "name": "",
          "type": "bool"
        }
      ],
      "stateMutability": "nonpayable",
      "type": "function"
    }
  ],
  "bytecode": "0x6080604052348015600e575f5ffd5b5061082a8061001c5f395ff3fe608060405234801561000f575f5ffd5b5060043610610085575f3560e01c80635c658165116100585780635c658165146100f557806370a082311461011f578063a9059cbb14610154578063dd62ed3e14610167575f5ffd5b8063095ea7b31461008957806318160ddd146100b157806323b872dd146100c357806327e235e3146100d6575b5f5ffd5b61009c6100973660046106ee565b6101ac565b60405190151581526020015b60405180910390f35b6002545b6040519081526020016100a8565b61009c6100d1366004610716565b610225565b6100b56100e4366004610750565b5f6020819052908152604090205481565b6100b5610103366004610770565b600160209081525f928352604080842090915290825290205481565b6100b561012d366004610750565b73ffffffffffffffffffffffffffffffffffffffff165f9081526020819052604090205490565b61009c6101623660046106ee565b610511565b6100b5610175366004610770565b73ffffffffffffffffffffffffffffffffffffffff9182165f90815260016020908152604080832093909416825291909152205490565b335f81815260016020908152604080832073ffffffffffffffffffffffffffffffffffffffff8716808552925280832085905551919290917f8c5be1e5ebec7d5bd14f71427d1e84f3dd0314c0f7b2291e5b200ac8c7c3b925906102139086815260200190565b60405180910390a35060015b92915050565b73ffffffffffffffffffffffffffffffffffffffff83165f908152602081905260408120548211156102b8576040517f08c379a000000000000000000000000000000000000000000000000000000000815260206004820152601460248201527f496e73756666696369656e742062616c616e636500000000000000000000000060448201526064015b60405180910390fd5b73ffffffffffffffffffffffffffffffffffffffff84165f908152600160209081526040808320338452909152902054821115610351576040517f08c379a000000000000000000000000000000000000000000000000000000000815260206004820152601660248201527f496e73756666696369656e7420616c6c6f77616e63650000000000000000000060448201526064016102af565b73ffffffffffffffffffffffffffffffffffffffff83165f9081526020819052604090205461038083826107ce565b10156103e8576040517f08c379a000000000000000000000000000000000000000000000000000000000815260206004820152600860248201527f4f766572666c6f7700000000000000000000000000000000000000000000000060448201526064016102af565b73ffffffffffffffffffffffffffffffffffffffff83165f908152602081905260408120805484929061041c9084906107ce565b909155505073ffffffffffffffffffffffffffffffffffffffff84165f90815260208190526040812080548492906104559084906107e1565b909155505073ffffffffffffffffffffffffffffffffffffffff84165f908152600160209081526040808320338452909152812080548492906104999084906107e1565b925050819055508273ffffffffffffffffffffffffffffffffffffffff168473ffffffffffffffffffffffffffffffffffffffff167fddf252ad1be2c89b69c2b068fc378daa952ba7f163c4a11628f55a4df523b3ef846040516104ff91815260200190565b60405180910390a35060019392505050565b335f90815260208190526040812054821115610589576040517f08c379a000000000000000000000000000000000000000000000000000000000815260206004820152601460248201527f496e73756666696369656e742062616c616e636500000000000000000000000060448201526064016102af565b73ffffffffffffffffffffffffffffffffffffffff83165f908152602081905260409020546105b883826107ce565b1015610620576040517f08c379a000000000000000000000000000000000000000000000000000000000815260206004820152600860248201527f4f766572666c6f7700000000000000000000000000000000000000000000000060448201526064016102af565b335f908152602081905260408120805484929061063e9084906107e1565b909155505073ffffffffffffffffffffffffffffffffffffffff83165f90815260208190526040812080548492906106779084906107ce565b909155505060405182815273ffffffffffffffffffffffffffffffffffffffff84169033907fddf252ad1be2c89b69c2b068fc378daa952ba7f163c4a11628f55a4df523b3ef90602001610213565b803573ffffffffffffffffffffffffffffffffffffffff811681146106e9575f5ffd5b919050565b5f5f604083850312156106ff575f5ffd5b610708836106c6565b946020939093013593505050565b5f5f5f60608486031215610728575f5ffd5b610731846106c6565b925061073f602085016106c6565b929592945050506040919091013590565b5f60208284031215610760575f5ffd5b610769826106c6565b9392505050565b5f5f60408385031215610781575f5ffd5b61078a836106c6565b9150610798602084016106c6565b90509250929050565b7f4e487b71000000000000000000000000000000000000000000000000000000005f52601160045260245ffd5b8082018082111561021f5761021f6107a1565b8181038181111561021f5761021f6107a156fea2646970667358221220d10596129d63f2931f843a77211a509de366e5b0783678999e5c364507c8a81064736f6c634300081c0033",
  "linkReferences": {},
  "deployedLinkReferences": {}
}