{
  "_format": "hh-sol-artifact-1",
  "contractName": "EthereumBridgeAdapter",
  "sourceName": "contracts/src/transformers/bridges/EthereumBridgeAdapter.sol",
  "abi": [
    {
      "inputs": [
        {
          "internalType": "contract IEtherToken",
          "name": "weth",
          "type": "address"
        }
      ],
      "stateMutability": "nonpayable",
      "type": "constructor"
    },
    {
      "anonymous": false,
      "inputs": [
        {
          "indexed": false,
          "internalType": "bytes32",
          "name": "source",
          "type": "bytes32"
        },
        {
          "indexed": false,
          "internalType": "contract IERC20Token",
          "name": "inputToken",
          "type": "address"
        },
        {
          "indexed": false,
          "internalType": "contract IERC20Token",
          "name": "outputToken",
          "type": "address"
        },
        {
          "indexed": false,
          "internalType": "uint256",
          "name": "inputTokenAmount",
          "type": "uint256"
        },
        {
          "indexed": false,
          "internalType": "uint256",
          "name": "outputTokenAmount",
          "type": "uint256"
        }
      ],
      "name": "BridgeFill",
      "type": "event"
    },
    {
      "inputs": [],
      "name": "BANCORV3_ETH_ADDRESS",
      "outputs": [
        {
          "internalType": "contract IERC20Token",
          "name": "",
          "type": "address"
        }
      ],
      "stateMutability": "view",
      "type": "function"
    },
    {
      "inputs": [
        {
          "internalType": "uint256",
          "name": "sellAmount",
          "type": "uint256"
        },
        {
          "internalType": "bytes",
          "name": "bridgeData",
          "type": "bytes"
        }
      ],
      "name": "_tradeSynthetix",
      "outputs": [
        {
          "internalType": "uint256",
          "name": "boughtAmount",
          "type": "uint256"
        }
      ],
      "stateMutability": "nonpayable",
      "type": "function"
    },
    {
      "inputs": [
        {
          "internalType": "bytes32",
          "name": "source",
          "type": "bytes32"
        }
      ],
      "name": "isSupportedSource",
      "outputs": [
        {
          "internalType": "bool",
          "name": "isSupported",
          "type": "bool"
        }
      ],
      "stateMutability": "nonpayable",
      "type": "function"
    },
    {
      "inputs": [
        {
          "components": [
            {
              "internalType": "bytes32",
              "name": "source",
              "type": "bytes32"
            },
            {
              "internalType": "uint256",
              "name": "takerTokenAmount",
              "type": "uint256"
            },
            {
              "internalType": "uint256",
              "name": "makerTokenAmount",
              "type": "uint256"
            },
            {
              "internalType": "bytes",
              "name": "bridgeData",
              "type": "bytes"
            }
          ],
          "internalType": "struct IBridgeAdapter.BridgeOrder",
          "name": "order",
          "type": "tuple"
        },
        {
          "internalType": "contract IERC20Token",
          "name": "sellToken",
          "type": "address"
        },
        {
          "internalType": "contract IERC20Token",
          "name": "buyToken",
          "type": "address"
        },
        {
          "internalType": "uint256",
          "name": "sellAmount",
          "type": "uint256"
        }
      ],
      "name": "trade",
      "outputs": [
        {
          "internalType": "uint256",
          "name": "boughtAmount",
          "type": "uint256"
        }
      ],
      "stateMutability": "nonpayable",
      "type": "function"
    }
  ],
  "bytecode": "0x61012060405234801561001157600080fd5b50604051618622380380618622833981810160405281019061003391906102a7565b808182838460016040518060400160405280600881526020017f457468657265756d000000000000000000000000000000000000000000000000815250600046905060006105398214806100885750617a6982145b806100935750600582145b806100a057506201388182145b806100ad575062014a3382145b90508382141580156100bd575080155b1561011e57826040516020016100d391906103b7565b6040516020818303038152906040526040517f08c379a00000000000000000000000000000000000000000000000000000000081526004016101159190610434565b60405180910390fd5b505050508073ffffffffffffffffffffffffffffffffffffffff1660808173ffffffffffffffffffffffffffffffffffffffff1681525050508073ffffffffffffffffffffffffffffffffffffffff1660a08173ffffffffffffffffffffffffffffffffffffffff1681525050508073ffffffffffffffffffffffffffffffffffffffff1660c08173ffffffffffffffffffffffffffffffffffffffff1681525050508073ffffffffffffffffffffffffffffffffffffffff1660e08173ffffffffffffffffffffffffffffffffffffffff1681525050508073ffffffffffffffffffffffffffffffffffffffff166101008173ffffffffffffffffffffffffffffffffffffffff16815250505050610456565b600080fd5b600073ffffffffffffffffffffffffffffffffffffffff82169050919050565b600061026282610237565b9050919050565b600061027482610257565b9050919050565b61028481610269565b811461028f57600080fd5b50565b6000815190506102a18161027b565b92915050565b6000602082840312156102bd576102bc610232565b5b60006102cb84828501610292565b91505092915050565b600081519050919050565b600081905092915050565b60005b838110156103085780820151818401526020810190506102ed565b60008484015250505050565b600061031f826102d4565b61032981856102df565b93506103398185602086016102ea565b80840191505092915050565b7f427269646765416461707465722e636f6e7374727563746f723a2077726f6e6760008201527f20636861696e2049440000000000000000000000000000000000000000000000602082015250565b60006103a16029836102df565b91506103ac82610345565b602982019050919050565b60006103c38284610314565b91506103ce82610394565b915081905092915050565b600082825260208201905092915050565b6000601f19601f8301169050919050565b6000610406826102d4565b61041081856103d9565b93506104208185602086016102ea565b610429816103ea565b840191505092915050565b6000602082019050818103600083015261044e81846103fb565b905092915050565b60805160a05160c05160e0516101005161811f610503600039600081816116d001528181611723015281816118370152818161198c015261442001526000818161310c0152614701015260008181610b1d01528181610b7301528181610e090152610e5f01526000818161349c015281816134f4015281816137620152613892015260008181613b7501528181613be301528181613d7401528181613f130152613f66015261811f6000f3fe608060405234801561001057600080fd5b506004361061004c5760003560e01c806302d2734f1461005157806365f53ee61461008157806399a4d2d01461009f578063f712a148146100cf575b600080fd5b61006b60048036038101906100669190614cef565b6100ff565b6040516100789190614d37565b60405180910390f35b610089610131565b6040516100969190614dd1565b60405180910390f35b6100b960048036038101906100b49190614f68565b610149565b6040516100c69190614fd3565b60405180910390f35b6100e960048036038101906100e491906150dc565b610180565b6040516100f69190614fd3565b60405180910390f35b6000610109614c7a565b8281600001818152505060006101248282836000600161019d565b9050809350505050919050565b73eeeeeeeeeeeeeeeeeeeeeeeeeeeeeeeeeeeeeeee81565b6000806000808480602001905181019061016391906151b2565b9250925092506101758383838961097c565b935050505092915050565b600061019085858585600061019d565b5080915050949350505050565b60008060006080886000015160001c901c905060016fffffffffffffffffffffffffffffffff16816fffffffffffffffffffffffffffffffff16036102075783156101f057600060019250925050610972565b6102008787878b60600151610b00565b925061092d565b60146fffffffffffffffffffffffffffffffff16816fffffffffffffffffffffffffffffffff160361025e57831561024757600060019250925050610972565b6102578787878b60600151610f73565b925061092c565b60126fffffffffffffffffffffffffffffffff16816fffffffffffffffffffffffffffffffff16036102b457831561029e57600060019250925050610972565b6102ad87868a60600151611223565b925061092b565b60026fffffffffffffffffffffffffffffffff16816fffffffffffffffffffffffffffffffff160361030a5783156102f457600060019250925050610972565b61030386868a6060015161144a565b925061092a565b60036fffffffffffffffffffffffffffffffff16816fffffffffffffffffffffffffffffffff160361036157831561034a57600060019250925050610972565b61035a8787878b606001516116a6565b9250610929565b60046fffffffffffffffffffffffffffffffff16816fffffffffffffffffffffffffffffffff16036103b85783156103a157600060019250925050610972565b6103b18787878b60600151611b22565b9250610928565b60196fffffffffffffffffffffffffffffffff16816fffffffffffffffffffffffffffffffff160361040d5783156103f857600060019250925050610972565b610406858960600151611c6c565b9250610927565b60106fffffffffffffffffffffffffffffffff16816fffffffffffffffffffffffffffffffff160361046457831561044d57600060019250925050610972565b61045d8787878b60600151611fb0565b9250610926565b600a6fffffffffffffffffffffffffffffffff16816fffffffffffffffffffffffffffffffff16036104ba5783156104a457600060019250925050610972565b6104b387868a60600151612461565b9250610925565b600b6fffffffffffffffffffffffffffffffff16816fffffffffffffffffffffffffffffffff16036105105783156104fa57600060019250925050610972565b61050987868a60600151612732565b9250610924565b600c6fffffffffffffffffffffffffffffffff16816fffffffffffffffffffffffffffffffff160361056657831561055057600060019250925050610972565b61055f86868a606001516128dc565b9250610923565b600f6fffffffffffffffffffffffffffffffff16816fffffffffffffffffffffffffffffffff16036105bc5783156105a657600060019250925050610972565b6105b587868a60600151612b38565b9250610922565b60136fffffffffffffffffffffffffffffffff16816fffffffffffffffffffffffffffffffff16036106125783156105fc57600060019250925050610972565b61060b86868a60600151612cf9565b9250610921565b60216fffffffffffffffffffffffffffffffff16816fffffffffffffffffffffffffffffffff160361066857831561065257600060019250925050610972565b61066187868a60600151612fa8565b9250610920565b60156fffffffffffffffffffffffffffffffff16816fffffffffffffffffffffffffffffffff16036106bf5783156106a857600060019250925050610972565b6106b88787878b60600151613108565b925061091f565b60176fffffffffffffffffffffffffffffffff16816fffffffffffffffffffffffffffffffff16036107165783156106ff57600060019250925050610972565b61070f8787878b60600151613186565b925061091e565b60186fffffffffffffffffffffffffffffffff16816fffffffffffffffffffffffffffffffff160361076d57831561075657600060019250925050610972565b6107668787878b606001516133d0565b925061091d565b601c6fffffffffffffffffffffffffffffffff16816fffffffffffffffffffffffffffffffff16036107c35783156107ad57600060019250925050610972565b6107bc86868a60600151613a72565b925061091c565b601e6fffffffffffffffffffffffffffffffff16816fffffffffffffffffffffffffffffffff160361081857831561080357600060019250925050610972565b610811858960600151610149565b925061091b565b60226fffffffffffffffffffffffffffffffff16816fffffffffffffffffffffffffffffffff160361086e57831561085857600060019250925050610972565b61086787868a60600151613ff5565b925061091a565b60256fffffffffffffffffffffffffffffffff16816fffffffffffffffffffffffffffffffff16036108c55783156108ae57600060019250925050610972565b6108be8787878b60600151614130565b9250610919565b60006fffffffffffffffffffffffffffffffff16816fffffffffffffffffffffffffffffffff160361091857831561090557600060019250925050610972565b6109158787878b606001516142e7565b92505b5b5b5b5b5b5b5b5b5b5b5b5b5b5b5b5b5b5b5b5b5b7fe59e71a14fe90157eedc866c4f8c767d3943d6b6b2e8cd64dddcc92ab4c55af8886000015188888887604051610968959493929190615214565b60405180910390a1505b9550959350505050565b60008046905060018103610a39578573ffffffffffffffffffffffffffffffffffffffff166344b3e9238685877f305800000000000000000000000000000000000000000000000000000000000060001b60006040518663ffffffff1660e01b81526004016109ef9594939291906152a2565b6020604051808303816000875af1158015610a0e573d6000803e3d6000fd5b505050506040513d601f19601f82011682018060405250810190610a32919061530a565b9150610af7565b8573ffffffffffffffffffffffffffffffffffffffff166330ead760868587735c80239d97e1eb216b5c3d8fba5de5be5d38e4c97f305800000000000000000000000000000000000000000000000000000000000060001b6040518663ffffffff1660e01b8152600401610ab1959493929190615346565b6020604051808303816000875af1158015610ad0573d6000803e3d6000fd5b505050506040513d601f19601f82011682018060405250810190610af4919061530a565b91505b50949350505050565b60008082806020019051810190610b1791906154ce565b905060007f000000000000000000000000000000000000000000000000000000000000000073ffffffffffffffffffffffffffffffffffffffff168773ffffffffffffffffffffffffffffffffffffffff1603610c01578490507f000000000000000000000000000000000000000000000000000000000000000073ffffffffffffffffffffffffffffffffffffffff16632e1a7d4d866040518263ffffffff1660e01b8152600401610bca9190614fd3565b600060405180830381600087803b158015610be457600080fd5b505af1158015610bf8573d6000803e3d6000fd5b50505050610c85565b8673ffffffffffffffffffffffffffffffffffffffff1663095ea7b38360000151876040518363ffffffff1660e01b8152600401610c409291906154fb565b6020604051808303816000875af1158015610c5f573d6000803e3d6000fd5b505050506040513d601f19601f82011682018060405250810190610c839190615550565b505b60008673ffffffffffffffffffffffffffffffffffffffff166370a08231306040518263ffffffff1660e01b8152600401610cc0919061557d565b602060405180830381865afa158015610cdd573d6000803e3d6000fd5b505050506040513d601f19601f82011682018060405250810190610d01919061530a565b9050600080846000015173ffffffffffffffffffffffffffffffffffffffff16848660200151876040015188606001518c6001604051602401610d4794939291906155ef565b604051602081830303815290604052907bffffffffffffffffffffffffffffffffffffffffffffffffffffffff19166020820180517bffffffffffffffffffffffffffffffffffffffffffffffffffffffff8381831617835250505050604051610db191906156a5565b60006040518083038185875af1925050503d8060008114610dee576040519150601f19603f3d011682016040523d82523d6000602084013e610df3565b606091505b509150915081610e0757610e0681614414565b5b7f000000000000000000000000000000000000000000000000000000000000000073ffffffffffffffffffffffffffffffffffffffff168973ffffffffffffffffffffffffffffffffffffffff1603610edf574795507f000000000000000000000000000000000000000000000000000000000000000073ffffffffffffffffffffffffffffffffffffffff1663d0e30db0876040518263ffffffff1660e01b81526004016000604051808303818588803b158015610ec557600080fd5b505af1158015610ed9573d6000803e3d6000fd5b50505050505b828973ffffffffffffffffffffffffffffffffffffffff166370a08231306040518263ffffffff1660e01b8152600401610f19919061557d565b602060405180830381865afa158015610f36573d6000803e3d6000fd5b505050506040513d601f19601f82011682018060405250810190610f5a919061530a565b610f6491906156eb565b95505050505050949350505050565b60008082806020019051810190610f8a9190615797565b90508573ffffffffffffffffffffffffffffffffffffffff1663095ea7b38260000151866040518363ffffffff1660e01b8152600401610fcb9291906154fb565b6020604051808303816000875af1158015610fea573d6000803e3d6000fd5b505050506040513d601f19601f8201168201806040525081019061100e9190615550565b5060008573ffffffffffffffffffffffffffffffffffffffff166370a08231306040518263ffffffff1660e01b815260040161104a919061557d565b602060405180830381865afa158015611067573d6000803e3d6000fd5b505050506040513d601f19601f8201168201806040525081019061108b919061530a565b9050600080836000015173ffffffffffffffffffffffffffffffffffffffff168460200151856040015186606001518a60016040516024016110d094939291906155ef565b604051602081830303815290604052907bffffffffffffffffffffffffffffffffffffffffffffffffffffffff19166020820180517bffffffffffffffffffffffffffffffffffffffffffffffffffffffff838183161783525050505060405161113a91906156a5565b6000604051808303816000865af19150503d8060008114611177576040519150601f19603f3d011682016040523d82523d6000602084013e61117c565b606091505b5091509150816111905761118f81614414565b5b828873ffffffffffffffffffffffffffffffffffffffff166370a08231306040518263ffffffff1660e01b81526004016111ca919061557d565b602060405180830381865afa1580156111e7573d6000803e3d6000fd5b505050506040513d601f19601f8201168201806040525081019061120b919061530a565b61121591906156eb565b945050505050949350505050565b6000806000808480602001905181019061123d9190615872565b9250925092508673ffffffffffffffffffffffffffffffffffffffff1663095ea7b384886040518363ffffffff1660e01b815260040161127e9291906154fb565b6020604051808303816000875af115801561129d573d6000803e3d6000fd5b505050506040513d601f19601f820116820180604052508101906112c19190615550565b506002811461138a578273ffffffffffffffffffffffffffffffffffffffff1663c04b8d596040518060a001604052808581526020013073ffffffffffffffffffffffffffffffffffffffff16815260200142815260200189815260200160018152506040518263ffffffff1660e01b815260040161134091906159bf565b6020604051808303816000875af115801561135f573d6000803e3d6000fd5b505050506040513d601f19601f82011682018060405250810190611383919061530a565b9350611440565b8273ffffffffffffffffffffffffffffffffffffffff1663b858183f60405180608001604052808581526020013073ffffffffffffffffffffffffffffffffffffffff16815260200189815260200160018152506040518263ffffffff1660e01b81526004016113fa9190615a44565b6020604051808303816000875af1158015611419573d6000803e3d6000fd5b505050506040513d601f19601f8201168201806040525081019061143d919061530a565b93505b5050509392505050565b600080606080848060200190518101906114649190615b6c565b8092508194505050809150506002815110156114b5576040517f08c379a00000000000000000000000000000000000000000000000000000000081526004016114ac90615c4b565b60405180910390fd5b8573ffffffffffffffffffffffffffffffffffffffff1681600183516114db91906156eb565b815181106114ec576114eb615c6b565b5b602002602001015173ffffffffffffffffffffffffffffffffffffffff161461154a576040517f08c379a000000000000000000000000000000000000000000000000000000000815260040161154190615d0c565b60405180910390fd5b8060008151811061155e5761155d615c6b565b5b602002602001015173ffffffffffffffffffffffffffffffffffffffff1663095ea7b383876040518363ffffffff1660e01b81526004016115a09291906154fb565b6020604051808303816000875af11580156115bf573d6000803e3d6000fd5b505050506040513d601f19601f820116820180604052508101906115e39190615550565b5060008273ffffffffffffffffffffffffffffffffffffffff166338ed17398760018530426040518663ffffffff1660e01b8152600401611628959493929190615e1b565b6000604051808303816000875af1158015611647573d6000803e3d6000fd5b505050506040513d6000823e3d601f19601f820116820180604052508101906116709190615f38565b9050806001825161168191906156eb565b8151811061169257611691615c6b565b5b602002602001015193505050509392505050565b600080828060200190518101906116bd9190615fbf565b905060006116cc82888861441c565b90507f000000000000000000000000000000000000000000000000000000000000000073ffffffffffffffffffffffffffffffffffffffff168773ffffffffffffffffffffffffffffffffffffffff1603611835577f000000000000000000000000000000000000000000000000000000000000000073ffffffffffffffffffffffffffffffffffffffff16632e1a7d4d866040518263ffffffff1660e01b815260040161177a9190614fd3565b600060405180830381600087803b15801561179457600080fd5b505af11580156117a8573d6000803e3d6000fd5b505050508073ffffffffffffffffffffffffffffffffffffffff1663ad65d76d86600142306040518563ffffffff1660e01b81526004016117eb93929190615fec565b60206040518083038185885af1158015611809573d6000803e3d6000fd5b50505050506040513d601f19601f8201168201806040525081019061182e919061530a565b9250611b18565b7f000000000000000000000000000000000000000000000000000000000000000073ffffffffffffffffffffffffffffffffffffffff168673ffffffffffffffffffffffffffffffffffffffff1603611a10578673ffffffffffffffffffffffffffffffffffffffff1663095ea7b382876040518363ffffffff1660e01b81526004016118c39291906154fb565b6020604051808303816000875af11580156118e2573d6000803e3d6000fd5b505050506040513d601f19601f820116820180604052508101906119069190615550565b508073ffffffffffffffffffffffffffffffffffffffff166395e3c50b866001426040518463ffffffff1660e01b815260040161194593929190616023565b6020604051808303816000875af1158015611964573d6000803e3d6000fd5b505050506040513d601f19601f82011682018060405250810190611988919061530a565b92507f000000000000000000000000000000000000000000000000000000000000000073ffffffffffffffffffffffffffffffffffffffff1663d0e30db0846040518263ffffffff1660e01b81526004016000604051808303818588803b1580156119f257600080fd5b505af1158015611a06573d6000803e3d6000fd5b5050505050611b17565b8673ffffffffffffffffffffffffffffffffffffffff1663095ea7b382876040518363ffffffff1660e01b8152600401611a4b9291906154fb565b6020604051808303816000875af1158015611a6a573d6000803e3d6000fd5b505050506040513d601f19601f82011682018060405250810190611a8e9190615550565b508073ffffffffffffffffffffffffffffffffffffffff1663ddf7e1a786600180428b6040518663ffffffff1660e01b8152600401611ad195949392919061605a565b6020604051808303816000875af1158015611af0573d6000803e3d6000fd5b505050506040513d601f19601f82011682018060405250810190611b14919061530a565b92505b5b5050949350505050565b60008082806020019051810190611b3991906160eb565b90508573ffffffffffffffffffffffffffffffffffffffff1663095ea7b382866040518363ffffffff1660e01b8152600401611b769291906154fb565b6020604051808303816000875af1158015611b95573d6000803e3d6000fd5b505050506040513d601f19601f82011682018060405250810190611bb99190615550565b508073ffffffffffffffffffffffffffffffffffffffff16638201aa3f87868860017fffffffffffffffffffffffffffffffffffffffffffffffffffffffffffffffff6040518663ffffffff1660e01b8152600401611c1c959493929190616118565b60408051808303816000875af1158015611c3a573d6000803e3d6000fd5b505050506040513d601f19601f82011682018060405250810190611c5e919061616b565b508092505050949350505050565b60008060008084806020019051810190611c869190616372565b925092509250606081905080600081518110611ca557611ca4615c6b565b5b602002602001015173ffffffffffffffffffffffffffffffffffffffff1663095ea7b385896040518363ffffffff1660e01b8152600401611ce79291906154fb565b6020604051808303816000875af1158015611d06573d6000803e3d6000fd5b505050506040513d601f19601f82011682018060405250810190611d2a9190615550565b508683600081518110611d4057611d3f615c6b565b5b602002602001015160600181815250506000815167ffffffffffffffff811115611d6d57611d6c614e3d565b5b604051908082528060200260200182016040528015611d9b5781602001602082028036833780820191505090505b50905060005b8151811015611df5577f7fffffffffffffffffffffffffffffffffffffffffffffffffffffffffffffff828281518110611dde57611ddd615c6b565b5b602002602001018181525050806001019050611da1565b5060008573ffffffffffffffffffffffffffffffffffffffff1663945bcec96000878660405180608001604052803073ffffffffffffffffffffffffffffffffffffffff1681526020016000151581526020013073ffffffffffffffffffffffffffffffffffffffff1681526020016000151581525087600142611e7991906163fd565b6040518763ffffffff1660e01b8152600401611e9a9695949392919061672a565b6000604051808303816000875af1158015611eb9573d6000803e3d6000fd5b505050506040513d6000823e3d601f19601f82011682018060405250810190611ee29190616891565b905060008160018351611ef591906156eb565b81518110611f0657611f05615c6b565b5b60200260200101511315611f4f576040517f08c379a0000000000000000000000000000000000000000000000000000000008152600401611f469061694c565b60405180910390fd5b7fffffffffffffffffffffffffffffffffffffffffffffffffffffffffffffffff8160018351611f7f91906156eb565b81518110611f9057611f8f615c6b565b5b6020026020010151611fa2919061696c565b965050505050505092915050565b60008082806020019051810190611fc79190616a34565b905060008573ffffffffffffffffffffffffffffffffffffffff166370a08231306040518263ffffffff1660e01b8152600401612004919061557d565b602060405180830381865afa158015612021573d6000803e3d6000fd5b505050506040513d601f19601f82011682018060405250810190612045919061530a565b9050600082600001519050826020015173ffffffffffffffffffffffffffffffffffffffff168873ffffffffffffffffffffffffffffffffffffffff16036121e6578773ffffffffffffffffffffffffffffffffffffffff1663095ea7b38273ffffffffffffffffffffffffffffffffffffffff166301664f666040518163ffffffff1660e01b8152600401602060405180830381865afa1580156120ee573d6000803e3d6000fd5b505050506040513d601f19601f820116820180604052508101906121129190616a61565b886040518363ffffffff1660e01b81526004016121309291906154fb565b6020604051808303816000875af115801561214f573d6000803e3d6000fd5b505050506040513d601f19601f820116820180604052508101906121739190615550565b508073ffffffffffffffffffffffffffffffffffffffff16639599127630886040518363ffffffff1660e01b81526004016121af9291906154fb565b600060405180830381600087803b1580156121c957600080fd5b505af11580156121dd573d6000803e3d6000fd5b505050506123cf565b826020015173ffffffffffffffffffffffffffffffffffffffff168773ffffffffffffffffffffffffffffffffffffffff16036123ce5760008173ffffffffffffffffffffffffffffffffffffffff1663fae036d56040518163ffffffff1660e01b8152600401602060405180830381865afa15801561226a573d6000803e3d6000fd5b505050506040513d601f19601f8201168201806040525081019061228e919061530a565b670de0b6b3a76400006122a191906163fd565b905060006122ae896145e3565b60ff16600a6122bd9190616bc1565b9050600082828a6122ce9190616c0c565b6122d89190616c7d565b90508a73ffffffffffffffffffffffffffffffffffffffff1663095ea7b387600001518b6040518363ffffffff1660e01b81526004016123199291906154fb565b6020604051808303816000875af1158015612338573d6000803e3d6000fd5b505050506040513d601f19601f8201168201806040525081019061235c9190615550565b508373ffffffffffffffffffffffffffffffffffffffff16638d7ef9bb30836040518363ffffffff1660e01b81526004016123989291906154fb565b600060405180830381600087803b1580156123b257600080fd5b505af11580156123c6573d6000803e3d6000fd5b505050505050505b5b818773ffffffffffffffffffffffffffffffffffffffff166370a08231306040518263ffffffff1660e01b8152600401612409919061557d565b602060405180830381865afa158015612426573d6000803e3d6000fd5b505050506040513d601f19601f8201168201806040525081019061244a919061530a565b61245491906156eb565b9350505050949350505050565b6000806000808480602001905181019061247b9190616d2a565b9250925092508673ffffffffffffffffffffffffffffffffffffffff1663095ea7b383886040518363ffffffff1660e01b81526004016124bc9291906154fb565b6020604051808303816000875af11580156124db573d6000803e3d6000fd5b505050506040513d601f19601f820116820180604052508101906124ff9190615550565b5080156125db578173ffffffffffffffffffffffffffffffffffffffff16638dae7333876001600067ffffffffffffffff8111156125405761253f614e3d565b5b6040519080825280601f01601f1916602001820160405280156125725781602001600182028036833780820191505090505b506040518463ffffffff1660e01b815260040161259193929190616dc7565b6020604051808303816000875af11580156125b0573d6000803e3d6000fd5b505050506040513d601f19601f820116820180604052508101906125d4919061530a565b9350612728565b8273ffffffffffffffffffffffffffffffffffffffff1663ca19ebd983886040518363ffffffff1660e01b8152600401612616929190616e26565b602060405180830381865afa158015612633573d6000803e3d6000fd5b505050506040513d601f19601f82011682018060405250810190612657919061530a565b93508173ffffffffffffffffffffffffffffffffffffffff1663e67ce7068588600067ffffffffffffffff81111561269257612691614e3d565b5b6040519080825280601f01601f1916602001820160405280156126c45781602001600182028036833780820191505090505b506040518463ffffffff1660e01b81526004016126e393929190616e4f565b6020604051808303816000875af1158015612702573d6000803e3d6000fd5b505050506040513d601f19601f82011682018060405250810190612726919061530a565b505b5050509392505050565b60008060008380602001905181019061274b9190616ecb565b915091508573ffffffffffffffffffffffffffffffffffffffff1663a9059cbb83876040518363ffffffff1660e01b815260040161278a9291906154fb565b6020604051808303816000875af11580156127a9573d6000803e3d6000fd5b505050506040513d601f19601f820116820180604052508101906127cd9190615550565b5080612854578173ffffffffffffffffffffffffffffffffffffffff1663dd93f59a306040518263ffffffff1660e01b815260040161280c919061557d565b6020604051808303816000875af115801561282b573d6000803e3d6000fd5b505050506040513d601f19601f8201168201806040525081019061284f919061530a565b6128d1565b8173ffffffffffffffffffffffffffffffffffffffff1663bd6015b4306040518263ffffffff1660e01b815260040161288d919061557d565b6020604051808303816000875af11580156128ac573d6000803e3d6000fd5b505050506040513d601f19601f820116820180604052508101906128d0919061530a565b5b925050509392505050565b600080606080848060200190518101906128f69190615b6c565b809250819450505080915050600281511015612947576040517f08c379a000000000000000000000000000000000000000000000000000000000815260040161293e90616f7d565b60405180910390fd5b8573ffffffffffffffffffffffffffffffffffffffff16816001835161296d91906156eb565b8151811061297e5761297d615c6b565b5b602002602001015173ffffffffffffffffffffffffffffffffffffffff16146129dc576040517f08c379a00000000000000000000000000000000000000000000000000000000081526004016129d39061700f565b60405180910390fd5b806000815181106129f0576129ef615c6b565b5b602002602001015173ffffffffffffffffffffffffffffffffffffffff1663095ea7b383876040518363ffffffff1660e01b8152600401612a329291906154fb565b6020604051808303816000875af1158015612a51573d6000803e3d6000fd5b505050506040513d601f19601f82011682018060405250810190612a759190615550565b5060008273ffffffffffffffffffffffffffffffffffffffff166338ed17398760018530426040518663ffffffff1660e01b8152600401612aba959493929190615e1b565b6000604051808303816000875af1158015612ad9573d6000803e3d6000fd5b505050506040513d6000823e3d601f19601f82011682018060405250810190612b029190615f38565b90508060018251612b1391906156eb565b81518110612b2457612b23615c6b565b5b602002602001015193505050509392505050565b60008082806020019051810190612b4f91906170a7565b90508473ffffffffffffffffffffffffffffffffffffffff1663095ea7b38260000151866040518363ffffffff1660e01b8152600401612b909291906154fb565b6020604051808303816000875af1158015612baf573d6000803e3d6000fd5b505050506040513d601f19601f82011682018060405250810190612bd39190615550565b50600080826000015173ffffffffffffffffffffffffffffffffffffffff1683602001518460400151856060015189600142604051602401612c199594939291906170d4565b604051602081830303815290604052907bffffffffffffffffffffffffffffffffffffffffffffffffffffffff19166020820180517bffffffffffffffffffffffffffffffffffffffffffffffffffffffff8381831617835250505050604051612c8391906156a5565b6000604051808303816000865af19150503d8060008114612cc0576040519150601f19603f3d011682016040523d82523d6000602084013e612cc5565b606091505b509150915081612cd957612cd881614414565b5b80806020019051810190612ced919061530a565b93505050509392505050565b60008060608084806020019051810190612d139190617127565b809350819450829550505050600182511015612d64576040517f08c379a0000000000000000000000000000000000000000000000000000000008152600401612d5b90617224565b60405180910390fd5b60018251612d7291906163fd565b815114612db4576040517f08c379a0000000000000000000000000000000000000000000000000000000008152600401612dab906172b6565b60405180910390fd5b8673ffffffffffffffffffffffffffffffffffffffff168160018351612dda91906156eb565b81518110612deb57612dea615c6b565b5b602002602001015173ffffffffffffffffffffffffffffffffffffffff1614612e49576040517f08c379a0000000000000000000000000000000000000000000000000000000008152600401612e4090617348565b60405180910390fd5b80600081518110612e5d57612e5c615c6b565b5b602002602001015173ffffffffffffffffffffffffffffffffffffffff1663095ea7b384886040518363ffffffff1660e01b8152600401612e9f9291906154fb565b6020604051808303816000875af1158015612ebe573d6000803e3d6000fd5b505050506040513d601f19601f82011682018060405250810190612ee29190615550565b5060008373ffffffffffffffffffffffffffffffffffffffff1663ceb757d5886001868630426040518763ffffffff1660e01b8152600401612f2996959493929190617406565b6000604051808303816000875af1158015612f48573d6000803e3d6000fd5b505050506040513d6000823e3d601f19601f82011682018060405250810190612f719190615f38565b90508060018251612f8291906156eb565b81518110612f9357612f92615c6b565b5b60200260200101519450505050509392505050565b600080600083806020019051810190612fc191906174b3565b915091508573ffffffffffffffffffffffffffffffffffffffff1663095ea7b383876040518363ffffffff1660e01b81526004016130009291906154fb565b6020604051808303816000875af115801561301f573d6000803e3d6000fd5b505050506040513d601f19601f820116820180604052508101906130439190615550565b508173ffffffffffffffffffffffffffffffffffffffff16635d946c256040518060a001604052808481526020013073ffffffffffffffffffffffffffffffffffffffff16815260200142815260200188815260200160018152506040518263ffffffff1660e01b81526004016130ba9190617585565b6020604051808303816000875af11580156130d9573d6000803e3d6000fd5b505050506040513d601f19601f820116820180604052508101906130fd919061530a565b925050509392505050565b60007f000000000000000000000000000000000000000000000000000000000000000073ffffffffffffffffffffffffffffffffffffffff168573ffffffffffffffffffffffffffffffffffffffff160361316f576131688484846146b3565b905061317e565b61317b858585856148cb565b90505b949350505050565b60008060008380602001905181019061319f91906175e5565b915091508673ffffffffffffffffffffffffffffffffffffffff1663095ea7b383876040518363ffffffff1660e01b81526004016131de9291906154fb565b6020604051808303816000875af11580156131fd573d6000803e3d6000fd5b505050506040513d601f19601f820116820180604052508101906132219190615550565b508073ffffffffffffffffffffffffffffffffffffffff168673ffffffffffffffffffffffffffffffffffffffff16036132d1578173ffffffffffffffffffffffffffffffffffffffff1663e8eda9df88873060006040518563ffffffff1660e01b81526004016132959493929190617664565b600060405180830381600087803b1580156132af57600080fd5b505af11580156132c3573d6000803e3d6000fd5b5050505084925050506133c8565b8073ffffffffffffffffffffffffffffffffffffffff168773ffffffffffffffffffffffffffffffffffffffff160361338d578173ffffffffffffffffffffffffffffffffffffffff166369328dec8787306040518463ffffffff1660e01b8152600401613341939291906176a9565b6020604051808303816000875af1158015613360573d6000803e3d6000fd5b505050506040513d601f19601f82011682018060405250810190613384919061530a565b925050506133c8565b6040517f08c379a00000000000000000000000000000000000000000000000000000000081526004016133bf90617752565b60405180910390fd5b949350505050565b600080828060200190518101906133e79190617772565b905060008573ffffffffffffffffffffffffffffffffffffffff166370a08231306040518263ffffffff1660e01b8152600401613424919061557d565b602060405180830381865afa158015613441573d6000803e3d6000fd5b505050506040513d601f19601f82011682018060405250810190613465919061530a565b90508173ffffffffffffffffffffffffffffffffffffffff168673ffffffffffffffffffffffffffffffffffffffff160361372d577f000000000000000000000000000000000000000000000000000000000000000073ffffffffffffffffffffffffffffffffffffffff168773ffffffffffffffffffffffffffffffffffffffff16036135e45760008290507f000000000000000000000000000000000000000000000000000000000000000073ffffffffffffffffffffffffffffffffffffffff16632e1a7d4d876040518263ffffffff1660e01b815260040161354b9190614fd3565b600060405180830381600087803b15801561356557600080fd5b505af1158015613579573d6000803e3d6000fd5b505050508073ffffffffffffffffffffffffffffffffffffffff16631249c58b876040518263ffffffff1660e01b81526004016000604051808303818588803b1580156135c557600080fd5b505af11580156135d9573d6000803e3d6000fd5b505050505050613728565b8673ffffffffffffffffffffffffffffffffffffffff1663095ea7b383876040518363ffffffff1660e01b815260040161361f9291906154fb565b6020604051808303816000875af115801561363e573d6000803e3d6000fd5b505050506040513d601f19601f820116820180604052508101906136629190615550565b50600082905060008173ffffffffffffffffffffffffffffffffffffffff1663a0712d68886040518263ffffffff1660e01b81526004016136a39190614fd3565b6020604051808303816000875af11580156136c2573d6000803e3d6000fd5b505050506040513d601f19601f820116820180604052508101906136e6919061530a565b14613726576040517f08c379a000000000000000000000000000000000000000000000000000000000815260040161371d90617811565b60405180910390fd5b505b6139e1565b8173ffffffffffffffffffffffffffffffffffffffff168773ffffffffffffffffffffffffffffffffffffffff16036139e0577f000000000000000000000000000000000000000000000000000000000000000073ffffffffffffffffffffffffffffffffffffffff168673ffffffffffffffffffffffffffffffffffffffff160361391a576000479050600083905060008173ffffffffffffffffffffffffffffffffffffffff1663db006a75896040518263ffffffff1660e01b81526004016137f89190614fd3565b6020604051808303816000875af1158015613817573d6000803e3d6000fd5b505050506040513d601f19601f8201168201806040525081019061383b919061530a565b1461387b576040517f08c379a0000000000000000000000000000000000000000000000000000000008152600401613872906178a3565b60405180910390fd5b60004790506000838261388e91906156eb565b90507f000000000000000000000000000000000000000000000000000000000000000073ffffffffffffffffffffffffffffffffffffffff1663d0e30db0826040518263ffffffff1660e01b81526004016000604051808303818588803b1580156138f857600080fd5b505af115801561390c573d6000803e3d6000fd5b5050505050505050506139df565b600082905060008173ffffffffffffffffffffffffffffffffffffffff1663db006a75886040518263ffffffff1660e01b815260040161395a9190614fd3565b6020604051808303816000875af1158015613979573d6000803e3d6000fd5b505050506040513d601f19601f8201168201806040525081019061399d919061530a565b146139dd576040517f08c379a00000000000000000000000000000000000000000000000000000000081526004016139d490617935565b60405180910390fd5b505b5b5b808673ffffffffffffffffffffffffffffffffffffffff166370a08231306040518263ffffffff1660e01b8152600401613a1b919061557d565b602060405180830381865afa158015613a38573d6000803e3d6000fd5b505050506040513d601f19601f82011682018060405250810190613a5c919061530a565b613a6691906156eb565b92505050949350505050565b600080606080600085806020019051810190613a8e9190617993565b8093508195505050819250600283511015613ade576040517f08c379a0000000000000000000000000000000000000000000000000000000008152600401613ad590617a61565b60405180910390fd5b8773ffffffffffffffffffffffffffffffffffffffff168360018551613b0491906156eb565b81518110613b1557613b14615c6b565b5b602002602001015173ffffffffffffffffffffffffffffffffffffffff1614613b73576040517f08c379a0000000000000000000000000000000000000000000000000000000008152600401613b6a90617af3565b60405180910390fd5b7f000000000000000000000000000000000000000000000000000000000000000073ffffffffffffffffffffffffffffffffffffffff1682600081518110613bbe57613bbd615c6b565b5b602002602001015173ffffffffffffffffffffffffffffffffffffffff1603613cd7577f000000000000000000000000000000000000000000000000000000000000000073ffffffffffffffffffffffffffffffffffffffff16632e1a7d4d886040518263ffffffff1660e01b8152600401613c3a9190614fd3565b600060405180830381600087803b158015613c5457600080fd5b505af1158015613c68573d6000803e3d6000fd5b5050505086905073eeeeeeeeeeeeeeeeeeeeeeeeeeeeeeeeeeeeeeee82600081518110613c9857613c97615c6b565b5b602002602001019073ffffffffffffffffffffffffffffffffffffffff16908173ffffffffffffffffffffffffffffffffffffffff1681525050613d72565b82600081518110613ceb57613cea615c6b565b5b602002602001015173ffffffffffffffffffffffffffffffffffffffff1663095ea7b385896040518363ffffffff1660e01b8152600401613d2d9291906154fb565b6020604051808303816000875af1158015613d4c573d6000803e3d6000fd5b505050506040513d601f19601f82011682018060405250810190613d709190615550565b505b7f000000000000000000000000000000000000000000000000000000000000000073ffffffffffffffffffffffffffffffffffffffff1682600181518110613dbd57613dbc615c6b565b5b602002602001015173ffffffffffffffffffffffffffffffffffffffff1603613e445773eeeeeeeeeeeeeeeeeeeeeeeeeeeeeeeeeeeeeeee82600181518110613e0957613e08615c6b565b5b602002602001019073ffffffffffffffffffffffffffffffffffffffff16908173ffffffffffffffffffffffffffffffffffffffff16815250505b60008473ffffffffffffffffffffffffffffffffffffffff1663d3a4acd38385600081518110613e7757613e76615c6b565b5b602002602001015186600181518110613e9357613e92615c6b565b5b60200260200101518c60018042613eaa91906163fd565b306040518863ffffffff1660e01b8152600401613ecc96959493929190617b13565b60206040518083038185885af1158015613eea573d6000803e3d6000fd5b50505050506040513d601f19601f82011682018060405250810190613f0f919061530a565b90507f000000000000000000000000000000000000000000000000000000000000000073ffffffffffffffffffffffffffffffffffffffff168973ffffffffffffffffffffffffffffffffffffffff1603613fe6577f000000000000000000000000000000000000000000000000000000000000000073ffffffffffffffffffffffffffffffffffffffff1663d0e30db0826040518263ffffffff1660e01b81526004016000604051808303818588803b158015613fcc57600080fd5b505af1158015613fe0573d6000803e3d6000fd5b50505050505b80955050505050509392505050565b60008060008380602001905181019061400e9190617b74565b915091508573ffffffffffffffffffffffffffffffffffffffff1663095ea7b383876040518363ffffffff1660e01b815260040161404d9291906154fb565b6020604051808303816000875af115801561406c573d6000803e3d6000fd5b505050506040513d601f19601f820116820180604052508101906140909190615550565b506000808373ffffffffffffffffffffffffffffffffffffffff16836040516140b991906156a5565b6000604051808303816000865af19150503d80600081146140f6576040519150601f19603f3d011682016040523d82523d6000602084013e6140fb565b606091505b50915091508161410f5761410e81614414565b5b80806020019051810190614123919061530a565b9450505050509392505050565b6000806000838060200190518101906141499190617c0e565b915091508673ffffffffffffffffffffffffffffffffffffffff1663095ea7b383876040518363ffffffff1660e01b81526004016141889291906154fb565b6020604051808303816000875af11580156141a7573d6000803e3d6000fd5b505050506040513d601f19601f820116820180604052508101906141cb9190615550565b508173ffffffffffffffffffffffffffffffffffffffff1663a5dcbcdf6040518061010001604052808a73ffffffffffffffffffffffffffffffffffffffff1681526020018973ffffffffffffffffffffffffffffffffffffffff1681526020018473ffffffffffffffffffffffffffffffffffffffff1681526020013073ffffffffffffffffffffffffffffffffffffffff1681526020014281526020018881526020016001815260200160008152506040518263ffffffff1660e01b81526004016142989190617cf0565b6020604051808303816000875af11580156142b7573d6000803e3d6000fd5b505050506040513d601f19601f820116820180604052508101906142db919061530a565b92505050949350505050565b6000806000838060200190518101906143009190617d4a565b915091508673ffffffffffffffffffffffffffffffffffffffff1663a9059cbb83876040518363ffffffff1660e01b815260040161433f9291906154fb565b6020604051808303816000875af115801561435e573d6000803e3d6000fd5b505050506040513d601f19601f820116820180604052508101906143829190615550565b508173ffffffffffffffffffffffffffffffffffffffff166365d02b048888306001866040518663ffffffff1660e01b81526004016143c5959493929190617da6565b6020604051808303816000875af11580156143e4573d6000803e3d6000fd5b505050506040513d601f19601f82011682018060405250810190614408919061530a565b92505050949350505050565b805160208201fd5b60007f000000000000000000000000000000000000000000000000000000000000000073ffffffffffffffffffffffffffffffffffffffff168373ffffffffffffffffffffffffffffffffffffffff16146144f0578373ffffffffffffffffffffffffffffffffffffffff166306f2bf62846040518263ffffffff1660e01b81526004016144aa9190614dd1565b602060405180830381865afa1580156144c7573d6000803e3d6000fd5b505050506040513d601f19601f820116820180604052508101906144eb9190617e3e565b61456b565b8373ffffffffffffffffffffffffffffffffffffffff166306f2bf62836040518263ffffffff1660e01b81526004016145299190614dd1565b602060405180830381865afa158015614546573d6000803e3d6000fd5b505050506040513d601f19601f8201168201806040525081019061456a9190617e3e565b5b9050600073ffffffffffffffffffffffffffffffffffffffff168173ffffffffffffffffffffffffffffffffffffffff16036145dc576040517f08c379a00000000000000000000000000000000000000000000000000000000081526004016145d390617eb7565b60405180910390fd5b9392505050565b6000601290506000808373ffffffffffffffffffffffffffffffffffffffff166040518060400160405280600481526020017f313ce5670000000000000000000000000000000000000000000000000000000081525060405161464691906156a5565b600060405180830381855afa9150503d8060008114614681576040519150601f19603f3d011682016040523d82523d6000602084013e614686565b606091505b5091509150818015614699575060208151145b156146ac576146a9816000614b8a565b92505b5050919050565b600080828060200190518101906146ca9190617f15565b90508073ffffffffffffffffffffffffffffffffffffffff168573ffffffffffffffffffffffffffffffffffffffff1603614889577f000000000000000000000000000000000000000000000000000000000000000073ffffffffffffffffffffffffffffffffffffffff16632e1a7d4d856040518263ffffffff1660e01b81526004016147589190614fd3565b600060405180830381600087803b15801561477257600080fd5b505af1158015614786573d6000803e3d6000fd5b505050508073ffffffffffffffffffffffffffffffffffffffff16637a28fb888273ffffffffffffffffffffffffffffffffffffffff1663a1903eab8760006040518363ffffffff1660e01b81526004016147e1919061557d565b60206040518083038185885af11580156147ff573d6000803e3d6000fd5b50505050506040513d601f19601f82011682018060405250810190614824919061530a565b6040518263ffffffff1660e01b81526004016148409190614fd3565b602060405180830381865afa15801561485d573d6000803e3d6000fd5b505050506040513d601f19601f82011682018060405250810190614881919061530a565b9150506148c4565b6040517f08c379a00000000000000000000000000000000000000000000000000000000081526004016148bb90617f8e565b60405180910390fd5b9392505050565b6000806000838060200190518101906148e4919061802a565b915091508173ffffffffffffffffffffffffffffffffffffffff168773ffffffffffffffffffffffffffffffffffffffff1614801561494e57508073ffffffffffffffffffffffffffffffffffffffff168673ffffffffffffffffffffffffffffffffffffffff16145b15614a57578673ffffffffffffffffffffffffffffffffffffffff1663095ea7b382876040518363ffffffff1660e01b815260040161498e9291906154fb565b6020604051808303816000875af11580156149ad573d6000803e3d6000fd5b505050506040513d601f19601f820116820180604052508101906149d19190615550565b508073ffffffffffffffffffffffffffffffffffffffff1663ea598cb0866040518263ffffffff1660e01b8152600401614a0b9190614fd3565b6020604051808303816000875af1158015614a2a573d6000803e3d6000fd5b505050506040513d601f19601f82011682018060405250810190614a4e919061530a565b92505050614b82565b8073ffffffffffffffffffffffffffffffffffffffff168773ffffffffffffffffffffffffffffffffffffffff16148015614abd57508173ffffffffffffffffffffffffffffffffffffffff168673ffffffffffffffffffffffffffffffffffffffff16145b15614b47578073ffffffffffffffffffffffffffffffffffffffff1663de0e9a3e866040518263ffffffff1660e01b8152600401614afb9190614fd3565b6020604051808303816000875af1158015614b1a573d6000803e3d6000fd5b505050506040513d601f19601f82011682018060405250810190614b3e919061530a565b92505050614b82565b6040517f08c379a0000000000000000000000000000000000000000000000000000000008152600401614b7990617f8e565b60405180910390fd5b949350505050565b6000614b968383614ba1565b60001c905092915050565b6000602082614bb091906163fd565b83511015614bda57614bd9614bd460058551602086614bcf91906163fd565b614bf5565b614414565b5b602082614be791906163fd565b915081830151905092915050565b6060632800659560e01b848484604051602401614c14939291906180b2565b604051602081830303815290604052907bffffffffffffffffffffffffffffffffffffffffffffffffffffffff19166020820180517bffffffffffffffffffffffffffffffffffffffffffffffffffffffff838183161783525050505090509392505050565b6040518060800160405280600080191681526020016000815260200160008152602001606081525090565b6000604051905090565b600080fd5b600080fd5b6000819050919050565b614ccc81614cb9565b8114614cd757600080fd5b50565b600081359050614ce981614cc3565b92915050565b600060208284031215614d0557614d04614caf565b5b6000614d1384828501614cda565b91505092915050565b60008115159050919050565b614d3181614d1c565b82525050565b6000602082019050614d4c6000830184614d28565b92915050565b600073ffffffffffffffffffffffffffffffffffffffff82169050919050565b6000819050919050565b6000614d97614d92614d8d84614d52565b614d72565b614d52565b9050919050565b6000614da982614d7c565b9050919050565b6000614dbb82614d9e565b9050919050565b614dcb81614db0565b82525050565b6000602082019050614de66000830184614dc2565b92915050565b6000819050919050565b614dff81614dec565b8114614e0a57600080fd5b50565b600081359050614e1c81614df6565b92915050565b600080fd5b600080fd5b6000601f19601f8301169050919050565b7f4e487b7100000000000000000000000000000000000000000000000000000000600052604160045260246000fd5b614e7582614e2c565b810181811067ffffffffffffffff82111715614e9457614e93614e3d565b5b80604052505050565b6000614ea7614ca5565b9050614eb38282614e6c565b919050565b600067ffffffffffffffff821115614ed357614ed2614e3d565b5b614edc82614e2c565b9050602081019050919050565b82818337600083830152505050565b6000614f0b614f0684614eb8565b614e9d565b905082815260208101848484011115614f2757614f26614e27565b5b614f32848285614ee9565b509392505050565b600082601f830112614f4f57614f4e614e22565b5b8135614f5f848260208601614ef8565b91505092915050565b60008060408385031215614f7f57614f7e614caf565b5b6000614f8d85828601614e0d565b925050602083013567ffffffffffffffff811115614fae57614fad614cb4565b5b614fba85828601614f3a565b9150509250929050565b614fcd81614dec565b82525050565b6000602082019050614fe86000830184614fc4565b92915050565b600080fd5b600080fd5b60006080828403121561500e5761500d614fee565b5b6150186080614e9d565b9050600061502884828501614cda565b600083015250602061503c84828501614e0d565b602083015250604061505084828501614e0d565b604083015250606082013567ffffffffffffffff81111561507457615073614ff3565b5b61508084828501614f3a565b60608301525092915050565b600061509782614d52565b9050919050565b60006150a98261508c565b9050919050565b6150b98161509e565b81146150c457600080fd5b50565b6000813590506150d6816150b0565b92915050565b600080600080608085870312156150f6576150f5614caf565b5b600085013567ffffffffffffffff81111561511457615113614cb4565b5b61512087828801614ff8565b9450506020615131878288016150c7565b9350506040615142878288016150c7565b925050606061515387828801614e0d565b91505092959194509250565b600061516a8261508c565b9050919050565b61517a8161515f565b811461518557600080fd5b50565b60008151905061519781615171565b92915050565b6000815190506151ac81614cc3565b92915050565b6000806000606084860312156151cb576151ca614caf565b5b60006151d986828701615188565b93505060206151ea8682870161519d565b92505060406151fb8682870161519d565b9150509250925092565b61520e81614cb9565b82525050565b600060a0820190506152296000830188615205565b6152366020830187614dc2565b6152436040830186614dc2565b6152506060830185614fc4565b61525d6080830184614fc4565b9695505050505050565b6000819050919050565b600061528c61528761528284615267565b614d72565b614dec565b9050919050565b61529c81615271565b82525050565b600060a0820190506152b76000830188615205565b6152c46020830187614fc4565b6152d16040830186615205565b6152de6060830185615205565b6152eb6080830184615293565b9695505050505050565b60008151905061530481614df6565b92915050565b6000602082840312156153205761531f614caf565b5b600061532e848285016152f5565b91505092915050565b6153408161508c565b82525050565b600060a08201905061535b6000830188615205565b6153686020830187614fc4565b6153756040830186615205565b6153826060830185615337565b61538f6080830184615205565b9695505050505050565b6153a28161508c565b81146153ad57600080fd5b50565b6000815190506153bf81615399565b92915050565b60007fffffffff0000000000000000000000000000000000000000000000000000000082169050919050565b6153fa816153c5565b811461540557600080fd5b50565b600081519050615417816153f1565b92915050565b600081600f0b9050919050565b6154338161541d565b811461543e57600080fd5b50565b6000815190506154508161542a565b92915050565b60006080828403121561546c5761546b614fee565b5b6154766080614e9d565b90506000615486848285016153b0565b600083015250602061549a84828501615408565b60208301525060406154ae84828501615441565b60408301525060606154c284828501615441565b60608301525092915050565b6000608082840312156154e4576154e3614caf565b5b60006154f284828501615456565b91505092915050565b60006040820190506155106000830185615337565b61551d6020830184614fc4565b9392505050565b61552d81614d1c565b811461553857600080fd5b50565b60008151905061554a81615524565b92915050565b60006020828403121561556657615565614caf565b5b60006155748482850161553b565b91505092915050565b60006020820190506155926000830184615337565b92915050565b6155a18161541d565b82525050565b6000819050919050565b600060ff82169050919050565b60006155d96155d46155cf846155a7565b614d72565b6155b1565b9050919050565b6155e9816155be565b82525050565b60006080820190506156046000830187615598565b6156116020830186615598565b61561e6040830185614fc4565b61562b60608301846155e0565b95945050505050565b600081519050919050565b600081905092915050565b60005b8381101561566857808201518184015260208101905061564d565b60008484015250505050565b600061567f82615634565b615689818561563f565b935061569981856020860161564a565b80840191505092915050565b60006156b18284615674565b915081905092915050565b7f4e487b7100000000000000000000000000000000000000000000000000000000600052601160045260246000fd5b60006156f682614dec565b915061570183614dec565b9250828203905081811115615719576157186156bc565b5b92915050565b60006080828403121561573557615734614fee565b5b61573f6080614e9d565b9050600061574f848285016153b0565b600083015250602061576384828501615408565b602083015250604061577784828501615441565b604083015250606061578b84828501615441565b60608301525092915050565b6000608082840312156157ad576157ac614caf565b5b60006157bb8482850161571f565b91505092915050565b60006157cf82614d52565b9050919050565b6157df816157c4565b81146157ea57600080fd5b50565b6000815190506157fc816157d6565b92915050565b600061581561581084614eb8565b614e9d565b90508281526020810184848401111561583157615830614e27565b5b61583c84828561564a565b509392505050565b600082601f83011261585957615858614e22565b5b8151615869848260208601615802565b91505092915050565b60008060006060848603121561588b5761588a614caf565b5b6000615899868287016157ed565b935050602084015167ffffffffffffffff8111156158ba576158b9614cb4565b5b6158c686828701615844565b92505060406158d7868287016152f5565b9150509250925092565b600082825260208201905092915050565b60006158fd82615634565b61590781856158e1565b935061591781856020860161564a565b61592081614e2c565b840191505092915050565b6159348161508c565b82525050565b61594381614dec565b82525050565b600060a083016000830151848203600086015261596682826158f2565b915050602083015161597b602086018261592b565b50604083015161598e604086018261593a565b5060608301516159a1606086018261593a565b5060808301516159b4608086018261593a565b508091505092915050565b600060208201905081810360008301526159d98184615949565b905092915050565b600060808301600083015184820360008601526159fe82826158f2565b9150506020830151615a13602086018261592b565b506040830151615a26604086018261593a565b506060830151615a39606086018261593a565b508091505092915050565b60006020820190508181036000830152615a5e81846159e1565b905092915050565b6000615a718261508c565b9050919050565b615a8181615a66565b8114615a8c57600080fd5b50565b600081519050615a9e81615a78565b92915050565b600067ffffffffffffffff821115615abf57615abe614e3d565b5b602082029050602081019050919050565b600080fd5b6000615ae8615ae384615aa4565b614e9d565b90508083825260208201905060208402830185811115615b0b57615b0a615ad0565b5b835b81811015615b345780615b2088826153b0565b845260208401935050602081019050615b0d565b5050509392505050565b600082601f830112615b5357615b52614e22565b5b8151615b63848260208601615ad5565b91505092915050565b60008060408385031215615b8357615b82614caf565b5b6000615b9185828601615a8f565b925050602083015167ffffffffffffffff811115615bb257615bb1614cb4565b5b615bbe85828601615b3e565b9150509250929050565b600082825260208201905092915050565b7f4d6978696e556e697377617056322f504154485f4c454e4754485f4d5553545f60008201527f42455f41545f4c454153545f54574f0000000000000000000000000000000000602082015250565b6000615c35602f83615bc8565b9150615c4082615bd9565b604082019050919050565b60006020820190508181036000830152615c6481615c28565b9050919050565b7f4e487b7100000000000000000000000000000000000000000000000000000000600052603260045260246000fd5b7f4d6978696e556e697377617056322f4c4153545f454c454d454e545f4f465f5060008201527f4154485f4d5553545f4d415443485f4f55545055545f544f4b454e0000000000602082015250565b6000615cf6603b83615bc8565b9150615d0182615c9a565b604082019050919050565b60006020820190508181036000830152615d2581615ce9565b9050919050565b6000615d47615d42615d3d846155a7565b614d72565b614dec565b9050919050565b615d5781615d2c565b82525050565b600081519050919050565b600082825260208201905092915050565b6000819050602082019050919050565b615d9281614db0565b82525050565b6000615da48383615d89565b60208301905092915050565b6000602082019050919050565b6000615dc882615d5d565b615dd28185615d68565b9350615ddd83615d79565b8060005b83811015615e0e578151615df58882615d98565b9750615e0083615db0565b925050600181019050615de1565b5085935050505092915050565b600060a082019050615e306000830188614fc4565b615e3d6020830187615d4e565b8181036040830152615e4f8186615dbd565b9050615e5e6060830185615337565b615e6b6080830184614fc4565b9695505050505050565b600067ffffffffffffffff821115615e9057615e8f614e3d565b5b602082029050602081019050919050565b6000615eb4615eaf84615e75565b614e9d565b90508083825260208201905060208402830185811115615ed757615ed6615ad0565b5b835b81811015615f005780615eec88826152f5565b845260208401935050602081019050615ed9565b5050509392505050565b600082601f830112615f1f57615f1e614e22565b5b8151615f2f848260208601615ea1565b91505092915050565b600060208284031215615f4e57615f4d614caf565b5b600082015167ffffffffffffffff811115615f6c57615f6b614cb4565b5b615f7884828501615f0a565b91505092915050565b6000615f8c8261508c565b9050919050565b615f9c81615f81565b8114615fa757600080fd5b50565b600081519050615fb981615f93565b92915050565b600060208284031215615fd557615fd4614caf565b5b6000615fe384828501615faa565b91505092915050565b60006060820190506160016000830186615d4e565b61600e6020830185614fc4565b61601b6040830184615337565b949350505050565b60006060820190506160386000830186614fc4565b6160456020830185615d4e565b6160526040830184614fc4565b949350505050565b600060a08201905061606f6000830188614fc4565b61607c6020830187615d4e565b6160896040830186615d4e565b6160966060830185614fc4565b6160a36080830184614dc2565b9695505050505050565b60006160b88261508c565b9050919050565b6160c8816160ad565b81146160d357600080fd5b50565b6000815190506160e5816160bf565b92915050565b60006020828403121561610157616100614caf565b5b600061610f848285016160d6565b91505092915050565b600060a08201905061612d6000830188614dc2565b61613a6020830187614fc4565b6161476040830186614dc2565b6161546060830185615d4e565b6161616080830184614fc4565b9695505050505050565b6000806040838503121561618257616181614caf565b5b6000616190858286016152f5565b92505060206161a1858286016152f5565b9150509250929050565b60006161b68261508c565b9050919050565b6161c6816161ab565b81146161d157600080fd5b50565b6000815190506161e3816161bd565b92915050565b600067ffffffffffffffff82111561620457616203614e3d565b5b602082029050602081019050919050565b600060a0828403121561622b5761622a614fee565b5b61623560a0614e9d565b905060006162458482850161519d565b6000830152506020616259848285016152f5565b602083015250604061626d848285016152f5565b6040830152506060616281848285016152f5565b606083015250608082015167ffffffffffffffff8111156162a5576162a4614ff3565b5b6162b184828501615844565b60808301525092915050565b60006162d06162cb846161e9565b614e9d565b905080838252602082019050602084028301858111156162f3576162f2615ad0565b5b835b8181101561633a57805167ffffffffffffffff81111561631857616317614e22565b5b8086016163258982616215565b855260208501945050506020810190506162f5565b5050509392505050565b600082601f83011261635957616358614e22565b5b81516163698482602086016162bd565b91505092915050565b60008060006060848603121561638b5761638a614caf565b5b6000616399868287016161d4565b935050602084015167ffffffffffffffff8111156163ba576163b9614cb4565b5b6163c686828701616344565b925050604084015167ffffffffffffffff8111156163e7576163e6614cb4565b5b6163f386828701615b3e565b9150509250925092565b600061640882614dec565b915061641383614dec565b925082820190508082111561642b5761642a6156bc565b5b92915050565b7f4e487b7100000000000000000000000000000000000000000000000000000000600052602160045260246000fd5b6002811061647157616470616431565b5b50565b600081905061648282616460565b919050565b600061649282616474565b9050919050565b6164a281616487565b82525050565b600081519050919050565b600082825260208201905092915050565b6000819050602082019050919050565b6164dd81614cb9565b82525050565b600060a0830160008301516164fb60008601826164d4565b50602083015161650e602086018261593a565b506040830151616521604086018261593a565b506060830151616534606086018261593a565b506080830151848203608086015261654c82826158f2565b9150508091505092915050565b600061656583836164e3565b905092915050565b6000602082019050919050565b6000616585826164a8565b61658f81856164b3565b9350836020820285016165a1856164c4565b8060005b858110156165dd57848403895281516165be8582616559565b94506165c98361656d565b925060208a019950506001810190506165a5565b50829750879550505050505092915050565b6165f881614d1c565b82525050565b616607816157c4565b82525050565b608082016000820151616623600085018261592b565b50602082015161663660208501826165ef565b50604082015161664960408501826165fe565b50606082015161665c60608501826165ef565b50505050565b600081519050919050565b600082825260208201905092915050565b6000819050602082019050919050565b6000819050919050565b6166a18161668e565b82525050565b60006166b38383616698565b60208301905092915050565b6000602082019050919050565b60006166d782616662565b6166e1818561666d565b93506166ec8361667e565b8060005b8381101561671d57815161670488826166a7565b975061670f836166bf565b9250506001810190506166f0565b5085935050505092915050565b6000610120820190506167406000830189616499565b8181036020830152616752818861657a565b905081810360408301526167668187615dbd565b9050616775606083018661660d565b81810360e083015261678781856166cc565b9050616797610100830184614fc4565b979650505050505050565b600067ffffffffffffffff8211156167bd576167bc614e3d565b5b602082029050602081019050919050565b6167d78161668e565b81146167e257600080fd5b50565b6000815190506167f4816167ce565b92915050565b600061680d616808846167a2565b614e9d565b905080838252602082019050602084028301858111156168305761682f615ad0565b5b835b81811015616859578061684588826167e5565b845260208401935050602081019050616832565b5050509392505050565b600082601f83011261687857616877614e22565b5b81516168888482602086016167fa565b91505092915050565b6000602082840312156168a7576168a6614caf565b5b600082015167ffffffffffffffff8111156168c5576168c4614cb4565b5b6168d184828501616863565b91505092915050565b7f556e65787065637465642042616c616e63657256324261746368206f7574707560008201527f7400000000000000000000000000000000000000000000000000000000000000602082015250565b6000616936602183615bc8565b9150616941826168da565b604082019050919050565b6000602082019050818103600083015261696581616929565b9050919050565b60006169778261668e565b91506169828361668e565b92508282026169908161668e565b91507f800000000000000000000000000000000000000000000000000000000000000084146000841216156169c8576169c76156bc565b5b82820584148315176169dd576169dc6156bc565b5b5092915050565b6000604082840312156169fa576169f9614fee565b5b616a046040614e9d565b90506000616a14848285016153b0565b6000830152506020616a28848285016153b0565b60208301525092915050565b600060408284031215616a4a57616a49614caf565b5b6000616a58848285016169e4565b91505092915050565b600060208284031215616a7757616a76614caf565b5b6000616a85848285016153b0565b91505092915050565b60008160011c9050919050565b6000808291508390505b6001851115616ae557808604811115616ac157616ac06156bc565b5b6001851615616ad05780820291505b8081029050616ade85616a8e565b9450616aa5565b94509492505050565b600082616afe5760019050616bba565b81616b0c5760009050616bba565b8160018114616b225760028114616b2c57616b5b565b6001915050616bba565b60ff841115616b3e57616b3d6156bc565b5b8360020a915084821115616b5557616b546156bc565b5b50616bba565b5060208310610133831016604e8410600b8410161715616b905782820a905083811115616b8b57616b8a6156bc565b5b616bba565b616b9d8484846001616a9b565b92509050818404811115616bb457616bb36156bc565b5b81810290505b9392505050565b6000616bcc82614dec565b9150616bd783614dec565b9250616c047fffffffffffffffffffffffffffffffffffffffffffffffffffffffffffffffff8484616aee565b905092915050565b6000616c1782614dec565b9150616c2283614dec565b9250828202616c3081614dec565b91508282048414831517616c4757616c466156bc565b5b5092915050565b7f4e487b7100000000000000000000000000000000000000000000000000000000600052601260045260246000fd5b6000616c8882614dec565b9150616c9383614dec565b925082616ca357616ca2616c4e565b5b828204905092915050565b6000616cb98261508c565b9050919050565b616cc981616cae565b8114616cd457600080fd5b50565b600081519050616ce681616cc0565b92915050565b6000616cf78261508c565b9050919050565b616d0781616cec565b8114616d1257600080fd5b50565b600081519050616d2481616cfe565b92915050565b600080600060608486031215616d4357616d42614caf565b5b6000616d5186828701616cd7565b9350506020616d6286828701616d15565b9250506040616d738682870161553b565b9150509250925092565b600082825260208201905092915050565b6000616d9982615634565b616da38185616d7d565b9350616db381856020860161564a565b616dbc81614e2c565b840191505092915050565b6000606082019050616ddc6000830186614fc4565b616de96020830185615d4e565b8181036040830152616dfb8184616d8e565b9050949350505050565b6000616e1082614d9e565b9050919050565b616e2081616e05565b82525050565b6000604082019050616e3b6000830185616e17565b616e486020830184614fc4565b9392505050565b6000606082019050616e646000830186614fc4565b616e716020830185614fc4565b8181036040830152616e838184616d8e565b9050949350505050565b6000616e988261508c565b9050919050565b616ea881616e8d565b8114616eb357600080fd5b50565b600081519050616ec581616e9f565b92915050565b60008060408385031215616ee257616ee1614caf565b5b6000616ef085828601616eb6565b9250506020616f018582860161553b565b9150509250929050565b7f4d6978696e43727970746f436f6d2f504154485f4c454e4754485f4d5553545f60008201527f42455f41545f4c454153545f54574f0000000000000000000000000000000000602082015250565b6000616f67602f83615bc8565b9150616f7282616f0b565b604082019050919050565b60006020820190508181036000830152616f9681616f5a565b9050919050565b7f4d6978696e43727970746f436f6d2f4c4153545f454c454d454e545f4f465f5060008201527f4154485f4d5553545f4d415443485f4f55545055545f544f4b454e0000000000602082015250565b6000616ff9603b83615bc8565b915061700482616f9d565b604082019050919050565b6000602082019050818103600083015261702881616fec565b9050919050565b60006080828403121561704557617044614fee565b5b61704f6080614e9d565b9050600061705f848285016153b0565b600083015250602061707384828501615408565b602083015250604061708784828501615441565b604083015250606061709b84828501615441565b60608301525092915050565b6000608082840312156170bd576170bc614caf565b5b60006170cb8482850161702f565b91505092915050565b600060a0820190506170e96000830188615598565b6170f66020830187615598565b6171036040830186614fc4565b61711060608301856155e0565b61711d6080830184614fc4565b9695505050505050565b6000806000606084860312156171405761713f614caf565b5b600061714e868287016157ed565b935050602084015167ffffffffffffffff81111561716f5761716e614cb4565b5b61717b86828701615b3e565b925050604084015167ffffffffffffffff81111561719c5761719b614cb4565b5b6171a886828701615b3e565b9150509250925092565b7f4d6978696e4b79626572446d6d2f504f4f4c535f4c454e4754485f4d5553545f60008201527f42455f41545f4c454153545f4f4e450000000000000000000000000000000000602082015250565b600061720e602f83615bc8565b9150617219826171b2565b604082019050919050565b6000602082019050818103600083015261723d81617201565b9050919050565b7f4d6978696e4b79626572446d6d2f41525241595f4c454e4754485f4d49534d4160008201527f5443480000000000000000000000000000000000000000000000000000000000602082015250565b60006172a0602383615bc8565b91506172ab82617244565b604082019050919050565b600060208201905081810360008301526172cf81617293565b9050919050565b7f4d6978696e4b79626572446d6d2f4c4153545f454c454d454e545f4f465f504160008201527f54485f4d5553545f4d415443485f4f55545055545f544f4b454e000000000000602082015250565b6000617332603a83615bc8565b915061733d826172d6565b604082019050919050565b6000602082019050818103600083015261736181617325565b9050919050565b600081519050919050565b6000819050602082019050919050565b600061738f838361592b565b60208301905092915050565b6000602082019050919050565b60006173b382617368565b6173bd8185615d68565b93506173c883617373565b8060005b838110156173f95781516173e08882617383565b97506173eb8361739b565b9250506001810190506173cc565b5085935050505092915050565b600060c08201905061741b6000830189614fc4565b6174286020830188615d4e565b818103604083015261743a81876173a8565b9050818103606083015261744e81866173a8565b905061745d6080830185615337565b61746a60a0830184614fc4565b979650505050505050565b60006174808261508c565b9050919050565b61749081617475565b811461749b57600080fd5b50565b6000815190506174ad81617487565b92915050565b600080604083850312156174ca576174c9614caf565b5b60006174d88582860161749e565b925050602083015167ffffffffffffffff8111156174f9576174f8614cb4565b5b61750585828601615844565b9150509250929050565b600060a083016000830151848203600086015261752c82826158f2565b9150506020830151617541602086018261592b565b506040830151617554604086018261593a565b506060830151617567606086018261593a565b50608083015161757a608086018261593a565b508091505092915050565b6000602082019050818103600083015261759f818461750f565b905092915050565b60006175b28261508c565b9050919050565b6175c2816175a7565b81146175cd57600080fd5b50565b6000815190506175df816175b9565b92915050565b600080604083850312156175fc576175fb614caf565b5b600061760a858286016175d0565b925050602061761b858286016157ed565b9150509250929050565b600061ffff82169050919050565b600061764e61764961764484615267565b614d72565b617625565b9050919050565b61765e81617633565b82525050565b60006080820190506176796000830187615337565b6176866020830186614fc4565b6176936040830185615337565b6176a06060830184617655565b95945050505050565b60006060820190506176be6000830186615337565b6176cb6020830185614fc4565b6176d86040830184615337565b949350505050565b7f4d6978696e4161766556322f554e535550504f525445445f544f4b454e5f504160008201527f4952000000000000000000000000000000000000000000000000000000000000602082015250565b600061773c602283615bc8565b9150617747826176e0565b604082019050919050565b6000602082019050818103600083015261776b8161772f565b9050919050565b60006020828403121561778857617787614caf565b5b6000617796848285016157ed565b91505092915050565b7f4d6978696e436f6d706f756e642f4641494c45445f544f5f4d494e545f43544f60008201527f4b454e0000000000000000000000000000000000000000000000000000000000602082015250565b60006177fb602383615bc8565b91506178068261779f565b604082019050919050565b6000602082019050818103600083015261782a816177ee565b9050919050565b7f4d6978696e436f6d706f756e642f4641494c45445f544f5f52454445454d5f4360008201527f4554484552000000000000000000000000000000000000000000000000000000602082015250565b600061788d602583615bc8565b915061789882617831565b604082019050919050565b600060208201905081810360008301526178bc81617880565b9050919050565b7f4d6978696e436f6d706f756e642f4641494c45445f544f5f52454445454d5f4360008201527f544f4b454e000000000000000000000000000000000000000000000000000000602082015250565b600061791f602583615bc8565b915061792a826178c3565b604082019050919050565b6000602082019050818103600083015261794e81617912565b9050919050565b60006179608261508c565b9050919050565b61797081617955565b811461797b57600080fd5b50565b60008151905061798d81617967565b92915050565b600080604083850312156179aa576179a9614caf565b5b60006179b88582860161797e565b925050602083015167ffffffffffffffff8111156179d9576179d8614cb4565b5b6179e585828601615b3e565b9150509250929050565b7f4d6978696e42616e636f7256332f504154485f4c454e4754485f4d5553545f4260008201527f455f41545f4c454153545f54574f000000000000000000000000000000000000602082015250565b6000617a4b602e83615bc8565b9150617a56826179ef565b604082019050919050565b60006020820190508181036000830152617a7a81617a3e565b9050919050565b7f4d6978696e42616e636f7256332f4c4153545f454c454d454e545f4f465f504160008201527f54485f4d5553545f4d415443485f4f55545055545f544f4b454e000000000000602082015250565b6000617add603a83615bc8565b9150617ae882617a81565b604082019050919050565b60006020820190508181036000830152617b0c81617ad0565b9050919050565b600060c082019050617b286000830189615337565b617b356020830188615337565b617b426040830187614fc4565b617b4f6060830186615d4e565b617b5c6080830185614fc4565b617b6960a0830184615337565b979650505050505050565b60008060408385031215617b8b57617b8a614caf565b5b6000617b99858286016157ed565b925050602083015167ffffffffffffffff811115617bba57617bb9614cb4565b5b617bc685828601615844565b9150509250929050565b6000617bdb8261508c565b9050919050565b617beb81617bd0565b8114617bf657600080fd5b50565b600081519050617c0881617be2565b92915050565b60008060408385031215617c2557617c24614caf565b5b6000617c3385828601617bf9565b9250506020617c44858286016157ed565b9150509250929050565b61010082016000820151617c65600085018261592b565b506020820151617c78602085018261592b565b506040820151617c8b604085018261592b565b506060820151617c9e606085018261592b565b506080820151617cb1608085018261593a565b5060a0820151617cc460a085018261593a565b5060c0820151617cd760c085018261593a565b5060e0820151617cea60e085018261593a565b50505050565b600061010082019050617d066000830184617c4e565b92915050565b6000617d178261508c565b9050919050565b617d2781617d0c565b8114617d3257600080fd5b50565b600081519050617d4481617d1e565b92915050565b60008060408385031215617d6157617d60614caf565b5b6000617d6f85828601617d35565b925050602083015167ffffffffffffffff811115617d9057617d8f614cb4565b5b617d9c85828601615844565b9150509250929050565b600060a082019050617dbb6000830188614dc2565b617dc86020830187614dc2565b617dd56040830186615337565b617de26060830185615d4e565b8181036080830152617df48184616d8e565b90509695505050505050565b6000617e0b8261508c565b9050919050565b617e1b81617e00565b8114617e2657600080fd5b50565b600081519050617e3881617e12565b92915050565b600060208284031215617e5457617e53614caf565b5b6000617e6284828501617e29565b91505092915050565b7f4d6978696e556e69737761702f4e4f5f45584348414e47450000000000000000600082015250565b6000617ea1601883615bc8565b9150617eac82617e6b565b602082019050919050565b60006020820190508181036000830152617ed081617e94565b9050919050565b6000617ee28261508c565b9050919050565b617ef281617ed7565b8114617efd57600080fd5b50565b600081519050617f0f81617ee9565b92915050565b600060208284031215617f2b57617f2a614caf565b5b6000617f3984828501617f00565b91505092915050565b7f4d6978696e4c69646f2f554e535550504f525445445f544f4b454e5f50414952600082015250565b6000617f78602083615bc8565b9150617f8382617f42565b602082019050919050565b60006020820190508181036000830152617fa781617f6b565b9050919050565b6000617fb98261508c565b9050919050565b617fc981617fae565b8114617fd457600080fd5b50565b600081519050617fe681617fc0565b92915050565b6000617ff78261508c565b9050919050565b61800781617fec565b811461801257600080fd5b50565b60008151905061802481617ffe565b92915050565b6000806040838503121561804157618040614caf565b5b600061804f85828601617fd7565b925050602061806085828601618015565b9150509250929050565b6008811061807b5761807a616431565b5b50565b600081905061808c8261806a565b919050565b600061809c8261807e565b9050919050565b6180ac81618091565b82525050565b60006060820190506180c760008301866180a3565b6180d46020830185614fc4565b6180e16040830184614fc4565b94935050505056fea26469706673582212208b6ba28c724fb3dc4aed8abf29284fad56d973aa6bfe30439c21017508f941c564736f6c634300081c0033",
  "linkReferences": {},
  "deployedLinkReferences": {}
}