{
  "_format": "hh-sol-artifact-1",
  "contractName": "FillQuoteTransformer",
  "sourceName": "contracts/src/transformers/FillQuoteTransformer.sol",
  "abi": [
    {
      "inputs": [
        {
          "internalType": "contract IBridgeAdapter",
          "name": "bridgeAdapter_",
          "type": "address"
        },
        {
          "internalType": "contract IZeroEx",
          "name": "zeroEx_",
          "type": "address"
        }
      ],
      "stateMutability": "nonpayable",
      "type": "constructor"
    },
    {
      "anonymous": false,
      "inputs": [
        {
          "indexed": false,
          "internalType": "bytes32",
          "name": "orderHash",
          "type": "bytes32"
        }
      ],
      "name": "ProtocolFeeUnfunded",
      "type": "event"
    },
    {
      "inputs": [],
      "name": "bridgeAdapter",
      "outputs": [
        {
          "internalType": "contract IBridgeAdapter",
          "name": "",
          "type": "address"
        }
      ],
      "stateMutability": "view",
      "type": "function"
    },
    {
      "inputs": [],
      "name": "deployer",
      "outputs": [
        {
          "internalType": "address",
          "name": "",
          "type": "address"
        }
      ],
      "stateMutability": "view",
      "type": "function"
    },
    {
      "inputs": [
        {
          "internalType": "address payable",
          "name": "ethRecipient",
          "type": "address"
        }
      ],
      "name": "die",
      "outputs": [],
      "stateMutability": "nonpayable",
      "type": "function"
    },
    {
      "inputs": [
        {
          "components": [
            {
              "internalType": "address payable",
              "name": "sender",
              "type": "address"
            },
            {
              "internalType": "address payable",
              "name": "recipient",
              "type": "address"
            },
            {
              "internalType": "bytes",
              "name": "data",
              "type": "bytes"
            }
          ],
          "internalType": "struct IERC20Transformer.TransformContext",
          "name": "context",
          "type": "tuple"
        }
      ],
      "name": "transform",
      "outputs": [
        {
          "internalType": "bytes4",
          "name": "magicBytes",
          "type": "bytes4"
        }
      ],
      "stateMutability": "nonpayable",
      "type": "function"
    },
    {
      "inputs": [],
      "name": "zeroEx",
      "outputs": [
        {
          "internalType": "contract IZeroEx",
          "name": "",
          "type": "address"
        }
      ],
      "stateMutability": "view",
      "type": "function"
    }
  ],
  "bytecode": "0x61010060405234801561001157600080fd5b50604051613c87380380613c87833981810160405281019061003391906101cf565b3373ffffffffffffffffffffffffffffffffffffffff1660808173ffffffffffffffffffffffffffffffffffffffff16815250503073ffffffffffffffffffffffffffffffffffffffff1660a08173ffffffffffffffffffffffffffffffffffffffff16815250508173ffffffffffffffffffffffffffffffffffffffff1660c08173ffffffffffffffffffffffffffffffffffffffff16815250508073ffffffffffffffffffffffffffffffffffffffff1660e08173ffffffffffffffffffffffffffffffffffffffff1681525050505061020f565b600080fd5b600073ffffffffffffffffffffffffffffffffffffffff82169050919050565b600061013a8261010f565b9050919050565b600061014c8261012f565b9050919050565b61015c81610141565b811461016757600080fd5b50565b60008151905061017981610153565b92915050565b600061018a8261010f565b9050919050565b600061019c8261017f565b9050919050565b6101ac81610191565b81146101b757600080fd5b50565b6000815190506101c9816101a3565b92915050565b600080604083850312156101e6576101e561010a565b5b60006101f48582860161016a565b9250506020610205858286016101ba565b9150509250929050565b60805160a05160c05160e0516139f961028e6000396000818161010401528181610382015281816104170152818161110e015281816111ec015281816113d50152611520015260008181610b6d0152610f43015260008181610c170152610c71015260008181610b9101528181610beb0152610cb601526139f96000f3fe608060405234801561001057600080fd5b50600436106100575760003560e01c806352ab413b1461005c578063832b24bb1461007a578063be7dc09b146100aa578063c9353cb5146100c8578063d5f39488146100e4575b600080fd5b610064610102565b6040516100719190611bae565b60405180910390f35b610094600480360381019061008f9190611c01565b610126565b6040516100a19190611c85565b60405180910390f35b6100b2610b6b565b6040516100bf9190611cd3565b60405180910390f35b6100e260048036038101906100dd9190611d2c565b610b8f565b005b6100ec610cb4565b6040516100f99190611d7a565b60405180910390f35b7f000000000000000000000000000000000000000000000000000000000000000081565b6000808280604001906101399190611da4565b8101906101469190612bfa565b9050610150611a97565b610173826020015173ffffffffffffffffffffffffffffffffffffffff16610cd8565b8061019d575061019c826040015173ffffffffffffffffffffffffffffffffffffffff16610cd8565b5b156102085761020761020260008680604001906101ba9190611da4565b8080601f016020809104026020016040519081016040528093929190818152602001838380828437600081840152601f19601f82011690508083019250505050505050610d24565b610dbf565b5b8160c0015151826101200151518360a00151518460800151518560600151516102319190612c72565b61023b9190612c72565b6102459190612c72565b146102b0576102af6102aa60018680604001906102629190611da4565b8080601f016020809104026020016040519081016040528093929190818152602001838380828437600081840152601f19601f82011690508083019250505050505050610d24565b610dbf565b5b6102dd30836020015173ffffffffffffffffffffffffffffffffffffffff16610dc790919063ffffffff16565b816080018181525050600060018111156102fa576102f9612ca6565b5b8260000151600181111561031157610310612ca6565b5b03610332576103288260e001518260800151610e79565b8260e00181815250505b6000826101200151518360a00151518460800151516103519190612c72565b61035b9190612c72565b146104bf57816020015173ffffffffffffffffffffffffffffffffffffffff1663095ea7b37f00000000000000000000000000000000000000000000000000000000000000008460e001516040518363ffffffff1660e01b81526004016103c3929190612ce4565b6020604051808303816000875af11580156103e2573d6000803e3d6000fd5b505050506040513d601f19601f820116820180604052508101906104069190612d45565b506000826080015151146104be573a7f000000000000000000000000000000000000000000000000000000000000000073ffffffffffffffffffffffffffffffffffffffff1663487b5c206040518163ffffffff1660e01b8152600401602060405180830381865afa158015610480573d6000803e3d6000fd5b505050506040513d601f19601f820116820180604052508101906104a49190612dae565b63ffffffff166104b49190612ddb565b8160600181815250505b5b4781600001818152505060005b8260c001515181101561083d57600060018111156104ed576104ec612ca6565b5b8360000151600181111561050457610503612ca6565b5b0361051e578260e001518260400151101561083d5761052f565b8260e001518260200151101561083d575b8260c00151818151811061054657610545612e1d565b5b60200260200101518260c00190600381111561056557610564612ca6565b5b9081600381111561057957610578612ca6565b5b8152505060008260a001518360c00151600381111561059b5761059a612ca6565b5b600481106105ac576105ab612e1d565b5b602002015190506105bb611aec565b600060038111156105cf576105ce612ca6565b5b8460c0015160038111156105e6576105e5612ca6565b5b0361061b576106148560600151838151811061060557610604612e1d565b5b60200260200101518686610f1c565b9050610779565b6001600381111561062f5761062e612ca6565b5b8460c00151600381111561064657610645612ca6565b5b0361067b576106748560800151838151811061066557610664612e1d565b5b60200260200101518686611086565b9050610778565b6002600381111561068f5761068e612ca6565b5b8460c0015160038111156106a6576106a5612ca6565b5b036106db576106d48560a0015183815181106106c5576106c4612e1d565b5b60200260200101518686611378565b9050610777565b6003808111156106ee576106ed612ca6565b5b8460c00151600381111561070557610704612ca6565b5b0361073b57610734856101200151838151811061072557610724612e1d565b5b602002602001015186866114c3565b9050610776565b6040517f08c379a000000000000000000000000000000000000000000000000000000000815260040161076d90612ea9565b60405180910390fd5b5b5b5b8060000151846040015161078d9190612c72565b846040018181525050806020015184602001516107aa9190612c72565b846020018181525050806040015184600001516107c79190612ec9565b846000018181525050806000015184608001516107e49190612ec9565b8460800181815250508360a001518460c00151600381111561080957610808612ca6565b5b6004811061081a57610819612e1d565b5b60200201805180919061082c90612efd565b8152505050508060010190506104cc565b506000600181111561085257610851612ca6565b5b8260000151600181111561086957610868612ca6565b5b036108a3578160e001518160400151101561089e5761089d610898836020015183604001518560e00151611647565b610dbf565b5b6108d4565b8160e00151816020015110156108d3576108d26108cd836040015183602001518560e001516116e5565b610dbf565b5b5b6000816000015111801561091a5750600073ffffffffffffffffffffffffffffffffffffffff1682610100015173ffffffffffffffffffffffffffffffffffffffff1614155b15610b5a576000600173ffffffffffffffffffffffffffffffffffffffff1683610100015173ffffffffffffffffffffffffffffffffffffffff16036109e15784602001602081019061096d9190611d2c565b73ffffffffffffffffffffffffffffffffffffffff16826000015160405161099490612f76565b60006040518083038185875af1925050503d80600081146109d1576040519150601f19603f3d011682016040523d82523d6000602084013e6109d6565b606091505b505080915050610b18565b600273ffffffffffffffffffffffffffffffffffffffff1683610100015173ffffffffffffffffffffffffffffffffffffffff1603610aa157846000016020810190610a2d9190611d2c565b73ffffffffffffffffffffffffffffffffffffffff168260000151604051610a5490612f76565b60006040518083038185875af1925050503d8060008114610a91576040519150601f19603f3d011682016040523d82523d6000602084013e610a96565b606091505b505080915050610b17565b82610100015173ffffffffffffffffffffffffffffffffffffffff168260000151604051610ace90612f76565b60006040518083038185875af1925050503d8060008114610b0b576040519150601f19603f3d011682016040523d82523d6000602084013e610b10565b606091505b5050809150505b5b80610b58576040517f08c379a0000000000000000000000000000000000000000000000000000000008152600401610b4f90612ffd565b60405180910390fd5b505b6313c9929e60e01b92505050919050565b7f000000000000000000000000000000000000000000000000000000000000000081565b7f000000000000000000000000000000000000000000000000000000000000000073ffffffffffffffffffffffffffffffffffffffff163373ffffffffffffffffffffffffffffffffffffffff1614610c1557610c14610c0f337f0000000000000000000000000000000000000000000000000000000000000000611783565b610dbf565b5b7f000000000000000000000000000000000000000000000000000000000000000073ffffffffffffffffffffffffffffffffffffffff163073ffffffffffffffffffffffffffffffffffffffff1614610c9b57610c9a610c95307f000000000000000000000000000000000000000000000000000000000000000061181e565b610dbf565b5b8073ffffffffffffffffffffffffffffffffffffffff16ff5b7f000000000000000000000000000000000000000000000000000000000000000081565b600073eeeeeeeeeeeeeeeeeeeeeeeeeeeeeeeeeeeeeeee73ffffffffffffffffffffffffffffffffffffffff168273ffffffffffffffffffffffffffffffffffffffff16149050919050565b60607f505ff6a4f24a0aa989a95ffe4c8d435d76fb30dea162a3e3022e749867722deb8383604051602401610d5a9291906130e4565b604051602081830303815290604052907bffffffffffffffffffffffffffffffffffffffffffffffffffffffff19166020820180517bffffffffffffffffffffffffffffffffffffffffffffffffffffffff8381831617835250505050905092915050565b805160208201fd5b6000610dd283610cd8565b15610df6578173ffffffffffffffffffffffffffffffffffffffff16319050610e73565b8273ffffffffffffffffffffffffffffffffffffffff166370a08231836040518263ffffffff1660e01b8152600401610e2f9190611d7a565b602060405180830381865afa158015610e4c573d6000803e3d6000fd5b505050506040513d601f19601f82011682018060405250810190610e709190613129565b90505b92915050565b60007f800000000000000000000000000000000000000000000000000000000000000080841603610f1257610f0b670de0b6b3a7640000610ef060017f8000000000000000000000000000000000000000000000000000000000000000610ee09190612ec9565b8616670de0b6b3a76400006118b9565b84610efb9190612ddb565b610f059190613185565b836118b9565b9050610f16565b8290505b92915050565b610f24611aec565b6000610f3c84848760200151886040015160006118d2565b90506000807f000000000000000000000000000000000000000000000000000000000000000073ffffffffffffffffffffffffffffffffffffffff1663f712a14860e01b888860200151896040015187604051602401610f9f94939291906132a2565b604051602081830303815290604052907bffffffffffffffffffffffffffffffffffffffffffffffffffffffff19166020820180517bffffffffffffffffffffffffffffffffffffffffffffffffffffffff8381831617835250505050604051611009919061331f565b600060405180830381855af49150503d8060008114611044576040519150601f19603f3d011682016040523d82523d6000602084013e611049565b606091505b5091509150811561107c57808060200190518101906110689190613129565b846020018181525050828460000181815250505b5050509392505050565b61108e611aec565b60006110f86110ee85858860000151606001516fffffffffffffffffffffffffffffffff168960000151604001516fffffffffffffffffffffffffffffffff168a60000151608001516fffffffffffffffffffffffffffffffff166118d2565b86604001516118b9565b90508260600151836000015110156111ea5760007f000000000000000000000000000000000000000000000000000000000000000073ffffffffffffffffffffffffffffffffffffffff1663dd11d22587600001516040518263ffffffff1660e01b81526004016111699190613468565b602060405180830381865afa158015611186573d6000803e3d6000fd5b505050506040513d601f19601f820116820180604052508101906111aa9190613499565b90507fb5d7e18f9bad5b40d7cf6bb45142dfbaef62527179ff5c249c6d6cc00176224d816040516111db91906134d5565b60405180910390a15050611371565b7f000000000000000000000000000000000000000000000000000000000000000073ffffffffffffffffffffffffffffffffffffffff1663f6274f6684606001518760000151886020015161123e86611982565b6040518563ffffffff1660e01b815260040161125c939291906135ab565b604080518083038185885af19350505050801561129757506040513d601f19601f8201168201806040525081019061129491906135fa565b60015b1561136f5760008760000151608001516fffffffffffffffffffffffffffffffff16111561132657611318611313836fffffffffffffffffffffffffffffffff168960000151606001516fffffffffffffffffffffffffffffffff168a60000151608001516fffffffffffffffffffffffffffffffff166119ba565b611982565b82611323919061363a565b91505b816fffffffffffffffffffffffffffffffff16846000018181525050806fffffffffffffffffffffffffffffffff16846020018181525050846060015184604001818152505050505b505b9392505050565b611380611aec565b60006113d16113c785858860000151606001516fffffffffffffffffffffffffffffffff168960000151604001516fffffffffffffffffffffffffffffffff1660006118d2565b86604001516118b9565b90507f000000000000000000000000000000000000000000000000000000000000000073ffffffffffffffffffffffffffffffffffffffff1663aa77476c8660000151876020015161142285611982565b6040518463ffffffff1660e01b81526004016114409392919061374a565b60408051808303816000875af192505050801561147b57506040513d601f19601f8201168201806040525081019061147891906135fa565b60015b156114bb57816fffffffffffffffffffffffffffffffff16846000018181525050806fffffffffffffffffffffffffffffffff1684602001818152505050505b509392505050565b6114cb611aec565b600061151c61151285858860000151606001516fffffffffffffffffffffffffffffffff168960000151604001516fffffffffffffffffffffffffffffffff1660006118d2565b86604001516118b9565b90507f000000000000000000000000000000000000000000000000000000000000000073ffffffffffffffffffffffffffffffffffffffff1663dac748d48660000151876020015161156d85611982565b6040518463ffffffff1660e01b815260040161158b93929190613826565b60408051808303816000875af19250505080156115c657506040513d601f19601f820116820180604052508101906115c391906135fa565b60015b611605576040517f08c379a00000000000000000000000000000000000000000000000000000000081526004016115fc906138d2565b60405180910390fd5b816fffffffffffffffffffffffffffffffff16846000018181525050806fffffffffffffffffffffffffffffffff168460200181815250505050509392505050565b60607fadc35ca636cd9f46b974d5bec4df8af095d0ae177ec6043620af588c03bdc61684848460405160240161167f939291906138f2565b604051602081830303815290604052907bffffffffffffffffffffffffffffffffffffffffffffffffffffffff19166020820180517bffffffffffffffffffffffffffffffffffffffffffffffffffffffff838183161783525050505090509392505050565b60607f498df3ae522acadbf67e6aa5fde156a5b74336950cd271175e7336907df120e384848460405160240161171d939291906138f2565b604051602081830303815290604052907bffffffffffffffffffffffffffffffffffffffffffffffffffffffff19166020820180517bffffffffffffffffffffffffffffffffffffffffffffffffffffffff838183161783525050505090509392505050565b60607f5cec653b364cca3880afa73ceff506d0651d11d26abbbe4a56460aa933b21b0883836040516024016117b9929190613929565b604051602081830303815290604052907bffffffffffffffffffffffffffffffffffffffffffffffffffffffff19166020820180517bffffffffffffffffffffffffffffffffffffffffffffffffffffffff8381831617835250505050905092915050565b60607fb5cf2cd09307d6c717473134badbb9761c2c97d7565566c2a71eba6cd6fc514d8383604051602401611854929190613929565b604051602081830303815290604052907bffffffffffffffffffffffffffffffffffffffffffffffffffffffff19166020820180517bffffffffffffffffffffffffffffffffffffffffffffffffffffffff8381831617835250505050905092915050565b60008183106118c857816118ca565b825b905092915050565b60008060018111156118e7576118e6612ca6565b5b866000015160018111156118fe576118fd612ca6565b5b0361193f5784604001518660e001516119179190612ec9565b90506000821461193a576119378183866119319190612c72565b866119dc565b90505b611960565b61195d85602001518760e001516119569190612ec9565b84866119dc565b90505b61197761196d82866118b9565b86608001516118b9565b905095945050505050565b60006fffffffffffffffffffffffffffffffff80168211156119b2576119b16119ac600384611a15565b610dbf565b5b819050919050565b60008282856119c99190612ddb565b6119d39190613185565b90509392505050565b6000826001846119ec9190612ec9565b83866119f89190612ddb565b611a029190612c72565b611a0c9190613185565b90509392505050565b606063c996af7b60e01b8383604051602401611a3292919061399a565b604051602081830303815290604052907bffffffffffffffffffffffffffffffffffffffffffffffffffffffff19166020820180517bffffffffffffffffffffffffffffffffffffffffffffffffffffffff8381831617835250505050905092915050565b6040518060e001604052806000815260200160008152602001600081526020016000815260200160008152602001611acd611b0d565b815260200160006003811115611ae657611ae5612ca6565b5b81525090565b60405180606001604052806000815260200160008152602001600081525090565b6040518060800160405280600490602082028036833780820191505090505090565b600073ffffffffffffffffffffffffffffffffffffffff82169050919050565b6000819050919050565b6000611b74611b6f611b6a84611b2f565b611b4f565b611b2f565b9050919050565b6000611b8682611b59565b9050919050565b6000611b9882611b7b565b9050919050565b611ba881611b8d565b82525050565b6000602082019050611bc36000830184611b9f565b92915050565b6000604051905090565b600080fd5b600080fd5b600080fd5b600060608284031215611bf857611bf7611bdd565b5b81905092915050565b600060208284031215611c1757611c16611bd3565b5b600082013567ffffffffffffffff811115611c3557611c34611bd8565b5b611c4184828501611be2565b91505092915050565b60007fffffffff0000000000000000000000000000000000000000000000000000000082169050919050565b611c7f81611c4a565b82525050565b6000602082019050611c9a6000830184611c76565b92915050565b6000611cab82611b59565b9050919050565b6000611cbd82611ca0565b9050919050565b611ccd81611cb2565b82525050565b6000602082019050611ce86000830184611cc4565b92915050565b6000611cf982611b2f565b9050919050565b611d0981611cee565b8114611d1457600080fd5b50565b600081359050611d2681611d00565b92915050565b600060208284031215611d4257611d41611bd3565b5b6000611d5084828501611d17565b91505092915050565b6000611d6482611b2f565b9050919050565b611d7481611d59565b82525050565b6000602082019050611d8f6000830184611d6b565b92915050565b600080fd5b600080fd5b600080fd5b60008083356001602003843603038112611dc157611dc0611d95565b5b80840192508235915067ffffffffffffffff821115611de357611de2611d9a565b5b602083019250600182023603831315611dff57611dfe611d9f565b5b509250929050565b600080fd5b6000601f19601f8301169050919050565b7f4e487b7100000000000000000000000000000000000000000000000000000000600052604160045260246000fd5b611e5582611e0c565b810181811067ffffffffffffffff82111715611e7457611e73611e1d565b5b80604052505050565b6000611e87611bc9565b9050611e938282611e4c565b919050565b600080fd5b60028110611eaa57600080fd5b50565b600081359050611ebc81611e9d565b92915050565b6000611ecd82611d59565b9050919050565b611edd81611ec2565b8114611ee857600080fd5b50565b600081359050611efa81611ed4565b92915050565b600080fd5b600067ffffffffffffffff821115611f2057611f1f611e1d565b5b602082029050602081019050919050565b600080fd5b6000819050919050565b611f4981611f36565b8114611f5457600080fd5b50565b600081359050611f6681611f40565b92915050565b6000819050919050565b611f7f81611f6c565b8114611f8a57600080fd5b50565b600081359050611f9c81611f76565b92915050565b600080fd5b600067ffffffffffffffff821115611fc257611fc1611e1d565b5b611fcb82611e0c565b9050602081019050919050565b82818337600083830152505050565b6000611ffa611ff584611fa7565b611e7d565b90508281526020810184848401111561201657612015611fa2565b5b612021848285611fd8565b509392505050565b600082601f83011261203e5761203d611f00565b5b813561204e848260208601611fe7565b91505092915050565b60006080828403121561206d5761206c611e07565b5b6120776080611e7d565b9050600061208784828501611f57565b600083015250602061209b84828501611f8d565b60208301525060406120af84828501611f8d565b604083015250606082013567ffffffffffffffff8111156120d3576120d2611e98565b5b6120df84828501612029565b60608301525092915050565b60006120fe6120f984611f05565b611e7d565b9050808382526020820190506020840283018581111561212157612120611f31565b5b835b8181101561216857803567ffffffffffffffff81111561214657612145611f00565b5b8086016121538982612057565b85526020850194505050602081019050612123565b5050509392505050565b600082601f83011261218757612186611f00565b5b81356121978482602086016120eb565b91505092915050565b600067ffffffffffffffff8211156121bb576121ba611e1d565b5b602082029050602081019050919050565b60006fffffffffffffffffffffffffffffffff82169050919050565b6121f1816121cc565b81146121fc57600080fd5b50565b60008135905061220e816121e8565b92915050565b61221d81611d59565b811461222857600080fd5b50565b60008135905061223a81612214565b92915050565b600067ffffffffffffffff82169050919050565b61225d81612240565b811461226857600080fd5b50565b60008135905061227a81612254565b92915050565b6000610180828403121561229757612296611e07565b5b6122a2610180611e7d565b905060006122b284828501611eeb565b60008301525060206122c684828501611eeb565b60208301525060406122da848285016121ff565b60408301525060606122ee848285016121ff565b6060830152506080612302848285016121ff565b60808301525060a06123168482850161222b565b60a08301525060c061232a8482850161222b565b60c08301525060e061233e8482850161222b565b60e0830152506101006123538482850161222b565b6101008301525061012061236984828501611f57565b6101208301525061014061237f8482850161226b565b6101408301525061016061239584828501611f8d565b6101608301525092915050565b600581106123af57600080fd5b50565b6000813590506123c1816123a2565b92915050565b600060ff82169050919050565b6123dd816123c7565b81146123e857600080fd5b50565b6000813590506123fa816123d4565b92915050565b60006080828403121561241657612415611e07565b5b6124206080611e7d565b90506000612430848285016123b2565b6000830152506020612444848285016123eb565b602083015250604061245884828501611f57565b604083015250606061246c84828501611f57565b60608301525092915050565b6000610220828403121561248f5761248e611e07565b5b6124996060611e7d565b905060006124a984828501612280565b6000830152506101806124be84828501612400565b6020830152506102006124d384828501611f8d565b60408301525092915050565b60006124f26124ed846121a0565b611e7d565b905080838252602082019050610220840283018581111561251657612515611f31565b5b835b81811015612540578061252b8882612478565b84526020840193505061022081019050612518565b5050509392505050565b600082601f83011261255f5761255e611f00565b5b813561256f8482602086016124df565b91505092915050565b600067ffffffffffffffff82111561259357612592611e1d565b5b602082029050602081019050919050565b600061014082840312156125bb576125ba611e07565b5b6125c6610140611e7d565b905060006125d684828501611eeb565b60008301525060206125ea84828501611eeb565b60208301525060406125fe848285016121ff565b6040830152506060612612848285016121ff565b60608301525060806126268482850161222b565b60808301525060a061263a8482850161222b565b60a08301525060c061264e8482850161222b565b60c08301525060e061266284828501611f57565b60e0830152506101006126778482850161226b565b6101008301525061012061268d84828501611f8d565b6101208301525092915050565b60006101e082840312156126b1576126b0611e07565b5b6126bb6060611e7d565b905060006126cb848285016125a4565b6000830152506101406126e084828501612400565b6020830152506101c06126f584828501611f8d565b60408301525092915050565b600061271461270f84612578565b611e7d565b9050808382526020820190506101e0840283018581111561273857612737611f31565b5b835b81811015612762578061274d888261269a565b8452602084019350506101e08101905061273a565b5050509392505050565b600082601f83011261278157612780611f00565b5b8135612791848260208601612701565b91505092915050565b600067ffffffffffffffff8211156127b5576127b4611e1d565b5b602082029050602081019050919050565b600481106127d357600080fd5b50565b6000813590506127e5816127c6565b92915050565b60006127fe6127f98461279a565b611e7d565b9050808382526020820190506020840283018581111561282157612820611f31565b5b835b8181101561284a578061283688826127d6565b845260208401935050602081019050612823565b5050509392505050565b600082601f83011261286957612868611f00565b5b81356128798482602086016127eb565b91505092915050565b600067ffffffffffffffff82111561289d5761289c611e1d565b5b602082029050602081019050919050565b600061010082840312156128c5576128c4611e07565b5b6128d0610100611e7d565b905060006128e084828501611eeb565b60008301525060206128f484828501611eeb565b6020830152506040612908848285016121ff565b604083015250606061291c848285016121ff565b60608301525060806129308482850161222b565b60808301525060a06129448482850161222b565b60a08301525060c06129588482850161222b565b60c08301525060e061296c84828501611f8d565b60e08301525092915050565b60006101a0828403121561298f5761298e611e07565b5b6129996060611e7d565b905060006129a9848285016128ae565b6000830152506101006129be84828501612400565b6020830152506101806129d384828501611f8d565b60408301525092915050565b60006129f26129ed84612882565b611e7d565b9050808382526020820190506101a08402830185811115612a1657612a15611f31565b5b835b81811015612a405780612a2b8882612978565b8452602084019350506101a081019050612a18565b5050509392505050565b600082601f830112612a5f57612a5e611f00565b5b8135612a6f8482602086016129df565b91505092915050565b60006101408284031215612a8f57612a8e611e07565b5b612a9a610140611e7d565b90506000612aaa84828501611ead565b6000830152506020612abe84828501611eeb565b6020830152506040612ad284828501611eeb565b604083015250606082013567ffffffffffffffff811115612af657612af5611e98565b5b612b0284828501612172565b606083015250608082013567ffffffffffffffff811115612b2657612b25611e98565b5b612b328482850161254a565b60808301525060a082013567ffffffffffffffff811115612b5657612b55611e98565b5b612b628482850161276c565b60a08301525060c082013567ffffffffffffffff811115612b8657612b85611e98565b5b612b9284828501612854565b60c08301525060e0612ba684828501611f8d565b60e083015250610100612bbb84828501611d17565b6101008301525061012082013567ffffffffffffffff811115612be157612be0611e98565b5b612bed84828501612a4a565b6101208301525092915050565b600060208284031215612c1057612c0f611bd3565b5b600082013567ffffffffffffffff811115612c2e57612c2d611bd8565b5b612c3a84828501612a78565b91505092915050565b7f4e487b7100000000000000000000000000000000000000000000000000000000600052601160045260246000fd5b6000612c7d82611f6c565b9150612c8883611f6c565b9250828201905080821115612ca057612c9f612c43565b5b92915050565b7f4e487b7100000000000000000000000000000000000000000000000000000000600052602160045260246000fd5b612cde81611f6c565b82525050565b6000604082019050612cf96000830185611d6b565b612d066020830184612cd5565b9392505050565b60008115159050919050565b612d2281612d0d565b8114612d2d57600080fd5b50565b600081519050612d3f81612d19565b92915050565b600060208284031215612d5b57612d5a611bd3565b5b6000612d6984828501612d30565b91505092915050565b600063ffffffff82169050919050565b612d8b81612d72565b8114612d9657600080fd5b50565b600081519050612da881612d82565b92915050565b600060208284031215612dc457612dc3611bd3565b5b6000612dd284828501612d99565b91505092915050565b6000612de682611f6c565b9150612df183611f6c565b9250828202612dff81611f6c565b91508282048414831517612e1657612e15612c43565b5b5092915050565b7f4e487b7100000000000000000000000000000000000000000000000000000000600052603260045260246000fd5b600082825260208201905092915050565b7f494e56414c49445f4f524445525f545950450000000000000000000000000000600082015250565b6000612e93601283612e4c565b9150612e9e82612e5d565b602082019050919050565b60006020820190508181036000830152612ec281612e86565b9050919050565b6000612ed482611f6c565b9150612edf83611f6c565b9250828203905081811115612ef757612ef6612c43565b5b92915050565b6000612f0882611f6c565b91507fffffffffffffffffffffffffffffffffffffffffffffffffffffffffffffffff8203612f3a57612f39612c43565b5b600182019050919050565b600081905092915050565b50565b6000612f60600083612f45565b9150612f6b82612f50565b600082019050919050565b6000612f8182612f53565b9150819050919050565b7f46696c6c51756f74655472616e73666f726d65722f45544845525f5452414e5360008201527f4645525f46414c49454400000000000000000000000000000000000000000000602082015250565b6000612fe7602a83612e4c565b9150612ff282612f8b565b604082019050919050565b6000602082019050818103600083015261301681612fda565b9050919050565b6002811061302e5761302d612ca6565b5b50565b600081905061303f8261301d565b919050565b600061304f82613031565b9050919050565b61305f81613044565b82525050565b600081519050919050565b600082825260208201905092915050565b60005b8381101561309f578082015181840152602081019050613084565b60008484015250505050565b60006130b682613065565b6130c08185613070565b93506130d0818560208601613081565b6130d981611e0c565b840191505092915050565b60006040820190506130f96000830185613056565b818103602083015261310b81846130ab565b90509392505050565b60008151905061312381611f76565b92915050565b60006020828403121561313f5761313e611bd3565b5b600061314d84828501613114565b91505092915050565b7f4e487b7100000000000000000000000000000000000000000000000000000000600052601260045260246000fd5b600061319082611f6c565b915061319b83611f6c565b9250826131ab576131aa613156565b5b828204905092915050565b6131bf81611f36565b82525050565b6131ce81611f6c565b82525050565b600082825260208201905092915050565b60006131f082613065565b6131fa81856131d4565b935061320a818560208601613081565b61321381611e0c565b840191505092915050565b600060808301600083015161323660008601826131b6565b50602083015161324960208601826131c5565b50604083015161325c60408601826131c5565b506060830151848203606086015261327482826131e5565b9150508091505092915050565b600061328c82611ca0565b9050919050565b61329c81613281565b82525050565b600060808201905081810360008301526132bc818761321e565b90506132cb6020830186613293565b6132d86040830185613293565b6132e56060830184612cd5565b95945050505050565b60006132f982613065565b6133038185612f45565b9350613313818560208601613081565b80840191505092915050565b600061332b82846132ee565b915081905092915050565b61333f81613281565b82525050565b61334e816121cc565b82525050565b61335d81611d59565b82525050565b61336c81612240565b82525050565b610180820160008201516133896000850182613336565b50602082015161339c6020850182613336565b5060408201516133af6040850182613345565b5060608201516133c26060850182613345565b5060808201516133d56080850182613345565b5060a08201516133e860a0850182613354565b5060c08201516133fb60c0850182613354565b5060e082015161340e60e0850182613354565b50610100820151613423610100850182613354565b506101208201516134386101208501826131b6565b5061014082015161344d610140850182613363565b506101608201516134626101608501826131c5565b50505050565b60006101808201905061347e6000830184613372565b92915050565b60008151905061349381611f40565b92915050565b6000602082840312156134af576134ae611bd3565b5b60006134bd84828501613484565b91505092915050565b6134cf81611f36565b82525050565b60006020820190506134ea60008301846134c6565b92915050565b6005811061350157613500612ca6565b5b50565b6000819050613512826134f0565b919050565b600061352282613504565b9050919050565b61353281613517565b82525050565b613541816123c7565b82525050565b60808201600082015161355d6000850182613529565b5060208201516135706020850182613538565b50604082015161358360408501826131b6565b50606082015161359660608501826131b6565b50505050565b6135a5816121cc565b82525050565b6000610220820190506135c16000830186613372565b6135cf610180830185613547565b6135dd61020083018461359c565b949350505050565b6000815190506135f4816121e8565b92915050565b6000806040838503121561361157613610611bd3565b5b600061361f858286016135e5565b9250506020613630858286016135e5565b9150509250929050565b6000613645826121cc565b9150613650836121cc565b925082820190506fffffffffffffffffffffffffffffffff81111561367857613677612c43565b5b92915050565b610140820160008201516136956000850182613336565b5060208201516136a86020850182613336565b5060408201516136bb6040850182613345565b5060608201516136ce6060850182613345565b5060808201516136e16080850182613354565b5060a08201516136f460a0850182613354565b5060c082015161370760c0850182613354565b5060e082015161371a60e08501826131b6565b5061010082015161372f610100850182613363565b506101208201516137446101208501826131c5565b50505050565b60006101e082019050613760600083018661367e565b61376e610140830185613547565b61377c6101c083018461359c565b949350505050565b6101008201600082015161379b6000850182613336565b5060208201516137ae6020850182613336565b5060408201516137c16040850182613345565b5060608201516137d46060850182613345565b5060808201516137e76080850182613354565b5060a08201516137fa60a0850182613354565b5060c082015161380d60c0850182613354565b5060e082015161382060e08501826131c5565b50505050565b60006101a08201905061383c6000830186613784565b61384a610100830185613547565b61385861018083018461359c565b949350505050565b7f46696c6c51756f74655472616e73666f726d65722f4f54435f4f524445525f4660008201527f494c4c5f4641494c454400000000000000000000000000000000000000000000602082015250565b60006138bc602a83612e4c565b91506138c782613860565b604082019050919050565b600060208201905081810360008301526138eb816138af565b9050919050565b60006060820190506139076000830186611d6b565b6139146020830185612cd5565b6139216040830184612cd5565b949350505050565b600060408201905061393e6000830185611d6b565b61394b6020830184611d6b565b9392505050565b6004811061396357613962612ca6565b5b50565b600081905061397482613952565b919050565b600061398482613966565b9050919050565b61399481613979565b82525050565b60006040820190506139af600083018561398b565b6139bc6020830184612cd5565b939250505056fea26469706673582212200dc5ca470462dc784c5645e49a4f3a003a21655acefd4ccdefe1fc51a57093a164736f6c634300081c0033",
  "linkReferences": {},
  "deployedLinkReferences": {}
}