{
  "_format": "hh-sol-artifact-1",
  "contractName": "LiquidityProviderFeature",
  "sourceName": "contracts/src/features/LiquidityProviderFeature.sol",
  "abi": [
    {
      "inputs": [
        {
          "internalType": "contract LiquidityProviderSandbox",
          "name": "sandbox_",
          "type": "address"
        }
      ],
      "stateMutability": "nonpayable",
      "type": "constructor"
    },
    {
      "anonymous": false,
      "inputs": [
        {
          "indexed": false,
          "internalType": "contract IERC20Token",
          "name": "inputToken",
          "type": "address"
        },
        {
          "indexed": false,
          "internalType": "contract IERC20Token",
          "name": "outputToken",
          "type": "address"
        },
        {
          "indexed": false,
          "internalType": "uint256",
          "name": "inputTokenAmount",
          "type": "uint256"
        },
        {
          "indexed": false,
          "internalType": "uint256",
          "name": "outputTokenAmount",
          "type": "uint256"
        },
        {
          "indexed": false,
          "internalType": "contract ILiquidityProvider",
          "name": "provider",
          "type": "address"
        },
        {
          "indexed": false,
          "internalType": "address",
          "name": "recipient",
          "type": "address"
        }
      ],
      "name": "LiquidityProviderSwap",
      "type": "event"
    },
    {
      "inputs": [],
      "name": "FEATURE_NAME",
      "outputs": [
        {
          "internalType": "string",
          "name": "",
          "type": "string"
        }
      ],
      "stateMutability": "view",
      "type": "function"
    },
    {
      "inputs": [],
      "name": "FEATURE_VERSION",
      "outputs": [
        {
          "internalType": "uint256",
          "name": "",
          "type": "uint256"
        }
      ],
      "stateMutability": "view",
      "type": "function"
    },
    {
      "inputs": [],
      "name": "migrate",
      "outputs": [
        {
          "internalType": "bytes4",
          "name": "success",
          "type": "bytes4"
        }
      ],
      "stateMutability": "nonpayable",
      "type": "function"
    },
    {
      "inputs": [],
      "name": "sandbox",
      "outputs": [
        {
          "internalType": "contract ILiquidityProviderSandbox",
          "name": "",
          "type": "address"
        }
      ],
      "stateMutability": "view",
      "type": "function"
    },
    {
      "inputs": [
        {
          "internalType": "contract IERC20Token",
          "name": "inputToken",
          "type": "address"
        },
        {
          "internalType": "contract IERC20Token",
          "name": "outputToken",
          "type": "address"
        },
        {
          "internalType": "contract ILiquidityProvider",
          "name": "provider",
          "type": "address"
        },
        {
          "internalType": "address",
          "name": "recipient",
          "type": "address"
        },
        {
          "internalType": "uint256",
          "name": "sellAmount",
          "type": "uint256"
        },
        {
          "internalType": "uint256",
          "name": "minBuyAmount",
          "type": "uint256"
        },
        {
          "internalType": "bytes",
          "name": "auxiliaryData",
          "type": "bytes"
        }
      ],
      "name": "sellToLiquidityProvider",
      "outputs": [
        {
          "internalType": "uint256",
          "name": "boughtAmount",
          "type": "uint256"
        }
      ],
      "stateMutability": "payable",
      "type": "function"
    }
  ],
  "bytecode": "0x60e06040526100186001600060046100ba60201b60201c565b60a09081525034801561002a57600080fd5b50604051611348380380611348833981810160405281019061004c9190610159565b3073ffffffffffffffffffffffffffffffffffffffff1660808173ffffffffffffffffffffffffffffffffffffffff16815250508073ffffffffffffffffffffffffffffffffffffffff1660c08173ffffffffffffffffffffffffffffffffffffffff168152505050610186565b60008163ffffffff1660208463ffffffff16901b60408663ffffffff16901b171790509392505050565b600080fd5b600073ffffffffffffffffffffffffffffffffffffffff82169050919050565b6000610114826100e9565b9050919050565b600061012682610109565b9050919050565b6101368161011b565b811461014157600080fd5b50565b6000815190506101538161012d565b92915050565b60006020828403121561016f5761016e6100e4565b5b600061017d84828501610144565b91505092915050565b60805160a05160c05161117e6101ca60003960008181610151015281816102fd0152818161044901526105870152600061012d01526000610731015261117e6000f3fe60806040526004361061004a5760003560e01c8063031b905c1461004f5780631984916f1461007a5780636ae4b4f7146100a55780638fd3ab80146100d0578063f7fcd384146100fb575b600080fd5b34801561005b57600080fd5b5061006461012b565b60405161007191906109d3565b60405180910390f35b34801561008657600080fd5b5061008f61014f565b60405161009c9190610a6d565b60405180910390f35b3480156100b157600080fd5b506100ba610173565b6040516100c79190610b18565b60405180910390f35b3480156100dc57600080fd5b506100e56101ac565b6040516100f29190610b75565b60405180910390f35b61011560048036038101906101109190610ce5565b6101cb565b60405161012291906109d3565b60405180910390f35b7f000000000000000000000000000000000000000000000000000000000000000081565b7f000000000000000000000000000000000000000000000000000000000000000081565b6040518060400160405280601881526020017f4c697175696469747950726f766964657246656174757265000000000000000081525081565b60006101be63f7fcd38460e01b610712565b632c64c5ef60e01b905090565b60008073ffffffffffffffffffffffffffffffffffffffff168673ffffffffffffffffffffffffffffffffffffffff1603610204573395505b6000341115610255578673ffffffffffffffffffffffffffffffffffffffff166108fc349081150290604051600060405180830381858888f19350505050158015610253573d6000803e3d6000fd5b505b61025e896107a2565b61026f5761026e893389886107ee565b5b610278896107a2565b1561041d5760008873ffffffffffffffffffffffffffffffffffffffff166370a08231886040518263ffffffff1660e01b81526004016102b89190610db6565b602060405180830381865afa1580156102d5573d6000803e3d6000fd5b505050506040513d601f19601f820116820180604052508101906102f99190610de6565b90507f000000000000000000000000000000000000000000000000000000000000000073ffffffffffffffffffffffffffffffffffffffff16636f025ee6898b8a8989896040518763ffffffff1660e01b815260040161035e96959493929190610ea2565b600060405180830381600087803b15801561037857600080fd5b505af115801561038c573d6000803e3d6000fd5b50505050808973ffffffffffffffffffffffffffffffffffffffff166370a08231896040518263ffffffff1660e01b81526004016103ca9190610db6565b602060405180830381865afa1580156103e7573d6000803e3d6000fd5b505050506040513d601f19601f8201168201806040525081019061040b9190610de6565b6104159190610f2d565b9150506106a6565b610426886107a2565b156105075760008673ffffffffffffffffffffffffffffffffffffffff163190507f000000000000000000000000000000000000000000000000000000000000000073ffffffffffffffffffffffffffffffffffffffff166314549137898c8a8989896040518763ffffffff1660e01b81526004016104aa96959493929190610ea2565b600060405180830381600087803b1580156104c457600080fd5b505af11580156104d8573d6000803e3d6000fd5b50505050808773ffffffffffffffffffffffffffffffffffffffff16316104ff9190610f2d565b9150506106a5565b60008873ffffffffffffffffffffffffffffffffffffffff166370a08231886040518263ffffffff1660e01b81526004016105429190610db6565b602060405180830381865afa15801561055f573d6000803e3d6000fd5b505050506040513d601f19601f820116820180604052508101906105839190610de6565b90507f000000000000000000000000000000000000000000000000000000000000000073ffffffffffffffffffffffffffffffffffffffff1663bb503e21898c8c8b8a8a8a6040518863ffffffff1660e01b81526004016105ea9796959493929190610f61565b600060405180830381600087803b15801561060457600080fd5b505af1158015610618573d6000803e3d6000fd5b50505050808973ffffffffffffffffffffffffffffffffffffffff166370a08231896040518263ffffffff1660e01b81526004016106569190610db6565b602060405180830381865afa158015610673573d6000803e3d6000fd5b505050506040513d601f19601f820116820180604052508101906106979190610de6565b6106a19190610f2d565b9150505b5b838110156106c5576106c46106bf888a8c89868a61090b565b6109b2565b5b7f40a6ba9513d09e3488135e0e0d10e2d4382b792720155b144cbea89ac9db6d34898987848b8b6040516106fe96959493929190610fcb565b60405180910390a198975050505050505050565b3073ffffffffffffffffffffffffffffffffffffffff16636eb224cb827f00000000000000000000000000000000000000000000000000000000000000006040518363ffffffff1660e01b815260040161076d92919061102c565b600060405180830381600087803b15801561078757600080fd5b505af115801561079b573d6000803e3d6000fd5b5050505050565b600073eeeeeeeeeeeeeeeeeeeeeeeeeeeeeeeeeeeeeeee73ffffffffffffffffffffffffffffffffffffffff168273ffffffffffffffffffffffffffffffffffffffff16149050919050565b3073ffffffffffffffffffffffffffffffffffffffff168473ffffffffffffffffffffffffffffffffffffffff160361085c576040517f08c379a0000000000000000000000000000000000000000000000000000000008152600401610853906110c7565b60405180910390fd5b6040517f23b872dd00000000000000000000000000000000000000000000000000000000815273ffffffffffffffffffffffffffffffffffffffff8416600482015273ffffffffffffffffffffffffffffffffffffffff83166024820152816044820152602081606483600073ffffffffffffffffffffffffffffffffffffffff8a165af13d6001835114602082101516811517821691508161090257806000843e8083fd5b50505050505050565b60607f35bad87d99200a5ed5bac54711418e66639feabc2339afdb2af60cfca28d5fbd878787878787604051602401610949969594939291906110e7565b604051602081830303815290604052907bffffffffffffffffffffffffffffffffffffffffffffffffffffffff19166020820180517bffffffffffffffffffffffffffffffffffffffffffffffffffffffff838183161783525050505090509695505050505050565b805160208201fd5b6000819050919050565b6109cd816109ba565b82525050565b60006020820190506109e860008301846109c4565b92915050565b600073ffffffffffffffffffffffffffffffffffffffff82169050919050565b6000819050919050565b6000610a33610a2e610a29846109ee565b610a0e565b6109ee565b9050919050565b6000610a4582610a18565b9050919050565b6000610a5782610a3a565b9050919050565b610a6781610a4c565b82525050565b6000602082019050610a826000830184610a5e565b92915050565b600081519050919050565b600082825260208201905092915050565b60005b83811015610ac2578082015181840152602081019050610aa7565b60008484015250505050565b6000601f19601f8301169050919050565b6000610aea82610a88565b610af48185610a93565b9350610b04818560208601610aa4565b610b0d81610ace565b840191505092915050565b60006020820190508181036000830152610b328184610adf565b905092915050565b60007fffffffff0000000000000000000000000000000000000000000000000000000082169050919050565b610b6f81610b3a565b82525050565b6000602082019050610b8a6000830184610b66565b92915050565b600080fd5b600080fd5b6000610ba5826109ee565b9050919050565b6000610bb782610b9a565b9050919050565b610bc781610bac565b8114610bd257600080fd5b50565b600081359050610be481610bbe565b92915050565b6000610bf582610b9a565b9050919050565b610c0581610bea565b8114610c1057600080fd5b50565b600081359050610c2281610bfc565b92915050565b610c3181610b9a565b8114610c3c57600080fd5b50565b600081359050610c4e81610c28565b92915050565b610c5d816109ba565b8114610c6857600080fd5b50565b600081359050610c7a81610c54565b92915050565b600080fd5b600080fd5b600080fd5b60008083601f840112610ca557610ca4610c80565b5b8235905067ffffffffffffffff811115610cc257610cc1610c85565b5b602083019150836001820283011115610cde57610cdd610c8a565b5b9250929050565b60008060008060008060008060e0898b031215610d0557610d04610b90565b5b6000610d138b828c01610bd5565b9850506020610d248b828c01610bd5565b9750506040610d358b828c01610c13565b9650506060610d468b828c01610c3f565b9550506080610d578b828c01610c6b565b94505060a0610d688b828c01610c6b565b93505060c089013567ffffffffffffffff811115610d8957610d88610b95565b5b610d958b828c01610c8f565b92509250509295985092959890939650565b610db081610b9a565b82525050565b6000602082019050610dcb6000830184610da7565b92915050565b600081519050610de081610c54565b92915050565b600060208284031215610dfc57610dfb610b90565b5b6000610e0a84828501610dd1565b91505092915050565b6000610e1e82610a3a565b9050919050565b610e2e81610e13565b82525050565b6000610e3f82610a3a565b9050919050565b610e4f81610e34565b82525050565b600082825260208201905092915050565b82818337600083830152505050565b6000610e818385610e55565b9350610e8e838584610e66565b610e9783610ace565b840190509392505050565b600060a082019050610eb76000830189610e25565b610ec46020830188610e46565b610ed16040830187610da7565b610ede60608301866109c4565b8181036080830152610ef1818486610e75565b9050979650505050505050565b7f4e487b7100000000000000000000000000000000000000000000000000000000600052601160045260246000fd5b6000610f38826109ba565b9150610f43836109ba565b9250828203905081811115610f5b57610f5a610efe565b5b92915050565b600060c082019050610f76600083018a610e25565b610f836020830189610e46565b610f906040830188610e46565b610f9d6060830187610da7565b610faa60808301866109c4565b81810360a0830152610fbd818486610e75565b905098975050505050505050565b600060c082019050610fe06000830189610e46565b610fed6020830188610e46565b610ffa60408301876109c4565b61100760608301866109c4565b6110146080830185610e25565b61102160a0830184610da7565b979650505050505050565b60006040820190506110416000830185610b66565b61104e6020830184610da7565b9392505050565b7f466978696e546f6b656e5370656e6465722f43414e4e4f545f494e564f4b455f60008201527f53454c4600000000000000000000000000000000000000000000000000000000602082015250565b60006110b1602483610a93565b91506110bc82611055565b604082019050919050565b600060208201905081810360008301526110e0816110a4565b9050919050565b600060c0820190506110fc6000830189610da7565b6111096020830188610da7565b6111166040830187610da7565b61112360608301866109c4565b61113060808301856109c4565b61113d60a08301846109c4565b97965050505050505056fea2646970667358221220e5ff2b3849445325ba99e17ea3066749430c929ed93f1798cb2d400678bcb72b64736f6c634300081c0033",
  "linkReferences": {},
  "deployedLinkReferences": {}
}