{
  "_format": "hh-sol-artifact-1",
  "contractName": "MetaTransactionsFeature",
  "sourceName": "contracts/src/features/MetaTransactionsFeature.sol",
  "abi": [
    {
      "inputs": [
        {
          "internalType": "address",
          "name": "zeroExAddress",
          "type": "address"
        }
      ],
      "stateMutability": "nonpayable",
      "type": "constructor"
    },
    {
      "anonymous": false,
      "inputs": [
        {
          "indexed": false,
          "internalType": "bytes32",
          "name": "hash",
          "type": "bytes32"
        },
        {
          "indexed": true,
          "internalType": "bytes4",
          "name": "selector",
          "type": "bytes4"
        },
        {
          "indexed": false,
          "internalType": "address",
          "name": "signer",
          "type": "address"
        },
        {
          "indexed": false,
          "internalType": "address",
          "name": "sender",
          "type": "address"
        }
      ],
      "name": "MetaTransactionExecuted",
      "type": "event"
    },
    {
      "inputs": [],
      "name": "EIP712_DOMAIN_SEPARATOR",
      "outputs": [
        {
          "internalType": "bytes32",
          "name": "",
          "type": "bytes32"
        }
      ],
      "stateMutability": "view",
      "type": "function"
    },
    {
      "inputs": [],
      "name": "FEATURE_NAME",
      "outputs": [
        {
          "internalType": "string",
          "name": "",
          "type": "string"
        }
      ],
      "stateMutability": "view",
      "type": "function"
    },
    {
      "inputs": [],
      "name": "FEATURE_VERSION",
      "outputs": [
        {
          "internalType": "uint256",
          "name": "",
          "type": "uint256"
        }
      ],
      "stateMutability": "view",
      "type": "function"
    },
    {
      "inputs": [],
      "name": "MTX_EIP712_TYPEHASH",
      "outputs": [
        {
          "internalType": "bytes32",
          "name": "",
          "type": "bytes32"
        }
      ],
      "stateMutability": "view",
      "type": "function"
    },
    {
      "inputs": [
        {
          "components": [
            {
              "internalType": "address payable",
              "name": "signer",
              "type": "address"
            },
            {
              "internalType": "address",
              "name": "sender",
              "type": "address"
            },
            {
              "internalType": "uint256",
              "name": "minGasPrice",
              "type": "uint256"
            },
            {
              "internalType": "uint256",
              "name": "maxGasPrice",
              "type": "uint256"
            },
            {
              "internalType": "uint256",
              "name": "expirationTimeSeconds",
              "type": "uint256"
            },
            {
              "internalType": "uint256",
              "name": "salt",
              "type": "uint256"
            },
            {
              "internalType": "bytes",
              "name": "callData",
              "type": "bytes"
            },
            {
              "internalType": "uint256",
              "name": "value",
              "type": "uint256"
            },
            {
              "internalType": "contract IERC20Token",
              "name": "feeToken",
              "type": "address"
            },
            {
              "internalType": "uint256",
              "name": "feeAmount",
              "type": "uint256"
            }
          ],
          "internalType": "struct IMetaTransactionsFeature.MetaTransactionData[]",
          "name": "mtxs",
          "type": "tuple[]"
        },
        {
          "components": [
            {
              "internalType": "enum LibSignature.SignatureType",
              "name": "signatureType",
              "type": "uint8"
            },
            {
              "internalType": "uint8",
              "name": "v",
              "type": "uint8"
            },
            {
              "internalType": "bytes32",
              "name": "r",
              "type": "bytes32"
            },
            {
              "internalType": "bytes32",
              "name": "s",
              "type": "bytes32"
            }
          ],
          "internalType": "struct LibSignature.Signature[]",
          "name": "signatures",
          "type": "tuple[]"
        }
      ],
      "name": "batchExecuteMetaTransactions",
      "outputs": [
        {
          "internalType": "bytes[]",
          "name": "returnResults",
          "type": "bytes[]"
        }
      ],
      "stateMutability": "payable",
      "type": "function"
    },
    {
      "inputs": [
        {
          "components": [
            {
              "internalType": "address payable",
              "name": "signer",
              "type": "address"
            },
            {
              "internalType": "address",
              "name": "sender",
              "type": "address"
            },
            {
              "internalType": "uint256",
              "name": "minGasPrice",
              "type": "uint256"
            },
            {
              "internalType": "uint256",
              "name": "maxGasPrice",
              "type": "uint256"
            },
            {
              "internalType": "uint256",
              "name": "expirationTimeSeconds",
              "type": "uint256"
            },
            {
              "internalType": "uint256",
              "name": "salt",
              "type": "uint256"
            },
            {
              "internalType": "bytes",
              "name": "callData",
              "type": "bytes"
            },
            {
              "internalType": "uint256",
              "name": "value",
              "type": "uint256"
            },
            {
              "internalType": "contract IERC20Token",
              "name": "feeToken",
              "type": "address"
            },
            {
              "internalType": "uint256",
              "name": "feeAmount",
              "type": "uint256"
            }
          ],
          "internalType": "struct IMetaTransactionsFeature.MetaTransactionData",
          "name": "mtx",
          "type": "tuple"
        },
        {
          "components": [
            {
              "internalType": "enum LibSignature.SignatureType",
              "name": "signatureType",
              "type": "uint8"
            },
            {
              "internalType": "uint8",
              "name": "v",
              "type": "uint8"
            },
            {
              "internalType": "bytes32",
              "name": "r",
              "type": "bytes32"
            },
            {
              "internalType": "bytes32",
              "name": "s",
              "type": "bytes32"
            }
          ],
          "internalType": "struct LibSignature.Signature",
          "name": "signature",
          "type": "tuple"
        }
      ],
      "name": "executeMetaTransaction",
      "outputs": [
        {
          "internalType": "bytes",
          "name": "returnResult",
          "type": "bytes"
        }
      ],
      "stateMutability": "payable",
      "type": "function"
    },
    {
      "inputs": [
        {
          "components": [
            {
              "internalType": "address payable",
              "name": "signer",
              "type": "address"
            },
            {
              "internalType": "address",
              "name": "sender",
              "type": "address"
            },
            {
              "internalType": "uint256",
              "name": "minGasPrice",
              "type": "uint256"
            },
            {
              "internalType": "uint256",
              "name": "maxGasPrice",
              "type": "uint256"
            },
            {
              "internalType": "uint256",
              "name": "expirationTimeSeconds",
              "type": "uint256"
            },
            {
              "internalType": "uint256",
              "name": "salt",
              "type": "uint256"
            },
            {
              "internalType": "bytes",
              "name": "callData",
              "type": "bytes"
            },
            {
              "internalType": "uint256",
              "name": "value",
              "type": "uint256"
            },
            {
              "internalType": "contract IERC20Token",
              "name": "feeToken",
              "type": "address"
            },
            {
              "internalType": "uint256",
              "name": "feeAmount",
              "type": "uint256"
            }
          ],
          "internalType": "struct IMetaTransactionsFeature.MetaTransactionData",
          "name": "mtx",
          "type": "tuple"
        }
      ],
      "name": "getMetaTransactionExecutedBlock",
      "outputs": [
        {
          "internalType": "uint256",
          "name": "blockNumber",
          "type": "uint256"
        }
      ],
      "stateMutability": "view",
      "type": "function"
    },
    {
      "inputs": [
        {
          "components": [
            {
              "internalType": "address payable",
              "name": "signer",
              "type": "address"
            },
            {
              "internalType": "address",
              "name": "sender",
              "type": "address"
            },
            {
              "internalType": "uint256",
              "name": "minGasPrice",
              "type": "uint256"
            },
            {
              "internalType": "uint256",
              "name": "maxGasPrice",
              "type": "uint256"
            },
            {
              "internalType": "uint256",
              "name": "expirationTimeSeconds",
              "type": "uint256"
            },
            {
              "internalType": "uint256",
              "name": "salt",
              "type": "uint256"
            },
            {
              "internalType": "bytes",
              "name": "callData",
              "type": "bytes"
            },
            {
              "internalType": "uint256",
              "name": "value",
              "type": "uint256"
            },
            {
              "internalType": "contract IERC20Token",
              "name": "feeToken",
              "type": "address"
            },
            {
              "internalType": "uint256",
              "name": "feeAmount",
              "type": "uint256"
            }
          ],
          "internalType": "struct IMetaTransactionsFeature.MetaTransactionData",
          "name": "mtx",
          "type": "tuple"
        }
      ],
      "name": "getMetaTransactionHash",
      "outputs": [
        {
          "internalType": "bytes32",
          "name": "mtxHash",
          "type": "bytes32"
        }
      ],
      "stateMutability": "view",
      "type": "function"
    },
    {
      "inputs": [
        {
          "internalType": "bytes32",
          "name": "mtxHash",
          "type": "bytes32"
        }
      ],
      "name": "getMetaTransactionHashExecutedBlock",
      "outputs": [
        {
          "internalType": "uint256",
          "name": "blockNumber",
          "type": "uint256"
        }
      ],
      "stateMutability": "view",
      "type": "function"
    },
    {
      "inputs": [],
      "name": "migrate",
      "outputs": [
        {
          "internalType": "bytes4",
          "name": "success",
          "type": "bytes4"
        }
      ],
      "stateMutability": "nonpayable",
      "type": "function"
    }
  ],
  "bytecode": "0x61010060405261001960016002600161014c60201b60201c565b60c0908152507fe866282978e74dc892efa3621df30a058ca4d374a338824c0b89f1dfdcb0ea0460e09081525034801561005257600080fd5b5060405161473d38038061473d833981810160405281019061007491906101d9565b803073ffffffffffffffffffffffffffffffffffffffff1660808173ffffffffffffffffffffffffffffffffffffffff168152505060004690507f8b73c3c69bb8fe3d512ecc4cf759cc79239f7b179b0ffacaa9a75d522b39400f7f9e5dae0addaf20578aeb5d70341d092b53b4e14480ac5726438fd436df7ba4277f06c015bd22b4c69690933c1058878ebdfef31f9aaae40bbe86d8a09fe1b2972c8385604051602001610127959493929190610247565b6040516020818303038152906040528051906020012060a0818152505050505061029a565b60008163ffffffff1660208463ffffffff16901b60408663ffffffff16901b171790509392505050565b600080fd5b600073ffffffffffffffffffffffffffffffffffffffff82169050919050565b60006101a68261017b565b9050919050565b6101b68161019b565b81146101c157600080fd5b50565b6000815190506101d3816101ad565b92915050565b6000602082840312156101ef576101ee610176565b5b60006101fd848285016101c4565b91505092915050565b6000819050919050565b61021981610206565b82525050565b6000819050919050565b6102328161021f565b82525050565b6102418161019b565b82525050565b600060a08201905061025c6000830188610210565b6102696020830187610210565b6102766040830186610210565b6102836060830185610229565b6102906080830184610238565b9695505050505050565b60805160a05160c05160e05161445c6102e16000396000818161055c01526108ba015260006102860152600081816108de0152610d5701526000610ce2015261445c6000f3fe6080604052600436106100915760003560e01c80638fd3ab80116100595780638fd3ab8014610196578063ae550497146101c1578063c5579ec8146101fe578063d036092d1461022e578063dab400f31461025957610091565b8063031b905c146100965780633d61ed3e146100c15780633fb2da38146100f15780636ae4b4f71461012e57806372d17d0314610159575b600080fd5b3480156100a257600080fd5b506100ab610284565b6040516100b89190612496565b60405180910390f35b6100db60048036038101906100d69190612939565b6102a8565b6040516100e89190612a14565b60405180910390f35b3480156100fd57600080fd5b5061011860048036038101906101139190612a36565b61047d565b6040516101259190612496565b60405180910390f35b34801561013a57600080fd5b50610143610497565b6040516101509190612ad4565b60405180910390f35b34801561016557600080fd5b50610180600480360381019061017b9190612af6565b6104d0565b60405161018d9190612496565b60405180910390f35b3480156101a257600080fd5b506101ab6104f6565b6040516101b89190612b5e565b60405180910390f35b3480156101cd57600080fd5b506101e860048036038101906101e39190612a36565b610555565b6040516101f59190612b88565b60405180910390f35b61021860048036038101906102139190612d4c565b6105f2565b6040516102259190612ed0565b60405180910390f35b34801561023a57600080fd5b506102436108b8565b6040516102509190612b88565b60405180910390f35b34801561026557600080fd5b5061026e6108dc565b60405161027b9190612b88565b60405180910390f35b7f000000000000000000000000000000000000000000000000000000000000000081565b6060600160006102b6610900565b90506000816000015490506000838216146103355761033461032f610329600080368080601f016020809104026020016040519081016040528093929190818152602001838380828437600081840152601f19601f8201169050808301925050505050505061091690919063ffffffff16565b8561096a565b610a05565b5b8281178260000181905550506000344761034f9190612f21565b90506103596120af565b33816000019073ffffffffffffffffffffffffffffffffffffffff16908173ffffffffffffffffffffffffffffffffffffffff16815250508681604001819052506103a387610555565b8160200181815250508581606001819052506103be81610a0d565b94505060006103cd3447610c94565b90506000811115610420573373ffffffffffffffffffffffffffffffffffffffff166108fc829081150290604051600060405180830381858888f1935050505015801561041e573d6000803e3d6000fd5b505b5047811115610464576040517f08c379a000000000000000000000000000000000000000000000000000000000815260040161045b90612fa1565b60405180910390fd5b5081198160000154168160000181905550505092915050565b600061049061048b83610555565b6104d0565b9050919050565b6040518060400160405280601081526020017f4d6574615472616e73616374696f6e730000000000000000000000000000000081525081565b60006104da610cad565b6000016000838152602001908152602001600020549050919050565b6000610508633d61ed3e60e01b610cc3565b61051863c5579ec860e01b610cc3565b610528633fb2da3860e01b610cc3565b6105386372d17d0360e01b610cc3565b61054863ae55049760e01b610cc3565b632c64c5ef60e01b905090565b60006105eb7f0000000000000000000000000000000000000000000000000000000000000000836000015184602001518560400151866060015187608001518860a001518960c00151805190602001208a60e001518b61010001518c61012001516040516020016105d09b9a9998979695949392919061303e565b60405160208183030381529060405280519060200120610d53565b9050919050565b606060016000610600610900565b905060008160000154905060008382161461067f5761067e610679610673600080368080601f016020809104026020016040519081016040528093929190818152602001838380828437600081840152601f19601f8201169050808301925050505050505061091690919063ffffffff16565b8561096a565b610a05565b5b828117826000018190555050600034476106999190612f21565b905084518651146106b9576106b86106b387518751610da5565b610a05565b5b855167ffffffffffffffff8111156106d4576106d36124db565b5b60405190808252806020026020018201604052801561070757816020015b60608152602001906001900390816106f25790505b50935060005b86518110156107fb5761071e6120af565b33816000019073ffffffffffffffffffffffffffffffffffffffff16908173ffffffffffffffffffffffffffffffffffffffff1681525050878281518110610769576107686130e9565b5b6020026020010151816040018190525061079c88838151811061078f5761078e6130e9565b5b6020026020010151610555565b8160200181815250508682815181106107b8576107b76130e9565b5b602002602001015181606001819052506107d181610a0d565b8683815181106107e4576107e36130e9565b5b60200260200101819052505080600101905061070d565b5060006108083447610c94565b9050600081111561085b573373ffffffffffffffffffffffffffffffffffffffff166108fc829081150290604051600060405180830381858888f19350505050158015610859573d6000803e3d6000fd5b505b504781111561089f576040517f08c379a000000000000000000000000000000000000000000000000000000000815260040161089690612fa1565b60405180910390fd5b5081198160000154168160000181905550505092915050565b7f000000000000000000000000000000000000000000000000000000000000000081565b7f000000000000000000000000000000000000000000000000000000000000000081565b60008061090d6006610e40565b90508091505090565b60006004826109259190613118565b8351101561094f5761094e610949600385516004866109449190613118565b610e6c565b610a05565b5b60208261095c9190613118565b915081830151905092915050565b60607fc7a7103e21e41a5c3158b3028d34cb9bb9593b10b1892f49d7187efa71219d4e83836040516024016109a092919061314c565b604051602081830303815290604052907bffffffffffffffffffffffffffffffffffffffffffffffffffffffff19166020820180517bffffffffffffffffffffffffffffffffffffffffffffffffffffffff8381831617835250505050905092915050565b805160208201fd5b6060610a1882610ef1565b43610a21610cad565b600001600084602001518152602001908152602001600020819055506000826040015161012001511115610a7a57610a7982604001516101000151836040015160000151846000015185604001516101200151611124565b5b610a966000836040015160c0015161091690919063ffffffff16565b82608001907bffffffffffffffffffffffffffffffffffffffffffffffffffffffff191690817bffffffffffffffffffffffffffffffffffffffffffffffffffffffff19168152505063415565b060e01b7bffffffffffffffffffffffffffffffffffffffffffffffffffffffff191682608001517bffffffffffffffffffffffffffffffffffffffffffffffffffffffff191603610b3f57610b3882611241565b9050610c1c565b63f6274f6660e01b7bffffffffffffffffffffffffffffffffffffffffffffffffffffffff191682608001517bffffffffffffffffffffffffffffffffffffffffffffffffffffffff191603610b9f57610b9882611470565b9050610c1b565b63aa77476c60e01b7bffffffffffffffffffffffffffffffffffffffffffffffffffffffff191682608001517bffffffffffffffffffffffffffffffffffffffffffffffffffffffff191603610bff57610bf88261155f565b9050610c1a565b610c19610c1483602001518460800151611659565b610a05565b5b5b5b81608001517bffffffffffffffffffffffffffffffffffffffffffffffffffffffff19167f7f4fe3ff8ae440e1570c558da08440b26f89fb1c1f2910cd91ca6452955f121a8360200151846040015160000151856040015160200151604051610c8793929190613196565b60405180910390a2919050565b6000818310610ca35781610ca5565b825b905092915050565b600080610cba6005610e40565b90508091505090565b3073ffffffffffffffffffffffffffffffffffffffff16636eb224cb827f00000000000000000000000000000000000000000000000000000000000000006040518363ffffffff1660e01b8152600401610d1e9291906131cd565b600060405180830381600087803b158015610d3857600080fd5b505af1158015610d4c573d6000803e3d6000fd5b5050505050565b60007f000000000000000000000000000000000000000000000000000000000000000082604051602001610d8892919061326e565b604051602081830303815290604052805190602001209050919050565b60607f52974c3a86e985173f72e2fb84ba2bfca8fb3b7c5031eb8077ebd59458abf2a48383604051602401610ddb9291906132a5565b604051602081830303815290604052907bffffffffffffffffffffffffffffffffffffffffffffffffffffffff19166020820180517bffffffffffffffffffffffffffffffffffffffffffffffffffffffff8381831617835250505050905092915050565b60006080600183600b811115610e5957610e586132ce565b5b610e639190613118565b901b9050919050565b6060632800659560e01b848484604051602401610e8b93929190613345565b604051602081830303815290604052907bffffffffffffffffffffffffffffffffffffffffffffffffffffffff19166020820180517bffffffffffffffffffffffffffffffffffffffffffffffffffffffff838183161783525050505090509392505050565b600073ffffffffffffffffffffffffffffffffffffffff1681604001516020015173ffffffffffffffffffffffffffffffffffffffff1614158015610f6e5750806000015173ffffffffffffffffffffffffffffffffffffffff1681604001516020015173ffffffffffffffffffffffffffffffffffffffff1614155b15610f9757610f96610f91826020015183600001518460400151602001516116f4565b610a05565b5b4281604001516080015111610fc657610fc5610fc0826020015142846040015160800151611792565b610a05565b5b3a8160400151604001511180610fe357503a816040015160600151105b156110115761101061100b82602001513a846040015160400151856040015160600151611830565b610a05565b5b478160a00181815250508060a00151816040015160e0015111156110535761105261104d82602001518360a00151846040015160e001516118d1565b610a05565b5b80604001516000015173ffffffffffffffffffffffffffffffffffffffff166110848260200151836060015161196f565b73ffffffffffffffffffffffffffffffffffffffff16146110d0576110cf6110ca6004836020015184604001516000015160405180602001604052806000815250611b1c565b610a05565b5b6110d8610cad565b600001600082602001518152602001908152602001600020548160c001818152505060008160c00151146111215761112061111b82602001518360c00151611bbd565b610a05565b5b50565b3073ffffffffffffffffffffffffffffffffffffffff168473ffffffffffffffffffffffffffffffffffffffff1603611192576040517f08c379a0000000000000000000000000000000000000000000000000000000008152600401611189906133ee565b60405180910390fd5b6040517f23b872dd00000000000000000000000000000000000000000000000000000000815273ffffffffffffffffffffffffffffffffffffffff8416600482015273ffffffffffffffffffffffffffffffffffffffff83166024820152816044820152602081606483600073ffffffffffffffffffffffffffffffffffffffff8a165af13d6001835114602082101516811517821691508161123857806000843e8083fd5b50505050505050565b606061124b612130565b600060206004856040015160c00151516112659190612f21565b61126f9190613118565b67ffffffffffffffff811115611288576112876124db565b5b6040519080825280601f01601f1916602001820160405280156112ba5781602001600182028036833780820191505090505b5090506000846040015160c00151905060a0815110156112dd576112dc61340e565b5b60008060208085015260248301915060408401905061130a8183600486516113059190612f21565b611c58565b8380602001905181019061131e9190613708565b9450505050506114688360200151638aa6539b60e01b60405180610100016040528087604001516000015173ffffffffffffffffffffffffffffffffffffffff168152602001856000015173ffffffffffffffffffffffffffffffffffffffff168152602001856020015173ffffffffffffffffffffffffffffffffffffffff16815260200185604001518152602001856060015181526020018560800151815260200160001515815260200187604001516000015173ffffffffffffffffffffffffffffffffffffffff168152506040516024016113fd9190613957565b604051602081830303815290604052907bffffffffffffffffffffffffffffffffffffffffffffffffffffffff19166020820180517bffffffffffffffffffffffffffffffffffffffffffffffffffffffff8381831617835250505050856040015160e00151611d03565b915050919050565b606061147a61218b565b6114826122b3565b600080611496866040015160c00151611d99565b9050808060200190518101906114ac9190613bef565b809450819550829650505050611554866020015163414e4ccf60e01b8686868b6040015160000151336040516024016114e9959493929190613e32565b604051602081830303815290604052907bffffffffffffffffffffffffffffffffffffffffffffffffffffffff19166020820180517bffffffffffffffffffffffffffffffffffffffffffffffffffffffff8381831617835250505050886040015160e00151611d03565b945050505050919050565b60606115696122f6565b6115716122b3565b600080611585866040015160c00151611d99565b90508080602001905181019061159b9190613f80565b80945081955082965050505061164e866020015163aa6b21cd60e01b8686868b604001516000015160008d60400151600001516040516024016115e3969594939291906140b1565b604051602081830303815290604052907bffffffffffffffffffffffffffffffffffffffffffffffffffffffff19166020820180517bffffffffffffffffffffffffffffffffffffffffffffffffffffffff8381831617835250505050886040015160e00151611d03565b945050505050919050565b60607f547a32a328d8a78dbe9bf090fa60ba3d4d1c6833a592a2c942666ce3249c1210838360405160240161168f929190614118565b604051602081830303815290604052907bffffffffffffffffffffffffffffffffffffffffffffffffffffffff19166020820180517bffffffffffffffffffffffffffffffffffffffffffffffffffffffff8381831617835250505050905092915050565b60607fa78002a166fcae5236d89e3ff35c53dadb775f7818de4a020714cba4bf36082284848460405160240161172c93929190614141565b604051602081830303815290604052907bffffffffffffffffffffffffffffffffffffffffffffffffffffffff19166020820180517bffffffffffffffffffffffffffffffffffffffffffffffffffffffff838183161783525050505090509392505050565b60607fbea726efdf9868bbc5755dce9f13d585b3cf731177be75300d15bb8f5e2861588484846040516024016117ca93929190614178565b604051602081830303815290604052907bffffffffffffffffffffffffffffffffffffffffffffffffffffffff19166020820180517bffffffffffffffffffffffffffffffffffffffffffffffffffffffff838183161783525050505090509392505050565b60607f6fec11a99ebb0ff14b6648f609f57864dadeba8b29869c4df2b3b768941478498585858560405160240161186a94939291906141af565b604051602081830303815290604052907bffffffffffffffffffffffffffffffffffffffffffffffffffffffff19166020820180517bffffffffffffffffffffffffffffffffffffffffffffffffffffffff83818316178352505050509050949350505050565b60607f0a5ade45208123132815e1591a1c7e64045fd006152f5e85d100aee42ba02c7584848460405160240161190993929190614178565b604051602081830303815290604052907bffffffffffffffffffffffffffffffffffffffffffffffffffffffff19166020820180517bffffffffffffffffffffffffffffffffffffffffffffffffffffffff838183161783525050505090509392505050565b600061197b8383611e19565b6002600481111561198f5761198e6132ce565b5b826000015160048111156119a6576119a56132ce565b5b03611a0d57600183836020015184604001518560600151604051600081526020016040526040516119da9493929190614203565b6020604051602081039080840390855afa1580156119fc573d6000803e3d6000fd5b505050602060405103519050611ace565b60036004811115611a2157611a206132ce565b5b82600001516004811115611a3857611a376132ce565b5b03611acd5760007f19457468657265756d205369676e6564204d6573736167653a0a33320000000060005283601c52603c600020905060018184602001518560400151866060015160405160008152602001604052604051611a9d9493929190614203565b6020604051602081039080840390855afa158015611abf573d6000803e3d6000fd5b505050602060405103519150505b5b600073ffffffffffffffffffffffffffffffffffffffff168173ffffffffffffffffffffffffffffffffffffffff1603611b1657611b15611b10600585611f76565b610a05565b5b92915050565b60607f4c7607a3ebba99c9acde0e2a04d88829f7001b63f028b796dda6ff02406ddad585858585604051602401611b569493929190614290565b604051602081830303815290604052907bffffffffffffffffffffffffffffffffffffffffffffffffffffffff19166020820180517bffffffffffffffffffffffffffffffffffffffffffffffffffffffff83818316178352505050509050949350505050565b60607ffe251a07f3cbffd23c1c1db9ec776d259099c832333d99ef48cacfa93a4d7b328383604051602401611bf39291906142dc565b604051602081830303815290604052907bffffffffffffffffffffffffffffffffffffffffffffffffffffffff19166020820180517bffffffffffffffffffffffffffffffffffffffffffffffffffffffff8381831617835250505050905092915050565b6020811015611c82576001816020036101000a038019835116818551168082178652505050611cfd565b82820315611cfe5782821115611cc95760208103905080820181840181515b82851015611cbe5784518652602085019450602086019550611ca1565b808252505050611cfc565b60208103905080820181840183515b81861215611cf55782518252602083039250602082039150611cd8565b8086525050505b5b5b505050565b606060003073ffffffffffffffffffffffffffffffffffffffff168385604051611d2d9190614341565b60006040518083038185875af1925050503d8060008114611d6a576040519150601f19603f3d011682016040523d82523d6000602084013e611d6f565b606091505b50809350819250505080611d9157611d90611d8b868685612011565b610a05565b5b509392505050565b606060048251611da99190612f21565b67ffffffffffffffff811115611dc257611dc16124db565b5b6040519080825280601f01601f191660200182016040528015611df45781602001600182028036833780820191505090505b509050600080602484019150602083019050611e1281838551611c58565b5050919050565b7ffffffffffffffffffffffffffffffffebaaedce6af48a03bbfd25e8cd0364141816040015160001c101580611e8e5750600160027ffffffffffffffffffffffffffffffffebaaedce6af48a03bbfd25e8cd0364141611e799190614387565b611e839190613118565b816060015160001c10155b15611ea757611ea6611ea1600584611f76565b610a05565b5b60006004811115611ebb57611eba6132ce565b5b81600001516004811115611ed257611ed16132ce565b5b03611eeb57611eea611ee5600384611f76565b610a05565b5b60016004811115611eff57611efe6132ce565b5b81600001516004811115611f1657611f156132ce565b5b03611f2f57611f2e611f29600084611f76565b610a05565b5b600480811115611f4257611f416132ce565b5b81600001516004811115611f5957611f586132ce565b5b03611f7257611f71611f6c600284611f76565b610a05565b5b5050565b60607ff18f11f3027e735c758137924b262d4d3aff0037dcd785aca3c699fa05d960bd8383604051602401611fac9291906143b8565b604051602081830303815290604052907bffffffffffffffffffffffffffffffffffffffffffffffffffffffff19166020820180517bffffffffffffffffffffffffffffffffffffffffffffffffffffffff8381831617835250505050905092915050565b60607fa9f0c547643c02afed4cf2699e794bc383effca840eed62fddb64a15a4e55bc4848484604051602401612049939291906143e1565b604051602081830303815290604052907bffffffffffffffffffffffffffffffffffffffffffffffffffffffff19166020820180517bffffffffffffffffffffffffffffffffffffffffffffffffffffffff838183161783525050505090509392505050565b6040518060e00160405280600073ffffffffffffffffffffffffffffffffffffffff168152602001600080191681526020016120e96123e8565b81526020016120f66122b3565b815260200160007bffffffffffffffffffffffffffffffffffffffffffffffffffffffff1916815260200160008152602001600081525090565b6040518060a00160405280600073ffffffffffffffffffffffffffffffffffffffff168152602001600073ffffffffffffffffffffffffffffffffffffffff1681526020016000815260200160008152602001606081525090565b604051806101800160405280600073ffffffffffffffffffffffffffffffffffffffff168152602001600073ffffffffffffffffffffffffffffffffffffffff16815260200160006fffffffffffffffffffffffffffffffff16815260200160006fffffffffffffffffffffffffffffffff16815260200160006fffffffffffffffffffffffffffffffff168152602001600073ffffffffffffffffffffffffffffffffffffffff168152602001600073ffffffffffffffffffffffffffffffffffffffff168152602001600073ffffffffffffffffffffffffffffffffffffffff168152602001600073ffffffffffffffffffffffffffffffffffffffff16815260200160008019168152602001600067ffffffffffffffff168152602001600081525090565b6040518060800160405280600060048111156122d2576122d16132ce565b5b8152602001600060ff16815260200160008019168152602001600080191681525090565b604051806101400160405280600073ffffffffffffffffffffffffffffffffffffffff168152602001600073ffffffffffffffffffffffffffffffffffffffff16815260200160006fffffffffffffffffffffffffffffffff16815260200160006fffffffffffffffffffffffffffffffff168152602001600073ffffffffffffffffffffffffffffffffffffffff168152602001600073ffffffffffffffffffffffffffffffffffffffff168152602001600073ffffffffffffffffffffffffffffffffffffffff16815260200160008019168152602001600067ffffffffffffffff168152602001600081525090565b604051806101400160405280600073ffffffffffffffffffffffffffffffffffffffff168152602001600073ffffffffffffffffffffffffffffffffffffffff168152602001600081526020016000815260200160008152602001600081526020016060815260200160008152602001600073ffffffffffffffffffffffffffffffffffffffff168152602001600081525090565b6000819050919050565b6124908161247d565b82525050565b60006020820190506124ab6000830184612487565b92915050565b6000604051905090565b600080fd5b600080fd5b600080fd5b6000601f19601f8301169050919050565b7f4e487b7100000000000000000000000000000000000000000000000000000000600052604160045260246000fd5b612513826124ca565b810181811067ffffffffffffffff82111715612532576125316124db565b5b80604052505050565b60006125456124b1565b9050612551828261250a565b919050565b600080fd5b600073ffffffffffffffffffffffffffffffffffffffff82169050919050565b60006125868261255b565b9050919050565b6125968161257b565b81146125a157600080fd5b50565b6000813590506125b38161258d565b92915050565b60006125c48261255b565b9050919050565b6125d4816125b9565b81146125df57600080fd5b50565b6000813590506125f1816125cb565b92915050565b6126008161247d565b811461260b57600080fd5b50565b60008135905061261d816125f7565b92915050565b600080fd5b600080fd5b600067ffffffffffffffff821115612648576126476124db565b5b612651826124ca565b9050602081019050919050565b82818337600083830152505050565b600061268061267b8461262d565b61253b565b90508281526020810184848401111561269c5761269b612628565b5b6126a784828561265e565b509392505050565b600082601f8301126126c4576126c3612623565b5b81356126d484826020860161266d565b91505092915050565b60006126e8826125b9565b9050919050565b6126f8816126dd565b811461270357600080fd5b50565b600081359050612715816126ef565b92915050565b60006101408284031215612732576127316124c5565b5b61273d61014061253b565b9050600061274d848285016125a4565b6000830152506020612761848285016125e2565b60208301525060406127758482850161260e565b60408301525060606127898482850161260e565b606083015250608061279d8482850161260e565b60808301525060a06127b18482850161260e565b60a08301525060c082013567ffffffffffffffff8111156127d5576127d4612556565b5b6127e1848285016126af565b60c08301525060e06127f58482850161260e565b60e08301525061010061280a84828501612706565b610100830152506101206128208482850161260e565b6101208301525092915050565b6005811061283a57600080fd5b50565b60008135905061284c8161282d565b92915050565b600060ff82169050919050565b61286881612852565b811461287357600080fd5b50565b6000813590506128858161285f565b92915050565b6000819050919050565b61289e8161288b565b81146128a957600080fd5b50565b6000813590506128bb81612895565b92915050565b6000608082840312156128d7576128d66124c5565b5b6128e1608061253b565b905060006128f18482850161283d565b600083015250602061290584828501612876565b6020830152506040612919848285016128ac565b604083015250606061292d848285016128ac565b60608301525092915050565b60008060a083850312156129505761294f6124bb565b5b600083013567ffffffffffffffff81111561296e5761296d6124c0565b5b61297a8582860161271b565b925050602061298b858286016128c1565b9150509250929050565b600081519050919050565b600082825260208201905092915050565b60005b838110156129cf5780820151818401526020810190506129b4565b60008484015250505050565b60006129e682612995565b6129f081856129a0565b9350612a008185602086016129b1565b612a09816124ca565b840191505092915050565b60006020820190508181036000830152612a2e81846129db565b905092915050565b600060208284031215612a4c57612a4b6124bb565b5b600082013567ffffffffffffffff811115612a6a57612a696124c0565b5b612a768482850161271b565b91505092915050565b600081519050919050565b600082825260208201905092915050565b6000612aa682612a7f565b612ab08185612a8a565b9350612ac08185602086016129b1565b612ac9816124ca565b840191505092915050565b60006020820190508181036000830152612aee8184612a9b565b905092915050565b600060208284031215612b0c57612b0b6124bb565b5b6000612b1a848285016128ac565b91505092915050565b60007fffffffff0000000000000000000000000000000000000000000000000000000082169050919050565b612b5881612b23565b82525050565b6000602082019050612b736000830184612b4f565b92915050565b612b828161288b565b82525050565b6000602082019050612b9d6000830184612b79565b92915050565b600067ffffffffffffffff821115612bbe57612bbd6124db565b5b602082029050602081019050919050565b600080fd5b6000612be7612be284612ba3565b61253b565b90508083825260208201905060208402830185811115612c0a57612c09612bcf565b5b835b81811015612c5157803567ffffffffffffffff811115612c2f57612c2e612623565b5b808601612c3c898261271b565b85526020850194505050602081019050612c0c565b5050509392505050565b600082601f830112612c7057612c6f612623565b5b8135612c80848260208601612bd4565b91505092915050565b600067ffffffffffffffff821115612ca457612ca36124db565b5b602082029050602081019050919050565b6000612cc8612cc384612c89565b61253b565b90508083825260208201905060808402830185811115612ceb57612cea612bcf565b5b835b81811015612d145780612d0088826128c1565b845260208401935050608081019050612ced565b5050509392505050565b600082601f830112612d3357612d32612623565b5b8135612d43848260208601612cb5565b91505092915050565b60008060408385031215612d6357612d626124bb565b5b600083013567ffffffffffffffff811115612d8157612d806124c0565b5b612d8d85828601612c5b565b925050602083013567ffffffffffffffff811115612dae57612dad6124c0565b5b612dba85828601612d1e565b9150509250929050565b600081519050919050565b600082825260208201905092915050565b6000819050602082019050919050565b600082825260208201905092915050565b6000612e0c82612995565b612e168185612df0565b9350612e268185602086016129b1565b612e2f816124ca565b840191505092915050565b6000612e468383612e01565b905092915050565b6000602082019050919050565b6000612e6682612dc4565b612e708185612dcf565b935083602082028501612e8285612de0565b8060005b85811015612ebe5784840389528151612e9f8582612e3a565b9450612eaa83612e4e565b925060208a01995050600181019050612e86565b50829750879550505050505092915050565b60006020820190508181036000830152612eea8184612e5b565b905092915050565b7f4e487b7100000000000000000000000000000000000000000000000000000000600052601160045260246000fd5b6000612f2c8261247d565b9150612f378361247d565b9250828203905081811115612f4f57612f4e612ef2565b5b92915050565b7f4d6574615472616e73616374696f6e73466561747572652f4554485f4c45414b600082015250565b6000612f8b602083612a8a565b9150612f9682612f55565b602082019050919050565b60006020820190508181036000830152612fba81612f7e565b9050919050565b612fca8161257b565b82525050565b612fd9816125b9565b82525050565b6000819050919050565b6000613004612fff612ffa8461255b565b612fdf565b61255b565b9050919050565b600061301682612fe9565b9050919050565b60006130288261300b565b9050919050565b6130388161301d565b82525050565b600061016082019050613054600083018e612b79565b613061602083018d612fc1565b61306e604083018c612fd0565b61307b606083018b612487565b613088608083018a612487565b61309560a0830189612487565b6130a260c0830188612487565b6130af60e0830187612b79565b6130bd610100830186612487565b6130cb61012083018561302f565b6130d9610140830184612487565b9c9b505050505050505050505050565b7f4e487b7100000000000000000000000000000000000000000000000000000000600052603260045260246000fd5b60006131238261247d565b915061312e8361247d565b925082820190508082111561314657613145612ef2565b5b92915050565b60006040820190506131616000830185612b4f565b61316e6020830184612487565b9392505050565b60006131808261300b565b9050919050565b61319081613175565b82525050565b60006060820190506131ab6000830186612b79565b6131b86020830185613187565b6131c56040830184612fd0565b949350505050565b60006040820190506131e26000830185612b4f565b6131ef6020830184612fd0565b9392505050565b600081905092915050565b7f1901000000000000000000000000000000000000000000000000000000000000600082015250565b60006132376002836131f6565b915061324282613201565b600282019050919050565b6000819050919050565b6132686132638261288b565b61324d565b82525050565b60006132798261322a565b91506132858285613257565b6020820191506132958284613257565b6020820191508190509392505050565b60006040820190506132ba6000830185612487565b6132c76020830184612487565b9392505050565b7f4e487b7100000000000000000000000000000000000000000000000000000000600052602160045260246000fd5b6008811061330e5761330d6132ce565b5b50565b600081905061331f826132fd565b919050565b600061332f82613311565b9050919050565b61333f81613324565b82525050565b600060608201905061335a6000830186613336565b6133676020830185612487565b6133746040830184612487565b949350505050565b7f466978696e546f6b656e5370656e6465722f43414e4e4f545f494e564f4b455f60008201527f53454c4600000000000000000000000000000000000000000000000000000000602082015250565b60006133d8602483612a8a565b91506133e38261337c565b604082019050919050565b60006020820190508181036000830152613407816133cb565b9050919050565b7f4e487b7100000000000000000000000000000000000000000000000000000000600052600160045260246000fd5b60008151905061344c816126ef565b92915050565b600081519050613461816125f7565b92915050565b600067ffffffffffffffff821115613482576134816124db565b5b602082029050602081019050919050565b600063ffffffff82169050919050565b6134ac81613493565b81146134b757600080fd5b50565b6000815190506134c9816134a3565b92915050565b60006134e26134dd8461262d565b61253b565b9050828152602081018484840111156134fe576134fd612628565b5b6135098482856129b1565b509392505050565b600082601f83011261352657613525612623565b5b81516135368482602086016134cf565b91505092915050565b600060408284031215613555576135546124c5565b5b61355f604061253b565b9050600061356f848285016134ba565b600083015250602082015167ffffffffffffffff81111561359357613592612556565b5b61359f84828501613511565b60208301525092915050565b60006135be6135b984613467565b61253b565b905080838252602082019050602084028301858111156135e1576135e0612bcf565b5b835b8181101561362857805167ffffffffffffffff81111561360657613605612623565b5b808601613613898261353f565b855260208501945050506020810190506135e3565b5050509392505050565b600082601f83011261364757613646612623565b5b81516136578482602086016135ab565b91505092915050565b600060a08284031215613676576136756124c5565b5b61368060a061253b565b905060006136908482850161343d565b60008301525060206136a48482850161343d565b60208301525060406136b884828501613452565b60408301525060606136cc84828501613452565b606083015250608082015167ffffffffffffffff8111156136f0576136ef612556565b5b6136fc84828501613632565b60808301525092915050565b60006020828403121561371e5761371d6124bb565b5b600082015167ffffffffffffffff81111561373c5761373b6124c0565b5b61374884828501613660565b91505092915050565b61375a8161257b565b82525050565b6137698161301d565b82525050565b6137788161247d565b82525050565b600081519050919050565b600082825260208201905092915050565b6000819050602082019050919050565b6137b381613493565b82525050565b60006040830160008301516137d160008601826137aa565b50602083015184820360208601526137e98282612e01565b9150508091505092915050565b600061380283836137b9565b905092915050565b6000602082019050919050565b60006138228261377e565b61382c8185613789565b93508360208202850161383e8561379a565b8060005b8581101561387a578484038952815161385b85826137f6565b94506138668361380a565b925060208a01995050600181019050613842565b50829750879550505050505092915050565b60008115159050919050565b6138a18161388c565b82525050565b6000610100830160008301516138c06000860182613751565b5060208301516138d36020860182613760565b5060408301516138e66040860182613760565b5060608301516138f9606086018261376f565b50608083015161390c608086018261376f565b5060a083015184820360a08601526139248282613817565b91505060c083015161393960c0860182613898565b5060e083015161394c60e0860182613751565b508091505092915050565b6000602082019050818103600083015261397181846138a7565b905092915050565b60006fffffffffffffffffffffffffffffffff82169050919050565b61399e81613979565b81146139a957600080fd5b50565b6000815190506139bb81613995565b92915050565b6000815190506139d0816125cb565b92915050565b6000815190506139e581612895565b92915050565b600067ffffffffffffffff82169050919050565b613a08816139eb565b8114613a1357600080fd5b50565b600081519050613a25816139ff565b92915050565b60006101808284031215613a4257613a416124c5565b5b613a4d61018061253b565b90506000613a5d8482850161343d565b6000830152506020613a718482850161343d565b6020830152506040613a85848285016139ac565b6040830152506060613a99848285016139ac565b6060830152506080613aad848285016139ac565b60808301525060a0613ac1848285016139c1565b60a08301525060c0613ad5848285016139c1565b60c08301525060e0613ae9848285016139c1565b60e083015250610100613afe848285016139c1565b61010083015250610120613b14848285016139d6565b61012083015250610140613b2a84828501613a16565b61014083015250610160613b4084828501613452565b6101608301525092915050565b600081519050613b5c8161282d565b92915050565b600081519050613b718161285f565b92915050565b600060808284031215613b8d57613b8c6124c5565b5b613b97608061253b565b90506000613ba784828501613b4d565b6000830152506020613bbb84828501613b62565b6020830152506040613bcf848285016139d6565b6040830152506060613be3848285016139d6565b60608301525092915050565b60008060006102208486031215613c0957613c086124bb565b5b6000613c1786828701613a2b565b935050610180613c2986828701613b77565b925050610200613c3b868287016139ac565b9150509250925092565b613c4e81613979565b82525050565b613c5d816125b9565b82525050565b613c6c8161288b565b82525050565b613c7b816139eb565b82525050565b61018082016000820151613c986000850182613760565b506020820151613cab6020850182613760565b506040820151613cbe6040850182613c45565b506060820151613cd16060850182613c45565b506080820151613ce46080850182613c45565b5060a0820151613cf760a0850182613c54565b5060c0820151613d0a60c0850182613c54565b5060e0820151613d1d60e0850182613c54565b50610100820151613d32610100850182613c54565b50610120820151613d47610120850182613c63565b50610140820151613d5c610140850182613c72565b50610160820151613d7161016085018261376f565b50505050565b60058110613d8857613d876132ce565b5b50565b6000819050613d9982613d77565b919050565b6000613da982613d8b565b9050919050565b613db981613d9e565b82525050565b613dc881612852565b82525050565b608082016000820151613de46000850182613db0565b506020820151613df76020850182613dbf565b506040820151613e0a6040850182613c63565b506060820151613e1d6060850182613c63565b50505050565b613e2c81613979565b82525050565b600061026082019050613e486000830188613c81565b613e56610180830187613dce565b613e64610200830186613e23565b613e72610220830185612fc1565b613e80610240830184612fd0565b9695505050505050565b60006101408284031215613ea157613ea06124c5565b5b613eac61014061253b565b90506000613ebc8482850161343d565b6000830152506020613ed08482850161343d565b6020830152506040613ee4848285016139ac565b6040830152506060613ef8848285016139ac565b6060830152506080613f0c848285016139c1565b60808301525060a0613f20848285016139c1565b60a08301525060c0613f34848285016139c1565b60c08301525060e0613f48848285016139d6565b60e083015250610100613f5d84828501613a16565b61010083015250610120613f7384828501613452565b6101208301525092915050565b60008060006101e08486031215613f9a57613f996124bb565b5b6000613fa886828701613e8a565b935050610140613fba86828701613b77565b9250506101c0613fcc868287016139ac565b9150509250925092565b61014082016000820151613fed6000850182613760565b5060208201516140006020850182613760565b5060408201516140136040850182613c45565b5060608201516140266060850182613c45565b5060808201516140396080850182613c54565b5060a082015161404c60a0850182613c54565b5060c082015161405f60c0850182613c54565b5060e082015161407260e0850182613c63565b50610100820151614087610100850182613c72565b5061012082015161409c61012085018261376f565b50505050565b6140ab8161388c565b82525050565b6000610240820190506140c76000830189613fd6565b6140d5610140830188613dce565b6140e36101c0830187613e23565b6140f16101e0830186612fc1565b6140ff6102008301856140a2565b61410d610220830184612fc1565b979650505050505050565b600060408201905061412d6000830185612b79565b61413a6020830184612b4f565b9392505050565b60006060820190506141566000830186612b79565b6141636020830185612fd0565b6141706040830184612fd0565b949350505050565b600060608201905061418d6000830186612b79565b61419a6020830185612487565b6141a76040830184612487565b949350505050565b60006080820190506141c46000830187612b79565b6141d16020830186612487565b6141de6040830185612487565b6141eb6060830184612487565b95945050505050565b6141fd81612852565b82525050565b60006080820190506142186000830187612b79565b61422560208301866141f4565b6142326040830185612b79565b61423f6060830184612b79565b95945050505050565b60068110614259576142586132ce565b5b50565b600081905061426a82614248565b919050565b600061427a8261425c565b9050919050565b61428a8161426f565b82525050565b60006080820190506142a56000830187614281565b6142b26020830186612b79565b6142bf6040830185612fd0565b81810360608301526142d181846129db565b905095945050505050565b60006040820190506142f16000830185612b79565b6142fe6020830184612487565b9392505050565b600081905092915050565b600061431b82612995565b6143258185614305565b93506143358185602086016129b1565b80840191505092915050565b600061434d8284614310565b915081905092915050565b7f4e487b7100000000000000000000000000000000000000000000000000000000600052601260045260246000fd5b60006143928261247d565b915061439d8361247d565b9250826143ad576143ac614358565b5b828204905092915050565b60006040820190506143cd6000830185614281565b6143da6020830184612b79565b9392505050565b60006060820190506143f66000830186612b79565b818103602083015261440881856129db565b9050818103604083015261441c81846129db565b905094935050505056fea2646970667358221220d829aae48980c02c29c7f510cd8e7571b6f440cdd84d757200554b06ffa04c6b64736f6c634300081c0033",
  "linkReferences": {},
  "deployedLinkReferences": {}
}