{
  "_format": "hh-sol-artifact-1",
  "contractName": "MultiplexFeature",
  "sourceName": "contracts/src/features/multiplex/MultiplexFeature.sol",
  "abi": [
    {
      "inputs": [
        {
          "internalType": "address",
          "name": "zeroExAddress",
          "type": "address"
        },
        {
          "internalType": "contract IEtherToken",
          "name": "weth",
          "type": "address"
        },
        {
          "internalType": "contract ILiquidityProviderSandbox",
          "name": "sandbox",
          "type": "address"
        },
        {
          "internalType": "address",
          "name": "uniswapFactory",
          "type": "address"
        },
        {
          "internalType": "address",
          "name": "sushiswapFactory",
          "type": "address"
        },
        {
          "internalType": "bytes32",
          "name": "uniswapPairInitCodeHash",
          "type": "bytes32"
        },
        {
          "internalType": "bytes32",
          "name": "sushiswapPairInitCodeHash",
          "type": "bytes32"
        }
      ],
      "stateMutability": "nonpayable",
      "type": "constructor"
    },
    {
      "anonymous": false,
      "inputs": [
        {
          "indexed": false,
          "internalType": "bytes32",
          "name": "orderHash",
          "type": "bytes32"
        },
        {
          "indexed": false,
          "internalType": "address",
          "name": "maker",
          "type": "address"
        },
        {
          "indexed": false,
          "internalType": "uint64",
          "name": "expiry",
          "type": "uint64"
        }
      ],
      "name": "ExpiredOtcOrder",
      "type": "event"
    },
    {
      "anonymous": false,
      "inputs": [
        {
          "indexed": false,
          "internalType": "bytes32",
          "name": "orderHash",
          "type": "bytes32"
        },
        {
          "indexed": false,
          "internalType": "address",
          "name": "maker",
          "type": "address"
        },
        {
          "indexed": false,
          "internalType": "uint64",
          "name": "expiry",
          "type": "uint64"
        }
      ],
      "name": "ExpiredRfqOrder",
      "type": "event"
    },
    {
      "anonymous": false,
      "inputs": [
        {
          "indexed": false,
          "internalType": "address",
          "name": "inputToken",
          "type": "address"
        },
        {
          "indexed": false,
          "internalType": "address",
          "name": "outputToken",
          "type": "address"
        },
        {
          "indexed": false,
          "internalType": "uint256",
          "name": "inputTokenAmount",
          "type": "uint256"
        },
        {
          "indexed": false,
          "internalType": "uint256",
          "name": "outputTokenAmount",
          "type": "uint256"
        },
        {
          "indexed": false,
          "internalType": "address",
          "name": "provider",
          "type": "address"
        },
        {
          "indexed": false,
          "internalType": "address",
          "name": "recipient",
          "type": "address"
        }
      ],
      "name": "LiquidityProviderSwap",
      "type": "event"
    },
    {
      "inputs": [],
      "name": "EIP712_DOMAIN_SEPARATOR",
      "outputs": [
        {
          "internalType": "bytes32",
          "name": "",
          "type": "bytes32"
        }
      ],
      "stateMutability": "view",
      "type": "function"
    },
    {
      "inputs": [],
      "name": "FEATURE_NAME",
      "outputs": [
        {
          "internalType": "string",
          "name": "",
          "type": "string"
        }
      ],
      "stateMutability": "view",
      "type": "function"
    },
    {
      "inputs": [],
      "name": "FEATURE_VERSION",
      "outputs": [
        {
          "internalType": "uint256",
          "name": "",
          "type": "uint256"
        }
      ],
      "stateMutability": "view",
      "type": "function"
    },
    {
      "inputs": [
        {
          "components": [
            {
              "internalType": "contract IERC20Token",
              "name": "inputToken",
              "type": "address"
            },
            {
              "internalType": "contract IERC20Token",
              "name": "outputToken",
              "type": "address"
            },
            {
              "internalType": "uint256",
              "name": "sellAmount",
              "type": "uint256"
            },
            {
              "components": [
                {
                  "internalType": "enum IMultiplexFeature.MultiplexSubcall",
                  "name": "id",
                  "type": "uint8"
                },
                {
                  "internalType": "uint256",
                  "name": "sellAmount",
                  "type": "uint256"
                },
                {
                  "internalType": "bytes",
                  "name": "data",
                  "type": "bytes"
                }
              ],
              "internalType": "struct IMultiplexFeature.BatchSellSubcall[]",
              "name": "calls",
              "type": "tuple[]"
            },
            {
              "internalType": "bool",
              "name": "useSelfBalance",
              "type": "bool"
            },
            {
              "internalType": "address",
              "name": "recipient",
              "type": "address"
            },
            {
              "internalType": "address",
              "name": "payer",
              "type": "address"
            }
          ],
          "internalType": "struct IMultiplexFeature.BatchSellParams",
          "name": "params",
          "type": "tuple"
        },
        {
          "internalType": "bytes",
          "name": "wrappedCallData",
          "type": "bytes"
        },
        {
          "internalType": "uint256",
          "name": "sellAmount",
          "type": "uint256"
        }
      ],
      "name": "_batchSellLiquidityProviderExternal",
      "outputs": [
        {
          "internalType": "uint256",
          "name": "boughtAmount",
          "type": "uint256"
        }
      ],
      "stateMutability": "payable",
      "type": "function"
    },
    {
      "inputs": [
        {
          "components": [
            {
              "internalType": "contract IERC20Token",
              "name": "inputToken",
              "type": "address"
            },
            {
              "internalType": "contract IERC20Token",
              "name": "outputToken",
              "type": "address"
            },
            {
              "internalType": "uint256",
              "name": "sellAmount",
              "type": "uint256"
            },
            {
              "components": [
                {
                  "internalType": "enum IMultiplexFeature.MultiplexSubcall",
                  "name": "id",
                  "type": "uint8"
                },
                {
                  "internalType": "uint256",
                  "name": "sellAmount",
                  "type": "uint256"
                },
                {
                  "internalType": "bytes",
                  "name": "data",
                  "type": "bytes"
                }
              ],
              "internalType": "struct IMultiplexFeature.BatchSellSubcall[]",
              "name": "calls",
              "type": "tuple[]"
            },
            {
              "internalType": "bool",
              "name": "useSelfBalance",
              "type": "bool"
            },
            {
              "internalType": "address",
              "name": "recipient",
              "type": "address"
            },
            {
              "internalType": "address",
              "name": "payer",
              "type": "address"
            }
          ],
          "internalType": "struct IMultiplexFeature.BatchSellParams",
          "name": "params",
          "type": "tuple"
        },
        {
          "internalType": "bytes",
          "name": "wrappedCallData",
          "type": "bytes"
        },
        {
          "internalType": "uint256",
          "name": "sellAmount",
          "type": "uint256"
        }
      ],
      "name": "_batchSellUniswapV2External",
      "outputs": [
        {
          "internalType": "uint256",
          "name": "boughtAmount",
          "type": "uint256"
        }
      ],
      "stateMutability": "payable",
      "type": "function"
    },
    {
      "inputs": [
        {
          "components": [
            {
              "internalType": "contract IERC20Token",
              "name": "inputToken",
              "type": "address"
            },
            {
              "internalType": "contract IERC20Token",
              "name": "outputToken",
              "type": "address"
            },
            {
              "internalType": "uint256",
              "name": "sellAmount",
              "type": "uint256"
            },
            {
              "components": [
                {
                  "internalType": "enum IMultiplexFeature.MultiplexSubcall",
                  "name": "id",
                  "type": "uint8"
                },
                {
                  "internalType": "uint256",
                  "name": "sellAmount",
                  "type": "uint256"
                },
                {
                  "internalType": "bytes",
                  "name": "data",
                  "type": "bytes"
                }
              ],
              "internalType": "struct IMultiplexFeature.BatchSellSubcall[]",
              "name": "calls",
              "type": "tuple[]"
            },
            {
              "internalType": "bool",
              "name": "useSelfBalance",
              "type": "bool"
            },
            {
              "internalType": "address",
              "name": "recipient",
              "type": "address"
            },
            {
              "internalType": "address",
              "name": "payer",
              "type": "address"
            }
          ],
          "internalType": "struct IMultiplexFeature.BatchSellParams",
          "name": "params",
          "type": "tuple"
        },
        {
          "internalType": "uint256",
          "name": "minBuyAmount",
          "type": "uint256"
        }
      ],
      "name": "_multiplexBatchSell",
      "outputs": [
        {
          "internalType": "uint256",
          "name": "boughtAmount",
          "type": "uint256"
        }
      ],
      "stateMutability": "nonpayable",
      "type": "function"
    },
    {
      "inputs": [
        {
          "components": [
            {
              "internalType": "address[]",
              "name": "tokens",
              "type": "address[]"
            },
            {
              "internalType": "uint256",
              "name": "sellAmount",
              "type": "uint256"
            },
            {
              "components": [
                {
                  "internalType": "enum IMultiplexFeature.MultiplexSubcall",
                  "name": "id",
                  "type": "uint8"
                },
                {
                  "internalType": "bytes",
                  "name": "data",
                  "type": "bytes"
                }
              ],
              "internalType": "struct IMultiplexFeature.MultiHopSellSubcall[]",
              "name": "calls",
              "type": "tuple[]"
            },
            {
              "internalType": "bool",
              "name": "useSelfBalance",
              "type": "bool"
            },
            {
              "internalType": "address",
              "name": "recipient",
              "type": "address"
            },
            {
              "internalType": "address",
              "name": "payer",
              "type": "address"
            }
          ],
          "internalType": "struct IMultiplexFeature.MultiHopSellParams",
          "name": "params",
          "type": "tuple"
        },
        {
          "internalType": "uint256",
          "name": "minBuyAmount",
          "type": "uint256"
        }
      ],
      "name": "_multiplexMultiHopSell",
      "outputs": [
        {
          "internalType": "uint256",
          "name": "boughtAmount",
          "type": "uint256"
        }
      ],
      "stateMutability": "nonpayable",
      "type": "function"
    },
    {
      "inputs": [],
      "name": "migrate",
      "outputs": [
        {
          "internalType": "bytes4",
          "name": "success",
          "type": "bytes4"
        }
      ],
      "stateMutability": "nonpayable",
      "type": "function"
    },
    {
      "inputs": [
        {
          "internalType": "contract IERC20Token",
          "name": "outputToken",
          "type": "address"
        },
        {
          "components": [
            {
              "internalType": "enum IMultiplexFeature.MultiplexSubcall",
              "name": "id",
              "type": "uint8"
            },
            {
              "internalType": "uint256",
              "name": "sellAmount",
              "type": "uint256"
            },
            {
              "internalType": "bytes",
              "name": "data",
              "type": "bytes"
            }
          ],
          "internalType": "struct IMultiplexFeature.BatchSellSubcall[]",
          "name": "calls",
          "type": "tuple[]"
        },
        {
          "internalType": "uint256",
          "name": "minBuyAmount",
          "type": "uint256"
        }
      ],
      "name": "multiplexBatchSellEthForToken",
      "outputs": [
        {
          "internalType": "uint256",
          "name": "boughtAmount",
          "type": "uint256"
        }
      ],
      "stateMutability": "payable",
      "type": "function"
    },
    {
      "inputs": [
        {
          "internalType": "contract IERC20Token",
          "name": "inputToken",
          "type": "address"
        },
        {
          "components": [
            {
              "internalType": "enum IMultiplexFeature.MultiplexSubcall",
              "name": "id",
              "type": "uint8"
            },
            {
              "internalType": "uint256",
              "name": "sellAmount",
              "type": "uint256"
            },
            {
              "internalType": "bytes",
              "name": "data",
              "type": "bytes"
            }
          ],
          "internalType": "struct IMultiplexFeature.BatchSellSubcall[]",
          "name": "calls",
          "type": "tuple[]"
        },
        {
          "internalType": "uint256",
          "name": "sellAmount",
          "type": "uint256"
        },
        {
          "internalType": "uint256",
          "name": "minBuyAmount",
          "type": "uint256"
        }
      ],
      "name": "multiplexBatchSellTokenForEth",
      "outputs": [
        {
          "internalType": "uint256",
          "name": "boughtAmount",
          "type": "uint256"
        }
      ],
      "stateMutability": "nonpayable",
      "type": "function"
    },
    {
      "inputs": [
        {
          "internalType": "contract IERC20Token",
          "name": "inputToken",
          "type": "address"
        },
        {
          "internalType": "contract IERC20Token",
          "name": "outputToken",
          "type": "address"
        },
        {
          "components": [
            {
              "internalType": "enum IMultiplexFeature.MultiplexSubcall",
              "name": "id",
              "type": "uint8"
            },
            {
              "internalType": "uint256",
              "name": "sellAmount",
              "type": "uint256"
            },
            {
              "internalType": "bytes",
              "name": "data",
              "type": "bytes"
            }
          ],
          "internalType": "struct IMultiplexFeature.BatchSellSubcall[]",
          "name": "calls",
          "type": "tuple[]"
        },
        {
          "internalType": "uint256",
          "name": "sellAmount",
          "type": "uint256"
        },
        {
          "internalType": "uint256",
          "name": "minBuyAmount",
          "type": "uint256"
        }
      ],
      "name": "multiplexBatchSellTokenForToken",
      "outputs": [
        {
          "internalType": "uint256",
          "name": "boughtAmount",
          "type": "uint256"
        }
      ],
      "stateMutability": "nonpayable",
      "type": "function"
    },
    {
      "inputs": [
        {
          "internalType": "address[]",
          "name": "tokens",
          "type": "address[]"
        },
        {
          "components": [
            {
              "internalType": "enum IMultiplexFeature.MultiplexSubcall",
              "name": "id",
              "type": "uint8"
            },
            {
              "internalType": "bytes",
              "name": "data",
              "type": "bytes"
            }
          ],
          "internalType": "struct IMultiplexFeature.MultiHopSellSubcall[]",
          "name": "calls",
          "type": "tuple[]"
        },
        {
          "internalType": "uint256",
          "name": "minBuyAmount",
          "type": "uint256"
        }
      ],
      "name": "multiplexMultiHopSellEthForToken",
      "outputs": [
        {
          "internalType": "uint256",
          "name": "boughtAmount",
          "type": "uint256"
        }
      ],
      "stateMutability": "payable",
      "type": "function"
    },
    {
      "inputs": [
        {
          "internalType": "address[]",
          "name": "tokens",
          "type": "address[]"
        },
        {
          "components": [
            {
              "internalType": "enum IMultiplexFeature.MultiplexSubcall",
              "name": "id",
              "type": "uint8"
            },
            {
              "internalType": "bytes",
              "name": "data",
              "type": "bytes"
            }
          ],
          "internalType": "struct IMultiplexFeature.MultiHopSellSubcall[]",
          "name": "calls",
          "type": "tuple[]"
        },
        {
          "internalType": "uint256",
          "name": "sellAmount",
          "type": "uint256"
        },
        {
          "internalType": "uint256",
          "name": "minBuyAmount",
          "type": "uint256"
        }
      ],
      "name": "multiplexMultiHopSellTokenForEth",
      "outputs": [
        {
          "internalType": "uint256",
          "name": "boughtAmount",
          "type": "uint256"
        }
      ],
      "stateMutability": "nonpayable",
      "type": "function"
    },
    {
      "inputs": [
        {
          "internalType": "address[]",
          "name": "tokens",
          "type": "address[]"
        },
        {
          "components": [
            {
              "internalType": "enum IMultiplexFeature.MultiplexSubcall",
              "name": "id",
              "type": "uint8"
            },
            {
              "internalType": "bytes",
              "name": "data",
              "type": "bytes"
            }
          ],
          "internalType": "struct IMultiplexFeature.MultiHopSellSubcall[]",
          "name": "calls",
          "type": "tuple[]"
        },
        {
          "internalType": "uint256",
          "name": "sellAmount",
          "type": "uint256"
        },
        {
          "internalType": "uint256",
          "name": "minBuyAmount",
          "type": "uint256"
        }
      ],
      "name": "multiplexMultiHopSellTokenForToken",
      "outputs": [
        {
          "internalType": "uint256",
          "name": "boughtAmount",
          "type": "uint256"
        }
      ],
      "stateMutability": "nonpayable",
      "type": "function"
    }
  ],
  "bytecode": "0x6101a0604052610018600260008061021960201b60201c565b6101609081525034801561002b57600080fd5b506040516183f83803806183f8833981810160405281019061004d9190610358565b838383838a893073ffffffffffffffffffffffffffffffffffffffff1660808173ffffffffffffffffffffffffffffffffffffffff16815250508073ffffffffffffffffffffffffffffffffffffffff1660a08173ffffffffffffffffffffffffffffffffffffffff16815250505060004690507f8b73c3c69bb8fe3d512ecc4cf759cc79239f7b179b0ffacaa9a75d522b39400f7f9e5dae0addaf20578aeb5d70341d092b53b4e14480ac5726438fd436df7ba4277f06c015bd22b4c69690933c1058878ebdfef31f9aaae40bbe86d8a09fe1b2972c838560405160200161013a959493929190610431565b6040516020818303038152906040528051906020012060c0818152505050508373ffffffffffffffffffffffffffffffffffffffff1660e08173ffffffffffffffffffffffffffffffffffffffff16815250508273ffffffffffffffffffffffffffffffffffffffff166101008173ffffffffffffffffffffffffffffffffffffffff1681525050816101208181525050806101408181525050505050508573ffffffffffffffffffffffffffffffffffffffff166101808173ffffffffffffffffffffffffffffffffffffffff168152505050505050505050610484565b60008163ffffffff1660208463ffffffff16901b60408663ffffffff16901b171790509392505050565b600080fd5b600073ffffffffffffffffffffffffffffffffffffffff82169050919050565b600061027382610248565b9050919050565b61028381610268565b811461028e57600080fd5b50565b6000815190506102a08161027a565b92915050565b60006102b182610268565b9050919050565b6102c1816102a6565b81146102cc57600080fd5b50565b6000815190506102de816102b8565b92915050565b60006102ef82610268565b9050919050565b6102ff816102e4565b811461030a57600080fd5b50565b60008151905061031c816102f6565b92915050565b6000819050919050565b61033581610322565b811461034057600080fd5b50565b6000815190506103528161032c565b92915050565b600080600080600080600060e0888a03121561037757610376610243565b5b60006103858a828b01610291565b97505060206103968a828b016102cf565b96505060406103a78a828b0161030d565b95505060606103b88a828b01610291565b94505060806103c98a828b01610291565b93505060a06103da8a828b01610343565b92505060c06103eb8a828b01610343565b91505092959891949750929550565b61040381610322565b82525050565b6000819050919050565b61041c81610409565b82525050565b61042b81610268565b82525050565b600060a08201905061044660008301886103fa565b61045360208301876103fa565b61046060408301866103fa565b61046d6060830185610413565b61047a6080830184610422565b9695505050505050565b60805160a05160c05160e0516101005161012051610140516101605161018051617ea961054f6000396000818161075b01528181610804015281816109b101528181610a4001528181610c1201528181610d2e0152818161119d015261122c015260006103be0152600061157b0152600061161a01526000611531015260006115d00152600081816111770152614238015260008181610f7e0152612e4501526000818161045501528181610dcd01528181611d72015281816138b70152613c6b0152617ea96000f3fe6080604052600436106100dd5760003560e01c806377725df61161007f5780639a2967d2116100595780639a2967d2146102f4578063ca35159a14610331578063dab400f314610361578063f35b47331461038c576100dd565b806377725df61461024f5780637a1eb1b91461028c5780638fd3ab80146102c9576100dd565b806343475db9116100bb57806343475db91461017a5780635161b966146101b757806359517361146101e75780636ae4b4f714610224576100dd565b8063031b905c146100e25780630f3b31b21461010d5780632450eb0f1461014a575b600080fd5b3480156100ee57600080fd5b506100f76103bc565b604051610104919061463e565b60405180910390f35b34801561011957600080fd5b50610134600480360381019061012f9190614a81565b6103e0565b604051610141919061463e565b60405180910390f35b610164600480360381019061015f9190614b9f565b610451565b604051610171919061463e565b60405180910390f35b34801561018657600080fd5b506101a1600480360381019061019c9190614ed6565b6106fe565b6040516101ae919061463e565b60405180910390f35b6101d160048036038101906101cc9190614f32565b610757565b6040516101de919061463e565b60405180910390f35b3480156101f357600080fd5b5061020e60048036038101906102099190615095565b6108f1565b60405161021b919061463e565b60405180910390f35b34801561023057600080fd5b5061023961094a565b6040516102469190615170565b60405180910390f35b34801561025b57600080fd5b5061027660048036038101906102719190615192565b610983565b604051610283919061463e565b60405180910390f35b34801561029857600080fd5b506102b360048036038101906102ae9190615215565b610adb565b6040516102c0919061463e565b60405180910390f35b3480156102d557600080fd5b506102de610b7f565b6040516102eb91906152e7565b60405180910390f35b34801561030057600080fd5b5061031b60048036038101906103169190614a81565b610c0e565b604051610328919061463e565b60405180910390f35b61034b60048036038101906103469190614b9f565b610dc9565b604051610358919061463e565b60405180910390f35b34801561036d57600080fd5b50610376611175565b604051610383919061531b565b60405180910390f35b6103a660048036038101906103a19190615336565b611199565b6040516103b3919061463e565b60405180910390f35b7f000000000000000000000000000000000000000000000000000000000000000081565b60006104476040518060c001604052808781526020018581526020018681526020016000151581526020013373ffffffffffffffffffffffffffffffffffffffff1681526020013373ffffffffffffffffffffffffffffffffffffffff16815250836112dc565b9050949350505050565b60007f000000000000000000000000000000000000000000000000000000000000000073ffffffffffffffffffffffffffffffffffffffff163073ffffffffffffffffffffffffffffffffffffffff16036104e1576040517f08c379a00000000000000000000000000000000000000000000000000000000081526004016104d89061543d565b60405180910390fd5b60008085858101906104f3919061545d565b915091506002825110158015610561575086600001602081019061051791906154b9565b73ffffffffffffffffffffffffffffffffffffffff1682600081518110610541576105406154e6565b5b602002602001015173ffffffffffffffffffffffffffffffffffffffff16145b80156105d1575086602001602081019061057b91906154b9565b73ffffffffffffffffffffffffffffffffffffffff1682600184516105a09190615544565b815181106105b1576105b06154e6565b5b602002602001015173ffffffffffffffffffffffffffffffffffffffff16145b610610576040517f08c379a0000000000000000000000000000000000000000000000000000000008152600401610607906155ea565b60405180910390fd5b600061065383600081518110610629576106286154e6565b5b602002602001015184600181518110610645576106446154e6565b5b6020026020010151846114e3565b9050876080016020810190610668919061560a565b156106985761069383600081518110610684576106836154e6565b5b60200260200101518287611670565b6106d2565b6106d1836000815181106106af576106ae6154e6565b5b60200260200101518960c00160208101906106ca9190615637565b8388611770565b5b6106f1838684848c60a00160208101906106ec9190615637565b61188d565b9350505050949350505050565b60003073ffffffffffffffffffffffffffffffffffffffff163373ffffffffffffffffffffffffffffffffffffffff16146107455761074461073f33611a77565b611b0f565b5b61074f8383611b17565b905092915050565b60007f000000000000000000000000000000000000000000000000000000000000000073ffffffffffffffffffffffffffffffffffffffff16846000815181106107a4576107a36154e6565b5b602002602001015173ffffffffffffffffffffffffffffffffffffffff1614610802576040517f08c379a00000000000000000000000000000000000000000000000000000000081526004016107f9906156d6565b60405180910390fd5b7f000000000000000000000000000000000000000000000000000000000000000073ffffffffffffffffffffffffffffffffffffffff1663d0e30db0346040518263ffffffff1660e01b81526004016000604051808303818588803b15801561086a57600080fd5b505af115801561087e573d6000803e3d6000fd5b50505050506108e86040518060c001604052808681526020013481526020018581526020016001151581526020013373ffffffffffffffffffffffffffffffffffffffff1681526020013373ffffffffffffffffffffffffffffffffffffffff16815250836112dc565b90509392505050565b60003073ffffffffffffffffffffffffffffffffffffffff163373ffffffffffffffffffffffffffffffffffffffff16146109385761093761093233611a77565b611b0f565b5b61094283836112dc565b905092915050565b6040518060400160405280601081526020017f4d756c7469706c6578466561747572650000000000000000000000000000000081525081565b6000610a3c6040518060e001604052808773ffffffffffffffffffffffffffffffffffffffff1681526020017f000000000000000000000000000000000000000000000000000000000000000073ffffffffffffffffffffffffffffffffffffffff1681526020018581526020018681526020016000151581526020013073ffffffffffffffffffffffffffffffffffffffff1681526020013373ffffffffffffffffffffffffffffffffffffffff1681525083611b17565b90507f000000000000000000000000000000000000000000000000000000000000000073ffffffffffffffffffffffffffffffffffffffff16632e1a7d4d826040518263ffffffff1660e01b8152600401610a97919061463e565b600060405180830381600087803b158015610ab157600080fd5b505af1158015610ac5573d6000803e3d6000fd5b50505050610ad33382611c98565b949350505050565b6000610b746040518060e001604052808873ffffffffffffffffffffffffffffffffffffffff1681526020018773ffffffffffffffffffffffffffffffffffffffff1681526020018581526020018681526020016000151581526020013373ffffffffffffffffffffffffffffffffffffffff1681526020013373ffffffffffffffffffffffffffffffffffffffff1681525083611b17565b905095945050505050565b6000610b9163f35b473360e01b611d53565b610ba16377725df660e01b611d53565b610bb1637a1eb1b960e01b611d53565b610bc16343475db960e01b611d53565b610bd1635161b96660e01b611d53565b610be1639a2967d260e01b611d53565b610bf1630f3b31b260e01b611d53565b610c01635951736160e01b611d53565b632c64c5ef60e01b905090565b60007f000000000000000000000000000000000000000000000000000000000000000073ffffffffffffffffffffffffffffffffffffffff168560018751610c569190615544565b81518110610c6757610c666154e6565b5b602002602001015173ffffffffffffffffffffffffffffffffffffffff1614610cc5576040517f08c379a0000000000000000000000000000000000000000000000000000000008152600401610cbc90615768565b60405180910390fd5b610d2a6040518060c001604052808781526020018581526020018681526020016000151581526020013073ffffffffffffffffffffffffffffffffffffffff1681526020013373ffffffffffffffffffffffffffffffffffffffff16815250836112dc565b90507f000000000000000000000000000000000000000000000000000000000000000073ffffffffffffffffffffffffffffffffffffffff16632e1a7d4d826040518263ffffffff1660e01b8152600401610d85919061463e565b600060405180830381600087803b158015610d9f57600080fd5b505af1158015610db3573d6000803e3d6000fd5b50505050610dc13382611c98565b949350505050565b60007f000000000000000000000000000000000000000000000000000000000000000073ffffffffffffffffffffffffffffffffffffffff163073ffffffffffffffffffffffffffffffffffffffff1603610e59576040517f08c379a0000000000000000000000000000000000000000000000000000000008152600401610e5090615820565b60405180910390fd5b6000808585810190610e6b919061587e565b91509150866080016020810190610e82919061560a565b15610ea957610ea4876000016020810190610e9d91906154b9565b8386611670565b610eda565b610ed9876000016020810190610ebf91906154b9565b8860c0016020810190610ed29190615637565b8487611770565b5b6000876020016020810190610eef91906154b9565b73ffffffffffffffffffffffffffffffffffffffff166370a082318960a0016020810190610f1d9190615637565b6040518263ffffffff1660e01b8152600401610f3991906158e9565b602060405180830381865afa158015610f56573d6000803e3d6000fd5b505050506040513d601f19601f82011682018060405250810190610f7a9190615919565b90507f000000000000000000000000000000000000000000000000000000000000000073ffffffffffffffffffffffffffffffffffffffff1663bb503e21848a6000016020810190610fcc91906154b9565b8b6020016020810190610fdf91906154b9565b8c60a0016020810190610ff29190615637565b6000886040518763ffffffff1660e01b815260040161101696959493929190615a56565b600060405180830381600087803b15801561103057600080fd5b505af1158015611044573d6000803e3d6000fd5b505050508088602001602081019061105c91906154b9565b73ffffffffffffffffffffffffffffffffffffffff166370a082318a60a001602081019061108a9190615637565b6040518263ffffffff1660e01b81526004016110a691906158e9565b602060405180830381865afa1580156110c3573d6000803e3d6000fd5b505050506040513d601f19601f820116820180604052508101906110e79190615919565b6110f19190615544565b93507f40a6ba9513d09e3488135e0e0d10e2d4382b792720155b144cbea89ac9db6d3488600001602081019061112791906154b9565b89602001602081019061113a91906154b9565b8787878d60a00160208101906111509190615637565b60405161116296959493929190615abe565b60405180910390a1505050949350505050565b7f000000000000000000000000000000000000000000000000000000000000000081565b60007f000000000000000000000000000000000000000000000000000000000000000073ffffffffffffffffffffffffffffffffffffffff1663d0e30db0346040518263ffffffff1660e01b81526004016000604051808303818588803b15801561120357600080fd5b505af1158015611217573d6000803e3d6000fd5b50505050506112d36040518060e001604052807f000000000000000000000000000000000000000000000000000000000000000073ffffffffffffffffffffffffffffffffffffffff1681526020018673ffffffffffffffffffffffffffffffffffffffff1681526020013481526020018581526020016001151581526020013373ffffffffffffffffffffffffffffffffffffffff1681526020013373ffffffffffffffffffffffffffffffffffffffff1681525083611b17565b90509392505050565b600060018360400151516112f09190615b1f565b83600001515114611336576040517f08c379a000000000000000000000000000000000000000000000000000000000815260040161132d90615beb565b60405180910390fd5b60008360000151600185600001515161134f9190615544565b815181106113605761135f6154e6565b5b6020026020010151905060008173ffffffffffffffffffffffffffffffffffffffff166370a0823186608001516040518263ffffffff1660e01b81526004016113a991906158e9565b602060405180830381865afa1580156113c6573d6000803e3d6000fd5b505050506040513d601f19601f820116820180604052508101906113ea9190615919565b905060006113f786611de3565b90506000828473ffffffffffffffffffffffffffffffffffffffff166370a0823189608001516040518263ffffffff1660e01b815260040161143991906158e9565b602060405180830381865afa158015611456573d6000803e3d6000fd5b505050506040513d601f19601f8201168201806040525081019061147a9190615919565b6114849190615544565b90506114948183600001516121bb565b9450858510156114d9576040517f08c379a00000000000000000000000000000000000000000000000000000000081526004016114d090615c7d565b60405180910390fd5b5050505092915050565b60008060008473ffffffffffffffffffffffffffffffffffffffff168673ffffffffffffffffffffffffffffffffffffffff1610611522578486611525565b85855b9150915083156115ce577f00000000000000000000000000000000000000000000000000000000000000008282604051602001611563929190615ce5565b604051602081830303815290604052805190602001207f00000000000000000000000000000000000000000000000000000000000000006040516020016115ac93929190615d89565b6040516020818303038152906040528051906020012060001c92505050611669565b7f00000000000000000000000000000000000000000000000000000000000000008282604051602001611602929190615ce5565b604051602081830303815290604052805190602001207f000000000000000000000000000000000000000000000000000000000000000060405160200161164b93929190615d89565b6040516020818303038152906040528051906020012060001c925050505b9392505050565b3073ffffffffffffffffffffffffffffffffffffffff168373ffffffffffffffffffffffffffffffffffffffff16036116de576040517f08c379a00000000000000000000000000000000000000000000000000000000081526004016116d590615e43565b60405180910390fd5b6040517fa9059cbb00000000000000000000000000000000000000000000000000000000815273ffffffffffffffffffffffffffffffffffffffff83166004820152816024820152602081604483600073ffffffffffffffffffffffffffffffffffffffff89165af13d6001835114602082101516811517821691508161176857806000843e8083fd5b505050505050565b3073ffffffffffffffffffffffffffffffffffffffff168473ffffffffffffffffffffffffffffffffffffffff16036117de576040517f08c379a00000000000000000000000000000000000000000000000000000000081526004016117d590615e43565b60405180910390fd5b6040517f23b872dd00000000000000000000000000000000000000000000000000000000815273ffffffffffffffffffffffffffffffffffffffff8416600482015273ffffffffffffffffffffffffffffffffffffffff83166024820152816044820152602081606483600073ffffffffffffffffffffffffffffffffffffffff8a165af13d6001835114602082101516811517821691508161188457806000843e8083fd5b50505050505050565b600080600090505b600187516118a39190615544565b811015611a6d576000808883815181106118c0576118bf6154e6565b5b6020026020010151896001856118d69190615b1f565b815181106118e7576118e66154e6565b5b6020026020010151915091506118ff8683838b6121d4565b93506000808273ffffffffffffffffffffffffffffffffffffffff168473ffffffffffffffffffffffffffffffffffffffff161061193f57856000611943565b6000865b91509150600060028c516119579190615544565b86106119635787611995565b611994848d6002896119759190615b1f565b81518110611986576119856154e6565b5b60200260200101518c6114e3565b5b90508873ffffffffffffffffffffffffffffffffffffffff1663022c0d9f848484600067ffffffffffffffff8111156119d1576119d0614683565b5b6040519080825280601f01601f191660200182016040528015611a035781602001600182028036833780820191505090505b506040518563ffffffff1660e01b8152600401611a239493929190615e63565b600060405180830381600087803b158015611a3d57600080fd5b505af1158015611a51573d6000803e3d6000fd5b50505050809850869a5050505050508080600101915050611895565b5095945050505050565b60607ff0ec779b0bcda6d84abf99ee2c67647d1100ebbb553a9c2d1c2ba1579592832c82604051602401611aab91906158e9565b604051602081830303815290604052907bffffffffffffffffffffffffffffffffffffffffffffffffffffffff19166020820180517bffffffffffffffffffffffffffffffffffffffffffffffffffffffff83818316178352505050509050919050565b805160208201fd5b600080836020015173ffffffffffffffffffffffffffffffffffffffff166370a082318560a001516040518263ffffffff1660e01b8152600401611b5b91906158e9565b602060405180830381865afa158015611b78573d6000803e3d6000fd5b505050506040513d601f19601f82011682018060405250810190611b9c9190615919565b90506000611ba98561239e565b9050600082866020015173ffffffffffffffffffffffffffffffffffffffff166370a082318860a001516040518263ffffffff1660e01b8152600401611bef91906158e9565b602060405180830381865afa158015611c0c573d6000803e3d6000fd5b505050506040513d601f19601f82011682018060405250810190611c309190615919565b611c3a9190615544565b9050611c4a8183602001516121bb565b935084841015611c8f576040517f08c379a0000000000000000000000000000000000000000000000000000000008152600401611c8690615f21565b60405180910390fd5b50505092915050565b6000811115611d4f5760008273ffffffffffffffffffffffffffffffffffffffff1682604051611cc790615f72565b60006040518083038185875af1925050503d8060008114611d04576040519150601f19603f3d011682016040523d82523d6000602084013e611d09565b606091505b5050905080611d4d576040517f08c379a0000000000000000000000000000000000000000000000000000000008152600401611d4490615ff9565b60405180910390fd5b505b5050565b3073ffffffffffffffffffffffffffffffffffffffff16636eb224cb827f00000000000000000000000000000000000000000000000000000000000000006040518363ffffffff1660e01b8152600401611dae929190616019565b600060405180830381600087803b158015611dc857600080fd5b505af1158015611ddc573d6000803e3d6000fd5b5050505050565b611deb61441d565b8160200151816000018181525050611e0482600061268b565b816020019073ffffffffffffffffffffffffffffffffffffffff16908173ffffffffffffffffffffffffffffffffffffffff16815250508160600151158015611e8157508160a0015173ffffffffffffffffffffffffffffffffffffffff16816020015173ffffffffffffffffffffffffffffffffffffffff1614155b15611ebe57611ebd8260000151600081518110611ea157611ea06154e6565b5b60200260200101518360a0015183602001518560200151611770565b5b81606001518015611eff57503073ffffffffffffffffffffffffffffffffffffffff16816020015173ffffffffffffffffffffffffffffffffffffffff1614155b15611f3757611f368260000151600081518110611f1f57611f1e6154e6565b5b602002602001015182602001518460200151611670565b5b60008160600181815250505b8160400151518160600151146121b65760008260400151826060015181518110611f7057611f6f6154e6565b5b60200260200101519050611f948360018460600151611f8f9190615b1f565b61268b565b826040019073ffffffffffffffffffffffffffffffffffffffff16908173ffffffffffffffffffffffffffffffffffffffff168152505060036008811115611fdf57611fde616042565b5b81600001516008811115611ff657611ff5616042565b5b0361200f5761200a8284836020015161292a565b61215e565b6004600881111561202357612022616042565b5b8160000151600881111561203a57612039616042565b5b036120535761204e82848360200151612ab3565b61215d565b6005600881111561206757612066616042565b5b8160000151600881111561207e5761207d616042565b5b036120975761209282848360200151612d4c565b61215c565b600760088111156120ab576120aa616042565b5b816000015160088111156120c2576120c1616042565b5b036120db576120d682848360200151612fcc565b61215b565b600260088111156120ef576120ee616042565b5b8160000151600881111561210657612105616042565b5b0361211f5761211a82848360200151613175565b61215a565b6040517f08c379a0000000000000000000000000000000000000000000000000000000008152600401612151906160e3565b60405180910390fd5b5b5b5b5b8160400151826020019073ffffffffffffffffffffffffffffffffffffffff16908173ffffffffffffffffffffffffffffffffffffffff1681525050508060600180518091906121ad90616103565b81525050611f43565b919050565b60008183106121ca57816121cc565b825b905092915050565b6000808211612218576040517f08c379a000000000000000000000000000000000000000000000000000000000815260040161220f906161e3565b60405180910390fd5b6000808673ffffffffffffffffffffffffffffffffffffffff16630902f1ac6040518163ffffffff1660e01b8152600401606060405180830381865afa158015612266573d6000803e3d6000fd5b505050506040513d601f19601f8201168201806040525081019061228a9190616285565b506dffffffffffffffffffffffffffff1691506dffffffffffffffffffffffffffff1691506000821180156122bf5750600081115b6122fe576040517f08c379a00000000000000000000000000000000000000000000000000000000081526004016122f590616370565b60405180910390fd5b6000808673ffffffffffffffffffffffffffffffffffffffff168873ffffffffffffffffffffffffffffffffffffffff161061233b57828461233e565b83835b9150915060006103e5876123529190616390565b9050600082826123629190616390565b90506000826103e8866123759190616390565b61237f9190615b1f565b9050808261238d9190616401565b975050505050505050949350505050565b6123a6614471565b60005b826060015151811461263b5782604001518260000151101561263b576000836060015182815181106123de576123dd6154e6565b5b602002602001015190506000612401826020015186604001518660000151613356565b90506001600881111561241757612416616042565b5b8260000151600881111561242e5761242d616042565b5b03612448576124438486846040015184613419565b612626565b6002600881111561245c5761245b616042565b5b8260000151600881111561247357612472616042565b5b0361248d576124888486846040015184613663565b612625565b600360088111156124a1576124a0616042565b5b826000015160088111156124b8576124b7616042565b5b036124d2576124cd84868460400151846138b2565b612624565b600460088111156124e6576124e5616042565b5b826000015160088111156124fd576124fc616042565b5b03612517576125128486846040015184613a12565b612623565b6005600881111561252b5761252a616042565b5b8260000151600881111561254257612541616042565b5b0361255c576125578486846040015184613c66565b612622565b600660088111156125705761256f616042565b5b8260000151600881111561258757612586616042565b5b036125a15761259c8486846040015184613dc6565b612621565b6008808111156125b4576125b3616042565b5b826000015160088111156125cb576125ca616042565b5b036125e5576125e08486846040015184613fb8565b612620565b6040517f08c379a0000000000000000000000000000000000000000000000000000000008152600401612617906164a4565b60405180910390fd5b5b5b5b5b5b5b5050808061263390616103565b9150506123a9565b508160400151816000015114612686576040517f08c379a000000000000000000000000000000000000000000000000000000000815260040161267d90616536565b60405180910390fd5b919050565b600082604001515182036126a557826080015190506128b5565b6000836040015183815181106126be576126bd6154e6565b5b60200260200101519050600360088111156126dc576126db616042565b5b816000015160088111156126f3576126f2616042565b5b036127615760008082602001518060200190518101906127139190616617565b915091506127588260008151811061272e5761272d6154e6565b5b60200260200101518360018151811061274a576127496154e6565b5b6020026020010151836114e3565b935050506128b3565b6005600881111561277557612774616042565b5b8160000151600881111561278c5761278b616042565b5b036127b35780602001518060200190518101906127a991906166f8565b50809250506128b2565b600460088111156127c7576127c6616042565b5b816000015160088111156127de576127dd616042565b5b14806128125750600760088111156127f9576127f8616042565b5b816000015160088111156128105761280f616042565b5b145b8061284557506002600881111561282c5761282b616042565b5b8160000151600881111561284357612842616042565b5b145b156128765760008314801561285c57508360600151155b1561286d578360a001519150612871565b3091505b6128b1565b6040517f08c379a00000000000000000000000000000000000000000000000000000000081526004016128a8906167c6565b60405180910390fd5b5b5b505b600073ffffffffffffffffffffffffffffffffffffffff168173ffffffffffffffffffffffffffffffffffffffff1603612924576040517f08c379a000000000000000000000000000000000000000000000000000000000815260040161291b90616858565b60405180910390fd5b92915050565b600080828060200190518101906129419190616617565b9150915060028251101580156129bf5750836000015185606001518151811061296d5761296c6154e6565b5b602002602001015173ffffffffffffffffffffffffffffffffffffffff168260008151811061299f5761299e6154e6565b5b602002602001015173ffffffffffffffffffffffffffffffffffffffff16145b8015612a4b57508360000151600186606001516129dc9190615b1f565b815181106129ed576129ec6154e6565b5b602002602001015173ffffffffffffffffffffffffffffffffffffffff168260018451612a1a9190615544565b81518110612a2b57612a2a6154e6565b5b602002602001015173ffffffffffffffffffffffffffffffffffffffff16145b612a8a576040517f08c379a0000000000000000000000000000000000000000000000000000000008152600401612a81906168ea565b60405180910390fd5b612aa3828660000151838860200151896040015161188d565b8560000181815250505050505050565b600060603073ffffffffffffffffffffffffffffffffffffffff16856020015173ffffffffffffffffffffffffffffffffffffffff1603612be7573073ffffffffffffffffffffffffffffffffffffffff16634a931ba160e01b84876000015160008960400151604051602401612b2d9493929190616948565b604051602081830303815290604052907bffffffffffffffffffffffffffffffffffffffffffffffffffffffff19166020820180517bffffffffffffffffffffffffffffffffffffffffffffffffffffffff8381831617835250505050604051612b9791906169c5565b6000604051808303816000865af19150503d8060008114612bd4576040519150601f19603f3d011682016040523d82523d6000602084013e612bd9565b606091505b508092508193505050612ce2565b3073ffffffffffffffffffffffffffffffffffffffff1663168a643260e01b848760000151600089604001518960a00151604051602401612c2c9594939291906169dc565b604051602081830303815290604052907bffffffffffffffffffffffffffffffffffffffffffffffffffffffff19166020820180517bffffffffffffffffffffffffffffffffffffffffffffffffffffffff8381831617835250505050604051612c9691906169c5565b6000604051808303816000865af19150503d8060008114612cd3576040519150601f19603f3d011682016040523d82523d6000602084013e612cd8565b606091505b5080925081935050505b8115612d0a5780806020019051810190612cfc9190615919565b856000018181525050612d45565b6040517f08c379a0000000000000000000000000000000000000000000000000000000008152600401612d3c90616aa8565b60405180910390fd5b5050505050565b60008260000151846060015181518110612d6957612d686154e6565b5b602002602001015190506000836000015160018660600151612d8b9190615b1f565b81518110612d9c57612d9b6154e6565b5b6020026020010151905060008084806020019051810190612dbd91906166f8565b9150915060008373ffffffffffffffffffffffffffffffffffffffff166370a0823189604001516040518263ffffffff1660e01b8152600401612e0091906158e9565b602060405180830381865afa158015612e1d573d6000803e3d6000fd5b505050506040513d601f19601f82011682018060405250810190612e419190615919565b90507f000000000000000000000000000000000000000000000000000000000000000073ffffffffffffffffffffffffffffffffffffffff1663bb503e218487878c604001516000886040518763ffffffff1660e01b8152600401612eab96959493929190615a56565b600060405180830381600087803b158015612ec557600080fd5b505af1158015612ed9573d6000803e3d6000fd5b50505050600088600001519050818573ffffffffffffffffffffffffffffffffffffffff166370a082318b604001516040518263ffffffff1660e01b8152600401612f2491906158e9565b602060405180830381865afa158015612f41573d6000803e3d6000fd5b505050506040513d601f19601f82011682018060405250810190612f659190615919565b612f6f9190615544565b8960000181815250507f40a6ba9513d09e3488135e0e0d10e2d4382b792720155b144cbea89ac9db6d348686838c60000151888e60400151604051612fb996959493929190615abe565b60405180910390a1505050505050505050565b612fd461448b565b81806020019051810190612fe89190616c12565b8160600181905250826000015184606001518151811061300b5761300a6154e6565b5b6020026020010151816000019073ffffffffffffffffffffffffffffffffffffffff16908173ffffffffffffffffffffffffffffffffffffffff16815250508260000151600185606001516130609190615b1f565b81518110613071576130706154e6565b5b6020026020010151816020019073ffffffffffffffffffffffffffffffffffffffff16908173ffffffffffffffffffffffffffffffffffffffff168152505083600001518160400181815250506000846060015111806130d2575082606001515b81608001901515908115158152505083604001518160a0019073ffffffffffffffffffffffffffffffffffffffff16908173ffffffffffffffffffffffffffffffffffffffff16815250508260a001518160c0019073ffffffffffffffffffffffffffffffffffffffff16908173ffffffffffffffffffffffffffffffffffffffff16815250506131628161239e565b6020015184600001818152505050505050565b6000808280602001905181019061318c9190616e77565b9150915083600001518560600151815181106131ab576131aa6154e6565b5b602002602001015173ffffffffffffffffffffffffffffffffffffffff16826020015173ffffffffffffffffffffffffffffffffffffffff1614801561324e57508360000151600186606001516132029190615b1f565b81518110613213576132126154e6565b5b602002602001015173ffffffffffffffffffffffffffffffffffffffff16826000015173ffffffffffffffffffffffffffffffffffffffff16145b61328d576040517f08c379a000000000000000000000000000000000000000000000000000000000815260040161328490616f2b565b60405180910390fd5b6000803073ffffffffffffffffffffffffffffffffffffffff1663e4ba843985856132bb8b600001516140c5565b8b602001518b606001518d604001516040518763ffffffff1660e01b81526004016132eb96959493929190617102565b60408051808303816000875af1158015613309573d6000803e3d6000fd5b505050506040513d601f19601f8201168201806040525081019061332d9190617169565b91509150806fffffffffffffffffffffffffffffffff1687600001818152505050505050505050565b60007f8000000000000000000000000000000000000000000000000000000000000000808516036133fa576133f3670de0b6b3a76400006133cd60017f80000000000000000000000000000000000000000000000000000000000000006133bd9190615544565b8716670de0b6b3a76400006121bb565b856133d89190616390565b6133e29190616401565b83856133ee9190615544565b6121bb565b9050613412565b61340f84838561340a9190615544565b6121bb565b90505b9392505050565b6000808380602001905181019061343091906172df565b915091504267ffffffffffffffff1682610100015167ffffffffffffffff16116134b5576000613467613462846140fd565b614234565b90507fd9ee00a67daf7d99c37893015dc900862c9a02650ef2d318697e502e5fb8bbe28184608001518561010001516040516134a593929190617330565b60405180910390a150505061365d565b846000015173ffffffffffffffffffffffffffffffffffffffff16826020015173ffffffffffffffffffffffffffffffffffffffff1614801561352b5750846020015173ffffffffffffffffffffffffffffffffffffffff16826000015173ffffffffffffffffffffffffffffffffffffffff16145b61356a576040517f08c379a0000000000000000000000000000000000000000000000000000000008152600401613561906173d9565b60405180910390fd5b3073ffffffffffffffffffffffffffffffffffffffff1663aa6b21cd8383613591876140c5565b8960c001518a608001518b60a001516040518763ffffffff1660e01b81526004016135c1969594939291906174d4565b60408051808303816000875af19250505080156135fc57506040513d601f19601f820116820180604052508101906135f99190617169565b60015b1561365a57816fffffffffffffffffffffffffffffffff1688600001516136239190615b1f565b886000018181525050806fffffffffffffffffffffffffffffffff16886020015161364e9190615b1f565b88602001818152505050505b50505b50505050565b6000808380602001905181019061367a9190616e77565b91509150846000015173ffffffffffffffffffffffffffffffffffffffff16826020015173ffffffffffffffffffffffffffffffffffffffff161480156136f45750846020015173ffffffffffffffffffffffffffffffffffffffff16826000015173ffffffffffffffffffffffffffffffffffffffff16145b613733576040517f08c379a000000000000000000000000000000000000000000000000000000000815260040161372a906175ad565b60405180910390fd5b600060c08360e00151901c90504267ffffffffffffffff168167ffffffffffffffff16116137b857600061376e61376985614286565b614234565b90507f5574c085411e1dce1414a21a43f286a7bc07de97b0aa6b9143fd5dca66faa583818560800151846040516137a793929190617330565b60405180910390a1505050506138ac565b3073ffffffffffffffffffffffffffffffffffffffff1663e4ba843984846137df886140c5565b8a60c001518b608001518c60a001516040518763ffffffff1660e01b815260040161380f96959493929190617102565b60408051808303816000875af192505050801561384a57506040513d601f19601f820116820180604052508101906138479190617169565b60015b156138a857816fffffffffffffffffffffffffffffffff1689600001516138719190615b1f565b896000018181525050806fffffffffffffffffffffffffffffffff16896020015161389c9190615b1f565b89602001818152505050505b5050505b50505050565b6000807f000000000000000000000000000000000000000000000000000000000000000073ffffffffffffffffffffffffffffffffffffffff16632450eb0f60e01b8686866040516024016139099392919061781c565b604051602081830303815290604052907bffffffffffffffffffffffffffffffffffffffffffffffffffffffff19166020820180517bffffffffffffffffffffffffffffffffffffffffffffffffffffffff838183161783525050505060405161397391906169c5565b600060405180830381855af49150503d80600081146139ae576040519150601f19603f3d011682016040523d82523d6000602084013e6139b3565b606091505b50915091508115613a0a576000818060200190518101906139d49190615919565b90508387600001516139e69190615b1f565b8760000181815250508087602001516139ff9190615b1f565b876020018181525050505b505050505050565b60006060846080015115613b15573073ffffffffffffffffffffffffffffffffffffffff16634a931ba160e01b858560008960a00151604051602401613a5b9493929190616948565b604051602081830303815290604052907bffffffffffffffffffffffffffffffffffffffffffffffffffffffff19166020820180517bffffffffffffffffffffffffffffffffffffffffffffffffffffffff8381831617835250505050604051613ac591906169c5565b6000604051808303816000865af19150503d8060008114613b02576040519150601f19603f3d011682016040523d82523d6000602084013e613b07565b606091505b508092508193505050613c0c565b3073ffffffffffffffffffffffffffffffffffffffff1663168a643260e01b858560008960a001518a60c00151604051602401613b569594939291906169dc565b604051602081830303815290604052907bffffffffffffffffffffffffffffffffffffffffffffffffffffffff19166020820180517bffffffffffffffffffffffffffffffffffffffffffffffffffffffff8381831617835250505050604051613bc091906169c5565b6000604051808303816000865af19150503d8060008114613bfd576040519150601f19603f3d011682016040523d82523d6000602084013e613c02565b606091505b5080925081935050505b8115613c5e57600081806020019051810190613c289190615919565b9050838760000151613c3a9190615b1f565b876000018181525050808760200151613c539190615b1f565b876020018181525050505b505050505050565b6000807f000000000000000000000000000000000000000000000000000000000000000073ffffffffffffffffffffffffffffffffffffffff1663ca35159a60e01b868686604051602401613cbd9392919061781c565b604051602081830303815290604052907bffffffffffffffffffffffffffffffffffffffffffffffffffffffff19166020820180517bffffffffffffffffffffffffffffffffffffffffffffffffffffffff8381831617835250505050604051613d2791906169c5565b600060405180830381855af49150503d8060008114613d62576040519150601f19603f3d011682016040523d82523d6000602084013e613d67565b606091505b50915091508115613dbe57600081806020019051810190613d889190615919565b9050838760000151613d9a9190615b1f565b876000018181525050808760200151613db39190615b1f565b876020018181525050505b505050505050565b613dce614522565b8360c00151816000019073ffffffffffffffffffffffffffffffffffffffff16908173ffffffffffffffffffffffffffffffffffffffff16815250508360000151816020019073ffffffffffffffffffffffffffffffffffffffff16908173ffffffffffffffffffffffffffffffffffffffff16815250508360200151816040019073ffffffffffffffffffffffffffffffffffffffff16908173ffffffffffffffffffffffffffffffffffffffff168152505081816060018181525050600081608001818152505083608001518160c00190151590811515815250508360a001518160e0019073ffffffffffffffffffffffffffffffffffffffff16908173ffffffffffffffffffffffffffffffffffffffff168152505082806020019051810190613efb91906179ae565b8160a001819052503073ffffffffffffffffffffffffffffffffffffffff16638aa6539b826040518263ffffffff1660e01b8152600401613f3c9190617bc4565b6020604051808303816000875af1925050508015613f7857506040513d601f19601f82011682018060405250810190613f759190615919565b60015b15613fb157828660000151613f8d9190615b1f565b866000018181525050808660200151613fa69190615b1f565b866020018181525050505b5050505050565b613fc06145c1565b82806020019051810190613fd49190617d07565b826000018360400182905282905250508181602001818152505083608001518160600190151590811515815250508360a00151816080019073ffffffffffffffffffffffffffffffffffffffff16908173ffffffffffffffffffffffffffffffffffffffff16815250508360c001518160a0019073ffffffffffffffffffffffffffffffffffffffff16908173ffffffffffffffffffffffffffffffffffffffff1681525050600061408582611de3565b60000151905082866000015161409b9190615b1f565b8660000181815250508086602001516140b49190615b1f565b866020018181525050505050505050565b60006fffffffffffffffffffffffffffffffff80168211156140f5576140f46140ef60038461439b565b611b0f565b5b819050919050565b60006040517fe593d3fdfa8b60e5e17a1b2204662ecbe15c23f2084b9ad5bae40359540a7da98152825173ffffffffffffffffffffffffffffffffffffffff166020820152602083015173ffffffffffffffffffffffffffffffffffffffff16604082015260408301516fffffffffffffffffffffffffffffffff16606082015260608301516fffffffffffffffffffffffffffffffff166080820152608083015173ffffffffffffffffffffffffffffffffffffffff1660a082015260a083015173ffffffffffffffffffffffffffffffffffffffff1660c082015260c083015173ffffffffffffffffffffffffffffffffffffffff1660e082015260e083015161010082015261010083015167ffffffffffffffff166101208201526101208301516101408201526101608120915050919050565b60007f000000000000000000000000000000000000000000000000000000000000000082604051602001614269929190617dcb565b604051602081830303815290604052805190602001209050919050565b60006040517f2f754524de756ae72459efbe1ec88c19a745639821de528ac3fb88f9e65e35c88152825173ffffffffffffffffffffffffffffffffffffffff166020820152602083015173ffffffffffffffffffffffffffffffffffffffff16604082015260408301516fffffffffffffffffffffffffffffffff16606082015260608301516fffffffffffffffffffffffffffffffff166080820152608083015173ffffffffffffffffffffffffffffffffffffffff1660a082015260a083015173ffffffffffffffffffffffffffffffffffffffff1660c082015260c083015173ffffffffffffffffffffffffffffffffffffffff1660e082015260e08301516101008201526101208120915050919050565b606063c996af7b60e01b83836040516024016143b8929190617e4a565b604051602081830303815290604052907bffffffffffffffffffffffffffffffffffffffffffffffffffffffff19166020820180517bffffffffffffffffffffffffffffffffffffffffffffffffffffffff8381831617835250505050905092915050565b604051806080016040528060008152602001600073ffffffffffffffffffffffffffffffffffffffff168152602001600073ffffffffffffffffffffffffffffffffffffffff168152602001600081525090565b604051806040016040528060008152602001600081525090565b6040518060e00160405280600073ffffffffffffffffffffffffffffffffffffffff168152602001600073ffffffffffffffffffffffffffffffffffffffff1681526020016000815260200160608152602001600015158152602001600073ffffffffffffffffffffffffffffffffffffffff168152602001600073ffffffffffffffffffffffffffffffffffffffff1681525090565b604051806101000160405280600073ffffffffffffffffffffffffffffffffffffffff168152602001600073ffffffffffffffffffffffffffffffffffffffff168152602001600073ffffffffffffffffffffffffffffffffffffffff168152602001600081526020016000815260200160608152602001600015158152602001600073ffffffffffffffffffffffffffffffffffffffff1681525090565b6040518060c00160405280606081526020016000815260200160608152602001600015158152602001600073ffffffffffffffffffffffffffffffffffffffff168152602001600073ffffffffffffffffffffffffffffffffffffffff1681525090565b6000819050919050565b61463881614625565b82525050565b6000602082019050614653600083018461462f565b92915050565b6000604051905090565b600080fd5b600080fd5b600080fd5b6000601f19601f8301169050919050565b7f4e487b7100000000000000000000000000000000000000000000000000000000600052604160045260246000fd5b6146bb82614672565b810181811067ffffffffffffffff821117156146da576146d9614683565b5b80604052505050565b60006146ed614659565b90506146f982826146b2565b919050565b600067ffffffffffffffff82111561471957614718614683565b5b602082029050602081019050919050565b600080fd5b600073ffffffffffffffffffffffffffffffffffffffff82169050919050565b600061475a8261472f565b9050919050565b61476a8161474f565b811461477557600080fd5b50565b60008135905061478781614761565b92915050565b60006147a061479b846146fe565b6146e3565b905080838252602082019050602084028301858111156147c3576147c261472a565b5b835b818110156147ec57806147d88882614778565b8452602084019350506020810190506147c5565b5050509392505050565b600082601f83011261480b5761480a61466d565b5b813561481b84826020860161478d565b91505092915050565b600067ffffffffffffffff82111561483f5761483e614683565b5b602082029050602081019050919050565b600080fd5b600080fd5b6009811061486757600080fd5b50565b6000813590506148798161485a565b92915050565b600080fd5b600067ffffffffffffffff82111561489f5761489e614683565b5b6148a882614672565b9050602081019050919050565b82818337600083830152505050565b60006148d76148d284614884565b6146e3565b9050828152602081018484840111156148f3576148f261487f565b5b6148fe8482856148b5565b509392505050565b600082601f83011261491b5761491a61466d565b5b813561492b8482602086016148c4565b91505092915050565b60006040828403121561494a57614949614850565b5b61495460406146e3565b905060006149648482850161486a565b600083015250602082013567ffffffffffffffff81111561498857614987614855565b5b61499484828501614906565b60208301525092915050565b60006149b36149ae84614824565b6146e3565b905080838252602082019050602084028301858111156149d6576149d561472a565b5b835b81811015614a1d57803567ffffffffffffffff8111156149fb576149fa61466d565b5b808601614a088982614934565b855260208501945050506020810190506149d8565b5050509392505050565b600082601f830112614a3c57614a3b61466d565b5b8135614a4c8482602086016149a0565b91505092915050565b614a5e81614625565b8114614a6957600080fd5b50565b600081359050614a7b81614a55565b92915050565b60008060008060808587031215614a9b57614a9a614663565b5b600085013567ffffffffffffffff811115614ab957614ab8614668565b5b614ac5878288016147f6565b945050602085013567ffffffffffffffff811115614ae657614ae5614668565b5b614af287828801614a27565b9350506040614b0387828801614a6c565b9250506060614b1487828801614a6c565b91505092959194509250565b600080fd5b600060e08284031215614b3b57614b3a614b20565b5b81905092915050565b600080fd5b60008083601f840112614b5f57614b5e61466d565b5b8235905067ffffffffffffffff811115614b7c57614b7b614b44565b5b602083019150836001820283011115614b9857614b9761472a565b5b9250929050565b60008060008060608587031215614bb957614bb8614663565b5b600085013567ffffffffffffffff811115614bd757614bd6614668565b5b614be387828801614b25565b945050602085013567ffffffffffffffff811115614c0457614c03614668565b5b614c1087828801614b49565b93509350506040614c2387828801614a6c565b91505092959194509250565b6000614c3a8261474f565b9050919050565b614c4a81614c2f565b8114614c5557600080fd5b50565b600081359050614c6781614c41565b92915050565b600067ffffffffffffffff821115614c8857614c87614683565b5b602082029050602081019050919050565b600060608284031215614caf57614cae614850565b5b614cb960606146e3565b90506000614cc98482850161486a565b6000830152506020614cdd84828501614a6c565b602083015250604082013567ffffffffffffffff811115614d0157614d00614855565b5b614d0d84828501614906565b60408301525092915050565b6000614d2c614d2784614c6d565b6146e3565b90508083825260208201905060208402830185811115614d4f57614d4e61472a565b5b835b81811015614d9657803567ffffffffffffffff811115614d7457614d7361466d565b5b808601614d818982614c99565b85526020850194505050602081019050614d51565b5050509392505050565b600082601f830112614db557614db461466d565b5b8135614dc5848260208601614d19565b91505092915050565b60008115159050919050565b614de381614dce565b8114614dee57600080fd5b50565b600081359050614e0081614dda565b92915050565b600060e08284031215614e1c57614e1b614850565b5b614e2660e06146e3565b90506000614e3684828501614c58565b6000830152506020614e4a84828501614c58565b6020830152506040614e5e84828501614a6c565b604083015250606082013567ffffffffffffffff811115614e8257614e81614855565b5b614e8e84828501614da0565b6060830152506080614ea284828501614df1565b60808301525060a0614eb684828501614778565b60a08301525060c0614eca84828501614778565b60c08301525092915050565b60008060408385031215614eed57614eec614663565b5b600083013567ffffffffffffffff811115614f0b57614f0a614668565b5b614f1785828601614e06565b9250506020614f2885828601614a6c565b9150509250929050565b600080600060608486031215614f4b57614f4a614663565b5b600084013567ffffffffffffffff811115614f6957614f68614668565b5b614f75868287016147f6565b935050602084013567ffffffffffffffff811115614f9657614f95614668565b5b614fa286828701614a27565b9250506040614fb386828701614a6c565b9150509250925092565b600060c08284031215614fd357614fd2614850565b5b614fdd60c06146e3565b9050600082013567ffffffffffffffff811115614ffd57614ffc614855565b5b615009848285016147f6565b600083015250602061501d84828501614a6c565b602083015250604082013567ffffffffffffffff81111561504157615040614855565b5b61504d84828501614a27565b604083015250606061506184828501614df1565b606083015250608061507584828501614778565b60808301525060a061508984828501614778565b60a08301525092915050565b600080604083850312156150ac576150ab614663565b5b600083013567ffffffffffffffff8111156150ca576150c9614668565b5b6150d685828601614fbd565b92505060206150e785828601614a6c565b9150509250929050565b600081519050919050565b600082825260208201905092915050565b60005b8381101561512b578082015181840152602081019050615110565b60008484015250505050565b6000615142826150f1565b61514c81856150fc565b935061515c81856020860161510d565b61516581614672565b840191505092915050565b6000602082019050818103600083015261518a8184615137565b905092915050565b600080600080608085870312156151ac576151ab614663565b5b60006151ba87828801614c58565b945050602085013567ffffffffffffffff8111156151db576151da614668565b5b6151e787828801614da0565b93505060406151f887828801614a6c565b925050606061520987828801614a6c565b91505092959194509250565b600080600080600060a0868803121561523157615230614663565b5b600061523f88828901614c58565b955050602061525088828901614c58565b945050604086013567ffffffffffffffff81111561527157615270614668565b5b61527d88828901614da0565b935050606061528e88828901614a6c565b925050608061529f88828901614a6c565b9150509295509295909350565b60007fffffffff0000000000000000000000000000000000000000000000000000000082169050919050565b6152e1816152ac565b82525050565b60006020820190506152fc60008301846152d8565b92915050565b6000819050919050565b61531581615302565b82525050565b6000602082019050615330600083018461530c565b92915050565b60008060006060848603121561534f5761534e614663565b5b600061535d86828701614c58565b935050602084013567ffffffffffffffff81111561537e5761537d614668565b5b61538a86828701614da0565b925050604061539b86828701614a6c565b9150509250925092565b7f4d756c7469706c65784c697175696469747950726f76696465723a3a5f62617460008201527f636853656c6c556e6973776170563245787465726e616c2f4f4e4c595f44454c60208201527f454741544543414c4c0000000000000000000000000000000000000000000000604082015250565b60006154276049836150fc565b9150615432826153a5565b606082019050919050565b600060208201905081810360008301526154568161541a565b9050919050565b6000806040838503121561547457615473614663565b5b600083013567ffffffffffffffff81111561549257615491614668565b5b61549e858286016147f6565b92505060206154af85828601614df1565b9150509250929050565b6000602082840312156154cf576154ce614663565b5b60006154dd84828501614c58565b91505092915050565b7f4e487b7100000000000000000000000000000000000000000000000000000000600052603260045260246000fd5b7f4e487b7100000000000000000000000000000000000000000000000000000000600052601160045260246000fd5b600061554f82614625565b915061555a83614625565b925082820390508181111561557257615571615515565b5b92915050565b7f4d756c7469706c6578556e697377617056323a3a5f626174636853656c6c556e60008201527f697377617056322f494e56414c49445f544f4b454e5300000000000000000000602082015250565b60006155d46036836150fc565b91506155df82615578565b604082019050919050565b60006020820190508181036000830152615603816155c7565b9050919050565b6000602082840312156156205761561f614663565b5b600061562e84828501614df1565b91505092915050565b60006020828403121561564d5761564c614663565b5b600061565b84828501614778565b91505092915050565b7f4d756c7469706c6578466561747572653a3a6d756c7469706c65784d756c746960008201527f486f7053656c6c457468466f72546f6b656e2f4e4f545f574554480000000000602082015250565b60006156c0603b836150fc565b91506156cb82615664565b604082019050919050565b600060208201905081810360008301526156ef816156b3565b9050919050565b7f4d756c7469706c6578466561747572653a3a6d756c7469706c65784d756c746960008201527f486f7053656c6c546f6b656e466f724574682f4e4f545f574554480000000000602082015250565b6000615752603b836150fc565b915061575d826156f6565b604082019050919050565b6000602082019050818103600083015261578181615745565b9050919050565b7f4d756c7469706c65784c697175696469747950726f76696465723a3a5f62617460008201527f636853656c6c4c697175696469747950726f766964657245787465726e616c2f60208201527f4f4e4c595f44454c454741544543414c4c000000000000000000000000000000604082015250565b600061580a6051836150fc565b915061581582615788565b606082019050919050565b60006020820190508181036000830152615839816157fd565b9050919050565b600061584b8261472f565b9050919050565b61585b81615840565b811461586657600080fd5b50565b60008135905061587881615852565b92915050565b6000806040838503121561589557615894614663565b5b60006158a385828601615869565b925050602083013567ffffffffffffffff8111156158c4576158c3614668565b5b6158d085828601614906565b9150509250929050565b6158e38161474f565b82525050565b60006020820190506158fe60008301846158da565b92915050565b60008151905061591381614a55565b92915050565b60006020828403121561592f5761592e614663565b5b600061593d84828501615904565b91505092915050565b6000819050919050565b600061596b6159666159618461472f565b615946565b61472f565b9050919050565b600061597d82615950565b9050919050565b600061598f82615972565b9050919050565b61599f81615984565b82525050565b60006159b082615972565b9050919050565b6159c0816159a5565b82525050565b6000819050919050565b60006159eb6159e66159e1846159c6565b615946565b614625565b9050919050565b6159fb816159d0565b82525050565b600081519050919050565b600082825260208201905092915050565b6000615a2882615a01565b615a328185615a0c565b9350615a4281856020860161510d565b615a4b81614672565b840191505092915050565b600060c082019050615a6b6000830189615996565b615a7860208301886159b7565b615a8560408301876159b7565b615a9260608301866158da565b615a9f60808301856159f2565b81810360a0830152615ab18184615a1d565b9050979650505050505050565b600060c082019050615ad360008301896158da565b615ae060208301886158da565b615aed604083018761462f565b615afa606083018661462f565b615b0760808301856158da565b615b1460a08301846158da565b979650505050505050565b6000615b2a82614625565b9150615b3583614625565b9250828201905080821115615b4d57615b4c615515565b5b92915050565b7f4d756c7469706c6578466561747572653a3a5f6d756c7469706c65784d756c7460008201527f69486f7053656c6c2f4d49534d4154434845445f41525241595f4c454e47544860208201527f5300000000000000000000000000000000000000000000000000000000000000604082015250565b6000615bd56041836150fc565b9150615be082615b53565b606082019050919050565b60006020820190508181036000830152615c0481615bc8565b9050919050565b7f4d756c7469706c6578466561747572653a3a5f6d756c7469706c65784d756c7460008201527f69486f7053656c6c2f554e444552424f55474854000000000000000000000000602082015250565b6000615c676034836150fc565b9150615c7282615c0b565b604082019050919050565b60006020820190508181036000830152615c9681615c5a565b9050919050565b60008160601b9050919050565b6000615cb582615c9d565b9050919050565b6000615cc782615caa565b9050919050565b615cdf615cda8261474f565b615cbc565b82525050565b6000615cf18285615cce565b601482019150615d018284615cce565b6014820191508190509392505050565b600081905092915050565b7fff00000000000000000000000000000000000000000000000000000000000000600082015250565b6000615d52600183615d11565b9150615d5d82615d1c565b600182019050919050565b6000819050919050565b615d83615d7e82615302565b615d68565b82525050565b6000615d9482615d45565b9150615da08286615cce565b601482019150615db08285615d72565b602082019150615dc08284615d72565b602082019150819050949350505050565b7f466978696e546f6b656e5370656e6465722f43414e4e4f545f494e564f4b455f60008201527f53454c4600000000000000000000000000000000000000000000000000000000602082015250565b6000615e2d6024836150fc565b9150615e3882615dd1565b604082019050919050565b60006020820190508181036000830152615e5c81615e20565b9050919050565b6000608082019050615e78600083018761462f565b615e85602083018661462f565b615e9260408301856158da565b8181036060830152615ea48184615a1d565b905095945050505050565b7f4d756c7469706c6578466561747572653a3a5f6d756c7469706c65784261746360008201527f6853656c6c2f554e444552424f55474854000000000000000000000000000000602082015250565b6000615f0b6031836150fc565b9150615f1682615eaf565b604082019050919050565b60006020820190508181036000830152615f3a81615efe565b9050919050565b600081905092915050565b50565b6000615f5c600083615f41565b9150615f6782615f4c565b600082019050919050565b6000615f7d82615f4f565b9150819050919050565b7f466978696e546f6b656e5370656e6465723a3a5f7472616e736665724574682f60008201527f5452414e534645525f4641494c45440000000000000000000000000000000000602082015250565b6000615fe3602f836150fc565b9150615fee82615f87565b604082019050919050565b6000602082019050818103600083015261601281615fd6565b9050919050565b600060408201905061602e60008301856152d8565b61603b60208301846158da565b9392505050565b7f4e487b7100000000000000000000000000000000000000000000000000000000600052602160045260246000fd5b7f4d756c7469706c6578466561747572653a3a5f657865637574654d756c74694860008201527f6f7053656c6c2f494e56414c49445f53554243414c4c00000000000000000000602082015250565b60006160cd6036836150fc565b91506160d882616071565b604082019050919050565b600060208201905081810360008301526160fc816160c0565b9050919050565b600061610e82614625565b91507fffffffffffffffffffffffffffffffffffffffffffffffffffffffffffffffff82036161405761613f615515565b5b600182019050919050565b7f4d756c7469706c6578556e697377617056323a3a5f636f6d70757465556e697360008201527f7761704f7574707574416d6f756e742f494e53554646494349454e545f494e5060208201527f55545f414d4f554e540000000000000000000000000000000000000000000000604082015250565b60006161cd6049836150fc565b91506161d88261614b565b606082019050919050565b600060208201905081810360008301526161fc816161c0565b9050919050565b60006dffffffffffffffffffffffffffff82169050919050565b61622681616203565b811461623157600080fd5b50565b6000815190506162438161621d565b92915050565b600063ffffffff82169050919050565b61626281616249565b811461626d57600080fd5b50565b60008151905061627f81616259565b92915050565b60008060006060848603121561629e5761629d614663565b5b60006162ac86828701616234565b93505060206162bd86828701616234565b92505060406162ce86828701616270565b9150509250925092565b7f4d756c7469706c6578556e697377617056323a3a5f636f6d70757465556e697360008201527f7761704f7574707574416d6f756e742f494e53554646494349454e545f4c495160208201527f5549444954590000000000000000000000000000000000000000000000000000604082015250565b600061635a6046836150fc565b9150616365826162d8565b606082019050919050565b600060208201905081810360008301526163898161634d565b9050919050565b600061639b82614625565b91506163a683614625565b92508282026163b481614625565b915082820484148315176163cb576163ca615515565b5b5092915050565b7f4e487b7100000000000000000000000000000000000000000000000000000000600052601260045260246000fd5b600061640c82614625565b915061641783614625565b925082616427576164266163d2565b5b828204905092915050565b7f4d756c7469706c6578466561747572653a3a5f6578656375746542617463685360008201527f656c6c2f494e56414c49445f53554243414c4c00000000000000000000000000602082015250565b600061648e6033836150fc565b915061649982616432565b604082019050919050565b600060208201905081810360008301526164bd81616481565b9050919050565b7f4d756c7469706c6578466561747572653a3a5f6578656375746542617463685360008201527f656c6c2f494e434f52524543545f414d4f554e545f534f4c4400000000000000602082015250565b60006165206039836150fc565b915061652b826164c4565b604082019050919050565b6000602082019050818103600083015261654f81616513565b9050919050565b60008151905061656581614761565b92915050565b600061657e616579846146fe565b6146e3565b905080838252602082019050602084028301858111156165a1576165a061472a565b5b835b818110156165ca57806165b68882616556565b8452602084019350506020810190506165a3565b5050509392505050565b600082601f8301126165e9576165e861466d565b5b81516165f984826020860161656b565b91505092915050565b60008151905061661181614dda565b92915050565b6000806040838503121561662e5761662d614663565b5b600083015167ffffffffffffffff81111561664c5761664b614668565b5b616658858286016165d4565b925050602061666985828601616602565b9150509250929050565b60008151905061668281615852565b92915050565b600061669b61669684614884565b6146e3565b9050828152602081018484840111156166b7576166b661487f565b5b6166c284828561510d565b509392505050565b600082601f8301126166df576166de61466d565b5b81516166ef848260208601616688565b91505092915050565b6000806040838503121561670f5761670e614663565b5b600061671d85828601616673565b925050602083015167ffffffffffffffff81111561673e5761673d614668565b5b61674a858286016166ca565b9150509250929050565b7f4d756c7469706c6578466561747572653a3a5f636f6d70757465486f7054617260008201527f6765742f494e56414c49445f53554243414c4c00000000000000000000000000602082015250565b60006167b06033836150fc565b91506167bb82616754565b604082019050919050565b600060208201905081810360008301526167df816167a3565b9050919050565b7f4d756c7469706c6578466561747572653a3a5f636f6d70757465486f7054617260008201527f6765742f5441524745545f49535f4e554c4c0000000000000000000000000000602082015250565b60006168426032836150fc565b915061684d826167e6565b604082019050919050565b6000602082019050818103600083015261687181616835565b9050919050565b7f4d756c7469706c6578556e697377617056323a3a5f6d756c7469486f7053656c60008201527f6c556e697377617056322f494e56414c49445f544f4b454e5300000000000000602082015250565b60006168d46039836150fc565b91506168df82616878565b604082019050919050565b60006020820190508181036000830152616903816168c7565b9050919050565b600060ff82169050919050565b600061693261692d616928846159c6565b615946565b61690a565b9050919050565b61694281616917565b82525050565b600060808201905081810360008301526169628187615a1d565b9050616971602083018661462f565b61697e6040830185616939565b61698b60608301846158da565b95945050505050565b600061699f82615a01565b6169a98185615f41565b93506169b981856020860161510d565b80840191505092915050565b60006169d18284616994565b915081905092915050565b600060a08201905081810360008301526169f68188615a1d565b9050616a05602083018761462f565b616a126040830186616939565b616a1f60608301856158da565b616a2c60808301846158da565b9695505050505050565b7f4d756c7469706c6578556e697377617056333a3a5f6d756c7469486f7053656c60008201527f6c556e697377617056332f535741505f4641494c454400000000000000000000602082015250565b6000616a926036836150fc565b9150616a9d82616a36565b604082019050919050565b60006020820190508181036000830152616ac181616a85565b9050919050565b600081519050616ad78161485a565b92915050565b600060608284031215616af357616af2614850565b5b616afd60606146e3565b90506000616b0d84828501616ac8565b6000830152506020616b2184828501615904565b602083015250604082015167ffffffffffffffff811115616b4557616b44614855565b5b616b51848285016166ca565b60408301525092915050565b6000616b70616b6b84614c6d565b6146e3565b90508083825260208201905060208402830185811115616b9357616b9261472a565b5b835b81811015616bda57805167ffffffffffffffff811115616bb857616bb761466d565b5b808601616bc58982616add565b85526020850194505050602081019050616b95565b5050509392505050565b600082601f830112616bf957616bf861466d565b5b8151616c09848260208601616b5d565b91505092915050565b600060208284031215616c2857616c27614663565b5b600082015167ffffffffffffffff811115616c4657616c45614668565b5b616c5284828501616be4565b91505092915050565b600081519050616c6a81614c41565b92915050565b60006fffffffffffffffffffffffffffffffff82169050919050565b616c9581616c70565b8114616ca057600080fd5b50565b600081519050616cb281616c8c565b92915050565b60006101008284031215616ccf57616cce614850565b5b616cda6101006146e3565b90506000616cea84828501616c5b565b6000830152506020616cfe84828501616c5b565b6020830152506040616d1284828501616ca3565b6040830152506060616d2684828501616ca3565b6060830152506080616d3a84828501616556565b60808301525060a0616d4e84828501616556565b60a08301525060c0616d6284828501616556565b60c08301525060e0616d7684828501615904565b60e08301525092915050565b60058110616d8f57600080fd5b50565b600081519050616da181616d82565b92915050565b616db08161690a565b8114616dbb57600080fd5b50565b600081519050616dcd81616da7565b92915050565b616ddc81615302565b8114616de757600080fd5b50565b600081519050616df981616dd3565b92915050565b600060808284031215616e1557616e14614850565b5b616e1f60806146e3565b90506000616e2f84828501616d92565b6000830152506020616e4384828501616dbe565b6020830152506040616e5784828501616dea565b6040830152506060616e6b84828501616dea565b60608301525092915050565b6000806101808385031215616e8f57616e8e614663565b5b6000616e9d85828601616cb8565b925050610100616eaf85828601616dff565b9150509250929050565b7f4d756c7469706c65784f74634f726465723a3a5f6d756c7469486f7053656c6c60008201527f4f74634f726465722f494e56414c49445f544f4b454e53000000000000000000602082015250565b6000616f156037836150fc565b9150616f2082616eb9565b604082019050919050565b60006020820190508181036000830152616f4481616f08565b9050919050565b616f54816159a5565b82525050565b616f6381616c70565b82525050565b616f728161474f565b82525050565b616f8181614625565b82525050565b61010082016000820151616f9e6000850182616f4b565b506020820151616fb16020850182616f4b565b506040820151616fc46040850182616f5a565b506060820151616fd76060850182616f5a565b506080820151616fea6080850182616f69565b5060a0820151616ffd60a0850182616f69565b5060c082015161701060c0850182616f69565b5060e082015161702360e0850182616f78565b50505050565b6005811061703a57617039616042565b5b50565b600081905061704b82617029565b919050565b600061705b8261703d565b9050919050565b61706b81617050565b82525050565b61707a8161690a565b82525050565b61708981615302565b82525050565b6080820160008201516170a56000850182617062565b5060208201516170b86020850182617071565b5060408201516170cb6040850182617080565b5060608201516170de6060850182617080565b50505050565b6170ed81616c70565b82525050565b6170fc81614dce565b82525050565b6000610200820190506171186000830189616f87565b61712661010083018861708f565b6171346101808301876170e4565b6171426101a08301866158da565b6171506101c08301856170f3565b61715e6101e08301846158da565b979650505050505050565b600080604083850312156171805761717f614663565b5b600061718e85828601616ca3565b925050602061719f85828601616ca3565b9150509250929050565b600067ffffffffffffffff82169050919050565b6171c6816171a9565b81146171d157600080fd5b50565b6000815190506171e3816171bd565b92915050565b60006101408284031215617200576171ff614850565b5b61720b6101406146e3565b9050600061721b84828501616c5b565b600083015250602061722f84828501616c5b565b602083015250604061724384828501616ca3565b604083015250606061725784828501616ca3565b606083015250608061726b84828501616556565b60808301525060a061727f84828501616556565b60a08301525060c061729384828501616556565b60c08301525060e06172a784828501616dea565b60e0830152506101006172bc848285016171d4565b610100830152506101206172d284828501615904565b6101208301525092915050565b6000806101c083850312156172f7576172f6614663565b5b6000617305858286016171e9565b92505061014061731785828601616dff565b9150509250929050565b61732a816171a9565b82525050565b6000606082019050617345600083018661530c565b61735260208301856158da565b61735f6040830184617321565b949350505050565b7f4d756c7469706c65785266713a3a5f626174636853656c6c5266714f7264657260008201527f2f5246515f4f524445525f494e56414c49445f544f4b454e5300000000000000602082015250565b60006173c36039836150fc565b91506173ce82617367565b604082019050919050565b600060208201905081810360008301526173f2816173b6565b9050919050565b617402816171a9565b82525050565b6101408201600082015161741f6000850182616f4b565b5060208201516174326020850182616f4b565b5060408201516174456040850182616f5a565b5060608201516174586060850182616f5a565b50608082015161746b6080850182616f69565b5060a082015161747e60a0850182616f69565b5060c082015161749160c0850182616f69565b5060e08201516174a460e0850182617080565b506101008201516174b96101008501826173f9565b506101208201516174ce610120850182616f78565b50505050565b6000610240820190506174ea6000830189617408565b6174f861014083018861708f565b6175066101c08301876170e4565b6175146101e08301866158da565b6175226102008301856170f3565b6175306102208301846158da565b979650505050505050565b7f4d756c7469706c65784f74633a3a5f626174636853656c6c4f74634f7264657260008201527f2f4f54435f4f524445525f494e56414c49445f544f4b454e5300000000000000602082015250565b60006175976039836150fc565b91506175a28261753b565b604082019050919050565b600060208201905081810360008301526175c68161758a565b9050919050565b600081519050919050565b600082825260208201905092915050565b6000819050602082019050919050565b6009811061760a57617609616042565b5b50565b600081905061761b826175f9565b919050565b600061762b8261760d565b9050919050565b61763b81617620565b82525050565b600082825260208201905092915050565b600061765d82615a01565b6176678185617641565b935061767781856020860161510d565b61768081614672565b840191505092915050565b60006060830160008301516176a36000860182617632565b5060208301516176b66020860182616f78565b50604083015184820360408601526176ce8282617652565b9150508091505092915050565b60006176e7838361768b565b905092915050565b6000602082019050919050565b6000617707826175cd565b61771181856175d8565b935083602082028501617723856175e9565b8060005b8581101561775f578484038952815161774085826176db565b945061774b836176ef565b925060208a01995050600181019050617727565b50829750879550505050505092915050565b61777a81614dce565b82525050565b600060e0830160008301516177986000860182616f4b565b5060208301516177ab6020860182616f4b565b5060408301516177be6040860182616f78565b50606083015184820360608601526177d682826176fc565b91505060808301516177eb6080860182617771565b5060a08301516177fe60a0860182616f69565b5060c083015161781160c0860182616f69565b508091505092915050565b600060608201905081810360008301526178368186617780565b9050818103602083015261784a8185615a1d565b9050617859604083018461462f565b949350505050565b600067ffffffffffffffff82111561787c5761787b614683565b5b602082029050602081019050919050565b6000604082840312156178a3576178a2614850565b5b6178ad60406146e3565b905060006178bd84828501616270565b600083015250602082015167ffffffffffffffff8111156178e1576178e0614855565b5b6178ed848285016166ca565b60208301525092915050565b600061790c61790784617861565b6146e3565b9050808382526020820190506020840283018581111561792f5761792e61472a565b5b835b8181101561797657805167ffffffffffffffff8111156179545761795361466d565b5b808601617961898261788d565b85526020850194505050602081019050617931565b5050509392505050565b600082601f8301126179955761799461466d565b5b81516179a58482602086016178f9565b91505092915050565b6000602082840312156179c4576179c3614663565b5b600082015167ffffffffffffffff8111156179e2576179e1614668565b5b6179ee84828501617980565b91505092915050565b617a0081615840565b82525050565b600081519050919050565b600082825260208201905092915050565b6000819050602082019050919050565b617a3b81616249565b82525050565b6000604083016000830151617a596000860182617a32565b5060208301518482036020860152617a718282617652565b9150508091505092915050565b6000617a8a8383617a41565b905092915050565b6000602082019050919050565b6000617aaa82617a06565b617ab48185617a11565b935083602082028501617ac685617a22565b8060005b85811015617b025784840389528151617ae38582617a7e565b9450617aee83617a92565b925060208a01995050600181019050617aca565b50829750879550505050505092915050565b600061010083016000830151617b2d60008601826179f7565b506020830151617b406020860182616f4b565b506040830151617b536040860182616f4b565b506060830151617b666060860182616f78565b506080830151617b796080860182616f78565b5060a083015184820360a0860152617b918282617a9f565b91505060c0830151617ba660c0860182617771565b5060e0830151617bb960e08601826179f7565b508091505092915050565b60006020820190508181036000830152617bde8184617b14565b905092915050565b600060408284031215617bfc57617bfb614850565b5b617c0660406146e3565b90506000617c1684828501616ac8565b600083015250602082015167ffffffffffffffff811115617c3a57617c39614855565b5b617c46848285016166ca565b60208301525092915050565b6000617c65617c6084614824565b6146e3565b90508083825260208201905060208402830185811115617c8857617c8761472a565b5b835b81811015617ccf57805167ffffffffffffffff811115617cad57617cac61466d565b5b808601617cba8982617be6565b85526020850194505050602081019050617c8a565b5050509392505050565b600082601f830112617cee57617ced61466d565b5b8151617cfe848260208601617c52565b91505092915050565b60008060408385031215617d1e57617d1d614663565b5b600083015167ffffffffffffffff811115617d3c57617d3b614668565b5b617d48858286016165d4565b925050602083015167ffffffffffffffff811115617d6957617d68614668565b5b617d7585828601617cd9565b9150509250929050565b7f1901000000000000000000000000000000000000000000000000000000000000600082015250565b6000617db5600283615d11565b9150617dc082617d7f565b600282019050919050565b6000617dd682617da8565b9150617de28285615d72565b602082019150617df28284615d72565b6020820191508190509392505050565b60048110617e1357617e12616042565b5b50565b6000819050617e2482617e02565b919050565b6000617e3482617e16565b9050919050565b617e4481617e29565b82525050565b6000604082019050617e5f6000830185617e3b565b617e6c602083018461462f565b939250505056fea26469706673582212201f3ee4a2a041a9b840069a7847962267778df3f869314a8a820bdd8cdb08a36a64736f6c634300081c0033",
  "linkReferences": {},
  "deployedLinkReferences": {}
}