{
  "_format": "hh-sol-artifact-1",
  "contractName": "ZRXWrappedToken",
  "sourceName": "src/ZRXWrappedToken.sol",
  "abi": [
    {
      "inputs": [
        {
          "internalType": "contract IERC20",
          "name": "wrappedToken",
          "type": "address"
        },
        {
          "internalType": "contract IZeroExVotes",
          "name": "_zeroExVotes",
          "type": "address"
        }
      ],
      "stateMutability": "nonpayable",
      "type": "constructor"
    },
    {
      "anonymous": false,
      "inputs": [
        {
          "indexed": true,
          "internalType": "address",
          "name": "owner",
          "type": "address"
        },
        {
          "indexed": true,
          "internalType": "address",
          "name": "spender",
          "type": "address"
        },
        {
          "indexed": false,
          "internalType": "uint256",
          "name": "value",
          "type": "uint256"
        }
      ],
      "name": "Approval",
      "type": "event"
    },
    {
      "anonymous": false,
      "inputs": [
        {
          "indexed": true,
          "internalType": "address",
          "name": "delegator",
          "type": "address"
        },
        {
          "indexed": true,
          "internalType": "address",
          "name": "fromDelegate",
          "type": "address"
        },
        {
          "indexed": true,
          "internalType": "address",
          "name": "toDelegate",
          "type": "address"
        }
      ],
      "name": "DelegateChanged",
      "type": "event"
    },
    {
      "anonymous": false,
      "inputs": [
        {
          "indexed": true,
          "internalType": "address",
          "name": "from",
          "type": "address"
        },
        {
          "indexed": true,
          "internalType": "address",
          "name": "to",
          "type": "address"
        },
        {
          "indexed": false,
          "internalType": "uint256",
          "name": "value",
          "type": "uint256"
        }
      ],
      "name": "Transfer",
      "type": "event"
    },
    {
      "inputs": [],
      "name": "DOMAIN_SEPARATOR",
      "outputs": [
        {
          "internalType": "bytes32",
          "name": "",
          "type": "bytes32"
        }
      ],
      "stateMutability": "view",
      "type": "function"
    },
    {
      "inputs": [
        {
          "internalType": "address",
          "name": "owner",
          "type": "address"
        },
        {
          "internalType": "address",
          "name": "spender",
          "type": "address"
        }
      ],
      "name": "allowance",
      "outputs": [
        {
          "internalType": "uint256",
          "name": "",
          "type": "uint256"
        }
      ],
      "stateMutability": "view",
      "type": "function"
    },
    {
      "inputs": [
        {
          "internalType": "address",
          "name": "spender",
          "type": "address"
        },
        {
          "internalType": "uint256",
          "name": "amount",
          "type": "uint256"
        }
      ],
      "name": "approve",
      "outputs": [
        {
          "internalType": "bool",
          "name": "",
          "type": "bool"
        }
      ],
      "stateMutability": "nonpayable",
      "type": "function"
    },
    {
      "inputs": [
        {
          "internalType": "address",
          "name": "account",
          "type": "address"
        }
      ],
      "name": "balanceOf",
      "outputs": [
        {
          "internalType": "uint256",
          "name": "",
          "type": "uint256"
        }
      ],
      "stateMutability": "view",
      "type": "function"
    },
    {
      "inputs": [],
      "name": "decimals",
      "outputs": [
        {
          "internalType": "uint8",
          "name": "",
          "type": "uint8"
        }
      ],
      "stateMutability": "pure",
      "type": "function"
    },
    {
      "inputs": [
        {
          "internalType": "address",
          "name": "spender",
          "type": "address"
        },
        {
          "internalType": "uint256",
          "name": "subtractedValue",
          "type": "uint256"
        }
      ],
      "name": "decreaseAllowance",
      "outputs": [
        {
          "internalType": "bool",
          "name": "",
          "type": "bool"
        }
      ],
      "stateMutability": "nonpayable",
      "type": "function"
    },
    {
      "inputs": [
        {
          "internalType": "address",
          "name": "delegatee",
          "type": "address"
        }
      ],
      "name": "delegate",
      "outputs": [],
      "stateMutability": "nonpayable",
      "type": "function"
    },
    {
      "inputs": [
        {
          "internalType": "address",
          "name": "delegatee",
          "type": "address"
        },
        {
          "internalType": "uint256",
          "name": "nonce",
          "type": "uint256"
        },
        {
          "internalType": "uint256",
          "name": "expiry",
          "type": "uint256"
        },
        {
          "internalType": "uint8",
          "name": "v",
          "type": "uint8"
        },
        {
          "internalType": "bytes32",
          "name": "r",
          "type": "bytes32"
        },
        {
          "internalType": "bytes32",
          "name": "s",
          "type": "bytes32"
        }
      ],
      "name": "delegateBySig",
      "outputs": [],
      "stateMutability": "nonpayable",
      "type": "function"
    },
    {
      "inputs": [
        {
          "internalType": "address",
          "name": "account",
          "type": "address"
        }
      ],
      "name": "delegateInfo",
      "outputs": [
        {
          "components": [
            {
              "internalType": "address",
              "name": "delegate",
              "type": "address"
            },
            {
              "internalType": "uint96",
              "name": "balanceLastUpdated",
              "type": "uint96"
            }
          ],
          "internalType": "struct ZRXWrappedToken.DelegateInfo",
          "name": "",
          "type": "tuple"
        }
      ],
      "stateMutability": "view",
      "type": "function"
    },
    {
      "inputs": [
        {
          "internalType": "address",
          "name": "account",
          "type": "address"
        }
      ],
      "name": "delegates",
      "outputs": [
        {
          "internalType": "address",
          "name": "",
          "type": "address"
        }
      ],
      "stateMutability": "view",
      "type": "function"
    },
    {
      "inputs": [
        {
          "internalType": "address",
          "name": "account",
          "type": "address"
        }
      ],
      "name": "delegatorBalanceLastUpdated",
      "outputs": [
        {
          "internalType": "uint96",
          "name": "",
          "type": "uint96"
        }
      ],
      "stateMutability": "view",
      "type": "function"
    },
    {
      "inputs": [
        {
          "internalType": "address",
          "name": "account",
          "type": "address"
        },
        {
          "internalType": "uint256",
          "name": "amount",
          "type": "uint256"
        }
      ],
      "name": "depositFor",
      "outputs": [
        {
          "internalType": "bool",
          "name": "",
          "type": "bool"
        }
      ],
      "stateMutability": "nonpayable",
      "type": "function"
    },
    {
      "inputs": [
        {
          "internalType": "address",
          "name": "spender",
          "type": "address"
        },
        {
          "internalType": "uint256",
          "name": "addedValue",
          "type": "uint256"
        }
      ],
      "name": "increaseAllowance",
      "outputs": [
        {
          "internalType": "bool",
          "name": "",
          "type": "bool"
        }
      ],
      "stateMutability": "nonpayable",
      "type": "function"
    },
    {
      "inputs": [],
      "name": "name",
      "outputs": [
        {
          "internalType": "string",
          "name": "",
          "type": "string"
        }
      ],
      "stateMutability": "view",
      "type": "function"
    },
    {
      "inputs": [
        {
          "internalType": "address",
          "name": "owner",
          "type": "address"
        }
      ],
      "name": "nonces",
      "outputs": [
        {
          "internalType": "uint256",
          "name": "",
          "type": "uint256"
        }
      ],
      "stateMutability": "view",
      "type": "function"
    },
    {
      "inputs": [
        {
          "internalType": "address",
          "name": "owner",
          "type": "address"
        },
        {
          "internalType": "address",
          "name": "spender",
          "type": "address"
        },
        {
          "internalType": "uint256",
          "name": "value",
          "type": "uint256"
        },
        {
          "internalType": "uint256",
          "name": "deadline",
          "type": "uint256"
        },
        {
          "internalType": "uint8",
          "name": "v",
          "type": "uint8"
        },
        {
          "internalType": "bytes32",
          "name": "r",
          "type": "bytes32"
        },
        {
          "internalType": "bytes32",
          "name": "s",
          "type": "bytes32"
        }
      ],
      "name": "permit",
      "outputs": [],
      "stateMutability": "nonpayable",
      "type": "function"
    },
    {
      "inputs": [],
      "name": "symbol",
      "outputs": [
        {
          "internalType": "string",
          "name": "",
          "type": "string"
        }
      ],
      "stateMutability": "view",
      "type": "function"
    },
    {
      "inputs": [],
      "name": "totalSupply",
      "outputs": [
        {
          "internalType": "uint256",
          "name": "",
          "type": "uint256"
        }
      ],
      "stateMutability": "view",
      "type": "function"
    },
    {
      "inputs": [
        {
          "internalType": "address",
          "name": "to",
          "type": "address"
        },
        {
          "internalType": "uint256",
          "name": "amount",
          "type": "uint256"
        }
      ],
      "name": "transfer",
      "outputs": [
        {
          "internalType": "bool",
          "name": "",
          "type": "bool"
        }
      ],
      "stateMutability": "nonpayable",
      "type": "function"
    },
    {
      "inputs": [
        {
          "internalType": "address",
          "name": "from",
          "type": "address"
        },
        {
          "internalType": "address",
          "name": "to",
          "type": "address"
        },
        {
          "internalType": "uint256",
          "name": "amount",
          "type": "uint256"
        }
      ],
      "name": "transferFrom",
      "outputs": [
        {
          "internalType": "bool",
          "name": "",
          "type": "bool"
        }
      ],
      "stateMutability": "nonpayable",
      "type": "function"
    },
    {
      "inputs": [],
      "name": "underlying",
      "outputs": [
        {
          "internalType": "contract IERC20",
          "name": "",
          "type": "address"
        }
      ],
      "stateMutability": "view",
      "type": "function"
    },
    {
      "inputs": [
        {
          "internalType": "address",
          "name": "account",
          "type": "address"
        },
        {
          "internalType": "uint256",
          "name": "amount",
          "type": "uint256"
        }
      ],
      "name": "withdrawTo",
      "outputs": [
        {
          "internalType": "bool",
          "name": "",
          "type": "bool"
        }
      ],
      "stateMutability": "nonpayable",
      "type": "function"
    },
    {
      "inputs": [],
      "name": "zeroExVotes",
      "outputs": [
        {
          "internalType": "contract IZeroExVotes",
          "name": "",
          "type": "address"
        }
      ],
      "stateMutability": "view",
      "type": "function"
    }
  ],
  "bytecode": "0x610180604052348015610010575f5ffd5b50604051612af0380380612af083398101604081905261002f91610192565b816040518060400160405280600b81526020016a0aee4c2e0e0cac840b4a4b60ab1b81525080604051806040016040528060018152602001603160f81b8152506040518060400160405280600b81526020016a0aee4c2e0e0cac840b4a4b60ab1b815250604051806040016040528060048152602001630eeb4a4b60e31b81525081600390816100bf9190610262565b5060046100cc8282610262565b5050825160208085019190912083518483012060e08290526101008190524660a0818152604080517f8b73c3c69bb8fe3d512ecc4cf759cc79239f7b179b0ffacaa9a75d522b39400f81880181905281830187905260608201869052608082019490945230818401528151808203909301835260c0019052805194019390932091935091906080523060c05261012052505050506001600160a01b03918216610140525016610160525061031c565b6001600160a01b038116811461018f575f5ffd5b50565b5f5f604083850312156101a3575f5ffd5b82516101ae8161017b565b60208401519092506101bf8161017b565b809150509250929050565b634e487b7160e01b5f52604160045260245ffd5b600181811c908216806101f257607f821691505b60208210810361021057634e487b7160e01b5f52602260045260245ffd5b50919050565b601f82111561025d57805f5260205f20601f840160051c8101602085101561023b5750805b601f840160051c820191505b8181101561025a575f8155600101610247565b50505b505050565b81516001600160401b0381111561027b5761027b6101ca565b61028f8161028984546101de565b84610216565b6020601f8211600181146102c1575f83156102aa5750848201515b5f19600385901b1c1916600184901b17845561025a565b5f84815260208120601f198516915b828110156102f057878501518255602094850194600190920191016102d0565b508482101561030d57868401515f19600387901b60f8161c191681555b50505050600190811b01905550565b60805160a05160c05160e051610100516101205161014051610160516127486103a85f395f81816101f301528181610ccf01528181610dcb015281816112840152818161165b0152611d5c01525f8181610416015281816105d2015261062a01525f6113f101525f61144001525f61141b01525f61137401525f61139e01525f6113c801526127485ff3fe608060405234801561000f575f5ffd5b5060043610610184575f3560e01c8063587cde1e116100dd57806395d89b4111610088578063c3cda52011610063578063c3cda520146104ae578063d505accf146104c1578063dd62ed3e146104d4575f5ffd5b806395d89b4114610480578063a457c2d714610488578063a9059cbb1461049b575f5ffd5b80636f307dc3116100b85780636f307dc31461041157806370a08231146104385780637ecebe001461046d575f5ffd5b8063587cde1e146103025780635c19a95c1461033a5780635dd17bbd1461034f575f5ffd5b806323b872dd1161013d5780633644e515116101185780633644e5151461026f57806339509351146102775780634c5753ef1461028a575f5ffd5b806323b872dd1461023a5780632f4f21e21461024d578063313ce56714610260575f5ffd5b806318160ddd1161016d57806318160ddd146101c9578063205c2878146101db578063219a1b0d146101ee575f5ffd5b806306fdde0314610188578063095ea7b3146101a6575b5f5ffd5b610190610519565b60405161019d919061241a565b60405180910390f35b6101b96101b4366004612495565b6105a9565b604051901515815260200161019d565b6002545b60405190815260200161019d565b6101b96101e9366004612495565b6105c2565b6102157f000000000000000000000000000000000000000000000000000000000000000081565b60405173ffffffffffffffffffffffffffffffffffffffff909116815260200161019d565b6101b96102483660046124bd565b610601565b6101b961025b366004612495565b610624565b6040516012815260200161019d565b6101cd61065b565b6101b9610285366004612495565b610669565b6102e56102983660046124f7565b73ffffffffffffffffffffffffffffffffffffffff165f908152600760205260409020547401000000000000000000000000000000000000000090046bffffffffffffffffffffffff1690565b6040516bffffffffffffffffffffffff909116815260200161019d565b6102156103103660046124f7565b73ffffffffffffffffffffffffffffffffffffffff9081165f908152600760205260409020541690565b61034d6103483660046124f7565b6106b4565b005b6103d261035d3660046124f7565b6040805180820182525f808252602091820181905273ffffffffffffffffffffffffffffffffffffffff9384168152600782528290208251808401909352549283168252740100000000000000000000000000000000000000009092046bffffffffffffffffffffffff169181019190915290565b60408051825173ffffffffffffffffffffffffffffffffffffffff1681526020928301516bffffffffffffffffffffffff16928101929092520161019d565b6102157f000000000000000000000000000000000000000000000000000000000000000081565b6101cd6104463660046124f7565b73ffffffffffffffffffffffffffffffffffffffff165f9081526020819052604090205490565b6101cd61047b3660046124f7565b6106c1565b6101906106eb565b6101b9610496366004612495565b6106fa565b6101b96104a9366004612495565b6107cf565b61034d6104bc366004612527565b6107dc565b61034d6104cf36600461257b565b610952565b6101cd6104e23660046125e1565b73ffffffffffffffffffffffffffffffffffffffff9182165f90815260016020908152604080832093909416825291909152205490565b60606003805461052890612612565b80601f016020809104026020016040519081016040528092919081815260200182805461055490612612565b801561059f5780601f106105765761010080835404028352916020019161059f565b820191905f5260205f20905b81548152906001019060200180831161058257829003601f168201915b5050505050905090565b5f336105b6818585610b0e565b60019150505b92915050565b5f6105cd3383610cc0565b6105f87f00000000000000000000000000000000000000000000000000000000000000008484610dfe565b50600192915050565b5f3361060e858285610ed7565b610619858585610fa7565b506001949350505050565b5f6106517f000000000000000000000000000000000000000000000000000000000000000033308561121a565b6105f88383611278565b5f61066461135b565b905090565b335f81815260016020908152604080832073ffffffffffffffffffffffffffffffffffffffff871684529091528120549091906105b690829086906106af90879061268a565b610b0e565b6106be338261148e565b50565b73ffffffffffffffffffffffffffffffffffffffff81165f908152600560205260408120546105bc565b60606004805461052890612612565b335f81815260016020908152604080832073ffffffffffffffffffffffffffffffffffffffff87168452909152812054909190838110156107c2576040517f08c379a000000000000000000000000000000000000000000000000000000000815260206004820152602560248201527f45524332303a2064656372656173656420616c6c6f77616e63652062656c6f7760448201527f207a65726f00000000000000000000000000000000000000000000000000000060648201526084015b60405180910390fd5b6106198286868403610b0e565b5f336105b6818585610fa7565b83421115610846576040517f08c379a000000000000000000000000000000000000000000000000000000000815260206004820152601d60248201527f4552433230566f7465733a207369676e6174757265206578706972656400000060448201526064016107b9565b604080517fe48329057bfd03d55e49b547132e39cffd9c1820ad7b9d4c5307691425d15adf602082015273ffffffffffffffffffffffffffffffffffffffff88169181019190915260608101869052608081018590525f906108cc906108c49060a001604051602081830303815290604052805190602001206116ce565b858585611735565b90506108d78161175d565b861461093f576040517f08c379a000000000000000000000000000000000000000000000000000000000815260206004820152601960248201527f4552433230566f7465733a20696e76616c6964206e6f6e63650000000000000060448201526064016107b9565b610949818861148e565b50505050505050565b834211156109bc576040517f08c379a000000000000000000000000000000000000000000000000000000000815260206004820152601d60248201527f45524332305065726d69743a206578706972656420646561646c696e6500000060448201526064016107b9565b5f7f6e71edae12b1b97f4d1f60370fef10105fa2faae0126114a169c64845d6126c98888886109ea8c61175d565b60408051602081019690965273ffffffffffffffffffffffffffffffffffffffff94851690860152929091166060840152608083015260a082015260c0810186905260e0016040516020818303038152906040528051906020012090505f610a51826116ce565b90505f610a6082878787611735565b90508973ffffffffffffffffffffffffffffffffffffffff168173ffffffffffffffffffffffffffffffffffffffff1614610af7576040517f08c379a000000000000000000000000000000000000000000000000000000000815260206004820152601e60248201527f45524332305065726d69743a20696e76616c6964207369676e6174757265000060448201526064016107b9565b610b028a8a8a610b0e565b50505050505050505050565b73ffffffffffffffffffffffffffffffffffffffff8316610bb0576040517f08c379a0000000000000000000000000000000000000000000000000000000008152602060048201526024808201527f45524332303a20617070726f76652066726f6d20746865207a65726f2061646460448201527f726573730000000000000000000000000000000000000000000000000000000060648201526084016107b9565b73ffffffffffffffffffffffffffffffffffffffff8216610c53576040517f08c379a000000000000000000000000000000000000000000000000000000000815260206004820152602260248201527f45524332303a20617070726f766520746f20746865207a65726f20616464726560448201527f737300000000000000000000000000000000000000000000000000000000000060648201526084016107b9565b73ffffffffffffffffffffffffffffffffffffffff8381165f8181526001602090815260408083209487168084529482529182902085905590518481527f8c5be1e5ebec7d5bd14f71427d1e84f3dd0314c0f7b2291e5b200ac8c7c3b925910160405180910390a3505050565b610cca8282611791565b610df87f000000000000000000000000000000000000000000000000000000000000000073ffffffffffffffffffffffffffffffffffffffff16637e93e6d883610d358673ffffffffffffffffffffffffffffffffffffffff165f9081526020819052604090205490565b610d3f919061268a565b604051602481019190915260448101859052606401604080517fffffffffffffffffffffffffffffffffffffffffffffffffffffffffffffffe0818403018152919052602080820180517bffffffffffffffffffffffffffffffffffffffffffffffffffffffff1660e09490941b9390931790925273ffffffffffffffffffffffffffffffffffffffff7f0000000000000000000000000000000000000000000000000000000000000000169250906207a12090611959565b50505050565b60405173ffffffffffffffffffffffffffffffffffffffff8316602482015260448101829052610ed29084907fa9059cbb00000000000000000000000000000000000000000000000000000000906064015b604080517fffffffffffffffffffffffffffffffffffffffffffffffffffffffffffffffe08184030181529190526020810180517bffffffffffffffffffffffffffffffffffffffffffffffffffffffff167fffffffff0000000000000000000000000000000000000000000000000000000090931692909217909152611977565b505050565b73ffffffffffffffffffffffffffffffffffffffff8381165f908152600160209081526040808320938616835292905220547fffffffffffffffffffffffffffffffffffffffffffffffffffffffffffffffff8114610df85781811015610f9a576040517f08c379a000000000000000000000000000000000000000000000000000000000815260206004820152601d60248201527f45524332303a20696e73756666696369656e7420616c6c6f77616e636500000060448201526064016107b9565b610df88484848403610b0e565b73ffffffffffffffffffffffffffffffffffffffff831661104a576040517f08c379a000000000000000000000000000000000000000000000000000000000815260206004820152602560248201527f45524332303a207472616e736665722066726f6d20746865207a65726f20616460448201527f647265737300000000000000000000000000000000000000000000000000000060648201526084016107b9565b73ffffffffffffffffffffffffffffffffffffffff82166110ed576040517f08c379a000000000000000000000000000000000000000000000000000000000815260206004820152602360248201527f45524332303a207472616e7366657220746f20746865207a65726f206164647260448201527f657373000000000000000000000000000000000000000000000000000000000060648201526084016107b9565b73ffffffffffffffffffffffffffffffffffffffff83165f90815260208190526040902054818110156111a2576040517f08c379a000000000000000000000000000000000000000000000000000000000815260206004820152602660248201527f45524332303a207472616e7366657220616d6f756e742065786365656473206260448201527f616c616e6365000000000000000000000000000000000000000000000000000060648201526084016107b9565b73ffffffffffffffffffffffffffffffffffffffff8481165f81815260208181526040808320878703905593871680835291849020805487019055925185815290927fddf252ad1be2c89b69c2b068fc378daa952ba7f163c4a11628f55a4df523b3ef910160405180910390a3610df8848484611a82565b60405173ffffffffffffffffffffffffffffffffffffffff80851660248301528316604482015260648101829052610df89085907f23b872dd0000000000000000000000000000000000000000000000000000000090608401610e50565b6112828282611dd2565b7f000000000000000000000000000000000000000000000000000000000000000073ffffffffffffffffffffffffffffffffffffffff16636fb74d30826112ea8573ffffffffffffffffffffffffffffffffffffffff165f9081526020819052604090205490565b6112f4919061269d565b836040518363ffffffff1660e01b815260040161131b929190918252602082015260400190565b6020604051808303815f875af1158015611337573d5f5f3e3d5ffd5b505050506040513d601f19601f82011682018060405250810190610ed291906126b0565b5f3073ffffffffffffffffffffffffffffffffffffffff7f0000000000000000000000000000000000000000000000000000000000000000161480156113c057507f000000000000000000000000000000000000000000000000000000000000000046145b156113ea57507f000000000000000000000000000000000000000000000000000000000000000090565b50604080517f00000000000000000000000000000000000000000000000000000000000000006020808301919091527f0000000000000000000000000000000000000000000000000000000000000000828401527f000000000000000000000000000000000000000000000000000000000000000060608301524660808301523060a0808401919091528351808403909101815260c0909201909252805191012090565b6040805180820182525f808252602091820181905273ffffffffffffffffffffffffffffffffffffffff858116808352600784528483208551808701875290549283168152740100000000000000000000000000000000000000009092046bffffffffffffffffffffffff16828501528252918190529182205490915060405180604001604052808473ffffffffffffffffffffffffffffffffffffffff16815260200161153b42611ece565b6bffffffffffffffffffffffff90811690915273ffffffffffffffffffffffffffffffffffffffff8087165f818152600760209081526040808320875197909201519095167401000000000000000000000000000000000000000002958416959095179094558551925187831694939092169290917f3134e8a2e6d97e929a7e54011ea5485d7d196dd5f0ba4d4ef95803e8e3fc257f9190a4815160208301516040517f235eea3e00000000000000000000000000000000000000000000000000000000815273ffffffffffffffffffffffffffffffffffffffff92831660048201528583166024820152604481018490525f606482018190526bffffffffffffffffffffffff909216608482015260a481019190915260c481018390527f00000000000000000000000000000000000000000000000000000000000000009091169063235eea3e9060e4016020604051808303815f875af11580156116a3573d5f5f3e3d5ffd5b505050506040513d601f19601f820116820180604052508101906116c791906126b0565b5050505050565b5f6105bc6116da61135b565b836040517f1901000000000000000000000000000000000000000000000000000000000000602082015260228101839052604281018290525f9060620160405160208183030381529060405280519060200120905092915050565b5f5f5f61174487878787611f6f565b9150915061175181612054565b5090505b949350505050565b73ffffffffffffffffffffffffffffffffffffffff81165f9081526005602052604090208054600181018255905b50919050565b73ffffffffffffffffffffffffffffffffffffffff8216611834576040517f08c379a000000000000000000000000000000000000000000000000000000000815260206004820152602160248201527f45524332303a206275726e2066726f6d20746865207a65726f2061646472657360448201527f730000000000000000000000000000000000000000000000000000000000000060648201526084016107b9565b73ffffffffffffffffffffffffffffffffffffffff82165f90815260208190526040902054818110156118e9576040517f08c379a000000000000000000000000000000000000000000000000000000000815260206004820152602260248201527f45524332303a206275726e20616d6f756e7420657863656564732062616c616e60448201527f636500000000000000000000000000000000000000000000000000000000000060648201526084016107b9565b73ffffffffffffffffffffffffffffffffffffffff83165f818152602081815260408083208686039055600280548790039055518581529192917fddf252ad1be2c89b69c2b068fc378daa952ba7f163c4a11628f55a4df523b3ef910160405180910390a3610ed2835f84611a82565b5f60606119698686865f87612206565b915091505b94509492505050565b5f6119d8826040518060400160405280602081526020017f5361666545524332303a206c6f772d6c6576656c2063616c6c206661696c65648152508573ffffffffffffffffffffffffffffffffffffffff166122b39092919063ffffffff16565b805190915015610ed257808060200190518101906119f691906126b0565b610ed2576040517f08c379a000000000000000000000000000000000000000000000000000000000815260206004820152602a60248201527f5361666545524332303a204552433230206f7065726174696f6e20646964206e60448201527f6f7420737563636565640000000000000000000000000000000000000000000060648201526084016107b9565b6040805180820182525f808252602091820181905273ffffffffffffffffffffffffffffffffffffffff8681168252600780845284832085518087018752905480841682526bffffffffffffffffffffffff740100000000000000000000000000000000000000009182900481168388015287518089018952868152870186905289851686529286528685208751808901909852548085168852049091169385019390935282519293921615611b6d5783611b5e8773ffffffffffffffffffffffffffffffffffffffff165f9081526020819052604090205490565b611b68919061268a565b611b6f565b5f5b82519091505f9073ffffffffffffffffffffffffffffffffffffffff1615611bcc5784611bbd8773ffffffffffffffffffffffffffffffffffffffff165f9081526020819052604090205490565b611bc7919061269d565b611bce565b5f5b845190915073ffffffffffffffffffffffffffffffffffffffff1615611c5157611bf743611ece565b73ffffffffffffffffffffffffffffffffffffffff8089165f90815260076020526040902080546bffffffffffffffffffffffff939093167401000000000000000000000000000000000000000002929091169190911790555b825173ffffffffffffffffffffffffffffffffffffffff1615611cd157611c7743611ece565b73ffffffffffffffffffffffffffffffffffffffff8088165f90815260076020526040902080546bffffffffffffffffffffffff939093167401000000000000000000000000000000000000000002929091169190911790555b83518351602080870151908601516040517f235eea3e00000000000000000000000000000000000000000000000000000000815273ffffffffffffffffffffffffffffffffffffffff9485166004820152928416602484015260448301869052606483018590526bffffffffffffffffffffffff91821660848401521660a482015260c481018790527f00000000000000000000000000000000000000000000000000000000000000009091169063235eea3e9060e4016020604051808303815f875af1158015611da4573d5f5f3e3d5ffd5b505050506040513d601f19601f82011682018060405250810190611dc891906126b0565b5050505050505050565b73ffffffffffffffffffffffffffffffffffffffff8216611e4f576040517f08c379a000000000000000000000000000000000000000000000000000000000815260206004820152601f60248201527f45524332303a206d696e7420746f20746865207a65726f20616464726573730060448201526064016107b9565b8060025f828254611e60919061268a565b909155505073ffffffffffffffffffffffffffffffffffffffff82165f81815260208181526040808320805486019055518481527fddf252ad1be2c89b69c2b068fc378daa952ba7f163c4a11628f55a4df523b3ef910160405180910390a3611eca5f8383611a82565b5050565b5f6bffffffffffffffffffffffff821115611f6b576040517f08c379a000000000000000000000000000000000000000000000000000000000815260206004820152602660248201527f53616665436173743a2076616c756520646f65736e27742066697420696e203960448201527f362062697473000000000000000000000000000000000000000000000000000060648201526084016107b9565b5090565b5f807f7fffffffffffffffffffffffffffffff5d576e7357a4501ddfe92f46681b20a0831115611fa457505f9050600361196e565b604080515f8082526020820180845289905260ff881692820192909252606081018690526080810185905260019060a0016020604051602081039080840390855afa158015611ff5573d5f5f3e3d5ffd5b50506040517fffffffffffffffffffffffffffffffffffffffffffffffffffffffffffffffe0015191505073ffffffffffffffffffffffffffffffffffffffff8116612048575f6001925092505061196e565b965f9650945050505050565b5f816004811115612067576120676126cf565b0361206f5750565b6001816004811115612083576120836126cf565b036120ea576040517f08c379a000000000000000000000000000000000000000000000000000000000815260206004820152601860248201527f45434453413a20696e76616c6964207369676e6174757265000000000000000060448201526064016107b9565b60028160048111156120fe576120fe6126cf565b03612165576040517f08c379a000000000000000000000000000000000000000000000000000000000815260206004820152601f60248201527f45434453413a20696e76616c6964207369676e6174757265206c656e6774680060448201526064016107b9565b6003816004811115612179576121796126cf565b036106be576040517f08c379a000000000000000000000000000000000000000000000000000000000815260206004820152602260248201527f45434453413a20696e76616c6964207369676e6174757265202773272076616c60448201527f756500000000000000000000000000000000000000000000000000000000000060648201526084016107b9565b5f60605f84118015612236575083471080612236575073ffffffffffffffffffffffffffffffffffffffff87163b155b6122a95760405190508260208201875160208901878b8af191505a603f8604103d17821761226057fe5b823d115f811461227b578382528360200182016040526122a7565b3d8015612293573d83523d60200183016040526122a5565b60609250856122a557883b1515841693505b505b505b9550959350505050565b606061175584845f85855f5f8673ffffffffffffffffffffffffffffffffffffffff1685876040516122e591906126fc565b5f6040518083038185875af1925050503d805f811461231f576040519150601f19603f3d011682016040523d82523d5f602084013e612324565b606091505b509150915061233587838387612340565b979650505050505050565b606083156123d55782515f036123ce5773ffffffffffffffffffffffffffffffffffffffff85163b6123ce576040517f08c379a000000000000000000000000000000000000000000000000000000000815260206004820152601d60248201527f416464726573733a2063616c6c20746f206e6f6e2d636f6e747261637400000060448201526064016107b9565b5081611755565b61175583838151156123ea5781518083602001fd5b806040517f08c379a00000000000000000000000000000000000000000000000000000000081526004016107b991905b602081525f82518060208401528060208501604085015e5f6040828501015260407fffffffffffffffffffffffffffffffffffffffffffffffffffffffffffffffe0601f83011684010191505092915050565b803573ffffffffffffffffffffffffffffffffffffffff81168114612490575f5ffd5b919050565b5f5f604083850312156124a6575f5ffd5b6124af8361246d565b946020939093013593505050565b5f5f5f606084860312156124cf575f5ffd5b6124d88461246d565b92506124e66020850161246d565b929592945050506040919091013590565b5f60208284031215612507575f5ffd5b6125108261246d565b9392505050565b803560ff81168114612490575f5ffd5b5f5f5f5f5f5f60c0878903121561253c575f5ffd5b6125458761246d565b9550602087013594506040870135935061256160608801612517565b9598949750929560808101359460a0909101359350915050565b5f5f5f5f5f5f5f60e0888a031215612591575f5ffd5b61259a8861246d565b96506125a86020890161246d565b955060408801359450606088013593506125c460808901612517565b9699959850939692959460a0840135945060c09093013592915050565b5f5f604083850312156125f2575f5ffd5b6125fb8361246d565b91506126096020840161246d565b90509250929050565b600181811c9082168061262657607f821691505b60208210810361178b577f4e487b71000000000000000000000000000000000000000000000000000000005f52602260045260245ffd5b7f4e487b71000000000000000000000000000000000000000000000000000000005f52601160045260245ffd5b808201808211156105bc576105bc61265d565b818103818111156105bc576105bc61265d565b5f602082840312156126c0575f5ffd5b81518015158114612510575f5ffd5b7f4e487b71000000000000000000000000000000000000000000000000000000005f52602160045260245ffd5b5f82518060208501845e5f92019182525091905056fea2646970667358221220cd1ef0aee95ff1b7bf8cc695711b75a383628574ba648a76f855f0262407bb6664736f6c634300081c0033",
  "linkReferences": {},
  "deployedLinkReferences": {}
}