{
  "_format": "hh-sol-artifact-1",
  "contractName": "TestFeeRecipient",
  "sourceName": "contracts/test/TestFeeRecipient.sol",
  "abi": [
    {
      "anonymous": false,
      "inputs": [
        {
          "indexed": false,
          "internalType": "address",
          "name": "tokenAddress",
          "type": "address"
        },
        {
          "indexed": false,
          "internalType": "uint256",
          "name": "amount",
          "type": "uint256"
        }
      ],
      "name": "FeeReceived",
      "type": "event"
    },
    {
      "inputs": [
        {
          "internalType": "address",
          "name": "tokenAddress",
          "type": "address"
        },
        {
          "internalType": "uint256",
          "name": "amount",
          "type": "uint256"
        },
        {
          "internalType": "bytes",
          "name": "",
          "type": "bytes"
        }
      ],
      "name": "receiveZeroExFeeCallback",
      "outputs": [
        {
          "internalType": "bytes4",
          "name": "success",
          "type": "bytes4"
        }
      ],
      "stateMutability": "nonpayable",
      "type": "function"
    },
    {
      "stateMutability": "payable",
      "type": "receive"
    }
  ],
  "bytecode": "0x6080604052348015600e575f5ffd5b506102098061001c5f395ff3fe608060405260043610610020575f3560e01c806330787dd11461002b575f5ffd5b3661002757005b5f5ffd5b348015610036575f5ffd5b5061004a610045366004610143565b610067565b6040516001600160e01b0319909116815260200160405180910390f35b604080516001600160a01b0386168152602081018590525f917fbb527541f6cc244ae00ab689f8c23d072a30a3b4176021df62ea1c2bac8aa226910160405180910390a161014d840361011a5760405162461bcd60e51b815260206004820152603160248201527f54657374466565526563697069656e743a3a726563656976655a65726f457846604482015270195950d85b1b189858dacbd49155915495607a1b606482015260840160405180910390fd5b61029a8403610131575063deadbeef60e01b61013b565b506330787dd160e01b5b949350505050565b5f5f5f5f60608587031215610156575f5ffd5b84356001600160a01b038116811461016c575f5ffd5b935060208501359250604085013567ffffffffffffffff81111561018e575f5ffd5b8501601f8101871361019e575f5ffd5b803567ffffffffffffffff8111156101b4575f5ffd5b8760208284010111156101c5575f5ffd5b94979396506020019450505056fea2646970667358221220c74cbe082d73fcce9bab7c0ab03bb7423b542c2fea04b826792bf738e51fe75364736f6c634300081c0033",
  "linkReferences": {},
  "deployedLinkReferences": {}
}