{
  "_format": "hh-sol-artifact-1",
  "contractName": "TestFeeRecipient",
  "sourceName": "contracts/test/TestFeeRecipient.sol",
  "abi": [
    {
      "anonymous": false,
      "inputs": [
        {
          "indexed": false,
          "internalType": "address",
          "name": "tokenAddress",
          "type": "address"
        },
        {
          "indexed": false,
          "internalType": "uint256",
          "name": "amount",
          "type": "uint256"
        }
      ],
      "name": "FeeReceived",
      "type": "event"
    },
    {
      "inputs": [
        {
          "internalType": "address",
          "name": "tokenAddress",
          "type": "address"
        },
        {
          "internalType": "uint256",
          "name": "amount",
          "type": "uint256"
        },
        {
          "internalType": "bytes",
          "name": "",
          "type": "bytes"
        }
      ],
      "name": "receiveZeroExFeeCallback",
      "outputs": [
        {
          "internalType": "bytes4",
          "name": "success",
          "type": "bytes4"
        }
      ],
      "stateMutability": "nonpayable",
      "type": "function"
    },
    {
      "stateMutability": "payable",
      "type": "receive"
    }
  ],
  "bytecode": "0x6080604052348015600f57600080fd5b506104028061001f6000396000f3fe6080604052600436106100225760003560e01c806330787dd11461002e57610029565b3661002957005b600080fd5b34801561003a57600080fd5b5061005560048036038101906100509190610218565b61006b565b60405161006291906102c7565b60405180910390f35b60007fbb527541f6cc244ae00ab689f8c23d072a30a3b4176021df62ea1c2bac8aa226858560405161009e929190610300565b60405180910390a161014d84036100ea576040517f08c379a00000000000000000000000000000000000000000000000000000000081526004016100e1906103ac565b60405180910390fd5b61029a84036101025763deadbeef60e01b905061010d565b6330787dd160e01b90505b949350505050565b600080fd5b600080fd5b600073ffffffffffffffffffffffffffffffffffffffff82169050919050565b600061014a8261011f565b9050919050565b61015a8161013f565b811461016557600080fd5b50565b60008135905061017781610151565b92915050565b6000819050919050565b6101908161017d565b811461019b57600080fd5b50565b6000813590506101ad81610187565b92915050565b600080fd5b600080fd5b600080fd5b60008083601f8401126101d8576101d76101b3565b5b8235905067ffffffffffffffff8111156101f5576101f46101b8565b5b602083019150836001820283011115610211576102106101bd565b5b9250929050565b6000806000806060858703121561023257610231610115565b5b600061024087828801610168565b94505060206102518782880161019e565b935050604085013567ffffffffffffffff8111156102725761027161011a565b5b61027e878288016101c2565b925092505092959194509250565b60007fffffffff0000000000000000000000000000000000000000000000000000000082169050919050565b6102c18161028c565b82525050565b60006020820190506102dc60008301846102b8565b92915050565b6102eb8161013f565b82525050565b6102fa8161017d565b82525050565b600060408201905061031560008301856102e2565b61032260208301846102f1565b9392505050565b600082825260208201905092915050565b7f54657374466565526563697069656e743a3a726563656976655a65726f45784660008201527f656543616c6c6261636b2f524556455254000000000000000000000000000000602082015250565b6000610396603183610329565b91506103a18261033a565b604082019050919050565b600060208201905081810360008301526103c581610389565b905091905056fea264697066735822122019d958970e559918880190817cc98e2f293c4418fb02dec76addf0d0d1fd128964736f6c634300081c0033",
  "linkReferences": {},
  "deployedLinkReferences": {}
}