{
  "_format": "hh-sol-artifact-1",
  "contractName": "TestMintableERC721Token",
  "sourceName": "contracts/test/tokens/TestMintableERC721Token.sol",
  "abi": [
    {
      "anonymous": false,
      "inputs": [
        {
          "indexed": true,
          "internalType": "address",
          "name": "_owner",
          "type": "address"
        },
        {
          "indexed": true,
          "internalType": "address",
          "name": "_approved",
          "type": "address"
        },
        {
          "indexed": true,
          "internalType": "uint256",
          "name": "_tokenId",
          "type": "uint256"
        }
      ],
      "name": "Approval",
      "type": "event"
    },
    {
      "anonymous": false,
      "inputs": [
        {
          "indexed": true,
          "internalType": "address",
          "name": "_owner",
          "type": "address"
        },
        {
          "indexed": true,
          "internalType": "address",
          "name": "_operator",
          "type": "address"
        },
        {
          "indexed": false,
          "internalType": "bool",
          "name": "_approved",
          "type": "bool"
        }
      ],
      "name": "ApprovalForAll",
      "type": "event"
    },
    {
      "anonymous": false,
      "inputs": [
        {
          "indexed": false,
          "internalType": "address",
          "name": "_from",
          "type": "address"
        },
        {
          "indexed": false,
          "internalType": "address",
          "name": "_to",
          "type": "address"
        },
        {
          "indexed": false,
          "internalType": "uint256",
          "name": "_tokenId",
          "type": "uint256"
        }
      ],
      "name": "Transfer",
      "type": "event"
    },
    {
      "inputs": [
        {
          "internalType": "address",
          "name": "_approved",
          "type": "address"
        },
        {
          "internalType": "uint256",
          "name": "_tokenId",
          "type": "uint256"
        }
      ],
      "name": "approve",
      "outputs": [],
      "stateMutability": "nonpayable",
      "type": "function"
    },
    {
      "inputs": [
        {
          "internalType": "address",
          "name": "_owner",
          "type": "address"
        }
      ],
      "name": "balanceOf",
      "outputs": [
        {
          "internalType": "uint256",
          "name": "",
          "type": "uint256"
        }
      ],
      "stateMutability": "view",
      "type": "function"
    },
    {
      "inputs": [
        {
          "internalType": "address",
          "name": "_owner",
          "type": "address"
        },
        {
          "internalType": "uint256",
          "name": "_tokenId",
          "type": "uint256"
        }
      ],
      "name": "burn",
      "outputs": [],
      "stateMutability": "nonpayable",
      "type": "function"
    },
    {
      "inputs": [
        {
          "internalType": "uint256",
          "name": "_tokenId",
          "type": "uint256"
        }
      ],
      "name": "getApproved",
      "outputs": [
        {
          "internalType": "address",
          "name": "",
          "type": "address"
        }
      ],
      "stateMutability": "view",
      "type": "function"
    },
    {
      "inputs": [
        {
          "internalType": "address",
          "name": "_owner",
          "type": "address"
        },
        {
          "internalType": "address",
          "name": "_operator",
          "type": "address"
        }
      ],
      "name": "isApprovedForAll",
      "outputs": [
        {
          "internalType": "bool",
          "name": "",
          "type": "bool"
        }
      ],
      "stateMutability": "view",
      "type": "function"
    },
    {
      "inputs": [
        {
          "internalType": "address",
          "name": "_to",
          "type": "address"
        },
        {
          "internalType": "uint256",
          "name": "_tokenId",
          "type": "uint256"
        }
      ],
      "name": "mint",
      "outputs": [],
      "stateMutability": "nonpayable",
      "type": "function"
    },
    {
      "inputs": [
        {
          "internalType": "uint256",
          "name": "_tokenId",
          "type": "uint256"
        }
      ],
      "name": "ownerOf",
      "outputs": [
        {
          "internalType": "address",
          "name": "",
          "type": "address"
        }
      ],
      "stateMutability": "view",
      "type": "function"
    },
    {
      "inputs": [
        {
          "internalType": "address",
          "name": "_from",
          "type": "address"
        },
        {
          "internalType": "address",
          "name": "_to",
          "type": "address"
        },
        {
          "internalType": "uint256",
          "name": "_tokenId",
          "type": "uint256"
        }
      ],
      "name": "safeTransferFrom",
      "outputs": [],
      "stateMutability": "nonpayable",
      "type": "function"
    },
    {
      "inputs": [
        {
          "internalType": "address",
          "name": "_from",
          "type": "address"
        },
        {
          "internalType": "address",
          "name": "_to",
          "type": "address"
        },
        {
          "internalType": "uint256",
          "name": "_tokenId",
          "type": "uint256"
        },
        {
          "internalType": "bytes",
          "name": "_data",
          "type": "bytes"
        }
      ],
      "name": "safeTransferFrom",
      "outputs": [],
      "stateMutability": "nonpayable",
      "type": "function"
    },
    {
      "inputs": [
        {
          "internalType": "address",
          "name": "_operator",
          "type": "address"
        },
        {
          "internalType": "bool",
          "name": "_approved",
          "type": "bool"
        }
      ],
      "name": "setApprovalForAll",
      "outputs": [],
      "stateMutability": "nonpayable",
      "type": "function"
    },
    {
      "inputs": [
        {
          "internalType": "address",
          "name": "_from",
          "type": "address"
        },
        {
          "internalType": "address",
          "name": "_to",
          "type": "address"
        },
        {
          "internalType": "uint256",
          "name": "_tokenId",
          "type": "uint256"
        }
      ],
      "name": "transferFrom",
      "outputs": [],
      "stateMutability": "nonpayable",
      "type": "function"
    }
  ],
  "bytecode": "0x6080604052348015600f57600080fd5b50611b528061001f6000396000f3fe608060405234801561001057600080fd5b50600436106100a95760003560e01c80636352211e116100715780636352211e1461014e57806370a082311461017e5780639dc29fac146101ae578063a22cb465146101ca578063b88d4fde146101e6578063e985e9c514610202576100a9565b8063081812fc146100ae578063095ea7b3146100de57806323b872dd146100fa57806340c10f191461011657806342842e0e14610132575b600080fd5b6100c860048036038101906100c391906111ce565b610232565b6040516100d5919061123c565b60405180910390f35b6100f860048036038101906100f39190611283565b61026f565b005b610114600480360381019061010f91906112c3565b6103ad565b005b610130600480360381019061012b9190611283565b610798565b005b61014c600480360381019061014791906112c3565b6109ce565b005b610168600480360381019061016391906111ce565b610b14565b604051610175919061123c565b60405180910390f35b61019860048036038101906101939190611316565b610bc4565b6040516101a59190611352565b60405180910390f35b6101c860048036038101906101c39190611283565b610c7b565b005b6101e460048036038101906101df91906113a5565b610eb1565b005b61020060048036038101906101fb919061144a565b610fae565b005b61021c600480360381019061021791906114d2565b6110fa565b6040516102299190611521565b60405180910390f35b60006001600083815260200190815260200160002060009054906101000a900473ffffffffffffffffffffffffffffffffffffffff169050919050565b600061027a82610b14565b90508073ffffffffffffffffffffffffffffffffffffffff163373ffffffffffffffffffffffffffffffffffffffff1614806102bc57506102bb81336110fa565b5b6102fb576040517f08c379a00000000000000000000000000000000000000000000000000000000081526004016102f290611599565b60405180910390fd5b826001600084815260200190815260200160002060006101000a81548173ffffffffffffffffffffffffffffffffffffffff021916908373ffffffffffffffffffffffffffffffffffffffff160217905550818373ffffffffffffffffffffffffffffffffffffffff168273ffffffffffffffffffffffffffffffffffffffff167f8c5be1e5ebec7d5bd14f71427d1e84f3dd0314c0f7b2291e5b200ac8c7c3b92560405160405180910390a4505050565b600073ffffffffffffffffffffffffffffffffffffffff168273ffffffffffffffffffffffffffffffffffffffff160361041c576040517f08c379a000000000000000000000000000000000000000000000000000000000815260040161041390611605565b60405180910390fd5b600061042782610b14565b90508073ffffffffffffffffffffffffffffffffffffffff168473ffffffffffffffffffffffffffffffffffffffff1614610497576040517f08c379a000000000000000000000000000000000000000000000000000000000815260040161048e90611671565b60405180910390fd5b600033905060006104a784610232565b90508273ffffffffffffffffffffffffffffffffffffffff168273ffffffffffffffffffffffffffffffffffffffff1614806104e957506104e883836110fa565b5b8061051f57508173ffffffffffffffffffffffffffffffffffffffff168173ffffffffffffffffffffffffffffffffffffffff16145b61055e576040517f08c379a0000000000000000000000000000000000000000000000000000000008152600401610555906116dd565b60405180910390fd5b600073ffffffffffffffffffffffffffffffffffffffff168173ffffffffffffffffffffffffffffffffffffffff16146105e65760006001600086815260200190815260200160002060006101000a81548173ffffffffffffffffffffffffffffffffffffffff021916908373ffffffffffffffffffffffffffffffffffffffff1602179055505b8460008086815260200190815260200160002060006101000a81548173ffffffffffffffffffffffffffffffffffffffff021916908373ffffffffffffffffffffffffffffffffffffffff1602179055506001600260008873ffffffffffffffffffffffffffffffffffffffff1673ffffffffffffffffffffffffffffffffffffffff16815260200190815260200160002054610683919061172c565b600260008873ffffffffffffffffffffffffffffffffffffffff1673ffffffffffffffffffffffffffffffffffffffff168152602001908152602001600020819055506001600260008773ffffffffffffffffffffffffffffffffffffffff1673ffffffffffffffffffffffffffffffffffffffff168152602001908152602001600020546107129190611760565b600260008773ffffffffffffffffffffffffffffffffffffffff1673ffffffffffffffffffffffffffffffffffffffff168152602001908152602001600020819055507fddf252ad1be2c89b69c2b068fc378daa952ba7f163c4a11628f55a4df523b3ef86868660405161078893929190611794565b60405180910390a1505050505050565b600073ffffffffffffffffffffffffffffffffffffffff168273ffffffffffffffffffffffffffffffffffffffff1603610807576040517f08c379a00000000000000000000000000000000000000000000000000000000081526004016107fe90611605565b60405180910390fd5b600080600083815260200190815260200160002060009054906101000a900473ffffffffffffffffffffffffffffffffffffffff169050600073ffffffffffffffffffffffffffffffffffffffff168173ffffffffffffffffffffffffffffffffffffffff16146108ad576040517f08c379a00000000000000000000000000000000000000000000000000000000081526004016108a490611817565b60405180910390fd5b8260008084815260200190815260200160002060006101000a81548173ffffffffffffffffffffffffffffffffffffffff021916908373ffffffffffffffffffffffffffffffffffffffff1602179055506001600260008573ffffffffffffffffffffffffffffffffffffffff1673ffffffffffffffffffffffffffffffffffffffff1681526020019081526020016000205461094a9190611760565b600260008573ffffffffffffffffffffffffffffffffffffffff1673ffffffffffffffffffffffffffffffffffffffff168152602001908152602001600020819055507fddf252ad1be2c89b69c2b068fc378daa952ba7f163c4a11628f55a4df523b3ef600084846040516109c193929190611794565b60405180910390a1505050565b6109d98383836103ad565b6000823b90506000811115610b0e5760008373ffffffffffffffffffffffffffffffffffffffff1663150b7a023387866040518463ffffffff1660e01b8152600401610a279392919061186e565b6020604051808303816000875af1158015610a46573d6000803e3d6000fd5b505050506040513d601f19601f82011682018060405250810190610a6a9190611910565b90507f150b7a023d4804d13e8c85fb27262cb750cf6ba9f9dd3bb30d90f482ceeb4b1f7bffffffffffffffffffffffffffffffffffffffffffffffffffffffff1916817bffffffffffffffffffffffffffffffffffffffffffffffffffffffff191614610b0c576040517f08c379a0000000000000000000000000000000000000000000000000000000008152600401610b0390611989565b60405180910390fd5b505b50505050565b60008060008084815260200190815260200160002060009054906101000a900473ffffffffffffffffffffffffffffffffffffffff169050600073ffffffffffffffffffffffffffffffffffffffff168173ffffffffffffffffffffffffffffffffffffffff1603610bbb576040517f08c379a0000000000000000000000000000000000000000000000000000000008152600401610bb2906119f5565b60405180910390fd5b80915050919050565b60008073ffffffffffffffffffffffffffffffffffffffff168273ffffffffffffffffffffffffffffffffffffffff1603610c34576040517f08c379a0000000000000000000000000000000000000000000000000000000008152600401610c2b906119f5565b60405180910390fd5b600260008373ffffffffffffffffffffffffffffffffffffffff1673ffffffffffffffffffffffffffffffffffffffff168152602001908152602001600020549050919050565b600073ffffffffffffffffffffffffffffffffffffffff168273ffffffffffffffffffffffffffffffffffffffff1603610cea576040517f08c379a0000000000000000000000000000000000000000000000000000000008152600401610ce190611a61565b60405180910390fd5b600080600083815260200190815260200160002060009054906101000a900473ffffffffffffffffffffffffffffffffffffffff1690508273ffffffffffffffffffffffffffffffffffffffff168173ffffffffffffffffffffffffffffffffffffffff1614610d8f576040517f08c379a0000000000000000000000000000000000000000000000000000000008152600401610d8690611671565b60405180910390fd5b600080600084815260200190815260200160002060006101000a81548173ffffffffffffffffffffffffffffffffffffffff021916908373ffffffffffffffffffffffffffffffffffffffff1602179055506001600260008573ffffffffffffffffffffffffffffffffffffffff1673ffffffffffffffffffffffffffffffffffffffff16815260200190815260200160002054610e2d919061172c565b600260008573ffffffffffffffffffffffffffffffffffffffff1673ffffffffffffffffffffffffffffffffffffffff168152602001908152602001600020819055507fddf252ad1be2c89b69c2b068fc378daa952ba7f163c4a11628f55a4df523b3ef83600084604051610ea493929190611794565b60405180910390a1505050565b80600360003373ffffffffffffffffffffffffffffffffffffffff1673ffffffffffffffffffffffffffffffffffffffff16815260200190815260200160002060008473ffffffffffffffffffffffffffffffffffffffff1673ffffffffffffffffffffffffffffffffffffffff16815260200190815260200160002060006101000a81548160ff0219169083151502179055508173ffffffffffffffffffffffffffffffffffffffff163373ffffffffffffffffffffffffffffffffffffffff167f17307eab39ab6107e8899845ad3d59bd9653f200f220920489ca2b5937696c3183604051610fa29190611521565b60405180910390a35050565b610fb98585856103ad565b6000843b905060008111156110f25760008573ffffffffffffffffffffffffffffffffffffffff1663150b7a0233898888886040518663ffffffff1660e01b815260040161100b959493929190611ace565b6020604051808303816000875af115801561102a573d6000803e3d6000fd5b505050506040513d601f19601f8201168201806040525081019061104e9190611910565b90507f150b7a023d4804d13e8c85fb27262cb750cf6ba9f9dd3bb30d90f482ceeb4b1f7bffffffffffffffffffffffffffffffffffffffffffffffffffffffff1916817bffffffffffffffffffffffffffffffffffffffffffffffffffffffff1916146110f0576040517f08c379a00000000000000000000000000000000000000000000000000000000081526004016110e790611989565b60405180910390fd5b505b505050505050565b6000600360008473ffffffffffffffffffffffffffffffffffffffff1673ffffffffffffffffffffffffffffffffffffffff16815260200190815260200160002060008373ffffffffffffffffffffffffffffffffffffffff1673ffffffffffffffffffffffffffffffffffffffff16815260200190815260200160002060009054906101000a900460ff16905092915050565b600080fd5b600080fd5b6000819050919050565b6111ab81611198565b81146111b657600080fd5b50565b6000813590506111c8816111a2565b92915050565b6000602082840312156111e4576111e361118e565b5b60006111f2848285016111b9565b91505092915050565b600073ffffffffffffffffffffffffffffffffffffffff82169050919050565b6000611226826111fb565b9050919050565b6112368161121b565b82525050565b6000602082019050611251600083018461122d565b92915050565b6112608161121b565b811461126b57600080fd5b50565b60008135905061127d81611257565b92915050565b6000806040838503121561129a5761129961118e565b5b60006112a88582860161126e565b92505060206112b9858286016111b9565b9150509250929050565b6000806000606084860312156112dc576112db61118e565b5b60006112ea8682870161126e565b93505060206112fb8682870161126e565b925050604061130c868287016111b9565b9150509250925092565b60006020828403121561132c5761132b61118e565b5b600061133a8482850161126e565b91505092915050565b61134c81611198565b82525050565b60006020820190506113676000830184611343565b92915050565b60008115159050919050565b6113828161136d565b811461138d57600080fd5b50565b60008135905061139f81611379565b92915050565b600080604083850312156113bc576113bb61118e565b5b60006113ca8582860161126e565b92505060206113db85828601611390565b9150509250929050565b600080fd5b600080fd5b600080fd5b60008083601f84011261140a576114096113e5565b5b8235905067ffffffffffffffff811115611427576114266113ea565b5b602083019150836001820283011115611443576114426113ef565b5b9250929050565b6000806000806000608086880312156114665761146561118e565b5b60006114748882890161126e565b95505060206114858882890161126e565b9450506040611496888289016111b9565b935050606086013567ffffffffffffffff8111156114b7576114b6611193565b5b6114c3888289016113f4565b92509250509295509295909350565b600080604083850312156114e9576114e861118e565b5b60006114f78582860161126e565b92505060206115088582860161126e565b9150509250929050565b61151b8161136d565b82525050565b60006020820190506115366000830184611512565b92915050565b600082825260208201905092915050565b7f4552433732315f494e56414c49445f53454e4445520000000000000000000000600082015250565b600061158360158361153c565b915061158e8261154d565b602082019050919050565b600060208201905081810360008301526115b281611576565b9050919050565b7f4552433732315f5a45524f5f544f5f4144445245535300000000000000000000600082015250565b60006115ef60168361153c565b91506115fa826115b9565b602082019050919050565b6000602082019050818103600083015261161e816115e2565b9050919050565b7f4552433732315f4f574e45525f4d49534d415443480000000000000000000000600082015250565b600061165b60158361153c565b915061166682611625565b602082019050919050565b6000602082019050818103600083015261168a8161164e565b9050919050565b7f4552433732315f494e56414c49445f5350454e44455200000000000000000000600082015250565b60006116c760168361153c565b91506116d282611691565b602082019050919050565b600060208201905081810360008301526116f6816116ba565b9050919050565b7f4e487b7100000000000000000000000000000000000000000000000000000000600052601160045260246000fd5b600061173782611198565b915061174283611198565b925082820390508181111561175a576117596116fd565b5b92915050565b600061176b82611198565b915061177683611198565b925082820190508082111561178e5761178d6116fd565b5b92915050565b60006060820190506117a9600083018661122d565b6117b6602083018561122d565b6117c36040830184611343565b949350505050565b7f4552433732315f4f574e45525f414c52454144595f4558495354530000000000600082015250565b6000611801601b8361153c565b915061180c826117cb565b602082019050919050565b60006020820190508181036000830152611830816117f4565b9050919050565b600082825260208201905092915050565b50565b6000611858600083611837565b915061186382611848565b600082019050919050565b6000608082019050611883600083018661122d565b611890602083018561122d565b61189d6040830184611343565b81810360608301526118ae8161184b565b9050949350505050565b60007fffffffff0000000000000000000000000000000000000000000000000000000082169050919050565b6118ed816118b8565b81146118f857600080fd5b50565b60008151905061190a816118e4565b92915050565b6000602082840312156119265761192561118e565b5b6000611934848285016118fb565b91505092915050565b7f4552433732315f494e56414c49445f53454c4543544f52000000000000000000600082015250565b600061197360178361153c565b915061197e8261193d565b602082019050919050565b600060208201905081810360008301526119a281611966565b9050919050565b7f4552433732315f5a45524f5f4f574e4552000000000000000000000000000000600082015250565b60006119df60118361153c565b91506119ea826119a9565b602082019050919050565b60006020820190508181036000830152611a0e816119d2565b9050919050565b7f4552433732315f5a45524f5f4f574e45525f4144445245535300000000000000600082015250565b6000611a4b60198361153c565b9150611a5682611a15565b602082019050919050565b60006020820190508181036000830152611a7a81611a3e565b9050919050565b82818337600083830152505050565b6000601f19601f8301169050919050565b6000611aad8385611837565b9350611aba838584611a81565b611ac383611a90565b840190509392505050565b6000608082019050611ae3600083018861122d565b611af0602083018761122d565b611afd6040830186611343565b8181036060830152611b10818486611aa1565b9050969550505050505056fea26469706673582212200d9824a8d8fff63b10b1b2fc1efca3d9405aebd845aefb9463b265fb6f7ee81464736f6c634300081c0033",
  "linkReferences": {},
  "deployedLinkReferences": {}
}