{
  "_format": "hh-sol-artifact-1",
  "contractName": "TestMintableERC721Token",
  "sourceName": "contracts/test/tokens/TestMintableERC721Token.sol",
  "abi": [
    {
      "anonymous": false,
      "inputs": [
        {
          "indexed": true,
          "internalType": "address",
          "name": "_owner",
          "type": "address"
        },
        {
          "indexed": true,
          "internalType": "address",
          "name": "_approved",
          "type": "address"
        },
        {
          "indexed": true,
          "internalType": "uint256",
          "name": "_tokenId",
          "type": "uint256"
        }
      ],
      "name": "Approval",
      "type": "event"
    },
    {
      "anonymous": false,
      "inputs": [
        {
          "indexed": true,
          "internalType": "address",
          "name": "_owner",
          "type": "address"
        },
        {
          "indexed": true,
          "internalType": "address",
          "name": "_operator",
          "type": "address"
        },
        {
          "indexed": false,
          "internalType": "bool",
          "name": "_approved",
          "type": "bool"
        }
      ],
      "name": "ApprovalForAll",
      "type": "event"
    },
    {
      "anonymous": false,
      "inputs": [
        {
          "indexed": false,
          "internalType": "address",
          "name": "_from",
          "type": "address"
        },
        {
          "indexed": false,
          "internalType": "address",
          "name": "_to",
          "type": "address"
        },
        {
          "indexed": false,
          "internalType": "uint256",
          "name": "_tokenId",
          "type": "uint256"
        }
      ],
      "name": "Transfer",
      "type": "event"
    },
    {
      "inputs": [
        {
          "internalType": "address",
          "name": "_approved",
          "type": "address"
        },
        {
          "internalType": "uint256",
          "name": "_tokenId",
          "type": "uint256"
        }
      ],
      "name": "approve",
      "outputs": [],
      "stateMutability": "nonpayable",
      "type": "function"
    },
    {
      "inputs": [
        {
          "internalType": "address",
          "name": "_owner",
          "type": "address"
        }
      ],
      "name": "balanceOf",
      "outputs": [
        {
          "internalType": "uint256",
          "name": "",
          "type": "uint256"
        }
      ],
      "stateMutability": "view",
      "type": "function"
    },
    {
      "inputs": [
        {
          "internalType": "address",
          "name": "_owner",
          "type": "address"
        },
        {
          "internalType": "uint256",
          "name": "_tokenId",
          "type": "uint256"
        }
      ],
      "name": "burn",
      "outputs": [],
      "stateMutability": "nonpayable",
      "type": "function"
    },
    {
      "inputs": [
        {
          "internalType": "uint256",
          "name": "_tokenId",
          "type": "uint256"
        }
      ],
      "name": "getApproved",
      "outputs": [
        {
          "internalType": "address",
          "name": "",
          "type": "address"
        }
      ],
      "stateMutability": "view",
      "type": "function"
    },
    {
      "inputs": [
        {
          "internalType": "address",
          "name": "_owner",
          "type": "address"
        },
        {
          "internalType": "address",
          "name": "_operator",
          "type": "address"
        }
      ],
      "name": "isApprovedForAll",
      "outputs": [
        {
          "internalType": "bool",
          "name": "",
          "type": "bool"
        }
      ],
      "stateMutability": "view",
      "type": "function"
    },
    {
      "inputs": [
        {
          "internalType": "address",
          "name": "_to",
          "type": "address"
        },
        {
          "internalType": "uint256",
          "name": "_tokenId",
          "type": "uint256"
        }
      ],
      "name": "mint",
      "outputs": [],
      "stateMutability": "nonpayable",
      "type": "function"
    },
    {
      "inputs": [
        {
          "internalType": "uint256",
          "name": "_tokenId",
          "type": "uint256"
        }
      ],
      "name": "ownerOf",
      "outputs": [
        {
          "internalType": "address",
          "name": "",
          "type": "address"
        }
      ],
      "stateMutability": "view",
      "type": "function"
    },
    {
      "inputs": [
        {
          "internalType": "address",
          "name": "_from",
          "type": "address"
        },
        {
          "internalType": "address",
          "name": "_to",
          "type": "address"
        },
        {
          "internalType": "uint256",
          "name": "_tokenId",
          "type": "uint256"
        }
      ],
      "name": "safeTransferFrom",
      "outputs": [],
      "stateMutability": "nonpayable",
      "type": "function"
    },
    {
      "inputs": [
        {
          "internalType": "address",
          "name": "_from",
          "type": "address"
        },
        {
          "internalType": "address",
          "name": "_to",
          "type": "address"
        },
        {
          "internalType": "uint256",
          "name": "_tokenId",
          "type": "uint256"
        },
        {
          "internalType": "bytes",
          "name": "_data",
          "type": "bytes"
        }
      ],
      "name": "safeTransferFrom",
      "outputs": [],
      "stateMutability": "nonpayable",
      "type": "function"
    },
    {
      "inputs": [
        {
          "internalType": "address",
          "name": "_operator",
          "type": "address"
        },
        {
          "internalType": "bool",
          "name": "_approved",
          "type": "bool"
        }
      ],
      "name": "setApprovalForAll",
      "outputs": [],
      "stateMutability": "nonpayable",
      "type": "function"
    },
    {
      "inputs": [
        {
          "internalType": "address",
          "name": "_from",
          "type": "address"
        },
        {
          "internalType": "address",
          "name": "_to",
          "type": "address"
        },
        {
          "internalType": "uint256",
          "name": "_tokenId",
          "type": "uint256"
        }
      ],
      "name": "transferFrom",
      "outputs": [],
      "stateMutability": "nonpayable",
      "type": "function"
    }
  ],
  "bytecode": "0x6080604052348015600e575f5ffd5b50610d648061001c5f395ff3fe608060405234801561000f575f5ffd5b50600436106100a6575f3560e01c80636352211e1161006e5780636352211e1461013d57806370a08231146101505780639dc29fac14610171578063a22cb46514610184578063b88d4fde14610197578063e985e9c5146101aa575f5ffd5b8063081812fc146100aa578063095ea7b3146100ef57806323b872dd1461010457806340c10f191461011757806342842e0e1461012a575b5f5ffd5b6100d26100b8366004610aca565b5f908152600160205260409020546001600160a01b031690565b6040516001600160a01b0390911681526020015b60405180910390f35b6101026100fd366004610afc565b6101cd565b005b610102610112366004610b24565b610299565b610102610125366004610afc565b6104e2565b610102610138366004610b24565b610637565b6100d261014b366004610aca565b610735565b61016361015e366004610b5e565b610793565b6040519081526020016100e6565b61010261017f366004610afc565b6107f9565b610102610192366004610b7e565b610943565b6101026101a5366004610bb7565b6109ae565b6101bd6101b8366004610c4c565b610a9d565b60405190151581526020016100e6565b5f6101d782610735565b9050336001600160a01b03821614806101f557506101f58133610a9d565b61023e5760405162461bcd60e51b815260206004820152601560248201527422a9219b9918afa4a72b20a624a22fa9a2a72222a960591b60448201526064015b60405180910390fd5b5f8281526001602052604080822080546001600160a01b0319166001600160a01b0387811691821790925591518593918516917f8c5be1e5ebec7d5bd14f71427d1e84f3dd0314c0f7b2291e5b200ac8c7c3b92591a4505050565b6001600160a01b0382166102e85760405162461bcd60e51b81526020600482015260166024820152754552433732315f5a45524f5f544f5f4144445245535360501b6044820152606401610235565b5f6102f282610735565b9050806001600160a01b0316846001600160a01b03161461034d5760405162461bcd60e51b815260206004820152601560248201527408aa4866e6462be9eae9c8aa4be9a92a69a82a8869605b1b6044820152606401610235565b5f8281526001602052604090205433906001600160a01b0390811690831682148061037d575061037d8383610a9d565b806103995750816001600160a01b0316816001600160a01b0316145b6103de5760405162461bcd60e51b815260206004820152601660248201527522a9219b9918afa4a72b20a624a22fa9a822a72222a960511b6044820152606401610235565b6001600160a01b03811615610409575f84815260016020526040902080546001600160a01b03191690555b5f8481526020818152604080832080546001600160a01b0319166001600160a01b038a81169190911790915589168352600290915290205461044d90600190610c91565b6001600160a01b038088165f90815260026020526040808220939093559087168152205461047c906001610ca4565b6001600160a01b038681165f81815260026020908152604091829020949094558051928a168352928201529081018590527fddf252ad1be2c89b69c2b068fc378daa952ba7f163c4a11628f55a4df523b3ef9060600160405180910390a1505050505050565b6001600160a01b0382166105315760405162461bcd60e51b81526020600482015260166024820152754552433732315f5a45524f5f544f5f4144445245535360501b6044820152606401610235565b5f818152602081905260409020546001600160a01b031680156105965760405162461bcd60e51b815260206004820152601b60248201527f4552433732315f4f574e45525f414c52454144595f45584953545300000000006044820152606401610235565b5f8281526020818152604080832080546001600160a01b0319166001600160a01b038816908117909155835260029091529020546105d5906001610ca4565b6001600160a01b0384165f8181526002602090815260408083209490945583519182528101919091529081018390527fddf252ad1be2c89b69c2b068fc378daa952ba7f163c4a11628f55a4df523b3ef906060015b60405180910390a1505050565b610642838383610299565b813b801561072f57604051630a85bd0160e11b81523360048201526001600160a01b03858116602483015260448201849052608060648301525f60848301819052919085169063150b7a029060a4016020604051808303815f875af11580156106ad573d5f5f3e3d5ffd5b505050506040513d601f19601f820116820180604052508101906106d19190610cb7565b90506001600160e01b03198116630a85bd0160e11b1461072d5760405162461bcd60e51b815260206004820152601760248201527622a9219b9918afa4a72b20a624a22fa9a2a622a1aa27a960491b6044820152606401610235565b505b50505050565b5f818152602081905260408120546001600160a01b03168061078d5760405162461bcd60e51b815260206004820152601160248201527022a9219b9918afad22a927afa7aba722a960791b6044820152606401610235565b92915050565b5f6001600160a01b0382166107de5760405162461bcd60e51b815260206004820152601160248201527022a9219b9918afad22a927afa7aba722a960791b6044820152606401610235565b506001600160a01b03165f9081526002602052604090205490565b6001600160a01b03821661084f5760405162461bcd60e51b815260206004820152601960248201527f4552433732315f5a45524f5f4f574e45525f41444452455353000000000000006044820152606401610235565b5f818152602081905260409020546001600160a01b0390811690831681146108b15760405162461bcd60e51b815260206004820152601560248201527408aa4866e6462be9eae9c8aa4be9a92a69a82a8869605b1b6044820152606401610235565b5f8281526020818152604080832080546001600160a01b03191690556001600160a01b038616835260029091529020546108ed90600190610c91565b6001600160a01b0384165f8181526002602090815260408083209490945583519283528201529081018390527fddf252ad1be2c89b69c2b068fc378daa952ba7f163c4a11628f55a4df523b3ef9060600161062a565b335f8181526003602090815260408083206001600160a01b03871680855290835292819020805460ff191686151590811790915590519081529192917f17307eab39ab6107e8899845ad3d59bd9653f200f220920489ca2b5937696c31910160405180910390a35050565b6109b9858585610299565b833b8015610a9557604051630a85bd0160e11b81525f906001600160a01b0387169063150b7a02906109f79033908b908a908a908a90600401610cde565b6020604051808303815f875af1158015610a13573d5f5f3e3d5ffd5b505050506040513d601f19601f82011682018060405250810190610a379190610cb7565b90506001600160e01b03198116630a85bd0160e11b14610a935760405162461bcd60e51b815260206004820152601760248201527622a9219b9918afa4a72b20a624a22fa9a2a622a1aa27a960491b6044820152606401610235565b505b505050505050565b6001600160a01b039182165f90815260036020908152604080832093909416825291909152205460ff1690565b5f60208284031215610ada575f5ffd5b5035919050565b80356001600160a01b0381168114610af7575f5ffd5b919050565b5f5f60408385031215610b0d575f5ffd5b610b1683610ae1565b946020939093013593505050565b5f5f5f60608486031215610b36575f5ffd5b610b3f84610ae1565b9250610b4d60208501610ae1565b929592945050506040919091013590565b5f60208284031215610b6e575f5ffd5b610b7782610ae1565b9392505050565b5f5f60408385031215610b8f575f5ffd5b610b9883610ae1565b915060208301358015158114610bac575f5ffd5b809150509250929050565b5f5f5f5f5f60808688031215610bcb575f5ffd5b610bd486610ae1565b9450610be260208701610ae1565b935060408601359250606086013567ffffffffffffffff811115610c04575f5ffd5b8601601f81018813610c14575f5ffd5b803567ffffffffffffffff811115610c2a575f5ffd5b886020828401011115610c3b575f5ffd5b959894975092955050506020019190565b5f5f60408385031215610c5d575f5ffd5b610c6683610ae1565b9150610c7460208401610ae1565b90509250929050565b634e487b7160e01b5f52601160045260245ffd5b8181038181111561078d5761078d610c7d565b8082018082111561078d5761078d610c7d565b5f60208284031215610cc7575f5ffd5b81516001600160e01b031981168114610b77575f5ffd5b6001600160a01b03868116825285166020820152604081018490526080606082018190528101829052818360a08301375f81830160a090810191909152601f909201601f1916010194935050505056fea26469706673582212208ced947ef6b64efe9f1100763bdd4191437efed1260cb3ad3783efd57e83ee0364736f6c634300081c0033",
  "linkReferences": {},
  "deployedLinkReferences": {}
}