{"contracts/src/TreasuryStaking.sol":{"TreasuryStaking":{"abi":[{"inputs":[{"internalType":"address","name":"_zrxToken","type":"address"}],"stateMutability":"nonpayable","type":"constructor"},{"anonymous":false,"inputs":[{"indexed":true,"internalType":"uint256","name":"newEpoch","type":"uint256"},{"indexed":false,"internalType":"uint256","name":"startTime","type":"uint256"}],"name":"EpochAdvanced","type":"event"},{"anonymous":false,"inputs":[{"indexed":true,"internalType":"address","name":"staker","type":"address"},{"indexed":false,"internalType":"uint256","name":"amount","type":"uint256"}],"name":"Stake","type":"event"},{"anonymous":false,"inputs":[{"indexed":true,"internalType":"address","name":"staker","type":"address"},{"indexed":true,"internalType":"bytes32","name":"poolId","type":"bytes32"},{"indexed":false,"internalType":"uint256","name":"amount","type":"uint256"}],"name":"StakeDelegated","type":"event"},{"anonymous":false,"inputs":[{"indexed":true,"internalType":"address","name":"staker","type":"address"},{"indexed":true,"internalType":"bytes32","name":"poolId","type":"bytes32"},{"indexed":false,"internalType":"uint256","name":"amount","type":"uint256"}],"name":"StakeUndelegated","type":"event"},{"anonymous":false,"inputs":[{"indexed":true,"internalType":"bytes32","name":"poolId","type":"bytes32"},{"indexed":true,"internalType":"address","name":"operator","type":"address"},{"indexed":false,"internalType":"uint32","name":"operatorShare","type":"uint32"}],"name":"StakingPoolCreated","type":"event"},{"anonymous":false,"inputs":[{"indexed":true,"internalType":"address","name":"staker","type":"address"},{"indexed":false,"internalType":"uint256","name":"amount","type":"uint256"}],"name":"Unstake","type":"event"},{"inputs":[],"name":"DEFAULT_EPOCH_DURATION","outputs":[{"internalType":"uint256","name":"","type":"uint256"}],"stateMutability":"view","type":"function"},{"inputs":[],"name":"PPM_DENOMINATOR","outputs":[{"internalType":"uint256","name":"","type":"uint256"}],"stateMutability":"view","type":"function"},{"inputs":[],"name":"advanceEpoch","outputs":[],"stateMutability":"nonpayable","type":"function"},{"inputs":[{"internalType":"uint32","name":"operatorShare","type":"uint32"},{"internalType":"bool","name":"addOperatorAsMaker","type":"bool"}],"name":"createStakingPool","outputs":[{"internalType":"bytes32","name":"poolId","type":"bytes32"}],"stateMutability":"nonpayable","type":"function"},{"inputs":[],"name":"currentEpoch","outputs":[{"internalType":"uint256","name":"","type":"uint256"}],"stateMutability":"view","type":"function"},{"inputs":[],"name":"currentEpochStartTime","outputs":[{"internalType":"uint256","name":"","type":"uint256"}],"stateMutability":"view","type":"function"},{"inputs":[],"name":"currentEpochStartTimeInSeconds","outputs":[{"internalType":"uint256","name":"","type":"uint256"}],"stateMutability":"view","type":"function"},{"inputs":[],"name":"epochDurationInSeconds","outputs":[{"internalType":"uint256","name":"","type":"uint256"}],"stateMutability":"view","type":"function"},{"inputs":[],"name":"forceAdvanceEpoch","outputs":[],"stateMutability":"nonpayable","type":"function"},{"inputs":[{"internalType":"enum IStaking.StakeStatus","name":"stakeStatus","type":"uint8"}],"name":"getGlobalStakeByStatus","outputs":[{"components":[{"internalType":"uint64","name":"currentEpoch","type":"uint64"},{"internalType":"uint96","name":"currentEpochBalance","type":"uint96"},{"internalType":"uint96","name":"nextEpochBalance","type":"uint96"}],"internalType":"struct IStaking.StoredBalance","name":"balance","type":"tuple"}],"stateMutability":"view","type":"function"},{"inputs":[{"internalType":"address","name":"staker","type":"address"},{"internalType":"enum IStaking.StakeStatus","name":"stakeStatus","type":"uint8"}],"name":"getOwnerStakeByStatus","outputs":[{"components":[{"internalType":"uint64","name":"currentEpoch","type":"uint64"},{"internalType":"uint96","name":"currentEpochBalance","type":"uint96"},{"internalType":"uint96","name":"nextEpochBalance","type":"uint96"}],"internalType":"struct IStaking.StoredBalance","name":"balance","type":"tuple"}],"stateMutability":"view","type":"function"},{"inputs":[{"internalType":"address","name":"operator","type":"address"}],"name":"getPoolsByOperator","outputs":[{"internalType":"bytes32[]","name":"","type":"bytes32[]"}],"stateMutability":"view","type":"function"},{"inputs":[{"internalType":"address","name":"staker","type":"address"},{"internalType":"bytes32","name":"poolId","type":"bytes32"}],"name":"getStakeDelegatedToPoolByOwner","outputs":[{"components":[{"internalType":"uint64","name":"currentEpoch","type":"uint64"},{"internalType":"uint96","name":"currentEpochBalance","type":"uint96"},{"internalType":"uint96","name":"nextEpochBalance","type":"uint96"}],"internalType":"struct IStaking.StoredBalance","name":"balance","type":"tuple"}],"stateMutability":"view","type":"function"},{"inputs":[{"internalType":"bytes32","name":"poolId","type":"bytes32"}],"name":"getStakersByPool","outputs":[{"internalType":"address[]","name":"","type":"address[]"}],"stateMutability":"view","type":"function"},{"inputs":[{"internalType":"bytes32","name":"poolId","type":"bytes32"}],"name":"getStakingPool","outputs":[{"components":[{"internalType":"address","name":"operator","type":"address"},{"internalType":"uint32","name":"operatorShare","type":"uint32"}],"internalType":"struct IStaking.Pool","name":"","type":"tuple"}],"stateMutability":"view","type":"function"},{"inputs":[{"internalType":"bytes32","name":"poolId","type":"bytes32"}],"name":"getTotalStakeDelegatedToPool","outputs":[{"components":[{"internalType":"uint64","name":"currentEpoch","type":"uint64"},{"internalType":"uint96","name":"currentEpochBalance","type":"uint96"},{"internalType":"uint96","name":"nextEpochBalance","type":"uint96"}],"internalType":"struct IStaking.StoredBalance","name":"balance","type":"tuple"}],"stateMutability":"view","type":"function"},{"inputs":[{"internalType":"address","name":"staker","type":"address"}],"name":"getTotalStakedByOwner","outputs":[{"internalType":"uint256","name":"","type":"uint256"}],"stateMutability":"view","type":"function"},{"inputs":[{"internalType":"bytes32","name":"poolId","type":"bytes32"},{"internalType":"uint256","name":"amount","type":"uint256"}],"name":"moveStakeFromPool","outputs":[],"stateMutability":"nonpayable","type":"function"},{"inputs":[{"internalType":"bytes32","name":"poolId","type":"bytes32"},{"internalType":"uint256","name":"amount","type":"uint256"}],"name":"moveStakeToPool","outputs":[],"stateMutability":"nonpayable","type":"function"},{"inputs":[],"name":"nextPoolId","outputs":[{"internalType":"uint256","name":"","type":"uint256"}],"stateMutability":"view","type":"function"},{"inputs":[{"internalType":"address","name":"","type":"address"},{"internalType":"uint256","name":"","type":"uint256"}],"name":"poolsOwnedByOperator","outputs":[{"internalType":"bytes32","name":"","type":"bytes32"}],"stateMutability":"view","type":"function"},{"inputs":[{"internalType":"uint256","name":"_epochDurationInSeconds","type":"uint256"}],"name":"setEpochDuration","outputs":[],"stateMutability":"nonpayable","type":"function"},{"inputs":[{"internalType":"uint256","name":"amount","type":"uint256"}],"name":"stake","outputs":[],"stateMutability":"nonpayable","type":"function"},{"inputs":[{"internalType":"bytes32","name":"","type":"bytes32"},{"internalType":"uint256","name":"","type":"uint256"}],"name":"stakersByPool","outputs":[{"internalType":"address","name":"","type":"address"}],"stateMutability":"view","type":"function"},{"inputs":[{"internalType":"address","name":"","type":"address"}],"name":"totalStakedByOwner","outputs":[{"internalType":"uint256","name":"","type":"uint256"}],"stateMutability":"view","type":"function"},{"inputs":[{"internalType":"uint256","name":"amount","type":"uint256"}],"name":"unstake","outputs":[],"stateMutability":"nonpayable","type":"function"},{"inputs":[],"name":"zrxToken","outputs":[{"internalType":"contract IERC20","name":"","type":"address"}],"stateMutability":"view","type":"function"}],"evm":{"bytecode":{"linkReferences":{},"object":"60a060405234801561000f575f5ffd5b506040516122ea3803806122ea83398101604081905261002e916100ac565b6001600160a01b0381166100885760405162461bcd60e51b815260206004820152601960248201527f496e76616c6964205a525820746f6b656e206164647265737300000000000000604482015260640160405180910390fd5b6001600160a01b031660805262093a8060025560015f8190554281556003556100d9565b5f602082840312156100bc575f5ffd5b81516001600160a01b03811681146100d2575f5ffd5b9392505050565b6080516121eb6100ff5f395f818161043a01528181610742015261101101526121eb5ff3fe608060405234801561000f575f5ffd5b50600436106101b0575f3560e01c806363403801116100f35780639eaeb11611610093578063bedf88a11161006e578063bedf88a114610477578063e804d0a41461048a578063f252b7a11461049d578063f27db50b146104b0575f5ffd5b80639eaeb11614610435578063a694fc3a1461045c578063b519fc1f1461046f575f5ffd5b806376671808116100ce57806376671808146103f95780637787872a146104015780638cc875c5146104215780639a2f79791461042b575f5ffd5b806363403801146103ca57806368a7d6cd146103d35780637267c94c146103e6575f5ffd5b80633cf80e6c1161015e578063460297ee11610139578063460297ee146102d35780634a43f180146103085780634bcc3f6714610311578063587da023146103c2575f5ffd5b80633cf80e6c146102635780633e4ad7321461026b57806344a6958b146102c0575f5ffd5b806330024dfe1161018e57806330024dfe146101f85780633745bf431461020b5780633c7530fc1461022b575f5ffd5b80630d666fb4146101b457806318e56131146101c95780632e17de78146101e5575b5f5ffd5b6101c76101c2366004611ec6565b6104cf565b005b6101d260035481565b6040519081526020015b60405180910390f35b6101c76101f3366004611ee6565b61054c565b6101c7610206366004611ee6565b610860565b61021e610219366004611ee6565b6108ce565b6040516101dc9190611efd565b61023e610239366004611ec6565b610944565b60405173ffffffffffffffffffffffffffffffffffffffff90911681526020016101dc565b6101c7610985565b61027e610279366004611ee6565b610a54565b60408051825167ffffffffffffffff1681526020808401516bffffffffffffffffffffffff9081169183019190915292820151909216908201526060016101dc565b61027e6102ce366004611f86565b610ae2565b6101d26102e1366004611fb7565b73ffffffffffffffffffffffffffffffffffffffff165f9081526009602052604090205490565b6101d260015481565b61038b61031f366004611ee6565b604080518082019091525f8082526020820152505f9081526004602090815260409182902082518084019093525473ffffffffffffffffffffffffffffffffffffffff8116835274010000000000000000000000000000000000000000900463ffffffff169082015290565b60408051825173ffffffffffffffffffffffffffffffffffffffff16815260209283015163ffffffff1692810192909252016101dc565b6001546101d2565b6101d260025481565b6101d26103e1366004611fe4565b610bbe565b6101c76103f4366004611ec6565b610d4e565b6101d25f5481565b61041461040f366004611fb7565b610ef8565b6040516101dc9190612023565b6101d2620f424081565b6101d262093a8081565b61023e7f000000000000000000000000000000000000000000000000000000000000000081565b6101c761046a366004611ee6565b610f6d565b6101c76109fe565b6101d261048536600461205a565b611167565b61027e610498366004612082565b611192565b61027e6104ab36600461205a565b611249565b6101d26104be366004611fb7565b60096020525f908152604090205481565b5f811161053d576040517f08c379a000000000000000000000000000000000000000000000000000000000815260206004820152601760248201527f416d6f756e74206d75737420626520706f73697469766500000000000000000060448201526064015b60405180910390fd5b6105483383836112f0565b5050565b5f81116105b5576040517f08c379a000000000000000000000000000000000000000000000000000000000815260206004820152601760248201527f416d6f756e74206d75737420626520706f7369746976650000000000000000006044820152606401610534565b335f9081526009602052604090205481111561062d576040517f08c379a000000000000000000000000000000000000000000000000000000000815260206004820152601b60248201527f496e73756666696369656e74207374616b65642062616c616e636500000000006044820152606401610534565b335f908152600560209081526040808320838052909152902061064f816114ae565b80546801000000000000000090046bffffffffffffffffffffffff168211156106d4576040517f08c379a000000000000000000000000000000000000000000000000000000000815260206004820181905260248201527f496e73756666696369656e7420756e64656c6567617465642062616c616e63656044820152606401610534565b335f90815260096020526040812080548492906106f29084906120f5565b909155506107039050335f8461157b565b61070d5f8361171a565b6040517fa9059cbb000000000000000000000000000000000000000000000000000000008152336004820152602481018390527f000000000000000000000000000000000000000000000000000000000000000073ffffffffffffffffffffffffffffffffffffffff169063a9059cbb906044016020604051808303815f875af115801561079d573d5f5f3e3d5ffd5b505050506040513d601f19601f820116820180604052508101906107c19190612108565b610827576040517f08c379a000000000000000000000000000000000000000000000000000000000815260206004820152600f60248201527f5472616e73666572206661696c656400000000000000000000000000000000006044820152606401610534565b60405182815233907f85082129d87b2fe11527cb1b3b7a520aeb5aa6913f88a3d8757fe40d1db02fdd9060200160405180910390a25050565b5f81116108c9576040517f08c379a000000000000000000000000000000000000000000000000000000000815260206004820152601660248201527f496e76616c69642065706f6368206475726174696f6e000000000000000000006044820152606401610534565b600255565b5f818152600b602090815260409182902080548351818402810184019094528084526060939283018282801561093857602002820191905f5260205f20905b815473ffffffffffffffffffffffffffffffffffffffff16815260019091019060200180831161090d575b50505050509050919050565b600b602052815f5260405f20818154811061095d575f80fd5b5f9182526020909120015473ffffffffffffffffffffffffffffffffffffffff169150829050565b6002546001546109959190612123565b4210156109fe576040517f08c379a000000000000000000000000000000000000000000000000000000000815260206004820152601a60248201527f45706f6368206475726174696f6e206e6f7420656c61707365640000000000006044820152606401610534565b5f80549080610a0c83612136565b9091555050426001555f547facfa06cebbab8226f9a388bff9f5fcf4569298028d939f4765958dc57dbb330b600154604051610a4a91815260200190565b60405180910390a2565b60408051606080820183525f808352602080840182905292840181905284815260078352839020835191820184525467ffffffffffffffff811682526bffffffffffffffffffffffff68010000000000000000820481169383019390935274010000000000000000000000000000000000000000900490911691810191909152610add81611897565b919050565b604080516060810182525f808252602080830182905282840182905273ffffffffffffffffffffffffffffffffffffffff86168252600590529182209091836001811115610b3257610b3261209b565b6001811115610b4357610b4361209b565b815260208082019290925260409081015f208151606081018352905467ffffffffffffffff811682526bffffffffffffffffffffffff680100000000000000008204811694830194909452740100000000000000000000000000000000000000009004909216908201529050610bb881611897565b92915050565b5f620f42408363ffffffff161115610c32576040517f08c379a000000000000000000000000000000000000000000000000000000000815260206004820152601660248201527f496e76616c6964206f70657261746f72207368617265000000000000000000006044820152606401610534565b60038054905f610c4183612136565b909155506040805180820182523380825263ffffffff80881660208085019182525f8781526004825286812095518654935190941674010000000000000000000000000000000000000000027fffffffffffffffff00000000000000000000000000000000000000000000000090931673ffffffffffffffffffffffffffffffffffffffff949094169390931791909117909355908152600a8252918220805460018101825590835291200181905590508115610d0b57610d0b3382610d06336118d3565b61197b565b60405163ffffffff84168152339082907fcec6fc86ea644053f6edff1160dfe3fa5c61e7a5ef9f873f145bb03a0bd319e79060200160405180910390a392915050565b5f8281526004602052604090205473ffffffffffffffffffffffffffffffffffffffff16610dd8576040517f08c379a000000000000000000000000000000000000000000000000000000000815260206004820152601360248201527f506f6f6c20646f6573206e6f74206578697374000000000000000000000000006044820152606401610534565b5f8111610e41576040517f08c379a000000000000000000000000000000000000000000000000000000000815260206004820152601760248201527f416d6f756e74206d75737420626520706f7369746976650000000000000000006044820152606401610534565b335f9081526005602090815260408083208380529091529020610e63816114ae565b80546801000000000000000090046bffffffffffffffffffffffff16821115610ee8576040517f08c379a000000000000000000000000000000000000000000000000000000000815260206004820181905260248201527f496e73756666696369656e7420756e64656c6567617465642062616c616e63656044820152606401610534565b610ef333848461197b565b505050565b73ffffffffffffffffffffffffffffffffffffffff81165f908152600a602090815260409182902080548351818402810184019094528084526060939283018282801561093857602002820191905f5260205f20905b815481526020019060010190808311610f4e5750505050509050919050565b5f8111610fd6576040517f08c379a000000000000000000000000000000000000000000000000000000000815260206004820152601760248201527f416d6f756e74206d75737420626520706f7369746976650000000000000000006044820152606401610534565b6040517f23b872dd000000000000000000000000000000000000000000000000000000008152336004820152306024820152604481018290527f000000000000000000000000000000000000000000000000000000000000000073ffffffffffffffffffffffffffffffffffffffff16906323b872dd906064016020604051808303815f875af115801561106c573d5f5f3e3d5ffd5b505050506040513d601f19601f820116820180604052508101906110909190612108565b6110f6576040517f08c379a000000000000000000000000000000000000000000000000000000000815260206004820152600f60248201527f5472616e73666572206661696c656400000000000000000000000000000000006044820152606401610534565b335f9081526009602052604081208054839290611114908490612123565b909155506111259050335f83611b75565b61112f5f82611c5b565b60405181815233907febedb8b3c678666e7f36970bc8f57abf6d8fa2e828c0da91ea5b75bf68ed101a9060200160405180910390a250565b600a602052815f5260405f208181548110611180575f80fd5b905f5260205f20015f91509150505481565b604080516060810182525f808252602082018190529181019190915260065f8360018111156111c3576111c361209b565b60018111156111d4576111d461209b565b815260208082019290925260409081015f208151606081018352905467ffffffffffffffff811682526bffffffffffffffffffffffff680100000000000000008204811694830194909452740100000000000000000000000000000000000000009004909216908201529050610add81611897565b60408051606080820183525f808352602080840182905292840181905273ffffffffffffffffffffffffffffffffffffffff86168152600883528381208582528352839020835191820184525467ffffffffffffffff811682526bffffffffffffffffffffffff68010000000000000000820481169383019390935274010000000000000000000000000000000000000000900490911691810191909152610bb881611897565b5f8111611359576040517f08c379a000000000000000000000000000000000000000000000000000000000815260206004820152601760248201527f416d6f756e74206d75737420626520706f7369746976650000000000000000006044820152606401610534565b73ffffffffffffffffffffffffffffffffffffffff83165f9081526008602090815260408083208584529091529020611391816114ae565b80546801000000000000000090046bffffffffffffffffffffffff16821115611416576040517f08c379a000000000000000000000000000000000000000000000000000000000815260206004820152601e60248201527f496e73756666696369656e742064656c6567617465642062616c616e636500006044820152606401610534565b6114228460018461157b565b61142d845f84611b75565b61143860018361171a565b6114425f83611c5b565b61144c8383611d20565b611457848484611dbb565b828473ffffffffffffffffffffffffffffffffffffffff167f1756ef54aaec94375937d8582b257b297451d6b6f20e83943bf1d29b0c1f6a4d846040516114a091815260200190565b60405180910390a350505050565b5f54815467ffffffffffffffff161015611578578054680100000000000000006bffffffffffffffffffffffff74010000000000000000000000000000000000000000830416027fffffffffffffffffffffffff000000000000000000000000ffffffffffffffff8216811783555f5467ffffffffffffffff167fffffffffffffffffffffffffffffffffffffffffffffffff00000000000000009091167fffffffffffffffffffffffff0000000000000000000000000000000000000000909216919091171781555b50565b73ffffffffffffffffffffffffffffffffffffffff83165f908152600560205260408120818460018111156115b2576115b261209b565b60018111156115c3576115c361209b565b81526020019081526020015f2090506115db816114ae565b80546801000000000000000090046bffffffffffffffffffffffff16821115611660576040517f08c379a000000000000000000000000000000000000000000000000000000000815260206004820152601460248201527f496e73756666696369656e742062616c616e63650000000000000000000000006044820152606401610534565b80548290829060089061168e9084906801000000000000000090046bffffffffffffffffffffffff1661216d565b92506101000a8154816bffffffffffffffffffffffff02191690836bffffffffffffffffffffffff16021790555081815f0160148282829054906101000a90046bffffffffffffffffffffffff166116e6919061216d565b92506101000a8154816bffffffffffffffffffffffff02191690836bffffffffffffffffffffffff16021790555050505050565b5f60065f8460018111156117305761173061209b565b60018111156117415761174161209b565b81526020019081526020015f209050611759816114ae565b80546801000000000000000090046bffffffffffffffffffffffff168211156117de576040517f08c379a000000000000000000000000000000000000000000000000000000000815260206004820152601b60248201527f496e73756666696369656e7420676c6f62616c2062616c616e636500000000006044820152606401610534565b80548290829060089061180c9084906801000000000000000090046bffffffffffffffffffffffff1661216d565b92506101000a8154816bffffffffffffffffffffffff02191690836bffffffffffffffffffffffff16021790555081815f0160148282829054906101000a90046bffffffffffffffffffffffff16611864919061216d565b92506101000a8154816bffffffffffffffffffffffff02191690836bffffffffffffffffffffffff160217905550505050565b5f54815167ffffffffffffffff1610156115785760408101516bffffffffffffffffffffffff1660208201525f5467ffffffffffffffff169052565b73ffffffffffffffffffffffffffffffffffffffff81165f90815260056020908152604080832083805282528083208151606081018352905467ffffffffffffffff811682526bffffffffffffffffffffffff6801000000000000000082048116948301949094527401000000000000000000000000000000000000000090049092169082015261196381611897565b602001516bffffffffffffffffffffffff1692915050565b5f81116119e4576040517f08c379a000000000000000000000000000000000000000000000000000000000815260206004820152601760248201527f416d6f756e74206d75737420626520706f7369746976650000000000000000006044820152606401610534565b73ffffffffffffffffffffffffffffffffffffffff83165f9081526005602090815260408083208380529091529020611a1c816114ae565b80546801000000000000000090046bffffffffffffffffffffffff16821115611aa1576040517f08c379a000000000000000000000000000000000000000000000000000000000815260206004820181905260248201527f496e73756666696369656e7420756e64656c6567617465642062616c616e63656044820152606401610534565b611aac845f8461157b565b611ab884600184611b75565b611ac25f8361171a565b611acd600183611c5b565b611ad78383611e78565b611ae2848484611e8e565b5f838152600b6020908152604080832080546001810182559084529282902090920180547fffffffffffffffffffffffff00000000000000000000000000000000000000001673ffffffffffffffffffffffffffffffffffffffff881690811790915591518481528592917f96501a8ed04e74b6a43585e8580f3be4a854c952228da6287de433eb97a6d41491016114a0565b73ffffffffffffffffffffffffffffffffffffffff83165f90815260056020526040812081846001811115611bac57611bac61209b565b6001811115611bbd57611bbd61209b565b81526020019081526020015f209050611bd5816114ae565b805482908290600890611c039084906801000000000000000090046bffffffffffffffffffffffff16612191565b92506101000a8154816bffffffffffffffffffffffff02191690836bffffffffffffffffffffffff16021790555081815f0160148282829054906101000a90046bffffffffffffffffffffffff166116e69190612191565b5f60065f846001811115611c7157611c7161209b565b6001811115611c8257611c8261209b565b81526020019081526020015f209050611c9a816114ae565b805482908290600890611cc89084906801000000000000000090046bffffffffffffffffffffffff16612191565b92506101000a8154816bffffffffffffffffffffffff02191690836bffffffffffffffffffffffff16021790555081815f0160148282829054906101000a90046bffffffffffffffffffffffff166118649190612191565b5f828152600760205260409020611d36816114ae565b80546801000000000000000090046bffffffffffffffffffffffff168211156117de576040517f08c379a000000000000000000000000000000000000000000000000000000000815260206004820152601960248201527f496e73756666696369656e7420706f6f6c2062616c616e6365000000000000006044820152606401610534565b73ffffffffffffffffffffffffffffffffffffffff83165f9081526008602090815260408083208584529091529020611df3816114ae565b80546801000000000000000090046bffffffffffffffffffffffff16821115611660576040517f08c379a000000000000000000000000000000000000000000000000000000000815260206004820181905260248201527f496e73756666696369656e74207374616b657220706f6f6c2062616c616e63656044820152606401610534565b5f828152600760205260409020611c9a816114ae565b73ffffffffffffffffffffffffffffffffffffffff83165f9081526008602090815260408083208584529091529020611bd5816114ae565b5f5f60408385031215611ed7575f5ffd5b50508035926020909101359150565b5f60208284031215611ef6575f5ffd5b5035919050565b602080825282518282018190525f918401906040840190835b81811015611f4a57835173ffffffffffffffffffffffffffffffffffffffff16835260209384019390920191600101611f16565b509095945050505050565b803573ffffffffffffffffffffffffffffffffffffffff81168114610add575f5ffd5b803560028110610add575f5ffd5b5f5f60408385031215611f97575f5ffd5b611fa083611f55565b9150611fae60208401611f78565b90509250929050565b5f60208284031215611fc7575f5ffd5b611fd082611f55565b9392505050565b8015158114611578575f5ffd5b5f5f60408385031215611ff5575f5ffd5b823563ffffffff81168114612008575f5ffd5b9150602083013561201881611fd7565b809150509250929050565b602080825282518282018190525f918401906040840190835b81811015611f4a57835183526020938401939092019160010161203c565b5f5f6040838503121561206b575f5ffd5b61207483611f55565b946020939093013593505050565b5f60208284031215612092575f5ffd5b611fd082611f78565b7f4e487b71000000000000000000000000000000000000000000000000000000005f52602160045260245ffd5b7f4e487b71000000000000000000000000000000000000000000000000000000005f52601160045260245ffd5b81810381811115610bb857610bb86120c8565b5f60208284031215612118575f5ffd5b8151611fd081611fd7565b80820180821115610bb857610bb86120c8565b5f7fffffffffffffffffffffffffffffffffffffffffffffffffffffffffffffffff8203612166576121666120c8565b5060010190565b6bffffffffffffffffffffffff8281168282160390811115610bb857610bb86120c8565b6bffffffffffffffffffffffff8181168382160190811115610bb857610bb86120c856fea2646970667358221220419d018e987700603eb2314f054161ebbb8cbf9caeefca8cbd4ecd57fd52855d64736f6c634300081c0033","opcodes":"PUSH1 0xA0 PUSH1 0x40 MSTORE CALLVALUE DUP1 ISZERO PUSH2 0xF JUMPI PUSH0 PUSH0 REVERT JUMPDEST POP PUSH1 0x40 MLOAD PUSH2 0x22EA CODESIZE SUB DUP1 PUSH2 0x22EA DUP4 CODECOPY DUP2 ADD PUSH1 0x40 DUP2 SWAP1 MSTORE PUSH2 0x2E SWAP2 PUSH2 0xAC JUMP JUMPDEST PUSH1 0x1 PUSH1 0x1 PUSH1 0xA0 SHL SUB DUP2 AND PUSH2 0x88 JUMPI PUSH1 0x40 MLOAD PUSH3 0x461BCD PUSH1 0xE5 SHL DUP2 MSTORE PUSH1 0x20 PUSH1 0x4 DUP3 ADD MSTORE PUSH1 0x19 PUSH1 0x24 DUP3 ADD MSTORE PUSH32 0x496E76616C6964205A525820746F6B656E206164647265737300000000000000 PUSH1 0x44 DUP3 ADD MSTORE PUSH1 0x64 ADD PUSH1 0x40 MLOAD DUP1 SWAP2 SUB SWAP1 REVERT JUMPDEST PUSH1 0x1 PUSH1 0x1 PUSH1 0xA0 SHL SUB AND PUSH1 0x80 MSTORE PUSH3 0x93A80 PUSH1 0x2 SSTORE PUSH1 0x1 PUSH0 DUP2 SWAP1 SSTORE TIMESTAMP DUP2 SSTORE PUSH1 0x3 SSTORE PUSH2 0xD9 JUMP JUMPDEST PUSH0 PUSH1 0x20 DUP3 DUP5 SUB SLT ISZERO PUSH2 0xBC JUMPI PUSH0 PUSH0 REVERT JUMPDEST DUP2 MLOAD PUSH1 0x1 PUSH1 0x1 PUSH1 0xA0 SHL SUB DUP2 AND DUP2 EQ PUSH2 0xD2 JUMPI PUSH0 PUSH0 REVERT JUMPDEST SWAP4 SWAP3 POP POP POP JUMP JUMPDEST PUSH1 0x80 MLOAD PUSH2 0x21EB PUSH2 0xFF PUSH0 CODECOPY PUSH0 DUP2 DUP2 PUSH2 0x43A ADD MSTORE DUP2 DUP2 PUSH2 0x742 ADD MSTORE PUSH2 0x1011 ADD MSTORE PUSH2 0x21EB PUSH0 RETURN INVALID PUSH1 0x80 PUSH1 0x40 MSTORE CALLVALUE DUP1 ISZERO PUSH2 0xF JUMPI PUSH0 PUSH0 REVERT JUMPDEST POP PUSH1 0x4 CALLDATASIZE LT PUSH2 0x1B0 JUMPI PUSH0 CALLDATALOAD PUSH1 0xE0 SHR DUP1 PUSH4 0x63403801 GT PUSH2 0xF3 JUMPI DUP1 PUSH4 0x9EAEB116 GT PUSH2 0x93 JUMPI DUP1 PUSH4 0xBEDF88A1 GT PUSH2 0x6E JUMPI DUP1 PUSH4 0xBEDF88A1 EQ PUSH2 0x477 JUMPI DUP1 PUSH4 0xE804D0A4 EQ PUSH2 0x48A JUMPI DUP1 PUSH4 0xF252B7A1 EQ PUSH2 0x49D JUMPI DUP1 PUSH4 0xF27DB50B EQ PUSH2 0x4B0 JUMPI PUSH0 PUSH0 REVERT JUMPDEST DUP1 PUSH4 0x9EAEB116 EQ PUSH2 0x435 JUMPI DUP1 PUSH4 0xA694FC3A EQ PUSH2 0x45C JUMPI DUP1 PUSH4 0xB519FC1F EQ PUSH2 0x46F JUMPI PUSH0 PUSH0 REVERT JUMPDEST DUP1 PUSH4 0x76671808 GT PUSH2 0xCE JUMPI DUP1 PUSH4 0x76671808 EQ PUSH2 0x3F9 JUMPI DUP1 PUSH4 0x7787872A EQ PUSH2 0x401 JUMPI DUP1 PUSH4 0x8CC875C5 EQ PUSH2 0x421 JUMPI DUP1 PUSH4 0x9A2F7979 EQ PUSH2 0x42B JUMPI PUSH0 PUSH0 REVERT JUMPDEST DUP1 PUSH4 0x63403801 EQ PUSH2 0x3CA JUMPI DUP1 PUSH4 0x68A7D6CD EQ PUSH2 0x3D3 JUMPI DUP1 PUSH4 0x7267C94C EQ PUSH2 0x3E6 JUMPI PUSH0 PUSH0 REVERT JUMPDEST DUP1 PUSH4 0x3CF80E6C GT PUSH2 0x15E JUMPI DUP1 PUSH4 0x460297EE GT PUSH2 0x139 JUMPI DUP1 PUSH4 0x460297EE EQ PUSH2 0x2D3 JUMPI DUP1 PUSH4 0x4A43F180 EQ PUSH2 0x308 JUMPI DUP1 PUSH4 0x4BCC3F67 EQ PUSH2 0x311 JUMPI DUP1 PUSH4 0x587DA023 EQ PUSH2 0x3C2 JUMPI PUSH0 PUSH0 REVERT JUMPDEST DUP1 PUSH4 0x3CF80E6C EQ PUSH2 0x263 JUMPI DUP1 PUSH4 0x3E4AD732 EQ PUSH2 0x26B JUMPI DUP1 PUSH4 0x44A6958B EQ PUSH2 0x2C0 JUMPI PUSH0 PUSH0 REVERT JUMPDEST DUP1 PUSH4 0x30024DFE GT PUSH2 0x18E JUMPI DUP1 PUSH4 0x30024DFE EQ PUSH2 0x1F8 JUMPI DUP1 PUSH4 0x3745BF43 EQ PUSH2 0x20B JUMPI DUP1 PUSH4 0x3C7530FC EQ PUSH2 0x22B JUMPI PUSH0 PUSH0 REVERT JUMPDEST DUP1 PUSH4 0xD666FB4 EQ PUSH2 0x1B4 JUMPI DUP1 PUSH4 0x18E56131 EQ PUSH2 0x1C9 JUMPI DUP1 PUSH4 0x2E17DE78 EQ PUSH2 0x1E5 JUMPI JUMPDEST PUSH0 PUSH0 REVERT JUMPDEST PUSH2 0x1C7 PUSH2 0x1C2 CALLDATASIZE PUSH1 0x4 PUSH2 0x1EC6 JUMP JUMPDEST PUSH2 0x4CF JUMP JUMPDEST STOP JUMPDEST PUSH2 0x1D2 PUSH1 0x3 SLOAD DUP2 JUMP JUMPDEST PUSH1 0x40 MLOAD SWAP1 DUP2 MSTORE PUSH1 0x20 ADD JUMPDEST PUSH1 0x40 MLOAD DUP1 SWAP2 SUB SWAP1 RETURN JUMPDEST PUSH2 0x1C7 PUSH2 0x1F3 CALLDATASIZE PUSH1 0x4 PUSH2 0x1EE6 JUMP JUMPDEST PUSH2 0x54C JUMP JUMPDEST PUSH2 0x1C7 PUSH2 0x206 CALLDATASIZE PUSH1 0x4 PUSH2 0x1EE6 JUMP JUMPDEST PUSH2 0x860 JUMP JUMPDEST PUSH2 0x21E PUSH2 0x219 CALLDATASIZE PUSH1 0x4 PUSH2 0x1EE6 JUMP JUMPDEST PUSH2 0x8CE JUMP JUMPDEST PUSH1 0x40 MLOAD PUSH2 0x1DC SWAP2 SWAP1 PUSH2 0x1EFD JUMP JUMPDEST PUSH2 0x23E PUSH2 0x239 CALLDATASIZE PUSH1 0x4 PUSH2 0x1EC6 JUMP JUMPDEST PUSH2 0x944 JUMP JUMPDEST PUSH1 0x40 MLOAD PUSH20 0xFFFFFFFFFFFFFFFFFFFFFFFFFFFFFFFFFFFFFFFF SWAP1 SWAP2 AND DUP2 MSTORE PUSH1 0x20 ADD PUSH2 0x1DC JUMP JUMPDEST PUSH2 0x1C7 PUSH2 0x985 JUMP JUMPDEST PUSH2 0x27E PUSH2 0x279 CALLDATASIZE PUSH1 0x4 PUSH2 0x1EE6 JUMP JUMPDEST PUSH2 0xA54 JUMP JUMPDEST PUSH1 0x40 DUP1 MLOAD DUP3 MLOAD PUSH8 0xFFFFFFFFFFFFFFFF AND DUP2 MSTORE PUSH1 0x20 DUP1 DUP5 ADD MLOAD PUSH12 0xFFFFFFFFFFFFFFFFFFFFFFFF SWAP1 DUP2 AND SWAP2 DUP4 ADD SWAP2 SWAP1 SWAP2 MSTORE SWAP3 DUP3 ADD MLOAD SWAP1 SWAP3 AND SWAP1 DUP3 ADD MSTORE PUSH1 0x60 ADD PUSH2 0x1DC JUMP JUMPDEST PUSH2 0x27E PUSH2 0x2CE CALLDATASIZE PUSH1 0x4 PUSH2 0x1F86 JUMP JUMPDEST PUSH2 0xAE2 JUMP JUMPDEST PUSH2 0x1D2 PUSH2 0x2E1 CALLDATASIZE PUSH1 0x4 PUSH2 0x1FB7 JUMP JUMPDEST PUSH20 0xFFFFFFFFFFFFFFFFFFFFFFFFFFFFFFFFFFFFFFFF AND PUSH0 SWAP1 DUP2 MSTORE PUSH1 0x9 PUSH1 0x20 MSTORE PUSH1 0x40 SWAP1 KECCAK256 SLOAD SWAP1 JUMP JUMPDEST PUSH2 0x1D2 PUSH1 0x1 SLOAD DUP2 JUMP JUMPDEST PUSH2 0x38B PUSH2 0x31F CALLDATASIZE PUSH1 0x4 PUSH2 0x1EE6 JUMP JUMPDEST PUSH1 0x40 DUP1 MLOAD DUP1 DUP3 ADD SWAP1 SWAP2 MSTORE PUSH0 DUP1 DUP3 MSTORE PUSH1 0x20 DUP3 ADD MSTORE POP PUSH0 SWAP1 DUP2 MSTORE PUSH1 0x4 PUSH1 0x20 SWAP1 DUP2 MSTORE PUSH1 0x40 SWAP2 DUP3 SWAP1 KECCAK256 DUP3 MLOAD DUP1 DUP5 ADD SWAP1 SWAP4 MSTORE SLOAD PUSH20 0xFFFFFFFFFFFFFFFFFFFFFFFFFFFFFFFFFFFFFFFF DUP2 AND DUP4 MSTORE PUSH21 0x10000000000000000000000000000000000000000 SWAP1 DIV PUSH4 0xFFFFFFFF AND SWAP1 DUP3 ADD MSTORE SWAP1 JUMP JUMPDEST PUSH1 0x40 DUP1 MLOAD DUP3 MLOAD PUSH20 0xFFFFFFFFFFFFFFFFFFFFFFFFFFFFFFFFFFFFFFFF AND DUP2 MSTORE PUSH1 0x20 SWAP3 DUP4 ADD MLOAD PUSH4 0xFFFFFFFF AND SWAP3 DUP2 ADD SWAP3 SWAP1 SWAP3 MSTORE ADD PUSH2 0x1DC JUMP JUMPDEST PUSH1 0x1 SLOAD PUSH2 0x1D2 JUMP JUMPDEST PUSH2 0x1D2 PUSH1 0x2 SLOAD DUP2 JUMP JUMPDEST PUSH2 0x1D2 PUSH2 0x3E1 CALLDATASIZE PUSH1 0x4 PUSH2 0x1FE4 JUMP JUMPDEST PUSH2 0xBBE JUMP JUMPDEST PUSH2 0x1C7 PUSH2 0x3F4 CALLDATASIZE PUSH1 0x4 PUSH2 0x1EC6 JUMP JUMPDEST PUSH2 0xD4E JUMP JUMPDEST PUSH2 0x1D2 PUSH0 SLOAD DUP2 JUMP JUMPDEST PUSH2 0x414 PUSH2 0x40F CALLDATASIZE PUSH1 0x4 PUSH2 0x1FB7 JUMP JUMPDEST PUSH2 0xEF8 JUMP JUMPDEST PUSH1 0x40 MLOAD PUSH2 0x1DC SWAP2 SWAP1 PUSH2 0x2023 JUMP JUMPDEST PUSH2 0x1D2 PUSH3 0xF4240 DUP2 JUMP JUMPDEST PUSH2 0x1D2 PUSH3 0x93A80 DUP2 JUMP JUMPDEST PUSH2 0x23E PUSH32 0x0 DUP2 JUMP JUMPDEST PUSH2 0x1C7 PUSH2 0x46A CALLDATASIZE PUSH1 0x4 PUSH2 0x1EE6 JUMP JUMPDEST PUSH2 0xF6D JUMP JUMPDEST PUSH2 0x1C7 PUSH2 0x9FE JUMP JUMPDEST PUSH2 0x1D2 PUSH2 0x485 CALLDATASIZE PUSH1 0x4 PUSH2 0x205A JUMP JUMPDEST PUSH2 0x1167 JUMP JUMPDEST PUSH2 0x27E PUSH2 0x498 CALLDATASIZE PUSH1 0x4 PUSH2 0x2082 JUMP JUMPDEST PUSH2 0x1192 JUMP JUMPDEST PUSH2 0x27E PUSH2 0x4AB CALLDATASIZE PUSH1 0x4 PUSH2 0x205A JUMP JUMPDEST PUSH2 0x1249 JUMP JUMPDEST PUSH2 0x1D2 PUSH2 0x4BE CALLDATASIZE PUSH1 0x4 PUSH2 0x1FB7 JUMP JUMPDEST PUSH1 0x9 PUSH1 0x20 MSTORE PUSH0 SWAP1 DUP2 MSTORE PUSH1 0x40 SWAP1 KECCAK256 SLOAD DUP2 JUMP JUMPDEST PUSH0 DUP2 GT PUSH2 0x53D JUMPI PUSH1 0x40 MLOAD PUSH32 0x8C379A000000000000000000000000000000000000000000000000000000000 DUP2 MSTORE PUSH1 0x20 PUSH1 0x4 DUP3 ADD MSTORE PUSH1 0x17 PUSH1 0x24 DUP3 ADD MSTORE PUSH32 0x416D6F756E74206D75737420626520706F736974697665000000000000000000 PUSH1 0x44 DUP3 ADD MSTORE PUSH1 0x64 ADD JUMPDEST PUSH1 0x40 MLOAD DUP1 SWAP2 SUB SWAP1 REVERT JUMPDEST PUSH2 0x548 CALLER DUP4 DUP4 PUSH2 0x12F0 JUMP JUMPDEST POP POP JUMP JUMPDEST PUSH0 DUP2 GT PUSH2 0x5B5 JUMPI PUSH1 0x40 MLOAD PUSH32 0x8C379A000000000000000000000000000000000000000000000000000000000 DUP2 MSTORE PUSH1 0x20 PUSH1 0x4 DUP3 ADD MSTORE PUSH1 0x17 PUSH1 0x24 DUP3 ADD MSTORE PUSH32 0x416D6F756E74206D75737420626520706F736974697665000000000000000000 PUSH1 0x44 DUP3 ADD MSTORE PUSH1 0x64 ADD PUSH2 0x534 JUMP JUMPDEST CALLER PUSH0 SWAP1 DUP2 MSTORE PUSH1 0x9 PUSH1 0x20 MSTORE PUSH1 0x40 SWAP1 KECCAK256 SLOAD DUP2 GT ISZERO PUSH2 0x62D JUMPI PUSH1 0x40 MLOAD PUSH32 0x8C379A000000000000000000000000000000000000000000000000000000000 DUP2 MSTORE PUSH1 0x20 PUSH1 0x4 DUP3 ADD MSTORE PUSH1 0x1B PUSH1 0x24 DUP3 ADD MSTORE PUSH32 0x496E73756666696369656E74207374616B65642062616C616E63650000000000 PUSH1 0x44 DUP3 ADD MSTORE PUSH1 0x64 ADD PUSH2 0x534 JUMP JUMPDEST CALLER PUSH0 SWAP1 DUP2 MSTORE PUSH1 0x5 PUSH1 0x20 SWAP1 DUP2 MSTORE PUSH1 0x40 DUP1 DUP4 KECCAK256 DUP4 DUP1 MSTORE SWAP1 SWAP2 MSTORE SWAP1 KECCAK256 PUSH2 0x64F DUP2 PUSH2 0x14AE JUMP JUMPDEST DUP1 SLOAD PUSH9 0x10000000000000000 SWAP1 DIV PUSH12 0xFFFFFFFFFFFFFFFFFFFFFFFF AND DUP3 GT ISZERO PUSH2 0x6D4 JUMPI PUSH1 0x40 MLOAD PUSH32 0x8C379A000000000000000000000000000000000000000000000000000000000 DUP2 MSTORE PUSH1 0x20 PUSH1 0x4 DUP3 ADD DUP2 SWAP1 MSTORE PUSH1 0x24 DUP3 ADD MSTORE PUSH32 0x496E73756666696369656E7420756E64656C6567617465642062616C616E6365 PUSH1 0x44 DUP3 ADD MSTORE PUSH1 0x64 ADD PUSH2 0x534 JUMP JUMPDEST CALLER PUSH0 SWAP1 DUP2 MSTORE PUSH1 0x9 PUSH1 0x20 MSTORE PUSH1 0x40 DUP2 KECCAK256 DUP1 SLOAD DUP5 SWAP3 SWAP1 PUSH2 0x6F2 SWAP1 DUP5 SWAP1 PUSH2 0x20F5 JUMP JUMPDEST SWAP1 SWAP2 SSTORE POP PUSH2 0x703 SWAP1 POP CALLER PUSH0 DUP5 PUSH2 0x157B JUMP JUMPDEST PUSH2 0x70D PUSH0 DUP4 PUSH2 0x171A JUMP JUMPDEST PUSH1 0x40 MLOAD PUSH32 0xA9059CBB00000000000000000000000000000000000000000000000000000000 DUP2 MSTORE CALLER PUSH1 0x4 DUP3 ADD MSTORE PUSH1 0x24 DUP2 ADD DUP4 SWAP1 MSTORE PUSH32 0x0 PUSH20 0xFFFFFFFFFFFFFFFFFFFFFFFFFFFFFFFFFFFFFFFF AND SWAP1 PUSH4 0xA9059CBB SWAP1 PUSH1 0x44 ADD PUSH1 0x20 PUSH1 0x40 MLOAD DUP1 DUP4 SUB DUP2 PUSH0 DUP8 GAS CALL ISZERO DUP1 ISZERO PUSH2 0x79D JUMPI RETURNDATASIZE PUSH0 PUSH0 RETURNDATACOPY RETURNDATASIZE PUSH0 REVERT JUMPDEST POP POP POP POP PUSH1 0x40 MLOAD RETURNDATASIZE PUSH1 0x1F NOT PUSH1 0x1F DUP3 ADD AND DUP3 ADD DUP1 PUSH1 0x40 MSTORE POP DUP2 ADD SWAP1 PUSH2 0x7C1 SWAP2 SWAP1 PUSH2 0x2108 JUMP JUMPDEST PUSH2 0x827 JUMPI PUSH1 0x40 MLOAD PUSH32 0x8C379A000000000000000000000000000000000000000000000000000000000 DUP2 MSTORE PUSH1 0x20 PUSH1 0x4 DUP3 ADD MSTORE PUSH1 0xF PUSH1 0x24 DUP3 ADD MSTORE PUSH32 0x5472616E73666572206661696C65640000000000000000000000000000000000 PUSH1 0x44 DUP3 ADD MSTORE PUSH1 0x64 ADD PUSH2 0x534 JUMP JUMPDEST PUSH1 0x40 MLOAD DUP3 DUP2 MSTORE CALLER SWAP1 PUSH32 0x85082129D87B2FE11527CB1B3B7A520AEB5AA6913F88A3D8757FE40D1DB02FDD SWAP1 PUSH1 0x20 ADD PUSH1 0x40 MLOAD DUP1 SWAP2 SUB SWAP1 LOG2 POP POP JUMP JUMPDEST PUSH0 DUP2 GT PUSH2 0x8C9 JUMPI PUSH1 0x40 MLOAD PUSH32 0x8C379A000000000000000000000000000000000000000000000000000000000 DUP2 MSTORE PUSH1 0x20 PUSH1 0x4 DUP3 ADD MSTORE PUSH1 0x16 PUSH1 0x24 DUP3 ADD MSTORE PUSH32 0x496E76616C69642065706F6368206475726174696F6E00000000000000000000 PUSH1 0x44 DUP3 ADD MSTORE PUSH1 0x64 ADD PUSH2 0x534 JUMP JUMPDEST PUSH1 0x2 SSTORE JUMP JUMPDEST PUSH0 DUP2 DUP2 MSTORE PUSH1 0xB PUSH1 0x20 SWAP1 DUP2 MSTORE PUSH1 0x40 SWAP2 DUP3 SWAP1 KECCAK256 DUP1 SLOAD DUP4 MLOAD DUP2 DUP5 MUL DUP2 ADD DUP5 ADD SWAP1 SWAP5 MSTORE DUP1 DUP5 MSTORE PUSH1 0x60 SWAP4 SWAP3 DUP4 ADD DUP3 DUP3 DUP1 ISZERO PUSH2 0x938 JUMPI PUSH1 0x20 MUL DUP3 ADD SWAP2 SWAP1 PUSH0 MSTORE PUSH1 0x20 PUSH0 KECCAK256 SWAP1 JUMPDEST DUP2 SLOAD PUSH20 0xFFFFFFFFFFFFFFFFFFFFFFFFFFFFFFFFFFFFFFFF AND DUP2 MSTORE PUSH1 0x1 SWAP1 SWAP2 ADD SWAP1 PUSH1 0x20 ADD DUP1 DUP4 GT PUSH2 0x90D JUMPI JUMPDEST POP POP POP POP POP SWAP1 POP SWAP2 SWAP1 POP JUMP JUMPDEST PUSH1 0xB PUSH1 0x20 MSTORE DUP2 PUSH0 MSTORE PUSH1 0x40 PUSH0 KECCAK256 DUP2 DUP2 SLOAD DUP2 LT PUSH2 0x95D JUMPI PUSH0 DUP1 REVERT JUMPDEST PUSH0 SWAP2 DUP3 MSTORE PUSH1 0x20 SWAP1 SWAP2 KECCAK256 ADD SLOAD PUSH20 0xFFFFFFFFFFFFFFFFFFFFFFFFFFFFFFFFFFFFFFFF AND SWAP2 POP DUP3 SWAP1 POP JUMP JUMPDEST PUSH1 0x2 SLOAD PUSH1 0x1 SLOAD PUSH2 0x995 SWAP2 SWAP1 PUSH2 0x2123 JUMP JUMPDEST TIMESTAMP LT ISZERO PUSH2 0x9FE JUMPI PUSH1 0x40 MLOAD PUSH32 0x8C379A000000000000000000000000000000000000000000000000000000000 DUP2 MSTORE PUSH1 0x20 PUSH1 0x4 DUP3 ADD MSTORE PUSH1 0x1A PUSH1 0x24 DUP3 ADD MSTORE PUSH32 0x45706F6368206475726174696F6E206E6F7420656C6170736564000000000000 PUSH1 0x44 DUP3 ADD MSTORE PUSH1 0x64 ADD PUSH2 0x534 JUMP JUMPDEST PUSH0 DUP1 SLOAD SWAP1 DUP1 PUSH2 0xA0C DUP4 PUSH2 0x2136 JUMP JUMPDEST SWAP1 SWAP2 SSTORE POP POP TIMESTAMP PUSH1 0x1 SSTORE PUSH0 SLOAD PUSH32 0xACFA06CEBBAB8226F9A388BFF9F5FCF4569298028D939F4765958DC57DBB330B PUSH1 0x1 SLOAD PUSH1 0x40 MLOAD PUSH2 0xA4A SWAP2 DUP2 MSTORE PUSH1 0x20 ADD SWAP1 JUMP JUMPDEST PUSH1 0x40 MLOAD DUP1 SWAP2 SUB SWAP1 LOG2 JUMP JUMPDEST PUSH1 0x40 DUP1 MLOAD PUSH1 0x60 DUP1 DUP3 ADD DUP4 MSTORE PUSH0 DUP1 DUP4 MSTORE PUSH1 0x20 DUP1 DUP5 ADD DUP3 SWAP1 MSTORE SWAP3 DUP5 ADD DUP2 SWAP1 MSTORE DUP5 DUP2 MSTORE PUSH1 0x7 DUP4 MSTORE DUP4 SWAP1 KECCAK256 DUP4 MLOAD SWAP2 DUP3 ADD DUP5 MSTORE SLOAD PUSH8 0xFFFFFFFFFFFFFFFF DUP2 AND DUP3 MSTORE PUSH12 0xFFFFFFFFFFFFFFFFFFFFFFFF PUSH9 0x10000000000000000 DUP3 DIV DUP2 AND SWAP4 DUP4 ADD SWAP4 SWAP1 SWAP4 MSTORE PUSH21 0x10000000000000000000000000000000000000000 SWAP1 DIV SWAP1 SWAP2 AND SWAP2 DUP2 ADD SWAP2 SWAP1 SWAP2 MSTORE PUSH2 0xADD DUP2 PUSH2 0x1897 JUMP JUMPDEST SWAP2 SWAP1 POP JUMP JUMPDEST PUSH1 0x40 DUP1 MLOAD PUSH1 0x60 DUP2 ADD DUP3 MSTORE PUSH0 DUP1 DUP3 MSTORE PUSH1 0x20 DUP1 DUP4 ADD DUP3 SWAP1 MSTORE DUP3 DUP5 ADD DUP3 SWAP1 MSTORE PUSH20 0xFFFFFFFFFFFFFFFFFFFFFFFFFFFFFFFFFFFFFFFF DUP7 AND DUP3 MSTORE PUSH1 0x5 SWAP1 MSTORE SWAP2 DUP3 KECCAK256 SWAP1 SWAP2 DUP4 PUSH1 0x1 DUP2 GT ISZERO PUSH2 0xB32 JUMPI PUSH2 0xB32 PUSH2 0x209B JUMP JUMPDEST PUSH1 0x1 DUP2 GT ISZERO PUSH2 0xB43 JUMPI PUSH2 0xB43 PUSH2 0x209B JUMP JUMPDEST DUP2 MSTORE PUSH1 0x20 DUP1 DUP3 ADD SWAP3 SWAP1 SWAP3 MSTORE PUSH1 0x40 SWAP1 DUP2 ADD PUSH0 KECCAK256 DUP2 MLOAD PUSH1 0x60 DUP2 ADD DUP4 MSTORE SWAP1 SLOAD PUSH8 0xFFFFFFFFFFFFFFFF DUP2 AND DUP3 MSTORE PUSH12 0xFFFFFFFFFFFFFFFFFFFFFFFF PUSH9 0x10000000000000000 DUP3 DIV DUP2 AND SWAP5 DUP4 ADD SWAP5 SWAP1 SWAP5 MSTORE PUSH21 0x10000000000000000000000000000000000000000 SWAP1 DIV SWAP1 SWAP3 AND SWAP1 DUP3 ADD MSTORE SWAP1 POP PUSH2 0xBB8 DUP2 PUSH2 0x1897 JUMP JUMPDEST SWAP3 SWAP2 POP POP JUMP JUMPDEST PUSH0 PUSH3 0xF4240 DUP4 PUSH4 0xFFFFFFFF AND GT ISZERO PUSH2 0xC32 JUMPI PUSH1 0x40 MLOAD PUSH32 0x8C379A000000000000000000000000000000000000000000000000000000000 DUP2 MSTORE PUSH1 0x20 PUSH1 0x4 DUP3 ADD MSTORE PUSH1 0x16 PUSH1 0x24 DUP3 ADD MSTORE PUSH32 0x496E76616C6964206F70657261746F7220736861726500000000000000000000 PUSH1 0x44 DUP3 ADD MSTORE PUSH1 0x64 ADD PUSH2 0x534 JUMP JUMPDEST PUSH1 0x3 DUP1 SLOAD SWAP1 PUSH0 PUSH2 0xC41 DUP4 PUSH2 0x2136 JUMP JUMPDEST SWAP1 SWAP2 SSTORE POP PUSH1 0x40 DUP1 MLOAD DUP1 DUP3 ADD DUP3 MSTORE CALLER DUP1 DUP3 MSTORE PUSH4 0xFFFFFFFF DUP1 DUP9 AND PUSH1 0x20 DUP1 DUP6 ADD SWAP2 DUP3 MSTORE PUSH0 DUP8 DUP2 MSTORE PUSH1 0x4 DUP3 MSTORE DUP7 DUP2 KECCAK256 SWAP6 MLOAD DUP7 SLOAD SWAP4 MLOAD SWAP1 SWAP5 AND PUSH21 0x10000000000000000000000000000000000000000 MUL PUSH32 0xFFFFFFFFFFFFFFFF000000000000000000000000000000000000000000000000 SWAP1 SWAP4 AND PUSH20 0xFFFFFFFFFFFFFFFFFFFFFFFFFFFFFFFFFFFFFFFF SWAP5 SWAP1 SWAP5 AND SWAP4 SWAP1 SWAP4 OR SWAP2 SWAP1 SWAP2 OR SWAP1 SWAP4 SSTORE SWAP1 DUP2 MSTORE PUSH1 0xA DUP3 MSTORE SWAP2 DUP3 KECCAK256 DUP1 SLOAD PUSH1 0x1 DUP2 ADD DUP3 SSTORE SWAP1 DUP4 MSTORE SWAP2 KECCAK256 ADD DUP2 SWAP1 SSTORE SWAP1 POP DUP2 ISZERO PUSH2 0xD0B JUMPI PUSH2 0xD0B CALLER DUP3 PUSH2 0xD06 CALLER PUSH2 0x18D3 JUMP JUMPDEST PUSH2 0x197B JUMP JUMPDEST PUSH1 0x40 MLOAD PUSH4 0xFFFFFFFF DUP5 AND DUP2 MSTORE CALLER SWAP1 DUP3 SWAP1 PUSH32 0xCEC6FC86EA644053F6EDFF1160DFE3FA5C61E7A5EF9F873F145BB03A0BD319E7 SWAP1 PUSH1 0x20 ADD PUSH1 0x40 MLOAD DUP1 SWAP2 SUB SWAP1 LOG3 SWAP3 SWAP2 POP POP JUMP JUMPDEST PUSH0 DUP3 DUP2 MSTORE PUSH1 0x4 PUSH1 0x20 MSTORE PUSH1 0x40 SWAP1 KECCAK256 SLOAD PUSH20 0xFFFFFFFFFFFFFFFFFFFFFFFFFFFFFFFFFFFFFFFF AND PUSH2 0xDD8 JUMPI PUSH1 0x40 MLOAD PUSH32 0x8C379A000000000000000000000000000000000000000000000000000000000 DUP2 MSTORE PUSH1 0x20 PUSH1 0x4 DUP3 ADD MSTORE PUSH1 0x13 PUSH1 0x24 DUP3 ADD MSTORE PUSH32 0x506F6F6C20646F6573206E6F7420657869737400000000000000000000000000 PUSH1 0x44 DUP3 ADD MSTORE PUSH1 0x64 ADD PUSH2 0x534 JUMP JUMPDEST PUSH0 DUP2 GT PUSH2 0xE41 JUMPI PUSH1 0x40 MLOAD PUSH32 0x8C379A000000000000000000000000000000000000000000000000000000000 DUP2 MSTORE PUSH1 0x20 PUSH1 0x4 DUP3 ADD MSTORE PUSH1 0x17 PUSH1 0x24 DUP3 ADD MSTORE PUSH32 0x416D6F756E74206D75737420626520706F736974697665000000000000000000 PUSH1 0x44 DUP3 ADD MSTORE PUSH1 0x64 ADD PUSH2 0x534 JUMP JUMPDEST CALLER PUSH0 SWAP1 DUP2 MSTORE PUSH1 0x5 PUSH1 0x20 SWAP1 DUP2 MSTORE PUSH1 0x40 DUP1 DUP4 KECCAK256 DUP4 DUP1 MSTORE SWAP1 SWAP2 MSTORE SWAP1 KECCAK256 PUSH2 0xE63 DUP2 PUSH2 0x14AE JUMP JUMPDEST DUP1 SLOAD PUSH9 0x10000000000000000 SWAP1 DIV PUSH12 0xFFFFFFFFFFFFFFFFFFFFFFFF AND DUP3 GT ISZERO PUSH2 0xEE8 JUMPI PUSH1 0x40 MLOAD PUSH32 0x8C379A000000000000000000000000000000000000000000000000000000000 DUP2 MSTORE PUSH1 0x20 PUSH1 0x4 DUP3 ADD DUP2 SWAP1 MSTORE PUSH1 0x24 DUP3 ADD MSTORE PUSH32 0x496E73756666696369656E7420756E64656C6567617465642062616C616E6365 PUSH1 0x44 DUP3 ADD MSTORE PUSH1 0x64 ADD PUSH2 0x534 JUMP JUMPDEST PUSH2 0xEF3 CALLER DUP5 DUP5 PUSH2 0x197B JUMP JUMPDEST POP POP POP JUMP JUMPDEST PUSH20 0xFFFFFFFFFFFFFFFFFFFFFFFFFFFFFFFFFFFFFFFF DUP2 AND PUSH0 SWAP1 DUP2 MSTORE PUSH1 0xA PUSH1 0x20 SWAP1 DUP2 MSTORE PUSH1 0x40 SWAP2 DUP3 SWAP1 KECCAK256 DUP1 SLOAD DUP4 MLOAD DUP2 DUP5 MUL DUP2 ADD DUP5 ADD SWAP1 SWAP5 MSTORE DUP1 DUP5 MSTORE PUSH1 0x60 SWAP4 SWAP3 DUP4 ADD DUP3 DUP3 DUP1 ISZERO PUSH2 0x938 JUMPI PUSH1 0x20 MUL DUP3 ADD SWAP2 SWAP1 PUSH0 MSTORE PUSH1 0x20 PUSH0 KECCAK256 SWAP1 JUMPDEST DUP2 SLOAD DUP2 MSTORE PUSH1 0x20 ADD SWAP1 PUSH1 0x1 ADD SWAP1 DUP1 DUP4 GT PUSH2 0xF4E JUMPI POP POP POP POP POP SWAP1 POP SWAP2 SWAP1 POP JUMP JUMPDEST PUSH0 DUP2 GT PUSH2 0xFD6 JUMPI PUSH1 0x40 MLOAD PUSH32 0x8C379A000000000000000000000000000000000000000000000000000000000 DUP2 MSTORE PUSH1 0x20 PUSH1 0x4 DUP3 ADD MSTORE PUSH1 0x17 PUSH1 0x24 DUP3 ADD MSTORE PUSH32 0x416D6F756E74206D75737420626520706F736974697665000000000000000000 PUSH1 0x44 DUP3 ADD MSTORE PUSH1 0x64 ADD PUSH2 0x534 JUMP JUMPDEST PUSH1 0x40 MLOAD PUSH32 0x23B872DD00000000000000000000000000000000000000000000000000000000 DUP2 MSTORE CALLER PUSH1 0x4 DUP3 ADD MSTORE ADDRESS PUSH1 0x24 DUP3 ADD MSTORE PUSH1 0x44 DUP2 ADD DUP3 SWAP1 MSTORE PUSH32 0x0 PUSH20 0xFFFFFFFFFFFFFFFFFFFFFFFFFFFFFFFFFFFFFFFF AND SWAP1 PUSH4 0x23B872DD SWAP1 PUSH1 0x64 ADD PUSH1 0x20 PUSH1 0x40 MLOAD DUP1 DUP4 SUB DUP2 PUSH0 DUP8 GAS CALL ISZERO DUP1 ISZERO PUSH2 0x106C JUMPI RETURNDATASIZE PUSH0 PUSH0 RETURNDATACOPY RETURNDATASIZE PUSH0 REVERT JUMPDEST POP POP POP POP PUSH1 0x40 MLOAD RETURNDATASIZE PUSH1 0x1F NOT PUSH1 0x1F DUP3 ADD AND DUP3 ADD DUP1 PUSH1 0x40 MSTORE POP DUP2 ADD SWAP1 PUSH2 0x1090 SWAP2 SWAP1 PUSH2 0x2108 JUMP JUMPDEST PUSH2 0x10F6 JUMPI PUSH1 0x40 MLOAD PUSH32 0x8C379A000000000000000000000000000000000000000000000000000000000 DUP2 MSTORE PUSH1 0x20 PUSH1 0x4 DUP3 ADD MSTORE PUSH1 0xF PUSH1 0x24 DUP3 ADD MSTORE PUSH32 0x5472616E73666572206661696C65640000000000000000000000000000000000 PUSH1 0x44 DUP3 ADD MSTORE PUSH1 0x64 ADD PUSH2 0x534 JUMP JUMPDEST CALLER PUSH0 SWAP1 DUP2 MSTORE PUSH1 0x9 PUSH1 0x20 MSTORE PUSH1 0x40 DUP2 KECCAK256 DUP1 SLOAD DUP4 SWAP3 SWAP1 PUSH2 0x1114 SWAP1 DUP5 SWAP1 PUSH2 0x2123 JUMP JUMPDEST SWAP1 SWAP2 SSTORE POP PUSH2 0x1125 SWAP1 POP CALLER PUSH0 DUP4 PUSH2 0x1B75 JUMP JUMPDEST PUSH2 0x112F PUSH0 DUP3 PUSH2 0x1C5B JUMP JUMPDEST PUSH1 0x40 MLOAD DUP2 DUP2 MSTORE CALLER SWAP1 PUSH32 0xEBEDB8B3C678666E7F36970BC8F57ABF6D8FA2E828C0DA91EA5B75BF68ED101A SWAP1 PUSH1 0x20 ADD PUSH1 0x40 MLOAD DUP1 SWAP2 SUB SWAP1 LOG2 POP JUMP JUMPDEST PUSH1 0xA PUSH1 0x20 MSTORE DUP2 PUSH0 MSTORE PUSH1 0x40 PUSH0 KECCAK256 DUP2 DUP2 SLOAD DUP2 LT PUSH2 0x1180 JUMPI PUSH0 DUP1 REVERT JUMPDEST SWAP1 PUSH0 MSTORE PUSH1 0x20 PUSH0 KECCAK256 ADD PUSH0 SWAP2 POP SWAP2 POP POP SLOAD DUP2 JUMP JUMPDEST PUSH1 0x40 DUP1 MLOAD PUSH1 0x60 DUP2 ADD DUP3 MSTORE PUSH0 DUP1 DUP3 MSTORE PUSH1 0x20 DUP3 ADD DUP2 SWAP1 MSTORE SWAP2 DUP2 ADD SWAP2 SWAP1 SWAP2 MSTORE PUSH1 0x6 PUSH0 DUP4 PUSH1 0x1 DUP2 GT ISZERO PUSH2 0x11C3 JUMPI PUSH2 0x11C3 PUSH2 0x209B JUMP JUMPDEST PUSH1 0x1 DUP2 GT ISZERO PUSH2 0x11D4 JUMPI PUSH2 0x11D4 PUSH2 0x209B JUMP JUMPDEST DUP2 MSTORE PUSH1 0x20 DUP1 DUP3 ADD SWAP3 SWAP1 SWAP3 MSTORE PUSH1 0x40 SWAP1 DUP2 ADD PUSH0 KECCAK256 DUP2 MLOAD PUSH1 0x60 DUP2 ADD DUP4 MSTORE SWAP1 SLOAD PUSH8 0xFFFFFFFFFFFFFFFF DUP2 AND DUP3 MSTORE PUSH12 0xFFFFFFFFFFFFFFFFFFFFFFFF PUSH9 0x10000000000000000 DUP3 DIV DUP2 AND SWAP5 DUP4 ADD SWAP5 SWAP1 SWAP5 MSTORE PUSH21 0x10000000000000000000000000000000000000000 SWAP1 DIV SWAP1 SWAP3 AND SWAP1 DUP3 ADD MSTORE SWAP1 POP PUSH2 0xADD DUP2 PUSH2 0x1897 JUMP JUMPDEST PUSH1 0x40 DUP1 MLOAD PUSH1 0x60 DUP1 DUP3 ADD DUP4 MSTORE PUSH0 DUP1 DUP4 MSTORE PUSH1 0x20 DUP1 DUP5 ADD DUP3 SWAP1 MSTORE SWAP3 DUP5 ADD DUP2 SWAP1 MSTORE PUSH20 0xFFFFFFFFFFFFFFFFFFFFFFFFFFFFFFFFFFFFFFFF DUP7 AND DUP2 MSTORE PUSH1 0x8 DUP4 MSTORE DUP4 DUP2 KECCAK256 DUP6 DUP3 MSTORE DUP4 MSTORE DUP4 SWAP1 KECCAK256 DUP4 MLOAD SWAP2 DUP3 ADD DUP5 MSTORE SLOAD PUSH8 0xFFFFFFFFFFFFFFFF DUP2 AND DUP3 MSTORE PUSH12 0xFFFFFFFFFFFFFFFFFFFFFFFF PUSH9 0x10000000000000000 DUP3 DIV DUP2 AND SWAP4 DUP4 ADD SWAP4 SWAP1 SWAP4 MSTORE PUSH21 0x10000000000000000000000000000000000000000 SWAP1 DIV SWAP1 SWAP2 AND SWAP2 DUP2 ADD SWAP2 SWAP1 SWAP2 MSTORE PUSH2 0xBB8 DUP2 PUSH2 0x1897 JUMP JUMPDEST PUSH0 DUP2 GT PUSH2 0x1359 JUMPI PUSH1 0x40 MLOAD PUSH32 0x8C379A000000000000000000000000000000000000000000000000000000000 DUP2 MSTORE PUSH1 0x20 PUSH1 0x4 DUP3 ADD MSTORE PUSH1 0x17 PUSH1 0x24 DUP3 ADD MSTORE PUSH32 0x416D6F756E74206D75737420626520706F736974697665000000000000000000 PUSH1 0x44 DUP3 ADD MSTORE PUSH1 0x64 ADD PUSH2 0x534 JUMP JUMPDEST PUSH20 0xFFFFFFFFFFFFFFFFFFFFFFFFFFFFFFFFFFFFFFFF DUP4 AND PUSH0 SWAP1 DUP2 MSTORE PUSH1 0x8 PUSH1 0x20 SWAP1 DUP2 MSTORE PUSH1 0x40 DUP1 DUP4 KECCAK256 DUP6 DUP5 MSTORE SWAP1 SWAP2 MSTORE SWAP1 KECCAK256 PUSH2 0x1391 DUP2 PUSH2 0x14AE JUMP JUMPDEST DUP1 SLOAD PUSH9 0x10000000000000000 SWAP1 DIV PUSH12 0xFFFFFFFFFFFFFFFFFFFFFFFF AND DUP3 GT ISZERO PUSH2 0x1416 JUMPI PUSH1 0x40 MLOAD PUSH32 0x8C379A000000000000000000000000000000000000000000000000000000000 DUP2 MSTORE PUSH1 0x20 PUSH1 0x4 DUP3 ADD MSTORE PUSH1 0x1E PUSH1 0x24 DUP3 ADD MSTORE PUSH32 0x496E73756666696369656E742064656C6567617465642062616C616E63650000 PUSH1 0x44 DUP3 ADD MSTORE PUSH1 0x64 ADD PUSH2 0x534 JUMP JUMPDEST PUSH2 0x1422 DUP5 PUSH1 0x1 DUP5 PUSH2 0x157B JUMP JUMPDEST PUSH2 0x142D DUP5 PUSH0 DUP5 PUSH2 0x1B75 JUMP JUMPDEST PUSH2 0x1438 PUSH1 0x1 DUP4 PUSH2 0x171A JUMP JUMPDEST PUSH2 0x1442 PUSH0 DUP4 PUSH2 0x1C5B JUMP JUMPDEST PUSH2 0x144C DUP4 DUP4 PUSH2 0x1D20 JUMP JUMPDEST PUSH2 0x1457 DUP5 DUP5 DUP5 PUSH2 0x1DBB JUMP JUMPDEST DUP3 DUP5 PUSH20 0xFFFFFFFFFFFFFFFFFFFFFFFFFFFFFFFFFFFFFFFF AND PUSH32 0x1756EF54AAEC94375937D8582B257B297451D6B6F20E83943BF1D29B0C1F6A4D DUP5 PUSH1 0x40 MLOAD PUSH2 0x14A0 SWAP2 DUP2 MSTORE PUSH1 0x20 ADD SWAP1 JUMP JUMPDEST PUSH1 0x40 MLOAD DUP1 SWAP2 SUB SWAP1 LOG3 POP POP POP POP JUMP JUMPDEST PUSH0 SLOAD DUP2 SLOAD PUSH8 0xFFFFFFFFFFFFFFFF AND LT ISZERO PUSH2 0x1578 JUMPI DUP1 SLOAD PUSH9 0x10000000000000000 PUSH12 0xFFFFFFFFFFFFFFFFFFFFFFFF PUSH21 0x10000000000000000000000000000000000000000 DUP4 DIV AND MUL PUSH32 0xFFFFFFFFFFFFFFFFFFFFFFFF000000000000000000000000FFFFFFFFFFFFFFFF DUP3 AND DUP2 OR DUP4 SSTORE PUSH0 SLOAD PUSH8 0xFFFFFFFFFFFFFFFF AND PUSH32 0xFFFFFFFFFFFFFFFFFFFFFFFFFFFFFFFFFFFFFFFFFFFFFFFF0000000000000000 SWAP1 SWAP2 AND PUSH32 0xFFFFFFFFFFFFFFFFFFFFFFFF0000000000000000000000000000000000000000 SWAP1 SWAP3 AND SWAP2 SWAP1 SWAP2 OR OR DUP2 SSTORE JUMPDEST POP JUMP JUMPDEST PUSH20 0xFFFFFFFFFFFFFFFFFFFFFFFFFFFFFFFFFFFFFFFF DUP4 AND PUSH0 SWAP1 DUP2 MSTORE PUSH1 0x5 PUSH1 0x20 MSTORE PUSH1 0x40 DUP2 KECCAK256 DUP2 DUP5 PUSH1 0x1 DUP2 GT ISZERO PUSH2 0x15B2 JUMPI PUSH2 0x15B2 PUSH2 0x209B JUMP JUMPDEST PUSH1 0x1 DUP2 GT ISZERO PUSH2 0x15C3 JUMPI PUSH2 0x15C3 PUSH2 0x209B JUMP JUMPDEST DUP2 MSTORE PUSH1 0x20 ADD SWAP1 DUP2 MSTORE PUSH1 0x20 ADD PUSH0 KECCAK256 SWAP1 POP PUSH2 0x15DB DUP2 PUSH2 0x14AE JUMP JUMPDEST DUP1 SLOAD PUSH9 0x10000000000000000 SWAP1 DIV PUSH12 0xFFFFFFFFFFFFFFFFFFFFFFFF AND DUP3 GT ISZERO PUSH2 0x1660 JUMPI PUSH1 0x40 MLOAD PUSH32 0x8C379A000000000000000000000000000000000000000000000000000000000 DUP2 MSTORE PUSH1 0x20 PUSH1 0x4 DUP3 ADD MSTORE PUSH1 0x14 PUSH1 0x24 DUP3 ADD MSTORE PUSH32 0x496E73756666696369656E742062616C616E6365000000000000000000000000 PUSH1 0x44 DUP3 ADD MSTORE PUSH1 0x64 ADD PUSH2 0x534 JUMP JUMPDEST DUP1 SLOAD DUP3 SWAP1 DUP3 SWAP1 PUSH1 0x8 SWAP1 PUSH2 0x168E SWAP1 DUP5 SWAP1 PUSH9 0x10000000000000000 SWAP1 DIV PUSH12 0xFFFFFFFFFFFFFFFFFFFFFFFF AND PUSH2 0x216D JUMP JUMPDEST SWAP3 POP PUSH2 0x100 EXP DUP2 SLOAD DUP2 PUSH12 0xFFFFFFFFFFFFFFFFFFFFFFFF MUL NOT AND SWAP1 DUP4 PUSH12 0xFFFFFFFFFFFFFFFFFFFFFFFF AND MUL OR SWAP1 SSTORE POP DUP2 DUP2 PUSH0 ADD PUSH1 0x14 DUP3 DUP3 DUP3 SWAP1 SLOAD SWAP1 PUSH2 0x100 EXP SWAP1 DIV PUSH12 0xFFFFFFFFFFFFFFFFFFFFFFFF AND PUSH2 0x16E6 SWAP2 SWAP1 PUSH2 0x216D JUMP JUMPDEST SWAP3 POP PUSH2 0x100 EXP DUP2 SLOAD DUP2 PUSH12 0xFFFFFFFFFFFFFFFFFFFFFFFF MUL NOT AND SWAP1 DUP4 PUSH12 0xFFFFFFFFFFFFFFFFFFFFFFFF AND MUL OR SWAP1 SSTORE POP POP POP POP POP JUMP JUMPDEST PUSH0 PUSH1 0x6 PUSH0 DUP5 PUSH1 0x1 DUP2 GT ISZERO PUSH2 0x1730 JUMPI PUSH2 0x1730 PUSH2 0x209B JUMP JUMPDEST PUSH1 0x1 DUP2 GT ISZERO PUSH2 0x1741 JUMPI PUSH2 0x1741 PUSH2 0x209B JUMP JUMPDEST DUP2 MSTORE PUSH1 0x20 ADD SWAP1 DUP2 MSTORE PUSH1 0x20 ADD PUSH0 KECCAK256 SWAP1 POP PUSH2 0x1759 DUP2 PUSH2 0x14AE JUMP JUMPDEST DUP1 SLOAD PUSH9 0x10000000000000000 SWAP1 DIV PUSH12 0xFFFFFFFFFFFFFFFFFFFFFFFF AND DUP3 GT ISZERO PUSH2 0x17DE JUMPI PUSH1 0x40 MLOAD PUSH32 0x8C379A000000000000000000000000000000000000000000000000000000000 DUP2 MSTORE PUSH1 0x20 PUSH1 0x4 DUP3 ADD MSTORE PUSH1 0x1B PUSH1 0x24 DUP3 ADD MSTORE PUSH32 0x496E73756666696369656E7420676C6F62616C2062616C616E63650000000000 PUSH1 0x44 DUP3 ADD MSTORE PUSH1 0x64 ADD PUSH2 0x534 JUMP JUMPDEST DUP1 SLOAD DUP3 SWAP1 DUP3 SWAP1 PUSH1 0x8 SWAP1 PUSH2 0x180C SWAP1 DUP5 SWAP1 PUSH9 0x10000000000000000 SWAP1 DIV PUSH12 0xFFFFFFFFFFFFFFFFFFFFFFFF AND PUSH2 0x216D JUMP JUMPDEST SWAP3 POP PUSH2 0x100 EXP DUP2 SLOAD DUP2 PUSH12 0xFFFFFFFFFFFFFFFFFFFFFFFF MUL NOT AND SWAP1 DUP4 PUSH12 0xFFFFFFFFFFFFFFFFFFFFFFFF AND MUL OR SWAP1 SSTORE POP DUP2 DUP2 PUSH0 ADD PUSH1 0x14 DUP3 DUP3 DUP3 SWAP1 SLOAD SWAP1 PUSH2 0x100 EXP SWAP1 DIV PUSH12 0xFFFFFFFFFFFFFFFFFFFFFFFF AND PUSH2 0x1864 SWAP2 SWAP1 PUSH2 0x216D JUMP JUMPDEST SWAP3 POP PUSH2 0x100 EXP DUP2 SLOAD DUP2 PUSH12 0xFFFFFFFFFFFFFFFFFFFFFFFF MUL NOT AND SWAP1 DUP4 PUSH12 0xFFFFFFFFFFFFFFFFFFFFFFFF AND MUL OR SWAP1 SSTORE POP POP POP POP JUMP JUMPDEST PUSH0 SLOAD DUP2 MLOAD PUSH8 0xFFFFFFFFFFFFFFFF AND LT ISZERO PUSH2 0x1578 JUMPI PUSH1 0x40 DUP2 ADD MLOAD PUSH12 0xFFFFFFFFFFFFFFFFFFFFFFFF AND PUSH1 0x20 DUP3 ADD MSTORE PUSH0 SLOAD PUSH8 0xFFFFFFFFFFFFFFFF AND SWAP1 MSTORE JUMP JUMPDEST PUSH20 0xFFFFFFFFFFFFFFFFFFFFFFFFFFFFFFFFFFFFFFFF DUP2 AND PUSH0 SWAP1 DUP2 MSTORE PUSH1 0x5 PUSH1 0x20 SWAP1 DUP2 MSTORE PUSH1 0x40 DUP1 DUP4 KECCAK256 DUP4 DUP1 MSTORE DUP3 MSTORE DUP1 DUP4 KECCAK256 DUP2 MLOAD PUSH1 0x60 DUP2 ADD DUP4 MSTORE SWAP1 SLOAD PUSH8 0xFFFFFFFFFFFFFFFF DUP2 AND DUP3 MSTORE PUSH12 0xFFFFFFFFFFFFFFFFFFFFFFFF PUSH9 0x10000000000000000 DUP3 DIV DUP2 AND SWAP5 DUP4 ADD SWAP5 SWAP1 SWAP5 MSTORE PUSH21 0x10000000000000000000000000000000000000000 SWAP1 DIV SWAP1 SWAP3 AND SWAP1 DUP3 ADD MSTORE PUSH2 0x1963 DUP2 PUSH2 0x1897 JUMP JUMPDEST PUSH1 0x20 ADD MLOAD PUSH12 0xFFFFFFFFFFFFFFFFFFFFFFFF AND SWAP3 SWAP2 POP POP JUMP JUMPDEST PUSH0 DUP2 GT PUSH2 0x19E4 JUMPI PUSH1 0x40 MLOAD PUSH32 0x8C379A000000000000000000000000000000000000000000000000000000000 DUP2 MSTORE PUSH1 0x20 PUSH1 0x4 DUP3 ADD MSTORE PUSH1 0x17 PUSH1 0x24 DUP3 ADD MSTORE PUSH32 0x416D6F756E74206D75737420626520706F736974697665000000000000000000 PUSH1 0x44 DUP3 ADD MSTORE PUSH1 0x64 ADD PUSH2 0x534 JUMP JUMPDEST PUSH20 0xFFFFFFFFFFFFFFFFFFFFFFFFFFFFFFFFFFFFFFFF DUP4 AND PUSH0 SWAP1 DUP2 MSTORE PUSH1 0x5 PUSH1 0x20 SWAP1 DUP2 MSTORE PUSH1 0x40 DUP1 DUP4 KECCAK256 DUP4 DUP1 MSTORE SWAP1 SWAP2 MSTORE SWAP1 KECCAK256 PUSH2 0x1A1C DUP2 PUSH2 0x14AE JUMP JUMPDEST DUP1 SLOAD PUSH9 0x10000000000000000 SWAP1 DIV PUSH12 0xFFFFFFFFFFFFFFFFFFFFFFFF AND DUP3 GT ISZERO PUSH2 0x1AA1 JUMPI PUSH1 0x40 MLOAD PUSH32 0x8C379A000000000000000000000000000000000000000000000000000000000 DUP2 MSTORE PUSH1 0x20 PUSH1 0x4 DUP3 ADD DUP2 SWAP1 MSTORE PUSH1 0x24 DUP3 ADD MSTORE PUSH32 0x496E73756666696369656E7420756E64656C6567617465642062616C616E6365 PUSH1 0x44 DUP3 ADD MSTORE PUSH1 0x64 ADD PUSH2 0x534 JUMP JUMPDEST PUSH2 0x1AAC DUP5 PUSH0 DUP5 PUSH2 0x157B JUMP JUMPDEST PUSH2 0x1AB8 DUP5 PUSH1 0x1 DUP5 PUSH2 0x1B75 JUMP JUMPDEST PUSH2 0x1AC2 PUSH0 DUP4 PUSH2 0x171A JUMP JUMPDEST PUSH2 0x1ACD PUSH1 0x1 DUP4 PUSH2 0x1C5B JUMP JUMPDEST PUSH2 0x1AD7 DUP4 DUP4 PUSH2 0x1E78 JUMP JUMPDEST PUSH2 0x1AE2 DUP5 DUP5 DUP5 PUSH2 0x1E8E JUMP JUMPDEST PUSH0 DUP4 DUP2 MSTORE PUSH1 0xB PUSH1 0x20 SWAP1 DUP2 MSTORE PUSH1 0x40 DUP1 DUP4 KECCAK256 DUP1 SLOAD PUSH1 0x1 DUP2 ADD DUP3 SSTORE SWAP1 DUP5 MSTORE SWAP3 DUP3 SWAP1 KECCAK256 SWAP1 SWAP3 ADD DUP1 SLOAD PUSH32 0xFFFFFFFFFFFFFFFFFFFFFFFF0000000000000000000000000000000000000000 AND PUSH20 0xFFFFFFFFFFFFFFFFFFFFFFFFFFFFFFFFFFFFFFFF DUP9 AND SWAP1 DUP2 OR SWAP1 SWAP2 SSTORE SWAP2 MLOAD DUP5 DUP2 MSTORE DUP6 SWAP3 SWAP2 PUSH32 0x96501A8ED04E74B6A43585E8580F3BE4A854C952228DA6287DE433EB97A6D414 SWAP2 ADD PUSH2 0x14A0 JUMP JUMPDEST PUSH20 0xFFFFFFFFFFFFFFFFFFFFFFFFFFFFFFFFFFFFFFFF DUP4 AND PUSH0 SWAP1 DUP2 MSTORE PUSH1 0x5 PUSH1 0x20 MSTORE PUSH1 0x40 DUP2 KECCAK256 DUP2 DUP5 PUSH1 0x1 DUP2 GT ISZERO PUSH2 0x1BAC JUMPI PUSH2 0x1BAC PUSH2 0x209B JUMP JUMPDEST PUSH1 0x1 DUP2 GT ISZERO PUSH2 0x1BBD JUMPI PUSH2 0x1BBD PUSH2 0x209B JUMP JUMPDEST DUP2 MSTORE PUSH1 0x20 ADD SWAP1 DUP2 MSTORE PUSH1 0x20 ADD PUSH0 KECCAK256 SWAP1 POP PUSH2 0x1BD5 DUP2 PUSH2 0x14AE JUMP JUMPDEST DUP1 SLOAD DUP3 SWAP1 DUP3 SWAP1 PUSH1 0x8 SWAP1 PUSH2 0x1C03 SWAP1 DUP5 SWAP1 PUSH9 0x10000000000000000 SWAP1 DIV PUSH12 0xFFFFFFFFFFFFFFFFFFFFFFFF AND PUSH2 0x2191 JUMP JUMPDEST SWAP3 POP PUSH2 0x100 EXP DUP2 SLOAD DUP2 PUSH12 0xFFFFFFFFFFFFFFFFFFFFFFFF MUL NOT AND SWAP1 DUP4 PUSH12 0xFFFFFFFFFFFFFFFFFFFFFFFF AND MUL OR SWAP1 SSTORE POP DUP2 DUP2 PUSH0 ADD PUSH1 0x14 DUP3 DUP3 DUP3 SWAP1 SLOAD SWAP1 PUSH2 0x100 EXP SWAP1 DIV PUSH12 0xFFFFFFFFFFFFFFFFFFFFFFFF AND PUSH2 0x16E6 SWAP2 SWAP1 PUSH2 0x2191 JUMP JUMPDEST PUSH0 PUSH1 0x6 PUSH0 DUP5 PUSH1 0x1 DUP2 GT ISZERO PUSH2 0x1C71 JUMPI PUSH2 0x1C71 PUSH2 0x209B JUMP JUMPDEST PUSH1 0x1 DUP2 GT ISZERO PUSH2 0x1C82 JUMPI PUSH2 0x1C82 PUSH2 0x209B JUMP JUMPDEST DUP2 MSTORE PUSH1 0x20 ADD SWAP1 DUP2 MSTORE PUSH1 0x20 ADD PUSH0 KECCAK256 SWAP1 POP PUSH2 0x1C9A DUP2 PUSH2 0x14AE JUMP JUMPDEST DUP1 SLOAD DUP3 SWAP1 DUP3 SWAP1 PUSH1 0x8 SWAP1 PUSH2 0x1CC8 SWAP1 DUP5 SWAP1 PUSH9 0x10000000000000000 SWAP1 DIV PUSH12 0xFFFFFFFFFFFFFFFFFFFFFFFF AND PUSH2 0x2191 JUMP JUMPDEST SWAP3 POP PUSH2 0x100 EXP DUP2 SLOAD DUP2 PUSH12 0xFFFFFFFFFFFFFFFFFFFFFFFF MUL NOT AND SWAP1 DUP4 PUSH12 0xFFFFFFFFFFFFFFFFFFFFFFFF AND MUL OR SWAP1 SSTORE POP DUP2 DUP2 PUSH0 ADD PUSH1 0x14 DUP3 DUP3 DUP3 SWAP1 SLOAD SWAP1 PUSH2 0x100 EXP SWAP1 DIV PUSH12 0xFFFFFFFFFFFFFFFFFFFFFFFF AND PUSH2 0x1864 SWAP2 SWAP1 PUSH2 0x2191 JUMP JUMPDEST PUSH0 DUP3 DUP2 MSTORE PUSH1 0x7 PUSH1 0x20 MSTORE PUSH1 0x40 SWAP1 KECCAK256 PUSH2 0x1D36 DUP2 PUSH2 0x14AE JUMP JUMPDEST DUP1 SLOAD PUSH9 0x10000000000000000 SWAP1 DIV PUSH12 0xFFFFFFFFFFFFFFFFFFFFFFFF AND DUP3 GT ISZERO PUSH2 0x17DE JUMPI PUSH1 0x40 MLOAD PUSH32 0x8C379A000000000000000000000000000000000000000000000000000000000 DUP2 MSTORE PUSH1 0x20 PUSH1 0x4 DUP3 ADD MSTORE PUSH1 0x19 PUSH1 0x24 DUP3 ADD MSTORE PUSH32 0x496E73756666696369656E7420706F6F6C2062616C616E636500000000000000 PUSH1 0x44 DUP3 ADD MSTORE PUSH1 0x64 ADD PUSH2 0x534 JUMP JUMPDEST PUSH20 0xFFFFFFFFFFFFFFFFFFFFFFFFFFFFFFFFFFFFFFFF DUP4 AND PUSH0 SWAP1 DUP2 MSTORE PUSH1 0x8 PUSH1 0x20 SWAP1 DUP2 MSTORE PUSH1 0x40 DUP1 DUP4 KECCAK256 DUP6 DUP5 MSTORE SWAP1 SWAP2 MSTORE SWAP1 KECCAK256 PUSH2 0x1DF3 DUP2 PUSH2 0x14AE JUMP JUMPDEST DUP1 SLOAD PUSH9 0x10000000000000000 SWAP1 DIV PUSH12 0xFFFFFFFFFFFFFFFFFFFFFFFF AND DUP3 GT ISZERO PUSH2 0x1660 JUMPI PUSH1 0x40 MLOAD PUSH32 0x8C379A000000000000000000000000000000000000000000000000000000000 DUP2 MSTORE PUSH1 0x20 PUSH1 0x4 DUP3 ADD DUP2 SWAP1 MSTORE PUSH1 0x24 DUP3 ADD MSTORE PUSH32 0x496E73756666696369656E74207374616B657220706F6F6C2062616C616E6365 PUSH1 0x44 DUP3 ADD MSTORE PUSH1 0x64 ADD PUSH2 0x534 JUMP JUMPDEST PUSH0 DUP3 DUP2 MSTORE PUSH1 0x7 PUSH1 0x20 MSTORE PUSH1 0x40 SWAP1 KECCAK256 PUSH2 0x1C9A DUP2 PUSH2 0x14AE JUMP JUMPDEST PUSH20 0xFFFFFFFFFFFFFFFFFFFFFFFFFFFFFFFFFFFFFFFF DUP4 AND PUSH0 SWAP1 DUP2 MSTORE PUSH1 0x8 PUSH1 0x20 SWAP1 DUP2 MSTORE PUSH1 0x40 DUP1 DUP4 KECCAK256 DUP6 DUP5 MSTORE SWAP1 SWAP2 MSTORE SWAP1 KECCAK256 PUSH2 0x1BD5 DUP2 PUSH2 0x14AE JUMP JUMPDEST PUSH0 PUSH0 PUSH1 0x40 DUP4 DUP6 SUB SLT ISZERO PUSH2 0x1ED7 JUMPI PUSH0 PUSH0 REVERT JUMPDEST POP POP DUP1 CALLDATALOAD SWAP3 PUSH1 0x20 SWAP1 SWAP2 ADD CALLDATALOAD SWAP2 POP JUMP JUMPDEST PUSH0 PUSH1 0x20 DUP3 DUP5 SUB SLT ISZERO PUSH2 0x1EF6 JUMPI PUSH0 PUSH0 REVERT JUMPDEST POP CALLDATALOAD SWAP2 SWAP1 POP JUMP JUMPDEST PUSH1 0x20 DUP1 DUP3 MSTORE DUP3 MLOAD DUP3 DUP3 ADD DUP2 SWAP1 MSTORE PUSH0 SWAP2 DUP5 ADD SWAP1 PUSH1 0x40 DUP5 ADD SWAP1 DUP4 JUMPDEST DUP2 DUP2 LT ISZERO PUSH2 0x1F4A JUMPI DUP4 MLOAD PUSH20 0xFFFFFFFFFFFFFFFFFFFFFFFFFFFFFFFFFFFFFFFF AND DUP4 MSTORE PUSH1 0x20 SWAP4 DUP5 ADD SWAP4 SWAP1 SWAP3 ADD SWAP2 PUSH1 0x1 ADD PUSH2 0x1F16 JUMP JUMPDEST POP SWAP1 SWAP6 SWAP5 POP POP POP POP POP JUMP JUMPDEST DUP1 CALLDATALOAD PUSH20 0xFFFFFFFFFFFFFFFFFFFFFFFFFFFFFFFFFFFFFFFF DUP2 AND DUP2 EQ PUSH2 0xADD JUMPI PUSH0 PUSH0 REVERT JUMPDEST DUP1 CALLDATALOAD PUSH1 0x2 DUP2 LT PUSH2 0xADD JUMPI PUSH0 PUSH0 REVERT JUMPDEST PUSH0 PUSH0 PUSH1 0x40 DUP4 DUP6 SUB SLT ISZERO PUSH2 0x1F97 JUMPI PUSH0 PUSH0 REVERT JUMPDEST PUSH2 0x1FA0 DUP4 PUSH2 0x1F55 JUMP JUMPDEST SWAP2 POP PUSH2 0x1FAE PUSH1 0x20 DUP5 ADD PUSH2 0x1F78 JUMP JUMPDEST SWAP1 POP SWAP3 POP SWAP3 SWAP1 POP JUMP JUMPDEST PUSH0 PUSH1 0x20 DUP3 DUP5 SUB SLT ISZERO PUSH2 0x1FC7 JUMPI PUSH0 PUSH0 REVERT JUMPDEST PUSH2 0x1FD0 DUP3 PUSH2 0x1F55 JUMP JUMPDEST SWAP4 SWAP3 POP POP POP JUMP JUMPDEST DUP1 ISZERO ISZERO DUP2 EQ PUSH2 0x1578 JUMPI PUSH0 PUSH0 REVERT JUMPDEST PUSH0 PUSH0 PUSH1 0x40 DUP4 DUP6 SUB SLT ISZERO PUSH2 0x1FF5 JUMPI PUSH0 PUSH0 REVERT JUMPDEST DUP3 CALLDATALOAD PUSH4 0xFFFFFFFF DUP2 AND DUP2 EQ PUSH2 0x2008 JUMPI PUSH0 PUSH0 REVERT JUMPDEST SWAP2 POP PUSH1 0x20 DUP4 ADD CALLDATALOAD PUSH2 0x2018 DUP2 PUSH2 0x1FD7 JUMP JUMPDEST DUP1 SWAP2 POP POP SWAP3 POP SWAP3 SWAP1 POP JUMP JUMPDEST PUSH1 0x20 DUP1 DUP3 MSTORE DUP3 MLOAD DUP3 DUP3 ADD DUP2 SWAP1 MSTORE PUSH0 SWAP2 DUP5 ADD SWAP1 PUSH1 0x40 DUP5 ADD SWAP1 DUP4 JUMPDEST DUP2 DUP2 LT ISZERO PUSH2 0x1F4A JUMPI DUP4 MLOAD DUP4 MSTORE PUSH1 0x20 SWAP4 DUP5 ADD SWAP4 SWAP1 SWAP3 ADD SWAP2 PUSH1 0x1 ADD PUSH2 0x203C JUMP JUMPDEST PUSH0 PUSH0 PUSH1 0x40 DUP4 DUP6 SUB SLT ISZERO PUSH2 0x206B JUMPI PUSH0 PUSH0 REVERT JUMPDEST PUSH2 0x2074 DUP4 PUSH2 0x1F55 JUMP JUMPDEST SWAP5 PUSH1 0x20 SWAP4 SWAP1 SWAP4 ADD CALLDATALOAD SWAP4 POP POP POP JUMP JUMPDEST PUSH0 PUSH1 0x20 DUP3 DUP5 SUB SLT ISZERO PUSH2 0x2092 JUMPI PUSH0 PUSH0 REVERT JUMPDEST PUSH2 0x1FD0 DUP3 PUSH2 0x1F78 JUMP JUMPDEST PUSH32 0x4E487B7100000000000000000000000000000000000000000000000000000000 PUSH0 MSTORE PUSH1 0x21 PUSH1 0x4 MSTORE PUSH1 0x24 PUSH0 REVERT JUMPDEST PUSH32 0x4E487B7100000000000000000000000000000000000000000000000000000000 PUSH0 MSTORE PUSH1 0x11 PUSH1 0x4 MSTORE PUSH1 0x24 PUSH0 REVERT JUMPDEST DUP2 DUP2 SUB DUP2 DUP2 GT ISZERO PUSH2 0xBB8 JUMPI PUSH2 0xBB8 PUSH2 0x20C8 JUMP JUMPDEST PUSH0 PUSH1 0x20 DUP3 DUP5 SUB SLT ISZERO PUSH2 0x2118 JUMPI PUSH0 PUSH0 REVERT JUMPDEST DUP2 MLOAD PUSH2 0x1FD0 DUP2 PUSH2 0x1FD7 JUMP JUMPDEST DUP1 DUP3 ADD DUP1 DUP3 GT ISZERO PUSH2 0xBB8 JUMPI PUSH2 0xBB8 PUSH2 0x20C8 JUMP JUMPDEST PUSH0 PUSH32 0xFFFFFFFFFFFFFFFFFFFFFFFFFFFFFFFFFFFFFFFFFFFFFFFFFFFFFFFFFFFFFFFF DUP3 SUB PUSH2 0x2166 JUMPI PUSH2 0x2166 PUSH2 0x20C8 JUMP JUMPDEST POP PUSH1 0x1 ADD SWAP1 JUMP JUMPDEST PUSH12 0xFFFFFFFFFFFFFFFFFFFFFFFF DUP3 DUP2 AND DUP3 DUP3 AND SUB SWAP1 DUP2 GT ISZERO PUSH2 0xBB8 JUMPI PUSH2 0xBB8 PUSH2 0x20C8 JUMP JUMPDEST PUSH12 0xFFFFFFFFFFFFFFFFFFFFFFFF DUP2 DUP2 AND DUP4 DUP3 AND ADD SWAP1 DUP2 GT ISZERO PUSH2 0xBB8 JUMPI PUSH2 0xBB8 PUSH2 0x20C8 JUMP INVALID LOG2 PUSH5 0x6970667358 0x22 SLT KECCAK256 COINBASE SWAP14 ADD DUP15 SWAP9 PUSH24 0x603EB2314F054161EBBB8CBF9CAEEFCA8CBD4ECD57FD52 DUP6 TSTORE PUSH5 0x736F6C6343 STOP ADDMOD SHR STOP CALLER "},"methodIdentifiers":{"DEFAULT_EPOCH_DURATION()":"9a2f7979","PPM_DENOMINATOR()":"8cc875c5","advanceEpoch()":"3cf80e6c","createStakingPool(uint32,bool)":"68a7d6cd","currentEpoch()":"76671808","currentEpochStartTime()":"4a43f180","currentEpochStartTimeInSeconds()":"587da023","epochDurationInSeconds()":"63403801","forceAdvanceEpoch()":"b519fc1f","getGlobalStakeByStatus(uint8)":"e804d0a4","getOwnerStakeByStatus(address,uint8)":"44a6958b","getPoolsByOperator(address)":"7787872a","getStakeDelegatedToPoolByOwner(address,bytes32)":"f252b7a1","getStakersByPool(bytes32)":"3745bf43","getStakingPool(bytes32)":"4bcc3f67","getTotalStakeDelegatedToPool(bytes32)":"3e4ad732","getTotalStakedByOwner(address)":"460297ee","moveStakeFromPool(bytes32,uint256)":"0d666fb4","moveStakeToPool(bytes32,uint256)":"7267c94c","nextPoolId()":"18e56131","poolsOwnedByOperator(address,uint256)":"bedf88a1","setEpochDuration(uint256)":"30024dfe","stake(uint256)":"a694fc3a","stakersByPool(bytes32,uint256)":"3c7530fc","totalStakedByOwner(address)":"f27db50b","unstake(uint256)":"2e17de78","zrxToken()":"9eaeb116"}}}}}