{"contracts/src/DefaultPoolOperator.sol":{"DefaultPoolOperator":{"abi":[{"inputs":[{"internalType":"contract IStaking","name":"stakingProxy_","type":"address"},{"internalType":"contract IERC20","name":"weth_","type":"address"}],"stateMutability":"nonpayable","type":"constructor"},{"inputs":[],"name":"poolId","outputs":[{"internalType":"bytes32","name":"","type":"bytes32"}],"stateMutability":"view","type":"function"},{"inputs":[],"name":"returnStakingRewards","outputs":[],"stateMutability":"nonpayable","type":"function"},{"inputs":[],"name":"stakingProxy","outputs":[{"internalType":"contract IStaking","name":"","type":"address"}],"stateMutability":"view","type":"function"},{"inputs":[],"name":"weth","outputs":[{"internalType":"contract IERC20","name":"","type":"address"}],"stateMutability":"view","type":"function"}],"evm":{"bytecode":{"linkReferences":{},"object":"60e060405234801561000f575f5ffd5b5060405161045b38038061045b83398101604081905261002e916100cb565b6001600160a01b03828116608081905290821660a0526040516368a7d6cd60e01b8152620f424060048201525f60248201526368a7d6cd906044016020604051808303815f875af1158015610085573d5f5f3e3d5ffd5b505050506040513d601f19601f820116820180604052508101906100a99190610103565b60c0525061011a9050565b6001600160a01b03811681146100c8575f5ffd5b50565b5f5f604083850312156100dc575f5ffd5b82516100e7816100b4565b60208401519092506100f8816100b4565b809150509250929050565b5f60208284031215610113575f5ffd5b5051919050565b60805160a05160c0516103056101565f395f60a401525f818160d901528181610135015261022201525f8181605301526101f001526103055ff3fe608060405234801561000f575f5ffd5b506004361061004a575f3560e01c806322f80d111461004e5780633e0dc34e1461009f5780633fc8cef3146100d4578063d07e240d146100fb575b5f5ffd5b6100757f000000000000000000000000000000000000000000000000000000000000000081565b60405173ffffffffffffffffffffffffffffffffffffffff90911681526020015b60405180910390f35b6100c67f000000000000000000000000000000000000000000000000000000000000000081565b604051908152602001610096565b6100757f000000000000000000000000000000000000000000000000000000000000000081565b610103610105565b005b6040517f70a082310000000000000000000000000000000000000000000000000000000081523060048201525f907f000000000000000000000000000000000000000000000000000000000000000073ffffffffffffffffffffffffffffffffffffffff16906370a0823190602401602060405180830381865afa15801561018f573d5f5f3e3d5ffd5b505050506040513d601f19601f820116820180604052508101906101b39190610292565b6040517fa9059cbb00000000000000000000000000000000000000000000000000000000815273ffffffffffffffffffffffffffffffffffffffff7f000000000000000000000000000000000000000000000000000000000000000081166004830152602482018390529192507f00000000000000000000000000000000000000000000000000000000000000009091169063a9059cbb906044016020604051808303815f875af115801561026a573d5f5f3e3d5ffd5b505050506040513d601f19601f8201168201806040525081019061028e91906102a9565b5050565b5f602082840312156102a2575f5ffd5b5051919050565b5f602082840312156102b9575f5ffd5b815180151581146102c8575f5ffd5b939250505056fea2646970667358221220048d98b98a1477aaa8983379477a6272d02b4a7db5c48f981327c7c4c83823ab64736f6c634300081c0033","opcodes":"PUSH1 0xE0 PUSH1 0x40 MSTORE CALLVALUE DUP1 ISZERO PUSH2 0xF JUMPI PUSH0 PUSH0 REVERT JUMPDEST POP PUSH1 0x40 MLOAD PUSH2 0x45B CODESIZE SUB DUP1 PUSH2 0x45B DUP4 CODECOPY DUP2 ADD PUSH1 0x40 DUP2 SWAP1 MSTORE PUSH2 0x2E SWAP2 PUSH2 0xCB JUMP JUMPDEST PUSH1 0x1 PUSH1 0x1 PUSH1 0xA0 SHL SUB DUP3 DUP2 AND PUSH1 0x80 DUP2 SWAP1 MSTORE SWAP1 DUP3 AND PUSH1 0xA0 MSTORE PUSH1 0x40 MLOAD PUSH4 0x68A7D6CD PUSH1 0xE0 SHL DUP2 MSTORE PUSH3 0xF4240 PUSH1 0x4 DUP3 ADD MSTORE PUSH0 PUSH1 0x24 DUP3 ADD MSTORE PUSH4 0x68A7D6CD SWAP1 PUSH1 0x44 ADD PUSH1 0x20 PUSH1 0x40 MLOAD DUP1 DUP4 SUB DUP2 PUSH0 DUP8 GAS CALL ISZERO DUP1 ISZERO PUSH2 0x85 JUMPI RETURNDATASIZE PUSH0 PUSH0 RETURNDATACOPY RETURNDATASIZE PUSH0 REVERT JUMPDEST POP POP POP POP PUSH1 0x40 MLOAD RETURNDATASIZE PUSH1 0x1F NOT PUSH1 0x1F DUP3 ADD AND DUP3 ADD DUP1 PUSH1 0x40 MSTORE POP DUP2 ADD SWAP1 PUSH2 0xA9 SWAP2 SWAP1 PUSH2 0x103 JUMP JUMPDEST PUSH1 0xC0 MSTORE POP PUSH2 0x11A SWAP1 POP JUMP JUMPDEST PUSH1 0x1 PUSH1 0x1 PUSH1 0xA0 SHL SUB DUP2 AND DUP2 EQ PUSH2 0xC8 JUMPI PUSH0 PUSH0 REVERT JUMPDEST POP JUMP JUMPDEST PUSH0 PUSH0 PUSH1 0x40 DUP4 DUP6 SUB SLT ISZERO PUSH2 0xDC JUMPI PUSH0 PUSH0 REVERT JUMPDEST DUP3 MLOAD PUSH2 0xE7 DUP2 PUSH2 0xB4 JUMP JUMPDEST PUSH1 0x20 DUP5 ADD MLOAD SWAP1 SWAP3 POP PUSH2 0xF8 DUP2 PUSH2 0xB4 JUMP JUMPDEST DUP1 SWAP2 POP POP SWAP3 POP SWAP3 SWAP1 POP JUMP JUMPDEST PUSH0 PUSH1 0x20 DUP3 DUP5 SUB SLT ISZERO PUSH2 0x113 JUMPI PUSH0 PUSH0 REVERT JUMPDEST POP MLOAD SWAP2 SWAP1 POP JUMP JUMPDEST PUSH1 0x80 MLOAD PUSH1 0xA0 MLOAD PUSH1 0xC0 MLOAD PUSH2 0x305 PUSH2 0x156 PUSH0 CODECOPY PUSH0 PUSH1 0xA4 ADD MSTORE PUSH0 DUP2 DUP2 PUSH1 0xD9 ADD MSTORE DUP2 DUP2 PUSH2 0x135 ADD MSTORE PUSH2 0x222 ADD MSTORE PUSH0 DUP2 DUP2 PUSH1 0x53 ADD MSTORE PUSH2 0x1F0 ADD MSTORE PUSH2 0x305 PUSH0 RETURN INVALID PUSH1 0x80 PUSH1 0x40 MSTORE CALLVALUE DUP1 ISZERO PUSH2 0xF JUMPI PUSH0 PUSH0 REVERT JUMPDEST POP PUSH1 0x4 CALLDATASIZE LT PUSH2 0x4A JUMPI PUSH0 CALLDATALOAD PUSH1 0xE0 SHR DUP1 PUSH4 0x22F80D11 EQ PUSH2 0x4E JUMPI DUP1 PUSH4 0x3E0DC34E EQ PUSH2 0x9F JUMPI DUP1 PUSH4 0x3FC8CEF3 EQ PUSH2 0xD4 JUMPI DUP1 PUSH4 0xD07E240D EQ PUSH2 0xFB JUMPI JUMPDEST PUSH0 PUSH0 REVERT JUMPDEST PUSH2 0x75 PUSH32 0x0 DUP2 JUMP JUMPDEST PUSH1 0x40 MLOAD PUSH20 0xFFFFFFFFFFFFFFFFFFFFFFFFFFFFFFFFFFFFFFFF SWAP1 SWAP2 AND DUP2 MSTORE PUSH1 0x20 ADD JUMPDEST PUSH1 0x40 MLOAD DUP1 SWAP2 SUB SWAP1 RETURN JUMPDEST PUSH2 0xC6 PUSH32 0x0 DUP2 JUMP JUMPDEST PUSH1 0x40 MLOAD SWAP1 DUP2 MSTORE PUSH1 0x20 ADD PUSH2 0x96 JUMP JUMPDEST PUSH2 0x75 PUSH32 0x0 DUP2 JUMP JUMPDEST PUSH2 0x103 PUSH2 0x105 JUMP JUMPDEST STOP JUMPDEST PUSH1 0x40 MLOAD PUSH32 0x70A0823100000000000000000000000000000000000000000000000000000000 DUP2 MSTORE ADDRESS PUSH1 0x4 DUP3 ADD MSTORE PUSH0 SWAP1 PUSH32 0x0 PUSH20 0xFFFFFFFFFFFFFFFFFFFFFFFFFFFFFFFFFFFFFFFF AND SWAP1 PUSH4 0x70A08231 SWAP1 PUSH1 0x24 ADD PUSH1 0x20 PUSH1 0x40 MLOAD DUP1 DUP4 SUB DUP2 DUP7 GAS STATICCALL ISZERO DUP1 ISZERO PUSH2 0x18F JUMPI RETURNDATASIZE PUSH0 PUSH0 RETURNDATACOPY RETURNDATASIZE PUSH0 REVERT JUMPDEST POP POP POP POP PUSH1 0x40 MLOAD RETURNDATASIZE PUSH1 0x1F NOT PUSH1 0x1F DUP3 ADD AND DUP3 ADD DUP1 PUSH1 0x40 MSTORE POP DUP2 ADD SWAP1 PUSH2 0x1B3 SWAP2 SWAP1 PUSH2 0x292 JUMP JUMPDEST PUSH1 0x40 MLOAD PUSH32 0xA9059CBB00000000000000000000000000000000000000000000000000000000 DUP2 MSTORE PUSH20 0xFFFFFFFFFFFFFFFFFFFFFFFFFFFFFFFFFFFFFFFF PUSH32 0x0 DUP2 AND PUSH1 0x4 DUP4 ADD MSTORE PUSH1 0x24 DUP3 ADD DUP4 SWAP1 MSTORE SWAP2 SWAP3 POP PUSH32 0x0 SWAP1 SWAP2 AND SWAP1 PUSH4 0xA9059CBB SWAP1 PUSH1 0x44 ADD PUSH1 0x20 PUSH1 0x40 MLOAD DUP1 DUP4 SUB DUP2 PUSH0 DUP8 GAS CALL ISZERO DUP1 ISZERO PUSH2 0x26A JUMPI RETURNDATASIZE PUSH0 PUSH0 RETURNDATACOPY RETURNDATASIZE PUSH0 REVERT JUMPDEST POP POP POP POP PUSH1 0x40 MLOAD RETURNDATASIZE PUSH1 0x1F NOT PUSH1 0x1F DUP3 ADD AND DUP3 ADD DUP1 PUSH1 0x40 MSTORE POP DUP2 ADD SWAP1 PUSH2 0x28E SWAP2 SWAP1 PUSH2 0x2A9 JUMP JUMPDEST POP POP JUMP JUMPDEST PUSH0 PUSH1 0x20 DUP3 DUP5 SUB SLT ISZERO PUSH2 0x2A2 JUMPI PUSH0 PUSH0 REVERT JUMPDEST POP MLOAD SWAP2 SWAP1 POP JUMP JUMPDEST PUSH0 PUSH1 0x20 DUP3 DUP5 SUB SLT ISZERO PUSH2 0x2B9 JUMPI PUSH0 PUSH0 REVERT JUMPDEST DUP2 MLOAD DUP1 ISZERO ISZERO DUP2 EQ PUSH2 0x2C8 JUMPI PUSH0 PUSH0 REVERT JUMPDEST SWAP4 SWAP3 POP POP POP JUMP INVALID LOG2 PUSH5 0x6970667358 0x22 SLT KECCAK256 DIV DUP14 SWAP9 0xB9 DUP11 EQ PUSH24 0xAAA8983379477A6272D02B4A7DB5C48F981327C7C4C83823 0xAB PUSH5 0x736F6C6343 STOP ADDMOD SHR STOP CALLER "},"methodIdentifiers":{"poolId()":"3e0dc34e","returnStakingRewards()":"d07e240d","stakingProxy()":"22f80d11","weth()":"3fc8cef3"}}}}}