{"contracts/src/ZrxTreasury.sol":{"ZrxTreasury":{"abi":[{"inputs":[{"internalType":"contract IStaking","name":"stakingProxy_","type":"address"},{"components":[{"internalType":"uint256","name":"votingPeriod","type":"uint256"},{"internalType":"uint256","name":"proposalThreshold","type":"uint256"},{"internalType":"uint256","name":"quorumThreshold","type":"uint256"},{"internalType":"bytes32","name":"defaultPoolId","type":"bytes32"}],"internalType":"struct IZrxTreasury.TreasuryParameters","name":"params","type":"tuple"}],"stateMutability":"nonpayable","type":"constructor"},{"anonymous":false,"inputs":[{"indexed":false,"internalType":"address","name":"proposer","type":"address"},{"indexed":false,"internalType":"bytes32[]","name":"operatedPoolIds","type":"bytes32[]"},{"indexed":false,"internalType":"uint256","name":"proposalId","type":"uint256"},{"components":[{"internalType":"address","name":"target","type":"address"},{"internalType":"bytes","name":"data","type":"bytes"},{"internalType":"uint256","name":"value","type":"uint256"}],"indexed":false,"internalType":"struct IZrxTreasury.ProposedAction[]","name":"actions","type":"tuple[]"},{"indexed":false,"internalType":"uint256","name":"executionEpoch","type":"uint256"},{"indexed":false,"internalType":"string","name":"description","type":"string"}],"name":"ProposalCreated","type":"event"},{"anonymous":false,"inputs":[{"indexed":false,"internalType":"uint256","name":"proposalId","type":"uint256"}],"name":"ProposalExecuted","type":"event"},{"anonymous":false,"inputs":[{"indexed":false,"internalType":"address","name":"voter","type":"address"},{"indexed":false,"internalType":"bytes32[]","name":"operatedPoolIds","type":"bytes32[]"},{"indexed":false,"internalType":"uint256","name":"proposalId","type":"uint256"},{"indexed":false,"internalType":"bool","name":"support","type":"bool"},{"indexed":false,"internalType":"uint256","name":"votingPower","type":"uint256"}],"name":"VoteCast","type":"event"},{"inputs":[{"internalType":"uint256","name":"proposalId","type":"uint256"},{"internalType":"bool","name":"support","type":"bool"},{"internalType":"bytes32[]","name":"operatedPoolIds","type":"bytes32[]"}],"name":"castVote","outputs":[],"stateMutability":"nonpayable","type":"function"},{"inputs":[{"internalType":"uint256","name":"proposalId","type":"uint256"},{"internalType":"bool","name":"support","type":"bool"},{"internalType":"bytes32[]","name":"operatedPoolIds","type":"bytes32[]"},{"internalType":"uint8","name":"v","type":"uint8"},{"internalType":"bytes32","name":"r","type":"bytes32"},{"internalType":"bytes32","name":"s","type":"bytes32"}],"name":"castVoteBySignature","outputs":[],"stateMutability":"nonpayable","type":"function"},{"inputs":[],"name":"defaultPoolId","outputs":[{"internalType":"bytes32","name":"","type":"bytes32"}],"stateMutability":"view","type":"function"},{"inputs":[],"name":"defaultPoolOperator","outputs":[{"internalType":"contract DefaultPoolOperator","name":"","type":"address"}],"stateMutability":"view","type":"function"},{"inputs":[{"internalType":"uint256","name":"proposalId","type":"uint256"},{"components":[{"internalType":"address","name":"target","type":"address"},{"internalType":"bytes","name":"data","type":"bytes"},{"internalType":"uint256","name":"value","type":"uint256"}],"internalType":"struct IZrxTreasury.ProposedAction[]","name":"actions","type":"tuple[]"}],"name":"execute","outputs":[],"stateMutability":"payable","type":"function"},{"inputs":[{"internalType":"address","name":"account","type":"address"},{"internalType":"bytes32[]","name":"operatedPoolIds","type":"bytes32[]"}],"name":"getVotingPower","outputs":[{"internalType":"uint256","name":"votingPower","type":"uint256"}],"stateMutability":"view","type":"function"},{"inputs":[{"internalType":"uint256","name":"","type":"uint256"},{"internalType":"address","name":"","type":"address"}],"name":"hasVoted","outputs":[{"internalType":"bool","name":"","type":"bool"}],"stateMutability":"view","type":"function"},{"inputs":[],"name":"proposalCount","outputs":[{"internalType":"uint256","name":"count","type":"uint256"}],"stateMutability":"view","type":"function"},{"inputs":[],"name":"proposalThreshold","outputs":[{"internalType":"uint256","name":"","type":"uint256"}],"stateMutability":"view","type":"function"},{"inputs":[{"internalType":"uint256","name":"","type":"uint256"}],"name":"proposals","outputs":[{"internalType":"bytes32","name":"actionsHash","type":"bytes32"},{"internalType":"uint256","name":"executionEpoch","type":"uint256"},{"internalType":"uint256","name":"voteEpoch","type":"uint256"},{"internalType":"uint256","name":"votesFor","type":"uint256"},{"internalType":"uint256","name":"votesAgainst","type":"uint256"},{"internalType":"bool","name":"executed","type":"bool"}],"stateMutability":"view","type":"function"},{"inputs":[{"components":[{"internalType":"address","name":"target","type":"address"},{"internalType":"bytes","name":"data","type":"bytes"},{"internalType":"uint256","name":"value","type":"uint256"}],"internalType":"struct IZrxTreasury.ProposedAction[]","name":"actions","type":"tuple[]"},{"internalType":"uint256","name":"executionEpoch","type":"uint256"},{"internalType":"string","name":"description","type":"string"},{"internalType":"bytes32[]","name":"operatedPoolIds","type":"bytes32[]"}],"name":"propose","outputs":[{"internalType":"uint256","name":"proposalId","type":"uint256"}],"stateMutability":"nonpayable","type":"function"},{"inputs":[],"name":"quorumThreshold","outputs":[{"internalType":"uint256","name":"","type":"uint256"}],"stateMutability":"view","type":"function"},{"inputs":[],"name":"stakingProxy","outputs":[{"internalType":"contract IStaking","name":"","type":"address"}],"stateMutability":"view","type":"function"},{"inputs":[{"internalType":"uint256","name":"newProposalThreshold","type":"uint256"},{"internalType":"uint256","name":"newQuorumThreshold","type":"uint256"}],"name":"updateThresholds","outputs":[],"stateMutability":"nonpayable","type":"function"},{"inputs":[],"name":"votingPeriod","outputs":[{"internalType":"uint256","name":"","type":"uint256"}],"stateMutability":"view","type":"function"},{"stateMutability":"payable","type":"receive"}],"evm":{"bytecode":{"linkReferences":{},"object":"610120604052348015610010575f5ffd5b506040516127bd3803806127bd83398101604081905261002f91610275565b816001600160a01b031663634038016040518163ffffffff1660e01b8152600401602060405180830381865afa15801561006b573d5f5f3e3d5ffd5b505050506040513d601f19601f8201168201806040525081019061008f919061030a565b8151106100e25760405162461bcd60e51b815260206004820152601660248201527f564f54494e475f504552494f445f544f4f5f4c4f4e4700000000000000000000604482015260640160405180910390fd5b6001600160a01b0382166080819052815160e05260208201515f90815560408084015160015560608401805160c052519051634bcc3f6760e01b8152919291634bcc3f67916101379160040190815260200190565b6040805180830381865afa158015610151573d5f5f3e3d5ffd5b505050506040513d601f19601f820116820180604052508101906101759190610321565b516001600160a01b031660a0908152604080518082018252600c81526b5a727820547265617375727960a01b6020918201528151808301835260058152640312e302e360dc1b9082015281517f8b73c3c69bb8fe3d512ecc4cf759cc79239f7b179b0ffacaa9a75d522b39400f818301527f87d04f8a70a96e82e2eff0013aa6d23b3d03d655fecd921b5c27439303237317818401524660608201527f06c015bd22b4c69690933c1058878ebdfef31f9aaae40bbe86d8a09fe1b2972c608082015230818501528251808203909401845260c00190915281519101206101005250610393915050565b6001600160a01b0381168114610272575f5ffd5b50565b5f5f82840360a0811215610287575f5ffd5b83516102928161025e565b92506080601f19820112156102a5575f5ffd5b50604051608081016001600160401b03811182821017156102d457634e487b7160e01b5f52604160045260245ffd5b60409081526020858101518352858201519083015260608086015191830191909152608090940151938101939093525092909150565b5f6020828403121561031a575f5ffd5b5051919050565b5f6040828403128015610332575f5ffd5b50604080519081016001600160401b038111828210171561036157634e487b7160e01b5f52604160045260245ffd5b604052825161036f8161025e565b8152602083015163ffffffff81168114610387575f5ffd5b60208201529392505050565b60805160a05160c05160e051610100516123a061041d5f395f610c9801525f818161015601526118d701525f81816102b4015261073501525f61028101525f8181610197015281816106530152818161076f015281816108c801528181610a3b01528181610e7b01528181611256015281816115220152818161182601526118f801526123a05ff3fe6080604052600436106100e7575f3560e01c80639de38af211610087578063d438a3ce11610057578063d438a3ce14610309578063d73ceb3a14610328578063da35c66414610347578063dfe1e6b21461035b575f5ffd5b80639de38af214610270578063a0edbcbb146102a3578063b58131b0146102d6578063c14b8e9c146102ea575f5ffd5b806343859632116100c257806343859632146101de578063662bede3146102275780637b7a91dd1461023c5780637c29cb1a14610251575f5ffd5b8063013cf08b146100f257806302a251a31461014557806322f80d1114610186575f5ffd5b366100ee57005b5f5ffd5b3480156100fd575f5ffd5b5061011161010c366004611997565b61037a565b6040805196875260208701959095529385019290925260608401526080830152151560a082015260c0015b60405180910390f35b348015610150575f5ffd5b506101787f000000000000000000000000000000000000000000000000000000000000000081565b60405190815260200161013c565b348015610191575f5ffd5b506101b97f000000000000000000000000000000000000000000000000000000000000000081565b60405173ffffffffffffffffffffffffffffffffffffffff909116815260200161013c565b3480156101e9575f5ffd5b506102176101f83660046119d2565b600360209081525f928352604080842090915290825290205460ff1681565b604051901515815260200161013c565b61023a610235366004611c58565b6103c1565b005b348015610247575f5ffd5b5061017860015481565b34801561025c575f5ffd5b5061017861026b366004611cf7565b61064f565b34801561027b575f5ffd5b506101b97f000000000000000000000000000000000000000000000000000000000000000081565b3480156102ae575f5ffd5b506101787f000000000000000000000000000000000000000000000000000000000000000081565b3480156102e1575f5ffd5b506101785f5481565b3480156102f5575f5ffd5b5061023a610304366004611d3a565b610b3a565b348015610314575f5ffd5b5061023a610323366004611d6e565b610bad565b348015610333575f5ffd5b50610178610342366004611dea565b610d73565b348015610352575f5ffd5b50600254610178565b348015610366575f5ffd5b5061023a610375366004611e95565b611061565b60028181548110610389575f80fd5b5f9182526020909120600690910201805460018201546002830154600384015460048501546005909501549395509193909260ff1686565b6002548210610431576040517f08c379a000000000000000000000000000000000000000000000000000000000815260206004820152601b60248201527f657865637574652f494e56414c49445f50524f504f53414c5f4944000000000060448201526064015b60405180910390fd5b5f6002838154811061044557610445611ee8565b5f9182526020918290206040805160c081018252600690930290910180548352600181015493830193909352600283015490820152600382015460608201526004820154608082015260059091015460ff16151560a082015290506104aa8183611072565b6001600284815481106104bf576104bf611ee8565b5f918252602082206006919091020160050180547fffffffffffffffffffffffffffffffffffffffffffffffffffffffffffffff0016921515929092179091555b82518114610616575f83828151811061051b5761051b611ee8565b602002602001015190505f815f015173ffffffffffffffffffffffffffffffffffffffff16826040015183602001516040516105579190611f15565b5f6040518083038185875af1925050503d805f8114610591576040519150601f19603f3d011682016040523d82523d5f602084013e610596565b606091505b5050905080610601576040517f08c379a000000000000000000000000000000000000000000000000000000000815260206004820152601f60248201527f657865637574652f414354494f4e5f455845435554494f4e5f4641494c4544006044820152606401610428565b5050808061060e90611f58565b915050610500565b506040518381527f712ae1383f79ac853f8d882153778e0260ef8f03b504e2866e0593e04d2b291f9060200160405180910390a1505050565b5f5f7f000000000000000000000000000000000000000000000000000000000000000073ffffffffffffffffffffffffffffffffffffffff166344a6958b8560016040518363ffffffff1660e01b81526004016106ad929190611f8f565b606060405180830381865afa1580156106c8573d5f5f3e3d5ffd5b505050506040513d601f19601f820116820180604052508101906106ec9190612009565b602001516040517ff252b7a100000000000000000000000000000000000000000000000000000000815273ffffffffffffffffffffffffffffffffffffffff86811660048301527f000000000000000000000000000000000000000000000000000000000000000060248301526bffffffffffffffffffffffff90921692505f917f0000000000000000000000000000000000000000000000000000000000000000169063f252b7a190604401606060405180830381865afa1580156107b4573d5f5f3e3d5ffd5b505050506040513d601f19601f820116820180604052508101906107d89190612009565b602001516bffffffffffffffffffffffff16905060026107f88284612065565b6108029190612078565b92505f5b84518114610b30575f5b8181146108c45785818151811061082957610829611ee8565b602002602001015186838151811061084357610843611ee8565b6020026020010151036108b2576040517f08c379a000000000000000000000000000000000000000000000000000000000815260206004820181905260248201527f676574566f74696e67506f7765722f4455504c49434154455f504f4f4c5f49446044820152606401610428565b806108bc81611f58565b915050610810565b505f7f000000000000000000000000000000000000000000000000000000000000000073ffffffffffffffffffffffffffffffffffffffff16634bcc3f6787848151811061091457610914611ee8565b60200260200101516040518263ffffffff1660e01b815260040161093a91815260200190565b6040805180830381865afa158015610954573d5f5f3e3d5ffd5b505050506040513d601f19601f8201168201806040525081019061097891906120b0565b90508673ffffffffffffffffffffffffffffffffffffffff16815f015173ffffffffffffffffffffffffffffffffffffffff1614610a38576040517f08c379a000000000000000000000000000000000000000000000000000000000815260206004820152602b60248201527f676574566f74696e67506f7765722f504f4f4c5f4e4f545f4f5045524154454460448201527f5f42595f4143434f554e540000000000000000000000000000000000000000006064820152608401610428565b5f7f000000000000000000000000000000000000000000000000000000000000000073ffffffffffffffffffffffffffffffffffffffff16633e4ad732888581518110610a8757610a87611ee8565b60200260200101516040518263ffffffff1660e01b8152600401610aad91815260200190565b606060405180830381865afa158015610ac8573d5f5f3e3d5ffd5b505050506040513d601f19601f82011682018060405250810190610aec9190612009565b6020015190505f610b0c60026bffffffffffffffffffffffff8416612078565b9050610b188188612065565b96505050508080610b2890611f58565b915050610806565b5050505b92915050565b333014610ba3576040517f08c379a000000000000000000000000000000000000000000000000000000000815260206004820152601a60248201527f7570646174655468726573686f6c64732f4f4e4c595f53454c460000000000006044820152606401610428565b5f91909155600155565b5f7f1e5642e3d26f0a340fb17e122193a3cd21b85477a8a2fb82e99ef31fa9927bd5878787604051602001610be29190612117565b604080517fffffffffffffffffffffffffffffffffffffffffffffffffffffffffffffffe081840301815282825280516020918201209083019590955281019290925215156060820152608081019190915260a001604080517fffffffffffffffffffffffffffffffffffffffffffffffffffffffffffffffe08184030181529082905280516020918201207f1901000000000000000000000000000000000000000000000000000000000000918301919091527f000000000000000000000000000000000000000000000000000000000000000060228301526042820181905291505f90606201604080517fffffffffffffffffffffffffffffffffffffffffffffffffffffffffffffffe081840301815282825280516020918201205f80855291840180845281905260ff89169284019290925260608301879052608083018690529092509060019060a0016020604051602081039080840390855afa158015610d50573d5f5f3e3d5ffd5b505050602060405103519050610d68818a8a8a611372565b505050505050505050565b5f5f54610d80338461064f565b1015610e0e576040517f08c379a000000000000000000000000000000000000000000000000000000000815260206004820152602160248201527f70726f706f73652f494e53554646494349454e545f564f54494e475f504f574560448201527f52000000000000000000000000000000000000000000000000000000000000006064820152608401610428565b5f855111610e78576040517f08c379a000000000000000000000000000000000000000000000000000000000815260206004820152601b60248201527f70726f706f73652f4e4f5f414354494f4e535f50524f504f53454400000000006044820152606401610428565b5f7f000000000000000000000000000000000000000000000000000000000000000073ffffffffffffffffffffffffffffffffffffffff1663766718086040518163ffffffff1660e01b8152600401602060405180830381865afa158015610ee2573d5f5f3e3d5ffd5b505050506040513d601f19601f82011682018060405250810190610f06919061214c565b9050610f13816002612065565b851015610f7c576040517f08c379a000000000000000000000000000000000000000000000000000000000815260206004820152601f60248201527f70726f706f73652f494e56414c49445f455845435554494f4e5f45504f4348006044820152606401610428565b600280546001810182555f919091526040519092507f405787fa12a823e0f2b7631cc41b3ba8828b3321ca811111fa75cd3aa3bb5ace600684020190610fc690889060200161225f565b604080517fffffffffffffffffffffffffffffffffffffffffffffffffffffffffffffffe08184030181529190528051602090910120815560018101869055611010826002612065565b60028201556040517f7e5c3a7773c4f27d279f6b711be3046cadedc9b136ca15d4d06e3aa7ec95340a9061104f903390879087908c908c908c906122b2565b60405180910390a15050949350505050565b61106d33848484611372565b505050565b815160405161108590839060200161225f565b6040516020818303038152906040528051906020012014611128576040517f08c379a000000000000000000000000000000000000000000000000000000000815260206004820152602960248201527f5f61737365727450726f706f73616c45786563757461626c652f494e56414c4960448201527f445f414354494f4e5300000000000000000000000000000000000000000000006064820152608401610428565b611131826117d6565b6111bd576040517f08c379a000000000000000000000000000000000000000000000000000000000815260206004820152603160248201527f5f61737365727450726f706f73616c45786563757461626c652f50524f504f5360448201527f414c5f4841535f4e4f545f5041535345440000000000000000000000000000006064820152608401610428565b8160a001511561124f576040517f08c379a000000000000000000000000000000000000000000000000000000000815260206004820152603360248201527f5f61737365727450726f706f73616c45786563757461626c652f50524f504f5360448201527f414c5f414c52454144595f4558454355544544000000000000000000000000006064820152608401610428565b81602001517f000000000000000000000000000000000000000000000000000000000000000073ffffffffffffffffffffffffffffffffffffffff1663766718086040518163ffffffff1660e01b8152600401602060405180830381865afa1580156112bd573d5f5f3e3d5ffd5b505050506040513d601f19601f820116820180604052508101906112e1919061214c565b1461136e576040517f08c379a000000000000000000000000000000000000000000000000000000000815260206004820152603360248201527f5f61737365727450726f706f73616c45786563757461626c652f43414e4e4f5460448201527f5f455845435554455f544849535f45504f4348000000000000000000000000006064820152608401610428565b5050565b60025483106113dd576040517f08c379a000000000000000000000000000000000000000000000000000000000815260206004820152601d60248201527f5f63617374566f74652f494e56414c49445f50524f504f53414c5f49440000006044820152606401610428565b5f83815260036020908152604080832073ffffffffffffffffffffffffffffffffffffffff8816845290915290205460ff1615611476576040517f08c379a000000000000000000000000000000000000000000000000000000000815260206004820152601760248201527f5f63617374566f74652f414c52454144595f564f5445440000000000000000006044820152606401610428565b5f6002848154811061148a5761148a611ee8565b5f9182526020918290206040805160c08101825260069093029091018054835260018101548385015260028101548383015260038101546060840152600480820154608085015260059091015460ff16151560a084015281517f76671808000000000000000000000000000000000000000000000000000000008152915192945073ffffffffffffffffffffffffffffffffffffffff7f0000000000000000000000000000000000000000000000000000000000000000169363766718089383830193919290918290030181865afa158015611568573d5f5f3e3d5ffd5b505050506040513d601f19601f8201168201806040525081019061158c919061214c565b81604001511415806115a657506115a68160400151611822565b1561160d576040517f08c379a000000000000000000000000000000000000000000000000000000000815260206004820152601a60248201527f5f63617374566f74652f564f54494e475f49535f434c4f5345440000000000006044820152606401610428565b5f611618868461064f565b9050805f03611683576040517f08c379a000000000000000000000000000000000000000000000000000000000815260206004820152601960248201527f5f63617374566f74652f4e4f5f564f54494e475f504f574552000000000000006044820152606401610428565b83156116e257806002868154811061169d5761169d611ee8565b905f5260205f209060060201600301546116b79190612065565b600286815481106116ca576116ca611ee8565b905f5260205f20906006020160030181905550611737565b80600286815481106116f6576116f6611ee8565b905f5260205f209060060201600401546117109190612065565b6002868154811061172357611723611ee8565b905f5260205f209060060201600401819055505b5f85815260036020908152604080832073ffffffffffffffffffffffffffffffffffffffff8a1684529091529081902080547fffffffffffffffffffffffffffffffffffffffffffffffffffffffffffffff00166001179055517f42beae5df566d9e7bf8de84274b353b28960a4fa51cbd2eec30cd42cbb4cf104906117c6908890869089908990879061231f565b60405180910390a1505050505050565b5f6117e48260400151611822565b6117ef57505f919050565b816080015182606001511161180557505f919050565b6001548260600151101561181a57505f919050565b506001919050565b5f5f7f000000000000000000000000000000000000000000000000000000000000000073ffffffffffffffffffffffffffffffffffffffff1663766718086040518163ffffffff1660e01b8152600401602060405180830381865afa15801561188d573d5f5f3e3d5ffd5b505050506040513d601f19601f820116820180604052508101906118b1919061214c565b9050828110156118c357505f92915050565b828111156118d45750600192915050565b5f7f00000000000000000000000000000000000000000000000000000000000000007f000000000000000000000000000000000000000000000000000000000000000073ffffffffffffffffffffffffffffffffffffffff1663587da0236040518163ffffffff1660e01b8152600401602060405180830381865afa15801561195f573d5f5f3e3d5ffd5b505050506040513d601f19601f82011682018060405250810190611983919061214c565b61198d9190612065565b4211949350505050565b5f602082840312156119a7575f5ffd5b5035919050565b73ffffffffffffffffffffffffffffffffffffffff811681146119cf575f5ffd5b50565b5f5f604083850312156119e3575f5ffd5b8235915060208301356119f5816119ae565b809150509250929050565b7f4e487b71000000000000000000000000000000000000000000000000000000005f52604160045260245ffd5b6040516060810167ffffffffffffffff81118282101715611a5057611a50611a00565b60405290565b604051601f82017fffffffffffffffffffffffffffffffffffffffffffffffffffffffffffffffe016810167ffffffffffffffff81118282101715611a9d57611a9d611a00565b604052919050565b5f67ffffffffffffffff821115611abe57611abe611a00565b5060051b60200190565b5f5f67ffffffffffffffff841115611ae257611ae2611a00565b50601f83017fffffffffffffffffffffffffffffffffffffffffffffffffffffffffffffffe016602001611b1581611a56565b915050828152838383011115611b29575f5ffd5b828260208301375f602084830101529392505050565b5f82601f830112611b4e575f5ffd5b8135611b61611b5c82611aa5565b611a56565b8082825260208201915060208360051b860101925085831115611b82575f5ffd5b602085015b83811015611c4e57803567ffffffffffffffff811115611ba5575f5ffd5b860160608189037fffffffffffffffffffffffffffffffffffffffffffffffffffffffffffffffe0011215611bd8575f5ffd5b611be0611a2d565b6020820135611bee816119ae565b8152604082013567ffffffffffffffff811115611c09575f5ffd5b82016020810190603f018a13611c1d575f5ffd5b611c2c8a823560208401611ac8565b6020838101919091526060939093013560408301525084529283019201611b87565b5095945050505050565b5f5f60408385031215611c69575f5ffd5b82359150602083013567ffffffffffffffff811115611c86575f5ffd5b611c9285828601611b3f565b9150509250929050565b5f82601f830112611cab575f5ffd5b8135611cb9611b5c82611aa5565b8082825260208201915060208360051b860101925085831115611cda575f5ffd5b602085015b83811015611c4e578035835260209283019201611cdf565b5f5f60408385031215611d08575f5ffd5b8235611d13816119ae565b9150602083013567ffffffffffffffff811115611d2e575f5ffd5b611c9285828601611c9c565b5f5f60408385031215611d4b575f5ffd5b50508035926020909101359150565b80358015158114611d69575f5ffd5b919050565b5f5f5f5f5f5f60c08789031215611d83575f5ffd5b86359550611d9360208801611d5a565b9450604087013567ffffffffffffffff811115611dae575f5ffd5b611dba89828a01611c9c565b945050606087013560ff81168114611dd0575f5ffd5b9598949750929560808101359460a0909101359350915050565b5f5f5f5f60808587031215611dfd575f5ffd5b843567ffffffffffffffff811115611e13575f5ffd5b611e1f87828801611b3f565b94505060208501359250604085013567ffffffffffffffff811115611e42575f5ffd5b8501601f81018713611e52575f5ffd5b611e6187823560208401611ac8565b925050606085013567ffffffffffffffff811115611e7d575f5ffd5b611e8987828801611c9c565b91505092959194509250565b5f5f5f60608486031215611ea7575f5ffd5b83359250611eb760208501611d5a565b9150604084013567ffffffffffffffff811115611ed2575f5ffd5b611ede86828701611c9c565b9150509250925092565b7f4e487b71000000000000000000000000000000000000000000000000000000005f52603260045260245ffd5b5f82518060208501845e5f920191825250919050565b7f4e487b71000000000000000000000000000000000000000000000000000000005f52601160045260245ffd5b5f7fffffffffffffffffffffffffffffffffffffffffffffffffffffffffffffffff8203611f8857611f88611f2b565b5060010190565b73ffffffffffffffffffffffffffffffffffffffff831681526040810160028310611fe1577f4e487b71000000000000000000000000000000000000000000000000000000005f52602160045260245ffd5b8260208301529392505050565b80516bffffffffffffffffffffffff81168114611d69575f5ffd5b5f606082840312801561201a575f5ffd5b50612023611a2d565b825167ffffffffffffffff8116811461203a575f5ffd5b815261204860208401611fee565b602082015261205960408401611fee565b60408201529392505050565b80820180821115610b3457610b34611f2b565b5f826120ab577f4e487b71000000000000000000000000000000000000000000000000000000005f52601260045260245ffd5b500490565b5f60408284031280156120c1575f5ffd5b506040805190810167ffffffffffffffff811182821017156120e5576120e5611a00565b60405282516120f3816119ae565b8152602083015163ffffffff8116811461210b575f5ffd5b60208201529392505050565b81515f90829060208501835b82811015612141578151845260209384019390910190600101612123565b509195945050505050565b5f6020828403121561215c575f5ffd5b5051919050565b5f81518084528060208401602086015e5f6020828601015260207fffffffffffffffffffffffffffffffffffffffffffffffffffffffffffffffe0601f83011685010191505092915050565b5f82825180855260208501945060208160051b830101602085015f5b83811015612253577fffffffffffffffffffffffffffffffffffffffffffffffffffffffffffffffe0858403018852815173ffffffffffffffffffffffffffffffffffffffff815116845260208101516060602086015261222f6060860182612163565b604092830151959092019490945260209889019890935091909101906001016121cb565b50909695505050505050565b602081525f61227160208301846121af565b9392505050565b5f8151808452602084019350602083015f5b828110156122a857815186526020958601959091019060010161228a565b5093949350505050565b73ffffffffffffffffffffffffffffffffffffffff8716815260c060208201525f6122e060c0830188612278565b86604084015282810360608401526122f881876121af565b905084608084015282810360a08401526123128185612163565b9998505050505050505050565b73ffffffffffffffffffffffffffffffffffffffff8616815260a060208201525f61234d60a0830187612278565b60408301959095525091151560608301526080909101529291505056fea2646970667358221220442274e5b962e9d8c007de7b028f84db1963c66ff0943f6f2c5bf06ed0fe085a64736f6c634300081c0033","opcodes":"PUSH2 0x120 PUSH1 0x40 MSTORE CALLVALUE DUP1 ISZERO PUSH2 0x10 JUMPI PUSH0 PUSH0 REVERT JUMPDEST POP PUSH1 0x40 MLOAD PUSH2 0x27BD CODESIZE SUB DUP1 PUSH2 0x27BD DUP4 CODECOPY DUP2 ADD PUSH1 0x40 DUP2 SWAP1 MSTORE PUSH2 0x2F SWAP2 PUSH2 0x275 JUMP JUMPDEST DUP2 PUSH1 0x1 PUSH1 0x1 PUSH1 0xA0 SHL SUB AND PUSH4 0x63403801 PUSH1 0x40 MLOAD DUP2 PUSH4 0xFFFFFFFF AND PUSH1 0xE0 SHL DUP2 MSTORE PUSH1 0x4 ADD PUSH1 0x20 PUSH1 0x40 MLOAD DUP1 DUP4 SUB DUP2 DUP7 GAS STATICCALL ISZERO DUP1 ISZERO PUSH2 0x6B JUMPI RETURNDATASIZE PUSH0 PUSH0 RETURNDATACOPY RETURNDATASIZE PUSH0 REVERT JUMPDEST POP POP POP POP PUSH1 0x40 MLOAD RETURNDATASIZE PUSH1 0x1F NOT PUSH1 0x1F DUP3 ADD AND DUP3 ADD DUP1 PUSH1 0x40 MSTORE POP DUP2 ADD SWAP1 PUSH2 0x8F SWAP2 SWAP1 PUSH2 0x30A JUMP JUMPDEST DUP2 MLOAD LT PUSH2 0xE2 JUMPI PUSH1 0x40 MLOAD PUSH3 0x461BCD PUSH1 0xE5 SHL DUP2 MSTORE PUSH1 0x20 PUSH1 0x4 DUP3 ADD MSTORE PUSH1 0x16 PUSH1 0x24 DUP3 ADD MSTORE PUSH32 0x564F54494E475F504552494F445F544F4F5F4C4F4E4700000000000000000000 PUSH1 0x44 DUP3 ADD MSTORE PUSH1 0x64 ADD PUSH1 0x40 MLOAD DUP1 SWAP2 SUB SWAP1 REVERT JUMPDEST PUSH1 0x1 PUSH1 0x1 PUSH1 0xA0 SHL SUB DUP3 AND PUSH1 0x80 DUP2 SWAP1 MSTORE DUP2 MLOAD PUSH1 0xE0 MSTORE PUSH1 0x20 DUP3 ADD MLOAD PUSH0 SWAP1 DUP2 SSTORE PUSH1 0x40 DUP1 DUP5 ADD MLOAD PUSH1 0x1 SSTORE PUSH1 0x60 DUP5 ADD DUP1 MLOAD PUSH1 0xC0 MSTORE MLOAD SWAP1 MLOAD PUSH4 0x4BCC3F67 PUSH1 0xE0 SHL DUP2 MSTORE SWAP2 SWAP3 SWAP2 PUSH4 0x4BCC3F67 SWAP2 PUSH2 0x137 SWAP2 PUSH1 0x4 ADD SWAP1 DUP2 MSTORE PUSH1 0x20 ADD SWAP1 JUMP JUMPDEST PUSH1 0x40 DUP1 MLOAD DUP1 DUP4 SUB DUP2 DUP7 GAS STATICCALL ISZERO DUP1 ISZERO PUSH2 0x151 JUMPI RETURNDATASIZE PUSH0 PUSH0 RETURNDATACOPY RETURNDATASIZE PUSH0 REVERT JUMPDEST POP POP POP POP PUSH1 0x40 MLOAD RETURNDATASIZE PUSH1 0x1F NOT PUSH1 0x1F DUP3 ADD AND DUP3 ADD DUP1 PUSH1 0x40 MSTORE POP DUP2 ADD SWAP1 PUSH2 0x175 SWAP2 SWAP1 PUSH2 0x321 JUMP JUMPDEST MLOAD PUSH1 0x1 PUSH1 0x1 PUSH1 0xA0 SHL SUB AND PUSH1 0xA0 SWAP1 DUP2 MSTORE PUSH1 0x40 DUP1 MLOAD DUP1 DUP3 ADD DUP3 MSTORE PUSH1 0xC DUP2 MSTORE PUSH12 0x5A7278205472656173757279 PUSH1 0xA0 SHL PUSH1 0x20 SWAP2 DUP3 ADD MSTORE DUP2 MLOAD DUP1 DUP4 ADD DUP4 MSTORE PUSH1 0x5 DUP2 MSTORE PUSH5 0x312E302E3 PUSH1 0xDC SHL SWAP1 DUP3 ADD MSTORE DUP2 MLOAD PUSH32 0x8B73C3C69BB8FE3D512ECC4CF759CC79239F7B179B0FFACAA9A75D522B39400F DUP2 DUP4 ADD MSTORE PUSH32 0x87D04F8A70A96E82E2EFF0013AA6D23B3D03D655FECD921B5C27439303237317 DUP2 DUP5 ADD MSTORE CHAINID PUSH1 0x60 DUP3 ADD MSTORE PUSH32 0x6C015BD22B4C69690933C1058878EBDFEF31F9AAAE40BBE86D8A09FE1B2972C PUSH1 0x80 DUP3 ADD MSTORE ADDRESS DUP2 DUP6 ADD MSTORE DUP3 MLOAD DUP1 DUP3 SUB SWAP1 SWAP5 ADD DUP5 MSTORE PUSH1 0xC0 ADD SWAP1 SWAP2 MSTORE DUP2 MLOAD SWAP2 ADD KECCAK256 PUSH2 0x100 MSTORE POP PUSH2 0x393 SWAP2 POP POP JUMP JUMPDEST PUSH1 0x1 PUSH1 0x1 PUSH1 0xA0 SHL SUB DUP2 AND DUP2 EQ PUSH2 0x272 JUMPI PUSH0 PUSH0 REVERT JUMPDEST POP JUMP JUMPDEST PUSH0 PUSH0 DUP3 DUP5 SUB PUSH1 0xA0 DUP2 SLT ISZERO PUSH2 0x287 JUMPI PUSH0 PUSH0 REVERT JUMPDEST DUP4 MLOAD PUSH2 0x292 DUP2 PUSH2 0x25E JUMP JUMPDEST SWAP3 POP PUSH1 0x80 PUSH1 0x1F NOT DUP3 ADD SLT ISZERO PUSH2 0x2A5 JUMPI PUSH0 PUSH0 REVERT JUMPDEST POP PUSH1 0x40 MLOAD PUSH1 0x80 DUP2 ADD PUSH1 0x1 PUSH1 0x1 PUSH1 0x40 SHL SUB DUP2 GT DUP3 DUP3 LT OR ISZERO PUSH2 0x2D4 JUMPI PUSH4 0x4E487B71 PUSH1 0xE0 SHL PUSH0 MSTORE PUSH1 0x41 PUSH1 0x4 MSTORE PUSH1 0x24 PUSH0 REVERT JUMPDEST PUSH1 0x40 SWAP1 DUP2 MSTORE PUSH1 0x20 DUP6 DUP2 ADD MLOAD DUP4 MSTORE DUP6 DUP3 ADD MLOAD SWAP1 DUP4 ADD MSTORE PUSH1 0x60 DUP1 DUP7 ADD MLOAD SWAP2 DUP4 ADD SWAP2 SWAP1 SWAP2 MSTORE PUSH1 0x80 SWAP1 SWAP5 ADD MLOAD SWAP4 DUP2 ADD SWAP4 SWAP1 SWAP4 MSTORE POP SWAP3 SWAP1 SWAP2 POP JUMP JUMPDEST PUSH0 PUSH1 0x20 DUP3 DUP5 SUB SLT ISZERO PUSH2 0x31A JUMPI PUSH0 PUSH0 REVERT JUMPDEST POP MLOAD SWAP2 SWAP1 POP JUMP JUMPDEST PUSH0 PUSH1 0x40 DUP3 DUP5 SUB SLT DUP1 ISZERO PUSH2 0x332 JUMPI PUSH0 PUSH0 REVERT JUMPDEST POP PUSH1 0x40 DUP1 MLOAD SWAP1 DUP2 ADD PUSH1 0x1 PUSH1 0x1 PUSH1 0x40 SHL SUB DUP2 GT DUP3 DUP3 LT OR ISZERO PUSH2 0x361 JUMPI PUSH4 0x4E487B71 PUSH1 0xE0 SHL PUSH0 MSTORE PUSH1 0x41 PUSH1 0x4 MSTORE PUSH1 0x24 PUSH0 REVERT JUMPDEST PUSH1 0x40 MSTORE DUP3 MLOAD PUSH2 0x36F DUP2 PUSH2 0x25E JUMP JUMPDEST DUP2 MSTORE PUSH1 0x20 DUP4 ADD MLOAD PUSH4 0xFFFFFFFF DUP2 AND DUP2 EQ PUSH2 0x387 JUMPI PUSH0 PUSH0 REVERT JUMPDEST PUSH1 0x20 DUP3 ADD MSTORE SWAP4 SWAP3 POP POP POP JUMP JUMPDEST PUSH1 0x80 MLOAD PUSH1 0xA0 MLOAD PUSH1 0xC0 MLOAD PUSH1 0xE0 MLOAD PUSH2 0x100 MLOAD PUSH2 0x23A0 PUSH2 0x41D PUSH0 CODECOPY PUSH0 PUSH2 0xC98 ADD MSTORE PUSH0 DUP2 DUP2 PUSH2 0x156 ADD MSTORE PUSH2 0x18D7 ADD MSTORE PUSH0 DUP2 DUP2 PUSH2 0x2B4 ADD MSTORE PUSH2 0x735 ADD MSTORE PUSH0 PUSH2 0x281 ADD MSTORE PUSH0 DUP2 DUP2 PUSH2 0x197 ADD MSTORE DUP2 DUP2 PUSH2 0x653 ADD MSTORE DUP2 DUP2 PUSH2 0x76F ADD MSTORE DUP2 DUP2 PUSH2 0x8C8 ADD MSTORE DUP2 DUP2 PUSH2 0xA3B ADD MSTORE DUP2 DUP2 PUSH2 0xE7B ADD MSTORE DUP2 DUP2 PUSH2 0x1256 ADD MSTORE DUP2 DUP2 PUSH2 0x1522 ADD MSTORE DUP2 DUP2 PUSH2 0x1826 ADD MSTORE PUSH2 0x18F8 ADD MSTORE PUSH2 0x23A0 PUSH0 RETURN INVALID PUSH1 0x80 PUSH1 0x40 MSTORE PUSH1 0x4 CALLDATASIZE LT PUSH2 0xE7 JUMPI PUSH0 CALLDATALOAD PUSH1 0xE0 SHR DUP1 PUSH4 0x9DE38AF2 GT PUSH2 0x87 JUMPI DUP1 PUSH4 0xD438A3CE GT PUSH2 0x57 JUMPI DUP1 PUSH4 0xD438A3CE EQ PUSH2 0x309 JUMPI DUP1 PUSH4 0xD73CEB3A EQ PUSH2 0x328 JUMPI DUP1 PUSH4 0xDA35C664 EQ PUSH2 0x347 JUMPI DUP1 PUSH4 0xDFE1E6B2 EQ PUSH2 0x35B JUMPI PUSH0 PUSH0 REVERT JUMPDEST DUP1 PUSH4 0x9DE38AF2 EQ PUSH2 0x270 JUMPI DUP1 PUSH4 0xA0EDBCBB EQ PUSH2 0x2A3 JUMPI DUP1 PUSH4 0xB58131B0 EQ PUSH2 0x2D6 JUMPI DUP1 PUSH4 0xC14B8E9C EQ PUSH2 0x2EA JUMPI PUSH0 PUSH0 REVERT JUMPDEST DUP1 PUSH4 0x43859632 GT PUSH2 0xC2 JUMPI DUP1 PUSH4 0x43859632 EQ PUSH2 0x1DE JUMPI DUP1 PUSH4 0x662BEDE3 EQ PUSH2 0x227 JUMPI DUP1 PUSH4 0x7B7A91DD EQ PUSH2 0x23C JUMPI DUP1 PUSH4 0x7C29CB1A EQ PUSH2 0x251 JUMPI PUSH0 PUSH0 REVERT JUMPDEST DUP1 PUSH4 0x13CF08B EQ PUSH2 0xF2 JUMPI DUP1 PUSH4 0x2A251A3 EQ PUSH2 0x145 JUMPI DUP1 PUSH4 0x22F80D11 EQ PUSH2 0x186 JUMPI PUSH0 PUSH0 REVERT JUMPDEST CALLDATASIZE PUSH2 0xEE JUMPI STOP JUMPDEST PUSH0 PUSH0 REVERT JUMPDEST CALLVALUE DUP1 ISZERO PUSH2 0xFD JUMPI PUSH0 PUSH0 REVERT JUMPDEST POP PUSH2 0x111 PUSH2 0x10C CALLDATASIZE PUSH1 0x4 PUSH2 0x1997 JUMP JUMPDEST PUSH2 0x37A JUMP JUMPDEST PUSH1 0x40 DUP1 MLOAD SWAP7 DUP8 MSTORE PUSH1 0x20 DUP8 ADD SWAP6 SWAP1 SWAP6 MSTORE SWAP4 DUP6 ADD SWAP3 SWAP1 SWAP3 MSTORE PUSH1 0x60 DUP5 ADD MSTORE PUSH1 0x80 DUP4 ADD MSTORE ISZERO ISZERO PUSH1 0xA0 DUP3 ADD MSTORE PUSH1 0xC0 ADD JUMPDEST PUSH1 0x40 MLOAD DUP1 SWAP2 SUB SWAP1 RETURN JUMPDEST CALLVALUE DUP1 ISZERO PUSH2 0x150 JUMPI PUSH0 PUSH0 REVERT JUMPDEST POP PUSH2 0x178 PUSH32 0x0 DUP2 JUMP JUMPDEST PUSH1 0x40 MLOAD SWAP1 DUP2 MSTORE PUSH1 0x20 ADD PUSH2 0x13C JUMP JUMPDEST CALLVALUE DUP1 ISZERO PUSH2 0x191 JUMPI PUSH0 PUSH0 REVERT JUMPDEST POP PUSH2 0x1B9 PUSH32 0x0 DUP2 JUMP JUMPDEST PUSH1 0x40 MLOAD PUSH20 0xFFFFFFFFFFFFFFFFFFFFFFFFFFFFFFFFFFFFFFFF SWAP1 SWAP2 AND DUP2 MSTORE PUSH1 0x20 ADD PUSH2 0x13C JUMP JUMPDEST CALLVALUE DUP1 ISZERO PUSH2 0x1E9 JUMPI PUSH0 PUSH0 REVERT JUMPDEST POP PUSH2 0x217 PUSH2 0x1F8 CALLDATASIZE PUSH1 0x4 PUSH2 0x19D2 JUMP JUMPDEST PUSH1 0x3 PUSH1 0x20 SWAP1 DUP2 MSTORE PUSH0 SWAP3 DUP4 MSTORE PUSH1 0x40 DUP1 DUP5 KECCAK256 SWAP1 SWAP2 MSTORE SWAP1 DUP3 MSTORE SWAP1 KECCAK256 SLOAD PUSH1 0xFF AND DUP2 JUMP JUMPDEST PUSH1 0x40 MLOAD SWAP1 ISZERO ISZERO DUP2 MSTORE PUSH1 0x20 ADD PUSH2 0x13C JUMP JUMPDEST PUSH2 0x23A PUSH2 0x235 CALLDATASIZE PUSH1 0x4 PUSH2 0x1C58 JUMP JUMPDEST PUSH2 0x3C1 JUMP JUMPDEST STOP JUMPDEST CALLVALUE DUP1 ISZERO PUSH2 0x247 JUMPI PUSH0 PUSH0 REVERT JUMPDEST POP PUSH2 0x178 PUSH1 0x1 SLOAD DUP2 JUMP JUMPDEST CALLVALUE DUP1 ISZERO PUSH2 0x25C JUMPI PUSH0 PUSH0 REVERT JUMPDEST POP PUSH2 0x178 PUSH2 0x26B CALLDATASIZE PUSH1 0x4 PUSH2 0x1CF7 JUMP JUMPDEST PUSH2 0x64F JUMP JUMPDEST CALLVALUE DUP1 ISZERO PUSH2 0x27B JUMPI PUSH0 PUSH0 REVERT JUMPDEST POP PUSH2 0x1B9 PUSH32 0x0 DUP2 JUMP JUMPDEST CALLVALUE DUP1 ISZERO PUSH2 0x2AE JUMPI PUSH0 PUSH0 REVERT JUMPDEST POP PUSH2 0x178 PUSH32 0x0 DUP2 JUMP JUMPDEST CALLVALUE DUP1 ISZERO PUSH2 0x2E1 JUMPI PUSH0 PUSH0 REVERT JUMPDEST POP PUSH2 0x178 PUSH0 SLOAD DUP2 JUMP JUMPDEST CALLVALUE DUP1 ISZERO PUSH2 0x2F5 JUMPI PUSH0 PUSH0 REVERT JUMPDEST POP PUSH2 0x23A PUSH2 0x304 CALLDATASIZE PUSH1 0x4 PUSH2 0x1D3A JUMP JUMPDEST PUSH2 0xB3A JUMP JUMPDEST CALLVALUE DUP1 ISZERO PUSH2 0x314 JUMPI PUSH0 PUSH0 REVERT JUMPDEST POP PUSH2 0x23A PUSH2 0x323 CALLDATASIZE PUSH1 0x4 PUSH2 0x1D6E JUMP JUMPDEST PUSH2 0xBAD JUMP JUMPDEST CALLVALUE DUP1 ISZERO PUSH2 0x333 JUMPI PUSH0 PUSH0 REVERT JUMPDEST POP PUSH2 0x178 PUSH2 0x342 CALLDATASIZE PUSH1 0x4 PUSH2 0x1DEA JUMP JUMPDEST PUSH2 0xD73 JUMP JUMPDEST CALLVALUE DUP1 ISZERO PUSH2 0x352 JUMPI PUSH0 PUSH0 REVERT JUMPDEST POP PUSH1 0x2 SLOAD PUSH2 0x178 JUMP JUMPDEST CALLVALUE DUP1 ISZERO PUSH2 0x366 JUMPI PUSH0 PUSH0 REVERT JUMPDEST POP PUSH2 0x23A PUSH2 0x375 CALLDATASIZE PUSH1 0x4 PUSH2 0x1E95 JUMP JUMPDEST PUSH2 0x1061 JUMP JUMPDEST PUSH1 0x2 DUP2 DUP2 SLOAD DUP2 LT PUSH2 0x389 JUMPI PUSH0 DUP1 REVERT JUMPDEST PUSH0 SWAP2 DUP3 MSTORE PUSH1 0x20 SWAP1 SWAP2 KECCAK256 PUSH1 0x6 SWAP1 SWAP2 MUL ADD DUP1 SLOAD PUSH1 0x1 DUP3 ADD SLOAD PUSH1 0x2 DUP4 ADD SLOAD PUSH1 0x3 DUP5 ADD SLOAD PUSH1 0x4 DUP6 ADD SLOAD PUSH1 0x5 SWAP1 SWAP6 ADD SLOAD SWAP4 SWAP6 POP SWAP2 SWAP4 SWAP1 SWAP3 PUSH1 0xFF AND DUP7 JUMP JUMPDEST PUSH1 0x2 SLOAD DUP3 LT PUSH2 0x431 JUMPI PUSH1 0x40 MLOAD PUSH32 0x8C379A000000000000000000000000000000000000000000000000000000000 DUP2 MSTORE PUSH1 0x20 PUSH1 0x4 DUP3 ADD MSTORE PUSH1 0x1B PUSH1 0x24 DUP3 ADD MSTORE PUSH32 0x657865637574652F494E56414C49445F50524F504F53414C5F49440000000000 PUSH1 0x44 DUP3 ADD MSTORE PUSH1 0x64 ADD JUMPDEST PUSH1 0x40 MLOAD DUP1 SWAP2 SUB SWAP1 REVERT JUMPDEST PUSH0 PUSH1 0x2 DUP4 DUP2 SLOAD DUP2 LT PUSH2 0x445 JUMPI PUSH2 0x445 PUSH2 0x1EE8 JUMP JUMPDEST PUSH0 SWAP2 DUP3 MSTORE PUSH1 0x20 SWAP2 DUP3 SWAP1 KECCAK256 PUSH1 0x40 DUP1 MLOAD PUSH1 0xC0 DUP2 ADD DUP3 MSTORE PUSH1 0x6 SWAP1 SWAP4 MUL SWAP1 SWAP2 ADD DUP1 SLOAD DUP4 MSTORE PUSH1 0x1 DUP2 ADD SLOAD SWAP4 DUP4 ADD SWAP4 SWAP1 SWAP4 MSTORE PUSH1 0x2 DUP4 ADD SLOAD SWAP1 DUP3 ADD MSTORE PUSH1 0x3 DUP3 ADD SLOAD PUSH1 0x60 DUP3 ADD MSTORE PUSH1 0x4 DUP3 ADD SLOAD PUSH1 0x80 DUP3 ADD MSTORE PUSH1 0x5 SWAP1 SWAP2 ADD SLOAD PUSH1 0xFF AND ISZERO ISZERO PUSH1 0xA0 DUP3 ADD MSTORE SWAP1 POP PUSH2 0x4AA DUP2 DUP4 PUSH2 0x1072 JUMP JUMPDEST PUSH1 0x1 PUSH1 0x2 DUP5 DUP2 SLOAD DUP2 LT PUSH2 0x4BF JUMPI PUSH2 0x4BF PUSH2 0x1EE8 JUMP JUMPDEST PUSH0 SWAP2 DUP3 MSTORE PUSH1 0x20 DUP3 KECCAK256 PUSH1 0x6 SWAP2 SWAP1 SWAP2 MUL ADD PUSH1 0x5 ADD DUP1 SLOAD PUSH32 0xFFFFFFFFFFFFFFFFFFFFFFFFFFFFFFFFFFFFFFFFFFFFFFFFFFFFFFFFFFFFFF00 AND SWAP3 ISZERO ISZERO SWAP3 SWAP1 SWAP3 OR SWAP1 SWAP2 SSTORE JUMPDEST DUP3 MLOAD DUP2 EQ PUSH2 0x616 JUMPI PUSH0 DUP4 DUP3 DUP2 MLOAD DUP2 LT PUSH2 0x51B JUMPI PUSH2 0x51B PUSH2 0x1EE8 JUMP JUMPDEST PUSH1 0x20 MUL PUSH1 0x20 ADD ADD MLOAD SWAP1 POP PUSH0 DUP2 PUSH0 ADD MLOAD PUSH20 0xFFFFFFFFFFFFFFFFFFFFFFFFFFFFFFFFFFFFFFFF AND DUP3 PUSH1 0x40 ADD MLOAD DUP4 PUSH1 0x20 ADD MLOAD PUSH1 0x40 MLOAD PUSH2 0x557 SWAP2 SWAP1 PUSH2 0x1F15 JUMP JUMPDEST PUSH0 PUSH1 0x40 MLOAD DUP1 DUP4 SUB DUP2 DUP6 DUP8 GAS CALL SWAP3 POP POP POP RETURNDATASIZE DUP1 PUSH0 DUP2 EQ PUSH2 0x591 JUMPI PUSH1 0x40 MLOAD SWAP2 POP PUSH1 0x1F NOT PUSH1 0x3F RETURNDATASIZE ADD AND DUP3 ADD PUSH1 0x40 MSTORE RETURNDATASIZE DUP3 MSTORE RETURNDATASIZE PUSH0 PUSH1 0x20 DUP5 ADD RETURNDATACOPY PUSH2 0x596 JUMP JUMPDEST PUSH1 0x60 SWAP2 POP JUMPDEST POP POP SWAP1 POP DUP1 PUSH2 0x601 JUMPI PUSH1 0x40 MLOAD PUSH32 0x8C379A000000000000000000000000000000000000000000000000000000000 DUP2 MSTORE PUSH1 0x20 PUSH1 0x4 DUP3 ADD MSTORE PUSH1 0x1F PUSH1 0x24 DUP3 ADD MSTORE PUSH32 0x657865637574652F414354494F4E5F455845435554494F4E5F4641494C454400 PUSH1 0x44 DUP3 ADD MSTORE PUSH1 0x64 ADD PUSH2 0x428 JUMP JUMPDEST POP POP DUP1 DUP1 PUSH2 0x60E SWAP1 PUSH2 0x1F58 JUMP JUMPDEST SWAP2 POP POP PUSH2 0x500 JUMP JUMPDEST POP PUSH1 0x40 MLOAD DUP4 DUP2 MSTORE PUSH32 0x712AE1383F79AC853F8D882153778E0260EF8F03B504E2866E0593E04D2B291F SWAP1 PUSH1 0x20 ADD PUSH1 0x40 MLOAD DUP1 SWAP2 SUB SWAP1 LOG1 POP POP POP JUMP JUMPDEST PUSH0 PUSH0 PUSH32 0x0 PUSH20 0xFFFFFFFFFFFFFFFFFFFFFFFFFFFFFFFFFFFFFFFF AND PUSH4 0x44A6958B DUP6 PUSH1 0x1 PUSH1 0x40 MLOAD DUP4 PUSH4 0xFFFFFFFF AND PUSH1 0xE0 SHL DUP2 MSTORE PUSH1 0x4 ADD PUSH2 0x6AD SWAP3 SWAP2 SWAP1 PUSH2 0x1F8F JUMP JUMPDEST PUSH1 0x60 PUSH1 0x40 MLOAD DUP1 DUP4 SUB DUP2 DUP7 GAS STATICCALL ISZERO DUP1 ISZERO PUSH2 0x6C8 JUMPI RETURNDATASIZE PUSH0 PUSH0 RETURNDATACOPY RETURNDATASIZE PUSH0 REVERT JUMPDEST POP POP POP POP PUSH1 0x40 MLOAD RETURNDATASIZE PUSH1 0x1F NOT PUSH1 0x1F DUP3 ADD AND DUP3 ADD DUP1 PUSH1 0x40 MSTORE POP DUP2 ADD SWAP1 PUSH2 0x6EC SWAP2 SWAP1 PUSH2 0x2009 JUMP JUMPDEST PUSH1 0x20 ADD MLOAD PUSH1 0x40 MLOAD PUSH32 0xF252B7A100000000000000000000000000000000000000000000000000000000 DUP2 MSTORE PUSH20 0xFFFFFFFFFFFFFFFFFFFFFFFFFFFFFFFFFFFFFFFF DUP7 DUP2 AND PUSH1 0x4 DUP4 ADD MSTORE PUSH32 0x0 PUSH1 0x24 DUP4 ADD MSTORE PUSH12 0xFFFFFFFFFFFFFFFFFFFFFFFF SWAP1 SWAP3 AND SWAP3 POP PUSH0 SWAP2 PUSH32 0x0 AND SWAP1 PUSH4 0xF252B7A1 SWAP1 PUSH1 0x44 ADD PUSH1 0x60 PUSH1 0x40 MLOAD DUP1 DUP4 SUB DUP2 DUP7 GAS STATICCALL ISZERO DUP1 ISZERO PUSH2 0x7B4 JUMPI RETURNDATASIZE PUSH0 PUSH0 RETURNDATACOPY RETURNDATASIZE PUSH0 REVERT JUMPDEST POP POP POP POP PUSH1 0x40 MLOAD RETURNDATASIZE PUSH1 0x1F NOT PUSH1 0x1F DUP3 ADD AND DUP3 ADD DUP1 PUSH1 0x40 MSTORE POP DUP2 ADD SWAP1 PUSH2 0x7D8 SWAP2 SWAP1 PUSH2 0x2009 JUMP JUMPDEST PUSH1 0x20 ADD MLOAD PUSH12 0xFFFFFFFFFFFFFFFFFFFFFFFF AND SWAP1 POP PUSH1 0x2 PUSH2 0x7F8 DUP3 DUP5 PUSH2 0x2065 JUMP JUMPDEST PUSH2 0x802 SWAP2 SWAP1 PUSH2 0x2078 JUMP JUMPDEST SWAP3 POP PUSH0 JUMPDEST DUP5 MLOAD DUP2 EQ PUSH2 0xB30 JUMPI PUSH0 JUMPDEST DUP2 DUP2 EQ PUSH2 0x8C4 JUMPI DUP6 DUP2 DUP2 MLOAD DUP2 LT PUSH2 0x829 JUMPI PUSH2 0x829 PUSH2 0x1EE8 JUMP JUMPDEST PUSH1 0x20 MUL PUSH1 0x20 ADD ADD MLOAD DUP7 DUP4 DUP2 MLOAD DUP2 LT PUSH2 0x843 JUMPI PUSH2 0x843 PUSH2 0x1EE8 JUMP JUMPDEST PUSH1 0x20 MUL PUSH1 0x20 ADD ADD MLOAD SUB PUSH2 0x8B2 JUMPI PUSH1 0x40 MLOAD PUSH32 0x8C379A000000000000000000000000000000000000000000000000000000000 DUP2 MSTORE PUSH1 0x20 PUSH1 0x4 DUP3 ADD DUP2 SWAP1 MSTORE PUSH1 0x24 DUP3 ADD MSTORE PUSH32 0x676574566F74696E67506F7765722F4455504C49434154455F504F4F4C5F4944 PUSH1 0x44 DUP3 ADD MSTORE PUSH1 0x64 ADD PUSH2 0x428 JUMP JUMPDEST DUP1 PUSH2 0x8BC DUP2 PUSH2 0x1F58 JUMP JUMPDEST SWAP2 POP POP PUSH2 0x810 JUMP JUMPDEST POP PUSH0 PUSH32 0x0 PUSH20 0xFFFFFFFFFFFFFFFFFFFFFFFFFFFFFFFFFFFFFFFF AND PUSH4 0x4BCC3F67 DUP8 DUP5 DUP2 MLOAD DUP2 LT PUSH2 0x914 JUMPI PUSH2 0x914 PUSH2 0x1EE8 JUMP JUMPDEST PUSH1 0x20 MUL PUSH1 0x20 ADD ADD MLOAD PUSH1 0x40 MLOAD DUP3 PUSH4 0xFFFFFFFF AND PUSH1 0xE0 SHL DUP2 MSTORE PUSH1 0x4 ADD PUSH2 0x93A SWAP2 DUP2 MSTORE PUSH1 0x20 ADD SWAP1 JUMP JUMPDEST PUSH1 0x40 DUP1 MLOAD DUP1 DUP4 SUB DUP2 DUP7 GAS STATICCALL ISZERO DUP1 ISZERO PUSH2 0x954 JUMPI RETURNDATASIZE PUSH0 PUSH0 RETURNDATACOPY RETURNDATASIZE PUSH0 REVERT JUMPDEST POP POP POP POP PUSH1 0x40 MLOAD RETURNDATASIZE PUSH1 0x1F NOT PUSH1 0x1F DUP3 ADD AND DUP3 ADD DUP1 PUSH1 0x40 MSTORE POP DUP2 ADD SWAP1 PUSH2 0x978 SWAP2 SWAP1 PUSH2 0x20B0 JUMP JUMPDEST SWAP1 POP DUP7 PUSH20 0xFFFFFFFFFFFFFFFFFFFFFFFFFFFFFFFFFFFFFFFF AND DUP2 PUSH0 ADD MLOAD PUSH20 0xFFFFFFFFFFFFFFFFFFFFFFFFFFFFFFFFFFFFFFFF AND EQ PUSH2 0xA38 JUMPI PUSH1 0x40 MLOAD PUSH32 0x8C379A000000000000000000000000000000000000000000000000000000000 DUP2 MSTORE PUSH1 0x20 PUSH1 0x4 DUP3 ADD MSTORE PUSH1 0x2B PUSH1 0x24 DUP3 ADD MSTORE PUSH32 0x676574566F74696E67506F7765722F504F4F4C5F4E4F545F4F50455241544544 PUSH1 0x44 DUP3 ADD MSTORE PUSH32 0x5F42595F4143434F554E54000000000000000000000000000000000000000000 PUSH1 0x64 DUP3 ADD MSTORE PUSH1 0x84 ADD PUSH2 0x428 JUMP JUMPDEST PUSH0 PUSH32 0x0 PUSH20 0xFFFFFFFFFFFFFFFFFFFFFFFFFFFFFFFFFFFFFFFF AND PUSH4 0x3E4AD732 DUP9 DUP6 DUP2 MLOAD DUP2 LT PUSH2 0xA87 JUMPI PUSH2 0xA87 PUSH2 0x1EE8 JUMP JUMPDEST PUSH1 0x20 MUL PUSH1 0x20 ADD ADD MLOAD PUSH1 0x40 MLOAD DUP3 PUSH4 0xFFFFFFFF AND PUSH1 0xE0 SHL DUP2 MSTORE PUSH1 0x4 ADD PUSH2 0xAAD SWAP2 DUP2 MSTORE PUSH1 0x20 ADD SWAP1 JUMP JUMPDEST PUSH1 0x60 PUSH1 0x40 MLOAD DUP1 DUP4 SUB DUP2 DUP7 GAS STATICCALL ISZERO DUP1 ISZERO PUSH2 0xAC8 JUMPI RETURNDATASIZE PUSH0 PUSH0 RETURNDATACOPY RETURNDATASIZE PUSH0 REVERT JUMPDEST POP POP POP POP PUSH1 0x40 MLOAD RETURNDATASIZE PUSH1 0x1F NOT PUSH1 0x1F DUP3 ADD AND DUP3 ADD DUP1 PUSH1 0x40 MSTORE POP DUP2 ADD SWAP1 PUSH2 0xAEC SWAP2 SWAP1 PUSH2 0x2009 JUMP JUMPDEST PUSH1 0x20 ADD MLOAD SWAP1 POP PUSH0 PUSH2 0xB0C PUSH1 0x2 PUSH12 0xFFFFFFFFFFFFFFFFFFFFFFFF DUP5 AND PUSH2 0x2078 JUMP JUMPDEST SWAP1 POP PUSH2 0xB18 DUP2 DUP9 PUSH2 0x2065 JUMP JUMPDEST SWAP7 POP POP POP POP DUP1 DUP1 PUSH2 0xB28 SWAP1 PUSH2 0x1F58 JUMP JUMPDEST SWAP2 POP POP PUSH2 0x806 JUMP JUMPDEST POP POP POP JUMPDEST SWAP3 SWAP2 POP POP JUMP JUMPDEST CALLER ADDRESS EQ PUSH2 0xBA3 JUMPI PUSH1 0x40 MLOAD PUSH32 0x8C379A000000000000000000000000000000000000000000000000000000000 DUP2 MSTORE PUSH1 0x20 PUSH1 0x4 DUP3 ADD MSTORE PUSH1 0x1A PUSH1 0x24 DUP3 ADD MSTORE PUSH32 0x7570646174655468726573686F6C64732F4F4E4C595F53454C46000000000000 PUSH1 0x44 DUP3 ADD MSTORE PUSH1 0x64 ADD PUSH2 0x428 JUMP JUMPDEST PUSH0 SWAP2 SWAP1 SWAP2 SSTORE PUSH1 0x1 SSTORE JUMP JUMPDEST PUSH0 PUSH32 0x1E5642E3D26F0A340FB17E122193A3CD21B85477A8A2FB82E99EF31FA9927BD5 DUP8 DUP8 DUP8 PUSH1 0x40 MLOAD PUSH1 0x20 ADD PUSH2 0xBE2 SWAP2 SWAP1 PUSH2 0x2117 JUMP JUMPDEST PUSH1 0x40 DUP1 MLOAD PUSH32 0xFFFFFFFFFFFFFFFFFFFFFFFFFFFFFFFFFFFFFFFFFFFFFFFFFFFFFFFFFFFFFFE0 DUP2 DUP5 SUB ADD DUP2 MSTORE DUP3 DUP3 MSTORE DUP1 MLOAD PUSH1 0x20 SWAP2 DUP3 ADD KECCAK256 SWAP1 DUP4 ADD SWAP6 SWAP1 SWAP6 MSTORE DUP2 ADD SWAP3 SWAP1 SWAP3 MSTORE ISZERO ISZERO PUSH1 0x60 DUP3 ADD MSTORE PUSH1 0x80 DUP2 ADD SWAP2 SWAP1 SWAP2 MSTORE PUSH1 0xA0 ADD PUSH1 0x40 DUP1 MLOAD PUSH32 0xFFFFFFFFFFFFFFFFFFFFFFFFFFFFFFFFFFFFFFFFFFFFFFFFFFFFFFFFFFFFFFE0 DUP2 DUP5 SUB ADD DUP2 MSTORE SWAP1 DUP3 SWAP1 MSTORE DUP1 MLOAD PUSH1 0x20 SWAP2 DUP3 ADD KECCAK256 PUSH32 0x1901000000000000000000000000000000000000000000000000000000000000 SWAP2 DUP4 ADD SWAP2 SWAP1 SWAP2 MSTORE PUSH32 0x0 PUSH1 0x22 DUP4 ADD MSTORE PUSH1 0x42 DUP3 ADD DUP2 SWAP1 MSTORE SWAP2 POP PUSH0 SWAP1 PUSH1 0x62 ADD PUSH1 0x40 DUP1 MLOAD PUSH32 0xFFFFFFFFFFFFFFFFFFFFFFFFFFFFFFFFFFFFFFFFFFFFFFFFFFFFFFFFFFFFFFE0 DUP2 DUP5 SUB ADD DUP2 MSTORE DUP3 DUP3 MSTORE DUP1 MLOAD PUSH1 0x20 SWAP2 DUP3 ADD KECCAK256 PUSH0 DUP1 DUP6 MSTORE SWAP2 DUP5 ADD DUP1 DUP5 MSTORE DUP2 SWAP1 MSTORE PUSH1 0xFF DUP10 AND SWAP3 DUP5 ADD SWAP3 SWAP1 SWAP3 MSTORE PUSH1 0x60 DUP4 ADD DUP8 SWAP1 MSTORE PUSH1 0x80 DUP4 ADD DUP7 SWAP1 MSTORE SWAP1 SWAP3 POP SWAP1 PUSH1 0x1 SWAP1 PUSH1 0xA0 ADD PUSH1 0x20 PUSH1 0x40 MLOAD PUSH1 0x20 DUP2 SUB SWAP1 DUP1 DUP5 SUB SWAP1 DUP6 GAS STATICCALL ISZERO DUP1 ISZERO PUSH2 0xD50 JUMPI RETURNDATASIZE PUSH0 PUSH0 RETURNDATACOPY RETURNDATASIZE PUSH0 REVERT JUMPDEST POP POP POP PUSH1 0x20 PUSH1 0x40 MLOAD SUB MLOAD SWAP1 POP PUSH2 0xD68 DUP2 DUP11 DUP11 DUP11 PUSH2 0x1372 JUMP JUMPDEST POP POP POP POP POP POP POP POP POP JUMP JUMPDEST PUSH0 PUSH0 SLOAD PUSH2 0xD80 CALLER DUP5 PUSH2 0x64F JUMP JUMPDEST LT ISZERO PUSH2 0xE0E JUMPI PUSH1 0x40 MLOAD PUSH32 0x8C379A000000000000000000000000000000000000000000000000000000000 DUP2 MSTORE PUSH1 0x20 PUSH1 0x4 DUP3 ADD MSTORE PUSH1 0x21 PUSH1 0x24 DUP3 ADD MSTORE PUSH32 0x70726F706F73652F494E53554646494349454E545F564F54494E475F504F5745 PUSH1 0x44 DUP3 ADD MSTORE PUSH32 0x5200000000000000000000000000000000000000000000000000000000000000 PUSH1 0x64 DUP3 ADD MSTORE PUSH1 0x84 ADD PUSH2 0x428 JUMP JUMPDEST PUSH0 DUP6 MLOAD GT PUSH2 0xE78 JUMPI PUSH1 0x40 MLOAD PUSH32 0x8C379A000000000000000000000000000000000000000000000000000000000 DUP2 MSTORE PUSH1 0x20 PUSH1 0x4 DUP3 ADD MSTORE PUSH1 0x1B PUSH1 0x24 DUP3 ADD MSTORE PUSH32 0x70726F706F73652F4E4F5F414354494F4E535F50524F504F5345440000000000 PUSH1 0x44 DUP3 ADD MSTORE PUSH1 0x64 ADD PUSH2 0x428 JUMP JUMPDEST PUSH0 PUSH32 0x0 PUSH20 0xFFFFFFFFFFFFFFFFFFFFFFFFFFFFFFFFFFFFFFFF AND PUSH4 0x76671808 PUSH1 0x40 MLOAD DUP2 PUSH4 0xFFFFFFFF AND PUSH1 0xE0 SHL DUP2 MSTORE PUSH1 0x4 ADD PUSH1 0x20 PUSH1 0x40 MLOAD DUP1 DUP4 SUB DUP2 DUP7 GAS STATICCALL ISZERO DUP1 ISZERO PUSH2 0xEE2 JUMPI RETURNDATASIZE PUSH0 PUSH0 RETURNDATACOPY RETURNDATASIZE PUSH0 REVERT JUMPDEST POP POP POP POP PUSH1 0x40 MLOAD RETURNDATASIZE PUSH1 0x1F NOT PUSH1 0x1F DUP3 ADD AND DUP3 ADD DUP1 PUSH1 0x40 MSTORE POP DUP2 ADD SWAP1 PUSH2 0xF06 SWAP2 SWAP1 PUSH2 0x214C JUMP JUMPDEST SWAP1 POP PUSH2 0xF13 DUP2 PUSH1 0x2 PUSH2 0x2065 JUMP JUMPDEST DUP6 LT ISZERO PUSH2 0xF7C JUMPI PUSH1 0x40 MLOAD PUSH32 0x8C379A000000000000000000000000000000000000000000000000000000000 DUP2 MSTORE PUSH1 0x20 PUSH1 0x4 DUP3 ADD MSTORE PUSH1 0x1F PUSH1 0x24 DUP3 ADD MSTORE PUSH32 0x70726F706F73652F494E56414C49445F455845435554494F4E5F45504F434800 PUSH1 0x44 DUP3 ADD MSTORE PUSH1 0x64 ADD PUSH2 0x428 JUMP JUMPDEST PUSH1 0x2 DUP1 SLOAD PUSH1 0x1 DUP2 ADD DUP3 SSTORE PUSH0 SWAP2 SWAP1 SWAP2 MSTORE PUSH1 0x40 MLOAD SWAP1 SWAP3 POP PUSH32 0x405787FA12A823E0F2B7631CC41B3BA8828B3321CA811111FA75CD3AA3BB5ACE PUSH1 0x6 DUP5 MUL ADD SWAP1 PUSH2 0xFC6 SWAP1 DUP9 SWAP1 PUSH1 0x20 ADD PUSH2 0x225F JUMP JUMPDEST PUSH1 0x40 DUP1 MLOAD PUSH32 0xFFFFFFFFFFFFFFFFFFFFFFFFFFFFFFFFFFFFFFFFFFFFFFFFFFFFFFFFFFFFFFE0 DUP2 DUP5 SUB ADD DUP2 MSTORE SWAP2 SWAP1 MSTORE DUP1 MLOAD PUSH1 0x20 SWAP1 SWAP2 ADD KECCAK256 DUP2 SSTORE PUSH1 0x1 DUP2 ADD DUP7 SWAP1 SSTORE PUSH2 0x1010 DUP3 PUSH1 0x2 PUSH2 0x2065 JUMP JUMPDEST PUSH1 0x2 DUP3 ADD SSTORE PUSH1 0x40 MLOAD PUSH32 0x7E5C3A7773C4F27D279F6B711BE3046CADEDC9B136CA15D4D06E3AA7EC95340A SWAP1 PUSH2 0x104F SWAP1 CALLER SWAP1 DUP8 SWAP1 DUP8 SWAP1 DUP13 SWAP1 DUP13 SWAP1 DUP13 SWAP1 PUSH2 0x22B2 JUMP JUMPDEST PUSH1 0x40 MLOAD DUP1 SWAP2 SUB SWAP1 LOG1 POP POP SWAP5 SWAP4 POP POP POP POP JUMP JUMPDEST PUSH2 0x106D CALLER DUP5 DUP5 DUP5 PUSH2 0x1372 JUMP JUMPDEST POP POP POP JUMP JUMPDEST DUP2 MLOAD PUSH1 0x40 MLOAD PUSH2 0x1085 SWAP1 DUP4 SWAP1 PUSH1 0x20 ADD PUSH2 0x225F JUMP JUMPDEST PUSH1 0x40 MLOAD PUSH1 0x20 DUP2 DUP4 SUB SUB DUP2 MSTORE SWAP1 PUSH1 0x40 MSTORE DUP1 MLOAD SWAP1 PUSH1 0x20 ADD KECCAK256 EQ PUSH2 0x1128 JUMPI PUSH1 0x40 MLOAD PUSH32 0x8C379A000000000000000000000000000000000000000000000000000000000 DUP2 MSTORE PUSH1 0x20 PUSH1 0x4 DUP3 ADD MSTORE PUSH1 0x29 PUSH1 0x24 DUP3 ADD MSTORE PUSH32 0x5F61737365727450726F706F73616C45786563757461626C652F494E56414C49 PUSH1 0x44 DUP3 ADD MSTORE PUSH32 0x445F414354494F4E530000000000000000000000000000000000000000000000 PUSH1 0x64 DUP3 ADD MSTORE PUSH1 0x84 ADD PUSH2 0x428 JUMP JUMPDEST PUSH2 0x1131 DUP3 PUSH2 0x17D6 JUMP JUMPDEST PUSH2 0x11BD JUMPI PUSH1 0x40 MLOAD PUSH32 0x8C379A000000000000000000000000000000000000000000000000000000000 DUP2 MSTORE PUSH1 0x20 PUSH1 0x4 DUP3 ADD MSTORE PUSH1 0x31 PUSH1 0x24 DUP3 ADD MSTORE PUSH32 0x5F61737365727450726F706F73616C45786563757461626C652F50524F504F53 PUSH1 0x44 DUP3 ADD MSTORE PUSH32 0x414C5F4841535F4E4F545F504153534544000000000000000000000000000000 PUSH1 0x64 DUP3 ADD MSTORE PUSH1 0x84 ADD PUSH2 0x428 JUMP JUMPDEST DUP2 PUSH1 0xA0 ADD MLOAD ISZERO PUSH2 0x124F JUMPI PUSH1 0x40 MLOAD PUSH32 0x8C379A000000000000000000000000000000000000000000000000000000000 DUP2 MSTORE PUSH1 0x20 PUSH1 0x4 DUP3 ADD MSTORE PUSH1 0x33 PUSH1 0x24 DUP3 ADD MSTORE PUSH32 0x5F61737365727450726F706F73616C45786563757461626C652F50524F504F53 PUSH1 0x44 DUP3 ADD MSTORE PUSH32 0x414C5F414C52454144595F455845435554454400000000000000000000000000 PUSH1 0x64 DUP3 ADD MSTORE PUSH1 0x84 ADD PUSH2 0x428 JUMP JUMPDEST DUP2 PUSH1 0x20 ADD MLOAD PUSH32 0x0 PUSH20 0xFFFFFFFFFFFFFFFFFFFFFFFFFFFFFFFFFFFFFFFF AND PUSH4 0x76671808 PUSH1 0x40 MLOAD DUP2 PUSH4 0xFFFFFFFF AND PUSH1 0xE0 SHL DUP2 MSTORE PUSH1 0x4 ADD PUSH1 0x20 PUSH1 0x40 MLOAD DUP1 DUP4 SUB DUP2 DUP7 GAS STATICCALL ISZERO DUP1 ISZERO PUSH2 0x12BD JUMPI RETURNDATASIZE PUSH0 PUSH0 RETURNDATACOPY RETURNDATASIZE PUSH0 REVERT JUMPDEST POP POP POP POP PUSH1 0x40 MLOAD RETURNDATASIZE PUSH1 0x1F NOT PUSH1 0x1F DUP3 ADD AND DUP3 ADD DUP1 PUSH1 0x40 MSTORE POP DUP2 ADD SWAP1 PUSH2 0x12E1 SWAP2 SWAP1 PUSH2 0x214C JUMP JUMPDEST EQ PUSH2 0x136E JUMPI PUSH1 0x40 MLOAD PUSH32 0x8C379A000000000000000000000000000000000000000000000000000000000 DUP2 MSTORE PUSH1 0x20 PUSH1 0x4 DUP3 ADD MSTORE PUSH1 0x33 PUSH1 0x24 DUP3 ADD MSTORE PUSH32 0x5F61737365727450726F706F73616C45786563757461626C652F43414E4E4F54 PUSH1 0x44 DUP3 ADD MSTORE PUSH32 0x5F455845435554455F544849535F45504F434800000000000000000000000000 PUSH1 0x64 DUP3 ADD MSTORE PUSH1 0x84 ADD PUSH2 0x428 JUMP JUMPDEST POP POP JUMP JUMPDEST PUSH1 0x2 SLOAD DUP4 LT PUSH2 0x13DD JUMPI PUSH1 0x40 MLOAD PUSH32 0x8C379A000000000000000000000000000000000000000000000000000000000 DUP2 MSTORE PUSH1 0x20 PUSH1 0x4 DUP3 ADD MSTORE PUSH1 0x1D PUSH1 0x24 DUP3 ADD MSTORE PUSH32 0x5F63617374566F74652F494E56414C49445F50524F504F53414C5F4944000000 PUSH1 0x44 DUP3 ADD MSTORE PUSH1 0x64 ADD PUSH2 0x428 JUMP JUMPDEST PUSH0 DUP4 DUP2 MSTORE PUSH1 0x3 PUSH1 0x20 SWAP1 DUP2 MSTORE PUSH1 0x40 DUP1 DUP4 KECCAK256 PUSH20 0xFFFFFFFFFFFFFFFFFFFFFFFFFFFFFFFFFFFFFFFF DUP9 AND DUP5 MSTORE SWAP1 SWAP2 MSTORE SWAP1 KECCAK256 SLOAD PUSH1 0xFF AND ISZERO PUSH2 0x1476 JUMPI PUSH1 0x40 MLOAD PUSH32 0x8C379A000000000000000000000000000000000000000000000000000000000 DUP2 MSTORE PUSH1 0x20 PUSH1 0x4 DUP3 ADD MSTORE PUSH1 0x17 PUSH1 0x24 DUP3 ADD MSTORE PUSH32 0x5F63617374566F74652F414C52454144595F564F544544000000000000000000 PUSH1 0x44 DUP3 ADD MSTORE PUSH1 0x64 ADD PUSH2 0x428 JUMP JUMPDEST PUSH0 PUSH1 0x2 DUP5 DUP2 SLOAD DUP2 LT PUSH2 0x148A JUMPI PUSH2 0x148A PUSH2 0x1EE8 JUMP JUMPDEST PUSH0 SWAP2 DUP3 MSTORE PUSH1 0x20 SWAP2 DUP3 SWAP1 KECCAK256 PUSH1 0x40 DUP1 MLOAD PUSH1 0xC0 DUP2 ADD DUP3 MSTORE PUSH1 0x6 SWAP1 SWAP4 MUL SWAP1 SWAP2 ADD DUP1 SLOAD DUP4 MSTORE PUSH1 0x1 DUP2 ADD SLOAD DUP4 DUP6 ADD MSTORE PUSH1 0x2 DUP2 ADD SLOAD DUP4 DUP4 ADD MSTORE PUSH1 0x3 DUP2 ADD SLOAD PUSH1 0x60 DUP5 ADD MSTORE PUSH1 0x4 DUP1 DUP3 ADD SLOAD PUSH1 0x80 DUP6 ADD MSTORE PUSH1 0x5 SWAP1 SWAP2 ADD SLOAD PUSH1 0xFF AND ISZERO ISZERO PUSH1 0xA0 DUP5 ADD MSTORE DUP2 MLOAD PUSH32 0x7667180800000000000000000000000000000000000000000000000000000000 DUP2 MSTORE SWAP2 MLOAD SWAP3 SWAP5 POP PUSH20 0xFFFFFFFFFFFFFFFFFFFFFFFFFFFFFFFFFFFFFFFF PUSH32 0x0 AND SWAP4 PUSH4 0x76671808 SWAP4 DUP4 DUP4 ADD SWAP4 SWAP2 SWAP3 SWAP1 SWAP2 DUP3 SWAP1 SUB ADD DUP2 DUP7 GAS STATICCALL ISZERO DUP1 ISZERO PUSH2 0x1568 JUMPI RETURNDATASIZE PUSH0 PUSH0 RETURNDATACOPY RETURNDATASIZE PUSH0 REVERT JUMPDEST POP POP POP POP PUSH1 0x40 MLOAD RETURNDATASIZE PUSH1 0x1F NOT PUSH1 0x1F DUP3 ADD AND DUP3 ADD DUP1 PUSH1 0x40 MSTORE POP DUP2 ADD SWAP1 PUSH2 0x158C SWAP2 SWAP1 PUSH2 0x214C JUMP JUMPDEST DUP2 PUSH1 0x40 ADD MLOAD EQ ISZERO DUP1 PUSH2 0x15A6 JUMPI POP PUSH2 0x15A6 DUP2 PUSH1 0x40 ADD MLOAD PUSH2 0x1822 JUMP JUMPDEST ISZERO PUSH2 0x160D JUMPI PUSH1 0x40 MLOAD PUSH32 0x8C379A000000000000000000000000000000000000000000000000000000000 DUP2 MSTORE PUSH1 0x20 PUSH1 0x4 DUP3 ADD MSTORE PUSH1 0x1A PUSH1 0x24 DUP3 ADD MSTORE PUSH32 0x5F63617374566F74652F564F54494E475F49535F434C4F534544000000000000 PUSH1 0x44 DUP3 ADD MSTORE PUSH1 0x64 ADD PUSH2 0x428 JUMP JUMPDEST PUSH0 PUSH2 0x1618 DUP7 DUP5 PUSH2 0x64F JUMP JUMPDEST SWAP1 POP DUP1 PUSH0 SUB PUSH2 0x1683 JUMPI PUSH1 0x40 MLOAD PUSH32 0x8C379A000000000000000000000000000000000000000000000000000000000 DUP2 MSTORE PUSH1 0x20 PUSH1 0x4 DUP3 ADD MSTORE PUSH1 0x19 PUSH1 0x24 DUP3 ADD MSTORE PUSH32 0x5F63617374566F74652F4E4F5F564F54494E475F504F57455200000000000000 PUSH1 0x44 DUP3 ADD MSTORE PUSH1 0x64 ADD PUSH2 0x428 JUMP JUMPDEST DUP4 ISZERO PUSH2 0x16E2 JUMPI DUP1 PUSH1 0x2 DUP7 DUP2 SLOAD DUP2 LT PUSH2 0x169D JUMPI PUSH2 0x169D PUSH2 0x1EE8 JUMP JUMPDEST SWAP1 PUSH0 MSTORE PUSH1 0x20 PUSH0 KECCAK256 SWAP1 PUSH1 0x6 MUL ADD PUSH1 0x3 ADD SLOAD PUSH2 0x16B7 SWAP2 SWAP1 PUSH2 0x2065 JUMP JUMPDEST PUSH1 0x2 DUP7 DUP2 SLOAD DUP2 LT PUSH2 0x16CA JUMPI PUSH2 0x16CA PUSH2 0x1EE8 JUMP JUMPDEST SWAP1 PUSH0 MSTORE PUSH1 0x20 PUSH0 KECCAK256 SWAP1 PUSH1 0x6 MUL ADD PUSH1 0x3 ADD DUP2 SWAP1 SSTORE POP PUSH2 0x1737 JUMP JUMPDEST DUP1 PUSH1 0x2 DUP7 DUP2 SLOAD DUP2 LT PUSH2 0x16F6 JUMPI PUSH2 0x16F6 PUSH2 0x1EE8 JUMP JUMPDEST SWAP1 PUSH0 MSTORE PUSH1 0x20 PUSH0 KECCAK256 SWAP1 PUSH1 0x6 MUL ADD PUSH1 0x4 ADD SLOAD PUSH2 0x1710 SWAP2 SWAP1 PUSH2 0x2065 JUMP JUMPDEST PUSH1 0x2 DUP7 DUP2 SLOAD DUP2 LT PUSH2 0x1723 JUMPI PUSH2 0x1723 PUSH2 0x1EE8 JUMP JUMPDEST SWAP1 PUSH0 MSTORE PUSH1 0x20 PUSH0 KECCAK256 SWAP1 PUSH1 0x6 MUL ADD PUSH1 0x4 ADD DUP2 SWAP1 SSTORE POP JUMPDEST PUSH0 DUP6 DUP2 MSTORE PUSH1 0x3 PUSH1 0x20 SWAP1 DUP2 MSTORE PUSH1 0x40 DUP1 DUP4 KECCAK256 PUSH20 0xFFFFFFFFFFFFFFFFFFFFFFFFFFFFFFFFFFFFFFFF DUP11 AND DUP5 MSTORE SWAP1 SWAP2 MSTORE SWAP1 DUP2 SWAP1 KECCAK256 DUP1 SLOAD PUSH32 0xFFFFFFFFFFFFFFFFFFFFFFFFFFFFFFFFFFFFFFFFFFFFFFFFFFFFFFFFFFFFFF00 AND PUSH1 0x1 OR SWAP1 SSTORE MLOAD PUSH32 0x42BEAE5DF566D9E7BF8DE84274B353B28960A4FA51CBD2EEC30CD42CBB4CF104 SWAP1 PUSH2 0x17C6 SWAP1 DUP9 SWAP1 DUP7 SWAP1 DUP10 SWAP1 DUP10 SWAP1 DUP8 SWAP1 PUSH2 0x231F JUMP JUMPDEST PUSH1 0x40 MLOAD DUP1 SWAP2 SUB SWAP1 LOG1 POP POP POP POP POP POP JUMP JUMPDEST PUSH0 PUSH2 0x17E4 DUP3 PUSH1 0x40 ADD MLOAD PUSH2 0x1822 JUMP JUMPDEST PUSH2 0x17EF JUMPI POP PUSH0 SWAP2 SWAP1 POP JUMP JUMPDEST DUP2 PUSH1 0x80 ADD MLOAD DUP3 PUSH1 0x60 ADD MLOAD GT PUSH2 0x1805 JUMPI POP PUSH0 SWAP2 SWAP1 POP JUMP JUMPDEST PUSH1 0x1 SLOAD DUP3 PUSH1 0x60 ADD MLOAD LT ISZERO PUSH2 0x181A JUMPI POP PUSH0 SWAP2 SWAP1 POP JUMP JUMPDEST POP PUSH1 0x1 SWAP2 SWAP1 POP JUMP JUMPDEST PUSH0 PUSH0 PUSH32 0x0 PUSH20 0xFFFFFFFFFFFFFFFFFFFFFFFFFFFFFFFFFFFFFFFF AND PUSH4 0x76671808 PUSH1 0x40 MLOAD DUP2 PUSH4 0xFFFFFFFF AND PUSH1 0xE0 SHL DUP2 MSTORE PUSH1 0x4 ADD PUSH1 0x20 PUSH1 0x40 MLOAD DUP1 DUP4 SUB DUP2 DUP7 GAS STATICCALL ISZERO DUP1 ISZERO PUSH2 0x188D JUMPI RETURNDATASIZE PUSH0 PUSH0 RETURNDATACOPY RETURNDATASIZE PUSH0 REVERT JUMPDEST POP POP POP POP PUSH1 0x40 MLOAD RETURNDATASIZE PUSH1 0x1F NOT PUSH1 0x1F DUP3 ADD AND DUP3 ADD DUP1 PUSH1 0x40 MSTORE POP DUP2 ADD SWAP1 PUSH2 0x18B1 SWAP2 SWAP1 PUSH2 0x214C JUMP JUMPDEST SWAP1 POP DUP3 DUP2 LT ISZERO PUSH2 0x18C3 JUMPI POP PUSH0 SWAP3 SWAP2 POP POP JUMP JUMPDEST DUP3 DUP2 GT ISZERO PUSH2 0x18D4 JUMPI POP PUSH1 0x1 SWAP3 SWAP2 POP POP JUMP JUMPDEST PUSH0 PUSH32 0x0 PUSH32 0x0 PUSH20 0xFFFFFFFFFFFFFFFFFFFFFFFFFFFFFFFFFFFFFFFF AND PUSH4 0x587DA023 PUSH1 0x40 MLOAD DUP2 PUSH4 0xFFFFFFFF AND PUSH1 0xE0 SHL DUP2 MSTORE PUSH1 0x4 ADD PUSH1 0x20 PUSH1 0x40 MLOAD DUP1 DUP4 SUB DUP2 DUP7 GAS STATICCALL ISZERO DUP1 ISZERO PUSH2 0x195F JUMPI RETURNDATASIZE PUSH0 PUSH0 RETURNDATACOPY RETURNDATASIZE PUSH0 REVERT JUMPDEST POP POP POP POP PUSH1 0x40 MLOAD RETURNDATASIZE PUSH1 0x1F NOT PUSH1 0x1F DUP3 ADD AND DUP3 ADD DUP1 PUSH1 0x40 MSTORE POP DUP2 ADD SWAP1 PUSH2 0x1983 SWAP2 SWAP1 PUSH2 0x214C JUMP JUMPDEST PUSH2 0x198D SWAP2 SWAP1 PUSH2 0x2065 JUMP JUMPDEST TIMESTAMP GT SWAP5 SWAP4 POP POP POP POP JUMP JUMPDEST PUSH0 PUSH1 0x20 DUP3 DUP5 SUB SLT ISZERO PUSH2 0x19A7 JUMPI PUSH0 PUSH0 REVERT JUMPDEST POP CALLDATALOAD SWAP2 SWAP1 POP JUMP JUMPDEST PUSH20 0xFFFFFFFFFFFFFFFFFFFFFFFFFFFFFFFFFFFFFFFF DUP2 AND DUP2 EQ PUSH2 0x19CF JUMPI PUSH0 PUSH0 REVERT JUMPDEST POP JUMP JUMPDEST PUSH0 PUSH0 PUSH1 0x40 DUP4 DUP6 SUB SLT ISZERO PUSH2 0x19E3 JUMPI PUSH0 PUSH0 REVERT JUMPDEST DUP3 CALLDATALOAD SWAP2 POP PUSH1 0x20 DUP4 ADD CALLDATALOAD PUSH2 0x19F5 DUP2 PUSH2 0x19AE JUMP JUMPDEST DUP1 SWAP2 POP POP SWAP3 POP SWAP3 SWAP1 POP JUMP JUMPDEST PUSH32 0x4E487B7100000000000000000000000000000000000000000000000000000000 PUSH0 MSTORE PUSH1 0x41 PUSH1 0x4 MSTORE PUSH1 0x24 PUSH0 REVERT JUMPDEST PUSH1 0x40 MLOAD PUSH1 0x60 DUP2 ADD PUSH8 0xFFFFFFFFFFFFFFFF DUP2 GT DUP3 DUP3 LT OR ISZERO PUSH2 0x1A50 JUMPI PUSH2 0x1A50 PUSH2 0x1A00 JUMP JUMPDEST PUSH1 0x40 MSTORE SWAP1 JUMP JUMPDEST PUSH1 0x40 MLOAD PUSH1 0x1F DUP3 ADD PUSH32 0xFFFFFFFFFFFFFFFFFFFFFFFFFFFFFFFFFFFFFFFFFFFFFFFFFFFFFFFFFFFFFFE0 AND DUP2 ADD PUSH8 0xFFFFFFFFFFFFFFFF DUP2 GT DUP3 DUP3 LT OR ISZERO PUSH2 0x1A9D JUMPI PUSH2 0x1A9D PUSH2 0x1A00 JUMP JUMPDEST PUSH1 0x40 MSTORE SWAP2 SWAP1 POP JUMP JUMPDEST PUSH0 PUSH8 0xFFFFFFFFFFFFFFFF DUP3 GT ISZERO PUSH2 0x1ABE JUMPI PUSH2 0x1ABE PUSH2 0x1A00 JUMP JUMPDEST POP PUSH1 0x5 SHL PUSH1 0x20 ADD SWAP1 JUMP JUMPDEST PUSH0 PUSH0 PUSH8 0xFFFFFFFFFFFFFFFF DUP5 GT ISZERO PUSH2 0x1AE2 JUMPI PUSH2 0x1AE2 PUSH2 0x1A00 JUMP JUMPDEST POP PUSH1 0x1F DUP4 ADD PUSH32 0xFFFFFFFFFFFFFFFFFFFFFFFFFFFFFFFFFFFFFFFFFFFFFFFFFFFFFFFFFFFFFFE0 AND PUSH1 0x20 ADD PUSH2 0x1B15 DUP2 PUSH2 0x1A56 JUMP JUMPDEST SWAP2 POP POP DUP3 DUP2 MSTORE DUP4 DUP4 DUP4 ADD GT ISZERO PUSH2 0x1B29 JUMPI PUSH0 PUSH0 REVERT JUMPDEST DUP3 DUP3 PUSH1 0x20 DUP4 ADD CALLDATACOPY PUSH0 PUSH1 0x20 DUP5 DUP4 ADD ADD MSTORE SWAP4 SWAP3 POP POP POP JUMP JUMPDEST PUSH0 DUP3 PUSH1 0x1F DUP4 ADD SLT PUSH2 0x1B4E JUMPI PUSH0 PUSH0 REVERT JUMPDEST DUP2 CALLDATALOAD PUSH2 0x1B61 PUSH2 0x1B5C DUP3 PUSH2 0x1AA5 JUMP JUMPDEST PUSH2 0x1A56 JUMP JUMPDEST DUP1 DUP3 DUP3 MSTORE PUSH1 0x20 DUP3 ADD SWAP2 POP PUSH1 0x20 DUP4 PUSH1 0x5 SHL DUP7 ADD ADD SWAP3 POP DUP6 DUP4 GT ISZERO PUSH2 0x1B82 JUMPI PUSH0 PUSH0 REVERT JUMPDEST PUSH1 0x20 DUP6 ADD JUMPDEST DUP4 DUP2 LT ISZERO PUSH2 0x1C4E JUMPI DUP1 CALLDATALOAD PUSH8 0xFFFFFFFFFFFFFFFF DUP2 GT ISZERO PUSH2 0x1BA5 JUMPI PUSH0 PUSH0 REVERT JUMPDEST DUP7 ADD PUSH1 0x60 DUP2 DUP10 SUB PUSH32 0xFFFFFFFFFFFFFFFFFFFFFFFFFFFFFFFFFFFFFFFFFFFFFFFFFFFFFFFFFFFFFFE0 ADD SLT ISZERO PUSH2 0x1BD8 JUMPI PUSH0 PUSH0 REVERT JUMPDEST PUSH2 0x1BE0 PUSH2 0x1A2D JUMP JUMPDEST PUSH1 0x20 DUP3 ADD CALLDATALOAD PUSH2 0x1BEE DUP2 PUSH2 0x19AE JUMP JUMPDEST DUP2 MSTORE PUSH1 0x40 DUP3 ADD CALLDATALOAD PUSH8 0xFFFFFFFFFFFFFFFF DUP2 GT ISZERO PUSH2 0x1C09 JUMPI PUSH0 PUSH0 REVERT JUMPDEST DUP3 ADD PUSH1 0x20 DUP2 ADD SWAP1 PUSH1 0x3F ADD DUP11 SGT PUSH2 0x1C1D JUMPI PUSH0 PUSH0 REVERT JUMPDEST PUSH2 0x1C2C DUP11 DUP3 CALLDATALOAD PUSH1 0x20 DUP5 ADD PUSH2 0x1AC8 JUMP JUMPDEST PUSH1 0x20 DUP4 DUP2 ADD SWAP2 SWAP1 SWAP2 MSTORE PUSH1 0x60 SWAP4 SWAP1 SWAP4 ADD CALLDATALOAD PUSH1 0x40 DUP4 ADD MSTORE POP DUP5 MSTORE SWAP3 DUP4 ADD SWAP3 ADD PUSH2 0x1B87 JUMP JUMPDEST POP SWAP6 SWAP5 POP POP POP POP POP JUMP JUMPDEST PUSH0 PUSH0 PUSH1 0x40 DUP4 DUP6 SUB SLT ISZERO PUSH2 0x1C69 JUMPI PUSH0 PUSH0 REVERT JUMPDEST DUP3 CALLDATALOAD SWAP2 POP PUSH1 0x20 DUP4 ADD CALLDATALOAD PUSH8 0xFFFFFFFFFFFFFFFF DUP2 GT ISZERO PUSH2 0x1C86 JUMPI PUSH0 PUSH0 REVERT JUMPDEST PUSH2 0x1C92 DUP6 DUP3 DUP7 ADD PUSH2 0x1B3F JUMP JUMPDEST SWAP2 POP POP SWAP3 POP SWAP3 SWAP1 POP JUMP JUMPDEST PUSH0 DUP3 PUSH1 0x1F DUP4 ADD SLT PUSH2 0x1CAB JUMPI PUSH0 PUSH0 REVERT JUMPDEST DUP2 CALLDATALOAD PUSH2 0x1CB9 PUSH2 0x1B5C DUP3 PUSH2 0x1AA5 JUMP JUMPDEST DUP1 DUP3 DUP3 MSTORE PUSH1 0x20 DUP3 ADD SWAP2 POP PUSH1 0x20 DUP4 PUSH1 0x5 SHL DUP7 ADD ADD SWAP3 POP DUP6 DUP4 GT ISZERO PUSH2 0x1CDA JUMPI PUSH0 PUSH0 REVERT JUMPDEST PUSH1 0x20 DUP6 ADD JUMPDEST DUP4 DUP2 LT ISZERO PUSH2 0x1C4E JUMPI DUP1 CALLDATALOAD DUP4 MSTORE PUSH1 0x20 SWAP3 DUP4 ADD SWAP3 ADD PUSH2 0x1CDF JUMP JUMPDEST PUSH0 PUSH0 PUSH1 0x40 DUP4 DUP6 SUB SLT ISZERO PUSH2 0x1D08 JUMPI PUSH0 PUSH0 REVERT JUMPDEST DUP3 CALLDATALOAD PUSH2 0x1D13 DUP2 PUSH2 0x19AE JUMP JUMPDEST SWAP2 POP PUSH1 0x20 DUP4 ADD CALLDATALOAD PUSH8 0xFFFFFFFFFFFFFFFF DUP2 GT ISZERO PUSH2 0x1D2E JUMPI PUSH0 PUSH0 REVERT JUMPDEST PUSH2 0x1C92 DUP6 DUP3 DUP7 ADD PUSH2 0x1C9C JUMP JUMPDEST PUSH0 PUSH0 PUSH1 0x40 DUP4 DUP6 SUB SLT ISZERO PUSH2 0x1D4B JUMPI PUSH0 PUSH0 REVERT JUMPDEST POP POP DUP1 CALLDATALOAD SWAP3 PUSH1 0x20 SWAP1 SWAP2 ADD CALLDATALOAD SWAP2 POP JUMP JUMPDEST DUP1 CALLDATALOAD DUP1 ISZERO ISZERO DUP2 EQ PUSH2 0x1D69 JUMPI PUSH0 PUSH0 REVERT JUMPDEST SWAP2 SWAP1 POP JUMP JUMPDEST PUSH0 PUSH0 PUSH0 PUSH0 PUSH0 PUSH0 PUSH1 0xC0 DUP8 DUP10 SUB SLT ISZERO PUSH2 0x1D83 JUMPI PUSH0 PUSH0 REVERT JUMPDEST DUP7 CALLDATALOAD SWAP6 POP PUSH2 0x1D93 PUSH1 0x20 DUP9 ADD PUSH2 0x1D5A JUMP JUMPDEST SWAP5 POP PUSH1 0x40 DUP8 ADD CALLDATALOAD PUSH8 0xFFFFFFFFFFFFFFFF DUP2 GT ISZERO PUSH2 0x1DAE JUMPI PUSH0 PUSH0 REVERT JUMPDEST PUSH2 0x1DBA DUP10 DUP3 DUP11 ADD PUSH2 0x1C9C JUMP JUMPDEST SWAP5 POP POP PUSH1 0x60 DUP8 ADD CALLDATALOAD PUSH1 0xFF DUP2 AND DUP2 EQ PUSH2 0x1DD0 JUMPI PUSH0 PUSH0 REVERT JUMPDEST SWAP6 SWAP9 SWAP5 SWAP8 POP SWAP3 SWAP6 PUSH1 0x80 DUP2 ADD CALLDATALOAD SWAP5 PUSH1 0xA0 SWAP1 SWAP2 ADD CALLDATALOAD SWAP4 POP SWAP2 POP POP JUMP JUMPDEST PUSH0 PUSH0 PUSH0 PUSH0 PUSH1 0x80 DUP6 DUP8 SUB SLT ISZERO PUSH2 0x1DFD JUMPI PUSH0 PUSH0 REVERT JUMPDEST DUP5 CALLDATALOAD PUSH8 0xFFFFFFFFFFFFFFFF DUP2 GT ISZERO PUSH2 0x1E13 JUMPI PUSH0 PUSH0 REVERT JUMPDEST PUSH2 0x1E1F DUP8 DUP3 DUP9 ADD PUSH2 0x1B3F JUMP JUMPDEST SWAP5 POP POP PUSH1 0x20 DUP6 ADD CALLDATALOAD SWAP3 POP PUSH1 0x40 DUP6 ADD CALLDATALOAD PUSH8 0xFFFFFFFFFFFFFFFF DUP2 GT ISZERO PUSH2 0x1E42 JUMPI PUSH0 PUSH0 REVERT JUMPDEST DUP6 ADD PUSH1 0x1F DUP2 ADD DUP8 SGT PUSH2 0x1E52 JUMPI PUSH0 PUSH0 REVERT JUMPDEST PUSH2 0x1E61 DUP8 DUP3 CALLDATALOAD PUSH1 0x20 DUP5 ADD PUSH2 0x1AC8 JUMP JUMPDEST SWAP3 POP POP PUSH1 0x60 DUP6 ADD CALLDATALOAD PUSH8 0xFFFFFFFFFFFFFFFF DUP2 GT ISZERO PUSH2 0x1E7D JUMPI PUSH0 PUSH0 REVERT JUMPDEST PUSH2 0x1E89 DUP8 DUP3 DUP9 ADD PUSH2 0x1C9C JUMP JUMPDEST SWAP2 POP POP SWAP3 SWAP6 SWAP2 SWAP5 POP SWAP3 POP JUMP JUMPDEST PUSH0 PUSH0 PUSH0 PUSH1 0x60 DUP5 DUP7 SUB SLT ISZERO PUSH2 0x1EA7 JUMPI PUSH0 PUSH0 REVERT JUMPDEST DUP4 CALLDATALOAD SWAP3 POP PUSH2 0x1EB7 PUSH1 0x20 DUP6 ADD PUSH2 0x1D5A JUMP JUMPDEST SWAP2 POP PUSH1 0x40 DUP5 ADD CALLDATALOAD PUSH8 0xFFFFFFFFFFFFFFFF DUP2 GT ISZERO PUSH2 0x1ED2 JUMPI PUSH0 PUSH0 REVERT JUMPDEST PUSH2 0x1EDE DUP7 DUP3 DUP8 ADD PUSH2 0x1C9C JUMP JUMPDEST SWAP2 POP POP SWAP3 POP SWAP3 POP SWAP3 JUMP JUMPDEST PUSH32 0x4E487B7100000000000000000000000000000000000000000000000000000000 PUSH0 MSTORE PUSH1 0x32 PUSH1 0x4 MSTORE PUSH1 0x24 PUSH0 REVERT JUMPDEST PUSH0 DUP3 MLOAD DUP1 PUSH1 0x20 DUP6 ADD DUP5 MCOPY PUSH0 SWAP3 ADD SWAP2 DUP3 MSTORE POP SWAP2 SWAP1 POP JUMP JUMPDEST PUSH32 0x4E487B7100000000000000000000000000000000000000000000000000000000 PUSH0 MSTORE PUSH1 0x11 PUSH1 0x4 MSTORE PUSH1 0x24 PUSH0 REVERT JUMPDEST PUSH0 PUSH32 0xFFFFFFFFFFFFFFFFFFFFFFFFFFFFFFFFFFFFFFFFFFFFFFFFFFFFFFFFFFFFFFFF DUP3 SUB PUSH2 0x1F88 JUMPI PUSH2 0x1F88 PUSH2 0x1F2B JUMP JUMPDEST POP PUSH1 0x1 ADD SWAP1 JUMP JUMPDEST PUSH20 0xFFFFFFFFFFFFFFFFFFFFFFFFFFFFFFFFFFFFFFFF DUP4 AND DUP2 MSTORE PUSH1 0x40 DUP2 ADD PUSH1 0x2 DUP4 LT PUSH2 0x1FE1 JUMPI PUSH32 0x4E487B7100000000000000000000000000000000000000000000000000000000 PUSH0 MSTORE PUSH1 0x21 PUSH1 0x4 MSTORE PUSH1 0x24 PUSH0 REVERT JUMPDEST DUP3 PUSH1 0x20 DUP4 ADD MSTORE SWAP4 SWAP3 POP POP POP JUMP JUMPDEST DUP1 MLOAD PUSH12 0xFFFFFFFFFFFFFFFFFFFFFFFF DUP2 AND DUP2 EQ PUSH2 0x1D69 JUMPI PUSH0 PUSH0 REVERT JUMPDEST PUSH0 PUSH1 0x60 DUP3 DUP5 SUB SLT DUP1 ISZERO PUSH2 0x201A JUMPI PUSH0 PUSH0 REVERT JUMPDEST POP PUSH2 0x2023 PUSH2 0x1A2D JUMP JUMPDEST DUP3 MLOAD PUSH8 0xFFFFFFFFFFFFFFFF DUP2 AND DUP2 EQ PUSH2 0x203A JUMPI PUSH0 PUSH0 REVERT JUMPDEST DUP2 MSTORE PUSH2 0x2048 PUSH1 0x20 DUP5 ADD PUSH2 0x1FEE JUMP JUMPDEST PUSH1 0x20 DUP3 ADD MSTORE PUSH2 0x2059 PUSH1 0x40 DUP5 ADD PUSH2 0x1FEE JUMP JUMPDEST PUSH1 0x40 DUP3 ADD MSTORE SWAP4 SWAP3 POP POP POP JUMP JUMPDEST DUP1 DUP3 ADD DUP1 DUP3 GT ISZERO PUSH2 0xB34 JUMPI PUSH2 0xB34 PUSH2 0x1F2B JUMP JUMPDEST PUSH0 DUP3 PUSH2 0x20AB JUMPI PUSH32 0x4E487B7100000000000000000000000000000000000000000000000000000000 PUSH0 MSTORE PUSH1 0x12 PUSH1 0x4 MSTORE PUSH1 0x24 PUSH0 REVERT JUMPDEST POP DIV SWAP1 JUMP JUMPDEST PUSH0 PUSH1 0x40 DUP3 DUP5 SUB SLT DUP1 ISZERO PUSH2 0x20C1 JUMPI PUSH0 PUSH0 REVERT JUMPDEST POP PUSH1 0x40 DUP1 MLOAD SWAP1 DUP2 ADD PUSH8 0xFFFFFFFFFFFFFFFF DUP2 GT DUP3 DUP3 LT OR ISZERO PUSH2 0x20E5 JUMPI PUSH2 0x20E5 PUSH2 0x1A00 JUMP JUMPDEST PUSH1 0x40 MSTORE DUP3 MLOAD PUSH2 0x20F3 DUP2 PUSH2 0x19AE JUMP JUMPDEST DUP2 MSTORE PUSH1 0x20 DUP4 ADD MLOAD PUSH4 0xFFFFFFFF DUP2 AND DUP2 EQ PUSH2 0x210B JUMPI PUSH0 PUSH0 REVERT JUMPDEST PUSH1 0x20 DUP3 ADD MSTORE SWAP4 SWAP3 POP POP POP JUMP JUMPDEST DUP2 MLOAD PUSH0 SWAP1 DUP3 SWAP1 PUSH1 0x20 DUP6 ADD DUP4 JUMPDEST DUP3 DUP2 LT ISZERO PUSH2 0x2141 JUMPI DUP2 MLOAD DUP5 MSTORE PUSH1 0x20 SWAP4 DUP5 ADD SWAP4 SWAP1 SWAP2 ADD SWAP1 PUSH1 0x1 ADD PUSH2 0x2123 JUMP JUMPDEST POP SWAP2 SWAP6 SWAP5 POP POP POP POP POP JUMP JUMPDEST PUSH0 PUSH1 0x20 DUP3 DUP5 SUB SLT ISZERO PUSH2 0x215C JUMPI PUSH0 PUSH0 REVERT JUMPDEST POP MLOAD SWAP2 SWAP1 POP JUMP JUMPDEST PUSH0 DUP2 MLOAD DUP1 DUP5 MSTORE DUP1 PUSH1 0x20 DUP5 ADD PUSH1 0x20 DUP7 ADD MCOPY PUSH0 PUSH1 0x20 DUP3 DUP7 ADD ADD MSTORE PUSH1 0x20 PUSH32 0xFFFFFFFFFFFFFFFFFFFFFFFFFFFFFFFFFFFFFFFFFFFFFFFFFFFFFFFFFFFFFFE0 PUSH1 0x1F DUP4 ADD AND DUP6 ADD ADD SWAP2 POP POP SWAP3 SWAP2 POP POP JUMP JUMPDEST PUSH0 DUP3 DUP3 MLOAD DUP1 DUP6 MSTORE PUSH1 0x20 DUP6 ADD SWAP5 POP PUSH1 0x20 DUP2 PUSH1 0x5 SHL DUP4 ADD ADD PUSH1 0x20 DUP6 ADD PUSH0 JUMPDEST DUP4 DUP2 LT ISZERO PUSH2 0x2253 JUMPI PUSH32 0xFFFFFFFFFFFFFFFFFFFFFFFFFFFFFFFFFFFFFFFFFFFFFFFFFFFFFFFFFFFFFFE0 DUP6 DUP5 SUB ADD DUP9 MSTORE DUP2 MLOAD PUSH20 0xFFFFFFFFFFFFFFFFFFFFFFFFFFFFFFFFFFFFFFFF DUP2 MLOAD AND DUP5 MSTORE PUSH1 0x20 DUP2 ADD MLOAD PUSH1 0x60 PUSH1 0x20 DUP7 ADD MSTORE PUSH2 0x222F PUSH1 0x60 DUP7 ADD DUP3 PUSH2 0x2163 JUMP JUMPDEST PUSH1 0x40 SWAP3 DUP4 ADD MLOAD SWAP6 SWAP1 SWAP3 ADD SWAP5 SWAP1 SWAP5 MSTORE PUSH1 0x20 SWAP9 DUP10 ADD SWAP9 SWAP1 SWAP4 POP SWAP2 SWAP1 SWAP2 ADD SWAP1 PUSH1 0x1 ADD PUSH2 0x21CB JUMP JUMPDEST POP SWAP1 SWAP7 SWAP6 POP POP POP POP POP POP JUMP JUMPDEST PUSH1 0x20 DUP2 MSTORE PUSH0 PUSH2 0x2271 PUSH1 0x20 DUP4 ADD DUP5 PUSH2 0x21AF JUMP JUMPDEST SWAP4 SWAP3 POP POP POP JUMP JUMPDEST PUSH0 DUP2 MLOAD DUP1 DUP5 MSTORE PUSH1 0x20 DUP5 ADD SWAP4 POP PUSH1 0x20 DUP4 ADD PUSH0 JUMPDEST DUP3 DUP2 LT ISZERO PUSH2 0x22A8 JUMPI DUP2 MLOAD DUP7 MSTORE PUSH1 0x20 SWAP6 DUP7 ADD SWAP6 SWAP1 SWAP2 ADD SWAP1 PUSH1 0x1 ADD PUSH2 0x228A JUMP JUMPDEST POP SWAP4 SWAP5 SWAP4 POP POP POP POP JUMP JUMPDEST PUSH20 0xFFFFFFFFFFFFFFFFFFFFFFFFFFFFFFFFFFFFFFFF DUP8 AND DUP2 MSTORE PUSH1 0xC0 PUSH1 0x20 DUP3 ADD MSTORE PUSH0 PUSH2 0x22E0 PUSH1 0xC0 DUP4 ADD DUP9 PUSH2 0x2278 JUMP JUMPDEST DUP7 PUSH1 0x40 DUP5 ADD MSTORE DUP3 DUP2 SUB PUSH1 0x60 DUP5 ADD MSTORE PUSH2 0x22F8 DUP2 DUP8 PUSH2 0x21AF JUMP JUMPDEST SWAP1 POP DUP5 PUSH1 0x80 DUP5 ADD MSTORE DUP3 DUP2 SUB PUSH1 0xA0 DUP5 ADD MSTORE PUSH2 0x2312 DUP2 DUP6 PUSH2 0x2163 JUMP JUMPDEST SWAP10 SWAP9 POP POP POP POP POP POP POP POP POP JUMP JUMPDEST PUSH20 0xFFFFFFFFFFFFFFFFFFFFFFFFFFFFFFFFFFFFFFFF DUP7 AND DUP2 MSTORE PUSH1 0xA0 PUSH1 0x20 DUP3 ADD MSTORE PUSH0 PUSH2 0x234D PUSH1 0xA0 DUP4 ADD DUP8 PUSH2 0x2278 JUMP JUMPDEST PUSH1 0x40 DUP4 ADD SWAP6 SWAP1 SWAP6 MSTORE POP SWAP2 ISZERO ISZERO PUSH1 0x60 DUP4 ADD MSTORE PUSH1 0x80 SWAP1 SWAP2 ADD MSTORE SWAP3 SWAP2 POP POP JUMP INVALID LOG2 PUSH5 0x6970667358 0x22 SLT KECCAK256 PREVRANDAO 0x22 PUSH21 0xE5B962E9D8C007DE7B028F84DB1963C66FF0943F6F 0x2C JUMPDEST CREATE PUSH15 0xD0FE085A64736F6C634300081C0033 "},"methodIdentifiers":{"castVote(uint256,bool,bytes32[])":"dfe1e6b2","castVoteBySignature(uint256,bool,bytes32[],uint8,bytes32,bytes32)":"d438a3ce","defaultPoolId()":"a0edbcbb","defaultPoolOperator()":"9de38af2","execute(uint256,(address,bytes,uint256)[])":"662bede3","getVotingPower(address,bytes32[])":"7c29cb1a","hasVoted(uint256,address)":"43859632","proposalCount()":"da35c664","proposalThreshold()":"b58131b0","proposals(uint256)":"013cf08b","propose((address,bytes,uint256)[],uint256,string,bytes32[])":"d73ceb3a","quorumThreshold()":"7b7a91dd","stakingProxy()":"22f80d11","updateThresholds(uint256,uint256)":"c14b8e9c","votingPeriod()":"02a251a3"}}}}}