{
  "_format": "hh-sol-artifact-1",
  "contractName": "TestCurve",
  "sourceName": "contracts/test/integration/TestCurve.sol",
  "abi": [
    {
      "inputs": [
        {
          "internalType": "contract IERC20Token",
          "name": "sellToken_",
          "type": "address"
        },
        {
          "internalType": "contract TestMintableERC20Token",
          "name": "buyToken_",
          "type": "address"
        },
        {
          "internalType": "uint256",
          "name": "buyAmount_",
          "type": "uint256"
        }
      ],
      "stateMutability": "payable",
      "type": "constructor"
    },
    {
      "anonymous": false,
      "inputs": [
        {
          "indexed": false,
          "internalType": "uint256",
          "name": "value",
          "type": "uint256"
        },
        {
          "indexed": false,
          "internalType": "bytes4",
          "name": "selector",
          "type": "bytes4"
        },
        {
          "indexed": false,
          "internalType": "int128",
          "name": "fromCoinIdx",
          "type": "int128"
        },
        {
          "indexed": false,
          "internalType": "int128",
          "name": "toCoinIdx",
          "type": "int128"
        },
        {
          "indexed": false,
          "internalType": "uint256",
          "name": "sellAmount",
          "type": "uint256"
        },
        {
          "indexed": false,
          "internalType": "uint256",
          "name": "minBuyAmount",
          "type": "uint256"
        }
      ],
      "name": "CurveCalled",
      "type": "event"
    },
    {
      "stateMutability": "payable",
      "type": "fallback"
    },
    {
      "inputs": [],
      "name": "BASE_SWAP_SELECTOR",
      "outputs": [
        {
          "internalType": "bytes4",
          "name": "",
          "type": "bytes4"
        }
      ],
      "stateMutability": "view",
      "type": "function"
    },
    {
      "inputs": [],
      "name": "BUY_TOKEN_COIN_IDX",
      "outputs": [
        {
          "internalType": "int128",
          "name": "",
          "type": "int128"
        }
      ],
      "stateMutability": "view",
      "type": "function"
    },
    {
      "inputs": [],
      "name": "ETH_COIN_IDX",
      "outputs": [
        {
          "internalType": "int128",
          "name": "",
          "type": "int128"
        }
      ],
      "stateMutability": "view",
      "type": "function"
    },
    {
      "inputs": [],
      "name": "RETURN_BOUGHT_AMOUNT_SELECTOR_FLAG",
      "outputs": [
        {
          "internalType": "bytes4",
          "name": "",
          "type": "bytes4"
        }
      ],
      "stateMutability": "view",
      "type": "function"
    },
    {
      "inputs": [],
      "name": "SELL_TOKEN_COIN_IDX",
      "outputs": [
        {
          "internalType": "int128",
          "name": "",
          "type": "int128"
        }
      ],
      "stateMutability": "view",
      "type": "function"
    },
    {
      "inputs": [],
      "name": "buyAmount",
      "outputs": [
        {
          "internalType": "uint256",
          "name": "",
          "type": "uint256"
        }
      ],
      "stateMutability": "view",
      "type": "function"
    },
    {
      "inputs": [],
      "name": "buyToken",
      "outputs": [
        {
          "internalType": "contract TestMintableERC20Token",
          "name": "",
          "type": "address"
        }
      ],
      "stateMutability": "view",
      "type": "function"
    },
    {
      "inputs": [],
      "name": "sellToken",
      "outputs": [
        {
          "internalType": "contract IERC20Token",
          "name": "",
          "type": "address"
        }
      ],
      "stateMutability": "view",
      "type": "function"
    },
    {
      "stateMutability": "payable",
      "type": "receive"
    }
  ],
  "bytecode": "0x6080604052604051610583380380610583833981016040819052602091606c565b600180546001600160a01b039485166001600160a01b03199182161790915560028054939094169216919091179091555f5560a7565b6001600160a01b03811681146069575f5ffd5b50565b5f5f5f60608486031215607d575f5ffd5b83516086816056565b60208501519093506095816056565b80925050604084015190509250925092565b6104cf806100b45f395ff3fe60806040526004361061007e575f3560e01c8063a48217191161004d578063a482171914610363578063bbb702ae14610382578063c3f1bb85146103a9578063fcb3db13146103bc57610085565b80631fa70531146102bd5780633eebbc51146102e457806387a2bbf2146103155780639769f0b01461032c57610085565b3661008557005b5f61009036826103d0565b9050600160e01b811615156001600160f01b0319821661048d60f21b81146100f15760405162461bcd60e51b815260206004820152601060248201526f15195cdd10dd5c9d994bd4915591549560821b604482015260640160405180910390fd5b5f80808061010236600481846103fe565b81019061010f919061043b565b92965090945092509050600f84900b61019c576001546040516323b872dd60e01b8152336004820152306024820152604481018490526001600160a01b03909116906323b872dd906064016020604051808303815f875af1158015610176573d5f5f3e3d5ffd5b505050506040513d601f19601f8201168201806040525081019061019a919061047a565b505b5f19600f84900b0161020f576002545f546040516340c10f1960e01b815233600482015260248101919091526001600160a01b03909116906340c10f19906044015f604051808303815f87803b1580156101f4575f5ffd5b505af1158015610206573d5f5f3e3d5ffd5b5050505061024a565b600119600f84900b0161024a575f8054604051339282156108fc02929190818181858888f19350505050158015610248573d5f5f3e3d5ffd5b505b604080513481526001600160e01b031989166020820152600f86810b8284015285900b60608201526080810184905260a0810183905290517fc4eb16056644b46322b49cec42ed1d0c9c49ede515361f6b3b9f09aeff9b50059181900360c00190a185156102bb575f545f5260205ff35b005b3480156102c8575f5ffd5b506102d15f5481565b6040519081526020015b60405180910390f35b3480156102ef575f5ffd5b506102fc61048d60f21b81565b6040516001600160e01b031990911681526020016102db565b348015610320575f5ffd5b506102fc600160e01b81565b348015610337575f5ffd5b5060015461034b906001600160a01b031681565b6040516001600160a01b0390911681526020016102db565b34801561036e575f5ffd5b5060025461034b906001600160a01b031681565b34801561038d575f5ffd5b50610396600181565b604051600f9190910b81526020016102db565b3480156103b4575f5ffd5b506103965f81565b3480156103c7575f5ffd5b50610396600281565b5f602082840312156103e0575f5ffd5b81356001600160e01b0319811681146103f7575f5ffd5b9392505050565b5f5f8585111561040c575f5ffd5b83861115610418575f5ffd5b5050820193919092039150565b8035600f81900b8114610436575f5ffd5b919050565b5f5f5f5f6080858703121561044e575f5ffd5b61045785610425565b935061046560208601610425565b93969395505050506040820135916060013590565b5f6020828403121561048a575f5ffd5b815180151581146103f7575f5ffdfea2646970667358221220f89dbd8f87d24ec07c741da20c668caf253a0c1f9c718746fdaedf9dc27d1db864736f6c634300081c0033",
  "linkReferences": {},
  "deployedLinkReferences": {}
}