{
  "_format": "hh-sol-artifact-1",
  "contractName": "TestCurve",
  "sourceName": "contracts/test/integration/TestCurve.sol",
  "abi": [
    {
      "inputs": [
        {
          "internalType": "contract IERC20Token",
          "name": "sellToken_",
          "type": "address"
        },
        {
          "internalType": "contract TestMintableERC20Token",
          "name": "buyToken_",
          "type": "address"
        },
        {
          "internalType": "uint256",
          "name": "buyAmount_",
          "type": "uint256"
        }
      ],
      "stateMutability": "payable",
      "type": "constructor"
    },
    {
      "anonymous": false,
      "inputs": [
        {
          "indexed": false,
          "internalType": "uint256",
          "name": "value",
          "type": "uint256"
        },
        {
          "indexed": false,
          "internalType": "bytes4",
          "name": "selector",
          "type": "bytes4"
        },
        {
          "indexed": false,
          "internalType": "int128",
          "name": "fromCoinIdx",
          "type": "int128"
        },
        {
          "indexed": false,
          "internalType": "int128",
          "name": "toCoinIdx",
          "type": "int128"
        },
        {
          "indexed": false,
          "internalType": "uint256",
          "name": "sellAmount",
          "type": "uint256"
        },
        {
          "indexed": false,
          "internalType": "uint256",
          "name": "minBuyAmount",
          "type": "uint256"
        }
      ],
      "name": "CurveCalled",
      "type": "event"
    },
    {
      "stateMutability": "payable",
      "type": "fallback"
    },
    {
      "inputs": [],
      "name": "BASE_SWAP_SELECTOR",
      "outputs": [
        {
          "internalType": "bytes4",
          "name": "",
          "type": "bytes4"
        }
      ],
      "stateMutability": "view",
      "type": "function"
    },
    {
      "inputs": [],
      "name": "BUY_TOKEN_COIN_IDX",
      "outputs": [
        {
          "internalType": "int128",
          "name": "",
          "type": "int128"
        }
      ],
      "stateMutability": "view",
      "type": "function"
    },
    {
      "inputs": [],
      "name": "ETH_COIN_IDX",
      "outputs": [
        {
          "internalType": "int128",
          "name": "",
          "type": "int128"
        }
      ],
      "stateMutability": "view",
      "type": "function"
    },
    {
      "inputs": [],
      "name": "RETURN_BOUGHT_AMOUNT_SELECTOR_FLAG",
      "outputs": [
        {
          "internalType": "bytes4",
          "name": "",
          "type": "bytes4"
        }
      ],
      "stateMutability": "view",
      "type": "function"
    },
    {
      "inputs": [],
      "name": "SELL_TOKEN_COIN_IDX",
      "outputs": [
        {
          "internalType": "int128",
          "name": "",
          "type": "int128"
        }
      ],
      "stateMutability": "view",
      "type": "function"
    },
    {
      "inputs": [],
      "name": "buyAmount",
      "outputs": [
        {
          "internalType": "uint256",
          "name": "",
          "type": "uint256"
        }
      ],
      "stateMutability": "view",
      "type": "function"
    },
    {
      "inputs": [],
      "name": "buyToken",
      "outputs": [
        {
          "internalType": "contract TestMintableERC20Token",
          "name": "",
          "type": "address"
        }
      ],
      "stateMutability": "view",
      "type": "function"
    },
    {
      "inputs": [],
      "name": "sellToken",
      "outputs": [
        {
          "internalType": "contract IERC20Token",
          "name": "",
          "type": "address"
        }
      ],
      "stateMutability": "view",
      "type": "function"
    },
    {
      "stateMutability": "payable",
      "type": "receive"
    }
  ],
  "bytecode": "0x6080604052604051610c54380380610c548339818101604052810190610025919061019f565b82600160006101000a81548173ffffffffffffffffffffffffffffffffffffffff021916908373ffffffffffffffffffffffffffffffffffffffff16021790555081600260006101000a81548173ffffffffffffffffffffffffffffffffffffffff021916908373ffffffffffffffffffffffffffffffffffffffff160217905550806000819055505050506101f2565b600080fd5b600073ffffffffffffffffffffffffffffffffffffffff82169050919050565b60006100e6826100bb565b9050919050565b60006100f8826100db565b9050919050565b610108816100ed565b811461011357600080fd5b50565b600081519050610125816100ff565b92915050565b6000610136826100db565b9050919050565b6101468161012b565b811461015157600080fd5b50565b6000815190506101638161013d565b92915050565b6000819050919050565b61017c81610169565b811461018757600080fd5b50565b60008151905061019981610173565b92915050565b6000806000606084860312156101b8576101b76100b6565b5b60006101c686828701610116565b93505060206101d786828701610154565b92505060406101e88682870161018a565b9150509250925092565b610a53806102016000396000f3fe60806040526004361061007f5760003560e01c8063a48217191161004e578063a482171914610440578063bbb702ae1461046b578063c3f1bb8514610496578063fcb3db13146104c157610086565b80631fa70531146103945780633eebbc51146103bf57806387a2bbf2146103ea5780639769f0b01461041557610086565b3661008657005b6000803681019061009791906105bd565b905060008060e01b600160e01b83167bffffffffffffffffffffffffffffffffffffffffffffffffffffffff191614159050600063ffff000060e01b83169050631234000060e01b7bffffffffffffffffffffffffffffffffffffffffffffffffffffffff1916817bffffffffffffffffffffffffffffffffffffffffffffffffffffffff19161461015e576040517f08c379a000000000000000000000000000000000000000000000000000000000815260040161015590610647565b60405180910390fd5b600080600080600036600490809261017893929190610671565b810190610185919061071b565b93509350935093506000600f0b84600f0b0361023f57600160009054906101000a900473ffffffffffffffffffffffffffffffffffffffff1673ffffffffffffffffffffffffffffffffffffffff166323b872dd3330856040518463ffffffff1660e01b81526004016101fa939291906107d2565b6020604051808303816000875af1158015610219573d6000803e3d6000fd5b505050506040513d601f19601f8201168201806040525081019061023d9190610841565b505b6001600f0b83600f0b036102e357600260009054906101000a900473ffffffffffffffffffffffffffffffffffffffff1673ffffffffffffffffffffffffffffffffffffffff166340c10f19336000546040518363ffffffff1660e01b81526004016102ac92919061086e565b600060405180830381600087803b1580156102c657600080fd5b505af11580156102da573d6000803e3d6000fd5b5050505061033c565b6002600f0b83600f0b0361033b573373ffffffffffffffffffffffffffffffffffffffff166108fc6000549081150290604051600060405180830381858888f19350505050158015610339573d6000803e3d6000fd5b505b5b7fc4eb16056644b46322b49cec42ed1d0c9c49ede515361f6b3b9f09aeff9b5005348886868686604051610375969594939291906108b5565b60405180910390a1851561038f5760005460005260206000f35b600080f35b3480156103a057600080fd5b506103a96104ec565b6040516103b69190610916565b60405180910390f35b3480156103cb57600080fd5b506103d46104f2565b6040516103e19190610931565b60405180910390f35b3480156103f657600080fd5b506103ff6104fd565b60405161040c9190610931565b60405180910390f35b34801561042157600080fd5b5061042a610505565b60405161043791906109ab565b60405180910390f35b34801561044c57600080fd5b5061045561052b565b60405161046291906109e7565b60405180910390f35b34801561047757600080fd5b50610480610551565b60405161048d9190610a02565b60405180910390f35b3480156104a257600080fd5b506104ab610556565b6040516104b89190610a02565b60405180910390f35b3480156104cd57600080fd5b506104d661055b565b6040516104e39190610a02565b60405180910390f35b60005481565b631234000060e01b81565b600160e01b81565b600160009054906101000a900473ffffffffffffffffffffffffffffffffffffffff1681565b600260009054906101000a900473ffffffffffffffffffffffffffffffffffffffff1681565b600181565b600081565b600281565b600080fd5b60007fffffffff0000000000000000000000000000000000000000000000000000000082169050919050565b61059a81610565565b81146105a557600080fd5b50565b6000813590506105b781610591565b92915050565b6000602082840312156105d3576105d2610560565b5b60006105e1848285016105a8565b91505092915050565b600082825260208201905092915050565b7f5465737443757276652f52455645525400000000000000000000000000000000600082015250565b60006106316010836105ea565b915061063c826105fb565b602082019050919050565b6000602082019050818103600083015261066081610624565b9050919050565b600080fd5b600080fd5b6000808585111561068557610684610667565b5b838611156106965761069561066c565b5b6001850283019150848603905094509492505050565b600081600f0b9050919050565b6106c2816106ac565b81146106cd57600080fd5b50565b6000813590506106df816106b9565b92915050565b6000819050919050565b6106f8816106e5565b811461070357600080fd5b50565b600081359050610715816106ef565b92915050565b6000806000806080858703121561073557610734610560565b5b6000610743878288016106d0565b9450506020610754878288016106d0565b935050604061076587828801610706565b925050606061077687828801610706565b91505092959194509250565b600073ffffffffffffffffffffffffffffffffffffffff82169050919050565b60006107ad82610782565b9050919050565b6107bd816107a2565b82525050565b6107cc816106e5565b82525050565b60006060820190506107e760008301866107b4565b6107f460208301856107b4565b61080160408301846107c3565b949350505050565b60008115159050919050565b61081e81610809565b811461082957600080fd5b50565b60008151905061083b81610815565b92915050565b60006020828403121561085757610856610560565b5b60006108658482850161082c565b91505092915050565b600060408201905061088360008301856107b4565b61089060208301846107c3565b9392505050565b6108a081610565565b82525050565b6108af816106ac565b82525050565b600060c0820190506108ca60008301896107c3565b6108d76020830188610897565b6108e460408301876108a6565b6108f160608301866108a6565b6108fe60808301856107c3565b61090b60a08301846107c3565b979650505050505050565b600060208201905061092b60008301846107c3565b92915050565b60006020820190506109466000830184610897565b92915050565b6000819050919050565b600061097161096c61096784610782565b61094c565b610782565b9050919050565b600061098382610956565b9050919050565b600061099582610978565b9050919050565b6109a58161098a565b82525050565b60006020820190506109c0600083018461099c565b92915050565b60006109d182610978565b9050919050565b6109e1816109c6565b82525050565b60006020820190506109fc60008301846109d8565b92915050565b6000602082019050610a1760008301846108a6565b9291505056fea264697066735822122018582d02dcb4fd2c59beb779bd4907b65e87cdf2fcab34c1e992844bed1f7c2464736f6c634300081c0033",
  "linkReferences": {},
  "deployedLinkReferences": {}
}