{
  "_format": "hh-sol-artifact-1",
  "contractName": "PermissionlessTransformerDeployer",
  "sourceName": "contracts/src/external/PermissionlessTransformerDeployer.sol",
  "abi": [
    {
      "anonymous": false,
      "inputs": [
        {
          "indexed": false,
          "internalType": "address",
          "name": "deployedAddress",
          "type": "address"
        },
        {
          "indexed": false,
          "internalType": "bytes32",
          "name": "salt",
          "type": "bytes32"
        },
        {
          "indexed": false,
          "internalType": "address",
          "name": "sender",
          "type": "address"
        }
      ],
      "name": "Deployed",
      "type": "event"
    },
    {
      "inputs": [
        {
          "internalType": "bytes",
          "name": "bytecode",
          "type": "bytes"
        },
        {
          "internalType": "bytes32",
          "name": "salt",
          "type": "bytes32"
        }
      ],
      "name": "deploy",
      "outputs": [
        {
          "internalType": "address",
          "name": "deployedAddress",
          "type": "address"
        }
      ],
      "stateMutability": "payable",
      "type": "function"
    },
    {
      "inputs": [
        {
          "internalType": "address",
          "name": "target",
          "type": "address"
        }
      ],
      "name": "isDelegateCallSafe",
      "outputs": [
        {
          "internalType": "bool",
          "name": "",
          "type": "bool"
        }
      ],
      "stateMutability": "view",
      "type": "function"
    },
    {
      "inputs": [
        {
          "internalType": "address",
          "name": "",
          "type": "address"
        }
      ],
      "name": "toDeploymentSalt",
      "outputs": [
        {
          "internalType": "bytes32",
          "name": "",
          "type": "bytes32"
        }
      ],
      "stateMutability": "view",
      "type": "function"
    },
    {
      "inputs": [
        {
          "internalType": "address",
          "name": "",
          "type": "address"
        }
      ],
      "name": "toInitCodeHash",
      "outputs": [
        {
          "internalType": "bytes32",
          "name": "",
          "type": "bytes32"
        }
      ],
      "stateMutability": "view",
      "type": "function"
    }
  ],
  "bytecode": "0x6080604052348015600f57600080fd5b50610b5d8061001f6000396000f3fe60806040526004361061003f5760003560e01c80634af63f02146100445780635d42a5f2146100745780638cd09f0c146100b1578063d253c0d7146100ee575b600080fd5b61005e60048036038101906100599190610692565b61012b565b60405161006b919061072f565b60405180910390f35b34801561008057600080fd5b5061009b60048036038101906100969190610776565b6102be565b6040516100a891906107b2565b60405180910390f35b3480156100bd57600080fd5b506100d860048036038101906100d39190610776565b6102d6565b6040516100e591906107e8565b60405180910390f35b3480156100fa57600080fd5b5061011560048036038101906101109190610776565b6104ea565b60405161012291906107b2565b60405180910390f35b60008183516020850134f59050600073ffffffffffffffffffffffffffffffffffffffff168173ffffffffffffffffffffffffffffffffffffffff16036101a7576040517f08c379a000000000000000000000000000000000000000000000000000000000815260040161019e90610886565b60405180910390fd5b6101b0816102d6565b6101ef576040517f08c379a00000000000000000000000000000000000000000000000000000000081526004016101e690610918565b60405180910390fd5b816000808373ffffffffffffffffffffffffffffffffffffffff1673ffffffffffffffffffffffffffffffffffffffff168152602001908152602001600020819055508280519060200120600160008373ffffffffffffffffffffffffffffffffffffffff1673ffffffffffffffffffffffffffffffffffffffff168152602001908152602001600020819055507ffa86dcef4390d6a0f7edde563410fc44e4c2d382b4c6699cce5ebc4071abcc958183336040516102b093929190610938565b60405180910390a192915050565b60006020528060005260406000206000915090505481565b600080823b905060008111610320576040517f08c379a0000000000000000000000000000000000000000000000000000000008152600401610317906109e1565b60405180910390fd5b60008167ffffffffffffffff81111561033c5761033b610531565b5b6040519080825280601f01601f19166020018201604052801561036e5781602001600182028036833780820191505090505b50905081600060208301863c60006001905060005b82518110156104dc5760008382815181106103a1576103a0610a01565b5b602001015160f81c60f81b60f81c9050605f8160ff161180156103c7575060808160ff16105b156103ef57605f816103d99190610a6c565b60ff16826103e79190610aab565b9150506104c9565b82156104b65760fe8160ff16148061040a575060f38160ff16145b80610418575060fd8160ff16145b80610426575060568160ff16145b80610434575060008160ff16145b156104435760009250506104c9565b60f28160ff161480610458575060f48160ff16145b80610466575060ff8160ff16145b80610474575060f08160ff16145b80610482575060f58160ff16145b80610490575060548160ff16145b8061049e575060558160ff16145b156104b1576000955050505050506104e5565b6104c7565b605b8160ff16036104c657600192505b5b505b80806104d490610adf565b915050610383565b50600193505050505b919050565b60016020528060005260406000206000915090505481565b6000604051905090565b600080fd5b600080fd5b600080fd5b600080fd5b6000601f19601f8301169050919050565b7f4e487b7100000000000000000000000000000000000000000000000000000000600052604160045260246000fd5b61056982610520565b810181811067ffffffffffffffff8211171561058857610587610531565b5b80604052505050565b600061059b610502565b90506105a78282610560565b919050565b600067ffffffffffffffff8211156105c7576105c6610531565b5b6105d082610520565b9050602081019050919050565b82818337600083830152505050565b60006105ff6105fa846105ac565b610591565b90508281526020810184848401111561061b5761061a61051b565b5b6106268482856105dd565b509392505050565b600082601f83011261064357610642610516565b5b81356106538482602086016105ec565b91505092915050565b6000819050919050565b61066f8161065c565b811461067a57600080fd5b50565b60008135905061068c81610666565b92915050565b600080604083850312156106a9576106a861050c565b5b600083013567ffffffffffffffff8111156106c7576106c6610511565b5b6106d38582860161062e565b92505060206106e48582860161067d565b9150509250929050565b600073ffffffffffffffffffffffffffffffffffffffff82169050919050565b6000610719826106ee565b9050919050565b6107298161070e565b82525050565b60006020820190506107446000830184610720565b92915050565b6107538161070e565b811461075e57600080fd5b50565b6000813590506107708161074a565b92915050565b60006020828403121561078c5761078b61050c565b5b600061079a84828501610761565b91505092915050565b6107ac8161065c565b82525050565b60006020820190506107c760008301846107a3565b92915050565b60008115159050919050565b6107e2816107cd565b82525050565b60006020820190506107fd60008301846107d9565b92915050565b600082825260208201905092915050565b7f5065726d697373696f6e6c6573735472616e73666f726d65724465706c6f796560008201527f722f4445504c4f595f4641494c45440000000000000000000000000000000000602082015250565b6000610870602f83610803565b915061087b82610814565b604082019050919050565b6000602082019050818103600083015261089f81610863565b9050919050565b7f5065726d697373696f6e6c6573735472616e73666f726d65724465706c6f796560008201527f722f554e534146455f434f444500000000000000000000000000000000000000602082015250565b6000610902602d83610803565b915061090d826108a6565b604082019050919050565b60006020820190508181036000830152610931816108f5565b9050919050565b600060608201905061094d6000830186610720565b61095a60208301856107a3565b6109676040830184610720565b949350505050565b7f5065726d697373696f6e6c6573735472616e73666f726d65724465706c6f796560008201527f722f4e4f5f434f44450000000000000000000000000000000000000000000000602082015250565b60006109cb602983610803565b91506109d68261096f565b604082019050919050565b600060208201905081810360008301526109fa816109be565b9050919050565b7f4e487b7100000000000000000000000000000000000000000000000000000000600052603260045260246000fd5b600060ff82169050919050565b7f4e487b7100000000000000000000000000000000000000000000000000000000600052601160045260246000fd5b6000610a7782610a30565b9150610a8283610a30565b9250828203905060ff811115610a9b57610a9a610a3d565b5b92915050565b6000819050919050565b6000610ab682610aa1565b9150610ac183610aa1565b9250828201905080821115610ad957610ad8610a3d565b5b92915050565b6000610aea82610aa1565b91507fffffffffffffffffffffffffffffffffffffffffffffffffffffffffffffffff8203610b1c57610b1b610a3d565b5b60018201905091905056fea2646970667358221220437125deff3ba4a382ca8b212c2cd306199b78bdca59f76dbc6ba2d1a72f528f64736f6c634300081c0033",
  "linkReferences": {},
  "deployedLinkReferences": {}
}