{
  "_format": "hh-sol-artifact-1",
  "contractName": "PermissionlessTransformerDeployer",
  "sourceName": "contracts/src/external/PermissionlessTransformerDeployer.sol",
  "abi": [
    {
      "anonymous": false,
      "inputs": [
        {
          "indexed": false,
          "internalType": "address",
          "name": "deployedAddress",
          "type": "address"
        },
        {
          "indexed": false,
          "internalType": "bytes32",
          "name": "salt",
          "type": "bytes32"
        },
        {
          "indexed": false,
          "internalType": "address",
          "name": "sender",
          "type": "address"
        }
      ],
      "name": "Deployed",
      "type": "event"
    },
    {
      "inputs": [
        {
          "internalType": "bytes",
          "name": "bytecode",
          "type": "bytes"
        },
        {
          "internalType": "bytes32",
          "name": "salt",
          "type": "bytes32"
        }
      ],
      "name": "deploy",
      "outputs": [
        {
          "internalType": "address",
          "name": "deployedAddress",
          "type": "address"
        }
      ],
      "stateMutability": "payable",
      "type": "function"
    },
    {
      "inputs": [
        {
          "internalType": "address",
          "name": "target",
          "type": "address"
        }
      ],
      "name": "isDelegateCallSafe",
      "outputs": [
        {
          "internalType": "bool",
          "name": "",
          "type": "bool"
        }
      ],
      "stateMutability": "view",
      "type": "function"
    },
    {
      "inputs": [
        {
          "internalType": "address",
          "name": "",
          "type": "address"
        }
      ],
      "name": "toDeploymentSalt",
      "outputs": [
        {
          "internalType": "bytes32",
          "name": "",
          "type": "bytes32"
        }
      ],
      "stateMutability": "view",
      "type": "function"
    },
    {
      "inputs": [
        {
          "internalType": "address",
          "name": "",
          "type": "address"
        }
      ],
      "name": "toInitCodeHash",
      "outputs": [
        {
          "internalType": "bytes32",
          "name": "",
          "type": "bytes32"
        }
      ],
      "stateMutability": "view",
      "type": "function"
    }
  ],
  "bytecode": "0x6080604052348015600e575f5ffd5b5061075a8061001c5f395ff3fe60806040526004361061003e575f3560e01c80634af63f02146100425780635d42a5f21461007f5780638cd09f0c146100b8578063d253c0d7146100e7575b5f5ffd5b610055610050366004610535565b610112565b60405173ffffffffffffffffffffffffffffffffffffffff90911681526020015b60405180910390f35b34801561008a575f5ffd5b506100aa610099366004610627565b5f6020819052908152604090205481565b604051908152602001610076565b3480156100c3575f5ffd5b506100d76100d2366004610627565b6102d5565b6040519015158152602001610076565b3480156100f2575f5ffd5b506100aa610101366004610627565b60016020525f908152604090205481565b5f8183516020850134f5905073ffffffffffffffffffffffffffffffffffffffff81166101c6576040517f08c379a000000000000000000000000000000000000000000000000000000000815260206004820152602f60248201527f5065726d697373696f6e6c6573735472616e73666f726d65724465706c6f796560448201527f722f4445504c4f595f4641494c4544000000000000000000000000000000000060648201526084015b60405180910390fd5b6101cf816102d5565b61025b576040517f08c379a000000000000000000000000000000000000000000000000000000000815260206004820152602d60248201527f5065726d697373696f6e6c6573735472616e73666f726d65724465706c6f796560448201527f722f554e534146455f434f44450000000000000000000000000000000000000060648201526084016101bd565b73ffffffffffffffffffffffffffffffffffffffff81165f81815260208181526040808320869055865187830120600183529281902092909255815192835282018490523382820152517ffa86dcef4390d6a0f7edde563410fc44e4c2d382b4c6699cce5ebc4071abcc959181900360600190a192915050565b5f813b80610365576040517f08c379a000000000000000000000000000000000000000000000000000000000815260206004820152602960248201527f5065726d697373696f6e6c6573735472616e73666f726d65724465706c6f796560448201527f722f4e4f5f434f4445000000000000000000000000000000000000000000000060648201526084016101bd565b5f8167ffffffffffffffff81111561037f5761037f610508565b6040519080825280601f01601f1916602001820160405280156103a9576020820181803683370190505b509050815f60208301863c60015f5b82518110156104fc575f8382815181106103d4576103d4610661565b016020015160f81c9050605f811180156103f1575060808160ff16105b1561041657610401605f826106bb565b61040e9060ff16836106da565b9150506104ea565b82156104d8578060ff1660fe148061043157508060ff1660f3145b8061043f57508060ff1660fd145b8061044d57508060ff166056145b80610459575060ff8116155b15610467575f9250506104ea565b8060ff1660f2148061047c57508060ff1660f4145b8061048a57508060ff1660ff145b8061049857508060ff1660f0145b806104a657508060ff1660f5145b806104b457508060ff166054145b806104c257508060ff166055145b156104d357505f9695505050505050565b6104e8565b8060ff16605b036104e857600192505b505b806104f4816106ed565b9150506103b8565b50600195945050505050565b7f4e487b71000000000000000000000000000000000000000000000000000000005f52604160045260245ffd5b5f5f60408385031215610546575f5ffd5b823567ffffffffffffffff81111561055c575f5ffd5b8301601f8101851361056c575f5ffd5b803567ffffffffffffffff81111561058657610586610508565b6040517fffffffffffffffffffffffffffffffffffffffffffffffffffffffffffffffe0603f7fffffffffffffffffffffffffffffffffffffffffffffffffffffffffffffffe0601f8501160116810181811067ffffffffffffffff821117156105f2576105f2610508565b604052818152828201602001871015610609575f5ffd5b816020840160208301375f6020928201830152969401359450505050565b5f60208284031215610637575f5ffd5b813573ffffffffffffffffffffffffffffffffffffffff8116811461065a575f5ffd5b9392505050565b7f4e487b71000000000000000000000000000000000000000000000000000000005f52603260045260245ffd5b7f4e487b71000000000000000000000000000000000000000000000000000000005f52601160045260245ffd5b60ff82811682821603908111156106d4576106d461068e565b92915050565b808201808211156106d4576106d461068e565b5f7fffffffffffffffffffffffffffffffffffffffffffffffffffffffffffffffff820361071d5761071d61068e565b506001019056fea26469706673582212202f4505dc423ee82d240d09640d6694d89b4a7992b343fb230c1f5f865690662a64736f6c634300081c0033",
  "linkReferences": {},
  "deployedLinkReferences": {}
}