{
  "_format": "hh-sol-artifact-1",
  "contractName": "BootstrapFeature",
  "sourceName": "contracts/src/features/BootstrapFeature.sol",
  "abi": [
    {
      "inputs": [
        {
          "internalType": "address",
          "name": "bootstrapCaller",
          "type": "address"
        }
      ],
      "stateMutability": "nonpayable",
      "type": "constructor"
    },
    {
      "inputs": [
        {
          "internalType": "address",
          "name": "target",
          "type": "address"
        },
        {
          "internalType": "bytes",
          "name": "callData",
          "type": "bytes"
        }
      ],
      "name": "bootstrap",
      "outputs": [],
      "stateMutability": "nonpayable",
      "type": "function"
    },
    {
      "inputs": [],
      "name": "die",
      "outputs": [],
      "stateMutability": "nonpayable",
      "type": "function"
    }
  ],
  "bytecode": "0x60e060405234801561000f575f5ffd5b5060405161066238038061066283398101604081905261002e91610047565b336080523060a0526001600160a01b031660c052610074565b5f60208284031215610057575f5ffd5b81516001600160a01b038116811461006d575f5ffd5b9392505050565b60805160a05160c0516105b36100af5f395f818160fd015261012b01525f81816060015261019901525f81816098015260c601526105b35ff3fe608060405234801561000f575f5ffd5b5060043610610034575f3560e01c806335f469941461003857806373f208d514610042575b5f5ffd5b610040610055565b005b610040610050366004610423565b6100f2565b306001600160a01b037f0000000000000000000000000000000000000000000000000000000000000000161461008d5761008d6104ae565b336001600160a01b037f000000000000000000000000000000000000000000000000000000000000000016146100ef576100ef6100ea337f0000000000000000000000000000000000000000000000000000000000000000610239565b6102b7565b33ff5b336001600160a01b037f0000000000000000000000000000000000000000000000000000000000000000161461014f5761014f6100ea337f00000000000000000000000000000000000000000000000000000000000000006102bf565b5f610158610306565b6373f208d560e01b5f908152602091909152604080822080546001600160a01b0319166001600160a01b039485161790558051630d7d1a6560e21b815290517f0000000000000000000000000000000000000000000000000000000000000000909316926335f469949260048084019391929182900301818387803b1580156101df575f5ffd5b505af11580156101f1573d5f5f3e3d5ffd5b505050506102348383838080601f0160208091040260200160405190810160405280939291908181526020018383808284375f9201919091525061031192505050565b505050565b6040516001600160a01b038084166024830152821660448201526060907fabeb420c997af2b939cfae9ef422a08b8467cc0cf89064c140b7edf8a22cedc2906064015b60408051601f198184030181529190526020810180516001600160e01b03166001600160e01b03199093169290921790915290505b92915050565b805160208201fd5b6040516001600160a01b038084166024830152821660448201526060907fb84f6d63d81ee2a3bc5c6658be21fc96c31d7cdc4dc460ea0d6f7b7218b5b4b39060640161027c565b5f5f6102b15f6103c5565b5f5f836001600160a01b03168360405161032b91906104c2565b5f60405180830381855af49150503d805f8114610363576040519150601f19603f3d011682016040523d82523d5f602084013e610368565b606091505b509150915081158061037c57508051602014155b806103ad5750805163d150751b60e01b906103a090830160209081019084016104d8565b6001600160e01b03191614155b156103bf576103bf6100ea85836103ed565b50505050565b5f608082600b8111156103da576103da610506565b6103e590600161051a565b901b92915050565b60607fd19d65df6830e3cb0da1e12b8e9738e2dc473f830d8af813bcc031eb5a1675d1838360405160240161027c929190610539565b5f5f5f60408486031215610435575f5ffd5b83356001600160a01b038116811461044b575f5ffd5b9250602084013567ffffffffffffffff811115610466575f5ffd5b8401601f81018613610476575f5ffd5b803567ffffffffffffffff81111561048c575f5ffd5b86602082840101111561049d575f5ffd5b939660209190910195509293505050565b634e487b7160e01b5f52600160045260245ffd5b5f82518060208501845e5f920191825250919050565b5f602082840312156104e8575f5ffd5b81516001600160e01b0319811681146104ff575f5ffd5b9392505050565b634e487b7160e01b5f52602160045260245ffd5b808201808211156102b157634e487b7160e01b5f52601160045260245ffd5b60018060a01b0383168152604060208201525f82518060408401528060208501606085015e5f606082850101526060601f19601f830116840101915050939250505056fea26469706673582212200e0ec1b70b7ffba290bcf92870c15d306dcc3428615388a1b86ad2b2b506e65564736f6c634300081c0033",
  "linkReferences": {},
  "deployedLinkReferences": {}
}