{
  "_format": "hh-sol-artifact-1",
  "contractName": "BootstrapFeature",
  "sourceName": "contracts/src/features/BootstrapFeature.sol",
  "abi": [
    {
      "inputs": [
        {
          "internalType": "address",
          "name": "bootstrapCaller",
          "type": "address"
        }
      ],
      "stateMutability": "nonpayable",
      "type": "constructor"
    },
    {
      "inputs": [
        {
          "internalType": "address",
          "name": "target",
          "type": "address"
        },
        {
          "internalType": "bytes",
          "name": "callData",
          "type": "bytes"
        }
      ],
      "name": "bootstrap",
      "outputs": [],
      "stateMutability": "nonpayable",
      "type": "function"
    },
    {
      "inputs": [],
      "name": "die",
      "outputs": [],
      "stateMutability": "nonpayable",
      "type": "function"
    }
  ],
  "bytecode": "0x60e060405234801561001057600080fd5b50604051610c12380380610c1283398181016040528101906100329190610137565b3373ffffffffffffffffffffffffffffffffffffffff1660808173ffffffffffffffffffffffffffffffffffffffff16815250503073ffffffffffffffffffffffffffffffffffffffff1660a08173ffffffffffffffffffffffffffffffffffffffff16815250508073ffffffffffffffffffffffffffffffffffffffff1660c08173ffffffffffffffffffffffffffffffffffffffff168152505050610164565b600080fd5b600073ffffffffffffffffffffffffffffffffffffffff82169050919050565b6000610104826100d9565b9050919050565b610114816100f9565b811461011f57600080fd5b50565b6000815190506101318161010b565b92915050565b60006020828403121561014d5761014c6100d4565b5b600061015b84828501610122565b91505092915050565b60805160a05160c051610a6c6101a66000396000818161015e01526101b80152600081816063015261028501526000818160bf01526101190152610a6c6000f3fe608060405234801561001057600080fd5b50600436106100365760003560e01c806335f469941461003b57806373f208d514610045575b600080fd5b610043610061565b005b61005f600480360381019061005a919061073b565b61015c565b005b7f000000000000000000000000000000000000000000000000000000000000000073ffffffffffffffffffffffffffffffffffffffff163073ffffffffffffffffffffffffffffffffffffffff16146100bd576100bc61079b565b5b7f000000000000000000000000000000000000000000000000000000000000000073ffffffffffffffffffffffffffffffffffffffff163373ffffffffffffffffffffffffffffffffffffffff16146101435761014261013d337f0000000000000000000000000000000000000000000000000000000000000000610356565b6103f1565b5b3373ffffffffffffffffffffffffffffffffffffffff16ff5b7f000000000000000000000000000000000000000000000000000000000000000073ffffffffffffffffffffffffffffffffffffffff163373ffffffffffffffffffffffffffffffffffffffff16146101e2576101e16101dc337f00000000000000000000000000000000000000000000000000000000000000006103f9565b6103f1565b5b60006101ec610494565b60000160006373f208d560e01b7bffffffffffffffffffffffffffffffffffffffffffffffffffffffff19167bffffffffffffffffffffffffffffffffffffffffffffffffffffffff1916815260200190815260200160002060006101000a81548173ffffffffffffffffffffffffffffffffffffffff021916908373ffffffffffffffffffffffffffffffffffffffff1602179055507f000000000000000000000000000000000000000000000000000000000000000073ffffffffffffffffffffffffffffffffffffffff166335f469946040518163ffffffff1660e01b8152600401600060405180830381600087803b1580156102eb57600080fd5b505af11580156102ff573d6000803e3d6000fd5b505050506103518383838080601f016020809104026020016040519081016040528093929190818152602001838380828437600081840152601f19601f820116905080830192505050505050506104aa565b505050565b60607fabeb420c997af2b939cfae9ef422a08b8467cc0cf89064c140b7edf8a22cedc2838360405160240161038c9291906107d9565b604051602081830303815290604052907bffffffffffffffffffffffffffffffffffffffffffffffffffffffff19166020820180517bffffffffffffffffffffffffffffffffffffffffffffffffffffffff8381831617835250505050905092915050565b805160208201fd5b60607fb84f6d63d81ee2a3bc5c6658be21fc96c31d7cdc4dc460ea0d6f7b7218b5b4b3838360405160240161042f9291906107d9565b604051602081830303815290604052907bffffffffffffffffffffffffffffffffffffffffffffffffffffffff19166020820180517bffffffffffffffffffffffffffffffffffffffffffffffffffffffff8381831617835250505050905092915050565b6000806104a160006105a7565b90508091505090565b6000808373ffffffffffffffffffffffffffffffffffffffff16836040516104d29190610873565b600060405180830381855af49150503d806000811461050d576040519150601f19603f3d011682016040523d82523d6000602084013e610512565b606091505b509150915081158061052657506020815114155b80610589575063d150751b60e01b7bffffffffffffffffffffffffffffffffffffffffffffffffffffffff19168180602001905181019061056791906108e2565b7bffffffffffffffffffffffffffffffffffffffffffffffffffffffff191614155b156105a1576105a061059b85836105d3565b6103f1565b5b50505050565b60006080600183600b8111156105c0576105bf61090f565b5b6105ca9190610977565b901b9050919050565b60607fd19d65df6830e3cb0da1e12b8e9738e2dc473f830d8af813bcc031eb5a1675d18383604051602401610609929190610a06565b604051602081830303815290604052907bffffffffffffffffffffffffffffffffffffffffffffffffffffffff19166020820180517bffffffffffffffffffffffffffffffffffffffffffffffffffffffff8381831617835250505050905092915050565b600080fd5b600080fd5b600073ffffffffffffffffffffffffffffffffffffffff82169050919050565b60006106a382610678565b9050919050565b6106b381610698565b81146106be57600080fd5b50565b6000813590506106d0816106aa565b92915050565b600080fd5b600080fd5b600080fd5b60008083601f8401126106fb576106fa6106d6565b5b8235905067ffffffffffffffff811115610718576107176106db565b5b602083019150836001820283011115610734576107336106e0565b5b9250929050565b6000806000604084860312156107545761075361066e565b5b6000610762868287016106c1565b935050602084013567ffffffffffffffff81111561078357610782610673565b5b61078f868287016106e5565b92509250509250925092565b7f4e487b7100000000000000000000000000000000000000000000000000000000600052600160045260246000fd5b6107d381610698565b82525050565b60006040820190506107ee60008301856107ca565b6107fb60208301846107ca565b9392505050565b600081519050919050565b600081905092915050565b60005b8381101561083657808201518184015260208101905061081b565b60008484015250505050565b600061084d82610802565b610857818561080d565b9350610867818560208601610818565b80840191505092915050565b600061087f8284610842565b915081905092915050565b60007fffffffff0000000000000000000000000000000000000000000000000000000082169050919050565b6108bf8161088a565b81146108ca57600080fd5b50565b6000815190506108dc816108b6565b92915050565b6000602082840312156108f8576108f761066e565b5b6000610906848285016108cd565b91505092915050565b7f4e487b7100000000000000000000000000000000000000000000000000000000600052602160045260246000fd5b6000819050919050565b7f4e487b7100000000000000000000000000000000000000000000000000000000600052601160045260246000fd5b60006109828261093e565b915061098d8361093e565b92508282019050808211156109a5576109a4610948565b5b92915050565b600082825260208201905092915050565b6000601f19601f8301169050919050565b60006109d882610802565b6109e281856109ab565b93506109f2818560208601610818565b6109fb816109bc565b840191505092915050565b6000604082019050610a1b60008301856107ca565b8181036020830152610a2d81846109cd565b9050939250505056fea2646970667358221220b7acf6df2d4dbe0ef037be3d218a9e028784588e7fc39ad6c4176d9744415a8264736f6c634300081c0033",
  "linkReferences": {},
  "deployedLinkReferences": {}
}