{
  "_format": "hh-sol-artifact-1",
  "contractName": "TestPermissionlessTransformerDeployerSuicidal",
  "sourceName": "contracts/test/TestPermissionlessTransformerDeployerSuicidal.sol",
  "abi": [
    {
      "inputs": [],
      "name": "kill",
      "outputs": [],
      "stateMutability": "nonpayable",
      "type": "function"
    }
  ],
  "bytecode": "0x6080604052348015600e575f5ffd5b50606780601a5f395ff3fe6080604052348015600e575f5ffd5b50600436106026575f3560e01c806341c0e1b514602a575b5f5ffd5b602f33ff5b00fea264697066735822122073a461be02b1c17a6405a42abe5674d0cd90947da54b477fee882c0daaa0401364736f6c634300081c0033",
  "linkReferences": {},
  "deployedLinkReferences": {}
}