{
    "_format": "hh-sol-artifact-1",
    "contractName": "DefaultPoolOperator",
    "sourceName": "contracts/src/DefaultPoolOperator.sol",
    "abi": [
        {
            "inputs": [
                {
                    "internalType": "contract IStaking",
                    "name": "stakingProxy_",
                    "type": "address"
                },
                {
                    "internalType": "contract IERC20",
                    "name": "weth_",
                    "type": "address"
                }
            ],
            "stateMutability": "nonpayable",
            "type": "constructor"
        },
        {
            "inputs": [],
            "name": "poolId",
            "outputs": [
                {
                    "internalType": "bytes32",
                    "name": "",
                    "type": "bytes32"
                }
            ],
            "stateMutability": "view",
            "type": "function"
        },
        {
            "inputs": [],
            "name": "returnStakingRewards",
            "outputs": [],
            "stateMutability": "nonpayable",
            "type": "function"
        },
        {
            "inputs": [],
            "name": "stakingProxy",
            "outputs": [
                {
                    "internalType": "contract IStaking",
                    "name": "",
                    "type": "address"
                }
            ],
            "stateMutability": "view",
            "type": "function"
        },
        {
            "inputs": [],
            "name": "weth",
            "outputs": [
                {
                    "internalType": "contract IERC20",
                    "name": "",
                    "type": "address"
                }
            ],
            "stateMutability": "view",
            "type": "function"
        }
    ],
    "bytecode": "0x60e060405234801561000f575f5ffd5b5060405161045b38038061045b83398101604081905261002e916100cb565b6001600160a01b03828116608081905290821660a0526040516368a7d6cd60e01b8152620f424060048201525f60248201526368a7d6cd906044016020604051808303815f875af1158015610085573d5f5f3e3d5ffd5b505050506040513d601f19601f820116820180604052508101906100a99190610103565b60c0525061011a9050565b6001600160a01b03811681146100c8575f5ffd5b50565b5f5f604083850312156100dc575f5ffd5b82516100e7816100b4565b60208401519092506100f8816100b4565b809150509250929050565b5f60208284031215610113575f5ffd5b5051919050565b60805160a05160c0516103056101565f395f60a401525f818160d901528181610135015261022201525f8181605301526101f001526103055ff3fe608060405234801561000f575f5ffd5b506004361061004a575f3560e01c806322f80d111461004e5780633e0dc34e1461009f5780633fc8cef3146100d4578063d07e240d146100fb575b5f5ffd5b6100757f000000000000000000000000000000000000000000000000000000000000000081565b60405173ffffffffffffffffffffffffffffffffffffffff90911681526020015b60405180910390f35b6100c67f000000000000000000000000000000000000000000000000000000000000000081565b604051908152602001610096565b6100757f000000000000000000000000000000000000000000000000000000000000000081565b610103610105565b005b6040517f70a082310000000000000000000000000000000000000000000000000000000081523060048201525f907f000000000000000000000000000000000000000000000000000000000000000073ffffffffffffffffffffffffffffffffffffffff16906370a0823190602401602060405180830381865afa15801561018f573d5f5f3e3d5ffd5b505050506040513d601f19601f820116820180604052508101906101b39190610292565b6040517fa9059cbb00000000000000000000000000000000000000000000000000000000815273ffffffffffffffffffffffffffffffffffffffff7f000000000000000000000000000000000000000000000000000000000000000081166004830152602482018390529192507f00000000000000000000000000000000000000000000000000000000000000009091169063a9059cbb906044016020604051808303815f875af115801561026a573d5f5f3e3d5ffd5b505050506040513d601f19601f8201168201806040525081019061028e91906102a9565b5050565b5f602082840312156102a2575f5ffd5b5051919050565b5f602082840312156102b9575f5ffd5b815180151581146102c8575f5ffd5b939250505056fea26469706673582212207ea67d31e3a027a08962ab0f233bd8bb19d086912ec97d12b0157eab7291562f64736f6c634300081e0033",
    "linkReferences": {},
    "deployedLinkReferences": {}
}