{
  "_format": "hh-sol-artifact-1",
  "contractName": "TestInitialMigration",
  "sourceName": "contracts/test/TestInitialMigration.sol",
  "abi": [
    {
      "inputs": [
        {
          "internalType": "address",
          "name": "deployer",
          "type": "address"
        }
      ],
      "stateMutability": "nonpayable",
      "type": "constructor"
    },
    {
      "inputs": [
        {
          "internalType": "address",
          "name": "owner",
          "type": "address"
        },
        {
          "components": [
            {
              "internalType": "contract SimpleFunctionRegistryFeature",
              "name": "registry",
              "type": "address"
            },
            {
              "internalType": "contract OwnableFeature",
              "name": "ownable",
              "type": "address"
            }
          ],
          "internalType": "struct InitialMigration.BootstrapFeatures",
          "name": "features",
          "type": "tuple"
        }
      ],
      "name": "bootstrap",
      "outputs": [
        {
          "internalType": "bytes4",
          "name": "success",
          "type": "bytes4"
        }
      ],
      "stateMutability": "nonpayable",
      "type": "function"
    },
    {
      "inputs": [],
      "name": "bootstrapFeature",
      "outputs": [
        {
          "internalType": "address",
          "name": "",
          "type": "address"
        }
      ],
      "stateMutability": "view",
      "type": "function"
    },
    {
      "inputs": [
        {
          "internalType": "contract ZeroEx",
          "name": "zeroEx",
          "type": "address"
        }
      ],
      "name": "callBootstrap",
      "outputs": [],
      "stateMutability": "nonpayable",
      "type": "function"
    },
    {
      "inputs": [
        {
          "internalType": "address payable",
          "name": "ethRecipient",
          "type": "address"
        }
      ],
      "name": "die",
      "outputs": [],
      "stateMutability": "nonpayable",
      "type": "function"
    },
    {
      "inputs": [],
      "name": "dieRecipient",
      "outputs": [
        {
          "internalType": "address",
          "name": "",
          "type": "address"
        }
      ],
      "stateMutability": "view",
      "type": "function"
    },
    {
      "inputs": [],
      "name": "initializeCaller",
      "outputs": [
        {
          "internalType": "address",
          "name": "",
          "type": "address"
        }
      ],
      "stateMutability": "view",
      "type": "function"
    },
    {
      "inputs": [
        {
          "internalType": "address payable",
          "name": "owner",
          "type": "address"
        },
        {
          "internalType": "contract ZeroEx",
          "name": "zeroEx",
          "type": "address"
        },
        {
          "components": [
            {
              "internalType": "contract SimpleFunctionRegistryFeature",
              "name": "registry",
              "type": "address"
            },
            {
              "internalType": "contract OwnableFeature",
              "name": "ownable",
              "type": "address"
            }
          ],
          "internalType": "struct InitialMigration.BootstrapFeatures",
          "name": "features",
          "type": "tuple"
        }
      ],
      "name": "initializeZeroEx",
      "outputs": [
        {
          "internalType": "contract ZeroEx",
          "name": "_zeroEx",
          "type": "address"
        }
      ],
      "stateMutability": "nonpayable",
      "type": "function"
    }
  ],
  "bytecode": "0x60c060405234801561001057600080fd5b506040516111f93803806111f983398181016040528101906100329190610105565b808073ffffffffffffffffffffffffffffffffffffffff1660808173ffffffffffffffffffffffffffffffffffffffff16815250503073ffffffffffffffffffffffffffffffffffffffff1660a08173ffffffffffffffffffffffffffffffffffffffff16815250505050610132565b600080fd5b600073ffffffffffffffffffffffffffffffffffffffff82169050919050565b60006100d2826100a7565b9050919050565b6100e2816100c7565b81146100ed57600080fd5b50565b6000815190506100ff816100d9565b92915050565b60006020828403121561011b5761011a6100a2565b5b6000610129848285016100f0565b91505092915050565b60805160a05161109e61015b60003960005050600081816103070152610377015261109e6000f3fe608060405234801561001057600080fd5b506004361061007d5760003560e01c8063824912801161005b57806382491280146100ec5780639b7e25a91461010a578063a23ce6ce14610128578063c9353cb5146101585761007d565b806308cf79341461008257806329f5120d146100b25780635f136a4a146100ce575b600080fd5b61009c60048036038101906100979190610aec565b610174565b6040516100a99190610b67565b60405180910390f35b6100cc60048036038101906100c79190610bd2565b610248565b005b6100d6610305565b6040516100e39190610c0e565b60405180910390f35b6100f4610329565b6040516101019190610c0e565b60405180910390f35b61011261034d565b60405161011f9190610c0e565b60405180910390f35b610142600480360381019061013d9190610c55565b610373565b60405161014f9190610d07565b60405180910390f35b610172600480360381019061016d9190610d22565b61055c565b005b600061018083836105a0565b90503073ffffffffffffffffffffffffffffffffffffffff1663972fdd266373f208d560e01b6040518263ffffffff1660e01b81526004016101c29190610b67565b602060405180830381865afa1580156101df573d6000803e3d6000fd5b505050506040513d601f19601f820116820180604052508101906102039190610d64565b6000806101000a81548173ffffffffffffffffffffffffffffffffffffffff021916908373ffffffffffffffffffffffffffffffffffffffff16021790555092915050565b8073ffffffffffffffffffffffffffffffffffffffff166373f208d530600067ffffffffffffffff8111156102805761027f6109a5565b5b6040519080825280601f01601f1916602001820160405280156102b25781602001600182028036833780820191505090505b506040518363ffffffff1660e01b81526004016102d0929190610e10565b600060405180830381600087803b1580156102ea57600080fd5b505af11580156102fe573d6000803e3d6000fd5b5050505050565b7f000000000000000000000000000000000000000000000000000000000000000081565b60008054906101000a900473ffffffffffffffffffffffffffffffffffffffff1681565b600160009054906101000a900473ffffffffffffffffffffffffffffffffffffffff1681565b60007f000000000000000000000000000000000000000000000000000000000000000073ffffffffffffffffffffffffffffffffffffffff163373ffffffffffffffffffffffffffffffffffffffff1614610403576040517f08c379a00000000000000000000000000000000000000000000000000000000081526004016103fa90610e9d565b60405180910390fd5b8273ffffffffffffffffffffffffffffffffffffffff166373f208d5306308cf793460e01b878660405160240161043b929190610f4f565b604051602081830303815290604052907bffffffffffffffffffffffffffffffffffffffffffffffffffffffff19166020820180517bffffffffffffffffffffffffffffffffffffffffffffffffffffffff83818316178352505050506040518363ffffffff1660e01b81526004016104b5929190610e10565b600060405180830381600087803b1580156104cf57600080fd5b505af11580156104e3573d6000803e3d6000fd5b505050503073ffffffffffffffffffffffffffffffffffffffff1663c9353cb5856040518263ffffffff1660e01b81526004016105209190610f78565b600060405180830381600087803b15801561053a57600080fd5b505af115801561054e573d6000803e3d6000fd5b505050508290509392505050565b80600160006101000a81548173ffffffffffffffffffffffffffffffffffffffff021916908373ffffffffffffffffffffffffffffffffffffffff16021790555050565b600061061a826000015163fb969b0a60e01b604051602401604051602081830303815290604052907bffffffffffffffffffffffffffffffffffffffffffffffffffffffff19166020820180517bffffffffffffffffffffffffffffffffffffffffffffffffffffffff8381831617835250505050610782565b610692826020015163fb969b0a60e01b604051602401604051602081830303815290604052907bffffffffffffffffffffffffffffffffffffffffffffffffffffffff19166020820180517bffffffffffffffffffffffffffffffffffffffffffffffffffffffff8381831617835250505050610782565b3073ffffffffffffffffffffffffffffffffffffffff16639db64a40630ee8be1b60e01b60006040518363ffffffff1660e01b81526004016106d5929190610f93565b600060405180830381600087803b1580156106ef57600080fd5b505af1158015610703573d6000803e3d6000fd5b505050503073ffffffffffffffffffffffffffffffffffffffff1663f2fde38b846040518263ffffffff1660e01b81526004016107409190610c0e565b600060405180830381600087803b15801561075a57600080fd5b505af115801561076e573d6000803e3d6000fd5b5050505063d150751b60e01b905092915050565b6000808373ffffffffffffffffffffffffffffffffffffffff16836040516107aa9190610ff8565b600060405180830381855af49150503d80600081146107e5576040519150601f19603f3d011682016040523d82523d6000602084013e6107ea565b606091505b50915091508115806107fe57506020815114155b80610861575063d150751b60e01b7bffffffffffffffffffffffffffffffffffffffffffffffffffffffff19168180602001905181019061083f919061103b565b7bffffffffffffffffffffffffffffffffffffffffffffffffffffffff191614155b1561087957610878610873858361087f565b61091a565b5b50505050565b60607fd19d65df6830e3cb0da1e12b8e9738e2dc473f830d8af813bcc031eb5a1675d183836040516024016108b5929190610e10565b604051602081830303815290604052907bffffffffffffffffffffffffffffffffffffffffffffffffffffffff19166020820180517bffffffffffffffffffffffffffffffffffffffffffffffffffffffff8381831617835250505050905092915050565b805160208201fd5b6000604051905090565b600080fd5b600073ffffffffffffffffffffffffffffffffffffffff82169050919050565b600061095c82610931565b9050919050565b61096c81610951565b811461097757600080fd5b50565b60008135905061098981610963565b92915050565b600080fd5b6000601f19601f8301169050919050565b7f4e487b7100000000000000000000000000000000000000000000000000000000600052604160045260246000fd5b6109dd82610994565b810181811067ffffffffffffffff821117156109fc576109fb6109a5565b5b80604052505050565b6000610a0f610922565b9050610a1b82826109d4565b919050565b6000610a2b82610951565b9050919050565b610a3b81610a20565b8114610a4657600080fd5b50565b600081359050610a5881610a32565b92915050565b6000610a6982610951565b9050919050565b610a7981610a5e565b8114610a8457600080fd5b50565b600081359050610a9681610a70565b92915050565b600060408284031215610ab257610ab161098f565b5b610abc6040610a05565b90506000610acc84828501610a49565b6000830152506020610ae084828501610a87565b60208301525092915050565b60008060608385031215610b0357610b0261092c565b5b6000610b118582860161097a565b9250506020610b2285828601610a9c565b9150509250929050565b60007fffffffff0000000000000000000000000000000000000000000000000000000082169050919050565b610b6181610b2c565b82525050565b6000602082019050610b7c6000830184610b58565b92915050565b6000610b8d82610931565b9050919050565b6000610b9f82610b82565b9050919050565b610baf81610b94565b8114610bba57600080fd5b50565b600081359050610bcc81610ba6565b92915050565b600060208284031215610be857610be761092c565b5b6000610bf684828501610bbd565b91505092915050565b610c0881610951565b82525050565b6000602082019050610c236000830184610bff565b92915050565b610c3281610b82565b8114610c3d57600080fd5b50565b600081359050610c4f81610c29565b92915050565b600080600060808486031215610c6e57610c6d61092c565b5b6000610c7c86828701610c40565b9350506020610c8d86828701610bbd565b9250506040610c9e86828701610a9c565b9150509250925092565b6000819050919050565b6000610ccd610cc8610cc384610931565b610ca8565b610931565b9050919050565b6000610cdf82610cb2565b9050919050565b6000610cf182610cd4565b9050919050565b610d0181610ce6565b82525050565b6000602082019050610d1c6000830184610cf8565b92915050565b600060208284031215610d3857610d3761092c565b5b6000610d4684828501610c40565b91505092915050565b600081519050610d5e81610963565b92915050565b600060208284031215610d7a57610d7961092c565b5b6000610d8884828501610d4f565b91505092915050565b600081519050919050565b600082825260208201905092915050565b60005b83811015610dcb578082015181840152602081019050610db0565b60008484015250505050565b6000610de282610d91565b610dec8185610d9c565b9350610dfc818560208601610dad565b610e0581610994565b840191505092915050565b6000604082019050610e256000830185610bff565b8181036020830152610e378184610dd7565b90509392505050565b600082825260208201905092915050565b7f496e697469616c4d6967726174696f6e2f494e56414c49445f53454e44455200600082015250565b6000610e87601f83610e40565b9150610e9282610e51565b602082019050919050565b60006020820190508181036000830152610eb681610e7a565b9050919050565b610ec681610b82565b82525050565b6000610ed782610cb2565b9050919050565b6000610ee982610ecc565b9050919050565b610ef981610ede565b82525050565b6000610f0a82610ecc565b9050919050565b610f1a81610eff565b82525050565b604082016000820151610f366000850182610ef0565b506020820151610f496020850182610f11565b50505050565b6000606082019050610f646000830185610ebd565b610f716020830184610f20565b9392505050565b6000602082019050610f8d6000830184610ebd565b92915050565b6000604082019050610fa86000830185610b58565b610fb56020830184610bff565b9392505050565b600081905092915050565b6000610fd282610d91565b610fdc8185610fbc565b9350610fec818560208601610dad565b80840191505092915050565b60006110048284610fc7565b915081905092915050565b61101881610b2c565b811461102357600080fd5b50565b6000815190506110358161100f565b92915050565b6000602082840312156110515761105061092c565b5b600061105f84828501611026565b9150509291505056fea264697066735822122079886b17d6fda1d29ccc438ea3dc99e9874da48ba2376a2e8789cd10e6e384b764736f6c634300081c0033",
  "linkReferences": {},
  "deployedLinkReferences": {}
}