{
  "_format": "hh-sol-artifact-1",
  "contractName": "TestInitialMigration",
  "sourceName": "contracts/test/TestInitialMigration.sol",
  "abi": [
    {
      "inputs": [
        {
          "internalType": "address",
          "name": "deployer",
          "type": "address"
        }
      ],
      "stateMutability": "nonpayable",
      "type": "constructor"
    },
    {
      "inputs": [
        {
          "internalType": "address",
          "name": "owner",
          "type": "address"
        },
        {
          "components": [
            {
              "internalType": "contract SimpleFunctionRegistryFeature",
              "name": "registry",
              "type": "address"
            },
            {
              "internalType": "contract OwnableFeature",
              "name": "ownable",
              "type": "address"
            }
          ],
          "internalType": "struct InitialMigration.BootstrapFeatures",
          "name": "features",
          "type": "tuple"
        }
      ],
      "name": "bootstrap",
      "outputs": [
        {
          "internalType": "bytes4",
          "name": "success",
          "type": "bytes4"
        }
      ],
      "stateMutability": "nonpayable",
      "type": "function"
    },
    {
      "inputs": [],
      "name": "bootstrapFeature",
      "outputs": [
        {
          "internalType": "address",
          "name": "",
          "type": "address"
        }
      ],
      "stateMutability": "view",
      "type": "function"
    },
    {
      "inputs": [
        {
          "internalType": "contract ZeroEx",
          "name": "zeroEx",
          "type": "address"
        }
      ],
      "name": "callBootstrap",
      "outputs": [],
      "stateMutability": "nonpayable",
      "type": "function"
    },
    {
      "inputs": [
        {
          "internalType": "address payable",
          "name": "ethRecipient",
          "type": "address"
        }
      ],
      "name": "die",
      "outputs": [],
      "stateMutability": "nonpayable",
      "type": "function"
    },
    {
      "inputs": [],
      "name": "dieRecipient",
      "outputs": [
        {
          "internalType": "address",
          "name": "",
          "type": "address"
        }
      ],
      "stateMutability": "view",
      "type": "function"
    },
    {
      "inputs": [],
      "name": "initializeCaller",
      "outputs": [
        {
          "internalType": "address",
          "name": "",
          "type": "address"
        }
      ],
      "stateMutability": "view",
      "type": "function"
    },
    {
      "inputs": [
        {
          "internalType": "address payable",
          "name": "owner",
          "type": "address"
        },
        {
          "internalType": "contract ZeroEx",
          "name": "zeroEx",
          "type": "address"
        },
        {
          "components": [
            {
              "internalType": "contract SimpleFunctionRegistryFeature",
              "name": "registry",
              "type": "address"
            },
            {
              "internalType": "contract OwnableFeature",
              "name": "ownable",
              "type": "address"
            }
          ],
          "internalType": "struct InitialMigration.BootstrapFeatures",
          "name": "features",
          "type": "tuple"
        }
      ],
      "name": "initializeZeroEx",
      "outputs": [
        {
          "internalType": "contract ZeroEx",
          "name": "_zeroEx",
          "type": "address"
        }
      ],
      "stateMutability": "nonpayable",
      "type": "function"
    }
  ],
  "bytecode": "0x60c0604052348015600e575f5ffd5b50604051610c08380380610c08833981016040819052602b91603f565b6001600160a01b03166080523060a052606a565b5f60208284031215604e575f5ffd5b81516001600160a01b03811681146063575f5ffd5b9392505050565b60805160a051610b7a61008e5f395f50505f818160e101526103660152610b7a5ff3fe608060405234801561000f575f5ffd5b506004361061007a575f3560e01c8063824912801161005857806382491280146101285780639b7e25a914610147578063a23ce6ce14610167578063c9353cb51461017a575f5ffd5b806308cf79341461007e57806329f5120d146100c75780635f136a4a146100dc575b5f5ffd5b61009161008c3660046109c9565b6101cf565b6040517fffffffff0000000000000000000000000000000000000000000000000000000090911681526020015b60405180910390f35b6100da6100d53660046109fd565b6102bd565b005b6101037f000000000000000000000000000000000000000000000000000000000000000081565b60405173ffffffffffffffffffffffffffffffffffffffff90911681526020016100be565b5f546101039073ffffffffffffffffffffffffffffffffffffffff1681565b6001546101039073ffffffffffffffffffffffffffffffffffffffff1681565b610103610175366004610a1f565b61034d565b6100da6101883660046109fd565b600180547fffffffffffffffffffffffff00000000000000000000000000000000000000001673ffffffffffffffffffffffffffffffffffffffff92909216919091179055565b5f6101da8383610570565b6040517f972fdd260000000000000000000000000000000000000000000000000000000081527f73f208d5000000000000000000000000000000000000000000000000000000006004820152909150309063972fdd2690602401602060405180830381865afa15801561024f573d5f5f3e3d5ffd5b505050506040513d601f19601f820116820180604052508101906102739190610a64565b5f80547fffffffffffffffffffffffff00000000000000000000000000000000000000001673ffffffffffffffffffffffffffffffffffffffff9290921691909117905592915050565b604080515f815260208101918290527f73f208d50000000000000000000000000000000000000000000000000000000090915273ffffffffffffffffffffffffffffffffffffffff8216906373f208d59061031d90309060248101610a7f565b5f604051808303815f87803b158015610334575f5ffd5b505af1158015610346573d5f5f3e3d5ffd5b5050505050565b5f3373ffffffffffffffffffffffffffffffffffffffff7f000000000000000000000000000000000000000000000000000000000000000016146103f1576040517f08c379a000000000000000000000000000000000000000000000000000000000815260206004820152601f60248201527f496e697469616c4d6967726174696f6e2f494e56414c49445f53454e44455200604482015260640160405180910390fd5b6040805173ffffffffffffffffffffffffffffffffffffffff868116602483015284518116604483015260208086015182166064808501919091528451808503909101815260849093018452820180517bffffffffffffffffffffffffffffffffffffffffffffffffffffffff167f08cf79340000000000000000000000000000000000000000000000000000000017905291517f73f208d5000000000000000000000000000000000000000000000000000000008152918516916373f208d5916104c191309190600401610a7f565b5f604051808303815f87803b1580156104d8575f5ffd5b505af11580156104ea573d5f5f3e3d5ffd5b50506040517fc9353cb500000000000000000000000000000000000000000000000000000000815273ffffffffffffffffffffffffffffffffffffffff8716600482015230925063c9353cb591506024015f604051808303815f87803b158015610552575f5ffd5b505af1158015610564573d5f5f3e3d5ffd5b50949695505050505050565b80516040805160048152602481019091526020810180517bffffffffffffffffffffffffffffffffffffffffffffffffffffffff167ffb969b0a000000000000000000000000000000000000000000000000000000001790525f916105d491610765565b60208083015160408051600481526024810190915291820180517bffffffffffffffffffffffffffffffffffffffffffffffffffffffff167ffb969b0a0000000000000000000000000000000000000000000000000000000017905261063991610765565b6040517f9db64a400000000000000000000000000000000000000000000000000000000081527f0ee8be1b0000000000000000000000000000000000000000000000000000000060048201525f60248201523090639db64a40906044015f604051808303815f87803b1580156106ad575f5ffd5b505af11580156106bf573d5f5f3e3d5ffd5b50506040517ff2fde38b00000000000000000000000000000000000000000000000000000000815273ffffffffffffffffffffffffffffffffffffffff8616600482015230925063f2fde38b91506024015f604051808303815f87803b158015610727575f5ffd5b505af1158015610739573d5f5f3e3d5ffd5b507fd150751b000000000000000000000000000000000000000000000000000000009695505050505050565b5f5f8373ffffffffffffffffffffffffffffffffffffffff168360405161078c9190610aef565b5f60405180830381855af49150503d805f81146107c4576040519150601f19603f3d011682016040523d82523d5f602084013e6107c9565b606091505b50915091508115806107dd57508051602014155b8061083f575080517fd150751b000000000000000000000000000000000000000000000000000000009061081a9083016020908101908401610b05565b7fffffffff000000000000000000000000000000000000000000000000000000001614155b1561085657610856610851858361085c565b610917565b50505050565b60607fd19d65df6830e3cb0da1e12b8e9738e2dc473f830d8af813bcc031eb5a1675d18383604051602401610892929190610a7f565b604080517fffffffffffffffffffffffffffffffffffffffffffffffffffffffffffffffe08184030181529190526020810180517bffffffffffffffffffffffffffffffffffffffffffffffffffffffff167fffffffff0000000000000000000000000000000000000000000000000000000090931692909217909152905092915050565b805160208201fd5b73ffffffffffffffffffffffffffffffffffffffff81168114610940575f5ffd5b50565b5f60408284031215610953575f5ffd5b6040516040810181811067ffffffffffffffff8211171561099b577f4e487b71000000000000000000000000000000000000000000000000000000005f52604160045260245ffd5b60405290508082356109ac8161091f565b815260208301356109bc8161091f565b6020919091015292915050565b5f5f606083850312156109da575f5ffd5b82356109e58161091f565b91506109f48460208501610943565b90509250929050565b5f60208284031215610a0d575f5ffd5b8135610a188161091f565b9392505050565b5f5f5f60808486031215610a31575f5ffd5b8335610a3c8161091f565b92506020840135610a4c8161091f565b9150610a5b8560408601610943565b90509250925092565b5f60208284031215610a74575f5ffd5b8151610a188161091f565b73ffffffffffffffffffffffffffffffffffffffff83168152604060208201525f82518060408401528060208501606085015e5f6060828501015260607fffffffffffffffffffffffffffffffffffffffffffffffffffffffffffffffe0601f8301168401019150509392505050565b5f82518060208501845e5f920191825250919050565b5f60208284031215610b15575f5ffd5b81517fffffffff0000000000000000000000000000000000000000000000000000000081168114610a18575f5ffdfea2646970667358221220520765f8db88a108440f68122a2cc90b55d3176de71312ca74c5c2041019533d64736f6c634300081c0033",
  "linkReferences": {},
  "deployedLinkReferences": {}
}