{
  "_format": "hh-sol-artifact-1",
  "contractName": "TestMooniswap",
  "sourceName": "contracts/test/integration/TestMooniswap.sol",
  "abi": [
    {
      "anonymous": false,
      "inputs": [
        {
          "indexed": false,
          "internalType": "uint256",
          "name": "value",
          "type": "uint256"
        },
        {
          "indexed": false,
          "internalType": "contract IERC20Token",
          "name": "sellToken",
          "type": "address"
        },
        {
          "indexed": false,
          "internalType": "contract IERC20Token",
          "name": "buyToken",
          "type": "address"
        },
        {
          "indexed": false,
          "internalType": "uint256",
          "name": "sellAmount",
          "type": "uint256"
        },
        {
          "indexed": false,
          "internalType": "uint256",
          "name": "minBuyAmount",
          "type": "uint256"
        },
        {
          "indexed": false,
          "internalType": "address",
          "name": "referral",
          "type": "address"
        }
      ],
      "name": "MooniswapCalled",
      "type": "event"
    },
    {
      "inputs": [],
      "name": "nextBuyAmount",
      "outputs": [
        {
          "internalType": "uint256",
          "name": "",
          "type": "uint256"
        }
      ],
      "stateMutability": "view",
      "type": "function"
    },
    {
      "inputs": [
        {
          "internalType": "uint256",
          "name": "amt",
          "type": "uint256"
        }
      ],
      "name": "setNextBoughtAmount",
      "outputs": [],
      "stateMutability": "payable",
      "type": "function"
    },
    {
      "inputs": [
        {
          "internalType": "contract IERC20Token",
          "name": "sellToken",
          "type": "address"
        },
        {
          "internalType": "contract TestMintableERC20Token",
          "name": "buyToken",
          "type": "address"
        },
        {
          "internalType": "uint256",
          "name": "sellAmount",
          "type": "uint256"
        },
        {
          "internalType": "uint256",
          "name": "minBuyAmount",
          "type": "uint256"
        },
        {
          "internalType": "address",
          "name": "referral",
          "type": "address"
        }
      ],
      "name": "swap",
      "outputs": [
        {
          "internalType": "uint256",
          "name": "boughtAmount",
          "type": "uint256"
        }
      ],
      "stateMutability": "payable",
      "type": "function"
    }
  ],
  "bytecode": "0x6080604052348015600f57600080fd5b506107e08061001f6000396000f3fe6080604052600436106100345760003560e01c80632f733ef614610039578063d5bcb9b514610055578063eff5bb1c14610085575b600080fd5b610053600480360381019061004e9190610381565b6100b0565b005b61006f600480360381019061006a9190610488565b6100ba565b60405161007c9190610512565b60405180910390f35b34801561009157600080fd5b5061009a610340565b6040516100a79190610512565b60405180910390f35b8060008190555050565b60007faa342d629894ef154c7d1f0791aa8a76e4fb14291563378c99103127e28ed80c3487878787876040516100f59695949392919061059b565b60405180910390a16000549050600080819055508281101561014c576040517f08c379a000000000000000000000000000000000000000000000000000000000815260040161014390610659565b60405180910390fd5b600073ffffffffffffffffffffffffffffffffffffffff168673ffffffffffffffffffffffffffffffffffffffff1614610206578573ffffffffffffffffffffffffffffffffffffffff166323b872dd3330876040518463ffffffff1660e01b81526004016101bd93929190610679565b6020604051808303816000875af11580156101dc573d6000803e3d6000fd5b505050506040513d601f19601f8201168201806040525081019061020091906106e8565b50610249565b348414610248576040517f08c379a000000000000000000000000000000000000000000000000000000000815260040161023f90610761565b60405180910390fd5b5b600073ffffffffffffffffffffffffffffffffffffffff168573ffffffffffffffffffffffffffffffffffffffff16036102c9573373ffffffffffffffffffffffffffffffffffffffff166108fc829081150290604051600060405180830381858888f193505050501580156102c3573d6000803e3d6000fd5b50610337565b8473ffffffffffffffffffffffffffffffffffffffff166340c10f1933836040518363ffffffff1660e01b8152600401610304929190610781565b600060405180830381600087803b15801561031e57600080fd5b505af1158015610332573d6000803e3d6000fd5b505050505b95945050505050565b60005481565b600080fd5b6000819050919050565b61035e8161034b565b811461036957600080fd5b50565b60008135905061037b81610355565b92915050565b60006020828403121561039757610396610346565b5b60006103a58482850161036c565b91505092915050565b600073ffffffffffffffffffffffffffffffffffffffff82169050919050565b60006103d9826103ae565b9050919050565b60006103eb826103ce565b9050919050565b6103fb816103e0565b811461040657600080fd5b50565b600081359050610418816103f2565b92915050565b6000610429826103ce565b9050919050565b6104398161041e565b811461044457600080fd5b50565b60008135905061045681610430565b92915050565b610465816103ce565b811461047057600080fd5b50565b6000813590506104828161045c565b92915050565b600080600080600060a086880312156104a4576104a3610346565b5b60006104b288828901610409565b95505060206104c388828901610447565b94505060406104d48882890161036c565b93505060606104e58882890161036c565b92505060806104f688828901610473565b9150509295509295909350565b61050c8161034b565b82525050565b60006020820190506105276000830184610503565b92915050565b6000819050919050565b600061055261054d610548846103ae565b61052d565b6103ae565b9050919050565b600061056482610537565b9050919050565b600061057682610559565b9050919050565b6105868161056b565b82525050565b610595816103ce565b82525050565b600060c0820190506105b06000830189610503565b6105bd602083018861057d565b6105ca604083018761057d565b6105d76060830186610503565b6105e46080830185610503565b6105f160a083018461058c565b979650505050505050565b600082825260208201905092915050565b7f554e444552424f55474854000000000000000000000000000000000000000000600082015250565b6000610643600b836105fc565b915061064e8261060d565b602082019050919050565b6000602082019050818103600083015261067281610636565b9050919050565b600060608201905061068e600083018661058c565b61069b602083018561058c565b6106a86040830184610503565b949350505050565b60008115159050919050565b6106c5816106b0565b81146106d057600080fd5b50565b6000815190506106e2816106bc565b92915050565b6000602082840312156106fe576106fd610346565b5b600061070c848285016106d3565b91505092915050565b7f4e4f545f454e4f5547485f455448000000000000000000000000000000000000600082015250565b600061074b600e836105fc565b915061075682610715565b602082019050919050565b6000602082019050818103600083015261077a8161073e565b9050919050565b6000604082019050610796600083018561058c565b6107a36020830184610503565b939250505056fea26469706673582212205aaf8949364e0b61477238e88933d966977166d1f75b50324867994581fb80ea64736f6c634300081c0033",
  "linkReferences": {},
  "deployedLinkReferences": {}
}