{
  "_format": "hh-sol-artifact-1",
  "contractName": "TestMooniswap",
  "sourceName": "contracts/test/integration/TestMooniswap.sol",
  "abi": [
    {
      "anonymous": false,
      "inputs": [
        {
          "indexed": false,
          "internalType": "uint256",
          "name": "value",
          "type": "uint256"
        },
        {
          "indexed": false,
          "internalType": "contract IERC20Token",
          "name": "sellToken",
          "type": "address"
        },
        {
          "indexed": false,
          "internalType": "contract IERC20Token",
          "name": "buyToken",
          "type": "address"
        },
        {
          "indexed": false,
          "internalType": "uint256",
          "name": "sellAmount",
          "type": "uint256"
        },
        {
          "indexed": false,
          "internalType": "uint256",
          "name": "minBuyAmount",
          "type": "uint256"
        },
        {
          "indexed": false,
          "internalType": "address",
          "name": "referral",
          "type": "address"
        }
      ],
      "name": "MooniswapCalled",
      "type": "event"
    },
    {
      "inputs": [],
      "name": "nextBuyAmount",
      "outputs": [
        {
          "internalType": "uint256",
          "name": "",
          "type": "uint256"
        }
      ],
      "stateMutability": "view",
      "type": "function"
    },
    {
      "inputs": [
        {
          "internalType": "uint256",
          "name": "amt",
          "type": "uint256"
        }
      ],
      "name": "setNextBoughtAmount",
      "outputs": [],
      "stateMutability": "payable",
      "type": "function"
    },
    {
      "inputs": [
        {
          "internalType": "contract IERC20Token",
          "name": "sellToken",
          "type": "address"
        },
        {
          "internalType": "contract TestMintableERC20Token",
          "name": "buyToken",
          "type": "address"
        },
        {
          "internalType": "uint256",
          "name": "sellAmount",
          "type": "uint256"
        },
        {
          "internalType": "uint256",
          "name": "minBuyAmount",
          "type": "uint256"
        },
        {
          "internalType": "address",
          "name": "referral",
          "type": "address"
        }
      ],
      "name": "swap",
      "outputs": [
        {
          "internalType": "uint256",
          "name": "boughtAmount",
          "type": "uint256"
        }
      ],
      "stateMutability": "payable",
      "type": "function"
    }
  ],
  "bytecode": "0x6080604052348015600e575f5ffd5b506103818061001c5f395ff3fe608060405260043610610033575f3560e01c80632f733ef614610037578063d5bcb9b51461004b578063eff5bb1c14610070575b5f5ffd5b61004961004536600461029c565b5f55565b005b61005e6100593660046102ca565b610084565b60405190815260200160405180910390f35b34801561007b575f5ffd5b5061005e5f5481565b604080513481526001600160a01b038781166020830152868116828401526060820186905260808201859052831660a082015290515f917faa342d629894ef154c7d1f0791aa8a76e4fb14291563378c99103127e28ed80c919081900360c00190a1505f8054908055828110156101305760405162461bcd60e51b815260206004820152600b60248201526a15539111549093d551d21560aa1b60448201526064015b60405180910390fd5b6001600160a01b038616156101b9576040516323b872dd60e01b8152336004820152306024820152604481018590526001600160a01b038716906323b872dd906064016020604051808303815f875af115801561018f573d5f5f3e3d5ffd5b505050506040513d601f19601f820116820180604052508101906101b39190610325565b506101f9565b3484146101f95760405162461bcd60e51b815260206004820152600e60248201526d09c9ea8be8a9c9eaa8e90be8aa8960931b6044820152606401610127565b6001600160a01b03851661023757604051339082156108fc029083905f818181858888f19350505050158015610231573d5f5f3e3d5ffd5b50610293565b6040516340c10f1960e01b8152336004820152602481018290526001600160a01b038616906340c10f19906044015f604051808303815f87803b15801561027c575f5ffd5b505af115801561028e573d5f5f3e3d5ffd5b505050505b95945050505050565b5f602082840312156102ac575f5ffd5b5035919050565b6001600160a01b03811681146102c7575f5ffd5b50565b5f5f5f5f5f60a086880312156102de575f5ffd5b85356102e9816102b3565b945060208601356102f9816102b3565b935060408601359250606086013591506080860135610317816102b3565b809150509295509295909350565b5f60208284031215610335575f5ffd5b81518015158114610344575f5ffd5b939250505056fea2646970667358221220263174bea44be06dc7b952a4d6adc0d6030caa97c973bb20ad1c53bd9f6fdb0064736f6c634300081c0033",
  "linkReferences": {},
  "deployedLinkReferences": {}
}