{
  "_format": "hh-sol-artifact-1",
  "contractName": "MetaTransactionsFeatureV2",
  "sourceName": "contracts/src/features/MetaTransactionsFeatureV2.sol",
  "abi": [
    {
      "inputs": [
        {
          "internalType": "address",
          "name": "zeroExAddress",
          "type": "address"
        },
        {
          "internalType": "contract IEtherToken",
          "name": "weth",
          "type": "address"
        }
      ],
      "stateMutability": "nonpayable",
      "type": "constructor"
    },
    {
      "anonymous": false,
      "inputs": [
        {
          "indexed": false,
          "internalType": "bytes32",
          "name": "hash",
          "type": "bytes32"
        },
        {
          "indexed": true,
          "internalType": "bytes4",
          "name": "selector",
          "type": "bytes4"
        },
        {
          "indexed": false,
          "internalType": "address",
          "name": "signer",
          "type": "address"
        },
        {
          "indexed": false,
          "internalType": "address",
          "name": "sender",
          "type": "address"
        }
      ],
      "name": "MetaTransactionExecutedV2",
      "type": "event"
    },
    {
      "inputs": [],
      "name": "EIP712_DOMAIN_SEPARATOR",
      "outputs": [
        {
          "internalType": "bytes32",
          "name": "",
          "type": "bytes32"
        }
      ],
      "stateMutability": "view",
      "type": "function"
    },
    {
      "inputs": [],
      "name": "FEATURE_NAME",
      "outputs": [
        {
          "internalType": "string",
          "name": "",
          "type": "string"
        }
      ],
      "stateMutability": "view",
      "type": "function"
    },
    {
      "inputs": [],
      "name": "FEATURE_VERSION",
      "outputs": [
        {
          "internalType": "uint256",
          "name": "",
          "type": "uint256"
        }
      ],
      "stateMutability": "view",
      "type": "function"
    },
    {
      "inputs": [],
      "name": "MTX_EIP712_TYPEHASH",
      "outputs": [
        {
          "internalType": "bytes32",
          "name": "",
          "type": "bytes32"
        }
      ],
      "stateMutability": "view",
      "type": "function"
    },
    {
      "inputs": [],
      "name": "MTX_FEE_TYPEHASH",
      "outputs": [
        {
          "internalType": "bytes32",
          "name": "",
          "type": "bytes32"
        }
      ],
      "stateMutability": "view",
      "type": "function"
    },
    {
      "inputs": [
        {
          "components": [
            {
              "internalType": "address payable",
              "name": "signer",
              "type": "address"
            },
            {
              "internalType": "address",
              "name": "sender",
              "type": "address"
            },
            {
              "internalType": "uint256",
              "name": "expirationTimeSeconds",
              "type": "uint256"
            },
            {
              "internalType": "uint256",
              "name": "salt",
              "type": "uint256"
            },
            {
              "internalType": "bytes",
              "name": "callData",
              "type": "bytes"
            },
            {
              "internalType": "contract IERC20Token",
              "name": "feeToken",
              "type": "address"
            },
            {
              "components": [
                {
                  "internalType": "address",
                  "name": "recipient",
                  "type": "address"
                },
                {
                  "internalType": "uint256",
                  "name": "amount",
                  "type": "uint256"
                }
              ],
              "internalType": "struct IMetaTransactionsFeatureV2.MetaTransactionFeeData[]",
              "name": "fees",
              "type": "tuple[]"
            }
          ],
          "internalType": "struct IMetaTransactionsFeatureV2.MetaTransactionDataV2[]",
          "name": "mtxs",
          "type": "tuple[]"
        },
        {
          "components": [
            {
              "internalType": "enum LibSignature.SignatureType",
              "name": "signatureType",
              "type": "uint8"
            },
            {
              "internalType": "uint8",
              "name": "v",
              "type": "uint8"
            },
            {
              "internalType": "bytes32",
              "name": "r",
              "type": "bytes32"
            },
            {
              "internalType": "bytes32",
              "name": "s",
              "type": "bytes32"
            }
          ],
          "internalType": "struct LibSignature.Signature[]",
          "name": "signatures",
          "type": "tuple[]"
        }
      ],
      "name": "batchExecuteMetaTransactionsV2",
      "outputs": [
        {
          "internalType": "bytes[]",
          "name": "returnResults",
          "type": "bytes[]"
        }
      ],
      "stateMutability": "nonpayable",
      "type": "function"
    },
    {
      "inputs": [
        {
          "components": [
            {
              "internalType": "address payable",
              "name": "signer",
              "type": "address"
            },
            {
              "internalType": "address",
              "name": "sender",
              "type": "address"
            },
            {
              "internalType": "uint256",
              "name": "expirationTimeSeconds",
              "type": "uint256"
            },
            {
              "internalType": "uint256",
              "name": "salt",
              "type": "uint256"
            },
            {
              "internalType": "bytes",
              "name": "callData",
              "type": "bytes"
            },
            {
              "internalType": "contract IERC20Token",
              "name": "feeToken",
              "type": "address"
            },
            {
              "components": [
                {
                  "internalType": "address",
                  "name": "recipient",
                  "type": "address"
                },
                {
                  "internalType": "uint256",
                  "name": "amount",
                  "type": "uint256"
                }
              ],
              "internalType": "struct IMetaTransactionsFeatureV2.MetaTransactionFeeData[]",
              "name": "fees",
              "type": "tuple[]"
            }
          ],
          "internalType": "struct IMetaTransactionsFeatureV2.MetaTransactionDataV2",
          "name": "mtx",
          "type": "tuple"
        },
        {
          "components": [
            {
              "internalType": "enum LibSignature.SignatureType",
              "name": "signatureType",
              "type": "uint8"
            },
            {
              "internalType": "uint8",
              "name": "v",
              "type": "uint8"
            },
            {
              "internalType": "bytes32",
              "name": "r",
              "type": "bytes32"
            },
            {
              "internalType": "bytes32",
              "name": "s",
              "type": "bytes32"
            }
          ],
          "internalType": "struct LibSignature.Signature",
          "name": "signature",
          "type": "tuple"
        }
      ],
      "name": "executeMetaTransactionV2",
      "outputs": [
        {
          "internalType": "bytes",
          "name": "returnResult",
          "type": "bytes"
        }
      ],
      "stateMutability": "nonpayable",
      "type": "function"
    },
    {
      "inputs": [
        {
          "components": [
            {
              "internalType": "address payable",
              "name": "signer",
              "type": "address"
            },
            {
              "internalType": "address",
              "name": "sender",
              "type": "address"
            },
            {
              "internalType": "uint256",
              "name": "expirationTimeSeconds",
              "type": "uint256"
            },
            {
              "internalType": "uint256",
              "name": "salt",
              "type": "uint256"
            },
            {
              "internalType": "bytes",
              "name": "callData",
              "type": "bytes"
            },
            {
              "internalType": "contract IERC20Token",
              "name": "feeToken",
              "type": "address"
            },
            {
              "components": [
                {
                  "internalType": "address",
                  "name": "recipient",
                  "type": "address"
                },
                {
                  "internalType": "uint256",
                  "name": "amount",
                  "type": "uint256"
                }
              ],
              "internalType": "struct IMetaTransactionsFeatureV2.MetaTransactionFeeData[]",
              "name": "fees",
              "type": "tuple[]"
            }
          ],
          "internalType": "struct IMetaTransactionsFeatureV2.MetaTransactionDataV2",
          "name": "mtx",
          "type": "tuple"
        }
      ],
      "name": "getMetaTransactionV2ExecutedBlock",
      "outputs": [
        {
          "internalType": "uint256",
          "name": "blockNumber",
          "type": "uint256"
        }
      ],
      "stateMutability": "view",
      "type": "function"
    },
    {
      "inputs": [
        {
          "components": [
            {
              "internalType": "address payable",
              "name": "signer",
              "type": "address"
            },
            {
              "internalType": "address",
              "name": "sender",
              "type": "address"
            },
            {
              "internalType": "uint256",
              "name": "expirationTimeSeconds",
              "type": "uint256"
            },
            {
              "internalType": "uint256",
              "name": "salt",
              "type": "uint256"
            },
            {
              "internalType": "bytes",
              "name": "callData",
              "type": "bytes"
            },
            {
              "internalType": "contract IERC20Token",
              "name": "feeToken",
              "type": "address"
            },
            {
              "components": [
                {
                  "internalType": "address",
                  "name": "recipient",
                  "type": "address"
                },
                {
                  "internalType": "uint256",
                  "name": "amount",
                  "type": "uint256"
                }
              ],
              "internalType": "struct IMetaTransactionsFeatureV2.MetaTransactionFeeData[]",
              "name": "fees",
              "type": "tuple[]"
            }
          ],
          "internalType": "struct IMetaTransactionsFeatureV2.MetaTransactionDataV2",
          "name": "mtx",
          "type": "tuple"
        }
      ],
      "name": "getMetaTransactionV2Hash",
      "outputs": [
        {
          "internalType": "bytes32",
          "name": "mtxHash",
          "type": "bytes32"
        }
      ],
      "stateMutability": "view",
      "type": "function"
    },
    {
      "inputs": [
        {
          "internalType": "bytes32",
          "name": "mtxHash",
          "type": "bytes32"
        }
      ],
      "name": "getMetaTransactionV2HashExecutedBlock",
      "outputs": [
        {
          "internalType": "uint256",
          "name": "blockNumber",
          "type": "uint256"
        }
      ],
      "stateMutability": "view",
      "type": "function"
    },
    {
      "inputs": [],
      "name": "migrate",
      "outputs": [
        {
          "internalType": "bytes4",
          "name": "success",
          "type": "bytes4"
        }
      ],
      "stateMutability": "nonpayable",
      "type": "function"
    }
  ],
  "bytecode": "0x6101406040526801000000000000000060c0527fb6f9479aa1770b2595c13a7a7748ffae255c8bed666b9e467d05ab8c23e889b360e0527f4dfbf11e17f3687ff7b6e7fec4b8d3f877334cc34247460478b202766ad6bd7e61010052348015610066575f5ffd5b5060405161351038038061351083398101604081905261008591610166565b306080908152604080517f8b73c3c69bb8fe3d512ecc4cf759cc79239f7b179b0ffacaa9a75d522b39400f60208201527f9e5dae0addaf20578aeb5d70341d092b53b4e14480ac5726438fd436df7ba427918101919091527f06c015bd22b4c69690933c1058878ebdfef31f9aaae40bbe86d8a09fe1b2972c6060820152469181018290526001600160a01b03841660a082015283919060c00160408051601f19818403018152919052805160209091012060a05250506001600160a01b0316610120525061019e565b6001600160a01b0381168114610163575f5ffd5b50565b5f5f60408385031215610177575f5ffd5b82516101828161014f565b60208401519092506101938161014f565b809150509250929050565b60805160a05160c05160e05161010051610120516133096102075f395f818161129b0152818161134001526114a401525f8181610129015261050201525f81816101db01526105b001525f60af01525f8181610202015261068a01525f610af601526133095ff3fe608060405234801561000f575f5ffd5b50600436106100a6575f3560e01c8063769c11071161006e578063769c11071461017c5780638fd3ab801461018f578063a982ee82146101b0578063b13c4c68146101c3578063d036092d146101d6578063dab400f3146101fd575f5ffd5b8063031b905c146100aa57806334ae3600146100e45780633d8d408214610104578063471121c6146101245780636ae4b4f71461014b575b5f5ffd5b6100d17f000000000000000000000000000000000000000000000000000000000000000081565b6040519081526020015b60405180910390f35b6100f76100f2366004612124565b610224565b6040516100db919061222b565b61011761011236600461228e565b6103ec565b6040516100db91906122d9565b6100d17f000000000000000000000000000000000000000000000000000000000000000081565b6101176040518060400160405280601281526020017126b2ba30aa3930b739b0b1ba34b7b739ab1960711b81525081565b6100d161018a3660046122eb565b6104a6565b6101976106de565b6040516001600160e01b031990911681526020016100db565b6100d16101be366004612324565b61073a565b6100d16101d13660046122eb565b610753565b6100d17f000000000000000000000000000000000000000000000000000000000000000081565b6100d17f000000000000000000000000000000000000000000000000000000000000000081565b606060015f610231610766565b8054909150828116156102915761029161028c6102865f5f368080601f0160208091040260200160405190810160405280939291908181526020018383808284375f9201919091525092939250506107729050565b856107b8565b610835565b82178155835185514791146102af576102af61028c8751875161083d565b85516001600160401b038111156102c8576102c8611d0f565b6040519080825280602002602001820160405280156102fb57816020015b60608152602001906001900390816102e65790505b5093505f5b86518110156103b257610311611c59565b33815287518890839081106103285761032861233b565b6020026020010151816040018190525061035a88838151811061034d5761034d61233b565b60200260200101516104a6565b602082015286518790839081106103735761037361233b565b6020026020010151816060018190525061038c8161087b565b86838151811061039e5761039e61233b565b602090810291909101015250600101610300565b50478111156103dc5760405162461bcd60e51b81526004016103d39061234f565b60405180910390fd5b5080549119909116905592915050565b606060015f6103f9610766565b80549091508281161561044e5761044e61028c6102865f5f368080601f0160208091040260200160405190810160405280939291908181526020018383808284375f9201919091525092939250506107729050565b821781554761045b611c59565b3381526040810187905261046e876104a6565b6020820152606081018690526104838161087b565b945050478111156103dc5760405162461bcd60e51b81526004016103d39061234f565b5f5f8260c00151516001600160401b038111156104c5576104c5611d0f565b6040519080825280602002602001820160405280156104ee578160200160208202803683370190505b5090505f5b8360c00151518110156105aa577f00000000000000000000000000000000000000000000000000000000000000008460c0015182815181106105375761053761233b565b602002602001015160405160200161056f92919091825280516001600160a01b03166020808401919091520151604082015260600190565b604051602081830303815290604052805190602001208282815181106105975761059761233b565b60209081029190910101526001016104f3565b506106d77f0000000000000000000000000000000000000000000000000000000000000000845f01518560200151866040015187606001518860800151805190602001208960a00151886040516020016106049190612391565b60408051808303601f190181528282528051602091820120908301999099526001600160a01b03978816908201529486166060860152608085019390935260a084019190915260c083015290911660e0820152610100810191909152610120016040516020818303038152906040528051906020012060405161190160f01b60208201527f00000000000000000000000000000000000000000000000000000000000000006022820152604281018290525f90606201604051602081830303815290604052805190602001209050919050565b9392505050565b5f6106ef631ec6a04160e11b610acf565b6106fe621a571b60e91b610acf565b61070e631627898d60e31b610acf565b61071e6354c1774160e11b610acf565b61072e63769c110760e01b610acf565b50632c64c5ef60e01b90565b5f610743610b56565b5f92835260205250604090205490565b5f6107606101be836104a6565b92915050565b5f5f6107606006610b5e565b5f61077e8260046123da565b835110156107a2576107a261028c6003855185600461079d91906123da565b610b86565b6107ad6020836123da565b929092015192915050565b6040516001600160e01b031983166024820152604481018290526060907fc7a7103e21e41a5c3158b3028d34cb9bb9593b10b1892f49d7187efa71219d4e906064015b60408051601f198184030181529190526020810180516001600160e01b03166001600160e01b031990931692909217909152905092915050565b805160208201fd5b60405160248101839052604481018290526060907f52974c3a86e985173f72e2fb84ba2bfca8fb3b7c5031eb8077ebd59458abf2a4906064016107fb565b606061088682610be0565b4361088f610b56565b6020808501515f90815291905260408120919091555b826040015160c001515181101561091e57604083015160a0810151815160c0909201518051610916939190859081106108e0576108e061233b565b60200260200101515f0151866040015160c0015185815181106109055761090561233b565b602002602001015160200151610d00565b6001016108a5565b50604082015160800151610932905f610772565b6001600160e01b03191660808301819052630beaa9a560e41b016109605761095982610dd1565b9050610a53565b60808201516001600160e01b0319166304ec584d60e11b016109855761095982610fb4565b60808201516001600160e01b0319166315622e2560e21b016109aa57610959826110a0565b60808201516001600160e01b0319166385e14e4760e01b016109cf5761095982611174565b60808201516001600160e01b031916634446d10560e11b016109f4576109598261124d565b60808201516001600160e01b031916637862672760e11b01610a1957610959826113ba565b60808201516001600160e01b0319166332eb4c1760e11b01610a3e576109598261145f565b610a5361028c836020015184608001516115cd565b81608001516001600160e01b0319167fb2b790db3089537c0be429b005b2ae9c540812afcc394c370b25573558f88bd0836020015184604001515f0151856040015160200151604051610ac2939291909283526001600160a01b03918216602084015216604082015260600190565b60405180910390a2919050565b604051636eb224cb60e01b81526001600160e01b0319821660048201526001600160a01b037f00000000000000000000000000000000000000000000000000000000000000001660248201523090636eb224cb906044015f604051808303815f87803b158015610b3d575f5ffd5b505af1158015610b4f573d5f5f3e3d5ffd5b5050505050565b5f5f610760600b5b5f608082600b811115610b7357610b736123ed565b610b7e9060016123da565b901b92915050565b6060632800659560e01b848484604051602401610ba593929190612401565b60408051601f198184030181529190526020810180516001600160e01b03166001600160e01b03199093169290921790915290509392505050565b6040810151602001516001600160a01b031615801590610c1d5750805f01516001600160a01b03168160400151602001516001600160a01b031614155b15610c3f57610c3f61028c8260200151835f0151846040015160200151611614565b4281604001516040015111610c6857610c6861028c826020015142846040015160400151611662565b80604001515f01516001600160a01b0316610c8b826020015183606001516116a7565b6001600160a01b031614610cc257610cc261028c6004836020015184604001515f015160405180602001604052805f815250611811565b610cca610b56565b6020808301515f908152919052604090205460c0820181905215610cfd57610cfd61028c82602001518360c00151611887565b50565b306001600160a01b03851603610d645760405162461bcd60e51b8152602060048201526024808201527f466978696e546f6b656e5370656e6465722f43414e4e4f545f494e564f4b455f60448201526329a2a62360e11b60648201526084016103d3565b6040516323b872dd60e01b81526001600160a01b03841660048201526001600160a01b03831660248201528160448201526020816064835f6001600160a01b038a165af13d60018351146020821015168115178216915081610dc857805f843e8083fd5b50505050505050565b6060610e136040518060a001604052805f6001600160a01b031681526020015f6001600160a01b031681526020015f81526020015f8152602001606081525090565b5f600484604001516080015151610e2a9190612429565b610e359060206123da565b6001600160401b03811115610e4c57610e4c611d0f565b6040519080825280601f01601f191660200182016040528015610e76576020820181803683370190505b5090505f846040015160800151905060a081511015610e9757610e9761243c565b602082810152805160248201906040840190610ec29082908490610ebd90600490612429565b6118c5565b83806020019051810190610ed691906124a8565b9450505050506106d78360200151638aa6539b60e01b60405180610100016040528087604001515f01516001600160a01b03168152602001855f01516001600160a01b0316815260200185602001516001600160a01b031681526020018560400151815260200185606001518152602001856080015181526020015f1515815260200187604001515f01516001600160a01b0316815250604051602401610f7d9190612697565b60408051601f198184030181529190526020810180516001600160e01b03166001600160e01b031990931692909217909152611968565b60408051610180810182525f80825260208083018290528284018290526060808401839052608080850184905260a0850184905260c0850184905260e08501849052610100850184905261012085018490526101408501849052610160850184905285519081018652838152918201839052938101829052808401919091525f5f6110468660400151608001516119e0565b90508080602001905181019061105c91906127ba565b60208901516040808b015151905194985092965090945061109692909163414e4ccf60e01b91610f7d918991899189913390602401612901565b9695505050505050565b60408051610140810182525f80825260208083018290528284018290526060808401839052608080850184905260a0850184905260c0850184905260e085018490526101008501849052610120850184905285519081018652838152918201839052938101829052808401919091525f5f6111228660400151608001516119e0565b9050808060200190518101906111389190612a65565b60208901516040808b015151905194985092965090945061109692909163aa6b21cd60e01b91610f7d918991899189915f908290602401612b48565b60605f5f60605f5f5f61118e8860400151608001516119e0565b9050808060200190518101906111a49190612d5a565b809650819750829850839950849a50505050505061124188602001516343475db960e01b6040518060e001604052808a6001600160a01b03168152602001896001600160a01b031681526020018781526020018881526020015f151581526020018c604001515f01516001600160a01b031681526020018c604001515f01516001600160a01b031681525085604051602401610f7d929190612ddf565b98975050505050505050565b60605f60605f5f5f6112668760400151608001516119e0565b90508080602001905181019061127c9190612ee9565b6020808c01516040805160e0810182526001600160a01b0380891682527f0000000000000000000000000000000000000000000000000000000000000000811694820194909452808201869052606081018790525f60808201523060a0820152818f01515190931660c084015251959a509398509196509450611310926343475db960e01b91610f7d918790602401612ddf565b95505f868060200190518101906113279190612f45565b604051632e1a7d4d60e01b8152600481018290529091507f00000000000000000000000000000000000000000000000000000000000000006001600160a01b031690632e1a7d4d906024015f604051808303815f87803b158015611389575f5ffd5b505af115801561139b573d5f5f3e3d5ffd5b5050506040890151516113af915082611a55565b505050505050919050565b60608060605f5f5f6113d38760400151608001516119e0565b9050808060200190518101906113e9919061302a565b6020808c01516040805160c0810182528781529283018590528281018690525f6060840152808e018051516001600160a01b0390811660808601529051511660a084015251959a50939850919650945061145492635951736160e01b91610f7d918790602401613153565b979650505050505050565b60608060605f5f5f6114788760400151608001516119e0565b90508080602001905181019061148e919061302a565b8351939850919650945092506001600160a01b037f0000000000000000000000000000000000000000000000000000000000000000169086906114d390600190612429565b815181106114e3576114e361233b565b60200260200101516001600160a01b0316146115725760405162461bcd60e51b815260206004820152604260248201527f4d6574615472616e73616374696f6e73466561747572653a3a6d756c7469706c60448201527f65784d756c7469486f7053656c6c546f6b656e466f724574682f4e4f545f57456064820152610a8960f31b608482015260a4016103d3565b6020808801516040805160c0810182528881529283018690528281018790525f6060840152306080840152808a0151516001600160a01b031660a08401525161131092635951736160e01b91610f7d91908790602401613153565b604051602481018390526001600160e01b0319821660448201526060907f547a32a328d8a78dbe9bf090fa60ba3d4d1c6833a592a2c942666ce3249c1210906064016107fb565b604051602481018490526001600160a01b038084166044830152821660648201526060907fa78002a166fcae5236d89e3ff35c53dadb775f7818de4a020714cba4bf36082290608401610ba5565b6040516024810184905260448101839052606481018290526060907fbea726efdf9868bbc5755dce9f13d585b3cf731177be75300d15bb8f5e28615890608401610ba5565b5f6116b28383611b16565b6002825160048111156116c7576116c76123ed565b036117385760208083015160408085015160608087015183515f815295860180855289905260ff9094169285019290925290830152608082015260019060a0016020604051602081039080840390855afa158015611727573d5f5f3e3d5ffd5b5050506020604051035190506117f5565b60038251600481111561174d5761174d6123ed565b036117f5575f7f19457468657265756d205369676e6564204d6573736167653a0a3332000000005f5283601c52603c5f2090506001818460200151856040015186606001516040515f81526020016040526040516117c7949392919093845260ff9290921660208401526040830152606082015260800190565b6020604051602081039080840390855afa1580156117e7573d5f5f3e3d5ffd5b505050602060405103519150505b6001600160a01b0381166107605761076061028c600585611beb565b60607f4c7607a3ebba99c9acde0e2a04d88829f7001b63f028b796dda6ff02406ddad58585858560405160240161184b9493929190613226565b60408051601f198184030181529190526020810180516001600160e01b03166001600160e01b0319909316929092179091529050949350505050565b60405160248101839052604481018290526060907ffe251a07f3cbffd23c1c1db9ec776d259099c832333d99ef48cacfa93a4d7b32906064016107fb565b60208110156118ed578151835160208390036101000a5f190180199092169116178352505050565b8282036118f957505050565b828211156119335760208103905080820181840181515b8285101561192b578451865260209586019590940193611910565b905250505050565b60208103905080820181840183515b8186121561195e5782518252601f199283019290910190611942565b855250505b505050565b60605f306001600160a01b0316836040516119839190613259565b5f604051808303815f865af19150503d805f81146119bc576040519150601f19603f3d011682016040523d82523d5f602084013e6119c1565b606091505b5092509050806119d9576119d961028c858585611c21565b5092915050565b6060600482516119f09190612429565b6001600160401b03811115611a0757611a07611d0f565b6040519080825280601f01601f191660200182016040528015611a31576020820181803683370190505b5090505f5f602484019150602083019050611a4e818385516118c5565b5050919050565b8015611b12575f826001600160a01b0316826040515f6040518083038185875af1925050503d805f8114611aa4576040519150601f19603f3d011682016040523d82523d5f602084013e611aa9565b606091505b50509050806119635760405162461bcd60e51b815260206004820152602f60248201527f466978696e546f6b656e5370656e6465723a3a5f7472616e736665724574682f60448201526e1514905394d1915497d19052531151608a1b60648201526084016103d3565b5050565b604081015170014551231950b75fc4402da1732fc9bebe19111580611b665750611b53600270014551231950b75fc4402da1732fc9bebe1961326f565b611b5e9060016123da565b606082015110155b15611b7957611b7961028c600584611beb565b5f81516004811115611b8d57611b8d6123ed565b03611ba057611ba061028c600384611beb565b600181516004811115611bb557611bb56123ed565b03611bc757611bc761028c5f84611beb565b600481516004811115611bdc57611bdc6123ed565b03611b1257611b1261028c6002845b60607ff18f11f3027e735c758137924b262d4d3aff0037dcd785aca3c699fa05d960bd83836040516024016107fb92919061328e565b60607fa9f0c547643c02afed4cf2699e794bc383effca840eed62fddb64a15a4e55bc4848484604051602401610ba5939291906132a9565b6040518060e001604052805f6001600160a01b031681526020015f8152602001611ccf6040518060e001604052805f6001600160a01b031681526020015f6001600160a01b031681526020015f81526020015f8152602001606081526020015f6001600160a01b03168152602001606081525090565b8152604080516080810182525f8082526020828101829052928201819052606082015291019081525f602082018190526040820181905260609091015290565b634e487b7160e01b5f52604160045260245ffd5b604080519081016001600160401b0381118282101715611d4557611d45611d0f565b60405290565b60405160e081016001600160401b0381118282101715611d4557611d45611d0f565b604051608081016001600160401b0381118282101715611d4557611d45611d0f565b60405160a081016001600160401b0381118282101715611d4557611d45611d0f565b60405161018081016001600160401b0381118282101715611d4557611d45611d0f565b60405161014081016001600160401b0381118282101715611d4557611d45611d0f565b604051606081016001600160401b0381118282101715611d4557611d45611d0f565b604051601f8201601f191681016001600160401b0381118282101715611e4157611e41611d0f565b604052919050565b5f6001600160401b03821115611e6157611e61611d0f565b5060051b60200190565b6001600160a01b0381168114610cfd575f5ffd5b8035611e8a81611e6b565b919050565b5f6001600160401b03821115611ea757611ea7611d0f565b50601f01601f191660200190565b5f82601f830112611ec4575f5ffd5b8135611ed7611ed282611e8f565b611e19565b818152846020838601011115611eeb575f5ffd5b816020850160208301375f918101602001919091529392505050565b5f82601f830112611f16575f5ffd5b8135611f24611ed282611e49565b8082825260208201915060208360061b860101925085831115611f45575f5ffd5b602085015b83811015611f905760408188031215611f61575f5ffd5b611f69611d23565b8135611f7481611e6b565b8152602082810135818301529084529290920191604001611f4a565b5095945050505050565b5f60e08284031215611faa575f5ffd5b611fb2611d4b565b9050611fbd82611e7f565b8152611fcb60208301611e7f565b6020820152604082810135908201526060808301359082015260808201356001600160401b03811115611ffc575f5ffd5b61200884828501611eb5565b60808301525061201a60a08301611e7f565b60a082015260c08201356001600160401b03811115612037575f5ffd5b61204384828501611f07565b60c08301525092915050565b60058110610cfd575f5ffd5b60ff81168114610cfd575f5ffd5b5f60808284031215612079575f5ffd5b612081611d6d565b9050813561208e8161204f565b8152602082013561209e8161205b565b60208201526040828101359082015260609182013591810191909152919050565b5f82601f8301126120ce575f5ffd5b81356120dc611ed282611e49565b8082825260208201915060208360071b8601019250858311156120fd575f5ffd5b602085015b83811015611f90576121148782612069565b8352602090920191608001612102565b5f5f60408385031215612135575f5ffd5b82356001600160401b0381111561214a575f5ffd5b8301601f8101851361215a575f5ffd5b8035612168611ed282611e49565b8082825260208201915060208360051b850101925087831115612189575f5ffd5b602084015b838110156121c95780356001600160401b038111156121ab575f5ffd5b6121ba8a602083890101611f9a565b8452506020928301920161218e565b50945050505060208301356001600160401b038111156121e7575f5ffd5b6121f3858286016120bf565b9150509250929050565b5f81518084528060208401602086015e5f602082860101526020601f19601f83011685010191505092915050565b5f602082016020835280845180835260408501915060408160051b8601019250602086015f5b8281101561228257603f1987860301845261226d8583516121fd565b94506020938401939190910190600101612251565b50929695505050505050565b5f5f60a0838503121561229f575f5ffd5b82356001600160401b038111156122b4575f5ffd5b6122c085828601611f9a565b9250506122d08460208501612069565b90509250929050565b602081525f6106d760208301846121fd565b5f602082840312156122fb575f5ffd5b81356001600160401b03811115612310575f5ffd5b61231c84828501611f9a565b949350505050565b5f60208284031215612334575f5ffd5b5035919050565b634e487b7160e01b5f52603260045260245ffd5b60208082526022908201527f4d6574615472616e73616374696f6e734665617475726556322f4554485f4c45604082015261414b60f01b606082015260800190565b81515f90829060208501835b828110156123bb57815184526020938401939091019060010161239d565b509195945050505050565b634e487b7160e01b5f52601160045260245ffd5b80820180821115610760576107606123c6565b634e487b7160e01b5f52602160045260245ffd5b6060810160088510612415576124156123ed565b938152602081019290925260409091015290565b81810381811115610760576107606123c6565b634e487b7160e01b5f52600160045260245ffd5b8051611e8a81611e6b565b5f82601f83011261246a575f5ffd5b8151612478611ed282611e8f565b81815284602083860101111561248c575f5ffd5b8160208501602083015e5f918101602001919091529392505050565b5f602082840312156124b8575f5ffd5b81516001600160401b038111156124cd575f5ffd5b820160a081850312156124de575f5ffd5b6124e6611d8f565b81516124f181611e6b565b8152602082015161250181611e6b565b6020820152604082810151908201526060808301519082015260808201516001600160401b03811115612532575f5ffd5b80830192505084601f830112612546575f5ffd5b8151612554611ed282611e49565b8082825260208201915060208360051b860101925087831115612575575f5ffd5b602085015b8381101561260f5780516001600160401b03811115612597575f5ffd5b86016040818b03601f190112156125ac575f5ffd5b6125b4611d23565b602082015163ffffffff811681146125ca575f5ffd5b815260408201516001600160401b038111156125e4575f5ffd5b6125f38c60208386010161245b565b602083015250808552505060208301925060208101905061257a565b506080840152509095945050505050565b5f82825180855260208501945060208160051b830101602085015f5b8381101561268b57601f19858403018852815163ffffffff8151168452602081015190506040602085015261267460408501826121fd565b6020998a019990945092909201915060010161263c565b50909695505050505050565b602080825282516001600160a01b039081168383015290830151166040808301919091528201515f906126d560608401826001600160a01b03169052565b5060608301516080830152608083015160a083015260a083015161010060c0840152612705610120840182612620565b905060c084015161271a60e085018215159052565b5060e08401516001600160a01b038116610100850152509392505050565b80516001600160801b0381168114611e8a575f5ffd5b80516001600160401b0381168114611e8a575f5ffd5b5f60808284031215612774575f5ffd5b61277c611d6d565b905081516127898161204f565b815260208201516127998161205b565b60208201526040828101519082015260609182015191810191909152919050565b5f5f5f8385036102208112156127ce575f5ffd5b6101808112156127dc575f5ffd5b506127e5611db1565b6127ee85612450565b81526127fc60208601612450565b602082015261280d60408601612738565b604082015261281e60608601612738565b606082015261282f60808601612738565b608082015261284060a08601612450565b60a082015261285160c08601612450565b60c082015261286260e08601612450565b60e08201526128746101008601612450565b6101008201526101208581015190820152612892610140860161274e565b610140820152610160858101519082015292506128b3856101808601612764565b91506128c26102008501612738565b90509250925092565b8051600581106128dd576128dd6123ed565b825260208181015160ff169083015260408082015190830152606090810151910152565b85516001600160a01b031681526102608101602087015161292d60208401826001600160a01b03169052565b50604087015161294860408401826001600160801b03169052565b50606087015161296360608401826001600160801b03169052565b50608087015161297e60808401826001600160801b03169052565b5060a087015161299960a08401826001600160a01b03169052565b5060c08701516129b460c08401826001600160a01b03169052565b5060e08701516129cf60e08401826001600160a01b03169052565b506101008701516129ec6101008401826001600160a01b03169052565b50610120870151610120830152610140870151612a156101408401826001600160401b03169052565b50610160870151610160830152612a306101808301876128cb565b6001600160801b0385166102008301526001600160a01b0384166102208301526001600160a01b038316610240830152611096565b5f5f5f8385036101e0811215612a79575f5ffd5b610140811215612a87575f5ffd5b50612a90611dd4565b612a9985612450565b8152612aa760208601612450565b6020820152612ab860408601612738565b6040820152612ac960608601612738565b6060820152612ada60808601612450565b6080820152612aeb60a08601612450565b60a0820152612afc60c08601612450565b60c082015260e08581015190820152612b18610100860161274e565b61010082015261012085810151908201529250612b39856101408601612764565b91506128c26101c08501612738565b86516001600160a01b0316815261024081016020880151612b7460208401826001600160a01b03169052565b506040880151612b8f60408401826001600160801b03169052565b506060880151612baa60608401826001600160801b03169052565b506080880151612bc560808401826001600160a01b03169052565b5060a0880151612be060a08401826001600160a01b03169052565b5060c0880151612bfb60c08401826001600160a01b03169052565b5060e088015160e0830152610100880151612c226101008401826001600160401b03169052565b50610120880151610120830152612c3d6101408301886128cb565b6001600160801b0386166101c08301526001600160a01b0385166101e08301528315156102008301526001600160a01b038316610220830152611454565b805160098110611e8a575f5ffd5b5f82601f830112612c98575f5ffd5b8151612ca6611ed282611e49565b8082825260208201915060208360051b860101925085831115612cc7575f5ffd5b602085015b83811015611f905780516001600160401b03811115612ce9575f5ffd5b86016060818903601f19011215612cfe575f5ffd5b612d06611df7565b612d1260208301612c7b565b81526040820151602082015260608201516001600160401b03811115612d36575f5ffd5b612d458a60208386010161245b565b60408301525084525060209283019201612ccc565b5f5f5f5f5f60a08688031215612d6e575f5ffd5b8551612d7981611e6b565b6020870151909550612d8a81611e6b565b60408701519094506001600160401b03811115612da5575f5ffd5b612db188828901612c89565b606088015160809098015196999598509695949350505050565b60098110612ddb57612ddb6123ed565b9052565b604081525f610120820160018060a01b03855116604084015260018060a01b03602086015116606084015260408501516080840152606085015160e060a0850152818151808452610140860191506101408160051b87010193506020830192505f5b81811015612e9b5761013f198786030183528351612e60868251612dcb565b602081015160208701526040810151905060606040870152612e8560608701826121fd565b9550506020938401939290920191600101612e41565b50505050608085015180151560c08501525060a08501516001600160a01b03811660e08501525060c08501516001600160a01b0381166101008501525b506020929092019290925292915050565b5f5f5f5f60808587031215612efc575f5ffd5b8451612f0781611e6b565b60208601519094506001600160401b03811115612f22575f5ffd5b612f2e87828801612c89565b604087015160609097015195989097509350505050565b5f60208284031215612f55575f5ffd5b5051919050565b5f82601f830112612f6b575f5ffd5b8151612f79611ed282611e49565b8082825260208201915060208360051b860101925085831115612f9a575f5ffd5b602085015b83811015611f905780516001600160401b03811115612fbc575f5ffd5b86016040818903601f19011215612fd1575f5ffd5b612fd9611d23565b612fe560208301612c7b565b815260408201516001600160401b03811115612fff575f5ffd5b61300e8a60208386010161245b565b6020830152508085525050602083019250602081019050612f9f565b5f5f5f5f6080858703121561303d575f5ffd5b84516001600160401b03811115613052575f5ffd5b8501601f81018713613062575f5ffd5b8051613070611ed282611e49565b8082825260208201915060208360051b850101925089831115613091575f5ffd5b6020840193505b828410156130bc5783516130ab81611e6b565b825260209384019390910190613098565b8097505050505060208501516001600160401b038111156130db575f5ffd5b612f2e87828801612f5c565b5f82825180855260208501945060208160051b830101602085015f5b8381101561268b57601f198584030188528151613121848251612dcb565b602081015190506040602085015261313c60408501826121fd565b6020998a0199909450929092019150600101613103565b604081525f6101008201845160c06040850152818151808452610120860191506020830193505f92505b808310156131a85783516001600160a01b03168252602093840193600193909301929091019061317d565b50602087015160608601526040870151858203603f1901608087015292506131d081846130e7565b9250505060608501516131e760a085018215159052565b5060808501516001600160a01b03811660c08501525060a08501516001600160a01b03811660e0850152612ed8565b60068110612ddb57612ddb6123ed565b6132308186613216565b83602082015260018060a01b0383166040820152608060608201525f61109660808301846121fd565b5f82518060208501845e5f920191825250919050565b5f8261328957634e487b7160e01b5f52601260045260245ffd5b500490565b6040810161329c8285613216565b8260208301529392505050565b838152606060208201525f6132c160608301856121fd565b828103604084015261109681856121fd56fea26469706673582212200dd6666b95e6085f15211c248c0f406383a772efd5a1b0d65f937ff40cbc5cb864736f6c634300081c0033",
  "linkReferences": {},
  "deployedLinkReferences": {}
}