{
  "_format": "hh-sol-artifact-1",
  "contractName": "MetaTransactionsFeatureV2",
  "sourceName": "contracts/src/features/MetaTransactionsFeatureV2.sol",
  "abi": [
    {
      "inputs": [
        {
          "internalType": "address",
          "name": "zeroExAddress",
          "type": "address"
        },
        {
          "internalType": "contract IEtherToken",
          "name": "weth",
          "type": "address"
        }
      ],
      "stateMutability": "nonpayable",
      "type": "constructor"
    },
    {
      "anonymous": false,
      "inputs": [
        {
          "indexed": false,
          "internalType": "bytes32",
          "name": "hash",
          "type": "bytes32"
        },
        {
          "indexed": true,
          "internalType": "bytes4",
          "name": "selector",
          "type": "bytes4"
        },
        {
          "indexed": false,
          "internalType": "address",
          "name": "signer",
          "type": "address"
        },
        {
          "indexed": false,
          "internalType": "address",
          "name": "sender",
          "type": "address"
        }
      ],
      "name": "MetaTransactionExecutedV2",
      "type": "event"
    },
    {
      "inputs": [],
      "name": "EIP712_DOMAIN_SEPARATOR",
      "outputs": [
        {
          "internalType": "bytes32",
          "name": "",
          "type": "bytes32"
        }
      ],
      "stateMutability": "view",
      "type": "function"
    },
    {
      "inputs": [],
      "name": "FEATURE_NAME",
      "outputs": [
        {
          "internalType": "string",
          "name": "",
          "type": "string"
        }
      ],
      "stateMutability": "view",
      "type": "function"
    },
    {
      "inputs": [],
      "name": "FEATURE_VERSION",
      "outputs": [
        {
          "internalType": "uint256",
          "name": "",
          "type": "uint256"
        }
      ],
      "stateMutability": "view",
      "type": "function"
    },
    {
      "inputs": [],
      "name": "MTX_EIP712_TYPEHASH",
      "outputs": [
        {
          "internalType": "bytes32",
          "name": "",
          "type": "bytes32"
        }
      ],
      "stateMutability": "view",
      "type": "function"
    },
    {
      "inputs": [],
      "name": "MTX_FEE_TYPEHASH",
      "outputs": [
        {
          "internalType": "bytes32",
          "name": "",
          "type": "bytes32"
        }
      ],
      "stateMutability": "view",
      "type": "function"
    },
    {
      "inputs": [
        {
          "components": [
            {
              "internalType": "address payable",
              "name": "signer",
              "type": "address"
            },
            {
              "internalType": "address",
              "name": "sender",
              "type": "address"
            },
            {
              "internalType": "uint256",
              "name": "expirationTimeSeconds",
              "type": "uint256"
            },
            {
              "internalType": "uint256",
              "name": "salt",
              "type": "uint256"
            },
            {
              "internalType": "bytes",
              "name": "callData",
              "type": "bytes"
            },
            {
              "internalType": "contract IERC20Token",
              "name": "feeToken",
              "type": "address"
            },
            {
              "components": [
                {
                  "internalType": "address",
                  "name": "recipient",
                  "type": "address"
                },
                {
                  "internalType": "uint256",
                  "name": "amount",
                  "type": "uint256"
                }
              ],
              "internalType": "struct IMetaTransactionsFeatureV2.MetaTransactionFeeData[]",
              "name": "fees",
              "type": "tuple[]"
            }
          ],
          "internalType": "struct IMetaTransactionsFeatureV2.MetaTransactionDataV2[]",
          "name": "mtxs",
          "type": "tuple[]"
        },
        {
          "components": [
            {
              "internalType": "enum LibSignature.SignatureType",
              "name": "signatureType",
              "type": "uint8"
            },
            {
              "internalType": "uint8",
              "name": "v",
              "type": "uint8"
            },
            {
              "internalType": "bytes32",
              "name": "r",
              "type": "bytes32"
            },
            {
              "internalType": "bytes32",
              "name": "s",
              "type": "bytes32"
            }
          ],
          "internalType": "struct LibSignature.Signature[]",
          "name": "signatures",
          "type": "tuple[]"
        }
      ],
      "name": "batchExecuteMetaTransactionsV2",
      "outputs": [
        {
          "internalType": "bytes[]",
          "name": "returnResults",
          "type": "bytes[]"
        }
      ],
      "stateMutability": "nonpayable",
      "type": "function"
    },
    {
      "inputs": [
        {
          "components": [
            {
              "internalType": "address payable",
              "name": "signer",
              "type": "address"
            },
            {
              "internalType": "address",
              "name": "sender",
              "type": "address"
            },
            {
              "internalType": "uint256",
              "name": "expirationTimeSeconds",
              "type": "uint256"
            },
            {
              "internalType": "uint256",
              "name": "salt",
              "type": "uint256"
            },
            {
              "internalType": "bytes",
              "name": "callData",
              "type": "bytes"
            },
            {
              "internalType": "contract IERC20Token",
              "name": "feeToken",
              "type": "address"
            },
            {
              "components": [
                {
                  "internalType": "address",
                  "name": "recipient",
                  "type": "address"
                },
                {
                  "internalType": "uint256",
                  "name": "amount",
                  "type": "uint256"
                }
              ],
              "internalType": "struct IMetaTransactionsFeatureV2.MetaTransactionFeeData[]",
              "name": "fees",
              "type": "tuple[]"
            }
          ],
          "internalType": "struct IMetaTransactionsFeatureV2.MetaTransactionDataV2",
          "name": "mtx",
          "type": "tuple"
        },
        {
          "components": [
            {
              "internalType": "enum LibSignature.SignatureType",
              "name": "signatureType",
              "type": "uint8"
            },
            {
              "internalType": "uint8",
              "name": "v",
              "type": "uint8"
            },
            {
              "internalType": "bytes32",
              "name": "r",
              "type": "bytes32"
            },
            {
              "internalType": "bytes32",
              "name": "s",
              "type": "bytes32"
            }
          ],
          "internalType": "struct LibSignature.Signature",
          "name": "signature",
          "type": "tuple"
        }
      ],
      "name": "executeMetaTransactionV2",
      "outputs": [
        {
          "internalType": "bytes",
          "name": "returnResult",
          "type": "bytes"
        }
      ],
      "stateMutability": "nonpayable",
      "type": "function"
    },
    {
      "inputs": [
        {
          "components": [
            {
              "internalType": "address payable",
              "name": "signer",
              "type": "address"
            },
            {
              "internalType": "address",
              "name": "sender",
              "type": "address"
            },
            {
              "internalType": "uint256",
              "name": "expirationTimeSeconds",
              "type": "uint256"
            },
            {
              "internalType": "uint256",
              "name": "salt",
              "type": "uint256"
            },
            {
              "internalType": "bytes",
              "name": "callData",
              "type": "bytes"
            },
            {
              "internalType": "contract IERC20Token",
              "name": "feeToken",
              "type": "address"
            },
            {
              "components": [
                {
                  "internalType": "address",
                  "name": "recipient",
                  "type": "address"
                },
                {
                  "internalType": "uint256",
                  "name": "amount",
                  "type": "uint256"
                }
              ],
              "internalType": "struct IMetaTransactionsFeatureV2.MetaTransactionFeeData[]",
              "name": "fees",
              "type": "tuple[]"
            }
          ],
          "internalType": "struct IMetaTransactionsFeatureV2.MetaTransactionDataV2",
          "name": "mtx",
          "type": "tuple"
        }
      ],
      "name": "getMetaTransactionV2ExecutedBlock",
      "outputs": [
        {
          "internalType": "uint256",
          "name": "blockNumber",
          "type": "uint256"
        }
      ],
      "stateMutability": "view",
      "type": "function"
    },
    {
      "inputs": [
        {
          "components": [
            {
              "internalType": "address payable",
              "name": "signer",
              "type": "address"
            },
            {
              "internalType": "address",
              "name": "sender",
              "type": "address"
            },
            {
              "internalType": "uint256",
              "name": "expirationTimeSeconds",
              "type": "uint256"
            },
            {
              "internalType": "uint256",
              "name": "salt",
              "type": "uint256"
            },
            {
              "internalType": "bytes",
              "name": "callData",
              "type": "bytes"
            },
            {
              "internalType": "contract IERC20Token",
              "name": "feeToken",
              "type": "address"
            },
            {
              "components": [
                {
                  "internalType": "address",
                  "name": "recipient",
                  "type": "address"
                },
                {
                  "internalType": "uint256",
                  "name": "amount",
                  "type": "uint256"
                }
              ],
              "internalType": "struct IMetaTransactionsFeatureV2.MetaTransactionFeeData[]",
              "name": "fees",
              "type": "tuple[]"
            }
          ],
          "internalType": "struct IMetaTransactionsFeatureV2.MetaTransactionDataV2",
          "name": "mtx",
          "type": "tuple"
        }
      ],
      "name": "getMetaTransactionV2Hash",
      "outputs": [
        {
          "internalType": "bytes32",
          "name": "mtxHash",
          "type": "bytes32"
        }
      ],
      "stateMutability": "view",
      "type": "function"
    },
    {
      "inputs": [
        {
          "internalType": "bytes32",
          "name": "mtxHash",
          "type": "bytes32"
        }
      ],
      "name": "getMetaTransactionV2HashExecutedBlock",
      "outputs": [
        {
          "internalType": "uint256",
          "name": "blockNumber",
          "type": "uint256"
        }
      ],
      "stateMutability": "view",
      "type": "function"
    },
    {
      "inputs": [],
      "name": "migrate",
      "outputs": [
        {
          "internalType": "bytes4",
          "name": "success",
          "type": "bytes4"
        }
      ],
      "stateMutability": "nonpayable",
      "type": "function"
    }
  ],
  "bytecode": "0x6101406040526801000000000000000060c0527fb6f9479aa1770b2595c13a7a7748ffae255c8bed666b9e467d05ab8c23e889b360e0527f4dfbf11e17f3687ff7b6e7fec4b8d3f877334cc34247460478b202766ad6bd7e61010052348015610066575f5ffd5b506040516140ec3803806140ec83398101604081905261008591610166565b306080908152604080517f8b73c3c69bb8fe3d512ecc4cf759cc79239f7b179b0ffacaa9a75d522b39400f60208201527f9e5dae0addaf20578aeb5d70341d092b53b4e14480ac5726438fd436df7ba427918101919091527f06c015bd22b4c69690933c1058878ebdfef31f9aaae40bbe86d8a09fe1b2972c6060820152469181018290526001600160a01b03841660a082015283919060c00160408051601f19818403018152919052805160209091012060a05250506001600160a01b0316610120525061019e565b6001600160a01b0381168114610163575f5ffd5b50565b5f5f60408385031215610177575f5ffd5b82516101828161014f565b60208401519092506101938161014f565b809150509250929050565b60805160a05160c05160e0516101005161012051613ee56102075f395f81816118d7015281816119ae0152611b5201525f8181610147015261062101525f818161021c01526106dc01525f60cd01525f818161024301526107fc01525f610f190152613ee55ff3fe608060405234801561000f575f5ffd5b50600436106100c4575f3560e01c8063769c11071161007d578063b13c4c6811610058578063b13c4c6814610204578063d036092d14610217578063dab400f31461023e575f5ffd5b8063769c1107146101a55780638fd3ab80146101b8578063a982ee82146101f1575f5ffd5b80633d8d4082116100ad5780633d8d408214610122578063471121c6146101425780636ae4b4f714610169575f5ffd5b8063031b905c146100c857806334ae360014610102575b5f5ffd5b6100ef7f000000000000000000000000000000000000000000000000000000000000000081565b6040519081526020015b60405180910390f35b6101156101103660046129f5565b610265565b6040516100f99190612b1d565b610135610130366004612b9e565b61049a565b6040516100f99190612bea565b6100ef7f000000000000000000000000000000000000000000000000000000000000000081565b6101356040518060400160405280601281526020017f4d6574615472616e73616374696f6e735632000000000000000000000000000081525081565b6100ef6101b3366004612bfc565b6105c4565b6101c0610850565b6040517fffffffff0000000000000000000000000000000000000000000000000000000090911681526020016100f9565b6100ef6101ff366004612c36565b610943565b6100ef610212366004612bfc565b61095c565b6100ef7f000000000000000000000000000000000000000000000000000000000000000081565b6100ef7f000000000000000000000000000000000000000000000000000000000000000081565b606060015f61027261096f565b8054909150828116156102d2576102d26102cd6102c75f5f368080601f0160208091040260200160405190810160405280939291908181526020018383808284375f92019190915250929392505061097b9050565b856109c1565b610aa1565b82178155835185514791146102f0576102f06102cd87518751610aa9565b855167ffffffffffffffff81111561030a5761030a612572565b60405190808252806020026020018201604052801561033d57816020015b60608152602001906001900390816103285790505b5093505f5b86518110156103f457610353612488565b338152875188908390811061036a5761036a612c4d565b6020026020010151816040018190525061039c88838151811061038f5761038f612c4d565b60200260200101516105c4565b602082015286518790839081106103b5576103b5612c4d565b602002602001015181606001819052506103ce81610ae7565b8683815181106103e0576103e0612c4d565b602090810291909101015250600101610342565b504781111561048a576040517f08c379a000000000000000000000000000000000000000000000000000000000815260206004820152602260248201527f4d6574615472616e73616374696f6e734665617475726556322f4554485f4c4560448201527f414b00000000000000000000000000000000000000000000000000000000000060648201526084015b60405180910390fd5b5080549119909116905592915050565b606060015f6104a761096f565b8054909150828116156104fc576104fc6102cd6102c75f5f368080601f0160208091040260200160405190810160405280939291908181526020018383808284375f92019190915250929392505061097b9050565b8217815547610509612488565b3381526040810187905261051c876105c4565b60208201526060810186905261053181610ae7565b9450504781111561048a576040517f08c379a000000000000000000000000000000000000000000000000000000000815260206004820152602260248201527f4d6574615472616e73616374696f6e734665617475726556322f4554485f4c4560448201527f414b0000000000000000000000000000000000000000000000000000000000006064820152608401610481565b5f5f8260c001515167ffffffffffffffff8111156105e4576105e4612572565b60405190808252806020026020018201604052801561060d578160200160208202803683370190505b5090505f5b8360c00151518110156106d6577f00000000000000000000000000000000000000000000000000000000000000008460c00151828151811061065657610656612c4d565b602002602001015160405160200161069b929190918252805173ffffffffffffffffffffffffffffffffffffffff166020808401919091520151604082015260600190565b604051602081830303815290604052805190602001208282815181106106c3576106c3612c4d565b6020908102919091010152600101610612565b506108497f0000000000000000000000000000000000000000000000000000000000000000845f01518560200151866040015187606001518860800151805190602001208960a00151886040516020016107309190612c7a565b604080518083037fffffffffffffffffffffffffffffffffffffffffffffffffffffffffffffffe001815282825280516020918201209083019990995273ffffffffffffffffffffffffffffffffffffffff978816908201529486166060860152608085019390935260a084019190915260c083015290911660e082015261010081019190915261012001604051602081830303815290604052805190602001206040517f190100000000000000000000000000000000000000000000000000000000000060208201527f00000000000000000000000000000000000000000000000000000000000000006022820152604281018290525f90606201604051602081830303815290604052805190602001209050919050565b9392505050565b5f61087a7f3d8d408200000000000000000000000000000000000000000000000000000000610eb4565b6108a37f34ae360000000000000000000000000000000000000000000000000000000000610eb4565b6108cc7fb13c4c6800000000000000000000000000000000000000000000000000000000610eb4565b6108f57fa982ee8200000000000000000000000000000000000000000000000000000000610eb4565b61091e7f769c110700000000000000000000000000000000000000000000000000000000610eb4565b507f2c64c5ef0000000000000000000000000000000000000000000000000000000090565b5f61094c610f79565b5f92835260205250604090205490565b5f6109696101ff836105c4565b92915050565b5f5f6109696006610f81565b5f610987826004612cdc565b835110156109ab576109ab6102cd600385518560046109a69190612cdc565b610fa9565b6109b6602083612cdc565b929092015192915050565b6040517fffffffff0000000000000000000000000000000000000000000000000000000083166024820152604481018290526060907fc7a7103e21e41a5c3158b3028d34cb9bb9593b10b1892f49d7187efa71219d4e906064015b604080517fffffffffffffffffffffffffffffffffffffffffffffffffffffffffffffffe08184030181529190526020810180517bffffffffffffffffffffffffffffffffffffffffffffffffffffffff167fffffffff0000000000000000000000000000000000000000000000000000000090931692909217909152905092915050565b805160208201fd5b60405160248101839052604481018290526060907f52974c3a86e985173f72e2fb84ba2bfca8fb3b7c5031eb8077ebd59458abf2a490606401610a1c565b6060610af28261104e565b43610afb610f79565b6020808501515f90815291905260408120919091555b826040015160c0015151811015610b8a57604083015160a0810151815160c0909201518051610b8293919085908110610b4c57610b4c612c4d565b60200260200101515f0151866040015160c001518581518110610b7157610b71612c4d565b6020026020010151602001516111af565b600101610b11565b50604082015160800151610b9e905f61097b565b7fffffffff0000000000000000000000000000000000000000000000000000000016608083018190527fbeaa9a500000000000000000000000000000000000000000000000000000000001610bfd57610bf682611300565b9050610e16565b60808201517fffffffff00000000000000000000000000000000000000000000000000000000167f09d8b09a0000000000000000000000000000000000000000000000000000000001610c5357610bf68261157d565b60808201517fffffffff00000000000000000000000000000000000000000000000000000000167f5588b8940000000000000000000000000000000000000000000000000000000001610ca957610bf682611682565b60808201517fffffffff00000000000000000000000000000000000000000000000000000000167f85e14e470000000000000000000000000000000000000000000000000000000001610cff57610bf68261176f565b60808201517fffffffff00000000000000000000000000000000000000000000000000000000167f888da20a0000000000000000000000000000000000000000000000000000000001610d5557610bf68261187c565b60808201517fffffffff00000000000000000000000000000000000000000000000000000000167ff0c4ce4e0000000000000000000000000000000000000000000000000000000001610dab57610bf682611a35565b60808201517fffffffff00000000000000000000000000000000000000000000000000000000167f65d6982e0000000000000000000000000000000000000000000000000000000001610e0157610bf682611b00565b610e166102cd83602001518460800151611ce3565b81608001517bffffffffffffffffffffffffffffffffffffffffffffffffffffffff19167fb2b790db3089537c0be429b005b2ae9c540812afcc394c370b25573558f88bd0836020015184604001515f0151856040015160200151604051610ea79392919092835273ffffffffffffffffffffffffffffffffffffffff918216602084015216604082015260600190565b60405180910390a2919050565b6040517f6eb224cb0000000000000000000000000000000000000000000000000000000081527fffffffff000000000000000000000000000000000000000000000000000000008216600482015273ffffffffffffffffffffffffffffffffffffffff7f00000000000000000000000000000000000000000000000000000000000000001660248201523090636eb224cb906044015f604051808303815f87803b158015610f60575f5ffd5b505af1158015610f72573d5f5f3e3d5ffd5b5050505050565b5f5f610969600b5b5f608082600b811115610f9657610f96612cef565b610fa1906001612cdc565b901b92915050565b6060632800659560e01b848484604051602401610fc893929190612d1c565b604080517fffffffffffffffffffffffffffffffffffffffffffffffffffffffffffffffe08184030181529190526020810180517bffffffffffffffffffffffffffffffffffffffffffffffffffffffff167fffffffff000000000000000000000000000000000000000000000000000000009093169290921790915290509392505050565b60408101516020015173ffffffffffffffffffffffffffffffffffffffff16158015906110b25750805f015173ffffffffffffffffffffffffffffffffffffffff1681604001516020015173ffffffffffffffffffffffffffffffffffffffff1614155b156110d4576110d46102cd8260200151835f0151846040015160200151611d42565b42816040015160400151116110fd576110fd6102cd826020015142846040015160400151611d9d565b80604001515f015173ffffffffffffffffffffffffffffffffffffffff1661112d82602001518360600151611de2565b73ffffffffffffffffffffffffffffffffffffffff1614611171576111716102cd6004836020015184604001515f015160405180602001604052805f815250611f59565b611179610f79565b6020808301515f908152919052604090205460c08201819052156111ac576111ac6102cd82602001518360c0015161201a565b50565b3073ffffffffffffffffffffffffffffffffffffffff851603611253576040517f08c379a0000000000000000000000000000000000000000000000000000000008152602060048201526024808201527f466978696e546f6b656e5370656e6465722f43414e4e4f545f494e564f4b455f60448201527f53454c46000000000000000000000000000000000000000000000000000000006064820152608401610481565b6040517f23b872dd00000000000000000000000000000000000000000000000000000000815273ffffffffffffffffffffffffffffffffffffffff8416600482015273ffffffffffffffffffffffffffffffffffffffff831660248201528160448201526020816064835f73ffffffffffffffffffffffffffffffffffffffff8a165af13d600183511460208210151681151782169150816112f757805f843e8083fd5b50505050505050565b606061135c6040518060a001604052805f73ffffffffffffffffffffffffffffffffffffffff1681526020015f73ffffffffffffffffffffffffffffffffffffffff1681526020015f81526020015f8152602001606081525090565b5f6004846040015160800151516113739190612d44565b61137e906020612cdc565b67ffffffffffffffff81111561139657611396612572565b6040519080825280601f01601f1916602001820160405280156113c0576020820181803683370190505b5090505f846040015160800151905060a0815110156113e1576113e1612d57565b60208281015280516024820190604084019061140c908290849061140790600490612d44565b612058565b838060200190518101906114209190612ddc565b9450505050506108498360200151638aa6539b60e01b60405180610100016040528087604001515f015173ffffffffffffffffffffffffffffffffffffffff168152602001855f015173ffffffffffffffffffffffffffffffffffffffff168152602001856020015173ffffffffffffffffffffffffffffffffffffffff1681526020018560400151815260200185606001518152602001856080015181526020015f1515815260200187604001515f015173ffffffffffffffffffffffffffffffffffffffff168152506040516024016114fb919061300b565b604080517fffffffffffffffffffffffffffffffffffffffffffffffffffffffffffffffe08184030181529190526020810180517bffffffffffffffffffffffffffffffffffffffffffffffffffffffff167fffffffff0000000000000000000000000000000000000000000000000000000090931692909217909152612138565b60408051610180810182525f80825260208083018290528284018290526060808401839052608080850184905260a0850184905260c0850184905260e08501849052610100850184905261012085018490526101408501849052610160850184905285519081018652838152918201839052938101829052808401919091525f5f61160f8660400151608001516121bd565b9050808060200190518101906116259190613170565b60208901516040808b01515190519498509296509094506116789290917f414e4ccf00000000000000000000000000000000000000000000000000000000916114fb9189918991899133906024016132b7565b9695505050505050565b60408051610140810182525f80825260208083018290528284018290526060808401839052608080850184905260a0850184905260c0850184905260e085018490526101008501849052610120850184905285519081018652838152918201839052938101829052808401919091525f5f6117048660400151608001516121bd565b90508080602001905181019061171a91906134a8565b60208901516040808b01515190519498509296509094506116789290917faa6b21cd00000000000000000000000000000000000000000000000000000000916114fb918991899189915f90829060240161358b565b60605f5f60605f5f5f6117898860400151608001516121bd565b90508080602001905181019061179f9190613834565b809650819750829850839950849a50505050505061187088602001516343475db960e01b6040518060e001604052808a73ffffffffffffffffffffffffffffffffffffffff1681526020018973ffffffffffffffffffffffffffffffffffffffff1681526020018781526020018881526020015f151581526020018c604001515f015173ffffffffffffffffffffffffffffffffffffffff1681526020018c604001515f015173ffffffffffffffffffffffffffffffffffffffff16815250856040516024016114fb9291906138ba565b98975050505050505050565b60605f60605f5f5f6118958760400151608001516121bd565b9050808060200190518101906118ab9190613a17565b6020808c01516040805160e08101825273ffffffffffffffffffffffffffffffffffffffff80891682527f0000000000000000000000000000000000000000000000000000000000000000811694820194909452808201869052606081018790525f60808201523060a0820152818f01515190931660c084015251959a509398509196509450611965927f43475db900000000000000000000000000000000000000000000000000000000916114fb9187906024016138ba565b95505f8680602001905181019061197c9190613a74565b6040517f2e1a7d4d000000000000000000000000000000000000000000000000000000008152600481018290529091507f000000000000000000000000000000000000000000000000000000000000000073ffffffffffffffffffffffffffffffffffffffff1690632e1a7d4d906024015f604051808303815f87803b158015611a04575f5ffd5b505af1158015611a16573d5f5f3e3d5ffd5b505050604089015151611a2a915082612233565b505050505050919050565b60608060605f5f5f611a4e8760400151608001516121bd565b905080806020019051810190611a649190613b79565b6020808c01516040805160c0810182528781529283018590528281018690525f6060840152808e0180515173ffffffffffffffffffffffffffffffffffffffff90811660808601529051511660a084015251959a509398509196509450611af5927f5951736100000000000000000000000000000000000000000000000000000000916114fb918790602401613cc2565b979650505050505050565b60608060605f5f5f611b198760400151608001516121bd565b905080806020019051810190611b2f9190613b79565b83519398509196509450925073ffffffffffffffffffffffffffffffffffffffff7f000000000000000000000000000000000000000000000000000000000000000016908690611b8190600190612d44565b81518110611b9157611b91612c4d565b602002602001015173ffffffffffffffffffffffffffffffffffffffff1614611c62576040517f08c379a000000000000000000000000000000000000000000000000000000000815260206004820152604260248201527f4d6574615472616e73616374696f6e73466561747572653a3a6d756c7469706c60448201527f65784d756c7469486f7053656c6c546f6b656e466f724574682f4e4f545f574560648201527f5448000000000000000000000000000000000000000000000000000000000000608482015260a401610481565b6020808801516040805160c0810182528881529283018690528281018790525f6060840152306080840152808a01515173ffffffffffffffffffffffffffffffffffffffff1660a084015251611965927f5951736100000000000000000000000000000000000000000000000000000000916114fb91908790602401613cc2565b604051602481018390527fffffffff00000000000000000000000000000000000000000000000000000000821660448201526060907f547a32a328d8a78dbe9bf090fa60ba3d4d1c6833a592a2c942666ce3249c121090606401610a1c565b6040516024810184905273ffffffffffffffffffffffffffffffffffffffff8084166044830152821660648201526060907fa78002a166fcae5236d89e3ff35c53dadb775f7818de4a020714cba4bf36082290608401610fc8565b6040516024810184905260448101839052606481018290526060907fbea726efdf9868bbc5755dce9f13d585b3cf731177be75300d15bb8f5e28615890608401610fc8565b5f611ded8383612329565b600282516004811115611e0257611e02612cef565b03611e735760208083015160408085015160608087015183515f815295860180855289905260ff9094169285019290925290830152608082015260019060a0016020604051602081039080840390855afa158015611e62573d5f5f3e3d5ffd5b505050602060405103519050611f30565b600382516004811115611e8857611e88612cef565b03611f30575f7f19457468657265756d205369676e6564204d6573736167653a0a3332000000005f5283601c52603c5f2090506001818460200151856040015186606001516040515f8152602001604052604051611f02949392919093845260ff9290921660208401526040830152606082015260800190565b6020604051602081039080840390855afa158015611f22573d5f5f3e3d5ffd5b505050602060405103519150505b73ffffffffffffffffffffffffffffffffffffffff8116610969576109696102cd60058561241a565b60607f4c7607a3ebba99c9acde0e2a04d88829f7001b63f028b796dda6ff02406ddad585858585604051602401611f939493929190613ddb565b604080517fffffffffffffffffffffffffffffffffffffffffffffffffffffffffffffffe08184030181529190526020810180517bffffffffffffffffffffffffffffffffffffffffffffffffffffffff167fffffffff00000000000000000000000000000000000000000000000000000000909316929092179091529050949350505050565b60405160248101839052604481018290526060907ffe251a07f3cbffd23c1c1db9ec776d259099c832333d99ef48cacfa93a4d7b3290606401610a1c565b602081101561209f578151835160208390036101000a7fffffffffffffffffffffffffffffffffffffffffffffffffffffffffffffffff0180199092169116178352505050565b8282036120ab57505050565b828211156120e55760208103905080820181840181515b828510156120dd5784518652602095860195909401936120c2565b905250505050565b60208103905080820181840183515b8186121561212e57825182527fffffffffffffffffffffffffffffffffffffffffffffffffffffffffffffffe092830192909101906120f4565b855250505b505050565b60605f3073ffffffffffffffffffffffffffffffffffffffff16836040516121609190613e1c565b5f604051808303815f865af19150503d805f8114612199576040519150601f19603f3d011682016040523d82523d5f602084013e61219e565b606091505b5092509050806121b6576121b66102cd858585612450565b5092915050565b6060600482516121cd9190612d44565b67ffffffffffffffff8111156121e5576121e5612572565b6040519080825280601f01601f19166020018201604052801561220f576020820181803683370190505b5090505f5f60248401915060208301905061222c81838551612058565b5050919050565b8015612325575f8273ffffffffffffffffffffffffffffffffffffffff16826040515f6040518083038185875af1925050503d805f811461228f576040519150601f19603f3d011682016040523d82523d5f602084013e612294565b606091505b5050905080612133576040517f08c379a000000000000000000000000000000000000000000000000000000000815260206004820152602f60248201527f466978696e546f6b656e5370656e6465723a3a5f7472616e736665724574682f60448201527f5452414e534645525f4641494c454400000000000000000000000000000000006064820152608401610481565b5050565b60408101517ffffffffffffffffffffffffffffffffebaaedce6af48a03bbfd25e8cd0364141111580612395575061238260027ffffffffffffffffffffffffffffffffebaaedce6af48a03bbfd25e8cd0364141613e32565b61238d906001612cdc565b606082015110155b156123a8576123a86102cd60058461241a565b5f815160048111156123bc576123bc612cef565b036123cf576123cf6102cd60038461241a565b6001815160048111156123e4576123e4612cef565b036123f6576123f66102cd5f8461241a565b60048151600481111561240b5761240b612cef565b03612325576123256102cd6002845b60607ff18f11f3027e735c758137924b262d4d3aff0037dcd785aca3c699fa05d960bd8383604051602401610a1c929190613e6a565b60607fa9f0c547643c02afed4cf2699e794bc383effca840eed62fddb64a15a4e55bc4848484604051602401610fc893929190613e85565b6040518060e001604052805f73ffffffffffffffffffffffffffffffffffffffff1681526020015f81526020016125326040518060e001604052805f73ffffffffffffffffffffffffffffffffffffffff1681526020015f73ffffffffffffffffffffffffffffffffffffffff1681526020015f81526020015f8152602001606081526020015f73ffffffffffffffffffffffffffffffffffffffff168152602001606081525090565b8152604080516080810182525f8082526020828101829052928201819052606082015291019081525f602082018190526040820181905260609091015290565b7f4e487b71000000000000000000000000000000000000000000000000000000005f52604160045260245ffd5b6040805190810167ffffffffffffffff811182821017156125c2576125c2612572565b60405290565b60405160e0810167ffffffffffffffff811182821017156125c2576125c2612572565b6040516080810167ffffffffffffffff811182821017156125c2576125c2612572565b60405160a0810167ffffffffffffffff811182821017156125c2576125c2612572565b604051610180810167ffffffffffffffff811182821017156125c2576125c2612572565b604051610140810167ffffffffffffffff811182821017156125c2576125c2612572565b6040516060810167ffffffffffffffff811182821017156125c2576125c2612572565b604051601f82017fffffffffffffffffffffffffffffffffffffffffffffffffffffffffffffffe016810167ffffffffffffffff811182821017156126e3576126e3612572565b604052919050565b5f67ffffffffffffffff82111561270457612704612572565b5060051b60200190565b73ffffffffffffffffffffffffffffffffffffffff811681146111ac575f5ffd5b803561273a8161270e565b919050565b5f67ffffffffffffffff82111561275857612758612572565b50601f017fffffffffffffffffffffffffffffffffffffffffffffffffffffffffffffffe01660200190565b5f82601f830112612793575f5ffd5b81356127a66127a18261273f565b61269c565b8181528460208386010111156127ba575f5ffd5b816020850160208301375f918101602001919091529392505050565b5f82601f8301126127e5575f5ffd5b81356127f36127a1826126eb565b8082825260208201915060208360061b860101925085831115612814575f5ffd5b602085015b8381101561285f5760408188031215612830575f5ffd5b61283861259f565b81356128438161270e565b8152602082810135818301529084529290920191604001612819565b5095945050505050565b5f60e08284031215612879575f5ffd5b6128816125c8565b905061288c8261272f565b815261289a6020830161272f565b60208201526040828101359082015260608083013590820152608082013567ffffffffffffffff8111156128cc575f5ffd5b6128d884828501612784565b6080830152506128ea60a0830161272f565b60a082015260c082013567ffffffffffffffff811115612908575f5ffd5b612914848285016127d6565b60c08301525092915050565b600581106111ac575f5ffd5b60ff811681146111ac575f5ffd5b5f6080828403121561294a575f5ffd5b6129526125eb565b9050813561295f81612920565b8152602082013561296f8161292c565b60208201526040828101359082015260609182013591810191909152919050565b5f82601f83011261299f575f5ffd5b81356129ad6127a1826126eb565b8082825260208201915060208360071b8601019250858311156129ce575f5ffd5b602085015b8381101561285f576129e5878261293a565b83526020909201916080016129d3565b5f5f60408385031215612a06575f5ffd5b823567ffffffffffffffff811115612a1c575f5ffd5b8301601f81018513612a2c575f5ffd5b8035612a3a6127a1826126eb565b8082825260208201915060208360051b850101925087831115612a5b575f5ffd5b602084015b83811015612a9c57803567ffffffffffffffff811115612a7e575f5ffd5b612a8d8a602083890101612869565b84525060209283019201612a60565b509450505050602083013567ffffffffffffffff811115612abb575f5ffd5b612ac785828601612990565b9150509250929050565b5f81518084528060208401602086015e5f6020828601015260207fffffffffffffffffffffffffffffffffffffffffffffffffffffffffffffffe0601f83011685010191505092915050565b5f602082016020835280845180835260408501915060408160051b8601019250602086015f5b82811015612b92577fffffffffffffffffffffffffffffffffffffffffffffffffffffffffffffffc0878603018452612b7d858351612ad1565b94506020938401939190910190600101612b43565b50929695505050505050565b5f5f60a08385031215612baf575f5ffd5b823567ffffffffffffffff811115612bc5575f5ffd5b612bd185828601612869565b925050612be1846020850161293a565b90509250929050565b602081525f6108496020830184612ad1565b5f60208284031215612c0c575f5ffd5b813567ffffffffffffffff811115612c22575f5ffd5b612c2e84828501612869565b949350505050565b5f60208284031215612c46575f5ffd5b5035919050565b7f4e487b71000000000000000000000000000000000000000000000000000000005f52603260045260245ffd5b81515f90829060208501835b82811015612ca4578151845260209384019390910190600101612c86565b509195945050505050565b7f4e487b71000000000000000000000000000000000000000000000000000000005f52601160045260245ffd5b8082018082111561096957610969612caf565b7f4e487b71000000000000000000000000000000000000000000000000000000005f52602160045260245ffd5b6060810160088510612d3057612d30612cef565b938152602081019290925260409091015290565b8181038181111561096957610969612caf565b7f4e487b71000000000000000000000000000000000000000000000000000000005f52600160045260245ffd5b805161273a8161270e565b5f82601f830112612d9e575f5ffd5b8151612dac6127a18261273f565b818152846020838601011115612dc0575f5ffd5b8160208501602083015e5f918101602001919091529392505050565b5f60208284031215612dec575f5ffd5b815167ffffffffffffffff811115612e02575f5ffd5b820160a08185031215612e13575f5ffd5b612e1b61260e565b8151612e268161270e565b81526020820151612e368161270e565b60208201526040828101519082015260608083015190820152608082015167ffffffffffffffff811115612e68575f5ffd5b80830192505084601f830112612e7c575f5ffd5b8151612e8a6127a1826126eb565b8082825260208201915060208360051b860101925087831115612eab575f5ffd5b602085015b83811015612f6557805167ffffffffffffffff811115612ece575f5ffd5b86016040818b037fffffffffffffffffffffffffffffffffffffffffffffffffffffffffffffffe0011215612f01575f5ffd5b612f0961259f565b602082015163ffffffff81168114612f1f575f5ffd5b8152604082015167ffffffffffffffff811115612f3a575f5ffd5b612f498c602083860101612d8f565b6020830152508085525050602083019250602081019050612eb0565b506080840152509095945050505050565b5f82825180855260208501945060208160051b830101602085015f5b83811015612fff577fffffffffffffffffffffffffffffffffffffffffffffffffffffffffffffffe0858403018852815163ffffffff81511684526020810151905060406020850152612fe86040850182612ad1565b6020998a0199909450929092019150600101612f92565b50909695505050505050565b6020815273ffffffffffffffffffffffffffffffffffffffff825116602082015273ffffffffffffffffffffffffffffffffffffffff60208301511660408201525f6040830151613074606084018273ffffffffffffffffffffffffffffffffffffffff169052565b5060608301516080830152608083015160a083015260a083015161010060c08401526130a4610120840182612f76565b905060c08401516130b960e085018215159052565b5060e084015173ffffffffffffffffffffffffffffffffffffffff8116610100850152509392505050565b80516fffffffffffffffffffffffffffffffff8116811461273a575f5ffd5b805167ffffffffffffffff8116811461273a575f5ffd5b5f6080828403121561312a575f5ffd5b6131326125eb565b9050815161313f81612920565b8152602082015161314f8161292c565b60208201526040828101519082015260609182015191810191909152919050565b5f5f5f838503610220811215613184575f5ffd5b610180811215613192575f5ffd5b5061319b612631565b6131a485612d84565b81526131b260208601612d84565b60208201526131c3604086016130e4565b60408201526131d4606086016130e4565b60608201526131e5608086016130e4565b60808201526131f660a08601612d84565b60a082015261320760c08601612d84565b60c082015261321860e08601612d84565b60e082015261322a6101008601612d84565b61010082015261012085810151908201526132486101408601613103565b6101408201526101608581015190820152925061326985610180860161311a565b915061327861020085016130e4565b90509250925092565b80516005811061329357613293612cef565b825260208181015160ff169083015260408082015190830152606090810151910152565b855173ffffffffffffffffffffffffffffffffffffffff168152610260810160208701516132fd602084018273ffffffffffffffffffffffffffffffffffffffff169052565b50604087015161332160408401826fffffffffffffffffffffffffffffffff169052565b50606087015161334560608401826fffffffffffffffffffffffffffffffff169052565b50608087015161336960808401826fffffffffffffffffffffffffffffffff169052565b5060a087015161339160a084018273ffffffffffffffffffffffffffffffffffffffff169052565b5060c08701516133b960c084018273ffffffffffffffffffffffffffffffffffffffff169052565b5060e08701516133e160e084018273ffffffffffffffffffffffffffffffffffffffff169052565b5061010087015161340b61010084018273ffffffffffffffffffffffffffffffffffffffff169052565b5061012087015161012083015261014087015161343561014084018267ffffffffffffffff169052565b50610160870151610160830152613450610180830187613281565b6fffffffffffffffffffffffffffffffff851661020083015273ffffffffffffffffffffffffffffffffffffffff841661022083015273ffffffffffffffffffffffffffffffffffffffff8316610240830152611678565b5f5f5f8385036101e08112156134bc575f5ffd5b6101408112156134ca575f5ffd5b506134d3612655565b6134dc85612d84565b81526134ea60208601612d84565b60208201526134fb604086016130e4565b604082015261350c606086016130e4565b606082015261351d60808601612d84565b608082015261352e60a08601612d84565b60a082015261353f60c08601612d84565b60c082015260e0858101519082015261355b6101008601613103565b6101008201526101208581015190820152925061357c85610140860161311a565b91506132786101c085016130e4565b865173ffffffffffffffffffffffffffffffffffffffff168152610240810160208801516135d1602084018273ffffffffffffffffffffffffffffffffffffffff169052565b5060408801516135f560408401826fffffffffffffffffffffffffffffffff169052565b50606088015161361960608401826fffffffffffffffffffffffffffffffff169052565b506080880151613641608084018273ffffffffffffffffffffffffffffffffffffffff169052565b5060a088015161366960a084018273ffffffffffffffffffffffffffffffffffffffff169052565b5060c088015161369160c084018273ffffffffffffffffffffffffffffffffffffffff169052565b5060e088015160e08301526101008801516136b961010084018267ffffffffffffffff169052565b506101208801516101208301526136d4610140830188613281565b6fffffffffffffffffffffffffffffffff86166101c083015273ffffffffffffffffffffffffffffffffffffffff85166101e083015283151561020083015273ffffffffffffffffffffffffffffffffffffffff8316610220830152611af5565b80516009811061273a575f5ffd5b5f82601f830112613752575f5ffd5b81516137606127a1826126eb565b8082825260208201915060208360051b860101925085831115613781575f5ffd5b602085015b8381101561285f57805167ffffffffffffffff8111156137a4575f5ffd5b860160608189037fffffffffffffffffffffffffffffffffffffffffffffffffffffffffffffffe00112156137d7575f5ffd5b6137df612679565b6137eb60208301613735565b815260408201516020820152606082015167ffffffffffffffff811115613810575f5ffd5b61381f8a602083860101612d8f565b60408301525084525060209283019201613786565b5f5f5f5f5f60a08688031215613848575f5ffd5b85516138538161270e565b60208701519095506138648161270e565b604087015190945067ffffffffffffffff811115613880575f5ffd5b61388c88828901613743565b606088015160809098015196999598509695949350505050565b600981106138b6576138b6612cef565b9052565b604081525f610120820173ffffffffffffffffffffffffffffffffffffffff855116604084015273ffffffffffffffffffffffffffffffffffffffff602086015116606084015260408501516080840152606085015160e060a0850152818151808452610140860191506101408160051b87010193506020830192505f5b818110156139af577ffffffffffffffffffffffffffffffffffffffffffffffffffffffffffffffec087860301835283516139748682516138a6565b6020810151602087015260408101519050606060408701526139996060870182612ad1565b9550506020938401939290920191600101613938565b50505050608085015180151560c08501525060a085015173ffffffffffffffffffffffffffffffffffffffff811660e08501525060c085015173ffffffffffffffffffffffffffffffffffffffff81166101008501525b506020929092019290925292915050565b5f5f5f5f60808587031215613a2a575f5ffd5b8451613a358161270e565b602086015190945067ffffffffffffffff811115613a51575f5ffd5b613a5d87828801613743565b604087015160609097015195989097509350505050565b5f60208284031215613a84575f5ffd5b5051919050565b5f82601f830112613a9a575f5ffd5b8151613aa86127a1826126eb565b8082825260208201915060208360051b860101925085831115613ac9575f5ffd5b602085015b8381101561285f57805167ffffffffffffffff811115613aec575f5ffd5b860160408189037fffffffffffffffffffffffffffffffffffffffffffffffffffffffffffffffe0011215613b1f575f5ffd5b613b2761259f565b613b3360208301613735565b8152604082015167ffffffffffffffff811115613b4e575f5ffd5b613b5d8a602083860101612d8f565b6020830152508085525050602083019250602081019050613ace565b5f5f5f5f60808587031215613b8c575f5ffd5b845167ffffffffffffffff811115613ba2575f5ffd5b8501601f81018713613bb2575f5ffd5b8051613bc06127a1826126eb565b8082825260208201915060208360051b850101925089831115613be1575f5ffd5b6020840193505b82841015613c0c578351613bfb8161270e565b825260209384019390910190613be8565b80975050505050602085015167ffffffffffffffff811115613c2c575f5ffd5b613a5d87828801613a8b565b5f82825180855260208501945060208160051b830101602085015f5b83811015612fff577fffffffffffffffffffffffffffffffffffffffffffffffffffffffffffffffe08584030188528151613c908482516138a6565b6020810151905060406020850152613cab6040850182612ad1565b6020998a0199909450929092019150600101613c54565b604081525f6101008201845160c06040850152818151808452610120860191506020830193505f92505b80831015613d255773ffffffffffffffffffffffffffffffffffffffff8451168252602082019150602084019350600183019250613cec565b5060208701516060860152604087015192507fffffffffffffffffffffffffffffffffffffffffffffffffffffffffffffffc0858203016080860152613d6b8184613c38565b925050506060850151613d8260a085018215159052565b50608085015173ffffffffffffffffffffffffffffffffffffffff811660c08501525060a085015173ffffffffffffffffffffffffffffffffffffffff811660e0850152613a06565b600681106138b6576138b6612cef565b613de58186613dcb565b83602082015273ffffffffffffffffffffffffffffffffffffffff83166040820152608060608201525f6116786080830184612ad1565b5f82518060208501845e5f920191825250919050565b5f82613e65577f4e487b71000000000000000000000000000000000000000000000000000000005f52601260045260245ffd5b500490565b60408101613e788285613dcb565b8260208301529392505050565b838152606060208201525f613e9d6060830185612ad1565b82810360408401526116788185612ad156fea2646970667358221220ee07912a2dc16c2c3128bd83c0accce83cde02e85ea5321e636875097a3fa7e764736f6c634300081c0033",
  "linkReferences": {},
  "deployedLinkReferences": {}
}