{
  "_format": "hh-sol-artifact-1",
  "contractName": "LogMetadataTransformer",
  "sourceName": "contracts/src/transformers/LogMetadataTransformer.sol",
  "abi": [
    {
      "anonymous": false,
      "inputs": [
        {
          "indexed": false,
          "internalType": "address",
          "name": "sender",
          "type": "address"
        },
        {
          "indexed": false,
          "internalType": "address",
          "name": "taker",
          "type": "address"
        },
        {
          "indexed": false,
          "internalType": "bytes",
          "name": "data",
          "type": "bytes"
        }
      ],
      "name": "TransformerMetadata",
      "type": "event"
    },
    {
      "inputs": [],
      "name": "deployer",
      "outputs": [
        {
          "internalType": "address",
          "name": "",
          "type": "address"
        }
      ],
      "stateMutability": "view",
      "type": "function"
    },
    {
      "inputs": [
        {
          "internalType": "address payable",
          "name": "ethRecipient",
          "type": "address"
        }
      ],
      "name": "die",
      "outputs": [],
      "stateMutability": "nonpayable",
      "type": "function"
    },
    {
      "inputs": [
        {
          "components": [
            {
              "internalType": "address payable",
              "name": "sender",
              "type": "address"
            },
            {
              "internalType": "address payable",
              "name": "recipient",
              "type": "address"
            },
            {
              "internalType": "bytes",
              "name": "data",
              "type": "bytes"
            }
          ],
          "internalType": "struct IERC20Transformer.TransformContext",
          "name": "context",
          "type": "tuple"
        }
      ],
      "name": "transform",
      "outputs": [
        {
          "internalType": "bytes4",
          "name": "success",
          "type": "bytes4"
        }
      ],
      "stateMutability": "nonpayable",
      "type": "function"
    }
  ],
  "bytecode": "0x60c0604052348015600e575f5ffd5b50336080523060a05260805160a05161053061004c5f395f81816101ff015261022d01525f818160a60152818161019001526101be01526105305ff3fe608060405234801561000f575f5ffd5b506004361061003f575f3560e01c8063832b24bb14610043578063c9353cb51461008c578063d5f39488146100a1575b5f5ffd5b61005661005136600461039b565b6100ed565b6040517fffffffff0000000000000000000000000000000000000000000000000000000090911681526020015b60405180910390f35b61009f61009a3660046103d9565b610178565b005b6100c87f000000000000000000000000000000000000000000000000000000000000000081565b60405173ffffffffffffffffffffffffffffffffffffffff9091168152602001610083565b5f7fb93f056965e11f8e82e38e1cbcc633815755295e4a9afc067a8922c75867073c61011c60208401846103d9565b61012c60408501602086016103d9565b610139604086018661040c565b6040516101499493929190610474565b60405180910390a1507f13c9929e00000000000000000000000000000000000000000000000000000000919050565b3373ffffffffffffffffffffffffffffffffffffffff7f000000000000000000000000000000000000000000000000000000000000000016146101e7576101e76101e2337f000000000000000000000000000000000000000000000000000000000000000061026a565b61033f565b3073ffffffffffffffffffffffffffffffffffffffff7f00000000000000000000000000000000000000000000000000000000000000001614610251576102516101e2307f0000000000000000000000000000000000000000000000000000000000000000610347565b8073ffffffffffffffffffffffffffffffffffffffff16ff5b60405173ffffffffffffffffffffffffffffffffffffffff8084166024830152821660448201526060907f5cec653b364cca3880afa73ceff506d0651d11d26abbbe4a56460aa933b21b08906064015b604080517fffffffffffffffffffffffffffffffffffffffffffffffffffffffffffffffe08184030181529190526020810180517bffffffffffffffffffffffffffffffffffffffffffffffffffffffff167fffffffff0000000000000000000000000000000000000000000000000000000090931692909217909152905092915050565b805160208201fd5b60405173ffffffffffffffffffffffffffffffffffffffff8084166024830152821660448201526060907fb5cf2cd09307d6c717473134badbb9761c2c97d7565566c2a71eba6cd6fc514d906064016102ba565b5f602082840312156103ab575f5ffd5b813567ffffffffffffffff8111156103c1575f5ffd5b8201606081850312156103d2575f5ffd5b9392505050565b5f602082840312156103e9575f5ffd5b813573ffffffffffffffffffffffffffffffffffffffff811681146103d2575f5ffd5b5f5f83357fffffffffffffffffffffffffffffffffffffffffffffffffffffffffffffffe184360301811261043f575f5ffd5b83018035915067ffffffffffffffff821115610459575f5ffd5b60200191503681900382131561046d575f5ffd5b9250929050565b73ffffffffffffffffffffffffffffffffffffffff8516815273ffffffffffffffffffffffffffffffffffffffff8416602082015260606040820152816060820152818360808301375f818301608090810191909152601f9092017fffffffffffffffffffffffffffffffffffffffffffffffffffffffffffffffe0160101939250505056fea26469706673582212204329363ab7a9b1985b0421ddecd0d578fcd2a4279fa5911fb5fac645817fbcd564736f6c634300081c0033",
  "linkReferences": {},
  "deployedLinkReferences": {}
}