{
  "_format": "hh-sol-artifact-1",
  "contractName": "TestUniswapV2Factory",
  "sourceName": "contracts/test/integration/TestUniswapV2Factory.sol",
  "abi": [
    {
      "inputs": [],
      "stateMutability": "nonpayable",
      "type": "constructor"
    },
    {
      "anonymous": false,
      "inputs": [
        {
          "indexed": false,
          "internalType": "contract TestUniswapV2Pool",
          "name": "pool",
          "type": "address"
        }
      ],
      "name": "PoolCreated",
      "type": "event"
    },
    {
      "inputs": [],
      "name": "POOL_INIT_CODE_HASH",
      "outputs": [
        {
          "internalType": "bytes32",
          "name": "",
          "type": "bytes32"
        }
      ],
      "stateMutability": "view",
      "type": "function"
    },
    {
      "inputs": [
        {
          "internalType": "contract IERC20Token",
          "name": "tokenA",
          "type": "address"
        },
        {
          "internalType": "contract IERC20Token",
          "name": "tokenB",
          "type": "address"
        }
      ],
      "name": "createPool",
      "outputs": [
        {
          "internalType": "contract TestUniswapV2Pool",
          "name": "pool",
          "type": "address"
        }
      ],
      "stateMutability": "nonpayable",
      "type": "function"
    },
    {
      "inputs": [],
      "name": "creationParameters",
      "outputs": [
        {
          "internalType": "contract IERC20Token",
          "name": "token0",
          "type": "address"
        },
        {
          "internalType": "contract IERC20Token",
          "name": "token1",
          "type": "address"
        }
      ],
      "stateMutability": "view",
      "type": "function"
    },
    {
      "inputs": [
        {
          "internalType": "contract IERC20Token",
          "name": "",
          "type": "address"
        },
        {
          "internalType": "contract IERC20Token",
          "name": "",
          "type": "address"
        }
      ],
      "name": "getPool",
      "outputs": [
        {
          "internalType": "contract TestUniswapV2Pool",
          "name": "",
          "type": "address"
        }
      ],
      "stateMutability": "view",
      "type": "function"
    }
  ],
  "bytecode": "0x60a0604052348015600e575f5ffd5b50604051601c60208201603f565b601f1982820381018352601f90910116604052805160209190910120608052604c565b61063f80610b2383390190565b608051610abf6100645f395f61010e0152610abf5ff3fe608060405234801561000f575f5ffd5b506004361061004a575f3560e01c8063531aa03e1461004e5780637ba6f231146100b5578063dc6fd8ab14610109578063e34336151461013e575b5f5ffd5b61008b61005c366004610419565b5f60208181529281526040808220909352908152205473ffffffffffffffffffffffffffffffffffffffff1681565b60405173ffffffffffffffffffffffffffffffffffffffff90911681526020015b60405180910390f35b6001546002546100dc9173ffffffffffffffffffffffffffffffffffffffff908116911682565b6040805173ffffffffffffffffffffffffffffffffffffffff9384168152929091166020830152016100ac565b6101307f000000000000000000000000000000000000000000000000000000000000000081565b6040519081526020016100ac565b61008b61014c366004610419565b5f5f5f8373ffffffffffffffffffffffffffffffffffffffff168573ffffffffffffffffffffffffffffffffffffffff161061018957838561018c565b84845b73ffffffffffffffffffffffffffffffffffffffff8083165f9081526020818152604080832084861684529091529020549294509092501615610255576040517f08c379a000000000000000000000000000000000000000000000000000000000815260206004820152602860248201527f54657374556e69737761705632466163746f72792f504f4f4c5f414c5245414460448201527f595f455849535453000000000000000000000000000000000000000000000000606482015260840160405180910390fd5b60408051808201825273ffffffffffffffffffffffffffffffffffffffff8481168083529084166020928301819052600180547fffffffffffffffffffffffff000000000000000000000000000000000000000090811690931790556002805490921617905581517fffffffffffffffffffffffffffffffffffffffff000000000000000000000000606086811b82168385015285901b16603482015282518082036028018152604890910192839052805191012090610314906103e4565b8190604051809103905ff5905080158015610331573d5f5f3e3d5ffd5b5073ffffffffffffffffffffffffffffffffffffffff8381165f818152602081815260408083208786168452825280832080549587167fffffffffffffffffffffffff000000000000000000000000000000000000000096871681179091558383528184209484529382529182902080549094168317909355519081529194507f83a48fbcfc991335314e74d0496aab6a1987e992ddc85dddbcc4d6dd6ef2e9fc910160405180910390a1505092915050565b61063f8061044b83390190565b803573ffffffffffffffffffffffffffffffffffffffff81168114610414575f5ffd5b919050565b5f5f6040838503121561042a575f5ffd5b610433836103f1565b9150610441602084016103f1565b9050925092905056fe60c060405234801561000f575f5ffd5b505f336001600160a01b0316637ba6f2316040518163ffffffff1660e01b81526004016040805180830381865afa15801561004c573d5f5f3e3d5ffd5b505050506040513d601f19601f8201168201806040525081019061007091906100ab565b80516020909101516001600160a01b0390811660a0521660805250610111565b80516001600160a01b03811681146100a6575f5ffd5b919050565b5f60408284031280156100bc575f5ffd5b50604080519081016001600160401b03811182821017156100eb57634e487b7160e01b5f52604160045260245ffd5b6040526100f783610090565b815261010560208401610090565b60208201529392505050565b60805160a05161050061013f5f395f81816101e9015261031b01525f818160ec015261025d01526105005ff3fe608060405234801561000f575f5ffd5b5060043610610064575f3560e01c80630dfe16811161004d5780630dfe1681146100e75780631824329614610133578063d21220a7146101e4575f5ffd5b8063022c0d9f146100685780630902f1ac1461007d575b5f5ffd5b61007b61007636600461038e565b61020b565b005b5f54604080516dffffffffffffffffffffffffffff80841682526e01000000000000000000000000000084041660208201527c010000000000000000000000000000000000000000000000000000000090920463ffffffff16908201526060015b60405180910390f35b61010e7f000000000000000000000000000000000000000000000000000000000000000081565b60405173ffffffffffffffffffffffffffffffffffffffff90911681526020016100de565b61007b610141366004610458565b5f805463ffffffff9092167c0100000000000000000000000000000000000000000000000000000000027bffffffffffffffffffffffffffffffffffffffffffffffffffffffff6dffffffffffffffffffffffffffff9485166e010000000000000000000000000000027fffffffff0000000000000000000000000000000000000000000000000000000090941694909516939093179190911792909216179055565b61010e7f000000000000000000000000000000000000000000000000000000000000000081565b84156102c9576040517fa9059cbb00000000000000000000000000000000000000000000000000000000815273ffffffffffffffffffffffffffffffffffffffff8481166004830152602482018790527f0000000000000000000000000000000000000000000000000000000000000000169063a9059cbb906044016020604051808303815f875af11580156102a3573d5f5f3e3d5ffd5b505050506040513d601f19601f820116820180604052508101906102c791906104a4565b505b8315610387576040517fa9059cbb00000000000000000000000000000000000000000000000000000000815273ffffffffffffffffffffffffffffffffffffffff8481166004830152602482018690527f0000000000000000000000000000000000000000000000000000000000000000169063a9059cbb906044016020604051808303815f875af1158015610361573d5f5f3e3d5ffd5b505050506040513d601f19601f8201168201806040525081019061038591906104a4565b505b5050505050565b5f5f5f5f5f608086880312156103a2575f5ffd5b8535945060208601359350604086013573ffffffffffffffffffffffffffffffffffffffff811681146103d3575f5ffd5b9250606086013567ffffffffffffffff8111156103ee575f5ffd5b8601601f810188136103fe575f5ffd5b803567ffffffffffffffff811115610414575f5ffd5b886020828401011115610425575f5ffd5b959894975092955050506020019190565b80356dffffffffffffffffffffffffffff81168114610453575f5ffd5b919050565b5f5f5f6060848603121561046a575f5ffd5b61047384610436565b925061048160208501610436565b9150604084013563ffffffff81168114610499575f5ffd5b809150509250925092565b5f602082840312156104b4575f5ffd5b815180151581146104c3575f5ffd5b939250505056fea26469706673582212205ed4c54cc769364239ab2e9ded5628d9a7ffeb955f4c89eddc8c5ef6514d903864736f6c634300081c0033a2646970667358221220aeb712b7fa7bcdfff303f6c60fb7a9e61fd9c09674771f163f6b68c59cbfd60364736f6c634300081c003360c060405234801561000f575f5ffd5b505f336001600160a01b0316637ba6f2316040518163ffffffff1660e01b81526004016040805180830381865afa15801561004c573d5f5f3e3d5ffd5b505050506040513d601f19601f8201168201806040525081019061007091906100ab565b80516020909101516001600160a01b0390811660a0521660805250610111565b80516001600160a01b03811681146100a6575f5ffd5b919050565b5f60408284031280156100bc575f5ffd5b50604080519081016001600160401b03811182821017156100eb57634e487b7160e01b5f52604160045260245ffd5b6040526100f783610090565b815261010560208401610090565b60208201529392505050565b60805160a05161050061013f5f395f81816101e9015261031b01525f818160ec015261025d01526105005ff3fe608060405234801561000f575f5ffd5b5060043610610064575f3560e01c80630dfe16811161004d5780630dfe1681146100e75780631824329614610133578063d21220a7146101e4575f5ffd5b8063022c0d9f146100685780630902f1ac1461007d575b5f5ffd5b61007b61007636600461038e565b61020b565b005b5f54604080516dffffffffffffffffffffffffffff80841682526e01000000000000000000000000000084041660208201527c010000000000000000000000000000000000000000000000000000000090920463ffffffff16908201526060015b60405180910390f35b61010e7f000000000000000000000000000000000000000000000000000000000000000081565b60405173ffffffffffffffffffffffffffffffffffffffff90911681526020016100de565b61007b610141366004610458565b5f805463ffffffff9092167c0100000000000000000000000000000000000000000000000000000000027bffffffffffffffffffffffffffffffffffffffffffffffffffffffff6dffffffffffffffffffffffffffff9485166e010000000000000000000000000000027fffffffff0000000000000000000000000000000000000000000000000000000090941694909516939093179190911792909216179055565b61010e7f000000000000000000000000000000000000000000000000000000000000000081565b84156102c9576040517fa9059cbb00000000000000000000000000000000000000000000000000000000815273ffffffffffffffffffffffffffffffffffffffff8481166004830152602482018790527f0000000000000000000000000000000000000000000000000000000000000000169063a9059cbb906044016020604051808303815f875af11580156102a3573d5f5f3e3d5ffd5b505050506040513d601f19601f820116820180604052508101906102c791906104a4565b505b8315610387576040517fa9059cbb00000000000000000000000000000000000000000000000000000000815273ffffffffffffffffffffffffffffffffffffffff8481166004830152602482018690527f0000000000000000000000000000000000000000000000000000000000000000169063a9059cbb906044016020604051808303815f875af1158015610361573d5f5f3e3d5ffd5b505050506040513d601f19601f8201168201806040525081019061038591906104a4565b505b5050505050565b5f5f5f5f5f608086880312156103a2575f5ffd5b8535945060208601359350604086013573ffffffffffffffffffffffffffffffffffffffff811681146103d3575f5ffd5b9250606086013567ffffffffffffffff8111156103ee575f5ffd5b8601601f810188136103fe575f5ffd5b803567ffffffffffffffff811115610414575f5ffd5b886020828401011115610425575f5ffd5b959894975092955050506020019190565b80356dffffffffffffffffffffffffffff81168114610453575f5ffd5b919050565b5f5f5f6060848603121561046a575f5ffd5b61047384610436565b925061048160208501610436565b9150604084013563ffffffff81168114610499575f5ffd5b809150509250925092565b5f602082840312156104b4575f5ffd5b815180151581146104c3575f5ffd5b939250505056fea26469706673582212205ed4c54cc769364239ab2e9ded5628d9a7ffeb955f4c89eddc8c5ef6514d903864736f6c634300081c0033",
  "linkReferences": {},
  "deployedLinkReferences": {}
}