{
  "_format": "hh-sol-artifact-1",
  "contractName": "TestUniswapV2Factory",
  "sourceName": "contracts/test/integration/TestUniswapV2Factory.sol",
  "abi": [
    {
      "inputs": [],
      "stateMutability": "nonpayable",
      "type": "constructor"
    },
    {
      "anonymous": false,
      "inputs": [
        {
          "indexed": false,
          "internalType": "contract TestUniswapV2Pool",
          "name": "pool",
          "type": "address"
        }
      ],
      "name": "PoolCreated",
      "type": "event"
    },
    {
      "inputs": [],
      "name": "POOL_INIT_CODE_HASH",
      "outputs": [
        {
          "internalType": "bytes32",
          "name": "",
          "type": "bytes32"
        }
      ],
      "stateMutability": "view",
      "type": "function"
    },
    {
      "inputs": [
        {
          "internalType": "contract IERC20Token",
          "name": "tokenA",
          "type": "address"
        },
        {
          "internalType": "contract IERC20Token",
          "name": "tokenB",
          "type": "address"
        }
      ],
      "name": "createPool",
      "outputs": [
        {
          "internalType": "contract TestUniswapV2Pool",
          "name": "pool",
          "type": "address"
        }
      ],
      "stateMutability": "nonpayable",
      "type": "function"
    },
    {
      "inputs": [],
      "name": "creationParameters",
      "outputs": [
        {
          "internalType": "contract IERC20Token",
          "name": "token0",
          "type": "address"
        },
        {
          "internalType": "contract IERC20Token",
          "name": "token1",
          "type": "address"
        }
      ],
      "stateMutability": "view",
      "type": "function"
    },
    {
      "inputs": [
        {
          "internalType": "contract IERC20Token",
          "name": "",
          "type": "address"
        },
        {
          "internalType": "contract IERC20Token",
          "name": "",
          "type": "address"
        }
      ],
      "name": "getPool",
      "outputs": [
        {
          "internalType": "contract TestUniswapV2Pool",
          "name": "",
          "type": "address"
        }
      ],
      "stateMutability": "view",
      "type": "function"
    }
  ],
  "bytecode": "0x60a0604052348015600f57600080fd5b5060405180602001601e906044565b6020820181038252601f19601f8201166040525080519060200120608081815250506051565b610a478061138f83390190565b60805161132361006c600039600061018401526113236000f3fe608060405234801561001057600080fd5b506004361061004c5760003560e01c8063531aa03e146100515780637ba6f23114610081578063dc6fd8ab146100a0578063e3433615146100be575b600080fd5b61006b60048036038101906100669190610657565b6100ee565b60405161007891906106f6565b60405180910390f35b610089610130565b604051610097929190610732565b60405180910390f35b6100a8610182565b6040516100b59190610774565b60405180910390f35b6100d860048036038101906100d39190610657565b6101a6565b6040516100e591906106f6565b60405180910390f35b60006020528160005260406000206020528060005260406000206000915091509054906101000a900473ffffffffffffffffffffffffffffffffffffffff1681565b60018060000160009054906101000a900473ffffffffffffffffffffffffffffffffffffffff16908060010160009054906101000a900473ffffffffffffffffffffffffffffffffffffffff16905082565b7f000000000000000000000000000000000000000000000000000000000000000081565b60008060008373ffffffffffffffffffffffffffffffffffffffff168573ffffffffffffffffffffffffffffffffffffffff16106101e55783856101e8565b84845b91509150600073ffffffffffffffffffffffffffffffffffffffff166000808473ffffffffffffffffffffffffffffffffffffffff1673ffffffffffffffffffffffffffffffffffffffff16815260200190815260200160002060008373ffffffffffffffffffffffffffffffffffffffff1673ffffffffffffffffffffffffffffffffffffffff16815260200190815260200160002060009054906101000a900473ffffffffffffffffffffffffffffffffffffffff1673ffffffffffffffffffffffffffffffffffffffff16146102f6576040517f08c379a00000000000000000000000000000000000000000000000000000000081526004016102ed90610812565b60405180910390fd5b60405180604001604052808373ffffffffffffffffffffffffffffffffffffffff1681526020018273ffffffffffffffffffffffffffffffffffffffff16815250600160008201518160000160006101000a81548173ffffffffffffffffffffffffffffffffffffffff021916908373ffffffffffffffffffffffffffffffffffffffff16021790555060208201518160010160006101000a81548173ffffffffffffffffffffffffffffffffffffffff021916908373ffffffffffffffffffffffffffffffffffffffff16021790555090505081816040516020016103dd92919061087a565b604051602081830303815290604052805190602001206040516103ff906105d5565b8190604051809103906000f590508015801561041f573d6000803e3d6000fd5b509250826000808473ffffffffffffffffffffffffffffffffffffffff1673ffffffffffffffffffffffffffffffffffffffff16815260200190815260200160002060008373ffffffffffffffffffffffffffffffffffffffff1673ffffffffffffffffffffffffffffffffffffffff16815260200190815260200160002060006101000a81548173ffffffffffffffffffffffffffffffffffffffff021916908373ffffffffffffffffffffffffffffffffffffffff160217905550826000808373ffffffffffffffffffffffffffffffffffffffff1673ffffffffffffffffffffffffffffffffffffffff16815260200190815260200160002060008473ffffffffffffffffffffffffffffffffffffffff1673ffffffffffffffffffffffffffffffffffffffff16815260200190815260200160002060006101000a81548173ffffffffffffffffffffffffffffffffffffffff021916908373ffffffffffffffffffffffffffffffffffffffff1602179055507f83a48fbcfc991335314e74d0496aab6a1987e992ddc85dddbcc4d6dd6ef2e9fc836040516105c591906106f6565b60405180910390a1505092915050565b610a47806108a783390190565b600080fd5b600073ffffffffffffffffffffffffffffffffffffffff82169050919050565b6000610612826105e7565b9050919050565b600061062482610607565b9050919050565b61063481610619565b811461063f57600080fd5b50565b6000813590506106518161062b565b92915050565b6000806040838503121561066e5761066d6105e2565b5b600061067c85828601610642565b925050602061068d85828601610642565b9150509250929050565b6000819050919050565b60006106bc6106b76106b2846105e7565b610697565b6105e7565b9050919050565b60006106ce826106a1565b9050919050565b60006106e0826106c3565b9050919050565b6106f0816106d5565b82525050565b600060208201905061070b60008301846106e7565b92915050565b600061071c826106c3565b9050919050565b61072c81610711565b82525050565b60006040820190506107476000830185610723565b6107546020830184610723565b9392505050565b6000819050919050565b61076e8161075b565b82525050565b60006020820190506107896000830184610765565b92915050565b600082825260208201905092915050565b7f54657374556e69737761705632466163746f72792f504f4f4c5f414c5245414460008201527f595f455849535453000000000000000000000000000000000000000000000000602082015250565b60006107fc60288361078f565b9150610807826107a0565b604082019050919050565b6000602082019050818103600083015261082b816107ef565b9050919050565b60008160601b9050919050565b600061084a82610832565b9050919050565b600061085c8261083f565b9050919050565b61087461086f82610711565b610851565b82525050565b60006108868285610863565b6014820191506108968284610863565b601482019150819050939250505056fe60c060405234801561001057600080fd5b5060003373ffffffffffffffffffffffffffffffffffffffff16637ba6f2316040518163ffffffff1660e01b81526004016040805180830381865afa15801561005d573d6000803e3d6000fd5b505050506040513d601f19601f82011682018060405250810190610081919061025b565b9050806000015181602001518073ffffffffffffffffffffffffffffffffffffffff1660a09073ffffffffffffffffffffffffffffffffffffffff168152508173ffffffffffffffffffffffffffffffffffffffff1660809073ffffffffffffffffffffffffffffffffffffffff16815250505050610288565b6000604051905090565b600080fd5b600080fd5b6000601f19601f8301169050919050565b7f4e487b7100000000000000000000000000000000000000000000000000000000600052604160045260246000fd5b6101588261010f565b810181811067ffffffffffffffff8211171561017757610176610120565b5b80604052505050565b600061018a6100fb565b9050610196828261014f565b919050565b600073ffffffffffffffffffffffffffffffffffffffff82169050919050565b60006101c68261019b565b9050919050565b60006101d8826101bb565b9050919050565b6101e8816101cd565b81146101f357600080fd5b50565b600081519050610205816101df565b92915050565b6000604082840312156102215761022061010a565b5b61022b6040610180565b9050600061023b848285016101f6565b600083015250602061024f848285016101f6565b60208301525092915050565b60006040828403121561027157610270610105565b5b600061027f8482850161020b565b91505092915050565b60805160a05161078d6102ba600039600081816101a4015261035a01526000818160fb01526102a7015261078d6000f3fe608060405234801561001057600080fd5b50600436106100575760003560e01c8063022c0d9f1461005c5780630902f1ac146100785780630dfe16811461009857806318243296146100b6578063d21220a7146100d2575b600080fd5b6100766004803603810190610071919061047f565b6100f0565b005b610080610249565b60405161008f9392919061054f565b60405180910390f35b6100a06102a5565b6040516100ad91906105e5565b60405180910390f35b6100d060048036038101906100cb9190610658565b6102c9565b005b6100da610358565b6040516100e791906105e5565b60405180910390f35b6000851115610199577f000000000000000000000000000000000000000000000000000000000000000073ffffffffffffffffffffffffffffffffffffffff1663a9059cbb84876040518363ffffffff1660e01b81526004016101549291906106c9565b6020604051808303816000875af1158015610173573d6000803e3d6000fd5b505050506040513d601f19601f82011682018060405250810190610197919061072a565b505b6000841115610242577f000000000000000000000000000000000000000000000000000000000000000073ffffffffffffffffffffffffffffffffffffffff1663a9059cbb84866040518363ffffffff1660e01b81526004016101fd9291906106c9565b6020604051808303816000875af115801561021c573d6000803e3d6000fd5b505050506040513d601f19601f82011682018060405250810190610240919061072a565b505b5050505050565b60008060008060009054906101000a90046dffffffffffffffffffffffffffff166000600e9054906101000a90046dffffffffffffffffffffffffffff166000601c9054906101000a900463ffffffff16925092509250909192565b7f000000000000000000000000000000000000000000000000000000000000000081565b826000806101000a8154816dffffffffffffffffffffffffffff02191690836dffffffffffffffffffffffffffff160217905550816000600e6101000a8154816dffffffffffffffffffffffffffff02191690836dffffffffffffffffffffffffffff160217905550806000601c6101000a81548163ffffffff021916908363ffffffff160217905550505050565b7f000000000000000000000000000000000000000000000000000000000000000081565b600080fd5b600080fd5b6000819050919050565b61039981610386565b81146103a457600080fd5b50565b6000813590506103b681610390565b92915050565b600073ffffffffffffffffffffffffffffffffffffffff82169050919050565b60006103e7826103bc565b9050919050565b6103f7816103dc565b811461040257600080fd5b50565b600081359050610414816103ee565b92915050565b600080fd5b600080fd5b600080fd5b60008083601f84011261043f5761043e61041a565b5b8235905067ffffffffffffffff81111561045c5761045b61041f565b5b60208301915083600182028301111561047857610477610424565b5b9250929050565b60008060008060006080868803121561049b5761049a61037c565b5b60006104a9888289016103a7565b95505060206104ba888289016103a7565b94505060406104cb88828901610405565b935050606086013567ffffffffffffffff8111156104ec576104eb610381565b5b6104f888828901610429565b92509250509295509295909350565b60006dffffffffffffffffffffffffffff82169050919050565b61052a81610507565b82525050565b600063ffffffff82169050919050565b61054981610530565b82525050565b60006060820190506105646000830186610521565b6105716020830185610521565b61057e6040830184610540565b949350505050565b6000819050919050565b60006105ab6105a66105a1846103bc565b610586565b6103bc565b9050919050565b60006105bd82610590565b9050919050565b60006105cf826105b2565b9050919050565b6105df816105c4565b82525050565b60006020820190506105fa60008301846105d6565b92915050565b61060981610507565b811461061457600080fd5b50565b60008135905061062681610600565b92915050565b61063581610530565b811461064057600080fd5b50565b6000813590506106528161062c565b92915050565b6000806000606084860312156106715761067061037c565b5b600061067f86828701610617565b935050602061069086828701610617565b92505060406106a186828701610643565b9150509250925092565b6106b4816103dc565b82525050565b6106c381610386565b82525050565b60006040820190506106de60008301856106ab565b6106eb60208301846106ba565b9392505050565b60008115159050919050565b610707816106f2565b811461071257600080fd5b50565b600081519050610724816106fe565b92915050565b6000602082840312156107405761073f61037c565b5b600061074e84828501610715565b9150509291505056fea26469706673582212206e3cacda215b630fc2332ac3c4bc1ab89e4c7a68be7acf94e23fe8789a2ae36564736f6c634300081c0033a2646970667358221220c1fc2cf570f8b97df6f1dad19ff5dcece49fd960b1acf870d22142067e92d51864736f6c634300081c003360c060405234801561001057600080fd5b5060003373ffffffffffffffffffffffffffffffffffffffff16637ba6f2316040518163ffffffff1660e01b81526004016040805180830381865afa15801561005d573d6000803e3d6000fd5b505050506040513d601f19601f82011682018060405250810190610081919061025b565b9050806000015181602001518073ffffffffffffffffffffffffffffffffffffffff1660a09073ffffffffffffffffffffffffffffffffffffffff168152508173ffffffffffffffffffffffffffffffffffffffff1660809073ffffffffffffffffffffffffffffffffffffffff16815250505050610288565b6000604051905090565b600080fd5b600080fd5b6000601f19601f8301169050919050565b7f4e487b7100000000000000000000000000000000000000000000000000000000600052604160045260246000fd5b6101588261010f565b810181811067ffffffffffffffff8211171561017757610176610120565b5b80604052505050565b600061018a6100fb565b9050610196828261014f565b919050565b600073ffffffffffffffffffffffffffffffffffffffff82169050919050565b60006101c68261019b565b9050919050565b60006101d8826101bb565b9050919050565b6101e8816101cd565b81146101f357600080fd5b50565b600081519050610205816101df565b92915050565b6000604082840312156102215761022061010a565b5b61022b6040610180565b9050600061023b848285016101f6565b600083015250602061024f848285016101f6565b60208301525092915050565b60006040828403121561027157610270610105565b5b600061027f8482850161020b565b91505092915050565b60805160a05161078d6102ba600039600081816101a4015261035a01526000818160fb01526102a7015261078d6000f3fe608060405234801561001057600080fd5b50600436106100575760003560e01c8063022c0d9f1461005c5780630902f1ac146100785780630dfe16811461009857806318243296146100b6578063d21220a7146100d2575b600080fd5b6100766004803603810190610071919061047f565b6100f0565b005b610080610249565b60405161008f9392919061054f565b60405180910390f35b6100a06102a5565b6040516100ad91906105e5565b60405180910390f35b6100d060048036038101906100cb9190610658565b6102c9565b005b6100da610358565b6040516100e791906105e5565b60405180910390f35b6000851115610199577f000000000000000000000000000000000000000000000000000000000000000073ffffffffffffffffffffffffffffffffffffffff1663a9059cbb84876040518363ffffffff1660e01b81526004016101549291906106c9565b6020604051808303816000875af1158015610173573d6000803e3d6000fd5b505050506040513d601f19601f82011682018060405250810190610197919061072a565b505b6000841115610242577f000000000000000000000000000000000000000000000000000000000000000073ffffffffffffffffffffffffffffffffffffffff1663a9059cbb84866040518363ffffffff1660e01b81526004016101fd9291906106c9565b6020604051808303816000875af115801561021c573d6000803e3d6000fd5b505050506040513d601f19601f82011682018060405250810190610240919061072a565b505b5050505050565b60008060008060009054906101000a90046dffffffffffffffffffffffffffff166000600e9054906101000a90046dffffffffffffffffffffffffffff166000601c9054906101000a900463ffffffff16925092509250909192565b7f000000000000000000000000000000000000000000000000000000000000000081565b826000806101000a8154816dffffffffffffffffffffffffffff02191690836dffffffffffffffffffffffffffff160217905550816000600e6101000a8154816dffffffffffffffffffffffffffff02191690836dffffffffffffffffffffffffffff160217905550806000601c6101000a81548163ffffffff021916908363ffffffff160217905550505050565b7f000000000000000000000000000000000000000000000000000000000000000081565b600080fd5b600080fd5b6000819050919050565b61039981610386565b81146103a457600080fd5b50565b6000813590506103b681610390565b92915050565b600073ffffffffffffffffffffffffffffffffffffffff82169050919050565b60006103e7826103bc565b9050919050565b6103f7816103dc565b811461040257600080fd5b50565b600081359050610414816103ee565b92915050565b600080fd5b600080fd5b600080fd5b60008083601f84011261043f5761043e61041a565b5b8235905067ffffffffffffffff81111561045c5761045b61041f565b5b60208301915083600182028301111561047857610477610424565b5b9250929050565b60008060008060006080868803121561049b5761049a61037c565b5b60006104a9888289016103a7565b95505060206104ba888289016103a7565b94505060406104cb88828901610405565b935050606086013567ffffffffffffffff8111156104ec576104eb610381565b5b6104f888828901610429565b92509250509295509295909350565b60006dffffffffffffffffffffffffffff82169050919050565b61052a81610507565b82525050565b600063ffffffff82169050919050565b61054981610530565b82525050565b60006060820190506105646000830186610521565b6105716020830185610521565b61057e6040830184610540565b949350505050565b6000819050919050565b60006105ab6105a66105a1846103bc565b610586565b6103bc565b9050919050565b60006105bd82610590565b9050919050565b60006105cf826105b2565b9050919050565b6105df816105c4565b82525050565b60006020820190506105fa60008301846105d6565b92915050565b61060981610507565b811461061457600080fd5b50565b60008135905061062681610600565b92915050565b61063581610530565b811461064057600080fd5b50565b6000813590506106528161062c565b92915050565b6000806000606084860312156106715761067061037c565b5b600061067f86828701610617565b935050602061069086828701610617565b92505060406106a186828701610643565b9150509250925092565b6106b4816103dc565b82525050565b6106c381610386565b82525050565b60006040820190506106de60008301856106ab565b6106eb60208301846106ba565b9392505050565b60008115159050919050565b610707816106f2565b811461071257600080fd5b50565b600081519050610724816106fe565b92915050565b6000602082840312156107405761073f61037c565b5b600061074e84828501610715565b9150509291505056fea26469706673582212206e3cacda215b630fc2332ac3c4bc1ab89e4c7a68be7acf94e23fe8789a2ae36564736f6c634300081c0033",
  "linkReferences": {},
  "deployedLinkReferences": {}
}