{
  "_format": "hh-sol-artifact-1",
  "contractName": "TestTransformerDeployerTransformer",
  "sourceName": "contracts/test/TestTransformerDeployerTransformer.sol",
  "abi": [
    {
      "inputs": [],
      "stateMutability": "payable",
      "type": "constructor"
    },
    {
      "inputs": [],
      "name": "CONSTRUCTOR_FAIL_VALUE",
      "outputs": [
        {
          "internalType": "uint256",
          "name": "",
          "type": "uint256"
        }
      ],
      "stateMutability": "view",
      "type": "function"
    },
    {
      "inputs": [],
      "name": "deployer",
      "outputs": [
        {
          "internalType": "address payable",
          "name": "",
          "type": "address"
        }
      ],
      "stateMutability": "view",
      "type": "function"
    },
    {
      "inputs": [
        {
          "internalType": "address payable",
          "name": "ethRecipient",
          "type": "address"
        }
      ],
      "name": "die",
      "outputs": [],
      "stateMutability": "nonpayable",
      "type": "function"
    },
    {
      "inputs": [
        {
          "internalType": "uint32",
          "name": "nonce",
          "type": "uint32"
        }
      ],
      "name": "isDeployedByDeployer",
      "outputs": [
        {
          "internalType": "bool",
          "name": "",
          "type": "bool"
        }
      ],
      "stateMutability": "view",
      "type": "function"
    }
  ],
  "bytecode": "0x60a06040523373ffffffffffffffffffffffffffffffffffffffff1660808173ffffffffffffffffffffffffffffffffffffffff1681525050610d05340361007c576040517f08c379a000000000000000000000000000000000000000000000000000000000815260040161007390610104565b60405180910390fd5b610124565b600082825260208201905092915050565b7f546573745472616e73666f726d65724465706c6f7965725472616e73666f726d60008201527f65722f434f4e5354525543544f525f4641494c00000000000000000000000000602082015250565b60006100ee603383610081565b91506100f982610092565b604082019050919050565b6000602082019050818103600083015261011d816100e1565b9050919050565b608051610e0b61014c6000396000818160fd0152818161014201526101e90152610e0b6000f3fe608060405234801561001057600080fd5b506004361061004c5760003560e01c80637c9bc5e214610051578063905e1d411461006f578063c9353cb51461009f578063d5f39488146100bb575b600080fd5b6100596100d9565b604051610066919061099b565b60405180910390f35b610089600480360381019061008491906109f7565b6100df565b6040516100969190610a3f565b60405180910390f35b6100b960048036038101906100b49190610ab8565b610140565b005b6100c36101e7565b6040516100d09190610af4565b60405180910390f35b610d0581565b60003073ffffffffffffffffffffffffffffffffffffffff166101227f00000000000000000000000000000000000000000000000000000000000000008461020b565b73ffffffffffffffffffffffffffffffffffffffff16149050919050565b7f000000000000000000000000000000000000000000000000000000000000000073ffffffffffffffffffffffffffffffffffffffff163373ffffffffffffffffffffffffffffffffffffffff16146101ce576040517f08c379a00000000000000000000000000000000000000000000000000000000081526004016101c590610b92565b60405180910390fd5b8073ffffffffffffffffffffffffffffffffffffffff16ff5b7f000000000000000000000000000000000000000000000000000000000000000081565b60008061021783610266565b9050805160d56102279190610be1565b60f81b609460f81b85836040516020016102449493929190610d2d565b6040516020818303038152906040528051906020012060001c91505092915050565b606060008263ffffffff160361031357600167ffffffffffffffff81111561029157610290610d77565b5b6040519080825280601f01601f1916602001820160405280156102c35781602001600182028036833780820191505090505b509050608060f81b816000815181106102df576102de610da6565b5b60200101907effffffffffffffffffffffffffffffffffffffffffffffffffffffffffffff1916908160001a90535061097d565b60808263ffffffff1610156103be57600167ffffffffffffffff81111561033d5761033c610d77565b5b6040519080825280601f01601f19166020018201604052801561036f5781602001600182028036833780820191505090505b5090508160f81b8160008151811061038a57610389610da6565b5b60200101907effffffffffffffffffffffffffffffffffffffffffffffffffffffffffffff1916908160001a90535061097c565b60ff8263ffffffff16116104b057600267ffffffffffffffff8111156103e7576103e6610d77565b5b6040519080825280601f01601f1916602001820160405280156104195781602001600182028036833780820191505090505b509050608160f81b8160008151811061043557610434610da6565b5b60200101907effffffffffffffffffffffffffffffffffffffffffffffffffffffffffffff1916908160001a9053508160f81b8160018151811061047c5761047b610da6565b5b60200101907effffffffffffffffffffffffffffffffffffffffffffffffffffffffffffff1916908160001a90535061097b565b61ffff8263ffffffff16116105f857600367ffffffffffffffff8111156104da576104d9610d77565b5b6040519080825280601f01601f19166020018201604052801561050c5781602001600182028036833780820191505090505b509050608260f81b8160008151811061052857610527610da6565b5b60200101907effffffffffffffffffffffffffffffffffffffffffffffffffffffffffffff1916908160001a905350600861ff00831663ffffffff16901c60f81b8160018151811061057d5761057c610da6565b5b60200101907effffffffffffffffffffffffffffffffffffffffffffffffffffffffffffff1916908160001a9053508160f81b816002815181106105c4576105c3610da6565b5b60200101907effffffffffffffffffffffffffffffffffffffffffffffffffffffffffffff1916908160001a90535061097a565b62ffffff8263ffffffff161161079757600467ffffffffffffffff81111561062357610622610d77565b5b6040519080825280601f01601f1916602001820160405280156106555781602001600182028036833780820191505090505b509050608360f81b8160008151811061067157610670610da6565b5b60200101907effffffffffffffffffffffffffffffffffffffffffffffffffffffffffffff1916908160001a905350601062ff0000831663ffffffff16901c60f81b816001815181106106c7576106c6610da6565b5b60200101907effffffffffffffffffffffffffffffffffffffffffffffffffffffffffffff1916908160001a905350600861ff00831663ffffffff16901c60f81b8160028151811061071c5761071b610da6565b5b60200101907effffffffffffffffffffffffffffffffffffffffffffffffffffffffffffff1916908160001a9053508160f81b8160038151811061076357610762610da6565b5b60200101907effffffffffffffffffffffffffffffffffffffffffffffffffffffffffffff1916908160001a905350610979565b600567ffffffffffffffff8111156107b2576107b1610d77565b5b6040519080825280601f01601f1916602001820160405280156107e45781602001600182028036833780820191505090505b509050608460f81b81600081518110610800576107ff610da6565b5b60200101907effffffffffffffffffffffffffffffffffffffffffffffffffffffffffffff1916908160001a905350601863ff000000831663ffffffff16901c60f81b8160018151811061085757610856610da6565b5b60200101907effffffffffffffffffffffffffffffffffffffffffffffffffffffffffffff1916908160001a905350601062ff0000831663ffffffff16901c60f81b816002815181106108ad576108ac610da6565b5b60200101907effffffffffffffffffffffffffffffffffffffffffffffffffffffffffffff1916908160001a905350600861ff00831663ffffffff16901c60f81b8160038151811061090257610901610da6565b5b60200101907effffffffffffffffffffffffffffffffffffffffffffffffffffffffffffff1916908160001a9053508160f81b8160048151811061094957610948610da6565b5b60200101907effffffffffffffffffffffffffffffffffffffffffffffffffffffffffffff1916908160001a9053505b5b5b5b5b919050565b6000819050919050565b61099581610982565b82525050565b60006020820190506109b0600083018461098c565b92915050565b600080fd5b600063ffffffff82169050919050565b6109d4816109bb565b81146109df57600080fd5b50565b6000813590506109f1816109cb565b92915050565b600060208284031215610a0d57610a0c6109b6565b5b6000610a1b848285016109e2565b91505092915050565b60008115159050919050565b610a3981610a24565b82525050565b6000602082019050610a546000830184610a30565b92915050565b600073ffffffffffffffffffffffffffffffffffffffff82169050919050565b6000610a8582610a5a565b9050919050565b610a9581610a7a565b8114610aa057600080fd5b50565b600081359050610ab281610a8c565b92915050565b600060208284031215610ace57610acd6109b6565b5b6000610adc84828501610aa3565b91505092915050565b610aee81610a7a565b82525050565b6000602082019050610b096000830184610ae5565b92915050565b600082825260208201905092915050565b7f546573745472616e73666f726d65724465706c6f7965725472616e73666f726d60008201527f65722f4f4e4c595f4445504c4f59455200000000000000000000000000000000602082015250565b6000610b7c603083610b0f565b9150610b8782610b20565b604082019050919050565b60006020820190508181036000830152610bab81610b6f565b9050919050565b7f4e487b7100000000000000000000000000000000000000000000000000000000600052601160045260246000fd5b6000610bec82610982565b9150610bf783610982565b9250828201905080821115610c0f57610c0e610bb2565b5b92915050565b60007fff0000000000000000000000000000000000000000000000000000000000000082169050919050565b6000819050919050565b610c5c610c5782610c15565b610c41565b82525050565b6000610c6d82610a5a565b9050919050565b60008160601b9050919050565b6000610c8c82610c74565b9050919050565b6000610c9e82610c81565b9050919050565b610cb6610cb182610c62565b610c93565b82525050565b600081519050919050565b600081905092915050565b60005b83811015610cf0578082015181840152602081019050610cd5565b60008484015250505050565b6000610d0782610cbc565b610d118185610cc7565b9350610d21818560208601610cd2565b80840191505092915050565b6000610d398287610c4b565b600182019150610d498286610c4b565b600182019150610d598285610ca5565b601482019150610d698284610cfc565b915081905095945050505050565b7f4e487b7100000000000000000000000000000000000000000000000000000000600052604160045260246000fd5b7f4e487b7100000000000000000000000000000000000000000000000000000000600052603260045260246000fdfea2646970667358221220f4eed95668db6461daa1f29b76bd4ccc9aa3f97a3ff8edeb9a6a1f7fa5abc25364736f6c634300081c0033",
  "linkReferences": {},
  "deployedLinkReferences": {}
}