{
  "_format": "hh-sol-artifact-1",
  "contractName": "TestTransformerDeployerTransformer",
  "sourceName": "contracts/test/TestTransformerDeployerTransformer.sol",
  "abi": [
    {
      "inputs": [],
      "stateMutability": "payable",
      "type": "constructor"
    },
    {
      "inputs": [],
      "name": "CONSTRUCTOR_FAIL_VALUE",
      "outputs": [
        {
          "internalType": "uint256",
          "name": "",
          "type": "uint256"
        }
      ],
      "stateMutability": "view",
      "type": "function"
    },
    {
      "inputs": [],
      "name": "deployer",
      "outputs": [
        {
          "internalType": "address payable",
          "name": "",
          "type": "address"
        }
      ],
      "stateMutability": "view",
      "type": "function"
    },
    {
      "inputs": [
        {
          "internalType": "address payable",
          "name": "ethRecipient",
          "type": "address"
        }
      ],
      "name": "die",
      "outputs": [],
      "stateMutability": "nonpayable",
      "type": "function"
    },
    {
      "inputs": [
        {
          "internalType": "uint32",
          "name": "nonce",
          "type": "uint32"
        }
      ],
      "name": "isDeployedByDeployer",
      "outputs": [
        {
          "internalType": "bool",
          "name": "",
          "type": "bool"
        }
      ],
      "stateMutability": "view",
      "type": "function"
    }
  ],
  "bytecode": "0x60a060405233608052610d041934016100845760405162461bcd60e51b815260206004820152603360248201527f546573745472616e73666f726d65724465706c6f7965725472616e73666f726d60448201527f65722f434f4e5354525543544f525f4641494c00000000000000000000000000606482015260840160405180910390fd5b6080516106de6100a85f395f818160a70152818160e8015261012801526106de5ff3fe608060405234801561000f575f5ffd5b506004361061004a575f3560e01c80637c9bc5e21461004e578063905e1d411461006a578063c9353cb51461008d578063d5f39488146100a2575b5f5ffd5b610057610d0581565b6040519081526020015b60405180910390f35b61007d6100783660046105d7565b6100e1565b6040519015158152602001610061565b6100a061009b366004610601565b61011d565b005b6100c97f000000000000000000000000000000000000000000000000000000000000000081565b6040516001600160a01b039091168152602001610061565b5f3061010d7f0000000000000000000000000000000000000000000000000000000000000000846101be565b6001600160a01b03161492915050565b336001600160a01b037f000000000000000000000000000000000000000000000000000000000000000016146101b25760405162461bcd60e51b815260206004820152603060248201527f546573745472616e73666f726d65724465706c6f7965725472616e73666f726d60448201526f32b917a7a7262cafa222a82627aca2a960811b606482015260840160405180910390fd5b806001600160a01b0316ff5b5f5f6101c983610218565b9050805160d56101d99190610627565b6040516101f69160f81b90602560fa1b9087908590602001610646565b604051602081830303815290604052805190602001205f1c9150505b92915050565b60608163ffffffff165f036102785760408051600180825281830190925290602082018180368337019050509050608060f81b815f8151811061025d5761025d610694565b60200101906001600160f81b03191690815f1a905350919050565b60808263ffffffff1610156102bc57604080516001808252818301909252906020820181803683370190505090508160f81b815f8151811061025d5761025d610694565b60ff8263ffffffff161161032d5760408051600280825281830190925290602082018180368337019050509050608160f81b815f8151811061030057610300610694565b60200101906001600160f81b03191690815f1a9053508160f81b8160018151811061025d5761025d610694565b61ffff8263ffffffff16116103da5760408051600380825281830190925290602082018180368337019050509050608260f81b815f8151811061037257610372610694565b60200101906001600160f81b03191690815f1a90535080516001600160f81b031960f084901b1690829060019081106103ad576103ad610694565b60200101906001600160f81b03191690815f1a9053508160f81b8160028151811061025d5761025d610694565b62ffffff8263ffffffff16116104c35760408051600480825281830190925290602082018180368337019050509050608360f81b815f8151811061042057610420610694565b60200101906001600160f81b03191690815f1a90535080516001600160f81b031960e884901b16908290600190811061045b5761045b610694565b60200101906001600160f81b03191690815f1a90535080516001600160f81b031960f084901b16908290600290811061049657610496610694565b60200101906001600160f81b03191690815f1a9053508160f81b8160038151811061025d5761025d610694565b60408051600580825281830190925290602082018180368337019050509050608460f81b815f815181106104f9576104f9610694565b60200101906001600160f81b03191690815f1a90535080516001600160f81b031960e084901b16908290600190811061053457610534610694565b60200101906001600160f81b03191690815f1a90535080516001600160f81b031960e884901b16908290600290811061056f5761056f610694565b60200101906001600160f81b03191690815f1a90535080516001600160f81b031960f084901b1690829060039081106105aa576105aa610694565b60200101906001600160f81b03191690815f1a9053508160f81b8160048151811061025d5761025d610694565b5f602082840312156105e7575f5ffd5b813563ffffffff811681146105fa575f5ffd5b9392505050565b5f60208284031215610611575f5ffd5b81356001600160a01b03811681146105fa575f5ffd5b8082018082111561021257634e487b7160e01b5f52601160045260245ffd5b6001600160f81b0319858116825284166001820152606083901b6bffffffffffffffffffffffff1916600282015281515f908060208501601685015e5f920160160191825250949350505050565b634e487b7160e01b5f52603260045260245ffdfea264697066735822122027285a04b77bd2a9fb55bc76d9c97c2ce3eb41412f33891a875b3ef457d4137464736f6c634300081c0033",
  "linkReferences": {},
  "deployedLinkReferences": {}
}