{"contracts/test/TestLibBytes.sol":{"TestLibBytes":{"abi":[{"inputs":[{"internalType":"bytes","name":"b","type":"bytes"},{"internalType":"uint256","name":"tempLength","type":"uint256"}],"name":"assertBytesUnchangedAfterLengthReset","outputs":[],"stateMutability":"pure","type":"function"},{"inputs":[{"internalType":"bytes","name":"lhs","type":"bytes"},{"internalType":"bytes","name":"rhs","type":"bytes"}],"name":"publicEquals","outputs":[{"internalType":"bool","name":"equal","type":"bool"}],"stateMutability":"pure","type":"function"},{"inputs":[{"internalType":"bytes","name":"lhs","type":"bytes"},{"internalType":"bytes","name":"rhs","type":"bytes"}],"name":"publicEqualsPop1","outputs":[{"internalType":"bool","name":"equal","type":"bool"}],"stateMutability":"pure","type":"function"},{"inputs":[{"internalType":"bytes","name":"b","type":"bytes"}],"name":"publicPopLastByte","outputs":[{"internalType":"bytes","name":"","type":"bytes"},{"internalType":"bytes1","name":"result","type":"bytes1"}],"stateMutability":"pure","type":"function"},{"inputs":[{"internalType":"bytes","name":"b","type":"bytes"},{"internalType":"uint256","name":"index","type":"uint256"}],"name":"publicReadAddress","outputs":[{"internalType":"address","name":"result","type":"address"}],"stateMutability":"pure","type":"function"},{"inputs":[{"internalType":"bytes","name":"b","type":"bytes"},{"internalType":"uint256","name":"index","type":"uint256"}],"name":"publicReadBytes32","outputs":[{"internalType":"bytes32","name":"result","type":"bytes32"}],"stateMutability":"pure","type":"function"},{"inputs":[{"internalType":"bytes","name":"b","type":"bytes"},{"internalType":"uint256","name":"index","type":"uint256"}],"name":"publicReadBytes4","outputs":[{"internalType":"bytes4","name":"result","type":"bytes4"}],"stateMutability":"pure","type":"function"},{"inputs":[{"internalType":"bytes","name":"b","type":"bytes"},{"internalType":"uint256","name":"index","type":"uint256"}],"name":"publicReadUint256","outputs":[{"internalType":"uint256","name":"result","type":"uint256"}],"stateMutability":"pure","type":"function"},{"inputs":[{"internalType":"bytes","name":"b","type":"bytes"},{"internalType":"uint256","name":"from","type":"uint256"},{"internalType":"uint256","name":"to","type":"uint256"}],"name":"publicSlice","outputs":[{"internalType":"bytes","name":"result","type":"bytes"},{"internalType":"bytes","name":"original","type":"bytes"}],"stateMutability":"pure","type":"function"},{"inputs":[{"internalType":"bytes","name":"b","type":"bytes"},{"internalType":"uint256","name":"from","type":"uint256"},{"internalType":"uint256","name":"to","type":"uint256"}],"name":"publicSliceDestructive","outputs":[{"internalType":"bytes","name":"result","type":"bytes"},{"internalType":"bytes","name":"original","type":"bytes"}],"stateMutability":"pure","type":"function"},{"inputs":[{"internalType":"bytes","name":"b","type":"bytes"},{"internalType":"uint256","name":"index","type":"uint256"},{"internalType":"address","name":"input","type":"address"}],"name":"publicWriteAddress","outputs":[{"internalType":"bytes","name":"","type":"bytes"}],"stateMutability":"pure","type":"function"},{"inputs":[{"internalType":"bytes","name":"b","type":"bytes"},{"internalType":"uint256","name":"index","type":"uint256"},{"internalType":"bytes32","name":"input","type":"bytes32"}],"name":"publicWriteBytes32","outputs":[{"internalType":"bytes","name":"","type":"bytes"}],"stateMutability":"pure","type":"function"},{"inputs":[{"internalType":"bytes","name":"b","type":"bytes"},{"internalType":"uint256","name":"length","type":"uint256"},{"internalType":"bytes","name":"extraBytes","type":"bytes"}],"name":"publicWriteLength","outputs":[{"internalType":"bytes","name":"","type":"bytes"}],"stateMutability":"pure","type":"function"},{"inputs":[{"internalType":"bytes","name":"b","type":"bytes"},{"internalType":"uint256","name":"index","type":"uint256"},{"internalType":"uint256","name":"input","type":"uint256"}],"name":"publicWriteUint256","outputs":[{"internalType":"bytes","name":"","type":"bytes"}],"stateMutability":"pure","type":"function"},{"inputs":[{"internalType":"bytes","name":"mem","type":"bytes"},{"internalType":"uint256","name":"dest","type":"uint256"},{"internalType":"uint256","name":"source","type":"uint256"},{"internalType":"uint256","name":"length","type":"uint256"}],"name":"testMemcpy","outputs":[{"internalType":"bytes","name":"","type":"bytes"}],"stateMutability":"pure","type":"function"}],"evm":{"bytecode":{"linkReferences":{},"object":"6080604052348015600f57600080fd5b506114fa8061001f6000396000f3fe608060405234801561001057600080fd5b50600436106100f55760003560e01c80639d19cb5e11610097578063c4b0f38b11610066578063c4b0f38b146102f8578063cc12cb2814610329578063e3a85ce414610359578063f06f300d14610389576100f5565b80639d19cb5e14610237578063b1840e8d14610268578063b79650a414610298578063be766f1b146102c8576100f5565b806367aa05c2116100d357806367aa05c21461017757806378bbae9b146101a757806382e2fa24146101d757806384f8775814610207576100f5565b80630301d5e1146100fa5780633f2a25ec1461012b5780634bcb91d21461015b575b600080fd5b610114600480360381019061010f9190610c92565b6103b9565b604051610122929190610d95565b60405180910390f35b61014560048036038101906101409190610e59565b6103d0565b6040516101529190610ec8565b60405180910390f35b61017560048036038101906101709190610eea565b6103f1565b005b610191600480360381019061018c9190610f46565b61045d565b60405161019e9190610ec8565b60405180910390f35b6101c160048036038101906101bc9190610fd1565b6104aa565b6040516101ce9190610ec8565b60405180910390f35b6101f160048036038101906101ec9190610eea565b610518565b6040516101fe9190611063565b60405180910390f35b610221600480360381019061021c91906110b4565b610535565b60405161022e9190610ec8565b60405180910390f35b610251600480360381019061024c9190611123565b610556565b60405161025f929190611192565b60405180910390f35b610282600480360381019061027d91906111c9565b610574565b60405161028f919061125c565b60405180910390f35b6102b260048036038101906102ad9190611123565b6105a5565b6040516102bf9190610ec8565b60405180910390f35b6102e260048036038101906102dd9190610eea565b6105c6565b6040516102ef9190611286565b60405180910390f35b610312600480360381019061030d9190611123565b6105e3565b604051610320929190611192565b60405180910390f35b610343600480360381019061033e9190610eea565b610601565b60405161035091906112dc565b60405180910390f35b610373600480360381019061036e9190610eea565b61061e565b6040516103809190611306565b60405180910390f35b6103a3600480360381019061039e91906111c9565b61063b565b6040516103b0919061125c565b60405180910390f35b606060006103c683610658565b9050829150915091565b60606103e78383866106b49092919063ffffffff16565b8390509392505050565b600082519050600061040f600083866107469092919063ffffffff16565b9050610424838561080c90919063ffffffff16565b610437828561080c90919063ffffffff16565b61044a818561081390919063ffffffff16565b61045757610456611321565b5b50505050565b60606000845161046c8661082e565b610476919061137f565b905061048c816104858561082e565b855161083b565b61049f848661080c90919063ffffffff16565b849150509392505050565b6060845182846104ba919061137f565b11156104c557600080fd5b845182856104d3919061137f565b11156104de57600080fd5b60006104e98661082e565b905061050c85826104fa919061137f565b8583610506919061137f565b8561083b565b85915050949350505050565b600061052d82846108e690919063ffffffff16565b905092915050565b606061054c83838661093a9092919063ffffffff16565b8390509392505050565b606080610564858585610746565b9150818591509150935093915050565b600061057f83610658565b5061058982610658565b5061059d828461081390919063ffffffff16565b905092915050565b60606105bc83838661098a9092919063ffffffff16565b8390509392505050565b60006105db828461099d90919063ffffffff16565b905092915050565b6060806105f18585856109f1565b9150818591509150935093915050565b60006106168284610a4090919063ffffffff16565b905092915050565b60006106338284610a9490919063ffffffff16565b905092915050565b6000610650828461081390919063ffffffff16565b905092915050565b60008082510361067957610678610673600284516000610aab565b610b30565b5b816001835161068891906113b3565b81518110610699576106986113e7565b5b602001015160f81c60f81b9050600182510380835250919050565b6014826106c1919061137f565b835110156106eb576106ea6106e5600485516014866106e0919061137f565b610aab565b610b30565b5b6014826106f8919061137f565b91507fffffffffffffffffffffffff0000000000000000000000000000000000000000828401511673ffffffffffffffffffffffffffffffffffffffff821691508082188385015250505050565b6060818311156107655761076461075f60008585610aab565b610b30565b5b83518211156107845761078361077e6001848751610aab565b610b30565b5b828261079091906113b3565b67ffffffffffffffff8111156107a9576107a8610b67565b5b6040519080825280601f01601f1916602001820160405280156107db5781602001600182028036833780820191505090505b5090506108056107ea8261082e565b846107f48761082e565b6107fe919061137f565b835161083b565b9392505050565b8082525050565b60008180519060200120838051906020012014905092915050565b6000602082019050919050565b6020811015610865576001816020036101000a0380198351168185511680821786525050506108e0565b828203156108e157828211156108ac5760208103905080820181840181515b828510156108a15784518652602085019450602086019550610884565b8082525050506108df565b60208103905080820181840183515b818612156108d857825182526020830392506020820391506108bb565b8086525050505b5b5b505050565b60006014826108f5919061137f565b8351101561091f5761091e61091960048551601486610914919061137f565b610aab565b610b30565b5b60148261092c919061137f565b915081830151905092915050565b602082610947919061137f565b835110156109715761097061096b60058551602086610966919061137f565b610aab565b610b30565b5b60208261097e919061137f565b91508082840152505050565b61099883838360001b61093a565b505050565b60006020826109ac919061137f565b835110156109d6576109d56109d0600585516020866109cb919061137f565b610aab565b610b30565b5b6020826109e3919061137f565b915081830151905092915050565b606081831115610a1057610a0f610a0a60008585610aab565b610b30565b5b8351821115610a2f57610a2e610a296001848751610aab565b610b30565b5b828401905082820381529392505050565b6000600482610a4f919061137f565b83511015610a7957610a78610a7360038551600486610a6e919061137f565b610aab565b610b30565b5b602082610a86919061137f565b915081830151905092915050565b6000610aa0838361099d565b60001c905092915050565b6060632800659560e01b848484604051602401610aca9392919061148d565b604051602081830303815290604052907bffffffffffffffffffffffffffffffffffffffffffffffffffffffff19166020820180517bffffffffffffffffffffffffffffffffffffffffffffffffffffffff838183161783525050505090509392505050565b805160208201fd5b6000604051905090565b600080fd5b600080fd5b600080fd5b600080fd5b6000601f19601f8301169050919050565b7f4e487b7100000000000000000000000000000000000000000000000000000000600052604160045260246000fd5b610b9f82610b56565b810181811067ffffffffffffffff82111715610bbe57610bbd610b67565b5b80604052505050565b6000610bd1610b38565b9050610bdd8282610b96565b919050565b600067ffffffffffffffff821115610bfd57610bfc610b67565b5b610c0682610b56565b9050602081019050919050565b82818337600083830152505050565b6000610c35610c3084610be2565b610bc7565b905082815260208101848484011115610c5157610c50610b51565b5b610c5c848285610c13565b509392505050565b600082601f830112610c7957610c78610b4c565b5b8135610c89848260208601610c22565b91505092915050565b600060208284031215610ca857610ca7610b42565b5b600082013567ffffffffffffffff811115610cc657610cc5610b47565b5b610cd284828501610c64565b91505092915050565b600081519050919050565b600082825260208201905092915050565b60005b83811015610d15578082015181840152602081019050610cfa565b60008484015250505050565b6000610d2c82610cdb565b610d368185610ce6565b9350610d46818560208601610cf7565b610d4f81610b56565b840191505092915050565b60007fff0000000000000000000000000000000000000000000000000000000000000082169050919050565b610d8f81610d5a565b82525050565b60006040820190508181036000830152610daf8185610d21565b9050610dbe6020830184610d86565b9392505050565b6000819050919050565b610dd881610dc5565b8114610de357600080fd5b50565b600081359050610df581610dcf565b92915050565b600073ffffffffffffffffffffffffffffffffffffffff82169050919050565b6000610e2682610dfb565b9050919050565b610e3681610e1b565b8114610e4157600080fd5b50565b600081359050610e5381610e2d565b92915050565b600080600060608486031215610e7257610e71610b42565b5b600084013567ffffffffffffffff811115610e9057610e8f610b47565b5b610e9c86828701610c64565b9350506020610ead86828701610de6565b9250506040610ebe86828701610e44565b9150509250925092565b60006020820190508181036000830152610ee28184610d21565b905092915050565b60008060408385031215610f0157610f00610b42565b5b600083013567ffffffffffffffff811115610f1f57610f1e610b47565b5b610f2b85828601610c64565b9250506020610f3c85828601610de6565b9150509250929050565b600080600060608486031215610f5f57610f5e610b42565b5b600084013567ffffffffffffffff811115610f7d57610f7c610b47565b5b610f8986828701610c64565b9350506020610f9a86828701610de6565b925050604084013567ffffffffffffffff811115610fbb57610fba610b47565b5b610fc786828701610c64565b9150509250925092565b60008060008060808587031215610feb57610fea610b42565b5b600085013567ffffffffffffffff81111561100957611008610b47565b5b61101587828801610c64565b945050602061102687828801610de6565b935050604061103787828801610de6565b925050606061104887828801610de6565b91505092959194509250565b61105d81610e1b565b82525050565b60006020820190506110786000830184611054565b92915050565b6000819050919050565b6110918161107e565b811461109c57600080fd5b50565b6000813590506110ae81611088565b92915050565b6000806000606084860312156110cd576110cc610b42565b5b600084013567ffffffffffffffff8111156110eb576110ea610b47565b5b6110f786828701610c64565b935050602061110886828701610de6565b92505060406111198682870161109f565b9150509250925092565b60008060006060848603121561113c5761113b610b42565b5b600084013567ffffffffffffffff81111561115a57611159610b47565b5b61116686828701610c64565b935050602061117786828701610de6565b925050604061118886828701610de6565b9150509250925092565b600060408201905081810360008301526111ac8185610d21565b905081810360208301526111c08184610d21565b90509392505050565b600080604083850312156111e0576111df610b42565b5b600083013567ffffffffffffffff8111156111fe576111fd610b47565b5b61120a85828601610c64565b925050602083013567ffffffffffffffff81111561122b5761122a610b47565b5b61123785828601610c64565b9150509250929050565b60008115159050919050565b61125681611241565b82525050565b6000602082019050611271600083018461124d565b92915050565b6112808161107e565b82525050565b600060208201905061129b6000830184611277565b92915050565b60007fffffffff0000000000000000000000000000000000000000000000000000000082169050919050565b6112d6816112a1565b82525050565b60006020820190506112f160008301846112cd565b92915050565b61130081610dc5565b82525050565b600060208201905061131b60008301846112f7565b92915050565b7f4e487b7100000000000000000000000000000000000000000000000000000000600052600160045260246000fd5b7f4e487b7100000000000000000000000000000000000000000000000000000000600052601160045260246000fd5b600061138a82610dc5565b915061139583610dc5565b92508282019050808211156113ad576113ac611350565b5b92915050565b60006113be82610dc5565b91506113c983610dc5565b92508282039050818111156113e1576113e0611350565b5b92915050565b7f4e487b7100000000000000000000000000000000000000000000000000000000600052603260045260246000fd5b7f4e487b7100000000000000000000000000000000000000000000000000000000600052602160045260246000fd5b6008811061145657611455611416565b5b50565b600081905061146782611445565b919050565b600061147782611459565b9050919050565b6114878161146c565b82525050565b60006060820190506114a2600083018661147e565b6114af60208301856112f7565b6114bc60408301846112f7565b94935050505056fea2646970667358221220a28d49fa6efca225ee9e85ffb86068eee97b2a2440ac199d48297e1776ac026164736f6c634300081c0033","opcodes":"PUSH1 0x80 PUSH1 0x40 MSTORE CALLVALUE DUP1 ISZERO PUSH1 0xF JUMPI PUSH1 0x0 DUP1 REVERT JUMPDEST POP PUSH2 0x14FA DUP1 PUSH2 0x1F PUSH1 0x0 CODECOPY PUSH1 0x0 RETURN INVALID PUSH1 0x80 PUSH1 0x40 MSTORE CALLVALUE DUP1 ISZERO PUSH2 0x10 JUMPI PUSH1 0x0 DUP1 REVERT JUMPDEST POP PUSH1 0x4 CALLDATASIZE LT PUSH2 0xF5 JUMPI PUSH1 0x0 CALLDATALOAD PUSH1 0xE0 SHR DUP1 PUSH4 0x9D19CB5E GT PUSH2 0x97 JUMPI DUP1 PUSH4 0xC4B0F38B GT PUSH2 0x66 JUMPI DUP1 PUSH4 0xC4B0F38B EQ PUSH2 0x2F8 JUMPI DUP1 PUSH4 0xCC12CB28 EQ PUSH2 0x329 JUMPI DUP1 PUSH4 0xE3A85CE4 EQ PUSH2 0x359 JUMPI DUP1 PUSH4 0xF06F300D EQ PUSH2 0x389 JUMPI PUSH2 0xF5 JUMP JUMPDEST DUP1 PUSH4 0x9D19CB5E EQ PUSH2 0x237 JUMPI DUP1 PUSH4 0xB1840E8D EQ PUSH2 0x268 JUMPI DUP1 PUSH4 0xB79650A4 EQ PUSH2 0x298 JUMPI DUP1 PUSH4 0xBE766F1B EQ PUSH2 0x2C8 JUMPI PUSH2 0xF5 JUMP JUMPDEST DUP1 PUSH4 0x67AA05C2 GT PUSH2 0xD3 JUMPI DUP1 PUSH4 0x67AA05C2 EQ PUSH2 0x177 JUMPI DUP1 PUSH4 0x78BBAE9B EQ PUSH2 0x1A7 JUMPI DUP1 PUSH4 0x82E2FA24 EQ PUSH2 0x1D7 JUMPI DUP1 PUSH4 0x84F87758 EQ PUSH2 0x207 JUMPI PUSH2 0xF5 JUMP JUMPDEST DUP1 PUSH4 0x301D5E1 EQ PUSH2 0xFA JUMPI DUP1 PUSH4 0x3F2A25EC EQ PUSH2 0x12B JUMPI DUP1 PUSH4 0x4BCB91D2 EQ PUSH2 0x15B JUMPI JUMPDEST PUSH1 0x0 DUP1 REVERT JUMPDEST PUSH2 0x114 PUSH1 0x4 DUP1 CALLDATASIZE SUB DUP2 ADD SWAP1 PUSH2 0x10F SWAP2 SWAP1 PUSH2 0xC92 JUMP JUMPDEST PUSH2 0x3B9 JUMP JUMPDEST PUSH1 0x40 MLOAD PUSH2 0x122 SWAP3 SWAP2 SWAP1 PUSH2 0xD95 JUMP JUMPDEST PUSH1 0x40 MLOAD DUP1 SWAP2 SUB SWAP1 RETURN JUMPDEST PUSH2 0x145 PUSH1 0x4 DUP1 CALLDATASIZE SUB DUP2 ADD SWAP1 PUSH2 0x140 SWAP2 SWAP1 PUSH2 0xE59 JUMP JUMPDEST PUSH2 0x3D0 JUMP JUMPDEST PUSH1 0x40 MLOAD PUSH2 0x152 SWAP2 SWAP1 PUSH2 0xEC8 JUMP JUMPDEST PUSH1 0x40 MLOAD DUP1 SWAP2 SUB SWAP1 RETURN JUMPDEST PUSH2 0x175 PUSH1 0x4 DUP1 CALLDATASIZE SUB DUP2 ADD SWAP1 PUSH2 0x170 SWAP2 SWAP1 PUSH2 0xEEA JUMP JUMPDEST PUSH2 0x3F1 JUMP JUMPDEST STOP JUMPDEST PUSH2 0x191 PUSH1 0x4 DUP1 CALLDATASIZE SUB DUP2 ADD SWAP1 PUSH2 0x18C SWAP2 SWAP1 PUSH2 0xF46 JUMP JUMPDEST PUSH2 0x45D JUMP JUMPDEST PUSH1 0x40 MLOAD PUSH2 0x19E SWAP2 SWAP1 PUSH2 0xEC8 JUMP JUMPDEST PUSH1 0x40 MLOAD DUP1 SWAP2 SUB SWAP1 RETURN JUMPDEST PUSH2 0x1C1 PUSH1 0x4 DUP1 CALLDATASIZE SUB DUP2 ADD SWAP1 PUSH2 0x1BC SWAP2 SWAP1 PUSH2 0xFD1 JUMP JUMPDEST PUSH2 0x4AA JUMP JUMPDEST PUSH1 0x40 MLOAD PUSH2 0x1CE SWAP2 SWAP1 PUSH2 0xEC8 JUMP JUMPDEST PUSH1 0x40 MLOAD DUP1 SWAP2 SUB SWAP1 RETURN JUMPDEST PUSH2 0x1F1 PUSH1 0x4 DUP1 CALLDATASIZE SUB DUP2 ADD SWAP1 PUSH2 0x1EC SWAP2 SWAP1 PUSH2 0xEEA JUMP JUMPDEST PUSH2 0x518 JUMP JUMPDEST PUSH1 0x40 MLOAD PUSH2 0x1FE SWAP2 SWAP1 PUSH2 0x1063 JUMP JUMPDEST PUSH1 0x40 MLOAD DUP1 SWAP2 SUB SWAP1 RETURN JUMPDEST PUSH2 0x221 PUSH1 0x4 DUP1 CALLDATASIZE SUB DUP2 ADD SWAP1 PUSH2 0x21C SWAP2 SWAP1 PUSH2 0x10B4 JUMP JUMPDEST PUSH2 0x535 JUMP JUMPDEST PUSH1 0x40 MLOAD PUSH2 0x22E SWAP2 SWAP1 PUSH2 0xEC8 JUMP JUMPDEST PUSH1 0x40 MLOAD DUP1 SWAP2 SUB SWAP1 RETURN JUMPDEST PUSH2 0x251 PUSH1 0x4 DUP1 CALLDATASIZE SUB DUP2 ADD SWAP1 PUSH2 0x24C SWAP2 SWAP1 PUSH2 0x1123 JUMP JUMPDEST PUSH2 0x556 JUMP JUMPDEST PUSH1 0x40 MLOAD PUSH2 0x25F SWAP3 SWAP2 SWAP1 PUSH2 0x1192 JUMP JUMPDEST PUSH1 0x40 MLOAD DUP1 SWAP2 SUB SWAP1 RETURN JUMPDEST PUSH2 0x282 PUSH1 0x4 DUP1 CALLDATASIZE SUB DUP2 ADD SWAP1 PUSH2 0x27D SWAP2 SWAP1 PUSH2 0x11C9 JUMP JUMPDEST PUSH2 0x574 JUMP JUMPDEST PUSH1 0x40 MLOAD PUSH2 0x28F SWAP2 SWAP1 PUSH2 0x125C JUMP JUMPDEST PUSH1 0x40 MLOAD DUP1 SWAP2 SUB SWAP1 RETURN JUMPDEST PUSH2 0x2B2 PUSH1 0x4 DUP1 CALLDATASIZE SUB DUP2 ADD SWAP1 PUSH2 0x2AD SWAP2 SWAP1 PUSH2 0x1123 JUMP JUMPDEST PUSH2 0x5A5 JUMP JUMPDEST PUSH1 0x40 MLOAD PUSH2 0x2BF SWAP2 SWAP1 PUSH2 0xEC8 JUMP JUMPDEST PUSH1 0x40 MLOAD DUP1 SWAP2 SUB SWAP1 RETURN JUMPDEST PUSH2 0x2E2 PUSH1 0x4 DUP1 CALLDATASIZE SUB DUP2 ADD SWAP1 PUSH2 0x2DD SWAP2 SWAP1 PUSH2 0xEEA JUMP JUMPDEST PUSH2 0x5C6 JUMP JUMPDEST PUSH1 0x40 MLOAD PUSH2 0x2EF SWAP2 SWAP1 PUSH2 0x1286 JUMP JUMPDEST PUSH1 0x40 MLOAD DUP1 SWAP2 SUB SWAP1 RETURN JUMPDEST PUSH2 0x312 PUSH1 0x4 DUP1 CALLDATASIZE SUB DUP2 ADD SWAP1 PUSH2 0x30D SWAP2 SWAP1 PUSH2 0x1123 JUMP JUMPDEST PUSH2 0x5E3 JUMP JUMPDEST PUSH1 0x40 MLOAD PUSH2 0x320 SWAP3 SWAP2 SWAP1 PUSH2 0x1192 JUMP JUMPDEST PUSH1 0x40 MLOAD DUP1 SWAP2 SUB SWAP1 RETURN JUMPDEST PUSH2 0x343 PUSH1 0x4 DUP1 CALLDATASIZE SUB DUP2 ADD SWAP1 PUSH2 0x33E SWAP2 SWAP1 PUSH2 0xEEA JUMP JUMPDEST PUSH2 0x601 JUMP JUMPDEST PUSH1 0x40 MLOAD PUSH2 0x350 SWAP2 SWAP1 PUSH2 0x12DC JUMP JUMPDEST PUSH1 0x40 MLOAD DUP1 SWAP2 SUB SWAP1 RETURN JUMPDEST PUSH2 0x373 PUSH1 0x4 DUP1 CALLDATASIZE SUB DUP2 ADD SWAP1 PUSH2 0x36E SWAP2 SWAP1 PUSH2 0xEEA JUMP JUMPDEST PUSH2 0x61E JUMP JUMPDEST PUSH1 0x40 MLOAD PUSH2 0x380 SWAP2 SWAP1 PUSH2 0x1306 JUMP JUMPDEST PUSH1 0x40 MLOAD DUP1 SWAP2 SUB SWAP1 RETURN JUMPDEST PUSH2 0x3A3 PUSH1 0x4 DUP1 CALLDATASIZE SUB DUP2 ADD SWAP1 PUSH2 0x39E SWAP2 SWAP1 PUSH2 0x11C9 JUMP JUMPDEST PUSH2 0x63B JUMP JUMPDEST PUSH1 0x40 MLOAD PUSH2 0x3B0 SWAP2 SWAP1 PUSH2 0x125C JUMP JUMPDEST PUSH1 0x40 MLOAD DUP1 SWAP2 SUB SWAP1 RETURN JUMPDEST PUSH1 0x60 PUSH1 0x0 PUSH2 0x3C6 DUP4 PUSH2 0x658 JUMP JUMPDEST SWAP1 POP DUP3 SWAP2 POP SWAP2 POP SWAP2 JUMP JUMPDEST PUSH1 0x60 PUSH2 0x3E7 DUP4 DUP4 DUP7 PUSH2 0x6B4 SWAP1 SWAP3 SWAP2 SWAP1 PUSH4 0xFFFFFFFF AND JUMP JUMPDEST DUP4 SWAP1 POP SWAP4 SWAP3 POP POP POP JUMP JUMPDEST PUSH1 0x0 DUP3 MLOAD SWAP1 POP PUSH1 0x0 PUSH2 0x40F PUSH1 0x0 DUP4 DUP7 PUSH2 0x746 SWAP1 SWAP3 SWAP2 SWAP1 PUSH4 0xFFFFFFFF AND JUMP JUMPDEST SWAP1 POP PUSH2 0x424 DUP4 DUP6 PUSH2 0x80C SWAP1 SWAP2 SWAP1 PUSH4 0xFFFFFFFF AND JUMP JUMPDEST PUSH2 0x437 DUP3 DUP6 PUSH2 0x80C SWAP1 SWAP2 SWAP1 PUSH4 0xFFFFFFFF AND JUMP JUMPDEST PUSH2 0x44A DUP2 DUP6 PUSH2 0x813 SWAP1 SWAP2 SWAP1 PUSH4 0xFFFFFFFF AND JUMP JUMPDEST PUSH2 0x457 JUMPI PUSH2 0x456 PUSH2 0x1321 JUMP JUMPDEST JUMPDEST POP POP POP POP JUMP JUMPDEST PUSH1 0x60 PUSH1 0x0 DUP5 MLOAD PUSH2 0x46C DUP7 PUSH2 0x82E JUMP JUMPDEST PUSH2 0x476 SWAP2 SWAP1 PUSH2 0x137F JUMP JUMPDEST SWAP1 POP PUSH2 0x48C DUP2 PUSH2 0x485 DUP6 PUSH2 0x82E JUMP JUMPDEST DUP6 MLOAD PUSH2 0x83B JUMP JUMPDEST PUSH2 0x49F DUP5 DUP7 PUSH2 0x80C SWAP1 SWAP2 SWAP1 PUSH4 0xFFFFFFFF AND JUMP JUMPDEST DUP5 SWAP2 POP POP SWAP4 SWAP3 POP POP POP JUMP JUMPDEST PUSH1 0x60 DUP5 MLOAD DUP3 DUP5 PUSH2 0x4BA SWAP2 SWAP1 PUSH2 0x137F JUMP JUMPDEST GT ISZERO PUSH2 0x4C5 JUMPI PUSH1 0x0 DUP1 REVERT JUMPDEST DUP5 MLOAD DUP3 DUP6 PUSH2 0x4D3 SWAP2 SWAP1 PUSH2 0x137F JUMP JUMPDEST GT ISZERO PUSH2 0x4DE JUMPI PUSH1 0x0 DUP1 REVERT JUMPDEST PUSH1 0x0 PUSH2 0x4E9 DUP7 PUSH2 0x82E JUMP JUMPDEST SWAP1 POP PUSH2 0x50C DUP6 DUP3 PUSH2 0x4FA SWAP2 SWAP1 PUSH2 0x137F JUMP JUMPDEST DUP6 DUP4 PUSH2 0x506 SWAP2 SWAP1 PUSH2 0x137F JUMP JUMPDEST DUP6 PUSH2 0x83B JUMP JUMPDEST DUP6 SWAP2 POP POP SWAP5 SWAP4 POP POP POP POP JUMP JUMPDEST PUSH1 0x0 PUSH2 0x52D DUP3 DUP5 PUSH2 0x8E6 SWAP1 SWAP2 SWAP1 PUSH4 0xFFFFFFFF AND JUMP JUMPDEST SWAP1 POP SWAP3 SWAP2 POP POP JUMP JUMPDEST PUSH1 0x60 PUSH2 0x54C DUP4 DUP4 DUP7 PUSH2 0x93A SWAP1 SWAP3 SWAP2 SWAP1 PUSH4 0xFFFFFFFF AND JUMP JUMPDEST DUP4 SWAP1 POP SWAP4 SWAP3 POP POP POP JUMP JUMPDEST PUSH1 0x60 DUP1 PUSH2 0x564 DUP6 DUP6 DUP6 PUSH2 0x746 JUMP JUMPDEST SWAP2 POP DUP2 DUP6 SWAP2 POP SWAP2 POP SWAP4 POP SWAP4 SWAP2 POP POP JUMP JUMPDEST PUSH1 0x0 PUSH2 0x57F DUP4 PUSH2 0x658 JUMP JUMPDEST POP PUSH2 0x589 DUP3 PUSH2 0x658 JUMP JUMPDEST POP PUSH2 0x59D DUP3 DUP5 PUSH2 0x813 SWAP1 SWAP2 SWAP1 PUSH4 0xFFFFFFFF AND JUMP JUMPDEST SWAP1 POP SWAP3 SWAP2 POP POP JUMP JUMPDEST PUSH1 0x60 PUSH2 0x5BC DUP4 DUP4 DUP7 PUSH2 0x98A SWAP1 SWAP3 SWAP2 SWAP1 PUSH4 0xFFFFFFFF AND JUMP JUMPDEST DUP4 SWAP1 POP SWAP4 SWAP3 POP POP POP JUMP JUMPDEST PUSH1 0x0 PUSH2 0x5DB DUP3 DUP5 PUSH2 0x99D SWAP1 SWAP2 SWAP1 PUSH4 0xFFFFFFFF AND JUMP JUMPDEST SWAP1 POP SWAP3 SWAP2 POP POP JUMP JUMPDEST PUSH1 0x60 DUP1 PUSH2 0x5F1 DUP6 DUP6 DUP6 PUSH2 0x9F1 JUMP JUMPDEST SWAP2 POP DUP2 DUP6 SWAP2 POP SWAP2 POP SWAP4 POP SWAP4 SWAP2 POP POP JUMP JUMPDEST PUSH1 0x0 PUSH2 0x616 DUP3 DUP5 PUSH2 0xA40 SWAP1 SWAP2 SWAP1 PUSH4 0xFFFFFFFF AND JUMP JUMPDEST SWAP1 POP SWAP3 SWAP2 POP POP JUMP JUMPDEST PUSH1 0x0 PUSH2 0x633 DUP3 DUP5 PUSH2 0xA94 SWAP1 SWAP2 SWAP1 PUSH4 0xFFFFFFFF AND JUMP JUMPDEST SWAP1 POP SWAP3 SWAP2 POP POP JUMP JUMPDEST PUSH1 0x0 PUSH2 0x650 DUP3 DUP5 PUSH2 0x813 SWAP1 SWAP2 SWAP1 PUSH4 0xFFFFFFFF AND JUMP JUMPDEST SWAP1 POP SWAP3 SWAP2 POP POP JUMP JUMPDEST PUSH1 0x0 DUP1 DUP3 MLOAD SUB PUSH2 0x679 JUMPI PUSH2 0x678 PUSH2 0x673 PUSH1 0x2 DUP5 MLOAD PUSH1 0x0 PUSH2 0xAAB JUMP JUMPDEST PUSH2 0xB30 JUMP JUMPDEST JUMPDEST DUP2 PUSH1 0x1 DUP4 MLOAD PUSH2 0x688 SWAP2 SWAP1 PUSH2 0x13B3 JUMP JUMPDEST DUP2 MLOAD DUP2 LT PUSH2 0x699 JUMPI PUSH2 0x698 PUSH2 0x13E7 JUMP JUMPDEST JUMPDEST PUSH1 0x20 ADD ADD MLOAD PUSH1 0xF8 SHR PUSH1 0xF8 SHL SWAP1 POP PUSH1 0x1 DUP3 MLOAD SUB DUP1 DUP4 MSTORE POP SWAP2 SWAP1 POP JUMP JUMPDEST PUSH1 0x14 DUP3 PUSH2 0x6C1 SWAP2 SWAP1 PUSH2 0x137F JUMP JUMPDEST DUP4 MLOAD LT ISZERO PUSH2 0x6EB JUMPI PUSH2 0x6EA PUSH2 0x6E5 PUSH1 0x4 DUP6 MLOAD PUSH1 0x14 DUP7 PUSH2 0x6E0 SWAP2 SWAP1 PUSH2 0x137F JUMP JUMPDEST PUSH2 0xAAB JUMP JUMPDEST PUSH2 0xB30 JUMP JUMPDEST JUMPDEST PUSH1 0x14 DUP3 PUSH2 0x6F8 SWAP2 SWAP1 PUSH2 0x137F JUMP JUMPDEST SWAP2 POP PUSH32 0xFFFFFFFFFFFFFFFFFFFFFFFF0000000000000000000000000000000000000000 DUP3 DUP5 ADD MLOAD AND PUSH20 0xFFFFFFFFFFFFFFFFFFFFFFFFFFFFFFFFFFFFFFFF DUP3 AND SWAP2 POP DUP1 DUP3 XOR DUP4 DUP6 ADD MSTORE POP POP POP POP JUMP JUMPDEST PUSH1 0x60 DUP2 DUP4 GT ISZERO PUSH2 0x765 JUMPI PUSH2 0x764 PUSH2 0x75F PUSH1 0x0 DUP6 DUP6 PUSH2 0xAAB JUMP JUMPDEST PUSH2 0xB30 JUMP JUMPDEST JUMPDEST DUP4 MLOAD DUP3 GT ISZERO PUSH2 0x784 JUMPI PUSH2 0x783 PUSH2 0x77E PUSH1 0x1 DUP5 DUP8 MLOAD PUSH2 0xAAB JUMP JUMPDEST PUSH2 0xB30 JUMP JUMPDEST JUMPDEST DUP3 DUP3 PUSH2 0x790 SWAP2 SWAP1 PUSH2 0x13B3 JUMP JUMPDEST PUSH8 0xFFFFFFFFFFFFFFFF DUP2 GT ISZERO PUSH2 0x7A9 JUMPI PUSH2 0x7A8 PUSH2 0xB67 JUMP JUMPDEST JUMPDEST PUSH1 0x40 MLOAD SWAP1 DUP1 DUP3 MSTORE DUP1 PUSH1 0x1F ADD PUSH1 0x1F NOT AND PUSH1 0x20 ADD DUP3 ADD PUSH1 0x40 MSTORE DUP1 ISZERO PUSH2 0x7DB JUMPI DUP2 PUSH1 0x20 ADD PUSH1 0x1 DUP3 MUL DUP1 CALLDATASIZE DUP4 CALLDATACOPY DUP1 DUP3 ADD SWAP2 POP POP SWAP1 POP JUMPDEST POP SWAP1 POP PUSH2 0x805 PUSH2 0x7EA DUP3 PUSH2 0x82E JUMP JUMPDEST DUP5 PUSH2 0x7F4 DUP8 PUSH2 0x82E JUMP JUMPDEST PUSH2 0x7FE SWAP2 SWAP1 PUSH2 0x137F JUMP JUMPDEST DUP4 MLOAD PUSH2 0x83B JUMP JUMPDEST SWAP4 SWAP3 POP POP POP JUMP JUMPDEST DUP1 DUP3 MSTORE POP POP JUMP JUMPDEST PUSH1 0x0 DUP2 DUP1 MLOAD SWAP1 PUSH1 0x20 ADD KECCAK256 DUP4 DUP1 MLOAD SWAP1 PUSH1 0x20 ADD KECCAK256 EQ SWAP1 POP SWAP3 SWAP2 POP POP JUMP JUMPDEST PUSH1 0x0 PUSH1 0x20 DUP3 ADD SWAP1 POP SWAP2 SWAP1 POP JUMP JUMPDEST PUSH1 0x20 DUP2 LT ISZERO PUSH2 0x865 JUMPI PUSH1 0x1 DUP2 PUSH1 0x20 SUB PUSH2 0x100 EXP SUB DUP1 NOT DUP4 MLOAD AND DUP2 DUP6 MLOAD AND DUP1 DUP3 OR DUP7 MSTORE POP POP POP PUSH2 0x8E0 JUMP JUMPDEST DUP3 DUP3 SUB ISZERO PUSH2 0x8E1 JUMPI DUP3 DUP3 GT ISZERO PUSH2 0x8AC JUMPI PUSH1 0x20 DUP2 SUB SWAP1 POP DUP1 DUP3 ADD DUP2 DUP5 ADD DUP2 MLOAD JUMPDEST DUP3 DUP6 LT ISZERO PUSH2 0x8A1 JUMPI DUP5 MLOAD DUP7 MSTORE PUSH1 0x20 DUP6 ADD SWAP5 POP PUSH1 0x20 DUP7 ADD SWAP6 POP PUSH2 0x884 JUMP JUMPDEST DUP1 DUP3 MSTORE POP POP POP PUSH2 0x8DF JUMP JUMPDEST PUSH1 0x20 DUP2 SUB SWAP1 POP DUP1 DUP3 ADD DUP2 DUP5 ADD DUP4 MLOAD JUMPDEST DUP2 DUP7 SLT ISZERO PUSH2 0x8D8 JUMPI DUP3 MLOAD DUP3 MSTORE PUSH1 0x20 DUP4 SUB SWAP3 POP PUSH1 0x20 DUP3 SUB SWAP2 POP PUSH2 0x8BB JUMP JUMPDEST DUP1 DUP7 MSTORE POP POP POP JUMPDEST JUMPDEST JUMPDEST POP POP POP JUMP JUMPDEST PUSH1 0x0 PUSH1 0x14 DUP3 PUSH2 0x8F5 SWAP2 SWAP1 PUSH2 0x137F JUMP JUMPDEST DUP4 MLOAD LT ISZERO PUSH2 0x91F JUMPI PUSH2 0x91E PUSH2 0x919 PUSH1 0x4 DUP6 MLOAD PUSH1 0x14 DUP7 PUSH2 0x914 SWAP2 SWAP1 PUSH2 0x137F JUMP JUMPDEST PUSH2 0xAAB JUMP JUMPDEST PUSH2 0xB30 JUMP JUMPDEST JUMPDEST PUSH1 0x14 DUP3 PUSH2 0x92C SWAP2 SWAP1 PUSH2 0x137F JUMP JUMPDEST SWAP2 POP DUP2 DUP4 ADD MLOAD SWAP1 POP SWAP3 SWAP2 POP POP JUMP JUMPDEST PUSH1 0x20 DUP3 PUSH2 0x947 SWAP2 SWAP1 PUSH2 0x137F JUMP JUMPDEST DUP4 MLOAD LT ISZERO PUSH2 0x971 JUMPI PUSH2 0x970 PUSH2 0x96B PUSH1 0x5 DUP6 MLOAD PUSH1 0x20 DUP7 PUSH2 0x966 SWAP2 SWAP1 PUSH2 0x137F JUMP JUMPDEST PUSH2 0xAAB JUMP JUMPDEST PUSH2 0xB30 JUMP JUMPDEST JUMPDEST PUSH1 0x20 DUP3 PUSH2 0x97E SWAP2 SWAP1 PUSH2 0x137F JUMP JUMPDEST SWAP2 POP DUP1 DUP3 DUP5 ADD MSTORE POP POP POP JUMP JUMPDEST PUSH2 0x998 DUP4 DUP4 DUP4 PUSH1 0x0 SHL PUSH2 0x93A JUMP JUMPDEST POP POP POP JUMP JUMPDEST PUSH1 0x0 PUSH1 0x20 DUP3 PUSH2 0x9AC SWAP2 SWAP1 PUSH2 0x137F JUMP JUMPDEST DUP4 MLOAD LT ISZERO PUSH2 0x9D6 JUMPI PUSH2 0x9D5 PUSH2 0x9D0 PUSH1 0x5 DUP6 MLOAD PUSH1 0x20 DUP7 PUSH2 0x9CB SWAP2 SWAP1 PUSH2 0x137F JUMP JUMPDEST PUSH2 0xAAB JUMP JUMPDEST PUSH2 0xB30 JUMP JUMPDEST JUMPDEST PUSH1 0x20 DUP3 PUSH2 0x9E3 SWAP2 SWAP1 PUSH2 0x137F JUMP JUMPDEST SWAP2 POP DUP2 DUP4 ADD MLOAD SWAP1 POP SWAP3 SWAP2 POP POP JUMP JUMPDEST PUSH1 0x60 DUP2 DUP4 GT ISZERO PUSH2 0xA10 JUMPI PUSH2 0xA0F PUSH2 0xA0A PUSH1 0x0 DUP6 DUP6 PUSH2 0xAAB JUMP JUMPDEST PUSH2 0xB30 JUMP JUMPDEST JUMPDEST DUP4 MLOAD DUP3 GT ISZERO PUSH2 0xA2F JUMPI PUSH2 0xA2E PUSH2 0xA29 PUSH1 0x1 DUP5 DUP8 MLOAD PUSH2 0xAAB JUMP JUMPDEST PUSH2 0xB30 JUMP JUMPDEST JUMPDEST DUP3 DUP5 ADD SWAP1 POP DUP3 DUP3 SUB DUP2 MSTORE SWAP4 SWAP3 POP POP POP JUMP JUMPDEST PUSH1 0x0 PUSH1 0x4 DUP3 PUSH2 0xA4F SWAP2 SWAP1 PUSH2 0x137F JUMP JUMPDEST DUP4 MLOAD LT ISZERO PUSH2 0xA79 JUMPI PUSH2 0xA78 PUSH2 0xA73 PUSH1 0x3 DUP6 MLOAD PUSH1 0x4 DUP7 PUSH2 0xA6E SWAP2 SWAP1 PUSH2 0x137F JUMP JUMPDEST PUSH2 0xAAB JUMP JUMPDEST PUSH2 0xB30 JUMP JUMPDEST JUMPDEST PUSH1 0x20 DUP3 PUSH2 0xA86 SWAP2 SWAP1 PUSH2 0x137F JUMP JUMPDEST SWAP2 POP DUP2 DUP4 ADD MLOAD SWAP1 POP SWAP3 SWAP2 POP POP JUMP JUMPDEST PUSH1 0x0 PUSH2 0xAA0 DUP4 DUP4 PUSH2 0x99D JUMP JUMPDEST PUSH1 0x0 SHR SWAP1 POP SWAP3 SWAP2 POP POP JUMP JUMPDEST PUSH1 0x60 PUSH4 0x28006595 PUSH1 0xE0 SHL DUP5 DUP5 DUP5 PUSH1 0x40 MLOAD PUSH1 0x24 ADD PUSH2 0xACA SWAP4 SWAP3 SWAP2 SWAP1 PUSH2 0x148D JUMP JUMPDEST PUSH1 0x40 MLOAD PUSH1 0x20 DUP2 DUP4 SUB SUB DUP2 MSTORE SWAP1 PUSH1 0x40 MSTORE SWAP1 PUSH28 0xFFFFFFFFFFFFFFFFFFFFFFFFFFFFFFFFFFFFFFFFFFFFFFFFFFFFFFFF NOT AND PUSH1 0x20 DUP3 ADD DUP1 MLOAD PUSH28 0xFFFFFFFFFFFFFFFFFFFFFFFFFFFFFFFFFFFFFFFFFFFFFFFFFFFFFFFF DUP4 DUP2 DUP4 AND OR DUP4 MSTORE POP POP POP POP SWAP1 POP SWAP4 SWAP3 POP POP POP JUMP JUMPDEST DUP1 MLOAD PUSH1 0x20 DUP3 ADD REVERT JUMPDEST PUSH1 0x0 PUSH1 0x40 MLOAD SWAP1 POP SWAP1 JUMP JUMPDEST PUSH1 0x0 DUP1 REVERT JUMPDEST PUSH1 0x0 DUP1 REVERT JUMPDEST PUSH1 0x0 DUP1 REVERT JUMPDEST PUSH1 0x0 DUP1 REVERT JUMPDEST PUSH1 0x0 PUSH1 0x1F NOT PUSH1 0x1F DUP4 ADD AND SWAP1 POP SWAP2 SWAP1 POP JUMP JUMPDEST PUSH32 0x4E487B7100000000000000000000000000000000000000000000000000000000 PUSH1 0x0 MSTORE PUSH1 0x41 PUSH1 0x4 MSTORE PUSH1 0x24 PUSH1 0x0 REVERT JUMPDEST PUSH2 0xB9F DUP3 PUSH2 0xB56 JUMP JUMPDEST DUP2 ADD DUP2 DUP2 LT PUSH8 0xFFFFFFFFFFFFFFFF DUP3 GT OR ISZERO PUSH2 0xBBE JUMPI PUSH2 0xBBD PUSH2 0xB67 JUMP JUMPDEST JUMPDEST DUP1 PUSH1 0x40 MSTORE POP POP POP JUMP JUMPDEST PUSH1 0x0 PUSH2 0xBD1 PUSH2 0xB38 JUMP JUMPDEST SWAP1 POP PUSH2 0xBDD DUP3 DUP3 PUSH2 0xB96 JUMP JUMPDEST SWAP2 SWAP1 POP JUMP JUMPDEST PUSH1 0x0 PUSH8 0xFFFFFFFFFFFFFFFF DUP3 GT ISZERO PUSH2 0xBFD JUMPI PUSH2 0xBFC PUSH2 0xB67 JUMP JUMPDEST JUMPDEST PUSH2 0xC06 DUP3 PUSH2 0xB56 JUMP JUMPDEST SWAP1 POP PUSH1 0x20 DUP2 ADD SWAP1 POP SWAP2 SWAP1 POP JUMP JUMPDEST DUP3 DUP2 DUP4 CALLDATACOPY PUSH1 0x0 DUP4 DUP4 ADD MSTORE POP POP POP JUMP JUMPDEST PUSH1 0x0 PUSH2 0xC35 PUSH2 0xC30 DUP5 PUSH2 0xBE2 JUMP JUMPDEST PUSH2 0xBC7 JUMP JUMPDEST SWAP1 POP DUP3 DUP2 MSTORE PUSH1 0x20 DUP2 ADD DUP5 DUP5 DUP5 ADD GT ISZERO PUSH2 0xC51 JUMPI PUSH2 0xC50 PUSH2 0xB51 JUMP JUMPDEST JUMPDEST PUSH2 0xC5C DUP5 DUP3 DUP6 PUSH2 0xC13 JUMP JUMPDEST POP SWAP4 SWAP3 POP POP POP JUMP JUMPDEST PUSH1 0x0 DUP3 PUSH1 0x1F DUP4 ADD SLT PUSH2 0xC79 JUMPI PUSH2 0xC78 PUSH2 0xB4C JUMP JUMPDEST JUMPDEST DUP2 CALLDATALOAD PUSH2 0xC89 DUP5 DUP3 PUSH1 0x20 DUP7 ADD PUSH2 0xC22 JUMP JUMPDEST SWAP2 POP POP SWAP3 SWAP2 POP POP JUMP JUMPDEST PUSH1 0x0 PUSH1 0x20 DUP3 DUP5 SUB SLT ISZERO PUSH2 0xCA8 JUMPI PUSH2 0xCA7 PUSH2 0xB42 JUMP JUMPDEST JUMPDEST PUSH1 0x0 DUP3 ADD CALLDATALOAD PUSH8 0xFFFFFFFFFFFFFFFF DUP2 GT ISZERO PUSH2 0xCC6 JUMPI PUSH2 0xCC5 PUSH2 0xB47 JUMP JUMPDEST JUMPDEST PUSH2 0xCD2 DUP5 DUP3 DUP6 ADD PUSH2 0xC64 JUMP JUMPDEST SWAP2 POP POP SWAP3 SWAP2 POP POP JUMP JUMPDEST PUSH1 0x0 DUP2 MLOAD SWAP1 POP SWAP2 SWAP1 POP JUMP JUMPDEST PUSH1 0x0 DUP3 DUP3 MSTORE PUSH1 0x20 DUP3 ADD SWAP1 POP SWAP3 SWAP2 POP POP JUMP JUMPDEST PUSH1 0x0 JUMPDEST DUP4 DUP2 LT ISZERO PUSH2 0xD15 JUMPI DUP1 DUP3 ADD MLOAD DUP2 DUP5 ADD MSTORE PUSH1 0x20 DUP2 ADD SWAP1 POP PUSH2 0xCFA JUMP JUMPDEST PUSH1 0x0 DUP5 DUP5 ADD MSTORE POP POP POP POP JUMP JUMPDEST PUSH1 0x0 PUSH2 0xD2C DUP3 PUSH2 0xCDB JUMP JUMPDEST PUSH2 0xD36 DUP2 DUP6 PUSH2 0xCE6 JUMP JUMPDEST SWAP4 POP PUSH2 0xD46 DUP2 DUP6 PUSH1 0x20 DUP7 ADD PUSH2 0xCF7 JUMP JUMPDEST PUSH2 0xD4F DUP2 PUSH2 0xB56 JUMP JUMPDEST DUP5 ADD SWAP2 POP POP SWAP3 SWAP2 POP POP JUMP JUMPDEST PUSH1 0x0 PUSH32 0xFF00000000000000000000000000000000000000000000000000000000000000 DUP3 AND SWAP1 POP SWAP2 SWAP1 POP JUMP JUMPDEST PUSH2 0xD8F DUP2 PUSH2 0xD5A JUMP JUMPDEST DUP3 MSTORE POP POP JUMP JUMPDEST PUSH1 0x0 PUSH1 0x40 DUP3 ADD SWAP1 POP DUP2 DUP2 SUB PUSH1 0x0 DUP4 ADD MSTORE PUSH2 0xDAF DUP2 DUP6 PUSH2 0xD21 JUMP JUMPDEST SWAP1 POP PUSH2 0xDBE PUSH1 0x20 DUP4 ADD DUP5 PUSH2 0xD86 JUMP JUMPDEST SWAP4 SWAP3 POP POP POP JUMP JUMPDEST PUSH1 0x0 DUP2 SWAP1 POP SWAP2 SWAP1 POP JUMP JUMPDEST PUSH2 0xDD8 DUP2 PUSH2 0xDC5 JUMP JUMPDEST DUP2 EQ PUSH2 0xDE3 JUMPI PUSH1 0x0 DUP1 REVERT JUMPDEST POP JUMP JUMPDEST PUSH1 0x0 DUP2 CALLDATALOAD SWAP1 POP PUSH2 0xDF5 DUP2 PUSH2 0xDCF JUMP JUMPDEST SWAP3 SWAP2 POP POP JUMP JUMPDEST PUSH1 0x0 PUSH20 0xFFFFFFFFFFFFFFFFFFFFFFFFFFFFFFFFFFFFFFFF DUP3 AND SWAP1 POP SWAP2 SWAP1 POP JUMP JUMPDEST PUSH1 0x0 PUSH2 0xE26 DUP3 PUSH2 0xDFB JUMP JUMPDEST SWAP1 POP SWAP2 SWAP1 POP JUMP JUMPDEST PUSH2 0xE36 DUP2 PUSH2 0xE1B JUMP JUMPDEST DUP2 EQ PUSH2 0xE41 JUMPI PUSH1 0x0 DUP1 REVERT JUMPDEST POP JUMP JUMPDEST PUSH1 0x0 DUP2 CALLDATALOAD SWAP1 POP PUSH2 0xE53 DUP2 PUSH2 0xE2D JUMP JUMPDEST SWAP3 SWAP2 POP POP JUMP JUMPDEST PUSH1 0x0 DUP1 PUSH1 0x0 PUSH1 0x60 DUP5 DUP7 SUB SLT ISZERO PUSH2 0xE72 JUMPI PUSH2 0xE71 PUSH2 0xB42 JUMP JUMPDEST JUMPDEST PUSH1 0x0 DUP5 ADD CALLDATALOAD PUSH8 0xFFFFFFFFFFFFFFFF DUP2 GT ISZERO PUSH2 0xE90 JUMPI PUSH2 0xE8F PUSH2 0xB47 JUMP JUMPDEST JUMPDEST PUSH2 0xE9C DUP7 DUP3 DUP8 ADD PUSH2 0xC64 JUMP JUMPDEST SWAP4 POP POP PUSH1 0x20 PUSH2 0xEAD DUP7 DUP3 DUP8 ADD PUSH2 0xDE6 JUMP JUMPDEST SWAP3 POP POP PUSH1 0x40 PUSH2 0xEBE DUP7 DUP3 DUP8 ADD PUSH2 0xE44 JUMP JUMPDEST SWAP2 POP POP SWAP3 POP SWAP3 POP SWAP3 JUMP JUMPDEST PUSH1 0x0 PUSH1 0x20 DUP3 ADD SWAP1 POP DUP2 DUP2 SUB PUSH1 0x0 DUP4 ADD MSTORE PUSH2 0xEE2 DUP2 DUP5 PUSH2 0xD21 JUMP JUMPDEST SWAP1 POP SWAP3 SWAP2 POP POP JUMP JUMPDEST PUSH1 0x0 DUP1 PUSH1 0x40 DUP4 DUP6 SUB SLT ISZERO PUSH2 0xF01 JUMPI PUSH2 0xF00 PUSH2 0xB42 JUMP JUMPDEST JUMPDEST PUSH1 0x0 DUP4 ADD CALLDATALOAD PUSH8 0xFFFFFFFFFFFFFFFF DUP2 GT ISZERO PUSH2 0xF1F JUMPI PUSH2 0xF1E PUSH2 0xB47 JUMP JUMPDEST JUMPDEST PUSH2 0xF2B DUP6 DUP3 DUP7 ADD PUSH2 0xC64 JUMP JUMPDEST SWAP3 POP POP PUSH1 0x20 PUSH2 0xF3C DUP6 DUP3 DUP7 ADD PUSH2 0xDE6 JUMP JUMPDEST SWAP2 POP POP SWAP3 POP SWAP3 SWAP1 POP JUMP JUMPDEST PUSH1 0x0 DUP1 PUSH1 0x0 PUSH1 0x60 DUP5 DUP7 SUB SLT ISZERO PUSH2 0xF5F JUMPI PUSH2 0xF5E PUSH2 0xB42 JUMP JUMPDEST JUMPDEST PUSH1 0x0 DUP5 ADD CALLDATALOAD PUSH8 0xFFFFFFFFFFFFFFFF DUP2 GT ISZERO PUSH2 0xF7D JUMPI PUSH2 0xF7C PUSH2 0xB47 JUMP JUMPDEST JUMPDEST PUSH2 0xF89 DUP7 DUP3 DUP8 ADD PUSH2 0xC64 JUMP JUMPDEST SWAP4 POP POP PUSH1 0x20 PUSH2 0xF9A DUP7 DUP3 DUP8 ADD PUSH2 0xDE6 JUMP JUMPDEST SWAP3 POP POP PUSH1 0x40 DUP5 ADD CALLDATALOAD PUSH8 0xFFFFFFFFFFFFFFFF DUP2 GT ISZERO PUSH2 0xFBB JUMPI PUSH2 0xFBA PUSH2 0xB47 JUMP JUMPDEST JUMPDEST PUSH2 0xFC7 DUP7 DUP3 DUP8 ADD PUSH2 0xC64 JUMP JUMPDEST SWAP2 POP POP SWAP3 POP SWAP3 POP SWAP3 JUMP JUMPDEST PUSH1 0x0 DUP1 PUSH1 0x0 DUP1 PUSH1 0x80 DUP6 DUP8 SUB SLT ISZERO PUSH2 0xFEB JUMPI PUSH2 0xFEA PUSH2 0xB42 JUMP JUMPDEST JUMPDEST PUSH1 0x0 DUP6 ADD CALLDATALOAD PUSH8 0xFFFFFFFFFFFFFFFF DUP2 GT ISZERO PUSH2 0x1009 JUMPI PUSH2 0x1008 PUSH2 0xB47 JUMP JUMPDEST JUMPDEST PUSH2 0x1015 DUP8 DUP3 DUP9 ADD PUSH2 0xC64 JUMP JUMPDEST SWAP5 POP POP PUSH1 0x20 PUSH2 0x1026 DUP8 DUP3 DUP9 ADD PUSH2 0xDE6 JUMP JUMPDEST SWAP4 POP POP PUSH1 0x40 PUSH2 0x1037 DUP8 DUP3 DUP9 ADD PUSH2 0xDE6 JUMP JUMPDEST SWAP3 POP POP PUSH1 0x60 PUSH2 0x1048 DUP8 DUP3 DUP9 ADD PUSH2 0xDE6 JUMP JUMPDEST SWAP2 POP POP SWAP3 SWAP6 SWAP2 SWAP5 POP SWAP3 POP JUMP JUMPDEST PUSH2 0x105D DUP2 PUSH2 0xE1B JUMP JUMPDEST DUP3 MSTORE POP POP JUMP JUMPDEST PUSH1 0x0 PUSH1 0x20 DUP3 ADD SWAP1 POP PUSH2 0x1078 PUSH1 0x0 DUP4 ADD DUP5 PUSH2 0x1054 JUMP JUMPDEST SWAP3 SWAP2 POP POP JUMP JUMPDEST PUSH1 0x0 DUP2 SWAP1 POP SWAP2 SWAP1 POP JUMP JUMPDEST PUSH2 0x1091 DUP2 PUSH2 0x107E JUMP JUMPDEST DUP2 EQ PUSH2 0x109C JUMPI PUSH1 0x0 DUP1 REVERT JUMPDEST POP JUMP JUMPDEST PUSH1 0x0 DUP2 CALLDATALOAD SWAP1 POP PUSH2 0x10AE DUP2 PUSH2 0x1088 JUMP JUMPDEST SWAP3 SWAP2 POP POP JUMP JUMPDEST PUSH1 0x0 DUP1 PUSH1 0x0 PUSH1 0x60 DUP5 DUP7 SUB SLT ISZERO PUSH2 0x10CD JUMPI PUSH2 0x10CC PUSH2 0xB42 JUMP JUMPDEST JUMPDEST PUSH1 0x0 DUP5 ADD CALLDATALOAD PUSH8 0xFFFFFFFFFFFFFFFF DUP2 GT ISZERO PUSH2 0x10EB JUMPI PUSH2 0x10EA PUSH2 0xB47 JUMP JUMPDEST JUMPDEST PUSH2 0x10F7 DUP7 DUP3 DUP8 ADD PUSH2 0xC64 JUMP JUMPDEST SWAP4 POP POP PUSH1 0x20 PUSH2 0x1108 DUP7 DUP3 DUP8 ADD PUSH2 0xDE6 JUMP JUMPDEST SWAP3 POP POP PUSH1 0x40 PUSH2 0x1119 DUP7 DUP3 DUP8 ADD PUSH2 0x109F JUMP JUMPDEST SWAP2 POP POP SWAP3 POP SWAP3 POP SWAP3 JUMP JUMPDEST PUSH1 0x0 DUP1 PUSH1 0x0 PUSH1 0x60 DUP5 DUP7 SUB SLT ISZERO PUSH2 0x113C JUMPI PUSH2 0x113B PUSH2 0xB42 JUMP JUMPDEST JUMPDEST PUSH1 0x0 DUP5 ADD CALLDATALOAD PUSH8 0xFFFFFFFFFFFFFFFF DUP2 GT ISZERO PUSH2 0x115A JUMPI PUSH2 0x1159 PUSH2 0xB47 JUMP JUMPDEST JUMPDEST PUSH2 0x1166 DUP7 DUP3 DUP8 ADD PUSH2 0xC64 JUMP JUMPDEST SWAP4 POP POP PUSH1 0x20 PUSH2 0x1177 DUP7 DUP3 DUP8 ADD PUSH2 0xDE6 JUMP JUMPDEST SWAP3 POP POP PUSH1 0x40 PUSH2 0x1188 DUP7 DUP3 DUP8 ADD PUSH2 0xDE6 JUMP JUMPDEST SWAP2 POP POP SWAP3 POP SWAP3 POP SWAP3 JUMP JUMPDEST PUSH1 0x0 PUSH1 0x40 DUP3 ADD SWAP1 POP DUP2 DUP2 SUB PUSH1 0x0 DUP4 ADD MSTORE PUSH2 0x11AC DUP2 DUP6 PUSH2 0xD21 JUMP JUMPDEST SWAP1 POP DUP2 DUP2 SUB PUSH1 0x20 DUP4 ADD MSTORE PUSH2 0x11C0 DUP2 DUP5 PUSH2 0xD21 JUMP JUMPDEST SWAP1 POP SWAP4 SWAP3 POP POP POP JUMP JUMPDEST PUSH1 0x0 DUP1 PUSH1 0x40 DUP4 DUP6 SUB SLT ISZERO PUSH2 0x11E0 JUMPI PUSH2 0x11DF PUSH2 0xB42 JUMP JUMPDEST JUMPDEST PUSH1 0x0 DUP4 ADD CALLDATALOAD PUSH8 0xFFFFFFFFFFFFFFFF DUP2 GT ISZERO PUSH2 0x11FE JUMPI PUSH2 0x11FD PUSH2 0xB47 JUMP JUMPDEST JUMPDEST PUSH2 0x120A DUP6 DUP3 DUP7 ADD PUSH2 0xC64 JUMP JUMPDEST SWAP3 POP POP PUSH1 0x20 DUP4 ADD CALLDATALOAD PUSH8 0xFFFFFFFFFFFFFFFF DUP2 GT ISZERO PUSH2 0x122B JUMPI PUSH2 0x122A PUSH2 0xB47 JUMP JUMPDEST JUMPDEST PUSH2 0x1237 DUP6 DUP3 DUP7 ADD PUSH2 0xC64 JUMP JUMPDEST SWAP2 POP POP SWAP3 POP SWAP3 SWAP1 POP JUMP JUMPDEST PUSH1 0x0 DUP2 ISZERO ISZERO SWAP1 POP SWAP2 SWAP1 POP JUMP JUMPDEST PUSH2 0x1256 DUP2 PUSH2 0x1241 JUMP JUMPDEST DUP3 MSTORE POP POP JUMP JUMPDEST PUSH1 0x0 PUSH1 0x20 DUP3 ADD SWAP1 POP PUSH2 0x1271 PUSH1 0x0 DUP4 ADD DUP5 PUSH2 0x124D JUMP JUMPDEST SWAP3 SWAP2 POP POP JUMP JUMPDEST PUSH2 0x1280 DUP2 PUSH2 0x107E JUMP JUMPDEST DUP3 MSTORE POP POP JUMP JUMPDEST PUSH1 0x0 PUSH1 0x20 DUP3 ADD SWAP1 POP PUSH2 0x129B PUSH1 0x0 DUP4 ADD DUP5 PUSH2 0x1277 JUMP JUMPDEST SWAP3 SWAP2 POP POP JUMP JUMPDEST PUSH1 0x0 PUSH32 0xFFFFFFFF00000000000000000000000000000000000000000000000000000000 DUP3 AND SWAP1 POP SWAP2 SWAP1 POP JUMP JUMPDEST PUSH2 0x12D6 DUP2 PUSH2 0x12A1 JUMP JUMPDEST DUP3 MSTORE POP POP JUMP JUMPDEST PUSH1 0x0 PUSH1 0x20 DUP3 ADD SWAP1 POP PUSH2 0x12F1 PUSH1 0x0 DUP4 ADD DUP5 PUSH2 0x12CD JUMP JUMPDEST SWAP3 SWAP2 POP POP JUMP JUMPDEST PUSH2 0x1300 DUP2 PUSH2 0xDC5 JUMP JUMPDEST DUP3 MSTORE POP POP JUMP JUMPDEST PUSH1 0x0 PUSH1 0x20 DUP3 ADD SWAP1 POP PUSH2 0x131B PUSH1 0x0 DUP4 ADD DUP5 PUSH2 0x12F7 JUMP JUMPDEST SWAP3 SWAP2 POP POP JUMP JUMPDEST PUSH32 0x4E487B7100000000000000000000000000000000000000000000000000000000 PUSH1 0x0 MSTORE PUSH1 0x1 PUSH1 0x4 MSTORE PUSH1 0x24 PUSH1 0x0 REVERT JUMPDEST PUSH32 0x4E487B7100000000000000000000000000000000000000000000000000000000 PUSH1 0x0 MSTORE PUSH1 0x11 PUSH1 0x4 MSTORE PUSH1 0x24 PUSH1 0x0 REVERT JUMPDEST PUSH1 0x0 PUSH2 0x138A DUP3 PUSH2 0xDC5 JUMP JUMPDEST SWAP2 POP PUSH2 0x1395 DUP4 PUSH2 0xDC5 JUMP JUMPDEST SWAP3 POP DUP3 DUP3 ADD SWAP1 POP DUP1 DUP3 GT ISZERO PUSH2 0x13AD JUMPI PUSH2 0x13AC PUSH2 0x1350 JUMP JUMPDEST JUMPDEST SWAP3 SWAP2 POP POP JUMP JUMPDEST PUSH1 0x0 PUSH2 0x13BE DUP3 PUSH2 0xDC5 JUMP JUMPDEST SWAP2 POP PUSH2 0x13C9 DUP4 PUSH2 0xDC5 JUMP JUMPDEST SWAP3 POP DUP3 DUP3 SUB SWAP1 POP DUP2 DUP2 GT ISZERO PUSH2 0x13E1 JUMPI PUSH2 0x13E0 PUSH2 0x1350 JUMP JUMPDEST JUMPDEST SWAP3 SWAP2 POP POP JUMP JUMPDEST PUSH32 0x4E487B7100000000000000000000000000000000000000000000000000000000 PUSH1 0x0 MSTORE PUSH1 0x32 PUSH1 0x4 MSTORE PUSH1 0x24 PUSH1 0x0 REVERT JUMPDEST PUSH32 0x4E487B7100000000000000000000000000000000000000000000000000000000 PUSH1 0x0 MSTORE PUSH1 0x21 PUSH1 0x4 MSTORE PUSH1 0x24 PUSH1 0x0 REVERT JUMPDEST PUSH1 0x8 DUP2 LT PUSH2 0x1456 JUMPI PUSH2 0x1455 PUSH2 0x1416 JUMP JUMPDEST JUMPDEST POP JUMP JUMPDEST PUSH1 0x0 DUP2 SWAP1 POP PUSH2 0x1467 DUP3 PUSH2 0x1445 JUMP JUMPDEST SWAP2 SWAP1 POP JUMP JUMPDEST PUSH1 0x0 PUSH2 0x1477 DUP3 PUSH2 0x1459 JUMP JUMPDEST SWAP1 POP SWAP2 SWAP1 POP JUMP JUMPDEST PUSH2 0x1487 DUP2 PUSH2 0x146C JUMP JUMPDEST DUP3 MSTORE POP POP JUMP JUMPDEST PUSH1 0x0 PUSH1 0x60 DUP3 ADD SWAP1 POP PUSH2 0x14A2 PUSH1 0x0 DUP4 ADD DUP7 PUSH2 0x147E JUMP JUMPDEST PUSH2 0x14AF PUSH1 0x20 DUP4 ADD DUP6 PUSH2 0x12F7 JUMP JUMPDEST PUSH2 0x14BC PUSH1 0x40 DUP4 ADD DUP5 PUSH2 0x12F7 JUMP JUMPDEST SWAP5 SWAP4 POP POP POP POP JUMP INVALID LOG2 PUSH5 0x6970667358 0x22 SLT KECCAK256 LOG2 DUP14 BLOBHASH STATICCALL PUSH15 0xFCA225EE9E85FFB86068EEE97B2A24 BLOCKHASH 0xAC NOT SWAP14 BASEFEE 0x29 PUSH31 0x1776AC026164736F6C634300081C0033000000000000000000000000000000 "},"methodIdentifiers":{"assertBytesUnchangedAfterLengthReset(bytes,uint256)":"4bcb91d2","publicEquals(bytes,bytes)":"f06f300d","publicEqualsPop1(bytes,bytes)":"b1840e8d","publicPopLastByte(bytes)":"0301d5e1","publicReadAddress(bytes,uint256)":"82e2fa24","publicReadBytes32(bytes,uint256)":"be766f1b","publicReadBytes4(bytes,uint256)":"cc12cb28","publicReadUint256(bytes,uint256)":"e3a85ce4","publicSlice(bytes,uint256,uint256)":"9d19cb5e","publicSliceDestructive(bytes,uint256,uint256)":"c4b0f38b","publicWriteAddress(bytes,uint256,address)":"3f2a25ec","publicWriteBytes32(bytes,uint256,bytes32)":"84f87758","publicWriteLength(bytes,uint256,bytes)":"67aa05c2","publicWriteUint256(bytes,uint256,uint256)":"b79650a4","testMemcpy(bytes,uint256,uint256,uint256)":"78bbae9b"}}}}}