{"contracts/test/TestLibSafeMath.sol":{"TestLibSafeMath":{"abi":[{"inputs":[{"internalType":"uint256","name":"a","type":"uint256"},{"internalType":"uint256","name":"b","type":"uint256"}],"name":"externalMaxUint256","outputs":[{"internalType":"uint256","name":"","type":"uint256"}],"stateMutability":"pure","type":"function"},{"inputs":[{"internalType":"uint256","name":"a","type":"uint256"},{"internalType":"uint256","name":"b","type":"uint256"}],"name":"externalMinUint256","outputs":[{"internalType":"uint256","name":"","type":"uint256"}],"stateMutability":"pure","type":"function"},{"inputs":[{"internalType":"uint256","name":"a","type":"uint256"},{"internalType":"uint256","name":"b","type":"uint256"}],"name":"externalSafeAdd","outputs":[{"internalType":"uint256","name":"","type":"uint256"}],"stateMutability":"pure","type":"function"},{"inputs":[{"internalType":"uint256","name":"a","type":"uint256"},{"internalType":"uint256","name":"b","type":"uint256"}],"name":"externalSafeDiv","outputs":[{"internalType":"uint256","name":"","type":"uint256"}],"stateMutability":"pure","type":"function"},{"inputs":[{"internalType":"uint256","name":"a","type":"uint256"},{"internalType":"uint256","name":"b","type":"uint256"}],"name":"externalSafeMul","outputs":[{"internalType":"uint256","name":"","type":"uint256"}],"stateMutability":"pure","type":"function"},{"inputs":[{"internalType":"uint256","name":"a","type":"uint256"},{"internalType":"uint256","name":"b","type":"uint256"}],"name":"externalSafeSub","outputs":[{"internalType":"uint256","name":"","type":"uint256"}],"stateMutability":"pure","type":"function"}],"evm":{"bytecode":{"linkReferences":{},"object":"6080604052348015600e575f5ffd5b506103ec8061001c5f395ff3fe608060405234801561000f575f5ffd5b506004361061006f575f3560e01c8063791c6e681161004d578063791c6e68146100be578063d6e158bf146100d1578063df70e4d6146100e4575f5ffd5b80630a486f3014610073578063105df46e1461009857806349023276146100ab575b5f5ffd5b6100866100813660046102ac565b6100f7565b60405190815260200160405180910390f35b6100866100a63660046102ac565b61010b565b6100866100b93660046102ac565b610116565b6100866100cc3660046102ac565b610121565b6100866100df3660046102ac565b61012c565b6100866100f23660046102ac565b610137565b5f6101028383610142565b90505b92915050565b5f6101028383610169565b5f61010283836101a0565b5f61010283836101ba565b5f61010283836101cf565b5f61010283836101f0565b5f8282111561015f5761015f61015a600285856101ff565b6102a4565b61010282846102cc565b5f825f0361017857505f610105565b8282028284828161018b5761018b610304565b04146101025761010261015a600186866101ff565b5f828201838110156101025761010261015a5f86866101ff565b5f8183106101c85781610102565b5090919050565b5f815f036101e6576101e661015a600385856101ff565b6101028284610331565b5f818310156101c85781610102565b606063e946c1bb60e01b84848460405160240161021e93929190610369565b604080517fffffffffffffffffffffffffffffffffffffffffffffffffffffffffffffffe08184030181529190526020810180517bffffffffffffffffffffffffffffffffffffffffffffffffffffffff167fffffffff000000000000000000000000000000000000000000000000000000009093169290921790915290509392505050565b805160208201fd5b5f5f604083850312156102bd575f5ffd5b50508035926020909101359150565b81810381811115610105577f4e487b71000000000000000000000000000000000000000000000000000000005f52601160045260245ffd5b7f4e487b71000000000000000000000000000000000000000000000000000000005f52601260045260245ffd5b5f82610364577f4e487b71000000000000000000000000000000000000000000000000000000005f52601260045260245ffd5b500490565b60608101600485106103a2577f4e487b71000000000000000000000000000000000000000000000000000000005f52602160045260245ffd5b93815260208101929092526040909101529056fea26469706673582212206e4e96b6a5b51d8a6fefdbab23224d2bd385a97c86fdff8c99451dad813d229e64736f6c634300081c0033","opcodes":"PUSH1 0x80 PUSH1 0x40 MSTORE CALLVALUE DUP1 ISZERO PUSH1 0xE JUMPI PUSH0 PUSH0 REVERT JUMPDEST POP PUSH2 0x3EC DUP1 PUSH2 0x1C PUSH0 CODECOPY PUSH0 RETURN INVALID PUSH1 0x80 PUSH1 0x40 MSTORE CALLVALUE DUP1 ISZERO PUSH2 0xF JUMPI PUSH0 PUSH0 REVERT JUMPDEST POP PUSH1 0x4 CALLDATASIZE LT PUSH2 0x6F JUMPI PUSH0 CALLDATALOAD PUSH1 0xE0 SHR DUP1 PUSH4 0x791C6E68 GT PUSH2 0x4D JUMPI DUP1 PUSH4 0x791C6E68 EQ PUSH2 0xBE JUMPI DUP1 PUSH4 0xD6E158BF EQ PUSH2 0xD1 JUMPI DUP1 PUSH4 0xDF70E4D6 EQ PUSH2 0xE4 JUMPI PUSH0 PUSH0 REVERT JUMPDEST DUP1 PUSH4 0xA486F30 EQ PUSH2 0x73 JUMPI DUP1 PUSH4 0x105DF46E EQ PUSH2 0x98 JUMPI DUP1 PUSH4 0x49023276 EQ PUSH2 0xAB JUMPI JUMPDEST PUSH0 PUSH0 REVERT JUMPDEST PUSH2 0x86 PUSH2 0x81 CALLDATASIZE PUSH1 0x4 PUSH2 0x2AC JUMP JUMPDEST PUSH2 0xF7 JUMP JUMPDEST PUSH1 0x40 MLOAD SWAP1 DUP2 MSTORE PUSH1 0x20 ADD PUSH1 0x40 MLOAD DUP1 SWAP2 SUB SWAP1 RETURN JUMPDEST PUSH2 0x86 PUSH2 0xA6 CALLDATASIZE PUSH1 0x4 PUSH2 0x2AC JUMP JUMPDEST PUSH2 0x10B JUMP JUMPDEST PUSH2 0x86 PUSH2 0xB9 CALLDATASIZE PUSH1 0x4 PUSH2 0x2AC JUMP JUMPDEST PUSH2 0x116 JUMP JUMPDEST PUSH2 0x86 PUSH2 0xCC CALLDATASIZE PUSH1 0x4 PUSH2 0x2AC JUMP JUMPDEST PUSH2 0x121 JUMP JUMPDEST PUSH2 0x86 PUSH2 0xDF CALLDATASIZE PUSH1 0x4 PUSH2 0x2AC JUMP JUMPDEST PUSH2 0x12C JUMP JUMPDEST PUSH2 0x86 PUSH2 0xF2 CALLDATASIZE PUSH1 0x4 PUSH2 0x2AC JUMP JUMPDEST PUSH2 0x137 JUMP JUMPDEST PUSH0 PUSH2 0x102 DUP4 DUP4 PUSH2 0x142 JUMP JUMPDEST SWAP1 POP JUMPDEST SWAP3 SWAP2 POP POP JUMP JUMPDEST PUSH0 PUSH2 0x102 DUP4 DUP4 PUSH2 0x169 JUMP JUMPDEST PUSH0 PUSH2 0x102 DUP4 DUP4 PUSH2 0x1A0 JUMP JUMPDEST PUSH0 PUSH2 0x102 DUP4 DUP4 PUSH2 0x1BA JUMP JUMPDEST PUSH0 PUSH2 0x102 DUP4 DUP4 PUSH2 0x1CF JUMP JUMPDEST PUSH0 PUSH2 0x102 DUP4 DUP4 PUSH2 0x1F0 JUMP JUMPDEST PUSH0 DUP3 DUP3 GT ISZERO PUSH2 0x15F JUMPI PUSH2 0x15F PUSH2 0x15A PUSH1 0x2 DUP6 DUP6 PUSH2 0x1FF JUMP JUMPDEST PUSH2 0x2A4 JUMP JUMPDEST PUSH2 0x102 DUP3 DUP5 PUSH2 0x2CC JUMP JUMPDEST PUSH0 DUP3 PUSH0 SUB PUSH2 0x178 JUMPI POP PUSH0 PUSH2 0x105 JUMP JUMPDEST DUP3 DUP3 MUL DUP3 DUP5 DUP3 DUP2 PUSH2 0x18B JUMPI PUSH2 0x18B PUSH2 0x304 JUMP JUMPDEST DIV EQ PUSH2 0x102 JUMPI PUSH2 0x102 PUSH2 0x15A PUSH1 0x1 DUP7 DUP7 PUSH2 0x1FF JUMP JUMPDEST PUSH0 DUP3 DUP3 ADD DUP4 DUP2 LT ISZERO PUSH2 0x102 JUMPI PUSH2 0x102 PUSH2 0x15A PUSH0 DUP7 DUP7 PUSH2 0x1FF JUMP JUMPDEST PUSH0 DUP2 DUP4 LT PUSH2 0x1C8 JUMPI DUP2 PUSH2 0x102 JUMP JUMPDEST POP SWAP1 SWAP2 SWAP1 POP JUMP JUMPDEST PUSH0 DUP2 PUSH0 SUB PUSH2 0x1E6 JUMPI PUSH2 0x1E6 PUSH2 0x15A PUSH1 0x3 DUP6 DUP6 PUSH2 0x1FF JUMP JUMPDEST PUSH2 0x102 DUP3 DUP5 PUSH2 0x331 JUMP JUMPDEST PUSH0 DUP2 DUP4 LT ISZERO PUSH2 0x1C8 JUMPI DUP2 PUSH2 0x102 JUMP JUMPDEST PUSH1 0x60 PUSH4 0xE946C1BB PUSH1 0xE0 SHL DUP5 DUP5 DUP5 PUSH1 0x40 MLOAD PUSH1 0x24 ADD PUSH2 0x21E SWAP4 SWAP3 SWAP2 SWAP1 PUSH2 0x369 JUMP JUMPDEST PUSH1 0x40 DUP1 MLOAD PUSH32 0xFFFFFFFFFFFFFFFFFFFFFFFFFFFFFFFFFFFFFFFFFFFFFFFFFFFFFFFFFFFFFFE0 DUP2 DUP5 SUB ADD DUP2 MSTORE SWAP2 SWAP1 MSTORE PUSH1 0x20 DUP2 ADD DUP1 MLOAD PUSH28 0xFFFFFFFFFFFFFFFFFFFFFFFFFFFFFFFFFFFFFFFFFFFFFFFFFFFFFFFF AND PUSH32 0xFFFFFFFF00000000000000000000000000000000000000000000000000000000 SWAP1 SWAP4 AND SWAP3 SWAP1 SWAP3 OR SWAP1 SWAP2 MSTORE SWAP1 POP SWAP4 SWAP3 POP POP POP JUMP JUMPDEST DUP1 MLOAD PUSH1 0x20 DUP3 ADD REVERT JUMPDEST PUSH0 PUSH0 PUSH1 0x40 DUP4 DUP6 SUB SLT ISZERO PUSH2 0x2BD JUMPI PUSH0 PUSH0 REVERT JUMPDEST POP POP DUP1 CALLDATALOAD SWAP3 PUSH1 0x20 SWAP1 SWAP2 ADD CALLDATALOAD SWAP2 POP JUMP JUMPDEST DUP2 DUP2 SUB DUP2 DUP2 GT ISZERO PUSH2 0x105 JUMPI PUSH32 0x4E487B7100000000000000000000000000000000000000000000000000000000 PUSH0 MSTORE PUSH1 0x11 PUSH1 0x4 MSTORE PUSH1 0x24 PUSH0 REVERT JUMPDEST PUSH32 0x4E487B7100000000000000000000000000000000000000000000000000000000 PUSH0 MSTORE PUSH1 0x12 PUSH1 0x4 MSTORE PUSH1 0x24 PUSH0 REVERT JUMPDEST PUSH0 DUP3 PUSH2 0x364 JUMPI PUSH32 0x4E487B7100000000000000000000000000000000000000000000000000000000 PUSH0 MSTORE PUSH1 0x12 PUSH1 0x4 MSTORE PUSH1 0x24 PUSH0 REVERT JUMPDEST POP DIV SWAP1 JUMP JUMPDEST PUSH1 0x60 DUP2 ADD PUSH1 0x4 DUP6 LT PUSH2 0x3A2 JUMPI PUSH32 0x4E487B7100000000000000000000000000000000000000000000000000000000 PUSH0 MSTORE PUSH1 0x21 PUSH1 0x4 MSTORE PUSH1 0x24 PUSH0 REVERT JUMPDEST SWAP4 DUP2 MSTORE PUSH1 0x20 DUP2 ADD SWAP3 SWAP1 SWAP3 MSTORE PUSH1 0x40 SWAP1 SWAP2 ADD MSTORE SWAP1 JUMP INVALID LOG2 PUSH5 0x6970667358 0x22 SLT KECCAK256 PUSH15 0x4E96B6A5B51D8A6FEFDBAB23224D2B 0xD3 DUP6 0xA9 PUSH29 0x86FDFF8C99451DAD813D229E64736F6C634300081C0033000000000000 "},"methodIdentifiers":{"externalMaxUint256(uint256,uint256)":"df70e4d6","externalMinUint256(uint256,uint256)":"791c6e68","externalSafeAdd(uint256,uint256)":"49023276","externalSafeDiv(uint256,uint256)":"d6e158bf","externalSafeMul(uint256,uint256)":"105df46e","externalSafeSub(uint256,uint256)":"0a486f30"}}}}}