{
  "_format": "hh-sol-artifact-1",
  "contractName": "LiquidityProviderSandbox",
  "sourceName": "contracts/src/external/LiquidityProviderSandbox.sol",
  "abi": [
    {
      "inputs": [
        {
          "internalType": "address",
          "name": "owner_",
          "type": "address"
        }
      ],
      "stateMutability": "nonpayable",
      "type": "constructor"
    },
    {
      "inputs": [
        {
          "internalType": "contract ILiquidityProvider",
          "name": "provider",
          "type": "address"
        },
        {
          "internalType": "contract IERC20Token",
          "name": "outputToken",
          "type": "address"
        },
        {
          "internalType": "address",
          "name": "recipient",
          "type": "address"
        },
        {
          "internalType": "uint256",
          "name": "minBuyAmount",
          "type": "uint256"
        },
        {
          "internalType": "bytes",
          "name": "auxiliaryData",
          "type": "bytes"
        }
      ],
      "name": "executeSellEthForToken",
      "outputs": [],
      "stateMutability": "nonpayable",
      "type": "function"
    },
    {
      "inputs": [
        {
          "internalType": "contract ILiquidityProvider",
          "name": "provider",
          "type": "address"
        },
        {
          "internalType": "contract IERC20Token",
          "name": "inputToken",
          "type": "address"
        },
        {
          "internalType": "address",
          "name": "recipient",
          "type": "address"
        },
        {
          "internalType": "uint256",
          "name": "minBuyAmount",
          "type": "uint256"
        },
        {
          "internalType": "bytes",
          "name": "auxiliaryData",
          "type": "bytes"
        }
      ],
      "name": "executeSellTokenForEth",
      "outputs": [],
      "stateMutability": "nonpayable",
      "type": "function"
    },
    {
      "inputs": [
        {
          "internalType": "contract ILiquidityProvider",
          "name": "provider",
          "type": "address"
        },
        {
          "internalType": "contract IERC20Token",
          "name": "inputToken",
          "type": "address"
        },
        {
          "internalType": "contract IERC20Token",
          "name": "outputToken",
          "type": "address"
        },
        {
          "internalType": "address",
          "name": "recipient",
          "type": "address"
        },
        {
          "internalType": "uint256",
          "name": "minBuyAmount",
          "type": "uint256"
        },
        {
          "internalType": "bytes",
          "name": "auxiliaryData",
          "type": "bytes"
        }
      ],
      "name": "executeSellTokenForToken",
      "outputs": [],
      "stateMutability": "nonpayable",
      "type": "function"
    },
    {
      "inputs": [],
      "name": "owner",
      "outputs": [
        {
          "internalType": "address",
          "name": "",
          "type": "address"
        }
      ],
      "stateMutability": "view",
      "type": "function"
    }
  ],
  "bytecode": "0x60a060405234801561001057600080fd5b50604051610b65380380610b65833981810160405281019061003291906100cf565b8073ffffffffffffffffffffffffffffffffffffffff1660808173ffffffffffffffffffffffffffffffffffffffff1681525050506100fc565b600080fd5b600073ffffffffffffffffffffffffffffffffffffffff82169050919050565b600061009c82610071565b9050919050565b6100ac81610091565b81146100b757600080fd5b50565b6000815190506100c9816100a3565b92915050565b6000602082840312156100e5576100e461006c565b5b60006100f3848285016100ba565b91505092915050565b608051610a256101406000396000818160c50152818161011f015281816101d801528181610232015281816102eb0152818161030f01526103690152610a256000f3fe608060405234801561001057600080fd5b506004361061004c5760003560e01c806314549137146100515780636f025ee61461006d5780638da5cb5b14610089578063bb503e21146100a7575b600080fd5b61006b6004803603810190610066919061062c565b6100c3565b005b6100876004803603810190610082919061062c565b6101d6565b005b6100916102e9565b60405161009e91906106d5565b60405180910390f35b6100c160048036038101906100bc91906106f0565b61030d565b005b7f000000000000000000000000000000000000000000000000000000000000000073ffffffffffffffffffffffffffffffffffffffff163373ffffffffffffffffffffffffffffffffffffffff161461014957610148610143337f0000000000000000000000000000000000000000000000000000000000000000610423565b6104a5565b5b8573ffffffffffffffffffffffffffffffffffffffff166369be90ec86868686866040518663ffffffff1660e01b815260040161018a95949392919061088c565b6020604051808303816000875af11580156101a9573d6000803e3d6000fd5b505050506040513d601f19601f820116820180604052508101906101cd91906108ef565b50505050505050565b7f000000000000000000000000000000000000000000000000000000000000000073ffffffffffffffffffffffffffffffffffffffff163373ffffffffffffffffffffffffffffffffffffffff161461025c5761025b610256337f0000000000000000000000000000000000000000000000000000000000000000610423565b6104a5565b5b8573ffffffffffffffffffffffffffffffffffffffff1663b52e845886868686866040518663ffffffff1660e01b815260040161029d95949392919061091c565b6020604051808303816000875af11580156102bc573d6000803e3d6000fd5b505050506040513d601f19601f820116820180604052508101906102e091906108ef565b50505050505050565b7f000000000000000000000000000000000000000000000000000000000000000081565b7f000000000000000000000000000000000000000000000000000000000000000073ffffffffffffffffffffffffffffffffffffffff163373ffffffffffffffffffffffffffffffffffffffff16146103935761039261038d337f0000000000000000000000000000000000000000000000000000000000000000610423565b6104a5565b5b8673ffffffffffffffffffffffffffffffffffffffff166365d02b048787878787876040518763ffffffff1660e01b81526004016103d69695949392919061096a565b6020604051808303816000875af11580156103f5573d6000803e3d6000fd5b505050506040513d601f19601f8201168201806040525081019061041991906108ef565b5050505050505050565b6060631de45ad160e01b83836040516024016104409291906109c6565b604051602081830303815290604052907bffffffffffffffffffffffffffffffffffffffffffffffffffffffff19166020820180517bffffffffffffffffffffffffffffffffffffffffffffffffffffffff8381831617835250505050905092915050565b805160208201fd5b600080fd5b600080fd5b600073ffffffffffffffffffffffffffffffffffffffff82169050919050565b60006104e2826104b7565b9050919050565b60006104f4826104d7565b9050919050565b610504816104e9565b811461050f57600080fd5b50565b600081359050610521816104fb565b92915050565b6000610532826104d7565b9050919050565b61054281610527565b811461054d57600080fd5b50565b60008135905061055f81610539565b92915050565b61056e816104d7565b811461057957600080fd5b50565b60008135905061058b81610565565b92915050565b6000819050919050565b6105a481610591565b81146105af57600080fd5b50565b6000813590506105c18161059b565b92915050565b600080fd5b600080fd5b600080fd5b60008083601f8401126105ec576105eb6105c7565b5b8235905067ffffffffffffffff811115610609576106086105cc565b5b602083019150836001820283011115610625576106246105d1565b5b9250929050565b60008060008060008060a08789031215610649576106486104ad565b5b600061065789828a01610512565b965050602061066889828a01610550565b955050604061067989828a0161057c565b945050606061068a89828a016105b2565b935050608087013567ffffffffffffffff8111156106ab576106aa6104b2565b5b6106b789828a016105d6565b92509250509295509295509295565b6106cf816104d7565b82525050565b60006020820190506106ea60008301846106c6565b92915050565b600080600080600080600060c0888a03121561070f5761070e6104ad565b5b600061071d8a828b01610512565b975050602061072e8a828b01610550565b965050604061073f8a828b01610550565b95505060606107508a828b0161057c565b94505060806107618a828b016105b2565b93505060a088013567ffffffffffffffff811115610782576107816104b2565b5b61078e8a828b016105d6565b925092505092959891949750929550565b6000819050919050565b60006107c46107bf6107ba846104b7565b61079f565b6104b7565b9050919050565b60006107d6826107a9565b9050919050565b60006107e8826107cb565b9050919050565b6107f8816107dd565b82525050565b6000610809826104b7565b9050919050565b610819816107fe565b82525050565b61082881610591565b82525050565b600082825260208201905092915050565b82818337600083830152505050565b6000601f19601f8301169050919050565b600061086b838561082e565b935061087883858461083f565b6108818361084e565b840190509392505050565b60006080820190506108a160008301886107ef565b6108ae6020830187610810565b6108bb604083018661081f565b81810360608301526108ce81848661085f565b90509695505050505050565b6000815190506108e98161059b565b92915050565b600060208284031215610905576109046104ad565b5b6000610913848285016108da565b91505092915050565b600060808201905061093160008301886107ef565b61093e60208301876106c6565b61094b604083018661081f565b818103606083015261095e81848661085f565b90509695505050505050565b600060a08201905061097f60008301896107ef565b61098c60208301886107ef565b61099960408301876106c6565b6109a6606083018661081f565b81810360808301526109b981848661085f565b9050979650505050505050565b60006040820190506109db60008301856106c6565b6109e860208301846106c6565b939250505056fea2646970667358221220d8ee1ac912681b56e01a3480a62797f6d842a842e86398e758aae9c183f644dd64736f6c634300081c0033",
  "linkReferences": {},
  "deployedLinkReferences": {}
}