{
  "_format": "hh-sol-artifact-1",
  "contractName": "LiquidityProviderSandbox",
  "sourceName": "contracts/src/external/LiquidityProviderSandbox.sol",
  "abi": [
    {
      "inputs": [
        {
          "internalType": "address",
          "name": "owner_",
          "type": "address"
        }
      ],
      "stateMutability": "nonpayable",
      "type": "constructor"
    },
    {
      "inputs": [
        {
          "internalType": "contract ILiquidityProvider",
          "name": "provider",
          "type": "address"
        },
        {
          "internalType": "contract IERC20Token",
          "name": "outputToken",
          "type": "address"
        },
        {
          "internalType": "address",
          "name": "recipient",
          "type": "address"
        },
        {
          "internalType": "uint256",
          "name": "minBuyAmount",
          "type": "uint256"
        },
        {
          "internalType": "bytes",
          "name": "auxiliaryData",
          "type": "bytes"
        }
      ],
      "name": "executeSellEthForToken",
      "outputs": [],
      "stateMutability": "nonpayable",
      "type": "function"
    },
    {
      "inputs": [
        {
          "internalType": "contract ILiquidityProvider",
          "name": "provider",
          "type": "address"
        },
        {
          "internalType": "contract IERC20Token",
          "name": "inputToken",
          "type": "address"
        },
        {
          "internalType": "address",
          "name": "recipient",
          "type": "address"
        },
        {
          "internalType": "uint256",
          "name": "minBuyAmount",
          "type": "uint256"
        },
        {
          "internalType": "bytes",
          "name": "auxiliaryData",
          "type": "bytes"
        }
      ],
      "name": "executeSellTokenForEth",
      "outputs": [],
      "stateMutability": "nonpayable",
      "type": "function"
    },
    {
      "inputs": [
        {
          "internalType": "contract ILiquidityProvider",
          "name": "provider",
          "type": "address"
        },
        {
          "internalType": "contract IERC20Token",
          "name": "inputToken",
          "type": "address"
        },
        {
          "internalType": "contract IERC20Token",
          "name": "outputToken",
          "type": "address"
        },
        {
          "internalType": "address",
          "name": "recipient",
          "type": "address"
        },
        {
          "internalType": "uint256",
          "name": "minBuyAmount",
          "type": "uint256"
        },
        {
          "internalType": "bytes",
          "name": "auxiliaryData",
          "type": "bytes"
        }
      ],
      "name": "executeSellTokenForToken",
      "outputs": [],
      "stateMutability": "nonpayable",
      "type": "function"
    },
    {
      "inputs": [],
      "name": "owner",
      "outputs": [
        {
          "internalType": "address",
          "name": "",
          "type": "address"
        }
      ],
      "stateMutability": "view",
      "type": "function"
    }
  ],
  "bytecode": "0x60a060405234801561000f575f5ffd5b5060405161068538038061068583398101604081905261002e9161003f565b6001600160a01b031660805261006c565b5f6020828403121561004f575f5ffd5b81516001600160a01b0381168114610065575f5ffd5b9392505050565b6080516105d96100ac5f395f8181607b0152818160d701528181610105015281816101b6015281816101e401528181610247015261027501526105d95ff3fe608060405234801561000f575f5ffd5b506004361061004a575f3560e01c8063145491371461004e5780636f025ee6146100635780638da5cb5b14610076578063bb503e21146100b9575b5f5ffd5b61006161005c3660046103cd565b6100cc565b005b6100616100713660046103cd565b6101ab565b61009d7f000000000000000000000000000000000000000000000000000000000000000081565b6040516001600160a01b03909116815260200160405180910390f35b6100616100c736600461044d565b61023c565b336001600160a01b037f0000000000000000000000000000000000000000000000000000000000000000161461012e5761012e610129337f0000000000000000000000000000000000000000000000000000000000000000610319565b610369565b604051631a6fa43b60e21b81526001600160a01b038716906369be90ec906101629088908890889088908890600401610507565b6020604051808303815f875af115801561017e573d5f5f3e3d5ffd5b505050506040513d601f19601f820116820180604052508101906101a29190610545565b50505050505050565b336001600160a01b037f0000000000000000000000000000000000000000000000000000000000000000161461020857610208610129337f0000000000000000000000000000000000000000000000000000000000000000610319565b6040516316a5d08b60e31b81526001600160a01b0387169063b52e8458906101629088908890889088908890600401610507565b336001600160a01b037f0000000000000000000000000000000000000000000000000000000000000000161461029957610299610129337f0000000000000000000000000000000000000000000000000000000000000000610319565b6040516319740ac160e21b81526001600160a01b038816906365d02b04906102cf9089908990899089908990899060040161055c565b6020604051808303815f875af11580156102eb573d5f5f3e3d5ffd5b505050506040513d601f19601f8201168201806040525081019061030f9190610545565b5050505050505050565b604080516001600160a01b039384166024820152919092166044808301919091528251808303909101815260649091019091526020810180516001600160e01b0316631de45ad160e01b17905290565b805160208201fd5b6001600160a01b0381168114610385575f5ffd5b50565b5f5f83601f840112610398575f5ffd5b50813567ffffffffffffffff8111156103af575f5ffd5b6020830191508360208285010111156103c6575f5ffd5b9250929050565b5f5f5f5f5f5f60a087890312156103e2575f5ffd5b86356103ed81610371565b955060208701356103fd81610371565b9450604087013561040d81610371565b935060608701359250608087013567ffffffffffffffff81111561042f575f5ffd5b61043b89828a01610388565b979a9699509497509295939492505050565b5f5f5f5f5f5f5f60c0888a031215610463575f5ffd5b873561046e81610371565b9650602088013561047e81610371565b9550604088013561048e81610371565b9450606088013561049e81610371565b93506080880135925060a088013567ffffffffffffffff8111156104c0575f5ffd5b6104cc8a828b01610388565b989b979a50959850939692959293505050565b81835281816020850137505f828201602090810191909152601f909101601f19169091010190565b6001600160a01b03868116825285166020820152604081018490526080606082018190525f9061053a90830184866104df565b979650505050505050565b5f60208284031215610555575f5ffd5b5051919050565b6001600160a01b0387811682528681166020830152851660408201526060810184905260a0608082018190525f9061059790830184866104df565b9897505050505050505056fea264697066735822122013ce2dab965b9e63a8eebda7121a6f56349d3a6f4c2111ce8320e7b1f307a02c64736f6c634300081c0033",
  "linkReferences": {},
  "deployedLinkReferences": {}
}