{
  "_format": "hh-sol-artifact-1",
  "contractName": "BaseBridgeAdapter",
  "sourceName": "contracts/src/transformers/bridges/BaseBridgeAdapter.sol",
  "abi": [
    {
      "inputs": [
        {
          "internalType": "contract IEtherToken",
          "name": "weth",
          "type": "address"
        }
      ],
      "stateMutability": "nonpayable",
      "type": "constructor"
    },
    {
      "anonymous": false,
      "inputs": [
        {
          "indexed": false,
          "internalType": "bytes32",
          "name": "source",
          "type": "bytes32"
        },
        {
          "indexed": false,
          "internalType": "contract IERC20Token",
          "name": "inputToken",
          "type": "address"
        },
        {
          "indexed": false,
          "internalType": "contract IERC20Token",
          "name": "outputToken",
          "type": "address"
        },
        {
          "indexed": false,
          "internalType": "uint256",
          "name": "inputTokenAmount",
          "type": "uint256"
        },
        {
          "indexed": false,
          "internalType": "uint256",
          "name": "outputTokenAmount",
          "type": "uint256"
        }
      ],
      "name": "BridgeFill",
      "type": "event"
    },
    {
      "inputs": [
        {
          "internalType": "bytes32",
          "name": "source",
          "type": "bytes32"
        }
      ],
      "name": "isSupportedSource",
      "outputs": [
        {
          "internalType": "bool",
          "name": "isSupported",
          "type": "bool"
        }
      ],
      "stateMutability": "nonpayable",
      "type": "function"
    },
    {
      "inputs": [
        {
          "components": [
            {
              "internalType": "bytes32",
              "name": "source",
              "type": "bytes32"
            },
            {
              "internalType": "uint256",
              "name": "takerTokenAmount",
              "type": "uint256"
            },
            {
              "internalType": "uint256",
              "name": "makerTokenAmount",
              "type": "uint256"
            },
            {
              "internalType": "bytes",
              "name": "bridgeData",
              "type": "bytes"
            }
          ],
          "internalType": "struct IBridgeAdapter.BridgeOrder",
          "name": "order",
          "type": "tuple"
        },
        {
          "internalType": "contract IERC20Token",
          "name": "sellToken",
          "type": "address"
        },
        {
          "internalType": "contract IERC20Token",
          "name": "buyToken",
          "type": "address"
        },
        {
          "internalType": "uint256",
          "name": "sellAmount",
          "type": "uint256"
        }
      ],
      "name": "trade",
      "outputs": [
        {
          "internalType": "uint256",
          "name": "boughtAmount",
          "type": "uint256"
        }
      ],
      "stateMutability": "nonpayable",
      "type": "function"
    }
  ],
  "bytecode": "0x60a060405234801561000f575f5ffd5b5060405161288038038061288083398101604081905261002e916100f2565b6040805180820190915260048152634261736560e01b6020820152819061210590465f610539821480610062575081617a69145b8061006d5750816005145b8061007a57508162013881145b8061008757508162014a33145b9050838214158015610097575080155b156100dc57826040516020016100ad919061011f565b60408051601f198184030181529082905262461bcd60e51b82526100d39160040161016a565b60405180910390fd5b505050506001600160a01b03166080525061019f565b5f60208284031215610102575f5ffd5b81516001600160a01b0381168114610118575f5ffd5b9392505050565b5f82518060208501845e7f427269646765416461707465722e636f6e7374727563746f723a2077726f6e67920191825250680818da185a5b88125160ba1b6020820152602901919050565b602081525f82518060208401528060208501604085015e5f604082850101526040601f19601f83011684010191505092915050565b6080516126b46101cc5f395f8181610445015281816104c80152818161071f015261077501526126b45ff3fe608060405234801561000f575f5ffd5b5060043610610034575f3560e01c806302d2734f14610038578063f712a14814610060575b5f5ffd5b61004b61004636600461186e565b610081565b60405190151581526020015b60405180910390f35b61007361006e3660046119c6565b6100c5565b604051908152602001610057565b5f6100aa60405180608001604052805f81526020015f81526020015f8152602001606081525090565b8281525f6100bc8282808060016100dd565b95945050505050565b5f6100d3858585855f6100dd565b5095945050505050565b84515f90819060801c7fffffffffffffffffffffffffffffffffffffffffffffffffffffffffffffffff8101610137578315610120575f60019250925050610420565b6101308787878b6060015161042a565b92506103b9565b7fffffffffffffffffffffffffffffffffffffffffffffffffffffffffffffffec6fffffffffffffffffffffffffffffffff821601610193578315610183575f60019250925050610420565b6101308787878b60600151610897565b7fffffffffffffffffffffffffffffffffffffffffffffffffffffffffffffffee6fffffffffffffffffffffffffffffffff8216016101ee5783156101df575f60019250925050610420565b61013087868a60600151610b37565b7ffffffffffffffffffffffffffffffffffffffffffffffffffffffffffffffffe6fffffffffffffffffffffffffffffffff82160161024957831561023a575f60019250925050610420565b61013086868a60600151610cf9565b7fffffffffffffffffffffffffffffffffffffffffffffffffffffffffffffffe36fffffffffffffffffffffffffffffffff8216016102a5578315610295575f60019250925050610420565b6101308787878b60600151610fc7565b7fffffffffffffffffffffffffffffffffffffffffffffffffffffffffffffffe76fffffffffffffffffffffffffffffffff8216016102ff5783156102f1575f60019250925050610420565b61013085896060015161112d565b7fffffffffffffffffffffffffffffffffffffffffffffffffffffffffffffffdb6fffffffffffffffffffffffffffffffff82160161035b57831561034b575f60019250925050610420565b6101308787878b6060015161140e565b7fffffffffffffffffffffffffffffffffffffffffffffffffffffffffffffffdc6fffffffffffffffffffffffffffffffff8216016103b95783156103a7575f60019250925050610420565b6103b687868a60600151611525565b92505b87516040805191825273ffffffffffffffffffffffffffffffffffffffff89811660208401528816828201526060820187905260808201859052517fe59e71a14fe90157eedc866c4f8c767d3943d6b6b2e8cd64dddcc92ab4c55af89181900360a00190a1505b9550959350505050565b5f5f828060200190518101906104409190611b54565b90505f7f000000000000000000000000000000000000000000000000000000000000000073ffffffffffffffffffffffffffffffffffffffff168773ffffffffffffffffffffffffffffffffffffffff160361053957506040517f2e1a7d4d0000000000000000000000000000000000000000000000000000000081526004810185905284907f000000000000000000000000000000000000000000000000000000000000000073ffffffffffffffffffffffffffffffffffffffff1690632e1a7d4d906024015f604051808303815f87803b15801561051e575f5ffd5b505af1158015610530573d5f5f3e3d5ffd5b5050505061055d565b815161055d9073ffffffffffffffffffffffffffffffffffffffff891690876115ae565b6040517f70a082310000000000000000000000000000000000000000000000000000000081523060048201525f9073ffffffffffffffffffffffffffffffffffffffff8816906370a0823190602401602060405180830381865afa1580156105c7573d5f5f3e3d5ffd5b505050506040513d601f19601f820116820180604052508101906105eb9190611b75565b8351602085015160408087015160608801519151600f91820b602482015291900b6044820152606481018a9052600160848201529293505f92839273ffffffffffffffffffffffffffffffffffffffff1691869160a401604080517fffffffffffffffffffffffffffffffffffffffffffffffffffffffffffffffe08184030181529181526020820180517bffffffffffffffffffffffffffffffffffffffffffffffffffffffff167fffffffff000000000000000000000000000000000000000000000000000000009094169390931790925290516106cb9190611b8c565b5f6040518083038185875af1925050503d805f8114610705576040519150601f19603f3d011682016040523d82523d5f602084013e61070a565b606091505b50915091508161071d5761071d8161167b565b7f000000000000000000000000000000000000000000000000000000000000000073ffffffffffffffffffffffffffffffffffffffff168973ffffffffffffffffffffffffffffffffffffffff16036107f1574795507f000000000000000000000000000000000000000000000000000000000000000073ffffffffffffffffffffffffffffffffffffffff1663d0e30db0876040518263ffffffff1660e01b81526004015f604051808303818588803b1580156107d9575f5ffd5b505af11580156107eb573d5f5f3e3d5ffd5b50505050505b6040517f70a08231000000000000000000000000000000000000000000000000000000008152306004820152839073ffffffffffffffffffffffffffffffffffffffff8b16906370a0823190602401602060405180830381865afa15801561085b573d5f5f3e3d5ffd5b505050506040513d601f19601f8201168201806040525081019061087f9190611b75565b6108899190611bcf565b9a9950505050505050505050565b5f5f828060200190518101906108ad9190611b54565b80519091506108d49073ffffffffffffffffffffffffffffffffffffffff881690866115ae565b6040517f70a082310000000000000000000000000000000000000000000000000000000081523060048201525f9073ffffffffffffffffffffffffffffffffffffffff8716906370a0823190602401602060405180830381865afa15801561093e573d5f5f3e3d5ffd5b505050506040513d601f19601f820116820180604052508101906109629190611b75565b8251602084015160408086015160608701519151600f91820b602482015291900b604482015260648101899052600160848201529293505f92839273ffffffffffffffffffffffffffffffffffffffff16919060a401604080517fffffffffffffffffffffffffffffffffffffffffffffffffffffffffffffffe08184030181529181526020820180517bffffffffffffffffffffffffffffffffffffffffffffffffffffffff167fffffffff00000000000000000000000000000000000000000000000000000000909416939093179092529051610a419190611b8c565b5f604051808303815f865af19150503d805f8114610a7a576040519150601f19603f3d011682016040523d82523d5f602084013e610a7f565b606091505b509150915081610a9257610a928161167b565b6040517f70a08231000000000000000000000000000000000000000000000000000000008152306004820152839073ffffffffffffffffffffffffffffffffffffffff8a16906370a0823190602401602060405180830381865afa158015610afc573d5f5f3e3d5ffd5b505050506040513d601f19601f82011682018060405250810190610b209190611b75565b610b2a9190611bcf565b9998505050505050505050565b5f5f5f5f84806020019051810190610b4f9190611c2f565b91945092509050610b7773ffffffffffffffffffffffffffffffffffffffff881684886115ae565b80600214610c3c576040805160a0810182528381523060208201524281830152606081018890526001608082015290517fc04b8d5900000000000000000000000000000000000000000000000000000000815273ffffffffffffffffffffffffffffffffffffffff85169163c04b8d5991610bf59190600401611cd4565b6020604051808303815f875af1158015610c11573d5f5f3e3d5ffd5b505050506040513d601f19601f82011682018060405250810190610c359190611b75565b9350610cef565b604080516080810182528381523060208201528082018890526001606082015290517fb858183f00000000000000000000000000000000000000000000000000000000815273ffffffffffffffffffffffffffffffffffffffff85169163b858183f91610cac9190600401611d39565b6020604051808303815f875af1158015610cc8573d5f5f3e3d5ffd5b505050506040513d601f19601f82011682018060405250810190610cec9190611b75565b93505b5050509392505050565b5f5f60608084806020019051810190610d129190611e1b565b80519194509250600211159050610db0576040517f08c379a000000000000000000000000000000000000000000000000000000000815260206004820152602f60248201527f4d6978696e556e697377617056322f504154485f4c454e4754485f4d5553545f60448201527f42455f41545f4c454153545f54574f000000000000000000000000000000000060648201526084015b60405180910390fd5b8573ffffffffffffffffffffffffffffffffffffffff168160018351610dd69190611bcf565b81518110610de657610de6611e69565b602002602001015173ffffffffffffffffffffffffffffffffffffffff1614610e91576040517f08c379a000000000000000000000000000000000000000000000000000000000815260206004820152603b60248201527f4d6978696e556e697377617056322f4c4153545f454c454d454e545f4f465f5060448201527f4154485f4d5553545f4d415443485f4f55545055545f544f4b454e00000000006064820152608401610da7565b610ed58286835f81518110610ea857610ea8611e69565b602002602001015173ffffffffffffffffffffffffffffffffffffffff166115ae9092919063ffffffff16565b6040517f38ed17390000000000000000000000000000000000000000000000000000000081525f9073ffffffffffffffffffffffffffffffffffffffff8416906338ed173990610f32908990600190879030904290600401611ee6565b5f604051808303815f875af1158015610f4d573d5f5f3e3d5ffd5b505050506040513d5f823e601f3d9081017fffffffffffffffffffffffffffffffffffffffffffffffffffffffffffffffe0168201604052610f929190810190611f2e565b90508060018251610fa39190611bcf565b81518110610fb357610fb3611e69565b602002602001015193505050509392505050565b5f5f5f83806020019051810190610fde9190611fce565b909250905061100473ffffffffffffffffffffffffffffffffffffffff881683876115ae565b73ffffffffffffffffffffffffffffffffffffffff82166313dcfc59865f8a8a8630611031426001612001565b6040517fffffffff0000000000000000000000000000000000000000000000000000000060e08a901b1681526004810197909752602487019590955273ffffffffffffffffffffffffffffffffffffffff93841660448701529183166064860152151560848501521660a483015260c482015260e4015f604051808303815f875af11580156110c2573d5f5f3e3d5ffd5b505050506040513d5f823e601f3d9081017fffffffffffffffffffffffffffffffffffffffffffffffffffffffffffffffe01682016040526111079190810190611f2e565b60018151811061111957611119611e69565b602002602001015192505050949350505050565b5f5f5f5f848060200190518101906111459190612014565b92509250925060608190506111678488835f81518110610ea857610ea8611e69565b86835f8151811061117a5761117a611e69565b602002602001015160600181815250505f815167ffffffffffffffff8111156111a5576111a5611885565b6040519080825280602002602001820160405280156111ce578160200160208202803683370190505b5090505f5b8151811015611222577f7fffffffffffffffffffffffffffffffffffffffffffffffffffffffffffffff82828151811061120f5761120f611e69565b60209081029190910101526001016111d3565b5060408051608081018252308082525f60208301819052928201526060810182905273ffffffffffffffffffffffffffffffffffffffff87169063945bcec99083908890879087611274426001612001565b6040518763ffffffff1660e01b8152600401611295969594939291906121b9565b5f604051808303815f875af11580156112b0573d5f5f3e3d5ffd5b505050506040513d5f823e601f3d9081017fffffffffffffffffffffffffffffffffffffffffffffffffffffffffffffffe01682016040526112f59190810190611f2e565b90505f81600183516113079190611bcf565b8151811061131757611317611e69565b602002602001015113156113ad576040517f08c379a000000000000000000000000000000000000000000000000000000000815260206004820152602160248201527f556e65787065637465642042616c616e63657256324261746368206f7574707560448201527f74000000000000000000000000000000000000000000000000000000000000006064820152608401610da7565b80600182516113bc9190611bcf565b815181106113cc576113cc611e69565b60200260200101517fffffffffffffffffffffffffffffffffffffffffffffffffffffffffffffffff6113ff919061233f565b96505050505050505b92915050565b5f5f5f83806020019051810190611425919061238a565b909250905061144b73ffffffffffffffffffffffffffffffffffffffff881683876115ae565b604080516101008101825273ffffffffffffffffffffffffffffffffffffffff898116825288811660208301528381168284015230606083015242608083015260a08201889052600160c08301525f60e083015291517fa5dcbcdf0000000000000000000000000000000000000000000000000000000081529184169163a5dcbcdf916114da916004016123c2565b6020604051808303815f875af11580156114f6573d5f5f3e3d5ffd5b505050506040513d601f19601f8201168201806040525081019061151a9190611b75565b979650505050505050565b5f5f5f8380602001905181019061153c919061247a565b909250905061156273ffffffffffffffffffffffffffffffffffffffff871683876115ae565b5f73ffffffffffffffffffffffffffffffffffffffff831663cac88ea9876001853061158e4284612001565b6040518663ffffffff1660e01b8152600401610f3295949392919061257d565b6040517fdd62ed3e00000000000000000000000000000000000000000000000000000000815230600482015273ffffffffffffffffffffffffffffffffffffffff838116602483015282919085169063dd62ed3e90604401602060405180830381865afa158015611621573d5f5f3e3d5ffd5b505050506040513d601f19601f820116820180604052508101906116459190611b75565b10156116765761167683837fffffffffffffffffffffffffffffffffffffffffffffffffffffffffffffffff611683565b505050565b805160208201fd5b6040805173ffffffffffffffffffffffffffffffffffffffff8416602482015260448082018490528251808303909101815260649091019091526020810180517bffffffffffffffffffffffffffffffffffffffffffffffffffffffff167f095ea7b30000000000000000000000000000000000000000000000000000000017905261170f8482611715565b50505050565b5f5f8373ffffffffffffffffffffffffffffffffffffffff168360405161173c9190611b8c565b5f604051808303815f865af19150503d805f8114611775576040519150601f19603f3d011682016040523d82523d5f602084013e61177a565b606091505b50915091508161178d5761178d8161167b565b80515f0361183b575f8473ffffffffffffffffffffffffffffffffffffffff163b1161170f576040517f08c379a000000000000000000000000000000000000000000000000000000000815260206004820152602760248201527f696e76616c696420746f6b656e20616464726573732c20636f6e7461696e732060448201527f6e6f20636f6465000000000000000000000000000000000000000000000000006064820152608401610da7565b602081511061186557808060200190518101906118589190612665565b611865576118658161167b565b61170f8161167b565b5f6020828403121561187e575f5ffd5b5035919050565b7f4e487b71000000000000000000000000000000000000000000000000000000005f52604160045260245ffd5b6040516080810167ffffffffffffffff811182821017156118d5576118d5611885565b60405290565b60405160a0810167ffffffffffffffff811182821017156118d5576118d5611885565b604051601f82017fffffffffffffffffffffffffffffffffffffffffffffffffffffffffffffffe016810167ffffffffffffffff8111828210171561194557611945611885565b604052919050565b5f67ffffffffffffffff82111561196657611966611885565b50601f017fffffffffffffffffffffffffffffffffffffffffffffffffffffffffffffffe01660200190565b73ffffffffffffffffffffffffffffffffffffffff811681146119b3575f5ffd5b50565b80356119c181611992565b919050565b5f5f5f5f608085870312156119d9575f5ffd5b843567ffffffffffffffff8111156119ef575f5ffd5b850160808188031215611a00575f5ffd5b611a086118b2565b813581526020808301359082015260408083013590820152606082013567ffffffffffffffff811115611a39575f5ffd5b80830192505087601f830112611a4d575f5ffd5b8135611a60611a5b8261194d565b6118fe565b818152896020838601011115611a74575f5ffd5b816020850160208301375f6020838301015280606084015250508095505050611a9f602086016119b6565b9250611aad604086016119b6565b9396929550929360600135925050565b8051600f81900b81146119c1575f5ffd5b5f60808284031215611ade575f5ffd5b611ae66118b2565b90508151611af381611992565b815260208201517fffffffff0000000000000000000000000000000000000000000000000000000081168114611b27575f5ffd5b6020820152611b3860408301611abd565b6040820152611b4960608301611abd565b606082015292915050565b5f60808284031215611b64575f5ffd5b611b6e8383611ace565b9392505050565b5f60208284031215611b85575f5ffd5b5051919050565b5f82518060208501845e5f920191825250919050565b7f4e487b71000000000000000000000000000000000000000000000000000000005f52601160045260245ffd5b8181038181111561140857611408611ba2565b5f82601f830112611bf1575f5ffd5b8151611bff611a5b8261194d565b818152846020838601011115611c13575f5ffd5b8160208501602083015e5f918101602001919091529392505050565b5f5f5f60608486031215611c41575f5ffd5b8351611c4c81611992565b602085015190935067ffffffffffffffff811115611c68575f5ffd5b611c7486828701611be2565b604095909501519396949550929392505050565b5f81518084528060208401602086015e5f6020828601015260207fffffffffffffffffffffffffffffffffffffffffffffffffffffffffffffffe0601f83011685010191505092915050565b602081525f825160a06020840152611cef60c0840182611c88565b905073ffffffffffffffffffffffffffffffffffffffff60208501511660408401526040840151606084015260608401516080840152608084015160a08401528091505092915050565b602081525f825160806020840152611d5460a0840182611c88565b905073ffffffffffffffffffffffffffffffffffffffff602085015116604084015260408401516060840152606084015160808401528091505092915050565b5f67ffffffffffffffff821115611dad57611dad611885565b5060051b60200190565b5f82601f830112611dc6575f5ffd5b8151611dd4611a5b82611d94565b8082825260208201915060208360051b860101925085831115611df5575f5ffd5b602085015b838110156100d3578051611e0d81611992565b835260209283019201611dfa565b5f5f60408385031215611e2c575f5ffd5b8251611e3781611992565b602084015190925067ffffffffffffffff811115611e53575f5ffd5b611e5f85828601611db7565b9150509250929050565b7f4e487b71000000000000000000000000000000000000000000000000000000005f52603260045260245ffd5b5f8151808452602084019350602083015f5b82811015611edc57815173ffffffffffffffffffffffffffffffffffffffff16865260209586019590910190600101611ea8565b5093949350505050565b85815284602082015260a060408201525f611f0460a0830186611e96565b73ffffffffffffffffffffffffffffffffffffffff94909416606083015250608001529392505050565b5f60208284031215611f3e575f5ffd5b815167ffffffffffffffff811115611f54575f5ffd5b8201601f81018413611f64575f5ffd5b8051611f72611a5b82611d94565b8082825260208201915060208360051b850101925086831115611f93575f5ffd5b6020840193505b82841015611fb5578351825260209384019390910190611f9a565b9695505050505050565b805180151581146119c1575f5ffd5b5f5f60408385031215611fdf575f5ffd5b8251611fea81611992565b9150611ff860208401611fbf565b90509250929050565b8082018082111561140857611408611ba2565b5f5f5f60608486031215612026575f5ffd5b835161203181611992565b602085015190935067ffffffffffffffff81111561204d575f5ffd5b8401601f8101861361205d575f5ffd5b805161206b611a5b82611d94565b8082825260208201915060208360051b85010192508883111561208c575f5ffd5b602084015b8381101561215257805167ffffffffffffffff8111156120af575f5ffd5b850160a0818c037fffffffffffffffffffffffffffffffffffffffffffffffffffffffffffffffe00112156120e2575f5ffd5b6120ea6118db565b6020828101518252604080840151918301919091526060808401519183019190915260808301519082015260a082015167ffffffffffffffff81111561212e575f5ffd5b61213d8d602083860101611be2565b60808301525084525060209283019201612091565b5080955050505050604084015167ffffffffffffffff811115612173575f5ffd5b61217f86828701611db7565b9150509250925092565b5f8151808452602084019350602083015f5b82811015611edc57815186526020958601959091019060010161219b565b5f6101208201600289106121f4577f4e487b71000000000000000000000000000000000000000000000000000000005f52602160045260245ffd5b8883526101206020840152808851808352610140850191506101408160051b860101925060208a015f5b828110156122a2577ffffffffffffffffffffffffffffffffffffffffffffffffffffffffffffffec08786030184528151805186526020810151602087015260408101516040870152606081015160608701526080810151905060a0608087015261228c60a0870182611c88565b955050602093840193919091019060010161221e565b5050505082810360408401526122b88188611e96565b9050612318606084018773ffffffffffffffffffffffffffffffffffffffff815116825260208101511515602083015273ffffffffffffffffffffffffffffffffffffffff60408201511660408301526060810151151560608301525050565b82810360e084015261232a8186612189565b91505082610100830152979650505050505050565b8082025f82127f80000000000000000000000000000000000000000000000000000000000000008414161561237657612376611ba2565b818105831482151761140857611408611ba2565b5f5f6040838503121561239b575f5ffd5b82516123a681611992565b60208401519092506123b781611992565b809150509250929050565b5f6101008201905073ffffffffffffffffffffffffffffffffffffffff835116825273ffffffffffffffffffffffffffffffffffffffff602084015116602083015273ffffffffffffffffffffffffffffffffffffffff6040840151166040830152606083015161244b606084018273ffffffffffffffffffffffffffffffffffffffff169052565b506080830151608083015260a083015160a083015260c083015160c083015260e083015160e083015292915050565b5f5f6040838503121561248b575f5ffd5b825161249681611992565b602084015190925067ffffffffffffffff8111156124b2575f5ffd5b8301601f810185136124c2575f5ffd5b80516124d0611a5b82611d94565b8082825260208201915060208360071b8501019250878311156124f1575f5ffd5b6020840193505b8284101561256f576080848903121561250f575f5ffd5b6125176118b2565b845161252281611992565b8152602085015161253281611992565b602082015261254360408601611fbf565b6040820152606085015161255681611992565b60608201528252608093909301926020909101906124f8565b809450505050509250929050565b5f60a0820187835286602084015260a0604084015280865180835260c0850191506020880192505f5b8181101561262e57835173ffffffffffffffffffffffffffffffffffffffff815116845273ffffffffffffffffffffffffffffffffffffffff602082015116602085015260408101511515604085015273ffffffffffffffffffffffffffffffffffffffff6060820151166060850152506080830192506020840193506001810190506125a6565b505073ffffffffffffffffffffffffffffffffffffffff8616606085015291506126559050565b8260808301529695505050505050565b5f60208284031215612675575f5ffd5b611b6e82611fbf56fea26469706673582212209d36a2f53d6b3c1bebd4aab92b3a5d0c3f7891f1a3482fad0151780af509d7a964736f6c634300081c0033",
  "linkReferences": {},
  "deployedLinkReferences": {}
}