{
  "_format": "hh-sol-artifact-1",
  "contractName": "MixinSynthetix",
  "sourceName": "contracts/src/transformers/bridges/mixins/MixinSynthetix.sol",
  "abi": [
    {
      "inputs": [
        {
          "internalType": "uint256",
          "name": "sellAmount",
          "type": "uint256"
        },
        {
          "internalType": "bytes",
          "name": "bridgeData",
          "type": "bytes"
        }
      ],
      "name": "_tradeSynthetix",
      "outputs": [
        {
          "internalType": "uint256",
          "name": "boughtAmount",
          "type": "uint256"
        }
      ],
      "stateMutability": "nonpayable",
      "type": "function"
    }
  ],
  "bytecode": "0x6080604052348015600f57600080fd5b506106ab8061001f6000396000f3fe608060405234801561001057600080fd5b506004361061002b5760003560e01c806399a4d2d014610030575b600080fd5b61004a600480360381019061004591906103ab565b610060565b6040516100579190610416565b60405180910390f35b6000806000808480602001905181019061007a91906104d7565b92509250925061008c83838389610097565b935050505092915050565b60008046905060018103610154578573ffffffffffffffffffffffffffffffffffffffff166344b3e9238685877f305800000000000000000000000000000000000000000000000000000000000060001b60006040518663ffffffff1660e01b815260040161010a95949392919061057e565b6020604051808303816000875af1158015610129573d6000803e3d6000fd5b505050506040513d601f19601f8201168201806040525081019061014d91906105e6565b9150610212565b8573ffffffffffffffffffffffffffffffffffffffff166330ead760868587735c80239d97e1eb216b5c3d8fba5de5be5d38e4c97f305800000000000000000000000000000000000000000000000000000000000060001b6040518663ffffffff1660e01b81526004016101cc959493929190610622565b6020604051808303816000875af11580156101eb573d6000803e3d6000fd5b505050506040513d601f19601f8201168201806040525081019061020f91906105e6565b91505b50949350505050565b6000604051905090565b600080fd5b600080fd5b6000819050919050565b6102428161022f565b811461024d57600080fd5b50565b60008135905061025f81610239565b92915050565b600080fd5b600080fd5b6000601f19601f8301169050919050565b7f4e487b7100000000000000000000000000000000000000000000000000000000600052604160045260246000fd5b6102b88261026f565b810181811067ffffffffffffffff821117156102d7576102d6610280565b5b80604052505050565b60006102ea61021b565b90506102f682826102af565b919050565b600067ffffffffffffffff82111561031657610315610280565b5b61031f8261026f565b9050602081019050919050565b82818337600083830152505050565b600061034e610349846102fb565b6102e0565b90508281526020810184848401111561036a5761036961026a565b5b61037584828561032c565b509392505050565b600082601f83011261039257610391610265565b5b81356103a284826020860161033b565b91505092915050565b600080604083850312156103c2576103c1610225565b5b60006103d085828601610250565b925050602083013567ffffffffffffffff8111156103f1576103f061022a565b5b6103fd8582860161037d565b9150509250929050565b6104108161022f565b82525050565b600060208201905061042b6000830184610407565b92915050565b600073ffffffffffffffffffffffffffffffffffffffff82169050919050565b600061045c82610431565b9050919050565b600061046e82610451565b9050919050565b61047e81610463565b811461048957600080fd5b50565b60008151905061049b81610475565b92915050565b6000819050919050565b6104b4816104a1565b81146104bf57600080fd5b50565b6000815190506104d1816104ab565b92915050565b6000806000606084860312156104f0576104ef610225565b5b60006104fe8682870161048c565b935050602061050f868287016104c2565b9250506040610520868287016104c2565b9150509250925092565b610533816104a1565b82525050565b6000819050919050565b6000819050919050565b600061056861056361055e84610539565b610543565b61022f565b9050919050565b6105788161054d565b82525050565b600060a082019050610593600083018861052a565b6105a06020830187610407565b6105ad604083018661052a565b6105ba606083018561052a565b6105c7608083018461056f565b9695505050505050565b6000815190506105e081610239565b92915050565b6000602082840312156105fc576105fb610225565b5b600061060a848285016105d1565b91505092915050565b61061c81610451565b82525050565b600060a082019050610637600083018861052a565b6106446020830187610407565b610651604083018661052a565b61065e6060830185610613565b61066b608083018461052a565b969550505050505056fea26469706673582212205da8ffae6de4defce3aee6d00422eb57f3666dd92de5ac27725c7bdca1913b1e64736f6c634300081c0033",
  "linkReferences": {},
  "deployedLinkReferences": {}
}