{
  "_format": "hh-sol-artifact-1",
  "contractName": "MixinSynthetix",
  "sourceName": "contracts/src/transformers/bridges/mixins/MixinSynthetix.sol",
  "abi": [
    {
      "inputs": [
        {
          "internalType": "uint256",
          "name": "sellAmount",
          "type": "uint256"
        },
        {
          "internalType": "bytes",
          "name": "bridgeData",
          "type": "bytes"
        }
      ],
      "name": "_tradeSynthetix",
      "outputs": [
        {
          "internalType": "uint256",
          "name": "boughtAmount",
          "type": "uint256"
        }
      ],
      "stateMutability": "nonpayable",
      "type": "function"
    }
  ],
  "bytecode": "0x6080604052348015600e575f5ffd5b506104088061001c5f395ff3fe608060405234801561000f575f5ffd5b5060043610610029575f3560e01c806399a4d2d01461002d575b5f5ffd5b61004061003b366004610275565b610052565b60405190815260200160405180910390f35b5f5f5f5f8480602001905181019061006a919061036f565b92509250925061007c83838389610086565b9695505050505050565b5f466001819003610160576040517f44b3e9230000000000000000000000000000000000000000000000000000000081526004810186905260248101849052604481018590527f305800000000000000000000000000000000000000000000000000000000000060648201525f608482015273ffffffffffffffffffffffffffffffffffffffff8716906344b3e9239060a4016020604051808303815f875af1158015610135573d5f5f3e3d5ffd5b505050506040513d601f19601f8201168201806040525081019061015991906103bb565b915061023f565b6040517f30ead760000000000000000000000000000000000000000000000000000000008152600481018690526024810184905260448101859052735c80239d97e1eb216b5c3d8fba5de5be5d38e4c960648201527f3058000000000000000000000000000000000000000000000000000000000000608482015273ffffffffffffffffffffffffffffffffffffffff8716906330ead7609060a4016020604051808303815f875af1158015610218573d5f5f3e3d5ffd5b505050506040513d601f19601f8201168201806040525081019061023c91906103bb565b91505b50949350505050565b7f4e487b71000000000000000000000000000000000000000000000000000000005f52604160045260245ffd5b5f5f60408385031215610286575f5ffd5b82359150602083013567ffffffffffffffff8111156102a3575f5ffd5b8301601f810185136102b3575f5ffd5b803567ffffffffffffffff8111156102cd576102cd610248565b6040517fffffffffffffffffffffffffffffffffffffffffffffffffffffffffffffffe0603f7fffffffffffffffffffffffffffffffffffffffffffffffffffffffffffffffe0601f8501160116810181811067ffffffffffffffff8211171561033957610339610248565b604052818152828201602001871015610350575f5ffd5b816020840160208301375f602083830101528093505050509250929050565b5f5f5f60608486031215610381575f5ffd5b835173ffffffffffffffffffffffffffffffffffffffff811681146103a4575f5ffd5b602085015160409095015190969495509392505050565b5f602082840312156103cb575f5ffd5b505191905056fea26469706673582212200991c011e9f83544beeb62347b7f3efcd964e4d8d403787252e214dfcc17f42364736f6c634300081c0033",
  "linkReferences": {},
  "deployedLinkReferences": {}
}