{
  "_format": "hh-sol-artifact-1",
  "contractName": "ERC165Feature",
  "sourceName": "contracts/src/features/ERC165Feature.sol",
  "abi": [
    {
      "inputs": [],
      "name": "FEATURE_NAME",
      "outputs": [
        {
          "internalType": "string",
          "name": "",
          "type": "string"
        }
      ],
      "stateMutability": "view",
      "type": "function"
    },
    {
      "inputs": [],
      "name": "FEATURE_VERSION",
      "outputs": [
        {
          "internalType": "uint256",
          "name": "",
          "type": "uint256"
        }
      ],
      "stateMutability": "view",
      "type": "function"
    },
    {
      "inputs": [
        {
          "internalType": "bytes4",
          "name": "interfaceId",
          "type": "bytes4"
        }
      ],
      "name": "supportInterface",
      "outputs": [
        {
          "internalType": "bool",
          "name": "isSupported",
          "type": "bool"
        }
      ],
      "stateMutability": "pure",
      "type": "function"
    }
  ],
  "bytecode": "0x60c060405260156001600080605f60201b60201c565b60a090815250348015602657600080fd5b503073ffffffffffffffffffffffffffffffffffffffff1660808173ffffffffffffffffffffffffffffffffffffffff16815250506089565b60008163ffffffff1660208463ffffffff16901b60408663ffffffff16901b171790509392505050565b60805160a05161037d6100aa600039600060b401526000505061037d6000f3fe608060405234801561001057600080fd5b50600436106100415760003560e01c8063031b905c146100465780636ae4b4f71461006457806375e79be614610082575b600080fd5b61004e6100b2565b60405161005b91906101ba565b60405180910390f35b61006c6100d6565b6040516100799190610265565b60405180910390f35b61009c600480360381019061009791906102e4565b61010f565b6040516100a9919061032c565b60405180910390f35b7f000000000000000000000000000000000000000000000000000000000000000081565b6040518060400160405280600681526020017f455243313635000000000000000000000000000000000000000000000000000081525081565b60006301ffc9a760e01b827bffffffffffffffffffffffffffffffffffffffffffffffffffffffff1916148061016a575063150b7a0260e01b827bffffffffffffffffffffffffffffffffffffffffffffffffffffffff1916145b8061019a5750634e2312e060e01b827bffffffffffffffffffffffffffffffffffffffffffffffffffffffff1916145b9050919050565b6000819050919050565b6101b4816101a1565b82525050565b60006020820190506101cf60008301846101ab565b92915050565b600081519050919050565b600082825260208201905092915050565b60005b8381101561020f5780820151818401526020810190506101f4565b60008484015250505050565b6000601f19601f8301169050919050565b6000610237826101d5565b61024181856101e0565b93506102518185602086016101f1565b61025a8161021b565b840191505092915050565b6000602082019050818103600083015261027f818461022c565b905092915050565b600080fd5b60007fffffffff0000000000000000000000000000000000000000000000000000000082169050919050565b6102c18161028c565b81146102cc57600080fd5b50565b6000813590506102de816102b8565b92915050565b6000602082840312156102fa576102f9610287565b5b6000610308848285016102cf565b91505092915050565b60008115159050919050565b61032681610311565b82525050565b6000602082019050610341600083018461031d565b9291505056fea2646970667358221220b729d6f8f9740ac3bf61b17903ad1aacb95e128aa29b480737e38b88ca5fe70e64736f6c634300081c0033",
  "linkReferences": {},
  "deployedLinkReferences": {}
}