{
  "_format": "hh-sol-artifact-1",
  "contractName": "TestMetaTransactionsNativeOrdersFeature",
  "sourceName": "contracts/test/TestMetaTransactionsNativeOrdersFeature.sol",
  "abi": [
    {
      "inputs": [],
      "stateMutability": "nonpayable",
      "type": "constructor"
    },
    {
      "anonymous": false,
      "inputs": [
        {
          "components": [
            {
              "internalType": "contract IERC20Token",
              "name": "makerToken",
              "type": "address"
            },
            {
              "internalType": "contract IERC20Token",
              "name": "takerToken",
              "type": "address"
            },
            {
              "internalType": "uint128",
              "name": "makerAmount",
              "type": "uint128"
            },
            {
              "internalType": "uint128",
              "name": "takerAmount",
              "type": "uint128"
            },
            {
              "internalType": "uint128",
              "name": "takerTokenFeeAmount",
              "type": "uint128"
            },
            {
              "internalType": "address",
              "name": "maker",
              "type": "address"
            },
            {
              "internalType": "address",
              "name": "taker",
              "type": "address"
            },
            {
              "internalType": "address",
              "name": "sender",
              "type": "address"
            },
            {
              "internalType": "address",
              "name": "feeRecipient",
              "type": "address"
            },
            {
              "internalType": "bytes32",
              "name": "pool",
              "type": "bytes32"
            },
            {
              "internalType": "uint64",
              "name": "expiry",
              "type": "uint64"
            },
            {
              "internalType": "uint256",
              "name": "salt",
              "type": "uint256"
            }
          ],
          "indexed": false,
          "internalType": "struct LibNativeOrder.LimitOrder",
          "name": "order",
          "type": "tuple"
        },
        {
          "indexed": false,
          "internalType": "enum LibSignature.SignatureType",
          "name": "signatureType",
          "type": "uint8"
        },
        {
          "indexed": false,
          "internalType": "uint8",
          "name": "v",
          "type": "uint8"
        },
        {
          "indexed": false,
          "internalType": "bytes32",
          "name": "r",
          "type": "bytes32"
        },
        {
          "indexed": false,
          "internalType": "bytes32",
          "name": "s",
          "type": "bytes32"
        },
        {
          "indexed": false,
          "internalType": "uint128",
          "name": "takerTokenFillAmount",
          "type": "uint128"
        },
        {
          "indexed": false,
          "internalType": "address",
          "name": "taker",
          "type": "address"
        },
        {
          "indexed": false,
          "internalType": "address",
          "name": "sender",
          "type": "address"
        }
      ],
      "name": "FillLimitOrderCalled",
      "type": "event"
    },
    {
      "anonymous": false,
      "inputs": [
        {
          "components": [
            {
              "internalType": "contract IERC20Token",
              "name": "makerToken",
              "type": "address"
            },
            {
              "internalType": "contract IERC20Token",
              "name": "takerToken",
              "type": "address"
            },
            {
              "internalType": "uint128",
              "name": "makerAmount",
              "type": "uint128"
            },
            {
              "internalType": "uint128",
              "name": "takerAmount",
              "type": "uint128"
            },
            {
              "internalType": "address",
              "name": "maker",
              "type": "address"
            },
            {
              "internalType": "address",
              "name": "taker",
              "type": "address"
            },
            {
              "internalType": "address",
              "name": "txOrigin",
              "type": "address"
            },
            {
              "internalType": "bytes32",
              "name": "pool",
              "type": "bytes32"
            },
            {
              "internalType": "uint64",
              "name": "expiry",
              "type": "uint64"
            },
            {
              "internalType": "uint256",
              "name": "salt",
              "type": "uint256"
            }
          ],
          "indexed": false,
          "internalType": "struct LibNativeOrder.RfqOrder",
          "name": "order",
          "type": "tuple"
        },
        {
          "indexed": false,
          "internalType": "enum LibSignature.SignatureType",
          "name": "signatureType",
          "type": "uint8"
        },
        {
          "indexed": false,
          "internalType": "uint8",
          "name": "v",
          "type": "uint8"
        },
        {
          "indexed": false,
          "internalType": "bytes32",
          "name": "r",
          "type": "bytes32"
        },
        {
          "indexed": false,
          "internalType": "bytes32",
          "name": "s",
          "type": "bytes32"
        },
        {
          "indexed": false,
          "internalType": "uint128",
          "name": "takerTokenFillAmount",
          "type": "uint128"
        },
        {
          "indexed": false,
          "internalType": "address",
          "name": "taker",
          "type": "address"
        }
      ],
      "name": "FillRfqOrderCalled",
      "type": "event"
    },
    {
      "anonymous": false,
      "inputs": [
        {
          "indexed": false,
          "internalType": "bytes32",
          "name": "orderHash",
          "type": "bytes32"
        },
        {
          "indexed": false,
          "internalType": "address",
          "name": "maker",
          "type": "address"
        },
        {
          "indexed": false,
          "internalType": "address",
          "name": "taker",
          "type": "address"
        },
        {
          "indexed": false,
          "internalType": "address",
          "name": "feeRecipient",
          "type": "address"
        },
        {
          "indexed": false,
          "internalType": "address",
          "name": "makerToken",
          "type": "address"
        },
        {
          "indexed": false,
          "internalType": "address",
          "name": "takerToken",
          "type": "address"
        },
        {
          "indexed": false,
          "internalType": "uint128",
          "name": "takerTokenFilledAmount",
          "type": "uint128"
        },
        {
          "indexed": false,
          "internalType": "uint128",
          "name": "makerTokenFilledAmount",
          "type": "uint128"
        },
        {
          "indexed": false,
          "internalType": "uint128",
          "name": "takerTokenFeeFilledAmount",
          "type": "uint128"
        },
        {
          "indexed": false,
          "internalType": "uint256",
          "name": "protocolFeePaid",
          "type": "uint256"
        },
        {
          "indexed": false,
          "internalType": "bytes32",
          "name": "pool",
          "type": "bytes32"
        }
      ],
      "name": "LimitOrderFilled",
      "type": "event"
    },
    {
      "anonymous": false,
      "inputs": [
        {
          "indexed": false,
          "internalType": "bytes32",
          "name": "orderHash",
          "type": "bytes32"
        },
        {
          "indexed": false,
          "internalType": "address",
          "name": "maker",
          "type": "address"
        }
      ],
      "name": "OrderCancelled",
      "type": "event"
    },
    {
      "anonymous": false,
      "inputs": [
        {
          "indexed": false,
          "internalType": "address",
          "name": "maker",
          "type": "address"
        },
        {
          "indexed": false,
          "internalType": "address",
          "name": "signer",
          "type": "address"
        },
        {
          "indexed": false,
          "internalType": "bool",
          "name": "allowed",
          "type": "bool"
        }
      ],
      "name": "OrderSignerRegistered",
      "type": "event"
    },
    {
      "anonymous": false,
      "inputs": [
        {
          "indexed": false,
          "internalType": "address",
          "name": "maker",
          "type": "address"
        },
        {
          "indexed": false,
          "internalType": "address",
          "name": "makerToken",
          "type": "address"
        },
        {
          "indexed": false,
          "internalType": "address",
          "name": "takerToken",
          "type": "address"
        },
        {
          "indexed": false,
          "internalType": "uint256",
          "name": "minValidSalt",
          "type": "uint256"
        }
      ],
      "name": "PairCancelledLimitOrders",
      "type": "event"
    },
    {
      "anonymous": false,
      "inputs": [
        {
          "indexed": false,
          "internalType": "address",
          "name": "maker",
          "type": "address"
        },
        {
          "indexed": false,
          "internalType": "address",
          "name": "makerToken",
          "type": "address"
        },
        {
          "indexed": false,
          "internalType": "address",
          "name": "takerToken",
          "type": "address"
        },
        {
          "indexed": false,
          "internalType": "uint256",
          "name": "minValidSalt",
          "type": "uint256"
        }
      ],
      "name": "PairCancelledRfqOrders",
      "type": "event"
    },
    {
      "anonymous": false,
      "inputs": [
        {
          "indexed": false,
          "internalType": "bytes32",
          "name": "orderHash",
          "type": "bytes32"
        },
        {
          "indexed": false,
          "internalType": "address",
          "name": "maker",
          "type": "address"
        },
        {
          "indexed": false,
          "internalType": "address",
          "name": "taker",
          "type": "address"
        },
        {
          "indexed": false,
          "internalType": "address",
          "name": "makerToken",
          "type": "address"
        },
        {
          "indexed": false,
          "internalType": "address",
          "name": "takerToken",
          "type": "address"
        },
        {
          "indexed": false,
          "internalType": "uint128",
          "name": "takerTokenFilledAmount",
          "type": "uint128"
        },
        {
          "indexed": false,
          "internalType": "uint128",
          "name": "makerTokenFilledAmount",
          "type": "uint128"
        },
        {
          "indexed": false,
          "internalType": "bytes32",
          "name": "pool",
          "type": "bytes32"
        }
      ],
      "name": "RfqOrderFilled",
      "type": "event"
    },
    {
      "anonymous": false,
      "inputs": [
        {
          "indexed": false,
          "internalType": "address",
          "name": "origin",
          "type": "address"
        },
        {
          "indexed": false,
          "internalType": "address[]",
          "name": "addrs",
          "type": "address[]"
        },
        {
          "indexed": false,
          "internalType": "bool",
          "name": "allowed",
          "type": "bool"
        }
      ],
      "name": "RfqOrderOriginsAllowed",
      "type": "event"
    },
    {
      "inputs": [],
      "name": "EIP712_DOMAIN_SEPARATOR",
      "outputs": [
        {
          "internalType": "bytes32",
          "name": "",
          "type": "bytes32"
        }
      ],
      "stateMutability": "view",
      "type": "function"
    },
    {
      "inputs": [],
      "name": "FEATURE_NAME",
      "outputs": [
        {
          "internalType": "string",
          "name": "",
          "type": "string"
        }
      ],
      "stateMutability": "view",
      "type": "function"
    },
    {
      "inputs": [],
      "name": "FEATURE_VERSION",
      "outputs": [
        {
          "internalType": "uint256",
          "name": "",
          "type": "uint256"
        }
      ],
      "stateMutability": "view",
      "type": "function"
    },
    {
      "inputs": [],
      "name": "PROTOCOL_FEE_MULTIPLIER",
      "outputs": [
        {
          "internalType": "uint32",
          "name": "",
          "type": "uint32"
        }
      ],
      "stateMutability": "view",
      "type": "function"
    },
    {
      "inputs": [
        {
          "components": [
            {
              "internalType": "contract IERC20Token",
              "name": "makerToken",
              "type": "address"
            },
            {
              "internalType": "contract IERC20Token",
              "name": "takerToken",
              "type": "address"
            },
            {
              "internalType": "uint128",
              "name": "makerAmount",
              "type": "uint128"
            },
            {
              "internalType": "uint128",
              "name": "takerAmount",
              "type": "uint128"
            },
            {
              "internalType": "uint128",
              "name": "takerTokenFeeAmount",
              "type": "uint128"
            },
            {
              "internalType": "address",
              "name": "maker",
              "type": "address"
            },
            {
              "internalType": "address",
              "name": "taker",
              "type": "address"
            },
            {
              "internalType": "address",
              "name": "sender",
              "type": "address"
            },
            {
              "internalType": "address",
              "name": "feeRecipient",
              "type": "address"
            },
            {
              "internalType": "bytes32",
              "name": "pool",
              "type": "bytes32"
            },
            {
              "internalType": "uint64",
              "name": "expiry",
              "type": "uint64"
            },
            {
              "internalType": "uint256",
              "name": "salt",
              "type": "uint256"
            }
          ],
          "internalType": "struct LibNativeOrder.LimitOrder",
          "name": "order",
          "type": "tuple"
        },
        {
          "components": [
            {
              "internalType": "enum LibSignature.SignatureType",
              "name": "signatureType",
              "type": "uint8"
            },
            {
              "internalType": "uint8",
              "name": "v",
              "type": "uint8"
            },
            {
              "internalType": "bytes32",
              "name": "r",
              "type": "bytes32"
            },
            {
              "internalType": "bytes32",
              "name": "s",
              "type": "bytes32"
            }
          ],
          "internalType": "struct LibSignature.Signature",
          "name": "signature",
          "type": "tuple"
        },
        {
          "internalType": "uint128",
          "name": "takerTokenFillAmount",
          "type": "uint128"
        },
        {
          "internalType": "address",
          "name": "taker",
          "type": "address"
        },
        {
          "internalType": "address",
          "name": "sender",
          "type": "address"
        }
      ],
      "name": "_fillLimitOrder",
      "outputs": [
        {
          "internalType": "uint128",
          "name": "takerTokenFilledAmount",
          "type": "uint128"
        },
        {
          "internalType": "uint128",
          "name": "makerTokenFilledAmount",
          "type": "uint128"
        }
      ],
      "stateMutability": "payable",
      "type": "function"
    },
    {
      "inputs": [
        {
          "components": [
            {
              "internalType": "contract IERC20Token",
              "name": "makerToken",
              "type": "address"
            },
            {
              "internalType": "contract IERC20Token",
              "name": "takerToken",
              "type": "address"
            },
            {
              "internalType": "uint128",
              "name": "makerAmount",
              "type": "uint128"
            },
            {
              "internalType": "uint128",
              "name": "takerAmount",
              "type": "uint128"
            },
            {
              "internalType": "address",
              "name": "maker",
              "type": "address"
            },
            {
              "internalType": "address",
              "name": "taker",
              "type": "address"
            },
            {
              "internalType": "address",
              "name": "txOrigin",
              "type": "address"
            },
            {
              "internalType": "bytes32",
              "name": "pool",
              "type": "bytes32"
            },
            {
              "internalType": "uint64",
              "name": "expiry",
              "type": "uint64"
            },
            {
              "internalType": "uint256",
              "name": "salt",
              "type": "uint256"
            }
          ],
          "internalType": "struct LibNativeOrder.RfqOrder",
          "name": "order",
          "type": "tuple"
        },
        {
          "components": [
            {
              "internalType": "enum LibSignature.SignatureType",
              "name": "signatureType",
              "type": "uint8"
            },
            {
              "internalType": "uint8",
              "name": "v",
              "type": "uint8"
            },
            {
              "internalType": "bytes32",
              "name": "r",
              "type": "bytes32"
            },
            {
              "internalType": "bytes32",
              "name": "s",
              "type": "bytes32"
            }
          ],
          "internalType": "struct LibSignature.Signature",
          "name": "signature",
          "type": "tuple"
        },
        {
          "internalType": "uint128",
          "name": "takerTokenFillAmount",
          "type": "uint128"
        },
        {
          "internalType": "address",
          "name": "taker",
          "type": "address"
        },
        {
          "internalType": "bool",
          "name": "",
          "type": "bool"
        },
        {
          "internalType": "address",
          "name": "",
          "type": "address"
        }
      ],
      "name": "_fillRfqOrder",
      "outputs": [
        {
          "internalType": "uint128",
          "name": "takerTokenFilledAmount",
          "type": "uint128"
        },
        {
          "internalType": "uint128",
          "name": "makerTokenFilledAmount",
          "type": "uint128"
        }
      ],
      "stateMutability": "nonpayable",
      "type": "function"
    },
    {
      "inputs": [
        {
          "components": [
            {
              "internalType": "contract IERC20Token",
              "name": "makerToken",
              "type": "address"
            },
            {
              "internalType": "contract IERC20Token",
              "name": "takerToken",
              "type": "address"
            },
            {
              "internalType": "uint128",
              "name": "makerAmount",
              "type": "uint128"
            },
            {
              "internalType": "uint128",
              "name": "takerAmount",
              "type": "uint128"
            },
            {
              "internalType": "uint128",
              "name": "takerTokenFeeAmount",
              "type": "uint128"
            },
            {
              "internalType": "address",
              "name": "maker",
              "type": "address"
            },
            {
              "internalType": "address",
              "name": "taker",
              "type": "address"
            },
            {
              "internalType": "address",
              "name": "sender",
              "type": "address"
            },
            {
              "internalType": "address",
              "name": "feeRecipient",
              "type": "address"
            },
            {
              "internalType": "bytes32",
              "name": "pool",
              "type": "bytes32"
            },
            {
              "internalType": "uint64",
              "name": "expiry",
              "type": "uint64"
            },
            {
              "internalType": "uint256",
              "name": "salt",
              "type": "uint256"
            }
          ],
          "internalType": "struct LibNativeOrder.LimitOrder[]",
          "name": "orders",
          "type": "tuple[]"
        }
      ],
      "name": "batchCancelLimitOrders",
      "outputs": [],
      "stateMutability": "nonpayable",
      "type": "function"
    },
    {
      "inputs": [
        {
          "internalType": "contract IERC20Token[]",
          "name": "makerTokens",
          "type": "address[]"
        },
        {
          "internalType": "contract IERC20Token[]",
          "name": "takerTokens",
          "type": "address[]"
        },
        {
          "internalType": "uint256[]",
          "name": "minValidSalts",
          "type": "uint256[]"
        }
      ],
      "name": "batchCancelPairLimitOrders",
      "outputs": [],
      "stateMutability": "nonpayable",
      "type": "function"
    },
    {
      "inputs": [
        {
          "internalType": "address",
          "name": "maker",
          "type": "address"
        },
        {
          "internalType": "contract IERC20Token[]",
          "name": "makerTokens",
          "type": "address[]"
        },
        {
          "internalType": "contract IERC20Token[]",
          "name": "takerTokens",
          "type": "address[]"
        },
        {
          "internalType": "uint256[]",
          "name": "minValidSalts",
          "type": "uint256[]"
        }
      ],
      "name": "batchCancelPairLimitOrdersWithSigner",
      "outputs": [],
      "stateMutability": "nonpayable",
      "type": "function"
    },
    {
      "inputs": [
        {
          "internalType": "contract IERC20Token[]",
          "name": "makerTokens",
          "type": "address[]"
        },
        {
          "internalType": "contract IERC20Token[]",
          "name": "takerTokens",
          "type": "address[]"
        },
        {
          "internalType": "uint256[]",
          "name": "minValidSalts",
          "type": "uint256[]"
        }
      ],
      "name": "batchCancelPairRfqOrders",
      "outputs": [],
      "stateMutability": "nonpayable",
      "type": "function"
    },
    {
      "inputs": [
        {
          "internalType": "address",
          "name": "maker",
          "type": "address"
        },
        {
          "internalType": "contract IERC20Token[]",
          "name": "makerTokens",
          "type": "address[]"
        },
        {
          "internalType": "contract IERC20Token[]",
          "name": "takerTokens",
          "type": "address[]"
        },
        {
          "internalType": "uint256[]",
          "name": "minValidSalts",
          "type": "uint256[]"
        }
      ],
      "name": "batchCancelPairRfqOrdersWithSigner",
      "outputs": [],
      "stateMutability": "nonpayable",
      "type": "function"
    },
    {
      "inputs": [
        {
          "components": [
            {
              "internalType": "contract IERC20Token",
              "name": "makerToken",
              "type": "address"
            },
            {
              "internalType": "contract IERC20Token",
              "name": "takerToken",
              "type": "address"
            },
            {
              "internalType": "uint128",
              "name": "makerAmount",
              "type": "uint128"
            },
            {
              "internalType": "uint128",
              "name": "takerAmount",
              "type": "uint128"
            },
            {
              "internalType": "address",
              "name": "maker",
              "type": "address"
            },
            {
              "internalType": "address",
              "name": "taker",
              "type": "address"
            },
            {
              "internalType": "address",
              "name": "txOrigin",
              "type": "address"
            },
            {
              "internalType": "bytes32",
              "name": "pool",
              "type": "bytes32"
            },
            {
              "internalType": "uint64",
              "name": "expiry",
              "type": "uint64"
            },
            {
              "internalType": "uint256",
              "name": "salt",
              "type": "uint256"
            }
          ],
          "internalType": "struct LibNativeOrder.RfqOrder[]",
          "name": "orders",
          "type": "tuple[]"
        }
      ],
      "name": "batchCancelRfqOrders",
      "outputs": [],
      "stateMutability": "nonpayable",
      "type": "function"
    },
    {
      "inputs": [
        {
          "components": [
            {
              "internalType": "contract IERC20Token",
              "name": "makerToken",
              "type": "address"
            },
            {
              "internalType": "contract IERC20Token",
              "name": "takerToken",
              "type": "address"
            },
            {
              "internalType": "uint128",
              "name": "makerAmount",
              "type": "uint128"
            },
            {
              "internalType": "uint128",
              "name": "takerAmount",
              "type": "uint128"
            },
            {
              "internalType": "uint128",
              "name": "takerTokenFeeAmount",
              "type": "uint128"
            },
            {
              "internalType": "address",
              "name": "maker",
              "type": "address"
            },
            {
              "internalType": "address",
              "name": "taker",
              "type": "address"
            },
            {
              "internalType": "address",
              "name": "sender",
              "type": "address"
            },
            {
              "internalType": "address",
              "name": "feeRecipient",
              "type": "address"
            },
            {
              "internalType": "bytes32",
              "name": "pool",
              "type": "bytes32"
            },
            {
              "internalType": "uint64",
              "name": "expiry",
              "type": "uint64"
            },
            {
              "internalType": "uint256",
              "name": "salt",
              "type": "uint256"
            }
          ],
          "internalType": "struct LibNativeOrder.LimitOrder[]",
          "name": "orders",
          "type": "tuple[]"
        },
        {
          "components": [
            {
              "internalType": "enum LibSignature.SignatureType",
              "name": "signatureType",
              "type": "uint8"
            },
            {
              "internalType": "uint8",
              "name": "v",
              "type": "uint8"
            },
            {
              "internalType": "bytes32",
              "name": "r",
              "type": "bytes32"
            },
            {
              "internalType": "bytes32",
              "name": "s",
              "type": "bytes32"
            }
          ],
          "internalType": "struct LibSignature.Signature[]",
          "name": "signatures",
          "type": "tuple[]"
        }
      ],
      "name": "batchGetLimitOrderRelevantStates",
      "outputs": [
        {
          "components": [
            {
              "internalType": "bytes32",
              "name": "orderHash",
              "type": "bytes32"
            },
            {
              "internalType": "enum LibNativeOrder.OrderStatus",
              "name": "status",
              "type": "uint8"
            },
            {
              "internalType": "uint128",
              "name": "takerTokenFilledAmount",
              "type": "uint128"
            }
          ],
          "internalType": "struct LibNativeOrder.OrderInfo[]",
          "name": "orderInfos",
          "type": "tuple[]"
        },
        {
          "internalType": "uint128[]",
          "name": "actualFillableTakerTokenAmounts",
          "type": "uint128[]"
        },
        {
          "internalType": "bool[]",
          "name": "isSignatureValids",
          "type": "bool[]"
        }
      ],
      "stateMutability": "view",
      "type": "function"
    },
    {
      "inputs": [
        {
          "components": [
            {
              "internalType": "contract IERC20Token",
              "name": "makerToken",
              "type": "address"
            },
            {
              "internalType": "contract IERC20Token",
              "name": "takerToken",
              "type": "address"
            },
            {
              "internalType": "uint128",
              "name": "makerAmount",
              "type": "uint128"
            },
            {
              "internalType": "uint128",
              "name": "takerAmount",
              "type": "uint128"
            },
            {
              "internalType": "address",
              "name": "maker",
              "type": "address"
            },
            {
              "internalType": "address",
              "name": "taker",
              "type": "address"
            },
            {
              "internalType": "address",
              "name": "txOrigin",
              "type": "address"
            },
            {
              "internalType": "bytes32",
              "name": "pool",
              "type": "bytes32"
            },
            {
              "internalType": "uint64",
              "name": "expiry",
              "type": "uint64"
            },
            {
              "internalType": "uint256",
              "name": "salt",
              "type": "uint256"
            }
          ],
          "internalType": "struct LibNativeOrder.RfqOrder[]",
          "name": "orders",
          "type": "tuple[]"
        },
        {
          "components": [
            {
              "internalType": "enum LibSignature.SignatureType",
              "name": "signatureType",
              "type": "uint8"
            },
            {
              "internalType": "uint8",
              "name": "v",
              "type": "uint8"
            },
            {
              "internalType": "bytes32",
              "name": "r",
              "type": "bytes32"
            },
            {
              "internalType": "bytes32",
              "name": "s",
              "type": "bytes32"
            }
          ],
          "internalType": "struct LibSignature.Signature[]",
          "name": "signatures",
          "type": "tuple[]"
        }
      ],
      "name": "batchGetRfqOrderRelevantStates",
      "outputs": [
        {
          "components": [
            {
              "internalType": "bytes32",
              "name": "orderHash",
              "type": "bytes32"
            },
            {
              "internalType": "enum LibNativeOrder.OrderStatus",
              "name": "status",
              "type": "uint8"
            },
            {
              "internalType": "uint128",
              "name": "takerTokenFilledAmount",
              "type": "uint128"
            }
          ],
          "internalType": "struct LibNativeOrder.OrderInfo[]",
          "name": "orderInfos",
          "type": "tuple[]"
        },
        {
          "internalType": "uint128[]",
          "name": "actualFillableTakerTokenAmounts",
          "type": "uint128[]"
        },
        {
          "internalType": "bool[]",
          "name": "isSignatureValids",
          "type": "bool[]"
        }
      ],
      "stateMutability": "view",
      "type": "function"
    },
    {
      "inputs": [
        {
          "components": [
            {
              "internalType": "contract IERC20Token",
              "name": "makerToken",
              "type": "address"
            },
            {
              "internalType": "contract IERC20Token",
              "name": "takerToken",
              "type": "address"
            },
            {
              "internalType": "uint128",
              "name": "makerAmount",
              "type": "uint128"
            },
            {
              "internalType": "uint128",
              "name": "takerAmount",
              "type": "uint128"
            },
            {
              "internalType": "uint128",
              "name": "takerTokenFeeAmount",
              "type": "uint128"
            },
            {
              "internalType": "address",
              "name": "maker",
              "type": "address"
            },
            {
              "internalType": "address",
              "name": "taker",
              "type": "address"
            },
            {
              "internalType": "address",
              "name": "sender",
              "type": "address"
            },
            {
              "internalType": "address",
              "name": "feeRecipient",
              "type": "address"
            },
            {
              "internalType": "bytes32",
              "name": "pool",
              "type": "bytes32"
            },
            {
              "internalType": "uint64",
              "name": "expiry",
              "type": "uint64"
            },
            {
              "internalType": "uint256",
              "name": "salt",
              "type": "uint256"
            }
          ],
          "internalType": "struct LibNativeOrder.LimitOrder",
          "name": "order",
          "type": "tuple"
        }
      ],
      "name": "cancelLimitOrder",
      "outputs": [],
      "stateMutability": "nonpayable",
      "type": "function"
    },
    {
      "inputs": [
        {
          "internalType": "contract IERC20Token",
          "name": "makerToken",
          "type": "address"
        },
        {
          "internalType": "contract IERC20Token",
          "name": "takerToken",
          "type": "address"
        },
        {
          "internalType": "uint256",
          "name": "minValidSalt",
          "type": "uint256"
        }
      ],
      "name": "cancelPairLimitOrders",
      "outputs": [],
      "stateMutability": "nonpayable",
      "type": "function"
    },
    {
      "inputs": [
        {
          "internalType": "address",
          "name": "maker",
          "type": "address"
        },
        {
          "internalType": "contract IERC20Token",
          "name": "makerToken",
          "type": "address"
        },
        {
          "internalType": "contract IERC20Token",
          "name": "takerToken",
          "type": "address"
        },
        {
          "internalType": "uint256",
          "name": "minValidSalt",
          "type": "uint256"
        }
      ],
      "name": "cancelPairLimitOrdersWithSigner",
      "outputs": [],
      "stateMutability": "nonpayable",
      "type": "function"
    },
    {
      "inputs": [
        {
          "internalType": "contract IERC20Token",
          "name": "makerToken",
          "type": "address"
        },
        {
          "internalType": "contract IERC20Token",
          "name": "takerToken",
          "type": "address"
        },
        {
          "internalType": "uint256",
          "name": "minValidSalt",
          "type": "uint256"
        }
      ],
      "name": "cancelPairRfqOrders",
      "outputs": [],
      "stateMutability": "nonpayable",
      "type": "function"
    },
    {
      "inputs": [
        {
          "internalType": "address",
          "name": "maker",
          "type": "address"
        },
        {
          "internalType": "contract IERC20Token",
          "name": "makerToken",
          "type": "address"
        },
        {
          "internalType": "contract IERC20Token",
          "name": "takerToken",
          "type": "address"
        },
        {
          "internalType": "uint256",
          "name": "minValidSalt",
          "type": "uint256"
        }
      ],
      "name": "cancelPairRfqOrdersWithSigner",
      "outputs": [],
      "stateMutability": "nonpayable",
      "type": "function"
    },
    {
      "inputs": [
        {
          "components": [
            {
              "internalType": "contract IERC20Token",
              "name": "makerToken",
              "type": "address"
            },
            {
              "internalType": "contract IERC20Token",
              "name": "takerToken",
              "type": "address"
            },
            {
              "internalType": "uint128",
              "name": "makerAmount",
              "type": "uint128"
            },
            {
              "internalType": "uint128",
              "name": "takerAmount",
              "type": "uint128"
            },
            {
              "internalType": "address",
              "name": "maker",
              "type": "address"
            },
            {
              "internalType": "address",
              "name": "taker",
              "type": "address"
            },
            {
              "internalType": "address",
              "name": "txOrigin",
              "type": "address"
            },
            {
              "internalType": "bytes32",
              "name": "pool",
              "type": "bytes32"
            },
            {
              "internalType": "uint64",
              "name": "expiry",
              "type": "uint64"
            },
            {
              "internalType": "uint256",
              "name": "salt",
              "type": "uint256"
            }
          ],
          "internalType": "struct LibNativeOrder.RfqOrder",
          "name": "order",
          "type": "tuple"
        }
      ],
      "name": "cancelRfqOrder",
      "outputs": [],
      "stateMutability": "nonpayable",
      "type": "function"
    },
    {
      "inputs": [
        {
          "components": [
            {
              "internalType": "contract IERC20Token",
              "name": "makerToken",
              "type": "address"
            },
            {
              "internalType": "contract IERC20Token",
              "name": "takerToken",
              "type": "address"
            },
            {
              "internalType": "uint128",
              "name": "makerAmount",
              "type": "uint128"
            },
            {
              "internalType": "uint128",
              "name": "takerAmount",
              "type": "uint128"
            },
            {
              "internalType": "uint128",
              "name": "takerTokenFeeAmount",
              "type": "uint128"
            },
            {
              "internalType": "address",
              "name": "maker",
              "type": "address"
            },
            {
              "internalType": "address",
              "name": "taker",
              "type": "address"
            },
            {
              "internalType": "address",
              "name": "sender",
              "type": "address"
            },
            {
              "internalType": "address",
              "name": "feeRecipient",
              "type": "address"
            },
            {
              "internalType": "bytes32",
              "name": "pool",
              "type": "bytes32"
            },
            {
              "internalType": "uint64",
              "name": "expiry",
              "type": "uint64"
            },
            {
              "internalType": "uint256",
              "name": "salt",
              "type": "uint256"
            }
          ],
          "internalType": "struct LibNativeOrder.LimitOrder",
          "name": "order",
          "type": "tuple"
        },
        {
          "components": [
            {
              "internalType": "enum LibSignature.SignatureType",
              "name": "signatureType",
              "type": "uint8"
            },
            {
              "internalType": "uint8",
              "name": "v",
              "type": "uint8"
            },
            {
              "internalType": "bytes32",
              "name": "r",
              "type": "bytes32"
            },
            {
              "internalType": "bytes32",
              "name": "s",
              "type": "bytes32"
            }
          ],
          "internalType": "struct LibSignature.Signature",
          "name": "signature",
          "type": "tuple"
        },
        {
          "internalType": "uint128",
          "name": "takerTokenFillAmount",
          "type": "uint128"
        }
      ],
      "name": "fillLimitOrder",
      "outputs": [
        {
          "internalType": "uint128",
          "name": "takerTokenFilledAmount",
          "type": "uint128"
        },
        {
          "internalType": "uint128",
          "name": "makerTokenFilledAmount",
          "type": "uint128"
        }
      ],
      "stateMutability": "payable",
      "type": "function"
    },
    {
      "inputs": [
        {
          "components": [
            {
              "internalType": "contract IERC20Token",
              "name": "makerToken",
              "type": "address"
            },
            {
              "internalType": "contract IERC20Token",
              "name": "takerToken",
              "type": "address"
            },
            {
              "internalType": "uint128",
              "name": "makerAmount",
              "type": "uint128"
            },
            {
              "internalType": "uint128",
              "name": "takerAmount",
              "type": "uint128"
            },
            {
              "internalType": "uint128",
              "name": "takerTokenFeeAmount",
              "type": "uint128"
            },
            {
              "internalType": "address",
              "name": "maker",
              "type": "address"
            },
            {
              "internalType": "address",
              "name": "taker",
              "type": "address"
            },
            {
              "internalType": "address",
              "name": "sender",
              "type": "address"
            },
            {
              "internalType": "address",
              "name": "feeRecipient",
              "type": "address"
            },
            {
              "internalType": "bytes32",
              "name": "pool",
              "type": "bytes32"
            },
            {
              "internalType": "uint64",
              "name": "expiry",
              "type": "uint64"
            },
            {
              "internalType": "uint256",
              "name": "salt",
              "type": "uint256"
            }
          ],
          "internalType": "struct LibNativeOrder.LimitOrder",
          "name": "order",
          "type": "tuple"
        },
        {
          "components": [
            {
              "internalType": "enum LibSignature.SignatureType",
              "name": "signatureType",
              "type": "uint8"
            },
            {
              "internalType": "uint8",
              "name": "v",
              "type": "uint8"
            },
            {
              "internalType": "bytes32",
              "name": "r",
              "type": "bytes32"
            },
            {
              "internalType": "bytes32",
              "name": "s",
              "type": "bytes32"
            }
          ],
          "internalType": "struct LibSignature.Signature",
          "name": "signature",
          "type": "tuple"
        },
        {
          "internalType": "uint128",
          "name": "takerTokenFillAmount",
          "type": "uint128"
        }
      ],
      "name": "fillOrKillLimitOrder",
      "outputs": [
        {
          "internalType": "uint128",
          "name": "makerTokenFilledAmount",
          "type": "uint128"
        }
      ],
      "stateMutability": "payable",
      "type": "function"
    },
    {
      "inputs": [
        {
          "components": [
            {
              "internalType": "contract IERC20Token",
              "name": "makerToken",
              "type": "address"
            },
            {
              "internalType": "contract IERC20Token",
              "name": "takerToken",
              "type": "address"
            },
            {
              "internalType": "uint128",
              "name": "makerAmount",
              "type": "uint128"
            },
            {
              "internalType": "uint128",
              "name": "takerAmount",
              "type": "uint128"
            },
            {
              "internalType": "address",
              "name": "maker",
              "type": "address"
            },
            {
              "internalType": "address",
              "name": "taker",
              "type": "address"
            },
            {
              "internalType": "address",
              "name": "txOrigin",
              "type": "address"
            },
            {
              "internalType": "bytes32",
              "name": "pool",
              "type": "bytes32"
            },
            {
              "internalType": "uint64",
              "name": "expiry",
              "type": "uint64"
            },
            {
              "internalType": "uint256",
              "name": "salt",
              "type": "uint256"
            }
          ],
          "internalType": "struct LibNativeOrder.RfqOrder",
          "name": "order",
          "type": "tuple"
        },
        {
          "components": [
            {
              "internalType": "enum LibSignature.SignatureType",
              "name": "signatureType",
              "type": "uint8"
            },
            {
              "internalType": "uint8",
              "name": "v",
              "type": "uint8"
            },
            {
              "internalType": "bytes32",
              "name": "r",
              "type": "bytes32"
            },
            {
              "internalType": "bytes32",
              "name": "s",
              "type": "bytes32"
            }
          ],
          "internalType": "struct LibSignature.Signature",
          "name": "signature",
          "type": "tuple"
        },
        {
          "internalType": "uint128",
          "name": "takerTokenFillAmount",
          "type": "uint128"
        }
      ],
      "name": "fillOrKillRfqOrder",
      "outputs": [
        {
          "internalType": "uint128",
          "name": "makerTokenFilledAmount",
          "type": "uint128"
        }
      ],
      "stateMutability": "nonpayable",
      "type": "function"
    },
    {
      "inputs": [
        {
          "components": [
            {
              "internalType": "contract IERC20Token",
              "name": "makerToken",
              "type": "address"
            },
            {
              "internalType": "contract IERC20Token",
              "name": "takerToken",
              "type": "address"
            },
            {
              "internalType": "uint128",
              "name": "makerAmount",
              "type": "uint128"
            },
            {
              "internalType": "uint128",
              "name": "takerAmount",
              "type": "uint128"
            },
            {
              "internalType": "address",
              "name": "maker",
              "type": "address"
            },
            {
              "internalType": "address",
              "name": "taker",
              "type": "address"
            },
            {
              "internalType": "address",
              "name": "txOrigin",
              "type": "address"
            },
            {
              "internalType": "bytes32",
              "name": "pool",
              "type": "bytes32"
            },
            {
              "internalType": "uint64",
              "name": "expiry",
              "type": "uint64"
            },
            {
              "internalType": "uint256",
              "name": "salt",
              "type": "uint256"
            }
          ],
          "internalType": "struct LibNativeOrder.RfqOrder",
          "name": "order",
          "type": "tuple"
        },
        {
          "components": [
            {
              "internalType": "enum LibSignature.SignatureType",
              "name": "signatureType",
              "type": "uint8"
            },
            {
              "internalType": "uint8",
              "name": "v",
              "type": "uint8"
            },
            {
              "internalType": "bytes32",
              "name": "r",
              "type": "bytes32"
            },
            {
              "internalType": "bytes32",
              "name": "s",
              "type": "bytes32"
            }
          ],
          "internalType": "struct LibSignature.Signature",
          "name": "signature",
          "type": "tuple"
        },
        {
          "internalType": "uint128",
          "name": "takerTokenFillAmount",
          "type": "uint128"
        }
      ],
      "name": "fillRfqOrder",
      "outputs": [
        {
          "internalType": "uint128",
          "name": "takerTokenFilledAmount",
          "type": "uint128"
        },
        {
          "internalType": "uint128",
          "name": "makerTokenFilledAmount",
          "type": "uint128"
        }
      ],
      "stateMutability": "nonpayable",
      "type": "function"
    },
    {
      "inputs": [
        {
          "components": [
            {
              "internalType": "contract IERC20Token",
              "name": "makerToken",
              "type": "address"
            },
            {
              "internalType": "contract IERC20Token",
              "name": "takerToken",
              "type": "address"
            },
            {
              "internalType": "uint128",
              "name": "makerAmount",
              "type": "uint128"
            },
            {
              "internalType": "uint128",
              "name": "takerAmount",
              "type": "uint128"
            },
            {
              "internalType": "uint128",
              "name": "takerTokenFeeAmount",
              "type": "uint128"
            },
            {
              "internalType": "address",
              "name": "maker",
              "type": "address"
            },
            {
              "internalType": "address",
              "name": "taker",
              "type": "address"
            },
            {
              "internalType": "address",
              "name": "sender",
              "type": "address"
            },
            {
              "internalType": "address",
              "name": "feeRecipient",
              "type": "address"
            },
            {
              "internalType": "bytes32",
              "name": "pool",
              "type": "bytes32"
            },
            {
              "internalType": "uint64",
              "name": "expiry",
              "type": "uint64"
            },
            {
              "internalType": "uint256",
              "name": "salt",
              "type": "uint256"
            }
          ],
          "internalType": "struct LibNativeOrder.LimitOrder",
          "name": "order",
          "type": "tuple"
        }
      ],
      "name": "getLimitOrderHash",
      "outputs": [
        {
          "internalType": "bytes32",
          "name": "orderHash",
          "type": "bytes32"
        }
      ],
      "stateMutability": "view",
      "type": "function"
    },
    {
      "inputs": [
        {
          "components": [
            {
              "internalType": "contract IERC20Token",
              "name": "makerToken",
              "type": "address"
            },
            {
              "internalType": "contract IERC20Token",
              "name": "takerToken",
              "type": "address"
            },
            {
              "internalType": "uint128",
              "name": "makerAmount",
              "type": "uint128"
            },
            {
              "internalType": "uint128",
              "name": "takerAmount",
              "type": "uint128"
            },
            {
              "internalType": "uint128",
              "name": "takerTokenFeeAmount",
              "type": "uint128"
            },
            {
              "internalType": "address",
              "name": "maker",
              "type": "address"
            },
            {
              "internalType": "address",
              "name": "taker",
              "type": "address"
            },
            {
              "internalType": "address",
              "name": "sender",
              "type": "address"
            },
            {
              "internalType": "address",
              "name": "feeRecipient",
              "type": "address"
            },
            {
              "internalType": "bytes32",
              "name": "pool",
              "type": "bytes32"
            },
            {
              "internalType": "uint64",
              "name": "expiry",
              "type": "uint64"
            },
            {
              "internalType": "uint256",
              "name": "salt",
              "type": "uint256"
            }
          ],
          "internalType": "struct LibNativeOrder.LimitOrder",
          "name": "order",
          "type": "tuple"
        }
      ],
      "name": "getLimitOrderInfo",
      "outputs": [
        {
          "components": [
            {
              "internalType": "bytes32",
              "name": "orderHash",
              "type": "bytes32"
            },
            {
              "internalType": "enum LibNativeOrder.OrderStatus",
              "name": "status",
              "type": "uint8"
            },
            {
              "internalType": "uint128",
              "name": "takerTokenFilledAmount",
              "type": "uint128"
            }
          ],
          "internalType": "struct LibNativeOrder.OrderInfo",
          "name": "orderInfo",
          "type": "tuple"
        }
      ],
      "stateMutability": "view",
      "type": "function"
    },
    {
      "inputs": [
        {
          "components": [
            {
              "internalType": "contract IERC20Token",
              "name": "makerToken",
              "type": "address"
            },
            {
              "internalType": "contract IERC20Token",
              "name": "takerToken",
              "type": "address"
            },
            {
              "internalType": "uint128",
              "name": "makerAmount",
              "type": "uint128"
            },
            {
              "internalType": "uint128",
              "name": "takerAmount",
              "type": "uint128"
            },
            {
              "internalType": "uint128",
              "name": "takerTokenFeeAmount",
              "type": "uint128"
            },
            {
              "internalType": "address",
              "name": "maker",
              "type": "address"
            },
            {
              "internalType": "address",
              "name": "taker",
              "type": "address"
            },
            {
              "internalType": "address",
              "name": "sender",
              "type": "address"
            },
            {
              "internalType": "address",
              "name": "feeRecipient",
              "type": "address"
            },
            {
              "internalType": "bytes32",
              "name": "pool",
              "type": "bytes32"
            },
            {
              "internalType": "uint64",
              "name": "expiry",
              "type": "uint64"
            },
            {
              "internalType": "uint256",
              "name": "salt",
              "type": "uint256"
            }
          ],
          "internalType": "struct LibNativeOrder.LimitOrder",
          "name": "order",
          "type": "tuple"
        },
        {
          "components": [
            {
              "internalType": "enum LibSignature.SignatureType",
              "name": "signatureType",
              "type": "uint8"
            },
            {
              "internalType": "uint8",
              "name": "v",
              "type": "uint8"
            },
            {
              "internalType": "bytes32",
              "name": "r",
              "type": "bytes32"
            },
            {
              "internalType": "bytes32",
              "name": "s",
              "type": "bytes32"
            }
          ],
          "internalType": "struct LibSignature.Signature",
          "name": "signature",
          "type": "tuple"
        }
      ],
      "name": "getLimitOrderRelevantState",
      "outputs": [
        {
          "components": [
            {
              "internalType": "bytes32",
              "name": "orderHash",
              "type": "bytes32"
            },
            {
              "internalType": "enum LibNativeOrder.OrderStatus",
              "name": "status",
              "type": "uint8"
            },
            {
              "internalType": "uint128",
              "name": "takerTokenFilledAmount",
              "type": "uint128"
            }
          ],
          "internalType": "struct LibNativeOrder.OrderInfo",
          "name": "orderInfo",
          "type": "tuple"
        },
        {
          "internalType": "uint128",
          "name": "actualFillableTakerTokenAmount",
          "type": "uint128"
        },
        {
          "internalType": "bool",
          "name": "isSignatureValid",
          "type": "bool"
        }
      ],
      "stateMutability": "view",
      "type": "function"
    },
    {
      "inputs": [],
      "name": "getProtocolFeeMultiplier",
      "outputs": [
        {
          "internalType": "uint32",
          "name": "multiplier",
          "type": "uint32"
        }
      ],
      "stateMutability": "view",
      "type": "function"
    },
    {
      "inputs": [
        {
          "components": [
            {
              "internalType": "contract IERC20Token",
              "name": "makerToken",
              "type": "address"
            },
            {
              "internalType": "contract IERC20Token",
              "name": "takerToken",
              "type": "address"
            },
            {
              "internalType": "uint128",
              "name": "makerAmount",
              "type": "uint128"
            },
            {
              "internalType": "uint128",
              "name": "takerAmount",
              "type": "uint128"
            },
            {
              "internalType": "address",
              "name": "maker",
              "type": "address"
            },
            {
              "internalType": "address",
              "name": "taker",
              "type": "address"
            },
            {
              "internalType": "address",
              "name": "txOrigin",
              "type": "address"
            },
            {
              "internalType": "bytes32",
              "name": "pool",
              "type": "bytes32"
            },
            {
              "internalType": "uint64",
              "name": "expiry",
              "type": "uint64"
            },
            {
              "internalType": "uint256",
              "name": "salt",
              "type": "uint256"
            }
          ],
          "internalType": "struct LibNativeOrder.RfqOrder",
          "name": "order",
          "type": "tuple"
        }
      ],
      "name": "getRfqOrderHash",
      "outputs": [
        {
          "internalType": "bytes32",
          "name": "orderHash",
          "type": "bytes32"
        }
      ],
      "stateMutability": "view",
      "type": "function"
    },
    {
      "inputs": [
        {
          "components": [
            {
              "internalType": "contract IERC20Token",
              "name": "makerToken",
              "type": "address"
            },
            {
              "internalType": "contract IERC20Token",
              "name": "takerToken",
              "type": "address"
            },
            {
              "internalType": "uint128",
              "name": "makerAmount",
              "type": "uint128"
            },
            {
              "internalType": "uint128",
              "name": "takerAmount",
              "type": "uint128"
            },
            {
              "internalType": "address",
              "name": "maker",
              "type": "address"
            },
            {
              "internalType": "address",
              "name": "taker",
              "type": "address"
            },
            {
              "internalType": "address",
              "name": "txOrigin",
              "type": "address"
            },
            {
              "internalType": "bytes32",
              "name": "pool",
              "type": "bytes32"
            },
            {
              "internalType": "uint64",
              "name": "expiry",
              "type": "uint64"
            },
            {
              "internalType": "uint256",
              "name": "salt",
              "type": "uint256"
            }
          ],
          "internalType": "struct LibNativeOrder.RfqOrder",
          "name": "order",
          "type": "tuple"
        }
      ],
      "name": "getRfqOrderInfo",
      "outputs": [
        {
          "components": [
            {
              "internalType": "bytes32",
              "name": "orderHash",
              "type": "bytes32"
            },
            {
              "internalType": "enum LibNativeOrder.OrderStatus",
              "name": "status",
              "type": "uint8"
            },
            {
              "internalType": "uint128",
              "name": "takerTokenFilledAmount",
              "type": "uint128"
            }
          ],
          "internalType": "struct LibNativeOrder.OrderInfo",
          "name": "orderInfo",
          "type": "tuple"
        }
      ],
      "stateMutability": "view",
      "type": "function"
    },
    {
      "inputs": [
        {
          "components": [
            {
              "internalType": "contract IERC20Token",
              "name": "makerToken",
              "type": "address"
            },
            {
              "internalType": "contract IERC20Token",
              "name": "takerToken",
              "type": "address"
            },
            {
              "internalType": "uint128",
              "name": "makerAmount",
              "type": "uint128"
            },
            {
              "internalType": "uint128",
              "name": "takerAmount",
              "type": "uint128"
            },
            {
              "internalType": "address",
              "name": "maker",
              "type": "address"
            },
            {
              "internalType": "address",
              "name": "taker",
              "type": "address"
            },
            {
              "internalType": "address",
              "name": "txOrigin",
              "type": "address"
            },
            {
              "internalType": "bytes32",
              "name": "pool",
              "type": "bytes32"
            },
            {
              "internalType": "uint64",
              "name": "expiry",
              "type": "uint64"
            },
            {
              "internalType": "uint256",
              "name": "salt",
              "type": "uint256"
            }
          ],
          "internalType": "struct LibNativeOrder.RfqOrder",
          "name": "order",
          "type": "tuple"
        },
        {
          "components": [
            {
              "internalType": "enum LibSignature.SignatureType",
              "name": "signatureType",
              "type": "uint8"
            },
            {
              "internalType": "uint8",
              "name": "v",
              "type": "uint8"
            },
            {
              "internalType": "bytes32",
              "name": "r",
              "type": "bytes32"
            },
            {
              "internalType": "bytes32",
              "name": "s",
              "type": "bytes32"
            }
          ],
          "internalType": "struct LibSignature.Signature",
          "name": "signature",
          "type": "tuple"
        }
      ],
      "name": "getRfqOrderRelevantState",
      "outputs": [
        {
          "components": [
            {
              "internalType": "bytes32",
              "name": "orderHash",
              "type": "bytes32"
            },
            {
              "internalType": "enum LibNativeOrder.OrderStatus",
              "name": "status",
              "type": "uint8"
            },
            {
              "internalType": "uint128",
              "name": "takerTokenFilledAmount",
              "type": "uint128"
            }
          ],
          "internalType": "struct LibNativeOrder.OrderInfo",
          "name": "orderInfo",
          "type": "tuple"
        },
        {
          "internalType": "uint128",
          "name": "actualFillableTakerTokenAmount",
          "type": "uint128"
        },
        {
          "internalType": "bool",
          "name": "isSignatureValid",
          "type": "bool"
        }
      ],
      "stateMutability": "view",
      "type": "function"
    },
    {
      "inputs": [
        {
          "internalType": "address",
          "name": "maker",
          "type": "address"
        },
        {
          "internalType": "address",
          "name": "signer",
          "type": "address"
        }
      ],
      "name": "isValidOrderSigner",
      "outputs": [
        {
          "internalType": "bool",
          "name": "isValid",
          "type": "bool"
        }
      ],
      "stateMutability": "view",
      "type": "function"
    },
    {
      "inputs": [],
      "name": "migrate",
      "outputs": [
        {
          "internalType": "bytes4",
          "name": "success",
          "type": "bytes4"
        }
      ],
      "stateMutability": "nonpayable",
      "type": "function"
    },
    {
      "inputs": [
        {
          "internalType": "address",
          "name": "signer",
          "type": "address"
        },
        {
          "internalType": "bool",
          "name": "allowed",
          "type": "bool"
        }
      ],
      "name": "registerAllowedOrderSigner",
      "outputs": [],
      "stateMutability": "nonpayable",
      "type": "function"
    },
    {
      "inputs": [
        {
          "internalType": "address[]",
          "name": "origins",
          "type": "address[]"
        },
        {
          "internalType": "bool",
          "name": "allowed",
          "type": "bool"
        }
      ],
      "name": "registerAllowedRfqOrigins",
      "outputs": [],
      "stateMutability": "nonpayable",
      "type": "function"
    },
    {
      "inputs": [
        {
          "internalType": "bytes32[]",
          "name": "poolIds",
          "type": "bytes32[]"
        }
      ],
      "name": "transferProtocolFeesForPools",
      "outputs": [],
      "stateMutability": "nonpayable",
      "type": "function"
    }
  ],
  "bytecode": "0x61018060405261001960016003600061028060201b60201c565b6101609081525034801561002c57600080fd5b50600080600060405161003e906102aa565b604051809103906000f08015801561005a573d6000803e3d6000fd5b506000848484848483838383838383838c808060004690507f8b73c3c69bb8fe3d512ecc4cf759cc79239f7b179b0ffacaa9a75d522b39400f7f9e5dae0addaf20578aeb5d70341d092b53b4e14480ac5726438fd436df7ba4277f06c015bd22b4c69690933c1058878ebdfef31f9aaae40bbe86d8a09fe1b2972c83856040516020016100eb959493929190610329565b6040516020818303038152906040528051906020012060808181525050505050508173ffffffffffffffffffffffffffffffffffffffff1660c08173ffffffffffffffffffffffffffffffffffffffff16815250508173ffffffffffffffffffffffffffffffffffffffff1663f2541a8c6040518163ffffffff1660e01b8152600401602060405180830381865afa15801561018b573d6000803e3d6000fd5b505050506040513d601f19601f820116820180604052508101906101af91906103ad565b60e081815250508373ffffffffffffffffffffffffffffffffffffffff166101008173ffffffffffffffffffffffffffffffffffffffff16815250508273ffffffffffffffffffffffffffffffffffffffff166101208173ffffffffffffffffffffffffffffffffffffffff16815250508063ffffffff1660a08163ffffffff168152505050505050505050503073ffffffffffffffffffffffffffffffffffffffff166101408173ffffffffffffffffffffffffffffffffffffffff1681525050505050505050505050506103da565b60008163ffffffff1660208463ffffffff16901b60408663ffffffff16901b171790509392505050565b60d78061800a83390190565b6000819050919050565b6102c9816102b6565b82525050565b6000819050919050565b6102e2816102cf565b82525050565b600073ffffffffffffffffffffffffffffffffffffffff82169050919050565b6000610313826102e8565b9050919050565b61032381610308565b82525050565b600060a08201905061033e60008301886102c0565b61034b60208301876102c0565b61035860408301866102c0565b61036560608301856102d9565b610372608083018461031a565b9695505050505050565b600080fd5b61038a816102b6565b811461039557600080fd5b50565b6000815190506103a781610381565b92915050565b6000602082840312156103c3576103c261037c565b5b60006103d184828501610398565b91505092915050565b60805160a05160c05160e05161010051610120516101405161016051617baf61045b6000396000610911015260006135b501526000612c6301526000612bbe01526000614c86015260008181612b1e0152614c65015260008181610f460152818161170c0152614c2a015260008181611f3a01526123de0152617baf6000f3fe60806040526004361061020f5760003560e01c80639a4f809c11610118578063b4658bfb116100a0578063ea7faa611161006f578063ea7faa6114610820578063f6274f6614610849578063f6e0f6a51461087a578063fd5f995b146108a3578063fe55a3ef146108cc5761020f565b8063b4658bfb14610750578063d0a55fb01461078f578063dab400f3146107b8578063dd11d225146107e35761020f565b8063aa6b21cd116100e7578063aa6b21cd14610643578063aa77476c14610681578063ad354eeb146106bf578063b09f1fb1146106fe578063b10a33f4146107275761020f565b80639a4f809c1461059d5780639baa45a8146105c65780639f0434f5146105ef578063a0edcef5146106185761020f565b8063487b5c201161019b57806386a0c8d71161016a57806386a0c8d7146104b35780638fd3ab80146104dc5780639240529c14610507578063935c82a41461053757806395480889146105605761020f565b8063487b5c20146103f75780636ae4b4f7146104225780636b52a4a81461044d5780637d49ec1a1461048a5761020f565b8063346693c5116101e2578063346693c5146102e457806337f381d8146103215780633cd2f02614610360578063414e4ccf14610389578063438cdfc5146103ba5761020f565b8063016a6d6514610214578063031b905c146102515780630f0e8cf71461027c5780631fb09795146102a5575b600080fd5b34801561022057600080fd5b5061023b600480360381019061023691906150c2565b6108f5565b60405161024891906150ff565b60405180910390f35b34801561025d57600080fd5b5061026661090f565b6040516102739190615129565b60405180910390f35b34801561028857600080fd5b506102a3600480360381019061029e91906152d4565b610933565b005b3480156102b157600080fd5b506102cc60048036038101906102c791906154c1565b6109fb565b6040516102db93929190615604565b60405180910390f35b3480156102f057600080fd5b5061030b600480360381019061030691906150c2565b610b16565b604051610318919061563b565b60405180910390f35b34801561032d57600080fd5b506103486004803603810190610343919061572c565b610c8e565b60405161035793929190615604565b60405180910390f35b34801561036c57600080fd5b50610387600480360381019061038291906157c9565b610d99565b005b6103a3600480360381019061039e9190615816565b610dd9565b6040516103b1929190615896565b60405180910390f35b3480156103c657600080fd5b506103e160048036038101906103dc91906158bf565b610e44565b6040516103ee9190615915565b60405180910390f35b34801561040357600080fd5b5061040c610f42565b604051610419919061594f565b60405180910390f35b34801561042e57600080fd5b50610437610f6a565b60405161044491906159e9565b60405180910390f35b34801561045957600080fd5b50610474600480360381019061046f9190615a0b565b610fa3565b6040516104819190615a4b565b60405180910390f35b34801561049657600080fd5b506104b160048036038101906104ac9190615a66565b611040565b005b3480156104bf57600080fd5b506104da60048036038101906104d591906152d4565b6110c7565b005b3480156104e857600080fd5b506104f161118f565b6040516104fe9190615acf565b60405180910390f35b610521600480360381019061051c9190615aea565b61138e565b60405161052e9190615915565b60405180910390f35b34801561054357600080fd5b5061055e60048036038101906105599190615b40565b611490565b005b34801561056c57600080fd5b5061058760048036038101906105829190615a66565b6114c3565b604051610594919061563b565b60405180910390f35b3480156105a957600080fd5b506105c460048036038101906105bf9190615ba7565b6115d1565b005b3480156105d257600080fd5b506105ed60048036038101906105e89190615cbf565b6115e2565b005b3480156105fb57600080fd5b5061061660048036038101906106119190615d08565b611620565b005b34801561062457600080fd5b5061062d61170a565b60405161063a919061594f565b60405180910390f35b34801561064f57600080fd5b5061066a60048036038101906106659190615def565b61172e565b604051610678929190615896565b60405180910390f35b34801561068d57600080fd5b506106a860048036038101906106a391906158bf565b611798565b6040516106b6929190615896565b60405180910390f35b3480156106cb57600080fd5b506106e660048036038101906106e19190615f2f565b611830565b6040516106f59392919061620e565b60405180910390f35b34801561070a57600080fd5b506107256004803603810190610720919061631d565b611ad0565b005b34801561073357600080fd5b5061074e60048036038101906107499190615b40565b611c54565b005b34801561075c57600080fd5b50610777600480360381019061077291906163d0565b611c87565b6040516107869392919061620e565b60405180910390f35b34801561079b57600080fd5b506107b660048036038101906107b19190615ba7565b611f27565b005b3480156107c457600080fd5b506107cd611f38565b6040516107da91906150ff565b60405180910390f35b3480156107ef57600080fd5b5061080a60048036038101906108059190615a66565b611f5c565b60405161081791906150ff565b60405180910390f35b34801561082c57600080fd5b5061084760048036038101906108429190616451565b611f76565b005b610863600480360381019061085e9190615aea565b612058565b604051610871929190615896565b60405180910390f35b34801561088657600080fd5b506108a1600480360381019061089c9190616556565b6120f4565b005b3480156108af57600080fd5b506108ca60048036038101906108c59190615d08565b612132565b005b3480156108d857600080fd5b506108f360048036038101906108ee91906150c2565b61221c565b005b6000610908610903836122a3565b6123da565b9050919050565b7f000000000000000000000000000000000000000000000000000000000000000081565b81518351148015610945575080518351145b610984576040517f08c379a000000000000000000000000000000000000000000000000000000000815260040161097b90616611565b60405180910390fd5b60005b83518110156109f5576109ea338583815181106109a7576109a6616631565b5b60200260200101518584815181106109c2576109c1616631565b5b60200260200101518585815181106109dd576109dc616631565b5b602002602001015161242c565b806001019050610987565b50505050565b610a03614cf1565b600080610a0f856114c3565b9250610aa06040518060a001604052808760a0015173ffffffffffffffffffffffffffffffffffffffff168152602001876000015173ffffffffffffffffffffffffffffffffffffffff16815260200187604001516fffffffffffffffffffffffffffffffff16815260200187606001516fffffffffffffffffffffffffffffffff16815260200185815250612618565b91506000610ac2846000015186803603810190610abd9190616660565b612768565b90508073ffffffffffffffffffffffffffffffffffffffff168660a0015173ffffffffffffffffffffffffffffffffffffffff161480610b0c5750610b0b8660a0015182610fa3565b5b9150509250925092565b610b1e614cf1565b610b27826108f5565b8160000181815250506000610b3a612915565b6002016000846080015173ffffffffffffffffffffffffffffffffffffffff1673ffffffffffffffffffffffffffffffffffffffff1681526020019081526020016000206000846000015173ffffffffffffffffffffffffffffffffffffffff1673ffffffffffffffffffffffffffffffffffffffff1681526020019081526020016000206000846020015173ffffffffffffffffffffffffffffffffffffffff1673ffffffffffffffffffffffffffffffffffffffff168152602001908152602001600020549050610c1e8284606001518561010001518661012001518561292b565b600073ffffffffffffffffffffffffffffffffffffffff168360c0015173ffffffffffffffffffffffffffffffffffffffff1603610c8857600082602001906004811115610c6f57610c6e615512565b5b90816004811115610c8357610c82615512565b5b815250505b50919050565b610c96614cf1565b600080610ca285610b16565b9250610d336040518060a00160405280876080015173ffffffffffffffffffffffffffffffffffffffff168152602001876000015173ffffffffffffffffffffffffffffffffffffffff16815260200187604001516fffffffffffffffffffffffffffffffff16815260200187606001516fffffffffffffffffffffffffffffffff16815260200185815250612618565b91506000610d45846000015186612768565b90508073ffffffffffffffffffffffffffffffffffffffff16866080015173ffffffffffffffffffffffffffffffffffffffff161480610d8f5750610d8e866080015182610fa3565b5b9150509250925092565b60005b82829050811015610dd457610dc9838383818110610dbd57610dbc616631565b5b90506020020135612b1a565b806001019050610d9c565b505050565b6000807f74fece103e7470a8798099e7fd4af1eea16d523b4dbe60d7dc30ecf3519dba65878760000151886020015189604001518a606001518a8a8a604051610e29989796959493929190616875565b60405180910390a16000610539915091509550959350505050565b600080610ebd6040518060c00160405280878152602001868152602001856fffffffffffffffffffffffffffffffff1681526020013373ffffffffffffffffffffffffffffffffffffffff1681526020016000151581526020013373ffffffffffffffffffffffffffffffffffffffff16815250612d02565b9050826fffffffffffffffffffffffffffffffff1681602001516fffffffffffffffffffffffffffffffff161015610f3357610f32610f2d610efe876108f5565b83602001516fffffffffffffffffffffffffffffffff16866fffffffffffffffffffffffffffffffff166131d9565b613277565b5b80604001519150509392505050565b60007f0000000000000000000000000000000000000000000000000000000000000000905090565b6040518060400160405280600b81526020017f4c696d69744f726465727300000000000000000000000000000000000000000081525081565b6000610fad612915565b60040160008473ffffffffffffffffffffffffffffffffffffffff1673ffffffffffffffffffffffffffffffffffffffff16815260200190815260200160002060008373ffffffffffffffffffffffffffffffffffffffff1673ffffffffffffffffffffffffffffffffffffffff16815260200190815260200160002060009054906101000a900460ff16905092915050565b600061104b82611f5c565b90508160a0015173ffffffffffffffffffffffffffffffffffffffff163373ffffffffffffffffffffffffffffffffffffffff161415801561109857506110968260a0015133610fa3565b155b156110b5576110b46110af82338560a0015161327f565b613277565b5b6110c3818360a0015161331d565b5050565b815183511480156110d9575080518351145b611118576040517f08c379a000000000000000000000000000000000000000000000000000000000815260040161110f90616611565b60405180910390fd5b60005b83518110156111895761117e3385838151811061113b5761113a616631565b5b602002602001015185848151811061115657611155616631565b5b602002602001015185858151811061117157611170616631565b5b60200260200101516133aa565b80600101905061111b565b50505050565b60006111a1633cd2f02660e01b613596565b6111b163f6274f6660e01b613596565b6111c163aa77476c60e01b613596565b6111d1639240529c60e01b613596565b6111e163438cdfc560e01b613596565b6111f163414e4ccf60e01b613596565b61120163aa6b21cd60e01b613596565b611211637d49ec1a60e01b613596565b61122163fe55a3ef60e01b613596565b611231639baa45a860e01b613596565b61124163f6e0f6a560e01b613596565b61125163d0a55fb060e01b613596565b61126163b10a33f460e01b613596565b6112716386a0c8d760e01b613596565b611281639f0434f560e01b613596565b611291639a4f809c60e01b613596565b6112a163935c82a460e01b613596565b6112b1630f0e8cf760e01b613596565b6112c163fd5f995b60e01b613596565b6112d1639548088960e01b613596565b6112e163346693c560e01b613596565b6112f163dd11d22560e01b613596565b61130163016a6d6560e01b613596565b61131163487b5c2060e01b613596565b61132163b09f1fb160e01b613596565b611331631fb0979560e01b613596565b6113416337f381d860e01b613596565b61135163b4658bfb60e01b613596565b61136163ad354eeb60e01b613596565b61137163ea7faa6160e01b613596565b611381636b52a4a860e01b613596565b632c64c5ef60e01b905090565b6000806113fe6040518060a00160405280878152602001868152602001856fffffffffffffffffffffffffffffffff1681526020013373ffffffffffffffffffffffffffffffffffffffff1681526020013373ffffffffffffffffffffffffffffffffffffffff16815250613626565b9050826fffffffffffffffffffffffffffffffff1681602001516fffffffffffffffffffffffffffffffff1610156114745761147361146e61143f87611f5c565b83602001516fffffffffffffffffffffffffffffffff16866fffffffffffffffffffffffffffffffff166131d9565b613277565b5b6114818160000151613b9e565b80604001519150509392505050565b61149a8433610fa3565b6114b1576114b06114ab8533613c78565b613277565b5b6114bd8484848461242c565b50505050565b6114cb614cf1565b6114d482611f5c565b81600001818152505060006114e7612915565b60010160008460a0015173ffffffffffffffffffffffffffffffffffffffff1673ffffffffffffffffffffffffffffffffffffffff1681526020019081526020016000206000846000015173ffffffffffffffffffffffffffffffffffffffff1673ffffffffffffffffffffffffffffffffffffffff1681526020019081526020016000206000846020015173ffffffffffffffffffffffffffffffffffffffff1673ffffffffffffffffffffffffffffffffffffffff1681526020019081526020016000205490506115cb8284606001518561014001518661016001518561292b565b50919050565b6115dd3384848461242c565b505050565b60005b815181101561161c5761161182828151811061160457611603616631565b5b6020026020010151611040565b8060010190506115e5565b5050565b81518351148015611632575080518351145b611671576040517f08c379a000000000000000000000000000000000000000000000000000000000815260040161166890616611565b60405180910390fd5b61167b8433610fa3565b6116925761169161168c8533613c78565b613277565b5b60005b8351811015611703576116f8858583815181106116b5576116b4616631565b5b60200260200101518584815181106116d0576116cf616631565b5b60200260200101518585815181106116eb576116ea616631565b5b60200260200101516133aa565b806001019050611695565b5050505050565b7f000000000000000000000000000000000000000000000000000000000000000081565b6000807fc03fa343c060fc606d5055416dcc7b6a43c24a30ee1f6f3e3ffd0c617aca241b88886000015189602001518a604001518b606001518b8b60405161177c97969594939291906169c6565b60405180910390a1600061053991509150965096945050505050565b60008060006118136040518060c00160405280888152602001878152602001866fffffffffffffffffffffffffffffffff1681526020013373ffffffffffffffffffffffffffffffffffffffff1681526020016000151581526020013373ffffffffffffffffffffffffffffffffffffffff16815250612d02565b905080602001518160400151809350819450505050935093915050565b606080606084849050878790501461187d576040517f08c379a000000000000000000000000000000000000000000000000000000000815260040161187490616aae565b60405180910390fd5b8686905067ffffffffffffffff81111561189a57611899614dc1565b5b6040519080825280602002602001820160405280156118d357816020015b6118c0614cf1565b8152602001906001900390816118b85790505b5092508686905067ffffffffffffffff8111156118f3576118f2614dc1565b5b6040519080825280602002602001820160405280156119215781602001602082028036833780820191505090505b5091508686905067ffffffffffffffff81111561194157611940614dc1565b5b60405190808252806020026020018201604052801561196f5781602001602082028036833780820191505090505b50905060005b87879050811015611ac5573073ffffffffffffffffffffffffffffffffffffffff166337f381d88989848181106119af576119ae616631565b5b905061014002018888858181106119c9576119c8616631565b5b9050608002016040518363ffffffff1660e01b81526004016119ec929190616d35565b60a060405180830381865afa925050508015611a2657506040513d601f19601f82011682018060405250810190611a239190616e28565b60015b15611aba5782878581518110611a3f57611a3e616631565b5b602002602001018190525081868581518110611a5e57611a5d616631565b5b60200260200101906fffffffffffffffffffffffffffffffff1690816fffffffffffffffffffffffffffffffff168152505080858581518110611aa457611aa3616631565b5b6020026020010190151590811515815250505050505b806001019050611975565b509450945094915050565b3273ffffffffffffffffffffffffffffffffffffffff163373ffffffffffffffffffffffffffffffffffffffff1614611b3e576040517f08c379a0000000000000000000000000000000000000000000000000000000008152600401611b3590616eed565b60405180910390fd5b6000611b48612915565b905060005b8351811015611c1357828260030160003373ffffffffffffffffffffffffffffffffffffffff1673ffffffffffffffffffffffffffffffffffffffff1681526020019081526020016000206000868481518110611bad57611bac616631565b5b602002602001015173ffffffffffffffffffffffffffffffffffffffff1673ffffffffffffffffffffffffffffffffffffffff16815260200190815260200160002060006101000a81548160ff0219169083151502179055508080600101915050611b4d565b507f02dfead5eb769b298e82dd9650b31c40559a3d42701dbf53c931bc2682847c31338484604051611c4793929190616fbc565b60405180910390a1505050565b611c5e8433610fa3565b611c7557611c74611c6f8533613c78565b613277565b5b611c81848484846133aa565b50505050565b6060806060848490508787905014611cd4576040517f08c379a0000000000000000000000000000000000000000000000000000000008152600401611ccb90616aae565b60405180910390fd5b8686905067ffffffffffffffff811115611cf157611cf0614dc1565b5b604051908082528060200260200182016040528015611d2a57816020015b611d17614cf1565b815260200190600190039081611d0f5790505b5092508686905067ffffffffffffffff811115611d4a57611d49614dc1565b5b604051908082528060200260200182016040528015611d785781602001602082028036833780820191505090505b5091508686905067ffffffffffffffff811115611d9857611d97614dc1565b5b604051908082528060200260200182016040528015611dc65781602001602082028036833780820191505090505b50905060005b87879050811015611f1c573073ffffffffffffffffffffffffffffffffffffffff16631fb09795898984818110611e0657611e05616631565b5b90506101800201888885818110611e2057611e1f616631565b5b9050608002016040518363ffffffff1660e01b8152600401611e43929190617150565b60a060405180830381865afa925050508015611e7d57506040513d601f19601f82011682018060405250810190611e7a9190616e28565b60015b15611f115782878581518110611e9657611e95616631565b5b602002602001018190525081868581518110611eb557611eb4616631565b5b60200260200101906fffffffffffffffffffffffffffffffff1690816fffffffffffffffffffffffffffffffff168152505080858581518110611efb57611efa616631565b5b6020026020010190151590811515815250505050505b806001019050611dcc565b509450945094915050565b611f33338484846133aa565b505050565b7f000000000000000000000000000000000000000000000000000000000000000081565b6000611f6f611f6a83613d13565b6123da565b9050919050565b6000611f80612915565b9050818160040160003373ffffffffffffffffffffffffffffffffffffffff1673ffffffffffffffffffffffffffffffffffffffff16815260200190815260200160002060008573ffffffffffffffffffffffffffffffffffffffff1673ffffffffffffffffffffffffffffffffffffffff16815260200190815260200160002060006101000a81548160ff0219169083151502179055507f6ea9dbe8b2cc119348716a9220a0742ad62b7884ecb0ff4b32cd508121fd937933848460405161204b9392919061717b565b60405180910390a1505050565b60008060006120ca6040518060a00160405280888152602001878152602001866fffffffffffffffffffffffffffffffff1681526020013373ffffffffffffffffffffffffffffffffffffffff1681526020013373ffffffffffffffffffffffffffffffffffffffff16815250613626565b90506120d98160000151613b9e565b80602001518160400151809350819450505050935093915050565b60005b815181101561212e5761212382828151811061211657612115616631565b5b602002602001015161221c565b8060010190506120f7565b5050565b81518351148015612144575080518351145b612183576040517f08c379a000000000000000000000000000000000000000000000000000000000815260040161217a90616611565b60405180910390fd5b61218d8433610fa3565b6121a4576121a361219e8533613c78565b613277565b5b60005b83518110156122155761220a858583815181106121c7576121c6616631565b5b60200260200101518584815181106121e2576121e1616631565b5b60200260200101518585815181106121fd576121fc616631565b5b602002602001015161242c565b8060010190506121a7565b5050505050565b6000612227826108f5565b9050816080015173ffffffffffffffffffffffffffffffffffffffff163373ffffffffffffffffffffffffffffffffffffffff16141580156122745750612272826080015133610fa3565b155b156122915761229061228b8233856080015161327f565b613277565b5b61229f81836080015161331d565b5050565b60006040517fe593d3fdfa8b60e5e17a1b2204662ecbe15c23f2084b9ad5bae40359540a7da98152825173ffffffffffffffffffffffffffffffffffffffff166020820152602083015173ffffffffffffffffffffffffffffffffffffffff16604082015260408301516fffffffffffffffffffffffffffffffff16606082015260608301516fffffffffffffffffffffffffffffffff166080820152608083015173ffffffffffffffffffffffffffffffffffffffff1660a082015260a083015173ffffffffffffffffffffffffffffffffffffffff1660c082015260c083015173ffffffffffffffffffffffffffffffffffffffff1660e082015260e083015161010082015261010083015167ffffffffffffffff166101208201526101208301516101408201526101608120915050919050565b60007f00000000000000000000000000000000000000000000000000000000000000008260405160200161240f92919061722a565b604051602081830303815290604052805190602001209050919050565b6000612436612915565b905060008160020160008773ffffffffffffffffffffffffffffffffffffffff1673ffffffffffffffffffffffffffffffffffffffff16815260200190815260200160002060008673ffffffffffffffffffffffffffffffffffffffff1673ffffffffffffffffffffffffffffffffffffffff16815260200190815260200160002060008573ffffffffffffffffffffffffffffffffffffffff1673ffffffffffffffffffffffffffffffffffffffff168152602001908152602001600020549050828111156125135761251261250d8483613e8a565b613277565b5b828260020160008873ffffffffffffffffffffffffffffffffffffffff1673ffffffffffffffffffffffffffffffffffffffff16815260200190815260200160002060008773ffffffffffffffffffffffffffffffffffffffff1673ffffffffffffffffffffffffffffffffffffffff16815260200190815260200160002060008673ffffffffffffffffffffffffffffffffffffffff1673ffffffffffffffffffffffffffffffffffffffff168152602001908152602001600020819055507ffe7ffb1edfe79f4df716cb2dcad21cf2f31b104d816a7976ba1e6e4653c1efb1868686866040516126089493929190617261565b60405180910390a1505050505050565b60008082604001516fffffffffffffffffffffffffffffffff1614806126545750600082606001516fffffffffffffffffffffffffffffffff16145b156126625760009050612763565b6001600481111561267657612675615512565b5b826080015160200151600481111561269157612690615512565b5b1461269f5760009050612763565b600061270183608001516040015184606001516126bc91906172d5565b6fffffffffffffffffffffffffffffffff1684606001516fffffffffffffffffffffffffffffffff1685604001516fffffffffffffffffffffffffffffffff16613f25565b905061271e8161271985602001518660000151613f47565b61404f565b905061275f61275a8285604001516fffffffffffffffffffffffffffffffff1686606001516fffffffffffffffffffffffffffffffff16614068565b6140a1565b9150505b919050565b600061277483836140d9565b6002600481111561278857612787615512565b5b8260000151600481111561279f5761279e615512565b5b0361280657600183836020015184604001518560600151604051600081526020016040526040516127d39493929190617319565b6020604051602081039080840390855afa1580156127f5573d6000803e3d6000fd5b5050506020604051035190506128c7565b6003600481111561281a57612819615512565b5b8260000151600481111561283157612830615512565b5b036128c65760007f19457468657265756d205369676e6564204d6573736167653a0a33320000000060005283601c52603c6000209050600181846020015185604001518660600151604051600081526020016040526040516128969493929190617319565b6020604051602081039080840390855afa1580156128b8573d6000803e3d6000fd5b505050602060405103519150505b5b600073ffffffffffffffffffffffffffffffffffffffff168173ffffffffffffffffffffffffffffffffffffffff160361290f5761290e612909600585614236565b613277565b5b92915050565b60008061292260076142d1565b90508091505090565b6000612935612915565b90506000816000016000886000015181526020019081526020016000205490508087604001906fffffffffffffffffffffffffffffffff1690816fffffffffffffffffffffffffffffffff1681525050856fffffffffffffffffffffffffffffffff1687604001516fffffffffffffffffffffffffffffffff16106129ec576002876020019060048111156129cd576129cc615512565b5b908160048111156129e1576129e0615512565b5b815250505050612b13565b60007f8000000000000000000000000000000000000000000000000000000000000000821614612a4e57600387602001906004811115612a2f57612a2e615512565b5b90816004811115612a4357612a42615512565b5b815250505050612b13565b504267ffffffffffffffff168467ffffffffffffffff1611612aa157600486602001906004811115612a8357612a82615512565b5b90816004811115612a9757612a96615512565b5b8152505050612b13565b82821115612ae057600386602001906004811115612ac257612ac1615512565b5b90816004811115612ad657612ad5615512565b5b8152505050612b13565b600186602001906004811115612af957612af8615512565b5b90816004811115612b0d57612b0c615512565b5b81525050505b5050505050565b60007f000000000000000000000000000000000000000000000000000000000000000073ffffffffffffffffffffffffffffffffffffffff1663319bed9a836040518263ffffffff1660e01b8152600401612b7591906150ff565b6020604051808303816000875af1158015612b94573d6000803e3d6000fd5b505050506040513d601f19601f82011682018060405250810190612bb891906173ae565b905060007f000000000000000000000000000000000000000000000000000000000000000073ffffffffffffffffffffffffffffffffffffffff166370a08231836040518263ffffffff1660e01b8152600401612c1591906173db565b602060405180830381865afa158015612c32573d6000803e3d6000fd5b505050506040513d601f19601f82011682018060405250810190612c56919061740b565b90506001811115612cfd577f000000000000000000000000000000000000000000000000000000000000000073ffffffffffffffffffffffffffffffffffffffff1663a3b4a3278384600185612cac9190617438565b6040518463ffffffff1660e01b8152600401612cca9392919061746c565b600060405180830381600087803b158015612ce457600080fd5b505af1158015612cf8573d6000803e3d6000fd5b505050505b505050565b612d0a614d39565b6000612d198360000151610b16565b905060016004811115612d2f57612d2e615512565b5b81602001516004811115612d4657612d45615512565b5b14612d7857612d77612d72826000015183602001516004811115612d6d57612d6c615512565b5b6142fd565b613277565b5b6000612d82612915565b90503273ffffffffffffffffffffffffffffffffffffffff16846000015160c0015173ffffffffffffffffffffffffffffffffffffffff1614158015612e595750806003016000856000015160c0015173ffffffffffffffffffffffffffffffffffffffff1673ffffffffffffffffffffffffffffffffffffffff16815260200190815260200160002060003273ffffffffffffffffffffffffffffffffffffffff1673ffffffffffffffffffffffffffffffffffffffff16815260200190815260200160002060009054906101000a900460ff16155b15612e7e57612e7d612e78836000015132876000015160c00151614398565b613277565b5b50600073ffffffffffffffffffffffffffffffffffffffff16836000015160a0015173ffffffffffffffffffffffffffffffffffffffff1614158015612efc5750826060015173ffffffffffffffffffffffffffffffffffffffff16836000015160a0015173ffffffffffffffffffffffffffffffffffffffff1614155b15612f2557612f24612f1f82600001518560600151866000015160a00151614436565b613277565b5b6000612f3982600001518560200151612768565b905083600001516080015173ffffffffffffffffffffffffffffffffffffffff168173ffffffffffffffffffffffffffffffffffffffff1614158015612f8e5750612f8c84600001516080015182610fa3565b155b15612fb357612fb2612fad8360000151838760000151608001516144d4565b613277565b5b506131046040518061014001604052808360000151815260200185600001516080015173ffffffffffffffffffffffffffffffffffffffff1681526020018560800151613004578560600151613006565b305b73ffffffffffffffffffffffffffffffffffffffff1681526020018560a0015173ffffffffffffffffffffffffffffffffffffffff16815260200185600001516000015173ffffffffffffffffffffffffffffffffffffffff16815260200185600001516020015173ffffffffffffffffffffffffffffffffffffffff1681526020018560000151604001516fffffffffffffffffffffffffffffffff1681526020018560000151606001516fffffffffffffffffffffffffffffffff16815260200185604001516fffffffffffffffffffffffffffffffff16815260200183604001516fffffffffffffffffffffffffffffffff16815250614572565b8360200184604001826fffffffffffffffffffffffffffffffff166fffffffffffffffffffffffffffffffff16815250826fffffffffffffffffffffffffffffffff166fffffffffffffffffffffffffffffffff1681525050507f829fa99d94dc4636925b38632e625736a614c154d55006b7ab6bea979c210c3281600001518460000151608001518560600151866000015160000151876000015160200151876020015188604001518a6000015160e001516040516131cb9897969594939291906174a3565b60405180910390a150919050565b60607f21948612b5ef214ec0508df4901600e07a810a371be76b25d59ade73826e3d9784848460405160240161321193929190617521565b604051602081830303815290604052907bffffffffffffffffffffffffffffffffffffffffffffffffffffffff19166020820180517bffffffffffffffffffffffffffffffffffffffffffffffffffffffff838183161783525050505090509392505050565b805160208201fd5b60607f88b2c08e4a5f57d416ad23dad18c20497ccfe684b1379b28fd564adaf582b80f8484846040516024016132b793929190617558565b604051602081830303815290604052907bffffffffffffffffffffffffffffffffffffffffffffffffffffffff19166020820180517bffffffffffffffffffffffffffffffffffffffffffffffffffffffff838183161783525050505090509392505050565b6000613327612915565b90507f8000000000000000000000000000000000000000000000000000000000000000816000016000858152602001908152602001600020600082825417925050819055507fa6eb7cdc219e1518ced964e9a34e61d68a94e4f1569db3e84256ba981ba52753838360405161339d92919061758f565b60405180910390a1505050565b60006133b4612915565b905060008160010160008773ffffffffffffffffffffffffffffffffffffffff1673ffffffffffffffffffffffffffffffffffffffff16815260200190815260200160002060008673ffffffffffffffffffffffffffffffffffffffff1673ffffffffffffffffffffffffffffffffffffffff16815260200190815260200160002060008573ffffffffffffffffffffffffffffffffffffffff1673ffffffffffffffffffffffffffffffffffffffff168152602001908152602001600020549050828111156134915761349061348b8483613e8a565b613277565b5b828260010160008873ffffffffffffffffffffffffffffffffffffffff1673ffffffffffffffffffffffffffffffffffffffff16815260200190815260200160002060008773ffffffffffffffffffffffffffffffffffffffff1673ffffffffffffffffffffffffffffffffffffffff16815260200190815260200160002060008673ffffffffffffffffffffffffffffffffffffffff1673ffffffffffffffffffffffffffffffffffffffff168152602001908152602001600020819055507fa91fe7ae62fce669df2c7f880f8c14d178531aae72515558e5c948e37c32a572868686866040516135869493929190617261565b60405180910390a1505050505050565b3073ffffffffffffffffffffffffffffffffffffffff16636eb224cb827f00000000000000000000000000000000000000000000000000000000000000006040518363ffffffff1660e01b81526004016135f19291906175b8565b600060405180830381600087803b15801561360b57600080fd5b505af115801561361f573d6000803e3d6000fd5b5050505050565b61362e614d39565b600061363d83600001516114c3565b90506001600481111561365357613652615512565b5b8160200151600481111561366a57613669615512565b5b1461369c5761369b61369682600001518360200151600481111561369157613690615512565b5b6142fd565b613277565b5b600073ffffffffffffffffffffffffffffffffffffffff16836000015160c0015173ffffffffffffffffffffffffffffffffffffffff16141580156137195750826060015173ffffffffffffffffffffffffffffffffffffffff16836000015160c0015173ffffffffffffffffffffffffffffffffffffffff1614155b156137425761374161373c82600001518560600151866000015160c00151614436565b613277565b5b600073ffffffffffffffffffffffffffffffffffffffff16836000015160e0015173ffffffffffffffffffffffffffffffffffffffff16141580156137bf5750826080015173ffffffffffffffffffffffffffffffffffffffff16836000015160e0015173ffffffffffffffffffffffffffffffffffffffff1614155b156137e8576137e76137e282600001518560800151866000015160e0015161472c565b613277565b5b60006137fc82600001518560200151612768565b9050836000015160a0015173ffffffffffffffffffffffffffffffffffffffff168173ffffffffffffffffffffffffffffffffffffffff1614158015613851575061384f846000015160a0015182610fa3565b155b1561387657613875613870836000015183876000015160a001516144d4565b613277565b5b50613889836000015161012001516147ca565b8260000181815250506139d260405180610140016040528083600001518152602001856000015160a0015173ffffffffffffffffffffffffffffffffffffffff168152602001856060015173ffffffffffffffffffffffffffffffffffffffff168152602001856060015173ffffffffffffffffffffffffffffffffffffffff16815260200185600001516000015173ffffffffffffffffffffffffffffffffffffffff16815260200185600001516020015173ffffffffffffffffffffffffffffffffffffffff1681526020018560000151604001516fffffffffffffffffffffffffffffffff1681526020018560000151606001516fffffffffffffffffffffffffffffffff16815260200185604001516fffffffffffffffffffffffffffffffff16815260200183604001516fffffffffffffffffffffffffffffffff16815250614572565b8360200184604001826fffffffffffffffffffffffffffffffff166fffffffffffffffffffffffffffffffff16815250826fffffffffffffffffffffffffffffffff166fffffffffffffffffffffffffffffffff16815250505060008360000151608001516fffffffffffffffffffffffffffffffff161115613b0b57613aa482602001516fffffffffffffffffffffffffffffffff168460000151606001516fffffffffffffffffffffffffffffffff168560000151608001516fffffffffffffffffffffffffffffffff16613f25565b82606001906fffffffffffffffffffffffffffffffff1690816fffffffffffffffffffffffffffffffff1681525050613b0a83600001516020015184606001518560000151610100015185606001516fffffffffffffffffffffffffffffffff166148ae565b5b7fab614d2b738543c0ea21f56347cf696a3a0c42a7cbec3212a5ca22a4dcff21248160000151846000015160a00151856060015186600001516101000151876000015160000151886000015160200151886020015189604001518a606001518b600001518d600001516101200151604051613b909b9a999897969594939291906175e1565b60405180910390a150919050565b8034118015613bd957503073ffffffffffffffffffffffffffffffffffffffff163373ffffffffffffffffffffffffffffffffffffffff1614155b15613c755760008134613bec9190617438565b905060003373ffffffffffffffffffffffffffffffffffffffff1682604051613c14906176bd565b60006040518083038185875af1925050503d8060008114613c51576040519150601f19603f3d011682016040523d82523d6000602084013e613c56565b606091505b5050905080613c7257613c71613c6c33846149cb565b613277565b5b50505b50565b60607f84356db366796dc6e2aeb1ad74b631fe4e5ec6a650464da6059e9f95c8810a108383604051602401613cae9291906176d2565b604051602081830303815290604052907bffffffffffffffffffffffffffffffffffffffffffffffffffffffff19166020820180517bffffffffffffffffffffffffffffffffffffffffffffffffffffffff8381831617835250505050905092915050565b60006040517fce918627cb55462ddbb85e73de69a8b322f2bc88f4507c52fcad6d4c33c29d498152825173ffffffffffffffffffffffffffffffffffffffff166020820152602083015173ffffffffffffffffffffffffffffffffffffffff16604082015260408301516fffffffffffffffffffffffffffffffff16606082015260608301516fffffffffffffffffffffffffffffffff16608082015260808301516fffffffffffffffffffffffffffffffff1660a082015260a083015173ffffffffffffffffffffffffffffffffffffffff1660c082015260c083015173ffffffffffffffffffffffffffffffffffffffff1660e082015260e083015173ffffffffffffffffffffffffffffffffffffffff1661010082015261010083015173ffffffffffffffffffffffffffffffffffffffff1661012082015261012083015161014082015261014083015167ffffffffffffffff166101608201526101608301516101808201526101a08120915050919050565b60607fb12bc7e7d341f4431d6faf05f991ee3b779183e341b24243064e10c886cd18738383604051602401613ec09291906176fb565b604051602081830303815290604052907bffffffffffffffffffffffffffffffffffffffffffffffffffffffff19166020820180517bffffffffffffffffffffffffffffffffffffffffffffffffffffffff8381831617835250505050905092915050565b6000828285613f349190617724565b613f3e9190617795565b90509392505050565b60006140478373ffffffffffffffffffffffffffffffffffffffff1663dd62ed3e84306040518363ffffffff1660e01b8152600401613f879291906176d2565b602060405180830381865afa158015613fa4573d6000803e3d6000fd5b505050506040513d601f19601f82011682018060405250810190613fc8919061740b565b8473ffffffffffffffffffffffffffffffffffffffff166370a08231856040518263ffffffff1660e01b815260040161400191906173db565b602060405180830381865afa15801561401e573d6000803e3d6000fd5b505050506040513d601f19601f82011682018060405250810190614042919061740b565b61404f565b905092915050565b600081831061405e5781614060565b825b905092915050565b6000826001846140789190617438565b83866140849190617724565b61408e91906177c6565b6140989190617795565b90509392505050565b60006fffffffffffffffffffffffffffffffff80168211156140d1576140d06140cb600384614a66565b613277565b5b819050919050565b7ffffffffffffffffffffffffffffffffebaaedce6af48a03bbfd25e8cd0364141816040015160001c10158061414e5750600160027ffffffffffffffffffffffffffffffffebaaedce6af48a03bbfd25e8cd03641416141399190617795565b61414391906177c6565b816060015160001c10155b1561416757614166614161600584614236565b613277565b5b6000600481111561417b5761417a615512565b5b8160000151600481111561419257614191615512565b5b036141ab576141aa6141a5600384614236565b613277565b5b600160048111156141bf576141be615512565b5b816000015160048111156141d6576141d5615512565b5b036141ef576141ee6141e9600084614236565b613277565b5b60048081111561420257614201615512565b5b8160000151600481111561421957614218615512565b5b036142325761423161422c600284614236565b613277565b5b5050565b60607ff18f11f3027e735c758137924b262d4d3aff0037dcd785aca3c699fa05d960bd838360405160240161426c929190617842565b604051602081830303815290604052907bffffffffffffffffffffffffffffffffffffffffffffffffffffffff19166020820180517bffffffffffffffffffffffffffffffffffffffffffffffffffffffff8381831617835250505050905092915050565b60006080600183600b8111156142ea576142e9615512565b5b6142f491906177c6565b901b9050919050565b60607f47ab394e41470191eaf9fa542e84ac483a12665fbd616eb8d1c022ced6c94000838360405160240161433392919061786b565b604051602081830303815290604052907bffffffffffffffffffffffffffffffffffffffffffffffffffffffff19166020820180517bffffffffffffffffffffffffffffffffffffffffffffffffffffffff8381831617835250505050905092915050565b60607fc0972f3cc4234ca2091de7e7bc7081494bd29ac280167d66f0d44168973b16348484846040516024016143d093929190617558565b604051602081830303815290604052907bffffffffffffffffffffffffffffffffffffffffffffffffffffffff19166020820180517bffffffffffffffffffffffffffffffffffffffffffffffffffffffff838183161783525050505090509392505050565b60607f5d3300180a4547b3e27137be832d3ebf56f1ba5ebb30dd580999c61f77fa639684848460405160240161446e93929190617558565b604051602081830303815290604052907bffffffffffffffffffffffffffffffffffffffffffffffffffffffff19166020820180517bffffffffffffffffffffffffffffffffffffffffffffffffffffffff838183161783525050505090509392505050565b60607ff13e65d925201525f3d71a731833b19bb26e44cfbd97caf72a366b73866f712484848460405160240161450c93929190617558565b604051602081830303815290604052907bffffffffffffffffffffffffffffffffffffffffffffffffffffffff19166020820180517bffffffffffffffffffffffffffffffffffffffffffffffffffffffff838183161783525050505090509392505050565b6000806145988361010001518461012001518560e0015161459391906172d5565b614ae8565b91506145e3826fffffffffffffffffffffffffffffffff168460e001516fffffffffffffffffffffffffffffffff168560c001516fffffffffffffffffffffffffffffffff16613f25565b90506000826fffffffffffffffffffffffffffffffff16148061461857506000816fffffffffffffffffffffffffffffffff16145b156146295760008091509150614727565b8183610120015161463a9190617894565b6fffffffffffffffffffffffffffffffff16614654612915565b600001600085600001518152602001908152602001600020819055503073ffffffffffffffffffffffffffffffffffffffff16836040015173ffffffffffffffffffffffffffffffffffffffff16036146d1576146cc8360a001518460200151846fffffffffffffffffffffffffffffffff16614b25565b6146fc565b6146fb8360a0015184604001518560200151856fffffffffffffffffffffffffffffffff166148ae565b5b614726836080015184602001518560600151846fffffffffffffffffffffffffffffffff166148ae565b5b915091565b60607f15e6a383bb02d79ee933b927fbecba78cdde16cba84b94a99661f44bcce3b73684848460405160240161476493929190617558565b604051602081830303815290604052907bffffffffffffffffffffffffffffffffffffffffffffffffffffffff19166020820180517bffffffffffffffffffffffffffffffffffffffffffffffffffffffff838183161783525050505090509392505050565b6000806147d5614c25565b9050600081036147e95760009150506148a9565b60006147f484614c5e565b905060008173ffffffffffffffffffffffffffffffffffffffff168360405161481c906176bd565b60006040518083038185875af1925050503d8060008114614859576040519150601f19603f3d011682016040523d82523d6000602084013e61485e565b606091505b50509050806148a2576040517f08c379a00000000000000000000000000000000000000000000000000000000081526004016148999061794a565b60405180910390fd5b8293505050505b919050565b3073ffffffffffffffffffffffffffffffffffffffff168473ffffffffffffffffffffffffffffffffffffffff160361491c576040517f08c379a0000000000000000000000000000000000000000000000000000000008152600401614913906179dc565b60405180910390fd5b6040517f23b872dd00000000000000000000000000000000000000000000000000000000815273ffffffffffffffffffffffffffffffffffffffff8416600482015273ffffffffffffffffffffffffffffffffffffffff83166024820152816044820152602081606483600073ffffffffffffffffffffffffffffffffffffffff8a165af13d600183511460208210151681151782169150816149c257806000843e8083fd5b50505050505050565b60607fbde95cc2119e0200d80642397198abfcf98e6e4dddd0de9c6320d86252ad40ab8383604051602401614a019291906179fc565b604051602081830303815290604052907bffffffffffffffffffffffffffffffffffffffffffffffffffffffff19166020820180517bffffffffffffffffffffffffffffffffffffffffffffffffffffffff8381831617835250505050905092915050565b606063c996af7b60e01b8383604051602401614a83929190617a6d565b604051602081830303815290604052907bffffffffffffffffffffffffffffffffffffffffffffffffffffffff19166020820180517bffffffffffffffffffffffffffffffffffffffffffffffffffffffff8381831617835250505050905092915050565b6000816fffffffffffffffffffffffffffffffff16836fffffffffffffffffffffffffffffffff1610614b1b5781614b1d565b825b905092915050565b3073ffffffffffffffffffffffffffffffffffffffff168373ffffffffffffffffffffffffffffffffffffffff1603614b93576040517f08c379a0000000000000000000000000000000000000000000000000000000008152600401614b8a906179dc565b60405180910390fd5b6040517fa9059cbb00000000000000000000000000000000000000000000000000000000815273ffffffffffffffffffffffffffffffffffffffff83166004820152816024820152602081604483600073ffffffffffffffffffffffffffffffffffffffff89165af13d60018351146020821015168115178216915081614c1d57806000843e8083fd5b505050505050565b60003a7f000000000000000000000000000000000000000000000000000000000000000063ffffffff16614c599190617724565b905090565b6000614cab7f00000000000000000000000000000000000000000000000000000000000000007f000000000000000000000000000000000000000000000000000000000000000084614cb2565b9050919050565b600060ff60f81b848385604051602001614ccf9493929190617b2b565b6040516020818303038152906040528051906020012060001c90509392505050565b60405180606001604052806000801916815260200160006004811115614d1a57614d19615512565b5b815260200160006fffffffffffffffffffffffffffffffff1681525090565b60405180608001604052806000815260200160006fffffffffffffffffffffffffffffffff16815260200160006fffffffffffffffffffffffffffffffff16815260200160006fffffffffffffffffffffffffffffffff1681525090565b6000604051905090565b600080fd5b600080fd5b600080fd5b6000601f19601f8301169050919050565b7f4e487b7100000000000000000000000000000000000000000000000000000000600052604160045260246000fd5b614df982614db0565b810181811067ffffffffffffffff82111715614e1857614e17614dc1565b5b80604052505050565b6000614e2b614d97565b9050614e378282614df0565b919050565b600073ffffffffffffffffffffffffffffffffffffffff82169050919050565b6000614e6782614e3c565b9050919050565b6000614e7982614e5c565b9050919050565b614e8981614e6e565b8114614e9457600080fd5b50565b600081359050614ea681614e80565b92915050565b60006fffffffffffffffffffffffffffffffff82169050919050565b614ed181614eac565b8114614edc57600080fd5b50565b600081359050614eee81614ec8565b92915050565b614efd81614e5c565b8114614f0857600080fd5b50565b600081359050614f1a81614ef4565b92915050565b6000819050919050565b614f3381614f20565b8114614f3e57600080fd5b50565b600081359050614f5081614f2a565b92915050565b600067ffffffffffffffff82169050919050565b614f7381614f56565b8114614f7e57600080fd5b50565b600081359050614f9081614f6a565b92915050565b6000819050919050565b614fa981614f96565b8114614fb457600080fd5b50565b600081359050614fc681614fa0565b92915050565b60006101408284031215614fe357614fe2614dab565b5b614fee610140614e21565b90506000614ffe84828501614e97565b600083015250602061501284828501614e97565b602083015250604061502684828501614edf565b604083015250606061503a84828501614edf565b606083015250608061504e84828501614f0b565b60808301525060a061506284828501614f0b565b60a08301525060c061507684828501614f0b565b60c08301525060e061508a84828501614f41565b60e08301525061010061509f84828501614f81565b610100830152506101206150b584828501614fb7565b6101208301525092915050565b600061014082840312156150d9576150d8614da1565b5b60006150e784828501614fcc565b91505092915050565b6150f981614f20565b82525050565b600060208201905061511460008301846150f0565b92915050565b61512381614f96565b82525050565b600060208201905061513e600083018461511a565b92915050565b600080fd5b600067ffffffffffffffff82111561516457615163614dc1565b5b602082029050602081019050919050565b600080fd5b600061518d61518884615149565b614e21565b905080838252602082019050602084028301858111156151b0576151af615175565b5b835b818110156151d957806151c58882614e97565b8452602084019350506020810190506151b2565b5050509392505050565b600082601f8301126151f8576151f7615144565b5b813561520884826020860161517a565b91505092915050565b600067ffffffffffffffff82111561522c5761522b614dc1565b5b602082029050602081019050919050565b600061525061524b84615211565b614e21565b9050808382526020820190506020840283018581111561527357615272615175565b5b835b8181101561529c57806152888882614fb7565b845260208401935050602081019050615275565b5050509392505050565b600082601f8301126152bb576152ba615144565b5b81356152cb84826020860161523d565b91505092915050565b6000806000606084860312156152ed576152ec614da1565b5b600084013567ffffffffffffffff81111561530b5761530a614da6565b5b615317868287016151e3565b935050602084013567ffffffffffffffff81111561533857615337614da6565b5b615344868287016151e3565b925050604084013567ffffffffffffffff81111561536557615364614da6565b5b615371868287016152a6565b9150509250925092565b6000610180828403121561539257615391614dab565b5b61539d610180614e21565b905060006153ad84828501614e97565b60008301525060206153c184828501614e97565b60208301525060406153d584828501614edf565b60408301525060606153e984828501614edf565b60608301525060806153fd84828501614edf565b60808301525060a061541184828501614f0b565b60a08301525060c061542584828501614f0b565b60c08301525060e061543984828501614f0b565b60e08301525061010061544e84828501614f0b565b6101008301525061012061546484828501614f41565b6101208301525061014061547a84828501614f81565b6101408301525061016061549084828501614fb7565b6101608301525092915050565b600080fd5b6000608082840312156154b8576154b761549d565b5b81905092915050565b60008061020083850312156154d9576154d8614da1565b5b60006154e78582860161537b565b9250506101806154f9858286016154a2565b9150509250929050565b61550c81614f20565b82525050565b7f4e487b7100000000000000000000000000000000000000000000000000000000600052602160045260246000fd5b6005811061555257615551615512565b5b50565b600081905061556382615541565b919050565b600061557382615555565b9050919050565b61558381615568565b82525050565b61559281614eac565b82525050565b6060820160008201516155ae6000850182615503565b5060208201516155c1602085018261557a565b5060408201516155d46040850182615589565b50505050565b6155e381614eac565b82525050565b60008115159050919050565b6155fe816155e9565b82525050565b600060a0820190506156196000830186615598565b61562660608301856155da565b61563360808301846155f5565b949350505050565b60006060820190506156506000830184615598565b92915050565b6005811061566357600080fd5b50565b60008135905061567581615656565b92915050565b600060ff82169050919050565b6156918161567b565b811461569c57600080fd5b50565b6000813590506156ae81615688565b92915050565b6000608082840312156156ca576156c9614dab565b5b6156d46080614e21565b905060006156e484828501615666565b60008301525060206156f88482850161569f565b602083015250604061570c84828501614f41565b604083015250606061572084828501614f41565b60608301525092915050565b6000806101c0838503121561574457615743614da1565b5b600061575285828601614fcc565b925050610140615764858286016156b4565b9150509250929050565b600080fd5b60008083601f84011261578957615788615144565b5b8235905067ffffffffffffffff8111156157a6576157a561576e565b5b6020830191508360208202830111156157c2576157c1615175565b5b9250929050565b600080602083850312156157e0576157df614da1565b5b600083013567ffffffffffffffff8111156157fe576157fd614da6565b5b61580a85828601615773565b92509250509250929050565b6000806000806000610260868803121561583357615832614da1565b5b60006158418882890161537b565b955050610180615853888289016156b4565b94505061020061586588828901614edf565b93505061022061587788828901614f0b565b92505061024061588988828901614f0b565b9150509295509295909350565b60006040820190506158ab60008301856155da565b6158b860208301846155da565b9392505050565b60008060006101e084860312156158d9576158d8614da1565b5b60006158e786828701614fcc565b9350506101406158f9868287016156b4565b9250506101c061590b86828701614edf565b9150509250925092565b600060208201905061592a60008301846155da565b92915050565b600063ffffffff82169050919050565b61594981615930565b82525050565b60006020820190506159646000830184615940565b92915050565b600081519050919050565b600082825260208201905092915050565b60005b838110156159a4578082015181840152602081019050615989565b60008484015250505050565b60006159bb8261596a565b6159c58185615975565b93506159d5818560208601615986565b6159de81614db0565b840191505092915050565b60006020820190508181036000830152615a0381846159b0565b905092915050565b60008060408385031215615a2257615a21614da1565b5b6000615a3085828601614f0b565b9250506020615a4185828601614f0b565b9150509250929050565b6000602082019050615a6060008301846155f5565b92915050565b60006101808284031215615a7d57615a7c614da1565b5b6000615a8b8482850161537b565b91505092915050565b60007fffffffff0000000000000000000000000000000000000000000000000000000082169050919050565b615ac981615a94565b82525050565b6000602082019050615ae46000830184615ac0565b92915050565b60008060006102208486031215615b0457615b03614da1565b5b6000615b128682870161537b565b935050610180615b24868287016156b4565b925050610200615b3686828701614edf565b9150509250925092565b60008060008060808587031215615b5a57615b59614da1565b5b6000615b6887828801614f0b565b9450506020615b7987828801614e97565b9350506040615b8a87828801614e97565b9250506060615b9b87828801614fb7565b91505092959194509250565b600080600060608486031215615bc057615bbf614da1565b5b6000615bce86828701614e97565b9350506020615bdf86828701614e97565b9250506040615bf086828701614fb7565b9150509250925092565b600067ffffffffffffffff821115615c1557615c14614dc1565b5b602082029050602081019050919050565b6000615c39615c3484615bfa565b614e21565b9050808382526020820190506101808402830185811115615c5d57615c5c615175565b5b835b81811015615c875780615c72888261537b565b84526020840193505061018081019050615c5f565b5050509392505050565b600082601f830112615ca657615ca5615144565b5b8135615cb6848260208601615c26565b91505092915050565b600060208284031215615cd557615cd4614da1565b5b600082013567ffffffffffffffff811115615cf357615cf2614da6565b5b615cff84828501615c91565b91505092915050565b60008060008060808587031215615d2257615d21614da1565b5b6000615d3087828801614f0b565b945050602085013567ffffffffffffffff811115615d5157615d50614da6565b5b615d5d878288016151e3565b935050604085013567ffffffffffffffff811115615d7e57615d7d614da6565b5b615d8a878288016151e3565b925050606085013567ffffffffffffffff811115615dab57615daa614da6565b5b615db7878288016152a6565b91505092959194509250565b615dcc816155e9565b8114615dd757600080fd5b50565b600081359050615de981615dc3565b92915050565b6000806000806000806102408789031215615e0d57615e0c614da1565b5b6000615e1b89828a01614fcc565b965050610140615e2d89828a016156b4565b9550506101c0615e3f89828a01614edf565b9450506101e0615e5189828a01614f0b565b935050610200615e6389828a01615dda565b925050610220615e7589828a01614f0b565b9150509295509295509295565b60008083601f840112615e9857615e97615144565b5b8235905067ffffffffffffffff811115615eb557615eb461576e565b5b60208301915083610140820283011115615ed257615ed1615175565b5b9250929050565b60008083601f840112615eef57615eee615144565b5b8235905067ffffffffffffffff811115615f0c57615f0b61576e565b5b602083019150836080820283011115615f2857615f27615175565b5b9250929050565b60008060008060408587031215615f4957615f48614da1565b5b600085013567ffffffffffffffff811115615f6757615f66614da6565b5b615f7387828801615e82565b9450945050602085013567ffffffffffffffff811115615f9657615f95614da6565b5b615fa287828801615ed9565b925092505092959194509250565b600081519050919050565b600082825260208201905092915050565b6000819050602082019050919050565b606082016000820151615ff26000850182615503565b506020820151616005602085018261557a565b5060408201516160186040850182615589565b50505050565b600061602a8383615fdc565b60608301905092915050565b6000602082019050919050565b600061604e82615fb0565b6160588185615fbb565b935061606383615fcc565b8060005b8381101561609457815161607b888261601e565b975061608683616036565b925050600181019050616067565b5085935050505092915050565b600081519050919050565b600082825260208201905092915050565b6000819050602082019050919050565b60006160d98383615589565b60208301905092915050565b6000602082019050919050565b60006160fd826160a1565b61610781856160ac565b9350616112836160bd565b8060005b8381101561614357815161612a88826160cd565b9750616135836160e5565b925050600181019050616116565b5085935050505092915050565b600081519050919050565b600082825260208201905092915050565b6000819050602082019050919050565b616185816155e9565b82525050565b6000616197838361617c565b60208301905092915050565b6000602082019050919050565b60006161bb82616150565b6161c5818561615b565b93506161d08361616c565b8060005b838110156162015781516161e8888261618b565b97506161f3836161a3565b9250506001810190506161d4565b5085935050505092915050565b600060608201905081810360008301526162288186616043565b9050818103602083015261623c81856160f2565b9050818103604083015261625081846161b0565b9050949350505050565b600067ffffffffffffffff82111561627557616274614dc1565b5b602082029050602081019050919050565b60006162996162948461625a565b614e21565b905080838252602082019050602084028301858111156162bc576162bb615175565b5b835b818110156162e557806162d18882614f0b565b8452602084019350506020810190506162be565b5050509392505050565b600082601f83011261630457616303615144565b5b8135616314848260208601616286565b91505092915050565b6000806040838503121561633457616333614da1565b5b600083013567ffffffffffffffff81111561635257616351614da6565b5b61635e858286016162ef565b925050602061636f85828601615dda565b9150509250929050565b60008083601f84011261638f5761638e615144565b5b8235905067ffffffffffffffff8111156163ac576163ab61576e565b5b602083019150836101808202830111156163c9576163c8615175565b5b9250929050565b600080600080604085870312156163ea576163e9614da1565b5b600085013567ffffffffffffffff81111561640857616407614da6565b5b61641487828801616379565b9450945050602085013567ffffffffffffffff81111561643757616436614da6565b5b61644387828801615ed9565b925092505092959194509250565b6000806040838503121561646857616467614da1565b5b600061647685828601614f0b565b925050602061648785828601615dda565b9150509250929050565b600067ffffffffffffffff8211156164ac576164ab614dc1565b5b602082029050602081019050919050565b60006164d06164cb84616491565b614e21565b90508083825260208201905061014084028301858111156164f4576164f3615175565b5b835b8181101561651e57806165098882614fcc565b845260208401935050610140810190506164f6565b5050509392505050565b600082601f83011261653d5761653c615144565b5b813561654d8482602086016164bd565b91505092915050565b60006020828403121561656c5761656b614da1565b5b600082013567ffffffffffffffff81111561658a57616589614da6565b5b61659684828501616528565b91505092915050565b7f4e61746976654f7264657273466561747572652f4d49534d4154434845445f5060008201527f4149525f4f52444552535f41525241595f4c454e475448530000000000000000602082015250565b60006165fb603883615975565b91506166068261659f565b604082019050919050565b6000602082019050818103600083015261662a816165ee565b9050919050565b7f4e487b7100000000000000000000000000000000000000000000000000000000600052603260045260246000fd5b60006080828403121561667657616675614da1565b5b6000616684848285016156b4565b91505092915050565b6000819050919050565b60006166b26166ad6166a884614e3c565b61668d565b614e3c565b9050919050565b60006166c482616697565b9050919050565b60006166d6826166b9565b9050919050565b6166e6816166cb565b82525050565b6166f581614e5c565b82525050565b61670481614f56565b82525050565b61671381614f96565b82525050565b6101808201600082015161673060008501826166dd565b50602082015161674360208501826166dd565b5060408201516167566040850182615589565b5060608201516167696060850182615589565b50608082015161677c6080850182615589565b5060a082015161678f60a08501826166ec565b5060c08201516167a260c08501826166ec565b5060e08201516167b560e08501826166ec565b506101008201516167ca6101008501826166ec565b506101208201516167df610120850182615503565b506101408201516167f46101408501826166fb565b5061016082015161680961016085018261670a565b50505050565b600581106168205761681f615512565b5b50565b60008190506168318261680f565b919050565b600061684182616823565b9050919050565b61685181616836565b82525050565b6168608161567b565b82525050565b61686f81614e5c565b82525050565b60006102608201905061688b600083018b616719565b61689961018083018a616848565b6168a76101a0830189616857565b6168b56101c08301886150f0565b6168c36101e08301876150f0565b6168d16102008301866155da565b6168df610220830185616866565b6168ed610240830184616866565b9998505050505050505050565b6101408201600082015161691160008501826166dd565b50602082015161692460208501826166dd565b5060408201516169376040850182615589565b50606082015161694a6060850182615589565b50608082015161695d60808501826166ec565b5060a082015161697060a08501826166ec565b5060c082015161698360c08501826166ec565b5060e082015161699660e0850182615503565b506101008201516169ab6101008501826166fb565b506101208201516169c061012085018261670a565b50505050565b6000610200820190506169dc600083018a6168fa565b6169ea610140830189616848565b6169f8610160830188616857565b616a066101808301876150f0565b616a146101a08301866150f0565b616a226101c08301856155da565b616a306101e0830184616866565b98975050505050505050565b7f4e61746976654f7264657273466561747572652f4d49534d4154434845445f4160008201527f525241595f4c454e475448530000000000000000000000000000000000000000602082015250565b6000616a98602c83615975565b9150616aa382616a3c565b604082019050919050565b60006020820190508181036000830152616ac781616a8b565b9050919050565b6000616add6020840184614e97565b905092915050565b6000616af46020840184614edf565b905092915050565b6000616b0b6020840184614f0b565b905092915050565b6000616b226020840184614f41565b905092915050565b6000616b396020840184614f81565b905092915050565b6000616b506020840184614fb7565b905092915050565b6101408201616b6a6000830183616ace565b616b7760008501826166dd565b50616b856020830183616ace565b616b9260208501826166dd565b50616ba06040830183616ae5565b616bad6040850182615589565b50616bbb6060830183616ae5565b616bc86060850182615589565b50616bd66080830183616afc565b616be360808501826166ec565b50616bf160a0830183616afc565b616bfe60a08501826166ec565b50616c0c60c0830183616afc565b616c1960c08501826166ec565b50616c2760e0830183616b13565b616c3460e0850182615503565b50616c43610100830183616b2a565b616c516101008501826166fb565b50616c60610120830183616b41565b616c6e61012085018261670a565b50505050565b6000616c836020840184615666565b905092915050565b616c9481616836565b82525050565b6000616ca9602084018461569f565b905092915050565b616cba8161567b565b82525050565b60808201616cd16000830183616c74565b616cde6000850182616c8b565b50616cec6020830183616c9a565b616cf96020850182616cb1565b50616d076040830183616b13565b616d146040850182615503565b50616d226060830183616b13565b616d2f6060850182615503565b50505050565b60006101c082019050616d4b6000830185616b58565b616d59610140830184616cc0565b9392505050565b600081519050616d6f81614f2a565b92915050565b60058110616d8257600080fd5b50565b600081519050616d9481616d75565b92915050565b600081519050616da981614ec8565b92915050565b600060608284031215616dc557616dc4614dab565b5b616dcf6060614e21565b90506000616ddf84828501616d60565b6000830152506020616df384828501616d85565b6020830152506040616e0784828501616d9a565b60408301525092915050565b600081519050616e2281615dc3565b92915050565b600080600060a08486031215616e4157616e40614da1565b5b6000616e4f86828701616daf565b9350506060616e6086828701616d9a565b9250506080616e7186828701616e13565b9150509250925092565b7f4e61746976654f7264657273466561747572652f4e4f5f434f4e54524143545f60008201527f4f524947494e5300000000000000000000000000000000000000000000000000602082015250565b6000616ed7602783615975565b9150616ee282616e7b565b604082019050919050565b60006020820190508181036000830152616f0681616eca565b9050919050565b600081519050919050565b600082825260208201905092915050565b6000819050602082019050919050565b6000616f4583836166ec565b60208301905092915050565b6000602082019050919050565b6000616f6982616f0d565b616f738185616f18565b9350616f7e83616f29565b8060005b83811015616faf578151616f968882616f39565b9750616fa183616f51565b925050600181019050616f82565b5085935050505092915050565b6000606082019050616fd16000830186616866565b8181036020830152616fe38185616f5e565b9050616ff260408301846155f5565b949350505050565b610180820161700c6000830183616ace565b61701960008501826166dd565b506170276020830183616ace565b61703460208501826166dd565b506170426040830183616ae5565b61704f6040850182615589565b5061705d6060830183616ae5565b61706a6060850182615589565b506170786080830183616ae5565b6170856080850182615589565b5061709360a0830183616afc565b6170a060a08501826166ec565b506170ae60c0830183616afc565b6170bb60c08501826166ec565b506170c960e0830183616afc565b6170d660e08501826166ec565b506170e5610100830183616afc565b6170f36101008501826166ec565b50617102610120830183616b13565b617110610120850182615503565b5061711f610140830183616b2a565b61712d6101408501826166fb565b5061713c610160830183616b41565b61714a61016085018261670a565b50505050565b6000610200820190506171666000830185616ffa565b617174610180830184616cc0565b9392505050565b60006060820190506171906000830186616866565b61719d6020830185616866565b6171aa60408301846155f5565b949350505050565b600081905092915050565b7f1901000000000000000000000000000000000000000000000000000000000000600082015250565b60006171f36002836171b2565b91506171fe826171bd565b600282019050919050565b6000819050919050565b61722461721f82614f20565b617209565b82525050565b6000617235826171e6565b91506172418285617213565b6020820191506172518284617213565b6020820191508190509392505050565b60006080820190506172766000830187616866565b6172836020830186616866565b6172906040830185616866565b61729d606083018461511a565b95945050505050565b7f4e487b7100000000000000000000000000000000000000000000000000000000600052601160045260246000fd5b60006172e082614eac565b91506172eb83614eac565b925082820390506fffffffffffffffffffffffffffffffff811115617313576173126172a6565b5b92915050565b600060808201905061732e60008301876150f0565b61733b6020830186616857565b61734860408301856150f0565b61735560608301846150f0565b95945050505050565b600061736982614e3c565b9050919050565b600061737b8261735e565b9050919050565b61738b81617370565b811461739657600080fd5b50565b6000815190506173a881617382565b92915050565b6000602082840312156173c4576173c3614da1565b5b60006173d284828501617399565b91505092915050565b60006020820190506173f06000830184616866565b92915050565b60008151905061740581614fa0565b92915050565b60006020828403121561742157617420614da1565b5b600061742f848285016173f6565b91505092915050565b600061744382614f96565b915061744e83614f96565b9250828203905081811115617466576174656172a6565b5b92915050565b60006060820190506174816000830186616866565b61748e6020830185616866565b61749b604083018461511a565b949350505050565b6000610100820190506174b9600083018b6150f0565b6174c6602083018a616866565b6174d36040830189616866565b6174e06060830188616866565b6174ed6080830187616866565b6174fa60a08301866155da565b61750760c08301856155da565b61751460e08301846150f0565b9998505050505050505050565b600060608201905061753660008301866150f0565b617543602083018561511a565b617550604083018461511a565b949350505050565b600060608201905061756d60008301866150f0565b61757a6020830185616866565b6175876040830184616866565b949350505050565b60006040820190506175a460008301856150f0565b6175b16020830184616866565b9392505050565b60006040820190506175cd6000830185615ac0565b6175da6020830184616866565b9392505050565b6000610160820190506175f7600083018e6150f0565b617604602083018d616866565b617611604083018c616866565b61761e606083018b616866565b61762b608083018a616866565b61763860a0830189616866565b61764560c08301886155da565b61765260e08301876155da565b6176606101008301866155da565b61766e61012083018561511a565b61767c6101408301846150f0565b9c9b505050505050505050505050565b600081905092915050565b50565b60006176a760008361768c565b91506176b282617697565b600082019050919050565b60006176c88261769a565b9150819050919050565b60006040820190506176e76000830185616866565b6176f46020830184616866565b9392505050565b6000604082019050617710600083018561511a565b61771d602083018461511a565b9392505050565b600061772f82614f96565b915061773a83614f96565b925082820261774881614f96565b9150828204841483151761775f5761775e6172a6565b5b5092915050565b7f4e487b7100000000000000000000000000000000000000000000000000000000600052601260045260246000fd5b60006177a082614f96565b91506177ab83614f96565b9250826177bb576177ba617766565b5b828204905092915050565b60006177d182614f96565b91506177dc83614f96565b92508282019050808211156177f4576177f36172a6565b5b92915050565b6006811061780b5761780a615512565b5b50565b600081905061781c826177fa565b919050565b600061782c8261780e565b9050919050565b61783c81617821565b82525050565b60006040820190506178576000830185617833565b61786460208301846150f0565b9392505050565b600060408201905061788060008301856150f0565b61788d6020830184616857565b9392505050565b600061789f82614eac565b91506178aa83614eac565b925082820190506fffffffffffffffffffffffffffffffff8111156178d2576178d16172a6565b5b92915050565b7f466978696e50726f746f636f6c466565732f45544845525f5452414e5346455260008201527f5f46414c49454400000000000000000000000000000000000000000000000000602082015250565b6000617934602783615975565b915061793f826178d8565b604082019050919050565b6000602082019050818103600083015261796381617927565b9050919050565b7f466978696e546f6b656e5370656e6465722f43414e4e4f545f494e564f4b455f60008201527f53454c4600000000000000000000000000000000000000000000000000000000602082015250565b60006179c6602483615975565b91506179d18261796a565b604082019050919050565b600060208201905081810360008301526179f5816179b9565b9050919050565b6000604082019050617a116000830185616866565b617a1e602083018461511a565b9392505050565b60048110617a3657617a35615512565b5b50565b6000819050617a4782617a25565b919050565b6000617a5782617a39565b9050919050565b617a6781617a4c565b82525050565b6000604082019050617a826000830185617a5e565b617a8f602083018461511a565b9392505050565b60007fff0000000000000000000000000000000000000000000000000000000000000082169050919050565b6000819050919050565b617add617ad882617a96565b617ac2565b82525050565b60008160601b9050919050565b6000617afb82617ae3565b9050919050565b6000617b0d82617af0565b9050919050565b617b25617b2082614e5c565b617b02565b82525050565b6000617b378287617acc565b600182019150617b478286617b14565b601482019150617b578285617213565b602082019150617b678284617213565b6020820191508190509594505050505056fea26469706673582212208ca85e225dff8820fff2176eec06af33ca03820ff482db216df708568bd27da464736f6c634300081c003360806040526000801b600055348015601657600080fd5b5060b38060246000396000f3fe6080604052348015600f57600080fd5b506004361060285760003560e01c8063f2541a8c14602d575b600080fd5b60336047565b604051603e91906064565b60405180910390f35b60005481565b6000819050919050565b605e81604d565b82525050565b6000602082019050607760008301846057565b9291505056fea2646970667358221220d2ac1cf73ac836b93145573f9e4280abb9b5fdb30b974683bee102698998fd4364736f6c634300081c0033",
  "linkReferences": {},
  "deployedLinkReferences": {}
}