{
  "_format": "hh-sol-artifact-1",
  "contractName": "ZeroExProtocolGovernor",
  "sourceName": "src/ZeroExProtocolGovernor.sol",
  "abi": [
    {
      "inputs": [
        {
          "internalType": "contract IVotes",
          "name": "_votes",
          "type": "address"
        },
        {
          "internalType": "contract ZeroExTimelock",
          "name": "_timelock",
          "type": "address"
        },
        {
          "internalType": "address",
          "name": "_securityCouncil",
          "type": "address"
        }
      ],
      "stateMutability": "nonpayable",
      "type": "constructor"
    },
    {
      "inputs": [],
      "name": "Empty",
      "type": "error"
    },
    {
      "anonymous": false,
      "inputs": [
        {
          "indexed": false,
          "internalType": "uint256",
          "name": "proposalId",
          "type": "uint256"
        }
      ],
      "name": "ProposalCanceled",
      "type": "event"
    },
    {
      "anonymous": false,
      "inputs": [
        {
          "indexed": false,
          "internalType": "uint256",
          "name": "proposalId",
          "type": "uint256"
        },
        {
          "indexed": false,
          "internalType": "address",
          "name": "proposer",
          "type": "address"
        },
        {
          "indexed": false,
          "internalType": "address[]",
          "name": "targets",
          "type": "address[]"
        },
        {
          "indexed": false,
          "internalType": "uint256[]",
          "name": "values",
          "type": "uint256[]"
        },
        {
          "indexed": false,
          "internalType": "string[]",
          "name": "signatures",
          "type": "string[]"
        },
        {
          "indexed": false,
          "internalType": "bytes[]",
          "name": "calldatas",
          "type": "bytes[]"
        },
        {
          "indexed": false,
          "internalType": "uint256",
          "name": "startBlock",
          "type": "uint256"
        },
        {
          "indexed": false,
          "internalType": "uint256",
          "name": "endBlock",
          "type": "uint256"
        },
        {
          "indexed": false,
          "internalType": "string",
          "name": "description",
          "type": "string"
        }
      ],
      "name": "ProposalCreated",
      "type": "event"
    },
    {
      "anonymous": false,
      "inputs": [
        {
          "indexed": false,
          "internalType": "uint256",
          "name": "proposalId",
          "type": "uint256"
        }
      ],
      "name": "ProposalExecuted",
      "type": "event"
    },
    {
      "anonymous": false,
      "inputs": [
        {
          "indexed": false,
          "internalType": "uint256",
          "name": "proposalId",
          "type": "uint256"
        },
        {
          "indexed": false,
          "internalType": "uint256",
          "name": "eta",
          "type": "uint256"
        }
      ],
      "name": "ProposalQueued",
      "type": "event"
    },
    {
      "anonymous": false,
      "inputs": [
        {
          "indexed": false,
          "internalType": "uint256",
          "name": "oldProposalThreshold",
          "type": "uint256"
        },
        {
          "indexed": false,
          "internalType": "uint256",
          "name": "newProposalThreshold",
          "type": "uint256"
        }
      ],
      "name": "ProposalThresholdSet",
      "type": "event"
    },
    {
      "anonymous": false,
      "inputs": [
        {
          "indexed": false,
          "internalType": "address",
          "name": "securityCouncil",
          "type": "address"
        }
      ],
      "name": "SecurityCouncilAssigned",
      "type": "event"
    },
    {
      "anonymous": false,
      "inputs": [],
      "name": "SecurityCouncilEjected",
      "type": "event"
    },
    {
      "anonymous": false,
      "inputs": [
        {
          "indexed": false,
          "internalType": "address",
          "name": "oldTimelock",
          "type": "address"
        },
        {
          "indexed": false,
          "internalType": "address",
          "name": "newTimelock",
          "type": "address"
        }
      ],
      "name": "TimelockChange",
      "type": "event"
    },
    {
      "anonymous": false,
      "inputs": [
        {
          "indexed": true,
          "internalType": "address",
          "name": "voter",
          "type": "address"
        },
        {
          "indexed": false,
          "internalType": "uint256",
          "name": "proposalId",
          "type": "uint256"
        },
        {
          "indexed": false,
          "internalType": "uint8",
          "name": "support",
          "type": "uint8"
        },
        {
          "indexed": false,
          "internalType": "uint256",
          "name": "weight",
          "type": "uint256"
        },
        {
          "indexed": false,
          "internalType": "string",
          "name": "reason",
          "type": "string"
        }
      ],
      "name": "VoteCast",
      "type": "event"
    },
    {
      "anonymous": false,
      "inputs": [
        {
          "indexed": true,
          "internalType": "address",
          "name": "voter",
          "type": "address"
        },
        {
          "indexed": false,
          "internalType": "uint256",
          "name": "proposalId",
          "type": "uint256"
        },
        {
          "indexed": false,
          "internalType": "uint8",
          "name": "support",
          "type": "uint8"
        },
        {
          "indexed": false,
          "internalType": "uint256",
          "name": "weight",
          "type": "uint256"
        },
        {
          "indexed": false,
          "internalType": "string",
          "name": "reason",
          "type": "string"
        },
        {
          "indexed": false,
          "internalType": "bytes",
          "name": "params",
          "type": "bytes"
        }
      ],
      "name": "VoteCastWithParams",
      "type": "event"
    },
    {
      "anonymous": false,
      "inputs": [
        {
          "indexed": false,
          "internalType": "uint256",
          "name": "oldVotingDelay",
          "type": "uint256"
        },
        {
          "indexed": false,
          "internalType": "uint256",
          "name": "newVotingDelay",
          "type": "uint256"
        }
      ],
      "name": "VotingDelaySet",
      "type": "event"
    },
    {
      "anonymous": false,
      "inputs": [
        {
          "indexed": false,
          "internalType": "uint256",
          "name": "oldVotingPeriod",
          "type": "uint256"
        },
        {
          "indexed": false,
          "internalType": "uint256",
          "name": "newVotingPeriod",
          "type": "uint256"
        }
      ],
      "name": "VotingPeriodSet",
      "type": "event"
    },
    {
      "inputs": [],
      "name": "BALLOT_TYPEHASH",
      "outputs": [
        {
          "internalType": "bytes32",
          "name": "",
          "type": "bytes32"
        }
      ],
      "stateMutability": "view",
      "type": "function"
    },
    {
      "inputs": [],
      "name": "COUNTING_MODE",
      "outputs": [
        {
          "internalType": "string",
          "name": "",
          "type": "string"
        }
      ],
      "stateMutability": "pure",
      "type": "function"
    },
    {
      "inputs": [],
      "name": "EXTENDED_BALLOT_TYPEHASH",
      "outputs": [
        {
          "internalType": "bytes32",
          "name": "",
          "type": "bytes32"
        }
      ],
      "stateMutability": "view",
      "type": "function"
    },
    {
      "inputs": [
        {
          "internalType": "address",
          "name": "_securityCouncil",
          "type": "address"
        }
      ],
      "name": "assignSecurityCouncil",
      "outputs": [],
      "stateMutability": "nonpayable",
      "type": "function"
    },
    {
      "inputs": [
        {
          "internalType": "address[]",
          "name": "targets",
          "type": "address[]"
        },
        {
          "internalType": "uint256[]",
          "name": "values",
          "type": "uint256[]"
        },
        {
          "internalType": "bytes[]",
          "name": "calldatas",
          "type": "bytes[]"
        },
        {
          "internalType": "bytes32",
          "name": "descriptionHash",
          "type": "bytes32"
        }
      ],
      "name": "cancel",
      "outputs": [],
      "stateMutability": "nonpayable",
      "type": "function"
    },
    {
      "inputs": [
        {
          "internalType": "uint256",
          "name": "proposalId",
          "type": "uint256"
        },
        {
          "internalType": "uint8",
          "name": "support",
          "type": "uint8"
        }
      ],
      "name": "castVote",
      "outputs": [
        {
          "internalType": "uint256",
          "name": "",
          "type": "uint256"
        }
      ],
      "stateMutability": "nonpayable",
      "type": "function"
    },
    {
      "inputs": [
        {
          "internalType": "uint256",
          "name": "proposalId",
          "type": "uint256"
        },
        {
          "internalType": "uint8",
          "name": "support",
          "type": "uint8"
        },
        {
          "internalType": "uint8",
          "name": "v",
          "type": "uint8"
        },
        {
          "internalType": "bytes32",
          "name": "r",
          "type": "bytes32"
        },
        {
          "internalType": "bytes32",
          "name": "s",
          "type": "bytes32"
        }
      ],
      "name": "castVoteBySig",
      "outputs": [
        {
          "internalType": "uint256",
          "name": "",
          "type": "uint256"
        }
      ],
      "stateMutability": "nonpayable",
      "type": "function"
    },
    {
      "inputs": [
        {
          "internalType": "uint256",
          "name": "proposalId",
          "type": "uint256"
        },
        {
          "internalType": "uint8",
          "name": "support",
          "type": "uint8"
        },
        {
          "internalType": "string",
          "name": "reason",
          "type": "string"
        }
      ],
      "name": "castVoteWithReason",
      "outputs": [
        {
          "internalType": "uint256",
          "name": "",
          "type": "uint256"
        }
      ],
      "stateMutability": "nonpayable",
      "type": "function"
    },
    {
      "inputs": [
        {
          "internalType": "uint256",
          "name": "proposalId",
          "type": "uint256"
        },
        {
          "internalType": "uint8",
          "name": "support",
          "type": "uint8"
        },
        {
          "internalType": "string",
          "name": "reason",
          "type": "string"
        },
        {
          "internalType": "bytes",
          "name": "params",
          "type": "bytes"
        }
      ],
      "name": "castVoteWithReasonAndParams",
      "outputs": [
        {
          "internalType": "uint256",
          "name": "",
          "type": "uint256"
        }
      ],
      "stateMutability": "nonpayable",
      "type": "function"
    },
    {
      "inputs": [
        {
          "internalType": "uint256",
          "name": "proposalId",
          "type": "uint256"
        },
        {
          "internalType": "uint8",
          "name": "support",
          "type": "uint8"
        },
        {
          "internalType": "string",
          "name": "reason",
          "type": "string"
        },
        {
          "internalType": "bytes",
          "name": "params",
          "type": "bytes"
        },
        {
          "internalType": "uint8",
          "name": "v",
          "type": "uint8"
        },
        {
          "internalType": "bytes32",
          "name": "r",
          "type": "bytes32"
        },
        {
          "internalType": "bytes32",
          "name": "s",
          "type": "bytes32"
        }
      ],
      "name": "castVoteWithReasonAndParamsBySig",
      "outputs": [
        {
          "internalType": "uint256",
          "name": "",
          "type": "uint256"
        }
      ],
      "stateMutability": "nonpayable",
      "type": "function"
    },
    {
      "inputs": [
        {
          "internalType": "address[]",
          "name": "targets",
          "type": "address[]"
        },
        {
          "internalType": "uint256[]",
          "name": "values",
          "type": "uint256[]"
        },
        {
          "internalType": "bytes[]",
          "name": "calldatas",
          "type": "bytes[]"
        },
        {
          "internalType": "bytes32",
          "name": "descriptionHash",
          "type": "bytes32"
        }
      ],
      "name": "execute",
      "outputs": [
        {
          "internalType": "uint256",
          "name": "",
          "type": "uint256"
        }
      ],
      "stateMutability": "payable",
      "type": "function"
    },
    {
      "inputs": [
        {
          "internalType": "address[]",
          "name": "targets",
          "type": "address[]"
        },
        {
          "internalType": "uint256[]",
          "name": "values",
          "type": "uint256[]"
        },
        {
          "internalType": "bytes[]",
          "name": "calldatas",
          "type": "bytes[]"
        },
        {
          "internalType": "bytes32",
          "name": "descriptionHash",
          "type": "bytes32"
        }
      ],
      "name": "executeRollback",
      "outputs": [],
      "stateMutability": "nonpayable",
      "type": "function"
    },
    {
      "inputs": [
        {
          "internalType": "address",
          "name": "account",
          "type": "address"
        },
        {
          "internalType": "uint256",
          "name": "blockNumber",
          "type": "uint256"
        }
      ],
      "name": "getVotes",
      "outputs": [
        {
          "internalType": "uint256",
          "name": "",
          "type": "uint256"
        }
      ],
      "stateMutability": "view",
      "type": "function"
    },
    {
      "inputs": [
        {
          "internalType": "address",
          "name": "account",
          "type": "address"
        },
        {
          "internalType": "uint256",
          "name": "blockNumber",
          "type": "uint256"
        },
        {
          "internalType": "bytes",
          "name": "params",
          "type": "bytes"
        }
      ],
      "name": "getVotesWithParams",
      "outputs": [
        {
          "internalType": "uint256",
          "name": "",
          "type": "uint256"
        }
      ],
      "stateMutability": "view",
      "type": "function"
    },
    {
      "inputs": [
        {
          "internalType": "uint256",
          "name": "proposalId",
          "type": "uint256"
        },
        {
          "internalType": "address",
          "name": "account",
          "type": "address"
        }
      ],
      "name": "hasVoted",
      "outputs": [
        {
          "internalType": "bool",
          "name": "",
          "type": "bool"
        }
      ],
      "stateMutability": "view",
      "type": "function"
    },
    {
      "inputs": [
        {
          "internalType": "address[]",
          "name": "targets",
          "type": "address[]"
        },
        {
          "internalType": "uint256[]",
          "name": "values",
          "type": "uint256[]"
        },
        {
          "internalType": "bytes[]",
          "name": "calldatas",
          "type": "bytes[]"
        },
        {
          "internalType": "bytes32",
          "name": "descriptionHash",
          "type": "bytes32"
        }
      ],
      "name": "hashProposal",
      "outputs": [
        {
          "internalType": "uint256",
          "name": "",
          "type": "uint256"
        }
      ],
      "stateMutability": "pure",
      "type": "function"
    },
    {
      "inputs": [],
      "name": "name",
      "outputs": [
        {
          "internalType": "string",
          "name": "",
          "type": "string"
        }
      ],
      "stateMutability": "view",
      "type": "function"
    },
    {
      "inputs": [
        {
          "internalType": "address",
          "name": "",
          "type": "address"
        },
        {
          "internalType": "address",
          "name": "",
          "type": "address"
        },
        {
          "internalType": "uint256[]",
          "name": "",
          "type": "uint256[]"
        },
        {
          "internalType": "uint256[]",
          "name": "",
          "type": "uint256[]"
        },
        {
          "internalType": "bytes",
          "name": "",
          "type": "bytes"
        }
      ],
      "name": "onERC1155BatchReceived",
      "outputs": [
        {
          "internalType": "bytes4",
          "name": "",
          "type": "bytes4"
        }
      ],
      "stateMutability": "nonpayable",
      "type": "function"
    },
    {
      "inputs": [
        {
          "internalType": "address",
          "name": "",
          "type": "address"
        },
        {
          "internalType": "address",
          "name": "",
          "type": "address"
        },
        {
          "internalType": "uint256",
          "name": "",
          "type": "uint256"
        },
        {
          "internalType": "uint256",
          "name": "",
          "type": "uint256"
        },
        {
          "internalType": "bytes",
          "name": "",
          "type": "bytes"
        }
      ],
      "name": "onERC1155Received",
      "outputs": [
        {
          "internalType": "bytes4",
          "name": "",
          "type": "bytes4"
        }
      ],
      "stateMutability": "nonpayable",
      "type": "function"
    },
    {
      "inputs": [
        {
          "internalType": "address",
          "name": "",
          "type": "address"
        },
        {
          "internalType": "address",
          "name": "",
          "type": "address"
        },
        {
          "internalType": "uint256",
          "name": "",
          "type": "uint256"
        },
        {
          "internalType": "bytes",
          "name": "",
          "type": "bytes"
        }
      ],
      "name": "onERC721Received",
      "outputs": [
        {
          "internalType": "bytes4",
          "name": "",
          "type": "bytes4"
        }
      ],
      "stateMutability": "nonpayable",
      "type": "function"
    },
    {
      "inputs": [
        {
          "internalType": "uint256",
          "name": "proposalId",
          "type": "uint256"
        }
      ],
      "name": "proposalDeadline",
      "outputs": [
        {
          "internalType": "uint256",
          "name": "",
          "type": "uint256"
        }
      ],
      "stateMutability": "view",
      "type": "function"
    },
    {
      "inputs": [
        {
          "internalType": "uint256",
          "name": "proposalId",
          "type": "uint256"
        }
      ],
      "name": "proposalEta",
      "outputs": [
        {
          "internalType": "uint256",
          "name": "",
          "type": "uint256"
        }
      ],
      "stateMutability": "view",
      "type": "function"
    },
    {
      "inputs": [
        {
          "internalType": "uint256",
          "name": "proposalId",
          "type": "uint256"
        }
      ],
      "name": "proposalSnapshot",
      "outputs": [
        {
          "internalType": "uint256",
          "name": "",
          "type": "uint256"
        }
      ],
      "stateMutability": "view",
      "type": "function"
    },
    {
      "inputs": [],
      "name": "proposalThreshold",
      "outputs": [
        {
          "internalType": "uint256",
          "name": "",
          "type": "uint256"
        }
      ],
      "stateMutability": "view",
      "type": "function"
    },
    {
      "inputs": [
        {
          "internalType": "uint256",
          "name": "proposalId",
          "type": "uint256"
        }
      ],
      "name": "proposalVotes",
      "outputs": [
        {
          "internalType": "uint256",
          "name": "againstVotes",
          "type": "uint256"
        },
        {
          "internalType": "uint256",
          "name": "forVotes",
          "type": "uint256"
        },
        {
          "internalType": "uint256",
          "name": "abstainVotes",
          "type": "uint256"
        }
      ],
      "stateMutability": "view",
      "type": "function"
    },
    {
      "inputs": [
        {
          "internalType": "address[]",
          "name": "targets",
          "type": "address[]"
        },
        {
          "internalType": "uint256[]",
          "name": "values",
          "type": "uint256[]"
        },
        {
          "internalType": "bytes[]",
          "name": "calldatas",
          "type": "bytes[]"
        },
        {
          "internalType": "string",
          "name": "description",
          "type": "string"
        }
      ],
      "name": "propose",
      "outputs": [
        {
          "internalType": "uint256",
          "name": "",
          "type": "uint256"
        }
      ],
      "stateMutability": "nonpayable",
      "type": "function"
    },
    {
      "inputs": [
        {
          "internalType": "address[]",
          "name": "targets",
          "type": "address[]"
        },
        {
          "internalType": "uint256[]",
          "name": "values",
          "type": "uint256[]"
        },
        {
          "internalType": "bytes[]",
          "name": "calldatas",
          "type": "bytes[]"
        },
        {
          "internalType": "bytes32",
          "name": "descriptionHash",
          "type": "bytes32"
        }
      ],
      "name": "queue",
      "outputs": [
        {
          "internalType": "uint256",
          "name": "",
          "type": "uint256"
        }
      ],
      "stateMutability": "nonpayable",
      "type": "function"
    },
    {
      "inputs": [
        {
          "internalType": "uint256",
          "name": "blockNumber",
          "type": "uint256"
        }
      ],
      "name": "quorum",
      "outputs": [
        {
          "internalType": "uint256",
          "name": "",
          "type": "uint256"
        }
      ],
      "stateMutability": "pure",
      "type": "function"
    },
    {
      "inputs": [
        {
          "internalType": "address",
          "name": "target",
          "type": "address"
        },
        {
          "internalType": "uint256",
          "name": "value",
          "type": "uint256"
        },
        {
          "internalType": "bytes",
          "name": "data",
          "type": "bytes"
        }
      ],
      "name": "relay",
      "outputs": [],
      "stateMutability": "payable",
      "type": "function"
    },
    {
      "inputs": [],
      "name": "securityCouncil",
      "outputs": [
        {
          "internalType": "address",
          "name": "",
          "type": "address"
        }
      ],
      "stateMutability": "view",
      "type": "function"
    },
    {
      "inputs": [
        {
          "internalType": "uint256",
          "name": "newProposalThreshold",
          "type": "uint256"
        }
      ],
      "name": "setProposalThreshold",
      "outputs": [],
      "stateMutability": "nonpayable",
      "type": "function"
    },
    {
      "inputs": [
        {
          "internalType": "uint256",
          "name": "newVotingDelay",
          "type": "uint256"
        }
      ],
      "name": "setVotingDelay",
      "outputs": [],
      "stateMutability": "nonpayable",
      "type": "function"
    },
    {
      "inputs": [
        {
          "internalType": "uint256",
          "name": "newVotingPeriod",
          "type": "uint256"
        }
      ],
      "name": "setVotingPeriod",
      "outputs": [],
      "stateMutability": "nonpayable",
      "type": "function"
    },
    {
      "inputs": [
        {
          "internalType": "uint256",
          "name": "proposalId",
          "type": "uint256"
        }
      ],
      "name": "state",
      "outputs": [
        {
          "internalType": "enum IGovernor.ProposalState",
          "name": "",
          "type": "uint8"
        }
      ],
      "stateMutability": "view",
      "type": "function"
    },
    {
      "inputs": [
        {
          "internalType": "bytes4",
          "name": "interfaceId",
          "type": "bytes4"
        }
      ],
      "name": "supportsInterface",
      "outputs": [
        {
          "internalType": "bool",
          "name": "",
          "type": "bool"
        }
      ],
      "stateMutability": "view",
      "type": "function"
    },
    {
      "inputs": [],
      "name": "timelock",
      "outputs": [
        {
          "internalType": "address",
          "name": "",
          "type": "address"
        }
      ],
      "stateMutability": "view",
      "type": "function"
    },
    {
      "inputs": [],
      "name": "token",
      "outputs": [
        {
          "internalType": "contract IVotes",
          "name": "",
          "type": "address"
        }
      ],
      "stateMutability": "view",
      "type": "function"
    },
    {
      "inputs": [
        {
          "internalType": "contract TimelockController",
          "name": "newTimelock",
          "type": "address"
        }
      ],
      "name": "updateTimelock",
      "outputs": [],
      "stateMutability": "nonpayable",
      "type": "function"
    },
    {
      "inputs": [],
      "name": "version",
      "outputs": [
        {
          "internalType": "string",
          "name": "",
          "type": "string"
        }
      ],
      "stateMutability": "view",
      "type": "function"
    },
    {
      "inputs": [],
      "name": "votingDelay",
      "outputs": [
        {
          "internalType": "uint256",
          "name": "",
          "type": "uint256"
        }
      ],
      "stateMutability": "view",
      "type": "function"
    },
    {
      "inputs": [],
      "name": "votingPeriod",
      "outputs": [
        {
          "internalType": "uint256",
          "name": "",
          "type": "uint256"
        }
      ],
      "stateMutability": "view",
      "type": "function"
    },
    {
      "stateMutability": "payable",
      "type": "receive"
    }
  ],
  "bytecode": "0x610160604052348015610010575f5ffd5b50604051614c02380380614c0283398101604081905261002f91610342565b818361384061c4e069d3c21bcecceda10000006040518060400160405280601681526020017f5a65726f457850726f746f636f6c476f7665726e6f72000000000000000000008152508061008761018160201b60201c565b815160209283012081519183019190912060e08290526101008190524660a0818152604080517f8b73c3c69bb8fe3d512ecc4cf759cc79239f7b179b0ffacaa9a75d522b39400f818801819052818301969096526060810194909452608080850193909352308483018190528151808603909301835260c0948501909152815191909501209052919091526101205260016101228282610424565b5061012e90508361019c565b610137826101dd565b61014081610281565b5050506001600160a01b031661014052610159816102c2565b505f80546001600160a01b0319166001600160a01b0392909216919091179055506104de9050565b6040805180820190915260018152603160f81b602082015290565b60055460408051918252602082018390527fc565b045403dc03c2eea82b81a0465edad9e2e7fc4d97e11421c209da93d7a93910160405180910390a1600555565b5f81116102405760405162461bcd60e51b815260206004820152602760248201527f476f7665726e6f7253657474696e67733a20766f74696e6720706572696f6420604482015266746f6f206c6f7760c81b606482015260840160405180910390fd5b60065460408051918252602082018390527f7e3f7f0708a84de9203036abaa450dccc85ad5ff52f78c170f3edb55cf5e8828910160405180910390a1600655565b60075460408051918252602082018390527fccb45da8d5717e6c4544694297c4ba5cf151d455c9bb0ed4fc7a38411bc05461910160405180910390a1600755565b600954604080516001600160a01b03928316815291831660208301527f08f74ea46ef7894f65eabfb5e6e695de773a000b47c529ab559178069b226401910160405180910390a1600980546001600160a01b0319166001600160a01b0392909216919091179055565b6001600160a01b038116811461033f575f5ffd5b50565b5f5f5f60608486031215610354575f5ffd5b835161035f8161032b565b60208501519093506103708161032b565b60408501519092506103818161032b565b809150509250925092565b634e487b7160e01b5f52604160045260245ffd5b600181811c908216806103b457607f821691505b6020821081036103d257634e487b7160e01b5f52602260045260245ffd5b50919050565b601f82111561041f57805f5260205f20601f840160051c810160208510156103fd5750805b601f840160051c820191505b8181101561041c575f8155600101610409565b50505b505050565b81516001600160401b0381111561043d5761043d61038c565b6104518161044b84546103a0565b846103d8565b6020601f821160018114610483575f831561046c5750848201515b5f19600385901b1c1916600184901b17845561041c565b5f84815260208120601f198516915b828110156104b25787850151825560209485019460019092019101610492565b50848210156104cf57868401515f19600387901b60f8161c191681555b50505050600190811b01905550565b60805160a05160c05160e0516101005161012051610140516146cc6105365f395f8181610992015261291201525f612d0601525f612d5501525f612d3001525f612c8901525f612cb301525f612cdd01526146cc5ff3fe6080604052600436106102b9575f3560e01c80635f398a1411610170578063c28bc2fa116100d1578063ea0217cf11610087578063f23a6e6111610062578063f23a6e6114610913578063f8ce560a14610957578063fc0c546a14610981575f5ffd5b8063ea0217cf146108b6578063eb9019d4146108d5578063ece40cc1146108f4575f5ffd5b8063d33219b4116100b7578063d33219b414610814578063dd4e2ba51461083e578063deaaa7cc14610883575f5ffd5b8063c28bc2fa146107e2578063c59057e4146107f5575f5ffd5b8063a890c91011610126578063b58131b01161010c578063b58131b01461076b578063bc197c811461077f578063c01f9e37146107c3575f5ffd5b8063a890c9101461072d578063ab58fb8e1461074c575f5ffd5b80637b3c71d3116101565780637b3c71d3146106d05780637d5e81e2146106ef5780639a802a6d1461070e575f5ffd5b80635f398a141461069257806370b0f660146106b1575f5ffd5b80632fe3e2611161021a57806343859632116101d0578063544ffc9c116101b6578063544ffc9c146105db57806354fd4d501461062e5780635678138814610673575f5ffd5b80634385963214610567578063452115d6146105bc575f5ffd5b80633932abb1116102005780633932abb1146105085780633bccf4fd1461051c5780633e4f49e61461053b575f5ffd5b80632fe3e261146104b657806332a30f02146104e9575f5ffd5b8063160cbed71161026f5780632761c3cd116102555780632761c3cd1461042857806327eb6c0f146104475780632d63f69314610497575f5ffd5b8063160cbed7146103f65780632656227d14610415575f5ffd5b8063034201811161029f578063034201811461034257806306fdde0314610361578063150b7a0214610382575f5ffd5b806301ffc9a7146102ec57806302a251a314610320575f5ffd5b366102e857306102c76109b4565b73ffffffffffffffffffffffffffffffffffffffff16146102e6575f5ffd5b005b5f5ffd5b3480156102f7575f5ffd5b5061030b6103063660046137a7565b6109d9565b60405190151581526020015b60405180910390f35b34801561032b575f5ffd5b506103346109e9565b604051908152602001610317565b34801561034d575f5ffd5b5061033461035c366004613951565b6109f3565b34801561036c575f5ffd5b50610375610ae9565b6040516103179190613a42565b34801561038d575f5ffd5b506103c561039c366004613a75565b7f150b7a0200000000000000000000000000000000000000000000000000000000949350505050565b6040517fffffffff000000000000000000000000000000000000000000000000000000009091168152602001610317565b348015610401575f5ffd5b50610334610410366004613c43565b610b79565b610334610423366004613c43565b610c75565b348015610433575f5ffd5b506102e6610442366004613cd9565b610df2565b348015610452575f5ffd5b505f546104729073ffffffffffffffffffffffffffffffffffffffff1681565b60405173ffffffffffffffffffffffffffffffffffffffff9091168152602001610317565b3480156104a2575f5ffd5b506103346104b1366004613cf4565b610eec565b3480156104c1575f5ffd5b506103347fb3b3f3b703cd84ce352197dcff232b1b5d3cfb2025ce47cf04742d0651f1af8881565b3480156104f4575f5ffd5b506102e6610503366004613c43565b610f24565b348015610513575f5ffd5b50610334610fdd565b348015610527575f5ffd5b50610334610536366004613d0b565b610fe7565b348015610546575f5ffd5b5061055a610555366004613cf4565b61105b565b6040516103179190613d82565b348015610572575f5ffd5b5061030b610581366004613dc1565b5f82815260086020908152604080832073ffffffffffffffffffffffffffffffffffffffff8516845260030190915290205460ff1692915050565b3480156105c7575f5ffd5b506102e66105d6366004613c43565b611065565b3480156105e6575f5ffd5b506106136105f5366004613cf4565b5f908152600860205260409020805460018201546002909201549092565b60408051938452602084019290925290820152606001610317565b348015610639575f5ffd5b5060408051808201909152600181527f31000000000000000000000000000000000000000000000000000000000000006020820152610375565b34801561067e575f5ffd5b5061033461068d366004613def565b611080565b34801561069d575f5ffd5b506103346106ac366004613e19565b6110a7565b3480156106bc575f5ffd5b506102e66106cb366004613cf4565b6110ef565b3480156106db575f5ffd5b506103346106ea366004613e9c565b6111e6565b3480156106fa575f5ffd5b50610334610709366004613ef2565b61122c565b348015610719575f5ffd5b50610334610728366004613fb2565b611319565b348015610738575f5ffd5b506102e6610747366004613cd9565b61132f565b348015610757575f5ffd5b50610334610766366004613cf4565b611426565b348015610776575f5ffd5b506103346114e2565b34801561078a575f5ffd5b506103c5610799366004614007565b7fbc197c810000000000000000000000000000000000000000000000000000000095945050505050565b3480156107ce575f5ffd5b506103346107dd366004613cf4565b6114ec565b6102e66107f03660046140a1565b61151b565b348015610800575f5ffd5b5061033461080f366004613c43565b6116a3565b34801561081f575f5ffd5b5060095473ffffffffffffffffffffffffffffffffffffffff16610472565b348015610849575f5ffd5b506040805180820190915260208082527f737570706f72743d627261766f2671756f72756d3d666f722c6162737461696e90820152610375565b34801561088e575f5ffd5b506103347f150214d74d59b7d1e90c73fc22ef3d991dd0a76b046543d4d80ab92d2a50328f81565b3480156108c1575f5ffd5b506102e66108d0366004613cf4565b6116fa565b3480156108e0575f5ffd5b506103346108ef3660046140e1565b6117f1565b3480156108ff575f5ffd5b506102e661090e366004613cf4565b611810565b34801561091e575f5ffd5b506103c561092d36600461410b565b7ff23a6e610000000000000000000000000000000000000000000000000000000095945050505050565b348015610962575f5ffd5b50610334610971366004613cf4565b506a084595161401484a00000090565b34801561098c575f5ffd5b506104727f000000000000000000000000000000000000000000000000000000000000000081565b5f6109d460095473ffffffffffffffffffffffffffffffffffffffff1690565b905090565b5f6109e382611907565b92915050565b5f6109d460065490565b5f5f610a96610a8e7fb3b3f3b703cd84ce352197dcff232b1b5d3cfb2025ce47cf04742d0651f1af888c8c8c8c604051610a2e929190614163565b60405180910390208b80519060200120604051602001610a73959493929190948552602085019390935260ff9190911660408401526060830152608082015260a00190565b6040516020818303038152906040528051906020012061195c565b8686866119c3565b9050610adb8a828b8b8b8080601f0160208091040260200160405190810160405280939291908181526020018383808284375f920191909152508d92506119df915050565b9a9950505050505050505050565b606060018054610af890614172565b80601f0160208091040260200160405190810160405280929190818152602001828054610b2490614172565b8015610b6f5780601f10610b4657610100808354040283529160200191610b6f565b820191905f5260205f20905b815481529060010190602001808311610b5257829003601f168201915b5050505050905090565b5f8054839073ffffffffffffffffffffffffffffffffffffffff16158015610ba75750610ba581611b8f565b155b15610c5f576040517f08c379a000000000000000000000000000000000000000000000000000000000815260206004820152605160248201527f5365637572697479436f756e63696c3a20736563757269747920636f756e636960448201527f6c206e6f742061737369676e656420616e642074686973206973206e6f74206160648201527f6e2061737369676e6d656e742063616c6c000000000000000000000000000000608482015260a4015b60405180910390fd5b610c6b86868686611ca1565b9695505050505050565b5f5f610c83868686866116a3565b90505f610c8f8261105b565b90506004816007811115610ca557610ca5613d55565b1480610cc257506005816007811115610cc057610cc0613d55565b145b610d4e576040517f08c379a000000000000000000000000000000000000000000000000000000000815260206004820152602160248201527f476f7665726e6f723a2070726f706f73616c206e6f742073756363657373667560448201527f6c000000000000000000000000000000000000000000000000000000000000006064820152608401610c56565b5f828152600260208190526040918290200180547fffffffffffffffffffffffffffffffffffffffffffffffffffffffffffffff00166001179055517f712ae1383f79ac853f8d882153778e0260ef8f03b504e2866e0593e04d2b291f90610db99084815260200190565b60405180910390a1610dce8288888888611f77565b610ddb8288888888612036565b610de88288888888612043565b5095945050505050565b610dfa6109b4565b73ffffffffffffffffffffffffffffffffffffffff163373ffffffffffffffffffffffffffffffffffffffff1614610e8e576040517f08c379a000000000000000000000000000000000000000000000000000000000815260206004820152601860248201527f476f7665726e6f723a206f6e6c79476f7665726e616e636500000000000000006044820152606401610c56565b30610e976109b4565b73ffffffffffffffffffffffffffffffffffffffff1614610ee0575f8036604051610ec3929190614163565b604051809103902090505b80610ed96003612095565b03610ece57505b610ee981612150565b50565b5f81815260026020908152604080832081519283019091525467ffffffffffffffff16908190525b67ffffffffffffffff1692915050565b610f2c6121c8565b5f610f4c60095473ffffffffffffffffffffffffffffffffffffffff1690565b6040517f4100f47f00000000000000000000000000000000000000000000000000000000815290915073ffffffffffffffffffffffffffffffffffffffff821690634100f47f90610fa9908890889088905f9089906004016142b5565b5f604051808303815f87803b158015610fc0575f5ffd5b505af1158015610fd2573d5f5f3e3d5ffd5b505050505050505050565b5f6109d460055490565b604080517f150214d74d59b7d1e90c73fc22ef3d991dd0a76b046543d4d80ab92d2a50328f602082015290810186905260ff851660608201525f90819061103490610a8e90608001610a73565b905061105087828860405180602001604052805f815250612270565b979650505050505050565b5f6109e38261229a565b61106d6121c8565b61107984848484612431565b5050505050565b5f8033905061109f84828560405180602001604052805f815250612270565b949350505050565b5f8033905061105087828888888080601f0160208091040260200160405190810160405280939291908181526020018383808284375f920191909152508a92506119df915050565b6110f76109b4565b73ffffffffffffffffffffffffffffffffffffffff163373ffffffffffffffffffffffffffffffffffffffff161461118b576040517f08c379a000000000000000000000000000000000000000000000000000000000815260206004820152601860248201527f476f7665726e6f723a206f6e6c79476f7665726e616e636500000000000000006044820152606401610c56565b306111946109b4565b73ffffffffffffffffffffffffffffffffffffffff16146111dd575f80366040516111c0929190614163565b604051809103902090505b806111d66003612095565b036111cb57505b610ee98161243e565b5f80339050610c6b86828787878080601f0160208091040260200160405190810160405280939291908181526020018383808284375f9201919091525061227092505050565b5f8054839073ffffffffffffffffffffffffffffffffffffffff1615801561125a575061125881611b8f565b155b1561130d576040517f08c379a000000000000000000000000000000000000000000000000000000000815260206004820152605160248201527f5365637572697479436f756e63696c3a20736563757269747920636f756e636960448201527f6c206e6f742061737369676e656420616e642074686973206973206e6f74206160648201527f6e2061737369676e6d656e742063616c6c000000000000000000000000000000608482015260a401610c56565b610c6b8686868661247f565b5f6113258484846128c4565b90505b9392505050565b6113376109b4565b73ffffffffffffffffffffffffffffffffffffffff163373ffffffffffffffffffffffffffffffffffffffff16146113cb576040517f08c379a000000000000000000000000000000000000000000000000000000000815260206004820152601860248201527f476f7665726e6f723a206f6e6c79476f7665726e616e636500000000000000006044820152606401610c56565b306113d46109b4565b73ffffffffffffffffffffffffffffffffffffffff161461141d575f8036604051611400929190614163565b604051809103902090505b806114166003612095565b0361140b57505b610ee98161297d565b6009545f828152600a60205260408082205490517fd45c443500000000000000000000000000000000000000000000000000000000815260048101919091529091829173ffffffffffffffffffffffffffffffffffffffff9091169063d45c443590602401602060405180830381865afa1580156114a6573d5f5f3e3d5ffd5b505050506040513d601f19601f820116820180604052508101906114ca9190614302565b9050806001146114da5780611328565b5f9392505050565b5f6109d460075490565b5f81815260026020908152604080832081519283019091526001015467ffffffffffffffff1690819052610f14565b6115236109b4565b73ffffffffffffffffffffffffffffffffffffffff163373ffffffffffffffffffffffffffffffffffffffff16146115b7576040517f08c379a000000000000000000000000000000000000000000000000000000000815260206004820152601860248201527f476f7665726e6f723a206f6e6c79476f7665726e616e636500000000000000006044820152606401610c56565b306115c06109b4565b73ffffffffffffffffffffffffffffffffffffffff1614611609575f80366040516115ec929190614163565b604051809103902090505b806116026003612095565b036115f757505b5f5f8573ffffffffffffffffffffffffffffffffffffffff16858585604051611633929190614163565b5f6040518083038185875af1925050503d805f811461166d576040519150601f19603f3d011682016040523d82523d5f602084013e611672565b606091505b509150915061169a828260405180606001604052806028815260200161466f60289139612a18565b50505050505050565b5f848484846040516020016116bb9493929190614319565b604080517fffffffffffffffffffffffffffffffffffffffffffffffffffffffffffffffe0818403018152919052805160209091012095945050505050565b6117026109b4565b73ffffffffffffffffffffffffffffffffffffffff163373ffffffffffffffffffffffffffffffffffffffff1614611796576040517f08c379a000000000000000000000000000000000000000000000000000000000815260206004820152601860248201527f476f7665726e6f723a206f6e6c79476f7665726e616e636500000000000000006044820152606401610c56565b3061179f6109b4565b73ffffffffffffffffffffffffffffffffffffffff16146117e8575f80366040516117cb929190614163565b604051809103902090505b806117e16003612095565b036117d657505b610ee981612a31565b5f611328838361180b60408051602081019091525f815290565b6128c4565b6118186109b4565b73ffffffffffffffffffffffffffffffffffffffff163373ffffffffffffffffffffffffffffffffffffffff16146118ac576040517f08c379a000000000000000000000000000000000000000000000000000000000815260206004820152601860248201527f476f7665726e6f723a206f6e6c79476f7665726e616e636500000000000000006044820152606401610c56565b306118b56109b4565b73ffffffffffffffffffffffffffffffffffffffff16146118fe575f80366040516118e1929190614163565b604051809103902090505b806118f76003612095565b036118ec57505b610ee981612b01565b5f7fffffffff0000000000000000000000000000000000000000000000000000000082167f6e665ced0000000000000000000000000000000000000000000000000000000014806109e357506109e382612b42565b5f6109e3611968612c70565b836040517f1901000000000000000000000000000000000000000000000000000000000000602082015260228101839052604281018290525f9060620160405160208183030381529060405280519060200120905092915050565b5f5f5f6119d287878787612da3565b91509150610de881612e8b565b5f85815260026020526040812060016119f78861105b565b6007811115611a0857611a08613d55565b14611a95576040517f08c379a000000000000000000000000000000000000000000000000000000000815260206004820152602360248201527f476f7665726e6f723a20766f7465206e6f742063757272656e746c792061637460448201527f69766500000000000000000000000000000000000000000000000000000000006064820152608401610c56565b6040805160208101909152815467ffffffffffffffff16908190525f90611abe908890866128c4565b9050611acd888888848861303d565b83515f03611b2e578673ffffffffffffffffffffffffffffffffffffffff167fb8e138887d0aa13bab447e82de9d5c1777041ecd21ca36ba824ff1e6c07ddda489888489604051611b219493929190614363565b60405180910390a2611050565b8673ffffffffffffffffffffffffffffffffffffffff167fe2babfbac5889a709b63bb7f598b324e08bc5a4fb9ec647fb3cbc9ec07eb87128988848989604051611b7c95949392919061438a565b60405180910390a2979650505050505050565b5f8151600114611c21576040517f08c379a000000000000000000000000000000000000000000000000000000000815260206004820152603460248201527f5365637572697479436f756e63696c3a206d6f7265207468616e20312074726160448201527f6e73616374696f6e20696e2070726f706f73616c0000000000000000000000006064820152608401610c56565b5f825f81518110611c3457611c346143cf565b602090810291909101015190507f2761c3cd00000000000000000000000000000000000000000000000000000000611c6b826143fc565b7fffffffff0000000000000000000000000000000000000000000000000000000016036114da5750600192915050565b50919050565b5f5f611caf868686866116a3565b90506004611cbc8261105b565b6007811115611ccd57611ccd613d55565b14611d5a576040517f08c379a000000000000000000000000000000000000000000000000000000000815260206004820152602160248201527f476f7665726e6f723a2070726f706f73616c206e6f742073756363657373667560448201527f6c000000000000000000000000000000000000000000000000000000000000006064820152608401610c56565b600954604080517ff27a0c9200000000000000000000000000000000000000000000000000000000815290515f9273ffffffffffffffffffffffffffffffffffffffff169163f27a0c929160048083019260209291908290030181865afa158015611dc7573d5f5f3e3d5ffd5b505050506040513d601f19601f82011682018060405250810190611deb9190614302565b6009546040517fb1c5f42700000000000000000000000000000000000000000000000000000000815291925073ffffffffffffffffffffffffffffffffffffffff169063b1c5f42790611e4a908a908a908a905f908b906004016142b5565b602060405180830381865afa158015611e65573d5f5f3e3d5ffd5b505050506040513d601f19601f82011682018060405250810190611e899190614302565b5f838152600a60205260408082209290925560095491517f8f2a0bb000000000000000000000000000000000000000000000000000000000815273ffffffffffffffffffffffffffffffffffffffff90921691638f2a0bb091611ef9918b918b918b91908b908990600401614466565b5f604051808303815f87803b158015611f10575f5ffd5b505af1158015611f22573d5f5f3e3d5ffd5b505050507f9a2e42fd6722813d69113e7d0079d3d940171428df7373df9c7f7617cfda2892828242611f5491906144ea565b604080519283526020830191909152015b60405180910390a15095945050505050565b30611f806109b4565b73ffffffffffffffffffffffffffffffffffffffff1614611079575f5b845181101561202e573073ffffffffffffffffffffffffffffffffffffffff16858281518110611fcf57611fcf6143cf565b602002602001015173ffffffffffffffffffffffffffffffffffffffff160361202657612026838281518110612007576120076143cf565b602002602001015180519060200120600361327790919063ffffffff16565b600101611f9d565b505050505050565b61107985858585856132c8565b3061204c6109b4565b73ffffffffffffffffffffffffffffffffffffffff161461107957600354600f81810b700100000000000000000000000000000000909204900b1315611079575f600355611079565b5f6120bc8254600f81810b700100000000000000000000000000000000909204900b131590565b156120f3576040517f3db2a12a00000000000000000000000000000000000000000000000000000000815260040160405180910390fd5b508054600f0b5f818152600180840160205260408220805492905583547fffffffffffffffffffffffffffffffff000000000000000000000000000000001692016fffffffffffffffffffffffffffffffff169190911790915590565b5f80547fffffffffffffffffffffffff00000000000000000000000000000000000000001673ffffffffffffffffffffffffffffffffffffffff83169081179091556040519081527f7516bac5a2a3d9aa2d3b7f814f70fb73b0fec375f756d07f899df2138deadefe9060200160405180910390a150565b5f5473ffffffffffffffffffffffffffffffffffffffff16331461226e576040517f08c379a000000000000000000000000000000000000000000000000000000000815260206004820152602e60248201527f5365637572697479436f756e63696c3a206f6e6c79207365637572697479206360448201527f6f756e63696c20616c6c6f7765640000000000000000000000000000000000006064820152608401610c56565b565b5f6122918585858561228c60408051602081019091525f815290565b6119df565b95945050505050565b5f5f6122a58361335d565b905060048160078111156122bb576122bb613d55565b146122c65792915050565b5f838152600a6020526040902054806122e0575092915050565b6009546040517f2ab0f5290000000000000000000000000000000000000000000000000000000081526004810183905273ffffffffffffffffffffffffffffffffffffffff90911690632ab0f52990602401602060405180830381865afa15801561234d573d5f5f3e3d5ffd5b505050506040513d601f19601f8201168201806040525081019061237191906144fd565b15612380575060079392505050565b6009546040517f584b153e0000000000000000000000000000000000000000000000000000000081526004810183905273ffffffffffffffffffffffffffffffffffffffff9091169063584b153e90602401602060405180830381865afa1580156123ed573d5f5f3e3d5ffd5b505050506040513d601f19601f8201168201806040525081019061241191906144fd565b15612420575060059392505050565b5060029392505050565b5050919050565b5f61229185858585613481565b60055460408051918252602082018390527fc565b045403dc03c2eea82b81a0465edad9e2e7fc4d97e11421c209da93d7a93910160405180910390a1600555565b5f6124886114e2565b612497336108ef60014361451c565b1015612525576040517f08c379a000000000000000000000000000000000000000000000000000000000815260206004820152603160248201527f476f7665726e6f723a2070726f706f73657220766f7465732062656c6f77207060448201527f726f706f73616c207468726573686f6c640000000000000000000000000000006064820152608401610c56565b5f61253986868686805190602001206116a3565b905084518651146125cc576040517f08c379a000000000000000000000000000000000000000000000000000000000815260206004820152602160248201527f476f7665726e6f723a20696e76616c69642070726f706f73616c206c656e677460448201527f68000000000000000000000000000000000000000000000000000000000000006064820152608401610c56565b835186511461265d576040517f08c379a000000000000000000000000000000000000000000000000000000000815260206004820152602160248201527f476f7665726e6f723a20696e76616c69642070726f706f73616c206c656e677460448201527f68000000000000000000000000000000000000000000000000000000000000006064820152608401610c56565b5f8651116126c7576040517f08c379a000000000000000000000000000000000000000000000000000000000815260206004820152601860248201527f476f7665726e6f723a20656d7074792070726f706f73616c00000000000000006044820152606401610c56565b5f818152600260209081526040918290208251918201909252815467ffffffffffffffff16908190521561277d576040517f08c379a000000000000000000000000000000000000000000000000000000000815260206004820152602160248201527f476f7665726e6f723a2070726f706f73616c20616c726561647920657869737460448201527f73000000000000000000000000000000000000000000000000000000000000006064820152608401610c56565b5f61278e612789610fdd565b613550565b61279743613550565b6127a1919061452f565b90505f6127af6127896109e9565b6127b9908361452f565b83547fffffffffffffffffffffffffffffffffffffffffffffffff00000000000000001667ffffffffffffffff841617845590506001830180547fffffffffffffffffffffffffffffffffffffffffffffffff00000000000000001667ffffffffffffffff83161790557f7d84a6263ae0d98d3329bd7b46bb4e8d6f98cd35a7adb45c274c8b7fd5ebd5e084338b8b8d5167ffffffffffffffff81111561286257612862613840565b60405190808252806020026020018201604052801561289557816020015b60608152602001906001900390816128805790505b508c88888e6040516128af9998979695949392919061454f565b60405180910390a15091979650505050505050565b6040517f3a46b1a800000000000000000000000000000000000000000000000000000000815273ffffffffffffffffffffffffffffffffffffffff8481166004830152602482018490525f917f000000000000000000000000000000000000000000000000000000000000000090911690633a46b1a890604401602060405180830381865afa158015612959573d5f5f3e3d5ffd5b505050506040513d601f19601f820116820180604052508101906113259190614302565b6009546040805173ffffffffffffffffffffffffffffffffffffffff928316815291831660208301527f08f74ea46ef7894f65eabfb5e6e695de773a000b47c529ab559178069b226401910160405180910390a1600980547fffffffffffffffffffffffff00000000000000000000000000000000000000001673ffffffffffffffffffffffffffffffffffffffff92909216919091179055565b60608315612a27575081611328565b61132883836135ed565b5f8111612ac0576040517f08c379a000000000000000000000000000000000000000000000000000000000815260206004820152602760248201527f476f7665726e6f7253657474696e67733a20766f74696e6720706572696f642060448201527f746f6f206c6f77000000000000000000000000000000000000000000000000006064820152608401610c56565b60065460408051918252602082018390527f7e3f7f0708a84de9203036abaa450dccc85ad5ff52f78c170f3edb55cf5e8828910160405180910390a1600655565b60075460408051918252602082018390527fccb45da8d5717e6c4544694297c4ba5cf151d455c9bb0ed4fc7a38411bc05461910160405180910390a1600755565b5f7fffffffff0000000000000000000000000000000000000000000000000000000082167fbf26d897000000000000000000000000000000000000000000000000000000001480612bd457507fffffffff0000000000000000000000000000000000000000000000000000000082167f79dd796f00000000000000000000000000000000000000000000000000000000145b80612c2057507fffffffff0000000000000000000000000000000000000000000000000000000082167f4e2312e000000000000000000000000000000000000000000000000000000000145b806109e357507f01ffc9a7000000000000000000000000000000000000000000000000000000007fffffffff000000000000000000000000000000000000000000000000000000008316146109e3565b5f3073ffffffffffffffffffffffffffffffffffffffff7f000000000000000000000000000000000000000000000000000000000000000016148015612cd557507f000000000000000000000000000000000000000000000000000000000000000046145b15612cff57507f000000000000000000000000000000000000000000000000000000000000000090565b50604080517f00000000000000000000000000000000000000000000000000000000000000006020808301919091527f0000000000000000000000000000000000000000000000000000000000000000828401527f000000000000000000000000000000000000000000000000000000000000000060608301524660808301523060a0808401919091528351808403909101815260c0909201909252805191012090565b5f807f7fffffffffffffffffffffffffffffff5d576e7357a4501ddfe92f46681b20a0831115612dd857505f90506003612e82565b604080515f8082526020820180845289905260ff881692820192909252606081018690526080810185905260019060a0016020604051602081039080840390855afa158015612e29573d5f5f3e3d5ffd5b50506040517fffffffffffffffffffffffffffffffffffffffffffffffffffffffffffffffe0015191505073ffffffffffffffffffffffffffffffffffffffff8116612e7c575f60019250925050612e82565b91505f90505b94509492505050565b5f816004811115612e9e57612e9e613d55565b03612ea65750565b6001816004811115612eba57612eba613d55565b03612f21576040517f08c379a000000000000000000000000000000000000000000000000000000000815260206004820152601860248201527f45434453413a20696e76616c6964207369676e617475726500000000000000006044820152606401610c56565b6002816004811115612f3557612f35613d55565b03612f9c576040517f08c379a000000000000000000000000000000000000000000000000000000000815260206004820152601f60248201527f45434453413a20696e76616c6964207369676e6174757265206c656e677468006044820152606401610c56565b6003816004811115612fb057612fb0613d55565b03610ee9576040517f08c379a000000000000000000000000000000000000000000000000000000000815260206004820152602260248201527f45434453413a20696e76616c6964207369676e6174757265202773272076616c60448201527f75650000000000000000000000000000000000000000000000000000000000006064820152608401610c56565b5f85815260086020908152604080832073ffffffffffffffffffffffffffffffffffffffff88168452600381019092529091205460ff1615613101576040517f08c379a000000000000000000000000000000000000000000000000000000000815260206004820152602760248201527f476f7665726e6f72566f74696e6753696d706c653a20766f746520616c72656160448201527f64792063617374000000000000000000000000000000000000000000000000006064820152608401610c56565b73ffffffffffffffffffffffffffffffffffffffff85165f908152600382016020526040902080547fffffffffffffffffffffffffffffffffffffffffffffffffffffffffffffff0016600117905560ff84166131755782815f015f82825461316a91906144ea565b9091555061202e9050565b7fffffffffffffffffffffffffffffffffffffffffffffffffffffffffffffffff60ff8516016131b25782816001015f82825461316a91906144ea565b7ffffffffffffffffffffffffffffffffffffffffffffffffffffffffffffffffe60ff8516016131ef5782816002015f82825461316a91906144ea565b6040517f08c379a000000000000000000000000000000000000000000000000000000000815260206004820152603560248201527f476f7665726e6f72566f74696e6753696d706c653a20696e76616c696420766160448201527f6c756520666f7220656e756d20566f74655479706500000000000000000000006064820152608401610c56565b815470010000000000000000000000000000000090819004600f0b5f818152600180860160205260409091209390935583546fffffffffffffffffffffffffffffffff908116939091011602179055565b6009546040517fe38335e500000000000000000000000000000000000000000000000000000000815273ffffffffffffffffffffffffffffffffffffffff9091169063e38335e5903490613328908890889088905f9089906004016142b5565b5f604051808303818588803b15801561333f575f5ffd5b505af1158015613351573d5f5f3e3d5ffd5b50505050505050505050565b5f81815260026020819052604082209081015460ff16156133815750600792915050565b6002810154610100900460ff161561339c5750600292915050565b5f6133a684610eec565b9050805f03613411576040517f08c379a000000000000000000000000000000000000000000000000000000000815260206004820152601d60248201527f476f7665726e6f723a20756e6b6e6f776e2070726f706f73616c2069640000006044820152606401610c56565b43811061342157505f9392505050565b5f61342b856114ec565b905043811061343f57506001949350505050565b61344885613631565b801561346657505f8581526008602052604090208054600190910154115b1561347657506004949350505050565b506003949350505050565b5f5f61348f86868686613667565b5f818152600a602052604090205490915015612291576009545f828152600a6020526040908190205490517fc4d252f500000000000000000000000000000000000000000000000000000000815273ffffffffffffffffffffffffffffffffffffffff9092169163c4d252f59161350c9160040190815260200190565b5f604051808303815f87803b158015613523575f5ffd5b505af1158015613535573d5f5f3e3d5ffd5b5050505f828152600a60205260408120555095945050505050565b5f67ffffffffffffffff8211156135e9576040517f08c379a000000000000000000000000000000000000000000000000000000000815260206004820152602660248201527f53616665436173743a2076616c756520646f65736e27742066697420696e203660448201527f34206269747300000000000000000000000000000000000000000000000000006064820152608401610c56565b5090565b8151156135fd5781518083602001fd5b806040517f08c379a0000000000000000000000000000000000000000000000000000000008152600401610c569190613a42565b5f8181526008602052604081206002810154600182015461365291906144ea565b61365e61097185610eec565b11159392505050565b5f5f613675868686866116a3565b90505f6136818261105b565b9050600281600781111561369757613697613d55565b141580156136b7575060068160078111156136b4576136b4613d55565b14155b80156136d5575060078160078111156136d2576136d2613d55565b14155b61373b576040517f08c379a000000000000000000000000000000000000000000000000000000000815260206004820152601d60248201527f476f7665726e6f723a2070726f706f73616c206e6f74206163746976650000006044820152606401610c56565b5f828152600260208190526040918290200180547fffffffffffffffffffffffffffffffffffffffffffffffffffffffffffff00ff16610100179055517f789cf55be980739dad1d0699b93b58e806b51c9d96619bfa8fe0a28abaa7b30c90611f659084815260200190565b5f602082840312156137b7575f5ffd5b81357fffffffff0000000000000000000000000000000000000000000000000000000081168114611328575f5ffd5b803560ff811681146137f6575f5ffd5b919050565b5f5f83601f84011261380b575f5ffd5b50813567ffffffffffffffff811115613822575f5ffd5b602083019150836020828501011115613839575f5ffd5b9250929050565b7f4e487b71000000000000000000000000000000000000000000000000000000005f52604160045260245ffd5b604051601f82017fffffffffffffffffffffffffffffffffffffffffffffffffffffffffffffffe016810167ffffffffffffffff811182821017156138b4576138b4613840565b604052919050565b5f5f67ffffffffffffffff8411156138d6576138d6613840565b50601f83017fffffffffffffffffffffffffffffffffffffffffffffffffffffffffffffffe0166020016139098161386d565b91505082815283838301111561391d575f5ffd5b828260208301375f602084830101529392505050565b5f82601f830112613942575f5ffd5b611328838335602085016138bc565b5f5f5f5f5f5f5f5f60e0898b031215613968575f5ffd5b8835975061397860208a016137e6565b9650604089013567ffffffffffffffff811115613993575f5ffd5b61399f8b828c016137fb565b909750955050606089013567ffffffffffffffff8111156139be575f5ffd5b6139ca8b828c01613933565b9450506139d960808a016137e6565b979a969950949793969295929450505060a08201359160c0013590565b5f81518084528060208401602086015e5f6020828601015260207fffffffffffffffffffffffffffffffffffffffffffffffffffffffffffffffe0601f83011685010191505092915050565b602081525f61132860208301846139f6565b73ffffffffffffffffffffffffffffffffffffffff81168114610ee9575f5ffd5b5f5f5f5f60808587031215613a88575f5ffd5b8435613a9381613a54565b93506020850135613aa381613a54565b925060408501359150606085013567ffffffffffffffff811115613ac5575f5ffd5b613ad187828801613933565b91505092959194509250565b5f67ffffffffffffffff821115613af657613af6613840565b5060051b60200190565b5f82601f830112613b0f575f5ffd5b8135613b22613b1d82613add565b61386d565b8082825260208201915060208360051b860101925085831115613b43575f5ffd5b602085015b83811015610de8578035613b5b81613a54565b835260209283019201613b48565b5f82601f830112613b78575f5ffd5b8135613b86613b1d82613add565b8082825260208201915060208360051b860101925085831115613ba7575f5ffd5b602085015b83811015610de8578035835260209283019201613bac565b5f82601f830112613bd3575f5ffd5b8135613be1613b1d82613add565b8082825260208201915060208360051b860101925085831115613c02575f5ffd5b602085015b83811015610de857803567ffffffffffffffff811115613c25575f5ffd5b613c34886020838a0101613933565b84525060209283019201613c07565b5f5f5f5f60808587031215613c56575f5ffd5b843567ffffffffffffffff811115613c6c575f5ffd5b613c7887828801613b00565b945050602085013567ffffffffffffffff811115613c94575f5ffd5b613ca087828801613b69565b935050604085013567ffffffffffffffff811115613cbc575f5ffd5b613cc887828801613bc4565b949793965093946060013593505050565b5f60208284031215613ce9575f5ffd5b813561132881613a54565b5f60208284031215613d04575f5ffd5b5035919050565b5f5f5f5f5f60a08688031215613d1f575f5ffd5b85359450613d2f602087016137e6565b9350613d3d604087016137e6565b94979396509394606081013594506080013592915050565b7f4e487b71000000000000000000000000000000000000000000000000000000005f52602160045260245ffd5b6020810160088310613dbb577f4e487b71000000000000000000000000000000000000000000000000000000005f52602160045260245ffd5b91905290565b5f5f60408385031215613dd2575f5ffd5b823591506020830135613de481613a54565b809150509250929050565b5f5f60408385031215613e00575f5ffd5b82359150613e10602084016137e6565b90509250929050565b5f5f5f5f5f60808688031215613e2d575f5ffd5b85359450613e3d602087016137e6565b9350604086013567ffffffffffffffff811115613e58575f5ffd5b613e64888289016137fb565b909450925050606086013567ffffffffffffffff811115613e83575f5ffd5b613e8f88828901613933565b9150509295509295909350565b5f5f5f5f60608587031215613eaf575f5ffd5b84359350613ebf602086016137e6565b9250604085013567ffffffffffffffff811115613eda575f5ffd5b613ee6878288016137fb565b95989497509550505050565b5f5f5f5f60808587031215613f05575f5ffd5b843567ffffffffffffffff811115613f1b575f5ffd5b613f2787828801613b00565b945050602085013567ffffffffffffffff811115613f43575f5ffd5b613f4f87828801613b69565b935050604085013567ffffffffffffffff811115613f6b575f5ffd5b613f7787828801613bc4565b925050606085013567ffffffffffffffff811115613f93575f5ffd5b8501601f81018713613fa3575f5ffd5b613ad1878235602084016138bc565b5f5f5f60608486031215613fc4575f5ffd5b8335613fcf81613a54565b925060208401359150604084013567ffffffffffffffff811115613ff1575f5ffd5b613ffd86828701613933565b9150509250925092565b5f5f5f5f5f60a0868803121561401b575f5ffd5b853561402681613a54565b9450602086013561403681613a54565b9350604086013567ffffffffffffffff811115614051575f5ffd5b61405d88828901613b69565b935050606086013567ffffffffffffffff811115614079575f5ffd5b61408588828901613b69565b925050608086013567ffffffffffffffff811115613e83575f5ffd5b5f5f5f5f606085870312156140b4575f5ffd5b84356140bf81613a54565b935060208501359250604085013567ffffffffffffffff811115613eda575f5ffd5b5f5f604083850312156140f2575f5ffd5b82356140fd81613a54565b946020939093013593505050565b5f5f5f5f5f60a0868803121561411f575f5ffd5b853561412a81613a54565b9450602086013561413a81613a54565b93506040860135925060608601359150608086013567ffffffffffffffff811115613e83575f5ffd5b818382375f9101908152919050565b600181811c9082168061418657607f821691505b602082108103611c9b577f4e487b71000000000000000000000000000000000000000000000000000000005f52602260045260245ffd5b5f8151808452602084019350602083015f5b8281101561420357815173ffffffffffffffffffffffffffffffffffffffff168652602095860195909101906001016141cf565b5093949350505050565b5f8151808452602084019350602083015f5b8281101561420357815186526020958601959091019060010161421f565b5f82825180855260208501945060208160051b830101602085015f5b838110156142a9577fffffffffffffffffffffffffffffffffffffffffffffffffffffffffffffffe08584030188526142938383516139f6565b6020988901989093509190910190600101614259565b50909695505050505050565b60a081525f6142c760a08301886141bd565b82810360208401526142d9818861420d565b905082810360408401526142ed818761423d565b60608401959095525050608001529392505050565b5f60208284031215614312575f5ffd5b5051919050565b608081525f61432b60808301876141bd565b828103602084015261433d818761420d565b90508281036040840152614351818661423d565b91505082606083015295945050505050565b84815260ff84166020820152826040820152608060608201525f610c6b60808301846139f6565b85815260ff8516602082015283604082015260a060608201525f6143b160a08301856139f6565b82810360808401526143c381856139f6565b98975050505050505050565b7f4e487b71000000000000000000000000000000000000000000000000000000005f52603260045260245ffd5b805160208201517fffffffff0000000000000000000000000000000000000000000000000000000081169190600482101561242a577fffffffff0000000000000000000000000000000000000000000000000000000060049290920360031b82901b161692915050565b60c081525f61447860c08301896141bd565b828103602084015261448a818961420d565b9050828103604084015261449e818861423d565b60608401969096525050608081019290925260a0909101529392505050565b7f4e487b71000000000000000000000000000000000000000000000000000000005f52601160045260245ffd5b808201808211156109e3576109e36144bd565b5f6020828403121561450d575f5ffd5b81518015158114611328575f5ffd5b818103818111156109e3576109e36144bd565b67ffffffffffffffff81811683821601908111156109e3576109e36144bd565b89815273ffffffffffffffffffffffffffffffffffffffff8916602082015261012060408201525f61458561012083018a6141bd565b8281036060840152614597818a61420d565b9050828103608084015280885180835260208301915060208160051b84010160208b015f5b8381101561460c577fffffffffffffffffffffffffffffffffffffffffffffffffffffffffffffffe08684030185526145f68383516139f6565b60209586019590935091909101906001016145bc565b505085810360a0870152614620818b61423d565b935050505061463b60c084018767ffffffffffffffff169052565b67ffffffffffffffff851660e084015282810361010084015261465e81856139f6565b9c9b50505050505050505050505056fe476f7665726e6f723a2072656c617920726576657274656420776974686f7574206d657373616765a2646970667358221220a85cbeb948323bfdf6fc4b0c03ce1ca492087ed902e6e88b8838e5c7d11d38fb64736f6c634300081c0033",
  "linkReferences": {},
  "deployedLinkReferences": {}
}