{
  "_format": "hh-sol-artifact-1",
  "contractName": "TestMintableERC20Token",
  "sourceName": "contracts/test/tokens/TestMintableERC20Token.sol",
  "abi": [
    {
      "anonymous": false,
      "inputs": [
        {
          "indexed": false,
          "internalType": "address",
          "name": "token",
          "type": "address"
        },
        {
          "indexed": false,
          "internalType": "address",
          "name": "from",
          "type": "address"
        },
        {
          "indexed": false,
          "internalType": "address",
          "name": "to",
          "type": "address"
        },
        {
          "indexed": false,
          "internalType": "uint256",
          "name": "value",
          "type": "uint256"
        }
      ],
      "name": "Transfer",
      "type": "event"
    },
    {
      "inputs": [
        {
          "internalType": "address",
          "name": "",
          "type": "address"
        },
        {
          "internalType": "address",
          "name": "",
          "type": "address"
        }
      ],
      "name": "allowance",
      "outputs": [
        {
          "internalType": "uint256",
          "name": "",
          "type": "uint256"
        }
      ],
      "stateMutability": "view",
      "type": "function"
    },
    {
      "inputs": [
        {
          "internalType": "address",
          "name": "spender",
          "type": "address"
        },
        {
          "internalType": "uint256",
          "name": "amount",
          "type": "uint256"
        }
      ],
      "name": "approve",
      "outputs": [
        {
          "internalType": "bool",
          "name": "",
          "type": "bool"
        }
      ],
      "stateMutability": "nonpayable",
      "type": "function"
    },
    {
      "inputs": [
        {
          "internalType": "address",
          "name": "owner",
          "type": "address"
        },
        {
          "internalType": "address",
          "name": "spender",
          "type": "address"
        },
        {
          "internalType": "uint256",
          "name": "amount",
          "type": "uint256"
        }
      ],
      "name": "approveAs",
      "outputs": [
        {
          "internalType": "bool",
          "name": "",
          "type": "bool"
        }
      ],
      "stateMutability": "nonpayable",
      "type": "function"
    },
    {
      "inputs": [
        {
          "internalType": "address",
          "name": "",
          "type": "address"
        }
      ],
      "name": "balanceOf",
      "outputs": [
        {
          "internalType": "uint256",
          "name": "",
          "type": "uint256"
        }
      ],
      "stateMutability": "view",
      "type": "function"
    },
    {
      "inputs": [
        {
          "internalType": "address",
          "name": "owner",
          "type": "address"
        },
        {
          "internalType": "uint256",
          "name": "amount",
          "type": "uint256"
        }
      ],
      "name": "burn",
      "outputs": [],
      "stateMutability": "nonpayable",
      "type": "function"
    },
    {
      "inputs": [
        {
          "internalType": "address",
          "name": "owner",
          "type": "address"
        },
        {
          "internalType": "address",
          "name": "spender",
          "type": "address"
        }
      ],
      "name": "getSpendableAmount",
      "outputs": [
        {
          "internalType": "uint256",
          "name": "",
          "type": "uint256"
        }
      ],
      "stateMutability": "view",
      "type": "function"
    },
    {
      "inputs": [
        {
          "internalType": "address",
          "name": "owner",
          "type": "address"
        },
        {
          "internalType": "uint256",
          "name": "amount",
          "type": "uint256"
        }
      ],
      "name": "mint",
      "outputs": [],
      "stateMutability": "nonpayable",
      "type": "function"
    },
    {
      "inputs": [
        {
          "internalType": "address",
          "name": "to",
          "type": "address"
        },
        {
          "internalType": "uint256",
          "name": "amount",
          "type": "uint256"
        }
      ],
      "name": "transfer",
      "outputs": [
        {
          "internalType": "bool",
          "name": "",
          "type": "bool"
        }
      ],
      "stateMutability": "nonpayable",
      "type": "function"
    },
    {
      "inputs": [
        {
          "internalType": "address",
          "name": "from",
          "type": "address"
        },
        {
          "internalType": "address",
          "name": "to",
          "type": "address"
        },
        {
          "internalType": "uint256",
          "name": "amount",
          "type": "uint256"
        }
      ],
      "name": "transferFrom",
      "outputs": [
        {
          "internalType": "bool",
          "name": "",
          "type": "bool"
        }
      ],
      "stateMutability": "nonpayable",
      "type": "function"
    }
  ],
  "bytecode": "0x6080604052348015600e575f5ffd5b506106388061001c5f395ff3fe608060405234801561000f575f5ffd5b5060043610610090575f3560e01c806340c10f191161006357806340c10f191461012e57806370a08231146101435780639dc29fac14610162578063a9059cbb14610175578063dd62ed3e14610188575f5ffd5b8063095ea7b314610094578063111c4724146100bc57806323b872dd146100fa5780632724ed4b1461010d575b5f5ffd5b6100a76100a23660046104d3565b6101b2565b60405190151581526020015b60405180910390f35b6100a76100ca3660046104fb565b6001600160a01b038084165f90815260016020818152604080842094871684529390529190208290559392505050565b6100a76101083660046104fb565b6101df565b61012061011b366004610535565b61039e565b6040519081526020016100b3565b61014161013c3660046104d3565b61041e565b005b610120610151366004610566565b5f6020819052908152604090205481565b6101416101703660046104d3565b61044e565b6100a76101833660046104d3565b6104ac565b610120610196366004610535565b600160209081525f928352604080842090915290825290205481565b335f9081526001602081815260408084206001600160a01b03871685529091529091208290555b92915050565b5f6001600160a01b03841633146102b5576001600160a01b0384165f90815260016020908152604080832033845290915290205482111561027d5760405162461bcd60e51b815260206004820152602d60248201527f546573744d696e7461626c654552433230546f6b656e2f494e5355464649434960448201526c454e545f414c4c4f57414e434560981b60648201526084015b60405180910390fd5b6001600160a01b0384165f908152600160209081526040808320338452909152812080548492906102af908490610593565b90915550505b6001600160a01b0384165f908152602081905260409020548211156102ec5760405162461bcd60e51b8152600401610274906105a6565b6001600160a01b0384165f9081526020819052604081208054849290610313908490610593565b90915550506001600160a01b0383165f908152602081905260408120805484929061033f9084906105ef565b9091555050604080513081526001600160a01b0386811660208301528516818301526060810184905290517fd1398bee19313d6bf672ccb116e51f4a1a947e91c757907f51fbb5b5e56c698f9181900360800190a15060019392505050565b6001600160a01b038083165f81815260016020908152604080832094861683529381528382205492825281905291822054106103fe576001600160a01b038084165f90815260016020908152604080832093861683529290522054610417565b6001600160a01b0383165f908152602081905260409020545b9392505050565b6001600160a01b0382165f90815260208190526040812080548392906104459084906105ef565b90915550505050565b6001600160a01b0382165f908152602081905260409020548111156104855760405162461bcd60e51b8152600401610274906105a6565b6001600160a01b0382165f9081526020819052604081208054839290610445908490610593565b5f6104173384846101df565b80356001600160a01b03811681146104ce575f5ffd5b919050565b5f5f604083850312156104e4575f5ffd5b6104ed836104b8565b946020939093013593505050565b5f5f5f6060848603121561050d575f5ffd5b610516846104b8565b9250610524602085016104b8565b929592945050506040919091013590565b5f5f60408385031215610546575f5ffd5b61054f836104b8565b915061055d602084016104b8565b90509250929050565b5f60208284031215610576575f5ffd5b610417826104b8565b634e487b7160e01b5f52601160045260245ffd5b818103818111156101d9576101d961057f565b60208082526029908201527f546573744d696e7461626c654552433230546f6b656e2f494e53554646494349604082015268454e545f46554e445360b81b606082015260800190565b808201808211156101d9576101d961057f56fea2646970667358221220036177a08fe4b9a880437937611ced619d7b1f17507678ad882f6c846f42130164736f6c634300081c0033",
  "linkReferences": {},
  "deployedLinkReferences": {}
}