{
  "_format": "hh-sol-artifact-1",
  "contractName": "TestMintableERC20Token",
  "sourceName": "contracts/test/tokens/TestMintableERC20Token.sol",
  "abi": [
    {
      "anonymous": false,
      "inputs": [
        {
          "indexed": false,
          "internalType": "address",
          "name": "token",
          "type": "address"
        },
        {
          "indexed": false,
          "internalType": "address",
          "name": "from",
          "type": "address"
        },
        {
          "indexed": false,
          "internalType": "address",
          "name": "to",
          "type": "address"
        },
        {
          "indexed": false,
          "internalType": "uint256",
          "name": "value",
          "type": "uint256"
        }
      ],
      "name": "Transfer",
      "type": "event"
    },
    {
      "inputs": [
        {
          "internalType": "address",
          "name": "",
          "type": "address"
        },
        {
          "internalType": "address",
          "name": "",
          "type": "address"
        }
      ],
      "name": "allowance",
      "outputs": [
        {
          "internalType": "uint256",
          "name": "",
          "type": "uint256"
        }
      ],
      "stateMutability": "view",
      "type": "function"
    },
    {
      "inputs": [
        {
          "internalType": "address",
          "name": "spender",
          "type": "address"
        },
        {
          "internalType": "uint256",
          "name": "amount",
          "type": "uint256"
        }
      ],
      "name": "approve",
      "outputs": [
        {
          "internalType": "bool",
          "name": "",
          "type": "bool"
        }
      ],
      "stateMutability": "nonpayable",
      "type": "function"
    },
    {
      "inputs": [
        {
          "internalType": "address",
          "name": "owner",
          "type": "address"
        },
        {
          "internalType": "address",
          "name": "spender",
          "type": "address"
        },
        {
          "internalType": "uint256",
          "name": "amount",
          "type": "uint256"
        }
      ],
      "name": "approveAs",
      "outputs": [
        {
          "internalType": "bool",
          "name": "",
          "type": "bool"
        }
      ],
      "stateMutability": "nonpayable",
      "type": "function"
    },
    {
      "inputs": [
        {
          "internalType": "address",
          "name": "",
          "type": "address"
        }
      ],
      "name": "balanceOf",
      "outputs": [
        {
          "internalType": "uint256",
          "name": "",
          "type": "uint256"
        }
      ],
      "stateMutability": "view",
      "type": "function"
    },
    {
      "inputs": [
        {
          "internalType": "address",
          "name": "owner",
          "type": "address"
        },
        {
          "internalType": "uint256",
          "name": "amount",
          "type": "uint256"
        }
      ],
      "name": "burn",
      "outputs": [],
      "stateMutability": "nonpayable",
      "type": "function"
    },
    {
      "inputs": [
        {
          "internalType": "address",
          "name": "owner",
          "type": "address"
        },
        {
          "internalType": "address",
          "name": "spender",
          "type": "address"
        }
      ],
      "name": "getSpendableAmount",
      "outputs": [
        {
          "internalType": "uint256",
          "name": "",
          "type": "uint256"
        }
      ],
      "stateMutability": "view",
      "type": "function"
    },
    {
      "inputs": [
        {
          "internalType": "address",
          "name": "owner",
          "type": "address"
        },
        {
          "internalType": "uint256",
          "name": "amount",
          "type": "uint256"
        }
      ],
      "name": "mint",
      "outputs": [],
      "stateMutability": "nonpayable",
      "type": "function"
    },
    {
      "inputs": [
        {
          "internalType": "address",
          "name": "to",
          "type": "address"
        },
        {
          "internalType": "uint256",
          "name": "amount",
          "type": "uint256"
        }
      ],
      "name": "transfer",
      "outputs": [
        {
          "internalType": "bool",
          "name": "",
          "type": "bool"
        }
      ],
      "stateMutability": "nonpayable",
      "type": "function"
    },
    {
      "inputs": [
        {
          "internalType": "address",
          "name": "from",
          "type": "address"
        },
        {
          "internalType": "address",
          "name": "to",
          "type": "address"
        },
        {
          "internalType": "uint256",
          "name": "amount",
          "type": "uint256"
        }
      ],
      "name": "transferFrom",
      "outputs": [
        {
          "internalType": "bool",
          "name": "",
          "type": "bool"
        }
      ],
      "stateMutability": "nonpayable",
      "type": "function"
    }
  ],
  "bytecode": "0x6080604052348015600e575f5ffd5b506107f18061001c5f395ff3fe608060405234801561000f575f5ffd5b506004361061009f575f3560e01c806340c10f19116100725780639dc29fac116100585780639dc29fac1461017e578063a9059cbb14610191578063dd62ed3e146101a4575f5ffd5b806340c10f191461014a57806370a082311461015f575f5ffd5b8063095ea7b3146100a3578063111c4724146100cb57806323b872dd146101165780632724ed4b14610129575b5f5ffd5b6100b66100b13660046106bc565b6101ce565b60405190151581526020015b60405180910390f35b6100b66100d93660046106e4565b73ffffffffffffffffffffffffffffffffffffffff8084165f90815260016020818152604080842094871684529390529190208290559392505050565b6100b66101243660046106e4565b610208565b61013c61013736600461071e565b6104bc565b6040519081526020016100c2565b61015d6101583660046106bc565b610563565b005b61013c61016d36600461074f565b5f6020819052908152604090205481565b61015d61018c3660046106bc565b6105a0565b6100b661019f3660046106bc565b610688565b61013c6101b236600461071e565b600160209081525f928352604080842090915290825290205481565b335f90815260016020818152604080842073ffffffffffffffffffffffffffffffffffffffff871685529091529091208290555b92915050565b5f73ffffffffffffffffffffffffffffffffffffffff8416331461032f5773ffffffffffffffffffffffffffffffffffffffff84165f9081526001602090815260408083203384529091529020548211156102ea576040517f08c379a000000000000000000000000000000000000000000000000000000000815260206004820152602d60248201527f546573744d696e7461626c654552433230546f6b656e2f494e5355464649434960448201527f454e545f414c4c4f57414e43450000000000000000000000000000000000000060648201526084015b60405180910390fd5b73ffffffffffffffffffffffffffffffffffffffff84165f90815260016020908152604080832033845290915281208054849290610329908490610795565b90915550505b73ffffffffffffffffffffffffffffffffffffffff84165f908152602081905260409020548211156103e3576040517f08c379a000000000000000000000000000000000000000000000000000000000815260206004820152602960248201527f546573744d696e7461626c654552433230546f6b656e2f494e5355464649434960448201527f454e545f46554e4453000000000000000000000000000000000000000000000060648201526084016102e1565b73ffffffffffffffffffffffffffffffffffffffff84165f9081526020819052604081208054849290610417908490610795565b909155505073ffffffffffffffffffffffffffffffffffffffff83165f90815260208190526040812080548492906104509084906107a8565b90915550506040805130815273ffffffffffffffffffffffffffffffffffffffff86811660208301528516818301526060810184905290517fd1398bee19313d6bf672ccb116e51f4a1a947e91c757907f51fbb5b5e56c698f9181900360800190a15060019392505050565b73ffffffffffffffffffffffffffffffffffffffff8083165f81815260016020908152604080832094861683529381528382205492825281905291822054106105365773ffffffffffffffffffffffffffffffffffffffff8084165f9081526001602090815260408083209386168352929052205461055c565b73ffffffffffffffffffffffffffffffffffffffff83165f908152602081905260409020545b9392505050565b73ffffffffffffffffffffffffffffffffffffffff82165f90815260208190526040812080548392906105979084906107a8565b90915550505050565b73ffffffffffffffffffffffffffffffffffffffff82165f90815260208190526040902054811115610654576040517f08c379a000000000000000000000000000000000000000000000000000000000815260206004820152602960248201527f546573744d696e7461626c654552433230546f6b656e2f494e5355464649434960448201527f454e545f46554e4453000000000000000000000000000000000000000000000060648201526084016102e1565b73ffffffffffffffffffffffffffffffffffffffff82165f9081526020819052604081208054839290610597908490610795565b5f61055c338484610208565b803573ffffffffffffffffffffffffffffffffffffffff811681146106b7575f5ffd5b919050565b5f5f604083850312156106cd575f5ffd5b6106d683610694565b946020939093013593505050565b5f5f5f606084860312156106f6575f5ffd5b6106ff84610694565b925061070d60208501610694565b929592945050506040919091013590565b5f5f6040838503121561072f575f5ffd5b61073883610694565b915061074660208401610694565b90509250929050565b5f6020828403121561075f575f5ffd5b61055c82610694565b7f4e487b71000000000000000000000000000000000000000000000000000000005f52601160045260245ffd5b8181038181111561020257610202610768565b808201808211156102025761020261076856fea264697066735822122059fde0512a55861da803e44b90cbd9120b74ba16f1b5508cece8bdad6c98464464736f6c634300081c0033",
  "linkReferences": {},
  "deployedLinkReferences": {}
}