{
  "_format": "hh-sol-artifact-1",
  "contractName": "ZeroEx",
  "sourceName": "contracts/src/ZeroEx.sol",
  "abi": [
    {
      "inputs": [
        {
          "internalType": "address",
          "name": "bootstrapper",
          "type": "address"
        }
      ],
      "stateMutability": "nonpayable",
      "type": "constructor"
    },
    {
      "stateMutability": "payable",
      "type": "fallback"
    },
    {
      "inputs": [
        {
          "internalType": "bytes4",
          "name": "selector",
          "type": "bytes4"
        }
      ],
      "name": "getFunctionImplementation",
      "outputs": [
        {
          "internalType": "address",
          "name": "impl",
          "type": "address"
        }
      ],
      "stateMutability": "view",
      "type": "function"
    },
    {
      "stateMutability": "payable",
      "type": "receive"
    }
  ],
  "bytecode": "0x608060405234801561000f575f5ffd5b50604051610df9380380610df983398101604081905261002e916100f3565b5f8160405161003c906100e6565b6001600160a01b039091168152602001604051809103905ff080158015610065573d5f5f3e3d5ffd5b509050806100716100ad565b6373f208d560e01b5f9081526020919091526040902080546001600160a01b0319166001600160a01b0392909216919091179055506101539050565b5f806100b8816100be565b92915050565b5f608082600b8111156100d3576100d3610120565b6100de906001610134565b901b92915050565b610820806105d983390190565b5f60208284031215610103575f5ffd5b81516001600160a01b0381168114610119575f5ffd5b9392505050565b634e487b7160e01b5f52602160045260245ffd5b808201808211156100b857634e487b7160e01b5f52601160045260245ffd5b610479806101605f395ff3fe608060405260043610610021575f3560e01c8063972fdd26146101b057610028565b3661002857005b5f61006b5f5f368080601f0160208091040260200160405190810160405280939291908181526020018383808284375f9201919091525092939250506101f89050565b90505f61007782610242565b905073ffffffffffffffffffffffffffffffffffffffff811661012c57604080517fffffffff0000000000000000000000000000000000000000000000000000000084166024808301919091528251808303909101815260449091019091526020810180517bffffffffffffffffffffffffffffffffffffffffffffffffffffffff167f734e6e1c0000000000000000000000000000000000000000000000000000000017905261012c90610298565b610298565b5f5f8273ffffffffffffffffffffffffffffffffffffffff165f36604051610155929190610369565b5f60405180830381855af49150503d805f811461018d576040519150601f19603f3d011682016040523d82523d5f602084013e610192565b606091505b5091509150816101a5576101a581610298565b6101ae816102a0565b005b3480156101bb575f5ffd5b506101cf6101ca366004610378565b610242565b60405173ffffffffffffffffffffffffffffffffffffffff909116815260200160405180910390f35b5f6102048260046103be565b83511015610228576102286101276003855185600461022391906103be565b6102a8565b6102336020836103be565b91508183015190505b92915050565b5f61024b61034d565b7fffffffff000000000000000000000000000000000000000000000000000000009092165f90815260209290925250604090205473ffffffffffffffffffffffffffffffffffffffff1690565b805160208201fd5b805160208201f35b6060632800659560e01b8484846040516024016102c7939291906103f6565b604080517fffffffffffffffffffffffffffffffffffffffffffffffffffffffffffffffe08184030181529190526020810180517bffffffffffffffffffffffffffffffffffffffffffffffffffffffff167fffffffff000000000000000000000000000000000000000000000000000000009093169290921790915290509392505050565b5f8061023c818060806103618260016103be565b901b92915050565b818382375f9101908152919050565b5f60208284031215610388575f5ffd5b81357fffffffff00000000000000000000000000000000000000000000000000000000811681146103b7575f5ffd5b9392505050565b8082018082111561023c577f4e487b71000000000000000000000000000000000000000000000000000000005f52601160045260245ffd5b606081016008851061042f577f4e487b71000000000000000000000000000000000000000000000000000000005f52602160045260245ffd5b93815260208101929092526040909101529056fea2646970667358221220fc0bf85418cd6a77dd1a3fce7ac0ac20ee5b7d315a957aac6d8647b9291c7cad64736f6c634300081c003360e060405234801561000f575f5ffd5b5060405161082038038061082083398101604081905261002e91610047565b336080523060a0526001600160a01b031660c052610074565b5f60208284031215610057575f5ffd5b81516001600160a01b038116811461006d575f5ffd5b9392505050565b60805160a05160c0516107706100b05f395f8181610124015261015201525f8181606d015261021701525f818160b2015260e001526107705ff3fe608060405234801561000f575f5ffd5b5060043610610034575f3560e01c806335f469941461003857806373f208d514610042575b5f5ffd5b610040610055565b005b610040610050366004610544565b61010c565b3073ffffffffffffffffffffffffffffffffffffffff7f0000000000000000000000000000000000000000000000000000000000000000161461009a5761009a6105dc565b3373ffffffffffffffffffffffffffffffffffffffff7f0000000000000000000000000000000000000000000000000000000000000000161461010957610109610104337f00000000000000000000000000000000000000000000000000000000000000006102b7565b61038d565b33ff5b3373ffffffffffffffffffffffffffffffffffffffff7f0000000000000000000000000000000000000000000000000000000000000000161461017657610176610104337f0000000000000000000000000000000000000000000000000000000000000000610395565b5f61017f6103e9565b7f73f208d5000000000000000000000000000000000000000000000000000000005f908152602091909152604080822080547fffffffffffffffffffffffff00000000000000000000000000000000000000001673ffffffffffffffffffffffffffffffffffffffff94851617905580517f35f4699400000000000000000000000000000000000000000000000000000000815290517f0000000000000000000000000000000000000000000000000000000000000000909316926335f469949260048084019391929182900301818387803b15801561025d575f5ffd5b505af115801561026f573d5f5f3e3d5ffd5b505050506102b28383838080601f0160208091040260200160405190810160405280939291908181526020018383808284375f920191909152506103f492505050565b505050565b60405173ffffffffffffffffffffffffffffffffffffffff8084166024830152821660448201526060907fabeb420c997af2b939cfae9ef422a08b8467cc0cf89064c140b7edf8a22cedc2906064015b604080517fffffffffffffffffffffffffffffffffffffffffffffffffffffffffffffffe08184030181529190526020810180517bffffffffffffffffffffffffffffffffffffffffffffffffffffffff167fffffffff000000000000000000000000000000000000000000000000000000009093169290921790915290505b92915050565b805160208201fd5b60405173ffffffffffffffffffffffffffffffffffffffff8084166024830152821660448201526060907fb84f6d63d81ee2a3bc5c6658be21fc96c31d7cdc4dc460ea0d6f7b7218b5b4b390606401610307565b5f5f6103875f6104e6565b5f5f8373ffffffffffffffffffffffffffffffffffffffff168360405161041b9190610609565b5f60405180830381855af49150503d805f8114610453576040519150601f19603f3d011682016040523d82523d5f602084013e610458565b606091505b509150915081158061046c57508051602014155b806104ce575080517fd150751b00000000000000000000000000000000000000000000000000000000906104a9908301602090810190840161061f565b7fffffffff000000000000000000000000000000000000000000000000000000001614155b156104e0576104e0610104858361050e565b50505050565b5f608082600b8111156104fb576104fb610665565b610506906001610692565b901b92915050565b60607fd19d65df6830e3cb0da1e12b8e9738e2dc473f830d8af813bcc031eb5a1675d183836040516024016103079291906106ca565b5f5f5f60408486031215610556575f5ffd5b833573ffffffffffffffffffffffffffffffffffffffff81168114610579575f5ffd5b9250602084013567ffffffffffffffff811115610594575f5ffd5b8401601f810186136105a4575f5ffd5b803567ffffffffffffffff8111156105ba575f5ffd5b8660208284010111156105cb575f5ffd5b939660209190910195509293505050565b7f4e487b71000000000000000000000000000000000000000000000000000000005f52600160045260245ffd5b5f82518060208501845e5f920191825250919050565b5f6020828403121561062f575f5ffd5b81517fffffffff000000000000000000000000000000000000000000000000000000008116811461065e575f5ffd5b9392505050565b7f4e487b71000000000000000000000000000000000000000000000000000000005f52602160045260245ffd5b80820180821115610387577f4e487b71000000000000000000000000000000000000000000000000000000005f52601160045260245ffd5b73ffffffffffffffffffffffffffffffffffffffff83168152604060208201525f82518060408401528060208501606085015e5f6060828501015260607fffffffffffffffffffffffffffffffffffffffffffffffffffffffffffffffe0601f830116840101915050939250505056fea2646970667358221220418e0d330a5a566b16e731201ef2b3d0a6cd138ec9aa56b0cc34d7adc53b253064736f6c634300081c0033",
  "linkReferences": {},
  "deployedLinkReferences": {}
}