{
  "_format": "hh-sol-artifact-1",
  "contractName": "DummyNoReturnERC20Token",
  "sourceName": "contracts/test/DummyNoReturnERC20Token.sol",
  "abi": [
    {
      "inputs": [
        {
          "internalType": "string",
          "name": "_name",
          "type": "string"
        },
        {
          "internalType": "string",
          "name": "_symbol",
          "type": "string"
        },
        {
          "internalType": "uint256",
          "name": "_decimals",
          "type": "uint256"
        },
        {
          "internalType": "uint256",
          "name": "_totalSupply",
          "type": "uint256"
        }
      ],
      "stateMutability": "nonpayable",
      "type": "constructor"
    },
    {
      "anonymous": false,
      "inputs": [
        {
          "indexed": true,
          "internalType": "address",
          "name": "_owner",
          "type": "address"
        },
        {
          "indexed": true,
          "internalType": "address",
          "name": "_spender",
          "type": "address"
        },
        {
          "indexed": false,
          "internalType": "uint256",
          "name": "_value",
          "type": "uint256"
        }
      ],
      "name": "Approval",
      "type": "event"
    },
    {
      "anonymous": false,
      "inputs": [
        {
          "indexed": true,
          "internalType": "address",
          "name": "previousOwner",
          "type": "address"
        },
        {
          "indexed": true,
          "internalType": "address",
          "name": "newOwner",
          "type": "address"
        }
      ],
      "name": "OwnershipTransferred",
      "type": "event"
    },
    {
      "anonymous": false,
      "inputs": [
        {
          "indexed": true,
          "internalType": "address",
          "name": "_from",
          "type": "address"
        },
        {
          "indexed": true,
          "internalType": "address",
          "name": "_to",
          "type": "address"
        },
        {
          "indexed": false,
          "internalType": "uint256",
          "name": "_value",
          "type": "uint256"
        }
      ],
      "name": "Transfer",
      "type": "event"
    },
    {
      "inputs": [],
      "name": "MAX_MINT_AMOUNT",
      "outputs": [
        {
          "internalType": "uint256",
          "name": "",
          "type": "uint256"
        }
      ],
      "stateMutability": "view",
      "type": "function"
    },
    {
      "inputs": [
        {
          "internalType": "address",
          "name": "_owner",
          "type": "address"
        },
        {
          "internalType": "address",
          "name": "_spender",
          "type": "address"
        }
      ],
      "name": "allowance",
      "outputs": [
        {
          "internalType": "uint256",
          "name": "",
          "type": "uint256"
        }
      ],
      "stateMutability": "view",
      "type": "function"
    },
    {
      "inputs": [
        {
          "internalType": "address",
          "name": "_spender",
          "type": "address"
        },
        {
          "internalType": "uint256",
          "name": "_value",
          "type": "uint256"
        }
      ],
      "name": "approve",
      "outputs": [
        {
          "internalType": "bool",
          "name": "",
          "type": "bool"
        }
      ],
      "stateMutability": "nonpayable",
      "type": "function"
    },
    {
      "inputs": [
        {
          "internalType": "address",
          "name": "_owner",
          "type": "address"
        }
      ],
      "name": "balanceOf",
      "outputs": [
        {
          "internalType": "uint256",
          "name": "",
          "type": "uint256"
        }
      ],
      "stateMutability": "view",
      "type": "function"
    },
    {
      "inputs": [],
      "name": "decimals",
      "outputs": [
        {
          "internalType": "uint256",
          "name": "",
          "type": "uint256"
        }
      ],
      "stateMutability": "view",
      "type": "function"
    },
    {
      "inputs": [
        {
          "internalType": "uint256",
          "name": "_value",
          "type": "uint256"
        }
      ],
      "name": "mint",
      "outputs": [],
      "stateMutability": "nonpayable",
      "type": "function"
    },
    {
      "inputs": [],
      "name": "name",
      "outputs": [
        {
          "internalType": "string",
          "name": "",
          "type": "string"
        }
      ],
      "stateMutability": "view",
      "type": "function"
    },
    {
      "inputs": [],
      "name": "owner",
      "outputs": [
        {
          "internalType": "address",
          "name": "",
          "type": "address"
        }
      ],
      "stateMutability": "view",
      "type": "function"
    },
    {
      "inputs": [
        {
          "internalType": "address",
          "name": "_target",
          "type": "address"
        },
        {
          "internalType": "uint256",
          "name": "_value",
          "type": "uint256"
        }
      ],
      "name": "setBalance",
      "outputs": [],
      "stateMutability": "nonpayable",
      "type": "function"
    },
    {
      "inputs": [],
      "name": "symbol",
      "outputs": [
        {
          "internalType": "string",
          "name": "",
          "type": "string"
        }
      ],
      "stateMutability": "view",
      "type": "function"
    },
    {
      "inputs": [],
      "name": "totalSupply",
      "outputs": [
        {
          "internalType": "uint256",
          "name": "",
          "type": "uint256"
        }
      ],
      "stateMutability": "view",
      "type": "function"
    },
    {
      "inputs": [
        {
          "internalType": "address",
          "name": "_to",
          "type": "address"
        },
        {
          "internalType": "uint256",
          "name": "_value",
          "type": "uint256"
        }
      ],
      "name": "transfer",
      "outputs": [
        {
          "internalType": "bool",
          "name": "",
          "type": "bool"
        }
      ],
      "stateMutability": "nonpayable",
      "type": "function"
    },
    {
      "inputs": [
        {
          "internalType": "address",
          "name": "_from",
          "type": "address"
        },
        {
          "internalType": "address",
          "name": "_to",
          "type": "address"
        },
        {
          "internalType": "uint256",
          "name": "_value",
          "type": "uint256"
        }
      ],
      "name": "transferFrom",
      "outputs": [
        {
          "internalType": "bool",
          "name": "",
          "type": "bool"
        }
      ],
      "stateMutability": "nonpayable",
      "type": "function"
    },
    {
      "inputs": [
        {
          "internalType": "address",
          "name": "newOwner",
          "type": "address"
        }
      ],
      "name": "transferOwnership",
      "outputs": [],
      "stateMutability": "nonpayable",
      "type": "function"
    }
  ],
  "bytecode": "0x608060405234801561000f575f5ffd5b50604051610f79380380610f7983398101604081905261002e91610130565b5f80546001600160a01b0319163317905583838383600461004f8582610228565b50600561005c8482610228565b50600691909155335f90815260016020526040902055506102e2945050505050565b634e487b7160e01b5f52604160045260245ffd5b5f82601f8301126100a1575f5ffd5b81516001600160401b038111156100ba576100ba61007e565b604051601f8201601f19908116603f011681016001600160401b03811182821017156100e8576100e861007e565b6040528181528382016020018510156100ff575f5ffd5b5f5b8281101561011d57602081860181015183830182015201610101565b505f918101602001919091529392505050565b5f5f5f5f60808587031215610143575f5ffd5b84516001600160401b03811115610158575f5ffd5b61016487828801610092565b602087015190955090506001600160401b03811115610181575f5ffd5b61018d87828801610092565b604087015160609097015195989097509350505050565b600181811c908216806101b857607f821691505b6020821081036101d657634e487b7160e01b5f52602260045260245ffd5b50919050565b601f82111561022357805f5260205f20601f840160051c810160208510156102015750805b601f840160051c820191505b81811015610220575f815560010161020d565b50505b505050565b81516001600160401b038111156102415761024161007e565b6102558161024f84546101a4565b846101dc565b6020601f821160018114610287575f83156102705750848201515b5f19600385901b1c1916600184901b178455610220565b5f84815260208120601f198516915b828110156102b65787850151825560209485019460019092019101610296565b50848210156102d357868401515f19600387901b60f8161c191681555b50505050600190811b01905550565b610c8a806102ef5f395ff3fe608060405234801561000f575f5ffd5b50600436106100e5575f3560e01c806395d89b4111610088578063dd62ed3e11610063578063dd62ed3e14610201578063e30443bc14610246578063f2fde38b14610259578063fa9b70181461026c575f5ffd5b806395d89b41146101d1578063a0712d68146101d9578063a9059cbb146101ee575f5ffd5b806323b872dd116100c357806323b872dd1461013c578063313ce5671461014f57806370a08231146101585780638da5cb5b1461018d575f5ffd5b806306fdde03146100e9578063095ea7b31461010757806318160ddd1461012a575b5f5ffd5b6100f161027d565b6040516100fe9190610a55565b60405180910390f35b61011a610115366004610ae6565b610309565b60405190151581526020016100fe565b6003545b6040519081526020016100fe565b61011a61014a366004610b0e565b610382565b61012e60065481565b61012e610166366004610b48565b73ffffffffffffffffffffffffffffffffffffffff165f9081526001602052604090205490565b5f546101ac9073ffffffffffffffffffffffffffffffffffffffff1681565b60405173ffffffffffffffffffffffffffffffffffffffff90911681526020016100fe565b6100f16105cf565b6101ec6101e7366004610b68565b6105dc565b005b61011a6101fc366004610ae6565b61065d565b61012e61020f366004610b7f565b73ffffffffffffffffffffffffffffffffffffffff9182165f90815260026020908152604080832093909416825291909152205490565b6101ec610254366004610ae6565b61077b565b6101ec610267366004610b48565b610813565b61012e69021e19e0c9bab240000081565b6004805461028a90610bb0565b80601f01602080910402602001604051908101604052809291908181526020018280546102b690610bb0565b80156103015780601f106102d857610100808354040283529160200191610301565b820191905f5260205f20905b8154815290600101906020018083116102e457829003601f168201915b505050505081565b335f81815260026020908152604080832073ffffffffffffffffffffffffffffffffffffffff8716808552925280832085905551919290917f8c5be1e5ebec7d5bd14f71427d1e84f3dd0314c0f7b2291e5b200ac8c7c3b925906103709086815260200190565b60405180910390a35060015b92915050565b73ffffffffffffffffffffffffffffffffffffffff83165f90815260016020526040812054821115610415576040517f08c379a000000000000000000000000000000000000000000000000000000000815260206004820152601a60248201527f45524332305f494e53554646494349454e545f42414c414e434500000000000060448201526064015b60405180910390fd5b73ffffffffffffffffffffffffffffffffffffffff84165f9081526002602090815260408083203384529091529020548211156104ae576040517f08c379a000000000000000000000000000000000000000000000000000000000815260206004820152601c60248201527f45524332305f494e53554646494349454e545f414c4c4f57414e434500000000604482015260640161040c565b73ffffffffffffffffffffffffffffffffffffffff83165f90815260016020526040812080548492906104e2908490610c2e565b909155505073ffffffffffffffffffffffffffffffffffffffff84165f908152600160205260408120805484929061051b908490610c41565b909155505073ffffffffffffffffffffffffffffffffffffffff84165f9081526002602090815260408083203384529091528120805484929061055f908490610c41565b925050819055508273ffffffffffffffffffffffffffffffffffffffff168473ffffffffffffffffffffffffffffffffffffffff167fddf252ad1be2c89b69c2b068fc378daa952ba7f163c4a11628f55a4df523b3ef846040516105c591815260200190565b60405180910390a3005b6005805461028a90610bb0565b69021e19e0c9bab2400000811115610650576040517f08c379a000000000000000000000000000000000000000000000000000000000815260206004820152600f60248201527f56414c55455f544f4f5f4c415247450000000000000000000000000000000000604482015260640161040c565b61065a33826108e7565b50565b335f908152600160205260408120548211156106d5576040517f08c379a000000000000000000000000000000000000000000000000000000000815260206004820152601a60248201527f45524332305f494e53554646494349454e545f42414c414e4345000000000000604482015260640161040c565b335f90815260016020526040812080548492906106f3908490610c41565b909155505073ffffffffffffffffffffffffffffffffffffffff83165f908152600160205260408120805484929061072c908490610c2e565b909155505060405182815273ffffffffffffffffffffffffffffffffffffffff84169033907fddf252ad1be2c89b69c2b068fc378daa952ba7f163c4a11628f55a4df523b3ef906020016105c5565b61078361099e565b73ffffffffffffffffffffffffffffffffffffffff82165f90815260016020526040902054808210156107cf576107ba8282610c41565b6003546107c79190610c41565b6003556107ea565b6107d98183610c41565b6003546107e69190610c2e565b6003555b5073ffffffffffffffffffffffffffffffffffffffff9091165f90815260016020526040902055565b61081b61099e565b73ffffffffffffffffffffffffffffffffffffffff81166108785761065a61087360408051808201909152600481527fe69edc3e00000000000000000000000000000000000000000000000000000000602082015290565b610a4d565b5f80547fffffffffffffffffffffffff00000000000000000000000000000000000000001673ffffffffffffffffffffffffffffffffffffffff83169081178255604051909133917f8be0079c531659141344cd1fd0a4f28419497f9722a3daafe3b4186f6b6457e09190a350565b73ffffffffffffffffffffffffffffffffffffffff82165f90815260016020526040902054610917908290610c2e565b73ffffffffffffffffffffffffffffffffffffffff83165f9081526001602052604090205560035461094a908290610c2e565b60035560405181815273ffffffffffffffffffffffffffffffffffffffff8316905f907fddf252ad1be2c89b69c2b068fc378daa952ba7f163c4a11628f55a4df523b3ef9060200160405180910390a35050565b5f5473ffffffffffffffffffffffffffffffffffffffff163314610a4b575f546040805133602482015273ffffffffffffffffffffffffffffffffffffffff90921660448084019190915281518084039091018152606490920190526020810180517bffffffffffffffffffffffffffffffffffffffffffffffffffffffff167f1de45ad100000000000000000000000000000000000000000000000000000000179052610a4b90610a4d565b565b805160208201fd5b602081525f82518060208401525f5b81811015610a815760208186018101516040868401015201610a64565b505f6040828501015260407fffffffffffffffffffffffffffffffffffffffffffffffffffffffffffffffe0601f83011684010191505092915050565b803573ffffffffffffffffffffffffffffffffffffffff81168114610ae1575f5ffd5b919050565b5f5f60408385031215610af7575f5ffd5b610b0083610abe565b946020939093013593505050565b5f5f5f60608486031215610b20575f5ffd5b610b2984610abe565b9250610b3760208501610abe565b929592945050506040919091013590565b5f60208284031215610b58575f5ffd5b610b6182610abe565b9392505050565b5f60208284031215610b78575f5ffd5b5035919050565b5f5f60408385031215610b90575f5ffd5b610b9983610abe565b9150610ba760208401610abe565b90509250929050565b600181811c90821680610bc457607f821691505b602082108103610bfb577f4e487b71000000000000000000000000000000000000000000000000000000005f52602260045260245ffd5b50919050565b7f4e487b71000000000000000000000000000000000000000000000000000000005f52601160045260245ffd5b8082018082111561037c5761037c610c01565b8181038181111561037c5761037c610c0156fea264697066735822122069726ef586b02891c062636b42b8ec14594f63bc88d4af5efb688ec7dc6ad48564736f6c634300081c0033",
  "linkReferences": {},
  "deployedLinkReferences": {}
}