{
  "_format": "hh-sol-artifact-1",
  "contractName": "TestTransformERC20",
  "sourceName": "contracts/test/TestTransformERC20.sol",
  "abi": [
    {
      "inputs": [],
      "stateMutability": "nonpayable",
      "type": "constructor"
    },
    {
      "anonymous": false,
      "inputs": [
        {
          "indexed": false,
          "internalType": "address",
          "name": "quoteSigner",
          "type": "address"
        }
      ],
      "name": "QuoteSignerUpdated",
      "type": "event"
    },
    {
      "anonymous": false,
      "inputs": [
        {
          "indexed": true,
          "internalType": "address",
          "name": "taker",
          "type": "address"
        },
        {
          "indexed": false,
          "internalType": "address",
          "name": "inputToken",
          "type": "address"
        },
        {
          "indexed": false,
          "internalType": "address",
          "name": "outputToken",
          "type": "address"
        },
        {
          "indexed": false,
          "internalType": "uint256",
          "name": "inputTokenAmount",
          "type": "uint256"
        },
        {
          "indexed": false,
          "internalType": "uint256",
          "name": "outputTokenAmount",
          "type": "uint256"
        }
      ],
      "name": "TransformedERC20",
      "type": "event"
    },
    {
      "anonymous": false,
      "inputs": [
        {
          "indexed": false,
          "internalType": "address",
          "name": "transformerDeployer",
          "type": "address"
        }
      ],
      "name": "TransformerDeployerUpdated",
      "type": "event"
    },
    {
      "inputs": [],
      "name": "FEATURE_NAME",
      "outputs": [
        {
          "internalType": "string",
          "name": "",
          "type": "string"
        }
      ],
      "stateMutability": "view",
      "type": "function"
    },
    {
      "inputs": [],
      "name": "FEATURE_VERSION",
      "outputs": [
        {
          "internalType": "uint256",
          "name": "",
          "type": "uint256"
        }
      ],
      "stateMutability": "view",
      "type": "function"
    },
    {
      "inputs": [
        {
          "components": [
            {
              "internalType": "address payable",
              "name": "taker",
              "type": "address"
            },
            {
              "internalType": "contract IERC20Token",
              "name": "inputToken",
              "type": "address"
            },
            {
              "internalType": "contract IERC20Token",
              "name": "outputToken",
              "type": "address"
            },
            {
              "internalType": "uint256",
              "name": "inputTokenAmount",
              "type": "uint256"
            },
            {
              "internalType": "uint256",
              "name": "minOutputTokenAmount",
              "type": "uint256"
            },
            {
              "components": [
                {
                  "internalType": "uint32",
                  "name": "deploymentNonce",
                  "type": "uint32"
                },
                {
                  "internalType": "bytes",
                  "name": "data",
                  "type": "bytes"
                }
              ],
              "internalType": "struct ITransformERC20Feature.Transformation[]",
              "name": "transformations",
              "type": "tuple[]"
            },
            {
              "internalType": "bool",
              "name": "useSelfBalance",
              "type": "bool"
            },
            {
              "internalType": "address payable",
              "name": "recipient",
              "type": "address"
            }
          ],
          "internalType": "struct ITransformERC20Feature.TransformERC20Args",
          "name": "args",
          "type": "tuple"
        }
      ],
      "name": "_transformERC20",
      "outputs": [
        {
          "internalType": "uint256",
          "name": "outputTokenAmount",
          "type": "uint256"
        }
      ],
      "stateMutability": "payable",
      "type": "function"
    },
    {
      "inputs": [],
      "name": "createTransformWallet",
      "outputs": [
        {
          "internalType": "contract IFlashWallet",
          "name": "wallet",
          "type": "address"
        }
      ],
      "stateMutability": "nonpayable",
      "type": "function"
    },
    {
      "inputs": [],
      "name": "getQuoteSigner",
      "outputs": [
        {
          "internalType": "address",
          "name": "signer",
          "type": "address"
        }
      ],
      "stateMutability": "view",
      "type": "function"
    },
    {
      "inputs": [],
      "name": "getTransformWallet",
      "outputs": [
        {
          "internalType": "contract IFlashWallet",
          "name": "wallet",
          "type": "address"
        }
      ],
      "stateMutability": "view",
      "type": "function"
    },
    {
      "inputs": [],
      "name": "getTransformerDeployer",
      "outputs": [
        {
          "internalType": "address",
          "name": "deployer",
          "type": "address"
        }
      ],
      "stateMutability": "view",
      "type": "function"
    },
    {
      "inputs": [
        {
          "internalType": "address",
          "name": "transformerDeployer",
          "type": "address"
        }
      ],
      "name": "migrate",
      "outputs": [
        {
          "internalType": "bytes4",
          "name": "success",
          "type": "bytes4"
        }
      ],
      "stateMutability": "nonpayable",
      "type": "function"
    },
    {
      "inputs": [
        {
          "internalType": "address",
          "name": "quoteSigner",
          "type": "address"
        }
      ],
      "name": "setQuoteSigner",
      "outputs": [],
      "stateMutability": "nonpayable",
      "type": "function"
    },
    {
      "inputs": [
        {
          "internalType": "address",
          "name": "transformerDeployer",
          "type": "address"
        }
      ],
      "name": "setTransformerDeployer",
      "outputs": [],
      "stateMutability": "nonpayable",
      "type": "function"
    },
    {
      "inputs": [
        {
          "internalType": "contract IERC20Token",
          "name": "inputToken",
          "type": "address"
        },
        {
          "internalType": "contract IERC20Token",
          "name": "outputToken",
          "type": "address"
        },
        {
          "internalType": "uint256",
          "name": "inputTokenAmount",
          "type": "uint256"
        },
        {
          "internalType": "uint256",
          "name": "minOutputTokenAmount",
          "type": "uint256"
        },
        {
          "components": [
            {
              "internalType": "uint32",
              "name": "deploymentNonce",
              "type": "uint32"
            },
            {
              "internalType": "bytes",
              "name": "data",
              "type": "bytes"
            }
          ],
          "internalType": "struct ITransformERC20Feature.Transformation[]",
          "name": "transformations",
          "type": "tuple[]"
        }
      ],
      "name": "transformERC20",
      "outputs": [
        {
          "internalType": "uint256",
          "name": "outputTokenAmount",
          "type": "uint256"
        }
      ],
      "stateMutability": "payable",
      "type": "function"
    }
  ],
  "bytecode": "0x60c06040526016600160046000606060201b60201c565b60a090815250348015602757600080fd5b503073ffffffffffffffffffffffffffffffffffffffff1660808173ffffffffffffffffffffffffffffffffffffffff1681525050608a565b60008163ffffffff1660208463ffffffff16901b60408663ffffffff16901b171790509392505050565b60805160a0516143cf6100af600039600061029401526000610d3c01526143cf6000f3fe60806040526004361061009c5760003560e01c80636ae4b4f7116100645780636ae4b4f71461017b57806387c96419146101a65780638aa6539b146101cf5780639f1ec78b146101ff578063ce5494bb1461022a578063f028e9be146102675761009c565b8063031b905c146100a1578063287b071b146100cc578063415565b0146100f75780634d54cdb61461012757806356ce180a14610152575b600080fd5b3480156100ad57600080fd5b506100b6610292565b6040516100c39190612269565b60405180910390f35b3480156100d857600080fd5b506100e16102b6565b6040516100ee9190612303565b60405180910390f35b610111600480360381019061010c919061268c565b6103e9565b60405161011e9190612269565b60405180910390f35b34801561013357600080fd5b5061013c610493565b6040516101499190612732565b60405180910390f35b34801561015e57600080fd5b5061017960048036038101906101749190612779565b6104c6565b005b34801561018757600080fd5b50610190610604565b60405161019d9190612825565b60405180910390f35b3480156101b257600080fd5b506101cd60048036038101906101c89190612779565b61063d565b005b6101e960048036038101906101e491906129a3565b61077b565b6040516101f69190612269565b60405180910390f35b34801561020b57600080fd5b5061021461078d565b6040516102219190612732565b60405180910390f35b34801561023657600080fd5b50610251600480360381019061024c9190612779565b6107c0565b60405161025e9190612a27565b60405180910390f35b34801561027357600080fd5b5061027c6109b0565b6040516102899190612303565b60405180910390f35b7f000000000000000000000000000000000000000000000000000000000000000081565b6000803073ffffffffffffffffffffffffffffffffffffffff16638da5cb5b6040518163ffffffff1660e01b8152600401602060405180830381865afa158015610304573d6000803e3d6000fd5b505050506040513d601f19601f820116820180604052508101906103289190612a57565b90508073ffffffffffffffffffffffffffffffffffffffff163373ffffffffffffffffffffffffffffffffffffffff16146103705761036f61036a33836109e3565b610a65565b5b5060405161037d906121ef565b604051809103906000f080158015610399573d6000803e3d6000fd5b509050806103a5610a6d565b60000160006101000a81548173ffffffffffffffffffffffffffffffffffffffff021916908373ffffffffffffffffffffffffffffffffffffffff16021790555090565b60006104886040518061010001604052803373ffffffffffffffffffffffffffffffffffffffff1681526020018873ffffffffffffffffffffffffffffffffffffffff1681526020018773ffffffffffffffffffffffffffffffffffffffff1681526020018681526020018581526020018481526020016000151581526020013373ffffffffffffffffffffffffffffffffffffffff16815250610a83565b905095945050505050565b600061049d610a6d565b60010160009054906101000a900473ffffffffffffffffffffffffffffffffffffffff16905090565b60003073ffffffffffffffffffffffffffffffffffffffff16638da5cb5b6040518163ffffffff1660e01b8152600401602060405180830381865afa158015610513573d6000803e3d6000fd5b505050506040513d601f19601f820116820180604052508101906105379190612a57565b90508073ffffffffffffffffffffffffffffffffffffffff163373ffffffffffffffffffffffffffffffffffffffff161461057f5761057e61057933836109e3565b610a65565b5b5080610589610a6d565b60020160006101000a81548173ffffffffffffffffffffffffffffffffffffffff021916908373ffffffffffffffffffffffffffffffffffffffff1602179055507ff5550c5eea19b48ac6eb5f03abdc4f59c0a60697abb3d973cd68669703b5c8b9816040516105f99190612732565b60405180910390a150565b6040518060400160405280600e81526020017f5472616e73666f726d455243323000000000000000000000000000000000000081525081565b60003073ffffffffffffffffffffffffffffffffffffffff16638da5cb5b6040518163ffffffff1660e01b8152600401602060405180830381865afa15801561068a573d6000803e3d6000fd5b505050506040513d601f19601f820116820180604052508101906106ae9190612a57565b90508073ffffffffffffffffffffffffffffffffffffffff163373ffffffffffffffffffffffffffffffffffffffff16146106f6576106f56106f033836109e3565b610a65565b5b5080610700610a6d565b60010160006101000a81548173ffffffffffffffffffffffffffffffffffffffff021916908373ffffffffffffffffffffffffffffffffffffffff1602179055507ffd45604abad79c16e23348a137ed8292661be1b8eba6e4806ebed6833b1c046a816040516107709190612732565b60405180910390a150565b600061078682610a83565b9050919050565b6000610797610a6d565b60020160009054906101000a900473ffffffffffffffffffffffffffffffffffffffff16905090565b60006107d2634d54cdb660e01b610d1d565b6107e263287b071b60e01b610d1d565b6107f263f028e9be60e01b610d1d565b6108026387c9641960e01b610d1d565b6108126356ce180a60e01b610d1d565b610822639f1ec78b60e01b610d1d565b61083263415565b060e01b610d1d565b610842638aa6539b60e01b610d1d565b600073ffffffffffffffffffffffffffffffffffffffff163073ffffffffffffffffffffffffffffffffffffffff1663f028e9be6040518163ffffffff1660e01b8152600401602060405180830381865afa1580156108a5573d6000803e3d6000fd5b505050506040513d601f19601f820116820180604052508101906108c99190612ac2565b73ffffffffffffffffffffffffffffffffffffffff1603610957573073ffffffffffffffffffffffffffffffffffffffff1663287b071b6040518163ffffffff1660e01b81526004016020604051808303816000875af1158015610931573d6000803e3d6000fd5b505050506040513d601f19601f820116820180604052508101906109559190612ac2565b505b81610960610a6d565b60010160006101000a81548173ffffffffffffffffffffffffffffffffffffffff021916908373ffffffffffffffffffffffffffffffffffffffff160217905550632c64c5ef60e01b9050919050565b60006109ba610a6d565b60000160009054906101000a900473ffffffffffffffffffffffffffffffffffffffff16905090565b6060631de45ad160e01b8383604051602401610a00929190612aef565b604051602081830303815290604052907bffffffffffffffffffffffffffffffffffffffffffffffffffffffff19166020820180517bffffffffffffffffffffffffffffffffffffffffffffffffffffffff8381831617835250505050905092915050565b805160208201fd5b600080610a7a6004610dad565b90508091505090565b60008160c00151158015610aba57507fffffffffffffffffffffffffffffffffffffffffffffffffffffffffffffffff8260600151145b15610afd57610acc8260200151610dd9565b15610ae05734826060018181525050610afc565b610af282602001518360000151610e25565b8260600181815250505b5b610b056121fc565b610b0d6109b0565b816000019073ffffffffffffffffffffffffffffffffffffffff16908173ffffffffffffffffffffffffffffffffffffffff1681525050610b4c610493565b816020019073ffffffffffffffffffffffffffffffffffffffff16908173ffffffffffffffffffffffffffffffffffffffff1681525050610b9583604001518460e00151610f2d565b816040018181525050610bac838260000151610fdf565b60005b8360a0015151811015610bfd57610bf282600001518560a001518381518110610bdb57610bda612b18565b5b602002602001015184602001518760e001516110b8565b806001019050610baf565b50610c15836040015182600001518560e0015161129e565b9150610c2983604001518460e00151610f2d565b816060018181525050806040015181606001511015610c6c57610c6b610c66846040015183606001518460400151610c619190612b76565b6114e0565b610a65565b5b610c898282604001518360600151610c849190612b76565b61157b565b91508260800151821015610cb357610cb2610cad8460400151848660800151611594565b610a65565b5b826000015173ffffffffffffffffffffffffffffffffffffffff167f0f6672f78a59ba8e5e5b5d38df3ebc67f3c792e2c9259b8d97d7f00dd78ba1b384602001518560400151866060015186604051610d0f9493929190612baa565b60405180910390a250919050565b3073ffffffffffffffffffffffffffffffffffffffff16636eb224cb827f00000000000000000000000000000000000000000000000000000000000000006040518363ffffffff1660e01b8152600401610d78929190612bef565b600060405180830381600087803b158015610d9257600080fd5b505af1158015610da6573d6000803e3d6000fd5b5050505050565b60006080600183600b811115610dc657610dc5612c18565b5b610dd09190612c47565b901b9050919050565b600073eeeeeeeeeeeeeeeeeeeeeeeeeeeeeeeeeeeeeeee73ffffffffffffffffffffffffffffffffffffffff168273ffffffffffffffffffffffffffffffffffffffff16149050919050565b6000610f258373ffffffffffffffffffffffffffffffffffffffff1663dd62ed3e84306040518363ffffffff1660e01b8152600401610e65929190612aef565b602060405180830381865afa158015610e82573d6000803e3d6000fd5b505050506040513d601f19601f82011682018060405250810190610ea69190612c90565b8473ffffffffffffffffffffffffffffffffffffffff166370a08231856040518263ffffffff1660e01b8152600401610edf9190612732565b602060405180830381865afa158015610efc573d6000803e3d6000fd5b505050506040513d601f19601f82011682018060405250810190610f209190612c90565b61157b565b905092915050565b6000610f3883610dd9565b15610f5c578173ffffffffffffffffffffffffffffffffffffffff16319050610fd9565b8273ffffffffffffffffffffffffffffffffffffffff166370a08231836040518263ffffffff1660e01b8152600401610f959190612732565b602060405180830381865afa158015610fb2573d6000803e3d6000fd5b505050506040513d601f19601f82011682018060405250810190610fd69190612c90565b90505b92915050565b610fec8260200151610dd9565b8015610ffb5750816060015134105b1561101757611016611011348460600151611632565b610a65565b5b60003414611067578073ffffffffffffffffffffffffffffffffffffffff166108fc349081150290604051600060405180830381858888f19350505050158015611065573d6000803e3d6000fd5b505b6110748260200151610dd9565b6110b4578160c001511561109a5761109582602001518284606001516116cd565b6110b3565b6110b2826020015183600001518385606001516117cd565b5b5b5050565b60006110c88385600001516118ea565b905060008573ffffffffffffffffffffffffffffffffffffffff1663b68df16d8363832b24bb60e01b60405180606001604052803373ffffffffffffffffffffffffffffffffffffffff1681526020018873ffffffffffffffffffffffffffffffffffffffff1681526020018a6020015181525060405160240161114c9190612d71565b604051602081830303815290604052907bffffffffffffffffffffffffffffffffffffffffffffffffffffffff19166020820180517bffffffffffffffffffffffffffffffffffffffffffffffffffffffff83818316178352505050506040518363ffffffff1660e01b81526004016111c6929190612dec565b6000604051808303816000875af11580156111e5573d6000803e3d6000fd5b505050506040513d6000823e3d601f19601f8201168201806040525081019061120e9190612e8c565b90506020815114158061127957506313c9929e60e01b7bffffffffffffffffffffffffffffffffffffffffffffffffffffffff1916818060200190518101906112579190612f01565b7bffffffffffffffffffffffffffffffffffffffffffffffffffffffff191614155b156112965761129561129083876020015184611945565b610a65565b5b505050505050565b60006112aa8484610f2d565b90506112b584610dd9565b15611343578273ffffffffffffffffffffffffffffffffffffffff166354132d7883836040518363ffffffff1660e01b81526004016112f5929190612f54565b6000604051808303816000875af1158015611314573d6000803e3d6000fd5b505050506040513d6000823e3d601f19601f8201168201806040525081019061133d9190612e8c565b506114d9565b60008373ffffffffffffffffffffffffffffffffffffffff166354132d788663a9059cbb60e01b868660405160240161137d929190612f90565b604051602081830303815290604052907bffffffffffffffffffffffffffffffffffffffffffffffffffffffff19166020820180517bffffffffffffffffffffffffffffffffffffffffffffffffffffffff838183161783525050505060006040518463ffffffff1660e01b81526004016113fa93929190612ff4565b6000604051808303816000875af1158015611419573d6000803e3d6000fd5b505050506040513d6000823e3d601f19601f820116820180604052508101906114429190612e8c565b9050600081510361149c576000853b905060008111611496576040517f08c379a000000000000000000000000000000000000000000000000000000000815260040161148d906130a4565b60405180910390fd5b506114d7565b60208151106114cc5760006114b28260006119e3565b9050600181146114c6576114c582610a65565b5b506114d6565b6114d581610a65565b5b5b505b9392505050565b60607f3ea25a3cae94e681748e39876b75ce362a9159c4618787bc1250e3d9f9c4391083836040516024016115169291906130c4565b604051602081830303815290604052907bffffffffffffffffffffffffffffffffffffffffffffffffffffffff19166020820180517bffffffffffffffffffffffffffffffffffffffffffffffffffffffff8381831617835250505050905092915050565b600081831061158a578161158c565b825b905092915050565b60607f990174d2378c7614a3e4722867cea0a803c0cc16ef92c4f5466ed5bc1d3496da8484846040516024016115cc939291906130ed565b604051602081830303815290604052907bffffffffffffffffffffffffffffffffffffffffffffffffffffffff19166020820180517bffffffffffffffffffffffffffffffffffffffffffffffffffffffff838183161783525050505090509392505050565b60607f96660ab143a5c6a946233c268494b1026bfca53373c9715e0fe96b3c59c850448383604051602401611668929190613124565b604051602081830303815290604052907bffffffffffffffffffffffffffffffffffffffffffffffffffffffff19166020820180517bffffffffffffffffffffffffffffffffffffffffffffffffffffffff8381831617835250505050905092915050565b3073ffffffffffffffffffffffffffffffffffffffff168373ffffffffffffffffffffffffffffffffffffffff160361173b576040517f08c379a0000000000000000000000000000000000000000000000000000000008152600401611732906131bf565b60405180910390fd5b6040517fa9059cbb00000000000000000000000000000000000000000000000000000000815273ffffffffffffffffffffffffffffffffffffffff83166004820152816024820152602081604483600073ffffffffffffffffffffffffffffffffffffffff89165af13d600183511460208210151681151782169150816117c557806000843e8083fd5b505050505050565b3073ffffffffffffffffffffffffffffffffffffffff168473ffffffffffffffffffffffffffffffffffffffff160361183b576040517f08c379a0000000000000000000000000000000000000000000000000000000008152600401611832906131bf565b60405180910390fd5b6040517f23b872dd00000000000000000000000000000000000000000000000000000000815273ffffffffffffffffffffffffffffffffffffffff8416600482015273ffffffffffffffffffffffffffffffffffffffff83166024820152816044820152602081606483600073ffffffffffffffffffffffffffffffffffffffff8a165af13d600183511460208210151681151782169150816118e157806000843e8083fd5b50505050505050565b6000806118f6836119fa565b9050805160d56119069190612c47565b60f81b609460f81b858360405160200161192394939291906132b0565b6040516020818303038152906040528051906020012060001c91505092915050565b60607ff21e5cb42b911ca6b3898f8618760aa7d84fe5d43a7a5ad89aa791c66cafe41384848460405160240161197d939291906132fa565b604051602081830303815290604052907bffffffffffffffffffffffffffffffffffffffffffffffffffffffff19166020820180517bffffffffffffffffffffffffffffffffffffffffffffffffffffffff838183161783525050505090509392505050565b60006119ef8383612116565b60001c905092915050565b606060008263ffffffff1603611aa757600167ffffffffffffffff811115611a2557611a246123c4565b5b6040519080825280601f01601f191660200182016040528015611a575781602001600182028036833780820191505090505b509050608060f81b81600081518110611a7357611a72612b18565b5b60200101907effffffffffffffffffffffffffffffffffffffffffffffffffffffffffffff1916908160001a905350612111565b60808263ffffffff161015611b5257600167ffffffffffffffff811115611ad157611ad06123c4565b5b6040519080825280601f01601f191660200182016040528015611b035781602001600182028036833780820191505090505b5090508160f81b81600081518110611b1e57611b1d612b18565b5b60200101907effffffffffffffffffffffffffffffffffffffffffffffffffffffffffffff1916908160001a905350612110565b60ff8263ffffffff1611611c4457600267ffffffffffffffff811115611b7b57611b7a6123c4565b5b6040519080825280601f01601f191660200182016040528015611bad5781602001600182028036833780820191505090505b509050608160f81b81600081518110611bc957611bc8612b18565b5b60200101907effffffffffffffffffffffffffffffffffffffffffffffffffffffffffffff1916908160001a9053508160f81b81600181518110611c1057611c0f612b18565b5b60200101907effffffffffffffffffffffffffffffffffffffffffffffffffffffffffffff1916908160001a90535061210f565b61ffff8263ffffffff1611611d8c57600367ffffffffffffffff811115611c6e57611c6d6123c4565b5b6040519080825280601f01601f191660200182016040528015611ca05781602001600182028036833780820191505090505b509050608260f81b81600081518110611cbc57611cbb612b18565b5b60200101907effffffffffffffffffffffffffffffffffffffffffffffffffffffffffffff1916908160001a905350600861ff00831663ffffffff16901c60f81b81600181518110611d1157611d10612b18565b5b60200101907effffffffffffffffffffffffffffffffffffffffffffffffffffffffffffff1916908160001a9053508160f81b81600281518110611d5857611d57612b18565b5b60200101907effffffffffffffffffffffffffffffffffffffffffffffffffffffffffffff1916908160001a90535061210e565b62ffffff8263ffffffff1611611f2b57600467ffffffffffffffff811115611db757611db66123c4565b5b6040519080825280601f01601f191660200182016040528015611de95781602001600182028036833780820191505090505b509050608360f81b81600081518110611e0557611e04612b18565b5b60200101907effffffffffffffffffffffffffffffffffffffffffffffffffffffffffffff1916908160001a905350601062ff0000831663ffffffff16901c60f81b81600181518110611e5b57611e5a612b18565b5b60200101907effffffffffffffffffffffffffffffffffffffffffffffffffffffffffffff1916908160001a905350600861ff00831663ffffffff16901c60f81b81600281518110611eb057611eaf612b18565b5b60200101907effffffffffffffffffffffffffffffffffffffffffffffffffffffffffffff1916908160001a9053508160f81b81600381518110611ef757611ef6612b18565b5b60200101907effffffffffffffffffffffffffffffffffffffffffffffffffffffffffffff1916908160001a90535061210d565b600567ffffffffffffffff811115611f4657611f456123c4565b5b6040519080825280601f01601f191660200182016040528015611f785781602001600182028036833780820191505090505b509050608460f81b81600081518110611f9457611f93612b18565b5b60200101907effffffffffffffffffffffffffffffffffffffffffffffffffffffffffffff1916908160001a905350601863ff000000831663ffffffff16901c60f81b81600181518110611feb57611fea612b18565b5b60200101907effffffffffffffffffffffffffffffffffffffffffffffffffffffffffffff1916908160001a905350601062ff0000831663ffffffff16901c60f81b8160028151811061204157612040612b18565b5b60200101907effffffffffffffffffffffffffffffffffffffffffffffffffffffffffffff1916908160001a905350600861ff00831663ffffffff16901c60f81b8160038151811061209657612095612b18565b5b60200101907effffffffffffffffffffffffffffffffffffffffffffffffffffffffffffff1916908160001a9053508160f81b816004815181106120dd576120dc612b18565b5b60200101907effffffffffffffffffffffffffffffffffffffffffffffffffffffffffffff1916908160001a9053505b5b5b5b5b919050565b60006020826121259190612c47565b8351101561214f5761214e612149600585516020866121449190612c47565b61216a565b610a65565b5b60208261215c9190612c47565b915081830151905092915050565b6060632800659560e01b84848460405160240161218993929190613387565b604051602081830303815290604052907bffffffffffffffffffffffffffffffffffffffffffffffffffffffff19166020820180517bffffffffffffffffffffffffffffffffffffffffffffffffffffffff838183161783525050505090509392505050565b610fdb806133bf83390190565b6040518060800160405280600073ffffffffffffffffffffffffffffffffffffffff168152602001600073ffffffffffffffffffffffffffffffffffffffff16815260200160008152602001600081525090565b6000819050919050565b61226381612250565b82525050565b600060208201905061227e600083018461225a565b92915050565b600073ffffffffffffffffffffffffffffffffffffffff82169050919050565b6000819050919050565b60006122c96122c46122bf84612284565b6122a4565b612284565b9050919050565b60006122db826122ae565b9050919050565b60006122ed826122d0565b9050919050565b6122fd816122e2565b82525050565b600060208201905061231860008301846122f4565b92915050565b6000604051905090565b600080fd5b600080fd5b600061233d82612284565b9050919050565b600061234f82612332565b9050919050565b61235f81612344565b811461236a57600080fd5b50565b60008135905061237c81612356565b92915050565b61238b81612250565b811461239657600080fd5b50565b6000813590506123a881612382565b92915050565b600080fd5b6000601f19601f8301169050919050565b7f4e487b7100000000000000000000000000000000000000000000000000000000600052604160045260246000fd5b6123fc826123b3565b810181811067ffffffffffffffff8211171561241b5761241a6123c4565b5b80604052505050565b600061242e61231e565b905061243a82826123f3565b919050565b600067ffffffffffffffff82111561245a576124596123c4565b5b602082029050602081019050919050565b600080fd5b600080fd5b600080fd5b600063ffffffff82169050919050565b6124938161247a565b811461249e57600080fd5b50565b6000813590506124b08161248a565b92915050565b600080fd5b600067ffffffffffffffff8211156124d6576124d56123c4565b5b6124df826123b3565b9050602081019050919050565b82818337600083830152505050565b600061250e612509846124bb565b612424565b90508281526020810184848401111561252a576125296124b6565b5b6125358482856124ec565b509392505050565b600082601f830112612552576125516123ae565b5b81356125628482602086016124fb565b91505092915050565b60006040828403121561258157612580612470565b5b61258b6040612424565b9050600061259b848285016124a1565b600083015250602082013567ffffffffffffffff8111156125bf576125be612475565b5b6125cb8482850161253d565b60208301525092915050565b60006125ea6125e58461243f565b612424565b9050808382526020820190506020840283018581111561260d5761260c61246b565b5b835b8181101561265457803567ffffffffffffffff811115612632576126316123ae565b5b80860161263f898261256b565b8552602085019450505060208101905061260f565b5050509392505050565b600082601f830112612673576126726123ae565b5b81356126838482602086016125d7565b91505092915050565b600080600080600060a086880312156126a8576126a7612328565b5b60006126b68882890161236d565b95505060206126c78882890161236d565b94505060406126d888828901612399565b93505060606126e988828901612399565b925050608086013567ffffffffffffffff81111561270a5761270961232d565b5b6127168882890161265e565b9150509295509295909350565b61272c81612332565b82525050565b60006020820190506127476000830184612723565b92915050565b61275681612332565b811461276157600080fd5b50565b6000813590506127738161274d565b92915050565b60006020828403121561278f5761278e612328565b5b600061279d84828501612764565b91505092915050565b600081519050919050565b600082825260208201905092915050565b60005b838110156127e05780820151818401526020810190506127c5565b60008484015250505050565b60006127f7826127a6565b61280181856127b1565b93506128118185602086016127c2565b61281a816123b3565b840191505092915050565b6000602082019050818103600083015261283f81846127ec565b905092915050565b600061285282612284565b9050919050565b61286281612847565b811461286d57600080fd5b50565b60008135905061287f81612859565b92915050565b60008115159050919050565b61289a81612885565b81146128a557600080fd5b50565b6000813590506128b781612891565b92915050565b600061010082840312156128d4576128d3612470565b5b6128df610100612424565b905060006128ef84828501612870565b60008301525060206129038482850161236d565b60208301525060406129178482850161236d565b604083015250606061292b84828501612399565b606083015250608061293f84828501612399565b60808301525060a082013567ffffffffffffffff81111561296357612962612475565b5b61296f8482850161265e565b60a08301525060c0612983848285016128a8565b60c08301525060e061299784828501612870565b60e08301525092915050565b6000602082840312156129b9576129b8612328565b5b600082013567ffffffffffffffff8111156129d7576129d661232d565b5b6129e3848285016128bd565b91505092915050565b60007fffffffff0000000000000000000000000000000000000000000000000000000082169050919050565b612a21816129ec565b82525050565b6000602082019050612a3c6000830184612a18565b92915050565b600081519050612a518161274d565b92915050565b600060208284031215612a6d57612a6c612328565b5b6000612a7b84828501612a42565b91505092915050565b6000612a8f82612847565b9050919050565b612a9f81612a84565b8114612aaa57600080fd5b50565b600081519050612abc81612a96565b92915050565b600060208284031215612ad857612ad7612328565b5b6000612ae684828501612aad565b91505092915050565b6000604082019050612b046000830185612723565b612b116020830184612723565b9392505050565b7f4e487b7100000000000000000000000000000000000000000000000000000000600052603260045260246000fd5b7f4e487b7100000000000000000000000000000000000000000000000000000000600052601160045260246000fd5b6000612b8182612250565b9150612b8c83612250565b9250828203905081811115612ba457612ba3612b47565b5b92915050565b6000608082019050612bbf6000830187612723565b612bcc6020830186612723565b612bd9604083018561225a565b612be6606083018461225a565b95945050505050565b6000604082019050612c046000830185612a18565b612c116020830184612723565b9392505050565b7f4e487b7100000000000000000000000000000000000000000000000000000000600052602160045260246000fd5b6000612c5282612250565b9150612c5d83612250565b9250828201905080821115612c7557612c74612b47565b5b92915050565b600081519050612c8a81612382565b92915050565b600060208284031215612ca657612ca5612328565b5b6000612cb484828501612c7b565b91505092915050565b612cc681612847565b82525050565b600081519050919050565b600082825260208201905092915050565b6000612cf382612ccc565b612cfd8185612cd7565b9350612d0d8185602086016127c2565b612d16816123b3565b840191505092915050565b6000606083016000830151612d396000860182612cbd565b506020830151612d4c6020860182612cbd565b5060408301518482036040860152612d648282612ce8565b9150508091505092915050565b60006020820190508181036000830152612d8b8184612d21565b905092915050565b612d9c81612847565b82525050565b600082825260208201905092915050565b6000612dbe82612ccc565b612dc88185612da2565b9350612dd88185602086016127c2565b612de1816123b3565b840191505092915050565b6000604082019050612e016000830185612d93565b8181036020830152612e138184612db3565b90509392505050565b6000612e2f612e2a846124bb565b612424565b905082815260208101848484011115612e4b57612e4a6124b6565b5b612e568482856127c2565b509392505050565b600082601f830112612e7357612e726123ae565b5b8151612e83848260208601612e1c565b91505092915050565b600060208284031215612ea257612ea1612328565b5b600082015167ffffffffffffffff811115612ec057612ebf61232d565b5b612ecc84828501612e5e565b91505092915050565b612ede816129ec565b8114612ee957600080fd5b50565b600081519050612efb81612ed5565b92915050565b600060208284031215612f1757612f16612328565b5b6000612f2584828501612eec565b91505092915050565b50565b6000612f3e600083612da2565b9150612f4982612f2e565b600082019050919050565b6000606082019050612f696000830185612d93565b8181036020830152612f7a81612f31565b9050612f89604083018461225a565b9392505050565b6000604082019050612fa56000830185612d93565b612fb2602083018461225a565b9392505050565b6000819050919050565b6000612fde612fd9612fd484612fb9565b6122a4565b612250565b9050919050565b612fee81612fc3565b82525050565b60006060820190506130096000830186612d93565b818103602083015261301b8185612db3565b905061302a6040830184612fe5565b949350505050565b7f696e76616c696420746f6b656e20616464726573732c20636f6e7461696e732060008201527f6e6f20636f646500000000000000000000000000000000000000000000000000602082015250565b600061308e6027836127b1565b915061309982613032565b604082019050919050565b600060208201905081810360008301526130bd81613081565b9050919050565b60006040820190506130d96000830185612723565b6130e6602083018461225a565b9392505050565b60006060820190506131026000830186612723565b61310f602083018561225a565b61311c604083018461225a565b949350505050565b6000604082019050613139600083018561225a565b613146602083018461225a565b9392505050565b7f466978696e546f6b656e5370656e6465722f43414e4e4f545f494e564f4b455f60008201527f53454c4600000000000000000000000000000000000000000000000000000000602082015250565b60006131a96024836127b1565b91506131b48261314d565b604082019050919050565b600060208201905081810360008301526131d88161319c565b9050919050565b60007fff0000000000000000000000000000000000000000000000000000000000000082169050919050565b6000819050919050565b613226613221826131df565b61320b565b82525050565b60008160601b9050919050565b60006132448261322c565b9050919050565b600061325682613239565b9050919050565b61326e61326982612332565b61324b565b82525050565b600081905092915050565b600061328a82612ccc565b6132948185613274565b93506132a48185602086016127c2565b80840191505092915050565b60006132bc8287613215565b6001820191506132cc8286613215565b6001820191506132dc828561325d565b6014820191506132ec828461327f565b915081905095945050505050565b600060608201905061330f6000830186612723565b81810360208301526133218185612db3565b905081810360408301526133358184612db3565b9050949350505050565b600881106133505761334f612c18565b5b50565b60008190506133618261333f565b919050565b600061337182613353565b9050919050565b61338181613366565b82525050565b600060608201905061339c6000830186613378565b6133a9602083018561225a565b6133b6604083018461225a565b94935050505056fe60a060405234801561001057600080fd5b503373ffffffffffffffffffffffffffffffffffffffff1660808173ffffffffffffffffffffffffffffffffffffffff1681525050608051610f5f61007c600039600081816102e7015281816103410152818161044a0152818161047001526104ca0152610f5f6000f3fe6080604052600436106100745760003560e01c8063b68df16d1161004e578063b68df16d14610118578063bc197c8114610148578063c0ee0b8a14610185578063f23a6e61146101ae5761007b565b806301ffc9a71461008057806354132d78146100bd5780638da5cb5b146100ed5761007b565b3661007b57005b600080fd5b34801561008c57600080fd5b506100a760048036038101906100a29190610831565b6101eb565b6040516100b49190610879565b60405180910390f35b6100d760048036038101906100d2919061098d565b6102e3565b6040516100e49190610a91565b60405180910390f35b3480156100f957600080fd5b50610102610448565b60405161010f9190610ad4565b60405180910390f35b610132600480360381019061012d9190610aef565b61046c565b60405161013f9190610a91565b60405180910390f35b34801561015457600080fd5b5061016f600480360381019061016a9190610bd1565b6105cc565b60405161017c9190610cbc565b60405180910390f35b34801561019157600080fd5b506101ac60048036038101906101a79190610cd7565b6105e4565b005b3480156101ba57600080fd5b506101d560048036038101906101d09190610d4b565b6105ea565b6040516101e29190610cbc565b60405180910390f35b60006301ffc9a760e01b7bffffffffffffffffffffffffffffffffffffffffffffffffffffffff1916827bffffffffffffffffffffffffffffffffffffffffffffffffffffffff1916148061028d575063bc197c8160e01b63f23a6e6160e01b187bffffffffffffffffffffffffffffffffffffffffffffffffffffffff1916827bffffffffffffffffffffffffffffffffffffffffffffffffffffffff1916145b806102dc575063c0ee0b8a60e01b7bffffffffffffffffffffffffffffffffffffffffffffffffffffffff1916827bffffffffffffffffffffffffffffffffffffffffffffffffffffffff1916145b9050919050565b60607f000000000000000000000000000000000000000000000000000000000000000073ffffffffffffffffffffffffffffffffffffffff163373ffffffffffffffffffffffffffffffffffffffff161461036b5761036a610365337f0000000000000000000000000000000000000000000000000000000000000000610600565b610682565b5b60008573ffffffffffffffffffffffffffffffffffffffff16838686604051610395929190610e24565b60006040518083038185875af1925050503d80600081146103d2576040519150601f19603f3d011682016040523d82523d6000602084013e6103d7565b606091505b5080935081925050508061043f5761043e610439308888888080601f016020809104026020016040519081016040528093929190818152602001838380828437600081840152601f19601f82011690508083019250505050505050878761068a565b610682565b5b50949350505050565b7f000000000000000000000000000000000000000000000000000000000000000081565b60607f000000000000000000000000000000000000000000000000000000000000000073ffffffffffffffffffffffffffffffffffffffff163373ffffffffffffffffffffffffffffffffffffffff16146104f4576104f36104ee337f0000000000000000000000000000000000000000000000000000000000000000610600565b610682565b5b60008473ffffffffffffffffffffffffffffffffffffffff16848460405161051d929190610e24565b600060405180830381855af49150503d8060008114610558576040519150601f19603f3d011682016040523d82523d6000602084013e61055d565b606091505b508093508192505050806105c4576105c36105be308787878080601f016020809104026020016040519081016040528093929190818152602001838380828437600081840152601f19601f820116905080830192505050505050508661072e565b610682565b5b509392505050565b600063bc197c8160e01b905098975050505050505050565b50505050565b600063f23a6e6160e01b90509695505050505050565b6060631de45ad160e01b838360405160240161061d929190610e3d565b604051602081830303815290604052907bffffffffffffffffffffffffffffffffffffffffffffffffffffffff19166020820180517bffffffffffffffffffffffffffffffffffffffffffffffffffffffff8381831617835250505050905092915050565b805160208201fd5b60607f86945816f737646db7f2d6df01602a2212e8c75829f6940913724c13a83a817886868686866040516024016106c6959493929190610e75565b604051602081830303815290604052907bffffffffffffffffffffffffffffffffffffffffffffffffffffffff19166020820180517bffffffffffffffffffffffffffffffffffffffffffffffffffffffff8381831617835250505050905095945050505050565b60607f61e5a7320b4cf56a2980a427f39e3071c967bf2f77fffcaae20e4467e160afcc858585856040516024016107689493929190610ed6565b604051602081830303815290604052907bffffffffffffffffffffffffffffffffffffffffffffffffffffffff19166020820180517bffffffffffffffffffffffffffffffffffffffffffffffffffffffff83818316178352505050509050949350505050565b600080fd5b600080fd5b60007fffffffff0000000000000000000000000000000000000000000000000000000082169050919050565b61080e816107d9565b811461081957600080fd5b50565b60008135905061082b81610805565b92915050565b600060208284031215610847576108466107cf565b5b60006108558482850161081c565b91505092915050565b60008115159050919050565b6108738161085e565b82525050565b600060208201905061088e600083018461086a565b92915050565b600073ffffffffffffffffffffffffffffffffffffffff82169050919050565b60006108bf82610894565b9050919050565b6108cf816108b4565b81146108da57600080fd5b50565b6000813590506108ec816108c6565b92915050565b600080fd5b600080fd5b600080fd5b60008083601f840112610917576109166108f2565b5b8235905067ffffffffffffffff811115610934576109336108f7565b5b6020830191508360018202830111156109505761094f6108fc565b5b9250929050565b6000819050919050565b61096a81610957565b811461097557600080fd5b50565b60008135905061098781610961565b92915050565b600080600080606085870312156109a7576109a66107cf565b5b60006109b5878288016108dd565b945050602085013567ffffffffffffffff8111156109d6576109d56107d4565b5b6109e287828801610901565b935093505060406109f587828801610978565b91505092959194509250565b600081519050919050565b600082825260208201905092915050565b60005b83811015610a3b578082015181840152602081019050610a20565b60008484015250505050565b6000601f19601f8301169050919050565b6000610a6382610a01565b610a6d8185610a0c565b9350610a7d818560208601610a1d565b610a8681610a47565b840191505092915050565b60006020820190508181036000830152610aab8184610a58565b905092915050565b6000610abe82610894565b9050919050565b610ace81610ab3565b82525050565b6000602082019050610ae96000830184610ac5565b92915050565b600080600060408486031215610b0857610b076107cf565b5b6000610b16868287016108dd565b935050602084013567ffffffffffffffff811115610b3757610b366107d4565b5b610b4386828701610901565b92509250509250925092565b610b5881610ab3565b8114610b6357600080fd5b50565b600081359050610b7581610b4f565b92915050565b60008083601f840112610b9157610b906108f2565b5b8235905067ffffffffffffffff811115610bae57610bad6108f7565b5b602083019150836020820283011115610bca57610bc96108fc565b5b9250929050565b60008060008060008060008060a0898b031215610bf157610bf06107cf565b5b6000610bff8b828c01610b66565b9850506020610c108b828c01610b66565b975050604089013567ffffffffffffffff811115610c3157610c306107d4565b5b610c3d8b828c01610b7b565b9650965050606089013567ffffffffffffffff811115610c6057610c5f6107d4565b5b610c6c8b828c01610b7b565b9450945050608089013567ffffffffffffffff811115610c8f57610c8e6107d4565b5b610c9b8b828c01610901565b92509250509295985092959890939650565b610cb6816107d9565b82525050565b6000602082019050610cd16000830184610cad565b92915050565b60008060008060608587031215610cf157610cf06107cf565b5b6000610cff87828801610b66565b9450506020610d1087828801610978565b935050604085013567ffffffffffffffff811115610d3157610d306107d4565b5b610d3d87828801610901565b925092505092959194509250565b60008060008060008060a08789031215610d6857610d676107cf565b5b6000610d7689828a01610b66565b9650506020610d8789828a01610b66565b9550506040610d9889828a01610978565b9450506060610da989828a01610978565b935050608087013567ffffffffffffffff811115610dca57610dc96107d4565b5b610dd689828a01610901565b92509250509295509295509295565b600081905092915050565b82818337600083830152505050565b6000610e0b8385610de5565b9350610e18838584610df0565b82840190509392505050565b6000610e31828486610dff565b91508190509392505050565b6000604082019050610e526000830185610ac5565b610e5f6020830184610ac5565b9392505050565b610e6f81610957565b82525050565b600060a082019050610e8a6000830188610ac5565b610e976020830187610ac5565b8181036040830152610ea98186610a58565b9050610eb86060830185610e66565b8181036080830152610eca8184610a58565b90509695505050505050565b6000608082019050610eeb6000830187610ac5565b610ef86020830186610ac5565b8181036040830152610f0a8185610a58565b90508181036060830152610f1e8184610a58565b90509594505050505056fea2646970667358221220526fcc560e1366841a272c47f5fd01cbbbd7199917119f9918f420af7868ca6e64736f6c634300081c0033a26469706673582212206dc537b1e0e3a85c265c7797386d19aea49fe18e420fa98c7161004f3e13252e64736f6c634300081c0033",
  "linkReferences": {},
  "deployedLinkReferences": {}
}