{
  "_format": "hh-sol-artifact-1",
  "contractName": "OwnableFeature",
  "sourceName": "contracts/src/features/OwnableFeature.sol",
  "abi": [
    {
      "anonymous": false,
      "inputs": [
        {
          "indexed": false,
          "internalType": "address",
          "name": "caller",
          "type": "address"
        },
        {
          "indexed": false,
          "internalType": "address",
          "name": "migrator",
          "type": "address"
        },
        {
          "indexed": false,
          "internalType": "address",
          "name": "newOwner",
          "type": "address"
        }
      ],
      "name": "Migrated",
      "type": "event"
    },
    {
      "anonymous": false,
      "inputs": [
        {
          "indexed": true,
          "internalType": "address",
          "name": "previousOwner",
          "type": "address"
        },
        {
          "indexed": true,
          "internalType": "address",
          "name": "newOwner",
          "type": "address"
        }
      ],
      "name": "OwnershipTransferred",
      "type": "event"
    },
    {
      "inputs": [],
      "name": "FEATURE_NAME",
      "outputs": [
        {
          "internalType": "string",
          "name": "",
          "type": "string"
        }
      ],
      "stateMutability": "view",
      "type": "function"
    },
    {
      "inputs": [],
      "name": "FEATURE_VERSION",
      "outputs": [
        {
          "internalType": "uint256",
          "name": "",
          "type": "uint256"
        }
      ],
      "stateMutability": "view",
      "type": "function"
    },
    {
      "inputs": [],
      "name": "bootstrap",
      "outputs": [
        {
          "internalType": "bytes4",
          "name": "success",
          "type": "bytes4"
        }
      ],
      "stateMutability": "nonpayable",
      "type": "function"
    },
    {
      "inputs": [
        {
          "internalType": "address",
          "name": "target",
          "type": "address"
        },
        {
          "internalType": "bytes",
          "name": "data",
          "type": "bytes"
        },
        {
          "internalType": "address",
          "name": "newOwner",
          "type": "address"
        }
      ],
      "name": "migrate",
      "outputs": [],
      "stateMutability": "nonpayable",
      "type": "function"
    },
    {
      "inputs": [],
      "name": "owner",
      "outputs": [
        {
          "internalType": "address",
          "name": "owner_",
          "type": "address"
        }
      ],
      "stateMutability": "view",
      "type": "function"
    },
    {
      "inputs": [
        {
          "internalType": "address",
          "name": "newOwner",
          "type": "address"
        }
      ],
      "name": "transferOwnership",
      "outputs": [],
      "stateMutability": "nonpayable",
      "type": "function"
    }
  ],
  "bytecode": "0x60c06040526801000000000000000060a052348015601b575f5ffd5b503060805260805160a051610c5b61004e5f395f607801525f81816105a40152818161066401526107240152610c5b5ff3fe608060405234801561000f575f5ffd5b506004361061006f575f3560e01c80638da5cb5b1161004d5780638da5cb5b1461010b578063f2fde38b14610138578063fb969b0a1461014b575f5ffd5b8063031b905c14610073578063261fe679146100ad5780636ae4b4f7146100c2575b5f5ffd5b61009a7f000000000000000000000000000000000000000000000000000000000000000081565b6040519081526020015b60405180910390f35b6100c06100bb366004610a07565b610184565b005b6100fe6040518060400160405280600781526020017f4f776e61626c650000000000000000000000000000000000000000000000000081525081565b6040516100a49190610ae6565b610113610378565b60405173ffffffffffffffffffffffffffffffffffffffff90911681526020016100a4565b6100c0610146366004610aff565b61039d565b61015361050d565b6040517fffffffff0000000000000000000000000000000000000000000000000000000090911681526020016100a4565b5f3073ffffffffffffffffffffffffffffffffffffffff16638da5cb5b6040518163ffffffff1660e01b8152600401602060405180830381865afa1580156101ce573d5f5f3e3d5ffd5b505050506040513d601f19601f820116820180604052508101906101f29190610b1a565b90503373ffffffffffffffffffffffffffffffffffffffff8216146102235761022361021e33836107a9565b61087f565b5073ffffffffffffffffffffffffffffffffffffffff811661027c5761027c61021e60408051808201909152600481527fe69edc3e00000000000000000000000000000000000000000000000000000000602082015290565b5f610285610887565b80547fffffffffffffffffffffffff00000000000000000000000000000000000000001630178155604080516020601f87018190048102820181019092528581529192506102ee91879187908790819084018382808284375f9201919091525061089392505050565b80547fffffffffffffffffffffffff00000000000000000000000000000000000000001673ffffffffffffffffffffffffffffffffffffffff83811691821783556040805133815291881660208301528101919091527fe1b831b0e6f3aa16b4b1a6bd526b5cdeab4940744ca6e0251f5fe5f8caf1c81a9060600160405180910390a15050505050565b5f610381610887565b5473ffffffffffffffffffffffffffffffffffffffff16919050565b5f3073ffffffffffffffffffffffffffffffffffffffff16638da5cb5b6040518163ffffffff1660e01b8152600401602060405180830381865afa1580156103e7573d5f5f3e3d5ffd5b505050506040513d601f19601f8201168201806040525081019061040b9190610b1a565b90503373ffffffffffffffffffffffffffffffffffffffff8216146104375761043761021e33836107a9565b505f610441610887565b905073ffffffffffffffffffffffffffffffffffffffff821661049f5761049b61021e60408051808201909152600481527fe69edc3e00000000000000000000000000000000000000000000000000000000602082015290565b5050565b80547fffffffffffffffffffffffff00000000000000000000000000000000000000001673ffffffffffffffffffffffffffffffffffffffff8316908117825560405133907f8be0079c531659141344cd1fd0a4f28419497f9722a3daafe3b4186f6b6457e0905f90a35050565b5f30610517610887565b80547fffffffffffffffffffffffff00000000000000000000000000000000000000001673ffffffffffffffffffffffffffffffffffffffff9283161790556040517f0ee8be1b0000000000000000000000000000000000000000000000000000000081527ff2fde38b0000000000000000000000000000000000000000000000000000000060048201527f000000000000000000000000000000000000000000000000000000000000000090911660248201523090630ee8be1b906044015f604051808303815f87803b1580156105ed575f5ffd5b505af11580156105ff573d5f5f3e3d5ffd5b50506040517f0ee8be1b0000000000000000000000000000000000000000000000000000000081527f8da5cb5b00000000000000000000000000000000000000000000000000000000600482015273ffffffffffffffffffffffffffffffffffffffff7f0000000000000000000000000000000000000000000000000000000000000000166024820152309250630ee8be1b91506044015f604051808303815f87803b1580156106ad575f5ffd5b505af11580156106bf573d5f5f3e3d5ffd5b50506040517f0ee8be1b0000000000000000000000000000000000000000000000000000000081527f261fe67900000000000000000000000000000000000000000000000000000000600482015273ffffffffffffffffffffffffffffffffffffffff7f0000000000000000000000000000000000000000000000000000000000000000166024820152309250630ee8be1b91506044015f604051808303815f87803b15801561076d575f5ffd5b505af115801561077f573d5f5f3e3d5ffd5b507fd150751b00000000000000000000000000000000000000000000000000000000949350505050565b60405173ffffffffffffffffffffffffffffffffffffffff8084166024830152821660448201526060907f1de45ad100000000000000000000000000000000000000000000000000000000906064015b604080517fffffffffffffffffffffffffffffffffffffffffffffffffffffffffffffffe08184030181529190526020810180517bffffffffffffffffffffffffffffffffffffffffffffffffffffffff167fffffffff000000000000000000000000000000000000000000000000000000009093169290921790915290505b92915050565b805160208201fd5b5f5f6108796002610985565b5f5f8373ffffffffffffffffffffffffffffffffffffffff16836040516108ba9190610b35565b5f60405180830381855af49150503d805f81146108f2576040519150601f19603f3d011682016040523d82523d5f602084013e6108f7565b606091505b509150915081158061090b57508051602014155b8061096d575080517f2c64c5ef00000000000000000000000000000000000000000000000000000000906109489083016020908101908401610b4b565b7fffffffff000000000000000000000000000000000000000000000000000000001614155b1561097f5761097f61021e85836109ad565b50505050565b5f608082600b81111561099a5761099a610b8a565b6109a5906001610bb7565b901b92915050565b60607ff74b11883dedd9755c2b93d5d172e1ad0300f9d700d2a708ba05e9fd9d4d152883836040516024016107f9929190610bef565b73ffffffffffffffffffffffffffffffffffffffff81168114610a04575f5ffd5b50565b5f5f5f5f60608587031215610a1a575f5ffd5b8435610a25816109e3565b9350602085013567ffffffffffffffff811115610a40575f5ffd5b8501601f81018713610a50575f5ffd5b803567ffffffffffffffff811115610a66575f5ffd5b876020828401011115610a77575f5ffd5b602091909101935091506040850135610a8f816109e3565b939692955090935050565b5f81518084528060208401602086015e5f6020828601015260207fffffffffffffffffffffffffffffffffffffffffffffffffffffffffffffffe0601f83011685010191505092915050565b602081525f610af86020830184610a9a565b9392505050565b5f60208284031215610b0f575f5ffd5b8135610af8816109e3565b5f60208284031215610b2a575f5ffd5b8151610af8816109e3565b5f82518060208501845e5f920191825250919050565b5f60208284031215610b5b575f5ffd5b81517fffffffff0000000000000000000000000000000000000000000000000000000081168114610af8575f5ffd5b7f4e487b71000000000000000000000000000000000000000000000000000000005f52602160045260245ffd5b80820180821115610879577f4e487b71000000000000000000000000000000000000000000000000000000005f52601160045260245ffd5b73ffffffffffffffffffffffffffffffffffffffff83168152604060208201525f610c1d6040830184610a9a565b94935050505056fea2646970667358221220f55e21f7318fd9b6585d43b9463c809408021daf7f83c21b25d47ae02d4ac85464736f6c634300081c0033",
  "linkReferences": {},
  "deployedLinkReferences": {}
}