{
  "_format": "hh-sol-artifact-1",
  "contractName": "FullMigration",
  "sourceName": "contracts/src/migrations/FullMigration.sol",
  "abi": [
    {
      "inputs": [
        {
          "internalType": "address payable",
          "name": "initializeCaller_",
          "type": "address"
        }
      ],
      "stateMutability": "nonpayable",
      "type": "constructor"
    },
    {
      "inputs": [
        {
          "internalType": "address payable",
          "name": "ethRecipient",
          "type": "address"
        }
      ],
      "name": "die",
      "outputs": [],
      "stateMutability": "nonpayable",
      "type": "function"
    },
    {
      "inputs": [],
      "name": "getBootstrapper",
      "outputs": [
        {
          "internalType": "address",
          "name": "bootstrapper",
          "type": "address"
        }
      ],
      "stateMutability": "view",
      "type": "function"
    },
    {
      "inputs": [],
      "name": "initializeCaller",
      "outputs": [
        {
          "internalType": "address",
          "name": "",
          "type": "address"
        }
      ],
      "stateMutability": "view",
      "type": "function"
    },
    {
      "inputs": [
        {
          "internalType": "address payable",
          "name": "owner",
          "type": "address"
        },
        {
          "internalType": "contract ZeroEx",
          "name": "zeroEx",
          "type": "address"
        },
        {
          "components": [
            {
              "internalType": "contract SimpleFunctionRegistryFeature",
              "name": "registry",
              "type": "address"
            },
            {
              "internalType": "contract OwnableFeature",
              "name": "ownable",
              "type": "address"
            },
            {
              "internalType": "contract TransformERC20Feature",
              "name": "transformERC20",
              "type": "address"
            },
            {
              "internalType": "contract MetaTransactionsFeature",
              "name": "metaTransactions",
              "type": "address"
            },
            {
              "internalType": "contract NativeOrdersFeature",
              "name": "nativeOrders",
              "type": "address"
            },
            {
              "internalType": "contract OtcOrdersFeature",
              "name": "otcOrders",
              "type": "address"
            }
          ],
          "internalType": "struct FullMigration.Features",
          "name": "features",
          "type": "tuple"
        },
        {
          "components": [
            {
              "internalType": "address",
              "name": "transformerDeployer",
              "type": "address"
            }
          ],
          "internalType": "struct FullMigration.MigrateOpts",
          "name": "migrateOpts",
          "type": "tuple"
        }
      ],
      "name": "migrateZeroEx",
      "outputs": [
        {
          "internalType": "contract ZeroEx",
          "name": "_zeroEx",
          "type": "address"
        }
      ],
      "stateMutability": "nonpayable",
      "type": "function"
    }
  ],
  "bytecode": "0x60a060405234801561000f575f5ffd5b5060405161158f38038061158f83398101604081905261002e916100a5565b6001600160a01b038116608052604051309061004990610098565b6001600160a01b039091168152602001604051809103905ff080158015610072573d5f5f3e3d5ffd5b505f80546001600160a01b0319166001600160a01b0392909216919091179055506100d2565b610a6780610b2883390190565b5f602082840312156100b5575f5ffd5b81516001600160a01b03811681146100cb575f5ffd5b9392505050565b608051610a396100ef5f395f8181608f015260fc0152610a395ff3fe608060405234801561000f575f5ffd5b506004361061004a575f3560e01c8063329798a41461004e5780635f136a4a1461008a578063b3d31735146100b1578063c9353cb5146100ce575b5f5ffd5b61006161005c366004610845565b6100e3565b60405173ffffffffffffffffffffffffffffffffffffffff909116815260200160405180910390f35b6100617f000000000000000000000000000000000000000000000000000000000000000081565b5f5473ffffffffffffffffffffffffffffffffffffffff16610061565b6100e16100dc366004610939565b610359565b005b5f3373ffffffffffffffffffffffffffffffffffffffff7f00000000000000000000000000000000000000000000000000000000000000001614610188576040517f08c379a000000000000000000000000000000000000000000000000000000000815260206004820152601c60248201527f46756c6c4d6967726174696f6e2f494e56414c49445f53454e4445520000000060448201526064015b60405180910390fd5b5f54604080518082018252855173ffffffffffffffffffffffffffffffffffffffff9081168252602080880151821690830190815292517fa23ce6ce000000000000000000000000000000000000000000000000000000008152306004820152888216602482015291518116604483015291518216606482015291169063a23ce6ce906084016020604051808303815f875af115801561022a573d5f5f3e3d5ffd5b505050506040513d601f19601f8201168201806040525081019061024e919061095b565b5061025a8484846103db565b6040517ff2fde38b00000000000000000000000000000000000000000000000000000000815273ffffffffffffffffffffffffffffffffffffffff868116600483015285169063f2fde38b906024015f604051808303815f87803b1580156102c0575f5ffd5b505af11580156102d2573d5f5f3e3d5ffd5b50506040517fc9353cb500000000000000000000000000000000000000000000000000000000815273ffffffffffffffffffffffffffffffffffffffff8816600482015230925063c9353cb591506024015f604051808303815f87803b15801561033a575f5ffd5b505af115801561034c573d5f5f3e3d5ffd5b5095979650505050505050565b3330146103c2576040517f08c379a000000000000000000000000000000000000000000000000000000000815260206004820152601c60248201527f46756c6c4d6967726174696f6e2f494e56414c49445f53454e44455200000000604482015260640161017f565b8073ffffffffffffffffffffffffffffffffffffffff16ff5b6040828101518251825173ffffffffffffffffffffffffffffffffffffffff91821660248083019190915284518083039091018152604490910184526020810180517bffffffffffffffffffffffffffffffffffffffffffffffffffffffff167fce5494bb0000000000000000000000000000000000000000000000000000000017905292517f261fe67900000000000000000000000000000000000000000000000000000000815286939184169263261fe6799261049e923090600401610976565b5f604051808303815f87803b1580156104b5575f5ffd5b505af11580156104c7573d5f5f3e3d5ffd5b50505060608401516040805160048082526024820183526020820180517bffffffffffffffffffffffffffffffffffffffffffffffffffffffff167f8fd3ab800000000000000000000000000000000000000000000000000000000017905291517f261fe67900000000000000000000000000000000000000000000000000000000815273ffffffffffffffffffffffffffffffffffffffff8616945063261fe6799361057993909291309101610976565b5f604051808303815f87803b158015610590575f5ffd5b505af11580156105a2573d5f5f3e3d5ffd5b50505060808401516040805160048082526024820183526020820180517bffffffffffffffffffffffffffffffffffffffffffffffffffffffff167f8fd3ab800000000000000000000000000000000000000000000000000000000017905291517f261fe67900000000000000000000000000000000000000000000000000000000815273ffffffffffffffffffffffffffffffffffffffff8616945063261fe6799361065493909291309101610976565b5f604051808303815f87803b15801561066b575f5ffd5b505af115801561067d573d5f5f3e3d5ffd5b50505060a08401516040805160048082526024820183526020820180517bffffffffffffffffffffffffffffffffffffffffffffffffffffffff167f8fd3ab800000000000000000000000000000000000000000000000000000000017905291517f261fe67900000000000000000000000000000000000000000000000000000000815273ffffffffffffffffffffffffffffffffffffffff8616945063261fe6799361072f93909291309101610976565b5f604051808303815f87803b158015610746575f5ffd5b505af1158015610758573d5f5f3e3d5ffd5b5050505050505050565b73ffffffffffffffffffffffffffffffffffffffff81168114610783575f5ffd5b50565b60405160c0810167ffffffffffffffff811182821017156107ce577f4e487b71000000000000000000000000000000000000000000000000000000005f52604160045260245ffd5b60405290565b5f602082840312156107e4575f5ffd5b6040516020810167ffffffffffffffff8111828210171561082c577f4e487b71000000000000000000000000000000000000000000000000000000005f52604160045260245ffd5b604052905080823561083d81610762565b905292915050565b5f5f5f5f84860361012081121561085a575f5ffd5b853561086581610762565b9450602086013561087581610762565b935060c07fffffffffffffffffffffffffffffffffffffffffffffffffffffffffffffffc0820112156108a6575f5ffd5b506108af610786565b60408601356108bd81610762565b815260608601356108cd81610762565b602082015260808601356108e081610762565b604082015260a08601356108f381610762565b606082015260c086013561090681610762565b608082015260e086013561091981610762565b60a0820152915061092e8661010087016107d4565b905092959194509250565b5f60208284031215610949575f5ffd5b813561095481610762565b9392505050565b5f6020828403121561096b575f5ffd5b815161095481610762565b73ffffffffffffffffffffffffffffffffffffffff84168152606060208201525f83518060608401528060208601608085015e5f6080828501015260807fffffffffffffffffffffffffffffffffffffffffffffffffffffffffffffffe0601f83011684010191505073ffffffffffffffffffffffffffffffffffffffff8316604083015294935050505056fea26469706673582212203c6eaff3e7ec676cc5157074914ea709e863f4e60ce233f329394c3fc0461ab464736f6c634300081c003360c0604052348015600e575f5ffd5b50604051610a67380380610a67833981016040819052602b91603f565b6001600160a01b03166080523060a052606a565b5f60208284031215604e575f5ffd5b81516001600160a01b03811681146063575f5ffd5b9392505050565b60805160a0516109d66100915f395f61053c01525f8181609c015261031901526109d65ff3fe608060405234801561000f575f5ffd5b506004361061004a575f3560e01c806308cf79341461004e5780635f136a4a14610097578063a23ce6ce146100e3578063c9353cb5146100f6575b5f5ffd5b61006161005c366004610840565b61010b565b6040517fffffffff0000000000000000000000000000000000000000000000000000000090911681526020015b60405180910390f35b6100be7f000000000000000000000000000000000000000000000000000000000000000081565b60405173ffffffffffffffffffffffffffffffffffffffff909116815260200161008e565b6100be6100f1366004610874565b610300565b6101096101043660046108b9565b610524565b005b80516040805160048152602481019091526020810180517bffffffffffffffffffffffffffffffffffffffffffffffffffffffff167ffb969b0a000000000000000000000000000000000000000000000000000000001790525f9161016f916105dc565b60208083015160408051600481526024810190915291820180517bffffffffffffffffffffffffffffffffffffffffffffffffffffffff167ffb969b0a000000000000000000000000000000000000000000000000000000001790526101d4916105dc565b6040517f9db64a400000000000000000000000000000000000000000000000000000000081527f0ee8be1b0000000000000000000000000000000000000000000000000000000060048201525f60248201523090639db64a40906044015f604051808303815f87803b158015610248575f5ffd5b505af115801561025a573d5f5f3e3d5ffd5b50506040517ff2fde38b00000000000000000000000000000000000000000000000000000000815273ffffffffffffffffffffffffffffffffffffffff8616600482015230925063f2fde38b91506024015f604051808303815f87803b1580156102c2575f5ffd5b505af11580156102d4573d5f5f3e3d5ffd5b507fd150751b000000000000000000000000000000000000000000000000000000009695505050505050565b5f3373ffffffffffffffffffffffffffffffffffffffff7f000000000000000000000000000000000000000000000000000000000000000016146103a5576040517f08c379a000000000000000000000000000000000000000000000000000000000815260206004820152601f60248201527f496e697469616c4d6967726174696f6e2f494e56414c49445f53454e4445520060448201526064015b60405180910390fd5b6040805173ffffffffffffffffffffffffffffffffffffffff868116602483015284518116604483015260208086015182166064808501919091528451808503909101815260849093018452820180517bffffffffffffffffffffffffffffffffffffffffffffffffffffffff167f08cf79340000000000000000000000000000000000000000000000000000000017905291517f73f208d5000000000000000000000000000000000000000000000000000000008152918516916373f208d591610475913091906004016108db565b5f604051808303815f87803b15801561048c575f5ffd5b505af115801561049e573d5f5f3e3d5ffd5b50506040517fc9353cb500000000000000000000000000000000000000000000000000000000815273ffffffffffffffffffffffffffffffffffffffff8716600482015230925063c9353cb591506024015f604051808303815f87803b158015610506575f5ffd5b505af1158015610518573d5f5f3e3d5ffd5b50949695505050505050565b3373ffffffffffffffffffffffffffffffffffffffff7f000000000000000000000000000000000000000000000000000000000000000016146105c3576040517f08c379a000000000000000000000000000000000000000000000000000000000815260206004820152601f60248201527f496e697469616c4d6967726174696f6e2f494e56414c49445f53454e44455200604482015260640161039c565b8073ffffffffffffffffffffffffffffffffffffffff16ff5b5f5f8373ffffffffffffffffffffffffffffffffffffffff1683604051610603919061094b565b5f60405180830381855af49150503d805f811461063b576040519150601f19603f3d011682016040523d82523d5f602084013e610640565b606091505b509150915081158061065457508051602014155b806106b6575080517fd150751b00000000000000000000000000000000000000000000000000000000906106919083016020908101908401610961565b7fffffffff000000000000000000000000000000000000000000000000000000001614155b156106cd576106cd6106c885836106d3565b61078e565b50505050565b60607fd19d65df6830e3cb0da1e12b8e9738e2dc473f830d8af813bcc031eb5a1675d183836040516024016107099291906108db565b604080517fffffffffffffffffffffffffffffffffffffffffffffffffffffffffffffffe08184030181529190526020810180517bffffffffffffffffffffffffffffffffffffffffffffffffffffffff167fffffffff0000000000000000000000000000000000000000000000000000000090931692909217909152905092915050565b805160208201fd5b73ffffffffffffffffffffffffffffffffffffffff811681146107b7575f5ffd5b50565b5f604082840312156107ca575f5ffd5b6040516040810181811067ffffffffffffffff82111715610812577f4e487b71000000000000000000000000000000000000000000000000000000005f52604160045260245ffd5b604052905080823561082381610796565b8152602083013561083381610796565b6020919091015292915050565b5f5f60608385031215610851575f5ffd5b823561085c81610796565b915061086b84602085016107ba565b90509250929050565b5f5f5f60808486031215610886575f5ffd5b833561089181610796565b925060208401356108a181610796565b91506108b085604086016107ba565b90509250925092565b5f602082840312156108c9575f5ffd5b81356108d481610796565b9392505050565b73ffffffffffffffffffffffffffffffffffffffff83168152604060208201525f82518060408401528060208501606085015e5f6060828501015260607fffffffffffffffffffffffffffffffffffffffffffffffffffffffffffffffe0601f8301168401019150509392505050565b5f82518060208501845e5f920191825250919050565b5f60208284031215610971575f5ffd5b81517fffffffff00000000000000000000000000000000000000000000000000000000811681146108d4575f5ffdfea2646970667358221220306abac59cb057cca7709dcb125138821d74b2801f393b6ec607fba1c9a09c5964736f6c634300081c0033",
  "linkReferences": {},
  "deployedLinkReferences": {}
}