{
  "_format": "hh-sol-artifact-1",
  "contractName": "TestLibERC20TokenTarget",
  "sourceName": "contracts/test/TestLibERC20TokenTarget.sol",
  "abi": [
    {
      "anonymous": false,
      "inputs": [
        {
          "indexed": false,
          "internalType": "address",
          "name": "spender",
          "type": "address"
        },
        {
          "indexed": false,
          "internalType": "uint256",
          "name": "allowance",
          "type": "uint256"
        }
      ],
      "name": "ApproveCalled",
      "type": "event"
    },
    {
      "anonymous": false,
      "inputs": [
        {
          "indexed": false,
          "internalType": "address",
          "name": "to",
          "type": "address"
        },
        {
          "indexed": false,
          "internalType": "uint256",
          "name": "amount",
          "type": "uint256"
        }
      ],
      "name": "TransferCalled",
      "type": "event"
    },
    {
      "anonymous": false,
      "inputs": [
        {
          "indexed": false,
          "internalType": "address",
          "name": "from",
          "type": "address"
        },
        {
          "indexed": false,
          "internalType": "address",
          "name": "to",
          "type": "address"
        },
        {
          "indexed": false,
          "internalType": "uint256",
          "name": "amount",
          "type": "uint256"
        }
      ],
      "name": "TransferFromCalled",
      "type": "event"
    },
    {
      "inputs": [
        {
          "internalType": "address",
          "name": "spender",
          "type": "address"
        },
        {
          "internalType": "uint256",
          "name": "allowance",
          "type": "uint256"
        }
      ],
      "name": "approve",
      "outputs": [
        {
          "internalType": "bool",
          "name": "",
          "type": "bool"
        }
      ],
      "stateMutability": "nonpayable",
      "type": "function"
    },
    {
      "inputs": [],
      "name": "decimals",
      "outputs": [
        {
          "internalType": "uint8",
          "name": "",
          "type": "uint8"
        }
      ],
      "stateMutability": "view",
      "type": "function"
    },
    {
      "inputs": [
        {
          "internalType": "bool",
          "name": "shouldRevert",
          "type": "bool"
        },
        {
          "internalType": "bytes",
          "name": "revertData",
          "type": "bytes"
        },
        {
          "internalType": "bytes",
          "name": "returnData",
          "type": "bytes"
        }
      ],
      "name": "setBehavior",
      "outputs": [],
      "stateMutability": "nonpayable",
      "type": "function"
    },
    {
      "inputs": [
        {
          "internalType": "address",
          "name": "to",
          "type": "address"
        },
        {
          "internalType": "uint256",
          "name": "amount",
          "type": "uint256"
        }
      ],
      "name": "transfer",
      "outputs": [
        {
          "internalType": "bool",
          "name": "",
          "type": "bool"
        }
      ],
      "stateMutability": "nonpayable",
      "type": "function"
    },
    {
      "inputs": [
        {
          "internalType": "address",
          "name": "from",
          "type": "address"
        },
        {
          "internalType": "address",
          "name": "to",
          "type": "address"
        },
        {
          "internalType": "uint256",
          "name": "amount",
          "type": "uint256"
        }
      ],
      "name": "transferFrom",
      "outputs": [
        {
          "internalType": "bool",
          "name": "",
          "type": "bool"
        }
      ],
      "stateMutability": "nonpayable",
      "type": "function"
    }
  ],
  "bytecode": "0x6080604052348015600e575f5ffd5b506106f38061001c5f395ff3fe608060405234801561000f575f5ffd5b5060043610610064575f3560e01c8063313ce5671161004d578063313ce567146100a3578063a9059cbb146100bd578063d48d62ff146100d0575f5ffd5b8063095ea7b31461006857806323b872dd14610090575b5f5ffd5b61007b6100763660046103b0565b6100e5565b60405190151581526020015b60405180910390f35b61007b61009e3660046103d8565b610145565b6100ab6101ae565b60405160ff9091168152602001610087565b61007b6100cb3660046103b0565b6101ba565b6100e36100de366004610457565b610208565b005b6040805173ffffffffffffffffffffffffffffffffffffffff84168152602081018390525f917fea0b2cdde7b8dc757afda74b9b45d44accc81dab1430ae86c9c6ade4c8266a7491015b60405180910390a161013f610256565b92915050565b6040805173ffffffffffffffffffffffffffffffffffffffff8086168252841660208201529081018290525f907f5a6fba7057bfcab4df7826f671557535c8430f576ea51d157eb2bf19b79589bb9060600160405180910390a16101a7610256565b9392505050565b5f6101b7610256565b90565b6040805173ffffffffffffffffffffffffffffffffffffffff84168152602081018390525f917fb1da920ef48d84956c4943c52077e88e92e275ea2a0a283b22c526ba60b3f546910161012f565b5f80547fffffffffffffffffffffffffffffffffffffffffffffffffffffffffffffff001686151517905560016102408486836105a7565b50600261024e8284836105a7565b505050505050565b5f5460ff16156102f4575f6001805461026e9061050a565b80601f016020809104026020016040519081016040528092919081815260200182805461029a9061050a565b80156102e55780601f106102bc576101008083540402835291602001916102e5565b820191905f5260205f20905b8154815290600101906020018083116102c857829003601f168201915b50505050509050805160208201fd5b5f600280546103029061050a565b80601f016020809104026020016040519081016040528092919081815260200182805461032e9061050a565b80156103795780601f1061035057610100808354040283529160200191610379565b820191905f5260205f20905b81548152906001019060200180831161035c57829003601f168201915b50505050509050805160208201f35b803573ffffffffffffffffffffffffffffffffffffffff811681146103ab575f5ffd5b919050565b5f5f604083850312156103c1575f5ffd5b6103ca83610388565b946020939093013593505050565b5f5f5f606084860312156103ea575f5ffd5b6103f384610388565b925061040160208501610388565b929592945050506040919091013590565b5f5f83601f840112610422575f5ffd5b50813567ffffffffffffffff811115610439575f5ffd5b602083019150836020828501011115610450575f5ffd5b9250929050565b5f5f5f5f5f6060868803121561046b575f5ffd5b8535801515811461047a575f5ffd5b9450602086013567ffffffffffffffff811115610495575f5ffd5b6104a188828901610412565b909550935050604086013567ffffffffffffffff8111156104c0575f5ffd5b6104cc88828901610412565b969995985093965092949392505050565b7f4e487b71000000000000000000000000000000000000000000000000000000005f52604160045260245ffd5b600181811c9082168061051e57607f821691505b602082108103610555577f4e487b71000000000000000000000000000000000000000000000000000000005f52602260045260245ffd5b50919050565b601f8211156105a257805f5260205f20601f840160051c810160208510156105805750805b601f840160051c820191505b8181101561059f575f815560010161058c565b50505b505050565b67ffffffffffffffff8311156105bf576105bf6104dd565b6105d3836105cd835461050a565b8361055b565b5f601f841160018114610623575f85156105ed5750838201355b7fffffffffffffffffffffffffffffffffffffffffffffffffffffffffffffffff600387901b1c1916600186901b17835561059f565b5f838152602081207fffffffffffffffffffffffffffffffffffffffffffffffffffffffffffffffe08716915b828110156106705786850135825560209485019460019092019101610650565b50868210156106ab577fffffffffffffffffffffffffffffffffffffffffffffffffffffffffffffffff60f88860031b161c19848701351681555b505060018560011b018355505050505056fea26469706673582212209f24b6a6a929b3f3802ac1224981ba610ec4c119793dc50f045d5a6d5d0d30e664736f6c634300081c0033",
  "linkReferences": {},
  "deployedLinkReferences": {}
}