{
  "_format": "hh-sol-artifact-1",
  "contractName": "MetaTransactionsFeature",
  "sourceName": "contracts/src/features/MetaTransactionsFeature.sol",
  "abi": [
    {
      "inputs": [
        {
          "internalType": "address",
          "name": "zeroExAddress",
          "type": "address"
        }
      ],
      "stateMutability": "nonpayable",
      "type": "constructor"
    },
    {
      "anonymous": false,
      "inputs": [
        {
          "indexed": false,
          "internalType": "bytes32",
          "name": "hash",
          "type": "bytes32"
        },
        {
          "indexed": true,
          "internalType": "bytes4",
          "name": "selector",
          "type": "bytes4"
        },
        {
          "indexed": false,
          "internalType": "address",
          "name": "signer",
          "type": "address"
        },
        {
          "indexed": false,
          "internalType": "address",
          "name": "sender",
          "type": "address"
        }
      ],
      "name": "MetaTransactionExecuted",
      "type": "event"
    },
    {
      "inputs": [],
      "name": "EIP712_DOMAIN_SEPARATOR",
      "outputs": [
        {
          "internalType": "bytes32",
          "name": "",
          "type": "bytes32"
        }
      ],
      "stateMutability": "view",
      "type": "function"
    },
    {
      "inputs": [],
      "name": "FEATURE_NAME",
      "outputs": [
        {
          "internalType": "string",
          "name": "",
          "type": "string"
        }
      ],
      "stateMutability": "view",
      "type": "function"
    },
    {
      "inputs": [],
      "name": "FEATURE_VERSION",
      "outputs": [
        {
          "internalType": "uint256",
          "name": "",
          "type": "uint256"
        }
      ],
      "stateMutability": "view",
      "type": "function"
    },
    {
      "inputs": [],
      "name": "MTX_EIP712_TYPEHASH",
      "outputs": [
        {
          "internalType": "bytes32",
          "name": "",
          "type": "bytes32"
        }
      ],
      "stateMutability": "view",
      "type": "function"
    },
    {
      "inputs": [
        {
          "components": [
            {
              "internalType": "address payable",
              "name": "signer",
              "type": "address"
            },
            {
              "internalType": "address",
              "name": "sender",
              "type": "address"
            },
            {
              "internalType": "uint256",
              "name": "minGasPrice",
              "type": "uint256"
            },
            {
              "internalType": "uint256",
              "name": "maxGasPrice",
              "type": "uint256"
            },
            {
              "internalType": "uint256",
              "name": "expirationTimeSeconds",
              "type": "uint256"
            },
            {
              "internalType": "uint256",
              "name": "salt",
              "type": "uint256"
            },
            {
              "internalType": "bytes",
              "name": "callData",
              "type": "bytes"
            },
            {
              "internalType": "uint256",
              "name": "value",
              "type": "uint256"
            },
            {
              "internalType": "contract IERC20Token",
              "name": "feeToken",
              "type": "address"
            },
            {
              "internalType": "uint256",
              "name": "feeAmount",
              "type": "uint256"
            }
          ],
          "internalType": "struct IMetaTransactionsFeature.MetaTransactionData[]",
          "name": "mtxs",
          "type": "tuple[]"
        },
        {
          "components": [
            {
              "internalType": "enum LibSignature.SignatureType",
              "name": "signatureType",
              "type": "uint8"
            },
            {
              "internalType": "uint8",
              "name": "v",
              "type": "uint8"
            },
            {
              "internalType": "bytes32",
              "name": "r",
              "type": "bytes32"
            },
            {
              "internalType": "bytes32",
              "name": "s",
              "type": "bytes32"
            }
          ],
          "internalType": "struct LibSignature.Signature[]",
          "name": "signatures",
          "type": "tuple[]"
        }
      ],
      "name": "batchExecuteMetaTransactions",
      "outputs": [
        {
          "internalType": "bytes[]",
          "name": "returnResults",
          "type": "bytes[]"
        }
      ],
      "stateMutability": "payable",
      "type": "function"
    },
    {
      "inputs": [
        {
          "components": [
            {
              "internalType": "address payable",
              "name": "signer",
              "type": "address"
            },
            {
              "internalType": "address",
              "name": "sender",
              "type": "address"
            },
            {
              "internalType": "uint256",
              "name": "minGasPrice",
              "type": "uint256"
            },
            {
              "internalType": "uint256",
              "name": "maxGasPrice",
              "type": "uint256"
            },
            {
              "internalType": "uint256",
              "name": "expirationTimeSeconds",
              "type": "uint256"
            },
            {
              "internalType": "uint256",
              "name": "salt",
              "type": "uint256"
            },
            {
              "internalType": "bytes",
              "name": "callData",
              "type": "bytes"
            },
            {
              "internalType": "uint256",
              "name": "value",
              "type": "uint256"
            },
            {
              "internalType": "contract IERC20Token",
              "name": "feeToken",
              "type": "address"
            },
            {
              "internalType": "uint256",
              "name": "feeAmount",
              "type": "uint256"
            }
          ],
          "internalType": "struct IMetaTransactionsFeature.MetaTransactionData",
          "name": "mtx",
          "type": "tuple"
        },
        {
          "components": [
            {
              "internalType": "enum LibSignature.SignatureType",
              "name": "signatureType",
              "type": "uint8"
            },
            {
              "internalType": "uint8",
              "name": "v",
              "type": "uint8"
            },
            {
              "internalType": "bytes32",
              "name": "r",
              "type": "bytes32"
            },
            {
              "internalType": "bytes32",
              "name": "s",
              "type": "bytes32"
            }
          ],
          "internalType": "struct LibSignature.Signature",
          "name": "signature",
          "type": "tuple"
        }
      ],
      "name": "executeMetaTransaction",
      "outputs": [
        {
          "internalType": "bytes",
          "name": "returnResult",
          "type": "bytes"
        }
      ],
      "stateMutability": "payable",
      "type": "function"
    },
    {
      "inputs": [
        {
          "components": [
            {
              "internalType": "address payable",
              "name": "signer",
              "type": "address"
            },
            {
              "internalType": "address",
              "name": "sender",
              "type": "address"
            },
            {
              "internalType": "uint256",
              "name": "minGasPrice",
              "type": "uint256"
            },
            {
              "internalType": "uint256",
              "name": "maxGasPrice",
              "type": "uint256"
            },
            {
              "internalType": "uint256",
              "name": "expirationTimeSeconds",
              "type": "uint256"
            },
            {
              "internalType": "uint256",
              "name": "salt",
              "type": "uint256"
            },
            {
              "internalType": "bytes",
              "name": "callData",
              "type": "bytes"
            },
            {
              "internalType": "uint256",
              "name": "value",
              "type": "uint256"
            },
            {
              "internalType": "contract IERC20Token",
              "name": "feeToken",
              "type": "address"
            },
            {
              "internalType": "uint256",
              "name": "feeAmount",
              "type": "uint256"
            }
          ],
          "internalType": "struct IMetaTransactionsFeature.MetaTransactionData",
          "name": "mtx",
          "type": "tuple"
        }
      ],
      "name": "getMetaTransactionExecutedBlock",
      "outputs": [
        {
          "internalType": "uint256",
          "name": "blockNumber",
          "type": "uint256"
        }
      ],
      "stateMutability": "view",
      "type": "function"
    },
    {
      "inputs": [
        {
          "components": [
            {
              "internalType": "address payable",
              "name": "signer",
              "type": "address"
            },
            {
              "internalType": "address",
              "name": "sender",
              "type": "address"
            },
            {
              "internalType": "uint256",
              "name": "minGasPrice",
              "type": "uint256"
            },
            {
              "internalType": "uint256",
              "name": "maxGasPrice",
              "type": "uint256"
            },
            {
              "internalType": "uint256",
              "name": "expirationTimeSeconds",
              "type": "uint256"
            },
            {
              "internalType": "uint256",
              "name": "salt",
              "type": "uint256"
            },
            {
              "internalType": "bytes",
              "name": "callData",
              "type": "bytes"
            },
            {
              "internalType": "uint256",
              "name": "value",
              "type": "uint256"
            },
            {
              "internalType": "contract IERC20Token",
              "name": "feeToken",
              "type": "address"
            },
            {
              "internalType": "uint256",
              "name": "feeAmount",
              "type": "uint256"
            }
          ],
          "internalType": "struct IMetaTransactionsFeature.MetaTransactionData",
          "name": "mtx",
          "type": "tuple"
        }
      ],
      "name": "getMetaTransactionHash",
      "outputs": [
        {
          "internalType": "bytes32",
          "name": "mtxHash",
          "type": "bytes32"
        }
      ],
      "stateMutability": "view",
      "type": "function"
    },
    {
      "inputs": [
        {
          "internalType": "bytes32",
          "name": "mtxHash",
          "type": "bytes32"
        }
      ],
      "name": "getMetaTransactionHashExecutedBlock",
      "outputs": [
        {
          "internalType": "uint256",
          "name": "blockNumber",
          "type": "uint256"
        }
      ],
      "stateMutability": "view",
      "type": "function"
    },
    {
      "inputs": [],
      "name": "migrate",
      "outputs": [
        {
          "internalType": "bytes4",
          "name": "success",
          "type": "bytes4"
        }
      ],
      "stateMutability": "nonpayable",
      "type": "function"
    }
  ],
  "bytecode": "0x6101006040526801000000020000000160c0527fe866282978e74dc892efa3621df30a058ca4d374a338824c0b89f1dfdcb0ea0460e052348015610041575f5ffd5b5060405161313e38038061313e8339810160408190526100609161011e565b306080908152604080517f8b73c3c69bb8fe3d512ecc4cf759cc79239f7b179b0ffacaa9a75d522b39400f60208201527f9e5dae0addaf20578aeb5d70341d092b53b4e14480ac5726438fd436df7ba427918101919091527f06c015bd22b4c69690933c1058878ebdfef31f9aaae40bbe86d8a09fe1b2972c6060820152469181018290526001600160a01b03831660a082015282919060c00160408051601f19818403018152919052805160209091012060a0525061014b915050565b5f6020828403121561012e575f5ffd5b81516001600160a01b0381168114610144575f5ffd5b9392505050565b60805160a05160c05160e051612fb361018b5f395f8181610232015261051c01525f60c201525f8181610265015261064d01525f610c1a0152612fb35ff3fe6080604052600436106100ad575f3560e01c80638fd3ab8011610066578063c5579ec81161004c578063c5579ec814610201578063d036092d14610221578063dab400f314610254575f5ffd5b80638fd3ab801461019d578063ae550497146101e2575f5ffd5b80633fb2da38116100965780633fb2da38146101175780636ae4b4f71461013657806372d17d031461017e575f5ffd5b8063031b905c146100b15780633d61ed3e146100f7575b5f5ffd5b3480156100bc575f5ffd5b506100e47f000000000000000000000000000000000000000000000000000000000000000081565b6040519081526020015b60405180910390f35b61010a610105366004612119565b610287565b6040516100ee91906121b1565b348015610122575f5ffd5b506100e46101313660046121c3565b6103f7565b348015610141575f5ffd5b5061010a6040518060400160405280601081526020017f4d6574615472616e73616374696f6e730000000000000000000000000000000081525081565b348015610189575f5ffd5b506100e46101983660046121fd565b61040a565b3480156101a8575f5ffd5b506101b1610423565b6040517fffffffff0000000000000000000000000000000000000000000000000000000090911681526020016100ee565b3480156101ed575f5ffd5b506100e46101fc3660046121c3565b610516565b61021461020f3660046122a6565b610694565b6040516100ee9190612382565b34801561022c575f5ffd5b506100e47f000000000000000000000000000000000000000000000000000000000000000081565b34801561025f575f5ffd5b506100e47f000000000000000000000000000000000000000000000000000000000000000081565b606060015f61029461082f565b8054909150828116156102f4576102f46102ef6102e95f5f368080601f0160208091040260200160405190810160405280939291908181526020018383808284375f92019190915250929392505061083b9050565b85610881565b610961565b821781555f6103033447612430565b905061030d611cf8565b3381526040810187905261032087610516565b60208201526060810186905261033581610969565b9450505f6103433447610b92565b9050801561037757604051339082156108fc029083905f818181858888f19350505050158015610375573d5f5f3e3d5ffd5b505b50478111156103e7576040517f08c379a000000000000000000000000000000000000000000000000000000000815260206004820181905260248201527f4d6574615472616e73616374696f6e73466561747572652f4554485f4c45414b60448201526064015b60405180910390fd5b5080549119909116905592915050565b5f61040461019883610516565b92915050565b5f610413610ba9565b5f92835260205250604090205490565b5f61044d7f3d61ed3e00000000000000000000000000000000000000000000000000000000610bb5565b6104767fc5579ec800000000000000000000000000000000000000000000000000000000610bb5565b61049f7f3fb2da3800000000000000000000000000000000000000000000000000000000610bb5565b6104c87f72d17d0300000000000000000000000000000000000000000000000000000000610bb5565b6104f17fae55049700000000000000000000000000000000000000000000000000000000610bb5565b507f2c64c5ef0000000000000000000000000000000000000000000000000000000090565b5f6104047f0000000000000000000000000000000000000000000000000000000000000000835f015184602001518560400151866060015187608001518860a001518960c00151805190602001208a60e001518b61010001518c61012001516040516020016105f09b9a999897969594939291909a8b5273ffffffffffffffffffffffffffffffffffffffff998a1660208c015297891660408b015260608a0196909652608089019490945260a088019290925260c087015260e08601526101008501529091166101208301526101408201526101600190565b604080517fffffffffffffffffffffffffffffffffffffffffffffffffffffffffffffffe081840301815282825280516020918201207f1901000000000000000000000000000000000000000000000000000000000000848301527f00000000000000000000000000000000000000000000000000000000000000006022850152604280850191909152825180850390910181526062909301909152815191012090565b606060015f6106a161082f565b8054909150828116156106f6576106f66102ef6102e95f5f368080601f0160208091040260200160405190810160405280939291908181526020018383808284375f92019190915250929392505061083b9050565b821781555f6107053447612430565b9050845186511461071f5761071f6102ef87518751610c7a565b855167ffffffffffffffff81111561073957610739611df4565b60405190808252806020026020018201604052801561076c57816020015b60608152602001906001900390816107575790505b5093505f5b865181101561082357610782611cf8565b338152875188908390811061079957610799612443565b602002602001015181604001819052506107cb8883815181106107be576107be612443565b6020026020010151610516565b602082015286518790839081106107e4576107e4612443565b602002602001015181606001819052506107fd81610969565b86838151811061080f5761080f612443565b602090810291909101015250600101610771565b505f6103433447610b92565b5f5f6104046006610cb8565b5f610847826004612470565b8351101561086b5761086b6102ef600385518560046108669190612470565b610ce0565b610876602083612470565b929092015192915050565b6040517fffffffff0000000000000000000000000000000000000000000000000000000083166024820152604481018290526060907fc7a7103e21e41a5c3158b3028d34cb9bb9593b10b1892f49d7187efa71219d4e906064015b604080517fffffffffffffffffffffffffffffffffffffffffffffffffffffffffffffffe08184030181529190526020810180517bffffffffffffffffffffffffffffffffffffffffffffffffffffffff167fffffffff0000000000000000000000000000000000000000000000000000000090931692909217909152905092915050565b805160208201fd5b606061097482610d85565b4361097d610ba9565b6020808501515f908152919052604090819020919091558201516101200151156109c157604082015161010081015181518451610120909301516109c19390610f60565b604082015160c001516109d4905f61083b565b7fffffffff0000000000000000000000000000000000000000000000000000000016608083018190527fbeaa9a500000000000000000000000000000000000000000000000000000000001610a3357610a2c826110b1565b9050610af4565b60808201517fffffffff00000000000000000000000000000000000000000000000000000000167f09d8b09a0000000000000000000000000000000000000000000000000000000001610a8957610a2c82611336565b60808201517fffffffff00000000000000000000000000000000000000000000000000000000167f5588b8940000000000000000000000000000000000000000000000000000000001610adf57610a2c826114c5565b610af46102ef836020015184608001516115b2565b81608001517bffffffffffffffffffffffffffffffffffffffffffffffffffffffff19167f7f4fe3ff8ae440e1570c558da08440b26f89fb1c1f2910cd91ca6452955f121a836020015184604001515f0151856040015160200151604051610b859392919092835273ffffffffffffffffffffffffffffffffffffffff918216602084015216604082015260600190565b60405180910390a2919050565b5f818310610ba05781610ba2565b825b9392505050565b5f5f6104046005610cb8565b6040517f6eb224cb0000000000000000000000000000000000000000000000000000000081527fffffffff000000000000000000000000000000000000000000000000000000008216600482015273ffffffffffffffffffffffffffffffffffffffff7f00000000000000000000000000000000000000000000000000000000000000001660248201523090636eb224cb906044015f604051808303815f87803b158015610c61575f5ffd5b505af1158015610c73573d5f5f3e3d5ffd5b5050505050565b60405160248101839052604481018290526060907f52974c3a86e985173f72e2fb84ba2bfca8fb3b7c5031eb8077ebd59458abf2a4906064016108dc565b5f608082600b811115610ccd57610ccd612483565b610cd8906001612470565b901b92915050565b6060632800659560e01b848484604051602401610cff939291906124b0565b604080517fffffffffffffffffffffffffffffffffffffffffffffffffffffffffffffffe08184030181529190526020810180517bffffffffffffffffffffffffffffffffffffffffffffffffffffffff167fffffffff000000000000000000000000000000000000000000000000000000009093169290921790915290509392505050565b60408101516020015173ffffffffffffffffffffffffffffffffffffffff1615801590610de95750805f015173ffffffffffffffffffffffffffffffffffffffff1681604001516020015173ffffffffffffffffffffffffffffffffffffffff1614155b15610e0b57610e0b6102ef8260200151835f0151846040015160200151611611565b4281604001516080015111610e3457610e346102ef82602001514284604001516080015161166c565b3a8160400151604001511180610e5157503a816040015160600151105b15610e7957610e796102ef82602001513a8460400151604001518560400151606001516116b1565b4760a08201819052604082015160e001511115610eae57610eae6102ef82602001518360a00151846040015160e00151611780565b80604001515f015173ffffffffffffffffffffffffffffffffffffffff16610ede826020015183606001516117c5565b73ffffffffffffffffffffffffffffffffffffffff1614610f2257610f226102ef6004836020015184604001515f015160405180602001604052805f81525061193c565b610f2a610ba9565b6020808301515f908152919052604090205460c0820181905215610f5d57610f5d6102ef82602001518360c00151611976565b50565b3073ffffffffffffffffffffffffffffffffffffffff851603611004576040517f08c379a0000000000000000000000000000000000000000000000000000000008152602060048201526024808201527f466978696e546f6b656e5370656e6465722f43414e4e4f545f494e564f4b455f60448201527f53454c460000000000000000000000000000000000000000000000000000000060648201526084016103de565b6040517f23b872dd00000000000000000000000000000000000000000000000000000000815273ffffffffffffffffffffffffffffffffffffffff8416600482015273ffffffffffffffffffffffffffffffffffffffff831660248201528160448201526020816064835f73ffffffffffffffffffffffffffffffffffffffff8a165af13d600183511460208210151681151782169150816110a857805f843e8083fd5b50505050505050565b606061110d6040518060a001604052805f73ffffffffffffffffffffffffffffffffffffffff1681526020015f73ffffffffffffffffffffffffffffffffffffffff1681526020015f81526020015f8152602001606081525090565b5f6004846040015160c00151516111249190612430565b61112f906020612470565b67ffffffffffffffff81111561114757611147611df4565b6040519080825280601f01601f191660200182016040528015611171576020820181803683370190505b5090505f846040015160c00151905060a081511015611192576111926124d8565b6020828101528051602482019060408401906111bd90829084906111b890600490612430565b6119b4565b838060200190518101906111d19190612510565b945050505050610ba28360200151638aa6539b60e01b60405180610100016040528087604001515f015173ffffffffffffffffffffffffffffffffffffffff168152602001855f015173ffffffffffffffffffffffffffffffffffffffff168152602001856020015173ffffffffffffffffffffffffffffffffffffffff1681526020018560400151815260200185606001518152602001856080015181526020015f1515815260200187604001515f015173ffffffffffffffffffffffffffffffffffffffff168152506040516024016112ac919061277d565b604080517fffffffffffffffffffffffffffffffffffffffffffffffffffffffffffffffe08184030181529181526020820180517bffffffffffffffffffffffffffffffffffffffffffffffffffffffff167fffffffff00000000000000000000000000000000000000000000000000000000909416939093179092529086015160e00151611a93565b60408051610180810182525f80825260208083018290528284018290526060808401839052608080850184905260a0850184905260c0850184905260e08501849052610100850184905261012085018490526101408501849052610160850184905285519081018652838152918201839052938101829052808401919091525f5f6113c8866040015160c00151611b1b565b9050808060200190518101906113de91906128df565b60208901516040808b01515190519498509296509094506114bb9290917f414e4ccf0000000000000000000000000000000000000000000000000000000091611431918991899189913390602401612a26565b604080517fffffffffffffffffffffffffffffffffffffffffffffffffffffffffffffffe08184030181529181526020820180517bffffffffffffffffffffffffffffffffffffffffffffffffffffffff167fffffffff00000000000000000000000000000000000000000000000000000000909416939093179092529089015160e00151611a93565b9695505050505050565b60408051610140810182525f80825260208083018290528284018290526060808401839052608080850184905260a0850184905260c0850184905260e085018490526101008501849052610120850184905285519081018652838152918201839052938101829052808401919091525f5f611547866040015160c00151611b1b565b90508080602001905181019061155d9190612c17565b60208901516040808b01515190519498509296509094506114bb9290917faa6b21cd0000000000000000000000000000000000000000000000000000000091611431918991899189915f908290602401612cfa565b604051602481018390527fffffffff00000000000000000000000000000000000000000000000000000000821660448201526060907f547a32a328d8a78dbe9bf090fa60ba3d4d1c6833a592a2c942666ce3249c1210906064016108dc565b6040516024810184905273ffffffffffffffffffffffffffffffffffffffff8084166044830152821660648201526060907fa78002a166fcae5236d89e3ff35c53dadb775f7818de4a020714cba4bf36082290608401610cff565b6040516024810184905260448101839052606481018290526060907fbea726efdf9868bbc5755dce9f13d585b3cf731177be75300d15bb8f5e28615890608401610cff565b604051602481018590526044810184905260648101839052608481018290526060907f6fec11a99ebb0ff14b6648f609f57864dadeba8b29869c4df2b3b768941478499060a4015b604080517fffffffffffffffffffffffffffffffffffffffffffffffffffffffffffffffe08184030181529190526020810180517bffffffffffffffffffffffffffffffffffffffffffffffffffffffff167fffffffff00000000000000000000000000000000000000000000000000000000909316929092179091529050949350505050565b6040516024810184905260448101839052606481018290526060907f0a5ade45208123132815e1591a1c7e64045fd006152f5e85d100aee42ba02c7590608401610cff565b5f6117d08383611b91565b6002825160048111156117e5576117e5612483565b036118565760208083015160408085015160608087015183515f815295860180855289905260ff9094169285019290925290830152608082015260019060a0016020604051602081039080840390855afa158015611845573d5f5f3e3d5ffd5b505050602060405103519050611913565b60038251600481111561186b5761186b612483565b03611913575f7f19457468657265756d205369676e6564204d6573736167653a0a3332000000005f5283601c52603c5f2090506001818460200151856040015186606001516040515f81526020016040526040516118e5949392919093845260ff9290921660208401526040830152606082015260800190565b6020604051602081039080840390855afa158015611905573d5f5f3e3d5ffd5b505050602060405103519150505b73ffffffffffffffffffffffffffffffffffffffff8116610404576104046102ef600585611c8a565b60607f4c7607a3ebba99c9acde0e2a04d88829f7001b63f028b796dda6ff02406ddad5858585856040516024016116f99493929190612ea9565b60405160248101839052604481018290526060907ffe251a07f3cbffd23c1c1db9ec776d259099c832333d99ef48cacfa93a4d7b32906064016108dc565b60208110156119fb578151835160208390036101000a7fffffffffffffffffffffffffffffffffffffffffffffffffffffffffffffffff0180199092169116178352505050565b828203611a0757505050565b82821115611a415760208103905080820181840181515b82851015611a39578451865260209586019590940193611a1e565b905250505050565b60208103905080820181840183515b81861215611a8a57825182527fffffffffffffffffffffffffffffffffffffffffffffffffffffffffffffffe09283019290910190611a50565b85525050505050565b60605f3073ffffffffffffffffffffffffffffffffffffffff168385604051611abc9190612eea565b5f6040518083038185875af1925050503d805f8114611af6576040519150601f19603f3d011682016040523d82523d5f602084013e611afb565b606091505b509250905080611b1357611b136102ef868685611cc0565b509392505050565b606060048251611b2b9190612430565b67ffffffffffffffff811115611b4357611b43611df4565b6040519080825280601f01601f191660200182016040528015611b6d576020820181803683370190505b5090505f5f602484019150602083019050611b8a818385516119b4565b5050919050565b60408101517ffffffffffffffffffffffffffffffffebaaedce6af48a03bbfd25e8cd0364141111580611bfd5750611bea60027ffffffffffffffffffffffffffffffffebaaedce6af48a03bbfd25e8cd0364141612f00565b611bf5906001612470565b606082015110155b15611c1057611c106102ef600584611c8a565b5f81516004811115611c2457611c24612483565b03611c3757611c376102ef600384611c8a565b600181516004811115611c4c57611c4c612483565b03611c5e57611c5e6102ef5f84611c8a565b600481516004811115611c7357611c73612483565b03611c8657611c866102ef600284611c8a565b5050565b60607ff18f11f3027e735c758137924b262d4d3aff0037dcd785aca3c699fa05d960bd83836040516024016108dc929190612f38565b60607fa9f0c547643c02afed4cf2699e794bc383effca840eed62fddb64a15a4e55bc4848484604051602401610cff93929190612f53565b6040518060e001604052805f73ffffffffffffffffffffffffffffffffffffffff1681526020015f8152602001611db46040518061014001604052805f73ffffffffffffffffffffffffffffffffffffffff1681526020015f73ffffffffffffffffffffffffffffffffffffffff1681526020015f81526020015f81526020015f81526020015f8152602001606081526020015f81526020015f73ffffffffffffffffffffffffffffffffffffffff1681526020015f81525090565b8152604080516080810182525f8082526020828101829052928201819052606082015291019081525f602082018190526040820181905260609091015290565b7f4e487b71000000000000000000000000000000000000000000000000000000005f52604160045260245ffd5b604051610140810167ffffffffffffffff81118282101715611e4557611e45611df4565b60405290565b6040516080810167ffffffffffffffff81118282101715611e4557611e45611df4565b60405160a0810167ffffffffffffffff81118282101715611e4557611e45611df4565b6040805190810167ffffffffffffffff81118282101715611e4557611e45611df4565b604051610180810167ffffffffffffffff81118282101715611e4557611e45611df4565b604051601f82017fffffffffffffffffffffffffffffffffffffffffffffffffffffffffffffffe016810167ffffffffffffffff81118282101715611f1f57611f1f611df4565b604052919050565b73ffffffffffffffffffffffffffffffffffffffff81168114610f5d575f5ffd5b8035611f5381611f27565b919050565b5f67ffffffffffffffff821115611f7157611f71611df4565b50601f017fffffffffffffffffffffffffffffffffffffffffffffffffffffffffffffffe01660200190565b5f82601f830112611fac575f5ffd5b8135611fbf611fba82611f58565b611ed8565b818152846020838601011115611fd3575f5ffd5b816020850160208301375f918101602001919091529392505050565b5f6101408284031215612000575f5ffd5b612008611e21565b905061201382611f48565b815261202160208301611f48565b602082015260408281013590820152606080830135908201526080808301359082015260a0808301359082015260c082013567ffffffffffffffff811115612067575f5ffd5b61207384828501611f9d565b60c08301525060e082810135908201526120906101008301611f48565b6101008201526101209182013591810191909152919050565b60058110610f5d575f5ffd5b60ff81168114610f5d575f5ffd5b5f608082840312156120d3575f5ffd5b6120db611e4b565b905081356120e8816120a9565b815260208201356120f8816120b5565b60208201526040828101359082015260609182013591810191909152919050565b5f5f60a0838503121561212a575f5ffd5b823567ffffffffffffffff811115612140575f5ffd5b61214c85828601611fef565b92505061215c84602085016120c3565b90509250929050565b5f81518084528060208401602086015e5f6020828601015260207fffffffffffffffffffffffffffffffffffffffffffffffffffffffffffffffe0601f83011685010191505092915050565b602081525f610ba26020830184612165565b5f602082840312156121d3575f5ffd5b813567ffffffffffffffff8111156121e9575f5ffd5b6121f584828501611fef565b949350505050565b5f6020828403121561220d575f5ffd5b5035919050565b5f67ffffffffffffffff82111561222d5761222d611df4565b5060051b60200190565b5f82601f830112612246575f5ffd5b8135612254611fba82612214565b8082825260208201915060208360071b860101925085831115612275575f5ffd5b602085015b8381101561229c5761228c87826120c3565b835260209092019160800161227a565b5095945050505050565b5f5f604083850312156122b7575f5ffd5b823567ffffffffffffffff8111156122cd575f5ffd5b8301601f810185136122dd575f5ffd5b80356122eb611fba82612214565b8082825260208201915060208360051b85010192508783111561230c575f5ffd5b602084015b8381101561234d57803567ffffffffffffffff81111561232f575f5ffd5b61233e8a602083890101611fef565b84525060209283019201612311565b509450505050602083013567ffffffffffffffff81111561236c575f5ffd5b61237885828601612237565b9150509250929050565b5f602082016020835280845180835260408501915060408160051b8601019250602086015f5b828110156123f7577fffffffffffffffffffffffffffffffffffffffffffffffffffffffffffffffc08786030184526123e2858351612165565b945060209384019391909101906001016123a8565b50929695505050505050565b7f4e487b71000000000000000000000000000000000000000000000000000000005f52601160045260245ffd5b8181038181111561040457610404612403565b7f4e487b71000000000000000000000000000000000000000000000000000000005f52603260045260245ffd5b8082018082111561040457610404612403565b7f4e487b71000000000000000000000000000000000000000000000000000000005f52602160045260245ffd5b60608101600885106124c4576124c4612483565b938152602081019290925260409091015290565b7f4e487b71000000000000000000000000000000000000000000000000000000005f52600160045260245ffd5b8051611f5381611f27565b5f60208284031215612520575f5ffd5b815167ffffffffffffffff811115612536575f5ffd5b820160a08185031215612547575f5ffd5b61254f611e6e565b815161255a81611f27565b8152602082015161256a81611f27565b60208201526040828101519082015260608083015190820152608082015167ffffffffffffffff81111561259c575f5ffd5b80830192505084601f8301126125b0575f5ffd5b81516125be611fba82612214565b8082825260208201915060208360051b8601019250878311156125df575f5ffd5b602085015b838110156126d757805167ffffffffffffffff811115612602575f5ffd5b86016040818b037fffffffffffffffffffffffffffffffffffffffffffffffffffffffffffffffe0011215612635575f5ffd5b61263d611e91565b602082015163ffffffff81168114612653575f5ffd5b8152604082015167ffffffffffffffff81111561266e575f5ffd5b6020818401019250508a601f830112612685575f5ffd5b8151612693611fba82611f58565b8181528c60208386010111156126a7575f5ffd5b8160208501602083015e5f60208383010152806020840152505080855250506020830192506020810190506125e4565b506080840152509095945050505050565b5f82825180855260208501945060208160051b830101602085015f5b83811015612771577fffffffffffffffffffffffffffffffffffffffffffffffffffffffffffffffe0858403018852815163ffffffff8151168452602081015190506040602085015261275a6040850182612165565b6020998a0199909450929092019150600101612704565b50909695505050505050565b6020815273ffffffffffffffffffffffffffffffffffffffff825116602082015273ffffffffffffffffffffffffffffffffffffffff60208301511660408201525f60408301516127e6606084018273ffffffffffffffffffffffffffffffffffffffff169052565b5060608301516080830152608083015160a083015260a083015161010060c08401526128166101208401826126e8565b905060c084015161282b60e085018215159052565b5060e084015173ffffffffffffffffffffffffffffffffffffffff8116610100850152611b13565b80516fffffffffffffffffffffffffffffffff81168114611f53575f5ffd5b805167ffffffffffffffff81168114611f53575f5ffd5b5f60808284031215612899575f5ffd5b6128a1611e4b565b905081516128ae816120a9565b815260208201516128be816120b5565b60208201526040828101519082015260609182015191810191909152919050565b5f5f5f8385036102208112156128f3575f5ffd5b610180811215612901575f5ffd5b5061290a611eb4565b61291385612505565b815261292160208601612505565b602082015261293260408601612853565b604082015261294360608601612853565b606082015261295460808601612853565b608082015261296560a08601612505565b60a082015261297660c08601612505565b60c082015261298760e08601612505565b60e08201526129996101008601612505565b61010082015261012085810151908201526129b76101408601612872565b610140820152610160858101519082015292506129d8856101808601612889565b91506129e76102008501612853565b90509250925092565b805160058110612a0257612a02612483565b825260208181015160ff169083015260408082015190830152606090810151910152565b855173ffffffffffffffffffffffffffffffffffffffff16815261026081016020870151612a6c602084018273ffffffffffffffffffffffffffffffffffffffff169052565b506040870151612a9060408401826fffffffffffffffffffffffffffffffff169052565b506060870151612ab460608401826fffffffffffffffffffffffffffffffff169052565b506080870151612ad860808401826fffffffffffffffffffffffffffffffff169052565b5060a0870151612b0060a084018273ffffffffffffffffffffffffffffffffffffffff169052565b5060c0870151612b2860c084018273ffffffffffffffffffffffffffffffffffffffff169052565b5060e0870151612b5060e084018273ffffffffffffffffffffffffffffffffffffffff169052565b50610100870151612b7a61010084018273ffffffffffffffffffffffffffffffffffffffff169052565b50610120870151610120830152610140870151612ba461014084018267ffffffffffffffff169052565b50610160870151610160830152612bbf6101808301876129f0565b6fffffffffffffffffffffffffffffffff851661020083015273ffffffffffffffffffffffffffffffffffffffff841661022083015273ffffffffffffffffffffffffffffffffffffffff83166102408301526114bb565b5f5f5f8385036101e0811215612c2b575f5ffd5b610140811215612c39575f5ffd5b50612c42611e21565b612c4b85612505565b8152612c5960208601612505565b6020820152612c6a60408601612853565b6040820152612c7b60608601612853565b6060820152612c8c60808601612505565b6080820152612c9d60a08601612505565b60a0820152612cae60c08601612505565b60c082015260e08581015190820152612cca6101008601612872565b61010082015261012085810151908201529250612ceb856101408601612889565b91506129e76101c08501612853565b865173ffffffffffffffffffffffffffffffffffffffff16815261024081016020880151612d40602084018273ffffffffffffffffffffffffffffffffffffffff169052565b506040880151612d6460408401826fffffffffffffffffffffffffffffffff169052565b506060880151612d8860608401826fffffffffffffffffffffffffffffffff169052565b506080880151612db0608084018273ffffffffffffffffffffffffffffffffffffffff169052565b5060a0880151612dd860a084018273ffffffffffffffffffffffffffffffffffffffff169052565b5060c0880151612e0060c084018273ffffffffffffffffffffffffffffffffffffffff169052565b5060e088015160e0830152610100880151612e2861010084018267ffffffffffffffff169052565b50610120880151610120830152612e436101408301886129f0565b6fffffffffffffffffffffffffffffffff959095166101c082015273ffffffffffffffffffffffffffffffffffffffff9384166101e08201529115156102008301529091166102209091015292915050565b60068110612ea557612ea5612483565b9052565b612eb38186612e95565b83602082015273ffffffffffffffffffffffffffffffffffffffff83166040820152608060608201525f6114bb6080830184612165565b5f82518060208501845e5f920191825250919050565b5f82612f33577f4e487b71000000000000000000000000000000000000000000000000000000005f52601260045260245ffd5b500490565b60408101612f468285612e95565b8260208301529392505050565b838152606060208201525f612f6b6060830185612165565b82810360408401526114bb818561216556fea264697066735822122025137a6be94e9d8a60d80bd0efb60a94d06108c72db0957a496d4a57969b36f364736f6c634300081c0033",
  "linkReferences": {},
  "deployedLinkReferences": {}
}