{
  "_format": "hh-sol-artifact-1",
  "contractName": "TestLibSignature",
  "sourceName": "contracts/test/TestLibSignature.sol",
  "abi": [
    {
      "inputs": [
        {
          "internalType": "bytes32",
          "name": "hash",
          "type": "bytes32"
        },
        {
          "components": [
            {
              "internalType": "enum LibSignature.SignatureType",
              "name": "signatureType",
              "type": "uint8"
            },
            {
              "internalType": "uint8",
              "name": "v",
              "type": "uint8"
            },
            {
              "internalType": "bytes32",
              "name": "r",
              "type": "bytes32"
            },
            {
              "internalType": "bytes32",
              "name": "s",
              "type": "bytes32"
            }
          ],
          "internalType": "struct LibSignature.Signature",
          "name": "signature",
          "type": "tuple"
        }
      ],
      "name": "getSignerOfHash",
      "outputs": [
        {
          "internalType": "address",
          "name": "signer",
          "type": "address"
        }
      ],
      "stateMutability": "pure",
      "type": "function"
    }
  ],
  "bytecode": "0x6080604052348015600e575f5ffd5b506104c08061001c5f395ff3fe608060405234801561000f575f5ffd5b5060043610610029575f3560e01c8063a8309be51461002d575b5f5ffd5b61004061003b366004610342565b61005c565b6040516001600160a01b03909116815260200160405180910390f35b5f610075836100703685900385018561038c565b61007e565b90505b92915050565b5f61008983836101ed565b60028251600481111561009e5761009e61040e565b0361010f5760208083015160408085015160608087015183515f815295860180855289905260ff9094169285019290925290830152608082015260019060a0016020604051602081039080840390855afa1580156100fe573d5f5f3e3d5ffd5b5050506020604051035190506101cc565b6003825160048111156101245761012461040e565b036101cc575f7f19457468657265756d205369676e6564204d6573736167653a0a3332000000005f5283601c52603c5f2090506001818460200151856040015186606001516040515f815260200160405260405161019e949392919093845260ff9290921660208401526040830152606082015260800190565b6020604051602081039080840390855afa1580156101be573d5f5f3e3d5ffd5b505050602060405103519150505b6001600160a01b038116610078576100786101e86005856102ca565b61033a565b604081015170014551231950b75fc4402da1732fc9bebe1911158061023d575061022a600270014551231950b75fc4402da1732fc9bebe19610422565b610235906001610441565b606082015110155b15610250576102506101e86005846102ca565b5f815160048111156102645761026461040e565b03610277576102776101e86003846102ca565b60018151600481111561028c5761028c61040e565b0361029e5761029e6101e85f846102ca565b6004815160048111156102b3576102b361040e565b036102c6576102c66101e86002846102ca565b5050565b60607ff18f11f3027e735c758137924b262d4d3aff0037dcd785aca3c699fa05d960bd8383604051602401610300929190610460565b60408051601f198184030181529190526020810180516001600160e01b03166001600160e01b031990931692909217909152905092915050565b805160208201fd5b5f5f82840360a0811215610354575f5ffd5b833592506080601f1982011215610369575f5ffd5b506020830190509250929050565b803560ff81168114610387575f5ffd5b919050565b5f608082840312801561039d575f5ffd5b506040516080810167ffffffffffffffff811182821017156103cd57634e487b7160e01b5f52604160045260245ffd5b6040528235600581106103de575f5ffd5b81526103ec60208401610377565b6020820152604083810135908201526060928301359281019290925250919050565b634e487b7160e01b5f52602160045260245ffd5b5f8261043c57634e487b7160e01b5f52601260045260245ffd5b500490565b8082018082111561007857634e487b7160e01b5f52601160045260245ffd5b604081016006841061048057634e487b7160e01b5f52602160045260245ffd5b928152602001529056fea26469706673582212206255a58f7ce8e07152a20578ba6e11c76d39e361f79029b26b9a3fdb5686d5de64736f6c634300081c0033",
  "linkReferences": {},
  "deployedLinkReferences": {}
}