{
  "_format": "hh-sol-artifact-1",
  "contractName": "TestLibSignature",
  "sourceName": "contracts/test/TestLibSignature.sol",
  "abi": [
    {
      "inputs": [
        {
          "internalType": "bytes32",
          "name": "hash",
          "type": "bytes32"
        },
        {
          "components": [
            {
              "internalType": "enum LibSignature.SignatureType",
              "name": "signatureType",
              "type": "uint8"
            },
            {
              "internalType": "uint8",
              "name": "v",
              "type": "uint8"
            },
            {
              "internalType": "bytes32",
              "name": "r",
              "type": "bytes32"
            },
            {
              "internalType": "bytes32",
              "name": "s",
              "type": "bytes32"
            }
          ],
          "internalType": "struct LibSignature.Signature",
          "name": "signature",
          "type": "tuple"
        }
      ],
      "name": "getSignerOfHash",
      "outputs": [
        {
          "internalType": "address",
          "name": "signer",
          "type": "address"
        }
      ],
      "stateMutability": "pure",
      "type": "function"
    }
  ],
  "bytecode": "0x6080604052348015600e575f5ffd5b506105dc8061001c5f395ff3fe608060405234801561000f575f5ffd5b5060043610610029575f3560e01c8063a8309be51461002d575b5f5ffd5b61004061003b3660046103c3565b610069565b60405173ffffffffffffffffffffffffffffffffffffffff909116815260200160405180910390f35b5f6100828361007d3685900385018561042b565b61008b565b90505b92915050565b5f6100968383610207565b6002825160048111156100ab576100ab6104c6565b0361011c5760208083015160408085015160608087015183515f815295860180855289905260ff9094169285019290925290830152608082015260019060a0016020604051602081039080840390855afa15801561010b573d5f5f3e3d5ffd5b5050506020604051035190506101d9565b600382516004811115610131576101316104c6565b036101d9575f7f19457468657265756d205369676e6564204d6573736167653a0a3332000000005f5283601c52603c5f2090506001818460200151856040015186606001516040515f81526020016040526040516101ab949392919093845260ff9290921660208401526040830152606082015260800190565b6020604051602081039080840390855afa1580156101cb573d5f5f3e3d5ffd5b505050602060405103519150505b73ffffffffffffffffffffffffffffffffffffffff811661008557610085610202600585610300565b6103bb565b60408101517ffffffffffffffffffffffffffffffffebaaedce6af48a03bbfd25e8cd0364141111580610273575061026060027ffffffffffffffffffffffffffffffffebaaedce6af48a03bbfd25e8cd03641416104f3565b61026b90600161052b565b606082015110155b1561028657610286610202600584610300565b5f8151600481111561029a5761029a6104c6565b036102ad576102ad610202600384610300565b6001815160048111156102c2576102c26104c6565b036102d4576102d46102025f84610300565b6004815160048111156102e9576102e96104c6565b036102fc576102fc610202600284610300565b5050565b60607ff18f11f3027e735c758137924b262d4d3aff0037dcd785aca3c699fa05d960bd8383604051602401610336929190610563565b604080517fffffffffffffffffffffffffffffffffffffffffffffffffffffffffffffffe08184030181529190526020810180517bffffffffffffffffffffffffffffffffffffffffffffffffffffffff167fffffffff0000000000000000000000000000000000000000000000000000000090931692909217909152905092915050565b805160208201fd5b5f5f82840360a08112156103d5575f5ffd5b8335925060807fffffffffffffffffffffffffffffffffffffffffffffffffffffffffffffffe082011215610408575f5ffd5b506020830190509250929050565b803560ff81168114610426575f5ffd5b919050565b5f608082840312801561043c575f5ffd5b506040516080810167ffffffffffffffff81118282101715610485577f4e487b71000000000000000000000000000000000000000000000000000000005f52604160045260245ffd5b604052823560058110610496575f5ffd5b81526104a460208401610416565b6020820152604083810135908201526060928301359281019290925250919050565b7f4e487b71000000000000000000000000000000000000000000000000000000005f52602160045260245ffd5b5f82610526577f4e487b71000000000000000000000000000000000000000000000000000000005f52601260045260245ffd5b500490565b80820180821115610085577f4e487b71000000000000000000000000000000000000000000000000000000005f52601160045260245ffd5b604081016006841061059c577f4e487b71000000000000000000000000000000000000000000000000000000005f52602160045260245ffd5b928152602001529056fea264697066735822122005ee234817ab514cb5ec38d65249d69bbc87dd23f456c582be00ff142ec51b8864736f6c634300081c0033",
  "linkReferences": {},
  "deployedLinkReferences": {}
}