{
  "_format": "hh-sol-artifact-1",
  "contractName": "ZeroExTimelock",
  "sourceName": "src/ZeroExTimelock.sol",
  "abi": [
    {
      "inputs": [
        {
          "internalType": "uint256",
          "name": "minDelay",
          "type": "uint256"
        },
        {
          "internalType": "address[]",
          "name": "proposers",
          "type": "address[]"
        },
        {
          "internalType": "address[]",
          "name": "executors",
          "type": "address[]"
        },
        {
          "internalType": "address",
          "name": "admin",
          "type": "address"
        }
      ],
      "stateMutability": "nonpayable",
      "type": "constructor"
    },
    {
      "anonymous": false,
      "inputs": [
        {
          "indexed": true,
          "internalType": "bytes32",
          "name": "id",
          "type": "bytes32"
        },
        {
          "indexed": true,
          "internalType": "uint256",
          "name": "index",
          "type": "uint256"
        },
        {
          "indexed": false,
          "internalType": "address",
          "name": "target",
          "type": "address"
        },
        {
          "indexed": false,
          "internalType": "uint256",
          "name": "value",
          "type": "uint256"
        },
        {
          "indexed": false,
          "internalType": "bytes",
          "name": "data",
          "type": "bytes"
        }
      ],
      "name": "CallExecuted",
      "type": "event"
    },
    {
      "anonymous": false,
      "inputs": [
        {
          "indexed": true,
          "internalType": "bytes32",
          "name": "id",
          "type": "bytes32"
        },
        {
          "indexed": true,
          "internalType": "uint256",
          "name": "index",
          "type": "uint256"
        },
        {
          "indexed": false,
          "internalType": "address",
          "name": "target",
          "type": "address"
        },
        {
          "indexed": false,
          "internalType": "uint256",
          "name": "value",
          "type": "uint256"
        },
        {
          "indexed": false,
          "internalType": "bytes",
          "name": "data",
          "type": "bytes"
        },
        {
          "indexed": false,
          "internalType": "bytes32",
          "name": "predecessor",
          "type": "bytes32"
        },
        {
          "indexed": false,
          "internalType": "uint256",
          "name": "delay",
          "type": "uint256"
        }
      ],
      "name": "CallScheduled",
      "type": "event"
    },
    {
      "anonymous": false,
      "inputs": [
        {
          "indexed": true,
          "internalType": "bytes32",
          "name": "id",
          "type": "bytes32"
        }
      ],
      "name": "Cancelled",
      "type": "event"
    },
    {
      "anonymous": false,
      "inputs": [
        {
          "indexed": false,
          "internalType": "uint256",
          "name": "oldDuration",
          "type": "uint256"
        },
        {
          "indexed": false,
          "internalType": "uint256",
          "name": "newDuration",
          "type": "uint256"
        }
      ],
      "name": "MinDelayChange",
      "type": "event"
    },
    {
      "anonymous": false,
      "inputs": [
        {
          "indexed": true,
          "internalType": "bytes32",
          "name": "role",
          "type": "bytes32"
        },
        {
          "indexed": true,
          "internalType": "bytes32",
          "name": "previousAdminRole",
          "type": "bytes32"
        },
        {
          "indexed": true,
          "internalType": "bytes32",
          "name": "newAdminRole",
          "type": "bytes32"
        }
      ],
      "name": "RoleAdminChanged",
      "type": "event"
    },
    {
      "anonymous": false,
      "inputs": [
        {
          "indexed": true,
          "internalType": "bytes32",
          "name": "role",
          "type": "bytes32"
        },
        {
          "indexed": true,
          "internalType": "address",
          "name": "account",
          "type": "address"
        },
        {
          "indexed": true,
          "internalType": "address",
          "name": "sender",
          "type": "address"
        }
      ],
      "name": "RoleGranted",
      "type": "event"
    },
    {
      "anonymous": false,
      "inputs": [
        {
          "indexed": true,
          "internalType": "bytes32",
          "name": "role",
          "type": "bytes32"
        },
        {
          "indexed": true,
          "internalType": "address",
          "name": "account",
          "type": "address"
        },
        {
          "indexed": true,
          "internalType": "address",
          "name": "sender",
          "type": "address"
        }
      ],
      "name": "RoleRevoked",
      "type": "event"
    },
    {
      "inputs": [],
      "name": "CANCELLER_ROLE",
      "outputs": [
        {
          "internalType": "bytes32",
          "name": "",
          "type": "bytes32"
        }
      ],
      "stateMutability": "view",
      "type": "function"
    },
    {
      "inputs": [],
      "name": "DEFAULT_ADMIN_ROLE",
      "outputs": [
        {
          "internalType": "bytes32",
          "name": "",
          "type": "bytes32"
        }
      ],
      "stateMutability": "view",
      "type": "function"
    },
    {
      "inputs": [],
      "name": "EXECUTOR_ROLE",
      "outputs": [
        {
          "internalType": "bytes32",
          "name": "",
          "type": "bytes32"
        }
      ],
      "stateMutability": "view",
      "type": "function"
    },
    {
      "inputs": [],
      "name": "PROPOSER_ROLE",
      "outputs": [
        {
          "internalType": "bytes32",
          "name": "",
          "type": "bytes32"
        }
      ],
      "stateMutability": "view",
      "type": "function"
    },
    {
      "inputs": [],
      "name": "TIMELOCK_ADMIN_ROLE",
      "outputs": [
        {
          "internalType": "bytes32",
          "name": "",
          "type": "bytes32"
        }
      ],
      "stateMutability": "view",
      "type": "function"
    },
    {
      "inputs": [
        {
          "internalType": "bytes32",
          "name": "id",
          "type": "bytes32"
        }
      ],
      "name": "cancel",
      "outputs": [],
      "stateMutability": "nonpayable",
      "type": "function"
    },
    {
      "inputs": [
        {
          "internalType": "address",
          "name": "target",
          "type": "address"
        },
        {
          "internalType": "uint256",
          "name": "value",
          "type": "uint256"
        },
        {
          "internalType": "bytes",
          "name": "payload",
          "type": "bytes"
        },
        {
          "internalType": "bytes32",
          "name": "predecessor",
          "type": "bytes32"
        },
        {
          "internalType": "bytes32",
          "name": "salt",
          "type": "bytes32"
        }
      ],
      "name": "execute",
      "outputs": [],
      "stateMutability": "payable",
      "type": "function"
    },
    {
      "inputs": [
        {
          "internalType": "address[]",
          "name": "targets",
          "type": "address[]"
        },
        {
          "internalType": "uint256[]",
          "name": "values",
          "type": "uint256[]"
        },
        {
          "internalType": "bytes[]",
          "name": "payloads",
          "type": "bytes[]"
        },
        {
          "internalType": "bytes32",
          "name": "predecessor",
          "type": "bytes32"
        },
        {
          "internalType": "bytes32",
          "name": "salt",
          "type": "bytes32"
        }
      ],
      "name": "executeBatch",
      "outputs": [],
      "stateMutability": "payable",
      "type": "function"
    },
    {
      "inputs": [
        {
          "internalType": "address[]",
          "name": "targets",
          "type": "address[]"
        },
        {
          "internalType": "uint256[]",
          "name": "values",
          "type": "uint256[]"
        },
        {
          "internalType": "bytes[]",
          "name": "payloads",
          "type": "bytes[]"
        },
        {
          "internalType": "bytes32",
          "name": "predecessor",
          "type": "bytes32"
        },
        {
          "internalType": "bytes32",
          "name": "salt",
          "type": "bytes32"
        }
      ],
      "name": "executeRollbackBatch",
      "outputs": [],
      "stateMutability": "payable",
      "type": "function"
    },
    {
      "inputs": [],
      "name": "getMinDelay",
      "outputs": [
        {
          "internalType": "uint256",
          "name": "duration",
          "type": "uint256"
        }
      ],
      "stateMutability": "view",
      "type": "function"
    },
    {
      "inputs": [
        {
          "internalType": "bytes32",
          "name": "role",
          "type": "bytes32"
        }
      ],
      "name": "getRoleAdmin",
      "outputs": [
        {
          "internalType": "bytes32",
          "name": "",
          "type": "bytes32"
        }
      ],
      "stateMutability": "view",
      "type": "function"
    },
    {
      "inputs": [
        {
          "internalType": "bytes32",
          "name": "id",
          "type": "bytes32"
        }
      ],
      "name": "getTimestamp",
      "outputs": [
        {
          "internalType": "uint256",
          "name": "timestamp",
          "type": "uint256"
        }
      ],
      "stateMutability": "view",
      "type": "function"
    },
    {
      "inputs": [
        {
          "internalType": "bytes32",
          "name": "role",
          "type": "bytes32"
        },
        {
          "internalType": "address",
          "name": "account",
          "type": "address"
        }
      ],
      "name": "grantRole",
      "outputs": [],
      "stateMutability": "nonpayable",
      "type": "function"
    },
    {
      "inputs": [
        {
          "internalType": "bytes32",
          "name": "role",
          "type": "bytes32"
        },
        {
          "internalType": "address",
          "name": "account",
          "type": "address"
        }
      ],
      "name": "hasRole",
      "outputs": [
        {
          "internalType": "bool",
          "name": "",
          "type": "bool"
        }
      ],
      "stateMutability": "view",
      "type": "function"
    },
    {
      "inputs": [
        {
          "internalType": "address",
          "name": "target",
          "type": "address"
        },
        {
          "internalType": "uint256",
          "name": "value",
          "type": "uint256"
        },
        {
          "internalType": "bytes",
          "name": "data",
          "type": "bytes"
        },
        {
          "internalType": "bytes32",
          "name": "predecessor",
          "type": "bytes32"
        },
        {
          "internalType": "bytes32",
          "name": "salt",
          "type": "bytes32"
        }
      ],
      "name": "hashOperation",
      "outputs": [
        {
          "internalType": "bytes32",
          "name": "hash",
          "type": "bytes32"
        }
      ],
      "stateMutability": "pure",
      "type": "function"
    },
    {
      "inputs": [
        {
          "internalType": "address[]",
          "name": "targets",
          "type": "address[]"
        },
        {
          "internalType": "uint256[]",
          "name": "values",
          "type": "uint256[]"
        },
        {
          "internalType": "bytes[]",
          "name": "payloads",
          "type": "bytes[]"
        },
        {
          "internalType": "bytes32",
          "name": "predecessor",
          "type": "bytes32"
        },
        {
          "internalType": "bytes32",
          "name": "salt",
          "type": "bytes32"
        }
      ],
      "name": "hashOperationBatch",
      "outputs": [
        {
          "internalType": "bytes32",
          "name": "hash",
          "type": "bytes32"
        }
      ],
      "stateMutability": "pure",
      "type": "function"
    },
    {
      "inputs": [
        {
          "internalType": "bytes32",
          "name": "id",
          "type": "bytes32"
        }
      ],
      "name": "isOperation",
      "outputs": [
        {
          "internalType": "bool",
          "name": "registered",
          "type": "bool"
        }
      ],
      "stateMutability": "view",
      "type": "function"
    },
    {
      "inputs": [
        {
          "internalType": "bytes32",
          "name": "id",
          "type": "bytes32"
        }
      ],
      "name": "isOperationDone",
      "outputs": [
        {
          "internalType": "bool",
          "name": "done",
          "type": "bool"
        }
      ],
      "stateMutability": "view",
      "type": "function"
    },
    {
      "inputs": [
        {
          "internalType": "bytes32",
          "name": "id",
          "type": "bytes32"
        }
      ],
      "name": "isOperationPending",
      "outputs": [
        {
          "internalType": "bool",
          "name": "pending",
          "type": "bool"
        }
      ],
      "stateMutability": "view",
      "type": "function"
    },
    {
      "inputs": [
        {
          "internalType": "bytes32",
          "name": "id",
          "type": "bytes32"
        }
      ],
      "name": "isOperationReady",
      "outputs": [
        {
          "internalType": "bool",
          "name": "ready",
          "type": "bool"
        }
      ],
      "stateMutability": "view",
      "type": "function"
    },
    {
      "inputs": [
        {
          "internalType": "address",
          "name": "",
          "type": "address"
        },
        {
          "internalType": "address",
          "name": "",
          "type": "address"
        },
        {
          "internalType": "uint256[]",
          "name": "",
          "type": "uint256[]"
        },
        {
          "internalType": "uint256[]",
          "name": "",
          "type": "uint256[]"
        },
        {
          "internalType": "bytes",
          "name": "",
          "type": "bytes"
        }
      ],
      "name": "onERC1155BatchReceived",
      "outputs": [
        {
          "internalType": "bytes4",
          "name": "",
          "type": "bytes4"
        }
      ],
      "stateMutability": "nonpayable",
      "type": "function"
    },
    {
      "inputs": [
        {
          "internalType": "address",
          "name": "",
          "type": "address"
        },
        {
          "internalType": "address",
          "name": "",
          "type": "address"
        },
        {
          "internalType": "uint256",
          "name": "",
          "type": "uint256"
        },
        {
          "internalType": "uint256",
          "name": "",
          "type": "uint256"
        },
        {
          "internalType": "bytes",
          "name": "",
          "type": "bytes"
        }
      ],
      "name": "onERC1155Received",
      "outputs": [
        {
          "internalType": "bytes4",
          "name": "",
          "type": "bytes4"
        }
      ],
      "stateMutability": "nonpayable",
      "type": "function"
    },
    {
      "inputs": [
        {
          "internalType": "address",
          "name": "",
          "type": "address"
        },
        {
          "internalType": "address",
          "name": "",
          "type": "address"
        },
        {
          "internalType": "uint256",
          "name": "",
          "type": "uint256"
        },
        {
          "internalType": "bytes",
          "name": "",
          "type": "bytes"
        }
      ],
      "name": "onERC721Received",
      "outputs": [
        {
          "internalType": "bytes4",
          "name": "",
          "type": "bytes4"
        }
      ],
      "stateMutability": "nonpayable",
      "type": "function"
    },
    {
      "inputs": [
        {
          "internalType": "bytes32",
          "name": "role",
          "type": "bytes32"
        },
        {
          "internalType": "address",
          "name": "account",
          "type": "address"
        }
      ],
      "name": "renounceRole",
      "outputs": [],
      "stateMutability": "nonpayable",
      "type": "function"
    },
    {
      "inputs": [
        {
          "internalType": "bytes32",
          "name": "role",
          "type": "bytes32"
        },
        {
          "internalType": "address",
          "name": "account",
          "type": "address"
        }
      ],
      "name": "revokeRole",
      "outputs": [],
      "stateMutability": "nonpayable",
      "type": "function"
    },
    {
      "inputs": [
        {
          "internalType": "address",
          "name": "target",
          "type": "address"
        },
        {
          "internalType": "uint256",
          "name": "value",
          "type": "uint256"
        },
        {
          "internalType": "bytes",
          "name": "data",
          "type": "bytes"
        },
        {
          "internalType": "bytes32",
          "name": "predecessor",
          "type": "bytes32"
        },
        {
          "internalType": "bytes32",
          "name": "salt",
          "type": "bytes32"
        },
        {
          "internalType": "uint256",
          "name": "delay",
          "type": "uint256"
        }
      ],
      "name": "schedule",
      "outputs": [],
      "stateMutability": "nonpayable",
      "type": "function"
    },
    {
      "inputs": [
        {
          "internalType": "address[]",
          "name": "targets",
          "type": "address[]"
        },
        {
          "internalType": "uint256[]",
          "name": "values",
          "type": "uint256[]"
        },
        {
          "internalType": "bytes[]",
          "name": "payloads",
          "type": "bytes[]"
        },
        {
          "internalType": "bytes32",
          "name": "predecessor",
          "type": "bytes32"
        },
        {
          "internalType": "bytes32",
          "name": "salt",
          "type": "bytes32"
        },
        {
          "internalType": "uint256",
          "name": "delay",
          "type": "uint256"
        }
      ],
      "name": "scheduleBatch",
      "outputs": [],
      "stateMutability": "nonpayable",
      "type": "function"
    },
    {
      "inputs": [
        {
          "internalType": "bytes4",
          "name": "interfaceId",
          "type": "bytes4"
        }
      ],
      "name": "supportsInterface",
      "outputs": [
        {
          "internalType": "bool",
          "name": "",
          "type": "bool"
        }
      ],
      "stateMutability": "view",
      "type": "function"
    },
    {
      "inputs": [
        {
          "internalType": "uint256",
          "name": "newDelay",
          "type": "uint256"
        }
      ],
      "name": "updateDelay",
      "outputs": [],
      "stateMutability": "nonpayable",
      "type": "function"
    },
    {
      "stateMutability": "payable",
      "type": "receive"
    }
  ],
  "bytecode": "0x608060405234801561000f575f5ffd5b50604051612dd6380380612dd683398101604081905261002e916103a7565b838383836100495f516020612d565f395f51905f52806101e1565b61006d5f516020612d765f395f51905f525f516020612d565f395f51905f526101e1565b6100915f516020612d965f395f51905f525f516020612d565f395f51905f526101e1565b6100b55f516020612db65f395f51905f525f516020612d565f395f51905f526101e1565b6100cc5f516020612d565f395f51905f523061022b565b6001600160a01b038116156100f2576100f25f516020612d565f395f51905f528261022b565b5f5b835181101561015e576101335f516020612d765f395f51905f5285838151811061012057610120610426565b602002602001015161022b60201b60201c565b6101565f516020612db65f395f51905f5285838151811061012057610120610426565b6001016100f4565b505f5b82518110156101955761018d5f516020612d965f395f51905f5284838151811061012057610120610426565b600101610161565b506002849055604080515f8152602081018690527f11c24f4ead16507c69ac467fbd5e4eed5fb5c699626d2cc6d66421df253886d5910160405180910390a1505050505050505061043a565b5f82815260208190526040808220600101805490849055905190918391839186917fbd79b86ffe0ab8e8776151514217cd7cacd52c909f66475c3af44e129f0b00ff9190a4505050565b6102358282610239565b5050565b5f828152602081815260408083206001600160a01b038516845290915290205460ff16610235575f828152602081815260408083206001600160a01b03851684529091529020805460ff191660011790556102913390565b6001600160a01b0316816001600160a01b0316837f2f8788117e7eff1d82e926ec794901d17c78024a50270940304540a733656f0d60405160405180910390a45050565b634e487b7160e01b5f52604160045260245ffd5b80516001600160a01b03811681146102ff575f5ffd5b919050565b5f82601f830112610313575f5ffd5b81516001600160401b0381111561032c5761032c6102d5565b604051600582901b90603f8201601f191681016001600160401b038111828210171561035a5761035a6102d5565b604052918252602081850181019290810186841115610377575f5ffd5b6020860192505b8383101561039d5761038f836102e9565b81526020928301920161037e565b5095945050505050565b5f5f5f5f608085870312156103ba575f5ffd5b845160208601519094506001600160401b038111156103d7575f5ffd5b6103e387828801610304565b604087015190945090506001600160401b03811115610400575f5ffd5b61040c87828801610304565b92505061041b606086016102e9565b905092959194509250565b634e487b7160e01b5f52603260045260245ffd5b61290f806104475f395ff3fe6080604052600436106101bd575f3560e01c806364d62353116100f2578063b1c5f42711610092578063d547741f11610062578063d547741f146105f5578063e38335e514610614578063f23a6e6114610627578063f27a0c921461066b575f5ffd5b8063b1c5f42714610548578063bc197c8114610567578063c4d252f5146105ab578063d45c4435146105ca575f5ffd5b80638f61f4f5116100cd5780638f61f4f51461048057806391d14854146104b3578063a217fddf14610502578063b08e51c014610515575f5ffd5b806364d62353146104235780638065657f146104425780638f2a0bb014610461575f5ffd5b8063248a9ca31161015d57806331d507501161013857806331d50750146103b357806336568abe146103d25780634100f47f146103f1578063584b153e14610404575f5ffd5b8063248a9ca3146103375780632ab0f529146103655780632f2ff15d14610394575f5ffd5b80630d3cf6fc116101985780630d3cf6fc1461025e578063134008d31461029157806313bc9f20146102a4578063150b7a02146102c3575f5ffd5b806301d5062a146101c857806301ffc9a7146101e957806307bd02651461021d575f5ffd5b366101c457005b5f5ffd5b3480156101d3575f5ffd5b506101e76101e2366004611e1d565b61067f565b005b3480156101f4575f5ffd5b50610208610203366004611e8c565b610712565b60405190151581526020015b60405180910390f35b348015610228575f5ffd5b506102507fd8aa0f3194971a2a116679f7c2090f6939c8d4e01a2a8d7e41d55e5351469e6381565b604051908152602001610214565b348015610269575f5ffd5b506102507f5f58e3a2316349923ce3780f8d587db2d72378aed66a8261c916544fa6846ca581565b6101e761029f366004611ecb565b61076d565b3480156102af575f5ffd5b506102086102be366004611f32565b610862565b3480156102ce575f5ffd5b506103066102dd36600461204f565b7f150b7a0200000000000000000000000000000000000000000000000000000000949350505050565b6040517fffffffff000000000000000000000000000000000000000000000000000000009091168152602001610214565b348015610342575f5ffd5b50610250610351366004611f32565b5f9081526020819052604090206001015490565b348015610370575f5ffd5b5061020861037f366004611f32565b5f908152600160208190526040909120541490565b34801561039f575f5ffd5b506101e76103ae3660046120b3565b610887565b3480156103be575f5ffd5b506102086103cd366004611f32565b6108b0565b3480156103dd575f5ffd5b506101e76103ec3660046120b3565b6108c8565b6101e76103ff36600461211e565b610980565b34801561040f575f5ffd5b5061020861041e366004611f32565b610cde565b34801561042e575f5ffd5b506101e761043d366004611f32565b610cf3565b34801561044d575f5ffd5b5061025061045c366004611ecb565b610dc3565b34801561046c575f5ffd5b506101e761047b3660046121cb565b610e01565b34801561048b575f5ffd5b506102507fb09aa5aeb3702cfd50b6b62bc4532604938f21248a27a1d5ca736082b6819cc181565b3480156104be575f5ffd5b506102086104cd3660046120b3565b5f9182526020828152604080842073ffffffffffffffffffffffffffffffffffffffff93909316845291905290205460ff1690565b34801561050d575f5ffd5b506102505f81565b348015610520575f5ffd5b506102507ffd643c72710c63c0180259aba6b2d05451e3591a24e58b62239378085726f78381565b348015610553575f5ffd5b5061025061056236600461211e565b611029565b348015610572575f5ffd5b50610306610581366004612300565b7fbc197c810000000000000000000000000000000000000000000000000000000095945050505050565b3480156105b6575f5ffd5b506101e76105c5366004611f32565b61106d565b3480156105d5575f5ffd5b506102506105e4366004611f32565b5f9081526001602052604090205490565b348015610600575f5ffd5b506101e761060f3660046120b3565b611167565b6101e761062236600461211e565b61118b565b348015610632575f5ffd5b506103066106413660046123af565b7ff23a6e610000000000000000000000000000000000000000000000000000000095945050505050565b348015610676575f5ffd5b50600254610250565b7fb09aa5aeb3702cfd50b6b62bc4532604938f21248a27a1d5ca736082b6819cc16106a98161142c565b5f6106b8898989898989610dc3565b90506106c48184611439565b5f817f4cf4410cc57040e44862ef0f45f3dd5a5e02db8eb8add648d4b0e236f1d07dca8b8b8b8b8b8a6040516106ff9695949392919061244a565b60405180910390a3505050505050505050565b5f7fffffffff0000000000000000000000000000000000000000000000000000000082167f4e2312e0000000000000000000000000000000000000000000000000000000001480610767575061076782611580565b92915050565b5f80527fdae2aa361dfd1ca020a396615627d436107c35eff9fe7738a3512819782d70696020527f5ba6852781629bcdcd4bdaa6de76d786f1c64b16acdac474e55bebc0ea157951547fd8aa0f3194971a2a116679f7c2090f6939c8d4e01a2a8d7e41d55e5351469e639060ff166107e9576107e98133611616565b5f6107f8888888888888610dc3565b905061080481856116cd565b61081088888888611809565b5f817fc2617efa69bab66782fa219543714338489c4e9e178271560a91b82c3f612b588a8a8a8a6040516108479493929190612494565b60405180910390a361085881611909565b5050505050505050565b5f818152600160205260408120546001811180156108805750428111155b9392505050565b5f828152602081905260409020600101546108a18161142c565b6108ab83836119b1565b505050565b5f8181526001602052604081205481905b1192915050565b73ffffffffffffffffffffffffffffffffffffffff81163314610972576040517f08c379a000000000000000000000000000000000000000000000000000000000815260206004820152602f60248201527f416363657373436f6e74726f6c3a2063616e206f6e6c792072656e6f756e636560448201527f20726f6c657320666f722073656c66000000000000000000000000000000000060648201526084015b60405180910390fd5b61097c8282611a9f565b5050565b5f80527fdae2aa361dfd1ca020a396615627d436107c35eff9fe7738a3512819782d70696020527f5ba6852781629bcdcd4bdaa6de76d786f1c64b16acdac474e55bebc0ea157951547fd8aa0f3194971a2a116679f7c2090f6939c8d4e01a2a8d7e41d55e5351469e639060ff166109fc576109fc8133611616565b87610a63576040517f08c379a000000000000000000000000000000000000000000000000000000000815260206004820152601d60248201527f5a65726f457854696d656c6f636b3a20656d70747920746172676574730000006044820152606401610969565b878614610acc576040517f08c379a000000000000000000000000000000000000000000000000000000000815260206004820152601f60248201527f5a65726f457854696d656c6f636b3a206c656e677468206d69736d61746368006044820152606401610969565b878414610b35576040517f08c379a000000000000000000000000000000000000000000000000000000000815260206004820152601f60248201527f5a65726f457854696d656c6f636b3a206c656e677468206d69736d61746368006044820152606401610969565b5f610b468a8a8a8a8a8a8a8a611029565b90505f5b89811015610cd1575f8b8b83818110610b6557610b656124c9565b9050602002016020810190610b7a91906124f6565b90505f8a8a84818110610b8f57610b8f6124c9565b905060200201359050365f8a8a86818110610bac57610bac6124c9565b9050602002810190610bbe919061250f565b90925090507f9db64a4000000000000000000000000000000000000000000000000000000000610bee8284612570565b7fffffffff000000000000000000000000000000000000000000000000000000001614610c77576040517f08c379a000000000000000000000000000000000000000000000000000000000815260206004820152601c60248201527f5a65726f457854696d656c6f636b3a206e6f7420726f6c6c6261636b000000006044820152606401610969565b610c8384848484611809565b84867fc2617efa69bab66782fa219543714338489c4e9e178271560a91b82c3f612b5886868686604051610cba9493929190612494565b60405180910390a350505050806001019050610b4a565b5050505050505050505050565b5f8181526001602081905260408220546108c1565b333014610d82576040517f08c379a000000000000000000000000000000000000000000000000000000000815260206004820152602b60248201527f54696d656c6f636b436f6e74726f6c6c65723a2063616c6c6572206d7573742060448201527f62652074696d656c6f636b0000000000000000000000000000000000000000006064820152608401610969565b60025460408051918252602082018390527f11c24f4ead16507c69ac467fbd5e4eed5fb5c699626d2cc6d66421df253886d5910160405180910390a1600255565b5f868686868686604051602001610ddf9695949392919061244a565b6040516020818303038152906040528051906020012090509695505050505050565b7fb09aa5aeb3702cfd50b6b62bc4532604938f21248a27a1d5ca736082b6819cc1610e2b8161142c565b888714610eba576040517f08c379a000000000000000000000000000000000000000000000000000000000815260206004820152602360248201527f54696d656c6f636b436f6e74726f6c6c65723a206c656e677468206d69736d6160448201527f74636800000000000000000000000000000000000000000000000000000000006064820152608401610969565b888514610f49576040517f08c379a000000000000000000000000000000000000000000000000000000000815260206004820152602360248201527f54696d656c6f636b436f6e74726f6c6c65723a206c656e677468206d69736d6160448201527f74636800000000000000000000000000000000000000000000000000000000006064820152608401610969565b5f610f5a8b8b8b8b8b8b8b8b611029565b9050610f668184611439565b5f5b8a81101561101b5780827f4cf4410cc57040e44862ef0f45f3dd5a5e02db8eb8add648d4b0e236f1d07dca8e8e85818110610fa557610fa56124c9565b9050602002016020810190610fba91906124f6565b8d8d86818110610fcc57610fcc6124c9565b905060200201358c8c87818110610fe557610fe56124c9565b9050602002810190610ff7919061250f565b8c8b60405161100b9695949392919061244a565b60405180910390a3600101610f68565b505050505050505050505050565b5f88888888888888886040516020016110499897969594939291906126a6565b60405160208183030381529060405280519060200120905098975050505050505050565b7ffd643c72710c63c0180259aba6b2d05451e3591a24e58b62239378085726f7836110978161142c565b6110a082610cde565b61112c576040517f08c379a000000000000000000000000000000000000000000000000000000000815260206004820152603160248201527f54696d656c6f636b436f6e74726f6c6c65723a206f7065726174696f6e20636160448201527f6e6e6f742062652063616e63656c6c65640000000000000000000000000000006064820152608401610969565b5f828152600160205260408082208290555183917fbaa1eb22f2a492ba1a5fea61b8df4d27c6c8b5f3971e63bb58fa14ff72eedb7091a25050565b5f828152602081905260409020600101546111818161142c565b6108ab8383611a9f565b5f80527fdae2aa361dfd1ca020a396615627d436107c35eff9fe7738a3512819782d70696020527f5ba6852781629bcdcd4bdaa6de76d786f1c64b16acdac474e55bebc0ea157951547fd8aa0f3194971a2a116679f7c2090f6939c8d4e01a2a8d7e41d55e5351469e639060ff16611207576112078133611616565b878614611296576040517f08c379a000000000000000000000000000000000000000000000000000000000815260206004820152602360248201527f54696d656c6f636b436f6e74726f6c6c65723a206c656e677468206d69736d6160448201527f74636800000000000000000000000000000000000000000000000000000000006064820152608401610969565b878414611325576040517f08c379a000000000000000000000000000000000000000000000000000000000815260206004820152602360248201527f54696d656c6f636b436f6e74726f6c6c65723a206c656e677468206d69736d6160448201527f74636800000000000000000000000000000000000000000000000000000000006064820152608401610969565b5f6113368a8a8a8a8a8a8a8a611029565b905061134281856116cd565b5f5b89811015611416575f8b8b8381811061135f5761135f6124c9565b905060200201602081019061137491906124f6565b90505f8a8a84818110611389576113896124c9565b905060200201359050365f8a8a868181106113a6576113a66124c9565b90506020028101906113b8919061250f565b915091506113c884848484611809565b84867fc2617efa69bab66782fa219543714338489c4e9e178271560a91b82c3f612b58868686866040516113ff9493929190612494565b60405180910390a350505050806001019050611344565b5061142081611909565b50505050505050505050565b6114368133611616565b50565b611442826108b0565b156114cf576040517f08c379a000000000000000000000000000000000000000000000000000000000815260206004820152602f60248201527f54696d656c6f636b436f6e74726f6c6c65723a206f7065726174696f6e20616c60448201527f7265616479207363686564756c656400000000000000000000000000000000006064820152608401610969565b600254811015611561576040517f08c379a000000000000000000000000000000000000000000000000000000000815260206004820152602660248201527f54696d656c6f636b436f6e74726f6c6c65723a20696e73756666696369656e7460448201527f2064656c617900000000000000000000000000000000000000000000000000006064820152608401610969565b61156b8142612798565b5f928352600160205260409092209190915550565b5f7fffffffff0000000000000000000000000000000000000000000000000000000082167f7965db0b00000000000000000000000000000000000000000000000000000000148061076757507f01ffc9a7000000000000000000000000000000000000000000000000000000007fffffffff00000000000000000000000000000000000000000000000000000000831614610767565b5f8281526020818152604080832073ffffffffffffffffffffffffffffffffffffffff8516845290915290205460ff1661097c5761165381611b54565b61165e836020611b73565b60405160200161166f9291906127c2565b604080517fffffffffffffffffffffffffffffffffffffffffffffffffffffffffffffffe0818403018152908290527f08c379a00000000000000000000000000000000000000000000000000000000082526109699160040161282c565b6116d682610862565b611762576040517f08c379a000000000000000000000000000000000000000000000000000000000815260206004820152602a60248201527f54696d656c6f636b436f6e74726f6c6c65723a206f7065726174696f6e20697360448201527f206e6f74207265616479000000000000000000000000000000000000000000006064820152608401610969565b80158061177d57505f81815260016020819052604090912054145b61097c576040517f08c379a000000000000000000000000000000000000000000000000000000000815260206004820152602660248201527f54696d656c6f636b436f6e74726f6c6c65723a206d697373696e67206465706560448201527f6e64656e637900000000000000000000000000000000000000000000000000006064820152608401610969565b5f8473ffffffffffffffffffffffffffffffffffffffff1684848460405161183292919061287f565b5f6040518083038185875af1925050503d805f811461186c576040519150601f19603f3d011682016040523d82523d5f602084013e611871565b606091505b5050905080611902576040517f08c379a000000000000000000000000000000000000000000000000000000000815260206004820152603360248201527f54696d656c6f636b436f6e74726f6c6c65723a20756e6465726c79696e67207460448201527f72616e73616374696f6e207265766572746564000000000000000000000000006064820152608401610969565b5050505050565b61191281610862565b61199e576040517f08c379a000000000000000000000000000000000000000000000000000000000815260206004820152602a60248201527f54696d656c6f636b436f6e74726f6c6c65723a206f7065726174696f6e20697360448201527f206e6f74207265616479000000000000000000000000000000000000000000006064820152608401610969565b5f90815260016020819052604090912055565b5f8281526020818152604080832073ffffffffffffffffffffffffffffffffffffffff8516845290915290205460ff1661097c575f8281526020818152604080832073ffffffffffffffffffffffffffffffffffffffff85168452909152902080547fffffffffffffffffffffffffffffffffffffffffffffffffffffffffffffff00166001179055611a413390565b73ffffffffffffffffffffffffffffffffffffffff168173ffffffffffffffffffffffffffffffffffffffff16837f2f8788117e7eff1d82e926ec794901d17c78024a50270940304540a733656f0d60405160405180910390a45050565b5f8281526020818152604080832073ffffffffffffffffffffffffffffffffffffffff8516845290915290205460ff161561097c575f8281526020818152604080832073ffffffffffffffffffffffffffffffffffffffff8516808552925280832080547fffffffffffffffffffffffffffffffffffffffffffffffffffffffffffffff0016905551339285917ff6391f5c32d9c69d2a47ea670b442974b53935d1edc7fd64eb21e047a839171b9190a45050565b606061076773ffffffffffffffffffffffffffffffffffffffff831660145b60605f611b8183600261288e565b611b8c906002612798565b67ffffffffffffffff811115611ba457611ba4611f49565b6040519080825280601f01601f191660200182016040528015611bce576020820181803683370190505b5090507f3000000000000000000000000000000000000000000000000000000000000000815f81518110611c0457611c046124c9565b60200101907effffffffffffffffffffffffffffffffffffffffffffffffffffffffffffff191690815f1a9053507f780000000000000000000000000000000000000000000000000000000000000081600181518110611c6657611c666124c9565b60200101907effffffffffffffffffffffffffffffffffffffffffffffffffffffffffffff191690815f1a9053505f611ca084600261288e565b611cab906001612798565b90505b6001811115611d47577f303132333435363738396162636465660000000000000000000000000000000085600f1660108110611cec57611cec6124c9565b1a60f81b828281518110611d0257611d026124c9565b60200101907effffffffffffffffffffffffffffffffffffffffffffffffffffffffffffff191690815f1a90535060049490941c93611d40816128a5565b9050611cae565b508315610880576040517f08c379a000000000000000000000000000000000000000000000000000000000815260206004820181905260248201527f537472696e67733a20686578206c656e67746820696e73756666696369656e746044820152606401610969565b803573ffffffffffffffffffffffffffffffffffffffff81168114611dd3575f5ffd5b919050565b5f5f83601f840112611de8575f5ffd5b50813567ffffffffffffffff811115611dff575f5ffd5b602083019150836020828501011115611e16575f5ffd5b9250929050565b5f5f5f5f5f5f5f60c0888a031215611e33575f5ffd5b611e3c88611db0565b965060208801359550604088013567ffffffffffffffff811115611e5e575f5ffd5b611e6a8a828b01611dd8565b989b979a50986060810135976080820135975060a09091013595509350505050565b5f60208284031215611e9c575f5ffd5b81357fffffffff0000000000000000000000000000000000000000000000000000000081168114610880575f5ffd5b5f5f5f5f5f5f60a08789031215611ee0575f5ffd5b611ee987611db0565b955060208701359450604087013567ffffffffffffffff811115611f0b575f5ffd5b611f1789828a01611dd8565b979a9699509760608101359660809091013595509350505050565b5f60208284031215611f42575f5ffd5b5035919050565b7f4e487b71000000000000000000000000000000000000000000000000000000005f52604160045260245ffd5b604051601f82017fffffffffffffffffffffffffffffffffffffffffffffffffffffffffffffffe016810167ffffffffffffffff81118282101715611fbd57611fbd611f49565b604052919050565b5f82601f830112611fd4575f5ffd5b813567ffffffffffffffff811115611fee57611fee611f49565b61201f60207fffffffffffffffffffffffffffffffffffffffffffffffffffffffffffffffe0601f84011601611f76565b818152846020838601011115612033575f5ffd5b816020850160208301375f918101602001919091529392505050565b5f5f5f5f60808587031215612062575f5ffd5b61206b85611db0565b935061207960208601611db0565b925060408501359150606085013567ffffffffffffffff81111561209b575f5ffd5b6120a787828801611fc5565b91505092959194509250565b5f5f604083850312156120c4575f5ffd5b823591506120d460208401611db0565b90509250929050565b5f5f83601f8401126120ed575f5ffd5b50813567ffffffffffffffff811115612104575f5ffd5b6020830191508360208260051b8501011115611e16575f5ffd5b5f5f5f5f5f5f5f5f60a0898b031215612135575f5ffd5b883567ffffffffffffffff81111561214b575f5ffd5b6121578b828c016120dd565b909950975050602089013567ffffffffffffffff811115612176575f5ffd5b6121828b828c016120dd565b909750955050604089013567ffffffffffffffff8111156121a1575f5ffd5b6121ad8b828c016120dd565b999c989b509699959896976060870135966080013595509350505050565b5f5f5f5f5f5f5f5f5f60c08a8c0312156121e3575f5ffd5b893567ffffffffffffffff8111156121f9575f5ffd5b6122058c828d016120dd565b909a5098505060208a013567ffffffffffffffff811115612224575f5ffd5b6122308c828d016120dd565b90985096505060408a013567ffffffffffffffff81111561224f575f5ffd5b61225b8c828d016120dd565b9a9d999c50979a969997986060880135976080810135975060a0013595509350505050565b5f82601f83011261228f575f5ffd5b813567ffffffffffffffff8111156122a9576122a9611f49565b8060051b6122b960208201611f76565b918252602081850181019290810190868411156122d4575f5ffd5b6020860192505b838310156122f65782358252602092830192909101906122db565b9695505050505050565b5f5f5f5f5f60a08688031215612314575f5ffd5b61231d86611db0565b945061232b60208701611db0565b9350604086013567ffffffffffffffff811115612346575f5ffd5b61235288828901612280565b935050606086013567ffffffffffffffff81111561236e575f5ffd5b61237a88828901612280565b925050608086013567ffffffffffffffff811115612396575f5ffd5b6123a288828901611fc5565b9150509295509295909350565b5f5f5f5f5f60a086880312156123c3575f5ffd5b6123cc86611db0565b94506123da60208701611db0565b93506040860135925060608601359150608086013567ffffffffffffffff811115612396575f5ffd5b81835281816020850137505f602082840101525f60207fffffffffffffffffffffffffffffffffffffffffffffffffffffffffffffffe0601f840116840101905092915050565b73ffffffffffffffffffffffffffffffffffffffff8716815285602082015260a060408201525f61247f60a083018688612403565b60608301949094525060800152949350505050565b73ffffffffffffffffffffffffffffffffffffffff85168152836020820152606060408201525f6122f6606083018486612403565b7f4e487b71000000000000000000000000000000000000000000000000000000005f52603260045260245ffd5b5f60208284031215612506575f5ffd5b61088082611db0565b5f5f83357fffffffffffffffffffffffffffffffffffffffffffffffffffffffffffffffe1843603018112612542575f5ffd5b83018035915067ffffffffffffffff82111561255c575f5ffd5b602001915036819003821315611e16575f5ffd5b80357fffffffff0000000000000000000000000000000000000000000000000000000081169060048410156125cf577fffffffff00000000000000000000000000000000000000000000000000000000808560040360031b1b82161691505b5092915050565b5f8383855260208501945060208460051b820101835f5b8681101561269a577fffffffffffffffffffffffffffffffffffffffffffffffffffffffffffffffe084840301885281357fffffffffffffffffffffffffffffffffffffffffffffffffffffffffffffffe187360301811261264d575f5ffd5b860160208101903567ffffffffffffffff811115612669575f5ffd5b803603821315612677575f5ffd5b612682858284612403565b60209a8b019a909550939093019250506001016125ed565b50909695505050505050565b60a080825281018890525f8960c08301825b8b8110156126f35773ffffffffffffffffffffffffffffffffffffffff6126de84611db0565b168252602092830192909101906001016126b8565b5083810360208501528881527f07ffffffffffffffffffffffffffffffffffffffffffffffffffffffffffffff89111561272b575f5ffd5b8860051b9150818a6020830137018281036020908101604085015261275390820187896125d6565b60608401959095525050608001529695505050505050565b7f4e487b71000000000000000000000000000000000000000000000000000000005f52601160045260245ffd5b808201808211156107675761076761276b565b5f81518060208401855e5f93019283525090919050565b7f416363657373436f6e74726f6c3a206163636f756e742000000000000000000081525f6127f360178301856127ab565b7f206973206d697373696e6720726f6c6520000000000000000000000000000000815261282360118201856127ab565b95945050505050565b602081525f82518060208401528060208501604085015e5f6040828501015260407fffffffffffffffffffffffffffffffffffffffffffffffffffffffffffffffe0601f83011684010191505092915050565b818382375f9101908152919050565b80820281158282048414176107675761076761276b565b5f816128b3576128b361276b565b507fffffffffffffffffffffffffffffffffffffffffffffffffffffffffffffffff019056fea26469706673582212205293f2927cb8a183efcc9d14564687367385d1ae4055869018427395ca5f1e0664736f6c634300081c00335f58e3a2316349923ce3780f8d587db2d72378aed66a8261c916544fa6846ca5b09aa5aeb3702cfd50b6b62bc4532604938f21248a27a1d5ca736082b6819cc1d8aa0f3194971a2a116679f7c2090f6939c8d4e01a2a8d7e41d55e5351469e63fd643c72710c63c0180259aba6b2d05451e3591a24e58b62239378085726f783",
  "linkReferences": {},
  "deployedLinkReferences": {}
}