{
  "_format": "hh-sol-artifact-1",
  "contractName": "TestWeth",
  "sourceName": "contracts/test/tokens/TestWeth.sol",
  "abi": [
    {
      "anonymous": false,
      "inputs": [
        {
          "indexed": false,
          "internalType": "address",
          "name": "owner",
          "type": "address"
        },
        {
          "indexed": false,
          "internalType": "uint256",
          "name": "value",
          "type": "uint256"
        }
      ],
      "name": "Deposit",
      "type": "event"
    },
    {
      "anonymous": false,
      "inputs": [
        {
          "indexed": false,
          "internalType": "address",
          "name": "token",
          "type": "address"
        },
        {
          "indexed": false,
          "internalType": "address",
          "name": "from",
          "type": "address"
        },
        {
          "indexed": false,
          "internalType": "address",
          "name": "to",
          "type": "address"
        },
        {
          "indexed": false,
          "internalType": "uint256",
          "name": "value",
          "type": "uint256"
        }
      ],
      "name": "Transfer",
      "type": "event"
    },
    {
      "anonymous": false,
      "inputs": [
        {
          "indexed": false,
          "internalType": "address",
          "name": "owner",
          "type": "address"
        },
        {
          "indexed": false,
          "internalType": "uint256",
          "name": "value",
          "type": "uint256"
        }
      ],
      "name": "Withdrawal",
      "type": "event"
    },
    {
      "inputs": [
        {
          "internalType": "address",
          "name": "",
          "type": "address"
        },
        {
          "internalType": "address",
          "name": "",
          "type": "address"
        }
      ],
      "name": "allowance",
      "outputs": [
        {
          "internalType": "uint256",
          "name": "",
          "type": "uint256"
        }
      ],
      "stateMutability": "view",
      "type": "function"
    },
    {
      "inputs": [
        {
          "internalType": "address",
          "name": "spender",
          "type": "address"
        },
        {
          "internalType": "uint256",
          "name": "amount",
          "type": "uint256"
        }
      ],
      "name": "approve",
      "outputs": [
        {
          "internalType": "bool",
          "name": "",
          "type": "bool"
        }
      ],
      "stateMutability": "nonpayable",
      "type": "function"
    },
    {
      "inputs": [
        {
          "internalType": "address",
          "name": "owner",
          "type": "address"
        },
        {
          "internalType": "address",
          "name": "spender",
          "type": "address"
        },
        {
          "internalType": "uint256",
          "name": "amount",
          "type": "uint256"
        }
      ],
      "name": "approveAs",
      "outputs": [
        {
          "internalType": "bool",
          "name": "",
          "type": "bool"
        }
      ],
      "stateMutability": "nonpayable",
      "type": "function"
    },
    {
      "inputs": [
        {
          "internalType": "address",
          "name": "",
          "type": "address"
        }
      ],
      "name": "balanceOf",
      "outputs": [
        {
          "internalType": "uint256",
          "name": "",
          "type": "uint256"
        }
      ],
      "stateMutability": "view",
      "type": "function"
    },
    {
      "inputs": [
        {
          "internalType": "address",
          "name": "owner",
          "type": "address"
        },
        {
          "internalType": "uint256",
          "name": "amount",
          "type": "uint256"
        }
      ],
      "name": "burn",
      "outputs": [],
      "stateMutability": "nonpayable",
      "type": "function"
    },
    {
      "inputs": [],
      "name": "deposit",
      "outputs": [],
      "stateMutability": "payable",
      "type": "function"
    },
    {
      "inputs": [
        {
          "internalType": "address",
          "name": "owner",
          "type": "address"
        }
      ],
      "name": "depositTo",
      "outputs": [],
      "stateMutability": "payable",
      "type": "function"
    },
    {
      "inputs": [
        {
          "internalType": "address",
          "name": "owner",
          "type": "address"
        },
        {
          "internalType": "address",
          "name": "spender",
          "type": "address"
        }
      ],
      "name": "getSpendableAmount",
      "outputs": [
        {
          "internalType": "uint256",
          "name": "",
          "type": "uint256"
        }
      ],
      "stateMutability": "view",
      "type": "function"
    },
    {
      "inputs": [
        {
          "internalType": "address",
          "name": "owner",
          "type": "address"
        },
        {
          "internalType": "uint256",
          "name": "amount",
          "type": "uint256"
        }
      ],
      "name": "mint",
      "outputs": [],
      "stateMutability": "nonpayable",
      "type": "function"
    },
    {
      "inputs": [
        {
          "internalType": "address",
          "name": "to",
          "type": "address"
        },
        {
          "internalType": "uint256",
          "name": "amount",
          "type": "uint256"
        }
      ],
      "name": "transfer",
      "outputs": [
        {
          "internalType": "bool",
          "name": "",
          "type": "bool"
        }
      ],
      "stateMutability": "nonpayable",
      "type": "function"
    },
    {
      "inputs": [
        {
          "internalType": "address",
          "name": "from",
          "type": "address"
        },
        {
          "internalType": "address",
          "name": "to",
          "type": "address"
        },
        {
          "internalType": "uint256",
          "name": "amount",
          "type": "uint256"
        }
      ],
      "name": "transferFrom",
      "outputs": [
        {
          "internalType": "bool",
          "name": "",
          "type": "bool"
        }
      ],
      "stateMutability": "nonpayable",
      "type": "function"
    },
    {
      "inputs": [
        {
          "internalType": "uint256",
          "name": "amount",
          "type": "uint256"
        }
      ],
      "name": "withdraw",
      "outputs": [],
      "stateMutability": "nonpayable",
      "type": "function"
    }
  ],
  "bytecode": "0x6080604052348015600f57600080fd5b506111db8061001f6000396000f3fe6080604052600436106100a75760003560e01c806370a082311161006457806370a08231146101f25780639dc29fac1461022f578063a9059cbb14610258578063b760faf914610295578063d0e30db0146102b1578063dd62ed3e146102bb576100a7565b8063095ea7b3146100ac578063111c4724146100e957806323b872dd146101265780632724ed4b146101635780632e1a7d4d146101a057806340c10f19146101c9575b600080fd5b3480156100b857600080fd5b506100d360048036038101906100ce9190610d63565b6102f8565b6040516100e09190610dbe565b60405180910390f35b3480156100f557600080fd5b50610110600480360381019061010b9190610dd9565b610385565b60405161011d9190610dbe565b60405180910390f35b34801561013257600080fd5b5061014d60048036038101906101489190610dd9565b610413565b60405161015a9190610dbe565b60405180910390f35b34801561016f57600080fd5b5061018a60048036038101906101859190610e2c565b61070e565b6040516101979190610e7b565b60405180910390f35b3480156101ac57600080fd5b506101c760048036038101906101c29190610e96565b61089b565b005b3480156101d557600080fd5b506101f060048036038101906101eb9190610d63565b6109f4565b005b3480156101fe57600080fd5b5061021960048036038101906102149190610ec3565b610a4d565b6040516102269190610e7b565b60405180910390f35b34801561023b57600080fd5b5061025660048036038101906102519190610d63565b610a65565b005b34801561026457600080fd5b5061027f600480360381019061027a9190610d63565b610b3f565b60405161028c9190610dbe565b60405180910390f35b6102af60048036038101906102aa9190610ec3565b610b54565b005b6102b9610bfd565b005b3480156102c757600080fd5b506102e260048036038101906102dd9190610e2c565b610ca5565b6040516102ef9190610e7b565b60405180910390f35b600081600160003373ffffffffffffffffffffffffffffffffffffffff1673ffffffffffffffffffffffffffffffffffffffff16815260200190815260200160002060008573ffffffffffffffffffffffffffffffffffffffff1673ffffffffffffffffffffffffffffffffffffffff168152602001908152602001600020819055506001905092915050565b600081600160008673ffffffffffffffffffffffffffffffffffffffff1673ffffffffffffffffffffffffffffffffffffffff16815260200190815260200160002060008573ffffffffffffffffffffffffffffffffffffffff1673ffffffffffffffffffffffffffffffffffffffff16815260200190815260200160002081905550600190509392505050565b60003373ffffffffffffffffffffffffffffffffffffffff168473ffffffffffffffffffffffffffffffffffffffff161461059b5781600160008673ffffffffffffffffffffffffffffffffffffffff1673ffffffffffffffffffffffffffffffffffffffff16815260200190815260200160002060003373ffffffffffffffffffffffffffffffffffffffff1673ffffffffffffffffffffffffffffffffffffffff168152602001908152602001600020541015610507576040517f08c379a00000000000000000000000000000000000000000000000000000000081526004016104fe90610f73565b60405180910390fd5b81600160008673ffffffffffffffffffffffffffffffffffffffff1673ffffffffffffffffffffffffffffffffffffffff16815260200190815260200160002060003373ffffffffffffffffffffffffffffffffffffffff1673ffffffffffffffffffffffffffffffffffffffff16815260200190815260200160002060008282546105939190610fc2565b925050819055505b816000808673ffffffffffffffffffffffffffffffffffffffff1673ffffffffffffffffffffffffffffffffffffffff16815260200190815260200160002054101561061c576040517f08c379a000000000000000000000000000000000000000000000000000000000815260040161061390611068565b60405180910390fd5b816000808673ffffffffffffffffffffffffffffffffffffffff1673ffffffffffffffffffffffffffffffffffffffff168152602001908152602001600020600082825461066a9190610fc2565b92505081905550816000808573ffffffffffffffffffffffffffffffffffffffff1673ffffffffffffffffffffffffffffffffffffffff16815260200190815260200160002060008282546106bf9190611088565b925050819055507fd1398bee19313d6bf672ccb116e51f4a1a947e91c757907f51fbb5b5e56c698f308585856040516106fb94939291906110cb565b60405180910390a1600190509392505050565b6000600160008473ffffffffffffffffffffffffffffffffffffffff1673ffffffffffffffffffffffffffffffffffffffff16815260200190815260200160002060008373ffffffffffffffffffffffffffffffffffffffff1673ffffffffffffffffffffffffffffffffffffffff168152602001908152602001600020546000808573ffffffffffffffffffffffffffffffffffffffff1673ffffffffffffffffffffffffffffffffffffffff168152602001908152602001600020541061085357600160008473ffffffffffffffffffffffffffffffffffffffff1673ffffffffffffffffffffffffffffffffffffffff16815260200190815260200160002060008373ffffffffffffffffffffffffffffffffffffffff1673ffffffffffffffffffffffffffffffffffffffff16815260200190815260200160002054610893565b6000808473ffffffffffffffffffffffffffffffffffffffff1673ffffffffffffffffffffffffffffffffffffffff168152602001908152602001600020545b905092915050565b806000803373ffffffffffffffffffffffffffffffffffffffff1673ffffffffffffffffffffffffffffffffffffffff16815260200190815260200160002054101561091c576040517f08c379a00000000000000000000000000000000000000000000000000000000081526004016109139061115c565b60405180910390fd5b806000803373ffffffffffffffffffffffffffffffffffffffff1673ffffffffffffffffffffffffffffffffffffffff168152602001908152602001600020600082825461096a9190610fc2565b925050819055503373ffffffffffffffffffffffffffffffffffffffff166108fc829081150290604051600060405180830381858888f193505050501580156109b7573d6000803e3d6000fd5b507f7fcf532c15f0a6db0bd6d0e038bea71d30d808c7d98cb3bf7268a95bf5081b6533826040516109e992919061117c565b60405180910390a150565b806000808473ffffffffffffffffffffffffffffffffffffffff1673ffffffffffffffffffffffffffffffffffffffff1681526020019081526020016000206000828254610a429190611088565b925050819055505050565b60006020528060005260406000206000915090505481565b806000808473ffffffffffffffffffffffffffffffffffffffff1673ffffffffffffffffffffffffffffffffffffffff168152602001908152602001600020541015610ae6576040517f08c379a0000000000000000000000000000000000000000000000000000000008152600401610add90611068565b60405180910390fd5b806000808473ffffffffffffffffffffffffffffffffffffffff1673ffffffffffffffffffffffffffffffffffffffff1681526020019081526020016000206000828254610b349190610fc2565b925050819055505050565b6000610b4c338484610413565b905092915050565b3073ffffffffffffffffffffffffffffffffffffffff166340c10f1982346040518363ffffffff1660e01b8152600401610b8f92919061117c565b600060405180830381600087803b158015610ba957600080fd5b505af1158015610bbd573d6000803e3d6000fd5b505050507fe1fffcc4923d04b559f4d29a8bfc6cda04eb5b0d3c460751c2402c5c5cc9109c8134604051610bf292919061117c565b60405180910390a150565b3073ffffffffffffffffffffffffffffffffffffffff166340c10f1933346040518363ffffffff1660e01b8152600401610c3892919061117c565b600060405180830381600087803b158015610c5257600080fd5b505af1158015610c66573d6000803e3d6000fd5b505050507fe1fffcc4923d04b559f4d29a8bfc6cda04eb5b0d3c460751c2402c5c5cc9109c3334604051610c9b92919061117c565b60405180910390a1565b6001602052816000526040600020602052806000526040600020600091509150505481565b600080fd5b600073ffffffffffffffffffffffffffffffffffffffff82169050919050565b6000610cfa82610ccf565b9050919050565b610d0a81610cef565b8114610d1557600080fd5b50565b600081359050610d2781610d01565b92915050565b6000819050919050565b610d4081610d2d565b8114610d4b57600080fd5b50565b600081359050610d5d81610d37565b92915050565b60008060408385031215610d7a57610d79610cca565b5b6000610d8885828601610d18565b9250506020610d9985828601610d4e565b9150509250929050565b60008115159050919050565b610db881610da3565b82525050565b6000602082019050610dd36000830184610daf565b92915050565b600080600060608486031215610df257610df1610cca565b5b6000610e0086828701610d18565b9350506020610e1186828701610d18565b9250506040610e2286828701610d4e565b9150509250925092565b60008060408385031215610e4357610e42610cca565b5b6000610e5185828601610d18565b9250506020610e6285828601610d18565b9150509250929050565b610e7581610d2d565b82525050565b6000602082019050610e906000830184610e6c565b92915050565b600060208284031215610eac57610eab610cca565b5b6000610eba84828501610d4e565b91505092915050565b600060208284031215610ed957610ed8610cca565b5b6000610ee784828501610d18565b91505092915050565b600082825260208201905092915050565b7f546573744d696e7461626c654552433230546f6b656e2f494e5355464649434960008201527f454e545f414c4c4f57414e434500000000000000000000000000000000000000602082015250565b6000610f5d602d83610ef0565b9150610f6882610f01565b604082019050919050565b60006020820190508181036000830152610f8c81610f50565b9050919050565b7f4e487b7100000000000000000000000000000000000000000000000000000000600052601160045260246000fd5b6000610fcd82610d2d565b9150610fd883610d2d565b9250828203905081811115610ff057610fef610f93565b5b92915050565b7f546573744d696e7461626c654552433230546f6b656e2f494e5355464649434960008201527f454e545f46554e44530000000000000000000000000000000000000000000000602082015250565b6000611052602983610ef0565b915061105d82610ff6565b604082019050919050565b6000602082019050818103600083015261108181611045565b9050919050565b600061109382610d2d565b915061109e83610d2d565b92508282019050808211156110b6576110b5610f93565b5b92915050565b6110c581610cef565b82525050565b60006080820190506110e060008301876110bc565b6110ed60208301866110bc565b6110fa60408301856110bc565b6111076060830184610e6c565b95945050505050565b7f54657374576574682f494e53554646494349454e545f46554e44530000000000600082015250565b6000611146601b83610ef0565b915061115182611110565b602082019050919050565b6000602082019050818103600083015261117581611139565b9050919050565b600060408201905061119160008301856110bc565b61119e6020830184610e6c565b939250505056fea2646970667358221220574930811ef2539d1b3dce3da22bf461334c17d85833591b6c47c3036b564eb464736f6c634300081c0033",
  "linkReferences": {},
  "deployedLinkReferences": {}
}