{
  "_format": "hh-sol-artifact-1",
  "contractName": "TestWeth",
  "sourceName": "contracts/test/tokens/TestWeth.sol",
  "abi": [
    {
      "anonymous": false,
      "inputs": [
        {
          "indexed": false,
          "internalType": "address",
          "name": "owner",
          "type": "address"
        },
        {
          "indexed": false,
          "internalType": "uint256",
          "name": "value",
          "type": "uint256"
        }
      ],
      "name": "Deposit",
      "type": "event"
    },
    {
      "anonymous": false,
      "inputs": [
        {
          "indexed": false,
          "internalType": "address",
          "name": "token",
          "type": "address"
        },
        {
          "indexed": false,
          "internalType": "address",
          "name": "from",
          "type": "address"
        },
        {
          "indexed": false,
          "internalType": "address",
          "name": "to",
          "type": "address"
        },
        {
          "indexed": false,
          "internalType": "uint256",
          "name": "value",
          "type": "uint256"
        }
      ],
      "name": "Transfer",
      "type": "event"
    },
    {
      "anonymous": false,
      "inputs": [
        {
          "indexed": false,
          "internalType": "address",
          "name": "owner",
          "type": "address"
        },
        {
          "indexed": false,
          "internalType": "uint256",
          "name": "value",
          "type": "uint256"
        }
      ],
      "name": "Withdrawal",
      "type": "event"
    },
    {
      "inputs": [
        {
          "internalType": "address",
          "name": "",
          "type": "address"
        },
        {
          "internalType": "address",
          "name": "",
          "type": "address"
        }
      ],
      "name": "allowance",
      "outputs": [
        {
          "internalType": "uint256",
          "name": "",
          "type": "uint256"
        }
      ],
      "stateMutability": "view",
      "type": "function"
    },
    {
      "inputs": [
        {
          "internalType": "address",
          "name": "spender",
          "type": "address"
        },
        {
          "internalType": "uint256",
          "name": "amount",
          "type": "uint256"
        }
      ],
      "name": "approve",
      "outputs": [
        {
          "internalType": "bool",
          "name": "",
          "type": "bool"
        }
      ],
      "stateMutability": "nonpayable",
      "type": "function"
    },
    {
      "inputs": [
        {
          "internalType": "address",
          "name": "owner",
          "type": "address"
        },
        {
          "internalType": "address",
          "name": "spender",
          "type": "address"
        },
        {
          "internalType": "uint256",
          "name": "amount",
          "type": "uint256"
        }
      ],
      "name": "approveAs",
      "outputs": [
        {
          "internalType": "bool",
          "name": "",
          "type": "bool"
        }
      ],
      "stateMutability": "nonpayable",
      "type": "function"
    },
    {
      "inputs": [
        {
          "internalType": "address",
          "name": "",
          "type": "address"
        }
      ],
      "name": "balanceOf",
      "outputs": [
        {
          "internalType": "uint256",
          "name": "",
          "type": "uint256"
        }
      ],
      "stateMutability": "view",
      "type": "function"
    },
    {
      "inputs": [
        {
          "internalType": "address",
          "name": "owner",
          "type": "address"
        },
        {
          "internalType": "uint256",
          "name": "amount",
          "type": "uint256"
        }
      ],
      "name": "burn",
      "outputs": [],
      "stateMutability": "nonpayable",
      "type": "function"
    },
    {
      "inputs": [],
      "name": "deposit",
      "outputs": [],
      "stateMutability": "payable",
      "type": "function"
    },
    {
      "inputs": [
        {
          "internalType": "address",
          "name": "owner",
          "type": "address"
        }
      ],
      "name": "depositTo",
      "outputs": [],
      "stateMutability": "payable",
      "type": "function"
    },
    {
      "inputs": [
        {
          "internalType": "address",
          "name": "owner",
          "type": "address"
        },
        {
          "internalType": "address",
          "name": "spender",
          "type": "address"
        }
      ],
      "name": "getSpendableAmount",
      "outputs": [
        {
          "internalType": "uint256",
          "name": "",
          "type": "uint256"
        }
      ],
      "stateMutability": "view",
      "type": "function"
    },
    {
      "inputs": [
        {
          "internalType": "address",
          "name": "owner",
          "type": "address"
        },
        {
          "internalType": "uint256",
          "name": "amount",
          "type": "uint256"
        }
      ],
      "name": "mint",
      "outputs": [],
      "stateMutability": "nonpayable",
      "type": "function"
    },
    {
      "inputs": [
        {
          "internalType": "address",
          "name": "to",
          "type": "address"
        },
        {
          "internalType": "uint256",
          "name": "amount",
          "type": "uint256"
        }
      ],
      "name": "transfer",
      "outputs": [
        {
          "internalType": "bool",
          "name": "",
          "type": "bool"
        }
      ],
      "stateMutability": "nonpayable",
      "type": "function"
    },
    {
      "inputs": [
        {
          "internalType": "address",
          "name": "from",
          "type": "address"
        },
        {
          "internalType": "address",
          "name": "to",
          "type": "address"
        },
        {
          "internalType": "uint256",
          "name": "amount",
          "type": "uint256"
        }
      ],
      "name": "transferFrom",
      "outputs": [
        {
          "internalType": "bool",
          "name": "",
          "type": "bool"
        }
      ],
      "stateMutability": "nonpayable",
      "type": "function"
    },
    {
      "inputs": [
        {
          "internalType": "uint256",
          "name": "amount",
          "type": "uint256"
        }
      ],
      "name": "withdraw",
      "outputs": [],
      "stateMutability": "nonpayable",
      "type": "function"
    }
  ],
  "bytecode": "0x6080604052348015600e575f5ffd5b506109188061001c5f395ff3fe6080604052600436106100a5575f3560e01c806370a082311161006257806370a08231146101b35780639dc29fac146101de578063a9059cbb146101fd578063b760faf91461021c578063d0e30db01461022f578063dd62ed3e14610237575f5ffd5b8063095ea7b3146100a9578063111c4724146100dd57806323b872dd146101275780632724ed4b146101465780632e1a7d4d1461017357806340c10f1914610194575b5f5ffd5b3480156100b4575f5ffd5b506100c86100c336600461079c565b61026d565b60405190151581526020015b60405180910390f35b3480156100e8575f5ffd5b506100c86100f73660046107c4565b6001600160a01b038084165f90815260016020818152604080842094871684529390529190208290559392505050565b348015610132575f5ffd5b506100c86101413660046107c4565b61029a565b348015610151575f5ffd5b506101656101603660046107fe565b610459565b6040519081526020016100d4565b34801561017e575f5ffd5b5061019261018d36600461082f565b6104d9565b005b34801561019f575f5ffd5b506101926101ae36600461079c565b6105c2565b3480156101be575f5ffd5b506101656101cd366004610846565b5f6020819052908152604090205481565b3480156101e9575f5ffd5b506101926101f836600461079c565b6105f2565b348015610208575f5ffd5b506100c861021736600461079c565b610650565b61019261022a366004610846565b61065c565b6101926106f5565b348015610242575f5ffd5b506101656102513660046107fe565b600160209081525f928352604080842090915290825290205481565b335f9081526001602081815260408084206001600160a01b03871685529091529091208290555b92915050565b5f6001600160a01b0384163314610370576001600160a01b0384165f9081526001602090815260408083203384529091529020548211156103385760405162461bcd60e51b815260206004820152602d60248201527f546573744d696e7461626c654552433230546f6b656e2f494e5355464649434960448201526c454e545f414c4c4f57414e434560981b60648201526084015b60405180910390fd5b6001600160a01b0384165f9081526001602090815260408083203384529091528120805484929061036a908490610873565b90915550505b6001600160a01b0384165f908152602081905260409020548211156103a75760405162461bcd60e51b815260040161032f90610886565b6001600160a01b0384165f90815260208190526040812080548492906103ce908490610873565b90915550506001600160a01b0383165f90815260208190526040812080548492906103fa9084906108cf565b9091555050604080513081526001600160a01b0386811660208301528516818301526060810184905290517fd1398bee19313d6bf672ccb116e51f4a1a947e91c757907f51fbb5b5e56c698f9181900360800190a15060019392505050565b6001600160a01b038083165f81815260016020908152604080832094861683529381528382205492825281905291822054106104b9576001600160a01b038084165f908152600160209081526040808320938616835292905220546104d2565b6001600160a01b0383165f908152602081905260409020545b9392505050565b335f908152602081905260409020548111156105375760405162461bcd60e51b815260206004820152601b60248201527f54657374576574682f494e53554646494349454e545f46554e44530000000000604482015260640161032f565b335f9081526020819052604081208054839290610555908490610873565b9091555050604051339082156108fc029083905f818181858888f19350505050158015610584573d5f5f3e3d5ffd5b5060408051338152602081018390527f7fcf532c15f0a6db0bd6d0e038bea71d30d808c7d98cb3bf7268a95bf5081b6591015b60405180910390a150565b6001600160a01b0382165f90815260208190526040812080548392906105e99084906108cf565b90915550505050565b6001600160a01b0382165f908152602081905260409020548111156106295760405162461bcd60e51b815260040161032f90610886565b6001600160a01b0382165f90815260208190526040812080548392906105e9908490610873565b5f6104d233848461029a565b6040516340c10f1960e01b81526001600160a01b038216600482015234602482015230906340c10f19906044015f604051808303815f87803b1580156106a0575f5ffd5b505af11580156106b2573d5f5f3e3d5ffd5b5050604080516001600160a01b03851681523460208201527fe1fffcc4923d04b559f4d29a8bfc6cda04eb5b0d3c460751c2402c5c5cc9109c93500190506105b7565b6040516340c10f1960e01b815233600482015234602482015230906340c10f19906044015f604051808303815f87803b158015610730575f5ffd5b505af1158015610742573d5f5f3e3d5ffd5b5050604080513381523460208201527fe1fffcc4923d04b559f4d29a8bfc6cda04eb5b0d3c460751c2402c5c5cc9109c935001905060405180910390a1565b80356001600160a01b0381168114610797575f5ffd5b919050565b5f5f604083850312156107ad575f5ffd5b6107b683610781565b946020939093013593505050565b5f5f5f606084860312156107d6575f5ffd5b6107df84610781565b92506107ed60208501610781565b929592945050506040919091013590565b5f5f6040838503121561080f575f5ffd5b61081883610781565b915061082660208401610781565b90509250929050565b5f6020828403121561083f575f5ffd5b5035919050565b5f60208284031215610856575f5ffd5b6104d282610781565b634e487b7160e01b5f52601160045260245ffd5b818103818111156102945761029461085f565b60208082526029908201527f546573744d696e7461626c654552433230546f6b656e2f494e53554646494349604082015268454e545f46554e445360b81b606082015260800190565b808201808211156102945761029461085f56fea2646970667358221220d412872ef5a3e3a57af71e7ca1566a5480c5c6b1fc4e198d6a4ad9a5f6ce69e964736f6c634300081c0033",
  "linkReferences": {},
  "deployedLinkReferences": {}
}